{
  "abi": [
    {
      "anonymous": false,
      "inputs": [
        {
          "indexed": false,
          "internalType": "address",
          "name": "",
          "type": "address"
        },
        {
          "indexed": false,
          "internalType": "string",
          "name": "",
          "type": "string"
        },
        {
          "indexed": false,
          "internalType": "address",
          "name": "",
          "type": "address"
        },
        {
          "indexed": false,
          "internalType": "bool",
          "name": "",
          "type": "bool"
        }
      ],
      "name": "DeleteDoctor",
      "type": "event",
      "signature": "0x780b3c74ec1e08d8c65fd8a12c6ac2da5c15f2d3b5e54335b51671f63b7d2ad0"
    },
    {
      "anonymous": false,
      "inputs": [
        {
          "indexed": false,
          "internalType": "address",
          "name": "",
          "type": "address"
        },
        {
          "indexed": false,
          "internalType": "string",
          "name": "",
          "type": "string"
        },
        {
          "indexed": false,
          "internalType": "string",
          "name": "",
          "type": "string"
        },
        {
          "indexed": false,
          "internalType": "string",
          "name": "",
          "type": "string"
        },
        {
          "indexed": false,
          "internalType": "uint256",
          "name": "",
          "type": "uint256"
        },
        {
          "indexed": false,
          "internalType": "bool",
          "name": "",
          "type": "bool"
        }
      ],
      "name": "DeleteHospital",
      "type": "event",
      "signature": "0x05818f5e23a2c2bb34c81792ea8e3397d3f8ad179cb93a5fa57b3d4681564aa0"
    },
    {
      "anonymous": false,
      "inputs": [
        {
          "indexed": false,
          "internalType": "uint256",
          "name": "",
          "type": "uint256"
        },
        {
          "indexed": false,
          "internalType": "string",
          "name": "",
          "type": "string"
        },
        {
          "indexed": false,
          "internalType": "string",
          "name": "",
          "type": "string"
        },
        {
          "indexed": false,
          "internalType": "address",
          "name": "",
          "type": "address"
        },
        {
          "indexed": false,
          "internalType": "bool",
          "name": "",
          "type": "bool"
        }
      ],
      "name": "DeleteSensor",
      "type": "event",
      "signature": "0xef9006907eb20210e880b0bb1c39946083bcec24688718507d63a259ffa8351b"
    },
    {
      "anonymous": false,
      "inputs": [
        {
          "indexed": false,
          "internalType": "address",
          "name": "",
          "type": "address"
        },
        {
          "indexed": false,
          "internalType": "string",
          "name": "",
          "type": "string"
        },
        {
          "indexed": false,
          "internalType": "address",
          "name": "",
          "type": "address"
        },
        {
          "indexed": false,
          "internalType": "bool",
          "name": "",
          "type": "bool"
        }
      ],
      "name": "NewDoctor",
      "type": "event",
      "signature": "0x4578695497af1a3a1f556f9c89f9f107851cb8e1820e4b336143406b9ba52e3b"
    },
    {
      "anonymous": false,
      "inputs": [
        {
          "indexed": false,
          "internalType": "address",
          "name": "",
          "type": "address"
        },
        {
          "indexed": false,
          "internalType": "string",
          "name": "",
          "type": "string"
        },
        {
          "indexed": false,
          "internalType": "string",
          "name": "",
          "type": "string"
        },
        {
          "indexed": false,
          "internalType": "string",
          "name": "",
          "type": "string"
        },
        {
          "indexed": false,
          "internalType": "uint256",
          "name": "",
          "type": "uint256"
        },
        {
          "indexed": false,
          "internalType": "bool",
          "name": "",
          "type": "bool"
        }
      ],
      "name": "NewHospital",
      "type": "event",
      "signature": "0xf646212acc3f5092fb0211ffd5121c0f706641b715e3982dab50afb395413dd5"
    },
    {
      "anonymous": false,
      "inputs": [
        {
          "indexed": false,
          "internalType": "uint256",
          "name": "",
          "type": "uint256"
        },
        {
          "indexed": false,
          "internalType": "string",
          "name": "",
          "type": "string"
        },
        {
          "indexed": false,
          "internalType": "string",
          "name": "",
          "type": "string"
        },
        {
          "indexed": false,
          "internalType": "address",
          "name": "",
          "type": "address"
        },
        {
          "indexed": false,
          "internalType": "bool",
          "name": "",
          "type": "bool"
        }
      ],
      "name": "NewSensor",
      "type": "event",
      "signature": "0x1d6a52c11773994a4a6eaa1ace32b929e7f0900bbe29db3f1d36a3cd45f1486c"
    },
    {
      "anonymous": false,
      "inputs": [
        {
          "indexed": false,
          "internalType": "address",
          "name": "",
          "type": "address"
        },
        {
          "indexed": false,
          "internalType": "string",
          "name": "",
          "type": "string"
        },
        {
          "indexed": false,
          "internalType": "address",
          "name": "",
          "type": "address"
        }
      ],
      "name": "RefreshDoctor",
      "type": "event",
      "signature": "0x239b189726729811e87d7845d82777804144af4e76981af04d802a85f7442b66"
    },
    {
      "anonymous": false,
      "inputs": [
        {
          "indexed": false,
          "internalType": "address",
          "name": "",
          "type": "address"
        },
        {
          "indexed": false,
          "internalType": "string",
          "name": "",
          "type": "string"
        },
        {
          "indexed": false,
          "internalType": "string",
          "name": "",
          "type": "string"
        },
        {
          "indexed": false,
          "internalType": "string",
          "name": "",
          "type": "string"
        },
        {
          "indexed": false,
          "internalType": "uint256",
          "name": "",
          "type": "uint256"
        }
      ],
      "name": "RefreshHospital",
      "type": "event",
      "signature": "0xb1c43f8b1923988960e95c122fd3ebb503023379b8ca6f0603d2f6b0beb52811"
    },
    {
      "anonymous": false,
      "inputs": [
        {
          "indexed": false,
          "internalType": "uint256",
          "name": "",
          "type": "uint256"
        },
        {
          "indexed": false,
          "internalType": "string",
          "name": "",
          "type": "string"
        },
        {
          "indexed": false,
          "internalType": "string",
          "name": "",
          "type": "string"
        },
        {
          "indexed": false,
          "internalType": "address",
          "name": "",
          "type": "address"
        }
      ],
      "name": "RefreshSensor",
      "type": "event",
      "signature": "0xba2bd0d5052fb9458eaac383932e8112a57bfc6a1836ad7118b1673447d3e6ae"
    },
    {
      "inputs": [
        {
          "internalType": "address",
          "name": "idDoctor",
          "type": "address"
        },
        {
          "internalType": "string",
          "name": "_nameDoctor",
          "type": "string"
        },
        {
          "internalType": "address",
          "name": "_hospital",
          "type": "address"
        }
      ],
      "name": "AddDoctor",
      "outputs": [],
      "stateMutability": "nonpayable",
      "type": "function",
      "signature": "0xe1ee3b56"
    },
    {
      "inputs": [
        {
          "internalType": "address",
          "name": "_idHospital",
          "type": "address"
        },
        {
          "internalType": "string",
          "name": "_name",
          "type": "string"
        },
        {
          "internalType": "string",
          "name": "_city",
          "type": "string"
        },
        {
          "internalType": "string",
          "name": "_state",
          "type": "string"
        },
        {
          "internalType": "uint256",
          "name": "_postalCode",
          "type": "uint256"
        }
      ],
      "name": "AddHospital",
      "outputs": [],
      "stateMutability": "nonpayable",
      "type": "function",
      "signature": "0xa27876c5"
    },
    {
      "inputs": [
        {
          "internalType": "string",
          "name": "_mac",
          "type": "string"
        },
        {
          "internalType": "string",
          "name": "_patientName",
          "type": "string"
        },
        {
          "internalType": "address",
          "name": "_idDoctor",
          "type": "address"
        },
        {
          "internalType": "bool",
          "name": "_active",
          "type": "bool"
        }
      ],
      "name": "AddSensor",
      "outputs": [],
      "stateMutability": "nonpayable",
      "type": "function",
      "signature": "0x1b057e40"
    },
    {
      "inputs": [
        {
          "internalType": "address",
          "name": "",
          "type": "address"
        }
      ],
      "name": "Doctors",
      "outputs": [
        {
          "internalType": "address",
          "name": "idDoctor",
          "type": "address"
        },
        {
          "internalType": "string",
          "name": "nameDoctor",
          "type": "string"
        },
        {
          "internalType": "address",
          "name": "hospital",
          "type": "address"
        },
        {
          "internalType": "bool",
          "name": "permission",
          "type": "bool"
        }
      ],
      "stateMutability": "view",
      "type": "function",
      "constant": true,
      "signature": "0xdc7aa36b"
    },
    {
      "inputs": [
        {
          "internalType": "address",
          "name": "",
          "type": "address"
        }
      ],
      "name": "Hospitals",
      "outputs": [
        {
          "internalType": "address",
          "name": "idHospital",
          "type": "address"
        },
        {
          "internalType": "string",
          "name": "name",
          "type": "string"
        },
        {
          "internalType": "string",
          "name": "city",
          "type": "string"
        },
        {
          "internalType": "string",
          "name": "state",
          "type": "string"
        },
        {
          "internalType": "uint256",
          "name": "postalCode",
          "type": "uint256"
        },
        {
          "internalType": "bool",
          "name": "permission",
          "type": "bool"
        }
      ],
      "stateMutability": "view",
      "type": "function",
      "constant": true,
      "signature": "0xa549a4ed"
    },
    {
      "inputs": [],
      "name": "Length_Doctors",
      "outputs": [
        {
          "internalType": "uint256",
          "name": "",
          "type": "uint256"
        }
      ],
      "stateMutability": "view",
      "type": "function",
      "constant": true,
      "signature": "0x1ba51696"
    },
    {
      "inputs": [],
      "name": "Length_Hospitals",
      "outputs": [
        {
          "internalType": "uint256",
          "name": "",
          "type": "uint256"
        }
      ],
      "stateMutability": "view",
      "type": "function",
      "constant": true,
      "signature": "0xa17d7a38"
    },
    {
      "inputs": [],
      "name": "Length_sensors",
      "outputs": [
        {
          "internalType": "uint256",
          "name": "",
          "type": "uint256"
        }
      ],
      "stateMutability": "view",
      "type": "function",
      "constant": true,
      "signature": "0xb5843613"
    },
    {
      "inputs": [
        {
          "internalType": "address",
          "name": "_id",
          "type": "address"
        }
      ],
      "name": "ReadDoctor",
      "outputs": [
        {
          "internalType": "string",
          "name": "",
          "type": "string"
        },
        {
          "internalType": "address",
          "name": "",
          "type": "address"
        },
        {
          "internalType": "bool",
          "name": "",
          "type": "bool"
        }
      ],
      "stateMutability": "view",
      "type": "function",
      "constant": true,
      "signature": "0x6cd8ebdc"
    },
    {
      "inputs": [
        {
          "internalType": "address",
          "name": "_address",
          "type": "address"
        }
      ],
      "name": "ReadHospital",
      "outputs": [
        {
          "internalType": "string",
          "name": "",
          "type": "string"
        },
        {
          "internalType": "string",
          "name": "",
          "type": "string"
        },
        {
          "internalType": "string",
          "name": "",
          "type": "string"
        },
        {
          "internalType": "uint256",
          "name": "",
          "type": "uint256"
        },
        {
          "internalType": "bool",
          "name": "",
          "type": "bool"
        }
      ],
      "stateMutability": "view",
      "type": "function",
      "constant": true,
      "signature": "0x9b70e779"
    },
    {
      "inputs": [
        {
          "internalType": "uint256",
          "name": "_id",
          "type": "uint256"
        }
      ],
      "name": "ReadSensor",
      "outputs": [
        {
          "internalType": "string",
          "name": "",
          "type": "string"
        },
        {
          "internalType": "string",
          "name": "",
          "type": "string"
        },
        {
          "internalType": "address",
          "name": "",
          "type": "address"
        },
        {
          "internalType": "bool",
          "name": "",
          "type": "bool"
        }
      ],
      "stateMutability": "view",
      "type": "function",
      "constant": true,
      "signature": "0x02655c2e"
    },
    {
      "inputs": [
        {
          "internalType": "address",
          "name": "_id",
          "type": "address"
        }
      ],
      "name": "RemoveDoctor",
      "outputs": [],
      "stateMutability": "nonpayable",
      "type": "function",
      "signature": "0xa0568e2d"
    },
    {
      "inputs": [
        {
          "internalType": "address",
          "name": "_address",
          "type": "address"
        }
      ],
      "name": "RemoveHospital",
      "outputs": [],
      "stateMutability": "nonpayable",
      "type": "function",
      "signature": "0x4807fc69"
    },
    {
      "inputs": [
        {
          "internalType": "uint256",
          "name": "_id",
          "type": "uint256"
        }
      ],
      "name": "RemoveSensor",
      "outputs": [],
      "stateMutability": "nonpayable",
      "type": "function",
      "signature": "0x6151efb1"
    },
    {
      "inputs": [
        {
          "internalType": "address",
          "name": "",
          "type": "address"
        }
      ],
      "name": "Sensors",
      "outputs": [
        {
          "internalType": "uint256",
          "name": "idSensor",
          "type": "uint256"
        },
        {
          "internalType": "string",
          "name": "MAC",
          "type": "string"
        },
        {
          "internalType": "string",
          "name": "patientName",
          "type": "string"
        },
        {
          "internalType": "address",
          "name": "idDoctor",
          "type": "address"
        },
        {
          "internalType": "bool",
          "name": "active",
          "type": "bool"
        }
      ],
      "stateMutability": "view",
      "type": "function",
      "constant": true,
      "signature": "0x898bd140"
    },
    {
      "inputs": [
        {
          "internalType": "address",
          "name": "_id",
          "type": "address"
        },
        {
          "internalType": "string",
          "name": "_nameDoctor",
          "type": "string"
        },
        {
          "internalType": "address",
          "name": "_hospital",
          "type": "address"
        }
      ],
      "name": "UpdateDoctor",
      "outputs": [],
      "stateMutability": "nonpayable",
      "type": "function",
      "signature": "0x1bdc5098"
    },
    {
      "inputs": [
        {
          "internalType": "address",
          "name": "_address",
          "type": "address"
        },
        {
          "internalType": "string",
          "name": "_name",
          "type": "string"
        },
        {
          "internalType": "string",
          "name": "_city",
          "type": "string"
        },
        {
          "internalType": "string",
          "name": "_state",
          "type": "string"
        },
        {
          "internalType": "uint256",
          "name": "_postalCode",
          "type": "uint256"
        }
      ],
      "name": "UpdateHospital",
      "outputs": [],
      "stateMutability": "nonpayable",
      "type": "function",
      "signature": "0x14c94371"
    },
    {
      "inputs": [
        {
          "internalType": "uint256",
          "name": "_id",
          "type": "uint256"
        },
        {
          "internalType": "string",
          "name": "_mac",
          "type": "string"
        },
        {
          "internalType": "string",
          "name": "_patientName",
          "type": "string"
        },
        {
          "internalType": "address",
          "name": "_idDoctor",
          "type": "address"
        }
      ],
      "name": "UpdateSensor",
      "outputs": [],
      "stateMutability": "nonpayable",
      "type": "function",
      "signature": "0x459d470e"
    },
    {
      "inputs": [
        {
          "internalType": "uint256",
          "name": "",
          "type": "uint256"
        }
      ],
      "name": "doctorsHospital",
      "outputs": [
        {
          "internalType": "address",
          "name": "idDoctor",
          "type": "address"
        },
        {
          "internalType": "string",
          "name": "nameDoctor",
          "type": "string"
        },
        {
          "internalType": "address",
          "name": "hospital",
          "type": "address"
        },
        {
          "internalType": "bool",
          "name": "permission",
          "type": "bool"
        }
      ],
      "stateMutability": "view",
      "type": "function",
      "constant": true,
      "signature": "0x8db2fc41"
    },
    {
      "inputs": [],
      "name": "getAllDoctors",
      "outputs": [
        {
          "components": [
            {
              "internalType": "address",
              "name": "idDoctor",
              "type": "address"
            },
            {
              "internalType": "string",
              "name": "nameDoctor",
              "type": "string"
            },
            {
              "internalType": "address",
              "name": "hospital",
              "type": "address"
            },
            {
              "internalType": "bool",
              "name": "permission",
              "type": "bool"
            }
          ],
          "internalType": "struct EHealth.Doctor[]",
          "name": "",
          "type": "tuple[]"
        }
      ],
      "stateMutability": "view",
      "type": "function",
      "constant": true,
      "signature": "0xf0d95090"
    },
    {
      "inputs": [
        {
          "internalType": "address",
          "name": "_address",
          "type": "address"
        }
      ],
      "name": "getAllDoctorsInHospital",
      "outputs": [
        {
          "components": [
            {
              "internalType": "address",
              "name": "idDoctor",
              "type": "address"
            },
            {
              "internalType": "string",
              "name": "nameDoctor",
              "type": "string"
            },
            {
              "internalType": "address",
              "name": "hospital",
              "type": "address"
            },
            {
              "internalType": "bool",
              "name": "permission",
              "type": "bool"
            }
          ],
          "internalType": "struct EHealth.Doctor[]",
          "name": "",
          "type": "tuple[]"
        }
      ],
      "stateMutability": "view",
      "type": "function",
      "constant": true,
      "signature": "0xc266406d"
    },
    {
      "inputs": [],
      "name": "getAllHospitals",
      "outputs": [
        {
          "components": [
            {
              "internalType": "address",
              "name": "idHospital",
              "type": "address"
            },
            {
              "internalType": "string",
              "name": "name",
              "type": "string"
            },
            {
              "internalType": "string",
              "name": "city",
              "type": "string"
            },
            {
              "internalType": "string",
              "name": "state",
              "type": "string"
            },
            {
              "internalType": "uint256",
              "name": "postalCode",
              "type": "uint256"
            },
            {
              "internalType": "bool",
              "name": "permission",
              "type": "bool"
            }
          ],
          "internalType": "struct EHealth.Hospital[]",
          "name": "",
          "type": "tuple[]"
        }
      ],
      "stateMutability": "view",
      "type": "function",
      "constant": true,
      "signature": "0x4e9f7154"
    },
    {
      "inputs": [
        {
          "internalType": "address",
          "name": "_idDoctor",
          "type": "address"
        }
      ],
      "name": "getAllSensorOfDoctor",
      "outputs": [
        {
          "components": [
            {
              "internalType": "uint256",
              "name": "idSensor",
              "type": "uint256"
            },
            {
              "internalType": "string",
              "name": "MAC",
              "type": "string"
            },
            {
              "internalType": "string",
              "name": "patientName",
              "type": "string"
            },
            {
              "internalType": "address",
              "name": "idDoctor",
              "type": "address"
            },
            {
              "internalType": "bool",
              "name": "active",
              "type": "bool"
            }
          ],
          "internalType": "struct EHealth.Sensor[]",
          "name": "",
          "type": "tuple[]"
        }
      ],
      "stateMutability": "view",
      "type": "function",
      "constant": true,
      "signature": "0x9a2e5bed"
    },
    {
      "inputs": [],
      "name": "getAllSensors",
      "outputs": [
        {
          "components": [
            {
              "internalType": "uint256",
              "name": "idSensor",
              "type": "uint256"
            },
            {
              "internalType": "string",
              "name": "MAC",
              "type": "string"
            },
            {
              "internalType": "string",
              "name": "patientName",
              "type": "string"
            },
            {
              "internalType": "address",
              "name": "idDoctor",
              "type": "address"
            },
            {
              "internalType": "bool",
              "name": "active",
              "type": "bool"
            }
          ],
          "internalType": "struct EHealth.Sensor[]",
          "name": "",
          "type": "tuple[]"
        }
      ],
      "stateMutability": "view",
      "type": "function",
      "constant": true,
      "signature": "0x5a4e5d3e"
    },
    {
      "inputs": [
        {
          "internalType": "uint256",
          "name": "",
          "type": "uint256"
        }
      ],
      "name": "hospitalCenters",
      "outputs": [
        {
          "internalType": "address",
          "name": "idHospital",
          "type": "address"
        },
        {
          "internalType": "string",
          "name": "name",
          "type": "string"
        },
        {
          "internalType": "string",
          "name": "city",
          "type": "string"
        },
        {
          "internalType": "string",
          "name": "state",
          "type": "string"
        },
        {
          "internalType": "uint256",
          "name": "postalCode",
          "type": "uint256"
        },
        {
          "internalType": "bool",
          "name": "permission",
          "type": "bool"
        }
      ],
      "stateMutability": "view",
      "type": "function",
      "constant": true,
      "signature": "0xd53d0a85"
    },
    {
      "inputs": [
        {
          "internalType": "uint256",
          "name": "",
          "type": "uint256"
        }
      ],
      "name": "sensorsDoctor",
      "outputs": [
        {
          "internalType": "uint256",
          "name": "idSensor",
          "type": "uint256"
        },
        {
          "internalType": "string",
          "name": "MAC",
          "type": "string"
        },
        {
          "internalType": "string",
          "name": "patientName",
          "type": "string"
        },
        {
          "internalType": "address",
          "name": "idDoctor",
          "type": "address"
        },
        {
          "internalType": "bool",
          "name": "active",
          "type": "bool"
        }
      ],
      "stateMutability": "view",
      "type": "function",
      "constant": true,
      "signature": "0xea87659f"
    }
  ],
  "devdoc": {
    "kind": "dev",
    "methods": {},
    "version": 1
  },
  "evm": {
    "assembly": "    /* \"EHealth.sol\":119:9865  contract EHealth {\r... */\n  mstore(0x40, 0x80)\n    /* \"EHealth.sol\":232:274  0x8FcF3B91599C6d5bb93D8c7df9f3974C622b83a4 */\n  0x8fcf3b91599c6d5bb93d8c7df9f3974c622b83a4\n    /* \"EHealth.sol\":216:274  address owner = 0x8FcF3B91599C6d5bb93D8c7df9f3974C622b83a4 */\n  0x02\n  exp(0x0100, 0x00)\n  dup2\n  sload\n  dup2\n  0xffffffffffffffffffffffffffffffffffffffff\n  mul\n  not\n  and\n  swap1\n  dup4\n  0xffffffffffffffffffffffffffffffffffffffff\n  and\n  mul\n  or\n  swap1\n  sstore\n  pop\n    /* \"EHealth.sol\":119:9865  contract EHealth {\r... */\n  callvalue\n  dup1\n  iszero\n  tag_1\n  jumpi\n  0x00\n  dup1\n  revert\ntag_1:\n  pop\n  dataSize(sub_0)\n  dup1\n  dataOffset(sub_0)\n  0x00\n  codecopy\n  0x00\n  return\nstop\n\nsub_0: assembly {\n        /* \"EHealth.sol\":119:9865  contract EHealth {\r... */\n      mstore(0x40, 0x80)\n      callvalue\n      dup1\n      iszero\n      tag_1\n      jumpi\n      0x00\n      dup1\n      revert\n    tag_1:\n      pop\n      jumpi(tag_2, lt(calldatasize, 0x04))\n      shr(0xe0, calldataload(0x00))\n      dup1\n      0x9a2e5bed\n      gt\n      tag_29\n      jumpi\n      dup1\n      0xb5843613\n      gt\n      tag_30\n      jumpi\n      dup1\n      0xdc7aa36b\n      gt\n      tag_31\n      jumpi\n      dup1\n      0xdc7aa36b\n      eq\n      tag_25\n      jumpi\n      dup1\n      0xe1ee3b56\n      eq\n      tag_26\n      jumpi\n      dup1\n      0xea87659f\n      eq\n      tag_27\n      jumpi\n      dup1\n      0xf0d95090\n      eq\n      tag_28\n      jumpi\n      jump(tag_2)\n    tag_31:\n      dup1\n      0xb5843613\n      eq\n      tag_22\n      jumpi\n      dup1\n      0xc266406d\n      eq\n      tag_23\n      jumpi\n      dup1\n      0xd53d0a85\n      eq\n      tag_24\n      jumpi\n      jump(tag_2)\n    tag_30:\n      dup1\n      0x9a2e5bed\n      eq\n      tag_16\n      jumpi\n      dup1\n      0x9b70e779\n      eq\n      tag_17\n      jumpi\n      dup1\n      0xa0568e2d\n      eq\n      tag_18\n      jumpi\n      dup1\n      0xa17d7a38\n      eq\n      tag_19\n      jumpi\n      dup1\n      0xa27876c5\n      eq\n      tag_20\n      jumpi\n      dup1\n      0xa549a4ed\n      eq\n      tag_21\n      jumpi\n      jump(tag_2)\n    tag_29:\n      dup1\n      0x4807fc69\n      gt\n      tag_32\n      jumpi\n      dup1\n      0x6151efb1\n      gt\n      tag_33\n      jumpi\n      dup1\n      0x6151efb1\n      eq\n      tag_12\n      jumpi\n      dup1\n      0x6cd8ebdc\n      eq\n      tag_13\n      jumpi\n      dup1\n      0x898bd140\n      eq\n      tag_14\n      jumpi\n      dup1\n      0x8db2fc41\n      eq\n      tag_15\n      jumpi\n      jump(tag_2)\n    tag_33:\n      dup1\n      0x4807fc69\n      eq\n      tag_9\n      jumpi\n      dup1\n      0x4e9f7154\n      eq\n      tag_10\n      jumpi\n      dup1\n      0x5a4e5d3e\n      eq\n      tag_11\n      jumpi\n      jump(tag_2)\n    tag_32:\n      dup1\n      0x02655c2e\n      eq\n      tag_3\n      jumpi\n      dup1\n      0x14c94371\n      eq\n      tag_4\n      jumpi\n      dup1\n      0x1b057e40\n      eq\n      tag_5\n      jumpi\n      dup1\n      0x1ba51696\n      eq\n      tag_6\n      jumpi\n      dup1\n      0x1bdc5098\n      eq\n      tag_7\n      jumpi\n      dup1\n      0x459d470e\n      eq\n      tag_8\n      jumpi\n    tag_2:\n      0x00\n      dup1\n      revert\n        /* \"EHealth.sol\":8743:9017  function ReadSensor(uint _id)public view returns(string memory,string memory, address, bool){\r... */\n    tag_3:\n      tag_34\n      0x04\n      dup1\n      calldatasize\n      sub\n      dup2\n      add\n      swap1\n      tag_35\n      swap2\n      swap1\n      tag_36\n      jump\t// in\n    tag_35:\n      tag_37\n      jump\t// in\n    tag_34:\n      mload(0x40)\n      tag_38\n      swap5\n      swap4\n      swap3\n      swap2\n      swap1\n      tag_39\n      jump\t// in\n    tag_38:\n      mload(0x40)\n      dup1\n      swap2\n      sub\n      swap1\n      return\n        /* \"EHealth.sol\":2924:3539  function UpdateHospital(address _address, string memory _name, string memory _city, string memory _state, uint _postalCode ) public {\r... */\n    tag_4:\n      tag_40\n      0x04\n      dup1\n      calldatasize\n      sub\n      dup2\n      add\n      swap1\n      tag_41\n      swap2\n      swap1\n      tag_42\n      jump\t// in\n    tag_41:\n      tag_43\n      jump\t// in\n    tag_40:\n      stop\n        /* \"EHealth.sol\":7171:7511  function AddSensor(string memory _mac, string memory _patientName, address _idDoctor, bool _active) public {\r... */\n    tag_5:\n      tag_44\n      0x04\n      dup1\n      calldatasize\n      sub\n      dup2\n      add\n      swap1\n      tag_45\n      swap2\n      swap1\n      tag_46\n      jump\t// in\n    tag_45:\n      tag_47\n      jump\t// in\n    tag_44:\n      stop\n        /* \"EHealth.sol\":6215:6318  function Length_Doctors() public view returns (uint256){\r... */\n    tag_6:\n      tag_48\n      tag_49\n      jump\t// in\n    tag_48:\n      mload(0x40)\n      tag_50\n      swap2\n      swap1\n      tag_51\n      jump\t// in\n    tag_50:\n      mload(0x40)\n      dup1\n      swap2\n      sub\n      swap1\n      return\n        /* \"EHealth.sol\":5499:5901  function UpdateDoctor(address _id, string memory _nameDoctor, address _hospital ) public {\r... */\n    tag_7:\n      tag_52\n      0x04\n      dup1\n      calldatasize\n      sub\n      dup2\n      add\n      swap1\n      tag_53\n      swap2\n      swap1\n      tag_54\n      jump\t// in\n    tag_53:\n      tag_55\n      jump\t// in\n    tag_52:\n      stop\n        /* \"EHealth.sol\":8233:8710  function UpdateSensor(uint _id, string memory _mac, string memory _patientName,address _idDoctor ) public {\r... */\n    tag_8:\n      tag_56\n      0x04\n      dup1\n      calldatasize\n      sub\n      dup2\n      add\n      swap1\n      tag_57\n      swap2\n      swap1\n      tag_58\n      jump\t// in\n    tag_57:\n      tag_59\n      jump\t// in\n    tag_56:\n      stop\n        /* \"EHealth.sol\":2459:2885  function RemoveHospital(address _address) public {\r... */\n    tag_9:\n      tag_60\n      0x04\n      dup1\n      calldatasize\n      sub\n      dup2\n      add\n      swap1\n      tag_61\n      swap2\n      swap1\n      tag_62\n      jump\t// in\n    tag_61:\n      tag_63\n      jump\t// in\n    tag_60:\n      stop\n        /* \"EHealth.sol\":3572:3851  function getAllHospitals() public view returns (Hospital[] memory){\r... */\n    tag_10:\n      tag_64\n      tag_65\n      jump\t// in\n    tag_64:\n      mload(0x40)\n      tag_66\n      swap2\n      swap1\n      tag_67\n      jump\t// in\n    tag_66:\n      mload(0x40)\n      dup1\n      swap2\n      sub\n      swap1\n      return\n        /* \"EHealth.sol\":9182:9447  function getAllSensors() public view returns (Sensor[] memory){\r... */\n    tag_11:\n      tag_68\n      tag_69\n      jump\t// in\n    tag_68:\n      mload(0x40)\n      tag_70\n      swap2\n      swap1\n      tag_71\n      jump\t// in\n    tag_70:\n      mload(0x40)\n      dup1\n      swap2\n      sub\n      swap1\n      return\n        /* \"EHealth.sol\":7853:8198  function RemoveSensor(uint _id) public {\r... */\n    tag_12:\n      tag_72\n      0x04\n      dup1\n      calldatasize\n      sub\n      dup2\n      add\n      swap1\n      tag_73\n      swap2\n      swap1\n      tag_36\n      jump\t// in\n    tag_73:\n      tag_74\n      jump\t// in\n    tag_72:\n      stop\n        /* \"EHealth.sol\":5934:6181  function ReadDoctor(address _id)public view returns(string memory, address, bool){\r... */\n    tag_13:\n      tag_75\n      0x04\n      dup1\n      calldatasize\n      sub\n      dup2\n      add\n      swap1\n      tag_76\n      swap2\n      swap1\n      tag_62\n      jump\t// in\n    tag_76:\n      tag_77\n      jump\t// in\n    tag_75:\n      mload(0x40)\n      tag_78\n      swap4\n      swap3\n      swap2\n      swap1\n      tag_79\n      jump\t// in\n    tag_78:\n      mload(0x40)\n      dup1\n      swap2\n      sub\n      swap1\n      return\n        /* \"EHealth.sol\":864:904  mapping(address=> Sensor) public Sensors */\n    tag_14:\n      tag_80\n      0x04\n      dup1\n      calldatasize\n      sub\n      dup2\n      add\n      swap1\n      tag_81\n      swap2\n      swap1\n      tag_62\n      jump\t// in\n    tag_81:\n      tag_82\n      jump\t// in\n    tag_80:\n      mload(0x40)\n      tag_83\n      swap6\n      swap5\n      swap4\n      swap3\n      swap2\n      swap1\n      tag_84\n      jump\t// in\n    tag_83:\n      mload(0x40)\n      dup1\n      swap2\n      sub\n      swap1\n      return\n        /* \"EHealth.sol\":808:839  Doctor[] public doctorsHospital */\n    tag_15:\n      tag_85\n      0x04\n      dup1\n      calldatasize\n      sub\n      dup2\n      add\n      swap1\n      tag_86\n      swap2\n      swap1\n      tag_36\n      jump\t// in\n    tag_86:\n      tag_87\n      jump\t// in\n    tag_85:\n      mload(0x40)\n      tag_88\n      swap5\n      swap4\n      swap3\n      swap2\n      swap1\n      tag_89\n      jump\t// in\n    tag_88:\n      mload(0x40)\n      dup1\n      swap2\n      sub\n      swap1\n      return\n        /* \"EHealth.sol\":9496:9862  function getAllSensorOfDoctor (address _idDoctor) public view returns (Sensor[] memory){\r... */\n    tag_16:\n      tag_90\n      0x04\n      dup1\n      calldatasize\n      sub\n      dup2\n      add\n      swap1\n      tag_91\n      swap2\n      swap1\n      tag_62\n      jump\t// in\n    tag_91:\n      tag_92\n      jump\t// in\n    tag_90:\n      mload(0x40)\n      tag_93\n      swap2\n      swap1\n      tag_71\n      jump\t// in\n    tag_93:\n      mload(0x40)\n      dup1\n      swap2\n      sub\n      swap1\n      return\n        /* \"EHealth.sol\":4031:4382  function ReadHospital(address _address)public view returns(string memory, string memory, string memory, uint, bool){\r... */\n    tag_17:\n      tag_94\n      0x04\n      dup1\n      calldatasize\n      sub\n      dup2\n      add\n      swap1\n      tag_95\n      swap2\n      swap1\n      tag_62\n      jump\t// in\n    tag_95:\n      tag_96\n      jump\t// in\n    tag_94:\n      mload(0x40)\n      tag_97\n      swap6\n      swap5\n      swap4\n      swap3\n      swap2\n      swap1\n      tag_98\n      jump\t// in\n    tag_97:\n      mload(0x40)\n      dup1\n      swap2\n      sub\n      swap1\n      return\n        /* \"EHealth.sol\":5134:5464  function RemoveDoctor(address _id) public {\r... */\n    tag_18:\n      tag_99\n      0x04\n      dup1\n      calldatasize\n      sub\n      dup2\n      add\n      swap1\n      tag_100\n      swap2\n      swap1\n      tag_62\n      jump\t// in\n    tag_100:\n      tag_101\n      jump\t// in\n    tag_99:\n      stop\n        /* \"EHealth.sol\":3889:3994  function Length_Hospitals() public view returns (uint256){\r... */\n    tag_19:\n      tag_102\n      tag_103\n      jump\t// in\n    tag_102:\n      mload(0x40)\n      tag_104\n      swap2\n      swap1\n      tag_51\n      jump\t// in\n    tag_104:\n      mload(0x40)\n      dup1\n      swap2\n      sub\n      swap1\n      return\n        /* \"EHealth.sol\":1799:2115  function AddHospital(address _idHospital, string memory _name, string memory _city, string memory _state, uint _postalCode ) public {\r... */\n    tag_20:\n      tag_105\n      0x04\n      dup1\n      calldatasize\n      sub\n      dup2\n      add\n      swap1\n      tag_106\n      swap2\n      swap1\n      tag_42\n      jump\t// in\n    tag_106:\n      tag_107\n      jump\t// in\n    tag_105:\n      stop\n        /* \"EHealth.sol\":301:345  mapping(address=> Hospital) public Hospitals */\n    tag_21:\n      tag_108\n      0x04\n      dup1\n      calldatasize\n      sub\n      dup2\n      add\n      swap1\n      tag_109\n      swap2\n      swap1\n      tag_62\n      jump\t// in\n    tag_109:\n      tag_110\n      jump\t// in\n    tag_108:\n      mload(0x40)\n      tag_111\n      swap7\n      swap6\n      swap5\n      swap4\n      swap3\n      swap2\n      swap1\n      tag_112\n      jump\t// in\n    tag_111:\n      mload(0x40)\n      dup1\n      swap2\n      sub\n      swap1\n      return\n        /* \"EHealth.sol\":9051:9152  function Length_sensors() public view returns (uint256){\r... */\n    tag_22:\n      tag_113\n      tag_114\n      jump\t// in\n    tag_113:\n      mload(0x40)\n      tag_115\n      swap2\n      swap1\n      tag_51\n      jump\t// in\n    tag_115:\n      mload(0x40)\n      dup1\n      swap2\n      sub\n      swap1\n      return\n        /* \"EHealth.sol\":6661:7035  function getAllDoctorsInHospital(address _address) public view returns (Doctor[] memory){\r... */\n    tag_23:\n      tag_116\n      0x04\n      dup1\n      calldatasize\n      sub\n      dup2\n      add\n      swap1\n      tag_117\n      swap2\n      swap1\n      tag_62\n      jump\t// in\n    tag_117:\n      tag_118\n      jump\t// in\n    tag_116:\n      mload(0x40)\n      tag_119\n      swap2\n      swap1\n      tag_120\n      jump\t// in\n    tag_119:\n      mload(0x40)\n      dup1\n      swap2\n      sub\n      swap1\n      return\n        /* \"EHealth.sol\":536:569  Hospital[] public hospitalCenters */\n    tag_24:\n      tag_121\n      0x04\n      dup1\n      calldatasize\n      sub\n      dup2\n      add\n      swap1\n      tag_122\n      swap2\n      swap1\n      tag_36\n      jump\t// in\n    tag_122:\n      tag_123\n      jump\t// in\n    tag_121:\n      mload(0x40)\n      tag_124\n      swap7\n      swap6\n      swap5\n      swap4\n      swap3\n      swap2\n      swap1\n      tag_112\n      jump\t// in\n    tag_124:\n      mload(0x40)\n      dup1\n      swap2\n      sub\n      swap1\n      return\n        /* \"EHealth.sol\":598:638  mapping(address=> Doctor) public Doctors */\n    tag_25:\n      tag_125\n      0x04\n      dup1\n      calldatasize\n      sub\n      dup2\n      add\n      swap1\n      tag_126\n      swap2\n      swap1\n      tag_62\n      jump\t// in\n    tag_126:\n      tag_127\n      jump\t// in\n    tag_125:\n      mload(0x40)\n      tag_128\n      swap5\n      swap4\n      swap3\n      swap2\n      swap1\n      tag_89\n      jump\t// in\n    tag_128:\n      mload(0x40)\n      dup1\n      swap2\n      sub\n      swap1\n      return\n        /* \"EHealth.sol\":4516:4789  function AddDoctor(address idDoctor, string memory _nameDoctor, address _hospital) public {\r... */\n    tag_26:\n      tag_129\n      0x04\n      dup1\n      calldatasize\n      sub\n      dup2\n      add\n      swap1\n      tag_130\n      swap2\n      swap1\n      tag_54\n      jump\t// in\n    tag_130:\n      tag_131\n      jump\t// in\n    tag_129:\n      stop\n        /* \"EHealth.sol\":1092:1121  Sensor[] public sensorsDoctor */\n    tag_27:\n      tag_132\n      0x04\n      dup1\n      calldatasize\n      sub\n      dup2\n      add\n      swap1\n      tag_133\n      swap2\n      swap1\n      tag_36\n      jump\t// in\n    tag_133:\n      tag_134\n      jump\t// in\n    tag_132:\n      mload(0x40)\n      tag_135\n      swap6\n      swap5\n      swap4\n      swap3\n      swap2\n      swap1\n      tag_84\n      jump\t// in\n    tag_135:\n      mload(0x40)\n      dup1\n      swap2\n      sub\n      swap1\n      return\n        /* \"EHealth.sol\":6348:6619  function getAllDoctors() public view returns (Doctor[] memory){\r... */\n    tag_28:\n      tag_136\n      tag_137\n      jump\t// in\n    tag_136:\n      mload(0x40)\n      tag_138\n      swap2\n      swap1\n      tag_120\n      jump\t// in\n    tag_138:\n      mload(0x40)\n      dup1\n      swap2\n      sub\n      swap1\n      return\n        /* \"EHealth.sol\":8743:9017  function ReadSensor(uint _id)public view returns(string memory,string memory, address, bool){\r... */\n    tag_37:\n        /* \"EHealth.sol\":8792:8805  string memory */\n      0x60\n        /* \"EHealth.sol\":8806:8819  string memory */\n      dup1\n        /* \"EHealth.sol\":8821:8828  address */\n      0x00\n        /* \"EHealth.sol\":8830:8834  bool */\n      dup1\n        /* \"EHealth.sol\":8846:8856  uint index */\n      0x00\n        /* \"EHealth.sol\":8859:8874  FindSensor(_id) */\n      tag_140\n        /* \"EHealth.sol\":8870:8873  _id */\n      dup7\n        /* \"EHealth.sol\":8859:8869  FindSensor */\n      tag_141\n        /* \"EHealth.sol\":8859:8874  FindSensor(_id) */\n      jump\t// in\n    tag_140:\n        /* \"EHealth.sol\":8846:8874  uint index = FindSensor(_id) */\n      swap1\n      pop\n        /* \"EHealth.sol\":8893:8906  sensorsDoctor */\n      0x08\n        /* \"EHealth.sol\":8907:8912  index */\n      dup2\n        /* \"EHealth.sol\":8893:8913  sensorsDoctor[index] */\n      dup2\n      sload\n      dup2\n      lt\n      tag_142\n      jumpi\n      invalid\n    tag_142:\n      swap1\n      0x00\n      mstore\n      keccak256(0x00, 0x20)\n      swap1\n      0x04\n      mul\n      add\n        /* \"EHealth.sol\":8893:8917  sensorsDoctor[index].MAC */\n      0x01\n      add\n        /* \"EHealth.sol\":8918:8931  sensorsDoctor */\n      0x08\n        /* \"EHealth.sol\":8932:8937  index */\n      dup3\n        /* \"EHealth.sol\":8918:8938  sensorsDoctor[index] */\n      dup2\n      sload\n      dup2\n      lt\n      tag_144\n      jumpi\n      invalid\n    tag_144:\n      swap1\n      0x00\n      mstore\n      keccak256(0x00, 0x20)\n      swap1\n      0x04\n      mul\n      add\n        /* \"EHealth.sol\":8918:8950  sensorsDoctor[index].patientName */\n      0x02\n      add\n        /* \"EHealth.sol\":8951:8964  sensorsDoctor */\n      0x08\n        /* \"EHealth.sol\":8965:8970  index */\n      dup4\n        /* \"EHealth.sol\":8951:8971  sensorsDoctor[index] */\n      dup2\n      sload\n      dup2\n      lt\n      tag_146\n      jumpi\n      invalid\n    tag_146:\n      swap1\n      0x00\n      mstore\n      keccak256(0x00, 0x20)\n      swap1\n      0x04\n      mul\n      add\n        /* \"EHealth.sol\":8951:8980  sensorsDoctor[index].idDoctor */\n      0x03\n      add\n      0x00\n      swap1\n      sload\n      swap1\n      0x0100\n      exp\n      swap1\n      div\n      0xffffffffffffffffffffffffffffffffffffffff\n      and\n        /* \"EHealth.sol\":8981:8994  sensorsDoctor */\n      0x08\n        /* \"EHealth.sol\":8995:9000  index */\n      dup5\n        /* \"EHealth.sol\":8981:9001  sensorsDoctor[index] */\n      dup2\n      sload\n      dup2\n      lt\n      tag_148\n      jumpi\n      invalid\n    tag_148:\n      swap1\n      0x00\n      mstore\n      keccak256(0x00, 0x20)\n      swap1\n      0x04\n      mul\n      add\n        /* \"EHealth.sol\":8981:9008  sensorsDoctor[index].active */\n      0x03\n      add\n      0x14\n      swap1\n      sload\n      swap1\n      0x0100\n      exp\n      swap1\n      div\n      0xff\n      and\n        /* \"EHealth.sol\":8885:9009  return (sensorsDoctor[index].MAC,sensorsDoctor[index].patientName,sensorsDoctor[index].idDoctor,sensorsDoctor[index].active) */\n      dup4\n      dup1\n      sload\n      0x01\n      dup2\n      0x01\n      and\n      iszero\n      0x0100\n      mul\n      sub\n      and\n      0x02\n      swap1\n      div\n      dup1\n      0x1f\n      add\n      0x20\n      dup1\n      swap2\n      div\n      mul\n      0x20\n      add\n      mload(0x40)\n      swap1\n      dup2\n      add\n      0x40\n      mstore\n      dup1\n      swap3\n      swap2\n      swap1\n      dup2\n      dup2\n      mstore\n      0x20\n      add\n      dup3\n      dup1\n      sload\n      0x01\n      dup2\n      0x01\n      and\n      iszero\n      0x0100\n      mul\n      sub\n      and\n      0x02\n      swap1\n      div\n      dup1\n      iszero\n      tag_150\n      jumpi\n      dup1\n      0x1f\n      lt\n      tag_151\n      jumpi\n      0x0100\n      dup1\n      dup4\n      sload\n      div\n      mul\n      dup4\n      mstore\n      swap2\n      0x20\n      add\n      swap2\n      jump(tag_150)\n    tag_151:\n      dup3\n      add\n      swap2\n      swap1\n      0x00\n      mstore\n      keccak256(0x00, 0x20)\n      swap1\n    tag_152:\n      dup2\n      sload\n      dup2\n      mstore\n      swap1\n      0x01\n      add\n      swap1\n      0x20\n      add\n      dup1\n      dup4\n      gt\n      tag_152\n      jumpi\n      dup3\n      swap1\n      sub\n      0x1f\n      and\n      dup3\n      add\n      swap2\n    tag_150:\n      pop\n      pop\n      pop\n      pop\n      pop\n      swap4\n      pop\n      dup3\n      dup1\n      sload\n      0x01\n      dup2\n      0x01\n      and\n      iszero\n      0x0100\n      mul\n      sub\n      and\n      0x02\n      swap1\n      div\n      dup1\n      0x1f\n      add\n      0x20\n      dup1\n      swap2\n      div\n      mul\n      0x20\n      add\n      mload(0x40)\n      swap1\n      dup2\n      add\n      0x40\n      mstore\n      dup1\n      swap3\n      swap2\n      swap1\n      dup2\n      dup2\n      mstore\n      0x20\n      add\n      dup3\n      dup1\n      sload\n      0x01\n      dup2\n      0x01\n      and\n      iszero\n      0x0100\n      mul\n      sub\n      and\n      0x02\n      swap1\n      div\n      dup1\n      iszero\n      tag_153\n      jumpi\n      dup1\n      0x1f\n      lt\n      tag_154\n      jumpi\n      0x0100\n      dup1\n      dup4\n      sload\n      div\n      mul\n      dup4\n      mstore\n      swap2\n      0x20\n      add\n      swap2\n      jump(tag_153)\n    tag_154:\n      dup3\n      add\n      swap2\n      swap1\n      0x00\n      mstore\n      keccak256(0x00, 0x20)\n      swap1\n    tag_155:\n      dup2\n      sload\n      dup2\n      mstore\n      swap1\n      0x01\n      add\n      swap1\n      0x20\n      add\n      dup1\n      dup4\n      gt\n      tag_155\n      jumpi\n      dup3\n      swap1\n      sub\n      0x1f\n      and\n      dup3\n      add\n      swap2\n    tag_153:\n      pop\n      pop\n      pop\n      pop\n      pop\n      swap3\n      pop\n      swap5\n      pop\n      swap5\n      pop\n      swap5\n      pop\n      swap5\n      pop\n      pop\n        /* \"EHealth.sol\":8743:9017  function ReadSensor(uint _id)public view returns(string memory,string memory, address, bool){\r... */\n      swap2\n      swap4\n      pop\n      swap2\n      swap4\n      jump\t// out\n        /* \"EHealth.sol\":2924:3539  function UpdateHospital(address _address, string memory _name, string memory _city, string memory _state, uint _postalCode ) public {\r... */\n    tag_43:\n        /* \"EHealth.sol\":3067:3077  uint index */\n      0x00\n        /* \"EHealth.sol\":3080:3102  FindHospital(_address) */\n      tag_157\n        /* \"EHealth.sol\":3093:3101  _address */\n      dup7\n        /* \"EHealth.sol\":3080:3092  FindHospital */\n      tag_158\n        /* \"EHealth.sol\":3080:3102  FindHospital(_address) */\n      jump\t// in\n    tag_157:\n        /* \"EHealth.sol\":3067:3102  uint index = FindHospital(_address) */\n      swap1\n      pop\n        /* \"EHealth.sol\":3141:3146  _name */\n      dup5\n        /* \"EHealth.sol\":3113:3128  hospitalCenters */\n      0x04\n        /* \"EHealth.sol\":3129:3134  index */\n      dup3\n        /* \"EHealth.sol\":3113:3135  hospitalCenters[index] */\n      dup2\n      sload\n      dup2\n      lt\n      tag_159\n      jumpi\n      invalid\n    tag_159:\n      swap1\n      0x00\n      mstore\n      keccak256(0x00, 0x20)\n      swap1\n      0x06\n      mul\n      add\n        /* \"EHealth.sol\":3113:3140  hospitalCenters[index].name */\n      0x01\n      add\n        /* \"EHealth.sol\":3113:3146  hospitalCenters[index].name=_name */\n      swap1\n      dup1\n      mload\n      swap1\n      0x20\n      add\n      swap1\n      tag_161\n      swap3\n      swap2\n      swap1\n      tag_162\n      jump\t// in\n    tag_161:\n      pop\n        /* \"EHealth.sol\":3185:3190  _city */\n      dup4\n        /* \"EHealth.sol\":3157:3172  hospitalCenters */\n      0x04\n        /* \"EHealth.sol\":3173:3178  index */\n      dup3\n        /* \"EHealth.sol\":3157:3179  hospitalCenters[index] */\n      dup2\n      sload\n      dup2\n      lt\n      tag_163\n      jumpi\n      invalid\n    tag_163:\n      swap1\n      0x00\n      mstore\n      keccak256(0x00, 0x20)\n      swap1\n      0x06\n      mul\n      add\n        /* \"EHealth.sol\":3157:3184  hospitalCenters[index].city */\n      0x02\n      add\n        /* \"EHealth.sol\":3157:3190  hospitalCenters[index].city=_city */\n      swap1\n      dup1\n      mload\n      swap1\n      0x20\n      add\n      swap1\n      tag_165\n      swap3\n      swap2\n      swap1\n      tag_162\n      jump\t// in\n    tag_165:\n      pop\n        /* \"EHealth.sol\":3230:3236  _state */\n      dup3\n        /* \"EHealth.sol\":3201:3216  hospitalCenters */\n      0x04\n        /* \"EHealth.sol\":3217:3222  index */\n      dup3\n        /* \"EHealth.sol\":3201:3223  hospitalCenters[index] */\n      dup2\n      sload\n      dup2\n      lt\n      tag_166\n      jumpi\n      invalid\n    tag_166:\n      swap1\n      0x00\n      mstore\n      keccak256(0x00, 0x20)\n      swap1\n      0x06\n      mul\n      add\n        /* \"EHealth.sol\":3201:3229  hospitalCenters[index].state */\n      0x03\n      add\n        /* \"EHealth.sol\":3201:3236  hospitalCenters[index].state=_state */\n      swap1\n      dup1\n      mload\n      swap1\n      0x20\n      add\n      swap1\n      tag_168\n      swap3\n      swap2\n      swap1\n      tag_162\n      jump\t// in\n    tag_168:\n      pop\n        /* \"EHealth.sol\":3281:3292  _postalCode */\n      dup2\n        /* \"EHealth.sol\":3247:3262  hospitalCenters */\n      0x04\n        /* \"EHealth.sol\":3263:3268  index */\n      dup3\n        /* \"EHealth.sol\":3247:3269  hospitalCenters[index] */\n      dup2\n      sload\n      dup2\n      lt\n      tag_169\n      jumpi\n      invalid\n    tag_169:\n      swap1\n      0x00\n      mstore\n      keccak256(0x00, 0x20)\n      swap1\n      0x06\n      mul\n      add\n        /* \"EHealth.sol\":3247:3280  hospitalCenters[index].postalCode */\n      0x04\n      add\n        /* \"EHealth.sol\":3247:3292  hospitalCenters[index].postalCode=_postalCode */\n      dup2\n      swap1\n      sstore\n      pop\n        /* \"EHealth.sol\":3308:3531  RefreshHospital(hospitalCenters[index].idHospital, \r... */\n      0xb1c43f8b1923988960e95c122fd3ebb503023379b8ca6f0603d2f6b0beb52811\n        /* \"EHealth.sol\":3324:3339  hospitalCenters */\n      0x04\n        /* \"EHealth.sol\":3340:3345  index */\n      dup3\n        /* \"EHealth.sol\":3324:3346  hospitalCenters[index] */\n      dup2\n      sload\n      dup2\n      lt\n      tag_171\n      jumpi\n      invalid\n    tag_171:\n      swap1\n      0x00\n      mstore\n      keccak256(0x00, 0x20)\n      swap1\n      0x06\n      mul\n      add\n        /* \"EHealth.sol\":3324:3357  hospitalCenters[index].idHospital */\n      0x00\n      add\n      0x00\n      swap1\n      sload\n      swap1\n      0x0100\n      exp\n      swap1\n      div\n      0xffffffffffffffffffffffffffffffffffffffff\n      and\n        /* \"EHealth.sol\":3369:3384  hospitalCenters */\n      0x04\n        /* \"EHealth.sol\":3385:3390  index */\n      dup4\n        /* \"EHealth.sol\":3369:3391  hospitalCenters[index] */\n      dup2\n      sload\n      dup2\n      lt\n      tag_173\n      jumpi\n      invalid\n    tag_173:\n      swap1\n      0x00\n      mstore\n      keccak256(0x00, 0x20)\n      swap1\n      0x06\n      mul\n      add\n        /* \"EHealth.sol\":3369:3396  hospitalCenters[index].name */\n      0x01\n      add\n        /* \"EHealth.sol\":3408:3423  hospitalCenters */\n      0x04\n        /* \"EHealth.sol\":3424:3429  index */\n      dup5\n        /* \"EHealth.sol\":3408:3430  hospitalCenters[index] */\n      dup2\n      sload\n      dup2\n      lt\n      tag_175\n      jumpi\n      invalid\n    tag_175:\n      swap1\n      0x00\n      mstore\n      keccak256(0x00, 0x20)\n      swap1\n      0x06\n      mul\n      add\n        /* \"EHealth.sol\":3408:3435  hospitalCenters[index].city */\n      0x02\n      add\n        /* \"EHealth.sol\":3447:3462  hospitalCenters */\n      0x04\n        /* \"EHealth.sol\":3463:3468  index */\n      dup6\n        /* \"EHealth.sol\":3447:3469  hospitalCenters[index] */\n      dup2\n      sload\n      dup2\n      lt\n      tag_177\n      jumpi\n      invalid\n    tag_177:\n      swap1\n      0x00\n      mstore\n      keccak256(0x00, 0x20)\n      swap1\n      0x06\n      mul\n      add\n        /* \"EHealth.sol\":3447:3475  hospitalCenters[index].state */\n      0x03\n      add\n        /* \"EHealth.sol\":3487:3502  hospitalCenters */\n      0x04\n        /* \"EHealth.sol\":3503:3508  index */\n      dup7\n        /* \"EHealth.sol\":3487:3509  hospitalCenters[index] */\n      dup2\n      sload\n      dup2\n      lt\n      tag_179\n      jumpi\n      invalid\n    tag_179:\n      swap1\n      0x00\n      mstore\n      keccak256(0x00, 0x20)\n      swap1\n      0x06\n      mul\n      add\n        /* \"EHealth.sol\":3487:3520  hospitalCenters[index].postalCode */\n      0x04\n      add\n      sload\n        /* \"EHealth.sol\":3308:3531  RefreshHospital(hospitalCenters[index].idHospital, \r... */\n      mload(0x40)\n      tag_181\n      swap6\n      swap5\n      swap4\n      swap3\n      swap2\n      swap1\n      tag_182\n      jump\t// in\n    tag_181:\n      mload(0x40)\n      dup1\n      swap2\n      sub\n      swap1\n      log1\n        /* \"EHealth.sol\":2924:3539  function UpdateHospital(address _address, string memory _name, string memory _city, string memory _state, uint _postalCode ) public {\r... */\n      pop\n      pop\n      pop\n      pop\n      pop\n      pop\n      jump\t// out\n        /* \"EHealth.sol\":7171:7511  function AddSensor(string memory _mac, string memory _patientName, address _idDoctor, bool _active) public {\r... */\n    tag_47:\n        /* \"EHealth.sol\":7289:7310  FindDoctor(_idDoctor) */\n      tag_184\n        /* \"EHealth.sol\":7300:7309  _idDoctor */\n      dup3\n        /* \"EHealth.sol\":7289:7299  FindDoctor */\n      tag_185\n        /* \"EHealth.sol\":7289:7310  FindDoctor(_idDoctor) */\n      jump\t// in\n    tag_184:\n      pop\n        /* \"EHealth.sol\":7321:7334  sensorsDoctor */\n      0x08\n        /* \"EHealth.sol\":7340:7399  Sensor(nextIdSensor,_mac, _patientName, _idDoctor, _active) */\n      mload(0x40)\n      dup1\n      0xa0\n      add\n      0x40\n      mstore\n      dup1\n        /* \"EHealth.sol\":7347:7359  nextIdSensor */\n      sload(0x01)\n        /* \"EHealth.sol\":7340:7399  Sensor(nextIdSensor,_mac, _patientName, _idDoctor, _active) */\n      dup2\n      mstore\n      0x20\n      add\n        /* \"EHealth.sol\":7360:7364  _mac */\n      dup7\n        /* \"EHealth.sol\":7340:7399  Sensor(nextIdSensor,_mac, _patientName, _idDoctor, _active) */\n      dup2\n      mstore\n      0x20\n      add\n        /* \"EHealth.sol\":7366:7378  _patientName */\n      dup6\n        /* \"EHealth.sol\":7340:7399  Sensor(nextIdSensor,_mac, _patientName, _idDoctor, _active) */\n      dup2\n      mstore\n      0x20\n      add\n        /* \"EHealth.sol\":7380:7389  _idDoctor */\n      dup5\n        /* \"EHealth.sol\":7340:7399  Sensor(nextIdSensor,_mac, _patientName, _idDoctor, _active) */\n      0xffffffffffffffffffffffffffffffffffffffff\n      and\n      dup2\n      mstore\n      0x20\n      add\n        /* \"EHealth.sol\":7391:7398  _active */\n      dup4\n        /* \"EHealth.sol\":7340:7399  Sensor(nextIdSensor,_mac, _patientName, _idDoctor, _active) */\n      iszero\n      iszero\n      dup2\n      mstore\n      pop\n        /* \"EHealth.sol\":7321:7400  sensorsDoctor.push(Sensor(nextIdSensor,_mac, _patientName, _idDoctor, _active)) */\n      swap1\n      dup1\n      0x01\n      dup2\n      sload\n      add\n      dup1\n      dup3\n      sstore\n      dup1\n      swap2\n      pop\n      pop\n      0x01\n      swap1\n      sub\n      swap1\n      0x00\n      mstore\n      keccak256(0x00, 0x20)\n      swap1\n      0x04\n      mul\n      add\n      0x00\n      swap1\n      swap2\n      swap1\n      swap2\n      swap1\n      swap2\n      pop\n      0x00\n      dup3\n      add\n      mload\n      dup2\n      0x00\n      add\n      sstore\n      0x20\n      dup3\n      add\n      mload\n      dup2\n      0x01\n      add\n      swap1\n      dup1\n      mload\n      swap1\n      0x20\n      add\n      swap1\n      tag_187\n      swap3\n      swap2\n      swap1\n      tag_162\n      jump\t// in\n    tag_187:\n      pop\n      0x40\n      dup3\n      add\n      mload\n      dup2\n      0x02\n      add\n      swap1\n      dup1\n      mload\n      swap1\n      0x20\n      add\n      swap1\n      tag_188\n      swap3\n      swap2\n      swap1\n      tag_162\n      jump\t// in\n    tag_188:\n      pop\n      0x60\n      dup3\n      add\n      mload\n      dup2\n      0x03\n      add\n      exp(0x0100, 0x00)\n      dup2\n      sload\n      dup2\n      0xffffffffffffffffffffffffffffffffffffffff\n      mul\n      not\n      and\n      swap1\n      dup4\n      0xffffffffffffffffffffffffffffffffffffffff\n      and\n      mul\n      or\n      swap1\n      sstore\n      pop\n      0x80\n      dup3\n      add\n      mload\n      dup2\n      0x03\n      add\n      exp(0x0100, 0x14)\n      dup2\n      sload\n      dup2\n      0xff\n      mul\n      not\n      and\n      swap1\n      dup4\n      iszero\n      iszero\n      mul\n      or\n      swap1\n      sstore\n      pop\n      pop\n      pop\n        /* \"EHealth.sol\":7416:7478  NewSensor(nextIdSensor,_mac, _patientName, _idDoctor, _active) */\n      0x1d6a52c11773994a4a6eaa1ace32b929e7f0900bbe29db3f1d36a3cd45f1486c\n        /* \"EHealth.sol\":7426:7438  nextIdSensor */\n      sload(0x01)\n        /* \"EHealth.sol\":7439:7443  _mac */\n      dup6\n        /* \"EHealth.sol\":7445:7457  _patientName */\n      dup6\n        /* \"EHealth.sol\":7459:7468  _idDoctor */\n      dup6\n        /* \"EHealth.sol\":7470:7477  _active */\n      dup6\n        /* \"EHealth.sol\":7416:7478  NewSensor(nextIdSensor,_mac, _patientName, _idDoctor, _active) */\n      mload(0x40)\n      tag_189\n      swap6\n      swap5\n      swap4\n      swap3\n      swap2\n      swap1\n      tag_84\n      jump\t// in\n    tag_189:\n      mload(0x40)\n      dup1\n      swap2\n      sub\n      swap1\n      log1\n        /* \"EHealth.sol\":7489:7501  nextIdSensor */\n      0x01\n      0x00\n        /* \"EHealth.sol\":7489:7503  nextIdSensor++ */\n      dup2\n      sload\n      dup1\n      swap3\n      swap2\n      swap1\n      0x01\n      add\n      swap2\n      swap1\n      pop\n      sstore\n      pop\n        /* \"EHealth.sol\":7171:7511  function AddSensor(string memory _mac, string memory _patientName, address _idDoctor, bool _active) public {\r... */\n      pop\n      pop\n      pop\n      pop\n      jump\t// out\n        /* \"EHealth.sol\":6215:6318  function Length_Doctors() public view returns (uint256){\r... */\n    tag_49:\n        /* \"EHealth.sol\":6262:6269  uint256 */\n      0x00\n        /* \"EHealth.sol\":6288:6303  hospitalCenters */\n      0x04\n        /* \"EHealth.sol\":6288:6310  hospitalCenters.length */\n      dup1\n      sload\n      swap1\n      pop\n        /* \"EHealth.sol\":6281:6310  return hospitalCenters.length */\n      swap1\n      pop\n        /* \"EHealth.sol\":6215:6318  function Length_Doctors() public view returns (uint256){\r... */\n      swap1\n      jump\t// out\n        /* \"EHealth.sol\":5499:5901  function UpdateDoctor(address _id, string memory _nameDoctor, address _hospital ) public {\r... */\n    tag_55:\n        /* \"EHealth.sol\":5599:5609  uint index */\n      0x00\n        /* \"EHealth.sol\":5612:5627  FindDoctor(_id) */\n      tag_192\n        /* \"EHealth.sol\":5623:5626  _id */\n      dup5\n        /* \"EHealth.sol\":5612:5622  FindDoctor */\n      tag_185\n        /* \"EHealth.sol\":5612:5627  FindDoctor(_id) */\n      jump\t// in\n    tag_192:\n        /* \"EHealth.sol\":5599:5627  uint index = FindDoctor(_id) */\n      swap1\n      pop\n        /* \"EHealth.sol\":5672:5683  _nameDoctor */\n      dup3\n        /* \"EHealth.sol\":5638:5653  doctorsHospital */\n      0x06\n        /* \"EHealth.sol\":5654:5659  index */\n      dup3\n        /* \"EHealth.sol\":5638:5660  doctorsHospital[index] */\n      dup2\n      sload\n      dup2\n      lt\n      tag_193\n      jumpi\n      invalid\n    tag_193:\n      swap1\n      0x00\n      mstore\n      keccak256(0x00, 0x20)\n      swap1\n      0x03\n      mul\n      add\n        /* \"EHealth.sol\":5638:5671  doctorsHospital[index].nameDoctor */\n      0x01\n      add\n        /* \"EHealth.sol\":5638:5683  doctorsHospital[index].nameDoctor=_nameDoctor */\n      swap1\n      dup1\n      mload\n      swap1\n      0x20\n      add\n      swap1\n      tag_195\n      swap3\n      swap2\n      swap1\n      tag_162\n      jump\t// in\n    tag_195:\n      pop\n        /* \"EHealth.sol\":5726:5735  _hospital */\n      dup2\n        /* \"EHealth.sol\":5694:5709  doctorsHospital */\n      0x06\n        /* \"EHealth.sol\":5710:5715  index */\n      dup3\n        /* \"EHealth.sol\":5694:5716  doctorsHospital[index] */\n      dup2\n      sload\n      dup2\n      lt\n      tag_196\n      jumpi\n      invalid\n    tag_196:\n      swap1\n      0x00\n      mstore\n      keccak256(0x00, 0x20)\n      swap1\n      0x03\n      mul\n      add\n        /* \"EHealth.sol\":5694:5725  doctorsHospital[index].hospital */\n      0x02\n      add\n      0x00\n        /* \"EHealth.sol\":5694:5735  doctorsHospital[index].hospital=_hospital */\n      0x0100\n      exp\n      dup2\n      sload\n      dup2\n      0xffffffffffffffffffffffffffffffffffffffff\n      mul\n      not\n      and\n      swap1\n      dup4\n      0xffffffffffffffffffffffffffffffffffffffff\n      and\n      mul\n      or\n      swap1\n      sstore\n      pop\n        /* \"EHealth.sol\":5751:5893  RefreshDoctor(doctorsHospital[index].idDoctor,\r... */\n      0x239b189726729811e87d7845d82777804144af4e76981af04d802a85f7442b66\n        /* \"EHealth.sol\":5765:5780  doctorsHospital */\n      0x06\n        /* \"EHealth.sol\":5781:5786  index */\n      dup3\n        /* \"EHealth.sol\":5765:5787  doctorsHospital[index] */\n      dup2\n      sload\n      dup2\n      lt\n      tag_198\n      jumpi\n      invalid\n    tag_198:\n      swap1\n      0x00\n      mstore\n      keccak256(0x00, 0x20)\n      swap1\n      0x03\n      mul\n      add\n        /* \"EHealth.sol\":5765:5796  doctorsHospital[index].idDoctor */\n      0x00\n      add\n      0x00\n      swap1\n      sload\n      swap1\n      0x0100\n      exp\n      swap1\n      div\n      0xffffffffffffffffffffffffffffffffffffffff\n      and\n        /* \"EHealth.sol\":5807:5822  doctorsHospital */\n      0x06\n        /* \"EHealth.sol\":5823:5828  index */\n      dup4\n        /* \"EHealth.sol\":5807:5829  doctorsHospital[index] */\n      dup2\n      sload\n      dup2\n      lt\n      tag_200\n      jumpi\n      invalid\n    tag_200:\n      swap1\n      0x00\n      mstore\n      keccak256(0x00, 0x20)\n      swap1\n      0x03\n      mul\n      add\n        /* \"EHealth.sol\":5807:5840  doctorsHospital[index].nameDoctor */\n      0x01\n      add\n        /* \"EHealth.sol\":5851:5866  doctorsHospital */\n      0x06\n        /* \"EHealth.sol\":5867:5872  index */\n      dup5\n        /* \"EHealth.sol\":5851:5873  doctorsHospital[index] */\n      dup2\n      sload\n      dup2\n      lt\n      tag_202\n      jumpi\n      invalid\n    tag_202:\n      swap1\n      0x00\n      mstore\n      keccak256(0x00, 0x20)\n      swap1\n      0x03\n      mul\n      add\n        /* \"EHealth.sol\":5851:5882  doctorsHospital[index].hospital */\n      0x02\n      add\n      0x00\n      swap1\n      sload\n      swap1\n      0x0100\n      exp\n      swap1\n      div\n      0xffffffffffffffffffffffffffffffffffffffff\n      and\n        /* \"EHealth.sol\":5751:5893  RefreshDoctor(doctorsHospital[index].idDoctor,\r... */\n      mload(0x40)\n      tag_204\n      swap4\n      swap3\n      swap2\n      swap1\n      tag_205\n      jump\t// in\n    tag_204:\n      mload(0x40)\n      dup1\n      swap2\n      sub\n      swap1\n      log1\n        /* \"EHealth.sol\":5499:5901  function UpdateDoctor(address _id, string memory _nameDoctor, address _hospital ) public {\r... */\n      pop\n      pop\n      pop\n      pop\n      jump\t// out\n        /* \"EHealth.sol\":8233:8710  function UpdateSensor(uint _id, string memory _mac, string memory _patientName,address _idDoctor ) public {\r... */\n    tag_59:\n        /* \"EHealth.sol\":8350:8360  uint index */\n      0x00\n        /* \"EHealth.sol\":8363:8378  FindSensor(_id) */\n      tag_207\n        /* \"EHealth.sol\":8374:8377  _id */\n      dup6\n        /* \"EHealth.sol\":8363:8373  FindSensor */\n      tag_141\n        /* \"EHealth.sol\":8363:8378  FindSensor(_id) */\n      jump\t// in\n    tag_207:\n        /* \"EHealth.sol\":8350:8378  uint index = FindSensor(_id) */\n      swap1\n      pop\n        /* \"EHealth.sol\":8414:8418  _mac */\n      dup4\n        /* \"EHealth.sol\":8389:8402  sensorsDoctor */\n      0x08\n        /* \"EHealth.sol\":8403:8408  index */\n      dup3\n        /* \"EHealth.sol\":8389:8409  sensorsDoctor[index] */\n      dup2\n      sload\n      dup2\n      lt\n      tag_208\n      jumpi\n      invalid\n    tag_208:\n      swap1\n      0x00\n      mstore\n      keccak256(0x00, 0x20)\n      swap1\n      0x04\n      mul\n      add\n        /* \"EHealth.sol\":8389:8413  sensorsDoctor[index].MAC */\n      0x01\n      add\n        /* \"EHealth.sol\":8389:8418  sensorsDoctor[index].MAC=_mac */\n      swap1\n      dup1\n      mload\n      swap1\n      0x20\n      add\n      swap1\n      tag_210\n      swap3\n      swap2\n      swap1\n      tag_162\n      jump\t// in\n    tag_210:\n      pop\n        /* \"EHealth.sol\":8462:8474  _patientName */\n      dup3\n        /* \"EHealth.sol\":8429:8442  sensorsDoctor */\n      0x08\n        /* \"EHealth.sol\":8443:8448  index */\n      dup3\n        /* \"EHealth.sol\":8429:8449  sensorsDoctor[index] */\n      dup2\n      sload\n      dup2\n      lt\n      tag_211\n      jumpi\n      invalid\n    tag_211:\n      swap1\n      0x00\n      mstore\n      keccak256(0x00, 0x20)\n      swap1\n      0x04\n      mul\n      add\n        /* \"EHealth.sol\":8429:8461  sensorsDoctor[index].patientName */\n      0x02\n      add\n        /* \"EHealth.sol\":8429:8474  sensorsDoctor[index].patientName=_patientName */\n      swap1\n      dup1\n      mload\n      swap1\n      0x20\n      add\n      swap1\n      tag_213\n      swap3\n      swap2\n      swap1\n      tag_162\n      jump\t// in\n    tag_213:\n      pop\n        /* \"EHealth.sol\":8515:8524  _idDoctor */\n      dup2\n        /* \"EHealth.sol\":8485:8498  sensorsDoctor */\n      0x08\n        /* \"EHealth.sol\":8499:8504  index */\n      dup3\n        /* \"EHealth.sol\":8485:8505  sensorsDoctor[index] */\n      dup2\n      sload\n      dup2\n      lt\n      tag_214\n      jumpi\n      invalid\n    tag_214:\n      swap1\n      0x00\n      mstore\n      keccak256(0x00, 0x20)\n      swap1\n      0x04\n      mul\n      add\n        /* \"EHealth.sol\":8485:8514  sensorsDoctor[index].idDoctor */\n      0x03\n      add\n      0x00\n        /* \"EHealth.sol\":8485:8524  sensorsDoctor[index].idDoctor=_idDoctor */\n      0x0100\n      exp\n      dup2\n      sload\n      dup2\n      0xffffffffffffffffffffffffffffffffffffffff\n      mul\n      not\n      and\n      swap1\n      dup4\n      0xffffffffffffffffffffffffffffffffffffffff\n      and\n      mul\n      or\n      swap1\n      sstore\n      pop\n        /* \"EHealth.sol\":8540:8702  RefreshSensor(sensorsDoctor[index].idSensor,\r... */\n      0xba2bd0d5052fb9458eaac383932e8112a57bfc6a1836ad7118b1673447d3e6ae\n        /* \"EHealth.sol\":8554:8567  sensorsDoctor */\n      0x08\n        /* \"EHealth.sol\":8568:8573  index */\n      dup3\n        /* \"EHealth.sol\":8554:8574  sensorsDoctor[index] */\n      dup2\n      sload\n      dup2\n      lt\n      tag_216\n      jumpi\n      invalid\n    tag_216:\n      swap1\n      0x00\n      mstore\n      keccak256(0x00, 0x20)\n      swap1\n      0x04\n      mul\n      add\n        /* \"EHealth.sol\":8554:8583  sensorsDoctor[index].idSensor */\n      0x00\n      add\n      sload\n        /* \"EHealth.sol\":8594:8607  sensorsDoctor */\n      0x08\n        /* \"EHealth.sol\":8608:8613  index */\n      dup4\n        /* \"EHealth.sol\":8594:8614  sensorsDoctor[index] */\n      dup2\n      sload\n      dup2\n      lt\n      tag_218\n      jumpi\n      invalid\n    tag_218:\n      swap1\n      0x00\n      mstore\n      keccak256(0x00, 0x20)\n      swap1\n      0x04\n      mul\n      add\n        /* \"EHealth.sol\":8594:8618  sensorsDoctor[index].MAC */\n      0x01\n      add\n        /* \"EHealth.sol\":8629:8642  sensorsDoctor */\n      0x08\n        /* \"EHealth.sol\":8643:8648  index */\n      dup5\n        /* \"EHealth.sol\":8629:8649  sensorsDoctor[index] */\n      dup2\n      sload\n      dup2\n      lt\n      tag_220\n      jumpi\n      invalid\n    tag_220:\n      swap1\n      0x00\n      mstore\n      keccak256(0x00, 0x20)\n      swap1\n      0x04\n      mul\n      add\n        /* \"EHealth.sol\":8629:8661  sensorsDoctor[index].patientName */\n      0x02\n      add\n        /* \"EHealth.sol\":8672:8685  sensorsDoctor */\n      0x08\n        /* \"EHealth.sol\":8686:8691  index */\n      dup6\n        /* \"EHealth.sol\":8672:8692  sensorsDoctor[index] */\n      dup2\n      sload\n      dup2\n      lt\n      tag_222\n      jumpi\n      invalid\n    tag_222:\n      swap1\n      0x00\n      mstore\n      keccak256(0x00, 0x20)\n      swap1\n      0x04\n      mul\n      add\n        /* \"EHealth.sol\":8672:8701  sensorsDoctor[index].idDoctor */\n      0x03\n      add\n      0x00\n      swap1\n      sload\n      swap1\n      0x0100\n      exp\n      swap1\n      div\n      0xffffffffffffffffffffffffffffffffffffffff\n      and\n        /* \"EHealth.sol\":8540:8702  RefreshSensor(sensorsDoctor[index].idSensor,\r... */\n      mload(0x40)\n      tag_224\n      swap5\n      swap4\n      swap3\n      swap2\n      swap1\n      tag_225\n      jump\t// in\n    tag_224:\n      mload(0x40)\n      dup1\n      swap2\n      sub\n      swap1\n      log1\n        /* \"EHealth.sol\":8233:8710  function UpdateSensor(uint _id, string memory _mac, string memory _patientName,address _idDoctor ) public {\r... */\n      pop\n      pop\n      pop\n      pop\n      pop\n      jump\t// out\n        /* \"EHealth.sol\":2459:2885  function RemoveHospital(address _address) public {\r... */\n    tag_63:\n        /* \"EHealth.sol\":2519:2529  uint index */\n      0x00\n        /* \"EHealth.sol\":2532:2554  FindHospital(_address) */\n      tag_227\n        /* \"EHealth.sol\":2545:2553  _address */\n      dup3\n        /* \"EHealth.sol\":2532:2544  FindHospital */\n      tag_158\n        /* \"EHealth.sol\":2532:2554  FindHospital(_address) */\n      jump\t// in\n    tag_227:\n        /* \"EHealth.sol\":2519:2554  uint index = FindHospital(_address) */\n      swap1\n      pop\n        /* \"EHealth.sol\":2599:2604  false */\n      0x00\n        /* \"EHealth.sol\":2565:2580  hospitalCenters */\n      0x04\n        /* \"EHealth.sol\":2581:2586  index */\n      dup3\n        /* \"EHealth.sol\":2565:2587  hospitalCenters[index] */\n      dup2\n      sload\n      dup2\n      lt\n      tag_228\n      jumpi\n      invalid\n    tag_228:\n      swap1\n      0x00\n      mstore\n      keccak256(0x00, 0x20)\n      swap1\n      0x06\n      mul\n      add\n        /* \"EHealth.sol\":2565:2598  hospitalCenters[index].permission */\n      0x05\n      add\n      0x00\n        /* \"EHealth.sol\":2565:2604  hospitalCenters[index].permission=false */\n      0x0100\n      exp\n      dup2\n      sload\n      dup2\n      0xff\n      mul\n      not\n      and\n      swap1\n      dup4\n      iszero\n      iszero\n      mul\n      or\n      swap1\n      sstore\n      pop\n        /* \"EHealth.sol\":2620:2877  DeleteHospital(hospitalCenters[index].idHospital, \r... */\n      0x05818f5e23a2c2bb34c81792ea8e3397d3f8ad179cb93a5fa57b3d4681564aa0\n        /* \"EHealth.sol\":2635:2650  hospitalCenters */\n      0x04\n        /* \"EHealth.sol\":2651:2656  index */\n      dup3\n        /* \"EHealth.sol\":2635:2657  hospitalCenters[index] */\n      dup2\n      sload\n      dup2\n      lt\n      tag_230\n      jumpi\n      invalid\n    tag_230:\n      swap1\n      0x00\n      mstore\n      keccak256(0x00, 0x20)\n      swap1\n      0x06\n      mul\n      add\n        /* \"EHealth.sol\":2635:2668  hospitalCenters[index].idHospital */\n      0x00\n      add\n      0x00\n      swap1\n      sload\n      swap1\n      0x0100\n      exp\n      swap1\n      div\n      0xffffffffffffffffffffffffffffffffffffffff\n      and\n        /* \"EHealth.sol\":2680:2695  hospitalCenters */\n      0x04\n        /* \"EHealth.sol\":2696:2701  index */\n      dup4\n        /* \"EHealth.sol\":2680:2702  hospitalCenters[index] */\n      dup2\n      sload\n      dup2\n      lt\n      tag_232\n      jumpi\n      invalid\n    tag_232:\n      swap1\n      0x00\n      mstore\n      keccak256(0x00, 0x20)\n      swap1\n      0x06\n      mul\n      add\n        /* \"EHealth.sol\":2680:2707  hospitalCenters[index].name */\n      0x01\n      add\n        /* \"EHealth.sol\":2719:2734  hospitalCenters */\n      0x04\n        /* \"EHealth.sol\":2735:2740  index */\n      dup5\n        /* \"EHealth.sol\":2719:2741  hospitalCenters[index] */\n      dup2\n      sload\n      dup2\n      lt\n      tag_234\n      jumpi\n      invalid\n    tag_234:\n      swap1\n      0x00\n      mstore\n      keccak256(0x00, 0x20)\n      swap1\n      0x06\n      mul\n      add\n        /* \"EHealth.sol\":2719:2746  hospitalCenters[index].city */\n      0x02\n      add\n        /* \"EHealth.sol\":2758:2773  hospitalCenters */\n      0x04\n        /* \"EHealth.sol\":2774:2779  index */\n      dup6\n        /* \"EHealth.sol\":2758:2780  hospitalCenters[index] */\n      dup2\n      sload\n      dup2\n      lt\n      tag_236\n      jumpi\n      invalid\n    tag_236:\n      swap1\n      0x00\n      mstore\n      keccak256(0x00, 0x20)\n      swap1\n      0x06\n      mul\n      add\n        /* \"EHealth.sol\":2758:2786  hospitalCenters[index].state */\n      0x03\n      add\n        /* \"EHealth.sol\":2798:2813  hospitalCenters */\n      0x04\n        /* \"EHealth.sol\":2814:2819  index */\n      dup7\n        /* \"EHealth.sol\":2798:2820  hospitalCenters[index] */\n      dup2\n      sload\n      dup2\n      lt\n      tag_238\n      jumpi\n      invalid\n    tag_238:\n      swap1\n      0x00\n      mstore\n      keccak256(0x00, 0x20)\n      swap1\n      0x06\n      mul\n      add\n        /* \"EHealth.sol\":2798:2831  hospitalCenters[index].postalCode */\n      0x04\n      add\n      sload\n        /* \"EHealth.sol\":2843:2858  hospitalCenters */\n      0x04\n        /* \"EHealth.sol\":2859:2864  index */\n      dup8\n        /* \"EHealth.sol\":2843:2865  hospitalCenters[index] */\n      dup2\n      sload\n      dup2\n      lt\n      tag_240\n      jumpi\n      invalid\n    tag_240:\n      swap1\n      0x00\n      mstore\n      keccak256(0x00, 0x20)\n      swap1\n      0x06\n      mul\n      add\n        /* \"EHealth.sol\":2843:2876  hospitalCenters[index].permission */\n      0x05\n      add\n      0x00\n      swap1\n      sload\n      swap1\n      0x0100\n      exp\n      swap1\n      div\n      0xff\n      and\n        /* \"EHealth.sol\":2620:2877  DeleteHospital(hospitalCenters[index].idHospital, \r... */\n      mload(0x40)\n      tag_242\n      swap7\n      swap6\n      swap5\n      swap4\n      swap3\n      swap2\n      swap1\n      tag_243\n      jump\t// in\n    tag_242:\n      mload(0x40)\n      dup1\n      swap2\n      sub\n      swap1\n      log1\n        /* \"EHealth.sol\":2459:2885  function RemoveHospital(address _address) public {\r... */\n      pop\n      pop\n      jump\t// out\n        /* \"EHealth.sol\":3572:3851  function getAllHospitals() public view returns (Hospital[] memory){\r... */\n    tag_65:\n        /* \"EHealth.sol\":3620:3637  Hospital[] memory */\n      0x60\n        /* \"EHealth.sol\":3649:3670  Hospital[] memory ret */\n      0x00\n        /* \"EHealth.sol\":3688:3703  hospitalCenters */\n      0x04\n        /* \"EHealth.sol\":3688:3710  hospitalCenters.length */\n      dup1\n      sload\n      swap1\n      pop\n        /* \"EHealth.sol\":3673:3711  new Hospital[](hospitalCenters.length) */\n      0xffffffffffffffff\n      dup2\n      gt\n      dup1\n      iszero\n      tag_245\n      jumpi\n      0x00\n      dup1\n      revert\n    tag_245:\n      pop\n      mload(0x40)\n      swap1\n      dup1\n      dup3\n      mstore\n      dup1\n      0x20\n      mul\n      0x20\n      add\n      dup3\n      add\n      0x40\n      mstore\n      dup1\n      iszero\n      tag_246\n      jumpi\n      dup2\n      0x20\n      add\n    tag_247:\n      tag_248\n      tag_249\n      jump\t// in\n    tag_248:\n      dup2\n      mstore\n      0x20\n      add\n      swap1\n      0x01\n      swap1\n      sub\n      swap1\n      dup2\n      tag_247\n      jumpi\n      swap1\n      pop\n    tag_246:\n      pop\n        /* \"EHealth.sol\":3649:3711  Hospital[] memory ret = new Hospital[](hospitalCenters.length) */\n      swap1\n      pop\n        /* \"EHealth.sol\":3727:3733  uint i */\n      0x00\n        /* \"EHealth.sol\":3722:3823  for (uint i = 0; i< hospitalCenters.length; i++) {\r... */\n    tag_250:\n        /* \"EHealth.sol\":3742:3757  hospitalCenters */\n      0x04\n        /* \"EHealth.sol\":3742:3764  hospitalCenters.length */\n      dup1\n      sload\n      swap1\n      pop\n        /* \"EHealth.sol\":3739:3740  i */\n      dup2\n        /* \"EHealth.sol\":3739:3764  i< hospitalCenters.length */\n      lt\n        /* \"EHealth.sol\":3722:3823  for (uint i = 0; i< hospitalCenters.length; i++) {\r... */\n      iszero\n      tag_251\n      jumpi\n        /* \"EHealth.sol\":3793:3808  hospitalCenters */\n      0x04\n        /* \"EHealth.sol\":3809:3810  i */\n      dup2\n        /* \"EHealth.sol\":3793:3811  hospitalCenters[i] */\n      dup2\n      sload\n      dup2\n      lt\n      tag_253\n      jumpi\n      invalid\n    tag_253:\n      swap1\n      0x00\n      mstore\n      keccak256(0x00, 0x20)\n      swap1\n      0x06\n      mul\n      add\n        /* \"EHealth.sol\":3786:3811  ret[i]=hospitalCenters[i] */\n      mload(0x40)\n      dup1\n      0xc0\n      add\n      0x40\n      mstore\n      swap1\n      dup2\n      0x00\n      dup3\n      add\n      0x00\n      swap1\n      sload\n      swap1\n      0x0100\n      exp\n      swap1\n      div\n      0xffffffffffffffffffffffffffffffffffffffff\n      and\n      0xffffffffffffffffffffffffffffffffffffffff\n      and\n      0xffffffffffffffffffffffffffffffffffffffff\n      and\n      dup2\n      mstore\n      0x20\n      add\n      0x01\n      dup3\n      add\n      dup1\n      sload\n      0x01\n      dup2\n      0x01\n      and\n      iszero\n      0x0100\n      mul\n      sub\n      and\n      0x02\n      swap1\n      div\n      dup1\n      0x1f\n      add\n      0x20\n      dup1\n      swap2\n      div\n      mul\n      0x20\n      add\n      mload(0x40)\n      swap1\n      dup2\n      add\n      0x40\n      mstore\n      dup1\n      swap3\n      swap2\n      swap1\n      dup2\n      dup2\n      mstore\n      0x20\n      add\n      dup3\n      dup1\n      sload\n      0x01\n      dup2\n      0x01\n      and\n      iszero\n      0x0100\n      mul\n      sub\n      and\n      0x02\n      swap1\n      div\n      dup1\n      iszero\n      tag_255\n      jumpi\n      dup1\n      0x1f\n      lt\n      tag_256\n      jumpi\n      0x0100\n      dup1\n      dup4\n      sload\n      div\n      mul\n      dup4\n      mstore\n      swap2\n      0x20\n      add\n      swap2\n      jump(tag_255)\n    tag_256:\n      dup3\n      add\n      swap2\n      swap1\n      0x00\n      mstore\n      keccak256(0x00, 0x20)\n      swap1\n    tag_257:\n      dup2\n      sload\n      dup2\n      mstore\n      swap1\n      0x01\n      add\n      swap1\n      0x20\n      add\n      dup1\n      dup4\n      gt\n      tag_257\n      jumpi\n      dup3\n      swap1\n      sub\n      0x1f\n      and\n      dup3\n      add\n      swap2\n    tag_255:\n      pop\n      pop\n      pop\n      pop\n      pop\n      dup2\n      mstore\n      0x20\n      add\n      0x02\n      dup3\n      add\n      dup1\n      sload\n      0x01\n      dup2\n      0x01\n      and\n      iszero\n      0x0100\n      mul\n      sub\n      and\n      0x02\n      swap1\n      div\n      dup1\n      0x1f\n      add\n      0x20\n      dup1\n      swap2\n      div\n      mul\n      0x20\n      add\n      mload(0x40)\n      swap1\n      dup2\n      add\n      0x40\n      mstore\n      dup1\n      swap3\n      swap2\n      swap1\n      dup2\n      dup2\n      mstore\n      0x20\n      add\n      dup3\n      dup1\n      sload\n      0x01\n      dup2\n      0x01\n      and\n      iszero\n      0x0100\n      mul\n      sub\n      and\n      0x02\n      swap1\n      div\n      dup1\n      iszero\n      tag_258\n      jumpi\n      dup1\n      0x1f\n      lt\n      tag_259\n      jumpi\n      0x0100\n      dup1\n      dup4\n      sload\n      div\n      mul\n      dup4\n      mstore\n      swap2\n      0x20\n      add\n      swap2\n      jump(tag_258)\n    tag_259:\n      dup3\n      add\n      swap2\n      swap1\n      0x00\n      mstore\n      keccak256(0x00, 0x20)\n      swap1\n    tag_260:\n      dup2\n      sload\n      dup2\n      mstore\n      swap1\n      0x01\n      add\n      swap1\n      0x20\n      add\n      dup1\n      dup4\n      gt\n      tag_260\n      jumpi\n      dup3\n      swap1\n      sub\n      0x1f\n      and\n      dup3\n      add\n      swap2\n    tag_258:\n      pop\n      pop\n      pop\n      pop\n      pop\n      dup2\n      mstore\n      0x20\n      add\n      0x03\n      dup3\n      add\n      dup1\n      sload\n      0x01\n      dup2\n      0x01\n      and\n      iszero\n      0x0100\n      mul\n      sub\n      and\n      0x02\n      swap1\n      div\n      dup1\n      0x1f\n      add\n      0x20\n      dup1\n      swap2\n      div\n      mul\n      0x20\n      add\n      mload(0x40)\n      swap1\n      dup2\n      add\n      0x40\n      mstore\n      dup1\n      swap3\n      swap2\n      swap1\n      dup2\n      dup2\n      mstore\n      0x20\n      add\n      dup3\n      dup1\n      sload\n      0x01\n      dup2\n      0x01\n      and\n      iszero\n      0x0100\n      mul\n      sub\n      and\n      0x02\n      swap1\n      div\n      dup1\n      iszero\n      tag_261\n      jumpi\n      dup1\n      0x1f\n      lt\n      tag_262\n      jumpi\n      0x0100\n      dup1\n      dup4\n      sload\n      div\n      mul\n      dup4\n      mstore\n      swap2\n      0x20\n      add\n      swap2\n      jump(tag_261)\n    tag_262:\n      dup3\n      add\n      swap2\n      swap1\n      0x00\n      mstore\n      keccak256(0x00, 0x20)\n      swap1\n    tag_263:\n      dup2\n      sload\n      dup2\n      mstore\n      swap1\n      0x01\n      add\n      swap1\n      0x20\n      add\n      dup1\n      dup4\n      gt\n      tag_263\n      jumpi\n      dup3\n      swap1\n      sub\n      0x1f\n      and\n      dup3\n      add\n      swap2\n    tag_261:\n      pop\n      pop\n      pop\n      pop\n      pop\n      dup2\n      mstore\n      0x20\n      add\n      0x04\n      dup3\n      add\n      sload\n      dup2\n      mstore\n      0x20\n      add\n      0x05\n      dup3\n      add\n      0x00\n      swap1\n      sload\n      swap1\n      0x0100\n      exp\n      swap1\n      div\n      0xff\n      and\n      iszero\n      iszero\n      iszero\n      iszero\n      dup2\n      mstore\n      pop\n      pop\n        /* \"EHealth.sol\":3786:3789  ret */\n      dup3\n        /* \"EHealth.sol\":3790:3791  i */\n      dup3\n        /* \"EHealth.sol\":3786:3792  ret[i] */\n      dup2\n      mload\n      dup2\n      lt\n      tag_264\n      jumpi\n      invalid\n    tag_264:\n      0x20\n      mul\n      0x20\n      add\n      add\n        /* \"EHealth.sol\":3786:3811  ret[i]=hospitalCenters[i] */\n      dup2\n      swap1\n      mstore\n      pop\n        /* \"EHealth.sol\":3766:3769  i++ */\n      dup1\n      dup1\n      0x01\n      add\n      swap2\n      pop\n      pop\n        /* \"EHealth.sol\":3722:3823  for (uint i = 0; i< hospitalCenters.length; i++) {\r... */\n      jump(tag_250)\n    tag_251:\n      pop\n        /* \"EHealth.sol\":3840:3843  ret */\n      dup1\n        /* \"EHealth.sol\":3833:3843  return ret */\n      swap2\n      pop\n      pop\n        /* \"EHealth.sol\":3572:3851  function getAllHospitals() public view returns (Hospital[] memory){\r... */\n      swap1\n      jump\t// out\n        /* \"EHealth.sol\":9182:9447  function getAllSensors() public view returns (Sensor[] memory){\r... */\n    tag_69:\n        /* \"EHealth.sol\":9228:9243  Sensor[] memory */\n      0x60\n        /* \"EHealth.sol\":9255:9274  Sensor[] memory ret */\n      0x00\n        /* \"EHealth.sol\":9290:9303  sensorsDoctor */\n      0x08\n        /* \"EHealth.sol\":9290:9310  sensorsDoctor.length */\n      dup1\n      sload\n      swap1\n      pop\n        /* \"EHealth.sol\":9277:9311  new Sensor[](sensorsDoctor.length) */\n      0xffffffffffffffff\n      dup2\n      gt\n      dup1\n      iszero\n      tag_266\n      jumpi\n      0x00\n      dup1\n      revert\n    tag_266:\n      pop\n      mload(0x40)\n      swap1\n      dup1\n      dup3\n      mstore\n      dup1\n      0x20\n      mul\n      0x20\n      add\n      dup3\n      add\n      0x40\n      mstore\n      dup1\n      iszero\n      tag_267\n      jumpi\n      dup2\n      0x20\n      add\n    tag_268:\n      tag_269\n      tag_270\n      jump\t// in\n    tag_269:\n      dup2\n      mstore\n      0x20\n      add\n      swap1\n      0x01\n      swap1\n      sub\n      swap1\n      dup2\n      tag_268\n      jumpi\n      swap1\n      pop\n    tag_267:\n      pop\n        /* \"EHealth.sol\":9255:9311  Sensor[] memory ret = new Sensor[](sensorsDoctor.length) */\n      swap1\n      pop\n        /* \"EHealth.sol\":9327:9333  uint i */\n      0x00\n        /* \"EHealth.sol\":9322:9419  for (uint i = 0; i< sensorsDoctor.length; i++) {\r... */\n    tag_271:\n        /* \"EHealth.sol\":9342:9355  sensorsDoctor */\n      0x08\n        /* \"EHealth.sol\":9342:9362  sensorsDoctor.length */\n      dup1\n      sload\n      swap1\n      pop\n        /* \"EHealth.sol\":9339:9340  i */\n      dup2\n        /* \"EHealth.sol\":9339:9362  i< sensorsDoctor.length */\n      lt\n        /* \"EHealth.sol\":9322:9419  for (uint i = 0; i< sensorsDoctor.length; i++) {\r... */\n      iszero\n      tag_272\n      jumpi\n        /* \"EHealth.sol\":9391:9404  sensorsDoctor */\n      0x08\n        /* \"EHealth.sol\":9405:9406  i */\n      dup2\n        /* \"EHealth.sol\":9391:9407  sensorsDoctor[i] */\n      dup2\n      sload\n      dup2\n      lt\n      tag_274\n      jumpi\n      invalid\n    tag_274:\n      swap1\n      0x00\n      mstore\n      keccak256(0x00, 0x20)\n      swap1\n      0x04\n      mul\n      add\n        /* \"EHealth.sol\":9384:9407  ret[i]=sensorsDoctor[i] */\n      mload(0x40)\n      dup1\n      0xa0\n      add\n      0x40\n      mstore\n      swap1\n      dup2\n      0x00\n      dup3\n      add\n      sload\n      dup2\n      mstore\n      0x20\n      add\n      0x01\n      dup3\n      add\n      dup1\n      sload\n      0x01\n      dup2\n      0x01\n      and\n      iszero\n      0x0100\n      mul\n      sub\n      and\n      0x02\n      swap1\n      div\n      dup1\n      0x1f\n      add\n      0x20\n      dup1\n      swap2\n      div\n      mul\n      0x20\n      add\n      mload(0x40)\n      swap1\n      dup2\n      add\n      0x40\n      mstore\n      dup1\n      swap3\n      swap2\n      swap1\n      dup2\n      dup2\n      mstore\n      0x20\n      add\n      dup3\n      dup1\n      sload\n      0x01\n      dup2\n      0x01\n      and\n      iszero\n      0x0100\n      mul\n      sub\n      and\n      0x02\n      swap1\n      div\n      dup1\n      iszero\n      tag_276\n      jumpi\n      dup1\n      0x1f\n      lt\n      tag_277\n      jumpi\n      0x0100\n      dup1\n      dup4\n      sload\n      div\n      mul\n      dup4\n      mstore\n      swap2\n      0x20\n      add\n      swap2\n      jump(tag_276)\n    tag_277:\n      dup3\n      add\n      swap2\n      swap1\n      0x00\n      mstore\n      keccak256(0x00, 0x20)\n      swap1\n    tag_278:\n      dup2\n      sload\n      dup2\n      mstore\n      swap1\n      0x01\n      add\n      swap1\n      0x20\n      add\n      dup1\n      dup4\n      gt\n      tag_278\n      jumpi\n      dup3\n      swap1\n      sub\n      0x1f\n      and\n      dup3\n      add\n      swap2\n    tag_276:\n      pop\n      pop\n      pop\n      pop\n      pop\n      dup2\n      mstore\n      0x20\n      add\n      0x02\n      dup3\n      add\n      dup1\n      sload\n      0x01\n      dup2\n      0x01\n      and\n      iszero\n      0x0100\n      mul\n      sub\n      and\n      0x02\n      swap1\n      div\n      dup1\n      0x1f\n      add\n      0x20\n      dup1\n      swap2\n      div\n      mul\n      0x20\n      add\n      mload(0x40)\n      swap1\n      dup2\n      add\n      0x40\n      mstore\n      dup1\n      swap3\n      swap2\n      swap1\n      dup2\n      dup2\n      mstore\n      0x20\n      add\n      dup3\n      dup1\n      sload\n      0x01\n      dup2\n      0x01\n      and\n      iszero\n      0x0100\n      mul\n      sub\n      and\n      0x02\n      swap1\n      div\n      dup1\n      iszero\n      tag_279\n      jumpi\n      dup1\n      0x1f\n      lt\n      tag_280\n      jumpi\n      0x0100\n      dup1\n      dup4\n      sload\n      div\n      mul\n      dup4\n      mstore\n      swap2\n      0x20\n      add\n      swap2\n      jump(tag_279)\n    tag_280:\n      dup3\n      add\n      swap2\n      swap1\n      0x00\n      mstore\n      keccak256(0x00, 0x20)\n      swap1\n    tag_281:\n      dup2\n      sload\n      dup2\n      mstore\n      swap1\n      0x01\n      add\n      swap1\n      0x20\n      add\n      dup1\n      dup4\n      gt\n      tag_281\n      jumpi\n      dup3\n      swap1\n      sub\n      0x1f\n      and\n      dup3\n      add\n      swap2\n    tag_279:\n      pop\n      pop\n      pop\n      pop\n      pop\n      dup2\n      mstore\n      0x20\n      add\n      0x03\n      dup3\n      add\n      0x00\n      swap1\n      sload\n      swap1\n      0x0100\n      exp\n      swap1\n      div\n      0xffffffffffffffffffffffffffffffffffffffff\n      and\n      0xffffffffffffffffffffffffffffffffffffffff\n      and\n      0xffffffffffffffffffffffffffffffffffffffff\n      and\n      dup2\n      mstore\n      0x20\n      add\n      0x03\n      dup3\n      add\n      0x14\n      swap1\n      sload\n      swap1\n      0x0100\n      exp\n      swap1\n      div\n      0xff\n      and\n      iszero\n      iszero\n      iszero\n      iszero\n      dup2\n      mstore\n      pop\n      pop\n        /* \"EHealth.sol\":9384:9387  ret */\n      dup3\n        /* \"EHealth.sol\":9388:9389  i */\n      dup3\n        /* \"EHealth.sol\":9384:9390  ret[i] */\n      dup2\n      mload\n      dup2\n      lt\n      tag_282\n      jumpi\n      invalid\n    tag_282:\n      0x20\n      mul\n      0x20\n      add\n      add\n        /* \"EHealth.sol\":9384:9407  ret[i]=sensorsDoctor[i] */\n      dup2\n      swap1\n      mstore\n      pop\n        /* \"EHealth.sol\":9364:9367  i++ */\n      dup1\n      dup1\n      0x01\n      add\n      swap2\n      pop\n      pop\n        /* \"EHealth.sol\":9322:9419  for (uint i = 0; i< sensorsDoctor.length; i++) {\r... */\n      jump(tag_271)\n    tag_272:\n      pop\n        /* \"EHealth.sol\":9436:9439  ret */\n      dup1\n        /* \"EHealth.sol\":9429:9439  return ret */\n      swap2\n      pop\n      pop\n        /* \"EHealth.sol\":9182:9447  function getAllSensors() public view returns (Sensor[] memory){\r... */\n      swap1\n      jump\t// out\n        /* \"EHealth.sol\":7853:8198  function RemoveSensor(uint _id) public {\r... */\n    tag_74:\n        /* \"EHealth.sol\":7903:7913  uint index */\n      0x00\n        /* \"EHealth.sol\":7916:7931  FindSensor(_id) */\n      tag_284\n        /* \"EHealth.sol\":7927:7930  _id */\n      dup3\n        /* \"EHealth.sol\":7916:7926  FindSensor */\n      tag_141\n        /* \"EHealth.sol\":7916:7931  FindSensor(_id) */\n      jump\t// in\n    tag_284:\n        /* \"EHealth.sol\":7903:7931  uint index = FindSensor(_id) */\n      swap1\n      pop\n        /* \"EHealth.sol\":7970:7975  false */\n      0x00\n        /* \"EHealth.sol\":7942:7955  sensorsDoctor */\n      0x08\n        /* \"EHealth.sol\":7956:7961  index */\n      dup3\n        /* \"EHealth.sol\":7942:7962  sensorsDoctor[index] */\n      dup2\n      sload\n      dup2\n      lt\n      tag_285\n      jumpi\n      invalid\n    tag_285:\n      swap1\n      0x00\n      mstore\n      keccak256(0x00, 0x20)\n      swap1\n      0x04\n      mul\n      add\n        /* \"EHealth.sol\":7942:7969  sensorsDoctor[index].active */\n      0x03\n      add\n      0x14\n        /* \"EHealth.sol\":7942:7975  sensorsDoctor[index].active=false */\n      0x0100\n      exp\n      dup2\n      sload\n      dup2\n      0xff\n      mul\n      not\n      and\n      swap1\n      dup4\n      iszero\n      iszero\n      mul\n      or\n      swap1\n      sstore\n      pop\n        /* \"EHealth.sol\":7991:8190  DeleteSensor(sensorsDoctor[index].idSensor,\r... */\n      0xef9006907eb20210e880b0bb1c39946083bcec24688718507d63a259ffa8351b\n        /* \"EHealth.sol\":8004:8017  sensorsDoctor */\n      0x08\n        /* \"EHealth.sol\":8018:8023  index */\n      dup3\n        /* \"EHealth.sol\":8004:8024  sensorsDoctor[index] */\n      dup2\n      sload\n      dup2\n      lt\n      tag_287\n      jumpi\n      invalid\n    tag_287:\n      swap1\n      0x00\n      mstore\n      keccak256(0x00, 0x20)\n      swap1\n      0x04\n      mul\n      add\n        /* \"EHealth.sol\":8004:8033  sensorsDoctor[index].idSensor */\n      0x00\n      add\n      sload\n        /* \"EHealth.sol\":8044:8057  sensorsDoctor */\n      0x08\n        /* \"EHealth.sol\":8058:8063  index */\n      dup4\n        /* \"EHealth.sol\":8044:8064  sensorsDoctor[index] */\n      dup2\n      sload\n      dup2\n      lt\n      tag_289\n      jumpi\n      invalid\n    tag_289:\n      swap1\n      0x00\n      mstore\n      keccak256(0x00, 0x20)\n      swap1\n      0x04\n      mul\n      add\n        /* \"EHealth.sol\":8044:8068  sensorsDoctor[index].MAC */\n      0x01\n      add\n        /* \"EHealth.sol\":8079:8092  sensorsDoctor */\n      0x08\n        /* \"EHealth.sol\":8093:8098  index */\n      dup5\n        /* \"EHealth.sol\":8079:8099  sensorsDoctor[index] */\n      dup2\n      sload\n      dup2\n      lt\n      tag_291\n      jumpi\n      invalid\n    tag_291:\n      swap1\n      0x00\n      mstore\n      keccak256(0x00, 0x20)\n      swap1\n      0x04\n      mul\n      add\n        /* \"EHealth.sol\":8079:8111  sensorsDoctor[index].patientName */\n      0x02\n      add\n        /* \"EHealth.sol\":8122:8135  sensorsDoctor */\n      0x08\n        /* \"EHealth.sol\":8136:8141  index */\n      dup6\n        /* \"EHealth.sol\":8122:8142  sensorsDoctor[index] */\n      dup2\n      sload\n      dup2\n      lt\n      tag_293\n      jumpi\n      invalid\n    tag_293:\n      swap1\n      0x00\n      mstore\n      keccak256(0x00, 0x20)\n      swap1\n      0x04\n      mul\n      add\n        /* \"EHealth.sol\":8122:8151  sensorsDoctor[index].idDoctor */\n      0x03\n      add\n      0x00\n      swap1\n      sload\n      swap1\n      0x0100\n      exp\n      swap1\n      div\n      0xffffffffffffffffffffffffffffffffffffffff\n      and\n        /* \"EHealth.sol\":8162:8175  sensorsDoctor */\n      0x08\n        /* \"EHealth.sol\":8176:8181  index */\n      dup7\n        /* \"EHealth.sol\":8162:8182  sensorsDoctor[index] */\n      dup2\n      sload\n      dup2\n      lt\n      tag_295\n      jumpi\n      invalid\n    tag_295:\n      swap1\n      0x00\n      mstore\n      keccak256(0x00, 0x20)\n      swap1\n      0x04\n      mul\n      add\n        /* \"EHealth.sol\":8162:8189  sensorsDoctor[index].active */\n      0x03\n      add\n      0x14\n      swap1\n      sload\n      swap1\n      0x0100\n      exp\n      swap1\n      div\n      0xff\n      and\n        /* \"EHealth.sol\":7991:8190  DeleteSensor(sensorsDoctor[index].idSensor,\r... */\n      mload(0x40)\n      tag_297\n      swap6\n      swap5\n      swap4\n      swap3\n      swap2\n      swap1\n      tag_298\n      jump\t// in\n    tag_297:\n      mload(0x40)\n      dup1\n      swap2\n      sub\n      swap1\n      log1\n        /* \"EHealth.sol\":7853:8198  function RemoveSensor(uint _id) public {\r... */\n      pop\n      pop\n      jump\t// out\n        /* \"EHealth.sol\":5934:6181  function ReadDoctor(address _id)public view returns(string memory, address, bool){\r... */\n    tag_77:\n        /* \"EHealth.sol\":5986:5999  string memory */\n      0x60\n        /* \"EHealth.sol\":6001:6008  address */\n      0x00\n        /* \"EHealth.sol\":6010:6014  bool */\n      dup1\n        /* \"EHealth.sol\":6026:6036  uint index */\n      0x00\n        /* \"EHealth.sol\":6039:6054  FindDoctor(_id) */\n      tag_300\n        /* \"EHealth.sol\":6050:6053  _id */\n      dup6\n        /* \"EHealth.sol\":6039:6049  FindDoctor */\n      tag_185\n        /* \"EHealth.sol\":6039:6054  FindDoctor(_id) */\n      jump\t// in\n    tag_300:\n        /* \"EHealth.sol\":6026:6054  uint index = FindDoctor(_id) */\n      swap1\n      pop\n        /* \"EHealth.sol\":6073:6088  doctorsHospital */\n      0x06\n        /* \"EHealth.sol\":6089:6094  index */\n      dup2\n        /* \"EHealth.sol\":6073:6095  doctorsHospital[index] */\n      dup2\n      sload\n      dup2\n      lt\n      tag_301\n      jumpi\n      invalid\n    tag_301:\n      swap1\n      0x00\n      mstore\n      keccak256(0x00, 0x20)\n      swap1\n      0x03\n      mul\n      add\n        /* \"EHealth.sol\":6073:6106  doctorsHospital[index].nameDoctor */\n      0x01\n      add\n        /* \"EHealth.sol\":6107:6122  doctorsHospital */\n      0x06\n        /* \"EHealth.sol\":6123:6128  index */\n      dup3\n        /* \"EHealth.sol\":6107:6129  doctorsHospital[index] */\n      dup2\n      sload\n      dup2\n      lt\n      tag_303\n      jumpi\n      invalid\n    tag_303:\n      swap1\n      0x00\n      mstore\n      keccak256(0x00, 0x20)\n      swap1\n      0x03\n      mul\n      add\n        /* \"EHealth.sol\":6107:6138  doctorsHospital[index].hospital */\n      0x02\n      add\n      0x00\n      swap1\n      sload\n      swap1\n      0x0100\n      exp\n      swap1\n      div\n      0xffffffffffffffffffffffffffffffffffffffff\n      and\n        /* \"EHealth.sol\":6139:6154  doctorsHospital */\n      0x06\n        /* \"EHealth.sol\":6155:6160  index */\n      dup4\n        /* \"EHealth.sol\":6139:6161  doctorsHospital[index] */\n      dup2\n      sload\n      dup2\n      lt\n      tag_305\n      jumpi\n      invalid\n    tag_305:\n      swap1\n      0x00\n      mstore\n      keccak256(0x00, 0x20)\n      swap1\n      0x03\n      mul\n      add\n        /* \"EHealth.sol\":6139:6172  doctorsHospital[index].permission */\n      0x02\n      add\n      0x14\n      swap1\n      sload\n      swap1\n      0x0100\n      exp\n      swap1\n      div\n      0xff\n      and\n        /* \"EHealth.sol\":6065:6173  return (doctorsHospital[index].nameDoctor,doctorsHospital[index].hospital,doctorsHospital[index].permission) */\n      dup3\n      dup1\n      sload\n      0x01\n      dup2\n      0x01\n      and\n      iszero\n      0x0100\n      mul\n      sub\n      and\n      0x02\n      swap1\n      div\n      dup1\n      0x1f\n      add\n      0x20\n      dup1\n      swap2\n      div\n      mul\n      0x20\n      add\n      mload(0x40)\n      swap1\n      dup2\n      add\n      0x40\n      mstore\n      dup1\n      swap3\n      swap2\n      swap1\n      dup2\n      dup2\n      mstore\n      0x20\n      add\n      dup3\n      dup1\n      sload\n      0x01\n      dup2\n      0x01\n      and\n      iszero\n      0x0100\n      mul\n      sub\n      and\n      0x02\n      swap1\n      div\n      dup1\n      iszero\n      tag_307\n      jumpi\n      dup1\n      0x1f\n      lt\n      tag_308\n      jumpi\n      0x0100\n      dup1\n      dup4\n      sload\n      div\n      mul\n      dup4\n      mstore\n      swap2\n      0x20\n      add\n      swap2\n      jump(tag_307)\n    tag_308:\n      dup3\n      add\n      swap2\n      swap1\n      0x00\n      mstore\n      keccak256(0x00, 0x20)\n      swap1\n    tag_309:\n      dup2\n      sload\n      dup2\n      mstore\n      swap1\n      0x01\n      add\n      swap1\n      0x20\n      add\n      dup1\n      dup4\n      gt\n      tag_309\n      jumpi\n      dup3\n      swap1\n      sub\n      0x1f\n      and\n      dup3\n      add\n      swap2\n    tag_307:\n      pop\n      pop\n      pop\n      pop\n      pop\n      swap3\n      pop\n      swap4\n      pop\n      swap4\n      pop\n      swap4\n      pop\n      pop\n        /* \"EHealth.sol\":5934:6181  function ReadDoctor(address _id)public view returns(string memory, address, bool){\r... */\n      swap2\n      swap4\n      swap1\n      swap3\n      pop\n      jump\t// out\n        /* \"EHealth.sol\":864:904  mapping(address=> Sensor) public Sensors */\n    tag_82:\n      mstore(0x20, 0x07)\n      dup1\n      0x00\n      mstore\n      keccak256(0x00, 0x40)\n      0x00\n      swap2\n      pop\n      swap1\n      pop\n      dup1\n      0x00\n      add\n      sload\n      swap1\n      dup1\n      0x01\n      add\n      dup1\n      sload\n      0x01\n      dup2\n      0x01\n      and\n      iszero\n      0x0100\n      mul\n      sub\n      and\n      0x02\n      swap1\n      div\n      dup1\n      0x1f\n      add\n      0x20\n      dup1\n      swap2\n      div\n      mul\n      0x20\n      add\n      mload(0x40)\n      swap1\n      dup2\n      add\n      0x40\n      mstore\n      dup1\n      swap3\n      swap2\n      swap1\n      dup2\n      dup2\n      mstore\n      0x20\n      add\n      dup3\n      dup1\n      sload\n      0x01\n      dup2\n      0x01\n      and\n      iszero\n      0x0100\n      mul\n      sub\n      and\n      0x02\n      swap1\n      div\n      dup1\n      iszero\n      tag_310\n      jumpi\n      dup1\n      0x1f\n      lt\n      tag_311\n      jumpi\n      0x0100\n      dup1\n      dup4\n      sload\n      div\n      mul\n      dup4\n      mstore\n      swap2\n      0x20\n      add\n      swap2\n      jump(tag_310)\n    tag_311:\n      dup3\n      add\n      swap2\n      swap1\n      0x00\n      mstore\n      keccak256(0x00, 0x20)\n      swap1\n    tag_312:\n      dup2\n      sload\n      dup2\n      mstore\n      swap1\n      0x01\n      add\n      swap1\n      0x20\n      add\n      dup1\n      dup4\n      gt\n      tag_312\n      jumpi\n      dup3\n      swap1\n      sub\n      0x1f\n      and\n      dup3\n      add\n      swap2\n    tag_310:\n      pop\n      pop\n      pop\n      pop\n      pop\n      swap1\n      dup1\n      0x02\n      add\n      dup1\n      sload\n      0x01\n      dup2\n      0x01\n      and\n      iszero\n      0x0100\n      mul\n      sub\n      and\n      0x02\n      swap1\n      div\n      dup1\n      0x1f\n      add\n      0x20\n      dup1\n      swap2\n      div\n      mul\n      0x20\n      add\n      mload(0x40)\n      swap1\n      dup2\n      add\n      0x40\n      mstore\n      dup1\n      swap3\n      swap2\n      swap1\n      dup2\n      dup2\n      mstore\n      0x20\n      add\n      dup3\n      dup1\n      sload\n      0x01\n      dup2\n      0x01\n      and\n      iszero\n      0x0100\n      mul\n      sub\n      and\n      0x02\n      swap1\n      div\n      dup1\n      iszero\n      tag_313\n      jumpi\n      dup1\n      0x1f\n      lt\n      tag_314\n      jumpi\n      0x0100\n      dup1\n      dup4\n      sload\n      div\n      mul\n      dup4\n      mstore\n      swap2\n      0x20\n      add\n      swap2\n      jump(tag_313)\n    tag_314:\n      dup3\n      add\n      swap2\n      swap1\n      0x00\n      mstore\n      keccak256(0x00, 0x20)\n      swap1\n    tag_315:\n      dup2\n      sload\n      dup2\n      mstore\n      swap1\n      0x01\n      add\n      swap1\n      0x20\n      add\n      dup1\n      dup4\n      gt\n      tag_315\n      jumpi\n      dup3\n      swap1\n      sub\n      0x1f\n      and\n      dup3\n      add\n      swap2\n    tag_313:\n      pop\n      pop\n      pop\n      pop\n      pop\n      swap1\n      dup1\n      0x03\n      add\n      0x00\n      swap1\n      sload\n      swap1\n      0x0100\n      exp\n      swap1\n      div\n      0xffffffffffffffffffffffffffffffffffffffff\n      and\n      swap1\n      dup1\n      0x03\n      add\n      0x14\n      swap1\n      sload\n      swap1\n      0x0100\n      exp\n      swap1\n      div\n      0xff\n      and\n      swap1\n      pop\n      dup6\n      jump\t// out\n        /* \"EHealth.sol\":808:839  Doctor[] public doctorsHospital */\n    tag_87:\n      0x06\n      dup2\n      dup2\n      sload\n      dup2\n      lt\n      tag_316\n      jumpi\n      0x00\n      dup1\n      revert\n    tag_316:\n      swap1\n      0x00\n      mstore\n      keccak256(0x00, 0x20)\n      swap1\n      0x03\n      mul\n      add\n      0x00\n      swap2\n      pop\n      swap1\n      pop\n      dup1\n      0x00\n      add\n      0x00\n      swap1\n      sload\n      swap1\n      0x0100\n      exp\n      swap1\n      div\n      0xffffffffffffffffffffffffffffffffffffffff\n      and\n      swap1\n      dup1\n      0x01\n      add\n      dup1\n      sload\n      0x01\n      dup2\n      0x01\n      and\n      iszero\n      0x0100\n      mul\n      sub\n      and\n      0x02\n      swap1\n      div\n      dup1\n      0x1f\n      add\n      0x20\n      dup1\n      swap2\n      div\n      mul\n      0x20\n      add\n      mload(0x40)\n      swap1\n      dup2\n      add\n      0x40\n      mstore\n      dup1\n      swap3\n      swap2\n      swap1\n      dup2\n      dup2\n      mstore\n      0x20\n      add\n      dup3\n      dup1\n      sload\n      0x01\n      dup2\n      0x01\n      and\n      iszero\n      0x0100\n      mul\n      sub\n      and\n      0x02\n      swap1\n      div\n      dup1\n      iszero\n      tag_318\n      jumpi\n      dup1\n      0x1f\n      lt\n      tag_319\n      jumpi\n      0x0100\n      dup1\n      dup4\n      sload\n      div\n      mul\n      dup4\n      mstore\n      swap2\n      0x20\n      add\n      swap2\n      jump(tag_318)\n    tag_319:\n      dup3\n      add\n      swap2\n      swap1\n      0x00\n      mstore\n      keccak256(0x00, 0x20)\n      swap1\n    tag_320:\n      dup2\n      sload\n      dup2\n      mstore\n      swap1\n      0x01\n      add\n      swap1\n      0x20\n      add\n      dup1\n      dup4\n      gt\n      tag_320\n      jumpi\n      dup3\n      swap1\n      sub\n      0x1f\n      and\n      dup3\n      add\n      swap2\n    tag_318:\n      pop\n      pop\n      pop\n      pop\n      pop\n      swap1\n      dup1\n      0x02\n      add\n      0x00\n      swap1\n      sload\n      swap1\n      0x0100\n      exp\n      swap1\n      div\n      0xffffffffffffffffffffffffffffffffffffffff\n      and\n      swap1\n      dup1\n      0x02\n      add\n      0x14\n      swap1\n      sload\n      swap1\n      0x0100\n      exp\n      swap1\n      div\n      0xff\n      and\n      swap1\n      pop\n      dup5\n      jump\t// out\n        /* \"EHealth.sol\":9496:9862  function getAllSensorOfDoctor (address _idDoctor) public view returns (Sensor[] memory){\r... */\n    tag_92:\n        /* \"EHealth.sol\":9567:9582  Sensor[] memory */\n      0x60\n        /* \"EHealth.sol\":9594:9613  Sensor[] memory ret */\n      0x00\n        /* \"EHealth.sol\":9629:9642  sensorsDoctor */\n      0x08\n        /* \"EHealth.sol\":9629:9649  sensorsDoctor.length */\n      dup1\n      sload\n      swap1\n      pop\n        /* \"EHealth.sol\":9616:9650  new Sensor[](sensorsDoctor.length) */\n      0xffffffffffffffff\n      dup2\n      gt\n      dup1\n      iszero\n      tag_322\n      jumpi\n      0x00\n      dup1\n      revert\n    tag_322:\n      pop\n      mload(0x40)\n      swap1\n      dup1\n      dup3\n      mstore\n      dup1\n      0x20\n      mul\n      0x20\n      add\n      dup3\n      add\n      0x40\n      mstore\n      dup1\n      iszero\n      tag_323\n      jumpi\n      dup2\n      0x20\n      add\n    tag_324:\n      tag_325\n      tag_270\n      jump\t// in\n    tag_325:\n      dup2\n      mstore\n      0x20\n      add\n      swap1\n      0x01\n      swap1\n      sub\n      swap1\n      dup2\n      tag_324\n      jumpi\n      swap1\n      pop\n    tag_323:\n      pop\n        /* \"EHealth.sol\":9594:9650  Sensor[] memory ret = new Sensor[](sensorsDoctor.length) */\n      swap1\n      pop\n        /* \"EHealth.sol\":9666:9672  uint i */\n      0x00\n        /* \"EHealth.sol\":9661:9834  for (uint i = 0; i< sensorsDoctor.length; i++) {\r... */\n    tag_326:\n        /* \"EHealth.sol\":9681:9694  sensorsDoctor */\n      0x08\n        /* \"EHealth.sol\":9681:9701  sensorsDoctor.length */\n      dup1\n      sload\n      swap1\n      pop\n        /* \"EHealth.sol\":9678:9679  i */\n      dup2\n        /* \"EHealth.sol\":9678:9701  i< sensorsDoctor.length */\n      lt\n        /* \"EHealth.sol\":9661:9834  for (uint i = 0; i< sensorsDoctor.length; i++) {\r... */\n      iszero\n      tag_327\n      jumpi\n        /* \"EHealth.sol\":9739:9752  sensorsDoctor */\n      0x08\n        /* \"EHealth.sol\":9753:9754  i */\n      dup2\n        /* \"EHealth.sol\":9739:9755  sensorsDoctor[i] */\n      dup2\n      sload\n      dup2\n      lt\n      tag_329\n      jumpi\n      invalid\n    tag_329:\n      swap1\n      0x00\n      mstore\n      keccak256(0x00, 0x20)\n      swap1\n      0x04\n      mul\n      add\n        /* \"EHealth.sol\":9739:9764  sensorsDoctor[i].idDoctor */\n      0x03\n      add\n      0x00\n      swap1\n      sload\n      swap1\n      0x0100\n      exp\n      swap1\n      div\n      0xffffffffffffffffffffffffffffffffffffffff\n      and\n        /* \"EHealth.sol\":9726:9764  _idDoctor == sensorsDoctor[i].idDoctor */\n      0xffffffffffffffffffffffffffffffffffffffff\n      and\n        /* \"EHealth.sol\":9726:9735  _idDoctor */\n      dup5\n        /* \"EHealth.sol\":9726:9764  _idDoctor == sensorsDoctor[i].idDoctor */\n      0xffffffffffffffffffffffffffffffffffffffff\n      and\n      eq\n        /* \"EHealth.sol\":9723:9823  if(_idDoctor == sensorsDoctor[i].idDoctor){\r... */\n      iszero\n      tag_331\n      jumpi\n        /* \"EHealth.sol\":9791:9804  sensorsDoctor */\n      0x08\n        /* \"EHealth.sol\":9805:9806  i */\n      dup2\n        /* \"EHealth.sol\":9791:9807  sensorsDoctor[i] */\n      dup2\n      sload\n      dup2\n      lt\n      tag_332\n      jumpi\n      invalid\n    tag_332:\n      swap1\n      0x00\n      mstore\n      keccak256(0x00, 0x20)\n      swap1\n      0x04\n      mul\n      add\n        /* \"EHealth.sol\":9784:9807  ret[i]=sensorsDoctor[i] */\n      mload(0x40)\n      dup1\n      0xa0\n      add\n      0x40\n      mstore\n      swap1\n      dup2\n      0x00\n      dup3\n      add\n      sload\n      dup2\n      mstore\n      0x20\n      add\n      0x01\n      dup3\n      add\n      dup1\n      sload\n      0x01\n      dup2\n      0x01\n      and\n      iszero\n      0x0100\n      mul\n      sub\n      and\n      0x02\n      swap1\n      div\n      dup1\n      0x1f\n      add\n      0x20\n      dup1\n      swap2\n      div\n      mul\n      0x20\n      add\n      mload(0x40)\n      swap1\n      dup2\n      add\n      0x40\n      mstore\n      dup1\n      swap3\n      swap2\n      swap1\n      dup2\n      dup2\n      mstore\n      0x20\n      add\n      dup3\n      dup1\n      sload\n      0x01\n      dup2\n      0x01\n      and\n      iszero\n      0x0100\n      mul\n      sub\n      and\n      0x02\n      swap1\n      div\n      dup1\n      iszero\n      tag_334\n      jumpi\n      dup1\n      0x1f\n      lt\n      tag_335\n      jumpi\n      0x0100\n      dup1\n      dup4\n      sload\n      div\n      mul\n      dup4\n      mstore\n      swap2\n      0x20\n      add\n      swap2\n      jump(tag_334)\n    tag_335:\n      dup3\n      add\n      swap2\n      swap1\n      0x00\n      mstore\n      keccak256(0x00, 0x20)\n      swap1\n    tag_336:\n      dup2\n      sload\n      dup2\n      mstore\n      swap1\n      0x01\n      add\n      swap1\n      0x20\n      add\n      dup1\n      dup4\n      gt\n      tag_336\n      jumpi\n      dup3\n      swap1\n      sub\n      0x1f\n      and\n      dup3\n      add\n      swap2\n    tag_334:\n      pop\n      pop\n      pop\n      pop\n      pop\n      dup2\n      mstore\n      0x20\n      add\n      0x02\n      dup3\n      add\n      dup1\n      sload\n      0x01\n      dup2\n      0x01\n      and\n      iszero\n      0x0100\n      mul\n      sub\n      and\n      0x02\n      swap1\n      div\n      dup1\n      0x1f\n      add\n      0x20\n      dup1\n      swap2\n      div\n      mul\n      0x20\n      add\n      mload(0x40)\n      swap1\n      dup2\n      add\n      0x40\n      mstore\n      dup1\n      swap3\n      swap2\n      swap1\n      dup2\n      dup2\n      mstore\n      0x20\n      add\n      dup3\n      dup1\n      sload\n      0x01\n      dup2\n      0x01\n      and\n      iszero\n      0x0100\n      mul\n      sub\n      and\n      0x02\n      swap1\n      div\n      dup1\n      iszero\n      tag_337\n      jumpi\n      dup1\n      0x1f\n      lt\n      tag_338\n      jumpi\n      0x0100\n      dup1\n      dup4\n      sload\n      div\n      mul\n      dup4\n      mstore\n      swap2\n      0x20\n      add\n      swap2\n      jump(tag_337)\n    tag_338:\n      dup3\n      add\n      swap2\n      swap1\n      0x00\n      mstore\n      keccak256(0x00, 0x20)\n      swap1\n    tag_339:\n      dup2\n      sload\n      dup2\n      mstore\n      swap1\n      0x01\n      add\n      swap1\n      0x20\n      add\n      dup1\n      dup4\n      gt\n      tag_339\n      jumpi\n      dup3\n      swap1\n      sub\n      0x1f\n      and\n      dup3\n      add\n      swap2\n    tag_337:\n      pop\n      pop\n      pop\n      pop\n      pop\n      dup2\n      mstore\n      0x20\n      add\n      0x03\n      dup3\n      add\n      0x00\n      swap1\n      sload\n      swap1\n      0x0100\n      exp\n      swap1\n      div\n      0xffffffffffffffffffffffffffffffffffffffff\n      and\n      0xffffffffffffffffffffffffffffffffffffffff\n      and\n      0xffffffffffffffffffffffffffffffffffffffff\n      and\n      dup2\n      mstore\n      0x20\n      add\n      0x03\n      dup3\n      add\n      0x14\n      swap1\n      sload\n      swap1\n      0x0100\n      exp\n      swap1\n      div\n      0xff\n      and\n      iszero\n      iszero\n      iszero\n      iszero\n      dup2\n      mstore\n      pop\n      pop\n        /* \"EHealth.sol\":9784:9787  ret */\n      dup3\n        /* \"EHealth.sol\":9788:9789  i */\n      dup3\n        /* \"EHealth.sol\":9784:9790  ret[i] */\n      dup2\n      mload\n      dup2\n      lt\n      tag_340\n      jumpi\n      invalid\n    tag_340:\n      0x20\n      mul\n      0x20\n      add\n      add\n        /* \"EHealth.sol\":9784:9807  ret[i]=sensorsDoctor[i] */\n      dup2\n      swap1\n      mstore\n      pop\n        /* \"EHealth.sol\":9723:9823  if(_idDoctor == sensorsDoctor[i].idDoctor){\r... */\n    tag_331:\n        /* \"EHealth.sol\":9703:9706  i++ */\n      dup1\n      dup1\n      0x01\n      add\n      swap2\n      pop\n      pop\n        /* \"EHealth.sol\":9661:9834  for (uint i = 0; i< sensorsDoctor.length; i++) {\r... */\n      jump(tag_326)\n    tag_327:\n      pop\n        /* \"EHealth.sol\":9851:9854  ret */\n      dup1\n        /* \"EHealth.sol\":9844:9854  return ret */\n      swap2\n      pop\n      pop\n        /* \"EHealth.sol\":9496:9862  function getAllSensorOfDoctor (address _idDoctor) public view returns (Sensor[] memory){\r... */\n      swap2\n      swap1\n      pop\n      jump\t// out\n        /* \"EHealth.sol\":4031:4382  function ReadHospital(address _address)public view returns(string memory, string memory, string memory, uint, bool){\r... */\n    tag_96:\n        /* \"EHealth.sol\":4090:4103  string memory */\n      0x60\n        /* \"EHealth.sol\":4105:4118  string memory */\n      dup1\n        /* \"EHealth.sol\":4120:4133  string memory */\n      0x60\n        /* \"EHealth.sol\":4135:4139  uint */\n      0x00\n        /* \"EHealth.sol\":4141:4145  bool */\n      dup1\n        /* \"EHealth.sol\":4157:4167  uint index */\n      0x00\n        /* \"EHealth.sol\":4170:4192  FindHospital(_address) */\n      tag_342\n        /* \"EHealth.sol\":4183:4191  _address */\n      dup8\n        /* \"EHealth.sol\":4170:4182  FindHospital */\n      tag_158\n        /* \"EHealth.sol\":4170:4192  FindHospital(_address) */\n      jump\t// in\n    tag_342:\n        /* \"EHealth.sol\":4157:4192  uint index = FindHospital(_address) */\n      swap1\n      pop\n        /* \"EHealth.sol\":4211:4226  hospitalCenters */\n      0x04\n        /* \"EHealth.sol\":4227:4232  index */\n      dup2\n        /* \"EHealth.sol\":4211:4233  hospitalCenters[index] */\n      dup2\n      sload\n      dup2\n      lt\n      tag_343\n      jumpi\n      invalid\n    tag_343:\n      swap1\n      0x00\n      mstore\n      keccak256(0x00, 0x20)\n      swap1\n      0x06\n      mul\n      add\n        /* \"EHealth.sol\":4211:4238  hospitalCenters[index].name */\n      0x01\n      add\n        /* \"EHealth.sol\":4239:4254  hospitalCenters */\n      0x04\n        /* \"EHealth.sol\":4255:4260  index */\n      dup3\n        /* \"EHealth.sol\":4239:4261  hospitalCenters[index] */\n      dup2\n      sload\n      dup2\n      lt\n      tag_345\n      jumpi\n      invalid\n    tag_345:\n      swap1\n      0x00\n      mstore\n      keccak256(0x00, 0x20)\n      swap1\n      0x06\n      mul\n      add\n        /* \"EHealth.sol\":4239:4266  hospitalCenters[index].city */\n      0x02\n      add\n        /* \"EHealth.sol\":4267:4282  hospitalCenters */\n      0x04\n        /* \"EHealth.sol\":4283:4288  index */\n      dup4\n        /* \"EHealth.sol\":4267:4289  hospitalCenters[index] */\n      dup2\n      sload\n      dup2\n      lt\n      tag_347\n      jumpi\n      invalid\n    tag_347:\n      swap1\n      0x00\n      mstore\n      keccak256(0x00, 0x20)\n      swap1\n      0x06\n      mul\n      add\n        /* \"EHealth.sol\":4267:4295  hospitalCenters[index].state */\n      0x03\n      add\n        /* \"EHealth.sol\":4306:4321  hospitalCenters */\n      0x04\n        /* \"EHealth.sol\":4322:4327  index */\n      dup5\n        /* \"EHealth.sol\":4306:4328  hospitalCenters[index] */\n      dup2\n      sload\n      dup2\n      lt\n      tag_349\n      jumpi\n      invalid\n    tag_349:\n      swap1\n      0x00\n      mstore\n      keccak256(0x00, 0x20)\n      swap1\n      0x06\n      mul\n      add\n        /* \"EHealth.sol\":4306:4339  hospitalCenters[index].postalCode */\n      0x04\n      add\n      sload\n        /* \"EHealth.sol\":4340:4355  hospitalCenters */\n      0x04\n        /* \"EHealth.sol\":4356:4361  index */\n      dup6\n        /* \"EHealth.sol\":4340:4362  hospitalCenters[index] */\n      dup2\n      sload\n      dup2\n      lt\n      tag_351\n      jumpi\n      invalid\n    tag_351:\n      swap1\n      0x00\n      mstore\n      keccak256(0x00, 0x20)\n      swap1\n      0x06\n      mul\n      add\n        /* \"EHealth.sol\":4340:4373  hospitalCenters[index].permission */\n      0x05\n      add\n      0x00\n      swap1\n      sload\n      swap1\n      0x0100\n      exp\n      swap1\n      div\n      0xff\n      and\n        /* \"EHealth.sol\":4203:4374  return (hospitalCenters[index].name,hospitalCenters[index].city,hospitalCenters[index].state,\r... */\n      dup5\n      dup1\n      sload\n      0x01\n      dup2\n      0x01\n      and\n      iszero\n      0x0100\n      mul\n      sub\n      and\n      0x02\n      swap1\n      div\n      dup1\n      0x1f\n      add\n      0x20\n      dup1\n      swap2\n      div\n      mul\n      0x20\n      add\n      mload(0x40)\n      swap1\n      dup2\n      add\n      0x40\n      mstore\n      dup1\n      swap3\n      swap2\n      swap1\n      dup2\n      dup2\n      mstore\n      0x20\n      add\n      dup3\n      dup1\n      sload\n      0x01\n      dup2\n      0x01\n      and\n      iszero\n      0x0100\n      mul\n      sub\n      and\n      0x02\n      swap1\n      div\n      dup1\n      iszero\n      tag_353\n      jumpi\n      dup1\n      0x1f\n      lt\n      tag_354\n      jumpi\n      0x0100\n      dup1\n      dup4\n      sload\n      div\n      mul\n      dup4\n      mstore\n      swap2\n      0x20\n      add\n      swap2\n      jump(tag_353)\n    tag_354:\n      dup3\n      add\n      swap2\n      swap1\n      0x00\n      mstore\n      keccak256(0x00, 0x20)\n      swap1\n    tag_355:\n      dup2\n      sload\n      dup2\n      mstore\n      swap1\n      0x01\n      add\n      swap1\n      0x20\n      add\n      dup1\n      dup4\n      gt\n      tag_355\n      jumpi\n      dup3\n      swap1\n      sub\n      0x1f\n      and\n      dup3\n      add\n      swap2\n    tag_353:\n      pop\n      pop\n      pop\n      pop\n      pop\n      swap5\n      pop\n      dup4\n      dup1\n      sload\n      0x01\n      dup2\n      0x01\n      and\n      iszero\n      0x0100\n      mul\n      sub\n      and\n      0x02\n      swap1\n      div\n      dup1\n      0x1f\n      add\n      0x20\n      dup1\n      swap2\n      div\n      mul\n      0x20\n      add\n      mload(0x40)\n      swap1\n      dup2\n      add\n      0x40\n      mstore\n      dup1\n      swap3\n      swap2\n      swap1\n      dup2\n      dup2\n      mstore\n      0x20\n      add\n      dup3\n      dup1\n      sload\n      0x01\n      dup2\n      0x01\n      and\n      iszero\n      0x0100\n      mul\n      sub\n      and\n      0x02\n      swap1\n      div\n      dup1\n      iszero\n      tag_356\n      jumpi\n      dup1\n      0x1f\n      lt\n      tag_357\n      jumpi\n      0x0100\n      dup1\n      dup4\n      sload\n      div\n      mul\n      dup4\n      mstore\n      swap2\n      0x20\n      add\n      swap2\n      jump(tag_356)\n    tag_357:\n      dup3\n      add\n      swap2\n      swap1\n      0x00\n      mstore\n      keccak256(0x00, 0x20)\n      swap1\n    tag_358:\n      dup2\n      sload\n      dup2\n      mstore\n      swap1\n      0x01\n      add\n      swap1\n      0x20\n      add\n      dup1\n      dup4\n      gt\n      tag_358\n      jumpi\n      dup3\n      swap1\n      sub\n      0x1f\n      and\n      dup3\n      add\n      swap2\n    tag_356:\n      pop\n      pop\n      pop\n      pop\n      pop\n      swap4\n      pop\n      dup3\n      dup1\n      sload\n      0x01\n      dup2\n      0x01\n      and\n      iszero\n      0x0100\n      mul\n      sub\n      and\n      0x02\n      swap1\n      div\n      dup1\n      0x1f\n      add\n      0x20\n      dup1\n      swap2\n      div\n      mul\n      0x20\n      add\n      mload(0x40)\n      swap1\n      dup2\n      add\n      0x40\n      mstore\n      dup1\n      swap3\n      swap2\n      swap1\n      dup2\n      dup2\n      mstore\n      0x20\n      add\n      dup3\n      dup1\n      sload\n      0x01\n      dup2\n      0x01\n      and\n      iszero\n      0x0100\n      mul\n      sub\n      and\n      0x02\n      swap1\n      div\n      dup1\n      iszero\n      tag_359\n      jumpi\n      dup1\n      0x1f\n      lt\n      tag_360\n      jumpi\n      0x0100\n      dup1\n      dup4\n      sload\n      div\n      mul\n      dup4\n      mstore\n      swap2\n      0x20\n      add\n      swap2\n      jump(tag_359)\n    tag_360:\n      dup3\n      add\n      swap2\n      swap1\n      0x00\n      mstore\n      keccak256(0x00, 0x20)\n      swap1\n    tag_361:\n      dup2\n      sload\n      dup2\n      mstore\n      swap1\n      0x01\n      add\n      swap1\n      0x20\n      add\n      dup1\n      dup4\n      gt\n      tag_361\n      jumpi\n      dup3\n      swap1\n      sub\n      0x1f\n      and\n      dup3\n      add\n      swap2\n    tag_359:\n      pop\n      pop\n      pop\n      pop\n      pop\n      swap3\n      pop\n      swap6\n      pop\n      swap6\n      pop\n      swap6\n      pop\n      swap6\n      pop\n      swap6\n      pop\n      pop\n        /* \"EHealth.sol\":4031:4382  function ReadHospital(address _address)public view returns(string memory, string memory, string memory, uint, bool){\r... */\n      swap2\n      swap4\n      swap6\n      swap1\n      swap3\n      swap5\n      pop\n      jump\t// out\n        /* \"EHealth.sol\":5134:5464  function RemoveDoctor(address _id) public {\r... */\n    tag_101:\n        /* \"EHealth.sol\":5187:5197  uint index */\n      0x00\n        /* \"EHealth.sol\":5200:5215  FindDoctor(_id) */\n      tag_363\n        /* \"EHealth.sol\":5211:5214  _id */\n      dup3\n        /* \"EHealth.sol\":5200:5210  FindDoctor */\n      tag_185\n        /* \"EHealth.sol\":5200:5215  FindDoctor(_id) */\n      jump\t// in\n    tag_363:\n        /* \"EHealth.sol\":5187:5215  uint index = FindDoctor(_id) */\n      swap1\n      pop\n        /* \"EHealth.sol\":5260:5265  false */\n      0x00\n        /* \"EHealth.sol\":5226:5241  doctorsHospital */\n      0x06\n        /* \"EHealth.sol\":5242:5247  index */\n      dup3\n        /* \"EHealth.sol\":5226:5248  doctorsHospital[index] */\n      dup2\n      sload\n      dup2\n      lt\n      tag_364\n      jumpi\n      invalid\n    tag_364:\n      swap1\n      0x00\n      mstore\n      keccak256(0x00, 0x20)\n      swap1\n      0x03\n      mul\n      add\n        /* \"EHealth.sol\":5226:5259  doctorsHospital[index].permission */\n      0x02\n      add\n      0x14\n        /* \"EHealth.sol\":5226:5265  doctorsHospital[index].permission=false */\n      0x0100\n      exp\n      dup2\n      sload\n      dup2\n      0xff\n      mul\n      not\n      and\n      swap1\n      dup4\n      iszero\n      iszero\n      mul\n      or\n      swap1\n      sstore\n      pop\n        /* \"EHealth.sol\":5281:5456  DeleteDoctor(doctorsHospital[index].idDoctor,\r... */\n      0x780b3c74ec1e08d8c65fd8a12c6ac2da5c15f2d3b5e54335b51671f63b7d2ad0\n        /* \"EHealth.sol\":5294:5309  doctorsHospital */\n      0x06\n        /* \"EHealth.sol\":5310:5315  index */\n      dup3\n        /* \"EHealth.sol\":5294:5316  doctorsHospital[index] */\n      dup2\n      sload\n      dup2\n      lt\n      tag_366\n      jumpi\n      invalid\n    tag_366:\n      swap1\n      0x00\n      mstore\n      keccak256(0x00, 0x20)\n      swap1\n      0x03\n      mul\n      add\n        /* \"EHealth.sol\":5294:5325  doctorsHospital[index].idDoctor */\n      0x00\n      add\n      0x00\n      swap1\n      sload\n      swap1\n      0x0100\n      exp\n      swap1\n      div\n      0xffffffffffffffffffffffffffffffffffffffff\n      and\n        /* \"EHealth.sol\":5336:5351  doctorsHospital */\n      0x06\n        /* \"EHealth.sol\":5352:5357  index */\n      dup4\n        /* \"EHealth.sol\":5336:5358  doctorsHospital[index] */\n      dup2\n      sload\n      dup2\n      lt\n      tag_368\n      jumpi\n      invalid\n    tag_368:\n      swap1\n      0x00\n      mstore\n      keccak256(0x00, 0x20)\n      swap1\n      0x03\n      mul\n      add\n        /* \"EHealth.sol\":5336:5369  doctorsHospital[index].nameDoctor */\n      0x01\n      add\n        /* \"EHealth.sol\":5380:5395  doctorsHospital */\n      0x06\n        /* \"EHealth.sol\":5396:5401  index */\n      dup5\n        /* \"EHealth.sol\":5380:5402  doctorsHospital[index] */\n      dup2\n      sload\n      dup2\n      lt\n      tag_370\n      jumpi\n      invalid\n    tag_370:\n      swap1\n      0x00\n      mstore\n      keccak256(0x00, 0x20)\n      swap1\n      0x03\n      mul\n      add\n        /* \"EHealth.sol\":5380:5411  doctorsHospital[index].hospital */\n      0x02\n      add\n      0x00\n      swap1\n      sload\n      swap1\n      0x0100\n      exp\n      swap1\n      div\n      0xffffffffffffffffffffffffffffffffffffffff\n      and\n        /* \"EHealth.sol\":5422:5437  doctorsHospital */\n      0x06\n        /* \"EHealth.sol\":5438:5443  index */\n      dup6\n        /* \"EHealth.sol\":5422:5444  doctorsHospital[index] */\n      dup2\n      sload\n      dup2\n      lt\n      tag_372\n      jumpi\n      invalid\n    tag_372:\n      swap1\n      0x00\n      mstore\n      keccak256(0x00, 0x20)\n      swap1\n      0x03\n      mul\n      add\n        /* \"EHealth.sol\":5422:5455  doctorsHospital[index].permission */\n      0x02\n      add\n      0x14\n      swap1\n      sload\n      swap1\n      0x0100\n      exp\n      swap1\n      div\n      0xff\n      and\n        /* \"EHealth.sol\":5281:5456  DeleteDoctor(doctorsHospital[index].idDoctor,\r... */\n      mload(0x40)\n      tag_374\n      swap5\n      swap4\n      swap3\n      swap2\n      swap1\n      tag_375\n      jump\t// in\n    tag_374:\n      mload(0x40)\n      dup1\n      swap2\n      sub\n      swap1\n      log1\n        /* \"EHealth.sol\":5134:5464  function RemoveDoctor(address _id) public {\r... */\n      pop\n      pop\n      jump\t// out\n        /* \"EHealth.sol\":3889:3994  function Length_Hospitals() public view returns (uint256){\r... */\n    tag_103:\n        /* \"EHealth.sol\":3938:3945  uint256 */\n      0x00\n        /* \"EHealth.sol\":3964:3979  hospitalCenters */\n      0x04\n        /* \"EHealth.sol\":3964:3986  hospitalCenters.length */\n      dup1\n      sload\n      swap1\n      pop\n        /* \"EHealth.sol\":3957:3986  return hospitalCenters.length */\n      swap1\n      pop\n        /* \"EHealth.sol\":3889:3994  function Length_Hospitals() public view returns (uint256){\r... */\n      swap1\n      jump\t// out\n        /* \"EHealth.sol\":1799:2115  function AddHospital(address _idHospital, string memory _name, string memory _city, string memory _state, uint _postalCode ) public {\r... */\n    tag_107:\n        /* \"EHealth.sol\":1942:1957  hospitalCenters */\n      0x04\n        /* \"EHealth.sol\":1963:2025  Hospital(_idHospital, _name, _city, _state, _postalCode, true) */\n      mload(0x40)\n      dup1\n      0xc0\n      add\n      0x40\n      mstore\n      dup1\n        /* \"EHealth.sol\":1972:1983  _idHospital */\n      dup8\n        /* \"EHealth.sol\":1963:2025  Hospital(_idHospital, _name, _city, _state, _postalCode, true) */\n      0xffffffffffffffffffffffffffffffffffffffff\n      and\n      dup2\n      mstore\n      0x20\n      add\n        /* \"EHealth.sol\":1985:1990  _name */\n      dup7\n        /* \"EHealth.sol\":1963:2025  Hospital(_idHospital, _name, _city, _state, _postalCode, true) */\n      dup2\n      mstore\n      0x20\n      add\n        /* \"EHealth.sol\":1992:1997  _city */\n      dup6\n        /* \"EHealth.sol\":1963:2025  Hospital(_idHospital, _name, _city, _state, _postalCode, true) */\n      dup2\n      mstore\n      0x20\n      add\n        /* \"EHealth.sol\":1999:2005  _state */\n      dup5\n        /* \"EHealth.sol\":1963:2025  Hospital(_idHospital, _name, _city, _state, _postalCode, true) */\n      dup2\n      mstore\n      0x20\n      add\n        /* \"EHealth.sol\":2007:2018  _postalCode */\n      dup4\n        /* \"EHealth.sol\":1963:2025  Hospital(_idHospital, _name, _city, _state, _postalCode, true) */\n      dup2\n      mstore\n      0x20\n      add\n        /* \"EHealth.sol\":2020:2024  true */\n      0x01\n        /* \"EHealth.sol\":1963:2025  Hospital(_idHospital, _name, _city, _state, _postalCode, true) */\n      iszero\n      iszero\n      dup2\n      mstore\n      pop\n        /* \"EHealth.sol\":1942:2026  hospitalCenters.push(Hospital(_idHospital, _name, _city, _state, _postalCode, true)) */\n      swap1\n      dup1\n      0x01\n      dup2\n      sload\n      add\n      dup1\n      dup3\n      sstore\n      dup1\n      swap2\n      pop\n      pop\n      0x01\n      swap1\n      sub\n      swap1\n      0x00\n      mstore\n      keccak256(0x00, 0x20)\n      swap1\n      0x06\n      mul\n      add\n      0x00\n      swap1\n      swap2\n      swap1\n      swap2\n      swap1\n      swap2\n      pop\n      0x00\n      dup3\n      add\n      mload\n      dup2\n      0x00\n      add\n      exp(0x0100, 0x00)\n      dup2\n      sload\n      dup2\n      0xffffffffffffffffffffffffffffffffffffffff\n      mul\n      not\n      and\n      swap1\n      dup4\n      0xffffffffffffffffffffffffffffffffffffffff\n      and\n      mul\n      or\n      swap1\n      sstore\n      pop\n      0x20\n      dup3\n      add\n      mload\n      dup2\n      0x01\n      add\n      swap1\n      dup1\n      mload\n      swap1\n      0x20\n      add\n      swap1\n      tag_379\n      swap3\n      swap2\n      swap1\n      tag_162\n      jump\t// in\n    tag_379:\n      pop\n      0x40\n      dup3\n      add\n      mload\n      dup2\n      0x02\n      add\n      swap1\n      dup1\n      mload\n      swap1\n      0x20\n      add\n      swap1\n      tag_380\n      swap3\n      swap2\n      swap1\n      tag_162\n      jump\t// in\n    tag_380:\n      pop\n      0x60\n      dup3\n      add\n      mload\n      dup2\n      0x03\n      add\n      swap1\n      dup1\n      mload\n      swap1\n      0x20\n      add\n      swap1\n      tag_381\n      swap3\n      swap2\n      swap1\n      tag_162\n      jump\t// in\n    tag_381:\n      pop\n      0x80\n      dup3\n      add\n      mload\n      dup2\n      0x04\n      add\n      sstore\n      0xa0\n      dup3\n      add\n      mload\n      dup2\n      0x05\n      add\n      exp(0x0100, 0x00)\n      dup2\n      sload\n      dup2\n      0xff\n      mul\n      not\n      and\n      swap1\n      dup4\n      iszero\n      iszero\n      mul\n      or\n      swap1\n      sstore\n      pop\n      pop\n      pop\n        /* \"EHealth.sol\":2042:2107  NewHospital(_idHospital, _name, _city, _state, _postalCode, true) */\n      0xf646212acc3f5092fb0211ffd5121c0f706641b715e3982dab50afb395413dd5\n        /* \"EHealth.sol\":2054:2065  _idHospital */\n      dup6\n        /* \"EHealth.sol\":2067:2072  _name */\n      dup6\n        /* \"EHealth.sol\":2074:2079  _city */\n      dup6\n        /* \"EHealth.sol\":2081:2087  _state */\n      dup6\n        /* \"EHealth.sol\":2089:2100  _postalCode */\n      dup6\n        /* \"EHealth.sol\":2102:2106  true */\n      0x01\n        /* \"EHealth.sol\":2042:2107  NewHospital(_idHospital, _name, _city, _state, _postalCode, true) */\n      mload(0x40)\n      tag_382\n      swap7\n      swap6\n      swap5\n      swap4\n      swap3\n      swap2\n      swap1\n      tag_112\n      jump\t// in\n    tag_382:\n      mload(0x40)\n      dup1\n      swap2\n      sub\n      swap1\n      log1\n        /* \"EHealth.sol\":1799:2115  function AddHospital(address _idHospital, string memory _name, string memory _city, string memory _state, uint _postalCode ) public {\r... */\n      pop\n      pop\n      pop\n      pop\n      pop\n      jump\t// out\n        /* \"EHealth.sol\":301:345  mapping(address=> Hospital) public Hospitals */\n    tag_110:\n      mstore(0x20, 0x03)\n      dup1\n      0x00\n      mstore\n      keccak256(0x00, 0x40)\n      0x00\n      swap2\n      pop\n      swap1\n      pop\n      dup1\n      0x00\n      add\n      0x00\n      swap1\n      sload\n      swap1\n      0x0100\n      exp\n      swap1\n      div\n      0xffffffffffffffffffffffffffffffffffffffff\n      and\n      swap1\n      dup1\n      0x01\n      add\n      dup1\n      sload\n      0x01\n      dup2\n      0x01\n      and\n      iszero\n      0x0100\n      mul\n      sub\n      and\n      0x02\n      swap1\n      div\n      dup1\n      0x1f\n      add\n      0x20\n      dup1\n      swap2\n      div\n      mul\n      0x20\n      add\n      mload(0x40)\n      swap1\n      dup2\n      add\n      0x40\n      mstore\n      dup1\n      swap3\n      swap2\n      swap1\n      dup2\n      dup2\n      mstore\n      0x20\n      add\n      dup3\n      dup1\n      sload\n      0x01\n      dup2\n      0x01\n      and\n      iszero\n      0x0100\n      mul\n      sub\n      and\n      0x02\n      swap1\n      div\n      dup1\n      iszero\n      tag_383\n      jumpi\n      dup1\n      0x1f\n      lt\n      tag_384\n      jumpi\n      0x0100\n      dup1\n      dup4\n      sload\n      div\n      mul\n      dup4\n      mstore\n      swap2\n      0x20\n      add\n      swap2\n      jump(tag_383)\n    tag_384:\n      dup3\n      add\n      swap2\n      swap1\n      0x00\n      mstore\n      keccak256(0x00, 0x20)\n      swap1\n    tag_385:\n      dup2\n      sload\n      dup2\n      mstore\n      swap1\n      0x01\n      add\n      swap1\n      0x20\n      add\n      dup1\n      dup4\n      gt\n      tag_385\n      jumpi\n      dup3\n      swap1\n      sub\n      0x1f\n      and\n      dup3\n      add\n      swap2\n    tag_383:\n      pop\n      pop\n      pop\n      pop\n      pop\n      swap1\n      dup1\n      0x02\n      add\n      dup1\n      sload\n      0x01\n      dup2\n      0x01\n      and\n      iszero\n      0x0100\n      mul\n      sub\n      and\n      0x02\n      swap1\n      div\n      dup1\n      0x1f\n      add\n      0x20\n      dup1\n      swap2\n      div\n      mul\n      0x20\n      add\n      mload(0x40)\n      swap1\n      dup2\n      add\n      0x40\n      mstore\n      dup1\n      swap3\n      swap2\n      swap1\n      dup2\n      dup2\n      mstore\n      0x20\n      add\n      dup3\n      dup1\n      sload\n      0x01\n      dup2\n      0x01\n      and\n      iszero\n      0x0100\n      mul\n      sub\n      and\n      0x02\n      swap1\n      div\n      dup1\n      iszero\n      tag_386\n      jumpi\n      dup1\n      0x1f\n      lt\n      tag_387\n      jumpi\n      0x0100\n      dup1\n      dup4\n      sload\n      div\n      mul\n      dup4\n      mstore\n      swap2\n      0x20\n      add\n      swap2\n      jump(tag_386)\n    tag_387:\n      dup3\n      add\n      swap2\n      swap1\n      0x00\n      mstore\n      keccak256(0x00, 0x20)\n      swap1\n    tag_388:\n      dup2\n      sload\n      dup2\n      mstore\n      swap1\n      0x01\n      add\n      swap1\n      0x20\n      add\n      dup1\n      dup4\n      gt\n      tag_388\n      jumpi\n      dup3\n      swap1\n      sub\n      0x1f\n      and\n      dup3\n      add\n      swap2\n    tag_386:\n      pop\n      pop\n      pop\n      pop\n      pop\n      swap1\n      dup1\n      0x03\n      add\n      dup1\n      sload\n      0x01\n      dup2\n      0x01\n      and\n      iszero\n      0x0100\n      mul\n      sub\n      and\n      0x02\n      swap1\n      div\n      dup1\n      0x1f\n      add\n      0x20\n      dup1\n      swap2\n      div\n      mul\n      0x20\n      add\n      mload(0x40)\n      swap1\n      dup2\n      add\n      0x40\n      mstore\n      dup1\n      swap3\n      swap2\n      swap1\n      dup2\n      dup2\n      mstore\n      0x20\n      add\n      dup3\n      dup1\n      sload\n      0x01\n      dup2\n      0x01\n      and\n      iszero\n      0x0100\n      mul\n      sub\n      and\n      0x02\n      swap1\n      div\n      dup1\n      iszero\n      tag_389\n      jumpi\n      dup1\n      0x1f\n      lt\n      tag_390\n      jumpi\n      0x0100\n      dup1\n      dup4\n      sload\n      div\n      mul\n      dup4\n      mstore\n      swap2\n      0x20\n      add\n      swap2\n      jump(tag_389)\n    tag_390:\n      dup3\n      add\n      swap2\n      swap1\n      0x00\n      mstore\n      keccak256(0x00, 0x20)\n      swap1\n    tag_391:\n      dup2\n      sload\n      dup2\n      mstore\n      swap1\n      0x01\n      add\n      swap1\n      0x20\n      add\n      dup1\n      dup4\n      gt\n      tag_391\n      jumpi\n      dup3\n      swap1\n      sub\n      0x1f\n      and\n      dup3\n      add\n      swap2\n    tag_389:\n      pop\n      pop\n      pop\n      pop\n      pop\n      swap1\n      dup1\n      0x04\n      add\n      sload\n      swap1\n      dup1\n      0x05\n      add\n      0x00\n      swap1\n      sload\n      swap1\n      0x0100\n      exp\n      swap1\n      div\n      0xff\n      and\n      swap1\n      pop\n      dup7\n      jump\t// out\n        /* \"EHealth.sol\":9051:9152  function Length_sensors() public view returns (uint256){\r... */\n    tag_114:\n        /* \"EHealth.sol\":9098:9105  uint256 */\n      0x00\n        /* \"EHealth.sol\":9124:9137  sensorsDoctor */\n      0x08\n        /* \"EHealth.sol\":9124:9144  sensorsDoctor.length */\n      dup1\n      sload\n      swap1\n      pop\n        /* \"EHealth.sol\":9117:9144  return sensorsDoctor.length */\n      swap1\n      pop\n        /* \"EHealth.sol\":9051:9152  function Length_sensors() public view returns (uint256){\r... */\n      swap1\n      jump\t// out\n        /* \"EHealth.sol\":6661:7035  function getAllDoctorsInHospital(address _address) public view returns (Doctor[] memory){\r... */\n    tag_118:\n        /* \"EHealth.sol\":6733:6748  Doctor[] memory */\n      0x60\n        /* \"EHealth.sol\":6760:6779  Doctor[] memory ret */\n      0x00\n        /* \"EHealth.sol\":6795:6810  doctorsHospital */\n      0x06\n        /* \"EHealth.sol\":6795:6817  doctorsHospital.length */\n      dup1\n      sload\n      swap1\n      pop\n        /* \"EHealth.sol\":6782:6818  new Doctor[](doctorsHospital.length) */\n      0xffffffffffffffff\n      dup2\n      gt\n      dup1\n      iszero\n      tag_394\n      jumpi\n      0x00\n      dup1\n      revert\n    tag_394:\n      pop\n      mload(0x40)\n      swap1\n      dup1\n      dup3\n      mstore\n      dup1\n      0x20\n      mul\n      0x20\n      add\n      dup3\n      add\n      0x40\n      mstore\n      dup1\n      iszero\n      tag_395\n      jumpi\n      dup2\n      0x20\n      add\n    tag_396:\n      tag_397\n      tag_398\n      jump\t// in\n    tag_397:\n      dup2\n      mstore\n      0x20\n      add\n      swap1\n      0x01\n      swap1\n      sub\n      swap1\n      dup2\n      tag_396\n      jumpi\n      swap1\n      pop\n    tag_395:\n      pop\n        /* \"EHealth.sol\":6760:6818  Doctor[] memory ret = new Doctor[](doctorsHospital.length) */\n      swap1\n      pop\n        /* \"EHealth.sol\":6834:6840  uint i */\n      0x00\n        /* \"EHealth.sol\":6829:7007  for (uint i = 0; i< doctorsHospital.length; i++) {\r... */\n    tag_399:\n        /* \"EHealth.sol\":6849:6864  doctorsHospital */\n      0x06\n        /* \"EHealth.sol\":6849:6871  doctorsHospital.length */\n      dup1\n      sload\n      swap1\n      pop\n        /* \"EHealth.sol\":6846:6847  i */\n      dup2\n        /* \"EHealth.sol\":6846:6871  i< doctorsHospital.length */\n      lt\n        /* \"EHealth.sol\":6829:7007  for (uint i = 0; i< doctorsHospital.length; i++) {\r... */\n      iszero\n      tag_400\n      jumpi\n        /* \"EHealth.sol\":6908:6923  doctorsHospital */\n      0x06\n        /* \"EHealth.sol\":6924:6925  i */\n      dup2\n        /* \"EHealth.sol\":6908:6926  doctorsHospital[i] */\n      dup2\n      sload\n      dup2\n      lt\n      tag_402\n      jumpi\n      invalid\n    tag_402:\n      swap1\n      0x00\n      mstore\n      keccak256(0x00, 0x20)\n      swap1\n      0x03\n      mul\n      add\n        /* \"EHealth.sol\":6908:6935  doctorsHospital[i].hospital */\n      0x02\n      add\n      0x00\n      swap1\n      sload\n      swap1\n      0x0100\n      exp\n      swap1\n      div\n      0xffffffffffffffffffffffffffffffffffffffff\n      and\n        /* \"EHealth.sol\":6896:6935  _address == doctorsHospital[i].hospital */\n      0xffffffffffffffffffffffffffffffffffffffff\n      and\n        /* \"EHealth.sol\":6896:6904  _address */\n      dup5\n        /* \"EHealth.sol\":6896:6935  _address == doctorsHospital[i].hospital */\n      0xffffffffffffffffffffffffffffffffffffffff\n      and\n      eq\n        /* \"EHealth.sol\":6893:6996  if(_address == doctorsHospital[i].hospital){\r... */\n      iszero\n      tag_404\n      jumpi\n        /* \"EHealth.sol\":6962:6977  doctorsHospital */\n      0x06\n        /* \"EHealth.sol\":6978:6979  i */\n      dup2\n        /* \"EHealth.sol\":6962:6980  doctorsHospital[i] */\n      dup2\n      sload\n      dup2\n      lt\n      tag_405\n      jumpi\n      invalid\n    tag_405:\n      swap1\n      0x00\n      mstore\n      keccak256(0x00, 0x20)\n      swap1\n      0x03\n      mul\n      add\n        /* \"EHealth.sol\":6955:6980  ret[i]=doctorsHospital[i] */\n      mload(0x40)\n      dup1\n      0x80\n      add\n      0x40\n      mstore\n      swap1\n      dup2\n      0x00\n      dup3\n      add\n      0x00\n      swap1\n      sload\n      swap1\n      0x0100\n      exp\n      swap1\n      div\n      0xffffffffffffffffffffffffffffffffffffffff\n      and\n      0xffffffffffffffffffffffffffffffffffffffff\n      and\n      0xffffffffffffffffffffffffffffffffffffffff\n      and\n      dup2\n      mstore\n      0x20\n      add\n      0x01\n      dup3\n      add\n      dup1\n      sload\n      0x01\n      dup2\n      0x01\n      and\n      iszero\n      0x0100\n      mul\n      sub\n      and\n      0x02\n      swap1\n      div\n      dup1\n      0x1f\n      add\n      0x20\n      dup1\n      swap2\n      div\n      mul\n      0x20\n      add\n      mload(0x40)\n      swap1\n      dup2\n      add\n      0x40\n      mstore\n      dup1\n      swap3\n      swap2\n      swap1\n      dup2\n      dup2\n      mstore\n      0x20\n      add\n      dup3\n      dup1\n      sload\n      0x01\n      dup2\n      0x01\n      and\n      iszero\n      0x0100\n      mul\n      sub\n      and\n      0x02\n      swap1\n      div\n      dup1\n      iszero\n      tag_407\n      jumpi\n      dup1\n      0x1f\n      lt\n      tag_408\n      jumpi\n      0x0100\n      dup1\n      dup4\n      sload\n      div\n      mul\n      dup4\n      mstore\n      swap2\n      0x20\n      add\n      swap2\n      jump(tag_407)\n    tag_408:\n      dup3\n      add\n      swap2\n      swap1\n      0x00\n      mstore\n      keccak256(0x00, 0x20)\n      swap1\n    tag_409:\n      dup2\n      sload\n      dup2\n      mstore\n      swap1\n      0x01\n      add\n      swap1\n      0x20\n      add\n      dup1\n      dup4\n      gt\n      tag_409\n      jumpi\n      dup3\n      swap1\n      sub\n      0x1f\n      and\n      dup3\n      add\n      swap2\n    tag_407:\n      pop\n      pop\n      pop\n      pop\n      pop\n      dup2\n      mstore\n      0x20\n      add\n      0x02\n      dup3\n      add\n      0x00\n      swap1\n      sload\n      swap1\n      0x0100\n      exp\n      swap1\n      div\n      0xffffffffffffffffffffffffffffffffffffffff\n      and\n      0xffffffffffffffffffffffffffffffffffffffff\n      and\n      0xffffffffffffffffffffffffffffffffffffffff\n      and\n      dup2\n      mstore\n      0x20\n      add\n      0x02\n      dup3\n      add\n      0x14\n      swap1\n      sload\n      swap1\n      0x0100\n      exp\n      swap1\n      div\n      0xff\n      and\n      iszero\n      iszero\n      iszero\n      iszero\n      dup2\n      mstore\n      pop\n      pop\n        /* \"EHealth.sol\":6955:6958  ret */\n      dup3\n        /* \"EHealth.sol\":6959:6960  i */\n      dup3\n        /* \"EHealth.sol\":6955:6961  ret[i] */\n      dup2\n      mload\n      dup2\n      lt\n      tag_410\n      jumpi\n      invalid\n    tag_410:\n      0x20\n      mul\n      0x20\n      add\n      add\n        /* \"EHealth.sol\":6955:6980  ret[i]=doctorsHospital[i] */\n      dup2\n      swap1\n      mstore\n      pop\n        /* \"EHealth.sol\":6893:6996  if(_address == doctorsHospital[i].hospital){\r... */\n    tag_404:\n        /* \"EHealth.sol\":6873:6876  i++ */\n      dup1\n      dup1\n      0x01\n      add\n      swap2\n      pop\n      pop\n        /* \"EHealth.sol\":6829:7007  for (uint i = 0; i< doctorsHospital.length; i++) {\r... */\n      jump(tag_399)\n    tag_400:\n      pop\n        /* \"EHealth.sol\":7024:7027  ret */\n      dup1\n        /* \"EHealth.sol\":7017:7027  return ret */\n      swap2\n      pop\n      pop\n        /* \"EHealth.sol\":6661:7035  function getAllDoctorsInHospital(address _address) public view returns (Doctor[] memory){\r... */\n      swap2\n      swap1\n      pop\n      jump\t// out\n        /* \"EHealth.sol\":536:569  Hospital[] public hospitalCenters */\n    tag_123:\n      0x04\n      dup2\n      dup2\n      sload\n      dup2\n      lt\n      tag_411\n      jumpi\n      0x00\n      dup1\n      revert\n    tag_411:\n      swap1\n      0x00\n      mstore\n      keccak256(0x00, 0x20)\n      swap1\n      0x06\n      mul\n      add\n      0x00\n      swap2\n      pop\n      swap1\n      pop\n      dup1\n      0x00\n      add\n      0x00\n      swap1\n      sload\n      swap1\n      0x0100\n      exp\n      swap1\n      div\n      0xffffffffffffffffffffffffffffffffffffffff\n      and\n      swap1\n      dup1\n      0x01\n      add\n      dup1\n      sload\n      0x01\n      dup2\n      0x01\n      and\n      iszero\n      0x0100\n      mul\n      sub\n      and\n      0x02\n      swap1\n      div\n      dup1\n      0x1f\n      add\n      0x20\n      dup1\n      swap2\n      div\n      mul\n      0x20\n      add\n      mload(0x40)\n      swap1\n      dup2\n      add\n      0x40\n      mstore\n      dup1\n      swap3\n      swap2\n      swap1\n      dup2\n      dup2\n      mstore\n      0x20\n      add\n      dup3\n      dup1\n      sload\n      0x01\n      dup2\n      0x01\n      and\n      iszero\n      0x0100\n      mul\n      sub\n      and\n      0x02\n      swap1\n      div\n      dup1\n      iszero\n      tag_413\n      jumpi\n      dup1\n      0x1f\n      lt\n      tag_414\n      jumpi\n      0x0100\n      dup1\n      dup4\n      sload\n      div\n      mul\n      dup4\n      mstore\n      swap2\n      0x20\n      add\n      swap2\n      jump(tag_413)\n    tag_414:\n      dup3\n      add\n      swap2\n      swap1\n      0x00\n      mstore\n      keccak256(0x00, 0x20)\n      swap1\n    tag_415:\n      dup2\n      sload\n      dup2\n      mstore\n      swap1\n      0x01\n      add\n      swap1\n      0x20\n      add\n      dup1\n      dup4\n      gt\n      tag_415\n      jumpi\n      dup3\n      swap1\n      sub\n      0x1f\n      and\n      dup3\n      add\n      swap2\n    tag_413:\n      pop\n      pop\n      pop\n      pop\n      pop\n      swap1\n      dup1\n      0x02\n      add\n      dup1\n      sload\n      0x01\n      dup2\n      0x01\n      and\n      iszero\n      0x0100\n      mul\n      sub\n      and\n      0x02\n      swap1\n      div\n      dup1\n      0x1f\n      add\n      0x20\n      dup1\n      swap2\n      div\n      mul\n      0x20\n      add\n      mload(0x40)\n      swap1\n      dup2\n      add\n      0x40\n      mstore\n      dup1\n      swap3\n      swap2\n      swap1\n      dup2\n      dup2\n      mstore\n      0x20\n      add\n      dup3\n      dup1\n      sload\n      0x01\n      dup2\n      0x01\n      and\n      iszero\n      0x0100\n      mul\n      sub\n      and\n      0x02\n      swap1\n      div\n      dup1\n      iszero\n      tag_416\n      jumpi\n      dup1\n      0x1f\n      lt\n      tag_417\n      jumpi\n      0x0100\n      dup1\n      dup4\n      sload\n      div\n      mul\n      dup4\n      mstore\n      swap2\n      0x20\n      add\n      swap2\n      jump(tag_416)\n    tag_417:\n      dup3\n      add\n      swap2\n      swap1\n      0x00\n      mstore\n      keccak256(0x00, 0x20)\n      swap1\n    tag_418:\n      dup2\n      sload\n      dup2\n      mstore\n      swap1\n      0x01\n      add\n      swap1\n      0x20\n      add\n      dup1\n      dup4\n      gt\n      tag_418\n      jumpi\n      dup3\n      swap1\n      sub\n      0x1f\n      and\n      dup3\n      add\n      swap2\n    tag_416:\n      pop\n      pop\n      pop\n      pop\n      pop\n      swap1\n      dup1\n      0x03\n      add\n      dup1\n      sload\n      0x01\n      dup2\n      0x01\n      and\n      iszero\n      0x0100\n      mul\n      sub\n      and\n      0x02\n      swap1\n      div\n      dup1\n      0x1f\n      add\n      0x20\n      dup1\n      swap2\n      div\n      mul\n      0x20\n      add\n      mload(0x40)\n      swap1\n      dup2\n      add\n      0x40\n      mstore\n      dup1\n      swap3\n      swap2\n      swap1\n      dup2\n      dup2\n      mstore\n      0x20\n      add\n      dup3\n      dup1\n      sload\n      0x01\n      dup2\n      0x01\n      and\n      iszero\n      0x0100\n      mul\n      sub\n      and\n      0x02\n      swap1\n      div\n      dup1\n      iszero\n      tag_419\n      jumpi\n      dup1\n      0x1f\n      lt\n      tag_420\n      jumpi\n      0x0100\n      dup1\n      dup4\n      sload\n      div\n      mul\n      dup4\n      mstore\n      swap2\n      0x20\n      add\n      swap2\n      jump(tag_419)\n    tag_420:\n      dup3\n      add\n      swap2\n      swap1\n      0x00\n      mstore\n      keccak256(0x00, 0x20)\n      swap1\n    tag_421:\n      dup2\n      sload\n      dup2\n      mstore\n      swap1\n      0x01\n      add\n      swap1\n      0x20\n      add\n      dup1\n      dup4\n      gt\n      tag_421\n      jumpi\n      dup3\n      swap1\n      sub\n      0x1f\n      and\n      dup3\n      add\n      swap2\n    tag_419:\n      pop\n      pop\n      pop\n      pop\n      pop\n      swap1\n      dup1\n      0x04\n      add\n      sload\n      swap1\n      dup1\n      0x05\n      add\n      0x00\n      swap1\n      sload\n      swap1\n      0x0100\n      exp\n      swap1\n      div\n      0xff\n      and\n      swap1\n      pop\n      dup7\n      jump\t// out\n        /* \"EHealth.sol\":598:638  mapping(address=> Doctor) public Doctors */\n    tag_127:\n      mstore(0x20, 0x05)\n      dup1\n      0x00\n      mstore\n      keccak256(0x00, 0x40)\n      0x00\n      swap2\n      pop\n      swap1\n      pop\n      dup1\n      0x00\n      add\n      0x00\n      swap1\n      sload\n      swap1\n      0x0100\n      exp\n      swap1\n      div\n      0xffffffffffffffffffffffffffffffffffffffff\n      and\n      swap1\n      dup1\n      0x01\n      add\n      dup1\n      sload\n      0x01\n      dup2\n      0x01\n      and\n      iszero\n      0x0100\n      mul\n      sub\n      and\n      0x02\n      swap1\n      div\n      dup1\n      0x1f\n      add\n      0x20\n      dup1\n      swap2\n      div\n      mul\n      0x20\n      add\n      mload(0x40)\n      swap1\n      dup2\n      add\n      0x40\n      mstore\n      dup1\n      swap3\n      swap2\n      swap1\n      dup2\n      dup2\n      mstore\n      0x20\n      add\n      dup3\n      dup1\n      sload\n      0x01\n      dup2\n      0x01\n      and\n      iszero\n      0x0100\n      mul\n      sub\n      and\n      0x02\n      swap1\n      div\n      dup1\n      iszero\n      tag_422\n      jumpi\n      dup1\n      0x1f\n      lt\n      tag_423\n      jumpi\n      0x0100\n      dup1\n      dup4\n      sload\n      div\n      mul\n      dup4\n      mstore\n      swap2\n      0x20\n      add\n      swap2\n      jump(tag_422)\n    tag_423:\n      dup3\n      add\n      swap2\n      swap1\n      0x00\n      mstore\n      keccak256(0x00, 0x20)\n      swap1\n    tag_424:\n      dup2\n      sload\n      dup2\n      mstore\n      swap1\n      0x01\n      add\n      swap1\n      0x20\n      add\n      dup1\n      dup4\n      gt\n      tag_424\n      jumpi\n      dup3\n      swap1\n      sub\n      0x1f\n      and\n      dup3\n      add\n      swap2\n    tag_422:\n      pop\n      pop\n      pop\n      pop\n      pop\n      swap1\n      dup1\n      0x02\n      add\n      0x00\n      swap1\n      sload\n      swap1\n      0x0100\n      exp\n      swap1\n      div\n      0xffffffffffffffffffffffffffffffffffffffff\n      and\n      swap1\n      dup1\n      0x02\n      add\n      0x14\n      swap1\n      sload\n      swap1\n      0x0100\n      exp\n      swap1\n      div\n      0xff\n      and\n      swap1\n      pop\n      dup5\n      jump\t// out\n        /* \"EHealth.sol\":4516:4789  function AddDoctor(address idDoctor, string memory _nameDoctor, address _hospital) public {\r... */\n    tag_131:\n        /* \"EHealth.sol\":4617:4640  FindHospital(_hospital) */\n      tag_426\n        /* \"EHealth.sol\":4630:4639  _hospital */\n      dup2\n        /* \"EHealth.sol\":4617:4629  FindHospital */\n      tag_158\n        /* \"EHealth.sol\":4617:4640  FindHospital(_hospital) */\n      jump\t// in\n    tag_426:\n      pop\n        /* \"EHealth.sol\":4651:4666  doctorsHospital */\n      0x06\n        /* \"EHealth.sol\":4672:4718  Doctor(idDoctor, _nameDoctor, _hospital, true) */\n      mload(0x40)\n      dup1\n      0x80\n      add\n      0x40\n      mstore\n      dup1\n        /* \"EHealth.sol\":4679:4687  idDoctor */\n      dup6\n        /* \"EHealth.sol\":4672:4718  Doctor(idDoctor, _nameDoctor, _hospital, true) */\n      0xffffffffffffffffffffffffffffffffffffffff\n      and\n      dup2\n      mstore\n      0x20\n      add\n        /* \"EHealth.sol\":4689:4700  _nameDoctor */\n      dup5\n        /* \"EHealth.sol\":4672:4718  Doctor(idDoctor, _nameDoctor, _hospital, true) */\n      dup2\n      mstore\n      0x20\n      add\n        /* \"EHealth.sol\":4702:4711  _hospital */\n      dup4\n        /* \"EHealth.sol\":4672:4718  Doctor(idDoctor, _nameDoctor, _hospital, true) */\n      0xffffffffffffffffffffffffffffffffffffffff\n      and\n      dup2\n      mstore\n      0x20\n      add\n        /* \"EHealth.sol\":4713:4717  true */\n      0x01\n        /* \"EHealth.sol\":4672:4718  Doctor(idDoctor, _nameDoctor, _hospital, true) */\n      iszero\n      iszero\n      dup2\n      mstore\n      pop\n        /* \"EHealth.sol\":4651:4719  doctorsHospital.push(Doctor(idDoctor, _nameDoctor, _hospital, true)) */\n      swap1\n      dup1\n      0x01\n      dup2\n      sload\n      add\n      dup1\n      dup3\n      sstore\n      dup1\n      swap2\n      pop\n      pop\n      0x01\n      swap1\n      sub\n      swap1\n      0x00\n      mstore\n      keccak256(0x00, 0x20)\n      swap1\n      0x03\n      mul\n      add\n      0x00\n      swap1\n      swap2\n      swap1\n      swap2\n      swap1\n      swap2\n      pop\n      0x00\n      dup3\n      add\n      mload\n      dup2\n      0x00\n      add\n      exp(0x0100, 0x00)\n      dup2\n      sload\n      dup2\n      0xffffffffffffffffffffffffffffffffffffffff\n      mul\n      not\n      and\n      swap1\n      dup4\n      0xffffffffffffffffffffffffffffffffffffffff\n      and\n      mul\n      or\n      swap1\n      sstore\n      pop\n      0x20\n      dup3\n      add\n      mload\n      dup2\n      0x01\n      add\n      swap1\n      dup1\n      mload\n      swap1\n      0x20\n      add\n      swap1\n      tag_428\n      swap3\n      swap2\n      swap1\n      tag_162\n      jump\t// in\n    tag_428:\n      pop\n      0x40\n      dup3\n      add\n      mload\n      dup2\n      0x02\n      add\n      exp(0x0100, 0x00)\n      dup2\n      sload\n      dup2\n      0xffffffffffffffffffffffffffffffffffffffff\n      mul\n      not\n      and\n      swap1\n      dup4\n      0xffffffffffffffffffffffffffffffffffffffff\n      and\n      mul\n      or\n      swap1\n      sstore\n      pop\n      0x60\n      dup3\n      add\n      mload\n      dup2\n      0x02\n      add\n      exp(0x0100, 0x14)\n      dup2\n      sload\n      dup2\n      0xff\n      mul\n      not\n      and\n      swap1\n      dup4\n      iszero\n      iszero\n      mul\n      or\n      swap1\n      sstore\n      pop\n      pop\n      pop\n        /* \"EHealth.sol\":4735:4781  NewDoctor(idDoctor,_nameDoctor,_hospital,true) */\n      0x4578695497af1a3a1f556f9c89f9f107851cb8e1820e4b336143406b9ba52e3b\n        /* \"EHealth.sol\":4745:4753  idDoctor */\n      dup4\n        /* \"EHealth.sol\":4754:4765  _nameDoctor */\n      dup4\n        /* \"EHealth.sol\":4766:4775  _hospital */\n      dup4\n        /* \"EHealth.sol\":4776:4780  true */\n      0x01\n        /* \"EHealth.sol\":4735:4781  NewDoctor(idDoctor,_nameDoctor,_hospital,true) */\n      mload(0x40)\n      tag_429\n      swap5\n      swap4\n      swap3\n      swap2\n      swap1\n      tag_89\n      jump\t// in\n    tag_429:\n      mload(0x40)\n      dup1\n      swap2\n      sub\n      swap1\n      log1\n        /* \"EHealth.sol\":4516:4789  function AddDoctor(address idDoctor, string memory _nameDoctor, address _hospital) public {\r... */\n      pop\n      pop\n      pop\n      jump\t// out\n        /* \"EHealth.sol\":1092:1121  Sensor[] public sensorsDoctor */\n    tag_134:\n      0x08\n      dup2\n      dup2\n      sload\n      dup2\n      lt\n      tag_430\n      jumpi\n      0x00\n      dup1\n      revert\n    tag_430:\n      swap1\n      0x00\n      mstore\n      keccak256(0x00, 0x20)\n      swap1\n      0x04\n      mul\n      add\n      0x00\n      swap2\n      pop\n      swap1\n      pop\n      dup1\n      0x00\n      add\n      sload\n      swap1\n      dup1\n      0x01\n      add\n      dup1\n      sload\n      0x01\n      dup2\n      0x01\n      and\n      iszero\n      0x0100\n      mul\n      sub\n      and\n      0x02\n      swap1\n      div\n      dup1\n      0x1f\n      add\n      0x20\n      dup1\n      swap2\n      div\n      mul\n      0x20\n      add\n      mload(0x40)\n      swap1\n      dup2\n      add\n      0x40\n      mstore\n      dup1\n      swap3\n      swap2\n      swap1\n      dup2\n      dup2\n      mstore\n      0x20\n      add\n      dup3\n      dup1\n      sload\n      0x01\n      dup2\n      0x01\n      and\n      iszero\n      0x0100\n      mul\n      sub\n      and\n      0x02\n      swap1\n      div\n      dup1\n      iszero\n      tag_432\n      jumpi\n      dup1\n      0x1f\n      lt\n      tag_433\n      jumpi\n      0x0100\n      dup1\n      dup4\n      sload\n      div\n      mul\n      dup4\n      mstore\n      swap2\n      0x20\n      add\n      swap2\n      jump(tag_432)\n    tag_433:\n      dup3\n      add\n      swap2\n      swap1\n      0x00\n      mstore\n      keccak256(0x00, 0x20)\n      swap1\n    tag_434:\n      dup2\n      sload\n      dup2\n      mstore\n      swap1\n      0x01\n      add\n      swap1\n      0x20\n      add\n      dup1\n      dup4\n      gt\n      tag_434\n      jumpi\n      dup3\n      swap1\n      sub\n      0x1f\n      and\n      dup3\n      add\n      swap2\n    tag_432:\n      pop\n      pop\n      pop\n      pop\n      pop\n      swap1\n      dup1\n      0x02\n      add\n      dup1\n      sload\n      0x01\n      dup2\n      0x01\n      and\n      iszero\n      0x0100\n      mul\n      sub\n      and\n      0x02\n      swap1\n      div\n      dup1\n      0x1f\n      add\n      0x20\n      dup1\n      swap2\n      div\n      mul\n      0x20\n      add\n      mload(0x40)\n      swap1\n      dup2\n      add\n      0x40\n      mstore\n      dup1\n      swap3\n      swap2\n      swap1\n      dup2\n      dup2\n      mstore\n      0x20\n      add\n      dup3\n      dup1\n      sload\n      0x01\n      dup2\n      0x01\n      and\n      iszero\n      0x0100\n      mul\n      sub\n      and\n      0x02\n      swap1\n      div\n      dup1\n      iszero\n      tag_435\n      jumpi\n      dup1\n      0x1f\n      lt\n      tag_436\n      jumpi\n      0x0100\n      dup1\n      dup4\n      sload\n      div\n      mul\n      dup4\n      mstore\n      swap2\n      0x20\n      add\n      swap2\n      jump(tag_435)\n    tag_436:\n      dup3\n      add\n      swap2\n      swap1\n      0x00\n      mstore\n      keccak256(0x00, 0x20)\n      swap1\n    tag_437:\n      dup2\n      sload\n      dup2\n      mstore\n      swap1\n      0x01\n      add\n      swap1\n      0x20\n      add\n      dup1\n      dup4\n      gt\n      tag_437\n      jumpi\n      dup3\n      swap1\n      sub\n      0x1f\n      and\n      dup3\n      add\n      swap2\n    tag_435:\n      pop\n      pop\n      pop\n      pop\n      pop\n      swap1\n      dup1\n      0x03\n      add\n      0x00\n      swap1\n      sload\n      swap1\n      0x0100\n      exp\n      swap1\n      div\n      0xffffffffffffffffffffffffffffffffffffffff\n      and\n      swap1\n      dup1\n      0x03\n      add\n      0x14\n      swap1\n      sload\n      swap1\n      0x0100\n      exp\n      swap1\n      div\n      0xff\n      and\n      swap1\n      pop\n      dup6\n      jump\t// out\n        /* \"EHealth.sol\":6348:6619  function getAllDoctors() public view returns (Doctor[] memory){\r... */\n    tag_137:\n        /* \"EHealth.sol\":6394:6409  Doctor[] memory */\n      0x60\n        /* \"EHealth.sol\":6421:6440  Doctor[] memory ret */\n      0x00\n        /* \"EHealth.sol\":6456:6471  doctorsHospital */\n      0x06\n        /* \"EHealth.sol\":6456:6478  doctorsHospital.length */\n      dup1\n      sload\n      swap1\n      pop\n        /* \"EHealth.sol\":6443:6479  new Doctor[](doctorsHospital.length) */\n      0xffffffffffffffff\n      dup2\n      gt\n      dup1\n      iszero\n      tag_439\n      jumpi\n      0x00\n      dup1\n      revert\n    tag_439:\n      pop\n      mload(0x40)\n      swap1\n      dup1\n      dup3\n      mstore\n      dup1\n      0x20\n      mul\n      0x20\n      add\n      dup3\n      add\n      0x40\n      mstore\n      dup1\n      iszero\n      tag_440\n      jumpi\n      dup2\n      0x20\n      add\n    tag_441:\n      tag_442\n      tag_398\n      jump\t// in\n    tag_442:\n      dup2\n      mstore\n      0x20\n      add\n      swap1\n      0x01\n      swap1\n      sub\n      swap1\n      dup2\n      tag_441\n      jumpi\n      swap1\n      pop\n    tag_440:\n      pop\n        /* \"EHealth.sol\":6421:6479  Doctor[] memory ret = new Doctor[](doctorsHospital.length) */\n      swap1\n      pop\n        /* \"EHealth.sol\":6495:6501  uint i */\n      0x00\n        /* \"EHealth.sol\":6490:6591  for (uint i = 0; i< doctorsHospital.length; i++) {\r... */\n    tag_443:\n        /* \"EHealth.sol\":6510:6525  doctorsHospital */\n      0x06\n        /* \"EHealth.sol\":6510:6532  doctorsHospital.length */\n      dup1\n      sload\n      swap1\n      pop\n        /* \"EHealth.sol\":6507:6508  i */\n      dup2\n        /* \"EHealth.sol\":6507:6532  i< doctorsHospital.length */\n      lt\n        /* \"EHealth.sol\":6490:6591  for (uint i = 0; i< doctorsHospital.length; i++) {\r... */\n      iszero\n      tag_444\n      jumpi\n        /* \"EHealth.sol\":6561:6576  doctorsHospital */\n      0x06\n        /* \"EHealth.sol\":6577:6578  i */\n      dup2\n        /* \"EHealth.sol\":6561:6579  doctorsHospital[i] */\n      dup2\n      sload\n      dup2\n      lt\n      tag_446\n      jumpi\n      invalid\n    tag_446:\n      swap1\n      0x00\n      mstore\n      keccak256(0x00, 0x20)\n      swap1\n      0x03\n      mul\n      add\n        /* \"EHealth.sol\":6554:6579  ret[i]=doctorsHospital[i] */\n      mload(0x40)\n      dup1\n      0x80\n      add\n      0x40\n      mstore\n      swap1\n      dup2\n      0x00\n      dup3\n      add\n      0x00\n      swap1\n      sload\n      swap1\n      0x0100\n      exp\n      swap1\n      div\n      0xffffffffffffffffffffffffffffffffffffffff\n      and\n      0xffffffffffffffffffffffffffffffffffffffff\n      and\n      0xffffffffffffffffffffffffffffffffffffffff\n      and\n      dup2\n      mstore\n      0x20\n      add\n      0x01\n      dup3\n      add\n      dup1\n      sload\n      0x01\n      dup2\n      0x01\n      and\n      iszero\n      0x0100\n      mul\n      sub\n      and\n      0x02\n      swap1\n      div\n      dup1\n      0x1f\n      add\n      0x20\n      dup1\n      swap2\n      div\n      mul\n      0x20\n      add\n      mload(0x40)\n      swap1\n      dup2\n      add\n      0x40\n      mstore\n      dup1\n      swap3\n      swap2\n      swap1\n      dup2\n      dup2\n      mstore\n      0x20\n      add\n      dup3\n      dup1\n      sload\n      0x01\n      dup2\n      0x01\n      and\n      iszero\n      0x0100\n      mul\n      sub\n      and\n      0x02\n      swap1\n      div\n      dup1\n      iszero\n      tag_448\n      jumpi\n      dup1\n      0x1f\n      lt\n      tag_449\n      jumpi\n      0x0100\n      dup1\n      dup4\n      sload\n      div\n      mul\n      dup4\n      mstore\n      swap2\n      0x20\n      add\n      swap2\n      jump(tag_448)\n    tag_449:\n      dup3\n      add\n      swap2\n      swap1\n      0x00\n      mstore\n      keccak256(0x00, 0x20)\n      swap1\n    tag_450:\n      dup2\n      sload\n      dup2\n      mstore\n      swap1\n      0x01\n      add\n      swap1\n      0x20\n      add\n      dup1\n      dup4\n      gt\n      tag_450\n      jumpi\n      dup3\n      swap1\n      sub\n      0x1f\n      and\n      dup3\n      add\n      swap2\n    tag_448:\n      pop\n      pop\n      pop\n      pop\n      pop\n      dup2\n      mstore\n      0x20\n      add\n      0x02\n      dup3\n      add\n      0x00\n      swap1\n      sload\n      swap1\n      0x0100\n      exp\n      swap1\n      div\n      0xffffffffffffffffffffffffffffffffffffffff\n      and\n      0xffffffffffffffffffffffffffffffffffffffff\n      and\n      0xffffffffffffffffffffffffffffffffffffffff\n      and\n      dup2\n      mstore\n      0x20\n      add\n      0x02\n      dup3\n      add\n      0x14\n      swap1\n      sload\n      swap1\n      0x0100\n      exp\n      swap1\n      div\n      0xff\n      and\n      iszero\n      iszero\n      iszero\n      iszero\n      dup2\n      mstore\n      pop\n      pop\n        /* \"EHealth.sol\":6554:6557  ret */\n      dup3\n        /* \"EHealth.sol\":6558:6559  i */\n      dup3\n        /* \"EHealth.sol\":6554:6560  ret[i] */\n      dup2\n      mload\n      dup2\n      lt\n      tag_451\n      jumpi\n      invalid\n    tag_451:\n      0x20\n      mul\n      0x20\n      add\n      add\n        /* \"EHealth.sol\":6554:6579  ret[i]=doctorsHospital[i] */\n      dup2\n      swap1\n      mstore\n      pop\n        /* \"EHealth.sol\":6534:6537  i++ */\n      dup1\n      dup1\n      0x01\n      add\n      swap2\n      pop\n      pop\n        /* \"EHealth.sol\":6490:6591  for (uint i = 0; i< doctorsHospital.length; i++) {\r... */\n      jump(tag_443)\n    tag_444:\n      pop\n        /* \"EHealth.sol\":6608:6611  ret */\n      dup1\n        /* \"EHealth.sol\":6601:6611  return ret */\n      swap2\n      pop\n      pop\n        /* \"EHealth.sol\":6348:6619  function getAllDoctors() public view returns (Doctor[] memory){\r... */\n      swap1\n      jump\t// out\n        /* \"EHealth.sol\":7541:7816  function FindSensor(uint _idSensor) internal view returns(uint){\r... */\n    tag_141:\n        /* \"EHealth.sol\":7599:7603  uint */\n      0x00\n        /* \"EHealth.sol\":7619:7625  uint i */\n      dup1\n        /* \"EHealth.sol\":7628:7629  0 */\n      0x00\n        /* \"EHealth.sol\":7619:7629  uint i = 0 */\n      swap1\n      pop\n        /* \"EHealth.sol\":7615:7772  for(uint i = 0 ; i < sensorsDoctor.length ; i++){\r... */\n    tag_453:\n        /* \"EHealth.sol\":7636:7649  sensorsDoctor */\n      0x08\n        /* \"EHealth.sol\":7636:7656  sensorsDoctor.length */\n      dup1\n      sload\n      swap1\n      pop\n        /* \"EHealth.sol\":7632:7633  i */\n      dup2\n        /* \"EHealth.sol\":7632:7656  i < sensorsDoctor.length */\n      lt\n        /* \"EHealth.sol\":7615:7772  for(uint i = 0 ; i < sensorsDoctor.length ; i++){\r... */\n      iszero\n      tag_454\n      jumpi\n        /* \"EHealth.sol\":7708:7717  _idSensor */\n      dup3\n        /* \"EHealth.sol\":7681:7694  sensorsDoctor */\n      0x08\n        /* \"EHealth.sol\":7695:7696  i */\n      dup3\n        /* \"EHealth.sol\":7681:7697  sensorsDoctor[i] */\n      dup2\n      sload\n      dup2\n      lt\n      tag_456\n      jumpi\n      invalid\n    tag_456:\n      swap1\n      0x00\n      mstore\n      keccak256(0x00, 0x20)\n      swap1\n      0x04\n      mul\n      add\n        /* \"EHealth.sol\":7681:7706  sensorsDoctor[i].idSensor */\n      0x00\n      add\n      sload\n        /* \"EHealth.sol\":7681:7717  sensorsDoctor[i].idSensor==_idSensor */\n      eq\n        /* \"EHealth.sol\":7678:7761  if(sensorsDoctor[i].idSensor==_idSensor){\r... */\n      iszero\n      tag_458\n      jumpi\n        /* \"EHealth.sol\":7744:7745  i */\n      dup1\n        /* \"EHealth.sol\":7737:7745  return i */\n      swap2\n      pop\n      pop\n      jump(tag_452)\n        /* \"EHealth.sol\":7678:7761  if(sensorsDoctor[i].idSensor==_idSensor){\r... */\n    tag_458:\n        /* \"EHealth.sol\":7659:7662  i++ */\n      dup1\n      dup1\n      0x01\n      add\n      swap2\n      pop\n      pop\n        /* \"EHealth.sol\":7615:7772  for(uint i = 0 ; i < sensorsDoctor.length ; i++){\r... */\n      jump(tag_453)\n    tag_454:\n      pop\n        /* \"EHealth.sol\":7782:7808  revert('Sensor not found') */\n      mload(0x40)\n      0x08c379a000000000000000000000000000000000000000000000000000000000\n      dup2\n      mstore\n      0x04\n      add\n      tag_459\n      swap1\n      tag_460\n      jump\t// in\n    tag_459:\n      mload(0x40)\n      dup1\n      swap2\n      sub\n      swap1\n      revert\n        /* \"EHealth.sol\":7541:7816  function FindSensor(uint _idSensor) internal view returns(uint){\r... */\n    tag_452:\n      swap2\n      swap1\n      pop\n      jump\t// out\n        /* \"EHealth.sol\":2123:2409  function FindHospital(address _address) internal view returns(uint){\r... */\n    tag_158:\n        /* \"EHealth.sol\":2185:2189  uint */\n      0x00\n        /* \"EHealth.sol\":2205:2211  uint i */\n      dup1\n        /* \"EHealth.sol\":2214:2215  0 */\n      0x00\n        /* \"EHealth.sol\":2205:2215  uint i = 0 */\n      swap1\n      pop\n        /* \"EHealth.sol\":2201:2363  for(uint i = 0 ; i < hospitalCenters.length ; i++){\r... */\n    tag_462:\n        /* \"EHealth.sol\":2222:2237  hospitalCenters */\n      0x04\n        /* \"EHealth.sol\":2222:2244  hospitalCenters.length */\n      dup1\n      sload\n      swap1\n      pop\n        /* \"EHealth.sol\":2218:2219  i */\n      dup2\n        /* \"EHealth.sol\":2218:2244  i < hospitalCenters.length */\n      lt\n        /* \"EHealth.sol\":2201:2363  for(uint i = 0 ; i < hospitalCenters.length ; i++){\r... */\n      iszero\n      tag_463\n      jumpi\n        /* \"EHealth.sol\":2300:2308  _address */\n      dup3\n        /* \"EHealth.sol\":2269:2308  hospitalCenters[i].idHospital==_address */\n      0xffffffffffffffffffffffffffffffffffffffff\n      and\n        /* \"EHealth.sol\":2269:2284  hospitalCenters */\n      0x04\n        /* \"EHealth.sol\":2285:2286  i */\n      dup3\n        /* \"EHealth.sol\":2269:2287  hospitalCenters[i] */\n      dup2\n      sload\n      dup2\n      lt\n      tag_465\n      jumpi\n      invalid\n    tag_465:\n      swap1\n      0x00\n      mstore\n      keccak256(0x00, 0x20)\n      swap1\n      0x06\n      mul\n      add\n        /* \"EHealth.sol\":2269:2298  hospitalCenters[i].idHospital */\n      0x00\n      add\n      0x00\n      swap1\n      sload\n      swap1\n      0x0100\n      exp\n      swap1\n      div\n      0xffffffffffffffffffffffffffffffffffffffff\n      and\n        /* \"EHealth.sol\":2269:2308  hospitalCenters[i].idHospital==_address */\n      0xffffffffffffffffffffffffffffffffffffffff\n      and\n      eq\n        /* \"EHealth.sol\":2266:2352  if(hospitalCenters[i].idHospital==_address){\r... */\n      iszero\n      tag_467\n      jumpi\n        /* \"EHealth.sol\":2335:2336  i */\n      dup1\n        /* \"EHealth.sol\":2328:2336  return i */\n      swap2\n      pop\n      pop\n      jump(tag_461)\n        /* \"EHealth.sol\":2266:2352  if(hospitalCenters[i].idHospital==_address){\r... */\n    tag_467:\n        /* \"EHealth.sol\":2247:2250  i++ */\n      dup1\n      dup1\n      0x01\n      add\n      swap2\n      pop\n      pop\n        /* \"EHealth.sol\":2201:2363  for(uint i = 0 ; i < hospitalCenters.length ; i++){\r... */\n      jump(tag_462)\n    tag_463:\n      pop\n        /* \"EHealth.sol\":2373:2401  revert('Hospital not found') */\n      mload(0x40)\n      0x08c379a000000000000000000000000000000000000000000000000000000000\n      dup2\n      mstore\n      0x04\n      add\n      tag_468\n      swap1\n      tag_469\n      jump\t// in\n    tag_468:\n      mload(0x40)\n      dup1\n      swap2\n      sub\n      swap1\n      revert\n        /* \"EHealth.sol\":2123:2409  function FindHospital(address _address) internal view returns(uint){\r... */\n    tag_461:\n      swap2\n      swap1\n      pop\n      jump\t// out\n        /* \"EHealth.sol\":4816:5086  function FindDoctor(address _id) internal view returns(uint){\r... */\n    tag_185:\n        /* \"EHealth.sol\":4871:4875  uint */\n      0x00\n        /* \"EHealth.sol\":4891:4897  uint i */\n      dup1\n        /* \"EHealth.sol\":4900:4901  0 */\n      0x00\n        /* \"EHealth.sol\":4891:4901  uint i = 0 */\n      swap1\n      pop\n        /* \"EHealth.sol\":4887:5042  for(uint i = 0 ; i < doctorsHospital.length ; i++){\r... */\n    tag_471:\n        /* \"EHealth.sol\":4908:4923  doctorsHospital */\n      0x06\n        /* \"EHealth.sol\":4908:4930  doctorsHospital.length */\n      dup1\n      sload\n      swap1\n      pop\n        /* \"EHealth.sol\":4904:4905  i */\n      dup2\n        /* \"EHealth.sol\":4904:4930  i < doctorsHospital.length */\n      lt\n        /* \"EHealth.sol\":4887:5042  for(uint i = 0 ; i < doctorsHospital.length ; i++){\r... */\n      iszero\n      tag_472\n      jumpi\n        /* \"EHealth.sol\":4984:4987  _id */\n      dup3\n        /* \"EHealth.sol\":4955:4987  doctorsHospital[i].idDoctor==_id */\n      0xffffffffffffffffffffffffffffffffffffffff\n      and\n        /* \"EHealth.sol\":4955:4970  doctorsHospital */\n      0x06\n        /* \"EHealth.sol\":4971:4972  i */\n      dup3\n        /* \"EHealth.sol\":4955:4973  doctorsHospital[i] */\n      dup2\n      sload\n      dup2\n      lt\n      tag_474\n      jumpi\n      invalid\n    tag_474:\n      swap1\n      0x00\n      mstore\n      keccak256(0x00, 0x20)\n      swap1\n      0x03\n      mul\n      add\n        /* \"EHealth.sol\":4955:4982  doctorsHospital[i].idDoctor */\n      0x00\n      add\n      0x00\n      swap1\n      sload\n      swap1\n      0x0100\n      exp\n      swap1\n      div\n      0xffffffffffffffffffffffffffffffffffffffff\n      and\n        /* \"EHealth.sol\":4955:4987  doctorsHospital[i].idDoctor==_id */\n      0xffffffffffffffffffffffffffffffffffffffff\n      and\n      eq\n        /* \"EHealth.sol\":4952:5031  if(doctorsHospital[i].idDoctor==_id){\r... */\n      iszero\n      tag_476\n      jumpi\n        /* \"EHealth.sol\":5014:5015  i */\n      dup1\n        /* \"EHealth.sol\":5007:5015  return i */\n      swap2\n      pop\n      pop\n      jump(tag_470)\n        /* \"EHealth.sol\":4952:5031  if(doctorsHospital[i].idDoctor==_id){\r... */\n    tag_476:\n        /* \"EHealth.sol\":4933:4936  i++ */\n      dup1\n      dup1\n      0x01\n      add\n      swap2\n      pop\n      pop\n        /* \"EHealth.sol\":4887:5042  for(uint i = 0 ; i < doctorsHospital.length ; i++){\r... */\n      jump(tag_471)\n    tag_472:\n      pop\n        /* \"EHealth.sol\":5052:5078  revert('Doctor not found') */\n      mload(0x40)\n      0x08c379a000000000000000000000000000000000000000000000000000000000\n      dup2\n      mstore\n      0x04\n      add\n      tag_477\n      swap1\n      tag_478\n      jump\t// in\n    tag_477:\n      mload(0x40)\n      dup1\n      swap2\n      sub\n      swap1\n      revert\n        /* \"EHealth.sol\":4816:5086  function FindDoctor(address _id) internal view returns(uint){\r... */\n    tag_470:\n      swap2\n      swap1\n      pop\n      jump\t// out\n    tag_162:\n      dup3\n      dup1\n      sload\n      0x01\n      dup2\n      0x01\n      and\n      iszero\n      0x0100\n      mul\n      sub\n      and\n      0x02\n      swap1\n      div\n      swap1\n      0x00\n      mstore\n      keccak256(0x00, 0x20)\n      swap1\n      0x1f\n      add\n      0x20\n      swap1\n      div\n      dup2\n      add\n      swap3\n      dup3\n      tag_480\n      jumpi\n      0x00\n      dup6\n      sstore\n      jump(tag_479)\n    tag_480:\n      dup3\n      0x1f\n      lt\n      tag_481\n      jumpi\n      dup1\n      mload\n      not(0xff)\n      and\n      dup4\n      dup1\n      add\n      or\n      dup6\n      sstore\n      jump(tag_479)\n    tag_481:\n      dup3\n      dup1\n      add\n      0x01\n      add\n      dup6\n      sstore\n      dup3\n      iszero\n      tag_479\n      jumpi\n      swap2\n      dup3\n      add\n    tag_482:\n      dup3\n      dup2\n      gt\n      iszero\n      tag_483\n      jumpi\n      dup3\n      mload\n      dup3\n      sstore\n      swap2\n      0x20\n      add\n      swap2\n      swap1\n      0x01\n      add\n      swap1\n      jump(tag_482)\n    tag_483:\n    tag_479:\n      pop\n      swap1\n      pop\n      tag_484\n      swap2\n      swap1\n      tag_485\n      jump\t// in\n    tag_484:\n      pop\n      swap1\n      jump\t// out\n    tag_249:\n      mload(0x40)\n      dup1\n      0xc0\n      add\n      0x40\n      mstore\n      dup1\n      and(0xffffffffffffffffffffffffffffffffffffffff, 0x00)\n      dup2\n      mstore\n      0x20\n      add\n      0x60\n      dup2\n      mstore\n      0x20\n      add\n      0x60\n      dup2\n      mstore\n      0x20\n      add\n      0x60\n      dup2\n      mstore\n      0x20\n      add\n      0x00\n      dup2\n      mstore\n      0x20\n      add\n      iszero(iszero(0x00))\n      dup2\n      mstore\n      pop\n      swap1\n      jump\t// out\n    tag_270:\n      mload(0x40)\n      dup1\n      0xa0\n      add\n      0x40\n      mstore\n      dup1\n      0x00\n      dup2\n      mstore\n      0x20\n      add\n      0x60\n      dup2\n      mstore\n      0x20\n      add\n      0x60\n      dup2\n      mstore\n      0x20\n      add\n      and(0xffffffffffffffffffffffffffffffffffffffff, 0x00)\n      dup2\n      mstore\n      0x20\n      add\n      iszero(iszero(0x00))\n      dup2\n      mstore\n      pop\n      swap1\n      jump\t// out\n    tag_398:\n      mload(0x40)\n      dup1\n      0x80\n      add\n      0x40\n      mstore\n      dup1\n      and(0xffffffffffffffffffffffffffffffffffffffff, 0x00)\n      dup2\n      mstore\n      0x20\n      add\n      0x60\n      dup2\n      mstore\n      0x20\n      add\n      and(0xffffffffffffffffffffffffffffffffffffffff, 0x00)\n      dup2\n      mstore\n      0x20\n      add\n      iszero(iszero(0x00))\n      dup2\n      mstore\n      pop\n      swap1\n      jump\t// out\n    tag_485:\n    tag_486:\n      dup1\n      dup3\n      gt\n      iszero\n      tag_487\n      jumpi\n      0x00\n      dup2\n      0x00\n      swap1\n      sstore\n      pop\n      0x01\n      add\n      jump(tag_486)\n    tag_487:\n      pop\n      swap1\n      jump\t// out\n        /* \"#utility.yul\":7:351   */\n    tag_489:\n      0x00\n        /* \"#utility.yul\":110:175   */\n      tag_491\n        /* \"#utility.yul\":125:174   */\n      tag_492\n        /* \"#utility.yul\":167:173   */\n      dup5\n        /* \"#utility.yul\":125:174   */\n      tag_493\n      jump\t// in\n    tag_492:\n        /* \"#utility.yul\":110:175   */\n      tag_494\n      jump\t// in\n    tag_491:\n        /* \"#utility.yul\":101:175   */\n      swap1\n      pop\n        /* \"#utility.yul\":198:204   */\n      dup3\n        /* \"#utility.yul\":191:196   */\n      dup2\n        /* \"#utility.yul\":184:205   */\n      mstore\n        /* \"#utility.yul\":236:240   */\n      0x20\n        /* \"#utility.yul\":229:234   */\n      dup2\n        /* \"#utility.yul\":225:241   */\n      add\n        /* \"#utility.yul\":274:277   */\n      dup5\n        /* \"#utility.yul\":265:271   */\n      dup5\n        /* \"#utility.yul\":260:263   */\n      dup5\n        /* \"#utility.yul\":256:272   */\n      add\n        /* \"#utility.yul\":253:278   */\n      gt\n        /* \"#utility.yul\":250:252   */\n      iszero\n      tag_495\n      jumpi\n        /* \"#utility.yul\":291:292   */\n      0x00\n        /* \"#utility.yul\":288:289   */\n      dup1\n        /* \"#utility.yul\":281:293   */\n      revert\n        /* \"#utility.yul\":250:252   */\n    tag_495:\n        /* \"#utility.yul\":304:345   */\n      tag_496\n        /* \"#utility.yul\":338:344   */\n      dup5\n        /* \"#utility.yul\":333:336   */\n      dup3\n        /* \"#utility.yul\":328:331   */\n      dup6\n        /* \"#utility.yul\":304:345   */\n      tag_497\n      jump\t// in\n    tag_496:\n        /* \"#utility.yul\":91:351   */\n      pop\n      swap4\n      swap3\n      pop\n      pop\n      pop\n      jump\t// out\n        /* \"#utility.yul\":357:496   */\n    tag_498:\n      0x00\n        /* \"#utility.yul\":441:447   */\n      dup2\n        /* \"#utility.yul\":428:448   */\n      calldataload\n        /* \"#utility.yul\":419:448   */\n      swap1\n      pop\n        /* \"#utility.yul\":457:490   */\n      tag_500\n        /* \"#utility.yul\":484:489   */\n      dup2\n        /* \"#utility.yul\":457:490   */\n      tag_501\n      jump\t// in\n    tag_500:\n        /* \"#utility.yul\":409:496   */\n      swap3\n      swap2\n      pop\n      pop\n      jump\t// out\n        /* \"#utility.yul\":502:635   */\n    tag_502:\n      0x00\n        /* \"#utility.yul\":583:589   */\n      dup2\n        /* \"#utility.yul\":570:590   */\n      calldataload\n        /* \"#utility.yul\":561:590   */\n      swap1\n      pop\n        /* \"#utility.yul\":599:629   */\n      tag_504\n        /* \"#utility.yul\":623:628   */\n      dup2\n        /* \"#utility.yul\":599:629   */\n      tag_505\n      jump\t// in\n    tag_504:\n        /* \"#utility.yul\":551:635   */\n      swap3\n      swap2\n      pop\n      pop\n      jump\t// out\n        /* \"#utility.yul\":655:928   */\n    tag_506:\n      0x00\n        /* \"#utility.yul\":760:763   */\n      dup3\n        /* \"#utility.yul\":753:757   */\n      0x1f\n        /* \"#utility.yul\":745:751   */\n      dup4\n        /* \"#utility.yul\":741:758   */\n      add\n        /* \"#utility.yul\":737:764   */\n      slt\n        /* \"#utility.yul\":727:729   */\n      tag_508\n      jumpi\n        /* \"#utility.yul\":778:779   */\n      0x00\n        /* \"#utility.yul\":775:776   */\n      dup1\n        /* \"#utility.yul\":768:780   */\n      revert\n        /* \"#utility.yul\":727:729   */\n    tag_508:\n        /* \"#utility.yul\":818:824   */\n      dup2\n        /* \"#utility.yul\":805:825   */\n      calldataload\n        /* \"#utility.yul\":843:922   */\n      tag_509\n        /* \"#utility.yul\":918:921   */\n      dup5\n        /* \"#utility.yul\":910:916   */\n      dup3\n        /* \"#utility.yul\":903:907   */\n      0x20\n        /* \"#utility.yul\":895:901   */\n      dup7\n        /* \"#utility.yul\":891:908   */\n      add\n        /* \"#utility.yul\":843:922   */\n      tag_489\n      jump\t// in\n    tag_509:\n        /* \"#utility.yul\":834:922   */\n      swap2\n      pop\n        /* \"#utility.yul\":717:928   */\n      pop\n      swap3\n      swap2\n      pop\n      pop\n      jump\t// out\n        /* \"#utility.yul\":934:1073   */\n    tag_510:\n      0x00\n        /* \"#utility.yul\":1018:1024   */\n      dup2\n        /* \"#utility.yul\":1005:1025   */\n      calldataload\n        /* \"#utility.yul\":996:1025   */\n      swap1\n      pop\n        /* \"#utility.yul\":1034:1067   */\n      tag_512\n        /* \"#utility.yul\":1061:1066   */\n      dup2\n        /* \"#utility.yul\":1034:1067   */\n      tag_513\n      jump\t// in\n    tag_512:\n        /* \"#utility.yul\":986:1073   */\n      swap3\n      swap2\n      pop\n      pop\n      jump\t// out\n        /* \"#utility.yul\":1079:1341   */\n    tag_62:\n      0x00\n        /* \"#utility.yul\":1187:1189   */\n      0x20\n        /* \"#utility.yul\":1175:1184   */\n      dup3\n        /* \"#utility.yul\":1166:1173   */\n      dup5\n        /* \"#utility.yul\":1162:1185   */\n      sub\n        /* \"#utility.yul\":1158:1190   */\n      slt\n        /* \"#utility.yul\":1155:1157   */\n      iszero\n      tag_515\n      jumpi\n        /* \"#utility.yul\":1203:1204   */\n      0x00\n        /* \"#utility.yul\":1200:1201   */\n      dup1\n        /* \"#utility.yul\":1193:1205   */\n      revert\n        /* \"#utility.yul\":1155:1157   */\n    tag_515:\n        /* \"#utility.yul\":1246:1247   */\n      0x00\n        /* \"#utility.yul\":1271:1324   */\n      tag_516\n        /* \"#utility.yul\":1316:1323   */\n      dup5\n        /* \"#utility.yul\":1307:1313   */\n      dup3\n        /* \"#utility.yul\":1296:1305   */\n      dup6\n        /* \"#utility.yul\":1292:1314   */\n      add\n        /* \"#utility.yul\":1271:1324   */\n      tag_498\n      jump\t// in\n    tag_516:\n        /* \"#utility.yul\":1261:1324   */\n      swap2\n      pop\n        /* \"#utility.yul\":1217:1334   */\n      pop\n        /* \"#utility.yul\":1145:1341   */\n      swap3\n      swap2\n      pop\n      pop\n      jump\t// out\n        /* \"#utility.yul\":1347:2012   */\n    tag_54:\n      0x00\n      dup1\n      0x00\n        /* \"#utility.yul\":1499:1501   */\n      0x60\n        /* \"#utility.yul\":1487:1496   */\n      dup5\n        /* \"#utility.yul\":1478:1485   */\n      dup7\n        /* \"#utility.yul\":1474:1497   */\n      sub\n        /* \"#utility.yul\":1470:1502   */\n      slt\n        /* \"#utility.yul\":1467:1469   */\n      iszero\n      tag_518\n      jumpi\n        /* \"#utility.yul\":1515:1516   */\n      0x00\n        /* \"#utility.yul\":1512:1513   */\n      dup1\n        /* \"#utility.yul\":1505:1517   */\n      revert\n        /* \"#utility.yul\":1467:1469   */\n    tag_518:\n        /* \"#utility.yul\":1558:1559   */\n      0x00\n        /* \"#utility.yul\":1583:1636   */\n      tag_519\n        /* \"#utility.yul\":1628:1635   */\n      dup7\n        /* \"#utility.yul\":1619:1625   */\n      dup3\n        /* \"#utility.yul\":1608:1617   */\n      dup8\n        /* \"#utility.yul\":1604:1626   */\n      add\n        /* \"#utility.yul\":1583:1636   */\n      tag_498\n      jump\t// in\n    tag_519:\n        /* \"#utility.yul\":1573:1636   */\n      swap4\n      pop\n        /* \"#utility.yul\":1529:1646   */\n      pop\n        /* \"#utility.yul\":1713:1715   */\n      0x20\n        /* \"#utility.yul\":1702:1711   */\n      dup5\n        /* \"#utility.yul\":1698:1716   */\n      add\n        /* \"#utility.yul\":1685:1717   */\n      calldataload\n        /* \"#utility.yul\":1744:1762   */\n      0xffffffffffffffff\n        /* \"#utility.yul\":1736:1742   */\n      dup2\n        /* \"#utility.yul\":1733:1763   */\n      gt\n        /* \"#utility.yul\":1730:1732   */\n      iszero\n      tag_520\n      jumpi\n        /* \"#utility.yul\":1776:1777   */\n      0x00\n        /* \"#utility.yul\":1773:1774   */\n      dup1\n        /* \"#utility.yul\":1766:1778   */\n      revert\n        /* \"#utility.yul\":1730:1732   */\n    tag_520:\n        /* \"#utility.yul\":1804:1867   */\n      tag_521\n        /* \"#utility.yul\":1859:1866   */\n      dup7\n        /* \"#utility.yul\":1850:1856   */\n      dup3\n        /* \"#utility.yul\":1839:1848   */\n      dup8\n        /* \"#utility.yul\":1835:1857   */\n      add\n        /* \"#utility.yul\":1804:1867   */\n      tag_506\n      jump\t// in\n    tag_521:\n        /* \"#utility.yul\":1794:1867   */\n      swap3\n      pop\n        /* \"#utility.yul\":1656:1877   */\n      pop\n        /* \"#utility.yul\":1916:1918   */\n      0x40\n        /* \"#utility.yul\":1942:1995   */\n      tag_522\n        /* \"#utility.yul\":1987:1994   */\n      dup7\n        /* \"#utility.yul\":1978:1984   */\n      dup3\n        /* \"#utility.yul\":1967:1976   */\n      dup8\n        /* \"#utility.yul\":1963:1985   */\n      add\n        /* \"#utility.yul\":1942:1995   */\n      tag_498\n      jump\t// in\n    tag_522:\n        /* \"#utility.yul\":1932:1995   */\n      swap2\n      pop\n        /* \"#utility.yul\":1887:2005   */\n      pop\n        /* \"#utility.yul\":1457:2012   */\n      swap3\n      pop\n      swap3\n      pop\n      swap3\n      jump\t// out\n        /* \"#utility.yul\":2018:3201   */\n    tag_42:\n      0x00\n      dup1\n      0x00\n      dup1\n      0x00\n        /* \"#utility.yul\":2224:2227   */\n      0xa0\n        /* \"#utility.yul\":2212:2221   */\n      dup7\n        /* \"#utility.yul\":2203:2210   */\n      dup9\n        /* \"#utility.yul\":2199:2222   */\n      sub\n        /* \"#utility.yul\":2195:2228   */\n      slt\n        /* \"#utility.yul\":2192:2194   */\n      iszero\n      tag_524\n      jumpi\n        /* \"#utility.yul\":2241:2242   */\n      0x00\n        /* \"#utility.yul\":2238:2239   */\n      dup1\n        /* \"#utility.yul\":2231:2243   */\n      revert\n        /* \"#utility.yul\":2192:2194   */\n    tag_524:\n        /* \"#utility.yul\":2284:2285   */\n      0x00\n        /* \"#utility.yul\":2309:2362   */\n      tag_525\n        /* \"#utility.yul\":2354:2361   */\n      dup9\n        /* \"#utility.yul\":2345:2351   */\n      dup3\n        /* \"#utility.yul\":2334:2343   */\n      dup10\n        /* \"#utility.yul\":2330:2352   */\n      add\n        /* \"#utility.yul\":2309:2362   */\n      tag_498\n      jump\t// in\n    tag_525:\n        /* \"#utility.yul\":2299:2362   */\n      swap6\n      pop\n        /* \"#utility.yul\":2255:2372   */\n      pop\n        /* \"#utility.yul\":2439:2441   */\n      0x20\n        /* \"#utility.yul\":2428:2437   */\n      dup7\n        /* \"#utility.yul\":2424:2442   */\n      add\n        /* \"#utility.yul\":2411:2443   */\n      calldataload\n        /* \"#utility.yul\":2470:2488   */\n      0xffffffffffffffff\n        /* \"#utility.yul\":2462:2468   */\n      dup2\n        /* \"#utility.yul\":2459:2489   */\n      gt\n        /* \"#utility.yul\":2456:2458   */\n      iszero\n      tag_526\n      jumpi\n        /* \"#utility.yul\":2502:2503   */\n      0x00\n        /* \"#utility.yul\":2499:2500   */\n      dup1\n        /* \"#utility.yul\":2492:2504   */\n      revert\n        /* \"#utility.yul\":2456:2458   */\n    tag_526:\n        /* \"#utility.yul\":2530:2593   */\n      tag_527\n        /* \"#utility.yul\":2585:2592   */\n      dup9\n        /* \"#utility.yul\":2576:2582   */\n      dup3\n        /* \"#utility.yul\":2565:2574   */\n      dup10\n        /* \"#utility.yul\":2561:2583   */\n      add\n        /* \"#utility.yul\":2530:2593   */\n      tag_506\n      jump\t// in\n    tag_527:\n        /* \"#utility.yul\":2520:2593   */\n      swap5\n      pop\n        /* \"#utility.yul\":2382:2603   */\n      pop\n        /* \"#utility.yul\":2670:2672   */\n      0x40\n        /* \"#utility.yul\":2659:2668   */\n      dup7\n        /* \"#utility.yul\":2655:2673   */\n      add\n        /* \"#utility.yul\":2642:2674   */\n      calldataload\n        /* \"#utility.yul\":2701:2719   */\n      0xffffffffffffffff\n        /* \"#utility.yul\":2693:2699   */\n      dup2\n        /* \"#utility.yul\":2690:2720   */\n      gt\n        /* \"#utility.yul\":2687:2689   */\n      iszero\n      tag_528\n      jumpi\n        /* \"#utility.yul\":2733:2734   */\n      0x00\n        /* \"#utility.yul\":2730:2731   */\n      dup1\n        /* \"#utility.yul\":2723:2735   */\n      revert\n        /* \"#utility.yul\":2687:2689   */\n    tag_528:\n        /* \"#utility.yul\":2761:2824   */\n      tag_529\n        /* \"#utility.yul\":2816:2823   */\n      dup9\n        /* \"#utility.yul\":2807:2813   */\n      dup3\n        /* \"#utility.yul\":2796:2805   */\n      dup10\n        /* \"#utility.yul\":2792:2814   */\n      add\n        /* \"#utility.yul\":2761:2824   */\n      tag_506\n      jump\t// in\n    tag_529:\n        /* \"#utility.yul\":2751:2824   */\n      swap4\n      pop\n        /* \"#utility.yul\":2613:2834   */\n      pop\n        /* \"#utility.yul\":2901:2903   */\n      0x60\n        /* \"#utility.yul\":2890:2899   */\n      dup7\n        /* \"#utility.yul\":2886:2904   */\n      add\n        /* \"#utility.yul\":2873:2905   */\n      calldataload\n        /* \"#utility.yul\":2932:2950   */\n      0xffffffffffffffff\n        /* \"#utility.yul\":2924:2930   */\n      dup2\n        /* \"#utility.yul\":2921:2951   */\n      gt\n        /* \"#utility.yul\":2918:2920   */\n      iszero\n      tag_530\n      jumpi\n        /* \"#utility.yul\":2964:2965   */\n      0x00\n        /* \"#utility.yul\":2961:2962   */\n      dup1\n        /* \"#utility.yul\":2954:2966   */\n      revert\n        /* \"#utility.yul\":2918:2920   */\n    tag_530:\n        /* \"#utility.yul\":2992:3055   */\n      tag_531\n        /* \"#utility.yul\":3047:3054   */\n      dup9\n        /* \"#utility.yul\":3038:3044   */\n      dup3\n        /* \"#utility.yul\":3027:3036   */\n      dup10\n        /* \"#utility.yul\":3023:3045   */\n      add\n        /* \"#utility.yul\":2992:3055   */\n      tag_506\n      jump\t// in\n    tag_531:\n        /* \"#utility.yul\":2982:3055   */\n      swap3\n      pop\n        /* \"#utility.yul\":2844:3065   */\n      pop\n        /* \"#utility.yul\":3104:3107   */\n      0x80\n        /* \"#utility.yul\":3131:3184   */\n      tag_532\n        /* \"#utility.yul\":3176:3183   */\n      dup9\n        /* \"#utility.yul\":3167:3173   */\n      dup3\n        /* \"#utility.yul\":3156:3165   */\n      dup10\n        /* \"#utility.yul\":3152:3174   */\n      add\n        /* \"#utility.yul\":3131:3184   */\n      tag_510\n      jump\t// in\n    tag_532:\n        /* \"#utility.yul\":3121:3184   */\n      swap2\n      pop\n        /* \"#utility.yul\":3075:3194   */\n      pop\n        /* \"#utility.yul\":2182:3201   */\n      swap3\n      swap6\n      pop\n      swap3\n      swap6\n      swap1\n      swap4\n      pop\n      jump\t// out\n        /* \"#utility.yul\":3207:4125   */\n    tag_46:\n      0x00\n      dup1\n      0x00\n      dup1\n        /* \"#utility.yul\":3383:3386   */\n      0x80\n        /* \"#utility.yul\":3371:3380   */\n      dup6\n        /* \"#utility.yul\":3362:3369   */\n      dup8\n        /* \"#utility.yul\":3358:3381   */\n      sub\n        /* \"#utility.yul\":3354:3387   */\n      slt\n        /* \"#utility.yul\":3351:3353   */\n      iszero\n      tag_534\n      jumpi\n        /* \"#utility.yul\":3400:3401   */\n      0x00\n        /* \"#utility.yul\":3397:3398   */\n      dup1\n        /* \"#utility.yul\":3390:3402   */\n      revert\n        /* \"#utility.yul\":3351:3353   */\n    tag_534:\n        /* \"#utility.yul\":3471:3472   */\n      0x00\n        /* \"#utility.yul\":3460:3469   */\n      dup6\n        /* \"#utility.yul\":3456:3473   */\n      add\n        /* \"#utility.yul\":3443:3474   */\n      calldataload\n        /* \"#utility.yul\":3501:3519   */\n      0xffffffffffffffff\n        /* \"#utility.yul\":3493:3499   */\n      dup2\n        /* \"#utility.yul\":3490:3520   */\n      gt\n        /* \"#utility.yul\":3487:3489   */\n      iszero\n      tag_535\n      jumpi\n        /* \"#utility.yul\":3533:3534   */\n      0x00\n        /* \"#utility.yul\":3530:3531   */\n      dup1\n        /* \"#utility.yul\":3523:3535   */\n      revert\n        /* \"#utility.yul\":3487:3489   */\n    tag_535:\n        /* \"#utility.yul\":3561:3624   */\n      tag_536\n        /* \"#utility.yul\":3616:3623   */\n      dup8\n        /* \"#utility.yul\":3607:3613   */\n      dup3\n        /* \"#utility.yul\":3596:3605   */\n      dup9\n        /* \"#utility.yul\":3592:3614   */\n      add\n        /* \"#utility.yul\":3561:3624   */\n      tag_506\n      jump\t// in\n    tag_536:\n        /* \"#utility.yul\":3551:3624   */\n      swap5\n      pop\n        /* \"#utility.yul\":3414:3634   */\n      pop\n        /* \"#utility.yul\":3701:3703   */\n      0x20\n        /* \"#utility.yul\":3690:3699   */\n      dup6\n        /* \"#utility.yul\":3686:3704   */\n      add\n        /* \"#utility.yul\":3673:3705   */\n      calldataload\n        /* \"#utility.yul\":3732:3750   */\n      0xffffffffffffffff\n        /* \"#utility.yul\":3724:3730   */\n      dup2\n        /* \"#utility.yul\":3721:3751   */\n      gt\n        /* \"#utility.yul\":3718:3720   */\n      iszero\n      tag_537\n      jumpi\n        /* \"#utility.yul\":3764:3765   */\n      0x00\n        /* \"#utility.yul\":3761:3762   */\n      dup1\n        /* \"#utility.yul\":3754:3766   */\n      revert\n        /* \"#utility.yul\":3718:3720   */\n    tag_537:\n        /* \"#utility.yul\":3792:3855   */\n      tag_538\n        /* \"#utility.yul\":3847:3854   */\n      dup8\n        /* \"#utility.yul\":3838:3844   */\n      dup3\n        /* \"#utility.yul\":3827:3836   */\n      dup9\n        /* \"#utility.yul\":3823:3845   */\n      add\n        /* \"#utility.yul\":3792:3855   */\n      tag_506\n      jump\t// in\n    tag_538:\n        /* \"#utility.yul\":3782:3855   */\n      swap4\n      pop\n        /* \"#utility.yul\":3644:3865   */\n      pop\n        /* \"#utility.yul\":3904:3906   */\n      0x40\n        /* \"#utility.yul\":3930:3983   */\n      tag_539\n        /* \"#utility.yul\":3975:3982   */\n      dup8\n        /* \"#utility.yul\":3966:3972   */\n      dup3\n        /* \"#utility.yul\":3955:3964   */\n      dup9\n        /* \"#utility.yul\":3951:3973   */\n      add\n        /* \"#utility.yul\":3930:3983   */\n      tag_498\n      jump\t// in\n    tag_539:\n        /* \"#utility.yul\":3920:3983   */\n      swap3\n      pop\n        /* \"#utility.yul\":3875:3993   */\n      pop\n        /* \"#utility.yul\":4032:4034   */\n      0x60\n        /* \"#utility.yul\":4058:4108   */\n      tag_540\n        /* \"#utility.yul\":4100:4107   */\n      dup8\n        /* \"#utility.yul\":4091:4097   */\n      dup3\n        /* \"#utility.yul\":4080:4089   */\n      dup9\n        /* \"#utility.yul\":4076:4098   */\n      add\n        /* \"#utility.yul\":4058:4108   */\n      tag_502\n      jump\t// in\n    tag_540:\n        /* \"#utility.yul\":4048:4108   */\n      swap2\n      pop\n        /* \"#utility.yul\":4003:4118   */\n      pop\n        /* \"#utility.yul\":3341:4125   */\n      swap3\n      swap6\n      swap2\n      swap5\n      pop\n      swap3\n      pop\n      jump\t// out\n        /* \"#utility.yul\":4131:4393   */\n    tag_36:\n      0x00\n        /* \"#utility.yul\":4239:4241   */\n      0x20\n        /* \"#utility.yul\":4227:4236   */\n      dup3\n        /* \"#utility.yul\":4218:4225   */\n      dup5\n        /* \"#utility.yul\":4214:4237   */\n      sub\n        /* \"#utility.yul\":4210:4242   */\n      slt\n        /* \"#utility.yul\":4207:4209   */\n      iszero\n      tag_542\n      jumpi\n        /* \"#utility.yul\":4255:4256   */\n      0x00\n        /* \"#utility.yul\":4252:4253   */\n      dup1\n        /* \"#utility.yul\":4245:4257   */\n      revert\n        /* \"#utility.yul\":4207:4209   */\n    tag_542:\n        /* \"#utility.yul\":4298:4299   */\n      0x00\n        /* \"#utility.yul\":4323:4376   */\n      tag_543\n        /* \"#utility.yul\":4368:4375   */\n      dup5\n        /* \"#utility.yul\":4359:4365   */\n      dup3\n        /* \"#utility.yul\":4348:4357   */\n      dup6\n        /* \"#utility.yul\":4344:4366   */\n      add\n        /* \"#utility.yul\":4323:4376   */\n      tag_510\n      jump\t// in\n    tag_543:\n        /* \"#utility.yul\":4313:4376   */\n      swap2\n      pop\n        /* \"#utility.yul\":4269:4386   */\n      pop\n        /* \"#utility.yul\":4197:4393   */\n      swap3\n      swap2\n      pop\n      pop\n      jump\t// out\n        /* \"#utility.yul\":4399:5323   */\n    tag_58:\n      0x00\n      dup1\n      0x00\n      dup1\n        /* \"#utility.yul\":4578:4581   */\n      0x80\n        /* \"#utility.yul\":4566:4575   */\n      dup6\n        /* \"#utility.yul\":4557:4564   */\n      dup8\n        /* \"#utility.yul\":4553:4576   */\n      sub\n        /* \"#utility.yul\":4549:4582   */\n      slt\n        /* \"#utility.yul\":4546:4548   */\n      iszero\n      tag_545\n      jumpi\n        /* \"#utility.yul\":4595:4596   */\n      0x00\n        /* \"#utility.yul\":4592:4593   */\n      dup1\n        /* \"#utility.yul\":4585:4597   */\n      revert\n        /* \"#utility.yul\":4546:4548   */\n    tag_545:\n        /* \"#utility.yul\":4638:4639   */\n      0x00\n        /* \"#utility.yul\":4663:4716   */\n      tag_546\n        /* \"#utility.yul\":4708:4715   */\n      dup8\n        /* \"#utility.yul\":4699:4705   */\n      dup3\n        /* \"#utility.yul\":4688:4697   */\n      dup9\n        /* \"#utility.yul\":4684:4706   */\n      add\n        /* \"#utility.yul\":4663:4716   */\n      tag_510\n      jump\t// in\n    tag_546:\n        /* \"#utility.yul\":4653:4716   */\n      swap5\n      pop\n        /* \"#utility.yul\":4609:4726   */\n      pop\n        /* \"#utility.yul\":4793:4795   */\n      0x20\n        /* \"#utility.yul\":4782:4791   */\n      dup6\n        /* \"#utility.yul\":4778:4796   */\n      add\n        /* \"#utility.yul\":4765:4797   */\n      calldataload\n        /* \"#utility.yul\":4824:4842   */\n      0xffffffffffffffff\n        /* \"#utility.yul\":4816:4822   */\n      dup2\n        /* \"#utility.yul\":4813:4843   */\n      gt\n        /* \"#utility.yul\":4810:4812   */\n      iszero\n      tag_547\n      jumpi\n        /* \"#utility.yul\":4856:4857   */\n      0x00\n        /* \"#utility.yul\":4853:4854   */\n      dup1\n        /* \"#utility.yul\":4846:4858   */\n      revert\n        /* \"#utility.yul\":4810:4812   */\n    tag_547:\n        /* \"#utility.yul\":4884:4947   */\n      tag_548\n        /* \"#utility.yul\":4939:4946   */\n      dup8\n        /* \"#utility.yul\":4930:4936   */\n      dup3\n        /* \"#utility.yul\":4919:4928   */\n      dup9\n        /* \"#utility.yul\":4915:4937   */\n      add\n        /* \"#utility.yul\":4884:4947   */\n      tag_506\n      jump\t// in\n    tag_548:\n        /* \"#utility.yul\":4874:4947   */\n      swap4\n      pop\n        /* \"#utility.yul\":4736:4957   */\n      pop\n        /* \"#utility.yul\":5024:5026   */\n      0x40\n        /* \"#utility.yul\":5013:5022   */\n      dup6\n        /* \"#utility.yul\":5009:5027   */\n      add\n        /* \"#utility.yul\":4996:5028   */\n      calldataload\n        /* \"#utility.yul\":5055:5073   */\n      0xffffffffffffffff\n        /* \"#utility.yul\":5047:5053   */\n      dup2\n        /* \"#utility.yul\":5044:5074   */\n      gt\n        /* \"#utility.yul\":5041:5043   */\n      iszero\n      tag_549\n      jumpi\n        /* \"#utility.yul\":5087:5088   */\n      0x00\n        /* \"#utility.yul\":5084:5085   */\n      dup1\n        /* \"#utility.yul\":5077:5089   */\n      revert\n        /* \"#utility.yul\":5041:5043   */\n    tag_549:\n        /* \"#utility.yul\":5115:5178   */\n      tag_550\n        /* \"#utility.yul\":5170:5177   */\n      dup8\n        /* \"#utility.yul\":5161:5167   */\n      dup3\n        /* \"#utility.yul\":5150:5159   */\n      dup9\n        /* \"#utility.yul\":5146:5168   */\n      add\n        /* \"#utility.yul\":5115:5178   */\n      tag_506\n      jump\t// in\n    tag_550:\n        /* \"#utility.yul\":5105:5178   */\n      swap3\n      pop\n        /* \"#utility.yul\":4967:5188   */\n      pop\n        /* \"#utility.yul\":5227:5229   */\n      0x60\n        /* \"#utility.yul\":5253:5306   */\n      tag_551\n        /* \"#utility.yul\":5298:5305   */\n      dup8\n        /* \"#utility.yul\":5289:5295   */\n      dup3\n        /* \"#utility.yul\":5278:5287   */\n      dup9\n        /* \"#utility.yul\":5274:5296   */\n      add\n        /* \"#utility.yul\":5253:5306   */\n      tag_498\n      jump\t// in\n    tag_551:\n        /* \"#utility.yul\":5243:5306   */\n      swap2\n      pop\n        /* \"#utility.yul\":5198:5316   */\n      pop\n        /* \"#utility.yul\":4536:5323   */\n      swap3\n      swap6\n      swap2\n      swap5\n      pop\n      swap3\n      pop\n      jump\t// out\n        /* \"#utility.yul\":5329:5573   */\n    tag_552:\n      0x00\n        /* \"#utility.yul\":5477:5567   */\n      tag_554\n        /* \"#utility.yul\":5563:5566   */\n      dup4\n        /* \"#utility.yul\":5555:5561   */\n      dup4\n        /* \"#utility.yul\":5477:5567   */\n      tag_555\n      jump\t// in\n    tag_554:\n        /* \"#utility.yul\":5463:5567   */\n      swap1\n      pop\n        /* \"#utility.yul\":5453:5573   */\n      swap3\n      swap2\n      pop\n      pop\n      jump\t// out\n        /* \"#utility.yul\":5579:5831   */\n    tag_556:\n      0x00\n        /* \"#utility.yul\":5731:5825   */\n      tag_558\n        /* \"#utility.yul\":5821:5824   */\n      dup4\n        /* \"#utility.yul\":5813:5819   */\n      dup4\n        /* \"#utility.yul\":5731:5825   */\n      tag_559\n      jump\t// in\n    tag_558:\n        /* \"#utility.yul\":5717:5825   */\n      swap1\n      pop\n        /* \"#utility.yul\":5707:5831   */\n      swap3\n      swap2\n      pop\n      pop\n      jump\t// out\n        /* \"#utility.yul\":5837:6081   */\n    tag_560:\n      0x00\n        /* \"#utility.yul\":5985:6075   */\n      tag_562\n        /* \"#utility.yul\":6071:6074   */\n      dup4\n        /* \"#utility.yul\":6063:6069   */\n      dup4\n        /* \"#utility.yul\":5985:6075   */\n      tag_563\n      jump\t// in\n    tag_562:\n        /* \"#utility.yul\":5971:6075   */\n      swap1\n      pop\n        /* \"#utility.yul\":5961:6081   */\n      swap3\n      swap2\n      pop\n      pop\n      jump\t// out\n        /* \"#utility.yul\":6087:6195   */\n    tag_564:\n        /* \"#utility.yul\":6164:6188   */\n      tag_566\n        /* \"#utility.yul\":6182:6187   */\n      dup2\n        /* \"#utility.yul\":6164:6188   */\n      tag_567\n      jump\t// in\n    tag_566:\n        /* \"#utility.yul\":6159:6162   */\n      dup3\n        /* \"#utility.yul\":6152:6189   */\n      mstore\n        /* \"#utility.yul\":6142:6195   */\n      pop\n      pop\n      jump\t// out\n        /* \"#utility.yul\":6201:6319   */\n    tag_568:\n        /* \"#utility.yul\":6288:6312   */\n      tag_570\n        /* \"#utility.yul\":6306:6311   */\n      dup2\n        /* \"#utility.yul\":6288:6312   */\n      tag_567\n      jump\t// in\n    tag_570:\n        /* \"#utility.yul\":6283:6286   */\n      dup3\n        /* \"#utility.yul\":6276:6313   */\n      mstore\n        /* \"#utility.yul\":6266:6319   */\n      pop\n      pop\n      jump\t// out\n        /* \"#utility.yul\":6383:7470   */\n    tag_571:\n      0x00\n        /* \"#utility.yul\":6575:6651   */\n      tag_573\n        /* \"#utility.yul\":6645:6650   */\n      dup3\n        /* \"#utility.yul\":6575:6651   */\n      tag_574\n      jump\t// in\n    tag_573:\n        /* \"#utility.yul\":6667:6775   */\n      tag_575\n        /* \"#utility.yul\":6768:6774   */\n      dup2\n        /* \"#utility.yul\":6763:6766   */\n      dup6\n        /* \"#utility.yul\":6667:6775   */\n      tag_576\n      jump\t// in\n    tag_575:\n        /* \"#utility.yul\":6660:6775   */\n      swap4\n      pop\n        /* \"#utility.yul\":6801:6804   */\n      dup4\n        /* \"#utility.yul\":6846:6850   */\n      0x20\n        /* \"#utility.yul\":6838:6844   */\n      dup3\n        /* \"#utility.yul\":6834:6851   */\n      mul\n        /* \"#utility.yul\":6829:6832   */\n      dup6\n        /* \"#utility.yul\":6825:6852   */\n      add\n        /* \"#utility.yul\":6876:6954   */\n      tag_577\n        /* \"#utility.yul\":6948:6953   */\n      dup6\n        /* \"#utility.yul\":6876:6954   */\n      tag_578\n      jump\t// in\n    tag_577:\n        /* \"#utility.yul\":6977:6984   */\n      dup1\n        /* \"#utility.yul\":7008:7009   */\n      0x00\n        /* \"#utility.yul\":6993:7425   */\n    tag_579:\n        /* \"#utility.yul\":7018:7024   */\n      dup6\n        /* \"#utility.yul\":7015:7016   */\n      dup2\n        /* \"#utility.yul\":7012:7025   */\n      lt\n        /* \"#utility.yul\":6993:7425   */\n      iszero\n      tag_581\n      jumpi\n        /* \"#utility.yul\":7089:7098   */\n      dup5\n        /* \"#utility.yul\":7083:7087   */\n      dup5\n        /* \"#utility.yul\":7079:7099   */\n      sub\n        /* \"#utility.yul\":7074:7077   */\n      dup10\n        /* \"#utility.yul\":7067:7100   */\n      mstore\n        /* \"#utility.yul\":7140:7146   */\n      dup2\n        /* \"#utility.yul\":7134:7147   */\n      mload\n        /* \"#utility.yul\":7168:7276   */\n      tag_582\n        /* \"#utility.yul\":7271:7275   */\n      dup6\n        /* \"#utility.yul\":7256:7269   */\n      dup3\n        /* \"#utility.yul\":7168:7276   */\n      tag_552\n      jump\t// in\n    tag_582:\n        /* \"#utility.yul\":7160:7276   */\n      swap5\n      pop\n        /* \"#utility.yul\":7299:7381   */\n      tag_583\n        /* \"#utility.yul\":7374:7380   */\n      dup4\n        /* \"#utility.yul\":7299:7381   */\n      tag_584\n      jump\t// in\n    tag_583:\n        /* \"#utility.yul\":7289:7381   */\n      swap3\n      pop\n        /* \"#utility.yul\":7410:7414   */\n      0x20\n        /* \"#utility.yul\":7405:7408   */\n      dup11\n        /* \"#utility.yul\":7401:7415   */\n      add\n        /* \"#utility.yul\":7394:7415   */\n      swap10\n      pop\n        /* \"#utility.yul\":7053:7425   */\n      pop\n        /* \"#utility.yul\":7040:7041   */\n      0x01\n        /* \"#utility.yul\":7037:7038   */\n      dup2\n        /* \"#utility.yul\":7033:7042   */\n      add\n        /* \"#utility.yul\":7028:7042   */\n      swap1\n      pop\n        /* \"#utility.yul\":6993:7425   */\n      jump(tag_579)\n    tag_581:\n        /* \"#utility.yul\":6997:7011   */\n      pop\n        /* \"#utility.yul\":7441:7445   */\n      dup3\n        /* \"#utility.yul\":7434:7445   */\n      swap8\n      pop\n        /* \"#utility.yul\":7461:7464   */\n      dup8\n        /* \"#utility.yul\":7454:7464   */\n      swap6\n      pop\n        /* \"#utility.yul\":6551:7470   */\n      pop\n      pop\n      pop\n      pop\n      pop\n      swap3\n      swap2\n      pop\n      pop\n      jump\t// out\n        /* \"#utility.yul\":7538:8641   */\n    tag_585:\n      0x00\n        /* \"#utility.yul\":7734:7812   */\n      tag_587\n        /* \"#utility.yul\":7806:7811   */\n      dup3\n        /* \"#utility.yul\":7734:7812   */\n      tag_588\n      jump\t// in\n    tag_587:\n        /* \"#utility.yul\":7828:7938   */\n      tag_589\n        /* \"#utility.yul\":7931:7937   */\n      dup2\n        /* \"#utility.yul\":7926:7929   */\n      dup6\n        /* \"#utility.yul\":7828:7938   */\n      tag_590\n      jump\t// in\n    tag_589:\n        /* \"#utility.yul\":7821:7938   */\n      swap4\n      pop\n        /* \"#utility.yul\":7964:7967   */\n      dup4\n        /* \"#utility.yul\":8009:8013   */\n      0x20\n        /* \"#utility.yul\":8001:8007   */\n      dup3\n        /* \"#utility.yul\":7997:8014   */\n      mul\n        /* \"#utility.yul\":7992:7995   */\n      dup6\n        /* \"#utility.yul\":7988:8015   */\n      add\n        /* \"#utility.yul\":8039:8119   */\n      tag_591\n        /* \"#utility.yul\":8113:8118   */\n      dup6\n        /* \"#utility.yul\":8039:8119   */\n      tag_592\n      jump\t// in\n    tag_591:\n        /* \"#utility.yul\":8142:8149   */\n      dup1\n        /* \"#utility.yul\":8173:8174   */\n      0x00\n        /* \"#utility.yul\":8158:8596   */\n    tag_593:\n        /* \"#utility.yul\":8183:8189   */\n      dup6\n        /* \"#utility.yul\":8180:8181   */\n      dup2\n        /* \"#utility.yul\":8177:8190   */\n      lt\n        /* \"#utility.yul\":8158:8596   */\n      iszero\n      tag_595\n      jumpi\n        /* \"#utility.yul\":8254:8263   */\n      dup5\n        /* \"#utility.yul\":8248:8252   */\n      dup5\n        /* \"#utility.yul\":8244:8264   */\n      sub\n        /* \"#utility.yul\":8239:8242   */\n      dup10\n        /* \"#utility.yul\":8232:8265   */\n      mstore\n        /* \"#utility.yul\":8305:8311   */\n      dup2\n        /* \"#utility.yul\":8299:8312   */\n      mload\n        /* \"#utility.yul\":8333:8445   */\n      tag_596\n        /* \"#utility.yul\":8440:8444   */\n      dup6\n        /* \"#utility.yul\":8425:8438   */\n      dup3\n        /* \"#utility.yul\":8333:8445   */\n      tag_556\n      jump\t// in\n    tag_596:\n        /* \"#utility.yul\":8325:8445   */\n      swap5\n      pop\n        /* \"#utility.yul\":8468:8552   */\n      tag_597\n        /* \"#utility.yul\":8545:8551   */\n      dup4\n        /* \"#utility.yul\":8468:8552   */\n      tag_598\n      jump\t// in\n    tag_597:\n        /* \"#utility.yul\":8458:8552   */\n      swap3\n      pop\n        /* \"#utility.yul\":8581:8585   */\n      0x20\n        /* \"#utility.yul\":8576:8579   */\n      dup11\n        /* \"#utility.yul\":8572:8586   */\n      add\n        /* \"#utility.yul\":8565:8586   */\n      swap10\n      pop\n        /* \"#utility.yul\":8218:8596   */\n      pop\n        /* \"#utility.yul\":8205:8206   */\n      0x01\n        /* \"#utility.yul\":8202:8203   */\n      dup2\n        /* \"#utility.yul\":8198:8207   */\n      add\n        /* \"#utility.yul\":8193:8207   */\n      swap1\n      pop\n        /* \"#utility.yul\":8158:8596   */\n      jump(tag_593)\n    tag_595:\n        /* \"#utility.yul\":8162:8176   */\n      pop\n        /* \"#utility.yul\":8612:8616   */\n      dup3\n        /* \"#utility.yul\":8605:8616   */\n      swap8\n      pop\n        /* \"#utility.yul\":8632:8635   */\n      dup8\n        /* \"#utility.yul\":8625:8635   */\n      swap6\n      pop\n        /* \"#utility.yul\":7710:8641   */\n      pop\n      pop\n      pop\n      pop\n      pop\n      swap3\n      swap2\n      pop\n      pop\n      jump\t// out\n        /* \"#utility.yul\":8705:9792   */\n    tag_599:\n      0x00\n        /* \"#utility.yul\":8897:8973   */\n      tag_601\n        /* \"#utility.yul\":8967:8972   */\n      dup3\n        /* \"#utility.yul\":8897:8973   */\n      tag_602\n      jump\t// in\n    tag_601:\n        /* \"#utility.yul\":8989:9097   */\n      tag_603\n        /* \"#utility.yul\":9090:9096   */\n      dup2\n        /* \"#utility.yul\":9085:9088   */\n      dup6\n        /* \"#utility.yul\":8989:9097   */\n      tag_604\n      jump\t// in\n    tag_603:\n        /* \"#utility.yul\":8982:9097   */\n      swap4\n      pop\n        /* \"#utility.yul\":9123:9126   */\n      dup4\n        /* \"#utility.yul\":9168:9172   */\n      0x20\n        /* \"#utility.yul\":9160:9166   */\n      dup3\n        /* \"#utility.yul\":9156:9173   */\n      mul\n        /* \"#utility.yul\":9151:9154   */\n      dup6\n        /* \"#utility.yul\":9147:9174   */\n      add\n        /* \"#utility.yul\":9198:9276   */\n      tag_605\n        /* \"#utility.yul\":9270:9275   */\n      dup6\n        /* \"#utility.yul\":9198:9276   */\n      tag_606\n      jump\t// in\n    tag_605:\n        /* \"#utility.yul\":9299:9306   */\n      dup1\n        /* \"#utility.yul\":9330:9331   */\n      0x00\n        /* \"#utility.yul\":9315:9747   */\n    tag_607:\n        /* \"#utility.yul\":9340:9346   */\n      dup6\n        /* \"#utility.yul\":9337:9338   */\n      dup2\n        /* \"#utility.yul\":9334:9347   */\n      lt\n        /* \"#utility.yul\":9315:9747   */\n      iszero\n      tag_609\n      jumpi\n        /* \"#utility.yul\":9411:9420   */\n      dup5\n        /* \"#utility.yul\":9405:9409   */\n      dup5\n        /* \"#utility.yul\":9401:9421   */\n      sub\n        /* \"#utility.yul\":9396:9399   */\n      dup10\n        /* \"#utility.yul\":9389:9422   */\n      mstore\n        /* \"#utility.yul\":9462:9468   */\n      dup2\n        /* \"#utility.yul\":9456:9469   */\n      mload\n        /* \"#utility.yul\":9490:9598   */\n      tag_610\n        /* \"#utility.yul\":9593:9597   */\n      dup6\n        /* \"#utility.yul\":9578:9591   */\n      dup3\n        /* \"#utility.yul\":9490:9598   */\n      tag_560\n      jump\t// in\n    tag_610:\n        /* \"#utility.yul\":9482:9598   */\n      swap5\n      pop\n        /* \"#utility.yul\":9621:9703   */\n      tag_611\n        /* \"#utility.yul\":9696:9702   */\n      dup4\n        /* \"#utility.yul\":9621:9703   */\n      tag_612\n      jump\t// in\n    tag_611:\n        /* \"#utility.yul\":9611:9703   */\n      swap3\n      pop\n        /* \"#utility.yul\":9732:9736   */\n      0x20\n        /* \"#utility.yul\":9727:9730   */\n      dup11\n        /* \"#utility.yul\":9723:9737   */\n      add\n        /* \"#utility.yul\":9716:9737   */\n      swap10\n      pop\n        /* \"#utility.yul\":9375:9747   */\n      pop\n        /* \"#utility.yul\":9362:9363   */\n      0x01\n        /* \"#utility.yul\":9359:9360   */\n      dup2\n        /* \"#utility.yul\":9355:9364   */\n      add\n        /* \"#utility.yul\":9350:9364   */\n      swap1\n      pop\n        /* \"#utility.yul\":9315:9747   */\n      jump(tag_607)\n    tag_609:\n        /* \"#utility.yul\":9319:9333   */\n      pop\n        /* \"#utility.yul\":9763:9767   */\n      dup3\n        /* \"#utility.yul\":9756:9767   */\n      swap8\n      pop\n        /* \"#utility.yul\":9783:9786   */\n      dup8\n        /* \"#utility.yul\":9776:9786   */\n      swap6\n      pop\n        /* \"#utility.yul\":8873:9792   */\n      pop\n      pop\n      pop\n      pop\n      pop\n      swap3\n      swap2\n      pop\n      pop\n      jump\t// out\n        /* \"#utility.yul\":9798:9897   */\n    tag_613:\n        /* \"#utility.yul\":9869:9890   */\n      tag_615\n        /* \"#utility.yul\":9884:9889   */\n      dup2\n        /* \"#utility.yul\":9869:9890   */\n      tag_616\n      jump\t// in\n    tag_615:\n        /* \"#utility.yul\":9864:9867   */\n      dup3\n        /* \"#utility.yul\":9857:9891   */\n      mstore\n        /* \"#utility.yul\":9847:9897   */\n      pop\n      pop\n      jump\t// out\n        /* \"#utility.yul\":9903:10012   */\n    tag_617:\n        /* \"#utility.yul\":9984:10005   */\n      tag_619\n        /* \"#utility.yul\":9999:10004   */\n      dup2\n        /* \"#utility.yul\":9984:10005   */\n      tag_616\n      jump\t// in\n    tag_619:\n        /* \"#utility.yul\":9979:9982   */\n      dup3\n        /* \"#utility.yul\":9972:10006   */\n      mstore\n        /* \"#utility.yul\":9962:10012   */\n      pop\n      pop\n      jump\t// out\n        /* \"#utility.yul\":10018:10362   */\n    tag_620:\n      0x00\n        /* \"#utility.yul\":10124:10163   */\n      tag_622\n        /* \"#utility.yul\":10157:10162   */\n      dup3\n        /* \"#utility.yul\":10124:10163   */\n      tag_623\n      jump\t// in\n    tag_622:\n        /* \"#utility.yul\":10179:10240   */\n      tag_624\n        /* \"#utility.yul\":10233:10239   */\n      dup2\n        /* \"#utility.yul\":10228:10231   */\n      dup6\n        /* \"#utility.yul\":10179:10240   */\n      tag_625\n      jump\t// in\n    tag_624:\n        /* \"#utility.yul\":10172:10240   */\n      swap4\n      pop\n        /* \"#utility.yul\":10249:10301   */\n      tag_626\n        /* \"#utility.yul\":10294:10300   */\n      dup2\n        /* \"#utility.yul\":10289:10292   */\n      dup6\n        /* \"#utility.yul\":10282:10286   */\n      0x20\n        /* \"#utility.yul\":10275:10280   */\n      dup7\n        /* \"#utility.yul\":10271:10287   */\n      add\n        /* \"#utility.yul\":10249:10301   */\n      tag_627\n      jump\t// in\n    tag_626:\n        /* \"#utility.yul\":10326:10355   */\n      tag_628\n        /* \"#utility.yul\":10348:10354   */\n      dup2\n        /* \"#utility.yul\":10326:10355   */\n      tag_629\n      jump\t// in\n    tag_628:\n        /* \"#utility.yul\":10321:10324   */\n      dup5\n        /* \"#utility.yul\":10317:10356   */\n      add\n        /* \"#utility.yul\":10310:10356   */\n      swap2\n      pop\n        /* \"#utility.yul\":10100:10362   */\n      pop\n      swap3\n      swap2\n      pop\n      pop\n      jump\t// out\n        /* \"#utility.yul\":10368:10732   */\n    tag_630:\n      0x00\n        /* \"#utility.yul\":10484:10523   */\n      tag_632\n        /* \"#utility.yul\":10517:10522   */\n      dup3\n        /* \"#utility.yul\":10484:10523   */\n      tag_623\n      jump\t// in\n    tag_632:\n        /* \"#utility.yul\":10539:10610   */\n      tag_633\n        /* \"#utility.yul\":10603:10609   */\n      dup2\n        /* \"#utility.yul\":10598:10601   */\n      dup6\n        /* \"#utility.yul\":10539:10610   */\n      tag_634\n      jump\t// in\n    tag_633:\n        /* \"#utility.yul\":10532:10610   */\n      swap4\n      pop\n        /* \"#utility.yul\":10619:10671   */\n      tag_635\n        /* \"#utility.yul\":10664:10670   */\n      dup2\n        /* \"#utility.yul\":10659:10662   */\n      dup6\n        /* \"#utility.yul\":10652:10656   */\n      0x20\n        /* \"#utility.yul\":10645:10650   */\n      dup7\n        /* \"#utility.yul\":10641:10657   */\n      add\n        /* \"#utility.yul\":10619:10671   */\n      tag_627\n      jump\t// in\n    tag_635:\n        /* \"#utility.yul\":10696:10725   */\n      tag_636\n        /* \"#utility.yul\":10718:10724   */\n      dup2\n        /* \"#utility.yul\":10696:10725   */\n      tag_629\n      jump\t// in\n    tag_636:\n        /* \"#utility.yul\":10691:10694   */\n      dup5\n        /* \"#utility.yul\":10687:10726   */\n      add\n        /* \"#utility.yul\":10680:10726   */\n      swap2\n      pop\n        /* \"#utility.yul\":10460:10732   */\n      pop\n      swap3\n      swap2\n      pop\n      pop\n      jump\t// out\n        /* \"#utility.yul\":10762:11699   */\n    tag_637:\n      0x00\n        /* \"#utility.yul\":10884:10889   */\n      dup2\n        /* \"#utility.yul\":10878:10890   */\n      sload\n        /* \"#utility.yul\":10921:10922   */\n      0x01\n        /* \"#utility.yul\":10910:10919   */\n      dup2\n        /* \"#utility.yul\":10906:10923   */\n      and\n        /* \"#utility.yul\":10937:10938   */\n      0x00\n        /* \"#utility.yul\":10932:11213   */\n      dup2\n      eq\n      tag_640\n      jumpi\n        /* \"#utility.yul\":11227:11228   */\n      0x01\n        /* \"#utility.yul\":11222:11693   */\n      dup2\n      eq\n      tag_641\n      jumpi\n        /* \"#utility.yul\":10899:11693   */\n      jump(tag_639)\n        /* \"#utility.yul\":10932:11213   */\n    tag_640:\n        /* \"#utility.yul\":11022:11026   */\n      0x7f\n        /* \"#utility.yul\":11018:11019   */\n      0x02\n        /* \"#utility.yul\":11007:11016   */\n      dup4\n        /* \"#utility.yul\":11003:11020   */\n      div\n        /* \"#utility.yul\":10999:11027   */\n      and\n        /* \"#utility.yul\":11047:11118   */\n      tag_642\n        /* \"#utility.yul\":11111:11117   */\n      dup2\n        /* \"#utility.yul\":11106:11109   */\n      dup8\n        /* \"#utility.yul\":11047:11118   */\n      tag_634\n      jump\t// in\n    tag_642:\n        /* \"#utility.yul\":11040:11118   */\n      swap6\n      pop\n        /* \"#utility.yul\":11162:11166   */\n      0xff\n        /* \"#utility.yul\":11158:11167   */\n      not\n        /* \"#utility.yul\":11147:11156   */\n      dup4\n        /* \"#utility.yul\":11143:11168   */\n      and\n        /* \"#utility.yul\":11138:11141   */\n      dup7\n        /* \"#utility.yul\":11131:11169   */\n      mstore\n        /* \"#utility.yul\":11198:11202   */\n      0x20\n        /* \"#utility.yul\":11193:11196   */\n      dup7\n        /* \"#utility.yul\":11189:11203   */\n      add\n        /* \"#utility.yul\":11182:11203   */\n      swap4\n      pop\n        /* \"#utility.yul\":10939:11213   */\n      pop\n        /* \"#utility.yul\":10932:11213   */\n      jump(tag_639)\n        /* \"#utility.yul\":11222:11693   */\n    tag_641:\n        /* \"#utility.yul\":11303:11304   */\n      0x02\n        /* \"#utility.yul\":11292:11301   */\n      dup3\n        /* \"#utility.yul\":11288:11305   */\n      div\n        /* \"#utility.yul\":11325:11396   */\n      tag_643\n        /* \"#utility.yul\":11389:11395   */\n      dup2\n        /* \"#utility.yul\":11384:11387   */\n      dup8\n        /* \"#utility.yul\":11325:11396   */\n      tag_634\n      jump\t// in\n    tag_643:\n        /* \"#utility.yul\":11318:11396   */\n      swap6\n      pop\n        /* \"#utility.yul\":11424:11462   */\n      tag_644\n        /* \"#utility.yul\":11456:11461   */\n      dup6\n        /* \"#utility.yul\":11424:11462   */\n      tag_645\n      jump\t// in\n    tag_644:\n        /* \"#utility.yul\":11484:11485   */\n      0x00\n        /* \"#utility.yul\":11498:11652   */\n    tag_646:\n        /* \"#utility.yul\":11512:11518   */\n      dup3\n        /* \"#utility.yul\":11509:11510   */\n      dup2\n        /* \"#utility.yul\":11506:11519   */\n      lt\n        /* \"#utility.yul\":11498:11652   */\n      iszero\n      tag_648\n      jumpi\n        /* \"#utility.yul\":11586:11593   */\n      dup2\n        /* \"#utility.yul\":11580:11594   */\n      sload\n        /* \"#utility.yul\":11576:11577   */\n      dup2\n        /* \"#utility.yul\":11571:11574   */\n      dup10\n        /* \"#utility.yul\":11567:11578   */\n      add\n        /* \"#utility.yul\":11560:11595   */\n      mstore\n        /* \"#utility.yul\":11636:11637   */\n      0x01\n        /* \"#utility.yul\":11627:11634   */\n      dup3\n        /* \"#utility.yul\":11623:11638   */\n      add\n        /* \"#utility.yul\":11612:11638   */\n      swap2\n      pop\n        /* \"#utility.yul\":11534:11538   */\n      0x20\n        /* \"#utility.yul\":11531:11532   */\n      dup2\n        /* \"#utility.yul\":11527:11539   */\n      add\n        /* \"#utility.yul\":11522:11539   */\n      swap1\n      pop\n        /* \"#utility.yul\":11498:11652   */\n      jump(tag_646)\n    tag_648:\n        /* \"#utility.yul\":11681:11682   */\n      dup1\n        /* \"#utility.yul\":11676:11679   */\n      dup9\n        /* \"#utility.yul\":11672:11683   */\n      add\n        /* \"#utility.yul\":11665:11683   */\n      swap6\n      pop\n        /* \"#utility.yul\":11229:11693   */\n      pop\n      pop\n      pop\n        /* \"#utility.yul\":10899:11693   */\n    tag_639:\n      pop\n        /* \"#utility.yul\":10851:11699   */\n      pop\n      swap3\n      swap2\n      pop\n      pop\n      jump\t// out\n        /* \"#utility.yul\":11705:12019   */\n    tag_649:\n      0x00\n        /* \"#utility.yul\":11868:11935   */\n      tag_651\n        /* \"#utility.yul\":11932:11934   */\n      0x10\n        /* \"#utility.yul\":11927:11930   */\n      dup4\n        /* \"#utility.yul\":11868:11935   */\n      tag_634\n      jump\t// in\n    tag_651:\n        /* \"#utility.yul\":11861:11935   */\n      swap2\n      pop\n        /* \"#utility.yul\":11965:11983   */\n      0x446f63746f72206e6f7420666f756e6400000000000000000000000000000000\n        /* \"#utility.yul\":11961:11962   */\n      0x00\n        /* \"#utility.yul\":11956:11959   */\n      dup4\n        /* \"#utility.yul\":11952:11963   */\n      add\n        /* \"#utility.yul\":11945:11984   */\n      mstore\n        /* \"#utility.yul\":12010:12012   */\n      0x20\n        /* \"#utility.yul\":12005:12008   */\n      dup3\n        /* \"#utility.yul\":12001:12013   */\n      add\n        /* \"#utility.yul\":11994:12013   */\n      swap1\n      pop\n        /* \"#utility.yul\":11851:12019   */\n      swap2\n      swap1\n      pop\n      jump\t// out\n        /* \"#utility.yul\":12025:12339   */\n    tag_652:\n      0x00\n        /* \"#utility.yul\":12188:12255   */\n      tag_654\n        /* \"#utility.yul\":12252:12254   */\n      0x10\n        /* \"#utility.yul\":12247:12250   */\n      dup4\n        /* \"#utility.yul\":12188:12255   */\n      tag_634\n      jump\t// in\n    tag_654:\n        /* \"#utility.yul\":12181:12255   */\n      swap2\n      pop\n        /* \"#utility.yul\":12285:12303   */\n      0x53656e736f72206e6f7420666f756e6400000000000000000000000000000000\n        /* \"#utility.yul\":12281:12282   */\n      0x00\n        /* \"#utility.yul\":12276:12279   */\n      dup4\n        /* \"#utility.yul\":12272:12283   */\n      add\n        /* \"#utility.yul\":12265:12304   */\n      mstore\n        /* \"#utility.yul\":12330:12332   */\n      0x20\n        /* \"#utility.yul\":12325:12328   */\n      dup3\n        /* \"#utility.yul\":12321:12333   */\n      add\n        /* \"#utility.yul\":12314:12333   */\n      swap1\n      pop\n        /* \"#utility.yul\":12171:12339   */\n      swap2\n      swap1\n      pop\n      jump\t// out\n        /* \"#utility.yul\":12345:12661   */\n    tag_655:\n      0x00\n        /* \"#utility.yul\":12508:12575   */\n      tag_657\n        /* \"#utility.yul\":12572:12574   */\n      0x12\n        /* \"#utility.yul\":12567:12570   */\n      dup4\n        /* \"#utility.yul\":12508:12575   */\n      tag_634\n      jump\t// in\n    tag_657:\n        /* \"#utility.yul\":12501:12575   */\n      swap2\n      pop\n        /* \"#utility.yul\":12605:12625   */\n      0x486f73706974616c206e6f7420666f756e640000000000000000000000000000\n        /* \"#utility.yul\":12601:12602   */\n      0x00\n        /* \"#utility.yul\":12596:12599   */\n      dup4\n        /* \"#utility.yul\":12592:12603   */\n      add\n        /* \"#utility.yul\":12585:12626   */\n      mstore\n        /* \"#utility.yul\":12652:12654   */\n      0x20\n        /* \"#utility.yul\":12647:12650   */\n      dup3\n        /* \"#utility.yul\":12643:12655   */\n      add\n        /* \"#utility.yul\":12636:12655   */\n      swap1\n      pop\n        /* \"#utility.yul\":12491:12661   */\n      swap2\n      swap1\n      pop\n      jump\t// out\n        /* \"#utility.yul\":12721:13673   */\n    tag_555:\n      0x00\n        /* \"#utility.yul\":12860:12864   */\n      0x80\n        /* \"#utility.yul\":12855:12858   */\n      dup4\n        /* \"#utility.yul\":12851:12865   */\n      add\n        /* \"#utility.yul\":12951:12955   */\n      0x00\n        /* \"#utility.yul\":12944:12949   */\n      dup4\n        /* \"#utility.yul\":12940:12956   */\n      add\n        /* \"#utility.yul\":12934:12957   */\n      mload\n        /* \"#utility.yul\":12970:13033   */\n      tag_659\n        /* \"#utility.yul\":13027:13031   */\n      0x00\n        /* \"#utility.yul\":13022:13025   */\n      dup7\n        /* \"#utility.yul\":13018:13032   */\n      add\n        /* \"#utility.yul\":13004:13016   */\n      dup3\n        /* \"#utility.yul\":12970:13033   */\n      tag_564\n      jump\t// in\n    tag_659:\n        /* \"#utility.yul\":12875:13043   */\n      pop\n        /* \"#utility.yul\":13131:13135   */\n      0x20\n        /* \"#utility.yul\":13124:13129   */\n      dup4\n        /* \"#utility.yul\":13120:13136   */\n      add\n        /* \"#utility.yul\":13114:13137   */\n      mload\n        /* \"#utility.yul\":13184:13187   */\n      dup5\n        /* \"#utility.yul\":13178:13182   */\n      dup3\n        /* \"#utility.yul\":13174:13188   */\n      sub\n        /* \"#utility.yul\":13167:13171   */\n      0x20\n        /* \"#utility.yul\":13162:13165   */\n      dup7\n        /* \"#utility.yul\":13158:13172   */\n      add\n        /* \"#utility.yul\":13151:13189   */\n      mstore\n        /* \"#utility.yul\":13210:13283   */\n      tag_660\n        /* \"#utility.yul\":13278:13282   */\n      dup3\n        /* \"#utility.yul\":13264:13276   */\n      dup3\n        /* \"#utility.yul\":13210:13283   */\n      tag_620\n      jump\t// in\n    tag_660:\n        /* \"#utility.yul\":13202:13283   */\n      swap2\n      pop\n        /* \"#utility.yul\":13053:13294   */\n      pop\n        /* \"#utility.yul\":13380:13384   */\n      0x40\n        /* \"#utility.yul\":13373:13378   */\n      dup4\n        /* \"#utility.yul\":13369:13385   */\n      add\n        /* \"#utility.yul\":13363:13386   */\n      mload\n        /* \"#utility.yul\":13399:13462   */\n      tag_661\n        /* \"#utility.yul\":13456:13460   */\n      0x40\n        /* \"#utility.yul\":13451:13454   */\n      dup7\n        /* \"#utility.yul\":13447:13461   */\n      add\n        /* \"#utility.yul\":13433:13445   */\n      dup3\n        /* \"#utility.yul\":13399:13462   */\n      tag_564\n      jump\t// in\n    tag_661:\n        /* \"#utility.yul\":13304:13472   */\n      pop\n        /* \"#utility.yul\":13560:13564   */\n      0x60\n        /* \"#utility.yul\":13553:13558   */\n      dup4\n        /* \"#utility.yul\":13549:13565   */\n      add\n        /* \"#utility.yul\":13543:13566   */\n      mload\n        /* \"#utility.yul\":13579:13636   */\n      tag_662\n        /* \"#utility.yul\":13630:13634   */\n      0x60\n        /* \"#utility.yul\":13625:13628   */\n      dup7\n        /* \"#utility.yul\":13621:13635   */\n      add\n        /* \"#utility.yul\":13607:13619   */\n      dup3\n        /* \"#utility.yul\":13579:13636   */\n      tag_613\n      jump\t// in\n    tag_662:\n        /* \"#utility.yul\":13482:13646   */\n      pop\n        /* \"#utility.yul\":13663:13667   */\n      dup1\n        /* \"#utility.yul\":13656:13667   */\n      swap2\n      pop\n        /* \"#utility.yul\":12829:13673   */\n      pop\n      swap3\n      swap2\n      pop\n      pop\n      jump\t// out\n        /* \"#utility.yul\":13737:15182   */\n    tag_559:\n      0x00\n        /* \"#utility.yul\":13880:13884   */\n      0xc0\n        /* \"#utility.yul\":13875:13878   */\n      dup4\n        /* \"#utility.yul\":13871:13885   */\n      add\n        /* \"#utility.yul\":13973:13977   */\n      0x00\n        /* \"#utility.yul\":13966:13971   */\n      dup4\n        /* \"#utility.yul\":13962:13978   */\n      add\n        /* \"#utility.yul\":13956:13979   */\n      mload\n        /* \"#utility.yul\":13992:14055   */\n      tag_664\n        /* \"#utility.yul\":14049:14053   */\n      0x00\n        /* \"#utility.yul\":14044:14047   */\n      dup7\n        /* \"#utility.yul\":14040:14054   */\n      add\n        /* \"#utility.yul\":14026:14038   */\n      dup3\n        /* \"#utility.yul\":13992:14055   */\n      tag_564\n      jump\t// in\n    tag_664:\n        /* \"#utility.yul\":13895:14065   */\n      pop\n        /* \"#utility.yul\":14147:14151   */\n      0x20\n        /* \"#utility.yul\":14140:14145   */\n      dup4\n        /* \"#utility.yul\":14136:14152   */\n      add\n        /* \"#utility.yul\":14130:14153   */\n      mload\n        /* \"#utility.yul\":14200:14203   */\n      dup5\n        /* \"#utility.yul\":14194:14198   */\n      dup3\n        /* \"#utility.yul\":14190:14204   */\n      sub\n        /* \"#utility.yul\":14183:14187   */\n      0x20\n        /* \"#utility.yul\":14178:14181   */\n      dup7\n        /* \"#utility.yul\":14174:14188   */\n      add\n        /* \"#utility.yul\":14167:14205   */\n      mstore\n        /* \"#utility.yul\":14226:14299   */\n      tag_665\n        /* \"#utility.yul\":14294:14298   */\n      dup3\n        /* \"#utility.yul\":14280:14292   */\n      dup3\n        /* \"#utility.yul\":14226:14299   */\n      tag_620\n      jump\t// in\n    tag_665:\n        /* \"#utility.yul\":14218:14299   */\n      swap2\n      pop\n        /* \"#utility.yul\":14075:14310   */\n      pop\n        /* \"#utility.yul\":14392:14396   */\n      0x40\n        /* \"#utility.yul\":14385:14390   */\n      dup4\n        /* \"#utility.yul\":14381:14397   */\n      add\n        /* \"#utility.yul\":14375:14398   */\n      mload\n        /* \"#utility.yul\":14445:14448   */\n      dup5\n        /* \"#utility.yul\":14439:14443   */\n      dup3\n        /* \"#utility.yul\":14435:14449   */\n      sub\n        /* \"#utility.yul\":14428:14432   */\n      0x40\n        /* \"#utility.yul\":14423:14426   */\n      dup7\n        /* \"#utility.yul\":14419:14433   */\n      add\n        /* \"#utility.yul\":14412:14450   */\n      mstore\n        /* \"#utility.yul\":14471:14544   */\n      tag_666\n        /* \"#utility.yul\":14539:14543   */\n      dup3\n        /* \"#utility.yul\":14525:14537   */\n      dup3\n        /* \"#utility.yul\":14471:14544   */\n      tag_620\n      jump\t// in\n    tag_666:\n        /* \"#utility.yul\":14463:14544   */\n      swap2\n      pop\n        /* \"#utility.yul\":14320:14555   */\n      pop\n        /* \"#utility.yul\":14638:14642   */\n      0x60\n        /* \"#utility.yul\":14631:14636   */\n      dup4\n        /* \"#utility.yul\":14627:14643   */\n      add\n        /* \"#utility.yul\":14621:14644   */\n      mload\n        /* \"#utility.yul\":14691:14694   */\n      dup5\n        /* \"#utility.yul\":14685:14689   */\n      dup3\n        /* \"#utility.yul\":14681:14695   */\n      sub\n        /* \"#utility.yul\":14674:14678   */\n      0x60\n        /* \"#utility.yul\":14669:14672   */\n      dup7\n        /* \"#utility.yul\":14665:14679   */\n      add\n        /* \"#utility.yul\":14658:14696   */\n      mstore\n        /* \"#utility.yul\":14717:14790   */\n      tag_667\n        /* \"#utility.yul\":14785:14789   */\n      dup3\n        /* \"#utility.yul\":14771:14783   */\n      dup3\n        /* \"#utility.yul\":14717:14790   */\n      tag_620\n      jump\t// in\n    tag_667:\n        /* \"#utility.yul\":14709:14790   */\n      swap2\n      pop\n        /* \"#utility.yul\":14565:14801   */\n      pop\n        /* \"#utility.yul\":14889:14893   */\n      0x80\n        /* \"#utility.yul\":14882:14887   */\n      dup4\n        /* \"#utility.yul\":14878:14894   */\n      add\n        /* \"#utility.yul\":14872:14895   */\n      mload\n        /* \"#utility.yul\":14908:14971   */\n      tag_668\n        /* \"#utility.yul\":14965:14969   */\n      0x80\n        /* \"#utility.yul\":14960:14963   */\n      dup7\n        /* \"#utility.yul\":14956:14970   */\n      add\n        /* \"#utility.yul\":14942:14954   */\n      dup3\n        /* \"#utility.yul\":14908:14971   */\n      tag_669\n      jump\t// in\n    tag_668:\n        /* \"#utility.yul\":14811:14981   */\n      pop\n        /* \"#utility.yul\":15069:15073   */\n      0xa0\n        /* \"#utility.yul\":15062:15067   */\n      dup4\n        /* \"#utility.yul\":15058:15074   */\n      add\n        /* \"#utility.yul\":15052:15075   */\n      mload\n        /* \"#utility.yul\":15088:15145   */\n      tag_670\n        /* \"#utility.yul\":15139:15143   */\n      0xa0\n        /* \"#utility.yul\":15134:15137   */\n      dup7\n        /* \"#utility.yul\":15130:15144   */\n      add\n        /* \"#utility.yul\":15116:15128   */\n      dup3\n        /* \"#utility.yul\":15088:15145   */\n      tag_613\n      jump\t// in\n    tag_670:\n        /* \"#utility.yul\":14991:15155   */\n      pop\n        /* \"#utility.yul\":15172:15176   */\n      dup1\n        /* \"#utility.yul\":15165:15176   */\n      swap2\n      pop\n        /* \"#utility.yul\":13849:15182   */\n      pop\n      swap3\n      swap2\n      pop\n      pop\n      jump\t// out\n        /* \"#utility.yul\":15242:16435   */\n    tag_563:\n      0x00\n        /* \"#utility.yul\":15381:15385   */\n      0xa0\n        /* \"#utility.yul\":15376:15379   */\n      dup4\n        /* \"#utility.yul\":15372:15386   */\n      add\n        /* \"#utility.yul\":15472:15476   */\n      0x00\n        /* \"#utility.yul\":15465:15470   */\n      dup4\n        /* \"#utility.yul\":15461:15477   */\n      add\n        /* \"#utility.yul\":15455:15478   */\n      mload\n        /* \"#utility.yul\":15491:15554   */\n      tag_672\n        /* \"#utility.yul\":15548:15552   */\n      0x00\n        /* \"#utility.yul\":15543:15546   */\n      dup7\n        /* \"#utility.yul\":15539:15553   */\n      add\n        /* \"#utility.yul\":15525:15537   */\n      dup3\n        /* \"#utility.yul\":15491:15554   */\n      tag_669\n      jump\t// in\n    tag_672:\n        /* \"#utility.yul\":15396:15564   */\n      pop\n        /* \"#utility.yul\":15645:15649   */\n      0x20\n        /* \"#utility.yul\":15638:15643   */\n      dup4\n        /* \"#utility.yul\":15634:15650   */\n      add\n        /* \"#utility.yul\":15628:15651   */\n      mload\n        /* \"#utility.yul\":15698:15701   */\n      dup5\n        /* \"#utility.yul\":15692:15696   */\n      dup3\n        /* \"#utility.yul\":15688:15702   */\n      sub\n        /* \"#utility.yul\":15681:15685   */\n      0x20\n        /* \"#utility.yul\":15676:15679   */\n      dup7\n        /* \"#utility.yul\":15672:15686   */\n      add\n        /* \"#utility.yul\":15665:15703   */\n      mstore\n        /* \"#utility.yul\":15724:15797   */\n      tag_673\n        /* \"#utility.yul\":15792:15796   */\n      dup3\n        /* \"#utility.yul\":15778:15790   */\n      dup3\n        /* \"#utility.yul\":15724:15797   */\n      tag_620\n      jump\t// in\n    tag_673:\n        /* \"#utility.yul\":15716:15797   */\n      swap2\n      pop\n        /* \"#utility.yul\":15574:15808   */\n      pop\n        /* \"#utility.yul\":15897:15901   */\n      0x40\n        /* \"#utility.yul\":15890:15895   */\n      dup4\n        /* \"#utility.yul\":15886:15902   */\n      add\n        /* \"#utility.yul\":15880:15903   */\n      mload\n        /* \"#utility.yul\":15950:15953   */\n      dup5\n        /* \"#utility.yul\":15944:15948   */\n      dup3\n        /* \"#utility.yul\":15940:15954   */\n      sub\n        /* \"#utility.yul\":15933:15937   */\n      0x40\n        /* \"#utility.yul\":15928:15931   */\n      dup7\n        /* \"#utility.yul\":15924:15938   */\n      add\n        /* \"#utility.yul\":15917:15955   */\n      mstore\n        /* \"#utility.yul\":15976:16049   */\n      tag_674\n        /* \"#utility.yul\":16044:16048   */\n      dup3\n        /* \"#utility.yul\":16030:16042   */\n      dup3\n        /* \"#utility.yul\":15976:16049   */\n      tag_620\n      jump\t// in\n    tag_674:\n        /* \"#utility.yul\":15968:16049   */\n      swap2\n      pop\n        /* \"#utility.yul\":15818:16060   */\n      pop\n        /* \"#utility.yul\":16146:16150   */\n      0x60\n        /* \"#utility.yul\":16139:16144   */\n      dup4\n        /* \"#utility.yul\":16135:16151   */\n      add\n        /* \"#utility.yul\":16129:16152   */\n      mload\n        /* \"#utility.yul\":16165:16228   */\n      tag_675\n        /* \"#utility.yul\":16222:16226   */\n      0x60\n        /* \"#utility.yul\":16217:16220   */\n      dup7\n        /* \"#utility.yul\":16213:16227   */\n      add\n        /* \"#utility.yul\":16199:16211   */\n      dup3\n        /* \"#utility.yul\":16165:16228   */\n      tag_564\n      jump\t// in\n    tag_675:\n        /* \"#utility.yul\":16070:16238   */\n      pop\n        /* \"#utility.yul\":16322:16326   */\n      0x80\n        /* \"#utility.yul\":16315:16320   */\n      dup4\n        /* \"#utility.yul\":16311:16327   */\n      add\n        /* \"#utility.yul\":16305:16328   */\n      mload\n        /* \"#utility.yul\":16341:16398   */\n      tag_676\n        /* \"#utility.yul\":16392:16396   */\n      0x80\n        /* \"#utility.yul\":16387:16390   */\n      dup7\n        /* \"#utility.yul\":16383:16397   */\n      add\n        /* \"#utility.yul\":16369:16381   */\n      dup3\n        /* \"#utility.yul\":16341:16398   */\n      tag_613\n      jump\t// in\n    tag_676:\n        /* \"#utility.yul\":16248:16408   */\n      pop\n        /* \"#utility.yul\":16425:16429   */\n      dup1\n        /* \"#utility.yul\":16418:16429   */\n      swap2\n      pop\n        /* \"#utility.yul\":15350:16435   */\n      pop\n      swap3\n      swap2\n      pop\n      pop\n      jump\t// out\n        /* \"#utility.yul\":16441:16549   */\n    tag_669:\n        /* \"#utility.yul\":16518:16542   */\n      tag_678\n        /* \"#utility.yul\":16536:16541   */\n      dup2\n        /* \"#utility.yul\":16518:16542   */\n      tag_679\n      jump\t// in\n    tag_678:\n        /* \"#utility.yul\":16513:16516   */\n      dup3\n        /* \"#utility.yul\":16506:16543   */\n      mstore\n        /* \"#utility.yul\":16496:16549   */\n      pop\n      pop\n      jump\t// out\n        /* \"#utility.yul\":16555:16673   */\n    tag_680:\n        /* \"#utility.yul\":16642:16666   */\n      tag_682\n        /* \"#utility.yul\":16660:16665   */\n      dup2\n        /* \"#utility.yul\":16642:16666   */\n      tag_679\n      jump\t// in\n    tag_682:\n        /* \"#utility.yul\":16637:16640   */\n      dup3\n        /* \"#utility.yul\":16630:16667   */\n      mstore\n        /* \"#utility.yul\":16620:16673   */\n      pop\n      pop\n      jump\t// out\n        /* \"#utility.yul\":16679:17311   */\n    tag_89:\n      0x00\n        /* \"#utility.yul\":16908:16911   */\n      0x80\n        /* \"#utility.yul\":16897:16906   */\n      dup3\n        /* \"#utility.yul\":16893:16912   */\n      add\n        /* \"#utility.yul\":16885:16912   */\n      swap1\n      pop\n        /* \"#utility.yul\":16922:16993   */\n      tag_684\n        /* \"#utility.yul\":16990:16991   */\n      0x00\n        /* \"#utility.yul\":16979:16988   */\n      dup4\n        /* \"#utility.yul\":16975:16992   */\n      add\n        /* \"#utility.yul\":16966:16972   */\n      dup8\n        /* \"#utility.yul\":16922:16993   */\n      tag_568\n      jump\t// in\n    tag_684:\n        /* \"#utility.yul\":17040:17049   */\n      dup2\n        /* \"#utility.yul\":17034:17038   */\n      dup2\n        /* \"#utility.yul\":17030:17050   */\n      sub\n        /* \"#utility.yul\":17025:17027   */\n      0x20\n        /* \"#utility.yul\":17014:17023   */\n      dup4\n        /* \"#utility.yul\":17010:17028   */\n      add\n        /* \"#utility.yul\":17003:17051   */\n      mstore\n        /* \"#utility.yul\":17068:17146   */\n      tag_685\n        /* \"#utility.yul\":17141:17145   */\n      dup2\n        /* \"#utility.yul\":17132:17138   */\n      dup7\n        /* \"#utility.yul\":17068:17146   */\n      tag_630\n      jump\t// in\n    tag_685:\n        /* \"#utility.yul\":17060:17146   */\n      swap1\n      pop\n        /* \"#utility.yul\":17156:17228   */\n      tag_686\n        /* \"#utility.yul\":17224:17226   */\n      0x40\n        /* \"#utility.yul\":17213:17222   */\n      dup4\n        /* \"#utility.yul\":17209:17227   */\n      add\n        /* \"#utility.yul\":17200:17206   */\n      dup6\n        /* \"#utility.yul\":17156:17228   */\n      tag_568\n      jump\t// in\n    tag_686:\n        /* \"#utility.yul\":17238:17304   */\n      tag_687\n        /* \"#utility.yul\":17300:17302   */\n      0x60\n        /* \"#utility.yul\":17289:17298   */\n      dup4\n        /* \"#utility.yul\":17285:17303   */\n      add\n        /* \"#utility.yul\":17276:17282   */\n      dup5\n        /* \"#utility.yul\":17238:17304   */\n      tag_617\n      jump\t// in\n    tag_687:\n        /* \"#utility.yul\":16875:17311   */\n      swap6\n      swap5\n      pop\n      pop\n      pop\n      pop\n      pop\n      jump\t// out\n        /* \"#utility.yul\":17317:18353   */\n    tag_112:\n      0x00\n        /* \"#utility.yul\":17642:17645   */\n      0xc0\n        /* \"#utility.yul\":17631:17640   */\n      dup3\n        /* \"#utility.yul\":17627:17646   */\n      add\n        /* \"#utility.yul\":17619:17646   */\n      swap1\n      pop\n        /* \"#utility.yul\":17656:17727   */\n      tag_689\n        /* \"#utility.yul\":17724:17725   */\n      0x00\n        /* \"#utility.yul\":17713:17722   */\n      dup4\n        /* \"#utility.yul\":17709:17726   */\n      add\n        /* \"#utility.yul\":17700:17706   */\n      dup10\n        /* \"#utility.yul\":17656:17727   */\n      tag_568\n      jump\t// in\n    tag_689:\n        /* \"#utility.yul\":17774:17783   */\n      dup2\n        /* \"#utility.yul\":17768:17772   */\n      dup2\n        /* \"#utility.yul\":17764:17784   */\n      sub\n        /* \"#utility.yul\":17759:17761   */\n      0x20\n        /* \"#utility.yul\":17748:17757   */\n      dup4\n        /* \"#utility.yul\":17744:17762   */\n      add\n        /* \"#utility.yul\":17737:17785   */\n      mstore\n        /* \"#utility.yul\":17802:17880   */\n      tag_690\n        /* \"#utility.yul\":17875:17879   */\n      dup2\n        /* \"#utility.yul\":17866:17872   */\n      dup9\n        /* \"#utility.yul\":17802:17880   */\n      tag_630\n      jump\t// in\n    tag_690:\n        /* \"#utility.yul\":17794:17880   */\n      swap1\n      pop\n        /* \"#utility.yul\":17927:17936   */\n      dup2\n        /* \"#utility.yul\":17921:17925   */\n      dup2\n        /* \"#utility.yul\":17917:17937   */\n      sub\n        /* \"#utility.yul\":17912:17914   */\n      0x40\n        /* \"#utility.yul\":17901:17910   */\n      dup4\n        /* \"#utility.yul\":17897:17915   */\n      add\n        /* \"#utility.yul\":17890:17938   */\n      mstore\n        /* \"#utility.yul\":17955:18033   */\n      tag_691\n        /* \"#utility.yul\":18028:18032   */\n      dup2\n        /* \"#utility.yul\":18019:18025   */\n      dup8\n        /* \"#utility.yul\":17955:18033   */\n      tag_630\n      jump\t// in\n    tag_691:\n        /* \"#utility.yul\":17947:18033   */\n      swap1\n      pop\n        /* \"#utility.yul\":18080:18089   */\n      dup2\n        /* \"#utility.yul\":18074:18078   */\n      dup2\n        /* \"#utility.yul\":18070:18090   */\n      sub\n        /* \"#utility.yul\":18065:18067   */\n      0x60\n        /* \"#utility.yul\":18054:18063   */\n      dup4\n        /* \"#utility.yul\":18050:18068   */\n      add\n        /* \"#utility.yul\":18043:18091   */\n      mstore\n        /* \"#utility.yul\":18108:18186   */\n      tag_692\n        /* \"#utility.yul\":18181:18185   */\n      dup2\n        /* \"#utility.yul\":18172:18178   */\n      dup7\n        /* \"#utility.yul\":18108:18186   */\n      tag_630\n      jump\t// in\n    tag_692:\n        /* \"#utility.yul\":18100:18186   */\n      swap1\n      pop\n        /* \"#utility.yul\":18196:18269   */\n      tag_693\n        /* \"#utility.yul\":18264:18267   */\n      0x80\n        /* \"#utility.yul\":18253:18262   */\n      dup4\n        /* \"#utility.yul\":18249:18268   */\n      add\n        /* \"#utility.yul\":18240:18246   */\n      dup6\n        /* \"#utility.yul\":18196:18269   */\n      tag_680\n      jump\t// in\n    tag_693:\n        /* \"#utility.yul\":18279:18346   */\n      tag_694\n        /* \"#utility.yul\":18341:18344   */\n      0xa0\n        /* \"#utility.yul\":18330:18339   */\n      dup4\n        /* \"#utility.yul\":18326:18345   */\n      add\n        /* \"#utility.yul\":18317:18323   */\n      dup5\n        /* \"#utility.yul\":18279:18346   */\n      tag_617\n      jump\t// in\n    tag_694:\n        /* \"#utility.yul\":17609:18353   */\n      swap8\n      swap7\n      pop\n      pop\n      pop\n      pop\n      pop\n      pop\n      pop\n      jump\t// out\n        /* \"#utility.yul\":18359:18886   */\n    tag_205:\n      0x00\n        /* \"#utility.yul\":18563:18565   */\n      0x60\n        /* \"#utility.yul\":18552:18561   */\n      dup3\n        /* \"#utility.yul\":18548:18566   */\n      add\n        /* \"#utility.yul\":18540:18566   */\n      swap1\n      pop\n        /* \"#utility.yul\":18576:18647   */\n      tag_696\n        /* \"#utility.yul\":18644:18645   */\n      0x00\n        /* \"#utility.yul\":18633:18642   */\n      dup4\n        /* \"#utility.yul\":18629:18646   */\n      add\n        /* \"#utility.yul\":18620:18626   */\n      dup7\n        /* \"#utility.yul\":18576:18647   */\n      tag_568\n      jump\t// in\n    tag_696:\n        /* \"#utility.yul\":18694:18703   */\n      dup2\n        /* \"#utility.yul\":18688:18692   */\n      dup2\n        /* \"#utility.yul\":18684:18704   */\n      sub\n        /* \"#utility.yul\":18679:18681   */\n      0x20\n        /* \"#utility.yul\":18668:18677   */\n      dup4\n        /* \"#utility.yul\":18664:18682   */\n      add\n        /* \"#utility.yul\":18657:18705   */\n      mstore\n        /* \"#utility.yul\":18722:18797   */\n      tag_697\n        /* \"#utility.yul\":18792:18796   */\n      dup2\n        /* \"#utility.yul\":18783:18789   */\n      dup6\n        /* \"#utility.yul\":18722:18797   */\n      tag_637\n      jump\t// in\n    tag_697:\n        /* \"#utility.yul\":18714:18797   */\n      swap1\n      pop\n        /* \"#utility.yul\":18807:18879   */\n      tag_698\n        /* \"#utility.yul\":18875:18877   */\n      0x40\n        /* \"#utility.yul\":18864:18873   */\n      dup4\n        /* \"#utility.yul\":18860:18878   */\n      add\n        /* \"#utility.yul\":18851:18857   */\n      dup5\n        /* \"#utility.yul\":18807:18879   */\n      tag_568\n      jump\t// in\n    tag_698:\n        /* \"#utility.yul\":18530:18886   */\n      swap5\n      swap4\n      pop\n      pop\n      pop\n      pop\n      jump\t// out\n        /* \"#utility.yul\":18892:19518   */\n    tag_375:\n      0x00\n        /* \"#utility.yul\":19118:19121   */\n      0x80\n        /* \"#utility.yul\":19107:19116   */\n      dup3\n        /* \"#utility.yul\":19103:19122   */\n      add\n        /* \"#utility.yul\":19095:19122   */\n      swap1\n      pop\n        /* \"#utility.yul\":19132:19203   */\n      tag_700\n        /* \"#utility.yul\":19200:19201   */\n      0x00\n        /* \"#utility.yul\":19189:19198   */\n      dup4\n        /* \"#utility.yul\":19185:19202   */\n      add\n        /* \"#utility.yul\":19176:19182   */\n      dup8\n        /* \"#utility.yul\":19132:19203   */\n      tag_568\n      jump\t// in\n    tag_700:\n        /* \"#utility.yul\":19250:19259   */\n      dup2\n        /* \"#utility.yul\":19244:19248   */\n      dup2\n        /* \"#utility.yul\":19240:19260   */\n      sub\n        /* \"#utility.yul\":19235:19237   */\n      0x20\n        /* \"#utility.yul\":19224:19233   */\n      dup4\n        /* \"#utility.yul\":19220:19238   */\n      add\n        /* \"#utility.yul\":19213:19261   */\n      mstore\n        /* \"#utility.yul\":19278:19353   */\n      tag_701\n        /* \"#utility.yul\":19348:19352   */\n      dup2\n        /* \"#utility.yul\":19339:19345   */\n      dup7\n        /* \"#utility.yul\":19278:19353   */\n      tag_637\n      jump\t// in\n    tag_701:\n        /* \"#utility.yul\":19270:19353   */\n      swap1\n      pop\n        /* \"#utility.yul\":19363:19435   */\n      tag_702\n        /* \"#utility.yul\":19431:19433   */\n      0x40\n        /* \"#utility.yul\":19420:19429   */\n      dup4\n        /* \"#utility.yul\":19416:19434   */\n      add\n        /* \"#utility.yul\":19407:19413   */\n      dup6\n        /* \"#utility.yul\":19363:19435   */\n      tag_568\n      jump\t// in\n    tag_702:\n        /* \"#utility.yul\":19445:19511   */\n      tag_703\n        /* \"#utility.yul\":19507:19509   */\n      0x60\n        /* \"#utility.yul\":19496:19505   */\n      dup4\n        /* \"#utility.yul\":19492:19510   */\n      add\n        /* \"#utility.yul\":19483:19489   */\n      dup5\n        /* \"#utility.yul\":19445:19511   */\n      tag_617\n      jump\t// in\n    tag_703:\n        /* \"#utility.yul\":19085:19518   */\n      swap6\n      swap5\n      pop\n      pop\n      pop\n      pop\n      pop\n      jump\t// out\n        /* \"#utility.yul\":19524:20443   */\n    tag_182:\n      0x00\n        /* \"#utility.yul\":19818:19821   */\n      0xa0\n        /* \"#utility.yul\":19807:19816   */\n      dup3\n        /* \"#utility.yul\":19803:19822   */\n      add\n        /* \"#utility.yul\":19795:19822   */\n      swap1\n      pop\n        /* \"#utility.yul\":19832:19903   */\n      tag_705\n        /* \"#utility.yul\":19900:19901   */\n      0x00\n        /* \"#utility.yul\":19889:19898   */\n      dup4\n        /* \"#utility.yul\":19885:19902   */\n      add\n        /* \"#utility.yul\":19876:19882   */\n      dup9\n        /* \"#utility.yul\":19832:19903   */\n      tag_568\n      jump\t// in\n    tag_705:\n        /* \"#utility.yul\":19950:19959   */\n      dup2\n        /* \"#utility.yul\":19944:19948   */\n      dup2\n        /* \"#utility.yul\":19940:19960   */\n      sub\n        /* \"#utility.yul\":19935:19937   */\n      0x20\n        /* \"#utility.yul\":19924:19933   */\n      dup4\n        /* \"#utility.yul\":19920:19938   */\n      add\n        /* \"#utility.yul\":19913:19961   */\n      mstore\n        /* \"#utility.yul\":19978:20053   */\n      tag_706\n        /* \"#utility.yul\":20048:20052   */\n      dup2\n        /* \"#utility.yul\":20039:20045   */\n      dup8\n        /* \"#utility.yul\":19978:20053   */\n      tag_637\n      jump\t// in\n    tag_706:\n        /* \"#utility.yul\":19970:20053   */\n      swap1\n      pop\n        /* \"#utility.yul\":20100:20109   */\n      dup2\n        /* \"#utility.yul\":20094:20098   */\n      dup2\n        /* \"#utility.yul\":20090:20110   */\n      sub\n        /* \"#utility.yul\":20085:20087   */\n      0x40\n        /* \"#utility.yul\":20074:20083   */\n      dup4\n        /* \"#utility.yul\":20070:20088   */\n      add\n        /* \"#utility.yul\":20063:20111   */\n      mstore\n        /* \"#utility.yul\":20128:20203   */\n      tag_707\n        /* \"#utility.yul\":20198:20202   */\n      dup2\n        /* \"#utility.yul\":20189:20195   */\n      dup7\n        /* \"#utility.yul\":20128:20203   */\n      tag_637\n      jump\t// in\n    tag_707:\n        /* \"#utility.yul\":20120:20203   */\n      swap1\n      pop\n        /* \"#utility.yul\":20250:20259   */\n      dup2\n        /* \"#utility.yul\":20244:20248   */\n      dup2\n        /* \"#utility.yul\":20240:20260   */\n      sub\n        /* \"#utility.yul\":20235:20237   */\n      0x60\n        /* \"#utility.yul\":20224:20233   */\n      dup4\n        /* \"#utility.yul\":20220:20238   */\n      add\n        /* \"#utility.yul\":20213:20261   */\n      mstore\n        /* \"#utility.yul\":20278:20353   */\n      tag_708\n        /* \"#utility.yul\":20348:20352   */\n      dup2\n        /* \"#utility.yul\":20339:20345   */\n      dup6\n        /* \"#utility.yul\":20278:20353   */\n      tag_637\n      jump\t// in\n    tag_708:\n        /* \"#utility.yul\":20270:20353   */\n      swap1\n      pop\n        /* \"#utility.yul\":20363:20436   */\n      tag_709\n        /* \"#utility.yul\":20431:20434   */\n      0x80\n        /* \"#utility.yul\":20420:20429   */\n      dup4\n        /* \"#utility.yul\":20416:20435   */\n      add\n        /* \"#utility.yul\":20407:20413   */\n      dup5\n        /* \"#utility.yul\":20363:20436   */\n      tag_680\n      jump\t// in\n    tag_709:\n        /* \"#utility.yul\":19785:20443   */\n      swap7\n      swap6\n      pop\n      pop\n      pop\n      pop\n      pop\n      pop\n      jump\t// out\n        /* \"#utility.yul\":20449:21467   */\n    tag_243:\n      0x00\n        /* \"#utility.yul\":20765:20768   */\n      0xc0\n        /* \"#utility.yul\":20754:20763   */\n      dup3\n        /* \"#utility.yul\":20750:20769   */\n      add\n        /* \"#utility.yul\":20742:20769   */\n      swap1\n      pop\n        /* \"#utility.yul\":20779:20850   */\n      tag_711\n        /* \"#utility.yul\":20847:20848   */\n      0x00\n        /* \"#utility.yul\":20836:20845   */\n      dup4\n        /* \"#utility.yul\":20832:20849   */\n      add\n        /* \"#utility.yul\":20823:20829   */\n      dup10\n        /* \"#utility.yul\":20779:20850   */\n      tag_568\n      jump\t// in\n    tag_711:\n        /* \"#utility.yul\":20897:20906   */\n      dup2\n        /* \"#utility.yul\":20891:20895   */\n      dup2\n        /* \"#utility.yul\":20887:20907   */\n      sub\n        /* \"#utility.yul\":20882:20884   */\n      0x20\n        /* \"#utility.yul\":20871:20880   */\n      dup4\n        /* \"#utility.yul\":20867:20885   */\n      add\n        /* \"#utility.yul\":20860:20908   */\n      mstore\n        /* \"#utility.yul\":20925:21000   */\n      tag_712\n        /* \"#utility.yul\":20995:20999   */\n      dup2\n        /* \"#utility.yul\":20986:20992   */\n      dup9\n        /* \"#utility.yul\":20925:21000   */\n      tag_637\n      jump\t// in\n    tag_712:\n        /* \"#utility.yul\":20917:21000   */\n      swap1\n      pop\n        /* \"#utility.yul\":21047:21056   */\n      dup2\n        /* \"#utility.yul\":21041:21045   */\n      dup2\n        /* \"#utility.yul\":21037:21057   */\n      sub\n        /* \"#utility.yul\":21032:21034   */\n      0x40\n        /* \"#utility.yul\":21021:21030   */\n      dup4\n        /* \"#utility.yul\":21017:21035   */\n      add\n        /* \"#utility.yul\":21010:21058   */\n      mstore\n        /* \"#utility.yul\":21075:21150   */\n      tag_713\n        /* \"#utility.yul\":21145:21149   */\n      dup2\n        /* \"#utility.yul\":21136:21142   */\n      dup8\n        /* \"#utility.yul\":21075:21150   */\n      tag_637\n      jump\t// in\n    tag_713:\n        /* \"#utility.yul\":21067:21150   */\n      swap1\n      pop\n        /* \"#utility.yul\":21197:21206   */\n      dup2\n        /* \"#utility.yul\":21191:21195   */\n      dup2\n        /* \"#utility.yul\":21187:21207   */\n      sub\n        /* \"#utility.yul\":21182:21184   */\n      0x60\n        /* \"#utility.yul\":21171:21180   */\n      dup4\n        /* \"#utility.yul\":21167:21185   */\n      add\n        /* \"#utility.yul\":21160:21208   */\n      mstore\n        /* \"#utility.yul\":21225:21300   */\n      tag_714\n        /* \"#utility.yul\":21295:21299   */\n      dup2\n        /* \"#utility.yul\":21286:21292   */\n      dup7\n        /* \"#utility.yul\":21225:21300   */\n      tag_637\n      jump\t// in\n    tag_714:\n        /* \"#utility.yul\":21217:21300   */\n      swap1\n      pop\n        /* \"#utility.yul\":21310:21383   */\n      tag_715\n        /* \"#utility.yul\":21378:21381   */\n      0x80\n        /* \"#utility.yul\":21367:21376   */\n      dup4\n        /* \"#utility.yul\":21363:21382   */\n      add\n        /* \"#utility.yul\":21354:21360   */\n      dup6\n        /* \"#utility.yul\":21310:21383   */\n      tag_680\n      jump\t// in\n    tag_715:\n        /* \"#utility.yul\":21393:21460   */\n      tag_716\n        /* \"#utility.yul\":21455:21458   */\n      0xa0\n        /* \"#utility.yul\":21444:21453   */\n      dup4\n        /* \"#utility.yul\":21440:21459   */\n      add\n        /* \"#utility.yul\":21431:21437   */\n      dup5\n        /* \"#utility.yul\":21393:21460   */\n      tag_617\n      jump\t// in\n    tag_716:\n        /* \"#utility.yul\":20732:21467   */\n      swap8\n      swap7\n      pop\n      pop\n      pop\n      pop\n      pop\n      pop\n      pop\n      jump\t// out\n        /* \"#utility.yul\":21473:21934   */\n    tag_120:\n      0x00\n        /* \"#utility.yul\":21698:21700   */\n      0x20\n        /* \"#utility.yul\":21687:21696   */\n      dup3\n        /* \"#utility.yul\":21683:21701   */\n      add\n        /* \"#utility.yul\":21675:21701   */\n      swap1\n      pop\n        /* \"#utility.yul\":21747:21756   */\n      dup2\n        /* \"#utility.yul\":21741:21745   */\n      dup2\n        /* \"#utility.yul\":21737:21757   */\n      sub\n        /* \"#utility.yul\":21733:21734   */\n      0x00\n        /* \"#utility.yul\":21722:21731   */\n      dup4\n        /* \"#utility.yul\":21718:21735   */\n      add\n        /* \"#utility.yul\":21711:21758   */\n      mstore\n        /* \"#utility.yul\":21775:21927   */\n      tag_718\n        /* \"#utility.yul\":21922:21926   */\n      dup2\n        /* \"#utility.yul\":21913:21919   */\n      dup5\n        /* \"#utility.yul\":21775:21927   */\n      tag_571\n      jump\t// in\n    tag_718:\n        /* \"#utility.yul\":21767:21927   */\n      swap1\n      pop\n        /* \"#utility.yul\":21665:21934   */\n      swap3\n      swap2\n      pop\n      pop\n      jump\t// out\n        /* \"#utility.yul\":21940:22409   */\n    tag_67:\n      0x00\n        /* \"#utility.yul\":22169:22171   */\n      0x20\n        /* \"#utility.yul\":22158:22167   */\n      dup3\n        /* \"#utility.yul\":22154:22172   */\n      add\n        /* \"#utility.yul\":22146:22172   */\n      swap1\n      pop\n        /* \"#utility.yul\":22218:22227   */\n      dup2\n        /* \"#utility.yul\":22212:22216   */\n      dup2\n        /* \"#utility.yul\":22208:22228   */\n      sub\n        /* \"#utility.yul\":22204:22205   */\n      0x00\n        /* \"#utility.yul\":22193:22202   */\n      dup4\n        /* \"#utility.yul\":22189:22206   */\n      add\n        /* \"#utility.yul\":22182:22229   */\n      mstore\n        /* \"#utility.yul\":22246:22402   */\n      tag_720\n        /* \"#utility.yul\":22397:22401   */\n      dup2\n        /* \"#utility.yul\":22388:22394   */\n      dup5\n        /* \"#utility.yul\":22246:22402   */\n      tag_585\n      jump\t// in\n    tag_720:\n        /* \"#utility.yul\":22238:22402   */\n      swap1\n      pop\n        /* \"#utility.yul\":22136:22409   */\n      swap3\n      swap2\n      pop\n      pop\n      jump\t// out\n        /* \"#utility.yul\":22415:22876   */\n    tag_71:\n      0x00\n        /* \"#utility.yul\":22640:22642   */\n      0x20\n        /* \"#utility.yul\":22629:22638   */\n      dup3\n        /* \"#utility.yul\":22625:22643   */\n      add\n        /* \"#utility.yul\":22617:22643   */\n      swap1\n      pop\n        /* \"#utility.yul\":22689:22698   */\n      dup2\n        /* \"#utility.yul\":22683:22687   */\n      dup2\n        /* \"#utility.yul\":22679:22699   */\n      sub\n        /* \"#utility.yul\":22675:22676   */\n      0x00\n        /* \"#utility.yul\":22664:22673   */\n      dup4\n        /* \"#utility.yul\":22660:22677   */\n      add\n        /* \"#utility.yul\":22653:22700   */\n      mstore\n        /* \"#utility.yul\":22717:22869   */\n      tag_722\n        /* \"#utility.yul\":22864:22868   */\n      dup2\n        /* \"#utility.yul\":22855:22861   */\n      dup5\n        /* \"#utility.yul\":22717:22869   */\n      tag_599\n      jump\t// in\n    tag_722:\n        /* \"#utility.yul\":22709:22869   */\n      swap1\n      pop\n        /* \"#utility.yul\":22607:22876   */\n      swap3\n      swap2\n      pop\n      pop\n      jump\t// out\n        /* \"#utility.yul\":22882:23403   */\n    tag_79:\n      0x00\n        /* \"#utility.yul\":23083:23085   */\n      0x60\n        /* \"#utility.yul\":23072:23081   */\n      dup3\n        /* \"#utility.yul\":23068:23086   */\n      add\n        /* \"#utility.yul\":23060:23086   */\n      swap1\n      pop\n        /* \"#utility.yul\":23132:23141   */\n      dup2\n        /* \"#utility.yul\":23126:23130   */\n      dup2\n        /* \"#utility.yul\":23122:23142   */\n      sub\n        /* \"#utility.yul\":23118:23119   */\n      0x00\n        /* \"#utility.yul\":23107:23116   */\n      dup4\n        /* \"#utility.yul\":23103:23120   */\n      add\n        /* \"#utility.yul\":23096:23143   */\n      mstore\n        /* \"#utility.yul\":23160:23238   */\n      tag_724\n        /* \"#utility.yul\":23233:23237   */\n      dup2\n        /* \"#utility.yul\":23224:23230   */\n      dup7\n        /* \"#utility.yul\":23160:23238   */\n      tag_630\n      jump\t// in\n    tag_724:\n        /* \"#utility.yul\":23152:23238   */\n      swap1\n      pop\n        /* \"#utility.yul\":23248:23320   */\n      tag_725\n        /* \"#utility.yul\":23316:23318   */\n      0x20\n        /* \"#utility.yul\":23305:23314   */\n      dup4\n        /* \"#utility.yul\":23301:23319   */\n      add\n        /* \"#utility.yul\":23292:23298   */\n      dup6\n        /* \"#utility.yul\":23248:23320   */\n      tag_568\n      jump\t// in\n    tag_725:\n        /* \"#utility.yul\":23330:23396   */\n      tag_726\n        /* \"#utility.yul\":23392:23394   */\n      0x40\n        /* \"#utility.yul\":23381:23390   */\n      dup4\n        /* \"#utility.yul\":23377:23395   */\n      add\n        /* \"#utility.yul\":23368:23374   */\n      dup5\n        /* \"#utility.yul\":23330:23396   */\n      tag_617\n      jump\t// in\n    tag_726:\n        /* \"#utility.yul\":23050:23403   */\n      swap5\n      swap4\n      pop\n      pop\n      pop\n      pop\n      jump\t// out\n        /* \"#utility.yul\":23409:24132   */\n    tag_39:\n      0x00\n        /* \"#utility.yul\":23658:23661   */\n      0x80\n        /* \"#utility.yul\":23647:23656   */\n      dup3\n        /* \"#utility.yul\":23643:23662   */\n      add\n        /* \"#utility.yul\":23635:23662   */\n      swap1\n      pop\n        /* \"#utility.yul\":23708:23717   */\n      dup2\n        /* \"#utility.yul\":23702:23706   */\n      dup2\n        /* \"#utility.yul\":23698:23718   */\n      sub\n        /* \"#utility.yul\":23694:23695   */\n      0x00\n        /* \"#utility.yul\":23683:23692   */\n      dup4\n        /* \"#utility.yul\":23679:23696   */\n      add\n        /* \"#utility.yul\":23672:23719   */\n      mstore\n        /* \"#utility.yul\":23736:23814   */\n      tag_728\n        /* \"#utility.yul\":23809:23813   */\n      dup2\n        /* \"#utility.yul\":23800:23806   */\n      dup8\n        /* \"#utility.yul\":23736:23814   */\n      tag_630\n      jump\t// in\n    tag_728:\n        /* \"#utility.yul\":23728:23814   */\n      swap1\n      pop\n        /* \"#utility.yul\":23861:23870   */\n      dup2\n        /* \"#utility.yul\":23855:23859   */\n      dup2\n        /* \"#utility.yul\":23851:23871   */\n      sub\n        /* \"#utility.yul\":23846:23848   */\n      0x20\n        /* \"#utility.yul\":23835:23844   */\n      dup4\n        /* \"#utility.yul\":23831:23849   */\n      add\n        /* \"#utility.yul\":23824:23872   */\n      mstore\n        /* \"#utility.yul\":23889:23967   */\n      tag_729\n        /* \"#utility.yul\":23962:23966   */\n      dup2\n        /* \"#utility.yul\":23953:23959   */\n      dup7\n        /* \"#utility.yul\":23889:23967   */\n      tag_630\n      jump\t// in\n    tag_729:\n        /* \"#utility.yul\":23881:23967   */\n      swap1\n      pop\n        /* \"#utility.yul\":23977:24049   */\n      tag_730\n        /* \"#utility.yul\":24045:24047   */\n      0x40\n        /* \"#utility.yul\":24034:24043   */\n      dup4\n        /* \"#utility.yul\":24030:24048   */\n      add\n        /* \"#utility.yul\":24021:24027   */\n      dup6\n        /* \"#utility.yul\":23977:24049   */\n      tag_568\n      jump\t// in\n    tag_730:\n        /* \"#utility.yul\":24059:24125   */\n      tag_731\n        /* \"#utility.yul\":24121:24123   */\n      0x60\n        /* \"#utility.yul\":24110:24119   */\n      dup4\n        /* \"#utility.yul\":24106:24124   */\n      add\n        /* \"#utility.yul\":24097:24103   */\n      dup5\n        /* \"#utility.yul\":24059:24125   */\n      tag_617\n      jump\t// in\n    tag_731:\n        /* \"#utility.yul\":23625:24132   */\n      swap6\n      swap5\n      pop\n      pop\n      pop\n      pop\n      pop\n      jump\t// out\n        /* \"#utility.yul\":24138:25063   */\n    tag_98:\n      0x00\n        /* \"#utility.yul\":24435:24438   */\n      0xa0\n        /* \"#utility.yul\":24424:24433   */\n      dup3\n        /* \"#utility.yul\":24420:24439   */\n      add\n        /* \"#utility.yul\":24412:24439   */\n      swap1\n      pop\n        /* \"#utility.yul\":24485:24494   */\n      dup2\n        /* \"#utility.yul\":24479:24483   */\n      dup2\n        /* \"#utility.yul\":24475:24495   */\n      sub\n        /* \"#utility.yul\":24471:24472   */\n      0x00\n        /* \"#utility.yul\":24460:24469   */\n      dup4\n        /* \"#utility.yul\":24456:24473   */\n      add\n        /* \"#utility.yul\":24449:24496   */\n      mstore\n        /* \"#utility.yul\":24513:24591   */\n      tag_733\n        /* \"#utility.yul\":24586:24590   */\n      dup2\n        /* \"#utility.yul\":24577:24583   */\n      dup9\n        /* \"#utility.yul\":24513:24591   */\n      tag_630\n      jump\t// in\n    tag_733:\n        /* \"#utility.yul\":24505:24591   */\n      swap1\n      pop\n        /* \"#utility.yul\":24638:24647   */\n      dup2\n        /* \"#utility.yul\":24632:24636   */\n      dup2\n        /* \"#utility.yul\":24628:24648   */\n      sub\n        /* \"#utility.yul\":24623:24625   */\n      0x20\n        /* \"#utility.yul\":24612:24621   */\n      dup4\n        /* \"#utility.yul\":24608:24626   */\n      add\n        /* \"#utility.yul\":24601:24649   */\n      mstore\n        /* \"#utility.yul\":24666:24744   */\n      tag_734\n        /* \"#utility.yul\":24739:24743   */\n      dup2\n        /* \"#utility.yul\":24730:24736   */\n      dup8\n        /* \"#utility.yul\":24666:24744   */\n      tag_630\n      jump\t// in\n    tag_734:\n        /* \"#utility.yul\":24658:24744   */\n      swap1\n      pop\n        /* \"#utility.yul\":24791:24800   */\n      dup2\n        /* \"#utility.yul\":24785:24789   */\n      dup2\n        /* \"#utility.yul\":24781:24801   */\n      sub\n        /* \"#utility.yul\":24776:24778   */\n      0x40\n        /* \"#utility.yul\":24765:24774   */\n      dup4\n        /* \"#utility.yul\":24761:24779   */\n      add\n        /* \"#utility.yul\":24754:24802   */\n      mstore\n        /* \"#utility.yul\":24819:24897   */\n      tag_735\n        /* \"#utility.yul\":24892:24896   */\n      dup2\n        /* \"#utility.yul\":24883:24889   */\n      dup7\n        /* \"#utility.yul\":24819:24897   */\n      tag_630\n      jump\t// in\n    tag_735:\n        /* \"#utility.yul\":24811:24897   */\n      swap1\n      pop\n        /* \"#utility.yul\":24907:24979   */\n      tag_736\n        /* \"#utility.yul\":24975:24977   */\n      0x60\n        /* \"#utility.yul\":24964:24973   */\n      dup4\n        /* \"#utility.yul\":24960:24978   */\n      add\n        /* \"#utility.yul\":24951:24957   */\n      dup6\n        /* \"#utility.yul\":24907:24979   */\n      tag_680\n      jump\t// in\n    tag_736:\n        /* \"#utility.yul\":24989:25056   */\n      tag_737\n        /* \"#utility.yul\":25051:25054   */\n      0x80\n        /* \"#utility.yul\":25040:25049   */\n      dup4\n        /* \"#utility.yul\":25036:25055   */\n      add\n        /* \"#utility.yul\":25027:25033   */\n      dup5\n        /* \"#utility.yul\":24989:25056   */\n      tag_617\n      jump\t// in\n    tag_737:\n        /* \"#utility.yul\":24402:25063   */\n      swap7\n      swap6\n      pop\n      pop\n      pop\n      pop\n      pop\n      pop\n      jump\t// out\n        /* \"#utility.yul\":25069:25488   */\n    tag_478:\n      0x00\n        /* \"#utility.yul\":25273:25275   */\n      0x20\n        /* \"#utility.yul\":25262:25271   */\n      dup3\n        /* \"#utility.yul\":25258:25276   */\n      add\n        /* \"#utility.yul\":25250:25276   */\n      swap1\n      pop\n        /* \"#utility.yul\":25322:25331   */\n      dup2\n        /* \"#utility.yul\":25316:25320   */\n      dup2\n        /* \"#utility.yul\":25312:25332   */\n      sub\n        /* \"#utility.yul\":25308:25309   */\n      0x00\n        /* \"#utility.yul\":25297:25306   */\n      dup4\n        /* \"#utility.yul\":25293:25310   */\n      add\n        /* \"#utility.yul\":25286:25333   */\n      mstore\n        /* \"#utility.yul\":25350:25481   */\n      tag_739\n        /* \"#utility.yul\":25476:25480   */\n      dup2\n        /* \"#utility.yul\":25350:25481   */\n      tag_649\n      jump\t// in\n    tag_739:\n        /* \"#utility.yul\":25342:25481   */\n      swap1\n      pop\n        /* \"#utility.yul\":25240:25488   */\n      swap2\n      swap1\n      pop\n      jump\t// out\n        /* \"#utility.yul\":25494:25913   */\n    tag_460:\n      0x00\n        /* \"#utility.yul\":25698:25700   */\n      0x20\n        /* \"#utility.yul\":25687:25696   */\n      dup3\n        /* \"#utility.yul\":25683:25701   */\n      add\n        /* \"#utility.yul\":25675:25701   */\n      swap1\n      pop\n        /* \"#utility.yul\":25747:25756   */\n      dup2\n        /* \"#utility.yul\":25741:25745   */\n      dup2\n        /* \"#utility.yul\":25737:25757   */\n      sub\n        /* \"#utility.yul\":25733:25734   */\n      0x00\n        /* \"#utility.yul\":25722:25731   */\n      dup4\n        /* \"#utility.yul\":25718:25735   */\n      add\n        /* \"#utility.yul\":25711:25758   */\n      mstore\n        /* \"#utility.yul\":25775:25906   */\n      tag_741\n        /* \"#utility.yul\":25901:25905   */\n      dup2\n        /* \"#utility.yul\":25775:25906   */\n      tag_652\n      jump\t// in\n    tag_741:\n        /* \"#utility.yul\":25767:25906   */\n      swap1\n      pop\n        /* \"#utility.yul\":25665:25913   */\n      swap2\n      swap1\n      pop\n      jump\t// out\n        /* \"#utility.yul\":25919:26338   */\n    tag_469:\n      0x00\n        /* \"#utility.yul\":26123:26125   */\n      0x20\n        /* \"#utility.yul\":26112:26121   */\n      dup3\n        /* \"#utility.yul\":26108:26126   */\n      add\n        /* \"#utility.yul\":26100:26126   */\n      swap1\n      pop\n        /* \"#utility.yul\":26172:26181   */\n      dup2\n        /* \"#utility.yul\":26166:26170   */\n      dup2\n        /* \"#utility.yul\":26162:26182   */\n      sub\n        /* \"#utility.yul\":26158:26159   */\n      0x00\n        /* \"#utility.yul\":26147:26156   */\n      dup4\n        /* \"#utility.yul\":26143:26160   */\n      add\n        /* \"#utility.yul\":26136:26183   */\n      mstore\n        /* \"#utility.yul\":26200:26331   */\n      tag_743\n        /* \"#utility.yul\":26326:26330   */\n      dup2\n        /* \"#utility.yul\":26200:26331   */\n      tag_655\n      jump\t// in\n    tag_743:\n        /* \"#utility.yul\":26192:26331   */\n      swap1\n      pop\n        /* \"#utility.yul\":26090:26338   */\n      swap2\n      swap1\n      pop\n      jump\t// out\n        /* \"#utility.yul\":26344:26566   */\n    tag_51:\n      0x00\n        /* \"#utility.yul\":26475:26477   */\n      0x20\n        /* \"#utility.yul\":26464:26473   */\n      dup3\n        /* \"#utility.yul\":26460:26478   */\n      add\n        /* \"#utility.yul\":26452:26478   */\n      swap1\n      pop\n        /* \"#utility.yul\":26488:26559   */\n      tag_745\n        /* \"#utility.yul\":26556:26557   */\n      0x00\n        /* \"#utility.yul\":26545:26554   */\n      dup4\n        /* \"#utility.yul\":26541:26558   */\n      add\n        /* \"#utility.yul\":26532:26538   */\n      dup5\n        /* \"#utility.yul\":26488:26559   */\n      tag_680\n      jump\t// in\n    tag_745:\n        /* \"#utility.yul\":26442:26566   */\n      swap3\n      swap2\n      pop\n      pop\n      jump\t// out\n        /* \"#utility.yul\":26572:27406   */\n    tag_84:\n      0x00\n        /* \"#utility.yul\":26849:26852   */\n      0xa0\n        /* \"#utility.yul\":26838:26847   */\n      dup3\n        /* \"#utility.yul\":26834:26853   */\n      add\n        /* \"#utility.yul\":26826:26853   */\n      swap1\n      pop\n        /* \"#utility.yul\":26863:26934   */\n      tag_747\n        /* \"#utility.yul\":26931:26932   */\n      0x00\n        /* \"#utility.yul\":26920:26929   */\n      dup4\n        /* \"#utility.yul\":26916:26933   */\n      add\n        /* \"#utility.yul\":26907:26913   */\n      dup9\n        /* \"#utility.yul\":26863:26934   */\n      tag_680\n      jump\t// in\n    tag_747:\n        /* \"#utility.yul\":26981:26990   */\n      dup2\n        /* \"#utility.yul\":26975:26979   */\n      dup2\n        /* \"#utility.yul\":26971:26991   */\n      sub\n        /* \"#utility.yul\":26966:26968   */\n      0x20\n        /* \"#utility.yul\":26955:26964   */\n      dup4\n        /* \"#utility.yul\":26951:26969   */\n      add\n        /* \"#utility.yul\":26944:26992   */\n      mstore\n        /* \"#utility.yul\":27009:27087   */\n      tag_748\n        /* \"#utility.yul\":27082:27086   */\n      dup2\n        /* \"#utility.yul\":27073:27079   */\n      dup8\n        /* \"#utility.yul\":27009:27087   */\n      tag_630\n      jump\t// in\n    tag_748:\n        /* \"#utility.yul\":27001:27087   */\n      swap1\n      pop\n        /* \"#utility.yul\":27134:27143   */\n      dup2\n        /* \"#utility.yul\":27128:27132   */\n      dup2\n        /* \"#utility.yul\":27124:27144   */\n      sub\n        /* \"#utility.yul\":27119:27121   */\n      0x40\n        /* \"#utility.yul\":27108:27117   */\n      dup4\n        /* \"#utility.yul\":27104:27122   */\n      add\n        /* \"#utility.yul\":27097:27145   */\n      mstore\n        /* \"#utility.yul\":27162:27240   */\n      tag_749\n        /* \"#utility.yul\":27235:27239   */\n      dup2\n        /* \"#utility.yul\":27226:27232   */\n      dup7\n        /* \"#utility.yul\":27162:27240   */\n      tag_630\n      jump\t// in\n    tag_749:\n        /* \"#utility.yul\":27154:27240   */\n      swap1\n      pop\n        /* \"#utility.yul\":27250:27322   */\n      tag_750\n        /* \"#utility.yul\":27318:27320   */\n      0x60\n        /* \"#utility.yul\":27307:27316   */\n      dup4\n        /* \"#utility.yul\":27303:27321   */\n      add\n        /* \"#utility.yul\":27294:27300   */\n      dup6\n        /* \"#utility.yul\":27250:27322   */\n      tag_568\n      jump\t// in\n    tag_750:\n        /* \"#utility.yul\":27332:27399   */\n      tag_751\n        /* \"#utility.yul\":27394:27397   */\n      0x80\n        /* \"#utility.yul\":27383:27392   */\n      dup4\n        /* \"#utility.yul\":27379:27398   */\n      add\n        /* \"#utility.yul\":27370:27376   */\n      dup5\n        /* \"#utility.yul\":27332:27399   */\n      tag_617\n      jump\t// in\n    tag_751:\n        /* \"#utility.yul\":26816:27406   */\n      swap7\n      swap6\n      pop\n      pop\n      pop\n      pop\n      pop\n      pop\n      jump\t// out\n        /* \"#utility.yul\":27412:28135   */\n    tag_225:\n      0x00\n        /* \"#utility.yul\":27661:27664   */\n      0x80\n        /* \"#utility.yul\":27650:27659   */\n      dup3\n        /* \"#utility.yul\":27646:27665   */\n      add\n        /* \"#utility.yul\":27638:27665   */\n      swap1\n      pop\n        /* \"#utility.yul\":27675:27746   */\n      tag_753\n        /* \"#utility.yul\":27743:27744   */\n      0x00\n        /* \"#utility.yul\":27732:27741   */\n      dup4\n        /* \"#utility.yul\":27728:27745   */\n      add\n        /* \"#utility.yul\":27719:27725   */\n      dup8\n        /* \"#utility.yul\":27675:27746   */\n      tag_680\n      jump\t// in\n    tag_753:\n        /* \"#utility.yul\":27793:27802   */\n      dup2\n        /* \"#utility.yul\":27787:27791   */\n      dup2\n        /* \"#utility.yul\":27783:27803   */\n      sub\n        /* \"#utility.yul\":27778:27780   */\n      0x20\n        /* \"#utility.yul\":27767:27776   */\n      dup4\n        /* \"#utility.yul\":27763:27781   */\n      add\n        /* \"#utility.yul\":27756:27804   */\n      mstore\n        /* \"#utility.yul\":27821:27896   */\n      tag_754\n        /* \"#utility.yul\":27891:27895   */\n      dup2\n        /* \"#utility.yul\":27882:27888   */\n      dup7\n        /* \"#utility.yul\":27821:27896   */\n      tag_637\n      jump\t// in\n    tag_754:\n        /* \"#utility.yul\":27813:27896   */\n      swap1\n      pop\n        /* \"#utility.yul\":27943:27952   */\n      dup2\n        /* \"#utility.yul\":27937:27941   */\n      dup2\n        /* \"#utility.yul\":27933:27953   */\n      sub\n        /* \"#utility.yul\":27928:27930   */\n      0x40\n        /* \"#utility.yul\":27917:27926   */\n      dup4\n        /* \"#utility.yul\":27913:27931   */\n      add\n        /* \"#utility.yul\":27906:27954   */\n      mstore\n        /* \"#utility.yul\":27971:28046   */\n      tag_755\n        /* \"#utility.yul\":28041:28045   */\n      dup2\n        /* \"#utility.yul\":28032:28038   */\n      dup6\n        /* \"#utility.yul\":27971:28046   */\n      tag_637\n      jump\t// in\n    tag_755:\n        /* \"#utility.yul\":27963:28046   */\n      swap1\n      pop\n        /* \"#utility.yul\":28056:28128   */\n      tag_756\n        /* \"#utility.yul\":28124:28126   */\n      0x60\n        /* \"#utility.yul\":28113:28122   */\n      dup4\n        /* \"#utility.yul\":28109:28127   */\n      add\n        /* \"#utility.yul\":28100:28106   */\n      dup5\n        /* \"#utility.yul\":28056:28128   */\n      tag_568\n      jump\t// in\n    tag_756:\n        /* \"#utility.yul\":27628:28135   */\n      swap6\n      swap5\n      pop\n      pop\n      pop\n      pop\n      pop\n      jump\t// out\n        /* \"#utility.yul\":28141:28963   */\n    tag_298:\n      0x00\n        /* \"#utility.yul\":28412:28415   */\n      0xa0\n        /* \"#utility.yul\":28401:28410   */\n      dup3\n        /* \"#utility.yul\":28397:28416   */\n      add\n        /* \"#utility.yul\":28389:28416   */\n      swap1\n      pop\n        /* \"#utility.yul\":28426:28497   */\n      tag_758\n        /* \"#utility.yul\":28494:28495   */\n      0x00\n        /* \"#utility.yul\":28483:28492   */\n      dup4\n        /* \"#utility.yul\":28479:28496   */\n      add\n        /* \"#utility.yul\":28470:28476   */\n      dup9\n        /* \"#utility.yul\":28426:28497   */\n      tag_680\n      jump\t// in\n    tag_758:\n        /* \"#utility.yul\":28544:28553   */\n      dup2\n        /* \"#utility.yul\":28538:28542   */\n      dup2\n        /* \"#utility.yul\":28534:28554   */\n      sub\n        /* \"#utility.yul\":28529:28531   */\n      0x20\n        /* \"#utility.yul\":28518:28527   */\n      dup4\n        /* \"#utility.yul\":28514:28532   */\n      add\n        /* \"#utility.yul\":28507:28555   */\n      mstore\n        /* \"#utility.yul\":28572:28647   */\n      tag_759\n        /* \"#utility.yul\":28642:28646   */\n      dup2\n        /* \"#utility.yul\":28633:28639   */\n      dup8\n        /* \"#utility.yul\":28572:28647   */\n      tag_637\n      jump\t// in\n    tag_759:\n        /* \"#utility.yul\":28564:28647   */\n      swap1\n      pop\n        /* \"#utility.yul\":28694:28703   */\n      dup2\n        /* \"#utility.yul\":28688:28692   */\n      dup2\n        /* \"#utility.yul\":28684:28704   */\n      sub\n        /* \"#utility.yul\":28679:28681   */\n      0x40\n        /* \"#utility.yul\":28668:28677   */\n      dup4\n        /* \"#utility.yul\":28664:28682   */\n      add\n        /* \"#utility.yul\":28657:28705   */\n      mstore\n        /* \"#utility.yul\":28722:28797   */\n      tag_760\n        /* \"#utility.yul\":28792:28796   */\n      dup2\n        /* \"#utility.yul\":28783:28789   */\n      dup7\n        /* \"#utility.yul\":28722:28797   */\n      tag_637\n      jump\t// in\n    tag_760:\n        /* \"#utility.yul\":28714:28797   */\n      swap1\n      pop\n        /* \"#utility.yul\":28807:28879   */\n      tag_761\n        /* \"#utility.yul\":28875:28877   */\n      0x60\n        /* \"#utility.yul\":28864:28873   */\n      dup4\n        /* \"#utility.yul\":28860:28878   */\n      add\n        /* \"#utility.yul\":28851:28857   */\n      dup6\n        /* \"#utility.yul\":28807:28879   */\n      tag_568\n      jump\t// in\n    tag_761:\n        /* \"#utility.yul\":28889:28956   */\n      tag_762\n        /* \"#utility.yul\":28951:28954   */\n      0x80\n        /* \"#utility.yul\":28940:28949   */\n      dup4\n        /* \"#utility.yul\":28936:28955   */\n      add\n        /* \"#utility.yul\":28927:28933   */\n      dup5\n        /* \"#utility.yul\":28889:28956   */\n      tag_617\n      jump\t// in\n    tag_762:\n        /* \"#utility.yul\":28379:28963   */\n      swap7\n      swap6\n      pop\n      pop\n      pop\n      pop\n      pop\n      pop\n      jump\t// out\n        /* \"#utility.yul\":28969:29247   */\n    tag_494:\n      0x00\n        /* \"#utility.yul\":29035:29037   */\n      0x40\n        /* \"#utility.yul\":29029:29038   */\n      mload\n        /* \"#utility.yul\":29019:29038   */\n      swap1\n      pop\n        /* \"#utility.yul\":29077:29081   */\n      dup2\n        /* \"#utility.yul\":29069:29075   */\n      dup2\n        /* \"#utility.yul\":29065:29082   */\n      add\n        /* \"#utility.yul\":29184:29190   */\n      dup2\n        /* \"#utility.yul\":29172:29182   */\n      dup2\n        /* \"#utility.yul\":29169:29191   */\n      lt\n        /* \"#utility.yul\":29148:29166   */\n      0xffffffffffffffff\n        /* \"#utility.yul\":29136:29146   */\n      dup3\n        /* \"#utility.yul\":29133:29167   */\n      gt\n        /* \"#utility.yul\":29130:29192   */\n      or\n        /* \"#utility.yul\":29127:29129   */\n      iszero\n      tag_764\n      jumpi\n        /* \"#utility.yul\":29195:29208   */\n      tag_765\n      tag_766\n      jump\t// in\n    tag_765:\n        /* \"#utility.yul\":29127:29129   */\n    tag_764:\n        /* \"#utility.yul\":29230:29240   */\n      dup1\n        /* \"#utility.yul\":29226:29228   */\n      0x40\n        /* \"#utility.yul\":29219:29241   */\n      mstore\n        /* \"#utility.yul\":29009:29247   */\n      pop\n      swap2\n      swap1\n      pop\n      jump\t// out\n        /* \"#utility.yul\":29253:29580   */\n    tag_493:\n      0x00\n        /* \"#utility.yul\":29405:29423   */\n      0xffffffffffffffff\n        /* \"#utility.yul\":29397:29403   */\n      dup3\n        /* \"#utility.yul\":29394:29424   */\n      gt\n        /* \"#utility.yul\":29391:29393   */\n      iszero\n      tag_768\n      jumpi\n        /* \"#utility.yul\":29427:29440   */\n      tag_769\n      tag_766\n      jump\t// in\n    tag_769:\n        /* \"#utility.yul\":29391:29393   */\n    tag_768:\n        /* \"#utility.yul\":29507:29511   */\n      0x1f\n        /* \"#utility.yul\":29503:29512   */\n      not\n        /* \"#utility.yul\":29496:29500   */\n      0x1f\n        /* \"#utility.yul\":29488:29494   */\n      dup4\n        /* \"#utility.yul\":29484:29501   */\n      add\n        /* \"#utility.yul\":29480:29513   */\n      and\n        /* \"#utility.yul\":29472:29513   */\n      swap1\n      pop\n        /* \"#utility.yul\":29568:29572   */\n      0x20\n        /* \"#utility.yul\":29562:29566   */\n      dup2\n        /* \"#utility.yul\":29558:29573   */\n      add\n        /* \"#utility.yul\":29550:29573   */\n      swap1\n      pop\n        /* \"#utility.yul\":29320:29580   */\n      swap2\n      swap1\n      pop\n      jump\t// out\n        /* \"#utility.yul\":29586:29740   */\n    tag_578:\n      0x00\n        /* \"#utility.yul\":29698:29701   */\n      dup2\n        /* \"#utility.yul\":29690:29701   */\n      swap1\n      pop\n        /* \"#utility.yul\":29728:29732   */\n      0x20\n        /* \"#utility.yul\":29723:29726   */\n      dup3\n        /* \"#utility.yul\":29719:29733   */\n      add\n        /* \"#utility.yul\":29711:29733   */\n      swap1\n      pop\n        /* \"#utility.yul\":29680:29740   */\n      swap2\n      swap1\n      pop\n      jump\t// out\n        /* \"#utility.yul\":29746:29902   */\n    tag_592:\n      0x00\n        /* \"#utility.yul\":29860:29863   */\n      dup2\n        /* \"#utility.yul\":29852:29863   */\n      swap1\n      pop\n        /* \"#utility.yul\":29890:29894   */\n      0x20\n        /* \"#utility.yul\":29885:29888   */\n      dup3\n        /* \"#utility.yul\":29881:29895   */\n      add\n        /* \"#utility.yul\":29873:29895   */\n      swap1\n      pop\n        /* \"#utility.yul\":29842:29902   */\n      swap2\n      swap1\n      pop\n      jump\t// out\n        /* \"#utility.yul\":29908:30062   */\n    tag_606:\n      0x00\n        /* \"#utility.yul\":30020:30023   */\n      dup2\n        /* \"#utility.yul\":30012:30023   */\n      swap1\n      pop\n        /* \"#utility.yul\":30050:30054   */\n      0x20\n        /* \"#utility.yul\":30045:30048   */\n      dup3\n        /* \"#utility.yul\":30041:30055   */\n      add\n        /* \"#utility.yul\":30033:30055   */\n      swap1\n      pop\n        /* \"#utility.yul\":30002:30062   */\n      swap2\n      swap1\n      pop\n      jump\t// out\n        /* \"#utility.yul\":30068:30209   */\n    tag_645:\n      0x00\n        /* \"#utility.yul\":30140:30143   */\n      dup2\n        /* \"#utility.yul\":30132:30143   */\n      swap1\n      pop\n        /* \"#utility.yul\":30163:30166   */\n      dup2\n        /* \"#utility.yul\":30160:30161   */\n      0x00\n        /* \"#utility.yul\":30153:30167   */\n      mstore\n        /* \"#utility.yul\":30197:30201   */\n      0x20\n        /* \"#utility.yul\":30194:30195   */\n      0x00\n        /* \"#utility.yul\":30184:30202   */\n      keccak256\n        /* \"#utility.yul\":30176:30202   */\n      swap1\n      pop\n        /* \"#utility.yul\":30122:30209   */\n      swap2\n      swap1\n      pop\n      jump\t// out\n        /* \"#utility.yul\":30215:30351   */\n    tag_574:\n      0x00\n        /* \"#utility.yul\":30338:30343   */\n      dup2\n        /* \"#utility.yul\":30332:30344   */\n      mload\n        /* \"#utility.yul\":30322:30344   */\n      swap1\n      pop\n        /* \"#utility.yul\":30311:30351   */\n      swap2\n      swap1\n      pop\n      jump\t// out\n        /* \"#utility.yul\":30357:30495   */\n    tag_588:\n      0x00\n        /* \"#utility.yul\":30482:30487   */\n      dup2\n        /* \"#utility.yul\":30476:30488   */\n      mload\n        /* \"#utility.yul\":30466:30488   */\n      swap1\n      pop\n        /* \"#utility.yul\":30455:30495   */\n      swap2\n      swap1\n      pop\n      jump\t// out\n        /* \"#utility.yul\":30501:30637   */\n    tag_602:\n      0x00\n        /* \"#utility.yul\":30624:30629   */\n      dup2\n        /* \"#utility.yul\":30618:30630   */\n      mload\n        /* \"#utility.yul\":30608:30630   */\n      swap1\n      pop\n        /* \"#utility.yul\":30597:30637   */\n      swap2\n      swap1\n      pop\n      jump\t// out\n        /* \"#utility.yul\":30643:30742   */\n    tag_623:\n      0x00\n        /* \"#utility.yul\":30729:30734   */\n      dup2\n        /* \"#utility.yul\":30723:30735   */\n      mload\n        /* \"#utility.yul\":30713:30735   */\n      swap1\n      pop\n        /* \"#utility.yul\":30702:30742   */\n      swap2\n      swap1\n      pop\n      jump\t// out\n        /* \"#utility.yul\":30748:30883   */\n    tag_584:\n      0x00\n        /* \"#utility.yul\":30872:30876   */\n      0x20\n        /* \"#utility.yul\":30867:30870   */\n      dup3\n        /* \"#utility.yul\":30863:30877   */\n      add\n        /* \"#utility.yul\":30855:30877   */\n      swap1\n      pop\n        /* \"#utility.yul\":30845:30883   */\n      swap2\n      swap1\n      pop\n      jump\t// out\n        /* \"#utility.yul\":30889:31026   */\n    tag_598:\n      0x00\n        /* \"#utility.yul\":31015:31019   */\n      0x20\n        /* \"#utility.yul\":31010:31013   */\n      dup3\n        /* \"#utility.yul\":31006:31020   */\n      add\n        /* \"#utility.yul\":30998:31020   */\n      swap1\n      pop\n        /* \"#utility.yul\":30988:31026   */\n      swap2\n      swap1\n      pop\n      jump\t// out\n        /* \"#utility.yul\":31032:31167   */\n    tag_612:\n      0x00\n        /* \"#utility.yul\":31156:31160   */\n      0x20\n        /* \"#utility.yul\":31151:31154   */\n      dup3\n        /* \"#utility.yul\":31147:31161   */\n      add\n        /* \"#utility.yul\":31139:31161   */\n      swap1\n      pop\n        /* \"#utility.yul\":31129:31167   */\n      swap2\n      swap1\n      pop\n      jump\t// out\n        /* \"#utility.yul\":31173:31379   */\n    tag_576:\n      0x00\n        /* \"#utility.yul\":31328:31334   */\n      dup3\n        /* \"#utility.yul\":31323:31326   */\n      dup3\n        /* \"#utility.yul\":31316:31335   */\n      mstore\n        /* \"#utility.yul\":31368:31372   */\n      0x20\n        /* \"#utility.yul\":31363:31366   */\n      dup3\n        /* \"#utility.yul\":31359:31373   */\n      add\n        /* \"#utility.yul\":31344:31373   */\n      swap1\n      pop\n        /* \"#utility.yul\":31306:31379   */\n      swap3\n      swap2\n      pop\n      pop\n      jump\t// out\n        /* \"#utility.yul\":31385:31593   */\n    tag_590:\n      0x00\n        /* \"#utility.yul\":31542:31548   */\n      dup3\n        /* \"#utility.yul\":31537:31540   */\n      dup3\n        /* \"#utility.yul\":31530:31549   */\n      mstore\n        /* \"#utility.yul\":31582:31586   */\n      0x20\n        /* \"#utility.yul\":31577:31580   */\n      dup3\n        /* \"#utility.yul\":31573:31587   */\n      add\n        /* \"#utility.yul\":31558:31587   */\n      swap1\n      pop\n        /* \"#utility.yul\":31520:31593   */\n      swap3\n      swap2\n      pop\n      pop\n      jump\t// out\n        /* \"#utility.yul\":31599:31805   */\n    tag_604:\n      0x00\n        /* \"#utility.yul\":31754:31760   */\n      dup3\n        /* \"#utility.yul\":31749:31752   */\n      dup3\n        /* \"#utility.yul\":31742:31761   */\n      mstore\n        /* \"#utility.yul\":31794:31798   */\n      0x20\n        /* \"#utility.yul\":31789:31792   */\n      dup3\n        /* \"#utility.yul\":31785:31799   */\n      add\n        /* \"#utility.yul\":31770:31799   */\n      swap1\n      pop\n        /* \"#utility.yul\":31732:31805   */\n      swap3\n      swap2\n      pop\n      pop\n      jump\t// out\n        /* \"#utility.yul\":31811:31970   */\n    tag_625:\n      0x00\n        /* \"#utility.yul\":31919:31925   */\n      dup3\n        /* \"#utility.yul\":31914:31917   */\n      dup3\n        /* \"#utility.yul\":31907:31926   */\n      mstore\n        /* \"#utility.yul\":31959:31963   */\n      0x20\n        /* \"#utility.yul\":31954:31957   */\n      dup3\n        /* \"#utility.yul\":31950:31964   */\n      add\n        /* \"#utility.yul\":31935:31964   */\n      swap1\n      pop\n        /* \"#utility.yul\":31897:31970   */\n      swap3\n      swap2\n      pop\n      pop\n      jump\t// out\n        /* \"#utility.yul\":31976:32145   */\n    tag_634:\n      0x00\n        /* \"#utility.yul\":32094:32100   */\n      dup3\n        /* \"#utility.yul\":32089:32092   */\n      dup3\n        /* \"#utility.yul\":32082:32101   */\n      mstore\n        /* \"#utility.yul\":32134:32138   */\n      0x20\n        /* \"#utility.yul\":32129:32132   */\n      dup3\n        /* \"#utility.yul\":32125:32139   */\n      add\n        /* \"#utility.yul\":32110:32139   */\n      swap1\n      pop\n        /* \"#utility.yul\":32072:32145   */\n      swap3\n      swap2\n      pop\n      pop\n      jump\t// out\n        /* \"#utility.yul\":32151:32247   */\n    tag_567:\n      0x00\n        /* \"#utility.yul\":32217:32241   */\n      tag_787\n        /* \"#utility.yul\":32235:32240   */\n      dup3\n        /* \"#utility.yul\":32217:32241   */\n      tag_788\n      jump\t// in\n    tag_787:\n        /* \"#utility.yul\":32206:32241   */\n      swap1\n      pop\n        /* \"#utility.yul\":32196:32247   */\n      swap2\n      swap1\n      pop\n      jump\t// out\n        /* \"#utility.yul\":32253:32343   */\n    tag_616:\n      0x00\n        /* \"#utility.yul\":32330:32335   */\n      dup2\n        /* \"#utility.yul\":32323:32336   */\n      iszero\n        /* \"#utility.yul\":32316:32337   */\n      iszero\n        /* \"#utility.yul\":32305:32337   */\n      swap1\n      pop\n        /* \"#utility.yul\":32295:32343   */\n      swap2\n      swap1\n      pop\n      jump\t// out\n        /* \"#utility.yul\":32349:32475   */\n    tag_788:\n      0x00\n        /* \"#utility.yul\":32426:32468   */\n      0xffffffffffffffffffffffffffffffffffffffff\n        /* \"#utility.yul\":32419:32424   */\n      dup3\n        /* \"#utility.yul\":32415:32469   */\n      and\n        /* \"#utility.yul\":32404:32469   */\n      swap1\n      pop\n        /* \"#utility.yul\":32394:32475   */\n      swap2\n      swap1\n      pop\n      jump\t// out\n        /* \"#utility.yul\":32481:32558   */\n    tag_679:\n      0x00\n        /* \"#utility.yul\":32547:32552   */\n      dup2\n        /* \"#utility.yul\":32536:32552   */\n      swap1\n      pop\n        /* \"#utility.yul\":32526:32558   */\n      swap2\n      swap1\n      pop\n      jump\t// out\n        /* \"#utility.yul\":32564:32718   */\n    tag_497:\n        /* \"#utility.yul\":32648:32654   */\n      dup3\n        /* \"#utility.yul\":32643:32646   */\n      dup2\n        /* \"#utility.yul\":32638:32641   */\n      dup4\n        /* \"#utility.yul\":32625:32655   */\n      calldatacopy\n        /* \"#utility.yul\":32710:32711   */\n      0x00\n        /* \"#utility.yul\":32701:32707   */\n      dup4\n        /* \"#utility.yul\":32696:32699   */\n      dup4\n        /* \"#utility.yul\":32692:32708   */\n      add\n        /* \"#utility.yul\":32685:32712   */\n      mstore\n        /* \"#utility.yul\":32615:32718   */\n      pop\n      pop\n      pop\n      jump\t// out\n        /* \"#utility.yul\":32724:33031   */\n    tag_627:\n        /* \"#utility.yul\":32792:32793   */\n      0x00\n        /* \"#utility.yul\":32802:32915   */\n    tag_794:\n        /* \"#utility.yul\":32816:32822   */\n      dup4\n        /* \"#utility.yul\":32813:32814   */\n      dup2\n        /* \"#utility.yul\":32810:32823   */\n      lt\n        /* \"#utility.yul\":32802:32915   */\n      iszero\n      tag_796\n      jumpi\n        /* \"#utility.yul\":32901:32902   */\n      dup1\n        /* \"#utility.yul\":32896:32899   */\n      dup3\n        /* \"#utility.yul\":32892:32903   */\n      add\n        /* \"#utility.yul\":32886:32904   */\n      mload\n        /* \"#utility.yul\":32882:32883   */\n      dup2\n        /* \"#utility.yul\":32877:32880   */\n      dup5\n        /* \"#utility.yul\":32873:32884   */\n      add\n        /* \"#utility.yul\":32866:32905   */\n      mstore\n        /* \"#utility.yul\":32838:32840   */\n      0x20\n        /* \"#utility.yul\":32835:32836   */\n      dup2\n        /* \"#utility.yul\":32831:32841   */\n      add\n        /* \"#utility.yul\":32826:32841   */\n      swap1\n      pop\n        /* \"#utility.yul\":32802:32915   */\n      jump(tag_794)\n    tag_796:\n        /* \"#utility.yul\":32933:32939   */\n      dup4\n        /* \"#utility.yul\":32930:32931   */\n      dup2\n        /* \"#utility.yul\":32927:32940   */\n      gt\n        /* \"#utility.yul\":32924:32926   */\n      iszero\n      tag_797\n      jumpi\n        /* \"#utility.yul\":33013:33014   */\n      0x00\n        /* \"#utility.yul\":33004:33010   */\n      dup5\n        /* \"#utility.yul\":32999:33002   */\n      dup5\n        /* \"#utility.yul\":32995:33011   */\n      add\n        /* \"#utility.yul\":32988:33015   */\n      mstore\n        /* \"#utility.yul\":32924:32926   */\n    tag_797:\n        /* \"#utility.yul\":32773:33031   */\n      pop\n      pop\n      pop\n      pop\n      jump\t// out\n        /* \"#utility.yul\":33037:33085   */\n    tag_766:\n        /* \"#utility.yul\":33070:33079   */\n      invalid\n        /* \"#utility.yul\":33091:33193   */\n    tag_629:\n      0x00\n        /* \"#utility.yul\":33183:33185   */\n      0x1f\n        /* \"#utility.yul\":33179:33186   */\n      not\n        /* \"#utility.yul\":33174:33176   */\n      0x1f\n        /* \"#utility.yul\":33167:33172   */\n      dup4\n        /* \"#utility.yul\":33163:33177   */\n      add\n        /* \"#utility.yul\":33159:33187   */\n      and\n        /* \"#utility.yul\":33149:33187   */\n      swap1\n      pop\n        /* \"#utility.yul\":33139:33193   */\n      swap2\n      swap1\n      pop\n      jump\t// out\n        /* \"#utility.yul\":33199:33321   */\n    tag_501:\n        /* \"#utility.yul\":33272:33296   */\n      tag_801\n        /* \"#utility.yul\":33290:33295   */\n      dup2\n        /* \"#utility.yul\":33272:33296   */\n      tag_567\n      jump\t// in\n    tag_801:\n        /* \"#utility.yul\":33265:33270   */\n      dup2\n        /* \"#utility.yul\":33262:33297   */\n      eq\n        /* \"#utility.yul\":33252:33254   */\n      tag_802\n      jumpi\n        /* \"#utility.yul\":33311:33312   */\n      0x00\n        /* \"#utility.yul\":33308:33309   */\n      dup1\n        /* \"#utility.yul\":33301:33313   */\n      revert\n        /* \"#utility.yul\":33252:33254   */\n    tag_802:\n        /* \"#utility.yul\":33242:33321   */\n      pop\n      jump\t// out\n        /* \"#utility.yul\":33327:33443   */\n    tag_505:\n        /* \"#utility.yul\":33397:33418   */\n      tag_804\n        /* \"#utility.yul\":33412:33417   */\n      dup2\n        /* \"#utility.yul\":33397:33418   */\n      tag_616\n      jump\t// in\n    tag_804:\n        /* \"#utility.yul\":33390:33395   */\n      dup2\n        /* \"#utility.yul\":33387:33419   */\n      eq\n        /* \"#utility.yul\":33377:33379   */\n      tag_805\n      jumpi\n        /* \"#utility.yul\":33433:33434   */\n      0x00\n        /* \"#utility.yul\":33430:33431   */\n      dup1\n        /* \"#utility.yul\":33423:33435   */\n      revert\n        /* \"#utility.yul\":33377:33379   */\n    tag_805:\n        /* \"#utility.yul\":33367:33443   */\n      pop\n      jump\t// out\n        /* \"#utility.yul\":33449:33571   */\n    tag_513:\n        /* \"#utility.yul\":33522:33546   */\n      tag_807\n        /* \"#utility.yul\":33540:33545   */\n      dup2\n        /* \"#utility.yul\":33522:33546   */\n      tag_679\n      jump\t// in\n    tag_807:\n        /* \"#utility.yul\":33515:33520   */\n      dup2\n        /* \"#utility.yul\":33512:33547   */\n      eq\n        /* \"#utility.yul\":33502:33504   */\n      tag_808\n      jumpi\n        /* \"#utility.yul\":33561:33562   */\n      0x00\n        /* \"#utility.yul\":33558:33559   */\n      dup1\n        /* \"#utility.yul\":33551:33563   */\n      revert\n        /* \"#utility.yul\":33502:33504   */\n    tag_808:\n        /* \"#utility.yul\":33492:33571   */\n      pop\n      jump\t// out\n\n    auxdata: 0xa264697066735822122025e7319660ae181ef0ee98e916fd02c1da9d55a2cbd74a963f591fa3f93f9a4964736f6c63430007060033\n}\n",
    "bytecode": {
      "linkReferences": {},
      "object": "6080604052738fcf3b91599c6d5bb93d8c7df9f3974c622b83a4600260006101000a81548173ffffffffffffffffffffffffffffffffffffffff021916908373ffffffffffffffffffffffffffffffffffffffff16021790555034801561006557600080fd5b50614402806100756000396000f3fe608060405234801561001057600080fd5b506004361061018e5760003560e01c80639a2e5bed116100de578063b584361311610097578063dc7aa36b11610071578063dc7aa36b146104d3578063e1ee3b5614610506578063ea87659f14610522578063f0d95090146105565761018e565b8063b584361314610450578063c266406d1461046e578063d53d0a851461049e5761018e565b80639a2e5bed146103615780639b70e77914610391578063a0568e2d146103c5578063a17d7a38146103e1578063a27876c5146103ff578063a549a4ed1461041b5761018e565b80634807fc691161014b5780636151efb1116101255780636151efb1146102ac5780636cd8ebdc146102c8578063898bd140146102fa5780638db2fc411461032e5761018e565b80634807fc69146102545780634e9f7154146102705780635a4e5d3e1461028e5761018e565b806302655c2e1461019357806314c94371146101c65780631b057e40146101e25780631ba51696146101fe5780631bdc50981461021c578063459d470e14610238575b600080fd5b6101ad60048036038101906101a8919061369a565b610574565b6040516101bd9493929190613f51565b60405180910390f35b6101e060048036038101906101db9190613548565b610776565b005b6101fc60048036038101906101f79190613607565b610939565b005b610206610ab5565b604051610213919061406c565b60405180910390f35b610236600480360381019061023191906134e1565b610ac2565b005b610252600480360381019061024d91906136c3565b610c39565b005b61026e600480360381019061026991906134b8565b610de3565b005b610278610f4a565b6040516102859190613ecf565b60405180910390f35b61029661126a565b6040516102a39190613ef1565b60405180910390f35b6102c660048036038101906102c1919061369a565b6114e8565b005b6102e260048036038101906102dd91906134b8565b611630565b6040516102f193929190613f13565b60405180910390f35b610314600480360381019061030f91906134b8565b611775565b604051610325959493929190614087565b60405180910390f35b6103486004803603810190610343919061369a565b611908565b6040516103589493929190613c83565b60405180910390f35b61037b600480360381019061037691906134b8565b611a2d565b6040516103889190613ef1565b60405180910390f35b6103ab60048036038101906103a691906134b8565b611d20565b6040516103bc959493929190613fa4565b60405180910390f35b6103df60048036038101906103da91906134b8565b611fc2565b005b6103e961210b565b6040516103f6919061406c565b60405180910390f35b61041960048036038101906104149190613548565b612118565b005b610435600480360381019061043091906134b8565b61229c565b60405161044796959493929190613ccf565b60405180910390f35b6104586124cd565b604051610465919061406c565b60405180910390f35b610488600480360381019061048391906134b8565b6124da565b6040516104959190613ead565b60405180910390f35b6104b860048036038101906104b3919061369a565b612777565b6040516104ca96959493929190613ccf565b60405180910390f35b6104ed60048036038101906104e891906134b8565b6129b8565b6040516104fd9493929190613c83565b60405180910390f35b610520600480360381019061051b91906134e1565b612acd565b005b61053c6004803603810190610537919061369a565b612c62565b60405161054d959493929190614087565b60405180910390f35b61055e612e05565b60405161056b9190613ead565b60405180910390f35b60608060008060006105858661302d565b90506008818154811061059457fe5b9060005260206000209060040201600101600882815481106105b257fe5b9060005260206000209060040201600201600883815481106105d057fe5b906000526020600020906004020160030160009054906101000a900473ffffffffffffffffffffffffffffffffffffffff166008848154811061060f57fe5b906000526020600020906004020160030160149054906101000a900460ff16838054600181600116156101000203166002900480601f0160208091040260200160405190810160405280929190818152602001828054600181600116156101000203166002900480156106c35780601f10610698576101008083540402835291602001916106c3565b820191906000526020600020905b8154815290600101906020018083116106a657829003601f168201915b50505050509350828054600181600116156101000203166002900480601f01602080910402602001604051908101604052809291908181526020018280546001816001161561010002031660029004801561075f5780601f106107345761010080835404028352916020019161075f565b820191906000526020600020905b81548152906001019060200180831161074257829003601f168201915b505050505092509450945094509450509193509193565b6000610781866130bf565b9050846004828154811061079157fe5b906000526020600020906006020160010190805190602001906107b592919061327b565b5083600482815481106107c457fe5b906000526020600020906006020160020190805190602001906107e892919061327b565b5082600482815481106107f757fe5b9060005260206000209060060201600301908051906020019061081b92919061327b565b50816004828154811061082a57fe5b9060005260206000209060060201600401819055507fb1c43f8b1923988960e95c122fd3ebb503023379b8ca6f0603d2f6b0beb528116004828154811061086d57fe5b906000526020600020906006020160000160009054906101000a900473ffffffffffffffffffffffffffffffffffffffff16600483815481106108ac57fe5b9060005260206000209060060201600101600484815481106108ca57fe5b9060005260206000209060060201600201600485815481106108e857fe5b90600052602060002090600602016003016004868154811061090657fe5b906000526020600020906006020160040154604051610929959493929190613dcf565b60405180910390a1505050505050565b6109428261319d565b5060086040518060a0016040528060015481526020018681526020018581526020018473ffffffffffffffffffffffffffffffffffffffff16815260200183151581525090806001815401808255809150506001900390600052602060002090600402016000909190919091506000820151816000015560208201518160010190805190602001906109d592919061327b565b5060408201518160020190805190602001906109f292919061327b565b5060608201518160030160006101000a81548173ffffffffffffffffffffffffffffffffffffffff021916908373ffffffffffffffffffffffffffffffffffffffff16021790555060808201518160030160146101000a81548160ff02191690831515021790555050507f1d6a52c11773994a4a6eaa1ace32b929e7f0900bbe29db3f1d36a3cd45f1486c60015485858585604051610a95959493929190614087565b60405180910390a160016000815480929190600101919050555050505050565b6000600480549050905090565b6000610acd8461319d565b90508260068281548110610add57fe5b90600052602060002090600302016001019080519060200190610b0192919061327b565b508160068281548110610b1057fe5b906000526020600020906003020160020160006101000a81548173ffffffffffffffffffffffffffffffffffffffff021916908373ffffffffffffffffffffffffffffffffffffffff1602179055507f239b189726729811e87d7845d82777804144af4e76981af04d802a85f7442b6660068281548110610b8d57fe5b906000526020600020906003020160000160009054906101000a900473ffffffffffffffffffffffffffffffffffffffff1660068381548110610bcc57fe5b906000526020600020906003020160010160068481548110610bea57fe5b906000526020600020906003020160020160009054906101000a900473ffffffffffffffffffffffffffffffffffffffff16604051610c2b93929190613d45565b60405180910390a150505050565b6000610c448561302d565b90508360088281548110610c5457fe5b90600052602060002090600402016001019080519060200190610c7892919061327b565b508260088281548110610c8757fe5b90600052602060002090600402016002019080519060200190610cab92919061327b565b508160088281548110610cba57fe5b906000526020600020906004020160030160006101000a81548173ffffffffffffffffffffffffffffffffffffffff021916908373ffffffffffffffffffffffffffffffffffffffff1602179055507fba2bd0d5052fb9458eaac383932e8112a57bfc6a1836ad7118b1673447d3e6ae60088281548110610d3757fe5b90600052602060002090600402016000015460088381548110610d5657fe5b906000526020600020906004020160010160088481548110610d7457fe5b906000526020600020906004020160020160088581548110610d9257fe5b906000526020600020906004020160030160009054906101000a900473ffffffffffffffffffffffffffffffffffffffff16604051610dd494939291906140e8565b60405180910390a15050505050565b6000610dee826130bf565b9050600060048281548110610dff57fe5b906000526020600020906006020160050160006101000a81548160ff0219169083151502179055507f05818f5e23a2c2bb34c81792ea8e3397d3f8ad179cb93a5fa57b3d4681564aa060048281548110610e5557fe5b906000526020600020906006020160000160009054906101000a900473ffffffffffffffffffffffffffffffffffffffff1660048381548110610e9457fe5b906000526020600020906006020160010160048481548110610eb257fe5b906000526020600020906006020160020160048581548110610ed057fe5b906000526020600020906006020160030160048681548110610eee57fe5b90600052602060002090600602016004015460048781548110610f0d57fe5b906000526020600020906006020160050160009054906101000a900460ff16604051610f3e96959493929190613e37565b60405180910390a15050565b6060600060048054905067ffffffffffffffff81118015610f6a57600080fd5b50604051908082528060200260200182016040528015610fa457816020015b610f91613309565b815260200190600190039081610f895790505b50905060005b6004805490508110156112625760048181548110610fc457fe5b90600052602060002090600602016040518060c00160405290816000820160009054906101000a900473ffffffffffffffffffffffffffffffffffffffff1673ffffffffffffffffffffffffffffffffffffffff1673ffffffffffffffffffffffffffffffffffffffff168152602001600182018054600181600116156101000203166002900480601f0160208091040260200160405190810160405280929190818152602001828054600181600116156101000203166002900480156110cc5780601f106110a1576101008083540402835291602001916110cc565b820191906000526020600020905b8154815290600101906020018083116110af57829003601f168201915b50505050508152602001600282018054600181600116156101000203166002900480601f01602080910402602001604051908101604052809291908181526020018280546001816001161561010002031660029004801561116e5780601f106111435761010080835404028352916020019161116e565b820191906000526020600020905b81548152906001019060200180831161115157829003601f168201915b50505050508152602001600382018054600181600116156101000203166002900480601f0160208091040260200160405190810160405280929190818152602001828054600181600116156101000203166002900480156112105780601f106111e557610100808354040283529160200191611210565b820191906000526020600020905b8154815290600101906020018083116111f357829003601f168201915b50505050508152602001600482015481526020016005820160009054906101000a900460ff16151515158152505082828151811061124a57fe5b60200260200101819052508080600101915050610faa565b508091505090565b6060600060088054905067ffffffffffffffff8111801561128a57600080fd5b506040519080825280602002602001820160405280156112c457816020015b6112b1613357565b8152602001906001900390816112a95790505b50905060005b6008805490508110156114e057600881815481106112e457fe5b90600052602060002090600402016040518060a001604052908160008201548152602001600182018054600181600116156101000203166002900480601f0160208091040260200160405190810160405280929190818152602001828054600181600116156101000203166002900480156113a05780601f10611375576101008083540402835291602001916113a0565b820191906000526020600020905b81548152906001019060200180831161138357829003601f168201915b50505050508152602001600282018054600181600116156101000203166002900480601f0160208091040260200160405190810160405280929190818152602001828054600181600116156101000203166002900480156114425780601f1061141757610100808354040283529160200191611442565b820191906000526020600020905b81548152906001019060200180831161142557829003601f168201915b505050505081526020016003820160009054906101000a900473ffffffffffffffffffffffffffffffffffffffff1673ffffffffffffffffffffffffffffffffffffffff1673ffffffffffffffffffffffffffffffffffffffff1681526020016003820160149054906101000a900460ff1615151515815250508282815181106114c857fe5b602002602001018190525080806001019150506112ca565b508091505090565b60006114f38261302d565b905060006008828154811061150457fe5b906000526020600020906004020160030160146101000a81548160ff0219169083151502179055507fef9006907eb20210e880b0bb1c39946083bcec24688718507d63a259ffa8351b6008828154811061155a57fe5b9060005260206000209060040201600001546008838154811061157957fe5b90600052602060002090600402016001016008848154811061159757fe5b9060005260206000209060040201600201600885815481106115b557fe5b906000526020600020906004020160030160009054906101000a900473ffffffffffffffffffffffffffffffffffffffff16600886815481106115f457fe5b906000526020600020906004020160030160149054906101000a900460ff1660405161162495949392919061413b565b60405180910390a15050565b606060008060006116408561319d565b90506006818154811061164f57fe5b90600052602060002090600302016001016006828154811061166d57fe5b906000526020600020906003020160020160009054906101000a900473ffffffffffffffffffffffffffffffffffffffff16600683815481106116ac57fe5b906000526020600020906003020160020160149054906101000a900460ff16828054600181600116156101000203166002900480601f0160208091040260200160405190810160405280929190818152602001828054600181600116156101000203166002900480156117605780601f1061173557610100808354040283529160200191611760565b820191906000526020600020905b81548152906001019060200180831161174357829003601f168201915b50505050509250935093509350509193909250565b6007602052806000526040600020600091509050806000015490806001018054600181600116156101000203166002900480601f0160208091040260200160405190810160405280929190818152602001828054600181600116156101000203166002900480156118275780601f106117fc57610100808354040283529160200191611827565b820191906000526020600020905b81548152906001019060200180831161180a57829003601f168201915b505050505090806002018054600181600116156101000203166002900480601f0160208091040260200160405190810160405280929190818152602001828054600181600116156101000203166002900480156118c55780601f1061189a576101008083540402835291602001916118c5565b820191906000526020600020905b8154815290600101906020018083116118a857829003601f168201915b5050505050908060030160009054906101000a900473ffffffffffffffffffffffffffffffffffffffff16908060030160149054906101000a900460ff16905085565b6006818154811061191857600080fd5b90600052602060002090600302016000915090508060000160009054906101000a900473ffffffffffffffffffffffffffffffffffffffff1690806001018054600181600116156101000203166002900480601f0160208091040260200160405190810160405280929190818152602001828054600181600116156101000203166002900480156119ea5780601f106119bf576101008083540402835291602001916119ea565b820191906000526020600020905b8154815290600101906020018083116119cd57829003601f168201915b5050505050908060020160009054906101000a900473ffffffffffffffffffffffffffffffffffffffff16908060020160149054906101000a900460ff16905084565b6060600060088054905067ffffffffffffffff81118015611a4d57600080fd5b50604051908082528060200260200182016040528015611a8757816020015b611a74613357565b815260200190600190039081611a6c5790505b50905060005b600880549050811015611d165760088181548110611aa757fe5b906000526020600020906004020160030160009054906101000a900473ffffffffffffffffffffffffffffffffffffffff1673ffffffffffffffffffffffffffffffffffffffff168473ffffffffffffffffffffffffffffffffffffffff161415611d095760088181548110611b1957fe5b90600052602060002090600402016040518060a001604052908160008201548152602001600182018054600181600116156101000203166002900480601f016020809104026020016040519081016040528092919081815260200182805460018160011615610100020316600290048015611bd55780601f10611baa57610100808354040283529160200191611bd5565b820191906000526020600020905b815481529060010190602001808311611bb857829003601f168201915b50505050508152602001600282018054600181600116156101000203166002900480601f016020809104026020016040519081016040528092919081815260200182805460018160011615610100020316600290048015611c775780601f10611c4c57610100808354040283529160200191611c77565b820191906000526020600020905b815481529060010190602001808311611c5a57829003601f168201915b505050505081526020016003820160009054906101000a900473ffffffffffffffffffffffffffffffffffffffff1673ffffffffffffffffffffffffffffffffffffffff1673ffffffffffffffffffffffffffffffffffffffff1681526020016003820160149054906101000a900460ff161515151581525050828281518110611cfd57fe5b60200260200101819052505b8080600101915050611a8d565b5080915050919050565b60608060606000806000611d33876130bf565b905060048181548110611d4257fe5b906000526020600020906006020160010160048281548110611d6057fe5b906000526020600020906006020160020160048381548110611d7e57fe5b906000526020600020906006020160030160048481548110611d9c57fe5b90600052602060002090600602016004015460048581548110611dbb57fe5b906000526020600020906006020160050160009054906101000a900460ff16848054600181600116156101000203166002900480601f016020809104026020016040519081016040528092919081815260200182805460018160011615610100020316600290048015611e6f5780601f10611e4457610100808354040283529160200191611e6f565b820191906000526020600020905b815481529060010190602001808311611e5257829003601f168201915b50505050509450838054600181600116156101000203166002900480601f016020809104026020016040519081016040528092919081815260200182805460018160011615610100020316600290048015611f0b5780601f10611ee057610100808354040283529160200191611f0b565b820191906000526020600020905b815481529060010190602001808311611eee57829003601f168201915b50505050509350828054600181600116156101000203166002900480601f016020809104026020016040519081016040528092919081815260200182805460018160011615610100020316600290048015611fa75780601f10611f7c57610100808354040283529160200191611fa7565b820191906000526020600020905b815481529060010190602001808311611f8a57829003601f168201915b50505050509250955095509550955095505091939590929450565b6000611fcd8261319d565b9050600060068281548110611fde57fe5b906000526020600020906003020160020160146101000a81548160ff0219169083151502179055507f780b3c74ec1e08d8c65fd8a12c6ac2da5c15f2d3b5e54335b51671f63b7d2ad06006828154811061203457fe5b906000526020600020906003020160000160009054906101000a900473ffffffffffffffffffffffffffffffffffffffff166006838154811061207357fe5b90600052602060002090600302016001016006848154811061209157fe5b906000526020600020906003020160020160009054906101000a900473ffffffffffffffffffffffffffffffffffffffff16600685815481106120d057fe5b906000526020600020906003020160020160149054906101000a900460ff166040516120ff9493929190613d83565b60405180910390a15050565b6000600480549050905090565b60046040518060c001604052808773ffffffffffffffffffffffffffffffffffffffff16815260200186815260200185815260200184815260200183815260200160011515815250908060018154018082558091505060019003906000526020600020906006020160009091909190915060008201518160000160006101000a81548173ffffffffffffffffffffffffffffffffffffffff021916908373ffffffffffffffffffffffffffffffffffffffff16021790555060208201518160010190805190602001906121ec92919061327b565b50604082015181600201908051906020019061220992919061327b565b50606082015181600301908051906020019061222692919061327b565b506080820151816004015560a08201518160050160006101000a81548160ff02191690831515021790555050507ff646212acc3f5092fb0211ffd5121c0f706641b715e3982dab50afb395413dd58585858585600160405161228d96959493929190613ccf565b60405180910390a15050505050565b60036020528060005260406000206000915090508060000160009054906101000a900473ffffffffffffffffffffffffffffffffffffffff1690806001018054600181600116156101000203166002900480601f01602080910402602001604051908101604052809291908181526020018280546001816001161561010002031660029004801561236e5780601f106123435761010080835404028352916020019161236e565b820191906000526020600020905b81548152906001019060200180831161235157829003601f168201915b505050505090806002018054600181600116156101000203166002900480601f01602080910402602001604051908101604052809291908181526020018280546001816001161561010002031660029004801561240c5780601f106123e15761010080835404028352916020019161240c565b820191906000526020600020905b8154815290600101906020018083116123ef57829003601f168201915b505050505090806003018054600181600116156101000203166002900480601f0160208091040260200160405190810160405280929190818152602001828054600181600116156101000203166002900480156124aa5780601f1061247f576101008083540402835291602001916124aa565b820191906000526020600020905b81548152906001019060200180831161248d57829003601f168201915b5050505050908060040154908060050160009054906101000a900460ff16905086565b6000600880549050905090565b6060600060068054905067ffffffffffffffff811180156124fa57600080fd5b5060405190808252806020026020018201604052801561253457816020015b61252161339e565b8152602001906001900390816125195790505b50905060005b60068054905081101561276d576006818154811061255457fe5b906000526020600020906003020160020160009054906101000a900473ffffffffffffffffffffffffffffffffffffffff1673ffffffffffffffffffffffffffffffffffffffff168473ffffffffffffffffffffffffffffffffffffffff16141561276057600681815481106125c657fe5b90600052602060002090600302016040518060800160405290816000820160009054906101000a900473ffffffffffffffffffffffffffffffffffffffff1673ffffffffffffffffffffffffffffffffffffffff1673ffffffffffffffffffffffffffffffffffffffff168152602001600182018054600181600116156101000203166002900480601f0160208091040260200160405190810160405280929190818152602001828054600181600116156101000203166002900480156126ce5780601f106126a3576101008083540402835291602001916126ce565b820191906000526020600020905b8154815290600101906020018083116126b157829003601f168201915b505050505081526020016002820160009054906101000a900473ffffffffffffffffffffffffffffffffffffffff1673ffffffffffffffffffffffffffffffffffffffff1673ffffffffffffffffffffffffffffffffffffffff1681526020016002820160149054906101000a900460ff16151515158152505082828151811061275457fe5b60200260200101819052505b808060010191505061253a565b5080915050919050565b6004818154811061278757600080fd5b90600052602060002090600602016000915090508060000160009054906101000a900473ffffffffffffffffffffffffffffffffffffffff1690806001018054600181600116156101000203166002900480601f0160208091040260200160405190810160405280929190818152602001828054600181600116156101000203166002900480156128595780601f1061282e57610100808354040283529160200191612859565b820191906000526020600020905b81548152906001019060200180831161283c57829003601f168201915b505050505090806002018054600181600116156101000203166002900480601f0160208091040260200160405190810160405280929190818152602001828054600181600116156101000203166002900480156128f75780601f106128cc576101008083540402835291602001916128f7565b820191906000526020600020905b8154815290600101906020018083116128da57829003601f168201915b505050505090806003018054600181600116156101000203166002900480601f0160208091040260200160405190810160405280929190818152602001828054600181600116156101000203166002900480156129955780601f1061296a57610100808354040283529160200191612995565b820191906000526020600020905b81548152906001019060200180831161297857829003601f168201915b5050505050908060040154908060050160009054906101000a900460ff16905086565b60056020528060005260406000206000915090508060000160009054906101000a900473ffffffffffffffffffffffffffffffffffffffff1690806001018054600181600116156101000203166002900480601f016020809104026020016040519081016040528092919081815260200182805460018160011615610100020316600290048015612a8a5780601f10612a5f57610100808354040283529160200191612a8a565b820191906000526020600020905b815481529060010190602001808311612a6d57829003601f168201915b5050505050908060020160009054906101000a900473ffffffffffffffffffffffffffffffffffffffff16908060020160149054906101000a900460ff16905084565b612ad6816130bf565b50600660405180608001604052808573ffffffffffffffffffffffffffffffffffffffff1681526020018481526020018373ffffffffffffffffffffffffffffffffffffffff16815260200160011515815250908060018154018082558091505060019003906000526020600020906003020160009091909190915060008201518160000160006101000a81548173ffffffffffffffffffffffffffffffffffffffff021916908373ffffffffffffffffffffffffffffffffffffffff1602179055506020820151816001019080519060200190612bb592919061327b565b5060408201518160020160006101000a81548173ffffffffffffffffffffffffffffffffffffffff021916908373ffffffffffffffffffffffffffffffffffffffff16021790555060608201518160020160146101000a81548160ff02191690831515021790555050507f4578695497af1a3a1f556f9c89f9f107851cb8e1820e4b336143406b9ba52e3b8383836001604051612c559493929190613c83565b60405180910390a1505050565b60088181548110612c7257600080fd5b9060005260206000209060040201600091509050806000015490806001018054600181600116156101000203166002900480601f016020809104026020016040519081016040528092919081815260200182805460018160011615610100020316600290048015612d245780601f10612cf957610100808354040283529160200191612d24565b820191906000526020600020905b815481529060010190602001808311612d0757829003601f168201915b505050505090806002018054600181600116156101000203166002900480601f016020809104026020016040519081016040528092919081815260200182805460018160011615610100020316600290048015612dc25780601f10612d9757610100808354040283529160200191612dc2565b820191906000526020600020905b815481529060010190602001808311612da557829003601f168201915b5050505050908060030160009054906101000a900473ffffffffffffffffffffffffffffffffffffffff16908060030160149054906101000a900460ff16905085565b6060600060068054905067ffffffffffffffff81118015612e2557600080fd5b50604051908082528060200260200182016040528015612e5f57816020015b612e4c61339e565b815260200190600190039081612e445790505b50905060005b6006805490508110156130255760068181548110612e7f57fe5b90600052602060002090600302016040518060800160405290816000820160009054906101000a900473ffffffffffffffffffffffffffffffffffffffff1673ffffffffffffffffffffffffffffffffffffffff1673ffffffffffffffffffffffffffffffffffffffff168152602001600182018054600181600116156101000203166002900480601f016020809104026020016040519081016040528092919081815260200182805460018160011615610100020316600290048015612f875780601f10612f5c57610100808354040283529160200191612f87565b820191906000526020600020905b815481529060010190602001808311612f6a57829003601f168201915b505050505081526020016002820160009054906101000a900473ffffffffffffffffffffffffffffffffffffffff1673ffffffffffffffffffffffffffffffffffffffff1673ffffffffffffffffffffffffffffffffffffffff1681526020016002820160149054906101000a900460ff16151515158152505082828151811061300d57fe5b60200260200101819052508080600101915050612e65565b508091505090565b600080600090505b60088054905081101561307e57826008828154811061305057fe5b906000526020600020906004020160000154141561307157809150506130ba565b8080600101915050613035565b506040517f08c379a00000000000000000000000000000000000000000000000000000000081526004016130b19061402c565b60405180910390fd5b919050565b600080600090505b60048054905081101561315c578273ffffffffffffffffffffffffffffffffffffffff16600482815481106130f857fe5b906000526020600020906006020160000160009054906101000a900473ffffffffffffffffffffffffffffffffffffffff1673ffffffffffffffffffffffffffffffffffffffff16141561314f5780915050613198565b80806001019150506130c7565b506040517f08c379a000000000000000000000000000000000000000000000000000000000815260040161318f9061404c565b60405180910390fd5b919050565b600080600090505b60068054905081101561323a578273ffffffffffffffffffffffffffffffffffffffff16600682815481106131d657fe5b906000526020600020906003020160000160009054906101000a900473ffffffffffffffffffffffffffffffffffffffff1673ffffffffffffffffffffffffffffffffffffffff16141561322d5780915050613276565b80806001019150506131a5565b506040517f08c379a000000000000000000000000000000000000000000000000000000000815260040161326d9061400c565b60405180910390fd5b919050565b828054600181600116156101000203166002900490600052602060002090601f0160209004810192826132b157600085556132f8565b82601f106132ca57805160ff19168380011785556132f8565b828001600101855582156132f8579182015b828111156132f75782518255916020019190600101906132dc565b5b50905061330591906133f4565b5090565b6040518060c00160405280600073ffffffffffffffffffffffffffffffffffffffff168152602001606081526020016060815260200160608152602001600081526020016000151581525090565b6040518060a00160405280600081526020016060815260200160608152602001600073ffffffffffffffffffffffffffffffffffffffff1681526020016000151581525090565b6040518060800160405280600073ffffffffffffffffffffffffffffffffffffffff16815260200160608152602001600073ffffffffffffffffffffffffffffffffffffffff1681526020016000151581525090565b5b8082111561340d5760008160009055506001016133f5565b5090565b600061342461341f846141cd565b61419c565b90508281526020810184848401111561343c57600080fd5b613447848285614332565b509392505050565b60008135905061345e81614387565b92915050565b6000813590506134738161439e565b92915050565b600082601f83011261348a57600080fd5b813561349a848260208601613411565b91505092915050565b6000813590506134b2816143b5565b92915050565b6000602082840312156134ca57600080fd5b60006134d88482850161344f565b91505092915050565b6000806000606084860312156134f657600080fd5b60006135048682870161344f565b935050602084013567ffffffffffffffff81111561352157600080fd5b61352d86828701613479565b925050604061353e8682870161344f565b9150509250925092565b600080600080600060a0868803121561356057600080fd5b600061356e8882890161344f565b955050602086013567ffffffffffffffff81111561358b57600080fd5b61359788828901613479565b945050604086013567ffffffffffffffff8111156135b457600080fd5b6135c088828901613479565b935050606086013567ffffffffffffffff8111156135dd57600080fd5b6135e988828901613479565b92505060806135fa888289016134a3565b9150509295509295909350565b6000806000806080858703121561361d57600080fd5b600085013567ffffffffffffffff81111561363757600080fd5b61364387828801613479565b945050602085013567ffffffffffffffff81111561366057600080fd5b61366c87828801613479565b935050604061367d8782880161344f565b925050606061368e87828801613464565b91505092959194509250565b6000602082840312156136ac57600080fd5b60006136ba848285016134a3565b91505092915050565b600080600080608085870312156136d957600080fd5b60006136e7878288016134a3565b945050602085013567ffffffffffffffff81111561370457600080fd5b61371087828801613479565b935050604085013567ffffffffffffffff81111561372d57600080fd5b61373987828801613479565b925050606061374a8782880161344f565b91505092959194509250565b60006137628383613aee565b905092915050565b60006137768383613b51565b905092915050565b600061378a8383613be8565b905092915050565b61379b816142ea565b82525050565b6137aa816142ea565b82525050565b60006137bb82614242565b6137c58185614295565b9350836020820285016137d7856141fd565b8060005b8581101561381357848403895281516137f48582613756565b94506137ff8361426e565b925060208a019950506001810190506137db565b50829750879550505050505092915050565b60006138308261424d565b61383a81856142a6565b93508360208202850161384c8561420d565b8060005b858110156138885784840389528151613869858261376a565b94506138748361427b565b925060208a01995050600181019050613850565b50829750879550505050505092915050565b60006138a582614258565b6138af81856142b7565b9350836020820285016138c18561421d565b8060005b858110156138fd57848403895281516138de858261377e565b94506138e983614288565b925060208a019950506001810190506138c5565b50829750879550505050505092915050565b613918816142fc565b82525050565b613927816142fc565b82525050565b600061393882614263565b61394281856142c8565b9350613952818560208601614341565b61395b81614376565b840191505092915050565b600061397182614263565b61397b81856142d9565b935061398b818560208601614341565b61399481614376565b840191505092915050565b6000815460018116600081146139bc57600181146139e257613a26565b607f60028304166139cd81876142d9565b955060ff198316865260208601935050613a26565b600282046139f081876142d9565b95506139fb8561422d565b60005b82811015613a1d578154818901526001820191506020810190506139fe565b80880195505050505b505092915050565b6000613a3b6010836142d9565b91507f446f63746f72206e6f7420666f756e64000000000000000000000000000000006000830152602082019050919050565b6000613a7b6010836142d9565b91507f53656e736f72206e6f7420666f756e64000000000000000000000000000000006000830152602082019050919050565b6000613abb6012836142d9565b91507f486f73706974616c206e6f7420666f756e6400000000000000000000000000006000830152602082019050919050565b6000608083016000830151613b066000860182613792565b5060208301518482036020860152613b1e828261392d565b9150506040830151613b336040860182613792565b506060830151613b46606086018261390f565b508091505092915050565b600060c083016000830151613b696000860182613792565b5060208301518482036020860152613b81828261392d565b91505060408301518482036040860152613b9b828261392d565b91505060608301518482036060860152613bb5828261392d565b9150506080830151613bca6080860182613c65565b5060a0830151613bdd60a086018261390f565b508091505092915050565b600060a083016000830151613c006000860182613c65565b5060208301518482036020860152613c18828261392d565b91505060408301518482036040860152613c32828261392d565b9150506060830151613c476060860182613792565b506080830151613c5a608086018261390f565b508091505092915050565b613c6e81614328565b82525050565b613c7d81614328565b82525050565b6000608082019050613c9860008301876137a1565b8181036020830152613caa8186613966565b9050613cb960408301856137a1565b613cc6606083018461391e565b95945050505050565b600060c082019050613ce460008301896137a1565b8181036020830152613cf68188613966565b90508181036040830152613d0a8187613966565b90508181036060830152613d1e8186613966565b9050613d2d6080830185613c74565b613d3a60a083018461391e565b979650505050505050565b6000606082019050613d5a60008301866137a1565b8181036020830152613d6c818561399f565b9050613d7b60408301846137a1565b949350505050565b6000608082019050613d9860008301876137a1565b8181036020830152613daa818661399f565b9050613db960408301856137a1565b613dc6606083018461391e565b95945050505050565b600060a082019050613de460008301886137a1565b8181036020830152613df6818761399f565b90508181036040830152613e0a818661399f565b90508181036060830152613e1e818561399f565b9050613e2d6080830184613c74565b9695505050505050565b600060c082019050613e4c60008301896137a1565b8181036020830152613e5e818861399f565b90508181036040830152613e72818761399f565b90508181036060830152613e86818661399f565b9050613e956080830185613c74565b613ea260a083018461391e565b979650505050505050565b60006020820190508181036000830152613ec781846137b0565b905092915050565b60006020820190508181036000830152613ee98184613825565b905092915050565b60006020820190508181036000830152613f0b818461389a565b905092915050565b60006060820190508181036000830152613f2d8186613966565b9050613f3c60208301856137a1565b613f49604083018461391e565b949350505050565b60006080820190508181036000830152613f6b8187613966565b90508181036020830152613f7f8186613966565b9050613f8e60408301856137a1565b613f9b606083018461391e565b95945050505050565b600060a0820190508181036000830152613fbe8188613966565b90508181036020830152613fd28187613966565b90508181036040830152613fe68186613966565b9050613ff56060830185613c74565b614002608083018461391e565b9695505050505050565b6000602082019050818103600083015261402581613a2e565b9050919050565b6000602082019050818103600083015261404581613a6e565b9050919050565b6000602082019050818103600083015261406581613aae565b9050919050565b60006020820190506140816000830184613c74565b92915050565b600060a08201905061409c6000830188613c74565b81810360208301526140ae8187613966565b905081810360408301526140c28186613966565b90506140d160608301856137a1565b6140de608083018461391e565b9695505050505050565b60006080820190506140fd6000830187613c74565b818103602083015261410f818661399f565b90508181036040830152614123818561399f565b905061413260608301846137a1565b95945050505050565b600060a0820190506141506000830188613c74565b8181036020830152614162818761399f565b90508181036040830152614176818661399f565b905061418560608301856137a1565b614192608083018461391e565b9695505050505050565b6000604051905081810181811067ffffffffffffffff821117156141c3576141c2614374565b5b8060405250919050565b600067ffffffffffffffff8211156141e8576141e7614374565b5b601f19601f8301169050602081019050919050565b6000819050602082019050919050565b6000819050602082019050919050565b6000819050602082019050919050565b60008190508160005260206000209050919050565b600081519050919050565b600081519050919050565b600081519050919050565b600081519050919050565b6000602082019050919050565b6000602082019050919050565b6000602082019050919050565b600082825260208201905092915050565b600082825260208201905092915050565b600082825260208201905092915050565b600082825260208201905092915050565b600082825260208201905092915050565b60006142f582614308565b9050919050565b60008115159050919050565b600073ffffffffffffffffffffffffffffffffffffffff82169050919050565b6000819050919050565b82818337600083830152505050565b60005b8381101561435f578082015181840152602081019050614344565b8381111561436e576000848401525b50505050565bfe5b6000601f19601f8301169050919050565b614390816142ea565b811461439b57600080fd5b50565b6143a7816142fc565b81146143b257600080fd5b50565b6143be81614328565b81146143c957600080fd5b5056fea264697066735822122025e7319660ae181ef0ee98e916fd02c1da9d55a2cbd74a963f591fa3f93f9a4964736f6c63430007060033",
      "opcodes": "PUSH1 0x80 PUSH1 0x40 MSTORE PUSH20 0x8FCF3B91599C6D5BB93D8C7DF9F3974C622B83A4 PUSH1 0x2 PUSH1 0x0 PUSH2 0x100 EXP DUP2 SLOAD DUP2 PUSH20 0xFFFFFFFFFFFFFFFFFFFFFFFFFFFFFFFFFFFFFFFF MUL NOT AND SWAP1 DUP4 PUSH20 0xFFFFFFFFFFFFFFFFFFFFFFFFFFFFFFFFFFFFFFFF AND MUL OR SWAP1 SSTORE POP CALLVALUE DUP1 ISZERO PUSH2 0x65 JUMPI PUSH1 0x0 DUP1 REVERT JUMPDEST POP PUSH2 0x4402 DUP1 PUSH2 0x75 PUSH1 0x0 CODECOPY PUSH1 0x0 RETURN INVALID PUSH1 0x80 PUSH1 0x40 MSTORE CALLVALUE DUP1 ISZERO PUSH2 0x10 JUMPI PUSH1 0x0 DUP1 REVERT JUMPDEST POP PUSH1 0x4 CALLDATASIZE LT PUSH2 0x18E JUMPI PUSH1 0x0 CALLDATALOAD PUSH1 0xE0 SHR DUP1 PUSH4 0x9A2E5BED GT PUSH2 0xDE JUMPI DUP1 PUSH4 0xB5843613 GT PUSH2 0x97 JUMPI DUP1 PUSH4 0xDC7AA36B GT PUSH2 0x71 JUMPI DUP1 PUSH4 0xDC7AA36B EQ PUSH2 0x4D3 JUMPI DUP1 PUSH4 0xE1EE3B56 EQ PUSH2 0x506 JUMPI DUP1 PUSH4 0xEA87659F EQ PUSH2 0x522 JUMPI DUP1 PUSH4 0xF0D95090 EQ PUSH2 0x556 JUMPI PUSH2 0x18E JUMP JUMPDEST DUP1 PUSH4 0xB5843613 EQ PUSH2 0x450 JUMPI DUP1 PUSH4 0xC266406D EQ PUSH2 0x46E JUMPI DUP1 PUSH4 0xD53D0A85 EQ PUSH2 0x49E JUMPI PUSH2 0x18E JUMP JUMPDEST DUP1 PUSH4 0x9A2E5BED EQ PUSH2 0x361 JUMPI DUP1 PUSH4 0x9B70E779 EQ PUSH2 0x391 JUMPI DUP1 PUSH4 0xA0568E2D EQ PUSH2 0x3C5 JUMPI DUP1 PUSH4 0xA17D7A38 EQ PUSH2 0x3E1 JUMPI DUP1 PUSH4 0xA27876C5 EQ PUSH2 0x3FF JUMPI DUP1 PUSH4 0xA549A4ED EQ PUSH2 0x41B JUMPI PUSH2 0x18E JUMP JUMPDEST DUP1 PUSH4 0x4807FC69 GT PUSH2 0x14B JUMPI DUP1 PUSH4 0x6151EFB1 GT PUSH2 0x125 JUMPI DUP1 PUSH4 0x6151EFB1 EQ PUSH2 0x2AC JUMPI DUP1 PUSH4 0x6CD8EBDC EQ PUSH2 0x2C8 JUMPI DUP1 PUSH4 0x898BD140 EQ PUSH2 0x2FA JUMPI DUP1 PUSH4 0x8DB2FC41 EQ PUSH2 0x32E JUMPI PUSH2 0x18E JUMP JUMPDEST DUP1 PUSH4 0x4807FC69 EQ PUSH2 0x254 JUMPI DUP1 PUSH4 0x4E9F7154 EQ PUSH2 0x270 JUMPI DUP1 PUSH4 0x5A4E5D3E EQ PUSH2 0x28E JUMPI PUSH2 0x18E JUMP JUMPDEST DUP1 PUSH4 0x2655C2E EQ PUSH2 0x193 JUMPI DUP1 PUSH4 0x14C94371 EQ PUSH2 0x1C6 JUMPI DUP1 PUSH4 0x1B057E40 EQ PUSH2 0x1E2 JUMPI DUP1 PUSH4 0x1BA51696 EQ PUSH2 0x1FE JUMPI DUP1 PUSH4 0x1BDC5098 EQ PUSH2 0x21C JUMPI DUP1 PUSH4 0x459D470E EQ PUSH2 0x238 JUMPI JUMPDEST PUSH1 0x0 DUP1 REVERT JUMPDEST PUSH2 0x1AD PUSH1 0x4 DUP1 CALLDATASIZE SUB DUP2 ADD SWAP1 PUSH2 0x1A8 SWAP2 SWAP1 PUSH2 0x369A JUMP JUMPDEST PUSH2 0x574 JUMP JUMPDEST PUSH1 0x40 MLOAD PUSH2 0x1BD SWAP5 SWAP4 SWAP3 SWAP2 SWAP1 PUSH2 0x3F51 JUMP JUMPDEST PUSH1 0x40 MLOAD DUP1 SWAP2 SUB SWAP1 RETURN JUMPDEST PUSH2 0x1E0 PUSH1 0x4 DUP1 CALLDATASIZE SUB DUP2 ADD SWAP1 PUSH2 0x1DB SWAP2 SWAP1 PUSH2 0x3548 JUMP JUMPDEST PUSH2 0x776 JUMP JUMPDEST STOP JUMPDEST PUSH2 0x1FC PUSH1 0x4 DUP1 CALLDATASIZE SUB DUP2 ADD SWAP1 PUSH2 0x1F7 SWAP2 SWAP1 PUSH2 0x3607 JUMP JUMPDEST PUSH2 0x939 JUMP JUMPDEST STOP JUMPDEST PUSH2 0x206 PUSH2 0xAB5 JUMP JUMPDEST PUSH1 0x40 MLOAD PUSH2 0x213 SWAP2 SWAP1 PUSH2 0x406C JUMP JUMPDEST PUSH1 0x40 MLOAD DUP1 SWAP2 SUB SWAP1 RETURN JUMPDEST PUSH2 0x236 PUSH1 0x4 DUP1 CALLDATASIZE SUB DUP2 ADD SWAP1 PUSH2 0x231 SWAP2 SWAP1 PUSH2 0x34E1 JUMP JUMPDEST PUSH2 0xAC2 JUMP JUMPDEST STOP JUMPDEST PUSH2 0x252 PUSH1 0x4 DUP1 CALLDATASIZE SUB DUP2 ADD SWAP1 PUSH2 0x24D SWAP2 SWAP1 PUSH2 0x36C3 JUMP JUMPDEST PUSH2 0xC39 JUMP JUMPDEST STOP JUMPDEST PUSH2 0x26E PUSH1 0x4 DUP1 CALLDATASIZE SUB DUP2 ADD SWAP1 PUSH2 0x269 SWAP2 SWAP1 PUSH2 0x34B8 JUMP JUMPDEST PUSH2 0xDE3 JUMP JUMPDEST STOP JUMPDEST PUSH2 0x278 PUSH2 0xF4A JUMP JUMPDEST PUSH1 0x40 MLOAD PUSH2 0x285 SWAP2 SWAP1 PUSH2 0x3ECF JUMP JUMPDEST PUSH1 0x40 MLOAD DUP1 SWAP2 SUB SWAP1 RETURN JUMPDEST PUSH2 0x296 PUSH2 0x126A JUMP JUMPDEST PUSH1 0x40 MLOAD PUSH2 0x2A3 SWAP2 SWAP1 PUSH2 0x3EF1 JUMP JUMPDEST PUSH1 0x40 MLOAD DUP1 SWAP2 SUB SWAP1 RETURN JUMPDEST PUSH2 0x2C6 PUSH1 0x4 DUP1 CALLDATASIZE SUB DUP2 ADD SWAP1 PUSH2 0x2C1 SWAP2 SWAP1 PUSH2 0x369A JUMP JUMPDEST PUSH2 0x14E8 JUMP JUMPDEST STOP JUMPDEST PUSH2 0x2E2 PUSH1 0x4 DUP1 CALLDATASIZE SUB DUP2 ADD SWAP1 PUSH2 0x2DD SWAP2 SWAP1 PUSH2 0x34B8 JUMP JUMPDEST PUSH2 0x1630 JUMP JUMPDEST PUSH1 0x40 MLOAD PUSH2 0x2F1 SWAP4 SWAP3 SWAP2 SWAP1 PUSH2 0x3F13 JUMP JUMPDEST PUSH1 0x40 MLOAD DUP1 SWAP2 SUB SWAP1 RETURN JUMPDEST PUSH2 0x314 PUSH1 0x4 DUP1 CALLDATASIZE SUB DUP2 ADD SWAP1 PUSH2 0x30F SWAP2 SWAP1 PUSH2 0x34B8 JUMP JUMPDEST PUSH2 0x1775 JUMP JUMPDEST PUSH1 0x40 MLOAD PUSH2 0x325 SWAP6 SWAP5 SWAP4 SWAP3 SWAP2 SWAP1 PUSH2 0x4087 JUMP JUMPDEST PUSH1 0x40 MLOAD DUP1 SWAP2 SUB SWAP1 RETURN JUMPDEST PUSH2 0x348 PUSH1 0x4 DUP1 CALLDATASIZE SUB DUP2 ADD SWAP1 PUSH2 0x343 SWAP2 SWAP1 PUSH2 0x369A JUMP JUMPDEST PUSH2 0x1908 JUMP JUMPDEST PUSH1 0x40 MLOAD PUSH2 0x358 SWAP5 SWAP4 SWAP3 SWAP2 SWAP1 PUSH2 0x3C83 JUMP JUMPDEST PUSH1 0x40 MLOAD DUP1 SWAP2 SUB SWAP1 RETURN JUMPDEST PUSH2 0x37B PUSH1 0x4 DUP1 CALLDATASIZE SUB DUP2 ADD SWAP1 PUSH2 0x376 SWAP2 SWAP1 PUSH2 0x34B8 JUMP JUMPDEST PUSH2 0x1A2D JUMP JUMPDEST PUSH1 0x40 MLOAD PUSH2 0x388 SWAP2 SWAP1 PUSH2 0x3EF1 JUMP JUMPDEST PUSH1 0x40 MLOAD DUP1 SWAP2 SUB SWAP1 RETURN JUMPDEST PUSH2 0x3AB PUSH1 0x4 DUP1 CALLDATASIZE SUB DUP2 ADD SWAP1 PUSH2 0x3A6 SWAP2 SWAP1 PUSH2 0x34B8 JUMP JUMPDEST PUSH2 0x1D20 JUMP JUMPDEST PUSH1 0x40 MLOAD PUSH2 0x3BC SWAP6 SWAP5 SWAP4 SWAP3 SWAP2 SWAP1 PUSH2 0x3FA4 JUMP JUMPDEST PUSH1 0x40 MLOAD DUP1 SWAP2 SUB SWAP1 RETURN JUMPDEST PUSH2 0x3DF PUSH1 0x4 DUP1 CALLDATASIZE SUB DUP2 ADD SWAP1 PUSH2 0x3DA SWAP2 SWAP1 PUSH2 0x34B8 JUMP JUMPDEST PUSH2 0x1FC2 JUMP JUMPDEST STOP JUMPDEST PUSH2 0x3E9 PUSH2 0x210B JUMP JUMPDEST PUSH1 0x40 MLOAD PUSH2 0x3F6 SWAP2 SWAP1 PUSH2 0x406C JUMP JUMPDEST PUSH1 0x40 MLOAD DUP1 SWAP2 SUB SWAP1 RETURN JUMPDEST PUSH2 0x419 PUSH1 0x4 DUP1 CALLDATASIZE SUB DUP2 ADD SWAP1 PUSH2 0x414 SWAP2 SWAP1 PUSH2 0x3548 JUMP JUMPDEST PUSH2 0x2118 JUMP JUMPDEST STOP JUMPDEST PUSH2 0x435 PUSH1 0x4 DUP1 CALLDATASIZE SUB DUP2 ADD SWAP1 PUSH2 0x430 SWAP2 SWAP1 PUSH2 0x34B8 JUMP JUMPDEST PUSH2 0x229C JUMP JUMPDEST PUSH1 0x40 MLOAD PUSH2 0x447 SWAP7 SWAP6 SWAP5 SWAP4 SWAP3 SWAP2 SWAP1 PUSH2 0x3CCF JUMP JUMPDEST PUSH1 0x40 MLOAD DUP1 SWAP2 SUB SWAP1 RETURN JUMPDEST PUSH2 0x458 PUSH2 0x24CD JUMP JUMPDEST PUSH1 0x40 MLOAD PUSH2 0x465 SWAP2 SWAP1 PUSH2 0x406C JUMP JUMPDEST PUSH1 0x40 MLOAD DUP1 SWAP2 SUB SWAP1 RETURN JUMPDEST PUSH2 0x488 PUSH1 0x4 DUP1 CALLDATASIZE SUB DUP2 ADD SWAP1 PUSH2 0x483 SWAP2 SWAP1 PUSH2 0x34B8 JUMP JUMPDEST PUSH2 0x24DA JUMP JUMPDEST PUSH1 0x40 MLOAD PUSH2 0x495 SWAP2 SWAP1 PUSH2 0x3EAD JUMP JUMPDEST PUSH1 0x40 MLOAD DUP1 SWAP2 SUB SWAP1 RETURN JUMPDEST PUSH2 0x4B8 PUSH1 0x4 DUP1 CALLDATASIZE SUB DUP2 ADD SWAP1 PUSH2 0x4B3 SWAP2 SWAP1 PUSH2 0x369A JUMP JUMPDEST PUSH2 0x2777 JUMP JUMPDEST PUSH1 0x40 MLOAD PUSH2 0x4CA SWAP7 SWAP6 SWAP5 SWAP4 SWAP3 SWAP2 SWAP1 PUSH2 0x3CCF JUMP JUMPDEST PUSH1 0x40 MLOAD DUP1 SWAP2 SUB SWAP1 RETURN JUMPDEST PUSH2 0x4ED PUSH1 0x4 DUP1 CALLDATASIZE SUB DUP2 ADD SWAP1 PUSH2 0x4E8 SWAP2 SWAP1 PUSH2 0x34B8 JUMP JUMPDEST PUSH2 0x29B8 JUMP JUMPDEST PUSH1 0x40 MLOAD PUSH2 0x4FD SWAP5 SWAP4 SWAP3 SWAP2 SWAP1 PUSH2 0x3C83 JUMP JUMPDEST PUSH1 0x40 MLOAD DUP1 SWAP2 SUB SWAP1 RETURN JUMPDEST PUSH2 0x520 PUSH1 0x4 DUP1 CALLDATASIZE SUB DUP2 ADD SWAP1 PUSH2 0x51B SWAP2 SWAP1 PUSH2 0x34E1 JUMP JUMPDEST PUSH2 0x2ACD JUMP JUMPDEST STOP JUMPDEST PUSH2 0x53C PUSH1 0x4 DUP1 CALLDATASIZE SUB DUP2 ADD SWAP1 PUSH2 0x537 SWAP2 SWAP1 PUSH2 0x369A JUMP JUMPDEST PUSH2 0x2C62 JUMP JUMPDEST PUSH1 0x40 MLOAD PUSH2 0x54D SWAP6 SWAP5 SWAP4 SWAP3 SWAP2 SWAP1 PUSH2 0x4087 JUMP JUMPDEST PUSH1 0x40 MLOAD DUP1 SWAP2 SUB SWAP1 RETURN JUMPDEST PUSH2 0x55E PUSH2 0x2E05 JUMP JUMPDEST PUSH1 0x40 MLOAD PUSH2 0x56B SWAP2 SWAP1 PUSH2 0x3EAD JUMP JUMPDEST PUSH1 0x40 MLOAD DUP1 SWAP2 SUB SWAP1 RETURN JUMPDEST PUSH1 0x60 DUP1 PUSH1 0x0 DUP1 PUSH1 0x0 PUSH2 0x585 DUP7 PUSH2 0x302D JUMP JUMPDEST SWAP1 POP PUSH1 0x8 DUP2 DUP2 SLOAD DUP2 LT PUSH2 0x594 JUMPI INVALID JUMPDEST SWAP1 PUSH1 0x0 MSTORE PUSH1 0x20 PUSH1 0x0 KECCAK256 SWAP1 PUSH1 0x4 MUL ADD PUSH1 0x1 ADD PUSH1 0x8 DUP3 DUP2 SLOAD DUP2 LT PUSH2 0x5B2 JUMPI INVALID JUMPDEST SWAP1 PUSH1 0x0 MSTORE PUSH1 0x20 PUSH1 0x0 KECCAK256 SWAP1 PUSH1 0x4 MUL ADD PUSH1 0x2 ADD PUSH1 0x8 DUP4 DUP2 SLOAD DUP2 LT PUSH2 0x5D0 JUMPI INVALID JUMPDEST SWAP1 PUSH1 0x0 MSTORE PUSH1 0x20 PUSH1 0x0 KECCAK256 SWAP1 PUSH1 0x4 MUL ADD PUSH1 0x3 ADD PUSH1 0x0 SWAP1 SLOAD SWAP1 PUSH2 0x100 EXP SWAP1 DIV PUSH20 0xFFFFFFFFFFFFFFFFFFFFFFFFFFFFFFFFFFFFFFFF AND PUSH1 0x8 DUP5 DUP2 SLOAD DUP2 LT PUSH2 0x60F JUMPI INVALID JUMPDEST SWAP1 PUSH1 0x0 MSTORE PUSH1 0x20 PUSH1 0x0 KECCAK256 SWAP1 PUSH1 0x4 MUL ADD PUSH1 0x3 ADD PUSH1 0x14 SWAP1 SLOAD SWAP1 PUSH2 0x100 EXP SWAP1 DIV PUSH1 0xFF AND DUP4 DUP1 SLOAD PUSH1 0x1 DUP2 PUSH1 0x1 AND ISZERO PUSH2 0x100 MUL SUB AND PUSH1 0x2 SWAP1 DIV DUP1 PUSH1 0x1F ADD PUSH1 0x20 DUP1 SWAP2 DIV MUL PUSH1 0x20 ADD PUSH1 0x40 MLOAD SWAP1 DUP2 ADD PUSH1 0x40 MSTORE DUP1 SWAP3 SWAP2 SWAP1 DUP2 DUP2 MSTORE PUSH1 0x20 ADD DUP3 DUP1 SLOAD PUSH1 0x1 DUP2 PUSH1 0x1 AND ISZERO PUSH2 0x100 MUL SUB AND PUSH1 0x2 SWAP1 DIV DUP1 ISZERO PUSH2 0x6C3 JUMPI DUP1 PUSH1 0x1F LT PUSH2 0x698 JUMPI PUSH2 0x100 DUP1 DUP4 SLOAD DIV MUL DUP4 MSTORE SWAP2 PUSH1 0x20 ADD SWAP2 PUSH2 0x6C3 JUMP JUMPDEST DUP3 ADD SWAP2 SWAP1 PUSH1 0x0 MSTORE PUSH1 0x20 PUSH1 0x0 KECCAK256 SWAP1 JUMPDEST DUP2 SLOAD DUP2 MSTORE SWAP1 PUSH1 0x1 ADD SWAP1 PUSH1 0x20 ADD DUP1 DUP4 GT PUSH2 0x6A6 JUMPI DUP3 SWAP1 SUB PUSH1 0x1F AND DUP3 ADD SWAP2 JUMPDEST POP POP POP POP POP SWAP4 POP DUP3 DUP1 SLOAD PUSH1 0x1 DUP2 PUSH1 0x1 AND ISZERO PUSH2 0x100 MUL SUB AND PUSH1 0x2 SWAP1 DIV DUP1 PUSH1 0x1F ADD PUSH1 0x20 DUP1 SWAP2 DIV MUL PUSH1 0x20 ADD PUSH1 0x40 MLOAD SWAP1 DUP2 ADD PUSH1 0x40 MSTORE DUP1 SWAP3 SWAP2 SWAP1 DUP2 DUP2 MSTORE PUSH1 0x20 ADD DUP3 DUP1 SLOAD PUSH1 0x1 DUP2 PUSH1 0x1 AND ISZERO PUSH2 0x100 MUL SUB AND PUSH1 0x2 SWAP1 DIV DUP1 ISZERO PUSH2 0x75F JUMPI DUP1 PUSH1 0x1F LT PUSH2 0x734 JUMPI PUSH2 0x100 DUP1 DUP4 SLOAD DIV MUL DUP4 MSTORE SWAP2 PUSH1 0x20 ADD SWAP2 PUSH2 0x75F JUMP JUMPDEST DUP3 ADD SWAP2 SWAP1 PUSH1 0x0 MSTORE PUSH1 0x20 PUSH1 0x0 KECCAK256 SWAP1 JUMPDEST DUP2 SLOAD DUP2 MSTORE SWAP1 PUSH1 0x1 ADD SWAP1 PUSH1 0x20 ADD DUP1 DUP4 GT PUSH2 0x742 JUMPI DUP3 SWAP1 SUB PUSH1 0x1F AND DUP3 ADD SWAP2 JUMPDEST POP POP POP POP POP SWAP3 POP SWAP5 POP SWAP5 POP SWAP5 POP SWAP5 POP POP SWAP2 SWAP4 POP SWAP2 SWAP4 JUMP JUMPDEST PUSH1 0x0 PUSH2 0x781 DUP7 PUSH2 0x30BF JUMP JUMPDEST SWAP1 POP DUP5 PUSH1 0x4 DUP3 DUP2 SLOAD DUP2 LT PUSH2 0x791 JUMPI INVALID JUMPDEST SWAP1 PUSH1 0x0 MSTORE PUSH1 0x20 PUSH1 0x0 KECCAK256 SWAP1 PUSH1 0x6 MUL ADD PUSH1 0x1 ADD SWAP1 DUP1 MLOAD SWAP1 PUSH1 0x20 ADD SWAP1 PUSH2 0x7B5 SWAP3 SWAP2 SWAP1 PUSH2 0x327B JUMP JUMPDEST POP DUP4 PUSH1 0x4 DUP3 DUP2 SLOAD DUP2 LT PUSH2 0x7C4 JUMPI INVALID JUMPDEST SWAP1 PUSH1 0x0 MSTORE PUSH1 0x20 PUSH1 0x0 KECCAK256 SWAP1 PUSH1 0x6 MUL ADD PUSH1 0x2 ADD SWAP1 DUP1 MLOAD SWAP1 PUSH1 0x20 ADD SWAP1 PUSH2 0x7E8 SWAP3 SWAP2 SWAP1 PUSH2 0x327B JUMP JUMPDEST POP DUP3 PUSH1 0x4 DUP3 DUP2 SLOAD DUP2 LT PUSH2 0x7F7 JUMPI INVALID JUMPDEST SWAP1 PUSH1 0x0 MSTORE PUSH1 0x20 PUSH1 0x0 KECCAK256 SWAP1 PUSH1 0x6 MUL ADD PUSH1 0x3 ADD SWAP1 DUP1 MLOAD SWAP1 PUSH1 0x20 ADD SWAP1 PUSH2 0x81B SWAP3 SWAP2 SWAP1 PUSH2 0x327B JUMP JUMPDEST POP DUP2 PUSH1 0x4 DUP3 DUP2 SLOAD DUP2 LT PUSH2 0x82A JUMPI INVALID JUMPDEST SWAP1 PUSH1 0x0 MSTORE PUSH1 0x20 PUSH1 0x0 KECCAK256 SWAP1 PUSH1 0x6 MUL ADD PUSH1 0x4 ADD DUP2 SWAP1 SSTORE POP PUSH32 0xB1C43F8B1923988960E95C122FD3EBB503023379B8CA6F0603D2F6B0BEB52811 PUSH1 0x4 DUP3 DUP2 SLOAD DUP2 LT PUSH2 0x86D JUMPI INVALID JUMPDEST SWAP1 PUSH1 0x0 MSTORE PUSH1 0x20 PUSH1 0x0 KECCAK256 SWAP1 PUSH1 0x6 MUL ADD PUSH1 0x0 ADD PUSH1 0x0 SWAP1 SLOAD SWAP1 PUSH2 0x100 EXP SWAP1 DIV PUSH20 0xFFFFFFFFFFFFFFFFFFFFFFFFFFFFFFFFFFFFFFFF AND PUSH1 0x4 DUP4 DUP2 SLOAD DUP2 LT PUSH2 0x8AC JUMPI INVALID JUMPDEST SWAP1 PUSH1 0x0 MSTORE PUSH1 0x20 PUSH1 0x0 KECCAK256 SWAP1 PUSH1 0x6 MUL ADD PUSH1 0x1 ADD PUSH1 0x4 DUP5 DUP2 SLOAD DUP2 LT PUSH2 0x8CA JUMPI INVALID JUMPDEST SWAP1 PUSH1 0x0 MSTORE PUSH1 0x20 PUSH1 0x0 KECCAK256 SWAP1 PUSH1 0x6 MUL ADD PUSH1 0x2 ADD PUSH1 0x4 DUP6 DUP2 SLOAD DUP2 LT PUSH2 0x8E8 JUMPI INVALID JUMPDEST SWAP1 PUSH1 0x0 MSTORE PUSH1 0x20 PUSH1 0x0 KECCAK256 SWAP1 PUSH1 0x6 MUL ADD PUSH1 0x3 ADD PUSH1 0x4 DUP7 DUP2 SLOAD DUP2 LT PUSH2 0x906 JUMPI INVALID JUMPDEST SWAP1 PUSH1 0x0 MSTORE PUSH1 0x20 PUSH1 0x0 KECCAK256 SWAP1 PUSH1 0x6 MUL ADD PUSH1 0x4 ADD SLOAD PUSH1 0x40 MLOAD PUSH2 0x929 SWAP6 SWAP5 SWAP4 SWAP3 SWAP2 SWAP1 PUSH2 0x3DCF JUMP JUMPDEST PUSH1 0x40 MLOAD DUP1 SWAP2 SUB SWAP1 LOG1 POP POP POP POP POP POP JUMP JUMPDEST PUSH2 0x942 DUP3 PUSH2 0x319D JUMP JUMPDEST POP PUSH1 0x8 PUSH1 0x40 MLOAD DUP1 PUSH1 0xA0 ADD PUSH1 0x40 MSTORE DUP1 PUSH1 0x1 SLOAD DUP2 MSTORE PUSH1 0x20 ADD DUP7 DUP2 MSTORE PUSH1 0x20 ADD DUP6 DUP2 MSTORE PUSH1 0x20 ADD DUP5 PUSH20 0xFFFFFFFFFFFFFFFFFFFFFFFFFFFFFFFFFFFFFFFF AND DUP2 MSTORE PUSH1 0x20 ADD DUP4 ISZERO ISZERO DUP2 MSTORE POP SWAP1 DUP1 PUSH1 0x1 DUP2 SLOAD ADD DUP1 DUP3 SSTORE DUP1 SWAP2 POP POP PUSH1 0x1 SWAP1 SUB SWAP1 PUSH1 0x0 MSTORE PUSH1 0x20 PUSH1 0x0 KECCAK256 SWAP1 PUSH1 0x4 MUL ADD PUSH1 0x0 SWAP1 SWAP2 SWAP1 SWAP2 SWAP1 SWAP2 POP PUSH1 0x0 DUP3 ADD MLOAD DUP2 PUSH1 0x0 ADD SSTORE PUSH1 0x20 DUP3 ADD MLOAD DUP2 PUSH1 0x1 ADD SWAP1 DUP1 MLOAD SWAP1 PUSH1 0x20 ADD SWAP1 PUSH2 0x9D5 SWAP3 SWAP2 SWAP1 PUSH2 0x327B JUMP JUMPDEST POP PUSH1 0x40 DUP3 ADD MLOAD DUP2 PUSH1 0x2 ADD SWAP1 DUP1 MLOAD SWAP1 PUSH1 0x20 ADD SWAP1 PUSH2 0x9F2 SWAP3 SWAP2 SWAP1 PUSH2 0x327B JUMP JUMPDEST POP PUSH1 0x60 DUP3 ADD MLOAD DUP2 PUSH1 0x3 ADD PUSH1 0x0 PUSH2 0x100 EXP DUP2 SLOAD DUP2 PUSH20 0xFFFFFFFFFFFFFFFFFFFFFFFFFFFFFFFFFFFFFFFF MUL NOT AND SWAP1 DUP4 PUSH20 0xFFFFFFFFFFFFFFFFFFFFFFFFFFFFFFFFFFFFFFFF AND MUL OR SWAP1 SSTORE POP PUSH1 0x80 DUP3 ADD MLOAD DUP2 PUSH1 0x3 ADD PUSH1 0x14 PUSH2 0x100 EXP DUP2 SLOAD DUP2 PUSH1 0xFF MUL NOT AND SWAP1 DUP4 ISZERO ISZERO MUL OR SWAP1 SSTORE POP POP POP PUSH32 0x1D6A52C11773994A4A6EAA1ACE32B929E7F0900BBE29DB3F1D36A3CD45F1486C PUSH1 0x1 SLOAD DUP6 DUP6 DUP6 DUP6 PUSH1 0x40 MLOAD PUSH2 0xA95 SWAP6 SWAP5 SWAP4 SWAP3 SWAP2 SWAP1 PUSH2 0x4087 JUMP JUMPDEST PUSH1 0x40 MLOAD DUP1 SWAP2 SUB SWAP1 LOG1 PUSH1 0x1 PUSH1 0x0 DUP2 SLOAD DUP1 SWAP3 SWAP2 SWAP1 PUSH1 0x1 ADD SWAP2 SWAP1 POP SSTORE POP POP POP POP POP JUMP JUMPDEST PUSH1 0x0 PUSH1 0x4 DUP1 SLOAD SWAP1 POP SWAP1 POP SWAP1 JUMP JUMPDEST PUSH1 0x0 PUSH2 0xACD DUP5 PUSH2 0x319D JUMP JUMPDEST SWAP1 POP DUP3 PUSH1 0x6 DUP3 DUP2 SLOAD DUP2 LT PUSH2 0xADD JUMPI INVALID JUMPDEST SWAP1 PUSH1 0x0 MSTORE PUSH1 0x20 PUSH1 0x0 KECCAK256 SWAP1 PUSH1 0x3 MUL ADD PUSH1 0x1 ADD SWAP1 DUP1 MLOAD SWAP1 PUSH1 0x20 ADD SWAP1 PUSH2 0xB01 SWAP3 SWAP2 SWAP1 PUSH2 0x327B JUMP JUMPDEST POP DUP2 PUSH1 0x6 DUP3 DUP2 SLOAD DUP2 LT PUSH2 0xB10 JUMPI INVALID JUMPDEST SWAP1 PUSH1 0x0 MSTORE PUSH1 0x20 PUSH1 0x0 KECCAK256 SWAP1 PUSH1 0x3 MUL ADD PUSH1 0x2 ADD PUSH1 0x0 PUSH2 0x100 EXP DUP2 SLOAD DUP2 PUSH20 0xFFFFFFFFFFFFFFFFFFFFFFFFFFFFFFFFFFFFFFFF MUL NOT AND SWAP1 DUP4 PUSH20 0xFFFFFFFFFFFFFFFFFFFFFFFFFFFFFFFFFFFFFFFF AND MUL OR SWAP1 SSTORE POP PUSH32 0x239B189726729811E87D7845D82777804144AF4E76981AF04D802A85F7442B66 PUSH1 0x6 DUP3 DUP2 SLOAD DUP2 LT PUSH2 0xB8D JUMPI INVALID JUMPDEST SWAP1 PUSH1 0x0 MSTORE PUSH1 0x20 PUSH1 0x0 KECCAK256 SWAP1 PUSH1 0x3 MUL ADD PUSH1 0x0 ADD PUSH1 0x0 SWAP1 SLOAD SWAP1 PUSH2 0x100 EXP SWAP1 DIV PUSH20 0xFFFFFFFFFFFFFFFFFFFFFFFFFFFFFFFFFFFFFFFF AND PUSH1 0x6 DUP4 DUP2 SLOAD DUP2 LT PUSH2 0xBCC JUMPI INVALID JUMPDEST SWAP1 PUSH1 0x0 MSTORE PUSH1 0x20 PUSH1 0x0 KECCAK256 SWAP1 PUSH1 0x3 MUL ADD PUSH1 0x1 ADD PUSH1 0x6 DUP5 DUP2 SLOAD DUP2 LT PUSH2 0xBEA JUMPI INVALID JUMPDEST SWAP1 PUSH1 0x0 MSTORE PUSH1 0x20 PUSH1 0x0 KECCAK256 SWAP1 PUSH1 0x3 MUL ADD PUSH1 0x2 ADD PUSH1 0x0 SWAP1 SLOAD SWAP1 PUSH2 0x100 EXP SWAP1 DIV PUSH20 0xFFFFFFFFFFFFFFFFFFFFFFFFFFFFFFFFFFFFFFFF AND PUSH1 0x40 MLOAD PUSH2 0xC2B SWAP4 SWAP3 SWAP2 SWAP1 PUSH2 0x3D45 JUMP JUMPDEST PUSH1 0x40 MLOAD DUP1 SWAP2 SUB SWAP1 LOG1 POP POP POP POP JUMP JUMPDEST PUSH1 0x0 PUSH2 0xC44 DUP6 PUSH2 0x302D JUMP JUMPDEST SWAP1 POP DUP4 PUSH1 0x8 DUP3 DUP2 SLOAD DUP2 LT PUSH2 0xC54 JUMPI INVALID JUMPDEST SWAP1 PUSH1 0x0 MSTORE PUSH1 0x20 PUSH1 0x0 KECCAK256 SWAP1 PUSH1 0x4 MUL ADD PUSH1 0x1 ADD SWAP1 DUP1 MLOAD SWAP1 PUSH1 0x20 ADD SWAP1 PUSH2 0xC78 SWAP3 SWAP2 SWAP1 PUSH2 0x327B JUMP JUMPDEST POP DUP3 PUSH1 0x8 DUP3 DUP2 SLOAD DUP2 LT PUSH2 0xC87 JUMPI INVALID JUMPDEST SWAP1 PUSH1 0x0 MSTORE PUSH1 0x20 PUSH1 0x0 KECCAK256 SWAP1 PUSH1 0x4 MUL ADD PUSH1 0x2 ADD SWAP1 DUP1 MLOAD SWAP1 PUSH1 0x20 ADD SWAP1 PUSH2 0xCAB SWAP3 SWAP2 SWAP1 PUSH2 0x327B JUMP JUMPDEST POP DUP2 PUSH1 0x8 DUP3 DUP2 SLOAD DUP2 LT PUSH2 0xCBA JUMPI INVALID JUMPDEST SWAP1 PUSH1 0x0 MSTORE PUSH1 0x20 PUSH1 0x0 KECCAK256 SWAP1 PUSH1 0x4 MUL ADD PUSH1 0x3 ADD PUSH1 0x0 PUSH2 0x100 EXP DUP2 SLOAD DUP2 PUSH20 0xFFFFFFFFFFFFFFFFFFFFFFFFFFFFFFFFFFFFFFFF MUL NOT AND SWAP1 DUP4 PUSH20 0xFFFFFFFFFFFFFFFFFFFFFFFFFFFFFFFFFFFFFFFF AND MUL OR SWAP1 SSTORE POP PUSH32 0xBA2BD0D5052FB9458EAAC383932E8112A57BFC6A1836AD7118B1673447D3E6AE PUSH1 0x8 DUP3 DUP2 SLOAD DUP2 LT PUSH2 0xD37 JUMPI INVALID JUMPDEST SWAP1 PUSH1 0x0 MSTORE PUSH1 0x20 PUSH1 0x0 KECCAK256 SWAP1 PUSH1 0x4 MUL ADD PUSH1 0x0 ADD SLOAD PUSH1 0x8 DUP4 DUP2 SLOAD DUP2 LT PUSH2 0xD56 JUMPI INVALID JUMPDEST SWAP1 PUSH1 0x0 MSTORE PUSH1 0x20 PUSH1 0x0 KECCAK256 SWAP1 PUSH1 0x4 MUL ADD PUSH1 0x1 ADD PUSH1 0x8 DUP5 DUP2 SLOAD DUP2 LT PUSH2 0xD74 JUMPI INVALID JUMPDEST SWAP1 PUSH1 0x0 MSTORE PUSH1 0x20 PUSH1 0x0 KECCAK256 SWAP1 PUSH1 0x4 MUL ADD PUSH1 0x2 ADD PUSH1 0x8 DUP6 DUP2 SLOAD DUP2 LT PUSH2 0xD92 JUMPI INVALID JUMPDEST SWAP1 PUSH1 0x0 MSTORE PUSH1 0x20 PUSH1 0x0 KECCAK256 SWAP1 PUSH1 0x4 MUL ADD PUSH1 0x3 ADD PUSH1 0x0 SWAP1 SLOAD SWAP1 PUSH2 0x100 EXP SWAP1 DIV PUSH20 0xFFFFFFFFFFFFFFFFFFFFFFFFFFFFFFFFFFFFFFFF AND PUSH1 0x40 MLOAD PUSH2 0xDD4 SWAP5 SWAP4 SWAP3 SWAP2 SWAP1 PUSH2 0x40E8 JUMP JUMPDEST PUSH1 0x40 MLOAD DUP1 SWAP2 SUB SWAP1 LOG1 POP POP POP POP POP JUMP JUMPDEST PUSH1 0x0 PUSH2 0xDEE DUP3 PUSH2 0x30BF JUMP JUMPDEST SWAP1 POP PUSH1 0x0 PUSH1 0x4 DUP3 DUP2 SLOAD DUP2 LT PUSH2 0xDFF JUMPI INVALID JUMPDEST SWAP1 PUSH1 0x0 MSTORE PUSH1 0x20 PUSH1 0x0 KECCAK256 SWAP1 PUSH1 0x6 MUL ADD PUSH1 0x5 ADD PUSH1 0x0 PUSH2 0x100 EXP DUP2 SLOAD DUP2 PUSH1 0xFF MUL NOT AND SWAP1 DUP4 ISZERO ISZERO MUL OR SWAP1 SSTORE POP PUSH32 0x5818F5E23A2C2BB34C81792EA8E3397D3F8AD179CB93A5FA57B3D4681564AA0 PUSH1 0x4 DUP3 DUP2 SLOAD DUP2 LT PUSH2 0xE55 JUMPI INVALID JUMPDEST SWAP1 PUSH1 0x0 MSTORE PUSH1 0x20 PUSH1 0x0 KECCAK256 SWAP1 PUSH1 0x6 MUL ADD PUSH1 0x0 ADD PUSH1 0x0 SWAP1 SLOAD SWAP1 PUSH2 0x100 EXP SWAP1 DIV PUSH20 0xFFFFFFFFFFFFFFFFFFFFFFFFFFFFFFFFFFFFFFFF AND PUSH1 0x4 DUP4 DUP2 SLOAD DUP2 LT PUSH2 0xE94 JUMPI INVALID JUMPDEST SWAP1 PUSH1 0x0 MSTORE PUSH1 0x20 PUSH1 0x0 KECCAK256 SWAP1 PUSH1 0x6 MUL ADD PUSH1 0x1 ADD PUSH1 0x4 DUP5 DUP2 SLOAD DUP2 LT PUSH2 0xEB2 JUMPI INVALID JUMPDEST SWAP1 PUSH1 0x0 MSTORE PUSH1 0x20 PUSH1 0x0 KECCAK256 SWAP1 PUSH1 0x6 MUL ADD PUSH1 0x2 ADD PUSH1 0x4 DUP6 DUP2 SLOAD DUP2 LT PUSH2 0xED0 JUMPI INVALID JUMPDEST SWAP1 PUSH1 0x0 MSTORE PUSH1 0x20 PUSH1 0x0 KECCAK256 SWAP1 PUSH1 0x6 MUL ADD PUSH1 0x3 ADD PUSH1 0x4 DUP7 DUP2 SLOAD DUP2 LT PUSH2 0xEEE JUMPI INVALID JUMPDEST SWAP1 PUSH1 0x0 MSTORE PUSH1 0x20 PUSH1 0x0 KECCAK256 SWAP1 PUSH1 0x6 MUL ADD PUSH1 0x4 ADD SLOAD PUSH1 0x4 DUP8 DUP2 SLOAD DUP2 LT PUSH2 0xF0D JUMPI INVALID JUMPDEST SWAP1 PUSH1 0x0 MSTORE PUSH1 0x20 PUSH1 0x0 KECCAK256 SWAP1 PUSH1 0x6 MUL ADD PUSH1 0x5 ADD PUSH1 0x0 SWAP1 SLOAD SWAP1 PUSH2 0x100 EXP SWAP1 DIV PUSH1 0xFF AND PUSH1 0x40 MLOAD PUSH2 0xF3E SWAP7 SWAP6 SWAP5 SWAP4 SWAP3 SWAP2 SWAP1 PUSH2 0x3E37 JUMP JUMPDEST PUSH1 0x40 MLOAD DUP1 SWAP2 SUB SWAP1 LOG1 POP POP JUMP JUMPDEST PUSH1 0x60 PUSH1 0x0 PUSH1 0x4 DUP1 SLOAD SWAP1 POP PUSH8 0xFFFFFFFFFFFFFFFF DUP2 GT DUP1 ISZERO PUSH2 0xF6A JUMPI PUSH1 0x0 DUP1 REVERT JUMPDEST POP PUSH1 0x40 MLOAD SWAP1 DUP1 DUP3 MSTORE DUP1 PUSH1 0x20 MUL PUSH1 0x20 ADD DUP3 ADD PUSH1 0x40 MSTORE DUP1 ISZERO PUSH2 0xFA4 JUMPI DUP2 PUSH1 0x20 ADD JUMPDEST PUSH2 0xF91 PUSH2 0x3309 JUMP JUMPDEST DUP2 MSTORE PUSH1 0x20 ADD SWAP1 PUSH1 0x1 SWAP1 SUB SWAP1 DUP2 PUSH2 0xF89 JUMPI SWAP1 POP JUMPDEST POP SWAP1 POP PUSH1 0x0 JUMPDEST PUSH1 0x4 DUP1 SLOAD SWAP1 POP DUP2 LT ISZERO PUSH2 0x1262 JUMPI PUSH1 0x4 DUP2 DUP2 SLOAD DUP2 LT PUSH2 0xFC4 JUMPI INVALID JUMPDEST SWAP1 PUSH1 0x0 MSTORE PUSH1 0x20 PUSH1 0x0 KECCAK256 SWAP1 PUSH1 0x6 MUL ADD PUSH1 0x40 MLOAD DUP1 PUSH1 0xC0 ADD PUSH1 0x40 MSTORE SWAP1 DUP2 PUSH1 0x0 DUP3 ADD PUSH1 0x0 SWAP1 SLOAD SWAP1 PUSH2 0x100 EXP SWAP1 DIV PUSH20 0xFFFFFFFFFFFFFFFFFFFFFFFFFFFFFFFFFFFFFFFF AND PUSH20 0xFFFFFFFFFFFFFFFFFFFFFFFFFFFFFFFFFFFFFFFF AND PUSH20 0xFFFFFFFFFFFFFFFFFFFFFFFFFFFFFFFFFFFFFFFF AND DUP2 MSTORE PUSH1 0x20 ADD PUSH1 0x1 DUP3 ADD DUP1 SLOAD PUSH1 0x1 DUP2 PUSH1 0x1 AND ISZERO PUSH2 0x100 MUL SUB AND PUSH1 0x2 SWAP1 DIV DUP1 PUSH1 0x1F ADD PUSH1 0x20 DUP1 SWAP2 DIV MUL PUSH1 0x20 ADD PUSH1 0x40 MLOAD SWAP1 DUP2 ADD PUSH1 0x40 MSTORE DUP1 SWAP3 SWAP2 SWAP1 DUP2 DUP2 MSTORE PUSH1 0x20 ADD DUP3 DUP1 SLOAD PUSH1 0x1 DUP2 PUSH1 0x1 AND ISZERO PUSH2 0x100 MUL SUB AND PUSH1 0x2 SWAP1 DIV DUP1 ISZERO PUSH2 0x10CC JUMPI DUP1 PUSH1 0x1F LT PUSH2 0x10A1 JUMPI PUSH2 0x100 DUP1 DUP4 SLOAD DIV MUL DUP4 MSTORE SWAP2 PUSH1 0x20 ADD SWAP2 PUSH2 0x10CC JUMP JUMPDEST DUP3 ADD SWAP2 SWAP1 PUSH1 0x0 MSTORE PUSH1 0x20 PUSH1 0x0 KECCAK256 SWAP1 JUMPDEST DUP2 SLOAD DUP2 MSTORE SWAP1 PUSH1 0x1 ADD SWAP1 PUSH1 0x20 ADD DUP1 DUP4 GT PUSH2 0x10AF JUMPI DUP3 SWAP1 SUB PUSH1 0x1F AND DUP3 ADD SWAP2 JUMPDEST POP POP POP POP POP DUP2 MSTORE PUSH1 0x20 ADD PUSH1 0x2 DUP3 ADD DUP1 SLOAD PUSH1 0x1 DUP2 PUSH1 0x1 AND ISZERO PUSH2 0x100 MUL SUB AND PUSH1 0x2 SWAP1 DIV DUP1 PUSH1 0x1F ADD PUSH1 0x20 DUP1 SWAP2 DIV MUL PUSH1 0x20 ADD PUSH1 0x40 MLOAD SWAP1 DUP2 ADD PUSH1 0x40 MSTORE DUP1 SWAP3 SWAP2 SWAP1 DUP2 DUP2 MSTORE PUSH1 0x20 ADD DUP3 DUP1 SLOAD PUSH1 0x1 DUP2 PUSH1 0x1 AND ISZERO PUSH2 0x100 MUL SUB AND PUSH1 0x2 SWAP1 DIV DUP1 ISZERO PUSH2 0x116E JUMPI DUP1 PUSH1 0x1F LT PUSH2 0x1143 JUMPI PUSH2 0x100 DUP1 DUP4 SLOAD DIV MUL DUP4 MSTORE SWAP2 PUSH1 0x20 ADD SWAP2 PUSH2 0x116E JUMP JUMPDEST DUP3 ADD SWAP2 SWAP1 PUSH1 0x0 MSTORE PUSH1 0x20 PUSH1 0x0 KECCAK256 SWAP1 JUMPDEST DUP2 SLOAD DUP2 MSTORE SWAP1 PUSH1 0x1 ADD SWAP1 PUSH1 0x20 ADD DUP1 DUP4 GT PUSH2 0x1151 JUMPI DUP3 SWAP1 SUB PUSH1 0x1F AND DUP3 ADD SWAP2 JUMPDEST POP POP POP POP POP DUP2 MSTORE PUSH1 0x20 ADD PUSH1 0x3 DUP3 ADD DUP1 SLOAD PUSH1 0x1 DUP2 PUSH1 0x1 AND ISZERO PUSH2 0x100 MUL SUB AND PUSH1 0x2 SWAP1 DIV DUP1 PUSH1 0x1F ADD PUSH1 0x20 DUP1 SWAP2 DIV MUL PUSH1 0x20 ADD PUSH1 0x40 MLOAD SWAP1 DUP2 ADD PUSH1 0x40 MSTORE DUP1 SWAP3 SWAP2 SWAP1 DUP2 DUP2 MSTORE PUSH1 0x20 ADD DUP3 DUP1 SLOAD PUSH1 0x1 DUP2 PUSH1 0x1 AND ISZERO PUSH2 0x100 MUL SUB AND PUSH1 0x2 SWAP1 DIV DUP1 ISZERO PUSH2 0x1210 JUMPI DUP1 PUSH1 0x1F LT PUSH2 0x11E5 JUMPI PUSH2 0x100 DUP1 DUP4 SLOAD DIV MUL DUP4 MSTORE SWAP2 PUSH1 0x20 ADD SWAP2 PUSH2 0x1210 JUMP JUMPDEST DUP3 ADD SWAP2 SWAP1 PUSH1 0x0 MSTORE PUSH1 0x20 PUSH1 0x0 KECCAK256 SWAP1 JUMPDEST DUP2 SLOAD DUP2 MSTORE SWAP1 PUSH1 0x1 ADD SWAP1 PUSH1 0x20 ADD DUP1 DUP4 GT PUSH2 0x11F3 JUMPI DUP3 SWAP1 SUB PUSH1 0x1F AND DUP3 ADD SWAP2 JUMPDEST POP POP POP POP POP DUP2 MSTORE PUSH1 0x20 ADD PUSH1 0x4 DUP3 ADD SLOAD DUP2 MSTORE PUSH1 0x20 ADD PUSH1 0x5 DUP3 ADD PUSH1 0x0 SWAP1 SLOAD SWAP1 PUSH2 0x100 EXP SWAP1 DIV PUSH1 0xFF AND ISZERO ISZERO ISZERO ISZERO DUP2 MSTORE POP POP DUP3 DUP3 DUP2 MLOAD DUP2 LT PUSH2 0x124A JUMPI INVALID JUMPDEST PUSH1 0x20 MUL PUSH1 0x20 ADD ADD DUP2 SWAP1 MSTORE POP DUP1 DUP1 PUSH1 0x1 ADD SWAP2 POP POP PUSH2 0xFAA JUMP JUMPDEST POP DUP1 SWAP2 POP POP SWAP1 JUMP JUMPDEST PUSH1 0x60 PUSH1 0x0 PUSH1 0x8 DUP1 SLOAD SWAP1 POP PUSH8 0xFFFFFFFFFFFFFFFF DUP2 GT DUP1 ISZERO PUSH2 0x128A JUMPI PUSH1 0x0 DUP1 REVERT JUMPDEST POP PUSH1 0x40 MLOAD SWAP1 DUP1 DUP3 MSTORE DUP1 PUSH1 0x20 MUL PUSH1 0x20 ADD DUP3 ADD PUSH1 0x40 MSTORE DUP1 ISZERO PUSH2 0x12C4 JUMPI DUP2 PUSH1 0x20 ADD JUMPDEST PUSH2 0x12B1 PUSH2 0x3357 JUMP JUMPDEST DUP2 MSTORE PUSH1 0x20 ADD SWAP1 PUSH1 0x1 SWAP1 SUB SWAP1 DUP2 PUSH2 0x12A9 JUMPI SWAP1 POP JUMPDEST POP SWAP1 POP PUSH1 0x0 JUMPDEST PUSH1 0x8 DUP1 SLOAD SWAP1 POP DUP2 LT ISZERO PUSH2 0x14E0 JUMPI PUSH1 0x8 DUP2 DUP2 SLOAD DUP2 LT PUSH2 0x12E4 JUMPI INVALID JUMPDEST SWAP1 PUSH1 0x0 MSTORE PUSH1 0x20 PUSH1 0x0 KECCAK256 SWAP1 PUSH1 0x4 MUL ADD PUSH1 0x40 MLOAD DUP1 PUSH1 0xA0 ADD PUSH1 0x40 MSTORE SWAP1 DUP2 PUSH1 0x0 DUP3 ADD SLOAD DUP2 MSTORE PUSH1 0x20 ADD PUSH1 0x1 DUP3 ADD DUP1 SLOAD PUSH1 0x1 DUP2 PUSH1 0x1 AND ISZERO PUSH2 0x100 MUL SUB AND PUSH1 0x2 SWAP1 DIV DUP1 PUSH1 0x1F ADD PUSH1 0x20 DUP1 SWAP2 DIV MUL PUSH1 0x20 ADD PUSH1 0x40 MLOAD SWAP1 DUP2 ADD PUSH1 0x40 MSTORE DUP1 SWAP3 SWAP2 SWAP1 DUP2 DUP2 MSTORE PUSH1 0x20 ADD DUP3 DUP1 SLOAD PUSH1 0x1 DUP2 PUSH1 0x1 AND ISZERO PUSH2 0x100 MUL SUB AND PUSH1 0x2 SWAP1 DIV DUP1 ISZERO PUSH2 0x13A0 JUMPI DUP1 PUSH1 0x1F LT PUSH2 0x1375 JUMPI PUSH2 0x100 DUP1 DUP4 SLOAD DIV MUL DUP4 MSTORE SWAP2 PUSH1 0x20 ADD SWAP2 PUSH2 0x13A0 JUMP JUMPDEST DUP3 ADD SWAP2 SWAP1 PUSH1 0x0 MSTORE PUSH1 0x20 PUSH1 0x0 KECCAK256 SWAP1 JUMPDEST DUP2 SLOAD DUP2 MSTORE SWAP1 PUSH1 0x1 ADD SWAP1 PUSH1 0x20 ADD DUP1 DUP4 GT PUSH2 0x1383 JUMPI DUP3 SWAP1 SUB PUSH1 0x1F AND DUP3 ADD SWAP2 JUMPDEST POP POP POP POP POP DUP2 MSTORE PUSH1 0x20 ADD PUSH1 0x2 DUP3 ADD DUP1 SLOAD PUSH1 0x1 DUP2 PUSH1 0x1 AND ISZERO PUSH2 0x100 MUL SUB AND PUSH1 0x2 SWAP1 DIV DUP1 PUSH1 0x1F ADD PUSH1 0x20 DUP1 SWAP2 DIV MUL PUSH1 0x20 ADD PUSH1 0x40 MLOAD SWAP1 DUP2 ADD PUSH1 0x40 MSTORE DUP1 SWAP3 SWAP2 SWAP1 DUP2 DUP2 MSTORE PUSH1 0x20 ADD DUP3 DUP1 SLOAD PUSH1 0x1 DUP2 PUSH1 0x1 AND ISZERO PUSH2 0x100 MUL SUB AND PUSH1 0x2 SWAP1 DIV DUP1 ISZERO PUSH2 0x1442 JUMPI DUP1 PUSH1 0x1F LT PUSH2 0x1417 JUMPI PUSH2 0x100 DUP1 DUP4 SLOAD DIV MUL DUP4 MSTORE SWAP2 PUSH1 0x20 ADD SWAP2 PUSH2 0x1442 JUMP JUMPDEST DUP3 ADD SWAP2 SWAP1 PUSH1 0x0 MSTORE PUSH1 0x20 PUSH1 0x0 KECCAK256 SWAP1 JUMPDEST DUP2 SLOAD DUP2 MSTORE SWAP1 PUSH1 0x1 ADD SWAP1 PUSH1 0x20 ADD DUP1 DUP4 GT PUSH2 0x1425 JUMPI DUP3 SWAP1 SUB PUSH1 0x1F AND DUP3 ADD SWAP2 JUMPDEST POP POP POP POP POP DUP2 MSTORE PUSH1 0x20 ADD PUSH1 0x3 DUP3 ADD PUSH1 0x0 SWAP1 SLOAD SWAP1 PUSH2 0x100 EXP SWAP1 DIV PUSH20 0xFFFFFFFFFFFFFFFFFFFFFFFFFFFFFFFFFFFFFFFF AND PUSH20 0xFFFFFFFFFFFFFFFFFFFFFFFFFFFFFFFFFFFFFFFF AND PUSH20 0xFFFFFFFFFFFFFFFFFFFFFFFFFFFFFFFFFFFFFFFF AND DUP2 MSTORE PUSH1 0x20 ADD PUSH1 0x3 DUP3 ADD PUSH1 0x14 SWAP1 SLOAD SWAP1 PUSH2 0x100 EXP SWAP1 DIV PUSH1 0xFF AND ISZERO ISZERO ISZERO ISZERO DUP2 MSTORE POP POP DUP3 DUP3 DUP2 MLOAD DUP2 LT PUSH2 0x14C8 JUMPI INVALID JUMPDEST PUSH1 0x20 MUL PUSH1 0x20 ADD ADD DUP2 SWAP1 MSTORE POP DUP1 DUP1 PUSH1 0x1 ADD SWAP2 POP POP PUSH2 0x12CA JUMP JUMPDEST POP DUP1 SWAP2 POP POP SWAP1 JUMP JUMPDEST PUSH1 0x0 PUSH2 0x14F3 DUP3 PUSH2 0x302D JUMP JUMPDEST SWAP1 POP PUSH1 0x0 PUSH1 0x8 DUP3 DUP2 SLOAD DUP2 LT PUSH2 0x1504 JUMPI INVALID JUMPDEST SWAP1 PUSH1 0x0 MSTORE PUSH1 0x20 PUSH1 0x0 KECCAK256 SWAP1 PUSH1 0x4 MUL ADD PUSH1 0x3 ADD PUSH1 0x14 PUSH2 0x100 EXP DUP2 SLOAD DUP2 PUSH1 0xFF MUL NOT AND SWAP1 DUP4 ISZERO ISZERO MUL OR SWAP1 SSTORE POP PUSH32 0xEF9006907EB20210E880B0BB1C39946083BCEC24688718507D63A259FFA8351B PUSH1 0x8 DUP3 DUP2 SLOAD DUP2 LT PUSH2 0x155A JUMPI INVALID JUMPDEST SWAP1 PUSH1 0x0 MSTORE PUSH1 0x20 PUSH1 0x0 KECCAK256 SWAP1 PUSH1 0x4 MUL ADD PUSH1 0x0 ADD SLOAD PUSH1 0x8 DUP4 DUP2 SLOAD DUP2 LT PUSH2 0x1579 JUMPI INVALID JUMPDEST SWAP1 PUSH1 0x0 MSTORE PUSH1 0x20 PUSH1 0x0 KECCAK256 SWAP1 PUSH1 0x4 MUL ADD PUSH1 0x1 ADD PUSH1 0x8 DUP5 DUP2 SLOAD DUP2 LT PUSH2 0x1597 JUMPI INVALID JUMPDEST SWAP1 PUSH1 0x0 MSTORE PUSH1 0x20 PUSH1 0x0 KECCAK256 SWAP1 PUSH1 0x4 MUL ADD PUSH1 0x2 ADD PUSH1 0x8 DUP6 DUP2 SLOAD DUP2 LT PUSH2 0x15B5 JUMPI INVALID JUMPDEST SWAP1 PUSH1 0x0 MSTORE PUSH1 0x20 PUSH1 0x0 KECCAK256 SWAP1 PUSH1 0x4 MUL ADD PUSH1 0x3 ADD PUSH1 0x0 SWAP1 SLOAD SWAP1 PUSH2 0x100 EXP SWAP1 DIV PUSH20 0xFFFFFFFFFFFFFFFFFFFFFFFFFFFFFFFFFFFFFFFF AND PUSH1 0x8 DUP7 DUP2 SLOAD DUP2 LT PUSH2 0x15F4 JUMPI INVALID JUMPDEST SWAP1 PUSH1 0x0 MSTORE PUSH1 0x20 PUSH1 0x0 KECCAK256 SWAP1 PUSH1 0x4 MUL ADD PUSH1 0x3 ADD PUSH1 0x14 SWAP1 SLOAD SWAP1 PUSH2 0x100 EXP SWAP1 DIV PUSH1 0xFF AND PUSH1 0x40 MLOAD PUSH2 0x1624 SWAP6 SWAP5 SWAP4 SWAP3 SWAP2 SWAP1 PUSH2 0x413B JUMP JUMPDEST PUSH1 0x40 MLOAD DUP1 SWAP2 SUB SWAP1 LOG1 POP POP JUMP JUMPDEST PUSH1 0x60 PUSH1 0x0 DUP1 PUSH1 0x0 PUSH2 0x1640 DUP6 PUSH2 0x319D JUMP JUMPDEST SWAP1 POP PUSH1 0x6 DUP2 DUP2 SLOAD DUP2 LT PUSH2 0x164F JUMPI INVALID JUMPDEST SWAP1 PUSH1 0x0 MSTORE PUSH1 0x20 PUSH1 0x0 KECCAK256 SWAP1 PUSH1 0x3 MUL ADD PUSH1 0x1 ADD PUSH1 0x6 DUP3 DUP2 SLOAD DUP2 LT PUSH2 0x166D JUMPI INVALID JUMPDEST SWAP1 PUSH1 0x0 MSTORE PUSH1 0x20 PUSH1 0x0 KECCAK256 SWAP1 PUSH1 0x3 MUL ADD PUSH1 0x2 ADD PUSH1 0x0 SWAP1 SLOAD SWAP1 PUSH2 0x100 EXP SWAP1 DIV PUSH20 0xFFFFFFFFFFFFFFFFFFFFFFFFFFFFFFFFFFFFFFFF AND PUSH1 0x6 DUP4 DUP2 SLOAD DUP2 LT PUSH2 0x16AC JUMPI INVALID JUMPDEST SWAP1 PUSH1 0x0 MSTORE PUSH1 0x20 PUSH1 0x0 KECCAK256 SWAP1 PUSH1 0x3 MUL ADD PUSH1 0x2 ADD PUSH1 0x14 SWAP1 SLOAD SWAP1 PUSH2 0x100 EXP SWAP1 DIV PUSH1 0xFF AND DUP3 DUP1 SLOAD PUSH1 0x1 DUP2 PUSH1 0x1 AND ISZERO PUSH2 0x100 MUL SUB AND PUSH1 0x2 SWAP1 DIV DUP1 PUSH1 0x1F ADD PUSH1 0x20 DUP1 SWAP2 DIV MUL PUSH1 0x20 ADD PUSH1 0x40 MLOAD SWAP1 DUP2 ADD PUSH1 0x40 MSTORE DUP1 SWAP3 SWAP2 SWAP1 DUP2 DUP2 MSTORE PUSH1 0x20 ADD DUP3 DUP1 SLOAD PUSH1 0x1 DUP2 PUSH1 0x1 AND ISZERO PUSH2 0x100 MUL SUB AND PUSH1 0x2 SWAP1 DIV DUP1 ISZERO PUSH2 0x1760 JUMPI DUP1 PUSH1 0x1F LT PUSH2 0x1735 JUMPI PUSH2 0x100 DUP1 DUP4 SLOAD DIV MUL DUP4 MSTORE SWAP2 PUSH1 0x20 ADD SWAP2 PUSH2 0x1760 JUMP JUMPDEST DUP3 ADD SWAP2 SWAP1 PUSH1 0x0 MSTORE PUSH1 0x20 PUSH1 0x0 KECCAK256 SWAP1 JUMPDEST DUP2 SLOAD DUP2 MSTORE SWAP1 PUSH1 0x1 ADD SWAP1 PUSH1 0x20 ADD DUP1 DUP4 GT PUSH2 0x1743 JUMPI DUP3 SWAP1 SUB PUSH1 0x1F AND DUP3 ADD SWAP2 JUMPDEST POP POP POP POP POP SWAP3 POP SWAP4 POP SWAP4 POP SWAP4 POP POP SWAP2 SWAP4 SWAP1 SWAP3 POP JUMP JUMPDEST PUSH1 0x7 PUSH1 0x20 MSTORE DUP1 PUSH1 0x0 MSTORE PUSH1 0x40 PUSH1 0x0 KECCAK256 PUSH1 0x0 SWAP2 POP SWAP1 POP DUP1 PUSH1 0x0 ADD SLOAD SWAP1 DUP1 PUSH1 0x1 ADD DUP1 SLOAD PUSH1 0x1 DUP2 PUSH1 0x1 AND ISZERO PUSH2 0x100 MUL SUB AND PUSH1 0x2 SWAP1 DIV DUP1 PUSH1 0x1F ADD PUSH1 0x20 DUP1 SWAP2 DIV MUL PUSH1 0x20 ADD PUSH1 0x40 MLOAD SWAP1 DUP2 ADD PUSH1 0x40 MSTORE DUP1 SWAP3 SWAP2 SWAP1 DUP2 DUP2 MSTORE PUSH1 0x20 ADD DUP3 DUP1 SLOAD PUSH1 0x1 DUP2 PUSH1 0x1 AND ISZERO PUSH2 0x100 MUL SUB AND PUSH1 0x2 SWAP1 DIV DUP1 ISZERO PUSH2 0x1827 JUMPI DUP1 PUSH1 0x1F LT PUSH2 0x17FC JUMPI PUSH2 0x100 DUP1 DUP4 SLOAD DIV MUL DUP4 MSTORE SWAP2 PUSH1 0x20 ADD SWAP2 PUSH2 0x1827 JUMP JUMPDEST DUP3 ADD SWAP2 SWAP1 PUSH1 0x0 MSTORE PUSH1 0x20 PUSH1 0x0 KECCAK256 SWAP1 JUMPDEST DUP2 SLOAD DUP2 MSTORE SWAP1 PUSH1 0x1 ADD SWAP1 PUSH1 0x20 ADD DUP1 DUP4 GT PUSH2 0x180A JUMPI DUP3 SWAP1 SUB PUSH1 0x1F AND DUP3 ADD SWAP2 JUMPDEST POP POP POP POP POP SWAP1 DUP1 PUSH1 0x2 ADD DUP1 SLOAD PUSH1 0x1 DUP2 PUSH1 0x1 AND ISZERO PUSH2 0x100 MUL SUB AND PUSH1 0x2 SWAP1 DIV DUP1 PUSH1 0x1F ADD PUSH1 0x20 DUP1 SWAP2 DIV MUL PUSH1 0x20 ADD PUSH1 0x40 MLOAD SWAP1 DUP2 ADD PUSH1 0x40 MSTORE DUP1 SWAP3 SWAP2 SWAP1 DUP2 DUP2 MSTORE PUSH1 0x20 ADD DUP3 DUP1 SLOAD PUSH1 0x1 DUP2 PUSH1 0x1 AND ISZERO PUSH2 0x100 MUL SUB AND PUSH1 0x2 SWAP1 DIV DUP1 ISZERO PUSH2 0x18C5 JUMPI DUP1 PUSH1 0x1F LT PUSH2 0x189A JUMPI PUSH2 0x100 DUP1 DUP4 SLOAD DIV MUL DUP4 MSTORE SWAP2 PUSH1 0x20 ADD SWAP2 PUSH2 0x18C5 JUMP JUMPDEST DUP3 ADD SWAP2 SWAP1 PUSH1 0x0 MSTORE PUSH1 0x20 PUSH1 0x0 KECCAK256 SWAP1 JUMPDEST DUP2 SLOAD DUP2 MSTORE SWAP1 PUSH1 0x1 ADD SWAP1 PUSH1 0x20 ADD DUP1 DUP4 GT PUSH2 0x18A8 JUMPI DUP3 SWAP1 SUB PUSH1 0x1F AND DUP3 ADD SWAP2 JUMPDEST POP POP POP POP POP SWAP1 DUP1 PUSH1 0x3 ADD PUSH1 0x0 SWAP1 SLOAD SWAP1 PUSH2 0x100 EXP SWAP1 DIV PUSH20 0xFFFFFFFFFFFFFFFFFFFFFFFFFFFFFFFFFFFFFFFF AND SWAP1 DUP1 PUSH1 0x3 ADD PUSH1 0x14 SWAP1 SLOAD SWAP1 PUSH2 0x100 EXP SWAP1 DIV PUSH1 0xFF AND SWAP1 POP DUP6 JUMP JUMPDEST PUSH1 0x6 DUP2 DUP2 SLOAD DUP2 LT PUSH2 0x1918 JUMPI PUSH1 0x0 DUP1 REVERT JUMPDEST SWAP1 PUSH1 0x0 MSTORE PUSH1 0x20 PUSH1 0x0 KECCAK256 SWAP1 PUSH1 0x3 MUL ADD PUSH1 0x0 SWAP2 POP SWAP1 POP DUP1 PUSH1 0x0 ADD PUSH1 0x0 SWAP1 SLOAD SWAP1 PUSH2 0x100 EXP SWAP1 DIV PUSH20 0xFFFFFFFFFFFFFFFFFFFFFFFFFFFFFFFFFFFFFFFF AND SWAP1 DUP1 PUSH1 0x1 ADD DUP1 SLOAD PUSH1 0x1 DUP2 PUSH1 0x1 AND ISZERO PUSH2 0x100 MUL SUB AND PUSH1 0x2 SWAP1 DIV DUP1 PUSH1 0x1F ADD PUSH1 0x20 DUP1 SWAP2 DIV MUL PUSH1 0x20 ADD PUSH1 0x40 MLOAD SWAP1 DUP2 ADD PUSH1 0x40 MSTORE DUP1 SWAP3 SWAP2 SWAP1 DUP2 DUP2 MSTORE PUSH1 0x20 ADD DUP3 DUP1 SLOAD PUSH1 0x1 DUP2 PUSH1 0x1 AND ISZERO PUSH2 0x100 MUL SUB AND PUSH1 0x2 SWAP1 DIV DUP1 ISZERO PUSH2 0x19EA JUMPI DUP1 PUSH1 0x1F LT PUSH2 0x19BF JUMPI PUSH2 0x100 DUP1 DUP4 SLOAD DIV MUL DUP4 MSTORE SWAP2 PUSH1 0x20 ADD SWAP2 PUSH2 0x19EA JUMP JUMPDEST DUP3 ADD SWAP2 SWAP1 PUSH1 0x0 MSTORE PUSH1 0x20 PUSH1 0x0 KECCAK256 SWAP1 JUMPDEST DUP2 SLOAD DUP2 MSTORE SWAP1 PUSH1 0x1 ADD SWAP1 PUSH1 0x20 ADD DUP1 DUP4 GT PUSH2 0x19CD JUMPI DUP3 SWAP1 SUB PUSH1 0x1F AND DUP3 ADD SWAP2 JUMPDEST POP POP POP POP POP SWAP1 DUP1 PUSH1 0x2 ADD PUSH1 0x0 SWAP1 SLOAD SWAP1 PUSH2 0x100 EXP SWAP1 DIV PUSH20 0xFFFFFFFFFFFFFFFFFFFFFFFFFFFFFFFFFFFFFFFF AND SWAP1 DUP1 PUSH1 0x2 ADD PUSH1 0x14 SWAP1 SLOAD SWAP1 PUSH2 0x100 EXP SWAP1 DIV PUSH1 0xFF AND SWAP1 POP DUP5 JUMP JUMPDEST PUSH1 0x60 PUSH1 0x0 PUSH1 0x8 DUP1 SLOAD SWAP1 POP PUSH8 0xFFFFFFFFFFFFFFFF DUP2 GT DUP1 ISZERO PUSH2 0x1A4D JUMPI PUSH1 0x0 DUP1 REVERT JUMPDEST POP PUSH1 0x40 MLOAD SWAP1 DUP1 DUP3 MSTORE DUP1 PUSH1 0x20 MUL PUSH1 0x20 ADD DUP3 ADD PUSH1 0x40 MSTORE DUP1 ISZERO PUSH2 0x1A87 JUMPI DUP2 PUSH1 0x20 ADD JUMPDEST PUSH2 0x1A74 PUSH2 0x3357 JUMP JUMPDEST DUP2 MSTORE PUSH1 0x20 ADD SWAP1 PUSH1 0x1 SWAP1 SUB SWAP1 DUP2 PUSH2 0x1A6C JUMPI SWAP1 POP JUMPDEST POP SWAP1 POP PUSH1 0x0 JUMPDEST PUSH1 0x8 DUP1 SLOAD SWAP1 POP DUP2 LT ISZERO PUSH2 0x1D16 JUMPI PUSH1 0x8 DUP2 DUP2 SLOAD DUP2 LT PUSH2 0x1AA7 JUMPI INVALID JUMPDEST SWAP1 PUSH1 0x0 MSTORE PUSH1 0x20 PUSH1 0x0 KECCAK256 SWAP1 PUSH1 0x4 MUL ADD PUSH1 0x3 ADD PUSH1 0x0 SWAP1 SLOAD SWAP1 PUSH2 0x100 EXP SWAP1 DIV PUSH20 0xFFFFFFFFFFFFFFFFFFFFFFFFFFFFFFFFFFFFFFFF AND PUSH20 0xFFFFFFFFFFFFFFFFFFFFFFFFFFFFFFFFFFFFFFFF AND DUP5 PUSH20 0xFFFFFFFFFFFFFFFFFFFFFFFFFFFFFFFFFFFFFFFF AND EQ ISZERO PUSH2 0x1D09 JUMPI PUSH1 0x8 DUP2 DUP2 SLOAD DUP2 LT PUSH2 0x1B19 JUMPI INVALID JUMPDEST SWAP1 PUSH1 0x0 MSTORE PUSH1 0x20 PUSH1 0x0 KECCAK256 SWAP1 PUSH1 0x4 MUL ADD PUSH1 0x40 MLOAD DUP1 PUSH1 0xA0 ADD PUSH1 0x40 MSTORE SWAP1 DUP2 PUSH1 0x0 DUP3 ADD SLOAD DUP2 MSTORE PUSH1 0x20 ADD PUSH1 0x1 DUP3 ADD DUP1 SLOAD PUSH1 0x1 DUP2 PUSH1 0x1 AND ISZERO PUSH2 0x100 MUL SUB AND PUSH1 0x2 SWAP1 DIV DUP1 PUSH1 0x1F ADD PUSH1 0x20 DUP1 SWAP2 DIV MUL PUSH1 0x20 ADD PUSH1 0x40 MLOAD SWAP1 DUP2 ADD PUSH1 0x40 MSTORE DUP1 SWAP3 SWAP2 SWAP1 DUP2 DUP2 MSTORE PUSH1 0x20 ADD DUP3 DUP1 SLOAD PUSH1 0x1 DUP2 PUSH1 0x1 AND ISZERO PUSH2 0x100 MUL SUB AND PUSH1 0x2 SWAP1 DIV DUP1 ISZERO PUSH2 0x1BD5 JUMPI DUP1 PUSH1 0x1F LT PUSH2 0x1BAA JUMPI PUSH2 0x100 DUP1 DUP4 SLOAD DIV MUL DUP4 MSTORE SWAP2 PUSH1 0x20 ADD SWAP2 PUSH2 0x1BD5 JUMP JUMPDEST DUP3 ADD SWAP2 SWAP1 PUSH1 0x0 MSTORE PUSH1 0x20 PUSH1 0x0 KECCAK256 SWAP1 JUMPDEST DUP2 SLOAD DUP2 MSTORE SWAP1 PUSH1 0x1 ADD SWAP1 PUSH1 0x20 ADD DUP1 DUP4 GT PUSH2 0x1BB8 JUMPI DUP3 SWAP1 SUB PUSH1 0x1F AND DUP3 ADD SWAP2 JUMPDEST POP POP POP POP POP DUP2 MSTORE PUSH1 0x20 ADD PUSH1 0x2 DUP3 ADD DUP1 SLOAD PUSH1 0x1 DUP2 PUSH1 0x1 AND ISZERO PUSH2 0x100 MUL SUB AND PUSH1 0x2 SWAP1 DIV DUP1 PUSH1 0x1F ADD PUSH1 0x20 DUP1 SWAP2 DIV MUL PUSH1 0x20 ADD PUSH1 0x40 MLOAD SWAP1 DUP2 ADD PUSH1 0x40 MSTORE DUP1 SWAP3 SWAP2 SWAP1 DUP2 DUP2 MSTORE PUSH1 0x20 ADD DUP3 DUP1 SLOAD PUSH1 0x1 DUP2 PUSH1 0x1 AND ISZERO PUSH2 0x100 MUL SUB AND PUSH1 0x2 SWAP1 DIV DUP1 ISZERO PUSH2 0x1C77 JUMPI DUP1 PUSH1 0x1F LT PUSH2 0x1C4C JUMPI PUSH2 0x100 DUP1 DUP4 SLOAD DIV MUL DUP4 MSTORE SWAP2 PUSH1 0x20 ADD SWAP2 PUSH2 0x1C77 JUMP JUMPDEST DUP3 ADD SWAP2 SWAP1 PUSH1 0x0 MSTORE PUSH1 0x20 PUSH1 0x0 KECCAK256 SWAP1 JUMPDEST DUP2 SLOAD DUP2 MSTORE SWAP1 PUSH1 0x1 ADD SWAP1 PUSH1 0x20 ADD DUP1 DUP4 GT PUSH2 0x1C5A JUMPI DUP3 SWAP1 SUB PUSH1 0x1F AND DUP3 ADD SWAP2 JUMPDEST POP POP POP POP POP DUP2 MSTORE PUSH1 0x20 ADD PUSH1 0x3 DUP3 ADD PUSH1 0x0 SWAP1 SLOAD SWAP1 PUSH2 0x100 EXP SWAP1 DIV PUSH20 0xFFFFFFFFFFFFFFFFFFFFFFFFFFFFFFFFFFFFFFFF AND PUSH20 0xFFFFFFFFFFFFFFFFFFFFFFFFFFFFFFFFFFFFFFFF AND PUSH20 0xFFFFFFFFFFFFFFFFFFFFFFFFFFFFFFFFFFFFFFFF AND DUP2 MSTORE PUSH1 0x20 ADD PUSH1 0x3 DUP3 ADD PUSH1 0x14 SWAP1 SLOAD SWAP1 PUSH2 0x100 EXP SWAP1 DIV PUSH1 0xFF AND ISZERO ISZERO ISZERO ISZERO DUP2 MSTORE POP POP DUP3 DUP3 DUP2 MLOAD DUP2 LT PUSH2 0x1CFD JUMPI INVALID JUMPDEST PUSH1 0x20 MUL PUSH1 0x20 ADD ADD DUP2 SWAP1 MSTORE POP JUMPDEST DUP1 DUP1 PUSH1 0x1 ADD SWAP2 POP POP PUSH2 0x1A8D JUMP JUMPDEST POP DUP1 SWAP2 POP POP SWAP2 SWAP1 POP JUMP JUMPDEST PUSH1 0x60 DUP1 PUSH1 0x60 PUSH1 0x0 DUP1 PUSH1 0x0 PUSH2 0x1D33 DUP8 PUSH2 0x30BF JUMP JUMPDEST SWAP1 POP PUSH1 0x4 DUP2 DUP2 SLOAD DUP2 LT PUSH2 0x1D42 JUMPI INVALID JUMPDEST SWAP1 PUSH1 0x0 MSTORE PUSH1 0x20 PUSH1 0x0 KECCAK256 SWAP1 PUSH1 0x6 MUL ADD PUSH1 0x1 ADD PUSH1 0x4 DUP3 DUP2 SLOAD DUP2 LT PUSH2 0x1D60 JUMPI INVALID JUMPDEST SWAP1 PUSH1 0x0 MSTORE PUSH1 0x20 PUSH1 0x0 KECCAK256 SWAP1 PUSH1 0x6 MUL ADD PUSH1 0x2 ADD PUSH1 0x4 DUP4 DUP2 SLOAD DUP2 LT PUSH2 0x1D7E JUMPI INVALID JUMPDEST SWAP1 PUSH1 0x0 MSTORE PUSH1 0x20 PUSH1 0x0 KECCAK256 SWAP1 PUSH1 0x6 MUL ADD PUSH1 0x3 ADD PUSH1 0x4 DUP5 DUP2 SLOAD DUP2 LT PUSH2 0x1D9C JUMPI INVALID JUMPDEST SWAP1 PUSH1 0x0 MSTORE PUSH1 0x20 PUSH1 0x0 KECCAK256 SWAP1 PUSH1 0x6 MUL ADD PUSH1 0x4 ADD SLOAD PUSH1 0x4 DUP6 DUP2 SLOAD DUP2 LT PUSH2 0x1DBB JUMPI INVALID JUMPDEST SWAP1 PUSH1 0x0 MSTORE PUSH1 0x20 PUSH1 0x0 KECCAK256 SWAP1 PUSH1 0x6 MUL ADD PUSH1 0x5 ADD PUSH1 0x0 SWAP1 SLOAD SWAP1 PUSH2 0x100 EXP SWAP1 DIV PUSH1 0xFF AND DUP5 DUP1 SLOAD PUSH1 0x1 DUP2 PUSH1 0x1 AND ISZERO PUSH2 0x100 MUL SUB AND PUSH1 0x2 SWAP1 DIV DUP1 PUSH1 0x1F ADD PUSH1 0x20 DUP1 SWAP2 DIV MUL PUSH1 0x20 ADD PUSH1 0x40 MLOAD SWAP1 DUP2 ADD PUSH1 0x40 MSTORE DUP1 SWAP3 SWAP2 SWAP1 DUP2 DUP2 MSTORE PUSH1 0x20 ADD DUP3 DUP1 SLOAD PUSH1 0x1 DUP2 PUSH1 0x1 AND ISZERO PUSH2 0x100 MUL SUB AND PUSH1 0x2 SWAP1 DIV DUP1 ISZERO PUSH2 0x1E6F JUMPI DUP1 PUSH1 0x1F LT PUSH2 0x1E44 JUMPI PUSH2 0x100 DUP1 DUP4 SLOAD DIV MUL DUP4 MSTORE SWAP2 PUSH1 0x20 ADD SWAP2 PUSH2 0x1E6F JUMP JUMPDEST DUP3 ADD SWAP2 SWAP1 PUSH1 0x0 MSTORE PUSH1 0x20 PUSH1 0x0 KECCAK256 SWAP1 JUMPDEST DUP2 SLOAD DUP2 MSTORE SWAP1 PUSH1 0x1 ADD SWAP1 PUSH1 0x20 ADD DUP1 DUP4 GT PUSH2 0x1E52 JUMPI DUP3 SWAP1 SUB PUSH1 0x1F AND DUP3 ADD SWAP2 JUMPDEST POP POP POP POP POP SWAP5 POP DUP4 DUP1 SLOAD PUSH1 0x1 DUP2 PUSH1 0x1 AND ISZERO PUSH2 0x100 MUL SUB AND PUSH1 0x2 SWAP1 DIV DUP1 PUSH1 0x1F ADD PUSH1 0x20 DUP1 SWAP2 DIV MUL PUSH1 0x20 ADD PUSH1 0x40 MLOAD SWAP1 DUP2 ADD PUSH1 0x40 MSTORE DUP1 SWAP3 SWAP2 SWAP1 DUP2 DUP2 MSTORE PUSH1 0x20 ADD DUP3 DUP1 SLOAD PUSH1 0x1 DUP2 PUSH1 0x1 AND ISZERO PUSH2 0x100 MUL SUB AND PUSH1 0x2 SWAP1 DIV DUP1 ISZERO PUSH2 0x1F0B JUMPI DUP1 PUSH1 0x1F LT PUSH2 0x1EE0 JUMPI PUSH2 0x100 DUP1 DUP4 SLOAD DIV MUL DUP4 MSTORE SWAP2 PUSH1 0x20 ADD SWAP2 PUSH2 0x1F0B JUMP JUMPDEST DUP3 ADD SWAP2 SWAP1 PUSH1 0x0 MSTORE PUSH1 0x20 PUSH1 0x0 KECCAK256 SWAP1 JUMPDEST DUP2 SLOAD DUP2 MSTORE SWAP1 PUSH1 0x1 ADD SWAP1 PUSH1 0x20 ADD DUP1 DUP4 GT PUSH2 0x1EEE JUMPI DUP3 SWAP1 SUB PUSH1 0x1F AND DUP3 ADD SWAP2 JUMPDEST POP POP POP POP POP SWAP4 POP DUP3 DUP1 SLOAD PUSH1 0x1 DUP2 PUSH1 0x1 AND ISZERO PUSH2 0x100 MUL SUB AND PUSH1 0x2 SWAP1 DIV DUP1 PUSH1 0x1F ADD PUSH1 0x20 DUP1 SWAP2 DIV MUL PUSH1 0x20 ADD PUSH1 0x40 MLOAD SWAP1 DUP2 ADD PUSH1 0x40 MSTORE DUP1 SWAP3 SWAP2 SWAP1 DUP2 DUP2 MSTORE PUSH1 0x20 ADD DUP3 DUP1 SLOAD PUSH1 0x1 DUP2 PUSH1 0x1 AND ISZERO PUSH2 0x100 MUL SUB AND PUSH1 0x2 SWAP1 DIV DUP1 ISZERO PUSH2 0x1FA7 JUMPI DUP1 PUSH1 0x1F LT PUSH2 0x1F7C JUMPI PUSH2 0x100 DUP1 DUP4 SLOAD DIV MUL DUP4 MSTORE SWAP2 PUSH1 0x20 ADD SWAP2 PUSH2 0x1FA7 JUMP JUMPDEST DUP3 ADD SWAP2 SWAP1 PUSH1 0x0 MSTORE PUSH1 0x20 PUSH1 0x0 KECCAK256 SWAP1 JUMPDEST DUP2 SLOAD DUP2 MSTORE SWAP1 PUSH1 0x1 ADD SWAP1 PUSH1 0x20 ADD DUP1 DUP4 GT PUSH2 0x1F8A JUMPI DUP3 SWAP1 SUB PUSH1 0x1F AND DUP3 ADD SWAP2 JUMPDEST POP POP POP POP POP SWAP3 POP SWAP6 POP SWAP6 POP SWAP6 POP SWAP6 POP SWAP6 POP POP SWAP2 SWAP4 SWAP6 SWAP1 SWAP3 SWAP5 POP JUMP JUMPDEST PUSH1 0x0 PUSH2 0x1FCD DUP3 PUSH2 0x319D JUMP JUMPDEST SWAP1 POP PUSH1 0x0 PUSH1 0x6 DUP3 DUP2 SLOAD DUP2 LT PUSH2 0x1FDE JUMPI INVALID JUMPDEST SWAP1 PUSH1 0x0 MSTORE PUSH1 0x20 PUSH1 0x0 KECCAK256 SWAP1 PUSH1 0x3 MUL ADD PUSH1 0x2 ADD PUSH1 0x14 PUSH2 0x100 EXP DUP2 SLOAD DUP2 PUSH1 0xFF MUL NOT AND SWAP1 DUP4 ISZERO ISZERO MUL OR SWAP1 SSTORE POP PUSH32 0x780B3C74EC1E08D8C65FD8A12C6AC2DA5C15F2D3B5E54335B51671F63B7D2AD0 PUSH1 0x6 DUP3 DUP2 SLOAD DUP2 LT PUSH2 0x2034 JUMPI INVALID JUMPDEST SWAP1 PUSH1 0x0 MSTORE PUSH1 0x20 PUSH1 0x0 KECCAK256 SWAP1 PUSH1 0x3 MUL ADD PUSH1 0x0 ADD PUSH1 0x0 SWAP1 SLOAD SWAP1 PUSH2 0x100 EXP SWAP1 DIV PUSH20 0xFFFFFFFFFFFFFFFFFFFFFFFFFFFFFFFFFFFFFFFF AND PUSH1 0x6 DUP4 DUP2 SLOAD DUP2 LT PUSH2 0x2073 JUMPI INVALID JUMPDEST SWAP1 PUSH1 0x0 MSTORE PUSH1 0x20 PUSH1 0x0 KECCAK256 SWAP1 PUSH1 0x3 MUL ADD PUSH1 0x1 ADD PUSH1 0x6 DUP5 DUP2 SLOAD DUP2 LT PUSH2 0x2091 JUMPI INVALID JUMPDEST SWAP1 PUSH1 0x0 MSTORE PUSH1 0x20 PUSH1 0x0 KECCAK256 SWAP1 PUSH1 0x3 MUL ADD PUSH1 0x2 ADD PUSH1 0x0 SWAP1 SLOAD SWAP1 PUSH2 0x100 EXP SWAP1 DIV PUSH20 0xFFFFFFFFFFFFFFFFFFFFFFFFFFFFFFFFFFFFFFFF AND PUSH1 0x6 DUP6 DUP2 SLOAD DUP2 LT PUSH2 0x20D0 JUMPI INVALID JUMPDEST SWAP1 PUSH1 0x0 MSTORE PUSH1 0x20 PUSH1 0x0 KECCAK256 SWAP1 PUSH1 0x3 MUL ADD PUSH1 0x2 ADD PUSH1 0x14 SWAP1 SLOAD SWAP1 PUSH2 0x100 EXP SWAP1 DIV PUSH1 0xFF AND PUSH1 0x40 MLOAD PUSH2 0x20FF SWAP5 SWAP4 SWAP3 SWAP2 SWAP1 PUSH2 0x3D83 JUMP JUMPDEST PUSH1 0x40 MLOAD DUP1 SWAP2 SUB SWAP1 LOG1 POP POP JUMP JUMPDEST PUSH1 0x0 PUSH1 0x4 DUP1 SLOAD SWAP1 POP SWAP1 POP SWAP1 JUMP JUMPDEST PUSH1 0x4 PUSH1 0x40 MLOAD DUP1 PUSH1 0xC0 ADD PUSH1 0x40 MSTORE DUP1 DUP8 PUSH20 0xFFFFFFFFFFFFFFFFFFFFFFFFFFFFFFFFFFFFFFFF AND DUP2 MSTORE PUSH1 0x20 ADD DUP7 DUP2 MSTORE PUSH1 0x20 ADD DUP6 DUP2 MSTORE PUSH1 0x20 ADD DUP5 DUP2 MSTORE PUSH1 0x20 ADD DUP4 DUP2 MSTORE PUSH1 0x20 ADD PUSH1 0x1 ISZERO ISZERO DUP2 MSTORE POP SWAP1 DUP1 PUSH1 0x1 DUP2 SLOAD ADD DUP1 DUP3 SSTORE DUP1 SWAP2 POP POP PUSH1 0x1 SWAP1 SUB SWAP1 PUSH1 0x0 MSTORE PUSH1 0x20 PUSH1 0x0 KECCAK256 SWAP1 PUSH1 0x6 MUL ADD PUSH1 0x0 SWAP1 SWAP2 SWAP1 SWAP2 SWAP1 SWAP2 POP PUSH1 0x0 DUP3 ADD MLOAD DUP2 PUSH1 0x0 ADD PUSH1 0x0 PUSH2 0x100 EXP DUP2 SLOAD DUP2 PUSH20 0xFFFFFFFFFFFFFFFFFFFFFFFFFFFFFFFFFFFFFFFF MUL NOT AND SWAP1 DUP4 PUSH20 0xFFFFFFFFFFFFFFFFFFFFFFFFFFFFFFFFFFFFFFFF AND MUL OR SWAP1 SSTORE POP PUSH1 0x20 DUP3 ADD MLOAD DUP2 PUSH1 0x1 ADD SWAP1 DUP1 MLOAD SWAP1 PUSH1 0x20 ADD SWAP1 PUSH2 0x21EC SWAP3 SWAP2 SWAP1 PUSH2 0x327B JUMP JUMPDEST POP PUSH1 0x40 DUP3 ADD MLOAD DUP2 PUSH1 0x2 ADD SWAP1 DUP1 MLOAD SWAP1 PUSH1 0x20 ADD SWAP1 PUSH2 0x2209 SWAP3 SWAP2 SWAP1 PUSH2 0x327B JUMP JUMPDEST POP PUSH1 0x60 DUP3 ADD MLOAD DUP2 PUSH1 0x3 ADD SWAP1 DUP1 MLOAD SWAP1 PUSH1 0x20 ADD SWAP1 PUSH2 0x2226 SWAP3 SWAP2 SWAP1 PUSH2 0x327B JUMP JUMPDEST POP PUSH1 0x80 DUP3 ADD MLOAD DUP2 PUSH1 0x4 ADD SSTORE PUSH1 0xA0 DUP3 ADD MLOAD DUP2 PUSH1 0x5 ADD PUSH1 0x0 PUSH2 0x100 EXP DUP2 SLOAD DUP2 PUSH1 0xFF MUL NOT AND SWAP1 DUP4 ISZERO ISZERO MUL OR SWAP1 SSTORE POP POP POP PUSH32 0xF646212ACC3F5092FB0211FFD5121C0F706641B715E3982DAB50AFB395413DD5 DUP6 DUP6 DUP6 DUP6 DUP6 PUSH1 0x1 PUSH1 0x40 MLOAD PUSH2 0x228D SWAP7 SWAP6 SWAP5 SWAP4 SWAP3 SWAP2 SWAP1 PUSH2 0x3CCF JUMP JUMPDEST PUSH1 0x40 MLOAD DUP1 SWAP2 SUB SWAP1 LOG1 POP POP POP POP POP JUMP JUMPDEST PUSH1 0x3 PUSH1 0x20 MSTORE DUP1 PUSH1 0x0 MSTORE PUSH1 0x40 PUSH1 0x0 KECCAK256 PUSH1 0x0 SWAP2 POP SWAP1 POP DUP1 PUSH1 0x0 ADD PUSH1 0x0 SWAP1 SLOAD SWAP1 PUSH2 0x100 EXP SWAP1 DIV PUSH20 0xFFFFFFFFFFFFFFFFFFFFFFFFFFFFFFFFFFFFFFFF AND SWAP1 DUP1 PUSH1 0x1 ADD DUP1 SLOAD PUSH1 0x1 DUP2 PUSH1 0x1 AND ISZERO PUSH2 0x100 MUL SUB AND PUSH1 0x2 SWAP1 DIV DUP1 PUSH1 0x1F ADD PUSH1 0x20 DUP1 SWAP2 DIV MUL PUSH1 0x20 ADD PUSH1 0x40 MLOAD SWAP1 DUP2 ADD PUSH1 0x40 MSTORE DUP1 SWAP3 SWAP2 SWAP1 DUP2 DUP2 MSTORE PUSH1 0x20 ADD DUP3 DUP1 SLOAD PUSH1 0x1 DUP2 PUSH1 0x1 AND ISZERO PUSH2 0x100 MUL SUB AND PUSH1 0x2 SWAP1 DIV DUP1 ISZERO PUSH2 0x236E JUMPI DUP1 PUSH1 0x1F LT PUSH2 0x2343 JUMPI PUSH2 0x100 DUP1 DUP4 SLOAD DIV MUL DUP4 MSTORE SWAP2 PUSH1 0x20 ADD SWAP2 PUSH2 0x236E JUMP JUMPDEST DUP3 ADD SWAP2 SWAP1 PUSH1 0x0 MSTORE PUSH1 0x20 PUSH1 0x0 KECCAK256 SWAP1 JUMPDEST DUP2 SLOAD DUP2 MSTORE SWAP1 PUSH1 0x1 ADD SWAP1 PUSH1 0x20 ADD DUP1 DUP4 GT PUSH2 0x2351 JUMPI DUP3 SWAP1 SUB PUSH1 0x1F AND DUP3 ADD SWAP2 JUMPDEST POP POP POP POP POP SWAP1 DUP1 PUSH1 0x2 ADD DUP1 SLOAD PUSH1 0x1 DUP2 PUSH1 0x1 AND ISZERO PUSH2 0x100 MUL SUB AND PUSH1 0x2 SWAP1 DIV DUP1 PUSH1 0x1F ADD PUSH1 0x20 DUP1 SWAP2 DIV MUL PUSH1 0x20 ADD PUSH1 0x40 MLOAD SWAP1 DUP2 ADD PUSH1 0x40 MSTORE DUP1 SWAP3 SWAP2 SWAP1 DUP2 DUP2 MSTORE PUSH1 0x20 ADD DUP3 DUP1 SLOAD PUSH1 0x1 DUP2 PUSH1 0x1 AND ISZERO PUSH2 0x100 MUL SUB AND PUSH1 0x2 SWAP1 DIV DUP1 ISZERO PUSH2 0x240C JUMPI DUP1 PUSH1 0x1F LT PUSH2 0x23E1 JUMPI PUSH2 0x100 DUP1 DUP4 SLOAD DIV MUL DUP4 MSTORE SWAP2 PUSH1 0x20 ADD SWAP2 PUSH2 0x240C JUMP JUMPDEST DUP3 ADD SWAP2 SWAP1 PUSH1 0x0 MSTORE PUSH1 0x20 PUSH1 0x0 KECCAK256 SWAP1 JUMPDEST DUP2 SLOAD DUP2 MSTORE SWAP1 PUSH1 0x1 ADD SWAP1 PUSH1 0x20 ADD DUP1 DUP4 GT PUSH2 0x23EF JUMPI DUP3 SWAP1 SUB PUSH1 0x1F AND DUP3 ADD SWAP2 JUMPDEST POP POP POP POP POP SWAP1 DUP1 PUSH1 0x3 ADD DUP1 SLOAD PUSH1 0x1 DUP2 PUSH1 0x1 AND ISZERO PUSH2 0x100 MUL SUB AND PUSH1 0x2 SWAP1 DIV DUP1 PUSH1 0x1F ADD PUSH1 0x20 DUP1 SWAP2 DIV MUL PUSH1 0x20 ADD PUSH1 0x40 MLOAD SWAP1 DUP2 ADD PUSH1 0x40 MSTORE DUP1 SWAP3 SWAP2 SWAP1 DUP2 DUP2 MSTORE PUSH1 0x20 ADD DUP3 DUP1 SLOAD PUSH1 0x1 DUP2 PUSH1 0x1 AND ISZERO PUSH2 0x100 MUL SUB AND PUSH1 0x2 SWAP1 DIV DUP1 ISZERO PUSH2 0x24AA JUMPI DUP1 PUSH1 0x1F LT PUSH2 0x247F JUMPI PUSH2 0x100 DUP1 DUP4 SLOAD DIV MUL DUP4 MSTORE SWAP2 PUSH1 0x20 ADD SWAP2 PUSH2 0x24AA JUMP JUMPDEST DUP3 ADD SWAP2 SWAP1 PUSH1 0x0 MSTORE PUSH1 0x20 PUSH1 0x0 KECCAK256 SWAP1 JUMPDEST DUP2 SLOAD DUP2 MSTORE SWAP1 PUSH1 0x1 ADD SWAP1 PUSH1 0x20 ADD DUP1 DUP4 GT PUSH2 0x248D JUMPI DUP3 SWAP1 SUB PUSH1 0x1F AND DUP3 ADD SWAP2 JUMPDEST POP POP POP POP POP SWAP1 DUP1 PUSH1 0x4 ADD SLOAD SWAP1 DUP1 PUSH1 0x5 ADD PUSH1 0x0 SWAP1 SLOAD SWAP1 PUSH2 0x100 EXP SWAP1 DIV PUSH1 0xFF AND SWAP1 POP DUP7 JUMP JUMPDEST PUSH1 0x0 PUSH1 0x8 DUP1 SLOAD SWAP1 POP SWAP1 POP SWAP1 JUMP JUMPDEST PUSH1 0x60 PUSH1 0x0 PUSH1 0x6 DUP1 SLOAD SWAP1 POP PUSH8 0xFFFFFFFFFFFFFFFF DUP2 GT DUP1 ISZERO PUSH2 0x24FA JUMPI PUSH1 0x0 DUP1 REVERT JUMPDEST POP PUSH1 0x40 MLOAD SWAP1 DUP1 DUP3 MSTORE DUP1 PUSH1 0x20 MUL PUSH1 0x20 ADD DUP3 ADD PUSH1 0x40 MSTORE DUP1 ISZERO PUSH2 0x2534 JUMPI DUP2 PUSH1 0x20 ADD JUMPDEST PUSH2 0x2521 PUSH2 0x339E JUMP JUMPDEST DUP2 MSTORE PUSH1 0x20 ADD SWAP1 PUSH1 0x1 SWAP1 SUB SWAP1 DUP2 PUSH2 0x2519 JUMPI SWAP1 POP JUMPDEST POP SWAP1 POP PUSH1 0x0 JUMPDEST PUSH1 0x6 DUP1 SLOAD SWAP1 POP DUP2 LT ISZERO PUSH2 0x276D JUMPI PUSH1 0x6 DUP2 DUP2 SLOAD DUP2 LT PUSH2 0x2554 JUMPI INVALID JUMPDEST SWAP1 PUSH1 0x0 MSTORE PUSH1 0x20 PUSH1 0x0 KECCAK256 SWAP1 PUSH1 0x3 MUL ADD PUSH1 0x2 ADD PUSH1 0x0 SWAP1 SLOAD SWAP1 PUSH2 0x100 EXP SWAP1 DIV PUSH20 0xFFFFFFFFFFFFFFFFFFFFFFFFFFFFFFFFFFFFFFFF AND PUSH20 0xFFFFFFFFFFFFFFFFFFFFFFFFFFFFFFFFFFFFFFFF AND DUP5 PUSH20 0xFFFFFFFFFFFFFFFFFFFFFFFFFFFFFFFFFFFFFFFF AND EQ ISZERO PUSH2 0x2760 JUMPI PUSH1 0x6 DUP2 DUP2 SLOAD DUP2 LT PUSH2 0x25C6 JUMPI INVALID JUMPDEST SWAP1 PUSH1 0x0 MSTORE PUSH1 0x20 PUSH1 0x0 KECCAK256 SWAP1 PUSH1 0x3 MUL ADD PUSH1 0x40 MLOAD DUP1 PUSH1 0x80 ADD PUSH1 0x40 MSTORE SWAP1 DUP2 PUSH1 0x0 DUP3 ADD PUSH1 0x0 SWAP1 SLOAD SWAP1 PUSH2 0x100 EXP SWAP1 DIV PUSH20 0xFFFFFFFFFFFFFFFFFFFFFFFFFFFFFFFFFFFFFFFF AND PUSH20 0xFFFFFFFFFFFFFFFFFFFFFFFFFFFFFFFFFFFFFFFF AND PUSH20 0xFFFFFFFFFFFFFFFFFFFFFFFFFFFFFFFFFFFFFFFF AND DUP2 MSTORE PUSH1 0x20 ADD PUSH1 0x1 DUP3 ADD DUP1 SLOAD PUSH1 0x1 DUP2 PUSH1 0x1 AND ISZERO PUSH2 0x100 MUL SUB AND PUSH1 0x2 SWAP1 DIV DUP1 PUSH1 0x1F ADD PUSH1 0x20 DUP1 SWAP2 DIV MUL PUSH1 0x20 ADD PUSH1 0x40 MLOAD SWAP1 DUP2 ADD PUSH1 0x40 MSTORE DUP1 SWAP3 SWAP2 SWAP1 DUP2 DUP2 MSTORE PUSH1 0x20 ADD DUP3 DUP1 SLOAD PUSH1 0x1 DUP2 PUSH1 0x1 AND ISZERO PUSH2 0x100 MUL SUB AND PUSH1 0x2 SWAP1 DIV DUP1 ISZERO PUSH2 0x26CE JUMPI DUP1 PUSH1 0x1F LT PUSH2 0x26A3 JUMPI PUSH2 0x100 DUP1 DUP4 SLOAD DIV MUL DUP4 MSTORE SWAP2 PUSH1 0x20 ADD SWAP2 PUSH2 0x26CE JUMP JUMPDEST DUP3 ADD SWAP2 SWAP1 PUSH1 0x0 MSTORE PUSH1 0x20 PUSH1 0x0 KECCAK256 SWAP1 JUMPDEST DUP2 SLOAD DUP2 MSTORE SWAP1 PUSH1 0x1 ADD SWAP1 PUSH1 0x20 ADD DUP1 DUP4 GT PUSH2 0x26B1 JUMPI DUP3 SWAP1 SUB PUSH1 0x1F AND DUP3 ADD SWAP2 JUMPDEST POP POP POP POP POP DUP2 MSTORE PUSH1 0x20 ADD PUSH1 0x2 DUP3 ADD PUSH1 0x0 SWAP1 SLOAD SWAP1 PUSH2 0x100 EXP SWAP1 DIV PUSH20 0xFFFFFFFFFFFFFFFFFFFFFFFFFFFFFFFFFFFFFFFF AND PUSH20 0xFFFFFFFFFFFFFFFFFFFFFFFFFFFFFFFFFFFFFFFF AND PUSH20 0xFFFFFFFFFFFFFFFFFFFFFFFFFFFFFFFFFFFFFFFF AND DUP2 MSTORE PUSH1 0x20 ADD PUSH1 0x2 DUP3 ADD PUSH1 0x14 SWAP1 SLOAD SWAP1 PUSH2 0x100 EXP SWAP1 DIV PUSH1 0xFF AND ISZERO ISZERO ISZERO ISZERO DUP2 MSTORE POP POP DUP3 DUP3 DUP2 MLOAD DUP2 LT PUSH2 0x2754 JUMPI INVALID JUMPDEST PUSH1 0x20 MUL PUSH1 0x20 ADD ADD DUP2 SWAP1 MSTORE POP JUMPDEST DUP1 DUP1 PUSH1 0x1 ADD SWAP2 POP POP PUSH2 0x253A JUMP JUMPDEST POP DUP1 SWAP2 POP POP SWAP2 SWAP1 POP JUMP JUMPDEST PUSH1 0x4 DUP2 DUP2 SLOAD DUP2 LT PUSH2 0x2787 JUMPI PUSH1 0x0 DUP1 REVERT JUMPDEST SWAP1 PUSH1 0x0 MSTORE PUSH1 0x20 PUSH1 0x0 KECCAK256 SWAP1 PUSH1 0x6 MUL ADD PUSH1 0x0 SWAP2 POP SWAP1 POP DUP1 PUSH1 0x0 ADD PUSH1 0x0 SWAP1 SLOAD SWAP1 PUSH2 0x100 EXP SWAP1 DIV PUSH20 0xFFFFFFFFFFFFFFFFFFFFFFFFFFFFFFFFFFFFFFFF AND SWAP1 DUP1 PUSH1 0x1 ADD DUP1 SLOAD PUSH1 0x1 DUP2 PUSH1 0x1 AND ISZERO PUSH2 0x100 MUL SUB AND PUSH1 0x2 SWAP1 DIV DUP1 PUSH1 0x1F ADD PUSH1 0x20 DUP1 SWAP2 DIV MUL PUSH1 0x20 ADD PUSH1 0x40 MLOAD SWAP1 DUP2 ADD PUSH1 0x40 MSTORE DUP1 SWAP3 SWAP2 SWAP1 DUP2 DUP2 MSTORE PUSH1 0x20 ADD DUP3 DUP1 SLOAD PUSH1 0x1 DUP2 PUSH1 0x1 AND ISZERO PUSH2 0x100 MUL SUB AND PUSH1 0x2 SWAP1 DIV DUP1 ISZERO PUSH2 0x2859 JUMPI DUP1 PUSH1 0x1F LT PUSH2 0x282E JUMPI PUSH2 0x100 DUP1 DUP4 SLOAD DIV MUL DUP4 MSTORE SWAP2 PUSH1 0x20 ADD SWAP2 PUSH2 0x2859 JUMP JUMPDEST DUP3 ADD SWAP2 SWAP1 PUSH1 0x0 MSTORE PUSH1 0x20 PUSH1 0x0 KECCAK256 SWAP1 JUMPDEST DUP2 SLOAD DUP2 MSTORE SWAP1 PUSH1 0x1 ADD SWAP1 PUSH1 0x20 ADD DUP1 DUP4 GT PUSH2 0x283C JUMPI DUP3 SWAP1 SUB PUSH1 0x1F AND DUP3 ADD SWAP2 JUMPDEST POP POP POP POP POP SWAP1 DUP1 PUSH1 0x2 ADD DUP1 SLOAD PUSH1 0x1 DUP2 PUSH1 0x1 AND ISZERO PUSH2 0x100 MUL SUB AND PUSH1 0x2 SWAP1 DIV DUP1 PUSH1 0x1F ADD PUSH1 0x20 DUP1 SWAP2 DIV MUL PUSH1 0x20 ADD PUSH1 0x40 MLOAD SWAP1 DUP2 ADD PUSH1 0x40 MSTORE DUP1 SWAP3 SWAP2 SWAP1 DUP2 DUP2 MSTORE PUSH1 0x20 ADD DUP3 DUP1 SLOAD PUSH1 0x1 DUP2 PUSH1 0x1 AND ISZERO PUSH2 0x100 MUL SUB AND PUSH1 0x2 SWAP1 DIV DUP1 ISZERO PUSH2 0x28F7 JUMPI DUP1 PUSH1 0x1F LT PUSH2 0x28CC JUMPI PUSH2 0x100 DUP1 DUP4 SLOAD DIV MUL DUP4 MSTORE SWAP2 PUSH1 0x20 ADD SWAP2 PUSH2 0x28F7 JUMP JUMPDEST DUP3 ADD SWAP2 SWAP1 PUSH1 0x0 MSTORE PUSH1 0x20 PUSH1 0x0 KECCAK256 SWAP1 JUMPDEST DUP2 SLOAD DUP2 MSTORE SWAP1 PUSH1 0x1 ADD SWAP1 PUSH1 0x20 ADD DUP1 DUP4 GT PUSH2 0x28DA JUMPI DUP3 SWAP1 SUB PUSH1 0x1F AND DUP3 ADD SWAP2 JUMPDEST POP POP POP POP POP SWAP1 DUP1 PUSH1 0x3 ADD DUP1 SLOAD PUSH1 0x1 DUP2 PUSH1 0x1 AND ISZERO PUSH2 0x100 MUL SUB AND PUSH1 0x2 SWAP1 DIV DUP1 PUSH1 0x1F ADD PUSH1 0x20 DUP1 SWAP2 DIV MUL PUSH1 0x20 ADD PUSH1 0x40 MLOAD SWAP1 DUP2 ADD PUSH1 0x40 MSTORE DUP1 SWAP3 SWAP2 SWAP1 DUP2 DUP2 MSTORE PUSH1 0x20 ADD DUP3 DUP1 SLOAD PUSH1 0x1 DUP2 PUSH1 0x1 AND ISZERO PUSH2 0x100 MUL SUB AND PUSH1 0x2 SWAP1 DIV DUP1 ISZERO PUSH2 0x2995 JUMPI DUP1 PUSH1 0x1F LT PUSH2 0x296A JUMPI PUSH2 0x100 DUP1 DUP4 SLOAD DIV MUL DUP4 MSTORE SWAP2 PUSH1 0x20 ADD SWAP2 PUSH2 0x2995 JUMP JUMPDEST DUP3 ADD SWAP2 SWAP1 PUSH1 0x0 MSTORE PUSH1 0x20 PUSH1 0x0 KECCAK256 SWAP1 JUMPDEST DUP2 SLOAD DUP2 MSTORE SWAP1 PUSH1 0x1 ADD SWAP1 PUSH1 0x20 ADD DUP1 DUP4 GT PUSH2 0x2978 JUMPI DUP3 SWAP1 SUB PUSH1 0x1F AND DUP3 ADD SWAP2 JUMPDEST POP POP POP POP POP SWAP1 DUP1 PUSH1 0x4 ADD SLOAD SWAP1 DUP1 PUSH1 0x5 ADD PUSH1 0x0 SWAP1 SLOAD SWAP1 PUSH2 0x100 EXP SWAP1 DIV PUSH1 0xFF AND SWAP1 POP DUP7 JUMP JUMPDEST PUSH1 0x5 PUSH1 0x20 MSTORE DUP1 PUSH1 0x0 MSTORE PUSH1 0x40 PUSH1 0x0 KECCAK256 PUSH1 0x0 SWAP2 POP SWAP1 POP DUP1 PUSH1 0x0 ADD PUSH1 0x0 SWAP1 SLOAD SWAP1 PUSH2 0x100 EXP SWAP1 DIV PUSH20 0xFFFFFFFFFFFFFFFFFFFFFFFFFFFFFFFFFFFFFFFF AND SWAP1 DUP1 PUSH1 0x1 ADD DUP1 SLOAD PUSH1 0x1 DUP2 PUSH1 0x1 AND ISZERO PUSH2 0x100 MUL SUB AND PUSH1 0x2 SWAP1 DIV DUP1 PUSH1 0x1F ADD PUSH1 0x20 DUP1 SWAP2 DIV MUL PUSH1 0x20 ADD PUSH1 0x40 MLOAD SWAP1 DUP2 ADD PUSH1 0x40 MSTORE DUP1 SWAP3 SWAP2 SWAP1 DUP2 DUP2 MSTORE PUSH1 0x20 ADD DUP3 DUP1 SLOAD PUSH1 0x1 DUP2 PUSH1 0x1 AND ISZERO PUSH2 0x100 MUL SUB AND PUSH1 0x2 SWAP1 DIV DUP1 ISZERO PUSH2 0x2A8A JUMPI DUP1 PUSH1 0x1F LT PUSH2 0x2A5F JUMPI PUSH2 0x100 DUP1 DUP4 SLOAD DIV MUL DUP4 MSTORE SWAP2 PUSH1 0x20 ADD SWAP2 PUSH2 0x2A8A JUMP JUMPDEST DUP3 ADD SWAP2 SWAP1 PUSH1 0x0 MSTORE PUSH1 0x20 PUSH1 0x0 KECCAK256 SWAP1 JUMPDEST DUP2 SLOAD DUP2 MSTORE SWAP1 PUSH1 0x1 ADD SWAP1 PUSH1 0x20 ADD DUP1 DUP4 GT PUSH2 0x2A6D JUMPI DUP3 SWAP1 SUB PUSH1 0x1F AND DUP3 ADD SWAP2 JUMPDEST POP POP POP POP POP SWAP1 DUP1 PUSH1 0x2 ADD PUSH1 0x0 SWAP1 SLOAD SWAP1 PUSH2 0x100 EXP SWAP1 DIV PUSH20 0xFFFFFFFFFFFFFFFFFFFFFFFFFFFFFFFFFFFFFFFF AND SWAP1 DUP1 PUSH1 0x2 ADD PUSH1 0x14 SWAP1 SLOAD SWAP1 PUSH2 0x100 EXP SWAP1 DIV PUSH1 0xFF AND SWAP1 POP DUP5 JUMP JUMPDEST PUSH2 0x2AD6 DUP2 PUSH2 0x30BF JUMP JUMPDEST POP PUSH1 0x6 PUSH1 0x40 MLOAD DUP1 PUSH1 0x80 ADD PUSH1 0x40 MSTORE DUP1 DUP6 PUSH20 0xFFFFFFFFFFFFFFFFFFFFFFFFFFFFFFFFFFFFFFFF AND DUP2 MSTORE PUSH1 0x20 ADD DUP5 DUP2 MSTORE PUSH1 0x20 ADD DUP4 PUSH20 0xFFFFFFFFFFFFFFFFFFFFFFFFFFFFFFFFFFFFFFFF AND DUP2 MSTORE PUSH1 0x20 ADD PUSH1 0x1 ISZERO ISZERO DUP2 MSTORE POP SWAP1 DUP1 PUSH1 0x1 DUP2 SLOAD ADD DUP1 DUP3 SSTORE DUP1 SWAP2 POP POP PUSH1 0x1 SWAP1 SUB SWAP1 PUSH1 0x0 MSTORE PUSH1 0x20 PUSH1 0x0 KECCAK256 SWAP1 PUSH1 0x3 MUL ADD PUSH1 0x0 SWAP1 SWAP2 SWAP1 SWAP2 SWAP1 SWAP2 POP PUSH1 0x0 DUP3 ADD MLOAD DUP2 PUSH1 0x0 ADD PUSH1 0x0 PUSH2 0x100 EXP DUP2 SLOAD DUP2 PUSH20 0xFFFFFFFFFFFFFFFFFFFFFFFFFFFFFFFFFFFFFFFF MUL NOT AND SWAP1 DUP4 PUSH20 0xFFFFFFFFFFFFFFFFFFFFFFFFFFFFFFFFFFFFFFFF AND MUL OR SWAP1 SSTORE POP PUSH1 0x20 DUP3 ADD MLOAD DUP2 PUSH1 0x1 ADD SWAP1 DUP1 MLOAD SWAP1 PUSH1 0x20 ADD SWAP1 PUSH2 0x2BB5 SWAP3 SWAP2 SWAP1 PUSH2 0x327B JUMP JUMPDEST POP PUSH1 0x40 DUP3 ADD MLOAD DUP2 PUSH1 0x2 ADD PUSH1 0x0 PUSH2 0x100 EXP DUP2 SLOAD DUP2 PUSH20 0xFFFFFFFFFFFFFFFFFFFFFFFFFFFFFFFFFFFFFFFF MUL NOT AND SWAP1 DUP4 PUSH20 0xFFFFFFFFFFFFFFFFFFFFFFFFFFFFFFFFFFFFFFFF AND MUL OR SWAP1 SSTORE POP PUSH1 0x60 DUP3 ADD MLOAD DUP2 PUSH1 0x2 ADD PUSH1 0x14 PUSH2 0x100 EXP DUP2 SLOAD DUP2 PUSH1 0xFF MUL NOT AND SWAP1 DUP4 ISZERO ISZERO MUL OR SWAP1 SSTORE POP POP POP PUSH32 0x4578695497AF1A3A1F556F9C89F9F107851CB8E1820E4B336143406B9BA52E3B DUP4 DUP4 DUP4 PUSH1 0x1 PUSH1 0x40 MLOAD PUSH2 0x2C55 SWAP5 SWAP4 SWAP3 SWAP2 SWAP1 PUSH2 0x3C83 JUMP JUMPDEST PUSH1 0x40 MLOAD DUP1 SWAP2 SUB SWAP1 LOG1 POP POP POP JUMP JUMPDEST PUSH1 0x8 DUP2 DUP2 SLOAD DUP2 LT PUSH2 0x2C72 JUMPI PUSH1 0x0 DUP1 REVERT JUMPDEST SWAP1 PUSH1 0x0 MSTORE PUSH1 0x20 PUSH1 0x0 KECCAK256 SWAP1 PUSH1 0x4 MUL ADD PUSH1 0x0 SWAP2 POP SWAP1 POP DUP1 PUSH1 0x0 ADD SLOAD SWAP1 DUP1 PUSH1 0x1 ADD DUP1 SLOAD PUSH1 0x1 DUP2 PUSH1 0x1 AND ISZERO PUSH2 0x100 MUL SUB AND PUSH1 0x2 SWAP1 DIV DUP1 PUSH1 0x1F ADD PUSH1 0x20 DUP1 SWAP2 DIV MUL PUSH1 0x20 ADD PUSH1 0x40 MLOAD SWAP1 DUP2 ADD PUSH1 0x40 MSTORE DUP1 SWAP3 SWAP2 SWAP1 DUP2 DUP2 MSTORE PUSH1 0x20 ADD DUP3 DUP1 SLOAD PUSH1 0x1 DUP2 PUSH1 0x1 AND ISZERO PUSH2 0x100 MUL SUB AND PUSH1 0x2 SWAP1 DIV DUP1 ISZERO PUSH2 0x2D24 JUMPI DUP1 PUSH1 0x1F LT PUSH2 0x2CF9 JUMPI PUSH2 0x100 DUP1 DUP4 SLOAD DIV MUL DUP4 MSTORE SWAP2 PUSH1 0x20 ADD SWAP2 PUSH2 0x2D24 JUMP JUMPDEST DUP3 ADD SWAP2 SWAP1 PUSH1 0x0 MSTORE PUSH1 0x20 PUSH1 0x0 KECCAK256 SWAP1 JUMPDEST DUP2 SLOAD DUP2 MSTORE SWAP1 PUSH1 0x1 ADD SWAP1 PUSH1 0x20 ADD DUP1 DUP4 GT PUSH2 0x2D07 JUMPI DUP3 SWAP1 SUB PUSH1 0x1F AND DUP3 ADD SWAP2 JUMPDEST POP POP POP POP POP SWAP1 DUP1 PUSH1 0x2 ADD DUP1 SLOAD PUSH1 0x1 DUP2 PUSH1 0x1 AND ISZERO PUSH2 0x100 MUL SUB AND PUSH1 0x2 SWAP1 DIV DUP1 PUSH1 0x1F ADD PUSH1 0x20 DUP1 SWAP2 DIV MUL PUSH1 0x20 ADD PUSH1 0x40 MLOAD SWAP1 DUP2 ADD PUSH1 0x40 MSTORE DUP1 SWAP3 SWAP2 SWAP1 DUP2 DUP2 MSTORE PUSH1 0x20 ADD DUP3 DUP1 SLOAD PUSH1 0x1 DUP2 PUSH1 0x1 AND ISZERO PUSH2 0x100 MUL SUB AND PUSH1 0x2 SWAP1 DIV DUP1 ISZERO PUSH2 0x2DC2 JUMPI DUP1 PUSH1 0x1F LT PUSH2 0x2D97 JUMPI PUSH2 0x100 DUP1 DUP4 SLOAD DIV MUL DUP4 MSTORE SWAP2 PUSH1 0x20 ADD SWAP2 PUSH2 0x2DC2 JUMP JUMPDEST DUP3 ADD SWAP2 SWAP1 PUSH1 0x0 MSTORE PUSH1 0x20 PUSH1 0x0 KECCAK256 SWAP1 JUMPDEST DUP2 SLOAD DUP2 MSTORE SWAP1 PUSH1 0x1 ADD SWAP1 PUSH1 0x20 ADD DUP1 DUP4 GT PUSH2 0x2DA5 JUMPI DUP3 SWAP1 SUB PUSH1 0x1F AND DUP3 ADD SWAP2 JUMPDEST POP POP POP POP POP SWAP1 DUP1 PUSH1 0x3 ADD PUSH1 0x0 SWAP1 SLOAD SWAP1 PUSH2 0x100 EXP SWAP1 DIV PUSH20 0xFFFFFFFFFFFFFFFFFFFFFFFFFFFFFFFFFFFFFFFF AND SWAP1 DUP1 PUSH1 0x3 ADD PUSH1 0x14 SWAP1 SLOAD SWAP1 PUSH2 0x100 EXP SWAP1 DIV PUSH1 0xFF AND SWAP1 POP DUP6 JUMP JUMPDEST PUSH1 0x60 PUSH1 0x0 PUSH1 0x6 DUP1 SLOAD SWAP1 POP PUSH8 0xFFFFFFFFFFFFFFFF DUP2 GT DUP1 ISZERO PUSH2 0x2E25 JUMPI PUSH1 0x0 DUP1 REVERT JUMPDEST POP PUSH1 0x40 MLOAD SWAP1 DUP1 DUP3 MSTORE DUP1 PUSH1 0x20 MUL PUSH1 0x20 ADD DUP3 ADD PUSH1 0x40 MSTORE DUP1 ISZERO PUSH2 0x2E5F JUMPI DUP2 PUSH1 0x20 ADD JUMPDEST PUSH2 0x2E4C PUSH2 0x339E JUMP JUMPDEST DUP2 MSTORE PUSH1 0x20 ADD SWAP1 PUSH1 0x1 SWAP1 SUB SWAP1 DUP2 PUSH2 0x2E44 JUMPI SWAP1 POP JUMPDEST POP SWAP1 POP PUSH1 0x0 JUMPDEST PUSH1 0x6 DUP1 SLOAD SWAP1 POP DUP2 LT ISZERO PUSH2 0x3025 JUMPI PUSH1 0x6 DUP2 DUP2 SLOAD DUP2 LT PUSH2 0x2E7F JUMPI INVALID JUMPDEST SWAP1 PUSH1 0x0 MSTORE PUSH1 0x20 PUSH1 0x0 KECCAK256 SWAP1 PUSH1 0x3 MUL ADD PUSH1 0x40 MLOAD DUP1 PUSH1 0x80 ADD PUSH1 0x40 MSTORE SWAP1 DUP2 PUSH1 0x0 DUP3 ADD PUSH1 0x0 SWAP1 SLOAD SWAP1 PUSH2 0x100 EXP SWAP1 DIV PUSH20 0xFFFFFFFFFFFFFFFFFFFFFFFFFFFFFFFFFFFFFFFF AND PUSH20 0xFFFFFFFFFFFFFFFFFFFFFFFFFFFFFFFFFFFFFFFF AND PUSH20 0xFFFFFFFFFFFFFFFFFFFFFFFFFFFFFFFFFFFFFFFF AND DUP2 MSTORE PUSH1 0x20 ADD PUSH1 0x1 DUP3 ADD DUP1 SLOAD PUSH1 0x1 DUP2 PUSH1 0x1 AND ISZERO PUSH2 0x100 MUL SUB AND PUSH1 0x2 SWAP1 DIV DUP1 PUSH1 0x1F ADD PUSH1 0x20 DUP1 SWAP2 DIV MUL PUSH1 0x20 ADD PUSH1 0x40 MLOAD SWAP1 DUP2 ADD PUSH1 0x40 MSTORE DUP1 SWAP3 SWAP2 SWAP1 DUP2 DUP2 MSTORE PUSH1 0x20 ADD DUP3 DUP1 SLOAD PUSH1 0x1 DUP2 PUSH1 0x1 AND ISZERO PUSH2 0x100 MUL SUB AND PUSH1 0x2 SWAP1 DIV DUP1 ISZERO PUSH2 0x2F87 JUMPI DUP1 PUSH1 0x1F LT PUSH2 0x2F5C JUMPI PUSH2 0x100 DUP1 DUP4 SLOAD DIV MUL DUP4 MSTORE SWAP2 PUSH1 0x20 ADD SWAP2 PUSH2 0x2F87 JUMP JUMPDEST DUP3 ADD SWAP2 SWAP1 PUSH1 0x0 MSTORE PUSH1 0x20 PUSH1 0x0 KECCAK256 SWAP1 JUMPDEST DUP2 SLOAD DUP2 MSTORE SWAP1 PUSH1 0x1 ADD SWAP1 PUSH1 0x20 ADD DUP1 DUP4 GT PUSH2 0x2F6A JUMPI DUP3 SWAP1 SUB PUSH1 0x1F AND DUP3 ADD SWAP2 JUMPDEST POP POP POP POP POP DUP2 MSTORE PUSH1 0x20 ADD PUSH1 0x2 DUP3 ADD PUSH1 0x0 SWAP1 SLOAD SWAP1 PUSH2 0x100 EXP SWAP1 DIV PUSH20 0xFFFFFFFFFFFFFFFFFFFFFFFFFFFFFFFFFFFFFFFF AND PUSH20 0xFFFFFFFFFFFFFFFFFFFFFFFFFFFFFFFFFFFFFFFF AND PUSH20 0xFFFFFFFFFFFFFFFFFFFFFFFFFFFFFFFFFFFFFFFF AND DUP2 MSTORE PUSH1 0x20 ADD PUSH1 0x2 DUP3 ADD PUSH1 0x14 SWAP1 SLOAD SWAP1 PUSH2 0x100 EXP SWAP1 DIV PUSH1 0xFF AND ISZERO ISZERO ISZERO ISZERO DUP2 MSTORE POP POP DUP3 DUP3 DUP2 MLOAD DUP2 LT PUSH2 0x300D JUMPI INVALID JUMPDEST PUSH1 0x20 MUL PUSH1 0x20 ADD ADD DUP2 SWAP1 MSTORE POP DUP1 DUP1 PUSH1 0x1 ADD SWAP2 POP POP PUSH2 0x2E65 JUMP JUMPDEST POP DUP1 SWAP2 POP POP SWAP1 JUMP JUMPDEST PUSH1 0x0 DUP1 PUSH1 0x0 SWAP1 POP JUMPDEST PUSH1 0x8 DUP1 SLOAD SWAP1 POP DUP2 LT ISZERO PUSH2 0x307E JUMPI DUP3 PUSH1 0x8 DUP3 DUP2 SLOAD DUP2 LT PUSH2 0x3050 JUMPI INVALID JUMPDEST SWAP1 PUSH1 0x0 MSTORE PUSH1 0x20 PUSH1 0x0 KECCAK256 SWAP1 PUSH1 0x4 MUL ADD PUSH1 0x0 ADD SLOAD EQ ISZERO PUSH2 0x3071 JUMPI DUP1 SWAP2 POP POP PUSH2 0x30BA JUMP JUMPDEST DUP1 DUP1 PUSH1 0x1 ADD SWAP2 POP POP PUSH2 0x3035 JUMP JUMPDEST POP PUSH1 0x40 MLOAD PUSH32 0x8C379A000000000000000000000000000000000000000000000000000000000 DUP2 MSTORE PUSH1 0x4 ADD PUSH2 0x30B1 SWAP1 PUSH2 0x402C JUMP JUMPDEST PUSH1 0x40 MLOAD DUP1 SWAP2 SUB SWAP1 REVERT JUMPDEST SWAP2 SWAP1 POP JUMP JUMPDEST PUSH1 0x0 DUP1 PUSH1 0x0 SWAP1 POP JUMPDEST PUSH1 0x4 DUP1 SLOAD SWAP1 POP DUP2 LT ISZERO PUSH2 0x315C JUMPI DUP3 PUSH20 0xFFFFFFFFFFFFFFFFFFFFFFFFFFFFFFFFFFFFFFFF AND PUSH1 0x4 DUP3 DUP2 SLOAD DUP2 LT PUSH2 0x30F8 JUMPI INVALID JUMPDEST SWAP1 PUSH1 0x0 MSTORE PUSH1 0x20 PUSH1 0x0 KECCAK256 SWAP1 PUSH1 0x6 MUL ADD PUSH1 0x0 ADD PUSH1 0x0 SWAP1 SLOAD SWAP1 PUSH2 0x100 EXP SWAP1 DIV PUSH20 0xFFFFFFFFFFFFFFFFFFFFFFFFFFFFFFFFFFFFFFFF AND PUSH20 0xFFFFFFFFFFFFFFFFFFFFFFFFFFFFFFFFFFFFFFFF AND EQ ISZERO PUSH2 0x314F JUMPI DUP1 SWAP2 POP POP PUSH2 0x3198 JUMP JUMPDEST DUP1 DUP1 PUSH1 0x1 ADD SWAP2 POP POP PUSH2 0x30C7 JUMP JUMPDEST POP PUSH1 0x40 MLOAD PUSH32 0x8C379A000000000000000000000000000000000000000000000000000000000 DUP2 MSTORE PUSH1 0x4 ADD PUSH2 0x318F SWAP1 PUSH2 0x404C JUMP JUMPDEST PUSH1 0x40 MLOAD DUP1 SWAP2 SUB SWAP1 REVERT JUMPDEST SWAP2 SWAP1 POP JUMP JUMPDEST PUSH1 0x0 DUP1 PUSH1 0x0 SWAP1 POP JUMPDEST PUSH1 0x6 DUP1 SLOAD SWAP1 POP DUP2 LT ISZERO PUSH2 0x323A JUMPI DUP3 PUSH20 0xFFFFFFFFFFFFFFFFFFFFFFFFFFFFFFFFFFFFFFFF AND PUSH1 0x6 DUP3 DUP2 SLOAD DUP2 LT PUSH2 0x31D6 JUMPI INVALID JUMPDEST SWAP1 PUSH1 0x0 MSTORE PUSH1 0x20 PUSH1 0x0 KECCAK256 SWAP1 PUSH1 0x3 MUL ADD PUSH1 0x0 ADD PUSH1 0x0 SWAP1 SLOAD SWAP1 PUSH2 0x100 EXP SWAP1 DIV PUSH20 0xFFFFFFFFFFFFFFFFFFFFFFFFFFFFFFFFFFFFFFFF AND PUSH20 0xFFFFFFFFFFFFFFFFFFFFFFFFFFFFFFFFFFFFFFFF AND EQ ISZERO PUSH2 0x322D JUMPI DUP1 SWAP2 POP POP PUSH2 0x3276 JUMP JUMPDEST DUP1 DUP1 PUSH1 0x1 ADD SWAP2 POP POP PUSH2 0x31A5 JUMP JUMPDEST POP PUSH1 0x40 MLOAD PUSH32 0x8C379A000000000000000000000000000000000000000000000000000000000 DUP2 MSTORE PUSH1 0x4 ADD PUSH2 0x326D SWAP1 PUSH2 0x400C JUMP JUMPDEST PUSH1 0x40 MLOAD DUP1 SWAP2 SUB SWAP1 REVERT JUMPDEST SWAP2 SWAP1 POP JUMP JUMPDEST DUP3 DUP1 SLOAD PUSH1 0x1 DUP2 PUSH1 0x1 AND ISZERO PUSH2 0x100 MUL SUB AND PUSH1 0x2 SWAP1 DIV SWAP1 PUSH1 0x0 MSTORE PUSH1 0x20 PUSH1 0x0 KECCAK256 SWAP1 PUSH1 0x1F ADD PUSH1 0x20 SWAP1 DIV DUP2 ADD SWAP3 DUP3 PUSH2 0x32B1 JUMPI PUSH1 0x0 DUP6 SSTORE PUSH2 0x32F8 JUMP JUMPDEST DUP3 PUSH1 0x1F LT PUSH2 0x32CA JUMPI DUP1 MLOAD PUSH1 0xFF NOT AND DUP4 DUP1 ADD OR DUP6 SSTORE PUSH2 0x32F8 JUMP JUMPDEST DUP3 DUP1 ADD PUSH1 0x1 ADD DUP6 SSTORE DUP3 ISZERO PUSH2 0x32F8 JUMPI SWAP2 DUP3 ADD JUMPDEST DUP3 DUP2 GT ISZERO PUSH2 0x32F7 JUMPI DUP3 MLOAD DUP3 SSTORE SWAP2 PUSH1 0x20 ADD SWAP2 SWAP1 PUSH1 0x1 ADD SWAP1 PUSH2 0x32DC JUMP JUMPDEST JUMPDEST POP SWAP1 POP PUSH2 0x3305 SWAP2 SWAP1 PUSH2 0x33F4 JUMP JUMPDEST POP SWAP1 JUMP JUMPDEST PUSH1 0x40 MLOAD DUP1 PUSH1 0xC0 ADD PUSH1 0x40 MSTORE DUP1 PUSH1 0x0 PUSH20 0xFFFFFFFFFFFFFFFFFFFFFFFFFFFFFFFFFFFFFFFF AND DUP2 MSTORE PUSH1 0x20 ADD PUSH1 0x60 DUP2 MSTORE PUSH1 0x20 ADD PUSH1 0x60 DUP2 MSTORE PUSH1 0x20 ADD PUSH1 0x60 DUP2 MSTORE PUSH1 0x20 ADD PUSH1 0x0 DUP2 MSTORE PUSH1 0x20 ADD PUSH1 0x0 ISZERO ISZERO DUP2 MSTORE POP SWAP1 JUMP JUMPDEST PUSH1 0x40 MLOAD DUP1 PUSH1 0xA0 ADD PUSH1 0x40 MSTORE DUP1 PUSH1 0x0 DUP2 MSTORE PUSH1 0x20 ADD PUSH1 0x60 DUP2 MSTORE PUSH1 0x20 ADD PUSH1 0x60 DUP2 MSTORE PUSH1 0x20 ADD PUSH1 0x0 PUSH20 0xFFFFFFFFFFFFFFFFFFFFFFFFFFFFFFFFFFFFFFFF AND DUP2 MSTORE PUSH1 0x20 ADD PUSH1 0x0 ISZERO ISZERO DUP2 MSTORE POP SWAP1 JUMP JUMPDEST PUSH1 0x40 MLOAD DUP1 PUSH1 0x80 ADD PUSH1 0x40 MSTORE DUP1 PUSH1 0x0 PUSH20 0xFFFFFFFFFFFFFFFFFFFFFFFFFFFFFFFFFFFFFFFF AND DUP2 MSTORE PUSH1 0x20 ADD PUSH1 0x60 DUP2 MSTORE PUSH1 0x20 ADD PUSH1 0x0 PUSH20 0xFFFFFFFFFFFFFFFFFFFFFFFFFFFFFFFFFFFFFFFF AND DUP2 MSTORE PUSH1 0x20 ADD PUSH1 0x0 ISZERO ISZERO DUP2 MSTORE POP SWAP1 JUMP JUMPDEST JUMPDEST DUP1 DUP3 GT ISZERO PUSH2 0x340D JUMPI PUSH1 0x0 DUP2 PUSH1 0x0 SWAP1 SSTORE POP PUSH1 0x1 ADD PUSH2 0x33F5 JUMP JUMPDEST POP SWAP1 JUMP JUMPDEST PUSH1 0x0 PUSH2 0x3424 PUSH2 0x341F DUP5 PUSH2 0x41CD JUMP JUMPDEST PUSH2 0x419C JUMP JUMPDEST SWAP1 POP DUP3 DUP2 MSTORE PUSH1 0x20 DUP2 ADD DUP5 DUP5 DUP5 ADD GT ISZERO PUSH2 0x343C JUMPI PUSH1 0x0 DUP1 REVERT JUMPDEST PUSH2 0x3447 DUP5 DUP3 DUP6 PUSH2 0x4332 JUMP JUMPDEST POP SWAP4 SWAP3 POP POP POP JUMP JUMPDEST PUSH1 0x0 DUP2 CALLDATALOAD SWAP1 POP PUSH2 0x345E DUP2 PUSH2 0x4387 JUMP JUMPDEST SWAP3 SWAP2 POP POP JUMP JUMPDEST PUSH1 0x0 DUP2 CALLDATALOAD SWAP1 POP PUSH2 0x3473 DUP2 PUSH2 0x439E JUMP JUMPDEST SWAP3 SWAP2 POP POP JUMP JUMPDEST PUSH1 0x0 DUP3 PUSH1 0x1F DUP4 ADD SLT PUSH2 0x348A JUMPI PUSH1 0x0 DUP1 REVERT JUMPDEST DUP2 CALLDATALOAD PUSH2 0x349A DUP5 DUP3 PUSH1 0x20 DUP7 ADD PUSH2 0x3411 JUMP JUMPDEST SWAP2 POP POP SWAP3 SWAP2 POP POP JUMP JUMPDEST PUSH1 0x0 DUP2 CALLDATALOAD SWAP1 POP PUSH2 0x34B2 DUP2 PUSH2 0x43B5 JUMP JUMPDEST SWAP3 SWAP2 POP POP JUMP JUMPDEST PUSH1 0x0 PUSH1 0x20 DUP3 DUP5 SUB SLT ISZERO PUSH2 0x34CA JUMPI PUSH1 0x0 DUP1 REVERT JUMPDEST PUSH1 0x0 PUSH2 0x34D8 DUP5 DUP3 DUP6 ADD PUSH2 0x344F JUMP JUMPDEST SWAP2 POP POP SWAP3 SWAP2 POP POP JUMP JUMPDEST PUSH1 0x0 DUP1 PUSH1 0x0 PUSH1 0x60 DUP5 DUP7 SUB SLT ISZERO PUSH2 0x34F6 JUMPI PUSH1 0x0 DUP1 REVERT JUMPDEST PUSH1 0x0 PUSH2 0x3504 DUP7 DUP3 DUP8 ADD PUSH2 0x344F JUMP JUMPDEST SWAP4 POP POP PUSH1 0x20 DUP5 ADD CALLDATALOAD PUSH8 0xFFFFFFFFFFFFFFFF DUP2 GT ISZERO PUSH2 0x3521 JUMPI PUSH1 0x0 DUP1 REVERT JUMPDEST PUSH2 0x352D DUP7 DUP3 DUP8 ADD PUSH2 0x3479 JUMP JUMPDEST SWAP3 POP POP PUSH1 0x40 PUSH2 0x353E DUP7 DUP3 DUP8 ADD PUSH2 0x344F JUMP JUMPDEST SWAP2 POP POP SWAP3 POP SWAP3 POP SWAP3 JUMP JUMPDEST PUSH1 0x0 DUP1 PUSH1 0x0 DUP1 PUSH1 0x0 PUSH1 0xA0 DUP7 DUP9 SUB SLT ISZERO PUSH2 0x3560 JUMPI PUSH1 0x0 DUP1 REVERT JUMPDEST PUSH1 0x0 PUSH2 0x356E DUP9 DUP3 DUP10 ADD PUSH2 0x344F JUMP JUMPDEST SWAP6 POP POP PUSH1 0x20 DUP7 ADD CALLDATALOAD PUSH8 0xFFFFFFFFFFFFFFFF DUP2 GT ISZERO PUSH2 0x358B JUMPI PUSH1 0x0 DUP1 REVERT JUMPDEST PUSH2 0x3597 DUP9 DUP3 DUP10 ADD PUSH2 0x3479 JUMP JUMPDEST SWAP5 POP POP PUSH1 0x40 DUP7 ADD CALLDATALOAD PUSH8 0xFFFFFFFFFFFFFFFF DUP2 GT ISZERO PUSH2 0x35B4 JUMPI PUSH1 0x0 DUP1 REVERT JUMPDEST PUSH2 0x35C0 DUP9 DUP3 DUP10 ADD PUSH2 0x3479 JUMP JUMPDEST SWAP4 POP POP PUSH1 0x60 DUP7 ADD CALLDATALOAD PUSH8 0xFFFFFFFFFFFFFFFF DUP2 GT ISZERO PUSH2 0x35DD JUMPI PUSH1 0x0 DUP1 REVERT JUMPDEST PUSH2 0x35E9 DUP9 DUP3 DUP10 ADD PUSH2 0x3479 JUMP JUMPDEST SWAP3 POP POP PUSH1 0x80 PUSH2 0x35FA DUP9 DUP3 DUP10 ADD PUSH2 0x34A3 JUMP JUMPDEST SWAP2 POP POP SWAP3 SWAP6 POP SWAP3 SWAP6 SWAP1 SWAP4 POP JUMP JUMPDEST PUSH1 0x0 DUP1 PUSH1 0x0 DUP1 PUSH1 0x80 DUP6 DUP8 SUB SLT ISZERO PUSH2 0x361D JUMPI PUSH1 0x0 DUP1 REVERT JUMPDEST PUSH1 0x0 DUP6 ADD CALLDATALOAD PUSH8 0xFFFFFFFFFFFFFFFF DUP2 GT ISZERO PUSH2 0x3637 JUMPI PUSH1 0x0 DUP1 REVERT JUMPDEST PUSH2 0x3643 DUP8 DUP3 DUP9 ADD PUSH2 0x3479 JUMP JUMPDEST SWAP5 POP POP PUSH1 0x20 DUP6 ADD CALLDATALOAD PUSH8 0xFFFFFFFFFFFFFFFF DUP2 GT ISZERO PUSH2 0x3660 JUMPI PUSH1 0x0 DUP1 REVERT JUMPDEST PUSH2 0x366C DUP8 DUP3 DUP9 ADD PUSH2 0x3479 JUMP JUMPDEST SWAP4 POP POP PUSH1 0x40 PUSH2 0x367D DUP8 DUP3 DUP9 ADD PUSH2 0x344F JUMP JUMPDEST SWAP3 POP POP PUSH1 0x60 PUSH2 0x368E DUP8 DUP3 DUP9 ADD PUSH2 0x3464 JUMP JUMPDEST SWAP2 POP POP SWAP3 SWAP6 SWAP2 SWAP5 POP SWAP3 POP JUMP JUMPDEST PUSH1 0x0 PUSH1 0x20 DUP3 DUP5 SUB SLT ISZERO PUSH2 0x36AC JUMPI PUSH1 0x0 DUP1 REVERT JUMPDEST PUSH1 0x0 PUSH2 0x36BA DUP5 DUP3 DUP6 ADD PUSH2 0x34A3 JUMP JUMPDEST SWAP2 POP POP SWAP3 SWAP2 POP POP JUMP JUMPDEST PUSH1 0x0 DUP1 PUSH1 0x0 DUP1 PUSH1 0x80 DUP6 DUP8 SUB SLT ISZERO PUSH2 0x36D9 JUMPI PUSH1 0x0 DUP1 REVERT JUMPDEST PUSH1 0x0 PUSH2 0x36E7 DUP8 DUP3 DUP9 ADD PUSH2 0x34A3 JUMP JUMPDEST SWAP5 POP POP PUSH1 0x20 DUP6 ADD CALLDATALOAD PUSH8 0xFFFFFFFFFFFFFFFF DUP2 GT ISZERO PUSH2 0x3704 JUMPI PUSH1 0x0 DUP1 REVERT JUMPDEST PUSH2 0x3710 DUP8 DUP3 DUP9 ADD PUSH2 0x3479 JUMP JUMPDEST SWAP4 POP POP PUSH1 0x40 DUP6 ADD CALLDATALOAD PUSH8 0xFFFFFFFFFFFFFFFF DUP2 GT ISZERO PUSH2 0x372D JUMPI PUSH1 0x0 DUP1 REVERT JUMPDEST PUSH2 0x3739 DUP8 DUP3 DUP9 ADD PUSH2 0x3479 JUMP JUMPDEST SWAP3 POP POP PUSH1 0x60 PUSH2 0x374A DUP8 DUP3 DUP9 ADD PUSH2 0x344F JUMP JUMPDEST SWAP2 POP POP SWAP3 SWAP6 SWAP2 SWAP5 POP SWAP3 POP JUMP JUMPDEST PUSH1 0x0 PUSH2 0x3762 DUP4 DUP4 PUSH2 0x3AEE JUMP JUMPDEST SWAP1 POP SWAP3 SWAP2 POP POP JUMP JUMPDEST PUSH1 0x0 PUSH2 0x3776 DUP4 DUP4 PUSH2 0x3B51 JUMP JUMPDEST SWAP1 POP SWAP3 SWAP2 POP POP JUMP JUMPDEST PUSH1 0x0 PUSH2 0x378A DUP4 DUP4 PUSH2 0x3BE8 JUMP JUMPDEST SWAP1 POP SWAP3 SWAP2 POP POP JUMP JUMPDEST PUSH2 0x379B DUP2 PUSH2 0x42EA JUMP JUMPDEST DUP3 MSTORE POP POP JUMP JUMPDEST PUSH2 0x37AA DUP2 PUSH2 0x42EA JUMP JUMPDEST DUP3 MSTORE POP POP JUMP JUMPDEST PUSH1 0x0 PUSH2 0x37BB DUP3 PUSH2 0x4242 JUMP JUMPDEST PUSH2 0x37C5 DUP2 DUP6 PUSH2 0x4295 JUMP JUMPDEST SWAP4 POP DUP4 PUSH1 0x20 DUP3 MUL DUP6 ADD PUSH2 0x37D7 DUP6 PUSH2 0x41FD JUMP JUMPDEST DUP1 PUSH1 0x0 JUMPDEST DUP6 DUP2 LT ISZERO PUSH2 0x3813 JUMPI DUP5 DUP5 SUB DUP10 MSTORE DUP2 MLOAD PUSH2 0x37F4 DUP6 DUP3 PUSH2 0x3756 JUMP JUMPDEST SWAP5 POP PUSH2 0x37FF DUP4 PUSH2 0x426E JUMP JUMPDEST SWAP3 POP PUSH1 0x20 DUP11 ADD SWAP10 POP POP PUSH1 0x1 DUP2 ADD SWAP1 POP PUSH2 0x37DB JUMP JUMPDEST POP DUP3 SWAP8 POP DUP8 SWAP6 POP POP POP POP POP POP SWAP3 SWAP2 POP POP JUMP JUMPDEST PUSH1 0x0 PUSH2 0x3830 DUP3 PUSH2 0x424D JUMP JUMPDEST PUSH2 0x383A DUP2 DUP6 PUSH2 0x42A6 JUMP JUMPDEST SWAP4 POP DUP4 PUSH1 0x20 DUP3 MUL DUP6 ADD PUSH2 0x384C DUP6 PUSH2 0x420D JUMP JUMPDEST DUP1 PUSH1 0x0 JUMPDEST DUP6 DUP2 LT ISZERO PUSH2 0x3888 JUMPI DUP5 DUP5 SUB DUP10 MSTORE DUP2 MLOAD PUSH2 0x3869 DUP6 DUP3 PUSH2 0x376A JUMP JUMPDEST SWAP5 POP PUSH2 0x3874 DUP4 PUSH2 0x427B JUMP JUMPDEST SWAP3 POP PUSH1 0x20 DUP11 ADD SWAP10 POP POP PUSH1 0x1 DUP2 ADD SWAP1 POP PUSH2 0x3850 JUMP JUMPDEST POP DUP3 SWAP8 POP DUP8 SWAP6 POP POP POP POP POP POP SWAP3 SWAP2 POP POP JUMP JUMPDEST PUSH1 0x0 PUSH2 0x38A5 DUP3 PUSH2 0x4258 JUMP JUMPDEST PUSH2 0x38AF DUP2 DUP6 PUSH2 0x42B7 JUMP JUMPDEST SWAP4 POP DUP4 PUSH1 0x20 DUP3 MUL DUP6 ADD PUSH2 0x38C1 DUP6 PUSH2 0x421D JUMP JUMPDEST DUP1 PUSH1 0x0 JUMPDEST DUP6 DUP2 LT ISZERO PUSH2 0x38FD JUMPI DUP5 DUP5 SUB DUP10 MSTORE DUP2 MLOAD PUSH2 0x38DE DUP6 DUP3 PUSH2 0x377E JUMP JUMPDEST SWAP5 POP PUSH2 0x38E9 DUP4 PUSH2 0x4288 JUMP JUMPDEST SWAP3 POP PUSH1 0x20 DUP11 ADD SWAP10 POP POP PUSH1 0x1 DUP2 ADD SWAP1 POP PUSH2 0x38C5 JUMP JUMPDEST POP DUP3 SWAP8 POP DUP8 SWAP6 POP POP POP POP POP POP SWAP3 SWAP2 POP POP JUMP JUMPDEST PUSH2 0x3918 DUP2 PUSH2 0x42FC JUMP JUMPDEST DUP3 MSTORE POP POP JUMP JUMPDEST PUSH2 0x3927 DUP2 PUSH2 0x42FC JUMP JUMPDEST DUP3 MSTORE POP POP JUMP JUMPDEST PUSH1 0x0 PUSH2 0x3938 DUP3 PUSH2 0x4263 JUMP JUMPDEST PUSH2 0x3942 DUP2 DUP6 PUSH2 0x42C8 JUMP JUMPDEST SWAP4 POP PUSH2 0x3952 DUP2 DUP6 PUSH1 0x20 DUP7 ADD PUSH2 0x4341 JUMP JUMPDEST PUSH2 0x395B DUP2 PUSH2 0x4376 JUMP JUMPDEST DUP5 ADD SWAP2 POP POP SWAP3 SWAP2 POP POP JUMP JUMPDEST PUSH1 0x0 PUSH2 0x3971 DUP3 PUSH2 0x4263 JUMP JUMPDEST PUSH2 0x397B DUP2 DUP6 PUSH2 0x42D9 JUMP JUMPDEST SWAP4 POP PUSH2 0x398B DUP2 DUP6 PUSH1 0x20 DUP7 ADD PUSH2 0x4341 JUMP JUMPDEST PUSH2 0x3994 DUP2 PUSH2 0x4376 JUMP JUMPDEST DUP5 ADD SWAP2 POP POP SWAP3 SWAP2 POP POP JUMP JUMPDEST PUSH1 0x0 DUP2 SLOAD PUSH1 0x1 DUP2 AND PUSH1 0x0 DUP2 EQ PUSH2 0x39BC JUMPI PUSH1 0x1 DUP2 EQ PUSH2 0x39E2 JUMPI PUSH2 0x3A26 JUMP JUMPDEST PUSH1 0x7F PUSH1 0x2 DUP4 DIV AND PUSH2 0x39CD DUP2 DUP8 PUSH2 0x42D9 JUMP JUMPDEST SWAP6 POP PUSH1 0xFF NOT DUP4 AND DUP7 MSTORE PUSH1 0x20 DUP7 ADD SWAP4 POP POP PUSH2 0x3A26 JUMP JUMPDEST PUSH1 0x2 DUP3 DIV PUSH2 0x39F0 DUP2 DUP8 PUSH2 0x42D9 JUMP JUMPDEST SWAP6 POP PUSH2 0x39FB DUP6 PUSH2 0x422D JUMP JUMPDEST PUSH1 0x0 JUMPDEST DUP3 DUP2 LT ISZERO PUSH2 0x3A1D JUMPI DUP2 SLOAD DUP2 DUP10 ADD MSTORE PUSH1 0x1 DUP3 ADD SWAP2 POP PUSH1 0x20 DUP2 ADD SWAP1 POP PUSH2 0x39FE JUMP JUMPDEST DUP1 DUP9 ADD SWAP6 POP POP POP POP JUMPDEST POP POP SWAP3 SWAP2 POP POP JUMP JUMPDEST PUSH1 0x0 PUSH2 0x3A3B PUSH1 0x10 DUP4 PUSH2 0x42D9 JUMP JUMPDEST SWAP2 POP PUSH32 0x446F63746F72206E6F7420666F756E6400000000000000000000000000000000 PUSH1 0x0 DUP4 ADD MSTORE PUSH1 0x20 DUP3 ADD SWAP1 POP SWAP2 SWAP1 POP JUMP JUMPDEST PUSH1 0x0 PUSH2 0x3A7B PUSH1 0x10 DUP4 PUSH2 0x42D9 JUMP JUMPDEST SWAP2 POP PUSH32 0x53656E736F72206E6F7420666F756E6400000000000000000000000000000000 PUSH1 0x0 DUP4 ADD MSTORE PUSH1 0x20 DUP3 ADD SWAP1 POP SWAP2 SWAP1 POP JUMP JUMPDEST PUSH1 0x0 PUSH2 0x3ABB PUSH1 0x12 DUP4 PUSH2 0x42D9 JUMP JUMPDEST SWAP2 POP PUSH32 0x486F73706974616C206E6F7420666F756E640000000000000000000000000000 PUSH1 0x0 DUP4 ADD MSTORE PUSH1 0x20 DUP3 ADD SWAP1 POP SWAP2 SWAP1 POP JUMP JUMPDEST PUSH1 0x0 PUSH1 0x80 DUP4 ADD PUSH1 0x0 DUP4 ADD MLOAD PUSH2 0x3B06 PUSH1 0x0 DUP7 ADD DUP3 PUSH2 0x3792 JUMP JUMPDEST POP PUSH1 0x20 DUP4 ADD MLOAD DUP5 DUP3 SUB PUSH1 0x20 DUP7 ADD MSTORE PUSH2 0x3B1E DUP3 DUP3 PUSH2 0x392D JUMP JUMPDEST SWAP2 POP POP PUSH1 0x40 DUP4 ADD MLOAD PUSH2 0x3B33 PUSH1 0x40 DUP7 ADD DUP3 PUSH2 0x3792 JUMP JUMPDEST POP PUSH1 0x60 DUP4 ADD MLOAD PUSH2 0x3B46 PUSH1 0x60 DUP7 ADD DUP3 PUSH2 0x390F JUMP JUMPDEST POP DUP1 SWAP2 POP POP SWAP3 SWAP2 POP POP JUMP JUMPDEST PUSH1 0x0 PUSH1 0xC0 DUP4 ADD PUSH1 0x0 DUP4 ADD MLOAD PUSH2 0x3B69 PUSH1 0x0 DUP7 ADD DUP3 PUSH2 0x3792 JUMP JUMPDEST POP PUSH1 0x20 DUP4 ADD MLOAD DUP5 DUP3 SUB PUSH1 0x20 DUP7 ADD MSTORE PUSH2 0x3B81 DUP3 DUP3 PUSH2 0x392D JUMP JUMPDEST SWAP2 POP POP PUSH1 0x40 DUP4 ADD MLOAD DUP5 DUP3 SUB PUSH1 0x40 DUP7 ADD MSTORE PUSH2 0x3B9B DUP3 DUP3 PUSH2 0x392D JUMP JUMPDEST SWAP2 POP POP PUSH1 0x60 DUP4 ADD MLOAD DUP5 DUP3 SUB PUSH1 0x60 DUP7 ADD MSTORE PUSH2 0x3BB5 DUP3 DUP3 PUSH2 0x392D JUMP JUMPDEST SWAP2 POP POP PUSH1 0x80 DUP4 ADD MLOAD PUSH2 0x3BCA PUSH1 0x80 DUP7 ADD DUP3 PUSH2 0x3C65 JUMP JUMPDEST POP PUSH1 0xA0 DUP4 ADD MLOAD PUSH2 0x3BDD PUSH1 0xA0 DUP7 ADD DUP3 PUSH2 0x390F JUMP JUMPDEST POP DUP1 SWAP2 POP POP SWAP3 SWAP2 POP POP JUMP JUMPDEST PUSH1 0x0 PUSH1 0xA0 DUP4 ADD PUSH1 0x0 DUP4 ADD MLOAD PUSH2 0x3C00 PUSH1 0x0 DUP7 ADD DUP3 PUSH2 0x3C65 JUMP JUMPDEST POP PUSH1 0x20 DUP4 ADD MLOAD DUP5 DUP3 SUB PUSH1 0x20 DUP7 ADD MSTORE PUSH2 0x3C18 DUP3 DUP3 PUSH2 0x392D JUMP JUMPDEST SWAP2 POP POP PUSH1 0x40 DUP4 ADD MLOAD DUP5 DUP3 SUB PUSH1 0x40 DUP7 ADD MSTORE PUSH2 0x3C32 DUP3 DUP3 PUSH2 0x392D JUMP JUMPDEST SWAP2 POP POP PUSH1 0x60 DUP4 ADD MLOAD PUSH2 0x3C47 PUSH1 0x60 DUP7 ADD DUP3 PUSH2 0x3792 JUMP JUMPDEST POP PUSH1 0x80 DUP4 ADD MLOAD PUSH2 0x3C5A PUSH1 0x80 DUP7 ADD DUP3 PUSH2 0x390F JUMP JUMPDEST POP DUP1 SWAP2 POP POP SWAP3 SWAP2 POP POP JUMP JUMPDEST PUSH2 0x3C6E DUP2 PUSH2 0x4328 JUMP JUMPDEST DUP3 MSTORE POP POP JUMP JUMPDEST PUSH2 0x3C7D DUP2 PUSH2 0x4328 JUMP JUMPDEST DUP3 MSTORE POP POP JUMP JUMPDEST PUSH1 0x0 PUSH1 0x80 DUP3 ADD SWAP1 POP PUSH2 0x3C98 PUSH1 0x0 DUP4 ADD DUP8 PUSH2 0x37A1 JUMP JUMPDEST DUP2 DUP2 SUB PUSH1 0x20 DUP4 ADD MSTORE PUSH2 0x3CAA DUP2 DUP7 PUSH2 0x3966 JUMP JUMPDEST SWAP1 POP PUSH2 0x3CB9 PUSH1 0x40 DUP4 ADD DUP6 PUSH2 0x37A1 JUMP JUMPDEST PUSH2 0x3CC6 PUSH1 0x60 DUP4 ADD DUP5 PUSH2 0x391E JUMP JUMPDEST SWAP6 SWAP5 POP POP POP POP POP JUMP JUMPDEST PUSH1 0x0 PUSH1 0xC0 DUP3 ADD SWAP1 POP PUSH2 0x3CE4 PUSH1 0x0 DUP4 ADD DUP10 PUSH2 0x37A1 JUMP JUMPDEST DUP2 DUP2 SUB PUSH1 0x20 DUP4 ADD MSTORE PUSH2 0x3CF6 DUP2 DUP9 PUSH2 0x3966 JUMP JUMPDEST SWAP1 POP DUP2 DUP2 SUB PUSH1 0x40 DUP4 ADD MSTORE PUSH2 0x3D0A DUP2 DUP8 PUSH2 0x3966 JUMP JUMPDEST SWAP1 POP DUP2 DUP2 SUB PUSH1 0x60 DUP4 ADD MSTORE PUSH2 0x3D1E DUP2 DUP7 PUSH2 0x3966 JUMP JUMPDEST SWAP1 POP PUSH2 0x3D2D PUSH1 0x80 DUP4 ADD DUP6 PUSH2 0x3C74 JUMP JUMPDEST PUSH2 0x3D3A PUSH1 0xA0 DUP4 ADD DUP5 PUSH2 0x391E JUMP JUMPDEST SWAP8 SWAP7 POP POP POP POP POP POP POP JUMP JUMPDEST PUSH1 0x0 PUSH1 0x60 DUP3 ADD SWAP1 POP PUSH2 0x3D5A PUSH1 0x0 DUP4 ADD DUP7 PUSH2 0x37A1 JUMP JUMPDEST DUP2 DUP2 SUB PUSH1 0x20 DUP4 ADD MSTORE PUSH2 0x3D6C DUP2 DUP6 PUSH2 0x399F JUMP JUMPDEST SWAP1 POP PUSH2 0x3D7B PUSH1 0x40 DUP4 ADD DUP5 PUSH2 0x37A1 JUMP JUMPDEST SWAP5 SWAP4 POP POP POP POP JUMP JUMPDEST PUSH1 0x0 PUSH1 0x80 DUP3 ADD SWAP1 POP PUSH2 0x3D98 PUSH1 0x0 DUP4 ADD DUP8 PUSH2 0x37A1 JUMP JUMPDEST DUP2 DUP2 SUB PUSH1 0x20 DUP4 ADD MSTORE PUSH2 0x3DAA DUP2 DUP7 PUSH2 0x399F JUMP JUMPDEST SWAP1 POP PUSH2 0x3DB9 PUSH1 0x40 DUP4 ADD DUP6 PUSH2 0x37A1 JUMP JUMPDEST PUSH2 0x3DC6 PUSH1 0x60 DUP4 ADD DUP5 PUSH2 0x391E JUMP JUMPDEST SWAP6 SWAP5 POP POP POP POP POP JUMP JUMPDEST PUSH1 0x0 PUSH1 0xA0 DUP3 ADD SWAP1 POP PUSH2 0x3DE4 PUSH1 0x0 DUP4 ADD DUP9 PUSH2 0x37A1 JUMP JUMPDEST DUP2 DUP2 SUB PUSH1 0x20 DUP4 ADD MSTORE PUSH2 0x3DF6 DUP2 DUP8 PUSH2 0x399F JUMP JUMPDEST SWAP1 POP DUP2 DUP2 SUB PUSH1 0x40 DUP4 ADD MSTORE PUSH2 0x3E0A DUP2 DUP7 PUSH2 0x399F JUMP JUMPDEST SWAP1 POP DUP2 DUP2 SUB PUSH1 0x60 DUP4 ADD MSTORE PUSH2 0x3E1E DUP2 DUP6 PUSH2 0x399F JUMP JUMPDEST SWAP1 POP PUSH2 0x3E2D PUSH1 0x80 DUP4 ADD DUP5 PUSH2 0x3C74 JUMP JUMPDEST SWAP7 SWAP6 POP POP POP POP POP POP JUMP JUMPDEST PUSH1 0x0 PUSH1 0xC0 DUP3 ADD SWAP1 POP PUSH2 0x3E4C PUSH1 0x0 DUP4 ADD DUP10 PUSH2 0x37A1 JUMP JUMPDEST DUP2 DUP2 SUB PUSH1 0x20 DUP4 ADD MSTORE PUSH2 0x3E5E DUP2 DUP9 PUSH2 0x399F JUMP JUMPDEST SWAP1 POP DUP2 DUP2 SUB PUSH1 0x40 DUP4 ADD MSTORE PUSH2 0x3E72 DUP2 DUP8 PUSH2 0x399F JUMP JUMPDEST SWAP1 POP DUP2 DUP2 SUB PUSH1 0x60 DUP4 ADD MSTORE PUSH2 0x3E86 DUP2 DUP7 PUSH2 0x399F JUMP JUMPDEST SWAP1 POP PUSH2 0x3E95 PUSH1 0x80 DUP4 ADD DUP6 PUSH2 0x3C74 JUMP JUMPDEST PUSH2 0x3EA2 PUSH1 0xA0 DUP4 ADD DUP5 PUSH2 0x391E JUMP JUMPDEST SWAP8 SWAP7 POP POP POP POP POP POP POP JUMP JUMPDEST PUSH1 0x0 PUSH1 0x20 DUP3 ADD SWAP1 POP DUP2 DUP2 SUB PUSH1 0x0 DUP4 ADD MSTORE PUSH2 0x3EC7 DUP2 DUP5 PUSH2 0x37B0 JUMP JUMPDEST SWAP1 POP SWAP3 SWAP2 POP POP JUMP JUMPDEST PUSH1 0x0 PUSH1 0x20 DUP3 ADD SWAP1 POP DUP2 DUP2 SUB PUSH1 0x0 DUP4 ADD MSTORE PUSH2 0x3EE9 DUP2 DUP5 PUSH2 0x3825 JUMP JUMPDEST SWAP1 POP SWAP3 SWAP2 POP POP JUMP JUMPDEST PUSH1 0x0 PUSH1 0x20 DUP3 ADD SWAP1 POP DUP2 DUP2 SUB PUSH1 0x0 DUP4 ADD MSTORE PUSH2 0x3F0B DUP2 DUP5 PUSH2 0x389A JUMP JUMPDEST SWAP1 POP SWAP3 SWAP2 POP POP JUMP JUMPDEST PUSH1 0x0 PUSH1 0x60 DUP3 ADD SWAP1 POP DUP2 DUP2 SUB PUSH1 0x0 DUP4 ADD MSTORE PUSH2 0x3F2D DUP2 DUP7 PUSH2 0x3966 JUMP JUMPDEST SWAP1 POP PUSH2 0x3F3C PUSH1 0x20 DUP4 ADD DUP6 PUSH2 0x37A1 JUMP JUMPDEST PUSH2 0x3F49 PUSH1 0x40 DUP4 ADD DUP5 PUSH2 0x391E JUMP JUMPDEST SWAP5 SWAP4 POP POP POP POP JUMP JUMPDEST PUSH1 0x0 PUSH1 0x80 DUP3 ADD SWAP1 POP DUP2 DUP2 SUB PUSH1 0x0 DUP4 ADD MSTORE PUSH2 0x3F6B DUP2 DUP8 PUSH2 0x3966 JUMP JUMPDEST SWAP1 POP DUP2 DUP2 SUB PUSH1 0x20 DUP4 ADD MSTORE PUSH2 0x3F7F DUP2 DUP7 PUSH2 0x3966 JUMP JUMPDEST SWAP1 POP PUSH2 0x3F8E PUSH1 0x40 DUP4 ADD DUP6 PUSH2 0x37A1 JUMP JUMPDEST PUSH2 0x3F9B PUSH1 0x60 DUP4 ADD DUP5 PUSH2 0x391E JUMP JUMPDEST SWAP6 SWAP5 POP POP POP POP POP JUMP JUMPDEST PUSH1 0x0 PUSH1 0xA0 DUP3 ADD SWAP1 POP DUP2 DUP2 SUB PUSH1 0x0 DUP4 ADD MSTORE PUSH2 0x3FBE DUP2 DUP9 PUSH2 0x3966 JUMP JUMPDEST SWAP1 POP DUP2 DUP2 SUB PUSH1 0x20 DUP4 ADD MSTORE PUSH2 0x3FD2 DUP2 DUP8 PUSH2 0x3966 JUMP JUMPDEST SWAP1 POP DUP2 DUP2 SUB PUSH1 0x40 DUP4 ADD MSTORE PUSH2 0x3FE6 DUP2 DUP7 PUSH2 0x3966 JUMP JUMPDEST SWAP1 POP PUSH2 0x3FF5 PUSH1 0x60 DUP4 ADD DUP6 PUSH2 0x3C74 JUMP JUMPDEST PUSH2 0x4002 PUSH1 0x80 DUP4 ADD DUP5 PUSH2 0x391E JUMP JUMPDEST SWAP7 SWAP6 POP POP POP POP POP POP JUMP JUMPDEST PUSH1 0x0 PUSH1 0x20 DUP3 ADD SWAP1 POP DUP2 DUP2 SUB PUSH1 0x0 DUP4 ADD MSTORE PUSH2 0x4025 DUP2 PUSH2 0x3A2E JUMP JUMPDEST SWAP1 POP SWAP2 SWAP1 POP JUMP JUMPDEST PUSH1 0x0 PUSH1 0x20 DUP3 ADD SWAP1 POP DUP2 DUP2 SUB PUSH1 0x0 DUP4 ADD MSTORE PUSH2 0x4045 DUP2 PUSH2 0x3A6E JUMP JUMPDEST SWAP1 POP SWAP2 SWAP1 POP JUMP JUMPDEST PUSH1 0x0 PUSH1 0x20 DUP3 ADD SWAP1 POP DUP2 DUP2 SUB PUSH1 0x0 DUP4 ADD MSTORE PUSH2 0x4065 DUP2 PUSH2 0x3AAE JUMP JUMPDEST SWAP1 POP SWAP2 SWAP1 POP JUMP JUMPDEST PUSH1 0x0 PUSH1 0x20 DUP3 ADD SWAP1 POP PUSH2 0x4081 PUSH1 0x0 DUP4 ADD DUP5 PUSH2 0x3C74 JUMP JUMPDEST SWAP3 SWAP2 POP POP JUMP JUMPDEST PUSH1 0x0 PUSH1 0xA0 DUP3 ADD SWAP1 POP PUSH2 0x409C PUSH1 0x0 DUP4 ADD DUP9 PUSH2 0x3C74 JUMP JUMPDEST DUP2 DUP2 SUB PUSH1 0x20 DUP4 ADD MSTORE PUSH2 0x40AE DUP2 DUP8 PUSH2 0x3966 JUMP JUMPDEST SWAP1 POP DUP2 DUP2 SUB PUSH1 0x40 DUP4 ADD MSTORE PUSH2 0x40C2 DUP2 DUP7 PUSH2 0x3966 JUMP JUMPDEST SWAP1 POP PUSH2 0x40D1 PUSH1 0x60 DUP4 ADD DUP6 PUSH2 0x37A1 JUMP JUMPDEST PUSH2 0x40DE PUSH1 0x80 DUP4 ADD DUP5 PUSH2 0x391E JUMP JUMPDEST SWAP7 SWAP6 POP POP POP POP POP POP JUMP JUMPDEST PUSH1 0x0 PUSH1 0x80 DUP3 ADD SWAP1 POP PUSH2 0x40FD PUSH1 0x0 DUP4 ADD DUP8 PUSH2 0x3C74 JUMP JUMPDEST DUP2 DUP2 SUB PUSH1 0x20 DUP4 ADD MSTORE PUSH2 0x410F DUP2 DUP7 PUSH2 0x399F JUMP JUMPDEST SWAP1 POP DUP2 DUP2 SUB PUSH1 0x40 DUP4 ADD MSTORE PUSH2 0x4123 DUP2 DUP6 PUSH2 0x399F JUMP JUMPDEST SWAP1 POP PUSH2 0x4132 PUSH1 0x60 DUP4 ADD DUP5 PUSH2 0x37A1 JUMP JUMPDEST SWAP6 SWAP5 POP POP POP POP POP JUMP JUMPDEST PUSH1 0x0 PUSH1 0xA0 DUP3 ADD SWAP1 POP PUSH2 0x4150 PUSH1 0x0 DUP4 ADD DUP9 PUSH2 0x3C74 JUMP JUMPDEST DUP2 DUP2 SUB PUSH1 0x20 DUP4 ADD MSTORE PUSH2 0x4162 DUP2 DUP8 PUSH2 0x399F JUMP JUMPDEST SWAP1 POP DUP2 DUP2 SUB PUSH1 0x40 DUP4 ADD MSTORE PUSH2 0x4176 DUP2 DUP7 PUSH2 0x399F JUMP JUMPDEST SWAP1 POP PUSH2 0x4185 PUSH1 0x60 DUP4 ADD DUP6 PUSH2 0x37A1 JUMP JUMPDEST PUSH2 0x4192 PUSH1 0x80 DUP4 ADD DUP5 PUSH2 0x391E JUMP JUMPDEST SWAP7 SWAP6 POP POP POP POP POP POP JUMP JUMPDEST PUSH1 0x0 PUSH1 0x40 MLOAD SWAP1 POP DUP2 DUP2 ADD DUP2 DUP2 LT PUSH8 0xFFFFFFFFFFFFFFFF DUP3 GT OR ISZERO PUSH2 0x41C3 JUMPI PUSH2 0x41C2 PUSH2 0x4374 JUMP JUMPDEST JUMPDEST DUP1 PUSH1 0x40 MSTORE POP SWAP2 SWAP1 POP JUMP JUMPDEST PUSH1 0x0 PUSH8 0xFFFFFFFFFFFFFFFF DUP3 GT ISZERO PUSH2 0x41E8 JUMPI PUSH2 0x41E7 PUSH2 0x4374 JUMP JUMPDEST JUMPDEST PUSH1 0x1F NOT PUSH1 0x1F DUP4 ADD AND SWAP1 POP PUSH1 0x20 DUP2 ADD SWAP1 POP SWAP2 SWAP1 POP JUMP JUMPDEST PUSH1 0x0 DUP2 SWAP1 POP PUSH1 0x20 DUP3 ADD SWAP1 POP SWAP2 SWAP1 POP JUMP JUMPDEST PUSH1 0x0 DUP2 SWAP1 POP PUSH1 0x20 DUP3 ADD SWAP1 POP SWAP2 SWAP1 POP JUMP JUMPDEST PUSH1 0x0 DUP2 SWAP1 POP PUSH1 0x20 DUP3 ADD SWAP1 POP SWAP2 SWAP1 POP JUMP JUMPDEST PUSH1 0x0 DUP2 SWAP1 POP DUP2 PUSH1 0x0 MSTORE PUSH1 0x20 PUSH1 0x0 KECCAK256 SWAP1 POP SWAP2 SWAP1 POP JUMP JUMPDEST PUSH1 0x0 DUP2 MLOAD SWAP1 POP SWAP2 SWAP1 POP JUMP JUMPDEST PUSH1 0x0 DUP2 MLOAD SWAP1 POP SWAP2 SWAP1 POP JUMP JUMPDEST PUSH1 0x0 DUP2 MLOAD SWAP1 POP SWAP2 SWAP1 POP JUMP JUMPDEST PUSH1 0x0 DUP2 MLOAD SWAP1 POP SWAP2 SWAP1 POP JUMP JUMPDEST PUSH1 0x0 PUSH1 0x20 DUP3 ADD SWAP1 POP SWAP2 SWAP1 POP JUMP JUMPDEST PUSH1 0x0 PUSH1 0x20 DUP3 ADD SWAP1 POP SWAP2 SWAP1 POP JUMP JUMPDEST PUSH1 0x0 PUSH1 0x20 DUP3 ADD SWAP1 POP SWAP2 SWAP1 POP JUMP JUMPDEST PUSH1 0x0 DUP3 DUP3 MSTORE PUSH1 0x20 DUP3 ADD SWAP1 POP SWAP3 SWAP2 POP POP JUMP JUMPDEST PUSH1 0x0 DUP3 DUP3 MSTORE PUSH1 0x20 DUP3 ADD SWAP1 POP SWAP3 SWAP2 POP POP JUMP JUMPDEST PUSH1 0x0 DUP3 DUP3 MSTORE PUSH1 0x20 DUP3 ADD SWAP1 POP SWAP3 SWAP2 POP POP JUMP JUMPDEST PUSH1 0x0 DUP3 DUP3 MSTORE PUSH1 0x20 DUP3 ADD SWAP1 POP SWAP3 SWAP2 POP POP JUMP JUMPDEST PUSH1 0x0 DUP3 DUP3 MSTORE PUSH1 0x20 DUP3 ADD SWAP1 POP SWAP3 SWAP2 POP POP JUMP JUMPDEST PUSH1 0x0 PUSH2 0x42F5 DUP3 PUSH2 0x4308 JUMP JUMPDEST SWAP1 POP SWAP2 SWAP1 POP JUMP JUMPDEST PUSH1 0x0 DUP2 ISZERO ISZERO SWAP1 POP SWAP2 SWAP1 POP JUMP JUMPDEST PUSH1 0x0 PUSH20 0xFFFFFFFFFFFFFFFFFFFFFFFFFFFFFFFFFFFFFFFF DUP3 AND SWAP1 POP SWAP2 SWAP1 POP JUMP JUMPDEST PUSH1 0x0 DUP2 SWAP1 POP SWAP2 SWAP1 POP JUMP JUMPDEST DUP3 DUP2 DUP4 CALLDATACOPY PUSH1 0x0 DUP4 DUP4 ADD MSTORE POP POP POP JUMP JUMPDEST PUSH1 0x0 JUMPDEST DUP4 DUP2 LT ISZERO PUSH2 0x435F JUMPI DUP1 DUP3 ADD MLOAD DUP2 DUP5 ADD MSTORE PUSH1 0x20 DUP2 ADD SWAP1 POP PUSH2 0x4344 JUMP JUMPDEST DUP4 DUP2 GT ISZERO PUSH2 0x436E JUMPI PUSH1 0x0 DUP5 DUP5 ADD MSTORE JUMPDEST POP POP POP POP JUMP JUMPDEST INVALID JUMPDEST PUSH1 0x0 PUSH1 0x1F NOT PUSH1 0x1F DUP4 ADD AND SWAP1 POP SWAP2 SWAP1 POP JUMP JUMPDEST PUSH2 0x4390 DUP2 PUSH2 0x42EA JUMP JUMPDEST DUP2 EQ PUSH2 0x439B JUMPI PUSH1 0x0 DUP1 REVERT JUMPDEST POP JUMP JUMPDEST PUSH2 0x43A7 DUP2 PUSH2 0x42FC JUMP JUMPDEST DUP2 EQ PUSH2 0x43B2 JUMPI PUSH1 0x0 DUP1 REVERT JUMPDEST POP JUMP JUMPDEST PUSH2 0x43BE DUP2 PUSH2 0x4328 JUMP JUMPDEST DUP2 EQ PUSH2 0x43C9 JUMPI PUSH1 0x0 DUP1 REVERT JUMPDEST POP JUMP INVALID LOG2 PUSH5 0x6970667358 0x22 SLT KECCAK256 0x25 0xE7 BALANCE SWAP7 PUSH1 0xAE XOR 0x1E CREATE 0xEE SWAP9 0xE9 AND REVERT MUL 0xC1 0xDA SWAP14 SSTORE LOG2 0xCB 0xD7 0x4A SWAP7 EXTCODEHASH MSIZE 0x1F LOG3 0xF9 EXTCODEHASH SWAP11 0x49 PUSH5 0x736F6C6343 STOP SMOD MOD STOP CALLER "
    },
    "gasEstimates": {
      "creation": {
        "codeDepositCost": "3482000",
        "executionCost": "24768",
        "totalCost": "3506768"
      },
      "external": {
        "AddDoctor(address,string,address)": "infinite",
        "AddHospital(address,string,string,string,uint256)": "infinite",
        "AddSensor(string,string,address,bool)": "infinite",
        "Doctors(address)": "infinite",
        "Hospitals(address)": "infinite",
        "Length_Doctors()": "1235",
        "Length_Hospitals()": "1234",
        "Length_sensors()": "1190",
        "ReadDoctor(address)": "infinite",
        "ReadHospital(address)": "infinite",
        "ReadSensor(uint256)": "infinite",
        "RemoveDoctor(address)": "infinite",
        "RemoveHospital(address)": "infinite",
        "RemoveSensor(uint256)": "infinite",
        "Sensors(address)": "infinite",
        "UpdateDoctor(address,string,address)": "infinite",
        "UpdateHospital(address,string,string,string,uint256)": "infinite",
        "UpdateSensor(uint256,string,string,address)": "infinite",
        "doctorsHospital(uint256)": "infinite",
        "getAllDoctors()": "infinite",
        "getAllDoctorsInHospital(address)": "infinite",
        "getAllHospitals()": "infinite",
        "getAllSensorOfDoctor(address)": "infinite",
        "getAllSensors()": "infinite",
        "hospitalCenters(uint256)": "infinite",
        "sensorsDoctor(uint256)": "infinite"
      },
      "internal": {
        "FindDoctor(address)": "infinite",
        "FindHospital(address)": "infinite",
        "FindSensor(uint256)": "infinite"
      }
    },
    "methodIdentifiers": {
      "AddDoctor(address,string,address)": "e1ee3b56",
      "AddHospital(address,string,string,string,uint256)": "a27876c5",
      "AddSensor(string,string,address,bool)": "1b057e40",
      "Doctors(address)": "dc7aa36b",
      "Hospitals(address)": "a549a4ed",
      "Length_Doctors()": "1ba51696",
      "Length_Hospitals()": "a17d7a38",
      "Length_sensors()": "b5843613",
      "ReadDoctor(address)": "6cd8ebdc",
      "ReadHospital(address)": "9b70e779",
      "ReadSensor(uint256)": "02655c2e",
      "RemoveDoctor(address)": "a0568e2d",
      "RemoveHospital(address)": "4807fc69",
      "RemoveSensor(uint256)": "6151efb1",
      "Sensors(address)": "898bd140",
      "UpdateDoctor(address,string,address)": "1bdc5098",
      "UpdateHospital(address,string,string,string,uint256)": "14c94371",
      "UpdateSensor(uint256,string,string,address)": "459d470e",
      "doctorsHospital(uint256)": "8db2fc41",
      "getAllDoctors()": "f0d95090",
      "getAllDoctorsInHospital(address)": "c266406d",
      "getAllHospitals()": "4e9f7154",
      "getAllSensorOfDoctor(address)": "9a2e5bed",
      "getAllSensors()": "5a4e5d3e",
      "hospitalCenters(uint256)": "d53d0a85",
      "sensorsDoctor(uint256)": "ea87659f"
    }
  },
  "storageLayout": {
    "storage": [
      {
        "astId": 4,
        "contract": "EHealth.sol:EHealth",
        "label": "nextIdDoctor",
        "offset": 0,
        "slot": "0",
        "type": "t_uint256"
      },
      {
        "astId": 6,
        "contract": "EHealth.sol:EHealth",
        "label": "nextIdSensor",
        "offset": 0,
        "slot": "1",
        "type": "t_uint256"
      },
      {
        "astId": 9,
        "contract": "EHealth.sol:EHealth",
        "label": "owner",
        "offset": 0,
        "slot": "2",
        "type": "t_address"
      },
      {
        "astId": 13,
        "contract": "EHealth.sol:EHealth",
        "label": "Hospitals",
        "offset": 0,
        "slot": "3",
        "type": "t_mapping(t_address,t_struct(Hospital)26_storage)"
      },
      {
        "astId": 29,
        "contract": "EHealth.sol:EHealth",
        "label": "hospitalCenters",
        "offset": 0,
        "slot": "4",
        "type": "t_array(t_struct(Hospital)26_storage)dyn_storage"
      },
      {
        "astId": 33,
        "contract": "EHealth.sol:EHealth",
        "label": "Doctors",
        "offset": 0,
        "slot": "5",
        "type": "t_mapping(t_address,t_struct(Doctor)42_storage)"
      },
      {
        "astId": 45,
        "contract": "EHealth.sol:EHealth",
        "label": "doctorsHospital",
        "offset": 0,
        "slot": "6",
        "type": "t_array(t_struct(Doctor)42_storage)dyn_storage"
      },
      {
        "astId": 49,
        "contract": "EHealth.sol:EHealth",
        "label": "Sensors",
        "offset": 0,
        "slot": "7",
        "type": "t_mapping(t_address,t_struct(Sensor)60_storage)"
      },
      {
        "astId": 63,
        "contract": "EHealth.sol:EHealth",
        "label": "sensorsDoctor",
        "offset": 0,
        "slot": "8",
        "type": "t_array(t_struct(Sensor)60_storage)dyn_storage"
      }
    ],
    "types": {
      "t_address": {
        "encoding": "inplace",
        "label": "address",
        "numberOfBytes": "20"
      },
      "t_array(t_struct(Doctor)42_storage)dyn_storage": {
        "base": "t_struct(Doctor)42_storage",
        "encoding": "dynamic_array",
        "label": "struct EHealth.Doctor[]",
        "numberOfBytes": "32"
      },
      "t_array(t_struct(Hospital)26_storage)dyn_storage": {
        "base": "t_struct(Hospital)26_storage",
        "encoding": "dynamic_array",
        "label": "struct EHealth.Hospital[]",
        "numberOfBytes": "32"
      },
      "t_array(t_struct(Sensor)60_storage)dyn_storage": {
        "base": "t_struct(Sensor)60_storage",
        "encoding": "dynamic_array",
        "label": "struct EHealth.Sensor[]",
        "numberOfBytes": "32"
      },
      "t_bool": {
        "encoding": "inplace",
        "label": "bool",
        "numberOfBytes": "1"
      },
      "t_mapping(t_address,t_struct(Doctor)42_storage)": {
        "encoding": "mapping",
        "key": "t_address",
        "label": "mapping(address => struct EHealth.Doctor)",
        "numberOfBytes": "32",
        "value": "t_struct(Doctor)42_storage"
      },
      "t_mapping(t_address,t_struct(Hospital)26_storage)": {
        "encoding": "mapping",
        "key": "t_address",
        "label": "mapping(address => struct EHealth.Hospital)",
        "numberOfBytes": "32",
        "value": "t_struct(Hospital)26_storage"
      },
      "t_mapping(t_address,t_struct(Sensor)60_storage)": {
        "encoding": "mapping",
        "key": "t_address",
        "label": "mapping(address => struct EHealth.Sensor)",
        "numberOfBytes": "32",
        "value": "t_struct(Sensor)60_storage"
      },
      "t_string_storage": {
        "encoding": "bytes",
        "label": "string",
        "numberOfBytes": "32"
      },
      "t_struct(Doctor)42_storage": {
        "encoding": "inplace",
        "label": "struct EHealth.Doctor",
        "members": [
          {
            "astId": 35,
            "contract": "EHealth.sol:EHealth",
            "label": "idDoctor",
            "offset": 0,
            "slot": "0",
            "type": "t_address"
          },
          {
            "astId": 37,
            "contract": "EHealth.sol:EHealth",
            "label": "nameDoctor",
            "offset": 0,
            "slot": "1",
            "type": "t_string_storage"
          },
          {
            "astId": 39,
            "contract": "EHealth.sol:EHealth",
            "label": "hospital",
            "offset": 0,
            "slot": "2",
            "type": "t_address"
          },
          {
            "astId": 41,
            "contract": "EHealth.sol:EHealth",
            "label": "permission",
            "offset": 20,
            "slot": "2",
            "type": "t_bool"
          }
        ],
        "numberOfBytes": "96"
      },
      "t_struct(Hospital)26_storage": {
        "encoding": "inplace",
        "label": "struct EHealth.Hospital",
        "members": [
          {
            "astId": 15,
            "contract": "EHealth.sol:EHealth",
            "label": "idHospital",
            "offset": 0,
            "slot": "0",
            "type": "t_address"
          },
          {
            "astId": 17,
            "contract": "EHealth.sol:EHealth",
            "label": "name",
            "offset": 0,
            "slot": "1",
            "type": "t_string_storage"
          },
          {
            "astId": 19,
            "contract": "EHealth.sol:EHealth",
            "label": "city",
            "offset": 0,
            "slot": "2",
            "type": "t_string_storage"
          },
          {
            "astId": 21,
            "contract": "EHealth.sol:EHealth",
            "label": "state",
            "offset": 0,
            "slot": "3",
            "type": "t_string_storage"
          },
          {
            "astId": 23,
            "contract": "EHealth.sol:EHealth",
            "label": "postalCode",
            "offset": 0,
            "slot": "4",
            "type": "t_uint256"
          },
          {
            "astId": 25,
            "contract": "EHealth.sol:EHealth",
            "label": "permission",
            "offset": 0,
            "slot": "5",
            "type": "t_bool"
          }
        ],
        "numberOfBytes": "192"
      },
      "t_struct(Sensor)60_storage": {
        "encoding": "inplace",
        "label": "struct EHealth.Sensor",
        "members": [
          {
            "astId": 51,
            "contract": "EHealth.sol:EHealth",
            "label": "idSensor",
            "offset": 0,
            "slot": "0",
            "type": "t_uint256"
          },
          {
            "astId": 53,
            "contract": "EHealth.sol:EHealth",
            "label": "MAC",
            "offset": 0,
            "slot": "1",
            "type": "t_string_storage"
          },
          {
            "astId": 55,
            "contract": "EHealth.sol:EHealth",
            "label": "patientName",
            "offset": 0,
            "slot": "2",
            "type": "t_string_storage"
          },
          {
            "astId": 57,
            "contract": "EHealth.sol:EHealth",
            "label": "idDoctor",
            "offset": 0,
            "slot": "3",
            "type": "t_address"
          },
          {
            "astId": 59,
            "contract": "EHealth.sol:EHealth",
            "label": "active",
            "offset": 20,
            "slot": "3",
            "type": "t_bool"
          }
        ],
        "numberOfBytes": "128"
      },
      "t_uint256": {
        "encoding": "inplace",
        "label": "uint256",
        "numberOfBytes": "32"
      }
    }
  },
  "userdoc": {
    "kind": "user",
    "methods": {},
    "version": 1
  },
  "address": "0xB14c0E0387Bad73EBC350482F7c6edfd27a01c6B"
}