{
  "abi": [
    {
      "anonymous": false,
      "inputs": [
        {
          "indexed": false,
          "internalType": "address",
          "name": "",
          "type": "address"
        },
        {
          "indexed": false,
          "internalType": "string",
          "name": "",
          "type": "string"
        },
        {
          "indexed": false,
          "internalType": "address",
          "name": "",
          "type": "address"
        },
        {
          "indexed": false,
          "internalType": "bool",
          "name": "",
          "type": "bool"
        }
      ],
      "name": "DeleteDoctor",
      "type": "event"
    },
    {
      "anonymous": false,
      "inputs": [
        {
          "indexed": false,
          "internalType": "address",
          "name": "",
          "type": "address"
        },
        {
          "indexed": false,
          "internalType": "string",
          "name": "",
          "type": "string"
        },
        {
          "indexed": false,
          "internalType": "string",
          "name": "",
          "type": "string"
        },
        {
          "indexed": false,
          "internalType": "string",
          "name": "",
          "type": "string"
        },
        {
          "indexed": false,
          "internalType": "uint256",
          "name": "",
          "type": "uint256"
        },
        {
          "indexed": false,
          "internalType": "bool",
          "name": "",
          "type": "bool"
        }
      ],
      "name": "DeleteHospital",
      "type": "event"
    },
    {
      "anonymous": false,
      "inputs": [
        {
          "indexed": false,
          "internalType": "uint256",
          "name": "",
          "type": "uint256"
        },
        {
          "indexed": false,
          "internalType": "string",
          "name": "",
          "type": "string"
        },
        {
          "indexed": false,
          "internalType": "string",
          "name": "",
          "type": "string"
        },
        {
          "indexed": false,
          "internalType": "address",
          "name": "",
          "type": "address"
        },
        {
          "indexed": false,
          "internalType": "bool",
          "name": "",
          "type": "bool"
        }
      ],
      "name": "DeleteSensor",
      "type": "event"
    },
    {
      "anonymous": false,
      "inputs": [
        {
          "indexed": false,
          "internalType": "address",
          "name": "",
          "type": "address"
        },
        {
          "indexed": false,
          "internalType": "string",
          "name": "",
          "type": "string"
        },
        {
          "indexed": false,
          "internalType": "address",
          "name": "",
          "type": "address"
        },
        {
          "indexed": false,
          "internalType": "bool",
          "name": "",
          "type": "bool"
        }
      ],
      "name": "NewDoctor",
      "type": "event"
    },
    {
      "anonymous": false,
      "inputs": [
        {
          "indexed": false,
          "internalType": "address",
          "name": "",
          "type": "address"
        },
        {
          "indexed": false,
          "internalType": "string",
          "name": "",
          "type": "string"
        },
        {
          "indexed": false,
          "internalType": "string",
          "name": "",
          "type": "string"
        },
        {
          "indexed": false,
          "internalType": "string",
          "name": "",
          "type": "string"
        },
        {
          "indexed": false,
          "internalType": "uint256",
          "name": "",
          "type": "uint256"
        },
        {
          "indexed": false,
          "internalType": "bool",
          "name": "",
          "type": "bool"
        }
      ],
      "name": "NewHospital",
      "type": "event"
    },
    {
      "anonymous": false,
      "inputs": [
        {
          "indexed": false,
          "internalType": "uint256",
          "name": "",
          "type": "uint256"
        },
        {
          "indexed": false,
          "internalType": "string",
          "name": "",
          "type": "string"
        },
        {
          "indexed": false,
          "internalType": "string",
          "name": "",
          "type": "string"
        },
        {
          "indexed": false,
          "internalType": "address",
          "name": "",
          "type": "address"
        },
        {
          "indexed": false,
          "internalType": "bool",
          "name": "",
          "type": "bool"
        },
        {
          "indexed": false,
          "internalType": "uint256[]",
          "name": "",
          "type": "uint256[]"
        }
      ],
      "name": "NewSensor",
      "type": "event"
    },
    {
      "anonymous": false,
      "inputs": [
        {
          "indexed": false,
          "internalType": "address",
          "name": "",
          "type": "address"
        },
        {
          "indexed": false,
          "internalType": "string",
          "name": "",
          "type": "string"
        },
        {
          "indexed": false,
          "internalType": "address",
          "name": "",
          "type": "address"
        },
        {
          "indexed": false,
          "internalType": "bool",
          "name": "",
          "type": "bool"
        }
      ],
      "name": "RefreshDoctor",
      "type": "event"
    },
    {
      "anonymous": false,
      "inputs": [
        {
          "indexed": false,
          "internalType": "address",
          "name": "",
          "type": "address"
        },
        {
          "indexed": false,
          "internalType": "string",
          "name": "",
          "type": "string"
        },
        {
          "indexed": false,
          "internalType": "string",
          "name": "",
          "type": "string"
        },
        {
          "indexed": false,
          "internalType": "string",
          "name": "",
          "type": "string"
        },
        {
          "indexed": false,
          "internalType": "uint256",
          "name": "",
          "type": "uint256"
        },
        {
          "indexed": false,
          "internalType": "bool",
          "name": "",
          "type": "bool"
        }
      ],
      "name": "RefreshHospital",
      "type": "event"
    },
    {
      "anonymous": false,
      "inputs": [
        {
          "indexed": false,
          "internalType": "uint256",
          "name": "",
          "type": "uint256"
        },
        {
          "indexed": false,
          "internalType": "string",
          "name": "",
          "type": "string"
        },
        {
          "indexed": false,
          "internalType": "string",
          "name": "",
          "type": "string"
        },
        {
          "indexed": false,
          "internalType": "address",
          "name": "",
          "type": "address"
        },
        {
          "indexed": false,
          "internalType": "bool",
          "name": "",
          "type": "bool"
        }
      ],
      "name": "RefreshSensor",
      "type": "event"
    },
    {
      "inputs": [
        {
          "internalType": "address",
          "name": "idDoctor",
          "type": "address"
        },
        {
          "internalType": "string",
          "name": "_nameDoctor",
          "type": "string"
        },
        {
          "internalType": "address",
          "name": "_hospital",
          "type": "address"
        }
      ],
      "name": "AddDoctor",
      "outputs": [],
      "stateMutability": "nonpayable",
      "type": "function"
    },
    {
      "inputs": [
        {
          "internalType": "address",
          "name": "_idHospital",
          "type": "address"
        },
        {
          "internalType": "string",
          "name": "_name",
          "type": "string"
        },
        {
          "internalType": "string",
          "name": "_city",
          "type": "string"
        },
        {
          "internalType": "string",
          "name": "_state",
          "type": "string"
        },
        {
          "internalType": "uint256",
          "name": "_postalCode",
          "type": "uint256"
        }
      ],
      "name": "AddHospital",
      "outputs": [],
      "stateMutability": "nonpayable",
      "type": "function"
    },
    {
      "inputs": [
        {
          "internalType": "string",
          "name": "_mac",
          "type": "string"
        },
        {
          "internalType": "string",
          "name": "_patientName",
          "type": "string"
        },
        {
          "internalType": "address",
          "name": "_idDoctor",
          "type": "address"
        },
        {
          "internalType": "bool",
          "name": "_active",
          "type": "bool"
        }
      ],
      "name": "AddSensor",
      "outputs": [],
      "stateMutability": "nonpayable",
      "type": "function"
    },
    {
      "inputs": [
        {
          "internalType": "address",
          "name": "",
          "type": "address"
        }
      ],
      "name": "Doctors",
      "outputs": [
        {
          "internalType": "address",
          "name": "idDoctor",
          "type": "address"
        },
        {
          "internalType": "string",
          "name": "nameDoctor",
          "type": "string"
        },
        {
          "internalType": "address",
          "name": "hospital",
          "type": "address"
        },
        {
          "internalType": "bool",
          "name": "permission",
          "type": "bool"
        }
      ],
      "stateMutability": "view",
      "type": "function"
    },
    {
      "inputs": [
        {
          "internalType": "address",
          "name": "",
          "type": "address"
        }
      ],
      "name": "Hospitals",
      "outputs": [
        {
          "internalType": "address",
          "name": "idHospital",
          "type": "address"
        },
        {
          "internalType": "string",
          "name": "name",
          "type": "string"
        },
        {
          "internalType": "string",
          "name": "city",
          "type": "string"
        },
        {
          "internalType": "string",
          "name": "state",
          "type": "string"
        },
        {
          "internalType": "uint256",
          "name": "postalCode",
          "type": "uint256"
        },
        {
          "internalType": "bool",
          "name": "permission",
          "type": "bool"
        }
      ],
      "stateMutability": "view",
      "type": "function"
    },
    {
      "inputs": [],
      "name": "Length_Doctors",
      "outputs": [
        {
          "internalType": "uint256",
          "name": "",
          "type": "uint256"
        }
      ],
      "stateMutability": "view",
      "type": "function"
    },
    {
      "inputs": [],
      "name": "Length_Hospitals",
      "outputs": [
        {
          "internalType": "uint256",
          "name": "",
          "type": "uint256"
        }
      ],
      "stateMutability": "view",
      "type": "function"
    },
    {
      "inputs": [],
      "name": "Length_sensors",
      "outputs": [
        {
          "internalType": "uint256",
          "name": "",
          "type": "uint256"
        }
      ],
      "stateMutability": "view",
      "type": "function"
    },
    {
      "inputs": [
        {
          "internalType": "address",
          "name": "_id",
          "type": "address"
        }
      ],
      "name": "ReadDoctor",
      "outputs": [
        {
          "internalType": "string",
          "name": "",
          "type": "string"
        },
        {
          "internalType": "address",
          "name": "",
          "type": "address"
        },
        {
          "internalType": "bool",
          "name": "",
          "type": "bool"
        }
      ],
      "stateMutability": "view",
      "type": "function"
    },
    {
      "inputs": [
        {
          "internalType": "address",
          "name": "_address",
          "type": "address"
        }
      ],
      "name": "ReadHospital",
      "outputs": [
        {
          "internalType": "string",
          "name": "",
          "type": "string"
        },
        {
          "internalType": "string",
          "name": "",
          "type": "string"
        },
        {
          "internalType": "string",
          "name": "",
          "type": "string"
        },
        {
          "internalType": "uint256",
          "name": "",
          "type": "uint256"
        },
        {
          "internalType": "bool",
          "name": "",
          "type": "bool"
        }
      ],
      "stateMutability": "view",
      "type": "function"
    },
    {
      "inputs": [
        {
          "internalType": "uint256",
          "name": "_id",
          "type": "uint256"
        }
      ],
      "name": "ReadSensor",
      "outputs": [
        {
          "internalType": "string",
          "name": "",
          "type": "string"
        },
        {
          "internalType": "string",
          "name": "",
          "type": "string"
        },
        {
          "internalType": "address",
          "name": "",
          "type": "address"
        },
        {
          "internalType": "bool",
          "name": "",
          "type": "bool"
        }
      ],
      "stateMutability": "view",
      "type": "function"
    },
    {
      "inputs": [
        {
          "internalType": "address",
          "name": "_id",
          "type": "address"
        }
      ],
      "name": "RemoveDoctor",
      "outputs": [],
      "stateMutability": "nonpayable",
      "type": "function"
    },
    {
      "inputs": [
        {
          "internalType": "address",
          "name": "_address",
          "type": "address"
        }
      ],
      "name": "RemoveHospital",
      "outputs": [],
      "stateMutability": "nonpayable",
      "type": "function"
    },
    {
      "inputs": [
        {
          "internalType": "uint256",
          "name": "_id",
          "type": "uint256"
        }
      ],
      "name": "RemoveSensor",
      "outputs": [],
      "stateMutability": "nonpayable",
      "type": "function"
    },
    {
      "inputs": [
        {
          "internalType": "address",
          "name": "",
          "type": "address"
        }
      ],
      "name": "Sensors",
      "outputs": [
        {
          "internalType": "uint256",
          "name": "idSensor",
          "type": "uint256"
        },
        {
          "internalType": "string",
          "name": "MAC",
          "type": "string"
        },
        {
          "internalType": "string",
          "name": "patientName",
          "type": "string"
        },
        {
          "internalType": "address",
          "name": "idDoctor",
          "type": "address"
        },
        {
          "internalType": "bool",
          "name": "active",
          "type": "bool"
        }
      ],
      "stateMutability": "view",
      "type": "function"
    },
    {
      "inputs": [
        {
          "internalType": "address",
          "name": "_id",
          "type": "address"
        },
        {
          "internalType": "string",
          "name": "_nameDoctor",
          "type": "string"
        },
        {
          "internalType": "address",
          "name": "_hospital",
          "type": "address"
        },
        {
          "internalType": "bool",
          "name": "_permission",
          "type": "bool"
        }
      ],
      "name": "UpdateDoctor",
      "outputs": [],
      "stateMutability": "nonpayable",
      "type": "function"
    },
    {
      "inputs": [
        {
          "internalType": "address",
          "name": "_address",
          "type": "address"
        },
        {
          "internalType": "string",
          "name": "_name",
          "type": "string"
        },
        {
          "internalType": "string",
          "name": "_city",
          "type": "string"
        },
        {
          "internalType": "string",
          "name": "_state",
          "type": "string"
        },
        {
          "internalType": "uint256",
          "name": "_postalCode",
          "type": "uint256"
        },
        {
          "internalType": "bool",
          "name": "_permission",
          "type": "bool"
        }
      ],
      "name": "UpdateHospital",
      "outputs": [],
      "stateMutability": "nonpayable",
      "type": "function"
    },
    {
      "inputs": [
        {
          "internalType": "uint256",
          "name": "_id",
          "type": "uint256"
        },
        {
          "internalType": "string",
          "name": "_mac",
          "type": "string"
        },
        {
          "internalType": "string",
          "name": "_patientName",
          "type": "string"
        },
        {
          "internalType": "address",
          "name": "_idDoctor",
          "type": "address"
        },
        {
          "internalType": "bool",
          "name": "_active",
          "type": "bool"
        }
      ],
      "name": "UpdateSensor",
      "outputs": [],
      "stateMutability": "nonpayable",
      "type": "function"
    },
    {
      "inputs": [
        {
          "internalType": "uint256",
          "name": "",
          "type": "uint256"
        }
      ],
      "name": "doctorsHospital",
      "outputs": [
        {
          "internalType": "address",
          "name": "idDoctor",
          "type": "address"
        },
        {
          "internalType": "string",
          "name": "nameDoctor",
          "type": "string"
        },
        {
          "internalType": "address",
          "name": "hospital",
          "type": "address"
        },
        {
          "internalType": "bool",
          "name": "permission",
          "type": "bool"
        }
      ],
      "stateMutability": "view",
      "type": "function"
    },
    {
      "inputs": [],
      "name": "getAllDoctors",
      "outputs": [
        {
          "components": [
            {
              "internalType": "address",
              "name": "idDoctor",
              "type": "address"
            },
            {
              "internalType": "string",
              "name": "nameDoctor",
              "type": "string"
            },
            {
              "internalType": "address",
              "name": "hospital",
              "type": "address"
            },
            {
              "internalType": "bool",
              "name": "permission",
              "type": "bool"
            }
          ],
          "internalType": "struct EHealth.Doctor[]",
          "name": "",
          "type": "tuple[]"
        }
      ],
      "stateMutability": "view",
      "type": "function"
    },
    {
      "inputs": [
        {
          "internalType": "address",
          "name": "_address",
          "type": "address"
        }
      ],
      "name": "getAllDoctorsInHospital",
      "outputs": [
        {
          "components": [
            {
              "internalType": "address",
              "name": "idDoctor",
              "type": "address"
            },
            {
              "internalType": "string",
              "name": "nameDoctor",
              "type": "string"
            },
            {
              "internalType": "address",
              "name": "hospital",
              "type": "address"
            },
            {
              "internalType": "bool",
              "name": "permission",
              "type": "bool"
            }
          ],
          "internalType": "struct EHealth.Doctor[]",
          "name": "",
          "type": "tuple[]"
        }
      ],
      "stateMutability": "view",
      "type": "function"
    },
    {
      "inputs": [],
      "name": "getAllHospitals",
      "outputs": [
        {
          "components": [
            {
              "internalType": "address",
              "name": "idHospital",
              "type": "address"
            },
            {
              "internalType": "string",
              "name": "name",
              "type": "string"
            },
            {
              "internalType": "string",
              "name": "city",
              "type": "string"
            },
            {
              "internalType": "string",
              "name": "state",
              "type": "string"
            },
            {
              "internalType": "uint256",
              "name": "postalCode",
              "type": "uint256"
            },
            {
              "internalType": "bool",
              "name": "permission",
              "type": "bool"
            }
          ],
          "internalType": "struct EHealth.Hospital[]",
          "name": "",
          "type": "tuple[]"
        }
      ],
      "stateMutability": "view",
      "type": "function"
    },
    {
      "inputs": [
        {
          "internalType": "address",
          "name": "_idDoctor",
          "type": "address"
        }
      ],
      "name": "getAllSensorOfDoctor",
      "outputs": [
        {
          "components": [
            {
              "internalType": "uint256",
              "name": "idSensor",
              "type": "uint256"
            },
            {
              "internalType": "string",
              "name": "MAC",
              "type": "string"
            },
            {
              "internalType": "string",
              "name": "patientName",
              "type": "string"
            },
            {
              "internalType": "address",
              "name": "idDoctor",
              "type": "address"
            },
            {
              "internalType": "bool",
              "name": "active",
              "type": "bool"
            },
            {
              "internalType": "uint256[]",
              "name": "data",
              "type": "uint256[]"
            }
          ],
          "internalType": "struct EHealth.Sensor[]",
          "name": "",
          "type": "tuple[]"
        }
      ],
      "stateMutability": "view",
      "type": "function"
    },
    {
      "inputs": [],
      "name": "getAllSensors",
      "outputs": [
        {
          "components": [
            {
              "internalType": "uint256",
              "name": "idSensor",
              "type": "uint256"
            },
            {
              "internalType": "string",
              "name": "MAC",
              "type": "string"
            },
            {
              "internalType": "string",
              "name": "patientName",
              "type": "string"
            },
            {
              "internalType": "address",
              "name": "idDoctor",
              "type": "address"
            },
            {
              "internalType": "bool",
              "name": "active",
              "type": "bool"
            },
            {
              "internalType": "uint256[]",
              "name": "data",
              "type": "uint256[]"
            }
          ],
          "internalType": "struct EHealth.Sensor[]",
          "name": "",
          "type": "tuple[]"
        }
      ],
      "stateMutability": "view",
      "type": "function"
    },
    {
      "inputs": [
        {
          "internalType": "uint256",
          "name": "",
          "type": "uint256"
        }
      ],
      "name": "hospitalCenters",
      "outputs": [
        {
          "internalType": "address",
          "name": "idHospital",
          "type": "address"
        },
        {
          "internalType": "string",
          "name": "name",
          "type": "string"
        },
        {
          "internalType": "string",
          "name": "city",
          "type": "string"
        },
        {
          "internalType": "string",
          "name": "state",
          "type": "string"
        },
        {
          "internalType": "uint256",
          "name": "postalCode",
          "type": "uint256"
        },
        {
          "internalType": "bool",
          "name": "permission",
          "type": "bool"
        }
      ],
      "stateMutability": "view",
      "type": "function"
    },
    {
      "inputs": [
        {
          "internalType": "uint256",
          "name": "_idSensor",
          "type": "uint256"
        },
        {
          "internalType": "uint256[]",
          "name": "_data",
          "type": "uint256[]"
        }
      ],
      "name": "sendData",
      "outputs": [],
      "stateMutability": "nonpayable",
      "type": "function"
    },
    {
      "inputs": [
        {
          "internalType": "uint256",
          "name": "",
          "type": "uint256"
        }
      ],
      "name": "sensorsDoctor",
      "outputs": [
        {
          "internalType": "uint256",
          "name": "idSensor",
          "type": "uint256"
        },
        {
          "internalType": "string",
          "name": "MAC",
          "type": "string"
        },
        {
          "internalType": "string",
          "name": "patientName",
          "type": "string"
        },
        {
          "internalType": "address",
          "name": "idDoctor",
          "type": "address"
        },
        {
          "internalType": "bool",
          "name": "active",
          "type": "bool"
        }
      ],
      "stateMutability": "view",
      "type": "function"
    },
    {
      "inputs": [
        {
          "internalType": "uint256",
          "name": "_idSensor",
          "type": "uint256"
        }
      ],
      "name": "viewSensorData",
      "outputs": [
        {
          "internalType": "uint256[]",
          "name": "",
          "type": "uint256[]"
        }
      ],
      "stateMutability": "view",
      "type": "function"
    }
  ],
  "devdoc": {
    "kind": "dev",
    "methods": {},
    "version": 1
  },
  "evm": {
    "assembly": "    /* \"EHealth.sol\":119:10689  contract EHealth {\r... */\n  mstore(0x40, 0x80)\n    /* \"EHealth.sol\":232:274  0x8FcF3B91599C6d5bb93D8c7df9f3974C622b83a4 */\n  0x8fcf3b91599c6d5bb93d8c7df9f3974c622b83a4\n    /* \"EHealth.sol\":216:274  address owner = 0x8FcF3B91599C6d5bb93D8c7df9f3974C622b83a4 */\n  0x02\n  exp(0x0100, 0x00)\n  dup2\n  sload\n  dup2\n  0xffffffffffffffffffffffffffffffffffffffff\n  mul\n  not\n  and\n  swap1\n  dup4\n  0xffffffffffffffffffffffffffffffffffffffff\n  and\n  mul\n  or\n  swap1\n  sstore\n  pop\n    /* \"EHealth.sol\":119:10689  contract EHealth {\r... */\n  callvalue\n  dup1\n  iszero\n  tag_1\n  jumpi\n  0x00\n  dup1\n  revert\ntag_1:\n  pop\n  dataSize(sub_0)\n  dup1\n  dataOffset(sub_0)\n  0x00\n  codecopy\n  0x00\n  return\nstop\n\nsub_0: assembly {\n        /* \"EHealth.sol\":119:10689  contract EHealth {\r... */\n      mstore(0x40, 0x80)\n      callvalue\n      dup1\n      iszero\n      tag_1\n      jumpi\n      0x00\n      dup1\n      revert\n    tag_1:\n      pop\n      jumpi(tag_2, lt(calldatasize, 0x04))\n      shr(0xe0, calldataload(0x00))\n      dup1\n      0x9a2e5bed\n      gt\n      tag_31\n      jumpi\n      dup1\n      0xc266406d\n      gt\n      tag_32\n      jumpi\n      dup1\n      0xdc7aa36b\n      gt\n      tag_33\n      jumpi\n      dup1\n      0xdc7aa36b\n      eq\n      tag_27\n      jumpi\n      dup1\n      0xe1ee3b56\n      eq\n      tag_28\n      jumpi\n      dup1\n      0xea87659f\n      eq\n      tag_29\n      jumpi\n      dup1\n      0xf0d95090\n      eq\n      tag_30\n      jumpi\n      jump(tag_2)\n    tag_33:\n      dup1\n      0xc266406d\n      eq\n      tag_24\n      jumpi\n      dup1\n      0xc3f4c25f\n      eq\n      tag_25\n      jumpi\n      dup1\n      0xd53d0a85\n      eq\n      tag_26\n      jumpi\n      jump(tag_2)\n    tag_32:\n      dup1\n      0xa17d7a38\n      gt\n      tag_34\n      jumpi\n      dup1\n      0xa17d7a38\n      eq\n      tag_20\n      jumpi\n      dup1\n      0xa27876c5\n      eq\n      tag_21\n      jumpi\n      dup1\n      0xa549a4ed\n      eq\n      tag_22\n      jumpi\n      dup1\n      0xb5843613\n      eq\n      tag_23\n      jumpi\n      jump(tag_2)\n    tag_34:\n      dup1\n      0x9a2e5bed\n      eq\n      tag_17\n      jumpi\n      dup1\n      0x9b70e779\n      eq\n      tag_18\n      jumpi\n      dup1\n      0xa0568e2d\n      eq\n      tag_19\n      jumpi\n      jump(tag_2)\n    tag_31:\n      dup1\n      0x60ea3cdc\n      gt\n      tag_35\n      jumpi\n      dup1\n      0x6f39507d\n      gt\n      tag_36\n      jumpi\n      dup1\n      0x6f39507d\n      eq\n      tag_13\n      jumpi\n      dup1\n      0x7fe53f83\n      eq\n      tag_14\n      jumpi\n      dup1\n      0x898bd140\n      eq\n      tag_15\n      jumpi\n      dup1\n      0x8db2fc41\n      eq\n      tag_16\n      jumpi\n      jump(tag_2)\n    tag_36:\n      dup1\n      0x60ea3cdc\n      eq\n      tag_10\n      jumpi\n      dup1\n      0x6151efb1\n      eq\n      tag_11\n      jumpi\n      dup1\n      0x6cd8ebdc\n      eq\n      tag_12\n      jumpi\n      jump(tag_2)\n    tag_35:\n      dup1\n      0x4444cc92\n      gt\n      tag_37\n      jumpi\n      dup1\n      0x4444cc92\n      eq\n      tag_6\n      jumpi\n      dup1\n      0x4807fc69\n      eq\n      tag_7\n      jumpi\n      dup1\n      0x4e9f7154\n      eq\n      tag_8\n      jumpi\n      dup1\n      0x5a4e5d3e\n      eq\n      tag_9\n      jumpi\n      jump(tag_2)\n    tag_37:\n      dup1\n      0x02655c2e\n      eq\n      tag_3\n      jumpi\n      dup1\n      0x1b057e40\n      eq\n      tag_4\n      jumpi\n      dup1\n      0x1ba51696\n      eq\n      tag_5\n      jumpi\n    tag_2:\n      0x00\n      dup1\n      revert\n        /* \"EHealth.sol\":9165:9439  function ReadSensor(uint _id)public view returns(string memory,string memory, address, bool){\r... */\n    tag_3:\n      tag_38\n      0x04\n      dup1\n      calldatasize\n      sub\n      dup2\n      add\n      swap1\n      tag_39\n      swap2\n      swap1\n      tag_40\n      jump\t// in\n    tag_39:\n      tag_41\n      jump\t// in\n    tag_38:\n      mload(0x40)\n      tag_42\n      swap5\n      swap4\n      swap3\n      swap2\n      swap1\n      tag_43\n      jump\t// in\n    tag_42:\n      mload(0x40)\n      dup1\n      swap2\n      sub\n      swap1\n      return\n        /* \"EHealth.sol\":7451:7835  function AddSensor(string memory _mac, string memory _patientName, address _idDoctor, bool _active) public {\r... */\n    tag_4:\n      tag_44\n      0x04\n      dup1\n      calldatasize\n      sub\n      dup2\n      add\n      swap1\n      tag_45\n      swap2\n      swap1\n      tag_46\n      jump\t// in\n    tag_45:\n      tag_47\n      jump\t// in\n    tag_44:\n      stop\n        /* \"EHealth.sol\":6495:6598  function Length_Doctors() public view returns (uint256){\r... */\n    tag_5:\n      tag_48\n      tag_49\n      jump\t// in\n    tag_48:\n      mload(0x40)\n      tag_50\n      swap2\n      swap1\n      tag_51\n      jump\t// in\n    tag_50:\n      mload(0x40)\n      dup1\n      swap2\n      sub\n      swap1\n      return\n        /* \"EHealth.sol\":10320:10476  function sendData(uint _idSensor, uint[] memory _data) public{\r... */\n    tag_6:\n      tag_52\n      0x04\n      dup1\n      calldatasize\n      sub\n      dup2\n      add\n      swap1\n      tag_53\n      swap2\n      swap1\n      tag_54\n      jump\t// in\n    tag_53:\n      tag_55\n      jump\t// in\n    tag_52:\n      stop\n        /* \"EHealth.sol\":2504:2930  function RemoveHospital(address _address) public {\r... */\n    tag_7:\n      tag_56\n      0x04\n      dup1\n      calldatasize\n      sub\n      dup2\n      add\n      swap1\n      tag_57\n      swap2\n      swap1\n      tag_58\n      jump\t// in\n    tag_57:\n      tag_59\n      jump\t// in\n    tag_56:\n      stop\n        /* \"EHealth.sol\":3735:4014  function getAllHospitals() public view returns (Hospital[] memory){\r... */\n    tag_8:\n      tag_60\n      tag_61\n      jump\t// in\n    tag_60:\n      mload(0x40)\n      tag_62\n      swap2\n      swap1\n      tag_63\n      jump\t// in\n    tag_62:\n      mload(0x40)\n      dup1\n      swap2\n      sub\n      swap1\n      return\n        /* \"EHealth.sol\":9604:9869  function getAllSensors() public view returns (Sensor[] memory){\r... */\n    tag_9:\n      tag_64\n      tag_65\n      jump\t// in\n    tag_64:\n      mload(0x40)\n      tag_66\n      swap2\n      swap1\n      tag_67\n      jump\t// in\n    tag_66:\n      mload(0x40)\n      dup1\n      swap2\n      sub\n      swap1\n      return\n        /* \"EHealth.sol\":5662:6181  function UpdateDoctor(address _id, string memory _nameDoctor, address _hospital ,bool _permission) public {\r... */\n    tag_10:\n      tag_68\n      0x04\n      dup1\n      calldatasize\n      sub\n      dup2\n      add\n      swap1\n      tag_69\n      swap2\n      swap1\n      tag_70\n      jump\t// in\n    tag_69:\n      tag_71\n      jump\t// in\n    tag_68:\n      stop\n        /* \"EHealth.sol\":8177:8522  function RemoveSensor(uint _id) public {\r... */\n    tag_11:\n      tag_72\n      0x04\n      dup1\n      calldatasize\n      sub\n      dup2\n      add\n      swap1\n      tag_73\n      swap2\n      swap1\n      tag_40\n      jump\t// in\n    tag_73:\n      tag_74\n      jump\t// in\n    tag_72:\n      stop\n        /* \"EHealth.sol\":6214:6461  function ReadDoctor(address _id)public view returns(string memory, address, bool){\r... */\n    tag_12:\n      tag_75\n      0x04\n      dup1\n      calldatasize\n      sub\n      dup2\n      add\n      swap1\n      tag_76\n      swap2\n      swap1\n      tag_58\n      jump\t// in\n    tag_76:\n      tag_77\n      jump\t// in\n    tag_75:\n      mload(0x40)\n      tag_78\n      swap4\n      swap3\n      swap2\n      swap1\n      tag_79\n      jump\t// in\n    tag_78:\n      mload(0x40)\n      dup1\n      swap2\n      sub\n      swap1\n      return\n        /* \"EHealth.sol\":8557:9132  function UpdateSensor(uint _id, string memory _mac, string memory _patientName,address _idDoctor, bool _active ) public {\r... */\n    tag_13:\n      tag_80\n      0x04\n      dup1\n      calldatasize\n      sub\n      dup2\n      add\n      swap1\n      tag_81\n      swap2\n      swap1\n      tag_82\n      jump\t// in\n    tag_81:\n      tag_83\n      jump\t// in\n    tag_80:\n      stop\n        /* \"EHealth.sol\":2969:3702  function UpdateHospital(address _address, string memory _name, string memory _city, string memory _state, uint _postalCode, bool _permission ) public {\r... */\n    tag_14:\n      tag_84\n      0x04\n      dup1\n      calldatasize\n      sub\n      dup2\n      add\n      swap1\n      tag_85\n      swap2\n      swap1\n      tag_86\n      jump\t// in\n    tag_85:\n      tag_87\n      jump\t// in\n    tag_84:\n      stop\n        /* \"EHealth.sol\":864:904  mapping(address=> Sensor) public Sensors */\n    tag_15:\n      tag_88\n      0x04\n      dup1\n      calldatasize\n      sub\n      dup2\n      add\n      swap1\n      tag_89\n      swap2\n      swap1\n      tag_58\n      jump\t// in\n    tag_89:\n      tag_90\n      jump\t// in\n    tag_88:\n      mload(0x40)\n      tag_91\n      swap6\n      swap5\n      swap4\n      swap3\n      swap2\n      swap1\n      tag_92\n      jump\t// in\n    tag_91:\n      mload(0x40)\n      dup1\n      swap2\n      sub\n      swap1\n      return\n        /* \"EHealth.sol\":808:839  Doctor[] public doctorsHospital */\n    tag_16:\n      tag_93\n      0x04\n      dup1\n      calldatasize\n      sub\n      dup2\n      add\n      swap1\n      tag_94\n      swap2\n      swap1\n      tag_40\n      jump\t// in\n    tag_94:\n      tag_95\n      jump\t// in\n    tag_93:\n      mload(0x40)\n      tag_96\n      swap5\n      swap4\n      swap3\n      swap2\n      swap1\n      tag_97\n      jump\t// in\n    tag_96:\n      mload(0x40)\n      dup1\n      swap2\n      sub\n      swap1\n      return\n        /* \"EHealth.sol\":9918:10284  function getAllSensorOfDoctor (address _idDoctor) public view returns (Sensor[] memory){\r... */\n    tag_17:\n      tag_98\n      0x04\n      dup1\n      calldatasize\n      sub\n      dup2\n      add\n      swap1\n      tag_99\n      swap2\n      swap1\n      tag_58\n      jump\t// in\n    tag_99:\n      tag_100\n      jump\t// in\n    tag_98:\n      mload(0x40)\n      tag_101\n      swap2\n      swap1\n      tag_67\n      jump\t// in\n    tag_101:\n      mload(0x40)\n      dup1\n      swap2\n      sub\n      swap1\n      return\n        /* \"EHealth.sol\":4194:4545  function ReadHospital(address _address)public view returns(string memory, string memory, string memory, uint, bool){\r... */\n    tag_18:\n      tag_102\n      0x04\n      dup1\n      calldatasize\n      sub\n      dup2\n      add\n      swap1\n      tag_103\n      swap2\n      swap1\n      tag_58\n      jump\t// in\n    tag_103:\n      tag_104\n      jump\t// in\n    tag_102:\n      mload(0x40)\n      tag_105\n      swap6\n      swap5\n      swap4\n      swap3\n      swap2\n      swap1\n      tag_106\n      jump\t// in\n    tag_105:\n      mload(0x40)\n      dup1\n      swap2\n      sub\n      swap1\n      return\n        /* \"EHealth.sol\":5297:5627  function RemoveDoctor(address _id) public {\r... */\n    tag_19:\n      tag_107\n      0x04\n      dup1\n      calldatasize\n      sub\n      dup2\n      add\n      swap1\n      tag_108\n      swap2\n      swap1\n      tag_58\n      jump\t// in\n    tag_108:\n      tag_109\n      jump\t// in\n    tag_107:\n      stop\n        /* \"EHealth.sol\":4052:4157  function Length_Hospitals() public view returns (uint256){\r... */\n    tag_20:\n      tag_110\n      tag_111\n      jump\t// in\n    tag_110:\n      mload(0x40)\n      tag_112\n      swap2\n      swap1\n      tag_51\n      jump\t// in\n    tag_112:\n      mload(0x40)\n      dup1\n      swap2\n      sub\n      swap1\n      return\n        /* \"EHealth.sol\":1844:2160  function AddHospital(address _idHospital, string memory _name, string memory _city, string memory _state, uint _postalCode ) public {\r... */\n    tag_21:\n      tag_113\n      0x04\n      dup1\n      calldatasize\n      sub\n      dup2\n      add\n      swap1\n      tag_114\n      swap2\n      swap1\n      tag_115\n      jump\t// in\n    tag_114:\n      tag_116\n      jump\t// in\n    tag_113:\n      stop\n        /* \"EHealth.sol\":301:345  mapping(address=> Hospital) public Hospitals */\n    tag_22:\n      tag_117\n      0x04\n      dup1\n      calldatasize\n      sub\n      dup2\n      add\n      swap1\n      tag_118\n      swap2\n      swap1\n      tag_58\n      jump\t// in\n    tag_118:\n      tag_119\n      jump\t// in\n    tag_117:\n      mload(0x40)\n      tag_120\n      swap7\n      swap6\n      swap5\n      swap4\n      swap3\n      swap2\n      swap1\n      tag_121\n      jump\t// in\n    tag_120:\n      mload(0x40)\n      dup1\n      swap2\n      sub\n      swap1\n      return\n        /* \"EHealth.sol\":9473:9574  function Length_sensors() public view returns (uint256){\r... */\n    tag_23:\n      tag_122\n      tag_123\n      jump\t// in\n    tag_122:\n      mload(0x40)\n      tag_124\n      swap2\n      swap1\n      tag_51\n      jump\t// in\n    tag_124:\n      mload(0x40)\n      dup1\n      swap2\n      sub\n      swap1\n      return\n        /* \"EHealth.sol\":6941:7315  function getAllDoctorsInHospital(address _address) public view returns (Doctor[] memory){\r... */\n    tag_24:\n      tag_125\n      0x04\n      dup1\n      calldatasize\n      sub\n      dup2\n      add\n      swap1\n      tag_126\n      swap2\n      swap1\n      tag_58\n      jump\t// in\n    tag_126:\n      tag_127\n      jump\t// in\n    tag_125:\n      mload(0x40)\n      tag_128\n      swap2\n      swap1\n      tag_129\n      jump\t// in\n    tag_128:\n      mload(0x40)\n      dup1\n      swap2\n      sub\n      swap1\n      return\n        /* \"EHealth.sol\":10513:10683  function viewSensorData(uint _idSensor) public view returns(uint[] memory){\r... */\n    tag_25:\n      tag_130\n      0x04\n      dup1\n      calldatasize\n      sub\n      dup2\n      add\n      swap1\n      tag_131\n      swap2\n      swap1\n      tag_40\n      jump\t// in\n    tag_131:\n      tag_132\n      jump\t// in\n    tag_130:\n      mload(0x40)\n      tag_133\n      swap2\n      swap1\n      tag_134\n      jump\t// in\n    tag_133:\n      mload(0x40)\n      dup1\n      swap2\n      sub\n      swap1\n      return\n        /* \"EHealth.sol\":536:569  Hospital[] public hospitalCenters */\n    tag_26:\n      tag_135\n      0x04\n      dup1\n      calldatasize\n      sub\n      dup2\n      add\n      swap1\n      tag_136\n      swap2\n      swap1\n      tag_40\n      jump\t// in\n    tag_136:\n      tag_137\n      jump\t// in\n    tag_135:\n      mload(0x40)\n      tag_138\n      swap7\n      swap6\n      swap5\n      swap4\n      swap3\n      swap2\n      swap1\n      tag_121\n      jump\t// in\n    tag_138:\n      mload(0x40)\n      dup1\n      swap2\n      sub\n      swap1\n      return\n        /* \"EHealth.sol\":598:638  mapping(address=> Doctor) public Doctors */\n    tag_27:\n      tag_139\n      0x04\n      dup1\n      calldatasize\n      sub\n      dup2\n      add\n      swap1\n      tag_140\n      swap2\n      swap1\n      tag_58\n      jump\t// in\n    tag_140:\n      tag_141\n      jump\t// in\n    tag_139:\n      mload(0x40)\n      tag_142\n      swap5\n      swap4\n      swap3\n      swap2\n      swap1\n      tag_97\n      jump\t// in\n    tag_142:\n      mload(0x40)\n      dup1\n      swap2\n      sub\n      swap1\n      return\n        /* \"EHealth.sol\":4679:4952  function AddDoctor(address idDoctor, string memory _nameDoctor, address _hospital) public {\r... */\n    tag_28:\n      tag_143\n      0x04\n      dup1\n      calldatasize\n      sub\n      dup2\n      add\n      swap1\n      tag_144\n      swap2\n      swap1\n      tag_145\n      jump\t// in\n    tag_144:\n      tag_146\n      jump\t// in\n    tag_143:\n      stop\n        /* \"EHealth.sol\":1114:1143  Sensor[] public sensorsDoctor */\n    tag_29:\n      tag_147\n      0x04\n      dup1\n      calldatasize\n      sub\n      dup2\n      add\n      swap1\n      tag_148\n      swap2\n      swap1\n      tag_40\n      jump\t// in\n    tag_148:\n      tag_149\n      jump\t// in\n    tag_147:\n      mload(0x40)\n      tag_150\n      swap6\n      swap5\n      swap4\n      swap3\n      swap2\n      swap1\n      tag_92\n      jump\t// in\n    tag_150:\n      mload(0x40)\n      dup1\n      swap2\n      sub\n      swap1\n      return\n        /* \"EHealth.sol\":6628:6899  function getAllDoctors() public view returns (Doctor[] memory){\r... */\n    tag_30:\n      tag_151\n      tag_152\n      jump\t// in\n    tag_151:\n      mload(0x40)\n      tag_153\n      swap2\n      swap1\n      tag_129\n      jump\t// in\n    tag_153:\n      mload(0x40)\n      dup1\n      swap2\n      sub\n      swap1\n      return\n        /* \"EHealth.sol\":9165:9439  function ReadSensor(uint _id)public view returns(string memory,string memory, address, bool){\r... */\n    tag_41:\n        /* \"EHealth.sol\":9214:9227  string memory */\n      0x60\n        /* \"EHealth.sol\":9228:9241  string memory */\n      dup1\n        /* \"EHealth.sol\":9243:9250  address */\n      0x00\n        /* \"EHealth.sol\":9252:9256  bool */\n      dup1\n        /* \"EHealth.sol\":9268:9278  uint index */\n      0x00\n        /* \"EHealth.sol\":9281:9296  FindSensor(_id) */\n      tag_155\n        /* \"EHealth.sol\":9292:9295  _id */\n      dup7\n        /* \"EHealth.sol\":9281:9291  FindSensor */\n      tag_156\n        /* \"EHealth.sol\":9281:9296  FindSensor(_id) */\n      jump\t// in\n    tag_155:\n        /* \"EHealth.sol\":9268:9296  uint index = FindSensor(_id) */\n      swap1\n      pop\n        /* \"EHealth.sol\":9315:9328  sensorsDoctor */\n      0x08\n        /* \"EHealth.sol\":9329:9334  index */\n      dup2\n        /* \"EHealth.sol\":9315:9335  sensorsDoctor[index] */\n      dup2\n      sload\n      dup2\n      lt\n      tag_157\n      jumpi\n      invalid\n    tag_157:\n      swap1\n      0x00\n      mstore\n      keccak256(0x00, 0x20)\n      swap1\n      0x05\n      mul\n      add\n        /* \"EHealth.sol\":9315:9339  sensorsDoctor[index].MAC */\n      0x01\n      add\n        /* \"EHealth.sol\":9340:9353  sensorsDoctor */\n      0x08\n        /* \"EHealth.sol\":9354:9359  index */\n      dup3\n        /* \"EHealth.sol\":9340:9360  sensorsDoctor[index] */\n      dup2\n      sload\n      dup2\n      lt\n      tag_159\n      jumpi\n      invalid\n    tag_159:\n      swap1\n      0x00\n      mstore\n      keccak256(0x00, 0x20)\n      swap1\n      0x05\n      mul\n      add\n        /* \"EHealth.sol\":9340:9372  sensorsDoctor[index].patientName */\n      0x02\n      add\n        /* \"EHealth.sol\":9373:9386  sensorsDoctor */\n      0x08\n        /* \"EHealth.sol\":9387:9392  index */\n      dup4\n        /* \"EHealth.sol\":9373:9393  sensorsDoctor[index] */\n      dup2\n      sload\n      dup2\n      lt\n      tag_161\n      jumpi\n      invalid\n    tag_161:\n      swap1\n      0x00\n      mstore\n      keccak256(0x00, 0x20)\n      swap1\n      0x05\n      mul\n      add\n        /* \"EHealth.sol\":9373:9402  sensorsDoctor[index].idDoctor */\n      0x03\n      add\n      0x00\n      swap1\n      sload\n      swap1\n      0x0100\n      exp\n      swap1\n      div\n      0xffffffffffffffffffffffffffffffffffffffff\n      and\n        /* \"EHealth.sol\":9403:9416  sensorsDoctor */\n      0x08\n        /* \"EHealth.sol\":9417:9422  index */\n      dup5\n        /* \"EHealth.sol\":9403:9423  sensorsDoctor[index] */\n      dup2\n      sload\n      dup2\n      lt\n      tag_163\n      jumpi\n      invalid\n    tag_163:\n      swap1\n      0x00\n      mstore\n      keccak256(0x00, 0x20)\n      swap1\n      0x05\n      mul\n      add\n        /* \"EHealth.sol\":9403:9430  sensorsDoctor[index].active */\n      0x03\n      add\n      0x14\n      swap1\n      sload\n      swap1\n      0x0100\n      exp\n      swap1\n      div\n      0xff\n      and\n        /* \"EHealth.sol\":9307:9431  return (sensorsDoctor[index].MAC,sensorsDoctor[index].patientName,sensorsDoctor[index].idDoctor,sensorsDoctor[index].active) */\n      dup4\n      dup1\n      sload\n      0x01\n      dup2\n      0x01\n      and\n      iszero\n      0x0100\n      mul\n      sub\n      and\n      0x02\n      swap1\n      div\n      dup1\n      0x1f\n      add\n      0x20\n      dup1\n      swap2\n      div\n      mul\n      0x20\n      add\n      mload(0x40)\n      swap1\n      dup2\n      add\n      0x40\n      mstore\n      dup1\n      swap3\n      swap2\n      swap1\n      dup2\n      dup2\n      mstore\n      0x20\n      add\n      dup3\n      dup1\n      sload\n      0x01\n      dup2\n      0x01\n      and\n      iszero\n      0x0100\n      mul\n      sub\n      and\n      0x02\n      swap1\n      div\n      dup1\n      iszero\n      tag_165\n      jumpi\n      dup1\n      0x1f\n      lt\n      tag_166\n      jumpi\n      0x0100\n      dup1\n      dup4\n      sload\n      div\n      mul\n      dup4\n      mstore\n      swap2\n      0x20\n      add\n      swap2\n      jump(tag_165)\n    tag_166:\n      dup3\n      add\n      swap2\n      swap1\n      0x00\n      mstore\n      keccak256(0x00, 0x20)\n      swap1\n    tag_167:\n      dup2\n      sload\n      dup2\n      mstore\n      swap1\n      0x01\n      add\n      swap1\n      0x20\n      add\n      dup1\n      dup4\n      gt\n      tag_167\n      jumpi\n      dup3\n      swap1\n      sub\n      0x1f\n      and\n      dup3\n      add\n      swap2\n    tag_165:\n      pop\n      pop\n      pop\n      pop\n      pop\n      swap4\n      pop\n      dup3\n      dup1\n      sload\n      0x01\n      dup2\n      0x01\n      and\n      iszero\n      0x0100\n      mul\n      sub\n      and\n      0x02\n      swap1\n      div\n      dup1\n      0x1f\n      add\n      0x20\n      dup1\n      swap2\n      div\n      mul\n      0x20\n      add\n      mload(0x40)\n      swap1\n      dup2\n      add\n      0x40\n      mstore\n      dup1\n      swap3\n      swap2\n      swap1\n      dup2\n      dup2\n      mstore\n      0x20\n      add\n      dup3\n      dup1\n      sload\n      0x01\n      dup2\n      0x01\n      and\n      iszero\n      0x0100\n      mul\n      sub\n      and\n      0x02\n      swap1\n      div\n      dup1\n      iszero\n      tag_168\n      jumpi\n      dup1\n      0x1f\n      lt\n      tag_169\n      jumpi\n      0x0100\n      dup1\n      dup4\n      sload\n      div\n      mul\n      dup4\n      mstore\n      swap2\n      0x20\n      add\n      swap2\n      jump(tag_168)\n    tag_169:\n      dup3\n      add\n      swap2\n      swap1\n      0x00\n      mstore\n      keccak256(0x00, 0x20)\n      swap1\n    tag_170:\n      dup2\n      sload\n      dup2\n      mstore\n      swap1\n      0x01\n      add\n      swap1\n      0x20\n      add\n      dup1\n      dup4\n      gt\n      tag_170\n      jumpi\n      dup3\n      swap1\n      sub\n      0x1f\n      and\n      dup3\n      add\n      swap2\n    tag_168:\n      pop\n      pop\n      pop\n      pop\n      pop\n      swap3\n      pop\n      swap5\n      pop\n      swap5\n      pop\n      swap5\n      pop\n      swap5\n      pop\n      pop\n        /* \"EHealth.sol\":9165:9439  function ReadSensor(uint _id)public view returns(string memory,string memory, address, bool){\r... */\n      swap2\n      swap4\n      pop\n      swap2\n      swap4\n      jump\t// out\n        /* \"EHealth.sol\":7451:7835  function AddSensor(string memory _mac, string memory _patientName, address _idDoctor, bool _active) public {\r... */\n    tag_47:\n        /* \"EHealth.sol\":7569:7590  FindDoctor(_idDoctor) */\n      tag_172\n        /* \"EHealth.sol\":7580:7589  _idDoctor */\n      dup3\n        /* \"EHealth.sol\":7569:7579  FindDoctor */\n      tag_173\n        /* \"EHealth.sol\":7569:7590  FindDoctor(_idDoctor) */\n      jump\t// in\n    tag_172:\n      pop\n        /* \"EHealth.sol\":7601:7620  uint[] memory _data */\n      0x60\n        /* \"EHealth.sol\":7631:7644  sensorsDoctor */\n      0x08\n        /* \"EHealth.sol\":7650:7716  Sensor(nextIdSensor,_mac, _patientName, _idDoctor, _active, _data) */\n      mload(0x40)\n      dup1\n      0xc0\n      add\n      0x40\n      mstore\n      dup1\n        /* \"EHealth.sol\":7657:7669  nextIdSensor */\n      sload(0x01)\n        /* \"EHealth.sol\":7650:7716  Sensor(nextIdSensor,_mac, _patientName, _idDoctor, _active, _data) */\n      dup2\n      mstore\n      0x20\n      add\n        /* \"EHealth.sol\":7670:7674  _mac */\n      dup8\n        /* \"EHealth.sol\":7650:7716  Sensor(nextIdSensor,_mac, _patientName, _idDoctor, _active, _data) */\n      dup2\n      mstore\n      0x20\n      add\n        /* \"EHealth.sol\":7676:7688  _patientName */\n      dup7\n        /* \"EHealth.sol\":7650:7716  Sensor(nextIdSensor,_mac, _patientName, _idDoctor, _active, _data) */\n      dup2\n      mstore\n      0x20\n      add\n        /* \"EHealth.sol\":7690:7699  _idDoctor */\n      dup6\n        /* \"EHealth.sol\":7650:7716  Sensor(nextIdSensor,_mac, _patientName, _idDoctor, _active, _data) */\n      0xffffffffffffffffffffffffffffffffffffffff\n      and\n      dup2\n      mstore\n      0x20\n      add\n        /* \"EHealth.sol\":7701:7708  _active */\n      dup5\n        /* \"EHealth.sol\":7650:7716  Sensor(nextIdSensor,_mac, _patientName, _idDoctor, _active, _data) */\n      iszero\n      iszero\n      dup2\n      mstore\n      0x20\n      add\n        /* \"EHealth.sol\":7710:7715  _data */\n      dup4\n        /* \"EHealth.sol\":7650:7716  Sensor(nextIdSensor,_mac, _patientName, _idDoctor, _active, _data) */\n      dup2\n      mstore\n      pop\n        /* \"EHealth.sol\":7631:7717  sensorsDoctor.push(Sensor(nextIdSensor,_mac, _patientName, _idDoctor, _active, _data)) */\n      swap1\n      dup1\n      0x01\n      dup2\n      sload\n      add\n      dup1\n      dup3\n      sstore\n      dup1\n      swap2\n      pop\n      pop\n      0x01\n      swap1\n      sub\n      swap1\n      0x00\n      mstore\n      keccak256(0x00, 0x20)\n      swap1\n      0x05\n      mul\n      add\n      0x00\n      swap1\n      swap2\n      swap1\n      swap2\n      swap1\n      swap2\n      pop\n      0x00\n      dup3\n      add\n      mload\n      dup2\n      0x00\n      add\n      sstore\n      0x20\n      dup3\n      add\n      mload\n      dup2\n      0x01\n      add\n      swap1\n      dup1\n      mload\n      swap1\n      0x20\n      add\n      swap1\n      tag_175\n      swap3\n      swap2\n      swap1\n      tag_176\n      jump\t// in\n    tag_175:\n      pop\n      0x40\n      dup3\n      add\n      mload\n      dup2\n      0x02\n      add\n      swap1\n      dup1\n      mload\n      swap1\n      0x20\n      add\n      swap1\n      tag_177\n      swap3\n      swap2\n      swap1\n      tag_176\n      jump\t// in\n    tag_177:\n      pop\n      0x60\n      dup3\n      add\n      mload\n      dup2\n      0x03\n      add\n      exp(0x0100, 0x00)\n      dup2\n      sload\n      dup2\n      0xffffffffffffffffffffffffffffffffffffffff\n      mul\n      not\n      and\n      swap1\n      dup4\n      0xffffffffffffffffffffffffffffffffffffffff\n      and\n      mul\n      or\n      swap1\n      sstore\n      pop\n      0x80\n      dup3\n      add\n      mload\n      dup2\n      0x03\n      add\n      exp(0x0100, 0x14)\n      dup2\n      sload\n      dup2\n      0xff\n      mul\n      not\n      and\n      swap1\n      dup4\n      iszero\n      iszero\n      mul\n      or\n      swap1\n      sstore\n      pop\n      0xa0\n      dup3\n      add\n      mload\n      dup2\n      0x04\n      add\n      swap1\n      dup1\n      mload\n      swap1\n      0x20\n      add\n      swap1\n      tag_178\n      swap3\n      swap2\n      swap1\n      tag_179\n      jump\t// in\n    tag_178:\n      pop\n      pop\n      pop\n        /* \"EHealth.sol\":7733:7802  NewSensor(nextIdSensor,_mac, _patientName, _idDoctor, _active, _data) */\n      0x23f4ceea50d8ef88465d5bb07ab2960540f3c2414851cf0a137f2ee3a4ab6fa8\n        /* \"EHealth.sol\":7743:7755  nextIdSensor */\n      sload(0x01)\n        /* \"EHealth.sol\":7756:7760  _mac */\n      dup7\n        /* \"EHealth.sol\":7762:7774  _patientName */\n      dup7\n        /* \"EHealth.sol\":7776:7785  _idDoctor */\n      dup7\n        /* \"EHealth.sol\":7787:7794  _active */\n      dup7\n        /* \"EHealth.sol\":7796:7801  _data */\n      dup7\n        /* \"EHealth.sol\":7733:7802  NewSensor(nextIdSensor,_mac, _patientName, _idDoctor, _active, _data) */\n      mload(0x40)\n      tag_180\n      swap7\n      swap6\n      swap5\n      swap4\n      swap3\n      swap2\n      swap1\n      tag_181\n      jump\t// in\n    tag_180:\n      mload(0x40)\n      dup1\n      swap2\n      sub\n      swap1\n      log1\n        /* \"EHealth.sol\":7813:7825  nextIdSensor */\n      0x01\n      0x00\n        /* \"EHealth.sol\":7813:7827  nextIdSensor++ */\n      dup2\n      sload\n      dup1\n      swap3\n      swap2\n      swap1\n      0x01\n      add\n      swap2\n      swap1\n      pop\n      sstore\n      pop\n        /* \"EHealth.sol\":7451:7835  function AddSensor(string memory _mac, string memory _patientName, address _idDoctor, bool _active) public {\r... */\n      pop\n      pop\n      pop\n      pop\n      pop\n      jump\t// out\n        /* \"EHealth.sol\":6495:6598  function Length_Doctors() public view returns (uint256){\r... */\n    tag_49:\n        /* \"EHealth.sol\":6542:6549  uint256 */\n      0x00\n        /* \"EHealth.sol\":6568:6583  hospitalCenters */\n      0x04\n        /* \"EHealth.sol\":6568:6590  hospitalCenters.length */\n      dup1\n      sload\n      swap1\n      pop\n        /* \"EHealth.sol\":6561:6590  return hospitalCenters.length */\n      swap1\n      pop\n        /* \"EHealth.sol\":6495:6598  function Length_Doctors() public view returns (uint256){\r... */\n      swap1\n      jump\t// out\n        /* \"EHealth.sol\":10320:10476  function sendData(uint _idSensor, uint[] memory _data) public{\r... */\n    tag_55:\n        /* \"EHealth.sol\":10392:10402  uint index */\n      0x00\n        /* \"EHealth.sol\":10405:10426  FindSensor(_idSensor) */\n      tag_184\n        /* \"EHealth.sol\":10416:10425  _idSensor */\n      dup4\n        /* \"EHealth.sol\":10405:10415  FindSensor */\n      tag_156\n        /* \"EHealth.sol\":10405:10426  FindSensor(_idSensor) */\n      jump\t// in\n    tag_184:\n        /* \"EHealth.sol\":10392:10426  uint index = FindSensor(_idSensor) */\n      swap1\n      pop\n        /* \"EHealth.sol\":10463:10468  _data */\n      dup2\n        /* \"EHealth.sol\":10437:10450  sensorsDoctor */\n      0x08\n        /* \"EHealth.sol\":10451:10456  index */\n      dup3\n        /* \"EHealth.sol\":10437:10457  sensorsDoctor[index] */\n      dup2\n      sload\n      dup2\n      lt\n      tag_185\n      jumpi\n      invalid\n    tag_185:\n      swap1\n      0x00\n      mstore\n      keccak256(0x00, 0x20)\n      swap1\n      0x05\n      mul\n      add\n        /* \"EHealth.sol\":10437:10462  sensorsDoctor[index].data */\n      0x04\n      add\n        /* \"EHealth.sol\":10437:10468  sensorsDoctor[index].data=_data */\n      swap1\n      dup1\n      mload\n      swap1\n      0x20\n      add\n      swap1\n      tag_187\n      swap3\n      swap2\n      swap1\n      tag_179\n      jump\t// in\n    tag_187:\n      pop\n        /* \"EHealth.sol\":10320:10476  function sendData(uint _idSensor, uint[] memory _data) public{\r... */\n      pop\n      pop\n      pop\n      jump\t// out\n        /* \"EHealth.sol\":2504:2930  function RemoveHospital(address _address) public {\r... */\n    tag_59:\n        /* \"EHealth.sol\":2564:2574  uint index */\n      0x00\n        /* \"EHealth.sol\":2577:2599  FindHospital(_address) */\n      tag_189\n        /* \"EHealth.sol\":2590:2598  _address */\n      dup3\n        /* \"EHealth.sol\":2577:2589  FindHospital */\n      tag_190\n        /* \"EHealth.sol\":2577:2599  FindHospital(_address) */\n      jump\t// in\n    tag_189:\n        /* \"EHealth.sol\":2564:2599  uint index = FindHospital(_address) */\n      swap1\n      pop\n        /* \"EHealth.sol\":2644:2649  false */\n      0x00\n        /* \"EHealth.sol\":2610:2625  hospitalCenters */\n      0x04\n        /* \"EHealth.sol\":2626:2631  index */\n      dup3\n        /* \"EHealth.sol\":2610:2632  hospitalCenters[index] */\n      dup2\n      sload\n      dup2\n      lt\n      tag_191\n      jumpi\n      invalid\n    tag_191:\n      swap1\n      0x00\n      mstore\n      keccak256(0x00, 0x20)\n      swap1\n      0x06\n      mul\n      add\n        /* \"EHealth.sol\":2610:2643  hospitalCenters[index].permission */\n      0x05\n      add\n      0x00\n        /* \"EHealth.sol\":2610:2649  hospitalCenters[index].permission=false */\n      0x0100\n      exp\n      dup2\n      sload\n      dup2\n      0xff\n      mul\n      not\n      and\n      swap1\n      dup4\n      iszero\n      iszero\n      mul\n      or\n      swap1\n      sstore\n      pop\n        /* \"EHealth.sol\":2665:2922  DeleteHospital(hospitalCenters[index].idHospital, \r... */\n      0x05818f5e23a2c2bb34c81792ea8e3397d3f8ad179cb93a5fa57b3d4681564aa0\n        /* \"EHealth.sol\":2680:2695  hospitalCenters */\n      0x04\n        /* \"EHealth.sol\":2696:2701  index */\n      dup3\n        /* \"EHealth.sol\":2680:2702  hospitalCenters[index] */\n      dup2\n      sload\n      dup2\n      lt\n      tag_193\n      jumpi\n      invalid\n    tag_193:\n      swap1\n      0x00\n      mstore\n      keccak256(0x00, 0x20)\n      swap1\n      0x06\n      mul\n      add\n        /* \"EHealth.sol\":2680:2713  hospitalCenters[index].idHospital */\n      0x00\n      add\n      0x00\n      swap1\n      sload\n      swap1\n      0x0100\n      exp\n      swap1\n      div\n      0xffffffffffffffffffffffffffffffffffffffff\n      and\n        /* \"EHealth.sol\":2725:2740  hospitalCenters */\n      0x04\n        /* \"EHealth.sol\":2741:2746  index */\n      dup4\n        /* \"EHealth.sol\":2725:2747  hospitalCenters[index] */\n      dup2\n      sload\n      dup2\n      lt\n      tag_195\n      jumpi\n      invalid\n    tag_195:\n      swap1\n      0x00\n      mstore\n      keccak256(0x00, 0x20)\n      swap1\n      0x06\n      mul\n      add\n        /* \"EHealth.sol\":2725:2752  hospitalCenters[index].name */\n      0x01\n      add\n        /* \"EHealth.sol\":2764:2779  hospitalCenters */\n      0x04\n        /* \"EHealth.sol\":2780:2785  index */\n      dup5\n        /* \"EHealth.sol\":2764:2786  hospitalCenters[index] */\n      dup2\n      sload\n      dup2\n      lt\n      tag_197\n      jumpi\n      invalid\n    tag_197:\n      swap1\n      0x00\n      mstore\n      keccak256(0x00, 0x20)\n      swap1\n      0x06\n      mul\n      add\n        /* \"EHealth.sol\":2764:2791  hospitalCenters[index].city */\n      0x02\n      add\n        /* \"EHealth.sol\":2803:2818  hospitalCenters */\n      0x04\n        /* \"EHealth.sol\":2819:2824  index */\n      dup6\n        /* \"EHealth.sol\":2803:2825  hospitalCenters[index] */\n      dup2\n      sload\n      dup2\n      lt\n      tag_199\n      jumpi\n      invalid\n    tag_199:\n      swap1\n      0x00\n      mstore\n      keccak256(0x00, 0x20)\n      swap1\n      0x06\n      mul\n      add\n        /* \"EHealth.sol\":2803:2831  hospitalCenters[index].state */\n      0x03\n      add\n        /* \"EHealth.sol\":2843:2858  hospitalCenters */\n      0x04\n        /* \"EHealth.sol\":2859:2864  index */\n      dup7\n        /* \"EHealth.sol\":2843:2865  hospitalCenters[index] */\n      dup2\n      sload\n      dup2\n      lt\n      tag_201\n      jumpi\n      invalid\n    tag_201:\n      swap1\n      0x00\n      mstore\n      keccak256(0x00, 0x20)\n      swap1\n      0x06\n      mul\n      add\n        /* \"EHealth.sol\":2843:2876  hospitalCenters[index].postalCode */\n      0x04\n      add\n      sload\n        /* \"EHealth.sol\":2888:2903  hospitalCenters */\n      0x04\n        /* \"EHealth.sol\":2904:2909  index */\n      dup8\n        /* \"EHealth.sol\":2888:2910  hospitalCenters[index] */\n      dup2\n      sload\n      dup2\n      lt\n      tag_203\n      jumpi\n      invalid\n    tag_203:\n      swap1\n      0x00\n      mstore\n      keccak256(0x00, 0x20)\n      swap1\n      0x06\n      mul\n      add\n        /* \"EHealth.sol\":2888:2921  hospitalCenters[index].permission */\n      0x05\n      add\n      0x00\n      swap1\n      sload\n      swap1\n      0x0100\n      exp\n      swap1\n      div\n      0xff\n      and\n        /* \"EHealth.sol\":2665:2922  DeleteHospital(hospitalCenters[index].idHospital, \r... */\n      mload(0x40)\n      tag_205\n      swap7\n      swap6\n      swap5\n      swap4\n      swap3\n      swap2\n      swap1\n      tag_206\n      jump\t// in\n    tag_205:\n      mload(0x40)\n      dup1\n      swap2\n      sub\n      swap1\n      log1\n        /* \"EHealth.sol\":2504:2930  function RemoveHospital(address _address) public {\r... */\n      pop\n      pop\n      jump\t// out\n        /* \"EHealth.sol\":3735:4014  function getAllHospitals() public view returns (Hospital[] memory){\r... */\n    tag_61:\n        /* \"EHealth.sol\":3783:3800  Hospital[] memory */\n      0x60\n        /* \"EHealth.sol\":3812:3833  Hospital[] memory ret */\n      0x00\n        /* \"EHealth.sol\":3851:3866  hospitalCenters */\n      0x04\n        /* \"EHealth.sol\":3851:3873  hospitalCenters.length */\n      dup1\n      sload\n      swap1\n      pop\n        /* \"EHealth.sol\":3836:3874  new Hospital[](hospitalCenters.length) */\n      0xffffffffffffffff\n      dup2\n      gt\n      dup1\n      iszero\n      tag_208\n      jumpi\n      0x00\n      dup1\n      revert\n    tag_208:\n      pop\n      mload(0x40)\n      swap1\n      dup1\n      dup3\n      mstore\n      dup1\n      0x20\n      mul\n      0x20\n      add\n      dup3\n      add\n      0x40\n      mstore\n      dup1\n      iszero\n      tag_209\n      jumpi\n      dup2\n      0x20\n      add\n    tag_210:\n      tag_211\n      tag_212\n      jump\t// in\n    tag_211:\n      dup2\n      mstore\n      0x20\n      add\n      swap1\n      0x01\n      swap1\n      sub\n      swap1\n      dup2\n      tag_210\n      jumpi\n      swap1\n      pop\n    tag_209:\n      pop\n        /* \"EHealth.sol\":3812:3874  Hospital[] memory ret = new Hospital[](hospitalCenters.length) */\n      swap1\n      pop\n        /* \"EHealth.sol\":3890:3896  uint i */\n      0x00\n        /* \"EHealth.sol\":3885:3986  for (uint i = 0; i< hospitalCenters.length; i++) {\r... */\n    tag_213:\n        /* \"EHealth.sol\":3905:3920  hospitalCenters */\n      0x04\n        /* \"EHealth.sol\":3905:3927  hospitalCenters.length */\n      dup1\n      sload\n      swap1\n      pop\n        /* \"EHealth.sol\":3902:3903  i */\n      dup2\n        /* \"EHealth.sol\":3902:3927  i< hospitalCenters.length */\n      lt\n        /* \"EHealth.sol\":3885:3986  for (uint i = 0; i< hospitalCenters.length; i++) {\r... */\n      iszero\n      tag_214\n      jumpi\n        /* \"EHealth.sol\":3956:3971  hospitalCenters */\n      0x04\n        /* \"EHealth.sol\":3972:3973  i */\n      dup2\n        /* \"EHealth.sol\":3956:3974  hospitalCenters[i] */\n      dup2\n      sload\n      dup2\n      lt\n      tag_216\n      jumpi\n      invalid\n    tag_216:\n      swap1\n      0x00\n      mstore\n      keccak256(0x00, 0x20)\n      swap1\n      0x06\n      mul\n      add\n        /* \"EHealth.sol\":3949:3974  ret[i]=hospitalCenters[i] */\n      mload(0x40)\n      dup1\n      0xc0\n      add\n      0x40\n      mstore\n      swap1\n      dup2\n      0x00\n      dup3\n      add\n      0x00\n      swap1\n      sload\n      swap1\n      0x0100\n      exp\n      swap1\n      div\n      0xffffffffffffffffffffffffffffffffffffffff\n      and\n      0xffffffffffffffffffffffffffffffffffffffff\n      and\n      0xffffffffffffffffffffffffffffffffffffffff\n      and\n      dup2\n      mstore\n      0x20\n      add\n      0x01\n      dup3\n      add\n      dup1\n      sload\n      0x01\n      dup2\n      0x01\n      and\n      iszero\n      0x0100\n      mul\n      sub\n      and\n      0x02\n      swap1\n      div\n      dup1\n      0x1f\n      add\n      0x20\n      dup1\n      swap2\n      div\n      mul\n      0x20\n      add\n      mload(0x40)\n      swap1\n      dup2\n      add\n      0x40\n      mstore\n      dup1\n      swap3\n      swap2\n      swap1\n      dup2\n      dup2\n      mstore\n      0x20\n      add\n      dup3\n      dup1\n      sload\n      0x01\n      dup2\n      0x01\n      and\n      iszero\n      0x0100\n      mul\n      sub\n      and\n      0x02\n      swap1\n      div\n      dup1\n      iszero\n      tag_218\n      jumpi\n      dup1\n      0x1f\n      lt\n      tag_219\n      jumpi\n      0x0100\n      dup1\n      dup4\n      sload\n      div\n      mul\n      dup4\n      mstore\n      swap2\n      0x20\n      add\n      swap2\n      jump(tag_218)\n    tag_219:\n      dup3\n      add\n      swap2\n      swap1\n      0x00\n      mstore\n      keccak256(0x00, 0x20)\n      swap1\n    tag_220:\n      dup2\n      sload\n      dup2\n      mstore\n      swap1\n      0x01\n      add\n      swap1\n      0x20\n      add\n      dup1\n      dup4\n      gt\n      tag_220\n      jumpi\n      dup3\n      swap1\n      sub\n      0x1f\n      and\n      dup3\n      add\n      swap2\n    tag_218:\n      pop\n      pop\n      pop\n      pop\n      pop\n      dup2\n      mstore\n      0x20\n      add\n      0x02\n      dup3\n      add\n      dup1\n      sload\n      0x01\n      dup2\n      0x01\n      and\n      iszero\n      0x0100\n      mul\n      sub\n      and\n      0x02\n      swap1\n      div\n      dup1\n      0x1f\n      add\n      0x20\n      dup1\n      swap2\n      div\n      mul\n      0x20\n      add\n      mload(0x40)\n      swap1\n      dup2\n      add\n      0x40\n      mstore\n      dup1\n      swap3\n      swap2\n      swap1\n      dup2\n      dup2\n      mstore\n      0x20\n      add\n      dup3\n      dup1\n      sload\n      0x01\n      dup2\n      0x01\n      and\n      iszero\n      0x0100\n      mul\n      sub\n      and\n      0x02\n      swap1\n      div\n      dup1\n      iszero\n      tag_221\n      jumpi\n      dup1\n      0x1f\n      lt\n      tag_222\n      jumpi\n      0x0100\n      dup1\n      dup4\n      sload\n      div\n      mul\n      dup4\n      mstore\n      swap2\n      0x20\n      add\n      swap2\n      jump(tag_221)\n    tag_222:\n      dup3\n      add\n      swap2\n      swap1\n      0x00\n      mstore\n      keccak256(0x00, 0x20)\n      swap1\n    tag_223:\n      dup2\n      sload\n      dup2\n      mstore\n      swap1\n      0x01\n      add\n      swap1\n      0x20\n      add\n      dup1\n      dup4\n      gt\n      tag_223\n      jumpi\n      dup3\n      swap1\n      sub\n      0x1f\n      and\n      dup3\n      add\n      swap2\n    tag_221:\n      pop\n      pop\n      pop\n      pop\n      pop\n      dup2\n      mstore\n      0x20\n      add\n      0x03\n      dup3\n      add\n      dup1\n      sload\n      0x01\n      dup2\n      0x01\n      and\n      iszero\n      0x0100\n      mul\n      sub\n      and\n      0x02\n      swap1\n      div\n      dup1\n      0x1f\n      add\n      0x20\n      dup1\n      swap2\n      div\n      mul\n      0x20\n      add\n      mload(0x40)\n      swap1\n      dup2\n      add\n      0x40\n      mstore\n      dup1\n      swap3\n      swap2\n      swap1\n      dup2\n      dup2\n      mstore\n      0x20\n      add\n      dup3\n      dup1\n      sload\n      0x01\n      dup2\n      0x01\n      and\n      iszero\n      0x0100\n      mul\n      sub\n      and\n      0x02\n      swap1\n      div\n      dup1\n      iszero\n      tag_224\n      jumpi\n      dup1\n      0x1f\n      lt\n      tag_225\n      jumpi\n      0x0100\n      dup1\n      dup4\n      sload\n      div\n      mul\n      dup4\n      mstore\n      swap2\n      0x20\n      add\n      swap2\n      jump(tag_224)\n    tag_225:\n      dup3\n      add\n      swap2\n      swap1\n      0x00\n      mstore\n      keccak256(0x00, 0x20)\n      swap1\n    tag_226:\n      dup2\n      sload\n      dup2\n      mstore\n      swap1\n      0x01\n      add\n      swap1\n      0x20\n      add\n      dup1\n      dup4\n      gt\n      tag_226\n      jumpi\n      dup3\n      swap1\n      sub\n      0x1f\n      and\n      dup3\n      add\n      swap2\n    tag_224:\n      pop\n      pop\n      pop\n      pop\n      pop\n      dup2\n      mstore\n      0x20\n      add\n      0x04\n      dup3\n      add\n      sload\n      dup2\n      mstore\n      0x20\n      add\n      0x05\n      dup3\n      add\n      0x00\n      swap1\n      sload\n      swap1\n      0x0100\n      exp\n      swap1\n      div\n      0xff\n      and\n      iszero\n      iszero\n      iszero\n      iszero\n      dup2\n      mstore\n      pop\n      pop\n        /* \"EHealth.sol\":3949:3952  ret */\n      dup3\n        /* \"EHealth.sol\":3953:3954  i */\n      dup3\n        /* \"EHealth.sol\":3949:3955  ret[i] */\n      dup2\n      mload\n      dup2\n      lt\n      tag_227\n      jumpi\n      invalid\n    tag_227:\n      0x20\n      mul\n      0x20\n      add\n      add\n        /* \"EHealth.sol\":3949:3974  ret[i]=hospitalCenters[i] */\n      dup2\n      swap1\n      mstore\n      pop\n        /* \"EHealth.sol\":3929:3932  i++ */\n      dup1\n      dup1\n      0x01\n      add\n      swap2\n      pop\n      pop\n        /* \"EHealth.sol\":3885:3986  for (uint i = 0; i< hospitalCenters.length; i++) {\r... */\n      jump(tag_213)\n    tag_214:\n      pop\n        /* \"EHealth.sol\":4003:4006  ret */\n      dup1\n        /* \"EHealth.sol\":3996:4006  return ret */\n      swap2\n      pop\n      pop\n        /* \"EHealth.sol\":3735:4014  function getAllHospitals() public view returns (Hospital[] memory){\r... */\n      swap1\n      jump\t// out\n        /* \"EHealth.sol\":9604:9869  function getAllSensors() public view returns (Sensor[] memory){\r... */\n    tag_65:\n        /* \"EHealth.sol\":9650:9665  Sensor[] memory */\n      0x60\n        /* \"EHealth.sol\":9677:9696  Sensor[] memory ret */\n      0x00\n        /* \"EHealth.sol\":9712:9725  sensorsDoctor */\n      0x08\n        /* \"EHealth.sol\":9712:9732  sensorsDoctor.length */\n      dup1\n      sload\n      swap1\n      pop\n        /* \"EHealth.sol\":9699:9733  new Sensor[](sensorsDoctor.length) */\n      0xffffffffffffffff\n      dup2\n      gt\n      dup1\n      iszero\n      tag_229\n      jumpi\n      0x00\n      dup1\n      revert\n    tag_229:\n      pop\n      mload(0x40)\n      swap1\n      dup1\n      dup3\n      mstore\n      dup1\n      0x20\n      mul\n      0x20\n      add\n      dup3\n      add\n      0x40\n      mstore\n      dup1\n      iszero\n      tag_230\n      jumpi\n      dup2\n      0x20\n      add\n    tag_231:\n      tag_232\n      tag_233\n      jump\t// in\n    tag_232:\n      dup2\n      mstore\n      0x20\n      add\n      swap1\n      0x01\n      swap1\n      sub\n      swap1\n      dup2\n      tag_231\n      jumpi\n      swap1\n      pop\n    tag_230:\n      pop\n        /* \"EHealth.sol\":9677:9733  Sensor[] memory ret = new Sensor[](sensorsDoctor.length) */\n      swap1\n      pop\n        /* \"EHealth.sol\":9749:9755  uint i */\n      0x00\n        /* \"EHealth.sol\":9744:9841  for (uint i = 0; i< sensorsDoctor.length; i++) {\r... */\n    tag_234:\n        /* \"EHealth.sol\":9764:9777  sensorsDoctor */\n      0x08\n        /* \"EHealth.sol\":9764:9784  sensorsDoctor.length */\n      dup1\n      sload\n      swap1\n      pop\n        /* \"EHealth.sol\":9761:9762  i */\n      dup2\n        /* \"EHealth.sol\":9761:9784  i< sensorsDoctor.length */\n      lt\n        /* \"EHealth.sol\":9744:9841  for (uint i = 0; i< sensorsDoctor.length; i++) {\r... */\n      iszero\n      tag_235\n      jumpi\n        /* \"EHealth.sol\":9813:9826  sensorsDoctor */\n      0x08\n        /* \"EHealth.sol\":9827:9828  i */\n      dup2\n        /* \"EHealth.sol\":9813:9829  sensorsDoctor[i] */\n      dup2\n      sload\n      dup2\n      lt\n      tag_237\n      jumpi\n      invalid\n    tag_237:\n      swap1\n      0x00\n      mstore\n      keccak256(0x00, 0x20)\n      swap1\n      0x05\n      mul\n      add\n        /* \"EHealth.sol\":9806:9829  ret[i]=sensorsDoctor[i] */\n      mload(0x40)\n      dup1\n      0xc0\n      add\n      0x40\n      mstore\n      swap1\n      dup2\n      0x00\n      dup3\n      add\n      sload\n      dup2\n      mstore\n      0x20\n      add\n      0x01\n      dup3\n      add\n      dup1\n      sload\n      0x01\n      dup2\n      0x01\n      and\n      iszero\n      0x0100\n      mul\n      sub\n      and\n      0x02\n      swap1\n      div\n      dup1\n      0x1f\n      add\n      0x20\n      dup1\n      swap2\n      div\n      mul\n      0x20\n      add\n      mload(0x40)\n      swap1\n      dup2\n      add\n      0x40\n      mstore\n      dup1\n      swap3\n      swap2\n      swap1\n      dup2\n      dup2\n      mstore\n      0x20\n      add\n      dup3\n      dup1\n      sload\n      0x01\n      dup2\n      0x01\n      and\n      iszero\n      0x0100\n      mul\n      sub\n      and\n      0x02\n      swap1\n      div\n      dup1\n      iszero\n      tag_239\n      jumpi\n      dup1\n      0x1f\n      lt\n      tag_240\n      jumpi\n      0x0100\n      dup1\n      dup4\n      sload\n      div\n      mul\n      dup4\n      mstore\n      swap2\n      0x20\n      add\n      swap2\n      jump(tag_239)\n    tag_240:\n      dup3\n      add\n      swap2\n      swap1\n      0x00\n      mstore\n      keccak256(0x00, 0x20)\n      swap1\n    tag_241:\n      dup2\n      sload\n      dup2\n      mstore\n      swap1\n      0x01\n      add\n      swap1\n      0x20\n      add\n      dup1\n      dup4\n      gt\n      tag_241\n      jumpi\n      dup3\n      swap1\n      sub\n      0x1f\n      and\n      dup3\n      add\n      swap2\n    tag_239:\n      pop\n      pop\n      pop\n      pop\n      pop\n      dup2\n      mstore\n      0x20\n      add\n      0x02\n      dup3\n      add\n      dup1\n      sload\n      0x01\n      dup2\n      0x01\n      and\n      iszero\n      0x0100\n      mul\n      sub\n      and\n      0x02\n      swap1\n      div\n      dup1\n      0x1f\n      add\n      0x20\n      dup1\n      swap2\n      div\n      mul\n      0x20\n      add\n      mload(0x40)\n      swap1\n      dup2\n      add\n      0x40\n      mstore\n      dup1\n      swap3\n      swap2\n      swap1\n      dup2\n      dup2\n      mstore\n      0x20\n      add\n      dup3\n      dup1\n      sload\n      0x01\n      dup2\n      0x01\n      and\n      iszero\n      0x0100\n      mul\n      sub\n      and\n      0x02\n      swap1\n      div\n      dup1\n      iszero\n      tag_242\n      jumpi\n      dup1\n      0x1f\n      lt\n      tag_243\n      jumpi\n      0x0100\n      dup1\n      dup4\n      sload\n      div\n      mul\n      dup4\n      mstore\n      swap2\n      0x20\n      add\n      swap2\n      jump(tag_242)\n    tag_243:\n      dup3\n      add\n      swap2\n      swap1\n      0x00\n      mstore\n      keccak256(0x00, 0x20)\n      swap1\n    tag_244:\n      dup2\n      sload\n      dup2\n      mstore\n      swap1\n      0x01\n      add\n      swap1\n      0x20\n      add\n      dup1\n      dup4\n      gt\n      tag_244\n      jumpi\n      dup3\n      swap1\n      sub\n      0x1f\n      and\n      dup3\n      add\n      swap2\n    tag_242:\n      pop\n      pop\n      pop\n      pop\n      pop\n      dup2\n      mstore\n      0x20\n      add\n      0x03\n      dup3\n      add\n      0x00\n      swap1\n      sload\n      swap1\n      0x0100\n      exp\n      swap1\n      div\n      0xffffffffffffffffffffffffffffffffffffffff\n      and\n      0xffffffffffffffffffffffffffffffffffffffff\n      and\n      0xffffffffffffffffffffffffffffffffffffffff\n      and\n      dup2\n      mstore\n      0x20\n      add\n      0x03\n      dup3\n      add\n      0x14\n      swap1\n      sload\n      swap1\n      0x0100\n      exp\n      swap1\n      div\n      0xff\n      and\n      iszero\n      iszero\n      iszero\n      iszero\n      dup2\n      mstore\n      0x20\n      add\n      0x04\n      dup3\n      add\n      dup1\n      sload\n      dup1\n      0x20\n      mul\n      0x20\n      add\n      mload(0x40)\n      swap1\n      dup2\n      add\n      0x40\n      mstore\n      dup1\n      swap3\n      swap2\n      swap1\n      dup2\n      dup2\n      mstore\n      0x20\n      add\n      dup3\n      dup1\n      sload\n      dup1\n      iszero\n      tag_245\n      jumpi\n      0x20\n      mul\n      dup3\n      add\n      swap2\n      swap1\n      0x00\n      mstore\n      keccak256(0x00, 0x20)\n      swap1\n    tag_246:\n      dup2\n      sload\n      dup2\n      mstore\n      0x20\n      add\n      swap1\n      0x01\n      add\n      swap1\n      dup1\n      dup4\n      gt\n      tag_246\n      jumpi\n    tag_245:\n      pop\n      pop\n      pop\n      pop\n      pop\n      dup2\n      mstore\n      pop\n      pop\n        /* \"EHealth.sol\":9806:9809  ret */\n      dup3\n        /* \"EHealth.sol\":9810:9811  i */\n      dup3\n        /* \"EHealth.sol\":9806:9812  ret[i] */\n      dup2\n      mload\n      dup2\n      lt\n      tag_247\n      jumpi\n      invalid\n    tag_247:\n      0x20\n      mul\n      0x20\n      add\n      add\n        /* \"EHealth.sol\":9806:9829  ret[i]=sensorsDoctor[i] */\n      dup2\n      swap1\n      mstore\n      pop\n        /* \"EHealth.sol\":9786:9789  i++ */\n      dup1\n      dup1\n      0x01\n      add\n      swap2\n      pop\n      pop\n        /* \"EHealth.sol\":9744:9841  for (uint i = 0; i< sensorsDoctor.length; i++) {\r... */\n      jump(tag_234)\n    tag_235:\n      pop\n        /* \"EHealth.sol\":9858:9861  ret */\n      dup1\n        /* \"EHealth.sol\":9851:9861  return ret */\n      swap2\n      pop\n      pop\n        /* \"EHealth.sol\":9604:9869  function getAllSensors() public view returns (Sensor[] memory){\r... */\n      swap1\n      jump\t// out\n        /* \"EHealth.sol\":5662:6181  function UpdateDoctor(address _id, string memory _nameDoctor, address _hospital ,bool _permission) public {\r... */\n    tag_71:\n        /* \"EHealth.sol\":5779:5789  uint index */\n      0x00\n        /* \"EHealth.sol\":5792:5807  FindDoctor(_id) */\n      tag_249\n        /* \"EHealth.sol\":5803:5806  _id */\n      dup6\n        /* \"EHealth.sol\":5792:5802  FindDoctor */\n      tag_173\n        /* \"EHealth.sol\":5792:5807  FindDoctor(_id) */\n      jump\t// in\n    tag_249:\n        /* \"EHealth.sol\":5779:5807  uint index = FindDoctor(_id) */\n      swap1\n      pop\n        /* \"EHealth.sol\":5852:5863  _nameDoctor */\n      dup4\n        /* \"EHealth.sol\":5818:5833  doctorsHospital */\n      0x06\n        /* \"EHealth.sol\":5834:5839  index */\n      dup3\n        /* \"EHealth.sol\":5818:5840  doctorsHospital[index] */\n      dup2\n      sload\n      dup2\n      lt\n      tag_250\n      jumpi\n      invalid\n    tag_250:\n      swap1\n      0x00\n      mstore\n      keccak256(0x00, 0x20)\n      swap1\n      0x03\n      mul\n      add\n        /* \"EHealth.sol\":5818:5851  doctorsHospital[index].nameDoctor */\n      0x01\n      add\n        /* \"EHealth.sol\":5818:5863  doctorsHospital[index].nameDoctor=_nameDoctor */\n      swap1\n      dup1\n      mload\n      swap1\n      0x20\n      add\n      swap1\n      tag_252\n      swap3\n      swap2\n      swap1\n      tag_176\n      jump\t// in\n    tag_252:\n      pop\n        /* \"EHealth.sol\":5906:5915  _hospital */\n      dup3\n        /* \"EHealth.sol\":5874:5889  doctorsHospital */\n      0x06\n        /* \"EHealth.sol\":5890:5895  index */\n      dup3\n        /* \"EHealth.sol\":5874:5896  doctorsHospital[index] */\n      dup2\n      sload\n      dup2\n      lt\n      tag_253\n      jumpi\n      invalid\n    tag_253:\n      swap1\n      0x00\n      mstore\n      keccak256(0x00, 0x20)\n      swap1\n      0x03\n      mul\n      add\n        /* \"EHealth.sol\":5874:5905  doctorsHospital[index].hospital */\n      0x02\n      add\n      0x00\n        /* \"EHealth.sol\":5874:5915  doctorsHospital[index].hospital=_hospital */\n      0x0100\n      exp\n      dup2\n      sload\n      dup2\n      0xffffffffffffffffffffffffffffffffffffffff\n      mul\n      not\n      and\n      swap1\n      dup4\n      0xffffffffffffffffffffffffffffffffffffffff\n      and\n      mul\n      or\n      swap1\n      sstore\n      pop\n        /* \"EHealth.sol\":5960:5971  _permission */\n      dup2\n        /* \"EHealth.sol\":5926:5941  doctorsHospital */\n      0x06\n        /* \"EHealth.sol\":5942:5947  index */\n      dup3\n        /* \"EHealth.sol\":5926:5948  doctorsHospital[index] */\n      dup2\n      sload\n      dup2\n      lt\n      tag_255\n      jumpi\n      invalid\n    tag_255:\n      swap1\n      0x00\n      mstore\n      keccak256(0x00, 0x20)\n      swap1\n      0x03\n      mul\n      add\n        /* \"EHealth.sol\":5926:5959  doctorsHospital[index].permission */\n      0x02\n      add\n      0x14\n        /* \"EHealth.sol\":5926:5971  doctorsHospital[index].permission=_permission */\n      0x0100\n      exp\n      dup2\n      sload\n      dup2\n      0xff\n      mul\n      not\n      and\n      swap1\n      dup4\n      iszero\n      iszero\n      mul\n      or\n      swap1\n      sstore\n      pop\n        /* \"EHealth.sol\":5987:6173  RefreshDoctor(doctorsHospital[index].idDoctor,\r... */\n      0x6fcbc4a02269ac36204ac7e60c4cf625c6fc2b2365cac750c9927b670e347f90\n        /* \"EHealth.sol\":6001:6016  doctorsHospital */\n      0x06\n        /* \"EHealth.sol\":6017:6022  index */\n      dup3\n        /* \"EHealth.sol\":6001:6023  doctorsHospital[index] */\n      dup2\n      sload\n      dup2\n      lt\n      tag_257\n      jumpi\n      invalid\n    tag_257:\n      swap1\n      0x00\n      mstore\n      keccak256(0x00, 0x20)\n      swap1\n      0x03\n      mul\n      add\n        /* \"EHealth.sol\":6001:6032  doctorsHospital[index].idDoctor */\n      0x00\n      add\n      0x00\n      swap1\n      sload\n      swap1\n      0x0100\n      exp\n      swap1\n      div\n      0xffffffffffffffffffffffffffffffffffffffff\n      and\n        /* \"EHealth.sol\":6043:6058  doctorsHospital */\n      0x06\n        /* \"EHealth.sol\":6059:6064  index */\n      dup4\n        /* \"EHealth.sol\":6043:6065  doctorsHospital[index] */\n      dup2\n      sload\n      dup2\n      lt\n      tag_259\n      jumpi\n      invalid\n    tag_259:\n      swap1\n      0x00\n      mstore\n      keccak256(0x00, 0x20)\n      swap1\n      0x03\n      mul\n      add\n        /* \"EHealth.sol\":6043:6076  doctorsHospital[index].nameDoctor */\n      0x01\n      add\n        /* \"EHealth.sol\":6087:6102  doctorsHospital */\n      0x06\n        /* \"EHealth.sol\":6103:6108  index */\n      dup5\n        /* \"EHealth.sol\":6087:6109  doctorsHospital[index] */\n      dup2\n      sload\n      dup2\n      lt\n      tag_261\n      jumpi\n      invalid\n    tag_261:\n      swap1\n      0x00\n      mstore\n      keccak256(0x00, 0x20)\n      swap1\n      0x03\n      mul\n      add\n        /* \"EHealth.sol\":6087:6118  doctorsHospital[index].hospital */\n      0x02\n      add\n      0x00\n      swap1\n      sload\n      swap1\n      0x0100\n      exp\n      swap1\n      div\n      0xffffffffffffffffffffffffffffffffffffffff\n      and\n        /* \"EHealth.sol\":6129:6144  doctorsHospital */\n      0x06\n        /* \"EHealth.sol\":6145:6150  index */\n      dup6\n        /* \"EHealth.sol\":6129:6151  doctorsHospital[index] */\n      dup2\n      sload\n      dup2\n      lt\n      tag_263\n      jumpi\n      invalid\n    tag_263:\n      swap1\n      0x00\n      mstore\n      keccak256(0x00, 0x20)\n      swap1\n      0x03\n      mul\n      add\n        /* \"EHealth.sol\":6129:6162  doctorsHospital[index].permission */\n      0x02\n      add\n      0x14\n      swap1\n      sload\n      swap1\n      0x0100\n      exp\n      swap1\n      div\n      0xff\n      and\n        /* \"EHealth.sol\":5987:6173  RefreshDoctor(doctorsHospital[index].idDoctor,\r... */\n      mload(0x40)\n      tag_265\n      swap5\n      swap4\n      swap3\n      swap2\n      swap1\n      tag_266\n      jump\t// in\n    tag_265:\n      mload(0x40)\n      dup1\n      swap2\n      sub\n      swap1\n      log1\n        /* \"EHealth.sol\":5662:6181  function UpdateDoctor(address _id, string memory _nameDoctor, address _hospital ,bool _permission) public {\r... */\n      pop\n      pop\n      pop\n      pop\n      pop\n      jump\t// out\n        /* \"EHealth.sol\":8177:8522  function RemoveSensor(uint _id) public {\r... */\n    tag_74:\n        /* \"EHealth.sol\":8227:8237  uint index */\n      0x00\n        /* \"EHealth.sol\":8240:8255  FindSensor(_id) */\n      tag_268\n        /* \"EHealth.sol\":8251:8254  _id */\n      dup3\n        /* \"EHealth.sol\":8240:8250  FindSensor */\n      tag_156\n        /* \"EHealth.sol\":8240:8255  FindSensor(_id) */\n      jump\t// in\n    tag_268:\n        /* \"EHealth.sol\":8227:8255  uint index = FindSensor(_id) */\n      swap1\n      pop\n        /* \"EHealth.sol\":8294:8299  false */\n      0x00\n        /* \"EHealth.sol\":8266:8279  sensorsDoctor */\n      0x08\n        /* \"EHealth.sol\":8280:8285  index */\n      dup3\n        /* \"EHealth.sol\":8266:8286  sensorsDoctor[index] */\n      dup2\n      sload\n      dup2\n      lt\n      tag_269\n      jumpi\n      invalid\n    tag_269:\n      swap1\n      0x00\n      mstore\n      keccak256(0x00, 0x20)\n      swap1\n      0x05\n      mul\n      add\n        /* \"EHealth.sol\":8266:8293  sensorsDoctor[index].active */\n      0x03\n      add\n      0x14\n        /* \"EHealth.sol\":8266:8299  sensorsDoctor[index].active=false */\n      0x0100\n      exp\n      dup2\n      sload\n      dup2\n      0xff\n      mul\n      not\n      and\n      swap1\n      dup4\n      iszero\n      iszero\n      mul\n      or\n      swap1\n      sstore\n      pop\n        /* \"EHealth.sol\":8315:8514  DeleteSensor(sensorsDoctor[index].idSensor,\r... */\n      0xef9006907eb20210e880b0bb1c39946083bcec24688718507d63a259ffa8351b\n        /* \"EHealth.sol\":8328:8341  sensorsDoctor */\n      0x08\n        /* \"EHealth.sol\":8342:8347  index */\n      dup3\n        /* \"EHealth.sol\":8328:8348  sensorsDoctor[index] */\n      dup2\n      sload\n      dup2\n      lt\n      tag_271\n      jumpi\n      invalid\n    tag_271:\n      swap1\n      0x00\n      mstore\n      keccak256(0x00, 0x20)\n      swap1\n      0x05\n      mul\n      add\n        /* \"EHealth.sol\":8328:8357  sensorsDoctor[index].idSensor */\n      0x00\n      add\n      sload\n        /* \"EHealth.sol\":8368:8381  sensorsDoctor */\n      0x08\n        /* \"EHealth.sol\":8382:8387  index */\n      dup4\n        /* \"EHealth.sol\":8368:8388  sensorsDoctor[index] */\n      dup2\n      sload\n      dup2\n      lt\n      tag_273\n      jumpi\n      invalid\n    tag_273:\n      swap1\n      0x00\n      mstore\n      keccak256(0x00, 0x20)\n      swap1\n      0x05\n      mul\n      add\n        /* \"EHealth.sol\":8368:8392  sensorsDoctor[index].MAC */\n      0x01\n      add\n        /* \"EHealth.sol\":8403:8416  sensorsDoctor */\n      0x08\n        /* \"EHealth.sol\":8417:8422  index */\n      dup5\n        /* \"EHealth.sol\":8403:8423  sensorsDoctor[index] */\n      dup2\n      sload\n      dup2\n      lt\n      tag_275\n      jumpi\n      invalid\n    tag_275:\n      swap1\n      0x00\n      mstore\n      keccak256(0x00, 0x20)\n      swap1\n      0x05\n      mul\n      add\n        /* \"EHealth.sol\":8403:8435  sensorsDoctor[index].patientName */\n      0x02\n      add\n        /* \"EHealth.sol\":8446:8459  sensorsDoctor */\n      0x08\n        /* \"EHealth.sol\":8460:8465  index */\n      dup6\n        /* \"EHealth.sol\":8446:8466  sensorsDoctor[index] */\n      dup2\n      sload\n      dup2\n      lt\n      tag_277\n      jumpi\n      invalid\n    tag_277:\n      swap1\n      0x00\n      mstore\n      keccak256(0x00, 0x20)\n      swap1\n      0x05\n      mul\n      add\n        /* \"EHealth.sol\":8446:8475  sensorsDoctor[index].idDoctor */\n      0x03\n      add\n      0x00\n      swap1\n      sload\n      swap1\n      0x0100\n      exp\n      swap1\n      div\n      0xffffffffffffffffffffffffffffffffffffffff\n      and\n        /* \"EHealth.sol\":8486:8499  sensorsDoctor */\n      0x08\n        /* \"EHealth.sol\":8500:8505  index */\n      dup7\n        /* \"EHealth.sol\":8486:8506  sensorsDoctor[index] */\n      dup2\n      sload\n      dup2\n      lt\n      tag_279\n      jumpi\n      invalid\n    tag_279:\n      swap1\n      0x00\n      mstore\n      keccak256(0x00, 0x20)\n      swap1\n      0x05\n      mul\n      add\n        /* \"EHealth.sol\":8486:8513  sensorsDoctor[index].active */\n      0x03\n      add\n      0x14\n      swap1\n      sload\n      swap1\n      0x0100\n      exp\n      swap1\n      div\n      0xff\n      and\n        /* \"EHealth.sol\":8315:8514  DeleteSensor(sensorsDoctor[index].idSensor,\r... */\n      mload(0x40)\n      tag_281\n      swap6\n      swap5\n      swap4\n      swap3\n      swap2\n      swap1\n      tag_282\n      jump\t// in\n    tag_281:\n      mload(0x40)\n      dup1\n      swap2\n      sub\n      swap1\n      log1\n        /* \"EHealth.sol\":8177:8522  function RemoveSensor(uint _id) public {\r... */\n      pop\n      pop\n      jump\t// out\n        /* \"EHealth.sol\":6214:6461  function ReadDoctor(address _id)public view returns(string memory, address, bool){\r... */\n    tag_77:\n        /* \"EHealth.sol\":6266:6279  string memory */\n      0x60\n        /* \"EHealth.sol\":6281:6288  address */\n      0x00\n        /* \"EHealth.sol\":6290:6294  bool */\n      dup1\n        /* \"EHealth.sol\":6306:6316  uint index */\n      0x00\n        /* \"EHealth.sol\":6319:6334  FindDoctor(_id) */\n      tag_284\n        /* \"EHealth.sol\":6330:6333  _id */\n      dup6\n        /* \"EHealth.sol\":6319:6329  FindDoctor */\n      tag_173\n        /* \"EHealth.sol\":6319:6334  FindDoctor(_id) */\n      jump\t// in\n    tag_284:\n        /* \"EHealth.sol\":6306:6334  uint index = FindDoctor(_id) */\n      swap1\n      pop\n        /* \"EHealth.sol\":6353:6368  doctorsHospital */\n      0x06\n        /* \"EHealth.sol\":6369:6374  index */\n      dup2\n        /* \"EHealth.sol\":6353:6375  doctorsHospital[index] */\n      dup2\n      sload\n      dup2\n      lt\n      tag_285\n      jumpi\n      invalid\n    tag_285:\n      swap1\n      0x00\n      mstore\n      keccak256(0x00, 0x20)\n      swap1\n      0x03\n      mul\n      add\n        /* \"EHealth.sol\":6353:6386  doctorsHospital[index].nameDoctor */\n      0x01\n      add\n        /* \"EHealth.sol\":6387:6402  doctorsHospital */\n      0x06\n        /* \"EHealth.sol\":6403:6408  index */\n      dup3\n        /* \"EHealth.sol\":6387:6409  doctorsHospital[index] */\n      dup2\n      sload\n      dup2\n      lt\n      tag_287\n      jumpi\n      invalid\n    tag_287:\n      swap1\n      0x00\n      mstore\n      keccak256(0x00, 0x20)\n      swap1\n      0x03\n      mul\n      add\n        /* \"EHealth.sol\":6387:6418  doctorsHospital[index].hospital */\n      0x02\n      add\n      0x00\n      swap1\n      sload\n      swap1\n      0x0100\n      exp\n      swap1\n      div\n      0xffffffffffffffffffffffffffffffffffffffff\n      and\n        /* \"EHealth.sol\":6419:6434  doctorsHospital */\n      0x06\n        /* \"EHealth.sol\":6435:6440  index */\n      dup4\n        /* \"EHealth.sol\":6419:6441  doctorsHospital[index] */\n      dup2\n      sload\n      dup2\n      lt\n      tag_289\n      jumpi\n      invalid\n    tag_289:\n      swap1\n      0x00\n      mstore\n      keccak256(0x00, 0x20)\n      swap1\n      0x03\n      mul\n      add\n        /* \"EHealth.sol\":6419:6452  doctorsHospital[index].permission */\n      0x02\n      add\n      0x14\n      swap1\n      sload\n      swap1\n      0x0100\n      exp\n      swap1\n      div\n      0xff\n      and\n        /* \"EHealth.sol\":6345:6453  return (doctorsHospital[index].nameDoctor,doctorsHospital[index].hospital,doctorsHospital[index].permission) */\n      dup3\n      dup1\n      sload\n      0x01\n      dup2\n      0x01\n      and\n      iszero\n      0x0100\n      mul\n      sub\n      and\n      0x02\n      swap1\n      div\n      dup1\n      0x1f\n      add\n      0x20\n      dup1\n      swap2\n      div\n      mul\n      0x20\n      add\n      mload(0x40)\n      swap1\n      dup2\n      add\n      0x40\n      mstore\n      dup1\n      swap3\n      swap2\n      swap1\n      dup2\n      dup2\n      mstore\n      0x20\n      add\n      dup3\n      dup1\n      sload\n      0x01\n      dup2\n      0x01\n      and\n      iszero\n      0x0100\n      mul\n      sub\n      and\n      0x02\n      swap1\n      div\n      dup1\n      iszero\n      tag_291\n      jumpi\n      dup1\n      0x1f\n      lt\n      tag_292\n      jumpi\n      0x0100\n      dup1\n      dup4\n      sload\n      div\n      mul\n      dup4\n      mstore\n      swap2\n      0x20\n      add\n      swap2\n      jump(tag_291)\n    tag_292:\n      dup3\n      add\n      swap2\n      swap1\n      0x00\n      mstore\n      keccak256(0x00, 0x20)\n      swap1\n    tag_293:\n      dup2\n      sload\n      dup2\n      mstore\n      swap1\n      0x01\n      add\n      swap1\n      0x20\n      add\n      dup1\n      dup4\n      gt\n      tag_293\n      jumpi\n      dup3\n      swap1\n      sub\n      0x1f\n      and\n      dup3\n      add\n      swap2\n    tag_291:\n      pop\n      pop\n      pop\n      pop\n      pop\n      swap3\n      pop\n      swap4\n      pop\n      swap4\n      pop\n      swap4\n      pop\n      pop\n        /* \"EHealth.sol\":6214:6461  function ReadDoctor(address _id)public view returns(string memory, address, bool){\r... */\n      swap2\n      swap4\n      swap1\n      swap3\n      pop\n      jump\t// out\n        /* \"EHealth.sol\":8557:9132  function UpdateSensor(uint _id, string memory _mac, string memory _patientName,address _idDoctor, bool _active ) public {\r... */\n    tag_83:\n        /* \"EHealth.sol\":8688:8698  uint index */\n      0x00\n        /* \"EHealth.sol\":8701:8716  FindSensor(_id) */\n      tag_295\n        /* \"EHealth.sol\":8712:8715  _id */\n      dup7\n        /* \"EHealth.sol\":8701:8711  FindSensor */\n      tag_156\n        /* \"EHealth.sol\":8701:8716  FindSensor(_id) */\n      jump\t// in\n    tag_295:\n        /* \"EHealth.sol\":8688:8716  uint index = FindSensor(_id) */\n      swap1\n      pop\n        /* \"EHealth.sol\":8752:8756  _mac */\n      dup5\n        /* \"EHealth.sol\":8727:8740  sensorsDoctor */\n      0x08\n        /* \"EHealth.sol\":8741:8746  index */\n      dup3\n        /* \"EHealth.sol\":8727:8747  sensorsDoctor[index] */\n      dup2\n      sload\n      dup2\n      lt\n      tag_296\n      jumpi\n      invalid\n    tag_296:\n      swap1\n      0x00\n      mstore\n      keccak256(0x00, 0x20)\n      swap1\n      0x05\n      mul\n      add\n        /* \"EHealth.sol\":8727:8751  sensorsDoctor[index].MAC */\n      0x01\n      add\n        /* \"EHealth.sol\":8727:8756  sensorsDoctor[index].MAC=_mac */\n      swap1\n      dup1\n      mload\n      swap1\n      0x20\n      add\n      swap1\n      tag_298\n      swap3\n      swap2\n      swap1\n      tag_176\n      jump\t// in\n    tag_298:\n      pop\n        /* \"EHealth.sol\":8800:8812  _patientName */\n      dup4\n        /* \"EHealth.sol\":8767:8780  sensorsDoctor */\n      0x08\n        /* \"EHealth.sol\":8781:8786  index */\n      dup3\n        /* \"EHealth.sol\":8767:8787  sensorsDoctor[index] */\n      dup2\n      sload\n      dup2\n      lt\n      tag_299\n      jumpi\n      invalid\n    tag_299:\n      swap1\n      0x00\n      mstore\n      keccak256(0x00, 0x20)\n      swap1\n      0x05\n      mul\n      add\n        /* \"EHealth.sol\":8767:8799  sensorsDoctor[index].patientName */\n      0x02\n      add\n        /* \"EHealth.sol\":8767:8812  sensorsDoctor[index].patientName=_patientName */\n      swap1\n      dup1\n      mload\n      swap1\n      0x20\n      add\n      swap1\n      tag_301\n      swap3\n      swap2\n      swap1\n      tag_176\n      jump\t// in\n    tag_301:\n      pop\n        /* \"EHealth.sol\":8853:8862  _idDoctor */\n      dup3\n        /* \"EHealth.sol\":8823:8836  sensorsDoctor */\n      0x08\n        /* \"EHealth.sol\":8837:8842  index */\n      dup3\n        /* \"EHealth.sol\":8823:8843  sensorsDoctor[index] */\n      dup2\n      sload\n      dup2\n      lt\n      tag_302\n      jumpi\n      invalid\n    tag_302:\n      swap1\n      0x00\n      mstore\n      keccak256(0x00, 0x20)\n      swap1\n      0x05\n      mul\n      add\n        /* \"EHealth.sol\":8823:8852  sensorsDoctor[index].idDoctor */\n      0x03\n      add\n      0x00\n        /* \"EHealth.sol\":8823:8862  sensorsDoctor[index].idDoctor=_idDoctor */\n      0x0100\n      exp\n      dup2\n      sload\n      dup2\n      0xffffffffffffffffffffffffffffffffffffffff\n      mul\n      not\n      and\n      swap1\n      dup4\n      0xffffffffffffffffffffffffffffffffffffffff\n      and\n      mul\n      or\n      swap1\n      sstore\n      pop\n        /* \"EHealth.sol\":8901:8908  _active */\n      dup2\n        /* \"EHealth.sol\":8873:8886  sensorsDoctor */\n      0x08\n        /* \"EHealth.sol\":8887:8892  index */\n      dup3\n        /* \"EHealth.sol\":8873:8893  sensorsDoctor[index] */\n      dup2\n      sload\n      dup2\n      lt\n      tag_304\n      jumpi\n      invalid\n    tag_304:\n      swap1\n      0x00\n      mstore\n      keccak256(0x00, 0x20)\n      swap1\n      0x05\n      mul\n      add\n        /* \"EHealth.sol\":8873:8900  sensorsDoctor[index].active */\n      0x03\n      add\n      0x14\n        /* \"EHealth.sol\":8873:8908  sensorsDoctor[index].active=_active */\n      0x0100\n      exp\n      dup2\n      sload\n      dup2\n      0xff\n      mul\n      not\n      and\n      swap1\n      dup4\n      iszero\n      iszero\n      mul\n      or\n      swap1\n      sstore\n      pop\n        /* \"EHealth.sol\":8924:9124  RefreshSensor(sensorsDoctor[index].idSensor,\r... */\n      0x3ab6f9ea2e72cad17988f4527dc5626fa4e97c597fcbd9d7e2a7e820851b54ce\n        /* \"EHealth.sol\":8938:8951  sensorsDoctor */\n      0x08\n        /* \"EHealth.sol\":8952:8957  index */\n      dup3\n        /* \"EHealth.sol\":8938:8958  sensorsDoctor[index] */\n      dup2\n      sload\n      dup2\n      lt\n      tag_306\n      jumpi\n      invalid\n    tag_306:\n      swap1\n      0x00\n      mstore\n      keccak256(0x00, 0x20)\n      swap1\n      0x05\n      mul\n      add\n        /* \"EHealth.sol\":8938:8967  sensorsDoctor[index].idSensor */\n      0x00\n      add\n      sload\n        /* \"EHealth.sol\":8978:8991  sensorsDoctor */\n      0x08\n        /* \"EHealth.sol\":8992:8997  index */\n      dup4\n        /* \"EHealth.sol\":8978:8998  sensorsDoctor[index] */\n      dup2\n      sload\n      dup2\n      lt\n      tag_308\n      jumpi\n      invalid\n    tag_308:\n      swap1\n      0x00\n      mstore\n      keccak256(0x00, 0x20)\n      swap1\n      0x05\n      mul\n      add\n        /* \"EHealth.sol\":8978:9002  sensorsDoctor[index].MAC */\n      0x01\n      add\n        /* \"EHealth.sol\":9013:9026  sensorsDoctor */\n      0x08\n        /* \"EHealth.sol\":9027:9032  index */\n      dup5\n        /* \"EHealth.sol\":9013:9033  sensorsDoctor[index] */\n      dup2\n      sload\n      dup2\n      lt\n      tag_310\n      jumpi\n      invalid\n    tag_310:\n      swap1\n      0x00\n      mstore\n      keccak256(0x00, 0x20)\n      swap1\n      0x05\n      mul\n      add\n        /* \"EHealth.sol\":9013:9045  sensorsDoctor[index].patientName */\n      0x02\n      add\n        /* \"EHealth.sol\":9056:9069  sensorsDoctor */\n      0x08\n        /* \"EHealth.sol\":9070:9075  index */\n      dup6\n        /* \"EHealth.sol\":9056:9076  sensorsDoctor[index] */\n      dup2\n      sload\n      dup2\n      lt\n      tag_312\n      jumpi\n      invalid\n    tag_312:\n      swap1\n      0x00\n      mstore\n      keccak256(0x00, 0x20)\n      swap1\n      0x05\n      mul\n      add\n        /* \"EHealth.sol\":9056:9085  sensorsDoctor[index].idDoctor */\n      0x03\n      add\n      0x00\n      swap1\n      sload\n      swap1\n      0x0100\n      exp\n      swap1\n      div\n      0xffffffffffffffffffffffffffffffffffffffff\n      and\n        /* \"EHealth.sol\":9096:9109  sensorsDoctor */\n      0x08\n        /* \"EHealth.sol\":9110:9115  index */\n      dup7\n        /* \"EHealth.sol\":9096:9116  sensorsDoctor[index] */\n      dup2\n      sload\n      dup2\n      lt\n      tag_314\n      jumpi\n      invalid\n    tag_314:\n      swap1\n      0x00\n      mstore\n      keccak256(0x00, 0x20)\n      swap1\n      0x05\n      mul\n      add\n        /* \"EHealth.sol\":9096:9123  sensorsDoctor[index].active */\n      0x03\n      add\n      0x14\n      swap1\n      sload\n      swap1\n      0x0100\n      exp\n      swap1\n      div\n      0xff\n      and\n        /* \"EHealth.sol\":8924:9124  RefreshSensor(sensorsDoctor[index].idSensor,\r... */\n      mload(0x40)\n      tag_316\n      swap6\n      swap5\n      swap4\n      swap3\n      swap2\n      swap1\n      tag_282\n      jump\t// in\n    tag_316:\n      mload(0x40)\n      dup1\n      swap2\n      sub\n      swap1\n      log1\n        /* \"EHealth.sol\":8557:9132  function UpdateSensor(uint _id, string memory _mac, string memory _patientName,address _idDoctor, bool _active ) public {\r... */\n      pop\n      pop\n      pop\n      pop\n      pop\n      pop\n      jump\t// out\n        /* \"EHealth.sol\":2969:3702  function UpdateHospital(address _address, string memory _name, string memory _city, string memory _state, uint _postalCode, bool _permission ) public {\r... */\n    tag_87:\n        /* \"EHealth.sol\":3130:3140  uint index */\n      0x00\n        /* \"EHealth.sol\":3143:3165  FindHospital(_address) */\n      tag_318\n        /* \"EHealth.sol\":3156:3164  _address */\n      dup8\n        /* \"EHealth.sol\":3143:3155  FindHospital */\n      tag_190\n        /* \"EHealth.sol\":3143:3165  FindHospital(_address) */\n      jump\t// in\n    tag_318:\n        /* \"EHealth.sol\":3130:3165  uint index = FindHospital(_address) */\n      swap1\n      pop\n        /* \"EHealth.sol\":3204:3209  _name */\n      dup6\n        /* \"EHealth.sol\":3176:3191  hospitalCenters */\n      0x04\n        /* \"EHealth.sol\":3192:3197  index */\n      dup3\n        /* \"EHealth.sol\":3176:3198  hospitalCenters[index] */\n      dup2\n      sload\n      dup2\n      lt\n      tag_319\n      jumpi\n      invalid\n    tag_319:\n      swap1\n      0x00\n      mstore\n      keccak256(0x00, 0x20)\n      swap1\n      0x06\n      mul\n      add\n        /* \"EHealth.sol\":3176:3203  hospitalCenters[index].name */\n      0x01\n      add\n        /* \"EHealth.sol\":3176:3209  hospitalCenters[index].name=_name */\n      swap1\n      dup1\n      mload\n      swap1\n      0x20\n      add\n      swap1\n      tag_321\n      swap3\n      swap2\n      swap1\n      tag_176\n      jump\t// in\n    tag_321:\n      pop\n        /* \"EHealth.sol\":3248:3253  _city */\n      dup5\n        /* \"EHealth.sol\":3220:3235  hospitalCenters */\n      0x04\n        /* \"EHealth.sol\":3236:3241  index */\n      dup3\n        /* \"EHealth.sol\":3220:3242  hospitalCenters[index] */\n      dup2\n      sload\n      dup2\n      lt\n      tag_322\n      jumpi\n      invalid\n    tag_322:\n      swap1\n      0x00\n      mstore\n      keccak256(0x00, 0x20)\n      swap1\n      0x06\n      mul\n      add\n        /* \"EHealth.sol\":3220:3247  hospitalCenters[index].city */\n      0x02\n      add\n        /* \"EHealth.sol\":3220:3253  hospitalCenters[index].city=_city */\n      swap1\n      dup1\n      mload\n      swap1\n      0x20\n      add\n      swap1\n      tag_324\n      swap3\n      swap2\n      swap1\n      tag_176\n      jump\t// in\n    tag_324:\n      pop\n        /* \"EHealth.sol\":3293:3299  _state */\n      dup4\n        /* \"EHealth.sol\":3264:3279  hospitalCenters */\n      0x04\n        /* \"EHealth.sol\":3280:3285  index */\n      dup3\n        /* \"EHealth.sol\":3264:3286  hospitalCenters[index] */\n      dup2\n      sload\n      dup2\n      lt\n      tag_325\n      jumpi\n      invalid\n    tag_325:\n      swap1\n      0x00\n      mstore\n      keccak256(0x00, 0x20)\n      swap1\n      0x06\n      mul\n      add\n        /* \"EHealth.sol\":3264:3292  hospitalCenters[index].state */\n      0x03\n      add\n        /* \"EHealth.sol\":3264:3299  hospitalCenters[index].state=_state */\n      swap1\n      dup1\n      mload\n      swap1\n      0x20\n      add\n      swap1\n      tag_327\n      swap3\n      swap2\n      swap1\n      tag_176\n      jump\t// in\n    tag_327:\n      pop\n        /* \"EHealth.sol\":3344:3355  _postalCode */\n      dup3\n        /* \"EHealth.sol\":3310:3325  hospitalCenters */\n      0x04\n        /* \"EHealth.sol\":3326:3331  index */\n      dup3\n        /* \"EHealth.sol\":3310:3332  hospitalCenters[index] */\n      dup2\n      sload\n      dup2\n      lt\n      tag_328\n      jumpi\n      invalid\n    tag_328:\n      swap1\n      0x00\n      mstore\n      keccak256(0x00, 0x20)\n      swap1\n      0x06\n      mul\n      add\n        /* \"EHealth.sol\":3310:3343  hospitalCenters[index].postalCode */\n      0x04\n      add\n        /* \"EHealth.sol\":3310:3355  hospitalCenters[index].postalCode=_postalCode */\n      dup2\n      swap1\n      sstore\n      pop\n        /* \"EHealth.sol\":3400:3411  _permission */\n      dup2\n        /* \"EHealth.sol\":3366:3381  hospitalCenters */\n      0x04\n        /* \"EHealth.sol\":3382:3387  index */\n      dup3\n        /* \"EHealth.sol\":3366:3388  hospitalCenters[index] */\n      dup2\n      sload\n      dup2\n      lt\n      tag_330\n      jumpi\n      invalid\n    tag_330:\n      swap1\n      0x00\n      mstore\n      keccak256(0x00, 0x20)\n      swap1\n      0x06\n      mul\n      add\n        /* \"EHealth.sol\":3366:3399  hospitalCenters[index].permission */\n      0x05\n      add\n      0x00\n        /* \"EHealth.sol\":3366:3411  hospitalCenters[index].permission=_permission */\n      0x0100\n      exp\n      dup2\n      sload\n      dup2\n      0xff\n      mul\n      not\n      and\n      swap1\n      dup4\n      iszero\n      iszero\n      mul\n      or\n      swap1\n      sstore\n      pop\n        /* \"EHealth.sol\":3427:3694  RefreshHospital(hospitalCenters[index].idHospital, \r... */\n      0x5975e6fed8802a324436eb320387035d99d011c9901bb75b34b8c23b91250c1c\n        /* \"EHealth.sol\":3443:3458  hospitalCenters */\n      0x04\n        /* \"EHealth.sol\":3459:3464  index */\n      dup3\n        /* \"EHealth.sol\":3443:3465  hospitalCenters[index] */\n      dup2\n      sload\n      dup2\n      lt\n      tag_332\n      jumpi\n      invalid\n    tag_332:\n      swap1\n      0x00\n      mstore\n      keccak256(0x00, 0x20)\n      swap1\n      0x06\n      mul\n      add\n        /* \"EHealth.sol\":3443:3476  hospitalCenters[index].idHospital */\n      0x00\n      add\n      0x00\n      swap1\n      sload\n      swap1\n      0x0100\n      exp\n      swap1\n      div\n      0xffffffffffffffffffffffffffffffffffffffff\n      and\n        /* \"EHealth.sol\":3488:3503  hospitalCenters */\n      0x04\n        /* \"EHealth.sol\":3504:3509  index */\n      dup4\n        /* \"EHealth.sol\":3488:3510  hospitalCenters[index] */\n      dup2\n      sload\n      dup2\n      lt\n      tag_334\n      jumpi\n      invalid\n    tag_334:\n      swap1\n      0x00\n      mstore\n      keccak256(0x00, 0x20)\n      swap1\n      0x06\n      mul\n      add\n        /* \"EHealth.sol\":3488:3515  hospitalCenters[index].name */\n      0x01\n      add\n        /* \"EHealth.sol\":3527:3542  hospitalCenters */\n      0x04\n        /* \"EHealth.sol\":3543:3548  index */\n      dup5\n        /* \"EHealth.sol\":3527:3549  hospitalCenters[index] */\n      dup2\n      sload\n      dup2\n      lt\n      tag_336\n      jumpi\n      invalid\n    tag_336:\n      swap1\n      0x00\n      mstore\n      keccak256(0x00, 0x20)\n      swap1\n      0x06\n      mul\n      add\n        /* \"EHealth.sol\":3527:3554  hospitalCenters[index].city */\n      0x02\n      add\n        /* \"EHealth.sol\":3566:3581  hospitalCenters */\n      0x04\n        /* \"EHealth.sol\":3582:3587  index */\n      dup6\n        /* \"EHealth.sol\":3566:3588  hospitalCenters[index] */\n      dup2\n      sload\n      dup2\n      lt\n      tag_338\n      jumpi\n      invalid\n    tag_338:\n      swap1\n      0x00\n      mstore\n      keccak256(0x00, 0x20)\n      swap1\n      0x06\n      mul\n      add\n        /* \"EHealth.sol\":3566:3594  hospitalCenters[index].state */\n      0x03\n      add\n        /* \"EHealth.sol\":3606:3621  hospitalCenters */\n      0x04\n        /* \"EHealth.sol\":3622:3627  index */\n      dup7\n        /* \"EHealth.sol\":3606:3628  hospitalCenters[index] */\n      dup2\n      sload\n      dup2\n      lt\n      tag_340\n      jumpi\n      invalid\n    tag_340:\n      swap1\n      0x00\n      mstore\n      keccak256(0x00, 0x20)\n      swap1\n      0x06\n      mul\n      add\n        /* \"EHealth.sol\":3606:3639  hospitalCenters[index].postalCode */\n      0x04\n      add\n      sload\n        /* \"EHealth.sol\":3650:3665  hospitalCenters */\n      0x04\n        /* \"EHealth.sol\":3666:3671  index */\n      dup8\n        /* \"EHealth.sol\":3650:3672  hospitalCenters[index] */\n      dup2\n      sload\n      dup2\n      lt\n      tag_342\n      jumpi\n      invalid\n    tag_342:\n      swap1\n      0x00\n      mstore\n      keccak256(0x00, 0x20)\n      swap1\n      0x06\n      mul\n      add\n        /* \"EHealth.sol\":3650:3683  hospitalCenters[index].permission */\n      0x05\n      add\n      0x00\n      swap1\n      sload\n      swap1\n      0x0100\n      exp\n      swap1\n      div\n      0xff\n      and\n        /* \"EHealth.sol\":3427:3694  RefreshHospital(hospitalCenters[index].idHospital, \r... */\n      mload(0x40)\n      tag_344\n      swap7\n      swap6\n      swap5\n      swap4\n      swap3\n      swap2\n      swap1\n      tag_206\n      jump\t// in\n    tag_344:\n      mload(0x40)\n      dup1\n      swap2\n      sub\n      swap1\n      log1\n        /* \"EHealth.sol\":2969:3702  function UpdateHospital(address _address, string memory _name, string memory _city, string memory _state, uint _postalCode, bool _permission ) public {\r... */\n      pop\n      pop\n      pop\n      pop\n      pop\n      pop\n      pop\n      jump\t// out\n        /* \"EHealth.sol\":864:904  mapping(address=> Sensor) public Sensors */\n    tag_90:\n      mstore(0x20, 0x07)\n      dup1\n      0x00\n      mstore\n      keccak256(0x00, 0x40)\n      0x00\n      swap2\n      pop\n      swap1\n      pop\n      dup1\n      0x00\n      add\n      sload\n      swap1\n      dup1\n      0x01\n      add\n      dup1\n      sload\n      0x01\n      dup2\n      0x01\n      and\n      iszero\n      0x0100\n      mul\n      sub\n      and\n      0x02\n      swap1\n      div\n      dup1\n      0x1f\n      add\n      0x20\n      dup1\n      swap2\n      div\n      mul\n      0x20\n      add\n      mload(0x40)\n      swap1\n      dup2\n      add\n      0x40\n      mstore\n      dup1\n      swap3\n      swap2\n      swap1\n      dup2\n      dup2\n      mstore\n      0x20\n      add\n      dup3\n      dup1\n      sload\n      0x01\n      dup2\n      0x01\n      and\n      iszero\n      0x0100\n      mul\n      sub\n      and\n      0x02\n      swap1\n      div\n      dup1\n      iszero\n      tag_345\n      jumpi\n      dup1\n      0x1f\n      lt\n      tag_346\n      jumpi\n      0x0100\n      dup1\n      dup4\n      sload\n      div\n      mul\n      dup4\n      mstore\n      swap2\n      0x20\n      add\n      swap2\n      jump(tag_345)\n    tag_346:\n      dup3\n      add\n      swap2\n      swap1\n      0x00\n      mstore\n      keccak256(0x00, 0x20)\n      swap1\n    tag_347:\n      dup2\n      sload\n      dup2\n      mstore\n      swap1\n      0x01\n      add\n      swap1\n      0x20\n      add\n      dup1\n      dup4\n      gt\n      tag_347\n      jumpi\n      dup3\n      swap1\n      sub\n      0x1f\n      and\n      dup3\n      add\n      swap2\n    tag_345:\n      pop\n      pop\n      pop\n      pop\n      pop\n      swap1\n      dup1\n      0x02\n      add\n      dup1\n      sload\n      0x01\n      dup2\n      0x01\n      and\n      iszero\n      0x0100\n      mul\n      sub\n      and\n      0x02\n      swap1\n      div\n      dup1\n      0x1f\n      add\n      0x20\n      dup1\n      swap2\n      div\n      mul\n      0x20\n      add\n      mload(0x40)\n      swap1\n      dup2\n      add\n      0x40\n      mstore\n      dup1\n      swap3\n      swap2\n      swap1\n      dup2\n      dup2\n      mstore\n      0x20\n      add\n      dup3\n      dup1\n      sload\n      0x01\n      dup2\n      0x01\n      and\n      iszero\n      0x0100\n      mul\n      sub\n      and\n      0x02\n      swap1\n      div\n      dup1\n      iszero\n      tag_348\n      jumpi\n      dup1\n      0x1f\n      lt\n      tag_349\n      jumpi\n      0x0100\n      dup1\n      dup4\n      sload\n      div\n      mul\n      dup4\n      mstore\n      swap2\n      0x20\n      add\n      swap2\n      jump(tag_348)\n    tag_349:\n      dup3\n      add\n      swap2\n      swap1\n      0x00\n      mstore\n      keccak256(0x00, 0x20)\n      swap1\n    tag_350:\n      dup2\n      sload\n      dup2\n      mstore\n      swap1\n      0x01\n      add\n      swap1\n      0x20\n      add\n      dup1\n      dup4\n      gt\n      tag_350\n      jumpi\n      dup3\n      swap1\n      sub\n      0x1f\n      and\n      dup3\n      add\n      swap2\n    tag_348:\n      pop\n      pop\n      pop\n      pop\n      pop\n      swap1\n      dup1\n      0x03\n      add\n      0x00\n      swap1\n      sload\n      swap1\n      0x0100\n      exp\n      swap1\n      div\n      0xffffffffffffffffffffffffffffffffffffffff\n      and\n      swap1\n      dup1\n      0x03\n      add\n      0x14\n      swap1\n      sload\n      swap1\n      0x0100\n      exp\n      swap1\n      div\n      0xff\n      and\n      swap1\n      pop\n      dup6\n      jump\t// out\n        /* \"EHealth.sol\":808:839  Doctor[] public doctorsHospital */\n    tag_95:\n      0x06\n      dup2\n      dup2\n      sload\n      dup2\n      lt\n      tag_351\n      jumpi\n      0x00\n      dup1\n      revert\n    tag_351:\n      swap1\n      0x00\n      mstore\n      keccak256(0x00, 0x20)\n      swap1\n      0x03\n      mul\n      add\n      0x00\n      swap2\n      pop\n      swap1\n      pop\n      dup1\n      0x00\n      add\n      0x00\n      swap1\n      sload\n      swap1\n      0x0100\n      exp\n      swap1\n      div\n      0xffffffffffffffffffffffffffffffffffffffff\n      and\n      swap1\n      dup1\n      0x01\n      add\n      dup1\n      sload\n      0x01\n      dup2\n      0x01\n      and\n      iszero\n      0x0100\n      mul\n      sub\n      and\n      0x02\n      swap1\n      div\n      dup1\n      0x1f\n      add\n      0x20\n      dup1\n      swap2\n      div\n      mul\n      0x20\n      add\n      mload(0x40)\n      swap1\n      dup2\n      add\n      0x40\n      mstore\n      dup1\n      swap3\n      swap2\n      swap1\n      dup2\n      dup2\n      mstore\n      0x20\n      add\n      dup3\n      dup1\n      sload\n      0x01\n      dup2\n      0x01\n      and\n      iszero\n      0x0100\n      mul\n      sub\n      and\n      0x02\n      swap1\n      div\n      dup1\n      iszero\n      tag_353\n      jumpi\n      dup1\n      0x1f\n      lt\n      tag_354\n      jumpi\n      0x0100\n      dup1\n      dup4\n      sload\n      div\n      mul\n      dup4\n      mstore\n      swap2\n      0x20\n      add\n      swap2\n      jump(tag_353)\n    tag_354:\n      dup3\n      add\n      swap2\n      swap1\n      0x00\n      mstore\n      keccak256(0x00, 0x20)\n      swap1\n    tag_355:\n      dup2\n      sload\n      dup2\n      mstore\n      swap1\n      0x01\n      add\n      swap1\n      0x20\n      add\n      dup1\n      dup4\n      gt\n      tag_355\n      jumpi\n      dup3\n      swap1\n      sub\n      0x1f\n      and\n      dup3\n      add\n      swap2\n    tag_353:\n      pop\n      pop\n      pop\n      pop\n      pop\n      swap1\n      dup1\n      0x02\n      add\n      0x00\n      swap1\n      sload\n      swap1\n      0x0100\n      exp\n      swap1\n      div\n      0xffffffffffffffffffffffffffffffffffffffff\n      and\n      swap1\n      dup1\n      0x02\n      add\n      0x14\n      swap1\n      sload\n      swap1\n      0x0100\n      exp\n      swap1\n      div\n      0xff\n      and\n      swap1\n      pop\n      dup5\n      jump\t// out\n        /* \"EHealth.sol\":9918:10284  function getAllSensorOfDoctor (address _idDoctor) public view returns (Sensor[] memory){\r... */\n    tag_100:\n        /* \"EHealth.sol\":9989:10004  Sensor[] memory */\n      0x60\n        /* \"EHealth.sol\":10016:10035  Sensor[] memory ret */\n      0x00\n        /* \"EHealth.sol\":10051:10064  sensorsDoctor */\n      0x08\n        /* \"EHealth.sol\":10051:10071  sensorsDoctor.length */\n      dup1\n      sload\n      swap1\n      pop\n        /* \"EHealth.sol\":10038:10072  new Sensor[](sensorsDoctor.length) */\n      0xffffffffffffffff\n      dup2\n      gt\n      dup1\n      iszero\n      tag_357\n      jumpi\n      0x00\n      dup1\n      revert\n    tag_357:\n      pop\n      mload(0x40)\n      swap1\n      dup1\n      dup3\n      mstore\n      dup1\n      0x20\n      mul\n      0x20\n      add\n      dup3\n      add\n      0x40\n      mstore\n      dup1\n      iszero\n      tag_358\n      jumpi\n      dup2\n      0x20\n      add\n    tag_359:\n      tag_360\n      tag_233\n      jump\t// in\n    tag_360:\n      dup2\n      mstore\n      0x20\n      add\n      swap1\n      0x01\n      swap1\n      sub\n      swap1\n      dup2\n      tag_359\n      jumpi\n      swap1\n      pop\n    tag_358:\n      pop\n        /* \"EHealth.sol\":10016:10072  Sensor[] memory ret = new Sensor[](sensorsDoctor.length) */\n      swap1\n      pop\n        /* \"EHealth.sol\":10088:10094  uint i */\n      0x00\n        /* \"EHealth.sol\":10083:10256  for (uint i = 0; i< sensorsDoctor.length; i++) {\r... */\n    tag_361:\n        /* \"EHealth.sol\":10103:10116  sensorsDoctor */\n      0x08\n        /* \"EHealth.sol\":10103:10123  sensorsDoctor.length */\n      dup1\n      sload\n      swap1\n      pop\n        /* \"EHealth.sol\":10100:10101  i */\n      dup2\n        /* \"EHealth.sol\":10100:10123  i< sensorsDoctor.length */\n      lt\n        /* \"EHealth.sol\":10083:10256  for (uint i = 0; i< sensorsDoctor.length; i++) {\r... */\n      iszero\n      tag_362\n      jumpi\n        /* \"EHealth.sol\":10161:10174  sensorsDoctor */\n      0x08\n        /* \"EHealth.sol\":10175:10176  i */\n      dup2\n        /* \"EHealth.sol\":10161:10177  sensorsDoctor[i] */\n      dup2\n      sload\n      dup2\n      lt\n      tag_364\n      jumpi\n      invalid\n    tag_364:\n      swap1\n      0x00\n      mstore\n      keccak256(0x00, 0x20)\n      swap1\n      0x05\n      mul\n      add\n        /* \"EHealth.sol\":10161:10186  sensorsDoctor[i].idDoctor */\n      0x03\n      add\n      0x00\n      swap1\n      sload\n      swap1\n      0x0100\n      exp\n      swap1\n      div\n      0xffffffffffffffffffffffffffffffffffffffff\n      and\n        /* \"EHealth.sol\":10148:10186  _idDoctor == sensorsDoctor[i].idDoctor */\n      0xffffffffffffffffffffffffffffffffffffffff\n      and\n        /* \"EHealth.sol\":10148:10157  _idDoctor */\n      dup5\n        /* \"EHealth.sol\":10148:10186  _idDoctor == sensorsDoctor[i].idDoctor */\n      0xffffffffffffffffffffffffffffffffffffffff\n      and\n      eq\n        /* \"EHealth.sol\":10145:10245  if(_idDoctor == sensorsDoctor[i].idDoctor){\r... */\n      iszero\n      tag_366\n      jumpi\n        /* \"EHealth.sol\":10213:10226  sensorsDoctor */\n      0x08\n        /* \"EHealth.sol\":10227:10228  i */\n      dup2\n        /* \"EHealth.sol\":10213:10229  sensorsDoctor[i] */\n      dup2\n      sload\n      dup2\n      lt\n      tag_367\n      jumpi\n      invalid\n    tag_367:\n      swap1\n      0x00\n      mstore\n      keccak256(0x00, 0x20)\n      swap1\n      0x05\n      mul\n      add\n        /* \"EHealth.sol\":10206:10229  ret[i]=sensorsDoctor[i] */\n      mload(0x40)\n      dup1\n      0xc0\n      add\n      0x40\n      mstore\n      swap1\n      dup2\n      0x00\n      dup3\n      add\n      sload\n      dup2\n      mstore\n      0x20\n      add\n      0x01\n      dup3\n      add\n      dup1\n      sload\n      0x01\n      dup2\n      0x01\n      and\n      iszero\n      0x0100\n      mul\n      sub\n      and\n      0x02\n      swap1\n      div\n      dup1\n      0x1f\n      add\n      0x20\n      dup1\n      swap2\n      div\n      mul\n      0x20\n      add\n      mload(0x40)\n      swap1\n      dup2\n      add\n      0x40\n      mstore\n      dup1\n      swap3\n      swap2\n      swap1\n      dup2\n      dup2\n      mstore\n      0x20\n      add\n      dup3\n      dup1\n      sload\n      0x01\n      dup2\n      0x01\n      and\n      iszero\n      0x0100\n      mul\n      sub\n      and\n      0x02\n      swap1\n      div\n      dup1\n      iszero\n      tag_369\n      jumpi\n      dup1\n      0x1f\n      lt\n      tag_370\n      jumpi\n      0x0100\n      dup1\n      dup4\n      sload\n      div\n      mul\n      dup4\n      mstore\n      swap2\n      0x20\n      add\n      swap2\n      jump(tag_369)\n    tag_370:\n      dup3\n      add\n      swap2\n      swap1\n      0x00\n      mstore\n      keccak256(0x00, 0x20)\n      swap1\n    tag_371:\n      dup2\n      sload\n      dup2\n      mstore\n      swap1\n      0x01\n      add\n      swap1\n      0x20\n      add\n      dup1\n      dup4\n      gt\n      tag_371\n      jumpi\n      dup3\n      swap1\n      sub\n      0x1f\n      and\n      dup3\n      add\n      swap2\n    tag_369:\n      pop\n      pop\n      pop\n      pop\n      pop\n      dup2\n      mstore\n      0x20\n      add\n      0x02\n      dup3\n      add\n      dup1\n      sload\n      0x01\n      dup2\n      0x01\n      and\n      iszero\n      0x0100\n      mul\n      sub\n      and\n      0x02\n      swap1\n      div\n      dup1\n      0x1f\n      add\n      0x20\n      dup1\n      swap2\n      div\n      mul\n      0x20\n      add\n      mload(0x40)\n      swap1\n      dup2\n      add\n      0x40\n      mstore\n      dup1\n      swap3\n      swap2\n      swap1\n      dup2\n      dup2\n      mstore\n      0x20\n      add\n      dup3\n      dup1\n      sload\n      0x01\n      dup2\n      0x01\n      and\n      iszero\n      0x0100\n      mul\n      sub\n      and\n      0x02\n      swap1\n      div\n      dup1\n      iszero\n      tag_372\n      jumpi\n      dup1\n      0x1f\n      lt\n      tag_373\n      jumpi\n      0x0100\n      dup1\n      dup4\n      sload\n      div\n      mul\n      dup4\n      mstore\n      swap2\n      0x20\n      add\n      swap2\n      jump(tag_372)\n    tag_373:\n      dup3\n      add\n      swap2\n      swap1\n      0x00\n      mstore\n      keccak256(0x00, 0x20)\n      swap1\n    tag_374:\n      dup2\n      sload\n      dup2\n      mstore\n      swap1\n      0x01\n      add\n      swap1\n      0x20\n      add\n      dup1\n      dup4\n      gt\n      tag_374\n      jumpi\n      dup3\n      swap1\n      sub\n      0x1f\n      and\n      dup3\n      add\n      swap2\n    tag_372:\n      pop\n      pop\n      pop\n      pop\n      pop\n      dup2\n      mstore\n      0x20\n      add\n      0x03\n      dup3\n      add\n      0x00\n      swap1\n      sload\n      swap1\n      0x0100\n      exp\n      swap1\n      div\n      0xffffffffffffffffffffffffffffffffffffffff\n      and\n      0xffffffffffffffffffffffffffffffffffffffff\n      and\n      0xffffffffffffffffffffffffffffffffffffffff\n      and\n      dup2\n      mstore\n      0x20\n      add\n      0x03\n      dup3\n      add\n      0x14\n      swap1\n      sload\n      swap1\n      0x0100\n      exp\n      swap1\n      div\n      0xff\n      and\n      iszero\n      iszero\n      iszero\n      iszero\n      dup2\n      mstore\n      0x20\n      add\n      0x04\n      dup3\n      add\n      dup1\n      sload\n      dup1\n      0x20\n      mul\n      0x20\n      add\n      mload(0x40)\n      swap1\n      dup2\n      add\n      0x40\n      mstore\n      dup1\n      swap3\n      swap2\n      swap1\n      dup2\n      dup2\n      mstore\n      0x20\n      add\n      dup3\n      dup1\n      sload\n      dup1\n      iszero\n      tag_375\n      jumpi\n      0x20\n      mul\n      dup3\n      add\n      swap2\n      swap1\n      0x00\n      mstore\n      keccak256(0x00, 0x20)\n      swap1\n    tag_376:\n      dup2\n      sload\n      dup2\n      mstore\n      0x20\n      add\n      swap1\n      0x01\n      add\n      swap1\n      dup1\n      dup4\n      gt\n      tag_376\n      jumpi\n    tag_375:\n      pop\n      pop\n      pop\n      pop\n      pop\n      dup2\n      mstore\n      pop\n      pop\n        /* \"EHealth.sol\":10206:10209  ret */\n      dup3\n        /* \"EHealth.sol\":10210:10211  i */\n      dup3\n        /* \"EHealth.sol\":10206:10212  ret[i] */\n      dup2\n      mload\n      dup2\n      lt\n      tag_377\n      jumpi\n      invalid\n    tag_377:\n      0x20\n      mul\n      0x20\n      add\n      add\n        /* \"EHealth.sol\":10206:10229  ret[i]=sensorsDoctor[i] */\n      dup2\n      swap1\n      mstore\n      pop\n        /* \"EHealth.sol\":10145:10245  if(_idDoctor == sensorsDoctor[i].idDoctor){\r... */\n    tag_366:\n        /* \"EHealth.sol\":10125:10128  i++ */\n      dup1\n      dup1\n      0x01\n      add\n      swap2\n      pop\n      pop\n        /* \"EHealth.sol\":10083:10256  for (uint i = 0; i< sensorsDoctor.length; i++) {\r... */\n      jump(tag_361)\n    tag_362:\n      pop\n        /* \"EHealth.sol\":10273:10276  ret */\n      dup1\n        /* \"EHealth.sol\":10266:10276  return ret */\n      swap2\n      pop\n      pop\n        /* \"EHealth.sol\":9918:10284  function getAllSensorOfDoctor (address _idDoctor) public view returns (Sensor[] memory){\r... */\n      swap2\n      swap1\n      pop\n      jump\t// out\n        /* \"EHealth.sol\":4194:4545  function ReadHospital(address _address)public view returns(string memory, string memory, string memory, uint, bool){\r... */\n    tag_104:\n        /* \"EHealth.sol\":4253:4266  string memory */\n      0x60\n        /* \"EHealth.sol\":4268:4281  string memory */\n      dup1\n        /* \"EHealth.sol\":4283:4296  string memory */\n      0x60\n        /* \"EHealth.sol\":4298:4302  uint */\n      0x00\n        /* \"EHealth.sol\":4304:4308  bool */\n      dup1\n        /* \"EHealth.sol\":4320:4330  uint index */\n      0x00\n        /* \"EHealth.sol\":4333:4355  FindHospital(_address) */\n      tag_379\n        /* \"EHealth.sol\":4346:4354  _address */\n      dup8\n        /* \"EHealth.sol\":4333:4345  FindHospital */\n      tag_190\n        /* \"EHealth.sol\":4333:4355  FindHospital(_address) */\n      jump\t// in\n    tag_379:\n        /* \"EHealth.sol\":4320:4355  uint index = FindHospital(_address) */\n      swap1\n      pop\n        /* \"EHealth.sol\":4374:4389  hospitalCenters */\n      0x04\n        /* \"EHealth.sol\":4390:4395  index */\n      dup2\n        /* \"EHealth.sol\":4374:4396  hospitalCenters[index] */\n      dup2\n      sload\n      dup2\n      lt\n      tag_380\n      jumpi\n      invalid\n    tag_380:\n      swap1\n      0x00\n      mstore\n      keccak256(0x00, 0x20)\n      swap1\n      0x06\n      mul\n      add\n        /* \"EHealth.sol\":4374:4401  hospitalCenters[index].name */\n      0x01\n      add\n        /* \"EHealth.sol\":4402:4417  hospitalCenters */\n      0x04\n        /* \"EHealth.sol\":4418:4423  index */\n      dup3\n        /* \"EHealth.sol\":4402:4424  hospitalCenters[index] */\n      dup2\n      sload\n      dup2\n      lt\n      tag_382\n      jumpi\n      invalid\n    tag_382:\n      swap1\n      0x00\n      mstore\n      keccak256(0x00, 0x20)\n      swap1\n      0x06\n      mul\n      add\n        /* \"EHealth.sol\":4402:4429  hospitalCenters[index].city */\n      0x02\n      add\n        /* \"EHealth.sol\":4430:4445  hospitalCenters */\n      0x04\n        /* \"EHealth.sol\":4446:4451  index */\n      dup4\n        /* \"EHealth.sol\":4430:4452  hospitalCenters[index] */\n      dup2\n      sload\n      dup2\n      lt\n      tag_384\n      jumpi\n      invalid\n    tag_384:\n      swap1\n      0x00\n      mstore\n      keccak256(0x00, 0x20)\n      swap1\n      0x06\n      mul\n      add\n        /* \"EHealth.sol\":4430:4458  hospitalCenters[index].state */\n      0x03\n      add\n        /* \"EHealth.sol\":4469:4484  hospitalCenters */\n      0x04\n        /* \"EHealth.sol\":4485:4490  index */\n      dup5\n        /* \"EHealth.sol\":4469:4491  hospitalCenters[index] */\n      dup2\n      sload\n      dup2\n      lt\n      tag_386\n      jumpi\n      invalid\n    tag_386:\n      swap1\n      0x00\n      mstore\n      keccak256(0x00, 0x20)\n      swap1\n      0x06\n      mul\n      add\n        /* \"EHealth.sol\":4469:4502  hospitalCenters[index].postalCode */\n      0x04\n      add\n      sload\n        /* \"EHealth.sol\":4503:4518  hospitalCenters */\n      0x04\n        /* \"EHealth.sol\":4519:4524  index */\n      dup6\n        /* \"EHealth.sol\":4503:4525  hospitalCenters[index] */\n      dup2\n      sload\n      dup2\n      lt\n      tag_388\n      jumpi\n      invalid\n    tag_388:\n      swap1\n      0x00\n      mstore\n      keccak256(0x00, 0x20)\n      swap1\n      0x06\n      mul\n      add\n        /* \"EHealth.sol\":4503:4536  hospitalCenters[index].permission */\n      0x05\n      add\n      0x00\n      swap1\n      sload\n      swap1\n      0x0100\n      exp\n      swap1\n      div\n      0xff\n      and\n        /* \"EHealth.sol\":4366:4537  return (hospitalCenters[index].name,hospitalCenters[index].city,hospitalCenters[index].state,\r... */\n      dup5\n      dup1\n      sload\n      0x01\n      dup2\n      0x01\n      and\n      iszero\n      0x0100\n      mul\n      sub\n      and\n      0x02\n      swap1\n      div\n      dup1\n      0x1f\n      add\n      0x20\n      dup1\n      swap2\n      div\n      mul\n      0x20\n      add\n      mload(0x40)\n      swap1\n      dup2\n      add\n      0x40\n      mstore\n      dup1\n      swap3\n      swap2\n      swap1\n      dup2\n      dup2\n      mstore\n      0x20\n      add\n      dup3\n      dup1\n      sload\n      0x01\n      dup2\n      0x01\n      and\n      iszero\n      0x0100\n      mul\n      sub\n      and\n      0x02\n      swap1\n      div\n      dup1\n      iszero\n      tag_390\n      jumpi\n      dup1\n      0x1f\n      lt\n      tag_391\n      jumpi\n      0x0100\n      dup1\n      dup4\n      sload\n      div\n      mul\n      dup4\n      mstore\n      swap2\n      0x20\n      add\n      swap2\n      jump(tag_390)\n    tag_391:\n      dup3\n      add\n      swap2\n      swap1\n      0x00\n      mstore\n      keccak256(0x00, 0x20)\n      swap1\n    tag_392:\n      dup2\n      sload\n      dup2\n      mstore\n      swap1\n      0x01\n      add\n      swap1\n      0x20\n      add\n      dup1\n      dup4\n      gt\n      tag_392\n      jumpi\n      dup3\n      swap1\n      sub\n      0x1f\n      and\n      dup3\n      add\n      swap2\n    tag_390:\n      pop\n      pop\n      pop\n      pop\n      pop\n      swap5\n      pop\n      dup4\n      dup1\n      sload\n      0x01\n      dup2\n      0x01\n      and\n      iszero\n      0x0100\n      mul\n      sub\n      and\n      0x02\n      swap1\n      div\n      dup1\n      0x1f\n      add\n      0x20\n      dup1\n      swap2\n      div\n      mul\n      0x20\n      add\n      mload(0x40)\n      swap1\n      dup2\n      add\n      0x40\n      mstore\n      dup1\n      swap3\n      swap2\n      swap1\n      dup2\n      dup2\n      mstore\n      0x20\n      add\n      dup3\n      dup1\n      sload\n      0x01\n      dup2\n      0x01\n      and\n      iszero\n      0x0100\n      mul\n      sub\n      and\n      0x02\n      swap1\n      div\n      dup1\n      iszero\n      tag_393\n      jumpi\n      dup1\n      0x1f\n      lt\n      tag_394\n      jumpi\n      0x0100\n      dup1\n      dup4\n      sload\n      div\n      mul\n      dup4\n      mstore\n      swap2\n      0x20\n      add\n      swap2\n      jump(tag_393)\n    tag_394:\n      dup3\n      add\n      swap2\n      swap1\n      0x00\n      mstore\n      keccak256(0x00, 0x20)\n      swap1\n    tag_395:\n      dup2\n      sload\n      dup2\n      mstore\n      swap1\n      0x01\n      add\n      swap1\n      0x20\n      add\n      dup1\n      dup4\n      gt\n      tag_395\n      jumpi\n      dup3\n      swap1\n      sub\n      0x1f\n      and\n      dup3\n      add\n      swap2\n    tag_393:\n      pop\n      pop\n      pop\n      pop\n      pop\n      swap4\n      pop\n      dup3\n      dup1\n      sload\n      0x01\n      dup2\n      0x01\n      and\n      iszero\n      0x0100\n      mul\n      sub\n      and\n      0x02\n      swap1\n      div\n      dup1\n      0x1f\n      add\n      0x20\n      dup1\n      swap2\n      div\n      mul\n      0x20\n      add\n      mload(0x40)\n      swap1\n      dup2\n      add\n      0x40\n      mstore\n      dup1\n      swap3\n      swap2\n      swap1\n      dup2\n      dup2\n      mstore\n      0x20\n      add\n      dup3\n      dup1\n      sload\n      0x01\n      dup2\n      0x01\n      and\n      iszero\n      0x0100\n      mul\n      sub\n      and\n      0x02\n      swap1\n      div\n      dup1\n      iszero\n      tag_396\n      jumpi\n      dup1\n      0x1f\n      lt\n      tag_397\n      jumpi\n      0x0100\n      dup1\n      dup4\n      sload\n      div\n      mul\n      dup4\n      mstore\n      swap2\n      0x20\n      add\n      swap2\n      jump(tag_396)\n    tag_397:\n      dup3\n      add\n      swap2\n      swap1\n      0x00\n      mstore\n      keccak256(0x00, 0x20)\n      swap1\n    tag_398:\n      dup2\n      sload\n      dup2\n      mstore\n      swap1\n      0x01\n      add\n      swap1\n      0x20\n      add\n      dup1\n      dup4\n      gt\n      tag_398\n      jumpi\n      dup3\n      swap1\n      sub\n      0x1f\n      and\n      dup3\n      add\n      swap2\n    tag_396:\n      pop\n      pop\n      pop\n      pop\n      pop\n      swap3\n      pop\n      swap6\n      pop\n      swap6\n      pop\n      swap6\n      pop\n      swap6\n      pop\n      swap6\n      pop\n      pop\n        /* \"EHealth.sol\":4194:4545  function ReadHospital(address _address)public view returns(string memory, string memory, string memory, uint, bool){\r... */\n      swap2\n      swap4\n      swap6\n      swap1\n      swap3\n      swap5\n      pop\n      jump\t// out\n        /* \"EHealth.sol\":5297:5627  function RemoveDoctor(address _id) public {\r... */\n    tag_109:\n        /* \"EHealth.sol\":5350:5360  uint index */\n      0x00\n        /* \"EHealth.sol\":5363:5378  FindDoctor(_id) */\n      tag_400\n        /* \"EHealth.sol\":5374:5377  _id */\n      dup3\n        /* \"EHealth.sol\":5363:5373  FindDoctor */\n      tag_173\n        /* \"EHealth.sol\":5363:5378  FindDoctor(_id) */\n      jump\t// in\n    tag_400:\n        /* \"EHealth.sol\":5350:5378  uint index = FindDoctor(_id) */\n      swap1\n      pop\n        /* \"EHealth.sol\":5423:5428  false */\n      0x00\n        /* \"EHealth.sol\":5389:5404  doctorsHospital */\n      0x06\n        /* \"EHealth.sol\":5405:5410  index */\n      dup3\n        /* \"EHealth.sol\":5389:5411  doctorsHospital[index] */\n      dup2\n      sload\n      dup2\n      lt\n      tag_401\n      jumpi\n      invalid\n    tag_401:\n      swap1\n      0x00\n      mstore\n      keccak256(0x00, 0x20)\n      swap1\n      0x03\n      mul\n      add\n        /* \"EHealth.sol\":5389:5422  doctorsHospital[index].permission */\n      0x02\n      add\n      0x14\n        /* \"EHealth.sol\":5389:5428  doctorsHospital[index].permission=false */\n      0x0100\n      exp\n      dup2\n      sload\n      dup2\n      0xff\n      mul\n      not\n      and\n      swap1\n      dup4\n      iszero\n      iszero\n      mul\n      or\n      swap1\n      sstore\n      pop\n        /* \"EHealth.sol\":5444:5619  DeleteDoctor(doctorsHospital[index].idDoctor,\r... */\n      0x780b3c74ec1e08d8c65fd8a12c6ac2da5c15f2d3b5e54335b51671f63b7d2ad0\n        /* \"EHealth.sol\":5457:5472  doctorsHospital */\n      0x06\n        /* \"EHealth.sol\":5473:5478  index */\n      dup3\n        /* \"EHealth.sol\":5457:5479  doctorsHospital[index] */\n      dup2\n      sload\n      dup2\n      lt\n      tag_403\n      jumpi\n      invalid\n    tag_403:\n      swap1\n      0x00\n      mstore\n      keccak256(0x00, 0x20)\n      swap1\n      0x03\n      mul\n      add\n        /* \"EHealth.sol\":5457:5488  doctorsHospital[index].idDoctor */\n      0x00\n      add\n      0x00\n      swap1\n      sload\n      swap1\n      0x0100\n      exp\n      swap1\n      div\n      0xffffffffffffffffffffffffffffffffffffffff\n      and\n        /* \"EHealth.sol\":5499:5514  doctorsHospital */\n      0x06\n        /* \"EHealth.sol\":5515:5520  index */\n      dup4\n        /* \"EHealth.sol\":5499:5521  doctorsHospital[index] */\n      dup2\n      sload\n      dup2\n      lt\n      tag_405\n      jumpi\n      invalid\n    tag_405:\n      swap1\n      0x00\n      mstore\n      keccak256(0x00, 0x20)\n      swap1\n      0x03\n      mul\n      add\n        /* \"EHealth.sol\":5499:5532  doctorsHospital[index].nameDoctor */\n      0x01\n      add\n        /* \"EHealth.sol\":5543:5558  doctorsHospital */\n      0x06\n        /* \"EHealth.sol\":5559:5564  index */\n      dup5\n        /* \"EHealth.sol\":5543:5565  doctorsHospital[index] */\n      dup2\n      sload\n      dup2\n      lt\n      tag_407\n      jumpi\n      invalid\n    tag_407:\n      swap1\n      0x00\n      mstore\n      keccak256(0x00, 0x20)\n      swap1\n      0x03\n      mul\n      add\n        /* \"EHealth.sol\":5543:5574  doctorsHospital[index].hospital */\n      0x02\n      add\n      0x00\n      swap1\n      sload\n      swap1\n      0x0100\n      exp\n      swap1\n      div\n      0xffffffffffffffffffffffffffffffffffffffff\n      and\n        /* \"EHealth.sol\":5585:5600  doctorsHospital */\n      0x06\n        /* \"EHealth.sol\":5601:5606  index */\n      dup6\n        /* \"EHealth.sol\":5585:5607  doctorsHospital[index] */\n      dup2\n      sload\n      dup2\n      lt\n      tag_409\n      jumpi\n      invalid\n    tag_409:\n      swap1\n      0x00\n      mstore\n      keccak256(0x00, 0x20)\n      swap1\n      0x03\n      mul\n      add\n        /* \"EHealth.sol\":5585:5618  doctorsHospital[index].permission */\n      0x02\n      add\n      0x14\n      swap1\n      sload\n      swap1\n      0x0100\n      exp\n      swap1\n      div\n      0xff\n      and\n        /* \"EHealth.sol\":5444:5619  DeleteDoctor(doctorsHospital[index].idDoctor,\r... */\n      mload(0x40)\n      tag_411\n      swap5\n      swap4\n      swap3\n      swap2\n      swap1\n      tag_266\n      jump\t// in\n    tag_411:\n      mload(0x40)\n      dup1\n      swap2\n      sub\n      swap1\n      log1\n        /* \"EHealth.sol\":5297:5627  function RemoveDoctor(address _id) public {\r... */\n      pop\n      pop\n      jump\t// out\n        /* \"EHealth.sol\":4052:4157  function Length_Hospitals() public view returns (uint256){\r... */\n    tag_111:\n        /* \"EHealth.sol\":4101:4108  uint256 */\n      0x00\n        /* \"EHealth.sol\":4127:4142  hospitalCenters */\n      0x04\n        /* \"EHealth.sol\":4127:4149  hospitalCenters.length */\n      dup1\n      sload\n      swap1\n      pop\n        /* \"EHealth.sol\":4120:4149  return hospitalCenters.length */\n      swap1\n      pop\n        /* \"EHealth.sol\":4052:4157  function Length_Hospitals() public view returns (uint256){\r... */\n      swap1\n      jump\t// out\n        /* \"EHealth.sol\":1844:2160  function AddHospital(address _idHospital, string memory _name, string memory _city, string memory _state, uint _postalCode ) public {\r... */\n    tag_116:\n        /* \"EHealth.sol\":1987:2002  hospitalCenters */\n      0x04\n        /* \"EHealth.sol\":2008:2070  Hospital(_idHospital, _name, _city, _state, _postalCode, true) */\n      mload(0x40)\n      dup1\n      0xc0\n      add\n      0x40\n      mstore\n      dup1\n        /* \"EHealth.sol\":2017:2028  _idHospital */\n      dup8\n        /* \"EHealth.sol\":2008:2070  Hospital(_idHospital, _name, _city, _state, _postalCode, true) */\n      0xffffffffffffffffffffffffffffffffffffffff\n      and\n      dup2\n      mstore\n      0x20\n      add\n        /* \"EHealth.sol\":2030:2035  _name */\n      dup7\n        /* \"EHealth.sol\":2008:2070  Hospital(_idHospital, _name, _city, _state, _postalCode, true) */\n      dup2\n      mstore\n      0x20\n      add\n        /* \"EHealth.sol\":2037:2042  _city */\n      dup6\n        /* \"EHealth.sol\":2008:2070  Hospital(_idHospital, _name, _city, _state, _postalCode, true) */\n      dup2\n      mstore\n      0x20\n      add\n        /* \"EHealth.sol\":2044:2050  _state */\n      dup5\n        /* \"EHealth.sol\":2008:2070  Hospital(_idHospital, _name, _city, _state, _postalCode, true) */\n      dup2\n      mstore\n      0x20\n      add\n        /* \"EHealth.sol\":2052:2063  _postalCode */\n      dup4\n        /* \"EHealth.sol\":2008:2070  Hospital(_idHospital, _name, _city, _state, _postalCode, true) */\n      dup2\n      mstore\n      0x20\n      add\n        /* \"EHealth.sol\":2065:2069  true */\n      0x01\n        /* \"EHealth.sol\":2008:2070  Hospital(_idHospital, _name, _city, _state, _postalCode, true) */\n      iszero\n      iszero\n      dup2\n      mstore\n      pop\n        /* \"EHealth.sol\":1987:2071  hospitalCenters.push(Hospital(_idHospital, _name, _city, _state, _postalCode, true)) */\n      swap1\n      dup1\n      0x01\n      dup2\n      sload\n      add\n      dup1\n      dup3\n      sstore\n      dup1\n      swap2\n      pop\n      pop\n      0x01\n      swap1\n      sub\n      swap1\n      0x00\n      mstore\n      keccak256(0x00, 0x20)\n      swap1\n      0x06\n      mul\n      add\n      0x00\n      swap1\n      swap2\n      swap1\n      swap2\n      swap1\n      swap2\n      pop\n      0x00\n      dup3\n      add\n      mload\n      dup2\n      0x00\n      add\n      exp(0x0100, 0x00)\n      dup2\n      sload\n      dup2\n      0xffffffffffffffffffffffffffffffffffffffff\n      mul\n      not\n      and\n      swap1\n      dup4\n      0xffffffffffffffffffffffffffffffffffffffff\n      and\n      mul\n      or\n      swap1\n      sstore\n      pop\n      0x20\n      dup3\n      add\n      mload\n      dup2\n      0x01\n      add\n      swap1\n      dup1\n      mload\n      swap1\n      0x20\n      add\n      swap1\n      tag_415\n      swap3\n      swap2\n      swap1\n      tag_176\n      jump\t// in\n    tag_415:\n      pop\n      0x40\n      dup3\n      add\n      mload\n      dup2\n      0x02\n      add\n      swap1\n      dup1\n      mload\n      swap1\n      0x20\n      add\n      swap1\n      tag_416\n      swap3\n      swap2\n      swap1\n      tag_176\n      jump\t// in\n    tag_416:\n      pop\n      0x60\n      dup3\n      add\n      mload\n      dup2\n      0x03\n      add\n      swap1\n      dup1\n      mload\n      swap1\n      0x20\n      add\n      swap1\n      tag_417\n      swap3\n      swap2\n      swap1\n      tag_176\n      jump\t// in\n    tag_417:\n      pop\n      0x80\n      dup3\n      add\n      mload\n      dup2\n      0x04\n      add\n      sstore\n      0xa0\n      dup3\n      add\n      mload\n      dup2\n      0x05\n      add\n      exp(0x0100, 0x00)\n      dup2\n      sload\n      dup2\n      0xff\n      mul\n      not\n      and\n      swap1\n      dup4\n      iszero\n      iszero\n      mul\n      or\n      swap1\n      sstore\n      pop\n      pop\n      pop\n        /* \"EHealth.sol\":2087:2152  NewHospital(_idHospital, _name, _city, _state, _postalCode, true) */\n      0xf646212acc3f5092fb0211ffd5121c0f706641b715e3982dab50afb395413dd5\n        /* \"EHealth.sol\":2099:2110  _idHospital */\n      dup6\n        /* \"EHealth.sol\":2112:2117  _name */\n      dup6\n        /* \"EHealth.sol\":2119:2124  _city */\n      dup6\n        /* \"EHealth.sol\":2126:2132  _state */\n      dup6\n        /* \"EHealth.sol\":2134:2145  _postalCode */\n      dup6\n        /* \"EHealth.sol\":2147:2151  true */\n      0x01\n        /* \"EHealth.sol\":2087:2152  NewHospital(_idHospital, _name, _city, _state, _postalCode, true) */\n      mload(0x40)\n      tag_418\n      swap7\n      swap6\n      swap5\n      swap4\n      swap3\n      swap2\n      swap1\n      tag_121\n      jump\t// in\n    tag_418:\n      mload(0x40)\n      dup1\n      swap2\n      sub\n      swap1\n      log1\n        /* \"EHealth.sol\":1844:2160  function AddHospital(address _idHospital, string memory _name, string memory _city, string memory _state, uint _postalCode ) public {\r... */\n      pop\n      pop\n      pop\n      pop\n      pop\n      jump\t// out\n        /* \"EHealth.sol\":301:345  mapping(address=> Hospital) public Hospitals */\n    tag_119:\n      mstore(0x20, 0x03)\n      dup1\n      0x00\n      mstore\n      keccak256(0x00, 0x40)\n      0x00\n      swap2\n      pop\n      swap1\n      pop\n      dup1\n      0x00\n      add\n      0x00\n      swap1\n      sload\n      swap1\n      0x0100\n      exp\n      swap1\n      div\n      0xffffffffffffffffffffffffffffffffffffffff\n      and\n      swap1\n      dup1\n      0x01\n      add\n      dup1\n      sload\n      0x01\n      dup2\n      0x01\n      and\n      iszero\n      0x0100\n      mul\n      sub\n      and\n      0x02\n      swap1\n      div\n      dup1\n      0x1f\n      add\n      0x20\n      dup1\n      swap2\n      div\n      mul\n      0x20\n      add\n      mload(0x40)\n      swap1\n      dup2\n      add\n      0x40\n      mstore\n      dup1\n      swap3\n      swap2\n      swap1\n      dup2\n      dup2\n      mstore\n      0x20\n      add\n      dup3\n      dup1\n      sload\n      0x01\n      dup2\n      0x01\n      and\n      iszero\n      0x0100\n      mul\n      sub\n      and\n      0x02\n      swap1\n      div\n      dup1\n      iszero\n      tag_419\n      jumpi\n      dup1\n      0x1f\n      lt\n      tag_420\n      jumpi\n      0x0100\n      dup1\n      dup4\n      sload\n      div\n      mul\n      dup4\n      mstore\n      swap2\n      0x20\n      add\n      swap2\n      jump(tag_419)\n    tag_420:\n      dup3\n      add\n      swap2\n      swap1\n      0x00\n      mstore\n      keccak256(0x00, 0x20)\n      swap1\n    tag_421:\n      dup2\n      sload\n      dup2\n      mstore\n      swap1\n      0x01\n      add\n      swap1\n      0x20\n      add\n      dup1\n      dup4\n      gt\n      tag_421\n      jumpi\n      dup3\n      swap1\n      sub\n      0x1f\n      and\n      dup3\n      add\n      swap2\n    tag_419:\n      pop\n      pop\n      pop\n      pop\n      pop\n      swap1\n      dup1\n      0x02\n      add\n      dup1\n      sload\n      0x01\n      dup2\n      0x01\n      and\n      iszero\n      0x0100\n      mul\n      sub\n      and\n      0x02\n      swap1\n      div\n      dup1\n      0x1f\n      add\n      0x20\n      dup1\n      swap2\n      div\n      mul\n      0x20\n      add\n      mload(0x40)\n      swap1\n      dup2\n      add\n      0x40\n      mstore\n      dup1\n      swap3\n      swap2\n      swap1\n      dup2\n      dup2\n      mstore\n      0x20\n      add\n      dup3\n      dup1\n      sload\n      0x01\n      dup2\n      0x01\n      and\n      iszero\n      0x0100\n      mul\n      sub\n      and\n      0x02\n      swap1\n      div\n      dup1\n      iszero\n      tag_422\n      jumpi\n      dup1\n      0x1f\n      lt\n      tag_423\n      jumpi\n      0x0100\n      dup1\n      dup4\n      sload\n      div\n      mul\n      dup4\n      mstore\n      swap2\n      0x20\n      add\n      swap2\n      jump(tag_422)\n    tag_423:\n      dup3\n      add\n      swap2\n      swap1\n      0x00\n      mstore\n      keccak256(0x00, 0x20)\n      swap1\n    tag_424:\n      dup2\n      sload\n      dup2\n      mstore\n      swap1\n      0x01\n      add\n      swap1\n      0x20\n      add\n      dup1\n      dup4\n      gt\n      tag_424\n      jumpi\n      dup3\n      swap1\n      sub\n      0x1f\n      and\n      dup3\n      add\n      swap2\n    tag_422:\n      pop\n      pop\n      pop\n      pop\n      pop\n      swap1\n      dup1\n      0x03\n      add\n      dup1\n      sload\n      0x01\n      dup2\n      0x01\n      and\n      iszero\n      0x0100\n      mul\n      sub\n      and\n      0x02\n      swap1\n      div\n      dup1\n      0x1f\n      add\n      0x20\n      dup1\n      swap2\n      div\n      mul\n      0x20\n      add\n      mload(0x40)\n      swap1\n      dup2\n      add\n      0x40\n      mstore\n      dup1\n      swap3\n      swap2\n      swap1\n      dup2\n      dup2\n      mstore\n      0x20\n      add\n      dup3\n      dup1\n      sload\n      0x01\n      dup2\n      0x01\n      and\n      iszero\n      0x0100\n      mul\n      sub\n      and\n      0x02\n      swap1\n      div\n      dup1\n      iszero\n      tag_425\n      jumpi\n      dup1\n      0x1f\n      lt\n      tag_426\n      jumpi\n      0x0100\n      dup1\n      dup4\n      sload\n      div\n      mul\n      dup4\n      mstore\n      swap2\n      0x20\n      add\n      swap2\n      jump(tag_425)\n    tag_426:\n      dup3\n      add\n      swap2\n      swap1\n      0x00\n      mstore\n      keccak256(0x00, 0x20)\n      swap1\n    tag_427:\n      dup2\n      sload\n      dup2\n      mstore\n      swap1\n      0x01\n      add\n      swap1\n      0x20\n      add\n      dup1\n      dup4\n      gt\n      tag_427\n      jumpi\n      dup3\n      swap1\n      sub\n      0x1f\n      and\n      dup3\n      add\n      swap2\n    tag_425:\n      pop\n      pop\n      pop\n      pop\n      pop\n      swap1\n      dup1\n      0x04\n      add\n      sload\n      swap1\n      dup1\n      0x05\n      add\n      0x00\n      swap1\n      sload\n      swap1\n      0x0100\n      exp\n      swap1\n      div\n      0xff\n      and\n      swap1\n      pop\n      dup7\n      jump\t// out\n        /* \"EHealth.sol\":9473:9574  function Length_sensors() public view returns (uint256){\r... */\n    tag_123:\n        /* \"EHealth.sol\":9520:9527  uint256 */\n      0x00\n        /* \"EHealth.sol\":9546:9559  sensorsDoctor */\n      0x08\n        /* \"EHealth.sol\":9546:9566  sensorsDoctor.length */\n      dup1\n      sload\n      swap1\n      pop\n        /* \"EHealth.sol\":9539:9566  return sensorsDoctor.length */\n      swap1\n      pop\n        /* \"EHealth.sol\":9473:9574  function Length_sensors() public view returns (uint256){\r... */\n      swap1\n      jump\t// out\n        /* \"EHealth.sol\":6941:7315  function getAllDoctorsInHospital(address _address) public view returns (Doctor[] memory){\r... */\n    tag_127:\n        /* \"EHealth.sol\":7013:7028  Doctor[] memory */\n      0x60\n        /* \"EHealth.sol\":7040:7059  Doctor[] memory ret */\n      0x00\n        /* \"EHealth.sol\":7075:7090  doctorsHospital */\n      0x06\n        /* \"EHealth.sol\":7075:7097  doctorsHospital.length */\n      dup1\n      sload\n      swap1\n      pop\n        /* \"EHealth.sol\":7062:7098  new Doctor[](doctorsHospital.length) */\n      0xffffffffffffffff\n      dup2\n      gt\n      dup1\n      iszero\n      tag_430\n      jumpi\n      0x00\n      dup1\n      revert\n    tag_430:\n      pop\n      mload(0x40)\n      swap1\n      dup1\n      dup3\n      mstore\n      dup1\n      0x20\n      mul\n      0x20\n      add\n      dup3\n      add\n      0x40\n      mstore\n      dup1\n      iszero\n      tag_431\n      jumpi\n      dup2\n      0x20\n      add\n    tag_432:\n      tag_433\n      tag_434\n      jump\t// in\n    tag_433:\n      dup2\n      mstore\n      0x20\n      add\n      swap1\n      0x01\n      swap1\n      sub\n      swap1\n      dup2\n      tag_432\n      jumpi\n      swap1\n      pop\n    tag_431:\n      pop\n        /* \"EHealth.sol\":7040:7098  Doctor[] memory ret = new Doctor[](doctorsHospital.length) */\n      swap1\n      pop\n        /* \"EHealth.sol\":7114:7120  uint i */\n      0x00\n        /* \"EHealth.sol\":7109:7287  for (uint i = 0; i< doctorsHospital.length; i++) {\r... */\n    tag_435:\n        /* \"EHealth.sol\":7129:7144  doctorsHospital */\n      0x06\n        /* \"EHealth.sol\":7129:7151  doctorsHospital.length */\n      dup1\n      sload\n      swap1\n      pop\n        /* \"EHealth.sol\":7126:7127  i */\n      dup2\n        /* \"EHealth.sol\":7126:7151  i< doctorsHospital.length */\n      lt\n        /* \"EHealth.sol\":7109:7287  for (uint i = 0; i< doctorsHospital.length; i++) {\r... */\n      iszero\n      tag_436\n      jumpi\n        /* \"EHealth.sol\":7188:7203  doctorsHospital */\n      0x06\n        /* \"EHealth.sol\":7204:7205  i */\n      dup2\n        /* \"EHealth.sol\":7188:7206  doctorsHospital[i] */\n      dup2\n      sload\n      dup2\n      lt\n      tag_438\n      jumpi\n      invalid\n    tag_438:\n      swap1\n      0x00\n      mstore\n      keccak256(0x00, 0x20)\n      swap1\n      0x03\n      mul\n      add\n        /* \"EHealth.sol\":7188:7215  doctorsHospital[i].hospital */\n      0x02\n      add\n      0x00\n      swap1\n      sload\n      swap1\n      0x0100\n      exp\n      swap1\n      div\n      0xffffffffffffffffffffffffffffffffffffffff\n      and\n        /* \"EHealth.sol\":7176:7215  _address == doctorsHospital[i].hospital */\n      0xffffffffffffffffffffffffffffffffffffffff\n      and\n        /* \"EHealth.sol\":7176:7184  _address */\n      dup5\n        /* \"EHealth.sol\":7176:7215  _address == doctorsHospital[i].hospital */\n      0xffffffffffffffffffffffffffffffffffffffff\n      and\n      eq\n        /* \"EHealth.sol\":7173:7276  if(_address == doctorsHospital[i].hospital){\r... */\n      iszero\n      tag_440\n      jumpi\n        /* \"EHealth.sol\":7242:7257  doctorsHospital */\n      0x06\n        /* \"EHealth.sol\":7258:7259  i */\n      dup2\n        /* \"EHealth.sol\":7242:7260  doctorsHospital[i] */\n      dup2\n      sload\n      dup2\n      lt\n      tag_441\n      jumpi\n      invalid\n    tag_441:\n      swap1\n      0x00\n      mstore\n      keccak256(0x00, 0x20)\n      swap1\n      0x03\n      mul\n      add\n        /* \"EHealth.sol\":7235:7260  ret[i]=doctorsHospital[i] */\n      mload(0x40)\n      dup1\n      0x80\n      add\n      0x40\n      mstore\n      swap1\n      dup2\n      0x00\n      dup3\n      add\n      0x00\n      swap1\n      sload\n      swap1\n      0x0100\n      exp\n      swap1\n      div\n      0xffffffffffffffffffffffffffffffffffffffff\n      and\n      0xffffffffffffffffffffffffffffffffffffffff\n      and\n      0xffffffffffffffffffffffffffffffffffffffff\n      and\n      dup2\n      mstore\n      0x20\n      add\n      0x01\n      dup3\n      add\n      dup1\n      sload\n      0x01\n      dup2\n      0x01\n      and\n      iszero\n      0x0100\n      mul\n      sub\n      and\n      0x02\n      swap1\n      div\n      dup1\n      0x1f\n      add\n      0x20\n      dup1\n      swap2\n      div\n      mul\n      0x20\n      add\n      mload(0x40)\n      swap1\n      dup2\n      add\n      0x40\n      mstore\n      dup1\n      swap3\n      swap2\n      swap1\n      dup2\n      dup2\n      mstore\n      0x20\n      add\n      dup3\n      dup1\n      sload\n      0x01\n      dup2\n      0x01\n      and\n      iszero\n      0x0100\n      mul\n      sub\n      and\n      0x02\n      swap1\n      div\n      dup1\n      iszero\n      tag_443\n      jumpi\n      dup1\n      0x1f\n      lt\n      tag_444\n      jumpi\n      0x0100\n      dup1\n      dup4\n      sload\n      div\n      mul\n      dup4\n      mstore\n      swap2\n      0x20\n      add\n      swap2\n      jump(tag_443)\n    tag_444:\n      dup3\n      add\n      swap2\n      swap1\n      0x00\n      mstore\n      keccak256(0x00, 0x20)\n      swap1\n    tag_445:\n      dup2\n      sload\n      dup2\n      mstore\n      swap1\n      0x01\n      add\n      swap1\n      0x20\n      add\n      dup1\n      dup4\n      gt\n      tag_445\n      jumpi\n      dup3\n      swap1\n      sub\n      0x1f\n      and\n      dup3\n      add\n      swap2\n    tag_443:\n      pop\n      pop\n      pop\n      pop\n      pop\n      dup2\n      mstore\n      0x20\n      add\n      0x02\n      dup3\n      add\n      0x00\n      swap1\n      sload\n      swap1\n      0x0100\n      exp\n      swap1\n      div\n      0xffffffffffffffffffffffffffffffffffffffff\n      and\n      0xffffffffffffffffffffffffffffffffffffffff\n      and\n      0xffffffffffffffffffffffffffffffffffffffff\n      and\n      dup2\n      mstore\n      0x20\n      add\n      0x02\n      dup3\n      add\n      0x14\n      swap1\n      sload\n      swap1\n      0x0100\n      exp\n      swap1\n      div\n      0xff\n      and\n      iszero\n      iszero\n      iszero\n      iszero\n      dup2\n      mstore\n      pop\n      pop\n        /* \"EHealth.sol\":7235:7238  ret */\n      dup3\n        /* \"EHealth.sol\":7239:7240  i */\n      dup3\n        /* \"EHealth.sol\":7235:7241  ret[i] */\n      dup2\n      mload\n      dup2\n      lt\n      tag_446\n      jumpi\n      invalid\n    tag_446:\n      0x20\n      mul\n      0x20\n      add\n      add\n        /* \"EHealth.sol\":7235:7260  ret[i]=doctorsHospital[i] */\n      dup2\n      swap1\n      mstore\n      pop\n        /* \"EHealth.sol\":7173:7276  if(_address == doctorsHospital[i].hospital){\r... */\n    tag_440:\n        /* \"EHealth.sol\":7153:7156  i++ */\n      dup1\n      dup1\n      0x01\n      add\n      swap2\n      pop\n      pop\n        /* \"EHealth.sol\":7109:7287  for (uint i = 0; i< doctorsHospital.length; i++) {\r... */\n      jump(tag_435)\n    tag_436:\n      pop\n        /* \"EHealth.sol\":7304:7307  ret */\n      dup1\n        /* \"EHealth.sol\":7297:7307  return ret */\n      swap2\n      pop\n      pop\n        /* \"EHealth.sol\":6941:7315  function getAllDoctorsInHospital(address _address) public view returns (Doctor[] memory){\r... */\n      swap2\n      swap1\n      pop\n      jump\t// out\n        /* \"EHealth.sol\":10513:10683  function viewSensorData(uint _idSensor) public view returns(uint[] memory){\r... */\n    tag_132:\n        /* \"EHealth.sol\":10573:10586  uint[] memory */\n      0x60\n        /* \"EHealth.sol\":10598:10608  uint index */\n      0x00\n        /* \"EHealth.sol\":10611:10632  FindSensor(_idSensor) */\n      tag_448\n        /* \"EHealth.sol\":10622:10631  _idSensor */\n      dup4\n        /* \"EHealth.sol\":10611:10621  FindSensor */\n      tag_156\n        /* \"EHealth.sol\":10611:10632  FindSensor(_idSensor) */\n      jump\t// in\n    tag_448:\n        /* \"EHealth.sol\":10598:10632  uint index = FindSensor(_idSensor) */\n      swap1\n      pop\n        /* \"EHealth.sol\":10650:10663  sensorsDoctor */\n      0x08\n        /* \"EHealth.sol\":10664:10669  index */\n      dup2\n        /* \"EHealth.sol\":10650:10670  sensorsDoctor[index] */\n      dup2\n      sload\n      dup2\n      lt\n      tag_449\n      jumpi\n      invalid\n    tag_449:\n      swap1\n      0x00\n      mstore\n      keccak256(0x00, 0x20)\n      swap1\n      0x05\n      mul\n      add\n        /* \"EHealth.sol\":10650:10675  sensorsDoctor[index].data */\n      0x04\n      add\n        /* \"EHealth.sol\":10643:10675  return sensorsDoctor[index].data */\n      dup1\n      sload\n      dup1\n      0x20\n      mul\n      0x20\n      add\n      mload(0x40)\n      swap1\n      dup2\n      add\n      0x40\n      mstore\n      dup1\n      swap3\n      swap2\n      swap1\n      dup2\n      dup2\n      mstore\n      0x20\n      add\n      dup3\n      dup1\n      sload\n      dup1\n      iszero\n      tag_451\n      jumpi\n      0x20\n      mul\n      dup3\n      add\n      swap2\n      swap1\n      0x00\n      mstore\n      keccak256(0x00, 0x20)\n      swap1\n    tag_452:\n      dup2\n      sload\n      dup2\n      mstore\n      0x20\n      add\n      swap1\n      0x01\n      add\n      swap1\n      dup1\n      dup4\n      gt\n      tag_452\n      jumpi\n    tag_451:\n      pop\n      pop\n      pop\n      pop\n      pop\n      swap2\n      pop\n      pop\n        /* \"EHealth.sol\":10513:10683  function viewSensorData(uint _idSensor) public view returns(uint[] memory){\r... */\n      swap2\n      swap1\n      pop\n      jump\t// out\n        /* \"EHealth.sol\":536:569  Hospital[] public hospitalCenters */\n    tag_137:\n      0x04\n      dup2\n      dup2\n      sload\n      dup2\n      lt\n      tag_453\n      jumpi\n      0x00\n      dup1\n      revert\n    tag_453:\n      swap1\n      0x00\n      mstore\n      keccak256(0x00, 0x20)\n      swap1\n      0x06\n      mul\n      add\n      0x00\n      swap2\n      pop\n      swap1\n      pop\n      dup1\n      0x00\n      add\n      0x00\n      swap1\n      sload\n      swap1\n      0x0100\n      exp\n      swap1\n      div\n      0xffffffffffffffffffffffffffffffffffffffff\n      and\n      swap1\n      dup1\n      0x01\n      add\n      dup1\n      sload\n      0x01\n      dup2\n      0x01\n      and\n      iszero\n      0x0100\n      mul\n      sub\n      and\n      0x02\n      swap1\n      div\n      dup1\n      0x1f\n      add\n      0x20\n      dup1\n      swap2\n      div\n      mul\n      0x20\n      add\n      mload(0x40)\n      swap1\n      dup2\n      add\n      0x40\n      mstore\n      dup1\n      swap3\n      swap2\n      swap1\n      dup2\n      dup2\n      mstore\n      0x20\n      add\n      dup3\n      dup1\n      sload\n      0x01\n      dup2\n      0x01\n      and\n      iszero\n      0x0100\n      mul\n      sub\n      and\n      0x02\n      swap1\n      div\n      dup1\n      iszero\n      tag_455\n      jumpi\n      dup1\n      0x1f\n      lt\n      tag_456\n      jumpi\n      0x0100\n      dup1\n      dup4\n      sload\n      div\n      mul\n      dup4\n      mstore\n      swap2\n      0x20\n      add\n      swap2\n      jump(tag_455)\n    tag_456:\n      dup3\n      add\n      swap2\n      swap1\n      0x00\n      mstore\n      keccak256(0x00, 0x20)\n      swap1\n    tag_457:\n      dup2\n      sload\n      dup2\n      mstore\n      swap1\n      0x01\n      add\n      swap1\n      0x20\n      add\n      dup1\n      dup4\n      gt\n      tag_457\n      jumpi\n      dup3\n      swap1\n      sub\n      0x1f\n      and\n      dup3\n      add\n      swap2\n    tag_455:\n      pop\n      pop\n      pop\n      pop\n      pop\n      swap1\n      dup1\n      0x02\n      add\n      dup1\n      sload\n      0x01\n      dup2\n      0x01\n      and\n      iszero\n      0x0100\n      mul\n      sub\n      and\n      0x02\n      swap1\n      div\n      dup1\n      0x1f\n      add\n      0x20\n      dup1\n      swap2\n      div\n      mul\n      0x20\n      add\n      mload(0x40)\n      swap1\n      dup2\n      add\n      0x40\n      mstore\n      dup1\n      swap3\n      swap2\n      swap1\n      dup2\n      dup2\n      mstore\n      0x20\n      add\n      dup3\n      dup1\n      sload\n      0x01\n      dup2\n      0x01\n      and\n      iszero\n      0x0100\n      mul\n      sub\n      and\n      0x02\n      swap1\n      div\n      dup1\n      iszero\n      tag_458\n      jumpi\n      dup1\n      0x1f\n      lt\n      tag_459\n      jumpi\n      0x0100\n      dup1\n      dup4\n      sload\n      div\n      mul\n      dup4\n      mstore\n      swap2\n      0x20\n      add\n      swap2\n      jump(tag_458)\n    tag_459:\n      dup3\n      add\n      swap2\n      swap1\n      0x00\n      mstore\n      keccak256(0x00, 0x20)\n      swap1\n    tag_460:\n      dup2\n      sload\n      dup2\n      mstore\n      swap1\n      0x01\n      add\n      swap1\n      0x20\n      add\n      dup1\n      dup4\n      gt\n      tag_460\n      jumpi\n      dup3\n      swap1\n      sub\n      0x1f\n      and\n      dup3\n      add\n      swap2\n    tag_458:\n      pop\n      pop\n      pop\n      pop\n      pop\n      swap1\n      dup1\n      0x03\n      add\n      dup1\n      sload\n      0x01\n      dup2\n      0x01\n      and\n      iszero\n      0x0100\n      mul\n      sub\n      and\n      0x02\n      swap1\n      div\n      dup1\n      0x1f\n      add\n      0x20\n      dup1\n      swap2\n      div\n      mul\n      0x20\n      add\n      mload(0x40)\n      swap1\n      dup2\n      add\n      0x40\n      mstore\n      dup1\n      swap3\n      swap2\n      swap1\n      dup2\n      dup2\n      mstore\n      0x20\n      add\n      dup3\n      dup1\n      sload\n      0x01\n      dup2\n      0x01\n      and\n      iszero\n      0x0100\n      mul\n      sub\n      and\n      0x02\n      swap1\n      div\n      dup1\n      iszero\n      tag_461\n      jumpi\n      dup1\n      0x1f\n      lt\n      tag_462\n      jumpi\n      0x0100\n      dup1\n      dup4\n      sload\n      div\n      mul\n      dup4\n      mstore\n      swap2\n      0x20\n      add\n      swap2\n      jump(tag_461)\n    tag_462:\n      dup3\n      add\n      swap2\n      swap1\n      0x00\n      mstore\n      keccak256(0x00, 0x20)\n      swap1\n    tag_463:\n      dup2\n      sload\n      dup2\n      mstore\n      swap1\n      0x01\n      add\n      swap1\n      0x20\n      add\n      dup1\n      dup4\n      gt\n      tag_463\n      jumpi\n      dup3\n      swap1\n      sub\n      0x1f\n      and\n      dup3\n      add\n      swap2\n    tag_461:\n      pop\n      pop\n      pop\n      pop\n      pop\n      swap1\n      dup1\n      0x04\n      add\n      sload\n      swap1\n      dup1\n      0x05\n      add\n      0x00\n      swap1\n      sload\n      swap1\n      0x0100\n      exp\n      swap1\n      div\n      0xff\n      and\n      swap1\n      pop\n      dup7\n      jump\t// out\n        /* \"EHealth.sol\":598:638  mapping(address=> Doctor) public Doctors */\n    tag_141:\n      mstore(0x20, 0x05)\n      dup1\n      0x00\n      mstore\n      keccak256(0x00, 0x40)\n      0x00\n      swap2\n      pop\n      swap1\n      pop\n      dup1\n      0x00\n      add\n      0x00\n      swap1\n      sload\n      swap1\n      0x0100\n      exp\n      swap1\n      div\n      0xffffffffffffffffffffffffffffffffffffffff\n      and\n      swap1\n      dup1\n      0x01\n      add\n      dup1\n      sload\n      0x01\n      dup2\n      0x01\n      and\n      iszero\n      0x0100\n      mul\n      sub\n      and\n      0x02\n      swap1\n      div\n      dup1\n      0x1f\n      add\n      0x20\n      dup1\n      swap2\n      div\n      mul\n      0x20\n      add\n      mload(0x40)\n      swap1\n      dup2\n      add\n      0x40\n      mstore\n      dup1\n      swap3\n      swap2\n      swap1\n      dup2\n      dup2\n      mstore\n      0x20\n      add\n      dup3\n      dup1\n      sload\n      0x01\n      dup2\n      0x01\n      and\n      iszero\n      0x0100\n      mul\n      sub\n      and\n      0x02\n      swap1\n      div\n      dup1\n      iszero\n      tag_464\n      jumpi\n      dup1\n      0x1f\n      lt\n      tag_465\n      jumpi\n      0x0100\n      dup1\n      dup4\n      sload\n      div\n      mul\n      dup4\n      mstore\n      swap2\n      0x20\n      add\n      swap2\n      jump(tag_464)\n    tag_465:\n      dup3\n      add\n      swap2\n      swap1\n      0x00\n      mstore\n      keccak256(0x00, 0x20)\n      swap1\n    tag_466:\n      dup2\n      sload\n      dup2\n      mstore\n      swap1\n      0x01\n      add\n      swap1\n      0x20\n      add\n      dup1\n      dup4\n      gt\n      tag_466\n      jumpi\n      dup3\n      swap1\n      sub\n      0x1f\n      and\n      dup3\n      add\n      swap2\n    tag_464:\n      pop\n      pop\n      pop\n      pop\n      pop\n      swap1\n      dup1\n      0x02\n      add\n      0x00\n      swap1\n      sload\n      swap1\n      0x0100\n      exp\n      swap1\n      div\n      0xffffffffffffffffffffffffffffffffffffffff\n      and\n      swap1\n      dup1\n      0x02\n      add\n      0x14\n      swap1\n      sload\n      swap1\n      0x0100\n      exp\n      swap1\n      div\n      0xff\n      and\n      swap1\n      pop\n      dup5\n      jump\t// out\n        /* \"EHealth.sol\":4679:4952  function AddDoctor(address idDoctor, string memory _nameDoctor, address _hospital) public {\r... */\n    tag_146:\n        /* \"EHealth.sol\":4780:4803  FindHospital(_hospital) */\n      tag_468\n        /* \"EHealth.sol\":4793:4802  _hospital */\n      dup2\n        /* \"EHealth.sol\":4780:4792  FindHospital */\n      tag_190\n        /* \"EHealth.sol\":4780:4803  FindHospital(_hospital) */\n      jump\t// in\n    tag_468:\n      pop\n        /* \"EHealth.sol\":4814:4829  doctorsHospital */\n      0x06\n        /* \"EHealth.sol\":4835:4881  Doctor(idDoctor, _nameDoctor, _hospital, true) */\n      mload(0x40)\n      dup1\n      0x80\n      add\n      0x40\n      mstore\n      dup1\n        /* \"EHealth.sol\":4842:4850  idDoctor */\n      dup6\n        /* \"EHealth.sol\":4835:4881  Doctor(idDoctor, _nameDoctor, _hospital, true) */\n      0xffffffffffffffffffffffffffffffffffffffff\n      and\n      dup2\n      mstore\n      0x20\n      add\n        /* \"EHealth.sol\":4852:4863  _nameDoctor */\n      dup5\n        /* \"EHealth.sol\":4835:4881  Doctor(idDoctor, _nameDoctor, _hospital, true) */\n      dup2\n      mstore\n      0x20\n      add\n        /* \"EHealth.sol\":4865:4874  _hospital */\n      dup4\n        /* \"EHealth.sol\":4835:4881  Doctor(idDoctor, _nameDoctor, _hospital, true) */\n      0xffffffffffffffffffffffffffffffffffffffff\n      and\n      dup2\n      mstore\n      0x20\n      add\n        /* \"EHealth.sol\":4876:4880  true */\n      0x01\n        /* \"EHealth.sol\":4835:4881  Doctor(idDoctor, _nameDoctor, _hospital, true) */\n      iszero\n      iszero\n      dup2\n      mstore\n      pop\n        /* \"EHealth.sol\":4814:4882  doctorsHospital.push(Doctor(idDoctor, _nameDoctor, _hospital, true)) */\n      swap1\n      dup1\n      0x01\n      dup2\n      sload\n      add\n      dup1\n      dup3\n      sstore\n      dup1\n      swap2\n      pop\n      pop\n      0x01\n      swap1\n      sub\n      swap1\n      0x00\n      mstore\n      keccak256(0x00, 0x20)\n      swap1\n      0x03\n      mul\n      add\n      0x00\n      swap1\n      swap2\n      swap1\n      swap2\n      swap1\n      swap2\n      pop\n      0x00\n      dup3\n      add\n      mload\n      dup2\n      0x00\n      add\n      exp(0x0100, 0x00)\n      dup2\n      sload\n      dup2\n      0xffffffffffffffffffffffffffffffffffffffff\n      mul\n      not\n      and\n      swap1\n      dup4\n      0xffffffffffffffffffffffffffffffffffffffff\n      and\n      mul\n      or\n      swap1\n      sstore\n      pop\n      0x20\n      dup3\n      add\n      mload\n      dup2\n      0x01\n      add\n      swap1\n      dup1\n      mload\n      swap1\n      0x20\n      add\n      swap1\n      tag_470\n      swap3\n      swap2\n      swap1\n      tag_176\n      jump\t// in\n    tag_470:\n      pop\n      0x40\n      dup3\n      add\n      mload\n      dup2\n      0x02\n      add\n      exp(0x0100, 0x00)\n      dup2\n      sload\n      dup2\n      0xffffffffffffffffffffffffffffffffffffffff\n      mul\n      not\n      and\n      swap1\n      dup4\n      0xffffffffffffffffffffffffffffffffffffffff\n      and\n      mul\n      or\n      swap1\n      sstore\n      pop\n      0x60\n      dup3\n      add\n      mload\n      dup2\n      0x02\n      add\n      exp(0x0100, 0x14)\n      dup2\n      sload\n      dup2\n      0xff\n      mul\n      not\n      and\n      swap1\n      dup4\n      iszero\n      iszero\n      mul\n      or\n      swap1\n      sstore\n      pop\n      pop\n      pop\n        /* \"EHealth.sol\":4898:4944  NewDoctor(idDoctor,_nameDoctor,_hospital,true) */\n      0x4578695497af1a3a1f556f9c89f9f107851cb8e1820e4b336143406b9ba52e3b\n        /* \"EHealth.sol\":4908:4916  idDoctor */\n      dup4\n        /* \"EHealth.sol\":4917:4928  _nameDoctor */\n      dup4\n        /* \"EHealth.sol\":4929:4938  _hospital */\n      dup4\n        /* \"EHealth.sol\":4939:4943  true */\n      0x01\n        /* \"EHealth.sol\":4898:4944  NewDoctor(idDoctor,_nameDoctor,_hospital,true) */\n      mload(0x40)\n      tag_471\n      swap5\n      swap4\n      swap3\n      swap2\n      swap1\n      tag_97\n      jump\t// in\n    tag_471:\n      mload(0x40)\n      dup1\n      swap2\n      sub\n      swap1\n      log1\n        /* \"EHealth.sol\":4679:4952  function AddDoctor(address idDoctor, string memory _nameDoctor, address _hospital) public {\r... */\n      pop\n      pop\n      pop\n      jump\t// out\n        /* \"EHealth.sol\":1114:1143  Sensor[] public sensorsDoctor */\n    tag_149:\n      0x08\n      dup2\n      dup2\n      sload\n      dup2\n      lt\n      tag_472\n      jumpi\n      0x00\n      dup1\n      revert\n    tag_472:\n      swap1\n      0x00\n      mstore\n      keccak256(0x00, 0x20)\n      swap1\n      0x05\n      mul\n      add\n      0x00\n      swap2\n      pop\n      swap1\n      pop\n      dup1\n      0x00\n      add\n      sload\n      swap1\n      dup1\n      0x01\n      add\n      dup1\n      sload\n      0x01\n      dup2\n      0x01\n      and\n      iszero\n      0x0100\n      mul\n      sub\n      and\n      0x02\n      swap1\n      div\n      dup1\n      0x1f\n      add\n      0x20\n      dup1\n      swap2\n      div\n      mul\n      0x20\n      add\n      mload(0x40)\n      swap1\n      dup2\n      add\n      0x40\n      mstore\n      dup1\n      swap3\n      swap2\n      swap1\n      dup2\n      dup2\n      mstore\n      0x20\n      add\n      dup3\n      dup1\n      sload\n      0x01\n      dup2\n      0x01\n      and\n      iszero\n      0x0100\n      mul\n      sub\n      and\n      0x02\n      swap1\n      div\n      dup1\n      iszero\n      tag_474\n      jumpi\n      dup1\n      0x1f\n      lt\n      tag_475\n      jumpi\n      0x0100\n      dup1\n      dup4\n      sload\n      div\n      mul\n      dup4\n      mstore\n      swap2\n      0x20\n      add\n      swap2\n      jump(tag_474)\n    tag_475:\n      dup3\n      add\n      swap2\n      swap1\n      0x00\n      mstore\n      keccak256(0x00, 0x20)\n      swap1\n    tag_476:\n      dup2\n      sload\n      dup2\n      mstore\n      swap1\n      0x01\n      add\n      swap1\n      0x20\n      add\n      dup1\n      dup4\n      gt\n      tag_476\n      jumpi\n      dup3\n      swap1\n      sub\n      0x1f\n      and\n      dup3\n      add\n      swap2\n    tag_474:\n      pop\n      pop\n      pop\n      pop\n      pop\n      swap1\n      dup1\n      0x02\n      add\n      dup1\n      sload\n      0x01\n      dup2\n      0x01\n      and\n      iszero\n      0x0100\n      mul\n      sub\n      and\n      0x02\n      swap1\n      div\n      dup1\n      0x1f\n      add\n      0x20\n      dup1\n      swap2\n      div\n      mul\n      0x20\n      add\n      mload(0x40)\n      swap1\n      dup2\n      add\n      0x40\n      mstore\n      dup1\n      swap3\n      swap2\n      swap1\n      dup2\n      dup2\n      mstore\n      0x20\n      add\n      dup3\n      dup1\n      sload\n      0x01\n      dup2\n      0x01\n      and\n      iszero\n      0x0100\n      mul\n      sub\n      and\n      0x02\n      swap1\n      div\n      dup1\n      iszero\n      tag_477\n      jumpi\n      dup1\n      0x1f\n      lt\n      tag_478\n      jumpi\n      0x0100\n      dup1\n      dup4\n      sload\n      div\n      mul\n      dup4\n      mstore\n      swap2\n      0x20\n      add\n      swap2\n      jump(tag_477)\n    tag_478:\n      dup3\n      add\n      swap2\n      swap1\n      0x00\n      mstore\n      keccak256(0x00, 0x20)\n      swap1\n    tag_479:\n      dup2\n      sload\n      dup2\n      mstore\n      swap1\n      0x01\n      add\n      swap1\n      0x20\n      add\n      dup1\n      dup4\n      gt\n      tag_479\n      jumpi\n      dup3\n      swap1\n      sub\n      0x1f\n      and\n      dup3\n      add\n      swap2\n    tag_477:\n      pop\n      pop\n      pop\n      pop\n      pop\n      swap1\n      dup1\n      0x03\n      add\n      0x00\n      swap1\n      sload\n      swap1\n      0x0100\n      exp\n      swap1\n      div\n      0xffffffffffffffffffffffffffffffffffffffff\n      and\n      swap1\n      dup1\n      0x03\n      add\n      0x14\n      swap1\n      sload\n      swap1\n      0x0100\n      exp\n      swap1\n      div\n      0xff\n      and\n      swap1\n      pop\n      dup6\n      jump\t// out\n        /* \"EHealth.sol\":6628:6899  function getAllDoctors() public view returns (Doctor[] memory){\r... */\n    tag_152:\n        /* \"EHealth.sol\":6674:6689  Doctor[] memory */\n      0x60\n        /* \"EHealth.sol\":6701:6720  Doctor[] memory ret */\n      0x00\n        /* \"EHealth.sol\":6736:6751  doctorsHospital */\n      0x06\n        /* \"EHealth.sol\":6736:6758  doctorsHospital.length */\n      dup1\n      sload\n      swap1\n      pop\n        /* \"EHealth.sol\":6723:6759  new Doctor[](doctorsHospital.length) */\n      0xffffffffffffffff\n      dup2\n      gt\n      dup1\n      iszero\n      tag_481\n      jumpi\n      0x00\n      dup1\n      revert\n    tag_481:\n      pop\n      mload(0x40)\n      swap1\n      dup1\n      dup3\n      mstore\n      dup1\n      0x20\n      mul\n      0x20\n      add\n      dup3\n      add\n      0x40\n      mstore\n      dup1\n      iszero\n      tag_482\n      jumpi\n      dup2\n      0x20\n      add\n    tag_483:\n      tag_484\n      tag_434\n      jump\t// in\n    tag_484:\n      dup2\n      mstore\n      0x20\n      add\n      swap1\n      0x01\n      swap1\n      sub\n      swap1\n      dup2\n      tag_483\n      jumpi\n      swap1\n      pop\n    tag_482:\n      pop\n        /* \"EHealth.sol\":6701:6759  Doctor[] memory ret = new Doctor[](doctorsHospital.length) */\n      swap1\n      pop\n        /* \"EHealth.sol\":6775:6781  uint i */\n      0x00\n        /* \"EHealth.sol\":6770:6871  for (uint i = 0; i< doctorsHospital.length; i++) {\r... */\n    tag_485:\n        /* \"EHealth.sol\":6790:6805  doctorsHospital */\n      0x06\n        /* \"EHealth.sol\":6790:6812  doctorsHospital.length */\n      dup1\n      sload\n      swap1\n      pop\n        /* \"EHealth.sol\":6787:6788  i */\n      dup2\n        /* \"EHealth.sol\":6787:6812  i< doctorsHospital.length */\n      lt\n        /* \"EHealth.sol\":6770:6871  for (uint i = 0; i< doctorsHospital.length; i++) {\r... */\n      iszero\n      tag_486\n      jumpi\n        /* \"EHealth.sol\":6841:6856  doctorsHospital */\n      0x06\n        /* \"EHealth.sol\":6857:6858  i */\n      dup2\n        /* \"EHealth.sol\":6841:6859  doctorsHospital[i] */\n      dup2\n      sload\n      dup2\n      lt\n      tag_488\n      jumpi\n      invalid\n    tag_488:\n      swap1\n      0x00\n      mstore\n      keccak256(0x00, 0x20)\n      swap1\n      0x03\n      mul\n      add\n        /* \"EHealth.sol\":6834:6859  ret[i]=doctorsHospital[i] */\n      mload(0x40)\n      dup1\n      0x80\n      add\n      0x40\n      mstore\n      swap1\n      dup2\n      0x00\n      dup3\n      add\n      0x00\n      swap1\n      sload\n      swap1\n      0x0100\n      exp\n      swap1\n      div\n      0xffffffffffffffffffffffffffffffffffffffff\n      and\n      0xffffffffffffffffffffffffffffffffffffffff\n      and\n      0xffffffffffffffffffffffffffffffffffffffff\n      and\n      dup2\n      mstore\n      0x20\n      add\n      0x01\n      dup3\n      add\n      dup1\n      sload\n      0x01\n      dup2\n      0x01\n      and\n      iszero\n      0x0100\n      mul\n      sub\n      and\n      0x02\n      swap1\n      div\n      dup1\n      0x1f\n      add\n      0x20\n      dup1\n      swap2\n      div\n      mul\n      0x20\n      add\n      mload(0x40)\n      swap1\n      dup2\n      add\n      0x40\n      mstore\n      dup1\n      swap3\n      swap2\n      swap1\n      dup2\n      dup2\n      mstore\n      0x20\n      add\n      dup3\n      dup1\n      sload\n      0x01\n      dup2\n      0x01\n      and\n      iszero\n      0x0100\n      mul\n      sub\n      and\n      0x02\n      swap1\n      div\n      dup1\n      iszero\n      tag_490\n      jumpi\n      dup1\n      0x1f\n      lt\n      tag_491\n      jumpi\n      0x0100\n      dup1\n      dup4\n      sload\n      div\n      mul\n      dup4\n      mstore\n      swap2\n      0x20\n      add\n      swap2\n      jump(tag_490)\n    tag_491:\n      dup3\n      add\n      swap2\n      swap1\n      0x00\n      mstore\n      keccak256(0x00, 0x20)\n      swap1\n    tag_492:\n      dup2\n      sload\n      dup2\n      mstore\n      swap1\n      0x01\n      add\n      swap1\n      0x20\n      add\n      dup1\n      dup4\n      gt\n      tag_492\n      jumpi\n      dup3\n      swap1\n      sub\n      0x1f\n      and\n      dup3\n      add\n      swap2\n    tag_490:\n      pop\n      pop\n      pop\n      pop\n      pop\n      dup2\n      mstore\n      0x20\n      add\n      0x02\n      dup3\n      add\n      0x00\n      swap1\n      sload\n      swap1\n      0x0100\n      exp\n      swap1\n      div\n      0xffffffffffffffffffffffffffffffffffffffff\n      and\n      0xffffffffffffffffffffffffffffffffffffffff\n      and\n      0xffffffffffffffffffffffffffffffffffffffff\n      and\n      dup2\n      mstore\n      0x20\n      add\n      0x02\n      dup3\n      add\n      0x14\n      swap1\n      sload\n      swap1\n      0x0100\n      exp\n      swap1\n      div\n      0xff\n      and\n      iszero\n      iszero\n      iszero\n      iszero\n      dup2\n      mstore\n      pop\n      pop\n        /* \"EHealth.sol\":6834:6837  ret */\n      dup3\n        /* \"EHealth.sol\":6838:6839  i */\n      dup3\n        /* \"EHealth.sol\":6834:6840  ret[i] */\n      dup2\n      mload\n      dup2\n      lt\n      tag_493\n      jumpi\n      invalid\n    tag_493:\n      0x20\n      mul\n      0x20\n      add\n      add\n        /* \"EHealth.sol\":6834:6859  ret[i]=doctorsHospital[i] */\n      dup2\n      swap1\n      mstore\n      pop\n        /* \"EHealth.sol\":6814:6817  i++ */\n      dup1\n      dup1\n      0x01\n      add\n      swap2\n      pop\n      pop\n        /* \"EHealth.sol\":6770:6871  for (uint i = 0; i< doctorsHospital.length; i++) {\r... */\n      jump(tag_485)\n    tag_486:\n      pop\n        /* \"EHealth.sol\":6888:6891  ret */\n      dup1\n        /* \"EHealth.sol\":6881:6891  return ret */\n      swap2\n      pop\n      pop\n        /* \"EHealth.sol\":6628:6899  function getAllDoctors() public view returns (Doctor[] memory){\r... */\n      swap1\n      jump\t// out\n        /* \"EHealth.sol\":7865:8140  function FindSensor(uint _idSensor) internal view returns(uint){\r... */\n    tag_156:\n        /* \"EHealth.sol\":7923:7927  uint */\n      0x00\n        /* \"EHealth.sol\":7943:7949  uint i */\n      dup1\n        /* \"EHealth.sol\":7952:7953  0 */\n      0x00\n        /* \"EHealth.sol\":7943:7953  uint i = 0 */\n      swap1\n      pop\n        /* \"EHealth.sol\":7939:8096  for(uint i = 0 ; i < sensorsDoctor.length ; i++){\r... */\n    tag_495:\n        /* \"EHealth.sol\":7960:7973  sensorsDoctor */\n      0x08\n        /* \"EHealth.sol\":7960:7980  sensorsDoctor.length */\n      dup1\n      sload\n      swap1\n      pop\n        /* \"EHealth.sol\":7956:7957  i */\n      dup2\n        /* \"EHealth.sol\":7956:7980  i < sensorsDoctor.length */\n      lt\n        /* \"EHealth.sol\":7939:8096  for(uint i = 0 ; i < sensorsDoctor.length ; i++){\r... */\n      iszero\n      tag_496\n      jumpi\n        /* \"EHealth.sol\":8032:8041  _idSensor */\n      dup3\n        /* \"EHealth.sol\":8005:8018  sensorsDoctor */\n      0x08\n        /* \"EHealth.sol\":8019:8020  i */\n      dup3\n        /* \"EHealth.sol\":8005:8021  sensorsDoctor[i] */\n      dup2\n      sload\n      dup2\n      lt\n      tag_498\n      jumpi\n      invalid\n    tag_498:\n      swap1\n      0x00\n      mstore\n      keccak256(0x00, 0x20)\n      swap1\n      0x05\n      mul\n      add\n        /* \"EHealth.sol\":8005:8030  sensorsDoctor[i].idSensor */\n      0x00\n      add\n      sload\n        /* \"EHealth.sol\":8005:8041  sensorsDoctor[i].idSensor==_idSensor */\n      eq\n        /* \"EHealth.sol\":8002:8085  if(sensorsDoctor[i].idSensor==_idSensor){\r... */\n      iszero\n      tag_500\n      jumpi\n        /* \"EHealth.sol\":8068:8069  i */\n      dup1\n        /* \"EHealth.sol\":8061:8069  return i */\n      swap2\n      pop\n      pop\n      jump(tag_494)\n        /* \"EHealth.sol\":8002:8085  if(sensorsDoctor[i].idSensor==_idSensor){\r... */\n    tag_500:\n        /* \"EHealth.sol\":7983:7986  i++ */\n      dup1\n      dup1\n      0x01\n      add\n      swap2\n      pop\n      pop\n        /* \"EHealth.sol\":7939:8096  for(uint i = 0 ; i < sensorsDoctor.length ; i++){\r... */\n      jump(tag_495)\n    tag_496:\n      pop\n        /* \"EHealth.sol\":8106:8132  revert('Sensor not found') */\n      mload(0x40)\n      0x08c379a000000000000000000000000000000000000000000000000000000000\n      dup2\n      mstore\n      0x04\n      add\n      tag_501\n      swap1\n      tag_502\n      jump\t// in\n    tag_501:\n      mload(0x40)\n      dup1\n      swap2\n      sub\n      swap1\n      revert\n        /* \"EHealth.sol\":7865:8140  function FindSensor(uint _idSensor) internal view returns(uint){\r... */\n    tag_494:\n      swap2\n      swap1\n      pop\n      jump\t// out\n        /* \"EHealth.sol\":4979:5249  function FindDoctor(address _id) internal view returns(uint){\r... */\n    tag_173:\n        /* \"EHealth.sol\":5034:5038  uint */\n      0x00\n        /* \"EHealth.sol\":5054:5060  uint i */\n      dup1\n        /* \"EHealth.sol\":5063:5064  0 */\n      0x00\n        /* \"EHealth.sol\":5054:5064  uint i = 0 */\n      swap1\n      pop\n        /* \"EHealth.sol\":5050:5205  for(uint i = 0 ; i < doctorsHospital.length ; i++){\r... */\n    tag_504:\n        /* \"EHealth.sol\":5071:5086  doctorsHospital */\n      0x06\n        /* \"EHealth.sol\":5071:5093  doctorsHospital.length */\n      dup1\n      sload\n      swap1\n      pop\n        /* \"EHealth.sol\":5067:5068  i */\n      dup2\n        /* \"EHealth.sol\":5067:5093  i < doctorsHospital.length */\n      lt\n        /* \"EHealth.sol\":5050:5205  for(uint i = 0 ; i < doctorsHospital.length ; i++){\r... */\n      iszero\n      tag_505\n      jumpi\n        /* \"EHealth.sol\":5147:5150  _id */\n      dup3\n        /* \"EHealth.sol\":5118:5150  doctorsHospital[i].idDoctor==_id */\n      0xffffffffffffffffffffffffffffffffffffffff\n      and\n        /* \"EHealth.sol\":5118:5133  doctorsHospital */\n      0x06\n        /* \"EHealth.sol\":5134:5135  i */\n      dup3\n        /* \"EHealth.sol\":5118:5136  doctorsHospital[i] */\n      dup2\n      sload\n      dup2\n      lt\n      tag_507\n      jumpi\n      invalid\n    tag_507:\n      swap1\n      0x00\n      mstore\n      keccak256(0x00, 0x20)\n      swap1\n      0x03\n      mul\n      add\n        /* \"EHealth.sol\":5118:5145  doctorsHospital[i].idDoctor */\n      0x00\n      add\n      0x00\n      swap1\n      sload\n      swap1\n      0x0100\n      exp\n      swap1\n      div\n      0xffffffffffffffffffffffffffffffffffffffff\n      and\n        /* \"EHealth.sol\":5118:5150  doctorsHospital[i].idDoctor==_id */\n      0xffffffffffffffffffffffffffffffffffffffff\n      and\n      eq\n        /* \"EHealth.sol\":5115:5194  if(doctorsHospital[i].idDoctor==_id){\r... */\n      iszero\n      tag_509\n      jumpi\n        /* \"EHealth.sol\":5177:5178  i */\n      dup1\n        /* \"EHealth.sol\":5170:5178  return i */\n      swap2\n      pop\n      pop\n      jump(tag_503)\n        /* \"EHealth.sol\":5115:5194  if(doctorsHospital[i].idDoctor==_id){\r... */\n    tag_509:\n        /* \"EHealth.sol\":5096:5099  i++ */\n      dup1\n      dup1\n      0x01\n      add\n      swap2\n      pop\n      pop\n        /* \"EHealth.sol\":5050:5205  for(uint i = 0 ; i < doctorsHospital.length ; i++){\r... */\n      jump(tag_504)\n    tag_505:\n      pop\n        /* \"EHealth.sol\":5215:5241  revert('Doctor not found') */\n      mload(0x40)\n      0x08c379a000000000000000000000000000000000000000000000000000000000\n      dup2\n      mstore\n      0x04\n      add\n      tag_510\n      swap1\n      tag_511\n      jump\t// in\n    tag_510:\n      mload(0x40)\n      dup1\n      swap2\n      sub\n      swap1\n      revert\n        /* \"EHealth.sol\":4979:5249  function FindDoctor(address _id) internal view returns(uint){\r... */\n    tag_503:\n      swap2\n      swap1\n      pop\n      jump\t// out\n        /* \"EHealth.sol\":2168:2454  function FindHospital(address _address) internal view returns(uint){\r... */\n    tag_190:\n        /* \"EHealth.sol\":2230:2234  uint */\n      0x00\n        /* \"EHealth.sol\":2250:2256  uint i */\n      dup1\n        /* \"EHealth.sol\":2259:2260  0 */\n      0x00\n        /* \"EHealth.sol\":2250:2260  uint i = 0 */\n      swap1\n      pop\n        /* \"EHealth.sol\":2246:2408  for(uint i = 0 ; i < hospitalCenters.length ; i++){\r... */\n    tag_513:\n        /* \"EHealth.sol\":2267:2282  hospitalCenters */\n      0x04\n        /* \"EHealth.sol\":2267:2289  hospitalCenters.length */\n      dup1\n      sload\n      swap1\n      pop\n        /* \"EHealth.sol\":2263:2264  i */\n      dup2\n        /* \"EHealth.sol\":2263:2289  i < hospitalCenters.length */\n      lt\n        /* \"EHealth.sol\":2246:2408  for(uint i = 0 ; i < hospitalCenters.length ; i++){\r... */\n      iszero\n      tag_514\n      jumpi\n        /* \"EHealth.sol\":2345:2353  _address */\n      dup3\n        /* \"EHealth.sol\":2314:2353  hospitalCenters[i].idHospital==_address */\n      0xffffffffffffffffffffffffffffffffffffffff\n      and\n        /* \"EHealth.sol\":2314:2329  hospitalCenters */\n      0x04\n        /* \"EHealth.sol\":2330:2331  i */\n      dup3\n        /* \"EHealth.sol\":2314:2332  hospitalCenters[i] */\n      dup2\n      sload\n      dup2\n      lt\n      tag_516\n      jumpi\n      invalid\n    tag_516:\n      swap1\n      0x00\n      mstore\n      keccak256(0x00, 0x20)\n      swap1\n      0x06\n      mul\n      add\n        /* \"EHealth.sol\":2314:2343  hospitalCenters[i].idHospital */\n      0x00\n      add\n      0x00\n      swap1\n      sload\n      swap1\n      0x0100\n      exp\n      swap1\n      div\n      0xffffffffffffffffffffffffffffffffffffffff\n      and\n        /* \"EHealth.sol\":2314:2353  hospitalCenters[i].idHospital==_address */\n      0xffffffffffffffffffffffffffffffffffffffff\n      and\n      eq\n        /* \"EHealth.sol\":2311:2397  if(hospitalCenters[i].idHospital==_address){\r... */\n      iszero\n      tag_518\n      jumpi\n        /* \"EHealth.sol\":2380:2381  i */\n      dup1\n        /* \"EHealth.sol\":2373:2381  return i */\n      swap2\n      pop\n      pop\n      jump(tag_512)\n        /* \"EHealth.sol\":2311:2397  if(hospitalCenters[i].idHospital==_address){\r... */\n    tag_518:\n        /* \"EHealth.sol\":2292:2295  i++ */\n      dup1\n      dup1\n      0x01\n      add\n      swap2\n      pop\n      pop\n        /* \"EHealth.sol\":2246:2408  for(uint i = 0 ; i < hospitalCenters.length ; i++){\r... */\n      jump(tag_513)\n    tag_514:\n      pop\n        /* \"EHealth.sol\":2418:2446  revert('Hospital not found') */\n      mload(0x40)\n      0x08c379a000000000000000000000000000000000000000000000000000000000\n      dup2\n      mstore\n      0x04\n      add\n      tag_519\n      swap1\n      tag_520\n      jump\t// in\n    tag_519:\n      mload(0x40)\n      dup1\n      swap2\n      sub\n      swap1\n      revert\n        /* \"EHealth.sol\":2168:2454  function FindHospital(address _address) internal view returns(uint){\r... */\n    tag_512:\n      swap2\n      swap1\n      pop\n      jump\t// out\n    tag_176:\n      dup3\n      dup1\n      sload\n      0x01\n      dup2\n      0x01\n      and\n      iszero\n      0x0100\n      mul\n      sub\n      and\n      0x02\n      swap1\n      div\n      swap1\n      0x00\n      mstore\n      keccak256(0x00, 0x20)\n      swap1\n      0x1f\n      add\n      0x20\n      swap1\n      div\n      dup2\n      add\n      swap3\n      dup3\n      tag_522\n      jumpi\n      0x00\n      dup6\n      sstore\n      jump(tag_521)\n    tag_522:\n      dup3\n      0x1f\n      lt\n      tag_523\n      jumpi\n      dup1\n      mload\n      not(0xff)\n      and\n      dup4\n      dup1\n      add\n      or\n      dup6\n      sstore\n      jump(tag_521)\n    tag_523:\n      dup3\n      dup1\n      add\n      0x01\n      add\n      dup6\n      sstore\n      dup3\n      iszero\n      tag_521\n      jumpi\n      swap2\n      dup3\n      add\n    tag_524:\n      dup3\n      dup2\n      gt\n      iszero\n      tag_525\n      jumpi\n      dup3\n      mload\n      dup3\n      sstore\n      swap2\n      0x20\n      add\n      swap2\n      swap1\n      0x01\n      add\n      swap1\n      jump(tag_524)\n    tag_525:\n    tag_521:\n      pop\n      swap1\n      pop\n      tag_526\n      swap2\n      swap1\n      tag_527\n      jump\t// in\n    tag_526:\n      pop\n      swap1\n      jump\t// out\n    tag_179:\n      dup3\n      dup1\n      sload\n      dup3\n      dup3\n      sstore\n      swap1\n      0x00\n      mstore\n      keccak256(0x00, 0x20)\n      swap1\n      dup2\n      add\n      swap3\n      dup3\n      iszero\n      tag_528\n      jumpi\n      swap2\n      0x20\n      mul\n      dup3\n      add\n    tag_529:\n      dup3\n      dup2\n      gt\n      iszero\n      tag_530\n      jumpi\n      dup3\n      mload\n      dup3\n      sstore\n      swap2\n      0x20\n      add\n      swap2\n      swap1\n      0x01\n      add\n      swap1\n      jump(tag_529)\n    tag_530:\n    tag_528:\n      pop\n      swap1\n      pop\n      tag_531\n      swap2\n      swap1\n      tag_527\n      jump\t// in\n    tag_531:\n      pop\n      swap1\n      jump\t// out\n    tag_212:\n      mload(0x40)\n      dup1\n      0xc0\n      add\n      0x40\n      mstore\n      dup1\n      and(0xffffffffffffffffffffffffffffffffffffffff, 0x00)\n      dup2\n      mstore\n      0x20\n      add\n      0x60\n      dup2\n      mstore\n      0x20\n      add\n      0x60\n      dup2\n      mstore\n      0x20\n      add\n      0x60\n      dup2\n      mstore\n      0x20\n      add\n      0x00\n      dup2\n      mstore\n      0x20\n      add\n      iszero(iszero(0x00))\n      dup2\n      mstore\n      pop\n      swap1\n      jump\t// out\n    tag_233:\n      mload(0x40)\n      dup1\n      0xc0\n      add\n      0x40\n      mstore\n      dup1\n      0x00\n      dup2\n      mstore\n      0x20\n      add\n      0x60\n      dup2\n      mstore\n      0x20\n      add\n      0x60\n      dup2\n      mstore\n      0x20\n      add\n      and(0xffffffffffffffffffffffffffffffffffffffff, 0x00)\n      dup2\n      mstore\n      0x20\n      add\n      iszero(iszero(0x00))\n      dup2\n      mstore\n      0x20\n      add\n      0x60\n      dup2\n      mstore\n      pop\n      swap1\n      jump\t// out\n    tag_434:\n      mload(0x40)\n      dup1\n      0x80\n      add\n      0x40\n      mstore\n      dup1\n      and(0xffffffffffffffffffffffffffffffffffffffff, 0x00)\n      dup2\n      mstore\n      0x20\n      add\n      0x60\n      dup2\n      mstore\n      0x20\n      add\n      and(0xffffffffffffffffffffffffffffffffffffffff, 0x00)\n      dup2\n      mstore\n      0x20\n      add\n      iszero(iszero(0x00))\n      dup2\n      mstore\n      pop\n      swap1\n      jump\t// out\n    tag_527:\n    tag_532:\n      dup1\n      dup3\n      gt\n      iszero\n      tag_533\n      jumpi\n      0x00\n      dup2\n      0x00\n      swap1\n      sstore\n      pop\n      0x01\n      add\n      jump(tag_532)\n    tag_533:\n      pop\n      swap1\n      jump\t// out\n        /* \"#utility.yul\":24:646   */\n    tag_535:\n      0x00\n        /* \"#utility.yul\":145:225   */\n      tag_537\n        /* \"#utility.yul\":160:224   */\n      tag_538\n        /* \"#utility.yul\":217:223   */\n      dup5\n        /* \"#utility.yul\":160:224   */\n      tag_539\n      jump\t// in\n    tag_538:\n        /* \"#utility.yul\":145:225   */\n      tag_540\n      jump\t// in\n    tag_537:\n        /* \"#utility.yul\":136:225   */\n      swap1\n      pop\n        /* \"#utility.yul\":245:250   */\n      dup1\n        /* \"#utility.yul\":273:279   */\n      dup4\n        /* \"#utility.yul\":266:271   */\n      dup3\n        /* \"#utility.yul\":259:280   */\n      mstore\n        /* \"#utility.yul\":299:303   */\n      0x20\n        /* \"#utility.yul\":292:297   */\n      dup3\n        /* \"#utility.yul\":288:304   */\n      add\n        /* \"#utility.yul\":281:304   */\n      swap1\n      pop\n        /* \"#utility.yul\":324:330   */\n      dup3\n        /* \"#utility.yul\":374:377   */\n      dup6\n        /* \"#utility.yul\":366:370   */\n      0x20\n        /* \"#utility.yul\":358:364   */\n      dup7\n        /* \"#utility.yul\":354:371   */\n      mul\n        /* \"#utility.yul\":349:352   */\n      dup3\n        /* \"#utility.yul\":345:372   */\n      add\n        /* \"#utility.yul\":342:378   */\n      gt\n        /* \"#utility.yul\":339:341   */\n      iszero\n      tag_541\n      jumpi\n        /* \"#utility.yul\":391:392   */\n      0x00\n        /* \"#utility.yul\":388:389   */\n      dup1\n        /* \"#utility.yul\":381:393   */\n      revert\n        /* \"#utility.yul\":339:341   */\n    tag_541:\n        /* \"#utility.yul\":419:420   */\n      0x00\n        /* \"#utility.yul\":404:640   */\n    tag_542:\n        /* \"#utility.yul\":429:435   */\n      dup6\n        /* \"#utility.yul\":426:427   */\n      dup2\n        /* \"#utility.yul\":423:436   */\n      lt\n        /* \"#utility.yul\":404:640   */\n      iszero\n      tag_544\n      jumpi\n        /* \"#utility.yul\":496:499   */\n      dup2\n        /* \"#utility.yul\":524:561   */\n      tag_545\n        /* \"#utility.yul\":557:560   */\n      dup9\n        /* \"#utility.yul\":545:555   */\n      dup3\n        /* \"#utility.yul\":524:561   */\n      tag_546\n      jump\t// in\n    tag_545:\n        /* \"#utility.yul\":519:522   */\n      dup5\n        /* \"#utility.yul\":512:562   */\n      mstore\n        /* \"#utility.yul\":591:595   */\n      0x20\n        /* \"#utility.yul\":586:589   */\n      dup5\n        /* \"#utility.yul\":582:596   */\n      add\n        /* \"#utility.yul\":575:596   */\n      swap4\n      pop\n        /* \"#utility.yul\":625:629   */\n      0x20\n        /* \"#utility.yul\":620:623   */\n      dup4\n        /* \"#utility.yul\":616:630   */\n      add\n        /* \"#utility.yul\":609:630   */\n      swap3\n      pop\n        /* \"#utility.yul\":464:640   */\n      pop\n        /* \"#utility.yul\":451:452   */\n      0x01\n        /* \"#utility.yul\":448:449   */\n      dup2\n        /* \"#utility.yul\":444:453   */\n      add\n        /* \"#utility.yul\":439:453   */\n      swap1\n      pop\n        /* \"#utility.yul\":404:640   */\n      jump(tag_542)\n    tag_544:\n        /* \"#utility.yul\":408:422   */\n      pop\n        /* \"#utility.yul\":126:646   */\n      pop\n      pop\n      swap4\n      swap3\n      pop\n      pop\n      pop\n      jump\t// out\n        /* \"#utility.yul\":652:996   */\n    tag_547:\n      0x00\n        /* \"#utility.yul\":755:820   */\n      tag_549\n        /* \"#utility.yul\":770:819   */\n      tag_550\n        /* \"#utility.yul\":812:818   */\n      dup5\n        /* \"#utility.yul\":770:819   */\n      tag_551\n      jump\t// in\n    tag_550:\n        /* \"#utility.yul\":755:820   */\n      tag_540\n      jump\t// in\n    tag_549:\n        /* \"#utility.yul\":746:820   */\n      swap1\n      pop\n        /* \"#utility.yul\":843:849   */\n      dup3\n        /* \"#utility.yul\":836:841   */\n      dup2\n        /* \"#utility.yul\":829:850   */\n      mstore\n        /* \"#utility.yul\":881:885   */\n      0x20\n        /* \"#utility.yul\":874:879   */\n      dup2\n        /* \"#utility.yul\":870:886   */\n      add\n        /* \"#utility.yul\":919:922   */\n      dup5\n        /* \"#utility.yul\":910:916   */\n      dup5\n        /* \"#utility.yul\":905:908   */\n      dup5\n        /* \"#utility.yul\":901:917   */\n      add\n        /* \"#utility.yul\":898:923   */\n      gt\n        /* \"#utility.yul\":895:897   */\n      iszero\n      tag_552\n      jumpi\n        /* \"#utility.yul\":936:937   */\n      0x00\n        /* \"#utility.yul\":933:934   */\n      dup1\n        /* \"#utility.yul\":926:938   */\n      revert\n        /* \"#utility.yul\":895:897   */\n    tag_552:\n        /* \"#utility.yul\":949:990   */\n      tag_553\n        /* \"#utility.yul\":983:989   */\n      dup5\n        /* \"#utility.yul\":978:981   */\n      dup3\n        /* \"#utility.yul\":973:976   */\n      dup6\n        /* \"#utility.yul\":949:990   */\n      tag_554\n      jump\t// in\n    tag_553:\n        /* \"#utility.yul\":736:996   */\n      pop\n      swap4\n      swap3\n      pop\n      pop\n      pop\n      jump\t// out\n        /* \"#utility.yul\":1002:1141   */\n    tag_555:\n      0x00\n        /* \"#utility.yul\":1086:1092   */\n      dup2\n        /* \"#utility.yul\":1073:1093   */\n      calldataload\n        /* \"#utility.yul\":1064:1093   */\n      swap1\n      pop\n        /* \"#utility.yul\":1102:1135   */\n      tag_557\n        /* \"#utility.yul\":1129:1134   */\n      dup2\n        /* \"#utility.yul\":1102:1135   */\n      tag_558\n      jump\t// in\n    tag_557:\n        /* \"#utility.yul\":1054:1141   */\n      swap3\n      swap2\n      pop\n      pop\n      jump\t// out\n        /* \"#utility.yul\":1164:1467   */\n    tag_559:\n      0x00\n        /* \"#utility.yul\":1284:1287   */\n      dup3\n        /* \"#utility.yul\":1277:1281   */\n      0x1f\n        /* \"#utility.yul\":1269:1275   */\n      dup4\n        /* \"#utility.yul\":1265:1282   */\n      add\n        /* \"#utility.yul\":1261:1288   */\n      slt\n        /* \"#utility.yul\":1251:1253   */\n      tag_561\n      jumpi\n        /* \"#utility.yul\":1302:1303   */\n      0x00\n        /* \"#utility.yul\":1299:1300   */\n      dup1\n        /* \"#utility.yul\":1292:1304   */\n      revert\n        /* \"#utility.yul\":1251:1253   */\n    tag_561:\n        /* \"#utility.yul\":1342:1348   */\n      dup2\n        /* \"#utility.yul\":1329:1349   */\n      calldataload\n        /* \"#utility.yul\":1367:1461   */\n      tag_562\n        /* \"#utility.yul\":1457:1460   */\n      dup5\n        /* \"#utility.yul\":1449:1455   */\n      dup3\n        /* \"#utility.yul\":1442:1446   */\n      0x20\n        /* \"#utility.yul\":1434:1440   */\n      dup7\n        /* \"#utility.yul\":1430:1447   */\n      add\n        /* \"#utility.yul\":1367:1461   */\n      tag_535\n      jump\t// in\n    tag_562:\n        /* \"#utility.yul\":1358:1461   */\n      swap2\n      pop\n        /* \"#utility.yul\":1241:1467   */\n      pop\n      swap3\n      swap2\n      pop\n      pop\n      jump\t// out\n        /* \"#utility.yul\":1473:1606   */\n    tag_563:\n      0x00\n        /* \"#utility.yul\":1554:1560   */\n      dup2\n        /* \"#utility.yul\":1541:1561   */\n      calldataload\n        /* \"#utility.yul\":1532:1561   */\n      swap1\n      pop\n        /* \"#utility.yul\":1570:1600   */\n      tag_565\n        /* \"#utility.yul\":1594:1599   */\n      dup2\n        /* \"#utility.yul\":1570:1600   */\n      tag_566\n      jump\t// in\n    tag_565:\n        /* \"#utility.yul\":1522:1606   */\n      swap3\n      swap2\n      pop\n      pop\n      jump\t// out\n        /* \"#utility.yul\":1626:1899   */\n    tag_567:\n      0x00\n        /* \"#utility.yul\":1731:1734   */\n      dup3\n        /* \"#utility.yul\":1724:1728   */\n      0x1f\n        /* \"#utility.yul\":1716:1722   */\n      dup4\n        /* \"#utility.yul\":1712:1729   */\n      add\n        /* \"#utility.yul\":1708:1735   */\n      slt\n        /* \"#utility.yul\":1698:1700   */\n      tag_569\n      jumpi\n        /* \"#utility.yul\":1749:1750   */\n      0x00\n        /* \"#utility.yul\":1746:1747   */\n      dup1\n        /* \"#utility.yul\":1739:1751   */\n      revert\n        /* \"#utility.yul\":1698:1700   */\n    tag_569:\n        /* \"#utility.yul\":1789:1795   */\n      dup2\n        /* \"#utility.yul\":1776:1796   */\n      calldataload\n        /* \"#utility.yul\":1814:1893   */\n      tag_570\n        /* \"#utility.yul\":1889:1892   */\n      dup5\n        /* \"#utility.yul\":1881:1887   */\n      dup3\n        /* \"#utility.yul\":1874:1878   */\n      0x20\n        /* \"#utility.yul\":1866:1872   */\n      dup7\n        /* \"#utility.yul\":1862:1879   */\n      add\n        /* \"#utility.yul\":1814:1893   */\n      tag_547\n      jump\t// in\n    tag_570:\n        /* \"#utility.yul\":1805:1893   */\n      swap2\n      pop\n        /* \"#utility.yul\":1688:1899   */\n      pop\n      swap3\n      swap2\n      pop\n      pop\n      jump\t// out\n        /* \"#utility.yul\":1905:2044   */\n    tag_546:\n      0x00\n        /* \"#utility.yul\":1989:1995   */\n      dup2\n        /* \"#utility.yul\":1976:1996   */\n      calldataload\n        /* \"#utility.yul\":1967:1996   */\n      swap1\n      pop\n        /* \"#utility.yul\":2005:2038   */\n      tag_572\n        /* \"#utility.yul\":2032:2037   */\n      dup2\n        /* \"#utility.yul\":2005:2038   */\n      tag_573\n      jump\t// in\n    tag_572:\n        /* \"#utility.yul\":1957:2044   */\n      swap3\n      swap2\n      pop\n      pop\n      jump\t// out\n        /* \"#utility.yul\":2050:2312   */\n    tag_58:\n      0x00\n        /* \"#utility.yul\":2158:2160   */\n      0x20\n        /* \"#utility.yul\":2146:2155   */\n      dup3\n        /* \"#utility.yul\":2137:2144   */\n      dup5\n        /* \"#utility.yul\":2133:2156   */\n      sub\n        /* \"#utility.yul\":2129:2161   */\n      slt\n        /* \"#utility.yul\":2126:2128   */\n      iszero\n      tag_575\n      jumpi\n        /* \"#utility.yul\":2174:2175   */\n      0x00\n        /* \"#utility.yul\":2171:2172   */\n      dup1\n        /* \"#utility.yul\":2164:2176   */\n      revert\n        /* \"#utility.yul\":2126:2128   */\n    tag_575:\n        /* \"#utility.yul\":2217:2218   */\n      0x00\n        /* \"#utility.yul\":2242:2295   */\n      tag_576\n        /* \"#utility.yul\":2287:2294   */\n      dup5\n        /* \"#utility.yul\":2278:2284   */\n      dup3\n        /* \"#utility.yul\":2267:2276   */\n      dup6\n        /* \"#utility.yul\":2263:2285   */\n      add\n        /* \"#utility.yul\":2242:2295   */\n      tag_555\n      jump\t// in\n    tag_576:\n        /* \"#utility.yul\":2232:2295   */\n      swap2\n      pop\n        /* \"#utility.yul\":2188:2305   */\n      pop\n        /* \"#utility.yul\":2116:2312   */\n      swap3\n      swap2\n      pop\n      pop\n      jump\t// out\n        /* \"#utility.yul\":2318:2983   */\n    tag_145:\n      0x00\n      dup1\n      0x00\n        /* \"#utility.yul\":2470:2472   */\n      0x60\n        /* \"#utility.yul\":2458:2467   */\n      dup5\n        /* \"#utility.yul\":2449:2456   */\n      dup7\n        /* \"#utility.yul\":2445:2468   */\n      sub\n        /* \"#utility.yul\":2441:2473   */\n      slt\n        /* \"#utility.yul\":2438:2440   */\n      iszero\n      tag_578\n      jumpi\n        /* \"#utility.yul\":2486:2487   */\n      0x00\n        /* \"#utility.yul\":2483:2484   */\n      dup1\n        /* \"#utility.yul\":2476:2488   */\n      revert\n        /* \"#utility.yul\":2438:2440   */\n    tag_578:\n        /* \"#utility.yul\":2529:2530   */\n      0x00\n        /* \"#utility.yul\":2554:2607   */\n      tag_579\n        /* \"#utility.yul\":2599:2606   */\n      dup7\n        /* \"#utility.yul\":2590:2596   */\n      dup3\n        /* \"#utility.yul\":2579:2588   */\n      dup8\n        /* \"#utility.yul\":2575:2597   */\n      add\n        /* \"#utility.yul\":2554:2607   */\n      tag_555\n      jump\t// in\n    tag_579:\n        /* \"#utility.yul\":2544:2607   */\n      swap4\n      pop\n        /* \"#utility.yul\":2500:2617   */\n      pop\n        /* \"#utility.yul\":2684:2686   */\n      0x20\n        /* \"#utility.yul\":2673:2682   */\n      dup5\n        /* \"#utility.yul\":2669:2687   */\n      add\n        /* \"#utility.yul\":2656:2688   */\n      calldataload\n        /* \"#utility.yul\":2715:2733   */\n      0xffffffffffffffff\n        /* \"#utility.yul\":2707:2713   */\n      dup2\n        /* \"#utility.yul\":2704:2734   */\n      gt\n        /* \"#utility.yul\":2701:2703   */\n      iszero\n      tag_580\n      jumpi\n        /* \"#utility.yul\":2747:2748   */\n      0x00\n        /* \"#utility.yul\":2744:2745   */\n      dup1\n        /* \"#utility.yul\":2737:2749   */\n      revert\n        /* \"#utility.yul\":2701:2703   */\n    tag_580:\n        /* \"#utility.yul\":2775:2838   */\n      tag_581\n        /* \"#utility.yul\":2830:2837   */\n      dup7\n        /* \"#utility.yul\":2821:2827   */\n      dup3\n        /* \"#utility.yul\":2810:2819   */\n      dup8\n        /* \"#utility.yul\":2806:2828   */\n      add\n        /* \"#utility.yul\":2775:2838   */\n      tag_567\n      jump\t// in\n    tag_581:\n        /* \"#utility.yul\":2765:2838   */\n      swap3\n      pop\n        /* \"#utility.yul\":2627:2848   */\n      pop\n        /* \"#utility.yul\":2887:2889   */\n      0x40\n        /* \"#utility.yul\":2913:2966   */\n      tag_582\n        /* \"#utility.yul\":2958:2965   */\n      dup7\n        /* \"#utility.yul\":2949:2955   */\n      dup3\n        /* \"#utility.yul\":2938:2947   */\n      dup8\n        /* \"#utility.yul\":2934:2956   */\n      add\n        /* \"#utility.yul\":2913:2966   */\n      tag_555\n      jump\t// in\n    tag_582:\n        /* \"#utility.yul\":2903:2966   */\n      swap2\n      pop\n        /* \"#utility.yul\":2858:2976   */\n      pop\n        /* \"#utility.yul\":2428:2983   */\n      swap3\n      pop\n      swap3\n      pop\n      swap3\n      jump\t// out\n        /* \"#utility.yul\":2989:3794   */\n    tag_70:\n      0x00\n      dup1\n      0x00\n      dup1\n        /* \"#utility.yul\":3155:3158   */\n      0x80\n        /* \"#utility.yul\":3143:3152   */\n      dup6\n        /* \"#utility.yul\":3134:3141   */\n      dup8\n        /* \"#utility.yul\":3130:3153   */\n      sub\n        /* \"#utility.yul\":3126:3159   */\n      slt\n        /* \"#utility.yul\":3123:3125   */\n      iszero\n      tag_584\n      jumpi\n        /* \"#utility.yul\":3172:3173   */\n      0x00\n        /* \"#utility.yul\":3169:3170   */\n      dup1\n        /* \"#utility.yul\":3162:3174   */\n      revert\n        /* \"#utility.yul\":3123:3125   */\n    tag_584:\n        /* \"#utility.yul\":3215:3216   */\n      0x00\n        /* \"#utility.yul\":3240:3293   */\n      tag_585\n        /* \"#utility.yul\":3285:3292   */\n      dup8\n        /* \"#utility.yul\":3276:3282   */\n      dup3\n        /* \"#utility.yul\":3265:3274   */\n      dup9\n        /* \"#utility.yul\":3261:3283   */\n      add\n        /* \"#utility.yul\":3240:3293   */\n      tag_555\n      jump\t// in\n    tag_585:\n        /* \"#utility.yul\":3230:3293   */\n      swap5\n      pop\n        /* \"#utility.yul\":3186:3303   */\n      pop\n        /* \"#utility.yul\":3370:3372   */\n      0x20\n        /* \"#utility.yul\":3359:3368   */\n      dup6\n        /* \"#utility.yul\":3355:3373   */\n      add\n        /* \"#utility.yul\":3342:3374   */\n      calldataload\n        /* \"#utility.yul\":3401:3419   */\n      0xffffffffffffffff\n        /* \"#utility.yul\":3393:3399   */\n      dup2\n        /* \"#utility.yul\":3390:3420   */\n      gt\n        /* \"#utility.yul\":3387:3389   */\n      iszero\n      tag_586\n      jumpi\n        /* \"#utility.yul\":3433:3434   */\n      0x00\n        /* \"#utility.yul\":3430:3431   */\n      dup1\n        /* \"#utility.yul\":3423:3435   */\n      revert\n        /* \"#utility.yul\":3387:3389   */\n    tag_586:\n        /* \"#utility.yul\":3461:3524   */\n      tag_587\n        /* \"#utility.yul\":3516:3523   */\n      dup8\n        /* \"#utility.yul\":3507:3513   */\n      dup3\n        /* \"#utility.yul\":3496:3505   */\n      dup9\n        /* \"#utility.yul\":3492:3514   */\n      add\n        /* \"#utility.yul\":3461:3524   */\n      tag_567\n      jump\t// in\n    tag_587:\n        /* \"#utility.yul\":3451:3524   */\n      swap4\n      pop\n        /* \"#utility.yul\":3313:3534   */\n      pop\n        /* \"#utility.yul\":3573:3575   */\n      0x40\n        /* \"#utility.yul\":3599:3652   */\n      tag_588\n        /* \"#utility.yul\":3644:3651   */\n      dup8\n        /* \"#utility.yul\":3635:3641   */\n      dup3\n        /* \"#utility.yul\":3624:3633   */\n      dup9\n        /* \"#utility.yul\":3620:3642   */\n      add\n        /* \"#utility.yul\":3599:3652   */\n      tag_555\n      jump\t// in\n    tag_588:\n        /* \"#utility.yul\":3589:3652   */\n      swap3\n      pop\n        /* \"#utility.yul\":3544:3662   */\n      pop\n        /* \"#utility.yul\":3701:3703   */\n      0x60\n        /* \"#utility.yul\":3727:3777   */\n      tag_589\n        /* \"#utility.yul\":3769:3776   */\n      dup8\n        /* \"#utility.yul\":3760:3766   */\n      dup3\n        /* \"#utility.yul\":3749:3758   */\n      dup9\n        /* \"#utility.yul\":3745:3767   */\n      add\n        /* \"#utility.yul\":3727:3777   */\n      tag_563\n      jump\t// in\n    tag_589:\n        /* \"#utility.yul\":3717:3777   */\n      swap2\n      pop\n        /* \"#utility.yul\":3672:3787   */\n      pop\n        /* \"#utility.yul\":3113:3794   */\n      swap3\n      swap6\n      swap2\n      swap5\n      pop\n      swap3\n      pop\n      jump\t// out\n        /* \"#utility.yul\":3800:4983   */\n    tag_115:\n      0x00\n      dup1\n      0x00\n      dup1\n      0x00\n        /* \"#utility.yul\":4006:4009   */\n      0xa0\n        /* \"#utility.yul\":3994:4003   */\n      dup7\n        /* \"#utility.yul\":3985:3992   */\n      dup9\n        /* \"#utility.yul\":3981:4004   */\n      sub\n        /* \"#utility.yul\":3977:4010   */\n      slt\n        /* \"#utility.yul\":3974:3976   */\n      iszero\n      tag_591\n      jumpi\n        /* \"#utility.yul\":4023:4024   */\n      0x00\n        /* \"#utility.yul\":4020:4021   */\n      dup1\n        /* \"#utility.yul\":4013:4025   */\n      revert\n        /* \"#utility.yul\":3974:3976   */\n    tag_591:\n        /* \"#utility.yul\":4066:4067   */\n      0x00\n        /* \"#utility.yul\":4091:4144   */\n      tag_592\n        /* \"#utility.yul\":4136:4143   */\n      dup9\n        /* \"#utility.yul\":4127:4133   */\n      dup3\n        /* \"#utility.yul\":4116:4125   */\n      dup10\n        /* \"#utility.yul\":4112:4134   */\n      add\n        /* \"#utility.yul\":4091:4144   */\n      tag_555\n      jump\t// in\n    tag_592:\n        /* \"#utility.yul\":4081:4144   */\n      swap6\n      pop\n        /* \"#utility.yul\":4037:4154   */\n      pop\n        /* \"#utility.yul\":4221:4223   */\n      0x20\n        /* \"#utility.yul\":4210:4219   */\n      dup7\n        /* \"#utility.yul\":4206:4224   */\n      add\n        /* \"#utility.yul\":4193:4225   */\n      calldataload\n        /* \"#utility.yul\":4252:4270   */\n      0xffffffffffffffff\n        /* \"#utility.yul\":4244:4250   */\n      dup2\n        /* \"#utility.yul\":4241:4271   */\n      gt\n        /* \"#utility.yul\":4238:4240   */\n      iszero\n      tag_593\n      jumpi\n        /* \"#utility.yul\":4284:4285   */\n      0x00\n        /* \"#utility.yul\":4281:4282   */\n      dup1\n        /* \"#utility.yul\":4274:4286   */\n      revert\n        /* \"#utility.yul\":4238:4240   */\n    tag_593:\n        /* \"#utility.yul\":4312:4375   */\n      tag_594\n        /* \"#utility.yul\":4367:4374   */\n      dup9\n        /* \"#utility.yul\":4358:4364   */\n      dup3\n        /* \"#utility.yul\":4347:4356   */\n      dup10\n        /* \"#utility.yul\":4343:4365   */\n      add\n        /* \"#utility.yul\":4312:4375   */\n      tag_567\n      jump\t// in\n    tag_594:\n        /* \"#utility.yul\":4302:4375   */\n      swap5\n      pop\n        /* \"#utility.yul\":4164:4385   */\n      pop\n        /* \"#utility.yul\":4452:4454   */\n      0x40\n        /* \"#utility.yul\":4441:4450   */\n      dup7\n        /* \"#utility.yul\":4437:4455   */\n      add\n        /* \"#utility.yul\":4424:4456   */\n      calldataload\n        /* \"#utility.yul\":4483:4501   */\n      0xffffffffffffffff\n        /* \"#utility.yul\":4475:4481   */\n      dup2\n        /* \"#utility.yul\":4472:4502   */\n      gt\n        /* \"#utility.yul\":4469:4471   */\n      iszero\n      tag_595\n      jumpi\n        /* \"#utility.yul\":4515:4516   */\n      0x00\n        /* \"#utility.yul\":4512:4513   */\n      dup1\n        /* \"#utility.yul\":4505:4517   */\n      revert\n        /* \"#utility.yul\":4469:4471   */\n    tag_595:\n        /* \"#utility.yul\":4543:4606   */\n      tag_596\n        /* \"#utility.yul\":4598:4605   */\n      dup9\n        /* \"#utility.yul\":4589:4595   */\n      dup3\n        /* \"#utility.yul\":4578:4587   */\n      dup10\n        /* \"#utility.yul\":4574:4596   */\n      add\n        /* \"#utility.yul\":4543:4606   */\n      tag_567\n      jump\t// in\n    tag_596:\n        /* \"#utility.yul\":4533:4606   */\n      swap4\n      pop\n        /* \"#utility.yul\":4395:4616   */\n      pop\n        /* \"#utility.yul\":4683:4685   */\n      0x60\n        /* \"#utility.yul\":4672:4681   */\n      dup7\n        /* \"#utility.yul\":4668:4686   */\n      add\n        /* \"#utility.yul\":4655:4687   */\n      calldataload\n        /* \"#utility.yul\":4714:4732   */\n      0xffffffffffffffff\n        /* \"#utility.yul\":4706:4712   */\n      dup2\n        /* \"#utility.yul\":4703:4733   */\n      gt\n        /* \"#utility.yul\":4700:4702   */\n      iszero\n      tag_597\n      jumpi\n        /* \"#utility.yul\":4746:4747   */\n      0x00\n        /* \"#utility.yul\":4743:4744   */\n      dup1\n        /* \"#utility.yul\":4736:4748   */\n      revert\n        /* \"#utility.yul\":4700:4702   */\n    tag_597:\n        /* \"#utility.yul\":4774:4837   */\n      tag_598\n        /* \"#utility.yul\":4829:4836   */\n      dup9\n        /* \"#utility.yul\":4820:4826   */\n      dup3\n        /* \"#utility.yul\":4809:4818   */\n      dup10\n        /* \"#utility.yul\":4805:4827   */\n      add\n        /* \"#utility.yul\":4774:4837   */\n      tag_567\n      jump\t// in\n    tag_598:\n        /* \"#utility.yul\":4764:4837   */\n      swap3\n      pop\n        /* \"#utility.yul\":4626:4847   */\n      pop\n        /* \"#utility.yul\":4886:4889   */\n      0x80\n        /* \"#utility.yul\":4913:4966   */\n      tag_599\n        /* \"#utility.yul\":4958:4965   */\n      dup9\n        /* \"#utility.yul\":4949:4955   */\n      dup3\n        /* \"#utility.yul\":4938:4947   */\n      dup10\n        /* \"#utility.yul\":4934:4956   */\n      add\n        /* \"#utility.yul\":4913:4966   */\n      tag_546\n      jump\t// in\n    tag_599:\n        /* \"#utility.yul\":4903:4966   */\n      swap2\n      pop\n        /* \"#utility.yul\":4857:4976   */\n      pop\n        /* \"#utility.yul\":3964:4983   */\n      swap3\n      swap6\n      pop\n      swap3\n      swap6\n      swap1\n      swap4\n      pop\n      jump\t// out\n        /* \"#utility.yul\":4989:6312   */\n    tag_86:\n      0x00\n      dup1\n      0x00\n      dup1\n      0x00\n      dup1\n        /* \"#utility.yul\":5209:5212   */\n      0xc0\n        /* \"#utility.yul\":5197:5206   */\n      dup8\n        /* \"#utility.yul\":5188:5195   */\n      dup10\n        /* \"#utility.yul\":5184:5207   */\n      sub\n        /* \"#utility.yul\":5180:5213   */\n      slt\n        /* \"#utility.yul\":5177:5179   */\n      iszero\n      tag_601\n      jumpi\n        /* \"#utility.yul\":5226:5227   */\n      0x00\n        /* \"#utility.yul\":5223:5224   */\n      dup1\n        /* \"#utility.yul\":5216:5228   */\n      revert\n        /* \"#utility.yul\":5177:5179   */\n    tag_601:\n        /* \"#utility.yul\":5269:5270   */\n      0x00\n        /* \"#utility.yul\":5294:5347   */\n      tag_602\n        /* \"#utility.yul\":5339:5346   */\n      dup10\n        /* \"#utility.yul\":5330:5336   */\n      dup3\n        /* \"#utility.yul\":5319:5328   */\n      dup11\n        /* \"#utility.yul\":5315:5337   */\n      add\n        /* \"#utility.yul\":5294:5347   */\n      tag_555\n      jump\t// in\n    tag_602:\n        /* \"#utility.yul\":5284:5347   */\n      swap7\n      pop\n        /* \"#utility.yul\":5240:5357   */\n      pop\n        /* \"#utility.yul\":5424:5426   */\n      0x20\n        /* \"#utility.yul\":5413:5422   */\n      dup8\n        /* \"#utility.yul\":5409:5427   */\n      add\n        /* \"#utility.yul\":5396:5428   */\n      calldataload\n        /* \"#utility.yul\":5455:5473   */\n      0xffffffffffffffff\n        /* \"#utility.yul\":5447:5453   */\n      dup2\n        /* \"#utility.yul\":5444:5474   */\n      gt\n        /* \"#utility.yul\":5441:5443   */\n      iszero\n      tag_603\n      jumpi\n        /* \"#utility.yul\":5487:5488   */\n      0x00\n        /* \"#utility.yul\":5484:5485   */\n      dup1\n        /* \"#utility.yul\":5477:5489   */\n      revert\n        /* \"#utility.yul\":5441:5443   */\n    tag_603:\n        /* \"#utility.yul\":5515:5578   */\n      tag_604\n        /* \"#utility.yul\":5570:5577   */\n      dup10\n        /* \"#utility.yul\":5561:5567   */\n      dup3\n        /* \"#utility.yul\":5550:5559   */\n      dup11\n        /* \"#utility.yul\":5546:5568   */\n      add\n        /* \"#utility.yul\":5515:5578   */\n      tag_567\n      jump\t// in\n    tag_604:\n        /* \"#utility.yul\":5505:5578   */\n      swap6\n      pop\n        /* \"#utility.yul\":5367:5588   */\n      pop\n        /* \"#utility.yul\":5655:5657   */\n      0x40\n        /* \"#utility.yul\":5644:5653   */\n      dup8\n        /* \"#utility.yul\":5640:5658   */\n      add\n        /* \"#utility.yul\":5627:5659   */\n      calldataload\n        /* \"#utility.yul\":5686:5704   */\n      0xffffffffffffffff\n        /* \"#utility.yul\":5678:5684   */\n      dup2\n        /* \"#utility.yul\":5675:5705   */\n      gt\n        /* \"#utility.yul\":5672:5674   */\n      iszero\n      tag_605\n      jumpi\n        /* \"#utility.yul\":5718:5719   */\n      0x00\n        /* \"#utility.yul\":5715:5716   */\n      dup1\n        /* \"#utility.yul\":5708:5720   */\n      revert\n        /* \"#utility.yul\":5672:5674   */\n    tag_605:\n        /* \"#utility.yul\":5746:5809   */\n      tag_606\n        /* \"#utility.yul\":5801:5808   */\n      dup10\n        /* \"#utility.yul\":5792:5798   */\n      dup3\n        /* \"#utility.yul\":5781:5790   */\n      dup11\n        /* \"#utility.yul\":5777:5799   */\n      add\n        /* \"#utility.yul\":5746:5809   */\n      tag_567\n      jump\t// in\n    tag_606:\n        /* \"#utility.yul\":5736:5809   */\n      swap5\n      pop\n        /* \"#utility.yul\":5598:5819   */\n      pop\n        /* \"#utility.yul\":5886:5888   */\n      0x60\n        /* \"#utility.yul\":5875:5884   */\n      dup8\n        /* \"#utility.yul\":5871:5889   */\n      add\n        /* \"#utility.yul\":5858:5890   */\n      calldataload\n        /* \"#utility.yul\":5917:5935   */\n      0xffffffffffffffff\n        /* \"#utility.yul\":5909:5915   */\n      dup2\n        /* \"#utility.yul\":5906:5936   */\n      gt\n        /* \"#utility.yul\":5903:5905   */\n      iszero\n      tag_607\n      jumpi\n        /* \"#utility.yul\":5949:5950   */\n      0x00\n        /* \"#utility.yul\":5946:5947   */\n      dup1\n        /* \"#utility.yul\":5939:5951   */\n      revert\n        /* \"#utility.yul\":5903:5905   */\n    tag_607:\n        /* \"#utility.yul\":5977:6040   */\n      tag_608\n        /* \"#utility.yul\":6032:6039   */\n      dup10\n        /* \"#utility.yul\":6023:6029   */\n      dup3\n        /* \"#utility.yul\":6012:6021   */\n      dup11\n        /* \"#utility.yul\":6008:6030   */\n      add\n        /* \"#utility.yul\":5977:6040   */\n      tag_567\n      jump\t// in\n    tag_608:\n        /* \"#utility.yul\":5967:6040   */\n      swap4\n      pop\n        /* \"#utility.yul\":5829:6050   */\n      pop\n        /* \"#utility.yul\":6089:6092   */\n      0x80\n        /* \"#utility.yul\":6116:6169   */\n      tag_609\n        /* \"#utility.yul\":6161:6168   */\n      dup10\n        /* \"#utility.yul\":6152:6158   */\n      dup3\n        /* \"#utility.yul\":6141:6150   */\n      dup11\n        /* \"#utility.yul\":6137:6159   */\n      add\n        /* \"#utility.yul\":6116:6169   */\n      tag_546\n      jump\t// in\n    tag_609:\n        /* \"#utility.yul\":6106:6169   */\n      swap3\n      pop\n        /* \"#utility.yul\":6060:6179   */\n      pop\n        /* \"#utility.yul\":6218:6221   */\n      0xa0\n        /* \"#utility.yul\":6245:6295   */\n      tag_610\n        /* \"#utility.yul\":6287:6294   */\n      dup10\n        /* \"#utility.yul\":6278:6284   */\n      dup3\n        /* \"#utility.yul\":6267:6276   */\n      dup11\n        /* \"#utility.yul\":6263:6285   */\n      add\n        /* \"#utility.yul\":6245:6295   */\n      tag_563\n      jump\t// in\n    tag_610:\n        /* \"#utility.yul\":6235:6295   */\n      swap2\n      pop\n        /* \"#utility.yul\":6189:6305   */\n      pop\n        /* \"#utility.yul\":5167:6312   */\n      swap3\n      swap6\n      pop\n      swap3\n      swap6\n      pop\n      swap3\n      swap6\n      jump\t// out\n        /* \"#utility.yul\":6318:7236   */\n    tag_46:\n      0x00\n      dup1\n      0x00\n      dup1\n        /* \"#utility.yul\":6494:6497   */\n      0x80\n        /* \"#utility.yul\":6482:6491   */\n      dup6\n        /* \"#utility.yul\":6473:6480   */\n      dup8\n        /* \"#utility.yul\":6469:6492   */\n      sub\n        /* \"#utility.yul\":6465:6498   */\n      slt\n        /* \"#utility.yul\":6462:6464   */\n      iszero\n      tag_612\n      jumpi\n        /* \"#utility.yul\":6511:6512   */\n      0x00\n        /* \"#utility.yul\":6508:6509   */\n      dup1\n        /* \"#utility.yul\":6501:6513   */\n      revert\n        /* \"#utility.yul\":6462:6464   */\n    tag_612:\n        /* \"#utility.yul\":6582:6583   */\n      0x00\n        /* \"#utility.yul\":6571:6580   */\n      dup6\n        /* \"#utility.yul\":6567:6584   */\n      add\n        /* \"#utility.yul\":6554:6585   */\n      calldataload\n        /* \"#utility.yul\":6612:6630   */\n      0xffffffffffffffff\n        /* \"#utility.yul\":6604:6610   */\n      dup2\n        /* \"#utility.yul\":6601:6631   */\n      gt\n        /* \"#utility.yul\":6598:6600   */\n      iszero\n      tag_613\n      jumpi\n        /* \"#utility.yul\":6644:6645   */\n      0x00\n        /* \"#utility.yul\":6641:6642   */\n      dup1\n        /* \"#utility.yul\":6634:6646   */\n      revert\n        /* \"#utility.yul\":6598:6600   */\n    tag_613:\n        /* \"#utility.yul\":6672:6735   */\n      tag_614\n        /* \"#utility.yul\":6727:6734   */\n      dup8\n        /* \"#utility.yul\":6718:6724   */\n      dup3\n        /* \"#utility.yul\":6707:6716   */\n      dup9\n        /* \"#utility.yul\":6703:6725   */\n      add\n        /* \"#utility.yul\":6672:6735   */\n      tag_567\n      jump\t// in\n    tag_614:\n        /* \"#utility.yul\":6662:6735   */\n      swap5\n      pop\n        /* \"#utility.yul\":6525:6745   */\n      pop\n        /* \"#utility.yul\":6812:6814   */\n      0x20\n        /* \"#utility.yul\":6801:6810   */\n      dup6\n        /* \"#utility.yul\":6797:6815   */\n      add\n        /* \"#utility.yul\":6784:6816   */\n      calldataload\n        /* \"#utility.yul\":6843:6861   */\n      0xffffffffffffffff\n        /* \"#utility.yul\":6835:6841   */\n      dup2\n        /* \"#utility.yul\":6832:6862   */\n      gt\n        /* \"#utility.yul\":6829:6831   */\n      iszero\n      tag_615\n      jumpi\n        /* \"#utility.yul\":6875:6876   */\n      0x00\n        /* \"#utility.yul\":6872:6873   */\n      dup1\n        /* \"#utility.yul\":6865:6877   */\n      revert\n        /* \"#utility.yul\":6829:6831   */\n    tag_615:\n        /* \"#utility.yul\":6903:6966   */\n      tag_616\n        /* \"#utility.yul\":6958:6965   */\n      dup8\n        /* \"#utility.yul\":6949:6955   */\n      dup3\n        /* \"#utility.yul\":6938:6947   */\n      dup9\n        /* \"#utility.yul\":6934:6956   */\n      add\n        /* \"#utility.yul\":6903:6966   */\n      tag_567\n      jump\t// in\n    tag_616:\n        /* \"#utility.yul\":6893:6966   */\n      swap4\n      pop\n        /* \"#utility.yul\":6755:6976   */\n      pop\n        /* \"#utility.yul\":7015:7017   */\n      0x40\n        /* \"#utility.yul\":7041:7094   */\n      tag_617\n        /* \"#utility.yul\":7086:7093   */\n      dup8\n        /* \"#utility.yul\":7077:7083   */\n      dup3\n        /* \"#utility.yul\":7066:7075   */\n      dup9\n        /* \"#utility.yul\":7062:7084   */\n      add\n        /* \"#utility.yul\":7041:7094   */\n      tag_555\n      jump\t// in\n    tag_617:\n        /* \"#utility.yul\":7031:7094   */\n      swap3\n      pop\n        /* \"#utility.yul\":6986:7104   */\n      pop\n        /* \"#utility.yul\":7143:7145   */\n      0x60\n        /* \"#utility.yul\":7169:7219   */\n      tag_618\n        /* \"#utility.yul\":7211:7218   */\n      dup8\n        /* \"#utility.yul\":7202:7208   */\n      dup3\n        /* \"#utility.yul\":7191:7200   */\n      dup9\n        /* \"#utility.yul\":7187:7209   */\n      add\n        /* \"#utility.yul\":7169:7219   */\n      tag_563\n      jump\t// in\n    tag_618:\n        /* \"#utility.yul\":7159:7219   */\n      swap2\n      pop\n        /* \"#utility.yul\":7114:7229   */\n      pop\n        /* \"#utility.yul\":6452:7236   */\n      swap3\n      swap6\n      swap2\n      swap5\n      pop\n      swap3\n      pop\n      jump\t// out\n        /* \"#utility.yul\":7242:7504   */\n    tag_40:\n      0x00\n        /* \"#utility.yul\":7350:7352   */\n      0x20\n        /* \"#utility.yul\":7338:7347   */\n      dup3\n        /* \"#utility.yul\":7329:7336   */\n      dup5\n        /* \"#utility.yul\":7325:7348   */\n      sub\n        /* \"#utility.yul\":7321:7353   */\n      slt\n        /* \"#utility.yul\":7318:7320   */\n      iszero\n      tag_620\n      jumpi\n        /* \"#utility.yul\":7366:7367   */\n      0x00\n        /* \"#utility.yul\":7363:7364   */\n      dup1\n        /* \"#utility.yul\":7356:7368   */\n      revert\n        /* \"#utility.yul\":7318:7320   */\n    tag_620:\n        /* \"#utility.yul\":7409:7410   */\n      0x00\n        /* \"#utility.yul\":7434:7487   */\n      tag_621\n        /* \"#utility.yul\":7479:7486   */\n      dup5\n        /* \"#utility.yul\":7470:7476   */\n      dup3\n        /* \"#utility.yul\":7459:7468   */\n      dup6\n        /* \"#utility.yul\":7455:7477   */\n      add\n        /* \"#utility.yul\":7434:7487   */\n      tag_546\n      jump\t// in\n    tag_621:\n        /* \"#utility.yul\":7424:7487   */\n      swap2\n      pop\n        /* \"#utility.yul\":7380:7497   */\n      pop\n        /* \"#utility.yul\":7308:7504   */\n      swap3\n      swap2\n      pop\n      pop\n      jump\t// out\n        /* \"#utility.yul\":7510:8060   */\n    tag_54:\n      0x00\n      dup1\n        /* \"#utility.yul\":7660:7662   */\n      0x40\n        /* \"#utility.yul\":7648:7657   */\n      dup4\n        /* \"#utility.yul\":7639:7646   */\n      dup6\n        /* \"#utility.yul\":7635:7658   */\n      sub\n        /* \"#utility.yul\":7631:7663   */\n      slt\n        /* \"#utility.yul\":7628:7630   */\n      iszero\n      tag_623\n      jumpi\n        /* \"#utility.yul\":7676:7677   */\n      0x00\n        /* \"#utility.yul\":7673:7674   */\n      dup1\n        /* \"#utility.yul\":7666:7678   */\n      revert\n        /* \"#utility.yul\":7628:7630   */\n    tag_623:\n        /* \"#utility.yul\":7719:7720   */\n      0x00\n        /* \"#utility.yul\":7744:7797   */\n      tag_624\n        /* \"#utility.yul\":7789:7796   */\n      dup6\n        /* \"#utility.yul\":7780:7786   */\n      dup3\n        /* \"#utility.yul\":7769:7778   */\n      dup7\n        /* \"#utility.yul\":7765:7787   */\n      add\n        /* \"#utility.yul\":7744:7797   */\n      tag_546\n      jump\t// in\n    tag_624:\n        /* \"#utility.yul\":7734:7797   */\n      swap3\n      pop\n        /* \"#utility.yul\":7690:7807   */\n      pop\n        /* \"#utility.yul\":7874:7876   */\n      0x20\n        /* \"#utility.yul\":7863:7872   */\n      dup4\n        /* \"#utility.yul\":7859:7877   */\n      add\n        /* \"#utility.yul\":7846:7878   */\n      calldataload\n        /* \"#utility.yul\":7905:7923   */\n      0xffffffffffffffff\n        /* \"#utility.yul\":7897:7903   */\n      dup2\n        /* \"#utility.yul\":7894:7924   */\n      gt\n        /* \"#utility.yul\":7891:7893   */\n      iszero\n      tag_625\n      jumpi\n        /* \"#utility.yul\":7937:7938   */\n      0x00\n        /* \"#utility.yul\":7934:7935   */\n      dup1\n        /* \"#utility.yul\":7927:7939   */\n      revert\n        /* \"#utility.yul\":7891:7893   */\n    tag_625:\n        /* \"#utility.yul\":7965:8043   */\n      tag_626\n        /* \"#utility.yul\":8035:8042   */\n      dup6\n        /* \"#utility.yul\":8026:8032   */\n      dup3\n        /* \"#utility.yul\":8015:8024   */\n      dup7\n        /* \"#utility.yul\":8011:8033   */\n      add\n        /* \"#utility.yul\":7965:8043   */\n      tag_559\n      jump\t// in\n    tag_626:\n        /* \"#utility.yul\":7955:8043   */\n      swap2\n      pop\n        /* \"#utility.yul\":7817:8053   */\n      pop\n        /* \"#utility.yul\":7618:8060   */\n      swap3\n      pop\n      swap3\n      swap1\n      pop\n      jump\t// out\n        /* \"#utility.yul\":8066:9130   */\n    tag_82:\n      0x00\n      dup1\n      0x00\n      dup1\n      0x00\n        /* \"#utility.yul\":8259:8262   */\n      0xa0\n        /* \"#utility.yul\":8247:8256   */\n      dup7\n        /* \"#utility.yul\":8238:8245   */\n      dup9\n        /* \"#utility.yul\":8234:8257   */\n      sub\n        /* \"#utility.yul\":8230:8263   */\n      slt\n        /* \"#utility.yul\":8227:8229   */\n      iszero\n      tag_628\n      jumpi\n        /* \"#utility.yul\":8276:8277   */\n      0x00\n        /* \"#utility.yul\":8273:8274   */\n      dup1\n        /* \"#utility.yul\":8266:8278   */\n      revert\n        /* \"#utility.yul\":8227:8229   */\n    tag_628:\n        /* \"#utility.yul\":8319:8320   */\n      0x00\n        /* \"#utility.yul\":8344:8397   */\n      tag_629\n        /* \"#utility.yul\":8389:8396   */\n      dup9\n        /* \"#utility.yul\":8380:8386   */\n      dup3\n        /* \"#utility.yul\":8369:8378   */\n      dup10\n        /* \"#utility.yul\":8365:8387   */\n      add\n        /* \"#utility.yul\":8344:8397   */\n      tag_546\n      jump\t// in\n    tag_629:\n        /* \"#utility.yul\":8334:8397   */\n      swap6\n      pop\n        /* \"#utility.yul\":8290:8407   */\n      pop\n        /* \"#utility.yul\":8474:8476   */\n      0x20\n        /* \"#utility.yul\":8463:8472   */\n      dup7\n        /* \"#utility.yul\":8459:8477   */\n      add\n        /* \"#utility.yul\":8446:8478   */\n      calldataload\n        /* \"#utility.yul\":8505:8523   */\n      0xffffffffffffffff\n        /* \"#utility.yul\":8497:8503   */\n      dup2\n        /* \"#utility.yul\":8494:8524   */\n      gt\n        /* \"#utility.yul\":8491:8493   */\n      iszero\n      tag_630\n      jumpi\n        /* \"#utility.yul\":8537:8538   */\n      0x00\n        /* \"#utility.yul\":8534:8535   */\n      dup1\n        /* \"#utility.yul\":8527:8539   */\n      revert\n        /* \"#utility.yul\":8491:8493   */\n    tag_630:\n        /* \"#utility.yul\":8565:8628   */\n      tag_631\n        /* \"#utility.yul\":8620:8627   */\n      dup9\n        /* \"#utility.yul\":8611:8617   */\n      dup3\n        /* \"#utility.yul\":8600:8609   */\n      dup10\n        /* \"#utility.yul\":8596:8618   */\n      add\n        /* \"#utility.yul\":8565:8628   */\n      tag_567\n      jump\t// in\n    tag_631:\n        /* \"#utility.yul\":8555:8628   */\n      swap5\n      pop\n        /* \"#utility.yul\":8417:8638   */\n      pop\n        /* \"#utility.yul\":8705:8707   */\n      0x40\n        /* \"#utility.yul\":8694:8703   */\n      dup7\n        /* \"#utility.yul\":8690:8708   */\n      add\n        /* \"#utility.yul\":8677:8709   */\n      calldataload\n        /* \"#utility.yul\":8736:8754   */\n      0xffffffffffffffff\n        /* \"#utility.yul\":8728:8734   */\n      dup2\n        /* \"#utility.yul\":8725:8755   */\n      gt\n        /* \"#utility.yul\":8722:8724   */\n      iszero\n      tag_632\n      jumpi\n        /* \"#utility.yul\":8768:8769   */\n      0x00\n        /* \"#utility.yul\":8765:8766   */\n      dup1\n        /* \"#utility.yul\":8758:8770   */\n      revert\n        /* \"#utility.yul\":8722:8724   */\n    tag_632:\n        /* \"#utility.yul\":8796:8859   */\n      tag_633\n        /* \"#utility.yul\":8851:8858   */\n      dup9\n        /* \"#utility.yul\":8842:8848   */\n      dup3\n        /* \"#utility.yul\":8831:8840   */\n      dup10\n        /* \"#utility.yul\":8827:8849   */\n      add\n        /* \"#utility.yul\":8796:8859   */\n      tag_567\n      jump\t// in\n    tag_633:\n        /* \"#utility.yul\":8786:8859   */\n      swap4\n      pop\n        /* \"#utility.yul\":8648:8869   */\n      pop\n        /* \"#utility.yul\":8908:8910   */\n      0x60\n        /* \"#utility.yul\":8934:8987   */\n      tag_634\n        /* \"#utility.yul\":8979:8986   */\n      dup9\n        /* \"#utility.yul\":8970:8976   */\n      dup3\n        /* \"#utility.yul\":8959:8968   */\n      dup10\n        /* \"#utility.yul\":8955:8977   */\n      add\n        /* \"#utility.yul\":8934:8987   */\n      tag_555\n      jump\t// in\n    tag_634:\n        /* \"#utility.yul\":8924:8987   */\n      swap3\n      pop\n        /* \"#utility.yul\":8879:8997   */\n      pop\n        /* \"#utility.yul\":9036:9039   */\n      0x80\n        /* \"#utility.yul\":9063:9113   */\n      tag_635\n        /* \"#utility.yul\":9105:9112   */\n      dup9\n        /* \"#utility.yul\":9096:9102   */\n      dup3\n        /* \"#utility.yul\":9085:9094   */\n      dup10\n        /* \"#utility.yul\":9081:9103   */\n      add\n        /* \"#utility.yul\":9063:9113   */\n      tag_563\n      jump\t// in\n    tag_635:\n        /* \"#utility.yul\":9053:9113   */\n      swap2\n      pop\n        /* \"#utility.yul\":9007:9123   */\n      pop\n        /* \"#utility.yul\":8217:9130   */\n      swap3\n      swap6\n      pop\n      swap3\n      swap6\n      swap1\n      swap4\n      pop\n      jump\t// out\n        /* \"#utility.yul\":9136:9380   */\n    tag_636:\n      0x00\n        /* \"#utility.yul\":9284:9374   */\n      tag_638\n        /* \"#utility.yul\":9370:9373   */\n      dup4\n        /* \"#utility.yul\":9362:9368   */\n      dup4\n        /* \"#utility.yul\":9284:9374   */\n      tag_639\n      jump\t// in\n    tag_638:\n        /* \"#utility.yul\":9270:9374   */\n      swap1\n      pop\n        /* \"#utility.yul\":9260:9380   */\n      swap3\n      swap2\n      pop\n      pop\n      jump\t// out\n        /* \"#utility.yul\":9386:9638   */\n    tag_640:\n      0x00\n        /* \"#utility.yul\":9538:9632   */\n      tag_642\n        /* \"#utility.yul\":9628:9631   */\n      dup4\n        /* \"#utility.yul\":9620:9626   */\n      dup4\n        /* \"#utility.yul\":9538:9632   */\n      tag_643\n      jump\t// in\n    tag_642:\n        /* \"#utility.yul\":9524:9632   */\n      swap1\n      pop\n        /* \"#utility.yul\":9514:9638   */\n      swap3\n      swap2\n      pop\n      pop\n      jump\t// out\n        /* \"#utility.yul\":9644:9888   */\n    tag_644:\n      0x00\n        /* \"#utility.yul\":9792:9882   */\n      tag_646\n        /* \"#utility.yul\":9878:9881   */\n      dup4\n        /* \"#utility.yul\":9870:9876   */\n      dup4\n        /* \"#utility.yul\":9792:9882   */\n      tag_647\n      jump\t// in\n    tag_646:\n        /* \"#utility.yul\":9778:9882   */\n      swap1\n      pop\n        /* \"#utility.yul\":9768:9888   */\n      swap3\n      swap2\n      pop\n      pop\n      jump\t// out\n        /* \"#utility.yul\":9894:10073   */\n    tag_648:\n      0x00\n        /* \"#utility.yul\":9984:10030   */\n      tag_650\n        /* \"#utility.yul\":10026:10029   */\n      dup4\n        /* \"#utility.yul\":10018:10024   */\n      dup4\n        /* \"#utility.yul\":9984:10030   */\n      tag_651\n      jump\t// in\n    tag_650:\n        /* \"#utility.yul\":10062:10066   */\n      0x20\n        /* \"#utility.yul\":10057:10060   */\n      dup4\n        /* \"#utility.yul\":10053:10067   */\n      add\n        /* \"#utility.yul\":10039:10067   */\n      swap1\n      pop\n        /* \"#utility.yul\":9974:10073   */\n      swap3\n      swap2\n      pop\n      pop\n      jump\t// out\n        /* \"#utility.yul\":10079:10187   */\n    tag_652:\n        /* \"#utility.yul\":10156:10180   */\n      tag_654\n        /* \"#utility.yul\":10174:10179   */\n      dup2\n        /* \"#utility.yul\":10156:10180   */\n      tag_655\n      jump\t// in\n    tag_654:\n        /* \"#utility.yul\":10151:10154   */\n      dup3\n        /* \"#utility.yul\":10144:10181   */\n      mstore\n        /* \"#utility.yul\":10134:10187   */\n      pop\n      pop\n      jump\t// out\n        /* \"#utility.yul\":10193:10311   */\n    tag_656:\n        /* \"#utility.yul\":10280:10304   */\n      tag_658\n        /* \"#utility.yul\":10298:10303   */\n      dup2\n        /* \"#utility.yul\":10280:10304   */\n      tag_655\n      jump\t// in\n    tag_658:\n        /* \"#utility.yul\":10275:10278   */\n      dup3\n        /* \"#utility.yul\":10268:10305   */\n      mstore\n        /* \"#utility.yul\":10258:10311   */\n      pop\n      pop\n      jump\t// out\n        /* \"#utility.yul\":10375:11462   */\n    tag_659:\n      0x00\n        /* \"#utility.yul\":10567:10643   */\n      tag_661\n        /* \"#utility.yul\":10637:10642   */\n      dup3\n        /* \"#utility.yul\":10567:10643   */\n      tag_662\n      jump\t// in\n    tag_661:\n        /* \"#utility.yul\":10659:10767   */\n      tag_663\n        /* \"#utility.yul\":10760:10766   */\n      dup2\n        /* \"#utility.yul\":10755:10758   */\n      dup6\n        /* \"#utility.yul\":10659:10767   */\n      tag_664\n      jump\t// in\n    tag_663:\n        /* \"#utility.yul\":10652:10767   */\n      swap4\n      pop\n        /* \"#utility.yul\":10793:10796   */\n      dup4\n        /* \"#utility.yul\":10838:10842   */\n      0x20\n        /* \"#utility.yul\":10830:10836   */\n      dup3\n        /* \"#utility.yul\":10826:10843   */\n      mul\n        /* \"#utility.yul\":10821:10824   */\n      dup6\n        /* \"#utility.yul\":10817:10844   */\n      add\n        /* \"#utility.yul\":10868:10946   */\n      tag_665\n        /* \"#utility.yul\":10940:10945   */\n      dup6\n        /* \"#utility.yul\":10868:10946   */\n      tag_666\n      jump\t// in\n    tag_665:\n        /* \"#utility.yul\":10969:10976   */\n      dup1\n        /* \"#utility.yul\":11000:11001   */\n      0x00\n        /* \"#utility.yul\":10985:11417   */\n    tag_667:\n        /* \"#utility.yul\":11010:11016   */\n      dup6\n        /* \"#utility.yul\":11007:11008   */\n      dup2\n        /* \"#utility.yul\":11004:11017   */\n      lt\n        /* \"#utility.yul\":10985:11417   */\n      iszero\n      tag_669\n      jumpi\n        /* \"#utility.yul\":11081:11090   */\n      dup5\n        /* \"#utility.yul\":11075:11079   */\n      dup5\n        /* \"#utility.yul\":11071:11091   */\n      sub\n        /* \"#utility.yul\":11066:11069   */\n      dup10\n        /* \"#utility.yul\":11059:11092   */\n      mstore\n        /* \"#utility.yul\":11132:11138   */\n      dup2\n        /* \"#utility.yul\":11126:11139   */\n      mload\n        /* \"#utility.yul\":11160:11268   */\n      tag_670\n        /* \"#utility.yul\":11263:11267   */\n      dup6\n        /* \"#utility.yul\":11248:11261   */\n      dup3\n        /* \"#utility.yul\":11160:11268   */\n      tag_636\n      jump\t// in\n    tag_670:\n        /* \"#utility.yul\":11152:11268   */\n      swap5\n      pop\n        /* \"#utility.yul\":11291:11373   */\n      tag_671\n        /* \"#utility.yul\":11366:11372   */\n      dup4\n        /* \"#utility.yul\":11291:11373   */\n      tag_672\n      jump\t// in\n    tag_671:\n        /* \"#utility.yul\":11281:11373   */\n      swap3\n      pop\n        /* \"#utility.yul\":11402:11406   */\n      0x20\n        /* \"#utility.yul\":11397:11400   */\n      dup11\n        /* \"#utility.yul\":11393:11407   */\n      add\n        /* \"#utility.yul\":11386:11407   */\n      swap10\n      pop\n        /* \"#utility.yul\":11045:11417   */\n      pop\n        /* \"#utility.yul\":11032:11033   */\n      0x01\n        /* \"#utility.yul\":11029:11030   */\n      dup2\n        /* \"#utility.yul\":11025:11034   */\n      add\n        /* \"#utility.yul\":11020:11034   */\n      swap1\n      pop\n        /* \"#utility.yul\":10985:11417   */\n      jump(tag_667)\n    tag_669:\n        /* \"#utility.yul\":10989:11003   */\n      pop\n        /* \"#utility.yul\":11433:11437   */\n      dup3\n        /* \"#utility.yul\":11426:11437   */\n      swap8\n      pop\n        /* \"#utility.yul\":11453:11456   */\n      dup8\n        /* \"#utility.yul\":11446:11456   */\n      swap6\n      pop\n        /* \"#utility.yul\":10543:11462   */\n      pop\n      pop\n      pop\n      pop\n      pop\n      swap3\n      swap2\n      pop\n      pop\n      jump\t// out\n        /* \"#utility.yul\":11530:12633   */\n    tag_673:\n      0x00\n        /* \"#utility.yul\":11726:11804   */\n      tag_675\n        /* \"#utility.yul\":11798:11803   */\n      dup3\n        /* \"#utility.yul\":11726:11804   */\n      tag_676\n      jump\t// in\n    tag_675:\n        /* \"#utility.yul\":11820:11930   */\n      tag_677\n        /* \"#utility.yul\":11923:11929   */\n      dup2\n        /* \"#utility.yul\":11918:11921   */\n      dup6\n        /* \"#utility.yul\":11820:11930   */\n      tag_678\n      jump\t// in\n    tag_677:\n        /* \"#utility.yul\":11813:11930   */\n      swap4\n      pop\n        /* \"#utility.yul\":11956:11959   */\n      dup4\n        /* \"#utility.yul\":12001:12005   */\n      0x20\n        /* \"#utility.yul\":11993:11999   */\n      dup3\n        /* \"#utility.yul\":11989:12006   */\n      mul\n        /* \"#utility.yul\":11984:11987   */\n      dup6\n        /* \"#utility.yul\":11980:12007   */\n      add\n        /* \"#utility.yul\":12031:12111   */\n      tag_679\n        /* \"#utility.yul\":12105:12110   */\n      dup6\n        /* \"#utility.yul\":12031:12111   */\n      tag_680\n      jump\t// in\n    tag_679:\n        /* \"#utility.yul\":12134:12141   */\n      dup1\n        /* \"#utility.yul\":12165:12166   */\n      0x00\n        /* \"#utility.yul\":12150:12588   */\n    tag_681:\n        /* \"#utility.yul\":12175:12181   */\n      dup6\n        /* \"#utility.yul\":12172:12173   */\n      dup2\n        /* \"#utility.yul\":12169:12182   */\n      lt\n        /* \"#utility.yul\":12150:12588   */\n      iszero\n      tag_683\n      jumpi\n        /* \"#utility.yul\":12246:12255   */\n      dup5\n        /* \"#utility.yul\":12240:12244   */\n      dup5\n        /* \"#utility.yul\":12236:12256   */\n      sub\n        /* \"#utility.yul\":12231:12234   */\n      dup10\n        /* \"#utility.yul\":12224:12257   */\n      mstore\n        /* \"#utility.yul\":12297:12303   */\n      dup2\n        /* \"#utility.yul\":12291:12304   */\n      mload\n        /* \"#utility.yul\":12325:12437   */\n      tag_684\n        /* \"#utility.yul\":12432:12436   */\n      dup6\n        /* \"#utility.yul\":12417:12430   */\n      dup3\n        /* \"#utility.yul\":12325:12437   */\n      tag_640\n      jump\t// in\n    tag_684:\n        /* \"#utility.yul\":12317:12437   */\n      swap5\n      pop\n        /* \"#utility.yul\":12460:12544   */\n      tag_685\n        /* \"#utility.yul\":12537:12543   */\n      dup4\n        /* \"#utility.yul\":12460:12544   */\n      tag_686\n      jump\t// in\n    tag_685:\n        /* \"#utility.yul\":12450:12544   */\n      swap3\n      pop\n        /* \"#utility.yul\":12573:12577   */\n      0x20\n        /* \"#utility.yul\":12568:12571   */\n      dup11\n        /* \"#utility.yul\":12564:12578   */\n      add\n        /* \"#utility.yul\":12557:12578   */\n      swap10\n      pop\n        /* \"#utility.yul\":12210:12588   */\n      pop\n        /* \"#utility.yul\":12197:12198   */\n      0x01\n        /* \"#utility.yul\":12194:12195   */\n      dup2\n        /* \"#utility.yul\":12190:12199   */\n      add\n        /* \"#utility.yul\":12185:12199   */\n      swap1\n      pop\n        /* \"#utility.yul\":12150:12588   */\n      jump(tag_681)\n    tag_683:\n        /* \"#utility.yul\":12154:12168   */\n      pop\n        /* \"#utility.yul\":12604:12608   */\n      dup3\n        /* \"#utility.yul\":12597:12608   */\n      swap8\n      pop\n        /* \"#utility.yul\":12624:12627   */\n      dup8\n        /* \"#utility.yul\":12617:12627   */\n      swap6\n      pop\n        /* \"#utility.yul\":11702:12633   */\n      pop\n      pop\n      pop\n      pop\n      pop\n      swap3\n      swap2\n      pop\n      pop\n      jump\t// out\n        /* \"#utility.yul\":12697:13784   */\n    tag_687:\n      0x00\n        /* \"#utility.yul\":12889:12965   */\n      tag_689\n        /* \"#utility.yul\":12959:12964   */\n      dup3\n        /* \"#utility.yul\":12889:12965   */\n      tag_690\n      jump\t// in\n    tag_689:\n        /* \"#utility.yul\":12981:13089   */\n      tag_691\n        /* \"#utility.yul\":13082:13088   */\n      dup2\n        /* \"#utility.yul\":13077:13080   */\n      dup6\n        /* \"#utility.yul\":12981:13089   */\n      tag_692\n      jump\t// in\n    tag_691:\n        /* \"#utility.yul\":12974:13089   */\n      swap4\n      pop\n        /* \"#utility.yul\":13115:13118   */\n      dup4\n        /* \"#utility.yul\":13160:13164   */\n      0x20\n        /* \"#utility.yul\":13152:13158   */\n      dup3\n        /* \"#utility.yul\":13148:13165   */\n      mul\n        /* \"#utility.yul\":13143:13146   */\n      dup6\n        /* \"#utility.yul\":13139:13166   */\n      add\n        /* \"#utility.yul\":13190:13268   */\n      tag_693\n        /* \"#utility.yul\":13262:13267   */\n      dup6\n        /* \"#utility.yul\":13190:13268   */\n      tag_694\n      jump\t// in\n    tag_693:\n        /* \"#utility.yul\":13291:13298   */\n      dup1\n        /* \"#utility.yul\":13322:13323   */\n      0x00\n        /* \"#utility.yul\":13307:13739   */\n    tag_695:\n        /* \"#utility.yul\":13332:13338   */\n      dup6\n        /* \"#utility.yul\":13329:13330   */\n      dup2\n        /* \"#utility.yul\":13326:13339   */\n      lt\n        /* \"#utility.yul\":13307:13739   */\n      iszero\n      tag_697\n      jumpi\n        /* \"#utility.yul\":13403:13412   */\n      dup5\n        /* \"#utility.yul\":13397:13401   */\n      dup5\n        /* \"#utility.yul\":13393:13413   */\n      sub\n        /* \"#utility.yul\":13388:13391   */\n      dup10\n        /* \"#utility.yul\":13381:13414   */\n      mstore\n        /* \"#utility.yul\":13454:13460   */\n      dup2\n        /* \"#utility.yul\":13448:13461   */\n      mload\n        /* \"#utility.yul\":13482:13590   */\n      tag_698\n        /* \"#utility.yul\":13585:13589   */\n      dup6\n        /* \"#utility.yul\":13570:13583   */\n      dup3\n        /* \"#utility.yul\":13482:13590   */\n      tag_644\n      jump\t// in\n    tag_698:\n        /* \"#utility.yul\":13474:13590   */\n      swap5\n      pop\n        /* \"#utility.yul\":13613:13695   */\n      tag_699\n        /* \"#utility.yul\":13688:13694   */\n      dup4\n        /* \"#utility.yul\":13613:13695   */\n      tag_700\n      jump\t// in\n    tag_699:\n        /* \"#utility.yul\":13603:13695   */\n      swap3\n      pop\n        /* \"#utility.yul\":13724:13728   */\n      0x20\n        /* \"#utility.yul\":13719:13722   */\n      dup11\n        /* \"#utility.yul\":13715:13729   */\n      add\n        /* \"#utility.yul\":13708:13729   */\n      swap10\n      pop\n        /* \"#utility.yul\":13367:13739   */\n      pop\n        /* \"#utility.yul\":13354:13355   */\n      0x01\n        /* \"#utility.yul\":13351:13352   */\n      dup2\n        /* \"#utility.yul\":13347:13356   */\n      add\n        /* \"#utility.yul\":13342:13356   */\n      swap1\n      pop\n        /* \"#utility.yul\":13307:13739   */\n      jump(tag_695)\n    tag_697:\n        /* \"#utility.yul\":13311:13325   */\n      pop\n        /* \"#utility.yul\":13755:13759   */\n      dup3\n        /* \"#utility.yul\":13748:13759   */\n      swap8\n      pop\n        /* \"#utility.yul\":13775:13778   */\n      dup8\n        /* \"#utility.yul\":13768:13778   */\n      swap6\n      pop\n        /* \"#utility.yul\":12865:13784   */\n      pop\n      pop\n      pop\n      pop\n      pop\n      swap3\n      swap2\n      pop\n      pop\n      jump\t// out\n        /* \"#utility.yul\":13820:14532   */\n    tag_701:\n      0x00\n        /* \"#utility.yul\":13958:14012   */\n      tag_703\n        /* \"#utility.yul\":14006:14011   */\n      dup3\n        /* \"#utility.yul\":13958:14012   */\n      tag_704\n      jump\t// in\n    tag_703:\n        /* \"#utility.yul\":14028:14104   */\n      tag_705\n        /* \"#utility.yul\":14097:14103   */\n      dup2\n        /* \"#utility.yul\":14092:14095   */\n      dup6\n        /* \"#utility.yul\":14028:14104   */\n      tag_706\n      jump\t// in\n    tag_705:\n        /* \"#utility.yul\":14021:14104   */\n      swap4\n      pop\n        /* \"#utility.yul\":14128:14184   */\n      tag_707\n        /* \"#utility.yul\":14178:14183   */\n      dup4\n        /* \"#utility.yul\":14128:14184   */\n      tag_708\n      jump\t// in\n    tag_707:\n        /* \"#utility.yul\":14207:14214   */\n      dup1\n        /* \"#utility.yul\":14238:14239   */\n      0x00\n        /* \"#utility.yul\":14223:14507   */\n    tag_709:\n        /* \"#utility.yul\":14248:14254   */\n      dup4\n        /* \"#utility.yul\":14245:14246   */\n      dup2\n        /* \"#utility.yul\":14242:14255   */\n      lt\n        /* \"#utility.yul\":14223:14507   */\n      iszero\n      tag_711\n      jumpi\n        /* \"#utility.yul\":14324:14330   */\n      dup2\n        /* \"#utility.yul\":14318:14331   */\n      mload\n        /* \"#utility.yul\":14351:14414   */\n      tag_712\n        /* \"#utility.yul\":14410:14413   */\n      dup9\n        /* \"#utility.yul\":14395:14408   */\n      dup3\n        /* \"#utility.yul\":14351:14414   */\n      tag_648\n      jump\t// in\n    tag_712:\n        /* \"#utility.yul\":14344:14414   */\n      swap8\n      pop\n        /* \"#utility.yul\":14437:14497   */\n      tag_713\n        /* \"#utility.yul\":14490:14496   */\n      dup4\n        /* \"#utility.yul\":14437:14497   */\n      tag_714\n      jump\t// in\n    tag_713:\n        /* \"#utility.yul\":14427:14497   */\n      swap3\n      pop\n        /* \"#utility.yul\":14283:14507   */\n      pop\n        /* \"#utility.yul\":14270:14271   */\n      0x01\n        /* \"#utility.yul\":14267:14268   */\n      dup2\n        /* \"#utility.yul\":14263:14272   */\n      add\n        /* \"#utility.yul\":14258:14272   */\n      swap1\n      pop\n        /* \"#utility.yul\":14223:14507   */\n      jump(tag_709)\n    tag_711:\n        /* \"#utility.yul\":14227:14241   */\n      pop\n        /* \"#utility.yul\":14523:14526   */\n      dup6\n        /* \"#utility.yul\":14516:14526   */\n      swap4\n      pop\n        /* \"#utility.yul\":13934:14532   */\n      pop\n      pop\n      pop\n      swap3\n      swap2\n      pop\n      pop\n      jump\t// out\n        /* \"#utility.yul\":14568:15300   */\n    tag_715:\n      0x00\n        /* \"#utility.yul\":14716:14770   */\n      tag_717\n        /* \"#utility.yul\":14764:14769   */\n      dup3\n        /* \"#utility.yul\":14716:14770   */\n      tag_704\n      jump\t// in\n    tag_717:\n        /* \"#utility.yul\":14786:14872   */\n      tag_718\n        /* \"#utility.yul\":14865:14871   */\n      dup2\n        /* \"#utility.yul\":14860:14863   */\n      dup6\n        /* \"#utility.yul\":14786:14872   */\n      tag_719\n      jump\t// in\n    tag_718:\n        /* \"#utility.yul\":14779:14872   */\n      swap4\n      pop\n        /* \"#utility.yul\":14896:14952   */\n      tag_720\n        /* \"#utility.yul\":14946:14951   */\n      dup4\n        /* \"#utility.yul\":14896:14952   */\n      tag_708\n      jump\t// in\n    tag_720:\n        /* \"#utility.yul\":14975:14982   */\n      dup1\n        /* \"#utility.yul\":15006:15007   */\n      0x00\n        /* \"#utility.yul\":14991:15275   */\n    tag_721:\n        /* \"#utility.yul\":15016:15022   */\n      dup4\n        /* \"#utility.yul\":15013:15014   */\n      dup2\n        /* \"#utility.yul\":15010:15023   */\n      lt\n        /* \"#utility.yul\":14991:15275   */\n      iszero\n      tag_723\n      jumpi\n        /* \"#utility.yul\":15092:15098   */\n      dup2\n        /* \"#utility.yul\":15086:15099   */\n      mload\n        /* \"#utility.yul\":15119:15182   */\n      tag_724\n        /* \"#utility.yul\":15178:15181   */\n      dup9\n        /* \"#utility.yul\":15163:15176   */\n      dup3\n        /* \"#utility.yul\":15119:15182   */\n      tag_648\n      jump\t// in\n    tag_724:\n        /* \"#utility.yul\":15112:15182   */\n      swap8\n      pop\n        /* \"#utility.yul\":15205:15265   */\n      tag_725\n        /* \"#utility.yul\":15258:15264   */\n      dup4\n        /* \"#utility.yul\":15205:15265   */\n      tag_714\n      jump\t// in\n    tag_725:\n        /* \"#utility.yul\":15195:15265   */\n      swap3\n      pop\n        /* \"#utility.yul\":15051:15275   */\n      pop\n        /* \"#utility.yul\":15038:15039   */\n      0x01\n        /* \"#utility.yul\":15035:15036   */\n      dup2\n        /* \"#utility.yul\":15031:15040   */\n      add\n        /* \"#utility.yul\":15026:15040   */\n      swap1\n      pop\n        /* \"#utility.yul\":14991:15275   */\n      jump(tag_721)\n    tag_723:\n        /* \"#utility.yul\":14995:15009   */\n      pop\n        /* \"#utility.yul\":15291:15294   */\n      dup6\n        /* \"#utility.yul\":15284:15294   */\n      swap4\n      pop\n        /* \"#utility.yul\":14692:15300   */\n      pop\n      pop\n      pop\n      swap3\n      swap2\n      pop\n      pop\n      jump\t// out\n        /* \"#utility.yul\":15306:15405   */\n    tag_726:\n        /* \"#utility.yul\":15377:15398   */\n      tag_728\n        /* \"#utility.yul\":15392:15397   */\n      dup2\n        /* \"#utility.yul\":15377:15398   */\n      tag_729\n      jump\t// in\n    tag_728:\n        /* \"#utility.yul\":15372:15375   */\n      dup3\n        /* \"#utility.yul\":15365:15399   */\n      mstore\n        /* \"#utility.yul\":15355:15405   */\n      pop\n      pop\n      jump\t// out\n        /* \"#utility.yul\":15411:15520   */\n    tag_730:\n        /* \"#utility.yul\":15492:15513   */\n      tag_732\n        /* \"#utility.yul\":15507:15512   */\n      dup2\n        /* \"#utility.yul\":15492:15513   */\n      tag_729\n      jump\t// in\n    tag_732:\n        /* \"#utility.yul\":15487:15490   */\n      dup3\n        /* \"#utility.yul\":15480:15514   */\n      mstore\n        /* \"#utility.yul\":15470:15520   */\n      pop\n      pop\n      jump\t// out\n        /* \"#utility.yul\":15526:15870   */\n    tag_733:\n      0x00\n        /* \"#utility.yul\":15632:15671   */\n      tag_735\n        /* \"#utility.yul\":15665:15670   */\n      dup3\n        /* \"#utility.yul\":15632:15671   */\n      tag_736\n      jump\t// in\n    tag_735:\n        /* \"#utility.yul\":15687:15748   */\n      tag_737\n        /* \"#utility.yul\":15741:15747   */\n      dup2\n        /* \"#utility.yul\":15736:15739   */\n      dup6\n        /* \"#utility.yul\":15687:15748   */\n      tag_738\n      jump\t// in\n    tag_737:\n        /* \"#utility.yul\":15680:15748   */\n      swap4\n      pop\n        /* \"#utility.yul\":15757:15809   */\n      tag_739\n        /* \"#utility.yul\":15802:15808   */\n      dup2\n        /* \"#utility.yul\":15797:15800   */\n      dup6\n        /* \"#utility.yul\":15790:15794   */\n      0x20\n        /* \"#utility.yul\":15783:15788   */\n      dup7\n        /* \"#utility.yul\":15779:15795   */\n      add\n        /* \"#utility.yul\":15757:15809   */\n      tag_740\n      jump\t// in\n    tag_739:\n        /* \"#utility.yul\":15834:15863   */\n      tag_741\n        /* \"#utility.yul\":15856:15862   */\n      dup2\n        /* \"#utility.yul\":15834:15863   */\n      tag_742\n      jump\t// in\n    tag_741:\n        /* \"#utility.yul\":15829:15832   */\n      dup5\n        /* \"#utility.yul\":15825:15864   */\n      add\n        /* \"#utility.yul\":15818:15864   */\n      swap2\n      pop\n        /* \"#utility.yul\":15608:15870   */\n      pop\n      swap3\n      swap2\n      pop\n      pop\n      jump\t// out\n        /* \"#utility.yul\":15876:16240   */\n    tag_743:\n      0x00\n        /* \"#utility.yul\":15992:16031   */\n      tag_745\n        /* \"#utility.yul\":16025:16030   */\n      dup3\n        /* \"#utility.yul\":15992:16031   */\n      tag_736\n      jump\t// in\n    tag_745:\n        /* \"#utility.yul\":16047:16118   */\n      tag_746\n        /* \"#utility.yul\":16111:16117   */\n      dup2\n        /* \"#utility.yul\":16106:16109   */\n      dup6\n        /* \"#utility.yul\":16047:16118   */\n      tag_747\n      jump\t// in\n    tag_746:\n        /* \"#utility.yul\":16040:16118   */\n      swap4\n      pop\n        /* \"#utility.yul\":16127:16179   */\n      tag_748\n        /* \"#utility.yul\":16172:16178   */\n      dup2\n        /* \"#utility.yul\":16167:16170   */\n      dup6\n        /* \"#utility.yul\":16160:16164   */\n      0x20\n        /* \"#utility.yul\":16153:16158   */\n      dup7\n        /* \"#utility.yul\":16149:16165   */\n      add\n        /* \"#utility.yul\":16127:16179   */\n      tag_740\n      jump\t// in\n    tag_748:\n        /* \"#utility.yul\":16204:16233   */\n      tag_749\n        /* \"#utility.yul\":16226:16232   */\n      dup2\n        /* \"#utility.yul\":16204:16233   */\n      tag_742\n      jump\t// in\n    tag_749:\n        /* \"#utility.yul\":16199:16202   */\n      dup5\n        /* \"#utility.yul\":16195:16234   */\n      add\n        /* \"#utility.yul\":16188:16234   */\n      swap2\n      pop\n        /* \"#utility.yul\":15968:16240   */\n      pop\n      swap3\n      swap2\n      pop\n      pop\n      jump\t// out\n        /* \"#utility.yul\":16270:17207   */\n    tag_750:\n      0x00\n        /* \"#utility.yul\":16392:16397   */\n      dup2\n        /* \"#utility.yul\":16386:16398   */\n      sload\n        /* \"#utility.yul\":16429:16430   */\n      0x01\n        /* \"#utility.yul\":16418:16427   */\n      dup2\n        /* \"#utility.yul\":16414:16431   */\n      and\n        /* \"#utility.yul\":16445:16446   */\n      0x00\n        /* \"#utility.yul\":16440:16721   */\n      dup2\n      eq\n      tag_753\n      jumpi\n        /* \"#utility.yul\":16735:16736   */\n      0x01\n        /* \"#utility.yul\":16730:17201   */\n      dup2\n      eq\n      tag_754\n      jumpi\n        /* \"#utility.yul\":16407:17201   */\n      jump(tag_752)\n        /* \"#utility.yul\":16440:16721   */\n    tag_753:\n        /* \"#utility.yul\":16530:16534   */\n      0x7f\n        /* \"#utility.yul\":16526:16527   */\n      0x02\n        /* \"#utility.yul\":16515:16524   */\n      dup4\n        /* \"#utility.yul\":16511:16528   */\n      div\n        /* \"#utility.yul\":16507:16535   */\n      and\n        /* \"#utility.yul\":16555:16626   */\n      tag_755\n        /* \"#utility.yul\":16619:16625   */\n      dup2\n        /* \"#utility.yul\":16614:16617   */\n      dup8\n        /* \"#utility.yul\":16555:16626   */\n      tag_747\n      jump\t// in\n    tag_755:\n        /* \"#utility.yul\":16548:16626   */\n      swap6\n      pop\n        /* \"#utility.yul\":16670:16674   */\n      0xff\n        /* \"#utility.yul\":16666:16675   */\n      not\n        /* \"#utility.yul\":16655:16664   */\n      dup4\n        /* \"#utility.yul\":16651:16676   */\n      and\n        /* \"#utility.yul\":16646:16649   */\n      dup7\n        /* \"#utility.yul\":16639:16677   */\n      mstore\n        /* \"#utility.yul\":16706:16710   */\n      0x20\n        /* \"#utility.yul\":16701:16704   */\n      dup7\n        /* \"#utility.yul\":16697:16711   */\n      add\n        /* \"#utility.yul\":16690:16711   */\n      swap4\n      pop\n        /* \"#utility.yul\":16447:16721   */\n      pop\n        /* \"#utility.yul\":16440:16721   */\n      jump(tag_752)\n        /* \"#utility.yul\":16730:17201   */\n    tag_754:\n        /* \"#utility.yul\":16811:16812   */\n      0x02\n        /* \"#utility.yul\":16800:16809   */\n      dup3\n        /* \"#utility.yul\":16796:16813   */\n      div\n        /* \"#utility.yul\":16833:16904   */\n      tag_756\n        /* \"#utility.yul\":16897:16903   */\n      dup2\n        /* \"#utility.yul\":16892:16895   */\n      dup8\n        /* \"#utility.yul\":16833:16904   */\n      tag_747\n      jump\t// in\n    tag_756:\n        /* \"#utility.yul\":16826:16904   */\n      swap6\n      pop\n        /* \"#utility.yul\":16932:16970   */\n      tag_757\n        /* \"#utility.yul\":16964:16969   */\n      dup6\n        /* \"#utility.yul\":16932:16970   */\n      tag_758\n      jump\t// in\n    tag_757:\n        /* \"#utility.yul\":16992:16993   */\n      0x00\n        /* \"#utility.yul\":17006:17160   */\n    tag_759:\n        /* \"#utility.yul\":17020:17026   */\n      dup3\n        /* \"#utility.yul\":17017:17018   */\n      dup2\n        /* \"#utility.yul\":17014:17027   */\n      lt\n        /* \"#utility.yul\":17006:17160   */\n      iszero\n      tag_761\n      jumpi\n        /* \"#utility.yul\":17094:17101   */\n      dup2\n        /* \"#utility.yul\":17088:17102   */\n      sload\n        /* \"#utility.yul\":17084:17085   */\n      dup2\n        /* \"#utility.yul\":17079:17082   */\n      dup10\n        /* \"#utility.yul\":17075:17086   */\n      add\n        /* \"#utility.yul\":17068:17103   */\n      mstore\n        /* \"#utility.yul\":17144:17145   */\n      0x01\n        /* \"#utility.yul\":17135:17142   */\n      dup3\n        /* \"#utility.yul\":17131:17146   */\n      add\n        /* \"#utility.yul\":17120:17146   */\n      swap2\n      pop\n        /* \"#utility.yul\":17042:17046   */\n      0x20\n        /* \"#utility.yul\":17039:17040   */\n      dup2\n        /* \"#utility.yul\":17035:17047   */\n      add\n        /* \"#utility.yul\":17030:17047   */\n      swap1\n      pop\n        /* \"#utility.yul\":17006:17160   */\n      jump(tag_759)\n    tag_761:\n        /* \"#utility.yul\":17189:17190   */\n      dup1\n        /* \"#utility.yul\":17184:17187   */\n      dup9\n        /* \"#utility.yul\":17180:17191   */\n      add\n        /* \"#utility.yul\":17173:17191   */\n      swap6\n      pop\n        /* \"#utility.yul\":16737:17201   */\n      pop\n      pop\n      pop\n        /* \"#utility.yul\":16407:17201   */\n    tag_752:\n      pop\n        /* \"#utility.yul\":16359:17207   */\n      pop\n      swap3\n      swap2\n      pop\n      pop\n      jump\t// out\n        /* \"#utility.yul\":17213:17527   */\n    tag_762:\n      0x00\n        /* \"#utility.yul\":17376:17443   */\n      tag_764\n        /* \"#utility.yul\":17440:17442   */\n      0x10\n        /* \"#utility.yul\":17435:17438   */\n      dup4\n        /* \"#utility.yul\":17376:17443   */\n      tag_747\n      jump\t// in\n    tag_764:\n        /* \"#utility.yul\":17369:17443   */\n      swap2\n      pop\n        /* \"#utility.yul\":17473:17491   */\n      0x446f63746f72206e6f7420666f756e6400000000000000000000000000000000\n        /* \"#utility.yul\":17469:17470   */\n      0x00\n        /* \"#utility.yul\":17464:17467   */\n      dup4\n        /* \"#utility.yul\":17460:17471   */\n      add\n        /* \"#utility.yul\":17453:17492   */\n      mstore\n        /* \"#utility.yul\":17518:17520   */\n      0x20\n        /* \"#utility.yul\":17513:17516   */\n      dup3\n        /* \"#utility.yul\":17509:17521   */\n      add\n        /* \"#utility.yul\":17502:17521   */\n      swap1\n      pop\n        /* \"#utility.yul\":17359:17527   */\n      swap2\n      swap1\n      pop\n      jump\t// out\n        /* \"#utility.yul\":17533:17847   */\n    tag_765:\n      0x00\n        /* \"#utility.yul\":17696:17763   */\n      tag_767\n        /* \"#utility.yul\":17760:17762   */\n      0x10\n        /* \"#utility.yul\":17755:17758   */\n      dup4\n        /* \"#utility.yul\":17696:17763   */\n      tag_747\n      jump\t// in\n    tag_767:\n        /* \"#utility.yul\":17689:17763   */\n      swap2\n      pop\n        /* \"#utility.yul\":17793:17811   */\n      0x53656e736f72206e6f7420666f756e6400000000000000000000000000000000\n        /* \"#utility.yul\":17789:17790   */\n      0x00\n        /* \"#utility.yul\":17784:17787   */\n      dup4\n        /* \"#utility.yul\":17780:17791   */\n      add\n        /* \"#utility.yul\":17773:17812   */\n      mstore\n        /* \"#utility.yul\":17838:17840   */\n      0x20\n        /* \"#utility.yul\":17833:17836   */\n      dup3\n        /* \"#utility.yul\":17829:17841   */\n      add\n        /* \"#utility.yul\":17822:17841   */\n      swap1\n      pop\n        /* \"#utility.yul\":17679:17847   */\n      swap2\n      swap1\n      pop\n      jump\t// out\n        /* \"#utility.yul\":17853:18169   */\n    tag_768:\n      0x00\n        /* \"#utility.yul\":18016:18083   */\n      tag_770\n        /* \"#utility.yul\":18080:18082   */\n      0x12\n        /* \"#utility.yul\":18075:18078   */\n      dup4\n        /* \"#utility.yul\":18016:18083   */\n      tag_747\n      jump\t// in\n    tag_770:\n        /* \"#utility.yul\":18009:18083   */\n      swap2\n      pop\n        /* \"#utility.yul\":18113:18133   */\n      0x486f73706974616c206e6f7420666f756e640000000000000000000000000000\n        /* \"#utility.yul\":18109:18110   */\n      0x00\n        /* \"#utility.yul\":18104:18107   */\n      dup4\n        /* \"#utility.yul\":18100:18111   */\n      add\n        /* \"#utility.yul\":18093:18134   */\n      mstore\n        /* \"#utility.yul\":18160:18162   */\n      0x20\n        /* \"#utility.yul\":18155:18158   */\n      dup3\n        /* \"#utility.yul\":18151:18163   */\n      add\n        /* \"#utility.yul\":18144:18163   */\n      swap1\n      pop\n        /* \"#utility.yul\":17999:18169   */\n      swap2\n      swap1\n      pop\n      jump\t// out\n        /* \"#utility.yul\":18229:19181   */\n    tag_639:\n      0x00\n        /* \"#utility.yul\":18368:18372   */\n      0x80\n        /* \"#utility.yul\":18363:18366   */\n      dup4\n        /* \"#utility.yul\":18359:18373   */\n      add\n        /* \"#utility.yul\":18459:18463   */\n      0x00\n        /* \"#utility.yul\":18452:18457   */\n      dup4\n        /* \"#utility.yul\":18448:18464   */\n      add\n        /* \"#utility.yul\":18442:18465   */\n      mload\n        /* \"#utility.yul\":18478:18541   */\n      tag_772\n        /* \"#utility.yul\":18535:18539   */\n      0x00\n        /* \"#utility.yul\":18530:18533   */\n      dup7\n        /* \"#utility.yul\":18526:18540   */\n      add\n        /* \"#utility.yul\":18512:18524   */\n      dup3\n        /* \"#utility.yul\":18478:18541   */\n      tag_652\n      jump\t// in\n    tag_772:\n        /* \"#utility.yul\":18383:18551   */\n      pop\n        /* \"#utility.yul\":18639:18643   */\n      0x20\n        /* \"#utility.yul\":18632:18637   */\n      dup4\n        /* \"#utility.yul\":18628:18644   */\n      add\n        /* \"#utility.yul\":18622:18645   */\n      mload\n        /* \"#utility.yul\":18692:18695   */\n      dup5\n        /* \"#utility.yul\":18686:18690   */\n      dup3\n        /* \"#utility.yul\":18682:18696   */\n      sub\n        /* \"#utility.yul\":18675:18679   */\n      0x20\n        /* \"#utility.yul\":18670:18673   */\n      dup7\n        /* \"#utility.yul\":18666:18680   */\n      add\n        /* \"#utility.yul\":18659:18697   */\n      mstore\n        /* \"#utility.yul\":18718:18791   */\n      tag_773\n        /* \"#utility.yul\":18786:18790   */\n      dup3\n        /* \"#utility.yul\":18772:18784   */\n      dup3\n        /* \"#utility.yul\":18718:18791   */\n      tag_733\n      jump\t// in\n    tag_773:\n        /* \"#utility.yul\":18710:18791   */\n      swap2\n      pop\n        /* \"#utility.yul\":18561:18802   */\n      pop\n        /* \"#utility.yul\":18888:18892   */\n      0x40\n        /* \"#utility.yul\":18881:18886   */\n      dup4\n        /* \"#utility.yul\":18877:18893   */\n      add\n        /* \"#utility.yul\":18871:18894   */\n      mload\n        /* \"#utility.yul\":18907:18970   */\n      tag_774\n        /* \"#utility.yul\":18964:18968   */\n      0x40\n        /* \"#utility.yul\":18959:18962   */\n      dup7\n        /* \"#utility.yul\":18955:18969   */\n      add\n        /* \"#utility.yul\":18941:18953   */\n      dup3\n        /* \"#utility.yul\":18907:18970   */\n      tag_652\n      jump\t// in\n    tag_774:\n        /* \"#utility.yul\":18812:18980   */\n      pop\n        /* \"#utility.yul\":19068:19072   */\n      0x60\n        /* \"#utility.yul\":19061:19066   */\n      dup4\n        /* \"#utility.yul\":19057:19073   */\n      add\n        /* \"#utility.yul\":19051:19074   */\n      mload\n        /* \"#utility.yul\":19087:19144   */\n      tag_775\n        /* \"#utility.yul\":19138:19142   */\n      0x60\n        /* \"#utility.yul\":19133:19136   */\n      dup7\n        /* \"#utility.yul\":19129:19143   */\n      add\n        /* \"#utility.yul\":19115:19127   */\n      dup3\n        /* \"#utility.yul\":19087:19144   */\n      tag_726\n      jump\t// in\n    tag_775:\n        /* \"#utility.yul\":18990:19154   */\n      pop\n        /* \"#utility.yul\":19171:19175   */\n      dup1\n        /* \"#utility.yul\":19164:19175   */\n      swap2\n      pop\n        /* \"#utility.yul\":18337:19181   */\n      pop\n      swap3\n      swap2\n      pop\n      pop\n      jump\t// out\n        /* \"#utility.yul\":19245:20690   */\n    tag_643:\n      0x00\n        /* \"#utility.yul\":19388:19392   */\n      0xc0\n        /* \"#utility.yul\":19383:19386   */\n      dup4\n        /* \"#utility.yul\":19379:19393   */\n      add\n        /* \"#utility.yul\":19481:19485   */\n      0x00\n        /* \"#utility.yul\":19474:19479   */\n      dup4\n        /* \"#utility.yul\":19470:19486   */\n      add\n        /* \"#utility.yul\":19464:19487   */\n      mload\n        /* \"#utility.yul\":19500:19563   */\n      tag_777\n        /* \"#utility.yul\":19557:19561   */\n      0x00\n        /* \"#utility.yul\":19552:19555   */\n      dup7\n        /* \"#utility.yul\":19548:19562   */\n      add\n        /* \"#utility.yul\":19534:19546   */\n      dup3\n        /* \"#utility.yul\":19500:19563   */\n      tag_652\n      jump\t// in\n    tag_777:\n        /* \"#utility.yul\":19403:19573   */\n      pop\n        /* \"#utility.yul\":19655:19659   */\n      0x20\n        /* \"#utility.yul\":19648:19653   */\n      dup4\n        /* \"#utility.yul\":19644:19660   */\n      add\n        /* \"#utility.yul\":19638:19661   */\n      mload\n        /* \"#utility.yul\":19708:19711   */\n      dup5\n        /* \"#utility.yul\":19702:19706   */\n      dup3\n        /* \"#utility.yul\":19698:19712   */\n      sub\n        /* \"#utility.yul\":19691:19695   */\n      0x20\n        /* \"#utility.yul\":19686:19689   */\n      dup7\n        /* \"#utility.yul\":19682:19696   */\n      add\n        /* \"#utility.yul\":19675:19713   */\n      mstore\n        /* \"#utility.yul\":19734:19807   */\n      tag_778\n        /* \"#utility.yul\":19802:19806   */\n      dup3\n        /* \"#utility.yul\":19788:19800   */\n      dup3\n        /* \"#utility.yul\":19734:19807   */\n      tag_733\n      jump\t// in\n    tag_778:\n        /* \"#utility.yul\":19726:19807   */\n      swap2\n      pop\n        /* \"#utility.yul\":19583:19818   */\n      pop\n        /* \"#utility.yul\":19900:19904   */\n      0x40\n        /* \"#utility.yul\":19893:19898   */\n      dup4\n        /* \"#utility.yul\":19889:19905   */\n      add\n        /* \"#utility.yul\":19883:19906   */\n      mload\n        /* \"#utility.yul\":19953:19956   */\n      dup5\n        /* \"#utility.yul\":19947:19951   */\n      dup3\n        /* \"#utility.yul\":19943:19957   */\n      sub\n        /* \"#utility.yul\":19936:19940   */\n      0x40\n        /* \"#utility.yul\":19931:19934   */\n      dup7\n        /* \"#utility.yul\":19927:19941   */\n      add\n        /* \"#utility.yul\":19920:19958   */\n      mstore\n        /* \"#utility.yul\":19979:20052   */\n      tag_779\n        /* \"#utility.yul\":20047:20051   */\n      dup3\n        /* \"#utility.yul\":20033:20045   */\n      dup3\n        /* \"#utility.yul\":19979:20052   */\n      tag_733\n      jump\t// in\n    tag_779:\n        /* \"#utility.yul\":19971:20052   */\n      swap2\n      pop\n        /* \"#utility.yul\":19828:20063   */\n      pop\n        /* \"#utility.yul\":20146:20150   */\n      0x60\n        /* \"#utility.yul\":20139:20144   */\n      dup4\n        /* \"#utility.yul\":20135:20151   */\n      add\n        /* \"#utility.yul\":20129:20152   */\n      mload\n        /* \"#utility.yul\":20199:20202   */\n      dup5\n        /* \"#utility.yul\":20193:20197   */\n      dup3\n        /* \"#utility.yul\":20189:20203   */\n      sub\n        /* \"#utility.yul\":20182:20186   */\n      0x60\n        /* \"#utility.yul\":20177:20180   */\n      dup7\n        /* \"#utility.yul\":20173:20187   */\n      add\n        /* \"#utility.yul\":20166:20204   */\n      mstore\n        /* \"#utility.yul\":20225:20298   */\n      tag_780\n        /* \"#utility.yul\":20293:20297   */\n      dup3\n        /* \"#utility.yul\":20279:20291   */\n      dup3\n        /* \"#utility.yul\":20225:20298   */\n      tag_733\n      jump\t// in\n    tag_780:\n        /* \"#utility.yul\":20217:20298   */\n      swap2\n      pop\n        /* \"#utility.yul\":20073:20309   */\n      pop\n        /* \"#utility.yul\":20397:20401   */\n      0x80\n        /* \"#utility.yul\":20390:20395   */\n      dup4\n        /* \"#utility.yul\":20386:20402   */\n      add\n        /* \"#utility.yul\":20380:20403   */\n      mload\n        /* \"#utility.yul\":20416:20479   */\n      tag_781\n        /* \"#utility.yul\":20473:20477   */\n      0x80\n        /* \"#utility.yul\":20468:20471   */\n      dup7\n        /* \"#utility.yul\":20464:20478   */\n      add\n        /* \"#utility.yul\":20450:20462   */\n      dup3\n        /* \"#utility.yul\":20416:20479   */\n      tag_651\n      jump\t// in\n    tag_781:\n        /* \"#utility.yul\":20319:20489   */\n      pop\n        /* \"#utility.yul\":20577:20581   */\n      0xa0\n        /* \"#utility.yul\":20570:20575   */\n      dup4\n        /* \"#utility.yul\":20566:20582   */\n      add\n        /* \"#utility.yul\":20560:20583   */\n      mload\n        /* \"#utility.yul\":20596:20653   */\n      tag_782\n        /* \"#utility.yul\":20647:20651   */\n      0xa0\n        /* \"#utility.yul\":20642:20645   */\n      dup7\n        /* \"#utility.yul\":20638:20652   */\n      add\n        /* \"#utility.yul\":20624:20636   */\n      dup3\n        /* \"#utility.yul\":20596:20653   */\n      tag_726\n      jump\t// in\n    tag_782:\n        /* \"#utility.yul\":20499:20663   */\n      pop\n        /* \"#utility.yul\":20680:20684   */\n      dup1\n        /* \"#utility.yul\":20673:20684   */\n      swap2\n      pop\n        /* \"#utility.yul\":19357:20690   */\n      pop\n      swap3\n      swap2\n      pop\n      pop\n      jump\t// out\n        /* \"#utility.yul\":20750:22218   */\n    tag_647:\n      0x00\n        /* \"#utility.yul\":20889:20893   */\n      0xc0\n        /* \"#utility.yul\":20884:20887   */\n      dup4\n        /* \"#utility.yul\":20880:20894   */\n      add\n        /* \"#utility.yul\":20980:20984   */\n      0x00\n        /* \"#utility.yul\":20973:20978   */\n      dup4\n        /* \"#utility.yul\":20969:20985   */\n      add\n        /* \"#utility.yul\":20963:20986   */\n      mload\n        /* \"#utility.yul\":20999:21062   */\n      tag_784\n        /* \"#utility.yul\":21056:21060   */\n      0x00\n        /* \"#utility.yul\":21051:21054   */\n      dup7\n        /* \"#utility.yul\":21047:21061   */\n      add\n        /* \"#utility.yul\":21033:21045   */\n      dup3\n        /* \"#utility.yul\":20999:21062   */\n      tag_651\n      jump\t// in\n    tag_784:\n        /* \"#utility.yul\":20904:21072   */\n      pop\n        /* \"#utility.yul\":21153:21157   */\n      0x20\n        /* \"#utility.yul\":21146:21151   */\n      dup4\n        /* \"#utility.yul\":21142:21158   */\n      add\n        /* \"#utility.yul\":21136:21159   */\n      mload\n        /* \"#utility.yul\":21206:21209   */\n      dup5\n        /* \"#utility.yul\":21200:21204   */\n      dup3\n        /* \"#utility.yul\":21196:21210   */\n      sub\n        /* \"#utility.yul\":21189:21193   */\n      0x20\n        /* \"#utility.yul\":21184:21187   */\n      dup7\n        /* \"#utility.yul\":21180:21194   */\n      add\n        /* \"#utility.yul\":21173:21211   */\n      mstore\n        /* \"#utility.yul\":21232:21305   */\n      tag_785\n        /* \"#utility.yul\":21300:21304   */\n      dup3\n        /* \"#utility.yul\":21286:21298   */\n      dup3\n        /* \"#utility.yul\":21232:21305   */\n      tag_733\n      jump\t// in\n    tag_785:\n        /* \"#utility.yul\":21224:21305   */\n      swap2\n      pop\n        /* \"#utility.yul\":21082:21316   */\n      pop\n        /* \"#utility.yul\":21405:21409   */\n      0x40\n        /* \"#utility.yul\":21398:21403   */\n      dup4\n        /* \"#utility.yul\":21394:21410   */\n      add\n        /* \"#utility.yul\":21388:21411   */\n      mload\n        /* \"#utility.yul\":21458:21461   */\n      dup5\n        /* \"#utility.yul\":21452:21456   */\n      dup3\n        /* \"#utility.yul\":21448:21462   */\n      sub\n        /* \"#utility.yul\":21441:21445   */\n      0x40\n        /* \"#utility.yul\":21436:21439   */\n      dup7\n        /* \"#utility.yul\":21432:21446   */\n      add\n        /* \"#utility.yul\":21425:21463   */\n      mstore\n        /* \"#utility.yul\":21484:21557   */\n      tag_786\n        /* \"#utility.yul\":21552:21556   */\n      dup3\n        /* \"#utility.yul\":21538:21550   */\n      dup3\n        /* \"#utility.yul\":21484:21557   */\n      tag_733\n      jump\t// in\n    tag_786:\n        /* \"#utility.yul\":21476:21557   */\n      swap2\n      pop\n        /* \"#utility.yul\":21326:21568   */\n      pop\n        /* \"#utility.yul\":21654:21658   */\n      0x60\n        /* \"#utility.yul\":21647:21652   */\n      dup4\n        /* \"#utility.yul\":21643:21659   */\n      add\n        /* \"#utility.yul\":21637:21660   */\n      mload\n        /* \"#utility.yul\":21673:21736   */\n      tag_787\n        /* \"#utility.yul\":21730:21734   */\n      0x60\n        /* \"#utility.yul\":21725:21728   */\n      dup7\n        /* \"#utility.yul\":21721:21735   */\n      add\n        /* \"#utility.yul\":21707:21719   */\n      dup3\n        /* \"#utility.yul\":21673:21736   */\n      tag_652\n      jump\t// in\n    tag_787:\n        /* \"#utility.yul\":21578:21746   */\n      pop\n        /* \"#utility.yul\":21830:21834   */\n      0x80\n        /* \"#utility.yul\":21823:21828   */\n      dup4\n        /* \"#utility.yul\":21819:21835   */\n      add\n        /* \"#utility.yul\":21813:21836   */\n      mload\n        /* \"#utility.yul\":21849:21906   */\n      tag_788\n        /* \"#utility.yul\":21900:21904   */\n      0x80\n        /* \"#utility.yul\":21895:21898   */\n      dup7\n        /* \"#utility.yul\":21891:21905   */\n      add\n        /* \"#utility.yul\":21877:21889   */\n      dup3\n        /* \"#utility.yul\":21849:21906   */\n      tag_726\n      jump\t// in\n    tag_788:\n        /* \"#utility.yul\":21756:21916   */\n      pop\n        /* \"#utility.yul\":21998:22002   */\n      0xa0\n        /* \"#utility.yul\":21991:21996   */\n      dup4\n        /* \"#utility.yul\":21987:22003   */\n      add\n        /* \"#utility.yul\":21981:22004   */\n      mload\n        /* \"#utility.yul\":22051:22054   */\n      dup5\n        /* \"#utility.yul\":22045:22049   */\n      dup3\n        /* \"#utility.yul\":22041:22055   */\n      sub\n        /* \"#utility.yul\":22034:22038   */\n      0xa0\n        /* \"#utility.yul\":22029:22032   */\n      dup7\n        /* \"#utility.yul\":22025:22039   */\n      add\n        /* \"#utility.yul\":22018:22056   */\n      mstore\n        /* \"#utility.yul\":22077:22180   */\n      tag_789\n        /* \"#utility.yul\":22175:22179   */\n      dup3\n        /* \"#utility.yul\":22161:22173   */\n      dup3\n        /* \"#utility.yul\":22077:22180   */\n      tag_701\n      jump\t// in\n    tag_789:\n        /* \"#utility.yul\":22069:22180   */\n      swap2\n      pop\n        /* \"#utility.yul\":21926:22191   */\n      pop\n        /* \"#utility.yul\":22208:22212   */\n      dup1\n        /* \"#utility.yul\":22201:22212   */\n      swap2\n      pop\n        /* \"#utility.yul\":20858:22218   */\n      pop\n      swap3\n      swap2\n      pop\n      pop\n      jump\t// out\n        /* \"#utility.yul\":22224:22332   */\n    tag_651:\n        /* \"#utility.yul\":22301:22325   */\n      tag_791\n        /* \"#utility.yul\":22319:22324   */\n      dup2\n        /* \"#utility.yul\":22301:22325   */\n      tag_792\n      jump\t// in\n    tag_791:\n        /* \"#utility.yul\":22296:22299   */\n      dup3\n        /* \"#utility.yul\":22289:22326   */\n      mstore\n        /* \"#utility.yul\":22279:22332   */\n      pop\n      pop\n      jump\t// out\n        /* \"#utility.yul\":22338:22456   */\n    tag_793:\n        /* \"#utility.yul\":22425:22449   */\n      tag_795\n        /* \"#utility.yul\":22443:22448   */\n      dup2\n        /* \"#utility.yul\":22425:22449   */\n      tag_792\n      jump\t// in\n    tag_795:\n        /* \"#utility.yul\":22420:22423   */\n      dup3\n        /* \"#utility.yul\":22413:22450   */\n      mstore\n        /* \"#utility.yul\":22403:22456   */\n      pop\n      pop\n      jump\t// out\n        /* \"#utility.yul\":22462:23094   */\n    tag_97:\n      0x00\n        /* \"#utility.yul\":22691:22694   */\n      0x80\n        /* \"#utility.yul\":22680:22689   */\n      dup3\n        /* \"#utility.yul\":22676:22695   */\n      add\n        /* \"#utility.yul\":22668:22695   */\n      swap1\n      pop\n        /* \"#utility.yul\":22705:22776   */\n      tag_797\n        /* \"#utility.yul\":22773:22774   */\n      0x00\n        /* \"#utility.yul\":22762:22771   */\n      dup4\n        /* \"#utility.yul\":22758:22775   */\n      add\n        /* \"#utility.yul\":22749:22755   */\n      dup8\n        /* \"#utility.yul\":22705:22776   */\n      tag_656\n      jump\t// in\n    tag_797:\n        /* \"#utility.yul\":22823:22832   */\n      dup2\n        /* \"#utility.yul\":22817:22821   */\n      dup2\n        /* \"#utility.yul\":22813:22833   */\n      sub\n        /* \"#utility.yul\":22808:22810   */\n      0x20\n        /* \"#utility.yul\":22797:22806   */\n      dup4\n        /* \"#utility.yul\":22793:22811   */\n      add\n        /* \"#utility.yul\":22786:22834   */\n      mstore\n        /* \"#utility.yul\":22851:22929   */\n      tag_798\n        /* \"#utility.yul\":22924:22928   */\n      dup2\n        /* \"#utility.yul\":22915:22921   */\n      dup7\n        /* \"#utility.yul\":22851:22929   */\n      tag_743\n      jump\t// in\n    tag_798:\n        /* \"#utility.yul\":22843:22929   */\n      swap1\n      pop\n        /* \"#utility.yul\":22939:23011   */\n      tag_799\n        /* \"#utility.yul\":23007:23009   */\n      0x40\n        /* \"#utility.yul\":22996:23005   */\n      dup4\n        /* \"#utility.yul\":22992:23010   */\n      add\n        /* \"#utility.yul\":22983:22989   */\n      dup6\n        /* \"#utility.yul\":22939:23011   */\n      tag_656\n      jump\t// in\n    tag_799:\n        /* \"#utility.yul\":23021:23087   */\n      tag_800\n        /* \"#utility.yul\":23083:23085   */\n      0x60\n        /* \"#utility.yul\":23072:23081   */\n      dup4\n        /* \"#utility.yul\":23068:23086   */\n      add\n        /* \"#utility.yul\":23059:23065   */\n      dup5\n        /* \"#utility.yul\":23021:23087   */\n      tag_730\n      jump\t// in\n    tag_800:\n        /* \"#utility.yul\":22658:23094   */\n      swap6\n      swap5\n      pop\n      pop\n      pop\n      pop\n      pop\n      jump\t// out\n        /* \"#utility.yul\":23100:24136   */\n    tag_121:\n      0x00\n        /* \"#utility.yul\":23425:23428   */\n      0xc0\n        /* \"#utility.yul\":23414:23423   */\n      dup3\n        /* \"#utility.yul\":23410:23429   */\n      add\n        /* \"#utility.yul\":23402:23429   */\n      swap1\n      pop\n        /* \"#utility.yul\":23439:23510   */\n      tag_802\n        /* \"#utility.yul\":23507:23508   */\n      0x00\n        /* \"#utility.yul\":23496:23505   */\n      dup4\n        /* \"#utility.yul\":23492:23509   */\n      add\n        /* \"#utility.yul\":23483:23489   */\n      dup10\n        /* \"#utility.yul\":23439:23510   */\n      tag_656\n      jump\t// in\n    tag_802:\n        /* \"#utility.yul\":23557:23566   */\n      dup2\n        /* \"#utility.yul\":23551:23555   */\n      dup2\n        /* \"#utility.yul\":23547:23567   */\n      sub\n        /* \"#utility.yul\":23542:23544   */\n      0x20\n        /* \"#utility.yul\":23531:23540   */\n      dup4\n        /* \"#utility.yul\":23527:23545   */\n      add\n        /* \"#utility.yul\":23520:23568   */\n      mstore\n        /* \"#utility.yul\":23585:23663   */\n      tag_803\n        /* \"#utility.yul\":23658:23662   */\n      dup2\n        /* \"#utility.yul\":23649:23655   */\n      dup9\n        /* \"#utility.yul\":23585:23663   */\n      tag_743\n      jump\t// in\n    tag_803:\n        /* \"#utility.yul\":23577:23663   */\n      swap1\n      pop\n        /* \"#utility.yul\":23710:23719   */\n      dup2\n        /* \"#utility.yul\":23704:23708   */\n      dup2\n        /* \"#utility.yul\":23700:23720   */\n      sub\n        /* \"#utility.yul\":23695:23697   */\n      0x40\n        /* \"#utility.yul\":23684:23693   */\n      dup4\n        /* \"#utility.yul\":23680:23698   */\n      add\n        /* \"#utility.yul\":23673:23721   */\n      mstore\n        /* \"#utility.yul\":23738:23816   */\n      tag_804\n        /* \"#utility.yul\":23811:23815   */\n      dup2\n        /* \"#utility.yul\":23802:23808   */\n      dup8\n        /* \"#utility.yul\":23738:23816   */\n      tag_743\n      jump\t// in\n    tag_804:\n        /* \"#utility.yul\":23730:23816   */\n      swap1\n      pop\n        /* \"#utility.yul\":23863:23872   */\n      dup2\n        /* \"#utility.yul\":23857:23861   */\n      dup2\n        /* \"#utility.yul\":23853:23873   */\n      sub\n        /* \"#utility.yul\":23848:23850   */\n      0x60\n        /* \"#utility.yul\":23837:23846   */\n      dup4\n        /* \"#utility.yul\":23833:23851   */\n      add\n        /* \"#utility.yul\":23826:23874   */\n      mstore\n        /* \"#utility.yul\":23891:23969   */\n      tag_805\n        /* \"#utility.yul\":23964:23968   */\n      dup2\n        /* \"#utility.yul\":23955:23961   */\n      dup7\n        /* \"#utility.yul\":23891:23969   */\n      tag_743\n      jump\t// in\n    tag_805:\n        /* \"#utility.yul\":23883:23969   */\n      swap1\n      pop\n        /* \"#utility.yul\":23979:24052   */\n      tag_806\n        /* \"#utility.yul\":24047:24050   */\n      0x80\n        /* \"#utility.yul\":24036:24045   */\n      dup4\n        /* \"#utility.yul\":24032:24051   */\n      add\n        /* \"#utility.yul\":24023:24029   */\n      dup6\n        /* \"#utility.yul\":23979:24052   */\n      tag_793\n      jump\t// in\n    tag_806:\n        /* \"#utility.yul\":24062:24129   */\n      tag_807\n        /* \"#utility.yul\":24124:24127   */\n      0xa0\n        /* \"#utility.yul\":24113:24122   */\n      dup4\n        /* \"#utility.yul\":24109:24128   */\n      add\n        /* \"#utility.yul\":24100:24106   */\n      dup5\n        /* \"#utility.yul\":24062:24129   */\n      tag_730\n      jump\t// in\n    tag_807:\n        /* \"#utility.yul\":23392:24136   */\n      swap8\n      swap7\n      pop\n      pop\n      pop\n      pop\n      pop\n      pop\n      pop\n      jump\t// out\n        /* \"#utility.yul\":24142:24768   */\n    tag_266:\n      0x00\n        /* \"#utility.yul\":24368:24371   */\n      0x80\n        /* \"#utility.yul\":24357:24366   */\n      dup3\n        /* \"#utility.yul\":24353:24372   */\n      add\n        /* \"#utility.yul\":24345:24372   */\n      swap1\n      pop\n        /* \"#utility.yul\":24382:24453   */\n      tag_809\n        /* \"#utility.yul\":24450:24451   */\n      0x00\n        /* \"#utility.yul\":24439:24448   */\n      dup4\n        /* \"#utility.yul\":24435:24452   */\n      add\n        /* \"#utility.yul\":24426:24432   */\n      dup8\n        /* \"#utility.yul\":24382:24453   */\n      tag_656\n      jump\t// in\n    tag_809:\n        /* \"#utility.yul\":24500:24509   */\n      dup2\n        /* \"#utility.yul\":24494:24498   */\n      dup2\n        /* \"#utility.yul\":24490:24510   */\n      sub\n        /* \"#utility.yul\":24485:24487   */\n      0x20\n        /* \"#utility.yul\":24474:24483   */\n      dup4\n        /* \"#utility.yul\":24470:24488   */\n      add\n        /* \"#utility.yul\":24463:24511   */\n      mstore\n        /* \"#utility.yul\":24528:24603   */\n      tag_810\n        /* \"#utility.yul\":24598:24602   */\n      dup2\n        /* \"#utility.yul\":24589:24595   */\n      dup7\n        /* \"#utility.yul\":24528:24603   */\n      tag_750\n      jump\t// in\n    tag_810:\n        /* \"#utility.yul\":24520:24603   */\n      swap1\n      pop\n        /* \"#utility.yul\":24613:24685   */\n      tag_811\n        /* \"#utility.yul\":24681:24683   */\n      0x40\n        /* \"#utility.yul\":24670:24679   */\n      dup4\n        /* \"#utility.yul\":24666:24684   */\n      add\n        /* \"#utility.yul\":24657:24663   */\n      dup6\n        /* \"#utility.yul\":24613:24685   */\n      tag_656\n      jump\t// in\n    tag_811:\n        /* \"#utility.yul\":24695:24761   */\n      tag_812\n        /* \"#utility.yul\":24757:24759   */\n      0x60\n        /* \"#utility.yul\":24746:24755   */\n      dup4\n        /* \"#utility.yul\":24742:24760   */\n      add\n        /* \"#utility.yul\":24733:24739   */\n      dup5\n        /* \"#utility.yul\":24695:24761   */\n      tag_730\n      jump\t// in\n    tag_812:\n        /* \"#utility.yul\":24335:24768   */\n      swap6\n      swap5\n      pop\n      pop\n      pop\n      pop\n      pop\n      jump\t// out\n        /* \"#utility.yul\":24774:25792   */\n    tag_206:\n      0x00\n        /* \"#utility.yul\":25090:25093   */\n      0xc0\n        /* \"#utility.yul\":25079:25088   */\n      dup3\n        /* \"#utility.yul\":25075:25094   */\n      add\n        /* \"#utility.yul\":25067:25094   */\n      swap1\n      pop\n        /* \"#utility.yul\":25104:25175   */\n      tag_814\n        /* \"#utility.yul\":25172:25173   */\n      0x00\n        /* \"#utility.yul\":25161:25170   */\n      dup4\n        /* \"#utility.yul\":25157:25174   */\n      add\n        /* \"#utility.yul\":25148:25154   */\n      dup10\n        /* \"#utility.yul\":25104:25175   */\n      tag_656\n      jump\t// in\n    tag_814:\n        /* \"#utility.yul\":25222:25231   */\n      dup2\n        /* \"#utility.yul\":25216:25220   */\n      dup2\n        /* \"#utility.yul\":25212:25232   */\n      sub\n        /* \"#utility.yul\":25207:25209   */\n      0x20\n        /* \"#utility.yul\":25196:25205   */\n      dup4\n        /* \"#utility.yul\":25192:25210   */\n      add\n        /* \"#utility.yul\":25185:25233   */\n      mstore\n        /* \"#utility.yul\":25250:25325   */\n      tag_815\n        /* \"#utility.yul\":25320:25324   */\n      dup2\n        /* \"#utility.yul\":25311:25317   */\n      dup9\n        /* \"#utility.yul\":25250:25325   */\n      tag_750\n      jump\t// in\n    tag_815:\n        /* \"#utility.yul\":25242:25325   */\n      swap1\n      pop\n        /* \"#utility.yul\":25372:25381   */\n      dup2\n        /* \"#utility.yul\":25366:25370   */\n      dup2\n        /* \"#utility.yul\":25362:25382   */\n      sub\n        /* \"#utility.yul\":25357:25359   */\n      0x40\n        /* \"#utility.yul\":25346:25355   */\n      dup4\n        /* \"#utility.yul\":25342:25360   */\n      add\n        /* \"#utility.yul\":25335:25383   */\n      mstore\n        /* \"#utility.yul\":25400:25475   */\n      tag_816\n        /* \"#utility.yul\":25470:25474   */\n      dup2\n        /* \"#utility.yul\":25461:25467   */\n      dup8\n        /* \"#utility.yul\":25400:25475   */\n      tag_750\n      jump\t// in\n    tag_816:\n        /* \"#utility.yul\":25392:25475   */\n      swap1\n      pop\n        /* \"#utility.yul\":25522:25531   */\n      dup2\n        /* \"#utility.yul\":25516:25520   */\n      dup2\n        /* \"#utility.yul\":25512:25532   */\n      sub\n        /* \"#utility.yul\":25507:25509   */\n      0x60\n        /* \"#utility.yul\":25496:25505   */\n      dup4\n        /* \"#utility.yul\":25492:25510   */\n      add\n        /* \"#utility.yul\":25485:25533   */\n      mstore\n        /* \"#utility.yul\":25550:25625   */\n      tag_817\n        /* \"#utility.yul\":25620:25624   */\n      dup2\n        /* \"#utility.yul\":25611:25617   */\n      dup7\n        /* \"#utility.yul\":25550:25625   */\n      tag_750\n      jump\t// in\n    tag_817:\n        /* \"#utility.yul\":25542:25625   */\n      swap1\n      pop\n        /* \"#utility.yul\":25635:25708   */\n      tag_818\n        /* \"#utility.yul\":25703:25706   */\n      0x80\n        /* \"#utility.yul\":25692:25701   */\n      dup4\n        /* \"#utility.yul\":25688:25707   */\n      add\n        /* \"#utility.yul\":25679:25685   */\n      dup6\n        /* \"#utility.yul\":25635:25708   */\n      tag_793\n      jump\t// in\n    tag_818:\n        /* \"#utility.yul\":25718:25785   */\n      tag_819\n        /* \"#utility.yul\":25780:25783   */\n      0xa0\n        /* \"#utility.yul\":25769:25778   */\n      dup4\n        /* \"#utility.yul\":25765:25784   */\n      add\n        /* \"#utility.yul\":25756:25762   */\n      dup5\n        /* \"#utility.yul\":25718:25785   */\n      tag_730\n      jump\t// in\n    tag_819:\n        /* \"#utility.yul\":25057:25792   */\n      swap8\n      swap7\n      pop\n      pop\n      pop\n      pop\n      pop\n      pop\n      pop\n      jump\t// out\n        /* \"#utility.yul\":25798:26259   */\n    tag_129:\n      0x00\n        /* \"#utility.yul\":26023:26025   */\n      0x20\n        /* \"#utility.yul\":26012:26021   */\n      dup3\n        /* \"#utility.yul\":26008:26026   */\n      add\n        /* \"#utility.yul\":26000:26026   */\n      swap1\n      pop\n        /* \"#utility.yul\":26072:26081   */\n      dup2\n        /* \"#utility.yul\":26066:26070   */\n      dup2\n        /* \"#utility.yul\":26062:26082   */\n      sub\n        /* \"#utility.yul\":26058:26059   */\n      0x00\n        /* \"#utility.yul\":26047:26056   */\n      dup4\n        /* \"#utility.yul\":26043:26060   */\n      add\n        /* \"#utility.yul\":26036:26083   */\n      mstore\n        /* \"#utility.yul\":26100:26252   */\n      tag_821\n        /* \"#utility.yul\":26247:26251   */\n      dup2\n        /* \"#utility.yul\":26238:26244   */\n      dup5\n        /* \"#utility.yul\":26100:26252   */\n      tag_659\n      jump\t// in\n    tag_821:\n        /* \"#utility.yul\":26092:26252   */\n      swap1\n      pop\n        /* \"#utility.yul\":25990:26259   */\n      swap3\n      swap2\n      pop\n      pop\n      jump\t// out\n        /* \"#utility.yul\":26265:26734   */\n    tag_63:\n      0x00\n        /* \"#utility.yul\":26494:26496   */\n      0x20\n        /* \"#utility.yul\":26483:26492   */\n      dup3\n        /* \"#utility.yul\":26479:26497   */\n      add\n        /* \"#utility.yul\":26471:26497   */\n      swap1\n      pop\n        /* \"#utility.yul\":26543:26552   */\n      dup2\n        /* \"#utility.yul\":26537:26541   */\n      dup2\n        /* \"#utility.yul\":26533:26553   */\n      sub\n        /* \"#utility.yul\":26529:26530   */\n      0x00\n        /* \"#utility.yul\":26518:26527   */\n      dup4\n        /* \"#utility.yul\":26514:26531   */\n      add\n        /* \"#utility.yul\":26507:26554   */\n      mstore\n        /* \"#utility.yul\":26571:26727   */\n      tag_823\n        /* \"#utility.yul\":26722:26726   */\n      dup2\n        /* \"#utility.yul\":26713:26719   */\n      dup5\n        /* \"#utility.yul\":26571:26727   */\n      tag_673\n      jump\t// in\n    tag_823:\n        /* \"#utility.yul\":26563:26727   */\n      swap1\n      pop\n        /* \"#utility.yul\":26461:26734   */\n      swap3\n      swap2\n      pop\n      pop\n      jump\t// out\n        /* \"#utility.yul\":26740:27201   */\n    tag_67:\n      0x00\n        /* \"#utility.yul\":26965:26967   */\n      0x20\n        /* \"#utility.yul\":26954:26963   */\n      dup3\n        /* \"#utility.yul\":26950:26968   */\n      add\n        /* \"#utility.yul\":26942:26968   */\n      swap1\n      pop\n        /* \"#utility.yul\":27014:27023   */\n      dup2\n        /* \"#utility.yul\":27008:27012   */\n      dup2\n        /* \"#utility.yul\":27004:27024   */\n      sub\n        /* \"#utility.yul\":27000:27001   */\n      0x00\n        /* \"#utility.yul\":26989:26998   */\n      dup4\n        /* \"#utility.yul\":26985:27002   */\n      add\n        /* \"#utility.yul\":26978:27025   */\n      mstore\n        /* \"#utility.yul\":27042:27194   */\n      tag_825\n        /* \"#utility.yul\":27189:27193   */\n      dup2\n        /* \"#utility.yul\":27180:27186   */\n      dup5\n        /* \"#utility.yul\":27042:27194   */\n      tag_687\n      jump\t// in\n    tag_825:\n        /* \"#utility.yul\":27034:27194   */\n      swap1\n      pop\n        /* \"#utility.yul\":26932:27201   */\n      swap3\n      swap2\n      pop\n      pop\n      jump\t// out\n        /* \"#utility.yul\":27207:27580   */\n    tag_134:\n      0x00\n        /* \"#utility.yul\":27388:27390   */\n      0x20\n        /* \"#utility.yul\":27377:27386   */\n      dup3\n        /* \"#utility.yul\":27373:27391   */\n      add\n        /* \"#utility.yul\":27365:27391   */\n      swap1\n      pop\n        /* \"#utility.yul\":27437:27446   */\n      dup2\n        /* \"#utility.yul\":27431:27435   */\n      dup2\n        /* \"#utility.yul\":27427:27447   */\n      sub\n        /* \"#utility.yul\":27423:27424   */\n      0x00\n        /* \"#utility.yul\":27412:27421   */\n      dup4\n        /* \"#utility.yul\":27408:27425   */\n      add\n        /* \"#utility.yul\":27401:27448   */\n      mstore\n        /* \"#utility.yul\":27465:27573   */\n      tag_827\n        /* \"#utility.yul\":27568:27572   */\n      dup2\n        /* \"#utility.yul\":27559:27565   */\n      dup5\n        /* \"#utility.yul\":27465:27573   */\n      tag_715\n      jump\t// in\n    tag_827:\n        /* \"#utility.yul\":27457:27573   */\n      swap1\n      pop\n        /* \"#utility.yul\":27355:27580   */\n      swap3\n      swap2\n      pop\n      pop\n      jump\t// out\n        /* \"#utility.yul\":27586:28107   */\n    tag_79:\n      0x00\n        /* \"#utility.yul\":27787:27789   */\n      0x60\n        /* \"#utility.yul\":27776:27785   */\n      dup3\n        /* \"#utility.yul\":27772:27790   */\n      add\n        /* \"#utility.yul\":27764:27790   */\n      swap1\n      pop\n        /* \"#utility.yul\":27836:27845   */\n      dup2\n        /* \"#utility.yul\":27830:27834   */\n      dup2\n        /* \"#utility.yul\":27826:27846   */\n      sub\n        /* \"#utility.yul\":27822:27823   */\n      0x00\n        /* \"#utility.yul\":27811:27820   */\n      dup4\n        /* \"#utility.yul\":27807:27824   */\n      add\n        /* \"#utility.yul\":27800:27847   */\n      mstore\n        /* \"#utility.yul\":27864:27942   */\n      tag_829\n        /* \"#utility.yul\":27937:27941   */\n      dup2\n        /* \"#utility.yul\":27928:27934   */\n      dup7\n        /* \"#utility.yul\":27864:27942   */\n      tag_743\n      jump\t// in\n    tag_829:\n        /* \"#utility.yul\":27856:27942   */\n      swap1\n      pop\n        /* \"#utility.yul\":27952:28024   */\n      tag_830\n        /* \"#utility.yul\":28020:28022   */\n      0x20\n        /* \"#utility.yul\":28009:28018   */\n      dup4\n        /* \"#utility.yul\":28005:28023   */\n      add\n        /* \"#utility.yul\":27996:28002   */\n      dup6\n        /* \"#utility.yul\":27952:28024   */\n      tag_656\n      jump\t// in\n    tag_830:\n        /* \"#utility.yul\":28034:28100   */\n      tag_831\n        /* \"#utility.yul\":28096:28098   */\n      0x40\n        /* \"#utility.yul\":28085:28094   */\n      dup4\n        /* \"#utility.yul\":28081:28099   */\n      add\n        /* \"#utility.yul\":28072:28078   */\n      dup5\n        /* \"#utility.yul\":28034:28100   */\n      tag_730\n      jump\t// in\n    tag_831:\n        /* \"#utility.yul\":27754:28107   */\n      swap5\n      swap4\n      pop\n      pop\n      pop\n      pop\n      jump\t// out\n        /* \"#utility.yul\":28113:28836   */\n    tag_43:\n      0x00\n        /* \"#utility.yul\":28362:28365   */\n      0x80\n        /* \"#utility.yul\":28351:28360   */\n      dup3\n        /* \"#utility.yul\":28347:28366   */\n      add\n        /* \"#utility.yul\":28339:28366   */\n      swap1\n      pop\n        /* \"#utility.yul\":28412:28421   */\n      dup2\n        /* \"#utility.yul\":28406:28410   */\n      dup2\n        /* \"#utility.yul\":28402:28422   */\n      sub\n        /* \"#utility.yul\":28398:28399   */\n      0x00\n        /* \"#utility.yul\":28387:28396   */\n      dup4\n        /* \"#utility.yul\":28383:28400   */\n      add\n        /* \"#utility.yul\":28376:28423   */\n      mstore\n        /* \"#utility.yul\":28440:28518   */\n      tag_833\n        /* \"#utility.yul\":28513:28517   */\n      dup2\n        /* \"#utility.yul\":28504:28510   */\n      dup8\n        /* \"#utility.yul\":28440:28518   */\n      tag_743\n      jump\t// in\n    tag_833:\n        /* \"#utility.yul\":28432:28518   */\n      swap1\n      pop\n        /* \"#utility.yul\":28565:28574   */\n      dup2\n        /* \"#utility.yul\":28559:28563   */\n      dup2\n        /* \"#utility.yul\":28555:28575   */\n      sub\n        /* \"#utility.yul\":28550:28552   */\n      0x20\n        /* \"#utility.yul\":28539:28548   */\n      dup4\n        /* \"#utility.yul\":28535:28553   */\n      add\n        /* \"#utility.yul\":28528:28576   */\n      mstore\n        /* \"#utility.yul\":28593:28671   */\n      tag_834\n        /* \"#utility.yul\":28666:28670   */\n      dup2\n        /* \"#utility.yul\":28657:28663   */\n      dup7\n        /* \"#utility.yul\":28593:28671   */\n      tag_743\n      jump\t// in\n    tag_834:\n        /* \"#utility.yul\":28585:28671   */\n      swap1\n      pop\n        /* \"#utility.yul\":28681:28753   */\n      tag_835\n        /* \"#utility.yul\":28749:28751   */\n      0x40\n        /* \"#utility.yul\":28738:28747   */\n      dup4\n        /* \"#utility.yul\":28734:28752   */\n      add\n        /* \"#utility.yul\":28725:28731   */\n      dup6\n        /* \"#utility.yul\":28681:28753   */\n      tag_656\n      jump\t// in\n    tag_835:\n        /* \"#utility.yul\":28763:28829   */\n      tag_836\n        /* \"#utility.yul\":28825:28827   */\n      0x60\n        /* \"#utility.yul\":28814:28823   */\n      dup4\n        /* \"#utility.yul\":28810:28828   */\n      add\n        /* \"#utility.yul\":28801:28807   */\n      dup5\n        /* \"#utility.yul\":28763:28829   */\n      tag_730\n      jump\t// in\n    tag_836:\n        /* \"#utility.yul\":28329:28836   */\n      swap6\n      swap5\n      pop\n      pop\n      pop\n      pop\n      pop\n      jump\t// out\n        /* \"#utility.yul\":28842:29767   */\n    tag_106:\n      0x00\n        /* \"#utility.yul\":29139:29142   */\n      0xa0\n        /* \"#utility.yul\":29128:29137   */\n      dup3\n        /* \"#utility.yul\":29124:29143   */\n      add\n        /* \"#utility.yul\":29116:29143   */\n      swap1\n      pop\n        /* \"#utility.yul\":29189:29198   */\n      dup2\n        /* \"#utility.yul\":29183:29187   */\n      dup2\n        /* \"#utility.yul\":29179:29199   */\n      sub\n        /* \"#utility.yul\":29175:29176   */\n      0x00\n        /* \"#utility.yul\":29164:29173   */\n      dup4\n        /* \"#utility.yul\":29160:29177   */\n      add\n        /* \"#utility.yul\":29153:29200   */\n      mstore\n        /* \"#utility.yul\":29217:29295   */\n      tag_838\n        /* \"#utility.yul\":29290:29294   */\n      dup2\n        /* \"#utility.yul\":29281:29287   */\n      dup9\n        /* \"#utility.yul\":29217:29295   */\n      tag_743\n      jump\t// in\n    tag_838:\n        /* \"#utility.yul\":29209:29295   */\n      swap1\n      pop\n        /* \"#utility.yul\":29342:29351   */\n      dup2\n        /* \"#utility.yul\":29336:29340   */\n      dup2\n        /* \"#utility.yul\":29332:29352   */\n      sub\n        /* \"#utility.yul\":29327:29329   */\n      0x20\n        /* \"#utility.yul\":29316:29325   */\n      dup4\n        /* \"#utility.yul\":29312:29330   */\n      add\n        /* \"#utility.yul\":29305:29353   */\n      mstore\n        /* \"#utility.yul\":29370:29448   */\n      tag_839\n        /* \"#utility.yul\":29443:29447   */\n      dup2\n        /* \"#utility.yul\":29434:29440   */\n      dup8\n        /* \"#utility.yul\":29370:29448   */\n      tag_743\n      jump\t// in\n    tag_839:\n        /* \"#utility.yul\":29362:29448   */\n      swap1\n      pop\n        /* \"#utility.yul\":29495:29504   */\n      dup2\n        /* \"#utility.yul\":29489:29493   */\n      dup2\n        /* \"#utility.yul\":29485:29505   */\n      sub\n        /* \"#utility.yul\":29480:29482   */\n      0x40\n        /* \"#utility.yul\":29469:29478   */\n      dup4\n        /* \"#utility.yul\":29465:29483   */\n      add\n        /* \"#utility.yul\":29458:29506   */\n      mstore\n        /* \"#utility.yul\":29523:29601   */\n      tag_840\n        /* \"#utility.yul\":29596:29600   */\n      dup2\n        /* \"#utility.yul\":29587:29593   */\n      dup7\n        /* \"#utility.yul\":29523:29601   */\n      tag_743\n      jump\t// in\n    tag_840:\n        /* \"#utility.yul\":29515:29601   */\n      swap1\n      pop\n        /* \"#utility.yul\":29611:29683   */\n      tag_841\n        /* \"#utility.yul\":29679:29681   */\n      0x60\n        /* \"#utility.yul\":29668:29677   */\n      dup4\n        /* \"#utility.yul\":29664:29682   */\n      add\n        /* \"#utility.yul\":29655:29661   */\n      dup6\n        /* \"#utility.yul\":29611:29683   */\n      tag_793\n      jump\t// in\n    tag_841:\n        /* \"#utility.yul\":29693:29760   */\n      tag_842\n        /* \"#utility.yul\":29755:29758   */\n      0x80\n        /* \"#utility.yul\":29744:29753   */\n      dup4\n        /* \"#utility.yul\":29740:29759   */\n      add\n        /* \"#utility.yul\":29731:29737   */\n      dup5\n        /* \"#utility.yul\":29693:29760   */\n      tag_730\n      jump\t// in\n    tag_842:\n        /* \"#utility.yul\":29106:29767   */\n      swap7\n      swap6\n      pop\n      pop\n      pop\n      pop\n      pop\n      pop\n      jump\t// out\n        /* \"#utility.yul\":29773:30192   */\n    tag_511:\n      0x00\n        /* \"#utility.yul\":29977:29979   */\n      0x20\n        /* \"#utility.yul\":29966:29975   */\n      dup3\n        /* \"#utility.yul\":29962:29980   */\n      add\n        /* \"#utility.yul\":29954:29980   */\n      swap1\n      pop\n        /* \"#utility.yul\":30026:30035   */\n      dup2\n        /* \"#utility.yul\":30020:30024   */\n      dup2\n        /* \"#utility.yul\":30016:30036   */\n      sub\n        /* \"#utility.yul\":30012:30013   */\n      0x00\n        /* \"#utility.yul\":30001:30010   */\n      dup4\n        /* \"#utility.yul\":29997:30014   */\n      add\n        /* \"#utility.yul\":29990:30037   */\n      mstore\n        /* \"#utility.yul\":30054:30185   */\n      tag_844\n        /* \"#utility.yul\":30180:30184   */\n      dup2\n        /* \"#utility.yul\":30054:30185   */\n      tag_762\n      jump\t// in\n    tag_844:\n        /* \"#utility.yul\":30046:30185   */\n      swap1\n      pop\n        /* \"#utility.yul\":29944:30192   */\n      swap2\n      swap1\n      pop\n      jump\t// out\n        /* \"#utility.yul\":30198:30617   */\n    tag_502:\n      0x00\n        /* \"#utility.yul\":30402:30404   */\n      0x20\n        /* \"#utility.yul\":30391:30400   */\n      dup3\n        /* \"#utility.yul\":30387:30405   */\n      add\n        /* \"#utility.yul\":30379:30405   */\n      swap1\n      pop\n        /* \"#utility.yul\":30451:30460   */\n      dup2\n        /* \"#utility.yul\":30445:30449   */\n      dup2\n        /* \"#utility.yul\":30441:30461   */\n      sub\n        /* \"#utility.yul\":30437:30438   */\n      0x00\n        /* \"#utility.yul\":30426:30435   */\n      dup4\n        /* \"#utility.yul\":30422:30439   */\n      add\n        /* \"#utility.yul\":30415:30462   */\n      mstore\n        /* \"#utility.yul\":30479:30610   */\n      tag_846\n        /* \"#utility.yul\":30605:30609   */\n      dup2\n        /* \"#utility.yul\":30479:30610   */\n      tag_765\n      jump\t// in\n    tag_846:\n        /* \"#utility.yul\":30471:30610   */\n      swap1\n      pop\n        /* \"#utility.yul\":30369:30617   */\n      swap2\n      swap1\n      pop\n      jump\t// out\n        /* \"#utility.yul\":30623:31042   */\n    tag_520:\n      0x00\n        /* \"#utility.yul\":30827:30829   */\n      0x20\n        /* \"#utility.yul\":30816:30825   */\n      dup3\n        /* \"#utility.yul\":30812:30830   */\n      add\n        /* \"#utility.yul\":30804:30830   */\n      swap1\n      pop\n        /* \"#utility.yul\":30876:30885   */\n      dup2\n        /* \"#utility.yul\":30870:30874   */\n      dup2\n        /* \"#utility.yul\":30866:30886   */\n      sub\n        /* \"#utility.yul\":30862:30863   */\n      0x00\n        /* \"#utility.yul\":30851:30860   */\n      dup4\n        /* \"#utility.yul\":30847:30864   */\n      add\n        /* \"#utility.yul\":30840:30887   */\n      mstore\n        /* \"#utility.yul\":30904:31035   */\n      tag_848\n        /* \"#utility.yul\":31030:31034   */\n      dup2\n        /* \"#utility.yul\":30904:31035   */\n      tag_768\n      jump\t// in\n    tag_848:\n        /* \"#utility.yul\":30896:31035   */\n      swap1\n      pop\n        /* \"#utility.yul\":30794:31042   */\n      swap2\n      swap1\n      pop\n      jump\t// out\n        /* \"#utility.yul\":31048:31270   */\n    tag_51:\n      0x00\n        /* \"#utility.yul\":31179:31181   */\n      0x20\n        /* \"#utility.yul\":31168:31177   */\n      dup3\n        /* \"#utility.yul\":31164:31182   */\n      add\n        /* \"#utility.yul\":31156:31182   */\n      swap1\n      pop\n        /* \"#utility.yul\":31192:31263   */\n      tag_850\n        /* \"#utility.yul\":31260:31261   */\n      0x00\n        /* \"#utility.yul\":31249:31258   */\n      dup4\n        /* \"#utility.yul\":31245:31262   */\n      add\n        /* \"#utility.yul\":31236:31242   */\n      dup5\n        /* \"#utility.yul\":31192:31263   */\n      tag_793\n      jump\t// in\n    tag_850:\n        /* \"#utility.yul\":31146:31270   */\n      swap3\n      swap2\n      pop\n      pop\n      jump\t// out\n        /* \"#utility.yul\":31276:32110   */\n    tag_92:\n      0x00\n        /* \"#utility.yul\":31553:31556   */\n      0xa0\n        /* \"#utility.yul\":31542:31551   */\n      dup3\n        /* \"#utility.yul\":31538:31557   */\n      add\n        /* \"#utility.yul\":31530:31557   */\n      swap1\n      pop\n        /* \"#utility.yul\":31567:31638   */\n      tag_852\n        /* \"#utility.yul\":31635:31636   */\n      0x00\n        /* \"#utility.yul\":31624:31633   */\n      dup4\n        /* \"#utility.yul\":31620:31637   */\n      add\n        /* \"#utility.yul\":31611:31617   */\n      dup9\n        /* \"#utility.yul\":31567:31638   */\n      tag_793\n      jump\t// in\n    tag_852:\n        /* \"#utility.yul\":31685:31694   */\n      dup2\n        /* \"#utility.yul\":31679:31683   */\n      dup2\n        /* \"#utility.yul\":31675:31695   */\n      sub\n        /* \"#utility.yul\":31670:31672   */\n      0x20\n        /* \"#utility.yul\":31659:31668   */\n      dup4\n        /* \"#utility.yul\":31655:31673   */\n      add\n        /* \"#utility.yul\":31648:31696   */\n      mstore\n        /* \"#utility.yul\":31713:31791   */\n      tag_853\n        /* \"#utility.yul\":31786:31790   */\n      dup2\n        /* \"#utility.yul\":31777:31783   */\n      dup8\n        /* \"#utility.yul\":31713:31791   */\n      tag_743\n      jump\t// in\n    tag_853:\n        /* \"#utility.yul\":31705:31791   */\n      swap1\n      pop\n        /* \"#utility.yul\":31838:31847   */\n      dup2\n        /* \"#utility.yul\":31832:31836   */\n      dup2\n        /* \"#utility.yul\":31828:31848   */\n      sub\n        /* \"#utility.yul\":31823:31825   */\n      0x40\n        /* \"#utility.yul\":31812:31821   */\n      dup4\n        /* \"#utility.yul\":31808:31826   */\n      add\n        /* \"#utility.yul\":31801:31849   */\n      mstore\n        /* \"#utility.yul\":31866:31944   */\n      tag_854\n        /* \"#utility.yul\":31939:31943   */\n      dup2\n        /* \"#utility.yul\":31930:31936   */\n      dup7\n        /* \"#utility.yul\":31866:31944   */\n      tag_743\n      jump\t// in\n    tag_854:\n        /* \"#utility.yul\":31858:31944   */\n      swap1\n      pop\n        /* \"#utility.yul\":31954:32026   */\n      tag_855\n        /* \"#utility.yul\":32022:32024   */\n      0x60\n        /* \"#utility.yul\":32011:32020   */\n      dup4\n        /* \"#utility.yul\":32007:32025   */\n      add\n        /* \"#utility.yul\":31998:32004   */\n      dup6\n        /* \"#utility.yul\":31954:32026   */\n      tag_656\n      jump\t// in\n    tag_855:\n        /* \"#utility.yul\":32036:32103   */\n      tag_856\n        /* \"#utility.yul\":32098:32101   */\n      0x80\n        /* \"#utility.yul\":32087:32096   */\n      dup4\n        /* \"#utility.yul\":32083:32102   */\n      add\n        /* \"#utility.yul\":32074:32080   */\n      dup5\n        /* \"#utility.yul\":32036:32103   */\n      tag_730\n      jump\t// in\n    tag_856:\n        /* \"#utility.yul\":31520:32110   */\n      swap7\n      swap6\n      pop\n      pop\n      pop\n      pop\n      pop\n      pop\n      jump\t// out\n        /* \"#utility.yul\":32116:33212   */\n    tag_181:\n      0x00\n        /* \"#utility.yul\":32471:32474   */\n      0xc0\n        /* \"#utility.yul\":32460:32469   */\n      dup3\n        /* \"#utility.yul\":32456:32475   */\n      add\n        /* \"#utility.yul\":32448:32475   */\n      swap1\n      pop\n        /* \"#utility.yul\":32485:32556   */\n      tag_858\n        /* \"#utility.yul\":32553:32554   */\n      0x00\n        /* \"#utility.yul\":32542:32551   */\n      dup4\n        /* \"#utility.yul\":32538:32555   */\n      add\n        /* \"#utility.yul\":32529:32535   */\n      dup10\n        /* \"#utility.yul\":32485:32556   */\n      tag_793\n      jump\t// in\n    tag_858:\n        /* \"#utility.yul\":32603:32612   */\n      dup2\n        /* \"#utility.yul\":32597:32601   */\n      dup2\n        /* \"#utility.yul\":32593:32613   */\n      sub\n        /* \"#utility.yul\":32588:32590   */\n      0x20\n        /* \"#utility.yul\":32577:32586   */\n      dup4\n        /* \"#utility.yul\":32573:32591   */\n      add\n        /* \"#utility.yul\":32566:32614   */\n      mstore\n        /* \"#utility.yul\":32631:32709   */\n      tag_859\n        /* \"#utility.yul\":32704:32708   */\n      dup2\n        /* \"#utility.yul\":32695:32701   */\n      dup9\n        /* \"#utility.yul\":32631:32709   */\n      tag_743\n      jump\t// in\n    tag_859:\n        /* \"#utility.yul\":32623:32709   */\n      swap1\n      pop\n        /* \"#utility.yul\":32756:32765   */\n      dup2\n        /* \"#utility.yul\":32750:32754   */\n      dup2\n        /* \"#utility.yul\":32746:32766   */\n      sub\n        /* \"#utility.yul\":32741:32743   */\n      0x40\n        /* \"#utility.yul\":32730:32739   */\n      dup4\n        /* \"#utility.yul\":32726:32744   */\n      add\n        /* \"#utility.yul\":32719:32767   */\n      mstore\n        /* \"#utility.yul\":32784:32862   */\n      tag_860\n        /* \"#utility.yul\":32857:32861   */\n      dup2\n        /* \"#utility.yul\":32848:32854   */\n      dup8\n        /* \"#utility.yul\":32784:32862   */\n      tag_743\n      jump\t// in\n    tag_860:\n        /* \"#utility.yul\":32776:32862   */\n      swap1\n      pop\n        /* \"#utility.yul\":32872:32944   */\n      tag_861\n        /* \"#utility.yul\":32940:32942   */\n      0x60\n        /* \"#utility.yul\":32929:32938   */\n      dup4\n        /* \"#utility.yul\":32925:32943   */\n      add\n        /* \"#utility.yul\":32916:32922   */\n      dup7\n        /* \"#utility.yul\":32872:32944   */\n      tag_656\n      jump\t// in\n    tag_861:\n        /* \"#utility.yul\":32954:33021   */\n      tag_862\n        /* \"#utility.yul\":33016:33019   */\n      0x80\n        /* \"#utility.yul\":33005:33014   */\n      dup4\n        /* \"#utility.yul\":33001:33020   */\n      add\n        /* \"#utility.yul\":32992:32998   */\n      dup6\n        /* \"#utility.yul\":32954:33021   */\n      tag_730\n      jump\t// in\n    tag_862:\n        /* \"#utility.yul\":33069:33078   */\n      dup2\n        /* \"#utility.yul\":33063:33067   */\n      dup2\n        /* \"#utility.yul\":33059:33079   */\n      sub\n        /* \"#utility.yul\":33053:33056   */\n      0xa0\n        /* \"#utility.yul\":33042:33051   */\n      dup4\n        /* \"#utility.yul\":33038:33057   */\n      add\n        /* \"#utility.yul\":33031:33080   */\n      mstore\n        /* \"#utility.yul\":33097:33205   */\n      tag_863\n        /* \"#utility.yul\":33200:33204   */\n      dup2\n        /* \"#utility.yul\":33191:33197   */\n      dup5\n        /* \"#utility.yul\":33097:33205   */\n      tag_715\n      jump\t// in\n    tag_863:\n        /* \"#utility.yul\":33089:33205   */\n      swap1\n      pop\n        /* \"#utility.yul\":32438:33212   */\n      swap8\n      swap7\n      pop\n      pop\n      pop\n      pop\n      pop\n      pop\n      pop\n      jump\t// out\n        /* \"#utility.yul\":33218:34040   */\n    tag_282:\n      0x00\n        /* \"#utility.yul\":33489:33492   */\n      0xa0\n        /* \"#utility.yul\":33478:33487   */\n      dup3\n        /* \"#utility.yul\":33474:33493   */\n      add\n        /* \"#utility.yul\":33466:33493   */\n      swap1\n      pop\n        /* \"#utility.yul\":33503:33574   */\n      tag_865\n        /* \"#utility.yul\":33571:33572   */\n      0x00\n        /* \"#utility.yul\":33560:33569   */\n      dup4\n        /* \"#utility.yul\":33556:33573   */\n      add\n        /* \"#utility.yul\":33547:33553   */\n      dup9\n        /* \"#utility.yul\":33503:33574   */\n      tag_793\n      jump\t// in\n    tag_865:\n        /* \"#utility.yul\":33621:33630   */\n      dup2\n        /* \"#utility.yul\":33615:33619   */\n      dup2\n        /* \"#utility.yul\":33611:33631   */\n      sub\n        /* \"#utility.yul\":33606:33608   */\n      0x20\n        /* \"#utility.yul\":33595:33604   */\n      dup4\n        /* \"#utility.yul\":33591:33609   */\n      add\n        /* \"#utility.yul\":33584:33632   */\n      mstore\n        /* \"#utility.yul\":33649:33724   */\n      tag_866\n        /* \"#utility.yul\":33719:33723   */\n      dup2\n        /* \"#utility.yul\":33710:33716   */\n      dup8\n        /* \"#utility.yul\":33649:33724   */\n      tag_750\n      jump\t// in\n    tag_866:\n        /* \"#utility.yul\":33641:33724   */\n      swap1\n      pop\n        /* \"#utility.yul\":33771:33780   */\n      dup2\n        /* \"#utility.yul\":33765:33769   */\n      dup2\n        /* \"#utility.yul\":33761:33781   */\n      sub\n        /* \"#utility.yul\":33756:33758   */\n      0x40\n        /* \"#utility.yul\":33745:33754   */\n      dup4\n        /* \"#utility.yul\":33741:33759   */\n      add\n        /* \"#utility.yul\":33734:33782   */\n      mstore\n        /* \"#utility.yul\":33799:33874   */\n      tag_867\n        /* \"#utility.yul\":33869:33873   */\n      dup2\n        /* \"#utility.yul\":33860:33866   */\n      dup7\n        /* \"#utility.yul\":33799:33874   */\n      tag_750\n      jump\t// in\n    tag_867:\n        /* \"#utility.yul\":33791:33874   */\n      swap1\n      pop\n        /* \"#utility.yul\":33884:33956   */\n      tag_868\n        /* \"#utility.yul\":33952:33954   */\n      0x60\n        /* \"#utility.yul\":33941:33950   */\n      dup4\n        /* \"#utility.yul\":33937:33955   */\n      add\n        /* \"#utility.yul\":33928:33934   */\n      dup6\n        /* \"#utility.yul\":33884:33956   */\n      tag_656\n      jump\t// in\n    tag_868:\n        /* \"#utility.yul\":33966:34033   */\n      tag_869\n        /* \"#utility.yul\":34028:34031   */\n      0x80\n        /* \"#utility.yul\":34017:34026   */\n      dup4\n        /* \"#utility.yul\":34013:34032   */\n      add\n        /* \"#utility.yul\":34004:34010   */\n      dup5\n        /* \"#utility.yul\":33966:34033   */\n      tag_730\n      jump\t// in\n    tag_869:\n        /* \"#utility.yul\":33456:34040   */\n      swap7\n      swap6\n      pop\n      pop\n      pop\n      pop\n      pop\n      pop\n      jump\t// out\n        /* \"#utility.yul\":34046:34324   */\n    tag_540:\n      0x00\n        /* \"#utility.yul\":34112:34114   */\n      0x40\n        /* \"#utility.yul\":34106:34115   */\n      mload\n        /* \"#utility.yul\":34096:34115   */\n      swap1\n      pop\n        /* \"#utility.yul\":34154:34158   */\n      dup2\n        /* \"#utility.yul\":34146:34152   */\n      dup2\n        /* \"#utility.yul\":34142:34159   */\n      add\n        /* \"#utility.yul\":34261:34267   */\n      dup2\n        /* \"#utility.yul\":34249:34259   */\n      dup2\n        /* \"#utility.yul\":34246:34268   */\n      lt\n        /* \"#utility.yul\":34225:34243   */\n      0xffffffffffffffff\n        /* \"#utility.yul\":34213:34223   */\n      dup3\n        /* \"#utility.yul\":34210:34244   */\n      gt\n        /* \"#utility.yul\":34207:34269   */\n      or\n        /* \"#utility.yul\":34204:34206   */\n      iszero\n      tag_871\n      jumpi\n        /* \"#utility.yul\":34272:34285   */\n      tag_872\n      tag_873\n      jump\t// in\n    tag_872:\n        /* \"#utility.yul\":34204:34206   */\n    tag_871:\n        /* \"#utility.yul\":34307:34317   */\n      dup1\n        /* \"#utility.yul\":34303:34305   */\n      0x40\n        /* \"#utility.yul\":34296:34318   */\n      mstore\n        /* \"#utility.yul\":34086:34324   */\n      pop\n      swap2\n      swap1\n      pop\n      jump\t// out\n        /* \"#utility.yul\":34330:34636   */\n    tag_539:\n      0x00\n        /* \"#utility.yul\":34497:34515   */\n      0xffffffffffffffff\n        /* \"#utility.yul\":34489:34495   */\n      dup3\n        /* \"#utility.yul\":34486:34516   */\n      gt\n        /* \"#utility.yul\":34483:34485   */\n      iszero\n      tag_875\n      jumpi\n        /* \"#utility.yul\":34519:34532   */\n      tag_876\n      tag_873\n      jump\t// in\n    tag_876:\n        /* \"#utility.yul\":34483:34485   */\n    tag_875:\n        /* \"#utility.yul\":34564:34568   */\n      0x20\n        /* \"#utility.yul\":34556:34562   */\n      dup3\n        /* \"#utility.yul\":34552:34569   */\n      mul\n        /* \"#utility.yul\":34544:34569   */\n      swap1\n      pop\n        /* \"#utility.yul\":34624:34628   */\n      0x20\n        /* \"#utility.yul\":34618:34622   */\n      dup2\n        /* \"#utility.yul\":34614:34629   */\n      add\n        /* \"#utility.yul\":34606:34629   */\n      swap1\n      pop\n        /* \"#utility.yul\":34412:34636   */\n      swap2\n      swap1\n      pop\n      jump\t// out\n        /* \"#utility.yul\":34642:34969   */\n    tag_551:\n      0x00\n        /* \"#utility.yul\":34794:34812   */\n      0xffffffffffffffff\n        /* \"#utility.yul\":34786:34792   */\n      dup3\n        /* \"#utility.yul\":34783:34813   */\n      gt\n        /* \"#utility.yul\":34780:34782   */\n      iszero\n      tag_878\n      jumpi\n        /* \"#utility.yul\":34816:34829   */\n      tag_879\n      tag_873\n      jump\t// in\n    tag_879:\n        /* \"#utility.yul\":34780:34782   */\n    tag_878:\n        /* \"#utility.yul\":34896:34900   */\n      0x1f\n        /* \"#utility.yul\":34892:34901   */\n      not\n        /* \"#utility.yul\":34885:34889   */\n      0x1f\n        /* \"#utility.yul\":34877:34883   */\n      dup4\n        /* \"#utility.yul\":34873:34890   */\n      add\n        /* \"#utility.yul\":34869:34902   */\n      and\n        /* \"#utility.yul\":34861:34902   */\n      swap1\n      pop\n        /* \"#utility.yul\":34957:34961   */\n      0x20\n        /* \"#utility.yul\":34951:34955   */\n      dup2\n        /* \"#utility.yul\":34947:34962   */\n      add\n        /* \"#utility.yul\":34939:34962   */\n      swap1\n      pop\n        /* \"#utility.yul\":34709:34969   */\n      swap2\n      swap1\n      pop\n      jump\t// out\n        /* \"#utility.yul\":34975:35129   */\n    tag_666:\n      0x00\n        /* \"#utility.yul\":35087:35090   */\n      dup2\n        /* \"#utility.yul\":35079:35090   */\n      swap1\n      pop\n        /* \"#utility.yul\":35117:35121   */\n      0x20\n        /* \"#utility.yul\":35112:35115   */\n      dup3\n        /* \"#utility.yul\":35108:35122   */\n      add\n        /* \"#utility.yul\":35100:35122   */\n      swap1\n      pop\n        /* \"#utility.yul\":35069:35129   */\n      swap2\n      swap1\n      pop\n      jump\t// out\n        /* \"#utility.yul\":35135:35291   */\n    tag_680:\n      0x00\n        /* \"#utility.yul\":35249:35252   */\n      dup2\n        /* \"#utility.yul\":35241:35252   */\n      swap1\n      pop\n        /* \"#utility.yul\":35279:35283   */\n      0x20\n        /* \"#utility.yul\":35274:35277   */\n      dup3\n        /* \"#utility.yul\":35270:35284   */\n      add\n        /* \"#utility.yul\":35262:35284   */\n      swap1\n      pop\n        /* \"#utility.yul\":35231:35291   */\n      swap2\n      swap1\n      pop\n      jump\t// out\n        /* \"#utility.yul\":35297:35451   */\n    tag_694:\n      0x00\n        /* \"#utility.yul\":35409:35412   */\n      dup2\n        /* \"#utility.yul\":35401:35412   */\n      swap1\n      pop\n        /* \"#utility.yul\":35439:35443   */\n      0x20\n        /* \"#utility.yul\":35434:35437   */\n      dup3\n        /* \"#utility.yul\":35430:35444   */\n      add\n        /* \"#utility.yul\":35422:35444   */\n      swap1\n      pop\n        /* \"#utility.yul\":35391:35451   */\n      swap2\n      swap1\n      pop\n      jump\t// out\n        /* \"#utility.yul\":35457:35589   */\n    tag_708:\n      0x00\n        /* \"#utility.yul\":35547:35550   */\n      dup2\n        /* \"#utility.yul\":35539:35550   */\n      swap1\n      pop\n        /* \"#utility.yul\":35577:35581   */\n      0x20\n        /* \"#utility.yul\":35572:35575   */\n      dup3\n        /* \"#utility.yul\":35568:35582   */\n      add\n        /* \"#utility.yul\":35560:35582   */\n      swap1\n      pop\n        /* \"#utility.yul\":35529:35589   */\n      swap2\n      swap1\n      pop\n      jump\t// out\n        /* \"#utility.yul\":35595:35736   */\n    tag_758:\n      0x00\n        /* \"#utility.yul\":35667:35670   */\n      dup2\n        /* \"#utility.yul\":35659:35670   */\n      swap1\n      pop\n        /* \"#utility.yul\":35690:35693   */\n      dup2\n        /* \"#utility.yul\":35687:35688   */\n      0x00\n        /* \"#utility.yul\":35680:35694   */\n      mstore\n        /* \"#utility.yul\":35724:35728   */\n      0x20\n        /* \"#utility.yul\":35721:35722   */\n      0x00\n        /* \"#utility.yul\":35711:35729   */\n      keccak256\n        /* \"#utility.yul\":35703:35729   */\n      swap1\n      pop\n        /* \"#utility.yul\":35649:35736   */\n      swap2\n      swap1\n      pop\n      jump\t// out\n        /* \"#utility.yul\":35742:35878   */\n    tag_662:\n      0x00\n        /* \"#utility.yul\":35865:35870   */\n      dup2\n        /* \"#utility.yul\":35859:35871   */\n      mload\n        /* \"#utility.yul\":35849:35871   */\n      swap1\n      pop\n        /* \"#utility.yul\":35838:35878   */\n      swap2\n      swap1\n      pop\n      jump\t// out\n        /* \"#utility.yul\":35884:36022   */\n    tag_676:\n      0x00\n        /* \"#utility.yul\":36009:36014   */\n      dup2\n        /* \"#utility.yul\":36003:36015   */\n      mload\n        /* \"#utility.yul\":35993:36015   */\n      swap1\n      pop\n        /* \"#utility.yul\":35982:36022   */\n      swap2\n      swap1\n      pop\n      jump\t// out\n        /* \"#utility.yul\":36028:36164   */\n    tag_690:\n      0x00\n        /* \"#utility.yul\":36151:36156   */\n      dup2\n        /* \"#utility.yul\":36145:36157   */\n      mload\n        /* \"#utility.yul\":36135:36157   */\n      swap1\n      pop\n        /* \"#utility.yul\":36124:36164   */\n      swap2\n      swap1\n      pop\n      jump\t// out\n        /* \"#utility.yul\":36170:36284   */\n    tag_704:\n      0x00\n        /* \"#utility.yul\":36271:36276   */\n      dup2\n        /* \"#utility.yul\":36265:36277   */\n      mload\n        /* \"#utility.yul\":36255:36277   */\n      swap1\n      pop\n        /* \"#utility.yul\":36244:36284   */\n      swap2\n      swap1\n      pop\n      jump\t// out\n        /* \"#utility.yul\":36290:36389   */\n    tag_736:\n      0x00\n        /* \"#utility.yul\":36376:36381   */\n      dup2\n        /* \"#utility.yul\":36370:36382   */\n      mload\n        /* \"#utility.yul\":36360:36382   */\n      swap1\n      pop\n        /* \"#utility.yul\":36349:36389   */\n      swap2\n      swap1\n      pop\n      jump\t// out\n        /* \"#utility.yul\":36395:36530   */\n    tag_672:\n      0x00\n        /* \"#utility.yul\":36519:36523   */\n      0x20\n        /* \"#utility.yul\":36514:36517   */\n      dup3\n        /* \"#utility.yul\":36510:36524   */\n      add\n        /* \"#utility.yul\":36502:36524   */\n      swap1\n      pop\n        /* \"#utility.yul\":36492:36530   */\n      swap2\n      swap1\n      pop\n      jump\t// out\n        /* \"#utility.yul\":36536:36673   */\n    tag_686:\n      0x00\n        /* \"#utility.yul\":36662:36666   */\n      0x20\n        /* \"#utility.yul\":36657:36660   */\n      dup3\n        /* \"#utility.yul\":36653:36667   */\n      add\n        /* \"#utility.yul\":36645:36667   */\n      swap1\n      pop\n        /* \"#utility.yul\":36635:36673   */\n      swap2\n      swap1\n      pop\n      jump\t// out\n        /* \"#utility.yul\":36679:36814   */\n    tag_700:\n      0x00\n        /* \"#utility.yul\":36803:36807   */\n      0x20\n        /* \"#utility.yul\":36798:36801   */\n      dup3\n        /* \"#utility.yul\":36794:36808   */\n      add\n        /* \"#utility.yul\":36786:36808   */\n      swap1\n      pop\n        /* \"#utility.yul\":36776:36814   */\n      swap2\n      swap1\n      pop\n      jump\t// out\n        /* \"#utility.yul\":36820:36933   */\n    tag_714:\n      0x00\n        /* \"#utility.yul\":36922:36926   */\n      0x20\n        /* \"#utility.yul\":36917:36920   */\n      dup3\n        /* \"#utility.yul\":36913:36927   */\n      add\n        /* \"#utility.yul\":36905:36927   */\n      swap1\n      pop\n        /* \"#utility.yul\":36895:36933   */\n      swap2\n      swap1\n      pop\n      jump\t// out\n        /* \"#utility.yul\":36939:37145   */\n    tag_664:\n      0x00\n        /* \"#utility.yul\":37094:37100   */\n      dup3\n        /* \"#utility.yul\":37089:37092   */\n      dup3\n        /* \"#utility.yul\":37082:37101   */\n      mstore\n        /* \"#utility.yul\":37134:37138   */\n      0x20\n        /* \"#utility.yul\":37129:37132   */\n      dup3\n        /* \"#utility.yul\":37125:37139   */\n      add\n        /* \"#utility.yul\":37110:37139   */\n      swap1\n      pop\n        /* \"#utility.yul\":37072:37145   */\n      swap3\n      swap2\n      pop\n      pop\n      jump\t// out\n        /* \"#utility.yul\":37151:37359   */\n    tag_678:\n      0x00\n        /* \"#utility.yul\":37308:37314   */\n      dup3\n        /* \"#utility.yul\":37303:37306   */\n      dup3\n        /* \"#utility.yul\":37296:37315   */\n      mstore\n        /* \"#utility.yul\":37348:37352   */\n      0x20\n        /* \"#utility.yul\":37343:37346   */\n      dup3\n        /* \"#utility.yul\":37339:37353   */\n      add\n        /* \"#utility.yul\":37324:37353   */\n      swap1\n      pop\n        /* \"#utility.yul\":37286:37359   */\n      swap3\n      swap2\n      pop\n      pop\n      jump\t// out\n        /* \"#utility.yul\":37365:37571   */\n    tag_692:\n      0x00\n        /* \"#utility.yul\":37520:37526   */\n      dup3\n        /* \"#utility.yul\":37515:37518   */\n      dup3\n        /* \"#utility.yul\":37508:37527   */\n      mstore\n        /* \"#utility.yul\":37560:37564   */\n      0x20\n        /* \"#utility.yul\":37555:37558   */\n      dup3\n        /* \"#utility.yul\":37551:37565   */\n      add\n        /* \"#utility.yul\":37536:37565   */\n      swap1\n      pop\n        /* \"#utility.yul\":37498:37571   */\n      swap3\n      swap2\n      pop\n      pop\n      jump\t// out\n        /* \"#utility.yul\":37577:37751   */\n    tag_706:\n      0x00\n        /* \"#utility.yul\":37700:37706   */\n      dup3\n        /* \"#utility.yul\":37695:37698   */\n      dup3\n        /* \"#utility.yul\":37688:37707   */\n      mstore\n        /* \"#utility.yul\":37740:37744   */\n      0x20\n        /* \"#utility.yul\":37735:37738   */\n      dup3\n        /* \"#utility.yul\":37731:37745   */\n      add\n        /* \"#utility.yul\":37716:37745   */\n      swap1\n      pop\n        /* \"#utility.yul\":37678:37751   */\n      swap3\n      swap2\n      pop\n      pop\n      jump\t// out\n        /* \"#utility.yul\":37757:37941   */\n    tag_719:\n      0x00\n        /* \"#utility.yul\":37890:37896   */\n      dup3\n        /* \"#utility.yul\":37885:37888   */\n      dup3\n        /* \"#utility.yul\":37878:37897   */\n      mstore\n        /* \"#utility.yul\":37930:37934   */\n      0x20\n        /* \"#utility.yul\":37925:37928   */\n      dup3\n        /* \"#utility.yul\":37921:37935   */\n      add\n        /* \"#utility.yul\":37906:37935   */\n      swap1\n      pop\n        /* \"#utility.yul\":37868:37941   */\n      swap3\n      swap2\n      pop\n      pop\n      jump\t// out\n        /* \"#utility.yul\":37947:38106   */\n    tag_738:\n      0x00\n        /* \"#utility.yul\":38055:38061   */\n      dup3\n        /* \"#utility.yul\":38050:38053   */\n      dup3\n        /* \"#utility.yul\":38043:38062   */\n      mstore\n        /* \"#utility.yul\":38095:38099   */\n      0x20\n        /* \"#utility.yul\":38090:38093   */\n      dup3\n        /* \"#utility.yul\":38086:38100   */\n      add\n        /* \"#utility.yul\":38071:38100   */\n      swap1\n      pop\n        /* \"#utility.yul\":38033:38106   */\n      swap3\n      swap2\n      pop\n      pop\n      jump\t// out\n        /* \"#utility.yul\":38112:38281   */\n    tag_747:\n      0x00\n        /* \"#utility.yul\":38230:38236   */\n      dup3\n        /* \"#utility.yul\":38225:38228   */\n      dup3\n        /* \"#utility.yul\":38218:38237   */\n      mstore\n        /* \"#utility.yul\":38270:38274   */\n      0x20\n        /* \"#utility.yul\":38265:38268   */\n      dup3\n        /* \"#utility.yul\":38261:38275   */\n      add\n        /* \"#utility.yul\":38246:38275   */\n      swap1\n      pop\n        /* \"#utility.yul\":38208:38281   */\n      swap3\n      swap2\n      pop\n      pop\n      jump\t// out\n        /* \"#utility.yul\":38287:38383   */\n    tag_655:\n      0x00\n        /* \"#utility.yul\":38353:38377   */\n      tag_902\n        /* \"#utility.yul\":38371:38376   */\n      dup3\n        /* \"#utility.yul\":38353:38377   */\n      tag_903\n      jump\t// in\n    tag_902:\n        /* \"#utility.yul\":38342:38377   */\n      swap1\n      pop\n        /* \"#utility.yul\":38332:38383   */\n      swap2\n      swap1\n      pop\n      jump\t// out\n        /* \"#utility.yul\":38389:38479   */\n    tag_729:\n      0x00\n        /* \"#utility.yul\":38466:38471   */\n      dup2\n        /* \"#utility.yul\":38459:38472   */\n      iszero\n        /* \"#utility.yul\":38452:38473   */\n      iszero\n        /* \"#utility.yul\":38441:38473   */\n      swap1\n      pop\n        /* \"#utility.yul\":38431:38479   */\n      swap2\n      swap1\n      pop\n      jump\t// out\n        /* \"#utility.yul\":38485:38611   */\n    tag_903:\n      0x00\n        /* \"#utility.yul\":38562:38604   */\n      0xffffffffffffffffffffffffffffffffffffffff\n        /* \"#utility.yul\":38555:38560   */\n      dup3\n        /* \"#utility.yul\":38551:38605   */\n      and\n        /* \"#utility.yul\":38540:38605   */\n      swap1\n      pop\n        /* \"#utility.yul\":38530:38611   */\n      swap2\n      swap1\n      pop\n      jump\t// out\n        /* \"#utility.yul\":38617:38694   */\n    tag_792:\n      0x00\n        /* \"#utility.yul\":38683:38688   */\n      dup2\n        /* \"#utility.yul\":38672:38688   */\n      swap1\n      pop\n        /* \"#utility.yul\":38662:38694   */\n      swap2\n      swap1\n      pop\n      jump\t// out\n        /* \"#utility.yul\":38700:38854   */\n    tag_554:\n        /* \"#utility.yul\":38784:38790   */\n      dup3\n        /* \"#utility.yul\":38779:38782   */\n      dup2\n        /* \"#utility.yul\":38774:38777   */\n      dup4\n        /* \"#utility.yul\":38761:38791   */\n      calldatacopy\n        /* \"#utility.yul\":38846:38847   */\n      0x00\n        /* \"#utility.yul\":38837:38843   */\n      dup4\n        /* \"#utility.yul\":38832:38835   */\n      dup4\n        /* \"#utility.yul\":38828:38844   */\n      add\n        /* \"#utility.yul\":38821:38848   */\n      mstore\n        /* \"#utility.yul\":38751:38854   */\n      pop\n      pop\n      pop\n      jump\t// out\n        /* \"#utility.yul\":38860:39167   */\n    tag_740:\n        /* \"#utility.yul\":38928:38929   */\n      0x00\n        /* \"#utility.yul\":38938:39051   */\n    tag_909:\n        /* \"#utility.yul\":38952:38958   */\n      dup4\n        /* \"#utility.yul\":38949:38950   */\n      dup2\n        /* \"#utility.yul\":38946:38959   */\n      lt\n        /* \"#utility.yul\":38938:39051   */\n      iszero\n      tag_911\n      jumpi\n        /* \"#utility.yul\":39037:39038   */\n      dup1\n        /* \"#utility.yul\":39032:39035   */\n      dup3\n        /* \"#utility.yul\":39028:39039   */\n      add\n        /* \"#utility.yul\":39022:39040   */\n      mload\n        /* \"#utility.yul\":39018:39019   */\n      dup2\n        /* \"#utility.yul\":39013:39016   */\n      dup5\n        /* \"#utility.yul\":39009:39020   */\n      add\n        /* \"#utility.yul\":39002:39041   */\n      mstore\n        /* \"#utility.yul\":38974:38976   */\n      0x20\n        /* \"#utility.yul\":38971:38972   */\n      dup2\n        /* \"#utility.yul\":38967:38977   */\n      add\n        /* \"#utility.yul\":38962:38977   */\n      swap1\n      pop\n        /* \"#utility.yul\":38938:39051   */\n      jump(tag_909)\n    tag_911:\n        /* \"#utility.yul\":39069:39075   */\n      dup4\n        /* \"#utility.yul\":39066:39067   */\n      dup2\n        /* \"#utility.yul\":39063:39076   */\n      gt\n        /* \"#utility.yul\":39060:39062   */\n      iszero\n      tag_912\n      jumpi\n        /* \"#utility.yul\":39149:39150   */\n      0x00\n        /* \"#utility.yul\":39140:39146   */\n      dup5\n        /* \"#utility.yul\":39135:39138   */\n      dup5\n        /* \"#utility.yul\":39131:39147   */\n      add\n        /* \"#utility.yul\":39124:39151   */\n      mstore\n        /* \"#utility.yul\":39060:39062   */\n    tag_912:\n        /* \"#utility.yul\":38909:39167   */\n      pop\n      pop\n      pop\n      pop\n      jump\t// out\n        /* \"#utility.yul\":39173:39221   */\n    tag_873:\n        /* \"#utility.yul\":39206:39215   */\n      invalid\n        /* \"#utility.yul\":39227:39329   */\n    tag_742:\n      0x00\n        /* \"#utility.yul\":39319:39321   */\n      0x1f\n        /* \"#utility.yul\":39315:39322   */\n      not\n        /* \"#utility.yul\":39310:39312   */\n      0x1f\n        /* \"#utility.yul\":39303:39308   */\n      dup4\n        /* \"#utility.yul\":39299:39313   */\n      add\n        /* \"#utility.yul\":39295:39323   */\n      and\n        /* \"#utility.yul\":39285:39323   */\n      swap1\n      pop\n        /* \"#utility.yul\":39275:39329   */\n      swap2\n      swap1\n      pop\n      jump\t// out\n        /* \"#utility.yul\":39335:39457   */\n    tag_558:\n        /* \"#utility.yul\":39408:39432   */\n      tag_916\n        /* \"#utility.yul\":39426:39431   */\n      dup2\n        /* \"#utility.yul\":39408:39432   */\n      tag_655\n      jump\t// in\n    tag_916:\n        /* \"#utility.yul\":39401:39406   */\n      dup2\n        /* \"#utility.yul\":39398:39433   */\n      eq\n        /* \"#utility.yul\":39388:39390   */\n      tag_917\n      jumpi\n        /* \"#utility.yul\":39447:39448   */\n      0x00\n        /* \"#utility.yul\":39444:39445   */\n      dup1\n        /* \"#utility.yul\":39437:39449   */\n      revert\n        /* \"#utility.yul\":39388:39390   */\n    tag_917:\n        /* \"#utility.yul\":39378:39457   */\n      pop\n      jump\t// out\n        /* \"#utility.yul\":39463:39579   */\n    tag_566:\n        /* \"#utility.yul\":39533:39554   */\n      tag_919\n        /* \"#utility.yul\":39548:39553   */\n      dup2\n        /* \"#utility.yul\":39533:39554   */\n      tag_729\n      jump\t// in\n    tag_919:\n        /* \"#utility.yul\":39526:39531   */\n      dup2\n        /* \"#utility.yul\":39523:39555   */\n      eq\n        /* \"#utility.yul\":39513:39515   */\n      tag_920\n      jumpi\n        /* \"#utility.yul\":39569:39570   */\n      0x00\n        /* \"#utility.yul\":39566:39567   */\n      dup1\n        /* \"#utility.yul\":39559:39571   */\n      revert\n        /* \"#utility.yul\":39513:39515   */\n    tag_920:\n        /* \"#utility.yul\":39503:39579   */\n      pop\n      jump\t// out\n        /* \"#utility.yul\":39585:39707   */\n    tag_573:\n        /* \"#utility.yul\":39658:39682   */\n      tag_922\n        /* \"#utility.yul\":39676:39681   */\n      dup2\n        /* \"#utility.yul\":39658:39682   */\n      tag_792\n      jump\t// in\n    tag_922:\n        /* \"#utility.yul\":39651:39656   */\n      dup2\n        /* \"#utility.yul\":39648:39683   */\n      eq\n        /* \"#utility.yul\":39638:39640   */\n      tag_923\n      jumpi\n        /* \"#utility.yul\":39697:39698   */\n      0x00\n        /* \"#utility.yul\":39694:39695   */\n      dup1\n        /* \"#utility.yul\":39687:39699   */\n      revert\n        /* \"#utility.yul\":39638:39640   */\n    tag_923:\n        /* \"#utility.yul\":39628:39707   */\n      pop\n      jump\t// out\n\n    auxdata: 0xa26469706673582212208311a2e1a215437ffbbbcd5b92127d271351bb96d8789285563aef1e2bb4680064736f6c63430007060033\n}\n",
    "bytecode": {
      "linkReferences": {},
      "object": "6080604052738fcf3b91599c6d5bb93d8c7df9f3974c622b83a4600260006101000a81548173ffffffffffffffffffffffffffffffffffffffff021916908373ffffffffffffffffffffffffffffffffffffffff16021790555034801561006557600080fd5b50614af2806100756000396000f3fe608060405234801561001057600080fd5b50600436106101c45760003560e01c80639a2e5bed116100f9578063c266406d11610097578063dc7aa36b11610071578063dc7aa36b14610555578063e1ee3b5614610588578063ea87659f146105a4578063f0d95090146105d8576101c4565b8063c266406d146104c0578063c3f4c25f146104f0578063d53d0a8514610520576101c4565b8063a17d7a38116100d3578063a17d7a3814610433578063a27876c514610451578063a549a4ed1461046d578063b5843613146104a2576101c4565b80639a2e5bed146103b35780639b70e779146103e3578063a0568e2d14610417576101c4565b806360ea3cdc116101665780636f39507d116101405780636f39507d146103145780637fe53f8314610330578063898bd1401461034c5780638db2fc4114610380576101c4565b806360ea3cdc146102aa5780636151efb1146102c65780636cd8ebdc146102e2576101c4565b80634444cc92116101a25780634444cc92146102365780634807fc69146102525780634e9f71541461026e5780635a4e5d3e1461028c576101c4565b806302655c2e146101c95780631b057e40146101fc5780631ba5169614610218575b600080fd5b6101e360048036038101906101de9190613c1f565b6105f6565b6040516101f394939291906145a8565b60405180910390f35b61021660048036038101906102119190613b8c565b6107f8565b005b61022061099c565b60405161022d91906146c3565b60405180910390f35b610250600480360381019061024b9190613c48565b6109a9565b005b61026c600480360381019061026791906138f1565b6109ee565b005b610276610b55565b6040516102839190614504565b60405180910390f35b610294610e75565b6040516102a19190614526565b60405180910390f35b6102c460048036038101906102bf9190613981565b61114b565b005b6102e060048036038101906102db9190613c1f565b611326565b005b6102fc60048036038101906102f791906138f1565b61146e565b60405161030b9392919061456a565b60405180910390f35b61032e60048036038101906103299190613c9c565b6115b3565b005b61034a60048036038101906103459190613abb565b6117c1565b005b610366600480360381019061036191906138f1565b6119e8565b6040516103779594939291906146de565b60405180910390f35b61039a60048036038101906103959190613c1f565b611b7b565b6040516103aa949392919061435e565b60405180910390f35b6103cd60048036038101906103c891906138f1565b611ca0565b6040516103da9190614526565b60405180910390f35b6103fd60048036038101906103f891906138f1565b611feb565b60405161040e9594939291906145fb565b60405180910390f35b610431600480360381019061042c91906138f1565b61228d565b005b61043b6123d6565b60405161044891906146c3565b60405180910390f35b61046b600480360381019061046691906139fc565b6123e3565b005b610487600480360381019061048291906138f1565b612567565b604051610499969594939291906143aa565b60405180910390f35b6104aa612798565b6040516104b791906146c3565b60405180910390f35b6104da60048036038101906104d591906138f1565b6127a5565b6040516104e791906144e2565b60405180910390f35b61050a60048036038101906105059190613c1f565b612a42565b6040516105179190614548565b60405180910390f35b61053a60048036038101906105359190613c1f565b612ac6565b60405161054c969594939291906143aa565b60405180910390f35b61056f600480360381019061056a91906138f1565b612d07565b60405161057f949392919061435e565b60405180910390f35b6105a2600480360381019061059d919061391a565b612e1c565b005b6105be60048036038101906105b99190613c1f565b612fb1565b6040516105cf9594939291906146de565b60405180910390f35b6105e0613154565b6040516105ed91906144e2565b60405180910390f35b60608060008060006106078661337c565b90506008818154811061061657fe5b90600052602060002090600502016001016008828154811061063457fe5b90600052602060002090600502016002016008838154811061065257fe5b906000526020600020906005020160030160009054906101000a900473ffffffffffffffffffffffffffffffffffffffff166008848154811061069157fe5b906000526020600020906005020160030160149054906101000a900460ff16838054600181600116156101000203166002900480601f0160208091040260200160405190810160405280929190818152602001828054600181600116156101000203166002900480156107455780601f1061071a57610100808354040283529160200191610745565b820191906000526020600020905b81548152906001019060200180831161072857829003601f168201915b50505050509350828054600181600116156101000203166002900480601f0160208091040260200160405190810160405280929190818152602001828054600181600116156101000203166002900480156107e15780601f106107b6576101008083540402835291602001916107e1565b820191906000526020600020905b8154815290600101906020018083116107c457829003601f168201915b505050505092509450945094509450509193509193565b6108018261340e565b50606060086040518060c0016040528060015481526020018781526020018681526020018573ffffffffffffffffffffffffffffffffffffffff168152602001841515815260200183815250908060018154018082558091505060019003906000526020600020906005020160009091909190915060008201518160000155602082015181600101908051906020019061089c9291906135ca565b5060408201518160020190805190602001906108b99291906135ca565b5060608201518160030160006101000a81548173ffffffffffffffffffffffffffffffffffffffff021916908373ffffffffffffffffffffffffffffffffffffffff16021790555060808201518160030160146101000a81548160ff02191690831515021790555060a082015181600401908051906020019061093d929190613658565b5050507f23f4ceea50d8ef88465d5bb07ab2960540f3c2414851cf0a137f2ee3a4ab6fa8600154868686868660405161097b9695949392919061473f565b60405180910390a16001600081548092919060010191905055505050505050565b6000600480549050905090565b60006109b48361337c565b905081600882815481106109c457fe5b906000526020600020906005020160040190805190602001906109e8929190613658565b50505050565b60006109f9826134ec565b9050600060048281548110610a0a57fe5b906000526020600020906006020160050160006101000a81548160ff0219169083151502179055507f05818f5e23a2c2bb34c81792ea8e3397d3f8ad179cb93a5fa57b3d4681564aa060048281548110610a6057fe5b906000526020600020906006020160000160009054906101000a900473ffffffffffffffffffffffffffffffffffffffff1660048381548110610a9f57fe5b906000526020600020906006020160010160048481548110610abd57fe5b906000526020600020906006020160020160048581548110610adb57fe5b906000526020600020906006020160030160048681548110610af957fe5b90600052602060002090600602016004015460048781548110610b1857fe5b906000526020600020906006020160050160009054906101000a900460ff16604051610b499695949392919061446c565b60405180910390a15050565b6060600060048054905067ffffffffffffffff81118015610b7557600080fd5b50604051908082528060200260200182016040528015610baf57816020015b610b9c6136a5565b815260200190600190039081610b945790505b50905060005b600480549050811015610e6d5760048181548110610bcf57fe5b90600052602060002090600602016040518060c00160405290816000820160009054906101000a900473ffffffffffffffffffffffffffffffffffffffff1673ffffffffffffffffffffffffffffffffffffffff1673ffffffffffffffffffffffffffffffffffffffff168152602001600182018054600181600116156101000203166002900480601f016020809104026020016040519081016040528092919081815260200182805460018160011615610100020316600290048015610cd75780601f10610cac57610100808354040283529160200191610cd7565b820191906000526020600020905b815481529060010190602001808311610cba57829003601f168201915b50505050508152602001600282018054600181600116156101000203166002900480601f016020809104026020016040519081016040528092919081815260200182805460018160011615610100020316600290048015610d795780601f10610d4e57610100808354040283529160200191610d79565b820191906000526020600020905b815481529060010190602001808311610d5c57829003601f168201915b50505050508152602001600382018054600181600116156101000203166002900480601f016020809104026020016040519081016040528092919081815260200182805460018160011615610100020316600290048015610e1b5780601f10610df057610100808354040283529160200191610e1b565b820191906000526020600020905b815481529060010190602001808311610dfe57829003601f168201915b50505050508152602001600482015481526020016005820160009054906101000a900460ff161515151581525050828281518110610e5557fe5b60200260200101819052508080600101915050610bb5565b508091505090565b6060600060088054905067ffffffffffffffff81118015610e9557600080fd5b50604051908082528060200260200182016040528015610ecf57816020015b610ebc6136f3565b815260200190600190039081610eb45790505b50905060005b6008805490508110156111435760088181548110610eef57fe5b90600052602060002090600502016040518060c001604052908160008201548152602001600182018054600181600116156101000203166002900480601f016020809104026020016040519081016040528092919081815260200182805460018160011615610100020316600290048015610fab5780601f10610f8057610100808354040283529160200191610fab565b820191906000526020600020905b815481529060010190602001808311610f8e57829003601f168201915b50505050508152602001600282018054600181600116156101000203166002900480601f01602080910402602001604051908101604052809291908181526020018280546001816001161561010002031660029004801561104d5780601f106110225761010080835404028352916020019161104d565b820191906000526020600020905b81548152906001019060200180831161103057829003601f168201915b505050505081526020016003820160009054906101000a900473ffffffffffffffffffffffffffffffffffffffff1673ffffffffffffffffffffffffffffffffffffffff1673ffffffffffffffffffffffffffffffffffffffff1681526020016003820160149054906101000a900460ff161515151581526020016004820180548060200260200160405190810160405280929190818152602001828054801561111657602002820191906000526020600020905b815481526020019060010190808311611102575b50505050508152505082828151811061112b57fe5b60200260200101819052508080600101915050610ed5565b508091505090565b60006111568561340e565b9050836006828154811061116657fe5b9060005260206000209060030201600101908051906020019061118a9291906135ca565b50826006828154811061119957fe5b906000526020600020906003020160020160006101000a81548173ffffffffffffffffffffffffffffffffffffffff021916908373ffffffffffffffffffffffffffffffffffffffff16021790555081600682815481106111f657fe5b906000526020600020906003020160020160146101000a81548160ff0219169083151502179055507f6fcbc4a02269ac36204ac7e60c4cf625c6fc2b2365cac750c9927b670e347f906006828154811061124c57fe5b906000526020600020906003020160000160009054906101000a900473ffffffffffffffffffffffffffffffffffffffff166006838154811061128b57fe5b9060005260206000209060030201600101600684815481106112a957fe5b906000526020600020906003020160020160009054906101000a900473ffffffffffffffffffffffffffffffffffffffff16600685815481106112e857fe5b906000526020600020906003020160020160149054906101000a900460ff166040516113179493929190614420565b60405180910390a15050505050565b60006113318261337c565b905060006008828154811061134257fe5b906000526020600020906005020160030160146101000a81548160ff0219169083151502179055507fef9006907eb20210e880b0bb1c39946083bcec24688718507d63a259ffa8351b6008828154811061139857fe5b906000526020600020906005020160000154600883815481106113b757fe5b9060005260206000209060050201600101600884815481106113d557fe5b9060005260206000209060050201600201600885815481106113f357fe5b906000526020600020906005020160030160009054906101000a900473ffffffffffffffffffffffffffffffffffffffff166008868154811061143257fe5b906000526020600020906005020160030160149054906101000a900460ff166040516114629594939291906147b5565b60405180910390a15050565b6060600080600061147e8561340e565b90506006818154811061148d57fe5b9060005260206000209060030201600101600682815481106114ab57fe5b906000526020600020906003020160020160009054906101000a900473ffffffffffffffffffffffffffffffffffffffff16600683815481106114ea57fe5b906000526020600020906003020160020160149054906101000a900460ff16828054600181600116156101000203166002900480601f01602080910402602001604051908101604052809291908181526020018280546001816001161561010002031660029004801561159e5780601f106115735761010080835404028352916020019161159e565b820191906000526020600020905b81548152906001019060200180831161158157829003601f168201915b50505050509250935093509350509193909250565b60006115be8661337c565b905084600882815481106115ce57fe5b906000526020600020906005020160010190805190602001906115f29291906135ca565b50836008828154811061160157fe5b906000526020600020906005020160020190805190602001906116259291906135ca565b50826008828154811061163457fe5b906000526020600020906005020160030160006101000a81548173ffffffffffffffffffffffffffffffffffffffff021916908373ffffffffffffffffffffffffffffffffffffffff160217905550816008828154811061169157fe5b906000526020600020906005020160030160146101000a81548160ff0219169083151502179055507f3ab6f9ea2e72cad17988f4527dc5626fa4e97c597fcbd9d7e2a7e820851b54ce600882815481106116e757fe5b9060005260206000209060050201600001546008838154811061170657fe5b90600052602060002090600502016001016008848154811061172457fe5b90600052602060002090600502016002016008858154811061174257fe5b906000526020600020906005020160030160009054906101000a900473ffffffffffffffffffffffffffffffffffffffff166008868154811061178157fe5b906000526020600020906005020160030160149054906101000a900460ff166040516117b19594939291906147b5565b60405180910390a1505050505050565b60006117cc876134ec565b905085600482815481106117dc57fe5b906000526020600020906006020160010190805190602001906118009291906135ca565b50846004828154811061180f57fe5b906000526020600020906006020160020190805190602001906118339291906135ca565b50836004828154811061184257fe5b906000526020600020906006020160030190805190602001906118669291906135ca565b50826004828154811061187557fe5b906000526020600020906006020160040181905550816004828154811061189857fe5b906000526020600020906006020160050160006101000a81548160ff0219169083151502179055507f5975e6fed8802a324436eb320387035d99d011c9901bb75b34b8c23b91250c1c600482815481106118ee57fe5b906000526020600020906006020160000160009054906101000a900473ffffffffffffffffffffffffffffffffffffffff166004838154811061192d57fe5b90600052602060002090600602016001016004848154811061194b57fe5b90600052602060002090600602016002016004858154811061196957fe5b90600052602060002090600602016003016004868154811061198757fe5b906000526020600020906006020160040154600487815481106119a657fe5b906000526020600020906006020160050160009054906101000a900460ff166040516119d79695949392919061446c565b60405180910390a150505050505050565b6007602052806000526040600020600091509050806000015490806001018054600181600116156101000203166002900480601f016020809104026020016040519081016040528092919081815260200182805460018160011615610100020316600290048015611a9a5780601f10611a6f57610100808354040283529160200191611a9a565b820191906000526020600020905b815481529060010190602001808311611a7d57829003601f168201915b505050505090806002018054600181600116156101000203166002900480601f016020809104026020016040519081016040528092919081815260200182805460018160011615610100020316600290048015611b385780601f10611b0d57610100808354040283529160200191611b38565b820191906000526020600020905b815481529060010190602001808311611b1b57829003601f168201915b5050505050908060030160009054906101000a900473ffffffffffffffffffffffffffffffffffffffff16908060030160149054906101000a900460ff16905085565b60068181548110611b8b57600080fd5b90600052602060002090600302016000915090508060000160009054906101000a900473ffffffffffffffffffffffffffffffffffffffff1690806001018054600181600116156101000203166002900480601f016020809104026020016040519081016040528092919081815260200182805460018160011615610100020316600290048015611c5d5780601f10611c3257610100808354040283529160200191611c5d565b820191906000526020600020905b815481529060010190602001808311611c4057829003601f168201915b5050505050908060020160009054906101000a900473ffffffffffffffffffffffffffffffffffffffff16908060020160149054906101000a900460ff16905084565b6060600060088054905067ffffffffffffffff81118015611cc057600080fd5b50604051908082528060200260200182016040528015611cfa57816020015b611ce76136f3565b815260200190600190039081611cdf5790505b50905060005b600880549050811015611fe15760088181548110611d1a57fe5b906000526020600020906005020160030160009054906101000a900473ffffffffffffffffffffffffffffffffffffffff1673ffffffffffffffffffffffffffffffffffffffff168473ffffffffffffffffffffffffffffffffffffffff161415611fd45760088181548110611d8c57fe5b90600052602060002090600502016040518060c001604052908160008201548152602001600182018054600181600116156101000203166002900480601f016020809104026020016040519081016040528092919081815260200182805460018160011615610100020316600290048015611e485780601f10611e1d57610100808354040283529160200191611e48565b820191906000526020600020905b815481529060010190602001808311611e2b57829003601f168201915b50505050508152602001600282018054600181600116156101000203166002900480601f016020809104026020016040519081016040528092919081815260200182805460018160011615610100020316600290048015611eea5780601f10611ebf57610100808354040283529160200191611eea565b820191906000526020600020905b815481529060010190602001808311611ecd57829003601f168201915b505050505081526020016003820160009054906101000a900473ffffffffffffffffffffffffffffffffffffffff1673ffffffffffffffffffffffffffffffffffffffff1673ffffffffffffffffffffffffffffffffffffffff1681526020016003820160149054906101000a900460ff1615151515815260200160048201805480602002602001604051908101604052809291908181526020018280548015611fb357602002820191906000526020600020905b815481526020019060010190808311611f9f575b505050505081525050828281518110611fc857fe5b60200260200101819052505b8080600101915050611d00565b5080915050919050565b60608060606000806000611ffe876134ec565b90506004818154811061200d57fe5b90600052602060002090600602016001016004828154811061202b57fe5b90600052602060002090600602016002016004838154811061204957fe5b90600052602060002090600602016003016004848154811061206757fe5b9060005260206000209060060201600401546004858154811061208657fe5b906000526020600020906006020160050160009054906101000a900460ff16848054600181600116156101000203166002900480601f01602080910402602001604051908101604052809291908181526020018280546001816001161561010002031660029004801561213a5780601f1061210f5761010080835404028352916020019161213a565b820191906000526020600020905b81548152906001019060200180831161211d57829003601f168201915b50505050509450838054600181600116156101000203166002900480601f0160208091040260200160405190810160405280929190818152602001828054600181600116156101000203166002900480156121d65780601f106121ab576101008083540402835291602001916121d6565b820191906000526020600020905b8154815290600101906020018083116121b957829003601f168201915b50505050509350828054600181600116156101000203166002900480601f0160208091040260200160405190810160405280929190818152602001828054600181600116156101000203166002900480156122725780601f1061224757610100808354040283529160200191612272565b820191906000526020600020905b81548152906001019060200180831161225557829003601f168201915b50505050509250955095509550955095505091939590929450565b60006122988261340e565b90506000600682815481106122a957fe5b906000526020600020906003020160020160146101000a81548160ff0219169083151502179055507f780b3c74ec1e08d8c65fd8a12c6ac2da5c15f2d3b5e54335b51671f63b7d2ad0600682815481106122ff57fe5b906000526020600020906003020160000160009054906101000a900473ffffffffffffffffffffffffffffffffffffffff166006838154811061233e57fe5b90600052602060002090600302016001016006848154811061235c57fe5b906000526020600020906003020160020160009054906101000a900473ffffffffffffffffffffffffffffffffffffffff166006858154811061239b57fe5b906000526020600020906003020160020160149054906101000a900460ff166040516123ca9493929190614420565b60405180910390a15050565b6000600480549050905090565b60046040518060c001604052808773ffffffffffffffffffffffffffffffffffffffff16815260200186815260200185815260200184815260200183815260200160011515815250908060018154018082558091505060019003906000526020600020906006020160009091909190915060008201518160000160006101000a81548173ffffffffffffffffffffffffffffffffffffffff021916908373ffffffffffffffffffffffffffffffffffffffff16021790555060208201518160010190805190602001906124b79291906135ca565b5060408201518160020190805190602001906124d49291906135ca565b5060608201518160030190805190602001906124f19291906135ca565b506080820151816004015560a08201518160050160006101000a81548160ff02191690831515021790555050507ff646212acc3f5092fb0211ffd5121c0f706641b715e3982dab50afb395413dd585858585856001604051612558969594939291906143aa565b60405180910390a15050505050565b60036020528060005260406000206000915090508060000160009054906101000a900473ffffffffffffffffffffffffffffffffffffffff1690806001018054600181600116156101000203166002900480601f0160208091040260200160405190810160405280929190818152602001828054600181600116156101000203166002900480156126395780601f1061260e57610100808354040283529160200191612639565b820191906000526020600020905b81548152906001019060200180831161261c57829003601f168201915b505050505090806002018054600181600116156101000203166002900480601f0160208091040260200160405190810160405280929190818152602001828054600181600116156101000203166002900480156126d75780601f106126ac576101008083540402835291602001916126d7565b820191906000526020600020905b8154815290600101906020018083116126ba57829003601f168201915b505050505090806003018054600181600116156101000203166002900480601f0160208091040260200160405190810160405280929190818152602001828054600181600116156101000203166002900480156127755780601f1061274a57610100808354040283529160200191612775565b820191906000526020600020905b81548152906001019060200180831161275857829003601f168201915b5050505050908060040154908060050160009054906101000a900460ff16905086565b6000600880549050905090565b6060600060068054905067ffffffffffffffff811180156127c557600080fd5b506040519080825280602002602001820160405280156127ff57816020015b6127ec613741565b8152602001906001900390816127e45790505b50905060005b600680549050811015612a38576006818154811061281f57fe5b906000526020600020906003020160020160009054906101000a900473ffffffffffffffffffffffffffffffffffffffff1673ffffffffffffffffffffffffffffffffffffffff168473ffffffffffffffffffffffffffffffffffffffff161415612a2b576006818154811061289157fe5b90600052602060002090600302016040518060800160405290816000820160009054906101000a900473ffffffffffffffffffffffffffffffffffffffff1673ffffffffffffffffffffffffffffffffffffffff1673ffffffffffffffffffffffffffffffffffffffff168152602001600182018054600181600116156101000203166002900480601f0160208091040260200160405190810160405280929190818152602001828054600181600116156101000203166002900480156129995780601f1061296e57610100808354040283529160200191612999565b820191906000526020600020905b81548152906001019060200180831161297c57829003601f168201915b505050505081526020016002820160009054906101000a900473ffffffffffffffffffffffffffffffffffffffff1673ffffffffffffffffffffffffffffffffffffffff1673ffffffffffffffffffffffffffffffffffffffff1681526020016002820160149054906101000a900460ff161515151581525050828281518110612a1f57fe5b60200260200101819052505b8080600101915050612805565b5080915050919050565b60606000612a4f8361337c565b905060088181548110612a5e57fe5b9060005260206000209060050201600401805480602002602001604051908101604052809291908181526020018280548015612ab957602002820191906000526020600020905b815481526020019060010190808311612aa5575b5050505050915050919050565b60048181548110612ad657600080fd5b90600052602060002090600602016000915090508060000160009054906101000a900473ffffffffffffffffffffffffffffffffffffffff1690806001018054600181600116156101000203166002900480601f016020809104026020016040519081016040528092919081815260200182805460018160011615610100020316600290048015612ba85780601f10612b7d57610100808354040283529160200191612ba8565b820191906000526020600020905b815481529060010190602001808311612b8b57829003601f168201915b505050505090806002018054600181600116156101000203166002900480601f016020809104026020016040519081016040528092919081815260200182805460018160011615610100020316600290048015612c465780601f10612c1b57610100808354040283529160200191612c46565b820191906000526020600020905b815481529060010190602001808311612c2957829003601f168201915b505050505090806003018054600181600116156101000203166002900480601f016020809104026020016040519081016040528092919081815260200182805460018160011615610100020316600290048015612ce45780601f10612cb957610100808354040283529160200191612ce4565b820191906000526020600020905b815481529060010190602001808311612cc757829003601f168201915b5050505050908060040154908060050160009054906101000a900460ff16905086565b60056020528060005260406000206000915090508060000160009054906101000a900473ffffffffffffffffffffffffffffffffffffffff1690806001018054600181600116156101000203166002900480601f016020809104026020016040519081016040528092919081815260200182805460018160011615610100020316600290048015612dd95780601f10612dae57610100808354040283529160200191612dd9565b820191906000526020600020905b815481529060010190602001808311612dbc57829003601f168201915b5050505050908060020160009054906101000a900473ffffffffffffffffffffffffffffffffffffffff16908060020160149054906101000a900460ff16905084565b612e25816134ec565b50600660405180608001604052808573ffffffffffffffffffffffffffffffffffffffff1681526020018481526020018373ffffffffffffffffffffffffffffffffffffffff16815260200160011515815250908060018154018082558091505060019003906000526020600020906003020160009091909190915060008201518160000160006101000a81548173ffffffffffffffffffffffffffffffffffffffff021916908373ffffffffffffffffffffffffffffffffffffffff1602179055506020820151816001019080519060200190612f049291906135ca565b5060408201518160020160006101000a81548173ffffffffffffffffffffffffffffffffffffffff021916908373ffffffffffffffffffffffffffffffffffffffff16021790555060608201518160020160146101000a81548160ff02191690831515021790555050507f4578695497af1a3a1f556f9c89f9f107851cb8e1820e4b336143406b9ba52e3b8383836001604051612fa4949392919061435e565b60405180910390a1505050565b60088181548110612fc157600080fd5b9060005260206000209060050201600091509050806000015490806001018054600181600116156101000203166002900480601f0160208091040260200160405190810160405280929190818152602001828054600181600116156101000203166002900480156130735780601f1061304857610100808354040283529160200191613073565b820191906000526020600020905b81548152906001019060200180831161305657829003601f168201915b505050505090806002018054600181600116156101000203166002900480601f0160208091040260200160405190810160405280929190818152602001828054600181600116156101000203166002900480156131115780601f106130e657610100808354040283529160200191613111565b820191906000526020600020905b8154815290600101906020018083116130f457829003601f168201915b5050505050908060030160009054906101000a900473ffffffffffffffffffffffffffffffffffffffff16908060030160149054906101000a900460ff16905085565b6060600060068054905067ffffffffffffffff8111801561317457600080fd5b506040519080825280602002602001820160405280156131ae57816020015b61319b613741565b8152602001906001900390816131935790505b50905060005b60068054905081101561337457600681815481106131ce57fe5b90600052602060002090600302016040518060800160405290816000820160009054906101000a900473ffffffffffffffffffffffffffffffffffffffff1673ffffffffffffffffffffffffffffffffffffffff1673ffffffffffffffffffffffffffffffffffffffff168152602001600182018054600181600116156101000203166002900480601f0160208091040260200160405190810160405280929190818152602001828054600181600116156101000203166002900480156132d65780601f106132ab576101008083540402835291602001916132d6565b820191906000526020600020905b8154815290600101906020018083116132b957829003601f168201915b505050505081526020016002820160009054906101000a900473ffffffffffffffffffffffffffffffffffffffff1673ffffffffffffffffffffffffffffffffffffffff1673ffffffffffffffffffffffffffffffffffffffff1681526020016002820160149054906101000a900460ff16151515158152505082828151811061335c57fe5b602002602001018190525080806001019150506131b4565b508091505090565b600080600090505b6008805490508110156133cd57826008828154811061339f57fe5b90600052602060002090600502016000015414156133c05780915050613409565b8080600101915050613384565b506040517f08c379a000000000000000000000000000000000000000000000000000000000815260040161340090614683565b60405180910390fd5b919050565b600080600090505b6006805490508110156134ab578273ffffffffffffffffffffffffffffffffffffffff166006828154811061344757fe5b906000526020600020906003020160000160009054906101000a900473ffffffffffffffffffffffffffffffffffffffff1673ffffffffffffffffffffffffffffffffffffffff16141561349e57809150506134e7565b8080600101915050613416565b506040517f08c379a00000000000000000000000000000000000000000000000000000000081526004016134de90614663565b60405180910390fd5b919050565b600080600090505b600480549050811015613589578273ffffffffffffffffffffffffffffffffffffffff166004828154811061352557fe5b906000526020600020906006020160000160009054906101000a900473ffffffffffffffffffffffffffffffffffffffff1673ffffffffffffffffffffffffffffffffffffffff16141561357c57809150506135c5565b80806001019150506134f4565b506040517f08c379a00000000000000000000000000000000000000000000000000000000081526004016135bc906146a3565b60405180910390fd5b919050565b828054600181600116156101000203166002900490600052602060002090601f0160209004810192826136005760008555613647565b82601f1061361957805160ff1916838001178555613647565b82800160010185558215613647579182015b8281111561364657825182559160200191906001019061362b565b5b5090506136549190613797565b5090565b828054828255906000526020600020908101928215613694579160200282015b82811115613693578251825591602001919060010190613678565b5b5090506136a19190613797565b5090565b6040518060c00160405280600073ffffffffffffffffffffffffffffffffffffffff168152602001606081526020016060815260200160608152602001600081526020016000151581525090565b6040518060c00160405280600081526020016060815260200160608152602001600073ffffffffffffffffffffffffffffffffffffffff168152602001600015158152602001606081525090565b6040518060800160405280600073ffffffffffffffffffffffffffffffffffffffff16815260200160608152602001600073ffffffffffffffffffffffffffffffffffffffff1681526020016000151581525090565b5b808211156137b0576000816000905550600101613798565b5090565b60006137c76137c284614847565b614816565b905080838252602082019050828560208602820111156137e657600080fd5b60005b8581101561381657816137fc88826138dc565b8452602084019350602083019250506001810190506137e9565b5050509392505050565b600061383361382e84614873565b614816565b90508281526020810184848401111561384b57600080fd5b613856848285614a22565b509392505050565b60008135905061386d81614a77565b92915050565b600082601f83011261388457600080fd5b81356138948482602086016137b4565b91505092915050565b6000813590506138ac81614a8e565b92915050565b600082601f8301126138c357600080fd5b81356138d3848260208601613820565b91505092915050565b6000813590506138eb81614aa5565b92915050565b60006020828403121561390357600080fd5b60006139118482850161385e565b91505092915050565b60008060006060848603121561392f57600080fd5b600061393d8682870161385e565b935050602084013567ffffffffffffffff81111561395a57600080fd5b613966868287016138b2565b92505060406139778682870161385e565b9150509250925092565b6000806000806080858703121561399757600080fd5b60006139a58782880161385e565b945050602085013567ffffffffffffffff8111156139c257600080fd5b6139ce878288016138b2565b93505060406139df8782880161385e565b92505060606139f08782880161389d565b91505092959194509250565b600080600080600060a08688031215613a1457600080fd5b6000613a228882890161385e565b955050602086013567ffffffffffffffff811115613a3f57600080fd5b613a4b888289016138b2565b945050604086013567ffffffffffffffff811115613a6857600080fd5b613a74888289016138b2565b935050606086013567ffffffffffffffff811115613a9157600080fd5b613a9d888289016138b2565b9250506080613aae888289016138dc565b9150509295509295909350565b60008060008060008060c08789031215613ad457600080fd5b6000613ae289828a0161385e565b965050602087013567ffffffffffffffff811115613aff57600080fd5b613b0b89828a016138b2565b955050604087013567ffffffffffffffff811115613b2857600080fd5b613b3489828a016138b2565b945050606087013567ffffffffffffffff811115613b5157600080fd5b613b5d89828a016138b2565b9350506080613b6e89828a016138dc565b92505060a0613b7f89828a0161389d565b9150509295509295509295565b60008060008060808587031215613ba257600080fd5b600085013567ffffffffffffffff811115613bbc57600080fd5b613bc8878288016138b2565b945050602085013567ffffffffffffffff811115613be557600080fd5b613bf1878288016138b2565b9350506040613c028782880161385e565b9250506060613c138782880161389d565b91505092959194509250565b600060208284031215613c3157600080fd5b6000613c3f848285016138dc565b91505092915050565b60008060408385031215613c5b57600080fd5b6000613c69858286016138dc565b925050602083013567ffffffffffffffff811115613c8657600080fd5b613c9285828601613873565b9150509250929050565b600080600080600060a08688031215613cb457600080fd5b6000613cc2888289016138dc565b955050602086013567ffffffffffffffff811115613cdf57600080fd5b613ceb888289016138b2565b945050604086013567ffffffffffffffff811115613d0857600080fd5b613d14888289016138b2565b9350506060613d258882890161385e565b9250506080613d368882890161389d565b9150509295509295909350565b6000613d4f83836141af565b905092915050565b6000613d638383614212565b905092915050565b6000613d7783836142a9565b905092915050565b6000613d8b8383614340565b60208301905092915050565b613da0816149da565b82525050565b613daf816149da565b82525050565b6000613dc0826148f8565b613dca8185614963565b935083602082028501613ddc856148a3565b8060005b85811015613e185784840389528151613df98582613d43565b9450613e048361492f565b925060208a01995050600181019050613de0565b50829750879550505050505092915050565b6000613e3582614903565b613e3f8185614974565b935083602082028501613e51856148b3565b8060005b85811015613e8d5784840389528151613e6e8582613d57565b9450613e798361493c565b925060208a01995050600181019050613e55565b50829750879550505050505092915050565b6000613eaa8261490e565b613eb48185614985565b935083602082028501613ec6856148c3565b8060005b85811015613f025784840389528151613ee38582613d6b565b9450613eee83614949565b925060208a01995050600181019050613eca565b50829750879550505050505092915050565b6000613f1f82614919565b613f298185614996565b9350613f34836148d3565b8060005b83811015613f65578151613f4c8882613d7f565b9750613f5783614956565b925050600181019050613f38565b5085935050505092915050565b6000613f7d82614919565b613f8781856149a7565b9350613f92836148d3565b8060005b83811015613fc3578151613faa8882613d7f565b9750613fb583614956565b925050600181019050613f96565b5085935050505092915050565b613fd9816149ec565b82525050565b613fe8816149ec565b82525050565b6000613ff982614924565b61400381856149b8565b9350614013818560208601614a31565b61401c81614a66565b840191505092915050565b600061403282614924565b61403c81856149c9565b935061404c818560208601614a31565b61405581614a66565b840191505092915050565b60008154600181166000811461407d57600181146140a3576140e7565b607f600283041661408e81876149c9565b955060ff1983168652602086019350506140e7565b600282046140b181876149c9565b95506140bc856148e3565b60005b828110156140de578154818901526001820191506020810190506140bf565b80880195505050505b505092915050565b60006140fc6010836149c9565b91507f446f63746f72206e6f7420666f756e64000000000000000000000000000000006000830152602082019050919050565b600061413c6010836149c9565b91507f53656e736f72206e6f7420666f756e64000000000000000000000000000000006000830152602082019050919050565b600061417c6012836149c9565b91507f486f73706974616c206e6f7420666f756e6400000000000000000000000000006000830152602082019050919050565b60006080830160008301516141c76000860182613d97565b50602083015184820360208601526141df8282613fee565b91505060408301516141f46040860182613d97565b5060608301516142076060860182613fd0565b508091505092915050565b600060c08301600083015161422a6000860182613d97565b50602083015184820360208601526142428282613fee565b9150506040830151848203604086015261425c8282613fee565b915050606083015184820360608601526142768282613fee565b915050608083015161428b6080860182614340565b5060a083015161429e60a0860182613fd0565b508091505092915050565b600060c0830160008301516142c16000860182614340565b50602083015184820360208601526142d98282613fee565b915050604083015184820360408601526142f38282613fee565b91505060608301516143086060860182613d97565b50608083015161431b6080860182613fd0565b5060a083015184820360a08601526143338282613f14565b9150508091505092915050565b61434981614a18565b82525050565b61435881614a18565b82525050565b60006080820190506143736000830187613da6565b81810360208301526143858186614027565b90506143946040830185613da6565b6143a16060830184613fdf565b95945050505050565b600060c0820190506143bf6000830189613da6565b81810360208301526143d18188614027565b905081810360408301526143e58187614027565b905081810360608301526143f98186614027565b9050614408608083018561434f565b61441560a0830184613fdf565b979650505050505050565b60006080820190506144356000830187613da6565b81810360208301526144478186614060565b90506144566040830185613da6565b6144636060830184613fdf565b95945050505050565b600060c0820190506144816000830189613da6565b81810360208301526144938188614060565b905081810360408301526144a78187614060565b905081810360608301526144bb8186614060565b90506144ca608083018561434f565b6144d760a0830184613fdf565b979650505050505050565b600060208201905081810360008301526144fc8184613db5565b905092915050565b6000602082019050818103600083015261451e8184613e2a565b905092915050565b600060208201905081810360008301526145408184613e9f565b905092915050565b600060208201905081810360008301526145628184613f72565b905092915050565b600060608201905081810360008301526145848186614027565b90506145936020830185613da6565b6145a06040830184613fdf565b949350505050565b600060808201905081810360008301526145c28187614027565b905081810360208301526145d68186614027565b90506145e56040830185613da6565b6145f26060830184613fdf565b95945050505050565b600060a08201905081810360008301526146158188614027565b905081810360208301526146298187614027565b9050818103604083015261463d8186614027565b905061464c606083018561434f565b6146596080830184613fdf565b9695505050505050565b6000602082019050818103600083015261467c816140ef565b9050919050565b6000602082019050818103600083015261469c8161412f565b9050919050565b600060208201905081810360008301526146bc8161416f565b9050919050565b60006020820190506146d8600083018461434f565b92915050565b600060a0820190506146f3600083018861434f565b81810360208301526147058187614027565b905081810360408301526147198186614027565b90506147286060830185613da6565b6147356080830184613fdf565b9695505050505050565b600060c082019050614754600083018961434f565b81810360208301526147668188614027565b9050818103604083015261477a8187614027565b90506147896060830186613da6565b6147966080830185613fdf565b81810360a08301526147a88184613f72565b9050979650505050505050565b600060a0820190506147ca600083018861434f565b81810360208301526147dc8187614060565b905081810360408301526147f08186614060565b90506147ff6060830185613da6565b61480c6080830184613fdf565b9695505050505050565b6000604051905081810181811067ffffffffffffffff8211171561483d5761483c614a64565b5b8060405250919050565b600067ffffffffffffffff82111561486257614861614a64565b5b602082029050602081019050919050565b600067ffffffffffffffff82111561488e5761488d614a64565b5b601f19601f8301169050602081019050919050565b6000819050602082019050919050565b6000819050602082019050919050565b6000819050602082019050919050565b6000819050602082019050919050565b60008190508160005260206000209050919050565b600081519050919050565b600081519050919050565b600081519050919050565b600081519050919050565b600081519050919050565b6000602082019050919050565b6000602082019050919050565b6000602082019050919050565b6000602082019050919050565b600082825260208201905092915050565b600082825260208201905092915050565b600082825260208201905092915050565b600082825260208201905092915050565b600082825260208201905092915050565b600082825260208201905092915050565b600082825260208201905092915050565b60006149e5826149f8565b9050919050565b60008115159050919050565b600073ffffffffffffffffffffffffffffffffffffffff82169050919050565b6000819050919050565b82818337600083830152505050565b60005b83811015614a4f578082015181840152602081019050614a34565b83811115614a5e576000848401525b50505050565bfe5b6000601f19601f8301169050919050565b614a80816149da565b8114614a8b57600080fd5b50565b614a97816149ec565b8114614aa257600080fd5b50565b614aae81614a18565b8114614ab957600080fd5b5056fea26469706673582212208311a2e1a215437ffbbbcd5b92127d271351bb96d8789285563aef1e2bb4680064736f6c63430007060033",
      "opcodes": "PUSH1 0x80 PUSH1 0x40 MSTORE PUSH20 0x8FCF3B91599C6D5BB93D8C7DF9F3974C622B83A4 PUSH1 0x2 PUSH1 0x0 PUSH2 0x100 EXP DUP2 SLOAD DUP2 PUSH20 0xFFFFFFFFFFFFFFFFFFFFFFFFFFFFFFFFFFFFFFFF MUL NOT AND SWAP1 DUP4 PUSH20 0xFFFFFFFFFFFFFFFFFFFFFFFFFFFFFFFFFFFFFFFF AND MUL OR SWAP1 SSTORE POP CALLVALUE DUP1 ISZERO PUSH2 0x65 JUMPI PUSH1 0x0 DUP1 REVERT JUMPDEST POP PUSH2 0x4AF2 DUP1 PUSH2 0x75 PUSH1 0x0 CODECOPY PUSH1 0x0 RETURN INVALID PUSH1 0x80 PUSH1 0x40 MSTORE CALLVALUE DUP1 ISZERO PUSH2 0x10 JUMPI PUSH1 0x0 DUP1 REVERT JUMPDEST POP PUSH1 0x4 CALLDATASIZE LT PUSH2 0x1C4 JUMPI PUSH1 0x0 CALLDATALOAD PUSH1 0xE0 SHR DUP1 PUSH4 0x9A2E5BED GT PUSH2 0xF9 JUMPI DUP1 PUSH4 0xC266406D GT PUSH2 0x97 JUMPI DUP1 PUSH4 0xDC7AA36B GT PUSH2 0x71 JUMPI DUP1 PUSH4 0xDC7AA36B EQ PUSH2 0x555 JUMPI DUP1 PUSH4 0xE1EE3B56 EQ PUSH2 0x588 JUMPI DUP1 PUSH4 0xEA87659F EQ PUSH2 0x5A4 JUMPI DUP1 PUSH4 0xF0D95090 EQ PUSH2 0x5D8 JUMPI PUSH2 0x1C4 JUMP JUMPDEST DUP1 PUSH4 0xC266406D EQ PUSH2 0x4C0 JUMPI DUP1 PUSH4 0xC3F4C25F EQ PUSH2 0x4F0 JUMPI DUP1 PUSH4 0xD53D0A85 EQ PUSH2 0x520 JUMPI PUSH2 0x1C4 JUMP JUMPDEST DUP1 PUSH4 0xA17D7A38 GT PUSH2 0xD3 JUMPI DUP1 PUSH4 0xA17D7A38 EQ PUSH2 0x433 JUMPI DUP1 PUSH4 0xA27876C5 EQ PUSH2 0x451 JUMPI DUP1 PUSH4 0xA549A4ED EQ PUSH2 0x46D JUMPI DUP1 PUSH4 0xB5843613 EQ PUSH2 0x4A2 JUMPI PUSH2 0x1C4 JUMP JUMPDEST DUP1 PUSH4 0x9A2E5BED EQ PUSH2 0x3B3 JUMPI DUP1 PUSH4 0x9B70E779 EQ PUSH2 0x3E3 JUMPI DUP1 PUSH4 0xA0568E2D EQ PUSH2 0x417 JUMPI PUSH2 0x1C4 JUMP JUMPDEST DUP1 PUSH4 0x60EA3CDC GT PUSH2 0x166 JUMPI DUP1 PUSH4 0x6F39507D GT PUSH2 0x140 JUMPI DUP1 PUSH4 0x6F39507D EQ PUSH2 0x314 JUMPI DUP1 PUSH4 0x7FE53F83 EQ PUSH2 0x330 JUMPI DUP1 PUSH4 0x898BD140 EQ PUSH2 0x34C JUMPI DUP1 PUSH4 0x8DB2FC41 EQ PUSH2 0x380 JUMPI PUSH2 0x1C4 JUMP JUMPDEST DUP1 PUSH4 0x60EA3CDC EQ PUSH2 0x2AA JUMPI DUP1 PUSH4 0x6151EFB1 EQ PUSH2 0x2C6 JUMPI DUP1 PUSH4 0x6CD8EBDC EQ PUSH2 0x2E2 JUMPI PUSH2 0x1C4 JUMP JUMPDEST DUP1 PUSH4 0x4444CC92 GT PUSH2 0x1A2 JUMPI DUP1 PUSH4 0x4444CC92 EQ PUSH2 0x236 JUMPI DUP1 PUSH4 0x4807FC69 EQ PUSH2 0x252 JUMPI DUP1 PUSH4 0x4E9F7154 EQ PUSH2 0x26E JUMPI DUP1 PUSH4 0x5A4E5D3E EQ PUSH2 0x28C JUMPI PUSH2 0x1C4 JUMP JUMPDEST DUP1 PUSH4 0x2655C2E EQ PUSH2 0x1C9 JUMPI DUP1 PUSH4 0x1B057E40 EQ PUSH2 0x1FC JUMPI DUP1 PUSH4 0x1BA51696 EQ PUSH2 0x218 JUMPI JUMPDEST PUSH1 0x0 DUP1 REVERT JUMPDEST PUSH2 0x1E3 PUSH1 0x4 DUP1 CALLDATASIZE SUB DUP2 ADD SWAP1 PUSH2 0x1DE SWAP2 SWAP1 PUSH2 0x3C1F JUMP JUMPDEST PUSH2 0x5F6 JUMP JUMPDEST PUSH1 0x40 MLOAD PUSH2 0x1F3 SWAP5 SWAP4 SWAP3 SWAP2 SWAP1 PUSH2 0x45A8 JUMP JUMPDEST PUSH1 0x40 MLOAD DUP1 SWAP2 SUB SWAP1 RETURN JUMPDEST PUSH2 0x216 PUSH1 0x4 DUP1 CALLDATASIZE SUB DUP2 ADD SWAP1 PUSH2 0x211 SWAP2 SWAP1 PUSH2 0x3B8C JUMP JUMPDEST PUSH2 0x7F8 JUMP JUMPDEST STOP JUMPDEST PUSH2 0x220 PUSH2 0x99C JUMP JUMPDEST PUSH1 0x40 MLOAD PUSH2 0x22D SWAP2 SWAP1 PUSH2 0x46C3 JUMP JUMPDEST PUSH1 0x40 MLOAD DUP1 SWAP2 SUB SWAP1 RETURN JUMPDEST PUSH2 0x250 PUSH1 0x4 DUP1 CALLDATASIZE SUB DUP2 ADD SWAP1 PUSH2 0x24B SWAP2 SWAP1 PUSH2 0x3C48 JUMP JUMPDEST PUSH2 0x9A9 JUMP JUMPDEST STOP JUMPDEST PUSH2 0x26C PUSH1 0x4 DUP1 CALLDATASIZE SUB DUP2 ADD SWAP1 PUSH2 0x267 SWAP2 SWAP1 PUSH2 0x38F1 JUMP JUMPDEST PUSH2 0x9EE JUMP JUMPDEST STOP JUMPDEST PUSH2 0x276 PUSH2 0xB55 JUMP JUMPDEST PUSH1 0x40 MLOAD PUSH2 0x283 SWAP2 SWAP1 PUSH2 0x4504 JUMP JUMPDEST PUSH1 0x40 MLOAD DUP1 SWAP2 SUB SWAP1 RETURN JUMPDEST PUSH2 0x294 PUSH2 0xE75 JUMP JUMPDEST PUSH1 0x40 MLOAD PUSH2 0x2A1 SWAP2 SWAP1 PUSH2 0x4526 JUMP JUMPDEST PUSH1 0x40 MLOAD DUP1 SWAP2 SUB SWAP1 RETURN JUMPDEST PUSH2 0x2C4 PUSH1 0x4 DUP1 CALLDATASIZE SUB DUP2 ADD SWAP1 PUSH2 0x2BF SWAP2 SWAP1 PUSH2 0x3981 JUMP JUMPDEST PUSH2 0x114B JUMP JUMPDEST STOP JUMPDEST PUSH2 0x2E0 PUSH1 0x4 DUP1 CALLDATASIZE SUB DUP2 ADD SWAP1 PUSH2 0x2DB SWAP2 SWAP1 PUSH2 0x3C1F JUMP JUMPDEST PUSH2 0x1326 JUMP JUMPDEST STOP JUMPDEST PUSH2 0x2FC PUSH1 0x4 DUP1 CALLDATASIZE SUB DUP2 ADD SWAP1 PUSH2 0x2F7 SWAP2 SWAP1 PUSH2 0x38F1 JUMP JUMPDEST PUSH2 0x146E JUMP JUMPDEST PUSH1 0x40 MLOAD PUSH2 0x30B SWAP4 SWAP3 SWAP2 SWAP1 PUSH2 0x456A JUMP JUMPDEST PUSH1 0x40 MLOAD DUP1 SWAP2 SUB SWAP1 RETURN JUMPDEST PUSH2 0x32E PUSH1 0x4 DUP1 CALLDATASIZE SUB DUP2 ADD SWAP1 PUSH2 0x329 SWAP2 SWAP1 PUSH2 0x3C9C JUMP JUMPDEST PUSH2 0x15B3 JUMP JUMPDEST STOP JUMPDEST PUSH2 0x34A PUSH1 0x4 DUP1 CALLDATASIZE SUB DUP2 ADD SWAP1 PUSH2 0x345 SWAP2 SWAP1 PUSH2 0x3ABB JUMP JUMPDEST PUSH2 0x17C1 JUMP JUMPDEST STOP JUMPDEST PUSH2 0x366 PUSH1 0x4 DUP1 CALLDATASIZE SUB DUP2 ADD SWAP1 PUSH2 0x361 SWAP2 SWAP1 PUSH2 0x38F1 JUMP JUMPDEST PUSH2 0x19E8 JUMP JUMPDEST PUSH1 0x40 MLOAD PUSH2 0x377 SWAP6 SWAP5 SWAP4 SWAP3 SWAP2 SWAP1 PUSH2 0x46DE JUMP JUMPDEST PUSH1 0x40 MLOAD DUP1 SWAP2 SUB SWAP1 RETURN JUMPDEST PUSH2 0x39A PUSH1 0x4 DUP1 CALLDATASIZE SUB DUP2 ADD SWAP1 PUSH2 0x395 SWAP2 SWAP1 PUSH2 0x3C1F JUMP JUMPDEST PUSH2 0x1B7B JUMP JUMPDEST PUSH1 0x40 MLOAD PUSH2 0x3AA SWAP5 SWAP4 SWAP3 SWAP2 SWAP1 PUSH2 0x435E JUMP JUMPDEST PUSH1 0x40 MLOAD DUP1 SWAP2 SUB SWAP1 RETURN JUMPDEST PUSH2 0x3CD PUSH1 0x4 DUP1 CALLDATASIZE SUB DUP2 ADD SWAP1 PUSH2 0x3C8 SWAP2 SWAP1 PUSH2 0x38F1 JUMP JUMPDEST PUSH2 0x1CA0 JUMP JUMPDEST PUSH1 0x40 MLOAD PUSH2 0x3DA SWAP2 SWAP1 PUSH2 0x4526 JUMP JUMPDEST PUSH1 0x40 MLOAD DUP1 SWAP2 SUB SWAP1 RETURN JUMPDEST PUSH2 0x3FD PUSH1 0x4 DUP1 CALLDATASIZE SUB DUP2 ADD SWAP1 PUSH2 0x3F8 SWAP2 SWAP1 PUSH2 0x38F1 JUMP JUMPDEST PUSH2 0x1FEB JUMP JUMPDEST PUSH1 0x40 MLOAD PUSH2 0x40E SWAP6 SWAP5 SWAP4 SWAP3 SWAP2 SWAP1 PUSH2 0x45FB JUMP JUMPDEST PUSH1 0x40 MLOAD DUP1 SWAP2 SUB SWAP1 RETURN JUMPDEST PUSH2 0x431 PUSH1 0x4 DUP1 CALLDATASIZE SUB DUP2 ADD SWAP1 PUSH2 0x42C SWAP2 SWAP1 PUSH2 0x38F1 JUMP JUMPDEST PUSH2 0x228D JUMP JUMPDEST STOP JUMPDEST PUSH2 0x43B PUSH2 0x23D6 JUMP JUMPDEST PUSH1 0x40 MLOAD PUSH2 0x448 SWAP2 SWAP1 PUSH2 0x46C3 JUMP JUMPDEST PUSH1 0x40 MLOAD DUP1 SWAP2 SUB SWAP1 RETURN JUMPDEST PUSH2 0x46B PUSH1 0x4 DUP1 CALLDATASIZE SUB DUP2 ADD SWAP1 PUSH2 0x466 SWAP2 SWAP1 PUSH2 0x39FC JUMP JUMPDEST PUSH2 0x23E3 JUMP JUMPDEST STOP JUMPDEST PUSH2 0x487 PUSH1 0x4 DUP1 CALLDATASIZE SUB DUP2 ADD SWAP1 PUSH2 0x482 SWAP2 SWAP1 PUSH2 0x38F1 JUMP JUMPDEST PUSH2 0x2567 JUMP JUMPDEST PUSH1 0x40 MLOAD PUSH2 0x499 SWAP7 SWAP6 SWAP5 SWAP4 SWAP3 SWAP2 SWAP1 PUSH2 0x43AA JUMP JUMPDEST PUSH1 0x40 MLOAD DUP1 SWAP2 SUB SWAP1 RETURN JUMPDEST PUSH2 0x4AA PUSH2 0x2798 JUMP JUMPDEST PUSH1 0x40 MLOAD PUSH2 0x4B7 SWAP2 SWAP1 PUSH2 0x46C3 JUMP JUMPDEST PUSH1 0x40 MLOAD DUP1 SWAP2 SUB SWAP1 RETURN JUMPDEST PUSH2 0x4DA PUSH1 0x4 DUP1 CALLDATASIZE SUB DUP2 ADD SWAP1 PUSH2 0x4D5 SWAP2 SWAP1 PUSH2 0x38F1 JUMP JUMPDEST PUSH2 0x27A5 JUMP JUMPDEST PUSH1 0x40 MLOAD PUSH2 0x4E7 SWAP2 SWAP1 PUSH2 0x44E2 JUMP JUMPDEST PUSH1 0x40 MLOAD DUP1 SWAP2 SUB SWAP1 RETURN JUMPDEST PUSH2 0x50A PUSH1 0x4 DUP1 CALLDATASIZE SUB DUP2 ADD SWAP1 PUSH2 0x505 SWAP2 SWAP1 PUSH2 0x3C1F JUMP JUMPDEST PUSH2 0x2A42 JUMP JUMPDEST PUSH1 0x40 MLOAD PUSH2 0x517 SWAP2 SWAP1 PUSH2 0x4548 JUMP JUMPDEST PUSH1 0x40 MLOAD DUP1 SWAP2 SUB SWAP1 RETURN JUMPDEST PUSH2 0x53A PUSH1 0x4 DUP1 CALLDATASIZE SUB DUP2 ADD SWAP1 PUSH2 0x535 SWAP2 SWAP1 PUSH2 0x3C1F JUMP JUMPDEST PUSH2 0x2AC6 JUMP JUMPDEST PUSH1 0x40 MLOAD PUSH2 0x54C SWAP7 SWAP6 SWAP5 SWAP4 SWAP3 SWAP2 SWAP1 PUSH2 0x43AA JUMP JUMPDEST PUSH1 0x40 MLOAD DUP1 SWAP2 SUB SWAP1 RETURN JUMPDEST PUSH2 0x56F PUSH1 0x4 DUP1 CALLDATASIZE SUB DUP2 ADD SWAP1 PUSH2 0x56A SWAP2 SWAP1 PUSH2 0x38F1 JUMP JUMPDEST PUSH2 0x2D07 JUMP JUMPDEST PUSH1 0x40 MLOAD PUSH2 0x57F SWAP5 SWAP4 SWAP3 SWAP2 SWAP1 PUSH2 0x435E JUMP JUMPDEST PUSH1 0x40 MLOAD DUP1 SWAP2 SUB SWAP1 RETURN JUMPDEST PUSH2 0x5A2 PUSH1 0x4 DUP1 CALLDATASIZE SUB DUP2 ADD SWAP1 PUSH2 0x59D SWAP2 SWAP1 PUSH2 0x391A JUMP JUMPDEST PUSH2 0x2E1C JUMP JUMPDEST STOP JUMPDEST PUSH2 0x5BE PUSH1 0x4 DUP1 CALLDATASIZE SUB DUP2 ADD SWAP1 PUSH2 0x5B9 SWAP2 SWAP1 PUSH2 0x3C1F JUMP JUMPDEST PUSH2 0x2FB1 JUMP JUMPDEST PUSH1 0x40 MLOAD PUSH2 0x5CF SWAP6 SWAP5 SWAP4 SWAP3 SWAP2 SWAP1 PUSH2 0x46DE JUMP JUMPDEST PUSH1 0x40 MLOAD DUP1 SWAP2 SUB SWAP1 RETURN JUMPDEST PUSH2 0x5E0 PUSH2 0x3154 JUMP JUMPDEST PUSH1 0x40 MLOAD PUSH2 0x5ED SWAP2 SWAP1 PUSH2 0x44E2 JUMP JUMPDEST PUSH1 0x40 MLOAD DUP1 SWAP2 SUB SWAP1 RETURN JUMPDEST PUSH1 0x60 DUP1 PUSH1 0x0 DUP1 PUSH1 0x0 PUSH2 0x607 DUP7 PUSH2 0x337C JUMP JUMPDEST SWAP1 POP PUSH1 0x8 DUP2 DUP2 SLOAD DUP2 LT PUSH2 0x616 JUMPI INVALID JUMPDEST SWAP1 PUSH1 0x0 MSTORE PUSH1 0x20 PUSH1 0x0 KECCAK256 SWAP1 PUSH1 0x5 MUL ADD PUSH1 0x1 ADD PUSH1 0x8 DUP3 DUP2 SLOAD DUP2 LT PUSH2 0x634 JUMPI INVALID JUMPDEST SWAP1 PUSH1 0x0 MSTORE PUSH1 0x20 PUSH1 0x0 KECCAK256 SWAP1 PUSH1 0x5 MUL ADD PUSH1 0x2 ADD PUSH1 0x8 DUP4 DUP2 SLOAD DUP2 LT PUSH2 0x652 JUMPI INVALID JUMPDEST SWAP1 PUSH1 0x0 MSTORE PUSH1 0x20 PUSH1 0x0 KECCAK256 SWAP1 PUSH1 0x5 MUL ADD PUSH1 0x3 ADD PUSH1 0x0 SWAP1 SLOAD SWAP1 PUSH2 0x100 EXP SWAP1 DIV PUSH20 0xFFFFFFFFFFFFFFFFFFFFFFFFFFFFFFFFFFFFFFFF AND PUSH1 0x8 DUP5 DUP2 SLOAD DUP2 LT PUSH2 0x691 JUMPI INVALID JUMPDEST SWAP1 PUSH1 0x0 MSTORE PUSH1 0x20 PUSH1 0x0 KECCAK256 SWAP1 PUSH1 0x5 MUL ADD PUSH1 0x3 ADD PUSH1 0x14 SWAP1 SLOAD SWAP1 PUSH2 0x100 EXP SWAP1 DIV PUSH1 0xFF AND DUP4 DUP1 SLOAD PUSH1 0x1 DUP2 PUSH1 0x1 AND ISZERO PUSH2 0x100 MUL SUB AND PUSH1 0x2 SWAP1 DIV DUP1 PUSH1 0x1F ADD PUSH1 0x20 DUP1 SWAP2 DIV MUL PUSH1 0x20 ADD PUSH1 0x40 MLOAD SWAP1 DUP2 ADD PUSH1 0x40 MSTORE DUP1 SWAP3 SWAP2 SWAP1 DUP2 DUP2 MSTORE PUSH1 0x20 ADD DUP3 DUP1 SLOAD PUSH1 0x1 DUP2 PUSH1 0x1 AND ISZERO PUSH2 0x100 MUL SUB AND PUSH1 0x2 SWAP1 DIV DUP1 ISZERO PUSH2 0x745 JUMPI DUP1 PUSH1 0x1F LT PUSH2 0x71A JUMPI PUSH2 0x100 DUP1 DUP4 SLOAD DIV MUL DUP4 MSTORE SWAP2 PUSH1 0x20 ADD SWAP2 PUSH2 0x745 JUMP JUMPDEST DUP3 ADD SWAP2 SWAP1 PUSH1 0x0 MSTORE PUSH1 0x20 PUSH1 0x0 KECCAK256 SWAP1 JUMPDEST DUP2 SLOAD DUP2 MSTORE SWAP1 PUSH1 0x1 ADD SWAP1 PUSH1 0x20 ADD DUP1 DUP4 GT PUSH2 0x728 JUMPI DUP3 SWAP1 SUB PUSH1 0x1F AND DUP3 ADD SWAP2 JUMPDEST POP POP POP POP POP SWAP4 POP DUP3 DUP1 SLOAD PUSH1 0x1 DUP2 PUSH1 0x1 AND ISZERO PUSH2 0x100 MUL SUB AND PUSH1 0x2 SWAP1 DIV DUP1 PUSH1 0x1F ADD PUSH1 0x20 DUP1 SWAP2 DIV MUL PUSH1 0x20 ADD PUSH1 0x40 MLOAD SWAP1 DUP2 ADD PUSH1 0x40 MSTORE DUP1 SWAP3 SWAP2 SWAP1 DUP2 DUP2 MSTORE PUSH1 0x20 ADD DUP3 DUP1 SLOAD PUSH1 0x1 DUP2 PUSH1 0x1 AND ISZERO PUSH2 0x100 MUL SUB AND PUSH1 0x2 SWAP1 DIV DUP1 ISZERO PUSH2 0x7E1 JUMPI DUP1 PUSH1 0x1F LT PUSH2 0x7B6 JUMPI PUSH2 0x100 DUP1 DUP4 SLOAD DIV MUL DUP4 MSTORE SWAP2 PUSH1 0x20 ADD SWAP2 PUSH2 0x7E1 JUMP JUMPDEST DUP3 ADD SWAP2 SWAP1 PUSH1 0x0 MSTORE PUSH1 0x20 PUSH1 0x0 KECCAK256 SWAP1 JUMPDEST DUP2 SLOAD DUP2 MSTORE SWAP1 PUSH1 0x1 ADD SWAP1 PUSH1 0x20 ADD DUP1 DUP4 GT PUSH2 0x7C4 JUMPI DUP3 SWAP1 SUB PUSH1 0x1F AND DUP3 ADD SWAP2 JUMPDEST POP POP POP POP POP SWAP3 POP SWAP5 POP SWAP5 POP SWAP5 POP SWAP5 POP POP SWAP2 SWAP4 POP SWAP2 SWAP4 JUMP JUMPDEST PUSH2 0x801 DUP3 PUSH2 0x340E JUMP JUMPDEST POP PUSH1 0x60 PUSH1 0x8 PUSH1 0x40 MLOAD DUP1 PUSH1 0xC0 ADD PUSH1 0x40 MSTORE DUP1 PUSH1 0x1 SLOAD DUP2 MSTORE PUSH1 0x20 ADD DUP8 DUP2 MSTORE PUSH1 0x20 ADD DUP7 DUP2 MSTORE PUSH1 0x20 ADD DUP6 PUSH20 0xFFFFFFFFFFFFFFFFFFFFFFFFFFFFFFFFFFFFFFFF AND DUP2 MSTORE PUSH1 0x20 ADD DUP5 ISZERO ISZERO DUP2 MSTORE PUSH1 0x20 ADD DUP4 DUP2 MSTORE POP SWAP1 DUP1 PUSH1 0x1 DUP2 SLOAD ADD DUP1 DUP3 SSTORE DUP1 SWAP2 POP POP PUSH1 0x1 SWAP1 SUB SWAP1 PUSH1 0x0 MSTORE PUSH1 0x20 PUSH1 0x0 KECCAK256 SWAP1 PUSH1 0x5 MUL ADD PUSH1 0x0 SWAP1 SWAP2 SWAP1 SWAP2 SWAP1 SWAP2 POP PUSH1 0x0 DUP3 ADD MLOAD DUP2 PUSH1 0x0 ADD SSTORE PUSH1 0x20 DUP3 ADD MLOAD DUP2 PUSH1 0x1 ADD SWAP1 DUP1 MLOAD SWAP1 PUSH1 0x20 ADD SWAP1 PUSH2 0x89C SWAP3 SWAP2 SWAP1 PUSH2 0x35CA JUMP JUMPDEST POP PUSH1 0x40 DUP3 ADD MLOAD DUP2 PUSH1 0x2 ADD SWAP1 DUP1 MLOAD SWAP1 PUSH1 0x20 ADD SWAP1 PUSH2 0x8B9 SWAP3 SWAP2 SWAP1 PUSH2 0x35CA JUMP JUMPDEST POP PUSH1 0x60 DUP3 ADD MLOAD DUP2 PUSH1 0x3 ADD PUSH1 0x0 PUSH2 0x100 EXP DUP2 SLOAD DUP2 PUSH20 0xFFFFFFFFFFFFFFFFFFFFFFFFFFFFFFFFFFFFFFFF MUL NOT AND SWAP1 DUP4 PUSH20 0xFFFFFFFFFFFFFFFFFFFFFFFFFFFFFFFFFFFFFFFF AND MUL OR SWAP1 SSTORE POP PUSH1 0x80 DUP3 ADD MLOAD DUP2 PUSH1 0x3 ADD PUSH1 0x14 PUSH2 0x100 EXP DUP2 SLOAD DUP2 PUSH1 0xFF MUL NOT AND SWAP1 DUP4 ISZERO ISZERO MUL OR SWAP1 SSTORE POP PUSH1 0xA0 DUP3 ADD MLOAD DUP2 PUSH1 0x4 ADD SWAP1 DUP1 MLOAD SWAP1 PUSH1 0x20 ADD SWAP1 PUSH2 0x93D SWAP3 SWAP2 SWAP1 PUSH2 0x3658 JUMP JUMPDEST POP POP POP PUSH32 0x23F4CEEA50D8EF88465D5BB07AB2960540F3C2414851CF0A137F2EE3A4AB6FA8 PUSH1 0x1 SLOAD DUP7 DUP7 DUP7 DUP7 DUP7 PUSH1 0x40 MLOAD PUSH2 0x97B SWAP7 SWAP6 SWAP5 SWAP4 SWAP3 SWAP2 SWAP1 PUSH2 0x473F JUMP JUMPDEST PUSH1 0x40 MLOAD DUP1 SWAP2 SUB SWAP1 LOG1 PUSH1 0x1 PUSH1 0x0 DUP2 SLOAD DUP1 SWAP3 SWAP2 SWAP1 PUSH1 0x1 ADD SWAP2 SWAP1 POP SSTORE POP POP POP POP POP POP JUMP JUMPDEST PUSH1 0x0 PUSH1 0x4 DUP1 SLOAD SWAP1 POP SWAP1 POP SWAP1 JUMP JUMPDEST PUSH1 0x0 PUSH2 0x9B4 DUP4 PUSH2 0x337C JUMP JUMPDEST SWAP1 POP DUP2 PUSH1 0x8 DUP3 DUP2 SLOAD DUP2 LT PUSH2 0x9C4 JUMPI INVALID JUMPDEST SWAP1 PUSH1 0x0 MSTORE PUSH1 0x20 PUSH1 0x0 KECCAK256 SWAP1 PUSH1 0x5 MUL ADD PUSH1 0x4 ADD SWAP1 DUP1 MLOAD SWAP1 PUSH1 0x20 ADD SWAP1 PUSH2 0x9E8 SWAP3 SWAP2 SWAP1 PUSH2 0x3658 JUMP JUMPDEST POP POP POP POP JUMP JUMPDEST PUSH1 0x0 PUSH2 0x9F9 DUP3 PUSH2 0x34EC JUMP JUMPDEST SWAP1 POP PUSH1 0x0 PUSH1 0x4 DUP3 DUP2 SLOAD DUP2 LT PUSH2 0xA0A JUMPI INVALID JUMPDEST SWAP1 PUSH1 0x0 MSTORE PUSH1 0x20 PUSH1 0x0 KECCAK256 SWAP1 PUSH1 0x6 MUL ADD PUSH1 0x5 ADD PUSH1 0x0 PUSH2 0x100 EXP DUP2 SLOAD DUP2 PUSH1 0xFF MUL NOT AND SWAP1 DUP4 ISZERO ISZERO MUL OR SWAP1 SSTORE POP PUSH32 0x5818F5E23A2C2BB34C81792EA8E3397D3F8AD179CB93A5FA57B3D4681564AA0 PUSH1 0x4 DUP3 DUP2 SLOAD DUP2 LT PUSH2 0xA60 JUMPI INVALID JUMPDEST SWAP1 PUSH1 0x0 MSTORE PUSH1 0x20 PUSH1 0x0 KECCAK256 SWAP1 PUSH1 0x6 MUL ADD PUSH1 0x0 ADD PUSH1 0x0 SWAP1 SLOAD SWAP1 PUSH2 0x100 EXP SWAP1 DIV PUSH20 0xFFFFFFFFFFFFFFFFFFFFFFFFFFFFFFFFFFFFFFFF AND PUSH1 0x4 DUP4 DUP2 SLOAD DUP2 LT PUSH2 0xA9F JUMPI INVALID JUMPDEST SWAP1 PUSH1 0x0 MSTORE PUSH1 0x20 PUSH1 0x0 KECCAK256 SWAP1 PUSH1 0x6 MUL ADD PUSH1 0x1 ADD PUSH1 0x4 DUP5 DUP2 SLOAD DUP2 LT PUSH2 0xABD JUMPI INVALID JUMPDEST SWAP1 PUSH1 0x0 MSTORE PUSH1 0x20 PUSH1 0x0 KECCAK256 SWAP1 PUSH1 0x6 MUL ADD PUSH1 0x2 ADD PUSH1 0x4 DUP6 DUP2 SLOAD DUP2 LT PUSH2 0xADB JUMPI INVALID JUMPDEST SWAP1 PUSH1 0x0 MSTORE PUSH1 0x20 PUSH1 0x0 KECCAK256 SWAP1 PUSH1 0x6 MUL ADD PUSH1 0x3 ADD PUSH1 0x4 DUP7 DUP2 SLOAD DUP2 LT PUSH2 0xAF9 JUMPI INVALID JUMPDEST SWAP1 PUSH1 0x0 MSTORE PUSH1 0x20 PUSH1 0x0 KECCAK256 SWAP1 PUSH1 0x6 MUL ADD PUSH1 0x4 ADD SLOAD PUSH1 0x4 DUP8 DUP2 SLOAD DUP2 LT PUSH2 0xB18 JUMPI INVALID JUMPDEST SWAP1 PUSH1 0x0 MSTORE PUSH1 0x20 PUSH1 0x0 KECCAK256 SWAP1 PUSH1 0x6 MUL ADD PUSH1 0x5 ADD PUSH1 0x0 SWAP1 SLOAD SWAP1 PUSH2 0x100 EXP SWAP1 DIV PUSH1 0xFF AND PUSH1 0x40 MLOAD PUSH2 0xB49 SWAP7 SWAP6 SWAP5 SWAP4 SWAP3 SWAP2 SWAP1 PUSH2 0x446C JUMP JUMPDEST PUSH1 0x40 MLOAD DUP1 SWAP2 SUB SWAP1 LOG1 POP POP JUMP JUMPDEST PUSH1 0x60 PUSH1 0x0 PUSH1 0x4 DUP1 SLOAD SWAP1 POP PUSH8 0xFFFFFFFFFFFFFFFF DUP2 GT DUP1 ISZERO PUSH2 0xB75 JUMPI PUSH1 0x0 DUP1 REVERT JUMPDEST POP PUSH1 0x40 MLOAD SWAP1 DUP1 DUP3 MSTORE DUP1 PUSH1 0x20 MUL PUSH1 0x20 ADD DUP3 ADD PUSH1 0x40 MSTORE DUP1 ISZERO PUSH2 0xBAF JUMPI DUP2 PUSH1 0x20 ADD JUMPDEST PUSH2 0xB9C PUSH2 0x36A5 JUMP JUMPDEST DUP2 MSTORE PUSH1 0x20 ADD SWAP1 PUSH1 0x1 SWAP1 SUB SWAP1 DUP2 PUSH2 0xB94 JUMPI SWAP1 POP JUMPDEST POP SWAP1 POP PUSH1 0x0 JUMPDEST PUSH1 0x4 DUP1 SLOAD SWAP1 POP DUP2 LT ISZERO PUSH2 0xE6D JUMPI PUSH1 0x4 DUP2 DUP2 SLOAD DUP2 LT PUSH2 0xBCF JUMPI INVALID JUMPDEST SWAP1 PUSH1 0x0 MSTORE PUSH1 0x20 PUSH1 0x0 KECCAK256 SWAP1 PUSH1 0x6 MUL ADD PUSH1 0x40 MLOAD DUP1 PUSH1 0xC0 ADD PUSH1 0x40 MSTORE SWAP1 DUP2 PUSH1 0x0 DUP3 ADD PUSH1 0x0 SWAP1 SLOAD SWAP1 PUSH2 0x100 EXP SWAP1 DIV PUSH20 0xFFFFFFFFFFFFFFFFFFFFFFFFFFFFFFFFFFFFFFFF AND PUSH20 0xFFFFFFFFFFFFFFFFFFFFFFFFFFFFFFFFFFFFFFFF AND PUSH20 0xFFFFFFFFFFFFFFFFFFFFFFFFFFFFFFFFFFFFFFFF AND DUP2 MSTORE PUSH1 0x20 ADD PUSH1 0x1 DUP3 ADD DUP1 SLOAD PUSH1 0x1 DUP2 PUSH1 0x1 AND ISZERO PUSH2 0x100 MUL SUB AND PUSH1 0x2 SWAP1 DIV DUP1 PUSH1 0x1F ADD PUSH1 0x20 DUP1 SWAP2 DIV MUL PUSH1 0x20 ADD PUSH1 0x40 MLOAD SWAP1 DUP2 ADD PUSH1 0x40 MSTORE DUP1 SWAP3 SWAP2 SWAP1 DUP2 DUP2 MSTORE PUSH1 0x20 ADD DUP3 DUP1 SLOAD PUSH1 0x1 DUP2 PUSH1 0x1 AND ISZERO PUSH2 0x100 MUL SUB AND PUSH1 0x2 SWAP1 DIV DUP1 ISZERO PUSH2 0xCD7 JUMPI DUP1 PUSH1 0x1F LT PUSH2 0xCAC JUMPI PUSH2 0x100 DUP1 DUP4 SLOAD DIV MUL DUP4 MSTORE SWAP2 PUSH1 0x20 ADD SWAP2 PUSH2 0xCD7 JUMP JUMPDEST DUP3 ADD SWAP2 SWAP1 PUSH1 0x0 MSTORE PUSH1 0x20 PUSH1 0x0 KECCAK256 SWAP1 JUMPDEST DUP2 SLOAD DUP2 MSTORE SWAP1 PUSH1 0x1 ADD SWAP1 PUSH1 0x20 ADD DUP1 DUP4 GT PUSH2 0xCBA JUMPI DUP3 SWAP1 SUB PUSH1 0x1F AND DUP3 ADD SWAP2 JUMPDEST POP POP POP POP POP DUP2 MSTORE PUSH1 0x20 ADD PUSH1 0x2 DUP3 ADD DUP1 SLOAD PUSH1 0x1 DUP2 PUSH1 0x1 AND ISZERO PUSH2 0x100 MUL SUB AND PUSH1 0x2 SWAP1 DIV DUP1 PUSH1 0x1F ADD PUSH1 0x20 DUP1 SWAP2 DIV MUL PUSH1 0x20 ADD PUSH1 0x40 MLOAD SWAP1 DUP2 ADD PUSH1 0x40 MSTORE DUP1 SWAP3 SWAP2 SWAP1 DUP2 DUP2 MSTORE PUSH1 0x20 ADD DUP3 DUP1 SLOAD PUSH1 0x1 DUP2 PUSH1 0x1 AND ISZERO PUSH2 0x100 MUL SUB AND PUSH1 0x2 SWAP1 DIV DUP1 ISZERO PUSH2 0xD79 JUMPI DUP1 PUSH1 0x1F LT PUSH2 0xD4E JUMPI PUSH2 0x100 DUP1 DUP4 SLOAD DIV MUL DUP4 MSTORE SWAP2 PUSH1 0x20 ADD SWAP2 PUSH2 0xD79 JUMP JUMPDEST DUP3 ADD SWAP2 SWAP1 PUSH1 0x0 MSTORE PUSH1 0x20 PUSH1 0x0 KECCAK256 SWAP1 JUMPDEST DUP2 SLOAD DUP2 MSTORE SWAP1 PUSH1 0x1 ADD SWAP1 PUSH1 0x20 ADD DUP1 DUP4 GT PUSH2 0xD5C JUMPI DUP3 SWAP1 SUB PUSH1 0x1F AND DUP3 ADD SWAP2 JUMPDEST POP POP POP POP POP DUP2 MSTORE PUSH1 0x20 ADD PUSH1 0x3 DUP3 ADD DUP1 SLOAD PUSH1 0x1 DUP2 PUSH1 0x1 AND ISZERO PUSH2 0x100 MUL SUB AND PUSH1 0x2 SWAP1 DIV DUP1 PUSH1 0x1F ADD PUSH1 0x20 DUP1 SWAP2 DIV MUL PUSH1 0x20 ADD PUSH1 0x40 MLOAD SWAP1 DUP2 ADD PUSH1 0x40 MSTORE DUP1 SWAP3 SWAP2 SWAP1 DUP2 DUP2 MSTORE PUSH1 0x20 ADD DUP3 DUP1 SLOAD PUSH1 0x1 DUP2 PUSH1 0x1 AND ISZERO PUSH2 0x100 MUL SUB AND PUSH1 0x2 SWAP1 DIV DUP1 ISZERO PUSH2 0xE1B JUMPI DUP1 PUSH1 0x1F LT PUSH2 0xDF0 JUMPI PUSH2 0x100 DUP1 DUP4 SLOAD DIV MUL DUP4 MSTORE SWAP2 PUSH1 0x20 ADD SWAP2 PUSH2 0xE1B JUMP JUMPDEST DUP3 ADD SWAP2 SWAP1 PUSH1 0x0 MSTORE PUSH1 0x20 PUSH1 0x0 KECCAK256 SWAP1 JUMPDEST DUP2 SLOAD DUP2 MSTORE SWAP1 PUSH1 0x1 ADD SWAP1 PUSH1 0x20 ADD DUP1 DUP4 GT PUSH2 0xDFE JUMPI DUP3 SWAP1 SUB PUSH1 0x1F AND DUP3 ADD SWAP2 JUMPDEST POP POP POP POP POP DUP2 MSTORE PUSH1 0x20 ADD PUSH1 0x4 DUP3 ADD SLOAD DUP2 MSTORE PUSH1 0x20 ADD PUSH1 0x5 DUP3 ADD PUSH1 0x0 SWAP1 SLOAD SWAP1 PUSH2 0x100 EXP SWAP1 DIV PUSH1 0xFF AND ISZERO ISZERO ISZERO ISZERO DUP2 MSTORE POP POP DUP3 DUP3 DUP2 MLOAD DUP2 LT PUSH2 0xE55 JUMPI INVALID JUMPDEST PUSH1 0x20 MUL PUSH1 0x20 ADD ADD DUP2 SWAP1 MSTORE POP DUP1 DUP1 PUSH1 0x1 ADD SWAP2 POP POP PUSH2 0xBB5 JUMP JUMPDEST POP DUP1 SWAP2 POP POP SWAP1 JUMP JUMPDEST PUSH1 0x60 PUSH1 0x0 PUSH1 0x8 DUP1 SLOAD SWAP1 POP PUSH8 0xFFFFFFFFFFFFFFFF DUP2 GT DUP1 ISZERO PUSH2 0xE95 JUMPI PUSH1 0x0 DUP1 REVERT JUMPDEST POP PUSH1 0x40 MLOAD SWAP1 DUP1 DUP3 MSTORE DUP1 PUSH1 0x20 MUL PUSH1 0x20 ADD DUP3 ADD PUSH1 0x40 MSTORE DUP1 ISZERO PUSH2 0xECF JUMPI DUP2 PUSH1 0x20 ADD JUMPDEST PUSH2 0xEBC PUSH2 0x36F3 JUMP JUMPDEST DUP2 MSTORE PUSH1 0x20 ADD SWAP1 PUSH1 0x1 SWAP1 SUB SWAP1 DUP2 PUSH2 0xEB4 JUMPI SWAP1 POP JUMPDEST POP SWAP1 POP PUSH1 0x0 JUMPDEST PUSH1 0x8 DUP1 SLOAD SWAP1 POP DUP2 LT ISZERO PUSH2 0x1143 JUMPI PUSH1 0x8 DUP2 DUP2 SLOAD DUP2 LT PUSH2 0xEEF JUMPI INVALID JUMPDEST SWAP1 PUSH1 0x0 MSTORE PUSH1 0x20 PUSH1 0x0 KECCAK256 SWAP1 PUSH1 0x5 MUL ADD PUSH1 0x40 MLOAD DUP1 PUSH1 0xC0 ADD PUSH1 0x40 MSTORE SWAP1 DUP2 PUSH1 0x0 DUP3 ADD SLOAD DUP2 MSTORE PUSH1 0x20 ADD PUSH1 0x1 DUP3 ADD DUP1 SLOAD PUSH1 0x1 DUP2 PUSH1 0x1 AND ISZERO PUSH2 0x100 MUL SUB AND PUSH1 0x2 SWAP1 DIV DUP1 PUSH1 0x1F ADD PUSH1 0x20 DUP1 SWAP2 DIV MUL PUSH1 0x20 ADD PUSH1 0x40 MLOAD SWAP1 DUP2 ADD PUSH1 0x40 MSTORE DUP1 SWAP3 SWAP2 SWAP1 DUP2 DUP2 MSTORE PUSH1 0x20 ADD DUP3 DUP1 SLOAD PUSH1 0x1 DUP2 PUSH1 0x1 AND ISZERO PUSH2 0x100 MUL SUB AND PUSH1 0x2 SWAP1 DIV DUP1 ISZERO PUSH2 0xFAB JUMPI DUP1 PUSH1 0x1F LT PUSH2 0xF80 JUMPI PUSH2 0x100 DUP1 DUP4 SLOAD DIV MUL DUP4 MSTORE SWAP2 PUSH1 0x20 ADD SWAP2 PUSH2 0xFAB JUMP JUMPDEST DUP3 ADD SWAP2 SWAP1 PUSH1 0x0 MSTORE PUSH1 0x20 PUSH1 0x0 KECCAK256 SWAP1 JUMPDEST DUP2 SLOAD DUP2 MSTORE SWAP1 PUSH1 0x1 ADD SWAP1 PUSH1 0x20 ADD DUP1 DUP4 GT PUSH2 0xF8E JUMPI DUP3 SWAP1 SUB PUSH1 0x1F AND DUP3 ADD SWAP2 JUMPDEST POP POP POP POP POP DUP2 MSTORE PUSH1 0x20 ADD PUSH1 0x2 DUP3 ADD DUP1 SLOAD PUSH1 0x1 DUP2 PUSH1 0x1 AND ISZERO PUSH2 0x100 MUL SUB AND PUSH1 0x2 SWAP1 DIV DUP1 PUSH1 0x1F ADD PUSH1 0x20 DUP1 SWAP2 DIV MUL PUSH1 0x20 ADD PUSH1 0x40 MLOAD SWAP1 DUP2 ADD PUSH1 0x40 MSTORE DUP1 SWAP3 SWAP2 SWAP1 DUP2 DUP2 MSTORE PUSH1 0x20 ADD DUP3 DUP1 SLOAD PUSH1 0x1 DUP2 PUSH1 0x1 AND ISZERO PUSH2 0x100 MUL SUB AND PUSH1 0x2 SWAP1 DIV DUP1 ISZERO PUSH2 0x104D JUMPI DUP1 PUSH1 0x1F LT PUSH2 0x1022 JUMPI PUSH2 0x100 DUP1 DUP4 SLOAD DIV MUL DUP4 MSTORE SWAP2 PUSH1 0x20 ADD SWAP2 PUSH2 0x104D JUMP JUMPDEST DUP3 ADD SWAP2 SWAP1 PUSH1 0x0 MSTORE PUSH1 0x20 PUSH1 0x0 KECCAK256 SWAP1 JUMPDEST DUP2 SLOAD DUP2 MSTORE SWAP1 PUSH1 0x1 ADD SWAP1 PUSH1 0x20 ADD DUP1 DUP4 GT PUSH2 0x1030 JUMPI DUP3 SWAP1 SUB PUSH1 0x1F AND DUP3 ADD SWAP2 JUMPDEST POP POP POP POP POP DUP2 MSTORE PUSH1 0x20 ADD PUSH1 0x3 DUP3 ADD PUSH1 0x0 SWAP1 SLOAD SWAP1 PUSH2 0x100 EXP SWAP1 DIV PUSH20 0xFFFFFFFFFFFFFFFFFFFFFFFFFFFFFFFFFFFFFFFF AND PUSH20 0xFFFFFFFFFFFFFFFFFFFFFFFFFFFFFFFFFFFFFFFF AND PUSH20 0xFFFFFFFFFFFFFFFFFFFFFFFFFFFFFFFFFFFFFFFF AND DUP2 MSTORE PUSH1 0x20 ADD PUSH1 0x3 DUP3 ADD PUSH1 0x14 SWAP1 SLOAD SWAP1 PUSH2 0x100 EXP SWAP1 DIV PUSH1 0xFF AND ISZERO ISZERO ISZERO ISZERO DUP2 MSTORE PUSH1 0x20 ADD PUSH1 0x4 DUP3 ADD DUP1 SLOAD DUP1 PUSH1 0x20 MUL PUSH1 0x20 ADD PUSH1 0x40 MLOAD SWAP1 DUP2 ADD PUSH1 0x40 MSTORE DUP1 SWAP3 SWAP2 SWAP1 DUP2 DUP2 MSTORE PUSH1 0x20 ADD DUP3 DUP1 SLOAD DUP1 ISZERO PUSH2 0x1116 JUMPI PUSH1 0x20 MUL DUP3 ADD SWAP2 SWAP1 PUSH1 0x0 MSTORE PUSH1 0x20 PUSH1 0x0 KECCAK256 SWAP1 JUMPDEST DUP2 SLOAD DUP2 MSTORE PUSH1 0x20 ADD SWAP1 PUSH1 0x1 ADD SWAP1 DUP1 DUP4 GT PUSH2 0x1102 JUMPI JUMPDEST POP POP POP POP POP DUP2 MSTORE POP POP DUP3 DUP3 DUP2 MLOAD DUP2 LT PUSH2 0x112B JUMPI INVALID JUMPDEST PUSH1 0x20 MUL PUSH1 0x20 ADD ADD DUP2 SWAP1 MSTORE POP DUP1 DUP1 PUSH1 0x1 ADD SWAP2 POP POP PUSH2 0xED5 JUMP JUMPDEST POP DUP1 SWAP2 POP POP SWAP1 JUMP JUMPDEST PUSH1 0x0 PUSH2 0x1156 DUP6 PUSH2 0x340E JUMP JUMPDEST SWAP1 POP DUP4 PUSH1 0x6 DUP3 DUP2 SLOAD DUP2 LT PUSH2 0x1166 JUMPI INVALID JUMPDEST SWAP1 PUSH1 0x0 MSTORE PUSH1 0x20 PUSH1 0x0 KECCAK256 SWAP1 PUSH1 0x3 MUL ADD PUSH1 0x1 ADD SWAP1 DUP1 MLOAD SWAP1 PUSH1 0x20 ADD SWAP1 PUSH2 0x118A SWAP3 SWAP2 SWAP1 PUSH2 0x35CA JUMP JUMPDEST POP DUP3 PUSH1 0x6 DUP3 DUP2 SLOAD DUP2 LT PUSH2 0x1199 JUMPI INVALID JUMPDEST SWAP1 PUSH1 0x0 MSTORE PUSH1 0x20 PUSH1 0x0 KECCAK256 SWAP1 PUSH1 0x3 MUL ADD PUSH1 0x2 ADD PUSH1 0x0 PUSH2 0x100 EXP DUP2 SLOAD DUP2 PUSH20 0xFFFFFFFFFFFFFFFFFFFFFFFFFFFFFFFFFFFFFFFF MUL NOT AND SWAP1 DUP4 PUSH20 0xFFFFFFFFFFFFFFFFFFFFFFFFFFFFFFFFFFFFFFFF AND MUL OR SWAP1 SSTORE POP DUP2 PUSH1 0x6 DUP3 DUP2 SLOAD DUP2 LT PUSH2 0x11F6 JUMPI INVALID JUMPDEST SWAP1 PUSH1 0x0 MSTORE PUSH1 0x20 PUSH1 0x0 KECCAK256 SWAP1 PUSH1 0x3 MUL ADD PUSH1 0x2 ADD PUSH1 0x14 PUSH2 0x100 EXP DUP2 SLOAD DUP2 PUSH1 0xFF MUL NOT AND SWAP1 DUP4 ISZERO ISZERO MUL OR SWAP1 SSTORE POP PUSH32 0x6FCBC4A02269AC36204AC7E60C4CF625C6FC2B2365CAC750C9927B670E347F90 PUSH1 0x6 DUP3 DUP2 SLOAD DUP2 LT PUSH2 0x124C JUMPI INVALID JUMPDEST SWAP1 PUSH1 0x0 MSTORE PUSH1 0x20 PUSH1 0x0 KECCAK256 SWAP1 PUSH1 0x3 MUL ADD PUSH1 0x0 ADD PUSH1 0x0 SWAP1 SLOAD SWAP1 PUSH2 0x100 EXP SWAP1 DIV PUSH20 0xFFFFFFFFFFFFFFFFFFFFFFFFFFFFFFFFFFFFFFFF AND PUSH1 0x6 DUP4 DUP2 SLOAD DUP2 LT PUSH2 0x128B JUMPI INVALID JUMPDEST SWAP1 PUSH1 0x0 MSTORE PUSH1 0x20 PUSH1 0x0 KECCAK256 SWAP1 PUSH1 0x3 MUL ADD PUSH1 0x1 ADD PUSH1 0x6 DUP5 DUP2 SLOAD DUP2 LT PUSH2 0x12A9 JUMPI INVALID JUMPDEST SWAP1 PUSH1 0x0 MSTORE PUSH1 0x20 PUSH1 0x0 KECCAK256 SWAP1 PUSH1 0x3 MUL ADD PUSH1 0x2 ADD PUSH1 0x0 SWAP1 SLOAD SWAP1 PUSH2 0x100 EXP SWAP1 DIV PUSH20 0xFFFFFFFFFFFFFFFFFFFFFFFFFFFFFFFFFFFFFFFF AND PUSH1 0x6 DUP6 DUP2 SLOAD DUP2 LT PUSH2 0x12E8 JUMPI INVALID JUMPDEST SWAP1 PUSH1 0x0 MSTORE PUSH1 0x20 PUSH1 0x0 KECCAK256 SWAP1 PUSH1 0x3 MUL ADD PUSH1 0x2 ADD PUSH1 0x14 SWAP1 SLOAD SWAP1 PUSH2 0x100 EXP SWAP1 DIV PUSH1 0xFF AND PUSH1 0x40 MLOAD PUSH2 0x1317 SWAP5 SWAP4 SWAP3 SWAP2 SWAP1 PUSH2 0x4420 JUMP JUMPDEST PUSH1 0x40 MLOAD DUP1 SWAP2 SUB SWAP1 LOG1 POP POP POP POP POP JUMP JUMPDEST PUSH1 0x0 PUSH2 0x1331 DUP3 PUSH2 0x337C JUMP JUMPDEST SWAP1 POP PUSH1 0x0 PUSH1 0x8 DUP3 DUP2 SLOAD DUP2 LT PUSH2 0x1342 JUMPI INVALID JUMPDEST SWAP1 PUSH1 0x0 MSTORE PUSH1 0x20 PUSH1 0x0 KECCAK256 SWAP1 PUSH1 0x5 MUL ADD PUSH1 0x3 ADD PUSH1 0x14 PUSH2 0x100 EXP DUP2 SLOAD DUP2 PUSH1 0xFF MUL NOT AND SWAP1 DUP4 ISZERO ISZERO MUL OR SWAP1 SSTORE POP PUSH32 0xEF9006907EB20210E880B0BB1C39946083BCEC24688718507D63A259FFA8351B PUSH1 0x8 DUP3 DUP2 SLOAD DUP2 LT PUSH2 0x1398 JUMPI INVALID JUMPDEST SWAP1 PUSH1 0x0 MSTORE PUSH1 0x20 PUSH1 0x0 KECCAK256 SWAP1 PUSH1 0x5 MUL ADD PUSH1 0x0 ADD SLOAD PUSH1 0x8 DUP4 DUP2 SLOAD DUP2 LT PUSH2 0x13B7 JUMPI INVALID JUMPDEST SWAP1 PUSH1 0x0 MSTORE PUSH1 0x20 PUSH1 0x0 KECCAK256 SWAP1 PUSH1 0x5 MUL ADD PUSH1 0x1 ADD PUSH1 0x8 DUP5 DUP2 SLOAD DUP2 LT PUSH2 0x13D5 JUMPI INVALID JUMPDEST SWAP1 PUSH1 0x0 MSTORE PUSH1 0x20 PUSH1 0x0 KECCAK256 SWAP1 PUSH1 0x5 MUL ADD PUSH1 0x2 ADD PUSH1 0x8 DUP6 DUP2 SLOAD DUP2 LT PUSH2 0x13F3 JUMPI INVALID JUMPDEST SWAP1 PUSH1 0x0 MSTORE PUSH1 0x20 PUSH1 0x0 KECCAK256 SWAP1 PUSH1 0x5 MUL ADD PUSH1 0x3 ADD PUSH1 0x0 SWAP1 SLOAD SWAP1 PUSH2 0x100 EXP SWAP1 DIV PUSH20 0xFFFFFFFFFFFFFFFFFFFFFFFFFFFFFFFFFFFFFFFF AND PUSH1 0x8 DUP7 DUP2 SLOAD DUP2 LT PUSH2 0x1432 JUMPI INVALID JUMPDEST SWAP1 PUSH1 0x0 MSTORE PUSH1 0x20 PUSH1 0x0 KECCAK256 SWAP1 PUSH1 0x5 MUL ADD PUSH1 0x3 ADD PUSH1 0x14 SWAP1 SLOAD SWAP1 PUSH2 0x100 EXP SWAP1 DIV PUSH1 0xFF AND PUSH1 0x40 MLOAD PUSH2 0x1462 SWAP6 SWAP5 SWAP4 SWAP3 SWAP2 SWAP1 PUSH2 0x47B5 JUMP JUMPDEST PUSH1 0x40 MLOAD DUP1 SWAP2 SUB SWAP1 LOG1 POP POP JUMP JUMPDEST PUSH1 0x60 PUSH1 0x0 DUP1 PUSH1 0x0 PUSH2 0x147E DUP6 PUSH2 0x340E JUMP JUMPDEST SWAP1 POP PUSH1 0x6 DUP2 DUP2 SLOAD DUP2 LT PUSH2 0x148D JUMPI INVALID JUMPDEST SWAP1 PUSH1 0x0 MSTORE PUSH1 0x20 PUSH1 0x0 KECCAK256 SWAP1 PUSH1 0x3 MUL ADD PUSH1 0x1 ADD PUSH1 0x6 DUP3 DUP2 SLOAD DUP2 LT PUSH2 0x14AB JUMPI INVALID JUMPDEST SWAP1 PUSH1 0x0 MSTORE PUSH1 0x20 PUSH1 0x0 KECCAK256 SWAP1 PUSH1 0x3 MUL ADD PUSH1 0x2 ADD PUSH1 0x0 SWAP1 SLOAD SWAP1 PUSH2 0x100 EXP SWAP1 DIV PUSH20 0xFFFFFFFFFFFFFFFFFFFFFFFFFFFFFFFFFFFFFFFF AND PUSH1 0x6 DUP4 DUP2 SLOAD DUP2 LT PUSH2 0x14EA JUMPI INVALID JUMPDEST SWAP1 PUSH1 0x0 MSTORE PUSH1 0x20 PUSH1 0x0 KECCAK256 SWAP1 PUSH1 0x3 MUL ADD PUSH1 0x2 ADD PUSH1 0x14 SWAP1 SLOAD SWAP1 PUSH2 0x100 EXP SWAP1 DIV PUSH1 0xFF AND DUP3 DUP1 SLOAD PUSH1 0x1 DUP2 PUSH1 0x1 AND ISZERO PUSH2 0x100 MUL SUB AND PUSH1 0x2 SWAP1 DIV DUP1 PUSH1 0x1F ADD PUSH1 0x20 DUP1 SWAP2 DIV MUL PUSH1 0x20 ADD PUSH1 0x40 MLOAD SWAP1 DUP2 ADD PUSH1 0x40 MSTORE DUP1 SWAP3 SWAP2 SWAP1 DUP2 DUP2 MSTORE PUSH1 0x20 ADD DUP3 DUP1 SLOAD PUSH1 0x1 DUP2 PUSH1 0x1 AND ISZERO PUSH2 0x100 MUL SUB AND PUSH1 0x2 SWAP1 DIV DUP1 ISZERO PUSH2 0x159E JUMPI DUP1 PUSH1 0x1F LT PUSH2 0x1573 JUMPI PUSH2 0x100 DUP1 DUP4 SLOAD DIV MUL DUP4 MSTORE SWAP2 PUSH1 0x20 ADD SWAP2 PUSH2 0x159E JUMP JUMPDEST DUP3 ADD SWAP2 SWAP1 PUSH1 0x0 MSTORE PUSH1 0x20 PUSH1 0x0 KECCAK256 SWAP1 JUMPDEST DUP2 SLOAD DUP2 MSTORE SWAP1 PUSH1 0x1 ADD SWAP1 PUSH1 0x20 ADD DUP1 DUP4 GT PUSH2 0x1581 JUMPI DUP3 SWAP1 SUB PUSH1 0x1F AND DUP3 ADD SWAP2 JUMPDEST POP POP POP POP POP SWAP3 POP SWAP4 POP SWAP4 POP SWAP4 POP POP SWAP2 SWAP4 SWAP1 SWAP3 POP JUMP JUMPDEST PUSH1 0x0 PUSH2 0x15BE DUP7 PUSH2 0x337C JUMP JUMPDEST SWAP1 POP DUP5 PUSH1 0x8 DUP3 DUP2 SLOAD DUP2 LT PUSH2 0x15CE JUMPI INVALID JUMPDEST SWAP1 PUSH1 0x0 MSTORE PUSH1 0x20 PUSH1 0x0 KECCAK256 SWAP1 PUSH1 0x5 MUL ADD PUSH1 0x1 ADD SWAP1 DUP1 MLOAD SWAP1 PUSH1 0x20 ADD SWAP1 PUSH2 0x15F2 SWAP3 SWAP2 SWAP1 PUSH2 0x35CA JUMP JUMPDEST POP DUP4 PUSH1 0x8 DUP3 DUP2 SLOAD DUP2 LT PUSH2 0x1601 JUMPI INVALID JUMPDEST SWAP1 PUSH1 0x0 MSTORE PUSH1 0x20 PUSH1 0x0 KECCAK256 SWAP1 PUSH1 0x5 MUL ADD PUSH1 0x2 ADD SWAP1 DUP1 MLOAD SWAP1 PUSH1 0x20 ADD SWAP1 PUSH2 0x1625 SWAP3 SWAP2 SWAP1 PUSH2 0x35CA JUMP JUMPDEST POP DUP3 PUSH1 0x8 DUP3 DUP2 SLOAD DUP2 LT PUSH2 0x1634 JUMPI INVALID JUMPDEST SWAP1 PUSH1 0x0 MSTORE PUSH1 0x20 PUSH1 0x0 KECCAK256 SWAP1 PUSH1 0x5 MUL ADD PUSH1 0x3 ADD PUSH1 0x0 PUSH2 0x100 EXP DUP2 SLOAD DUP2 PUSH20 0xFFFFFFFFFFFFFFFFFFFFFFFFFFFFFFFFFFFFFFFF MUL NOT AND SWAP1 DUP4 PUSH20 0xFFFFFFFFFFFFFFFFFFFFFFFFFFFFFFFFFFFFFFFF AND MUL OR SWAP1 SSTORE POP DUP2 PUSH1 0x8 DUP3 DUP2 SLOAD DUP2 LT PUSH2 0x1691 JUMPI INVALID JUMPDEST SWAP1 PUSH1 0x0 MSTORE PUSH1 0x20 PUSH1 0x0 KECCAK256 SWAP1 PUSH1 0x5 MUL ADD PUSH1 0x3 ADD PUSH1 0x14 PUSH2 0x100 EXP DUP2 SLOAD DUP2 PUSH1 0xFF MUL NOT AND SWAP1 DUP4 ISZERO ISZERO MUL OR SWAP1 SSTORE POP PUSH32 0x3AB6F9EA2E72CAD17988F4527DC5626FA4E97C597FCBD9D7E2A7E820851B54CE PUSH1 0x8 DUP3 DUP2 SLOAD DUP2 LT PUSH2 0x16E7 JUMPI INVALID JUMPDEST SWAP1 PUSH1 0x0 MSTORE PUSH1 0x20 PUSH1 0x0 KECCAK256 SWAP1 PUSH1 0x5 MUL ADD PUSH1 0x0 ADD SLOAD PUSH1 0x8 DUP4 DUP2 SLOAD DUP2 LT PUSH2 0x1706 JUMPI INVALID JUMPDEST SWAP1 PUSH1 0x0 MSTORE PUSH1 0x20 PUSH1 0x0 KECCAK256 SWAP1 PUSH1 0x5 MUL ADD PUSH1 0x1 ADD PUSH1 0x8 DUP5 DUP2 SLOAD DUP2 LT PUSH2 0x1724 JUMPI INVALID JUMPDEST SWAP1 PUSH1 0x0 MSTORE PUSH1 0x20 PUSH1 0x0 KECCAK256 SWAP1 PUSH1 0x5 MUL ADD PUSH1 0x2 ADD PUSH1 0x8 DUP6 DUP2 SLOAD DUP2 LT PUSH2 0x1742 JUMPI INVALID JUMPDEST SWAP1 PUSH1 0x0 MSTORE PUSH1 0x20 PUSH1 0x0 KECCAK256 SWAP1 PUSH1 0x5 MUL ADD PUSH1 0x3 ADD PUSH1 0x0 SWAP1 SLOAD SWAP1 PUSH2 0x100 EXP SWAP1 DIV PUSH20 0xFFFFFFFFFFFFFFFFFFFFFFFFFFFFFFFFFFFFFFFF AND PUSH1 0x8 DUP7 DUP2 SLOAD DUP2 LT PUSH2 0x1781 JUMPI INVALID JUMPDEST SWAP1 PUSH1 0x0 MSTORE PUSH1 0x20 PUSH1 0x0 KECCAK256 SWAP1 PUSH1 0x5 MUL ADD PUSH1 0x3 ADD PUSH1 0x14 SWAP1 SLOAD SWAP1 PUSH2 0x100 EXP SWAP1 DIV PUSH1 0xFF AND PUSH1 0x40 MLOAD PUSH2 0x17B1 SWAP6 SWAP5 SWAP4 SWAP3 SWAP2 SWAP1 PUSH2 0x47B5 JUMP JUMPDEST PUSH1 0x40 MLOAD DUP1 SWAP2 SUB SWAP1 LOG1 POP POP POP POP POP POP JUMP JUMPDEST PUSH1 0x0 PUSH2 0x17CC DUP8 PUSH2 0x34EC JUMP JUMPDEST SWAP1 POP DUP6 PUSH1 0x4 DUP3 DUP2 SLOAD DUP2 LT PUSH2 0x17DC JUMPI INVALID JUMPDEST SWAP1 PUSH1 0x0 MSTORE PUSH1 0x20 PUSH1 0x0 KECCAK256 SWAP1 PUSH1 0x6 MUL ADD PUSH1 0x1 ADD SWAP1 DUP1 MLOAD SWAP1 PUSH1 0x20 ADD SWAP1 PUSH2 0x1800 SWAP3 SWAP2 SWAP1 PUSH2 0x35CA JUMP JUMPDEST POP DUP5 PUSH1 0x4 DUP3 DUP2 SLOAD DUP2 LT PUSH2 0x180F JUMPI INVALID JUMPDEST SWAP1 PUSH1 0x0 MSTORE PUSH1 0x20 PUSH1 0x0 KECCAK256 SWAP1 PUSH1 0x6 MUL ADD PUSH1 0x2 ADD SWAP1 DUP1 MLOAD SWAP1 PUSH1 0x20 ADD SWAP1 PUSH2 0x1833 SWAP3 SWAP2 SWAP1 PUSH2 0x35CA JUMP JUMPDEST POP DUP4 PUSH1 0x4 DUP3 DUP2 SLOAD DUP2 LT PUSH2 0x1842 JUMPI INVALID JUMPDEST SWAP1 PUSH1 0x0 MSTORE PUSH1 0x20 PUSH1 0x0 KECCAK256 SWAP1 PUSH1 0x6 MUL ADD PUSH1 0x3 ADD SWAP1 DUP1 MLOAD SWAP1 PUSH1 0x20 ADD SWAP1 PUSH2 0x1866 SWAP3 SWAP2 SWAP1 PUSH2 0x35CA JUMP JUMPDEST POP DUP3 PUSH1 0x4 DUP3 DUP2 SLOAD DUP2 LT PUSH2 0x1875 JUMPI INVALID JUMPDEST SWAP1 PUSH1 0x0 MSTORE PUSH1 0x20 PUSH1 0x0 KECCAK256 SWAP1 PUSH1 0x6 MUL ADD PUSH1 0x4 ADD DUP2 SWAP1 SSTORE POP DUP2 PUSH1 0x4 DUP3 DUP2 SLOAD DUP2 LT PUSH2 0x1898 JUMPI INVALID JUMPDEST SWAP1 PUSH1 0x0 MSTORE PUSH1 0x20 PUSH1 0x0 KECCAK256 SWAP1 PUSH1 0x6 MUL ADD PUSH1 0x5 ADD PUSH1 0x0 PUSH2 0x100 EXP DUP2 SLOAD DUP2 PUSH1 0xFF MUL NOT AND SWAP1 DUP4 ISZERO ISZERO MUL OR SWAP1 SSTORE POP PUSH32 0x5975E6FED8802A324436EB320387035D99D011C9901BB75B34B8C23B91250C1C PUSH1 0x4 DUP3 DUP2 SLOAD DUP2 LT PUSH2 0x18EE JUMPI INVALID JUMPDEST SWAP1 PUSH1 0x0 MSTORE PUSH1 0x20 PUSH1 0x0 KECCAK256 SWAP1 PUSH1 0x6 MUL ADD PUSH1 0x0 ADD PUSH1 0x0 SWAP1 SLOAD SWAP1 PUSH2 0x100 EXP SWAP1 DIV PUSH20 0xFFFFFFFFFFFFFFFFFFFFFFFFFFFFFFFFFFFFFFFF AND PUSH1 0x4 DUP4 DUP2 SLOAD DUP2 LT PUSH2 0x192D JUMPI INVALID JUMPDEST SWAP1 PUSH1 0x0 MSTORE PUSH1 0x20 PUSH1 0x0 KECCAK256 SWAP1 PUSH1 0x6 MUL ADD PUSH1 0x1 ADD PUSH1 0x4 DUP5 DUP2 SLOAD DUP2 LT PUSH2 0x194B JUMPI INVALID JUMPDEST SWAP1 PUSH1 0x0 MSTORE PUSH1 0x20 PUSH1 0x0 KECCAK256 SWAP1 PUSH1 0x6 MUL ADD PUSH1 0x2 ADD PUSH1 0x4 DUP6 DUP2 SLOAD DUP2 LT PUSH2 0x1969 JUMPI INVALID JUMPDEST SWAP1 PUSH1 0x0 MSTORE PUSH1 0x20 PUSH1 0x0 KECCAK256 SWAP1 PUSH1 0x6 MUL ADD PUSH1 0x3 ADD PUSH1 0x4 DUP7 DUP2 SLOAD DUP2 LT PUSH2 0x1987 JUMPI INVALID JUMPDEST SWAP1 PUSH1 0x0 MSTORE PUSH1 0x20 PUSH1 0x0 KECCAK256 SWAP1 PUSH1 0x6 MUL ADD PUSH1 0x4 ADD SLOAD PUSH1 0x4 DUP8 DUP2 SLOAD DUP2 LT PUSH2 0x19A6 JUMPI INVALID JUMPDEST SWAP1 PUSH1 0x0 MSTORE PUSH1 0x20 PUSH1 0x0 KECCAK256 SWAP1 PUSH1 0x6 MUL ADD PUSH1 0x5 ADD PUSH1 0x0 SWAP1 SLOAD SWAP1 PUSH2 0x100 EXP SWAP1 DIV PUSH1 0xFF AND PUSH1 0x40 MLOAD PUSH2 0x19D7 SWAP7 SWAP6 SWAP5 SWAP4 SWAP3 SWAP2 SWAP1 PUSH2 0x446C JUMP JUMPDEST PUSH1 0x40 MLOAD DUP1 SWAP2 SUB SWAP1 LOG1 POP POP POP POP POP POP POP JUMP JUMPDEST PUSH1 0x7 PUSH1 0x20 MSTORE DUP1 PUSH1 0x0 MSTORE PUSH1 0x40 PUSH1 0x0 KECCAK256 PUSH1 0x0 SWAP2 POP SWAP1 POP DUP1 PUSH1 0x0 ADD SLOAD SWAP1 DUP1 PUSH1 0x1 ADD DUP1 SLOAD PUSH1 0x1 DUP2 PUSH1 0x1 AND ISZERO PUSH2 0x100 MUL SUB AND PUSH1 0x2 SWAP1 DIV DUP1 PUSH1 0x1F ADD PUSH1 0x20 DUP1 SWAP2 DIV MUL PUSH1 0x20 ADD PUSH1 0x40 MLOAD SWAP1 DUP2 ADD PUSH1 0x40 MSTORE DUP1 SWAP3 SWAP2 SWAP1 DUP2 DUP2 MSTORE PUSH1 0x20 ADD DUP3 DUP1 SLOAD PUSH1 0x1 DUP2 PUSH1 0x1 AND ISZERO PUSH2 0x100 MUL SUB AND PUSH1 0x2 SWAP1 DIV DUP1 ISZERO PUSH2 0x1A9A JUMPI DUP1 PUSH1 0x1F LT PUSH2 0x1A6F JUMPI PUSH2 0x100 DUP1 DUP4 SLOAD DIV MUL DUP4 MSTORE SWAP2 PUSH1 0x20 ADD SWAP2 PUSH2 0x1A9A JUMP JUMPDEST DUP3 ADD SWAP2 SWAP1 PUSH1 0x0 MSTORE PUSH1 0x20 PUSH1 0x0 KECCAK256 SWAP1 JUMPDEST DUP2 SLOAD DUP2 MSTORE SWAP1 PUSH1 0x1 ADD SWAP1 PUSH1 0x20 ADD DUP1 DUP4 GT PUSH2 0x1A7D JUMPI DUP3 SWAP1 SUB PUSH1 0x1F AND DUP3 ADD SWAP2 JUMPDEST POP POP POP POP POP SWAP1 DUP1 PUSH1 0x2 ADD DUP1 SLOAD PUSH1 0x1 DUP2 PUSH1 0x1 AND ISZERO PUSH2 0x100 MUL SUB AND PUSH1 0x2 SWAP1 DIV DUP1 PUSH1 0x1F ADD PUSH1 0x20 DUP1 SWAP2 DIV MUL PUSH1 0x20 ADD PUSH1 0x40 MLOAD SWAP1 DUP2 ADD PUSH1 0x40 MSTORE DUP1 SWAP3 SWAP2 SWAP1 DUP2 DUP2 MSTORE PUSH1 0x20 ADD DUP3 DUP1 SLOAD PUSH1 0x1 DUP2 PUSH1 0x1 AND ISZERO PUSH2 0x100 MUL SUB AND PUSH1 0x2 SWAP1 DIV DUP1 ISZERO PUSH2 0x1B38 JUMPI DUP1 PUSH1 0x1F LT PUSH2 0x1B0D JUMPI PUSH2 0x100 DUP1 DUP4 SLOAD DIV MUL DUP4 MSTORE SWAP2 PUSH1 0x20 ADD SWAP2 PUSH2 0x1B38 JUMP JUMPDEST DUP3 ADD SWAP2 SWAP1 PUSH1 0x0 MSTORE PUSH1 0x20 PUSH1 0x0 KECCAK256 SWAP1 JUMPDEST DUP2 SLOAD DUP2 MSTORE SWAP1 PUSH1 0x1 ADD SWAP1 PUSH1 0x20 ADD DUP1 DUP4 GT PUSH2 0x1B1B JUMPI DUP3 SWAP1 SUB PUSH1 0x1F AND DUP3 ADD SWAP2 JUMPDEST POP POP POP POP POP SWAP1 DUP1 PUSH1 0x3 ADD PUSH1 0x0 SWAP1 SLOAD SWAP1 PUSH2 0x100 EXP SWAP1 DIV PUSH20 0xFFFFFFFFFFFFFFFFFFFFFFFFFFFFFFFFFFFFFFFF AND SWAP1 DUP1 PUSH1 0x3 ADD PUSH1 0x14 SWAP1 SLOAD SWAP1 PUSH2 0x100 EXP SWAP1 DIV PUSH1 0xFF AND SWAP1 POP DUP6 JUMP JUMPDEST PUSH1 0x6 DUP2 DUP2 SLOAD DUP2 LT PUSH2 0x1B8B JUMPI PUSH1 0x0 DUP1 REVERT JUMPDEST SWAP1 PUSH1 0x0 MSTORE PUSH1 0x20 PUSH1 0x0 KECCAK256 SWAP1 PUSH1 0x3 MUL ADD PUSH1 0x0 SWAP2 POP SWAP1 POP DUP1 PUSH1 0x0 ADD PUSH1 0x0 SWAP1 SLOAD SWAP1 PUSH2 0x100 EXP SWAP1 DIV PUSH20 0xFFFFFFFFFFFFFFFFFFFFFFFFFFFFFFFFFFFFFFFF AND SWAP1 DUP1 PUSH1 0x1 ADD DUP1 SLOAD PUSH1 0x1 DUP2 PUSH1 0x1 AND ISZERO PUSH2 0x100 MUL SUB AND PUSH1 0x2 SWAP1 DIV DUP1 PUSH1 0x1F ADD PUSH1 0x20 DUP1 SWAP2 DIV MUL PUSH1 0x20 ADD PUSH1 0x40 MLOAD SWAP1 DUP2 ADD PUSH1 0x40 MSTORE DUP1 SWAP3 SWAP2 SWAP1 DUP2 DUP2 MSTORE PUSH1 0x20 ADD DUP3 DUP1 SLOAD PUSH1 0x1 DUP2 PUSH1 0x1 AND ISZERO PUSH2 0x100 MUL SUB AND PUSH1 0x2 SWAP1 DIV DUP1 ISZERO PUSH2 0x1C5D JUMPI DUP1 PUSH1 0x1F LT PUSH2 0x1C32 JUMPI PUSH2 0x100 DUP1 DUP4 SLOAD DIV MUL DUP4 MSTORE SWAP2 PUSH1 0x20 ADD SWAP2 PUSH2 0x1C5D JUMP JUMPDEST DUP3 ADD SWAP2 SWAP1 PUSH1 0x0 MSTORE PUSH1 0x20 PUSH1 0x0 KECCAK256 SWAP1 JUMPDEST DUP2 SLOAD DUP2 MSTORE SWAP1 PUSH1 0x1 ADD SWAP1 PUSH1 0x20 ADD DUP1 DUP4 GT PUSH2 0x1C40 JUMPI DUP3 SWAP1 SUB PUSH1 0x1F AND DUP3 ADD SWAP2 JUMPDEST POP POP POP POP POP SWAP1 DUP1 PUSH1 0x2 ADD PUSH1 0x0 SWAP1 SLOAD SWAP1 PUSH2 0x100 EXP SWAP1 DIV PUSH20 0xFFFFFFFFFFFFFFFFFFFFFFFFFFFFFFFFFFFFFFFF AND SWAP1 DUP1 PUSH1 0x2 ADD PUSH1 0x14 SWAP1 SLOAD SWAP1 PUSH2 0x100 EXP SWAP1 DIV PUSH1 0xFF AND SWAP1 POP DUP5 JUMP JUMPDEST PUSH1 0x60 PUSH1 0x0 PUSH1 0x8 DUP1 SLOAD SWAP1 POP PUSH8 0xFFFFFFFFFFFFFFFF DUP2 GT DUP1 ISZERO PUSH2 0x1CC0 JUMPI PUSH1 0x0 DUP1 REVERT JUMPDEST POP PUSH1 0x40 MLOAD SWAP1 DUP1 DUP3 MSTORE DUP1 PUSH1 0x20 MUL PUSH1 0x20 ADD DUP3 ADD PUSH1 0x40 MSTORE DUP1 ISZERO PUSH2 0x1CFA JUMPI DUP2 PUSH1 0x20 ADD JUMPDEST PUSH2 0x1CE7 PUSH2 0x36F3 JUMP JUMPDEST DUP2 MSTORE PUSH1 0x20 ADD SWAP1 PUSH1 0x1 SWAP1 SUB SWAP1 DUP2 PUSH2 0x1CDF JUMPI SWAP1 POP JUMPDEST POP SWAP1 POP PUSH1 0x0 JUMPDEST PUSH1 0x8 DUP1 SLOAD SWAP1 POP DUP2 LT ISZERO PUSH2 0x1FE1 JUMPI PUSH1 0x8 DUP2 DUP2 SLOAD DUP2 LT PUSH2 0x1D1A JUMPI INVALID JUMPDEST SWAP1 PUSH1 0x0 MSTORE PUSH1 0x20 PUSH1 0x0 KECCAK256 SWAP1 PUSH1 0x5 MUL ADD PUSH1 0x3 ADD PUSH1 0x0 SWAP1 SLOAD SWAP1 PUSH2 0x100 EXP SWAP1 DIV PUSH20 0xFFFFFFFFFFFFFFFFFFFFFFFFFFFFFFFFFFFFFFFF AND PUSH20 0xFFFFFFFFFFFFFFFFFFFFFFFFFFFFFFFFFFFFFFFF AND DUP5 PUSH20 0xFFFFFFFFFFFFFFFFFFFFFFFFFFFFFFFFFFFFFFFF AND EQ ISZERO PUSH2 0x1FD4 JUMPI PUSH1 0x8 DUP2 DUP2 SLOAD DUP2 LT PUSH2 0x1D8C JUMPI INVALID JUMPDEST SWAP1 PUSH1 0x0 MSTORE PUSH1 0x20 PUSH1 0x0 KECCAK256 SWAP1 PUSH1 0x5 MUL ADD PUSH1 0x40 MLOAD DUP1 PUSH1 0xC0 ADD PUSH1 0x40 MSTORE SWAP1 DUP2 PUSH1 0x0 DUP3 ADD SLOAD DUP2 MSTORE PUSH1 0x20 ADD PUSH1 0x1 DUP3 ADD DUP1 SLOAD PUSH1 0x1 DUP2 PUSH1 0x1 AND ISZERO PUSH2 0x100 MUL SUB AND PUSH1 0x2 SWAP1 DIV DUP1 PUSH1 0x1F ADD PUSH1 0x20 DUP1 SWAP2 DIV MUL PUSH1 0x20 ADD PUSH1 0x40 MLOAD SWAP1 DUP2 ADD PUSH1 0x40 MSTORE DUP1 SWAP3 SWAP2 SWAP1 DUP2 DUP2 MSTORE PUSH1 0x20 ADD DUP3 DUP1 SLOAD PUSH1 0x1 DUP2 PUSH1 0x1 AND ISZERO PUSH2 0x100 MUL SUB AND PUSH1 0x2 SWAP1 DIV DUP1 ISZERO PUSH2 0x1E48 JUMPI DUP1 PUSH1 0x1F LT PUSH2 0x1E1D JUMPI PUSH2 0x100 DUP1 DUP4 SLOAD DIV MUL DUP4 MSTORE SWAP2 PUSH1 0x20 ADD SWAP2 PUSH2 0x1E48 JUMP JUMPDEST DUP3 ADD SWAP2 SWAP1 PUSH1 0x0 MSTORE PUSH1 0x20 PUSH1 0x0 KECCAK256 SWAP1 JUMPDEST DUP2 SLOAD DUP2 MSTORE SWAP1 PUSH1 0x1 ADD SWAP1 PUSH1 0x20 ADD DUP1 DUP4 GT PUSH2 0x1E2B JUMPI DUP3 SWAP1 SUB PUSH1 0x1F AND DUP3 ADD SWAP2 JUMPDEST POP POP POP POP POP DUP2 MSTORE PUSH1 0x20 ADD PUSH1 0x2 DUP3 ADD DUP1 SLOAD PUSH1 0x1 DUP2 PUSH1 0x1 AND ISZERO PUSH2 0x100 MUL SUB AND PUSH1 0x2 SWAP1 DIV DUP1 PUSH1 0x1F ADD PUSH1 0x20 DUP1 SWAP2 DIV MUL PUSH1 0x20 ADD PUSH1 0x40 MLOAD SWAP1 DUP2 ADD PUSH1 0x40 MSTORE DUP1 SWAP3 SWAP2 SWAP1 DUP2 DUP2 MSTORE PUSH1 0x20 ADD DUP3 DUP1 SLOAD PUSH1 0x1 DUP2 PUSH1 0x1 AND ISZERO PUSH2 0x100 MUL SUB AND PUSH1 0x2 SWAP1 DIV DUP1 ISZERO PUSH2 0x1EEA JUMPI DUP1 PUSH1 0x1F LT PUSH2 0x1EBF JUMPI PUSH2 0x100 DUP1 DUP4 SLOAD DIV MUL DUP4 MSTORE SWAP2 PUSH1 0x20 ADD SWAP2 PUSH2 0x1EEA JUMP JUMPDEST DUP3 ADD SWAP2 SWAP1 PUSH1 0x0 MSTORE PUSH1 0x20 PUSH1 0x0 KECCAK256 SWAP1 JUMPDEST DUP2 SLOAD DUP2 MSTORE SWAP1 PUSH1 0x1 ADD SWAP1 PUSH1 0x20 ADD DUP1 DUP4 GT PUSH2 0x1ECD JUMPI DUP3 SWAP1 SUB PUSH1 0x1F AND DUP3 ADD SWAP2 JUMPDEST POP POP POP POP POP DUP2 MSTORE PUSH1 0x20 ADD PUSH1 0x3 DUP3 ADD PUSH1 0x0 SWAP1 SLOAD SWAP1 PUSH2 0x100 EXP SWAP1 DIV PUSH20 0xFFFFFFFFFFFFFFFFFFFFFFFFFFFFFFFFFFFFFFFF AND PUSH20 0xFFFFFFFFFFFFFFFFFFFFFFFFFFFFFFFFFFFFFFFF AND PUSH20 0xFFFFFFFFFFFFFFFFFFFFFFFFFFFFFFFFFFFFFFFF AND DUP2 MSTORE PUSH1 0x20 ADD PUSH1 0x3 DUP3 ADD PUSH1 0x14 SWAP1 SLOAD SWAP1 PUSH2 0x100 EXP SWAP1 DIV PUSH1 0xFF AND ISZERO ISZERO ISZERO ISZERO DUP2 MSTORE PUSH1 0x20 ADD PUSH1 0x4 DUP3 ADD DUP1 SLOAD DUP1 PUSH1 0x20 MUL PUSH1 0x20 ADD PUSH1 0x40 MLOAD SWAP1 DUP2 ADD PUSH1 0x40 MSTORE DUP1 SWAP3 SWAP2 SWAP1 DUP2 DUP2 MSTORE PUSH1 0x20 ADD DUP3 DUP1 SLOAD DUP1 ISZERO PUSH2 0x1FB3 JUMPI PUSH1 0x20 MUL DUP3 ADD SWAP2 SWAP1 PUSH1 0x0 MSTORE PUSH1 0x20 PUSH1 0x0 KECCAK256 SWAP1 JUMPDEST DUP2 SLOAD DUP2 MSTORE PUSH1 0x20 ADD SWAP1 PUSH1 0x1 ADD SWAP1 DUP1 DUP4 GT PUSH2 0x1F9F JUMPI JUMPDEST POP POP POP POP POP DUP2 MSTORE POP POP DUP3 DUP3 DUP2 MLOAD DUP2 LT PUSH2 0x1FC8 JUMPI INVALID JUMPDEST PUSH1 0x20 MUL PUSH1 0x20 ADD ADD DUP2 SWAP1 MSTORE POP JUMPDEST DUP1 DUP1 PUSH1 0x1 ADD SWAP2 POP POP PUSH2 0x1D00 JUMP JUMPDEST POP DUP1 SWAP2 POP POP SWAP2 SWAP1 POP JUMP JUMPDEST PUSH1 0x60 DUP1 PUSH1 0x60 PUSH1 0x0 DUP1 PUSH1 0x0 PUSH2 0x1FFE DUP8 PUSH2 0x34EC JUMP JUMPDEST SWAP1 POP PUSH1 0x4 DUP2 DUP2 SLOAD DUP2 LT PUSH2 0x200D JUMPI INVALID JUMPDEST SWAP1 PUSH1 0x0 MSTORE PUSH1 0x20 PUSH1 0x0 KECCAK256 SWAP1 PUSH1 0x6 MUL ADD PUSH1 0x1 ADD PUSH1 0x4 DUP3 DUP2 SLOAD DUP2 LT PUSH2 0x202B JUMPI INVALID JUMPDEST SWAP1 PUSH1 0x0 MSTORE PUSH1 0x20 PUSH1 0x0 KECCAK256 SWAP1 PUSH1 0x6 MUL ADD PUSH1 0x2 ADD PUSH1 0x4 DUP4 DUP2 SLOAD DUP2 LT PUSH2 0x2049 JUMPI INVALID JUMPDEST SWAP1 PUSH1 0x0 MSTORE PUSH1 0x20 PUSH1 0x0 KECCAK256 SWAP1 PUSH1 0x6 MUL ADD PUSH1 0x3 ADD PUSH1 0x4 DUP5 DUP2 SLOAD DUP2 LT PUSH2 0x2067 JUMPI INVALID JUMPDEST SWAP1 PUSH1 0x0 MSTORE PUSH1 0x20 PUSH1 0x0 KECCAK256 SWAP1 PUSH1 0x6 MUL ADD PUSH1 0x4 ADD SLOAD PUSH1 0x4 DUP6 DUP2 SLOAD DUP2 LT PUSH2 0x2086 JUMPI INVALID JUMPDEST SWAP1 PUSH1 0x0 MSTORE PUSH1 0x20 PUSH1 0x0 KECCAK256 SWAP1 PUSH1 0x6 MUL ADD PUSH1 0x5 ADD PUSH1 0x0 SWAP1 SLOAD SWAP1 PUSH2 0x100 EXP SWAP1 DIV PUSH1 0xFF AND DUP5 DUP1 SLOAD PUSH1 0x1 DUP2 PUSH1 0x1 AND ISZERO PUSH2 0x100 MUL SUB AND PUSH1 0x2 SWAP1 DIV DUP1 PUSH1 0x1F ADD PUSH1 0x20 DUP1 SWAP2 DIV MUL PUSH1 0x20 ADD PUSH1 0x40 MLOAD SWAP1 DUP2 ADD PUSH1 0x40 MSTORE DUP1 SWAP3 SWAP2 SWAP1 DUP2 DUP2 MSTORE PUSH1 0x20 ADD DUP3 DUP1 SLOAD PUSH1 0x1 DUP2 PUSH1 0x1 AND ISZERO PUSH2 0x100 MUL SUB AND PUSH1 0x2 SWAP1 DIV DUP1 ISZERO PUSH2 0x213A JUMPI DUP1 PUSH1 0x1F LT PUSH2 0x210F JUMPI PUSH2 0x100 DUP1 DUP4 SLOAD DIV MUL DUP4 MSTORE SWAP2 PUSH1 0x20 ADD SWAP2 PUSH2 0x213A JUMP JUMPDEST DUP3 ADD SWAP2 SWAP1 PUSH1 0x0 MSTORE PUSH1 0x20 PUSH1 0x0 KECCAK256 SWAP1 JUMPDEST DUP2 SLOAD DUP2 MSTORE SWAP1 PUSH1 0x1 ADD SWAP1 PUSH1 0x20 ADD DUP1 DUP4 GT PUSH2 0x211D JUMPI DUP3 SWAP1 SUB PUSH1 0x1F AND DUP3 ADD SWAP2 JUMPDEST POP POP POP POP POP SWAP5 POP DUP4 DUP1 SLOAD PUSH1 0x1 DUP2 PUSH1 0x1 AND ISZERO PUSH2 0x100 MUL SUB AND PUSH1 0x2 SWAP1 DIV DUP1 PUSH1 0x1F ADD PUSH1 0x20 DUP1 SWAP2 DIV MUL PUSH1 0x20 ADD PUSH1 0x40 MLOAD SWAP1 DUP2 ADD PUSH1 0x40 MSTORE DUP1 SWAP3 SWAP2 SWAP1 DUP2 DUP2 MSTORE PUSH1 0x20 ADD DUP3 DUP1 SLOAD PUSH1 0x1 DUP2 PUSH1 0x1 AND ISZERO PUSH2 0x100 MUL SUB AND PUSH1 0x2 SWAP1 DIV DUP1 ISZERO PUSH2 0x21D6 JUMPI DUP1 PUSH1 0x1F LT PUSH2 0x21AB JUMPI PUSH2 0x100 DUP1 DUP4 SLOAD DIV MUL DUP4 MSTORE SWAP2 PUSH1 0x20 ADD SWAP2 PUSH2 0x21D6 JUMP JUMPDEST DUP3 ADD SWAP2 SWAP1 PUSH1 0x0 MSTORE PUSH1 0x20 PUSH1 0x0 KECCAK256 SWAP1 JUMPDEST DUP2 SLOAD DUP2 MSTORE SWAP1 PUSH1 0x1 ADD SWAP1 PUSH1 0x20 ADD DUP1 DUP4 GT PUSH2 0x21B9 JUMPI DUP3 SWAP1 SUB PUSH1 0x1F AND DUP3 ADD SWAP2 JUMPDEST POP POP POP POP POP SWAP4 POP DUP3 DUP1 SLOAD PUSH1 0x1 DUP2 PUSH1 0x1 AND ISZERO PUSH2 0x100 MUL SUB AND PUSH1 0x2 SWAP1 DIV DUP1 PUSH1 0x1F ADD PUSH1 0x20 DUP1 SWAP2 DIV MUL PUSH1 0x20 ADD PUSH1 0x40 MLOAD SWAP1 DUP2 ADD PUSH1 0x40 MSTORE DUP1 SWAP3 SWAP2 SWAP1 DUP2 DUP2 MSTORE PUSH1 0x20 ADD DUP3 DUP1 SLOAD PUSH1 0x1 DUP2 PUSH1 0x1 AND ISZERO PUSH2 0x100 MUL SUB AND PUSH1 0x2 SWAP1 DIV DUP1 ISZERO PUSH2 0x2272 JUMPI DUP1 PUSH1 0x1F LT PUSH2 0x2247 JUMPI PUSH2 0x100 DUP1 DUP4 SLOAD DIV MUL DUP4 MSTORE SWAP2 PUSH1 0x20 ADD SWAP2 PUSH2 0x2272 JUMP JUMPDEST DUP3 ADD SWAP2 SWAP1 PUSH1 0x0 MSTORE PUSH1 0x20 PUSH1 0x0 KECCAK256 SWAP1 JUMPDEST DUP2 SLOAD DUP2 MSTORE SWAP1 PUSH1 0x1 ADD SWAP1 PUSH1 0x20 ADD DUP1 DUP4 GT PUSH2 0x2255 JUMPI DUP3 SWAP1 SUB PUSH1 0x1F AND DUP3 ADD SWAP2 JUMPDEST POP POP POP POP POP SWAP3 POP SWAP6 POP SWAP6 POP SWAP6 POP SWAP6 POP SWAP6 POP POP SWAP2 SWAP4 SWAP6 SWAP1 SWAP3 SWAP5 POP JUMP JUMPDEST PUSH1 0x0 PUSH2 0x2298 DUP3 PUSH2 0x340E JUMP JUMPDEST SWAP1 POP PUSH1 0x0 PUSH1 0x6 DUP3 DUP2 SLOAD DUP2 LT PUSH2 0x22A9 JUMPI INVALID JUMPDEST SWAP1 PUSH1 0x0 MSTORE PUSH1 0x20 PUSH1 0x0 KECCAK256 SWAP1 PUSH1 0x3 MUL ADD PUSH1 0x2 ADD PUSH1 0x14 PUSH2 0x100 EXP DUP2 SLOAD DUP2 PUSH1 0xFF MUL NOT AND SWAP1 DUP4 ISZERO ISZERO MUL OR SWAP1 SSTORE POP PUSH32 0x780B3C74EC1E08D8C65FD8A12C6AC2DA5C15F2D3B5E54335B51671F63B7D2AD0 PUSH1 0x6 DUP3 DUP2 SLOAD DUP2 LT PUSH2 0x22FF JUMPI INVALID JUMPDEST SWAP1 PUSH1 0x0 MSTORE PUSH1 0x20 PUSH1 0x0 KECCAK256 SWAP1 PUSH1 0x3 MUL ADD PUSH1 0x0 ADD PUSH1 0x0 SWAP1 SLOAD SWAP1 PUSH2 0x100 EXP SWAP1 DIV PUSH20 0xFFFFFFFFFFFFFFFFFFFFFFFFFFFFFFFFFFFFFFFF AND PUSH1 0x6 DUP4 DUP2 SLOAD DUP2 LT PUSH2 0x233E JUMPI INVALID JUMPDEST SWAP1 PUSH1 0x0 MSTORE PUSH1 0x20 PUSH1 0x0 KECCAK256 SWAP1 PUSH1 0x3 MUL ADD PUSH1 0x1 ADD PUSH1 0x6 DUP5 DUP2 SLOAD DUP2 LT PUSH2 0x235C JUMPI INVALID JUMPDEST SWAP1 PUSH1 0x0 MSTORE PUSH1 0x20 PUSH1 0x0 KECCAK256 SWAP1 PUSH1 0x3 MUL ADD PUSH1 0x2 ADD PUSH1 0x0 SWAP1 SLOAD SWAP1 PUSH2 0x100 EXP SWAP1 DIV PUSH20 0xFFFFFFFFFFFFFFFFFFFFFFFFFFFFFFFFFFFFFFFF AND PUSH1 0x6 DUP6 DUP2 SLOAD DUP2 LT PUSH2 0x239B JUMPI INVALID JUMPDEST SWAP1 PUSH1 0x0 MSTORE PUSH1 0x20 PUSH1 0x0 KECCAK256 SWAP1 PUSH1 0x3 MUL ADD PUSH1 0x2 ADD PUSH1 0x14 SWAP1 SLOAD SWAP1 PUSH2 0x100 EXP SWAP1 DIV PUSH1 0xFF AND PUSH1 0x40 MLOAD PUSH2 0x23CA SWAP5 SWAP4 SWAP3 SWAP2 SWAP1 PUSH2 0x4420 JUMP JUMPDEST PUSH1 0x40 MLOAD DUP1 SWAP2 SUB SWAP1 LOG1 POP POP JUMP JUMPDEST PUSH1 0x0 PUSH1 0x4 DUP1 SLOAD SWAP1 POP SWAP1 POP SWAP1 JUMP JUMPDEST PUSH1 0x4 PUSH1 0x40 MLOAD DUP1 PUSH1 0xC0 ADD PUSH1 0x40 MSTORE DUP1 DUP8 PUSH20 0xFFFFFFFFFFFFFFFFFFFFFFFFFFFFFFFFFFFFFFFF AND DUP2 MSTORE PUSH1 0x20 ADD DUP7 DUP2 MSTORE PUSH1 0x20 ADD DUP6 DUP2 MSTORE PUSH1 0x20 ADD DUP5 DUP2 MSTORE PUSH1 0x20 ADD DUP4 DUP2 MSTORE PUSH1 0x20 ADD PUSH1 0x1 ISZERO ISZERO DUP2 MSTORE POP SWAP1 DUP1 PUSH1 0x1 DUP2 SLOAD ADD DUP1 DUP3 SSTORE DUP1 SWAP2 POP POP PUSH1 0x1 SWAP1 SUB SWAP1 PUSH1 0x0 MSTORE PUSH1 0x20 PUSH1 0x0 KECCAK256 SWAP1 PUSH1 0x6 MUL ADD PUSH1 0x0 SWAP1 SWAP2 SWAP1 SWAP2 SWAP1 SWAP2 POP PUSH1 0x0 DUP3 ADD MLOAD DUP2 PUSH1 0x0 ADD PUSH1 0x0 PUSH2 0x100 EXP DUP2 SLOAD DUP2 PUSH20 0xFFFFFFFFFFFFFFFFFFFFFFFFFFFFFFFFFFFFFFFF MUL NOT AND SWAP1 DUP4 PUSH20 0xFFFFFFFFFFFFFFFFFFFFFFFFFFFFFFFFFFFFFFFF AND MUL OR SWAP1 SSTORE POP PUSH1 0x20 DUP3 ADD MLOAD DUP2 PUSH1 0x1 ADD SWAP1 DUP1 MLOAD SWAP1 PUSH1 0x20 ADD SWAP1 PUSH2 0x24B7 SWAP3 SWAP2 SWAP1 PUSH2 0x35CA JUMP JUMPDEST POP PUSH1 0x40 DUP3 ADD MLOAD DUP2 PUSH1 0x2 ADD SWAP1 DUP1 MLOAD SWAP1 PUSH1 0x20 ADD SWAP1 PUSH2 0x24D4 SWAP3 SWAP2 SWAP1 PUSH2 0x35CA JUMP JUMPDEST POP PUSH1 0x60 DUP3 ADD MLOAD DUP2 PUSH1 0x3 ADD SWAP1 DUP1 MLOAD SWAP1 PUSH1 0x20 ADD SWAP1 PUSH2 0x24F1 SWAP3 SWAP2 SWAP1 PUSH2 0x35CA JUMP JUMPDEST POP PUSH1 0x80 DUP3 ADD MLOAD DUP2 PUSH1 0x4 ADD SSTORE PUSH1 0xA0 DUP3 ADD MLOAD DUP2 PUSH1 0x5 ADD PUSH1 0x0 PUSH2 0x100 EXP DUP2 SLOAD DUP2 PUSH1 0xFF MUL NOT AND SWAP1 DUP4 ISZERO ISZERO MUL OR SWAP1 SSTORE POP POP POP PUSH32 0xF646212ACC3F5092FB0211FFD5121C0F706641B715E3982DAB50AFB395413DD5 DUP6 DUP6 DUP6 DUP6 DUP6 PUSH1 0x1 PUSH1 0x40 MLOAD PUSH2 0x2558 SWAP7 SWAP6 SWAP5 SWAP4 SWAP3 SWAP2 SWAP1 PUSH2 0x43AA JUMP JUMPDEST PUSH1 0x40 MLOAD DUP1 SWAP2 SUB SWAP1 LOG1 POP POP POP POP POP JUMP JUMPDEST PUSH1 0x3 PUSH1 0x20 MSTORE DUP1 PUSH1 0x0 MSTORE PUSH1 0x40 PUSH1 0x0 KECCAK256 PUSH1 0x0 SWAP2 POP SWAP1 POP DUP1 PUSH1 0x0 ADD PUSH1 0x0 SWAP1 SLOAD SWAP1 PUSH2 0x100 EXP SWAP1 DIV PUSH20 0xFFFFFFFFFFFFFFFFFFFFFFFFFFFFFFFFFFFFFFFF AND SWAP1 DUP1 PUSH1 0x1 ADD DUP1 SLOAD PUSH1 0x1 DUP2 PUSH1 0x1 AND ISZERO PUSH2 0x100 MUL SUB AND PUSH1 0x2 SWAP1 DIV DUP1 PUSH1 0x1F ADD PUSH1 0x20 DUP1 SWAP2 DIV MUL PUSH1 0x20 ADD PUSH1 0x40 MLOAD SWAP1 DUP2 ADD PUSH1 0x40 MSTORE DUP1 SWAP3 SWAP2 SWAP1 DUP2 DUP2 MSTORE PUSH1 0x20 ADD DUP3 DUP1 SLOAD PUSH1 0x1 DUP2 PUSH1 0x1 AND ISZERO PUSH2 0x100 MUL SUB AND PUSH1 0x2 SWAP1 DIV DUP1 ISZERO PUSH2 0x2639 JUMPI DUP1 PUSH1 0x1F LT PUSH2 0x260E JUMPI PUSH2 0x100 DUP1 DUP4 SLOAD DIV MUL DUP4 MSTORE SWAP2 PUSH1 0x20 ADD SWAP2 PUSH2 0x2639 JUMP JUMPDEST DUP3 ADD SWAP2 SWAP1 PUSH1 0x0 MSTORE PUSH1 0x20 PUSH1 0x0 KECCAK256 SWAP1 JUMPDEST DUP2 SLOAD DUP2 MSTORE SWAP1 PUSH1 0x1 ADD SWAP1 PUSH1 0x20 ADD DUP1 DUP4 GT PUSH2 0x261C JUMPI DUP3 SWAP1 SUB PUSH1 0x1F AND DUP3 ADD SWAP2 JUMPDEST POP POP POP POP POP SWAP1 DUP1 PUSH1 0x2 ADD DUP1 SLOAD PUSH1 0x1 DUP2 PUSH1 0x1 AND ISZERO PUSH2 0x100 MUL SUB AND PUSH1 0x2 SWAP1 DIV DUP1 PUSH1 0x1F ADD PUSH1 0x20 DUP1 SWAP2 DIV MUL PUSH1 0x20 ADD PUSH1 0x40 MLOAD SWAP1 DUP2 ADD PUSH1 0x40 MSTORE DUP1 SWAP3 SWAP2 SWAP1 DUP2 DUP2 MSTORE PUSH1 0x20 ADD DUP3 DUP1 SLOAD PUSH1 0x1 DUP2 PUSH1 0x1 AND ISZERO PUSH2 0x100 MUL SUB AND PUSH1 0x2 SWAP1 DIV DUP1 ISZERO PUSH2 0x26D7 JUMPI DUP1 PUSH1 0x1F LT PUSH2 0x26AC JUMPI PUSH2 0x100 DUP1 DUP4 SLOAD DIV MUL DUP4 MSTORE SWAP2 PUSH1 0x20 ADD SWAP2 PUSH2 0x26D7 JUMP JUMPDEST DUP3 ADD SWAP2 SWAP1 PUSH1 0x0 MSTORE PUSH1 0x20 PUSH1 0x0 KECCAK256 SWAP1 JUMPDEST DUP2 SLOAD DUP2 MSTORE SWAP1 PUSH1 0x1 ADD SWAP1 PUSH1 0x20 ADD DUP1 DUP4 GT PUSH2 0x26BA JUMPI DUP3 SWAP1 SUB PUSH1 0x1F AND DUP3 ADD SWAP2 JUMPDEST POP POP POP POP POP SWAP1 DUP1 PUSH1 0x3 ADD DUP1 SLOAD PUSH1 0x1 DUP2 PUSH1 0x1 AND ISZERO PUSH2 0x100 MUL SUB AND PUSH1 0x2 SWAP1 DIV DUP1 PUSH1 0x1F ADD PUSH1 0x20 DUP1 SWAP2 DIV MUL PUSH1 0x20 ADD PUSH1 0x40 MLOAD SWAP1 DUP2 ADD PUSH1 0x40 MSTORE DUP1 SWAP3 SWAP2 SWAP1 DUP2 DUP2 MSTORE PUSH1 0x20 ADD DUP3 DUP1 SLOAD PUSH1 0x1 DUP2 PUSH1 0x1 AND ISZERO PUSH2 0x100 MUL SUB AND PUSH1 0x2 SWAP1 DIV DUP1 ISZERO PUSH2 0x2775 JUMPI DUP1 PUSH1 0x1F LT PUSH2 0x274A JUMPI PUSH2 0x100 DUP1 DUP4 SLOAD DIV MUL DUP4 MSTORE SWAP2 PUSH1 0x20 ADD SWAP2 PUSH2 0x2775 JUMP JUMPDEST DUP3 ADD SWAP2 SWAP1 PUSH1 0x0 MSTORE PUSH1 0x20 PUSH1 0x0 KECCAK256 SWAP1 JUMPDEST DUP2 SLOAD DUP2 MSTORE SWAP1 PUSH1 0x1 ADD SWAP1 PUSH1 0x20 ADD DUP1 DUP4 GT PUSH2 0x2758 JUMPI DUP3 SWAP1 SUB PUSH1 0x1F AND DUP3 ADD SWAP2 JUMPDEST POP POP POP POP POP SWAP1 DUP1 PUSH1 0x4 ADD SLOAD SWAP1 DUP1 PUSH1 0x5 ADD PUSH1 0x0 SWAP1 SLOAD SWAP1 PUSH2 0x100 EXP SWAP1 DIV PUSH1 0xFF AND SWAP1 POP DUP7 JUMP JUMPDEST PUSH1 0x0 PUSH1 0x8 DUP1 SLOAD SWAP1 POP SWAP1 POP SWAP1 JUMP JUMPDEST PUSH1 0x60 PUSH1 0x0 PUSH1 0x6 DUP1 SLOAD SWAP1 POP PUSH8 0xFFFFFFFFFFFFFFFF DUP2 GT DUP1 ISZERO PUSH2 0x27C5 JUMPI PUSH1 0x0 DUP1 REVERT JUMPDEST POP PUSH1 0x40 MLOAD SWAP1 DUP1 DUP3 MSTORE DUP1 PUSH1 0x20 MUL PUSH1 0x20 ADD DUP3 ADD PUSH1 0x40 MSTORE DUP1 ISZERO PUSH2 0x27FF JUMPI DUP2 PUSH1 0x20 ADD JUMPDEST PUSH2 0x27EC PUSH2 0x3741 JUMP JUMPDEST DUP2 MSTORE PUSH1 0x20 ADD SWAP1 PUSH1 0x1 SWAP1 SUB SWAP1 DUP2 PUSH2 0x27E4 JUMPI SWAP1 POP JUMPDEST POP SWAP1 POP PUSH1 0x0 JUMPDEST PUSH1 0x6 DUP1 SLOAD SWAP1 POP DUP2 LT ISZERO PUSH2 0x2A38 JUMPI PUSH1 0x6 DUP2 DUP2 SLOAD DUP2 LT PUSH2 0x281F JUMPI INVALID JUMPDEST SWAP1 PUSH1 0x0 MSTORE PUSH1 0x20 PUSH1 0x0 KECCAK256 SWAP1 PUSH1 0x3 MUL ADD PUSH1 0x2 ADD PUSH1 0x0 SWAP1 SLOAD SWAP1 PUSH2 0x100 EXP SWAP1 DIV PUSH20 0xFFFFFFFFFFFFFFFFFFFFFFFFFFFFFFFFFFFFFFFF AND PUSH20 0xFFFFFFFFFFFFFFFFFFFFFFFFFFFFFFFFFFFFFFFF AND DUP5 PUSH20 0xFFFFFFFFFFFFFFFFFFFFFFFFFFFFFFFFFFFFFFFF AND EQ ISZERO PUSH2 0x2A2B JUMPI PUSH1 0x6 DUP2 DUP2 SLOAD DUP2 LT PUSH2 0x2891 JUMPI INVALID JUMPDEST SWAP1 PUSH1 0x0 MSTORE PUSH1 0x20 PUSH1 0x0 KECCAK256 SWAP1 PUSH1 0x3 MUL ADD PUSH1 0x40 MLOAD DUP1 PUSH1 0x80 ADD PUSH1 0x40 MSTORE SWAP1 DUP2 PUSH1 0x0 DUP3 ADD PUSH1 0x0 SWAP1 SLOAD SWAP1 PUSH2 0x100 EXP SWAP1 DIV PUSH20 0xFFFFFFFFFFFFFFFFFFFFFFFFFFFFFFFFFFFFFFFF AND PUSH20 0xFFFFFFFFFFFFFFFFFFFFFFFFFFFFFFFFFFFFFFFF AND PUSH20 0xFFFFFFFFFFFFFFFFFFFFFFFFFFFFFFFFFFFFFFFF AND DUP2 MSTORE PUSH1 0x20 ADD PUSH1 0x1 DUP3 ADD DUP1 SLOAD PUSH1 0x1 DUP2 PUSH1 0x1 AND ISZERO PUSH2 0x100 MUL SUB AND PUSH1 0x2 SWAP1 DIV DUP1 PUSH1 0x1F ADD PUSH1 0x20 DUP1 SWAP2 DIV MUL PUSH1 0x20 ADD PUSH1 0x40 MLOAD SWAP1 DUP2 ADD PUSH1 0x40 MSTORE DUP1 SWAP3 SWAP2 SWAP1 DUP2 DUP2 MSTORE PUSH1 0x20 ADD DUP3 DUP1 SLOAD PUSH1 0x1 DUP2 PUSH1 0x1 AND ISZERO PUSH2 0x100 MUL SUB AND PUSH1 0x2 SWAP1 DIV DUP1 ISZERO PUSH2 0x2999 JUMPI DUP1 PUSH1 0x1F LT PUSH2 0x296E JUMPI PUSH2 0x100 DUP1 DUP4 SLOAD DIV MUL DUP4 MSTORE SWAP2 PUSH1 0x20 ADD SWAP2 PUSH2 0x2999 JUMP JUMPDEST DUP3 ADD SWAP2 SWAP1 PUSH1 0x0 MSTORE PUSH1 0x20 PUSH1 0x0 KECCAK256 SWAP1 JUMPDEST DUP2 SLOAD DUP2 MSTORE SWAP1 PUSH1 0x1 ADD SWAP1 PUSH1 0x20 ADD DUP1 DUP4 GT PUSH2 0x297C JUMPI DUP3 SWAP1 SUB PUSH1 0x1F AND DUP3 ADD SWAP2 JUMPDEST POP POP POP POP POP DUP2 MSTORE PUSH1 0x20 ADD PUSH1 0x2 DUP3 ADD PUSH1 0x0 SWAP1 SLOAD SWAP1 PUSH2 0x100 EXP SWAP1 DIV PUSH20 0xFFFFFFFFFFFFFFFFFFFFFFFFFFFFFFFFFFFFFFFF AND PUSH20 0xFFFFFFFFFFFFFFFFFFFFFFFFFFFFFFFFFFFFFFFF AND PUSH20 0xFFFFFFFFFFFFFFFFFFFFFFFFFFFFFFFFFFFFFFFF AND DUP2 MSTORE PUSH1 0x20 ADD PUSH1 0x2 DUP3 ADD PUSH1 0x14 SWAP1 SLOAD SWAP1 PUSH2 0x100 EXP SWAP1 DIV PUSH1 0xFF AND ISZERO ISZERO ISZERO ISZERO DUP2 MSTORE POP POP DUP3 DUP3 DUP2 MLOAD DUP2 LT PUSH2 0x2A1F JUMPI INVALID JUMPDEST PUSH1 0x20 MUL PUSH1 0x20 ADD ADD DUP2 SWAP1 MSTORE POP JUMPDEST DUP1 DUP1 PUSH1 0x1 ADD SWAP2 POP POP PUSH2 0x2805 JUMP JUMPDEST POP DUP1 SWAP2 POP POP SWAP2 SWAP1 POP JUMP JUMPDEST PUSH1 0x60 PUSH1 0x0 PUSH2 0x2A4F DUP4 PUSH2 0x337C JUMP JUMPDEST SWAP1 POP PUSH1 0x8 DUP2 DUP2 SLOAD DUP2 LT PUSH2 0x2A5E JUMPI INVALID JUMPDEST SWAP1 PUSH1 0x0 MSTORE PUSH1 0x20 PUSH1 0x0 KECCAK256 SWAP1 PUSH1 0x5 MUL ADD PUSH1 0x4 ADD DUP1 SLOAD DUP1 PUSH1 0x20 MUL PUSH1 0x20 ADD PUSH1 0x40 MLOAD SWAP1 DUP2 ADD PUSH1 0x40 MSTORE DUP1 SWAP3 SWAP2 SWAP1 DUP2 DUP2 MSTORE PUSH1 0x20 ADD DUP3 DUP1 SLOAD DUP1 ISZERO PUSH2 0x2AB9 JUMPI PUSH1 0x20 MUL DUP3 ADD SWAP2 SWAP1 PUSH1 0x0 MSTORE PUSH1 0x20 PUSH1 0x0 KECCAK256 SWAP1 JUMPDEST DUP2 SLOAD DUP2 MSTORE PUSH1 0x20 ADD SWAP1 PUSH1 0x1 ADD SWAP1 DUP1 DUP4 GT PUSH2 0x2AA5 JUMPI JUMPDEST POP POP POP POP POP SWAP2 POP POP SWAP2 SWAP1 POP JUMP JUMPDEST PUSH1 0x4 DUP2 DUP2 SLOAD DUP2 LT PUSH2 0x2AD6 JUMPI PUSH1 0x0 DUP1 REVERT JUMPDEST SWAP1 PUSH1 0x0 MSTORE PUSH1 0x20 PUSH1 0x0 KECCAK256 SWAP1 PUSH1 0x6 MUL ADD PUSH1 0x0 SWAP2 POP SWAP1 POP DUP1 PUSH1 0x0 ADD PUSH1 0x0 SWAP1 SLOAD SWAP1 PUSH2 0x100 EXP SWAP1 DIV PUSH20 0xFFFFFFFFFFFFFFFFFFFFFFFFFFFFFFFFFFFFFFFF AND SWAP1 DUP1 PUSH1 0x1 ADD DUP1 SLOAD PUSH1 0x1 DUP2 PUSH1 0x1 AND ISZERO PUSH2 0x100 MUL SUB AND PUSH1 0x2 SWAP1 DIV DUP1 PUSH1 0x1F ADD PUSH1 0x20 DUP1 SWAP2 DIV MUL PUSH1 0x20 ADD PUSH1 0x40 MLOAD SWAP1 DUP2 ADD PUSH1 0x40 MSTORE DUP1 SWAP3 SWAP2 SWAP1 DUP2 DUP2 MSTORE PUSH1 0x20 ADD DUP3 DUP1 SLOAD PUSH1 0x1 DUP2 PUSH1 0x1 AND ISZERO PUSH2 0x100 MUL SUB AND PUSH1 0x2 SWAP1 DIV DUP1 ISZERO PUSH2 0x2BA8 JUMPI DUP1 PUSH1 0x1F LT PUSH2 0x2B7D JUMPI PUSH2 0x100 DUP1 DUP4 SLOAD DIV MUL DUP4 MSTORE SWAP2 PUSH1 0x20 ADD SWAP2 PUSH2 0x2BA8 JUMP JUMPDEST DUP3 ADD SWAP2 SWAP1 PUSH1 0x0 MSTORE PUSH1 0x20 PUSH1 0x0 KECCAK256 SWAP1 JUMPDEST DUP2 SLOAD DUP2 MSTORE SWAP1 PUSH1 0x1 ADD SWAP1 PUSH1 0x20 ADD DUP1 DUP4 GT PUSH2 0x2B8B JUMPI DUP3 SWAP1 SUB PUSH1 0x1F AND DUP3 ADD SWAP2 JUMPDEST POP POP POP POP POP SWAP1 DUP1 PUSH1 0x2 ADD DUP1 SLOAD PUSH1 0x1 DUP2 PUSH1 0x1 AND ISZERO PUSH2 0x100 MUL SUB AND PUSH1 0x2 SWAP1 DIV DUP1 PUSH1 0x1F ADD PUSH1 0x20 DUP1 SWAP2 DIV MUL PUSH1 0x20 ADD PUSH1 0x40 MLOAD SWAP1 DUP2 ADD PUSH1 0x40 MSTORE DUP1 SWAP3 SWAP2 SWAP1 DUP2 DUP2 MSTORE PUSH1 0x20 ADD DUP3 DUP1 SLOAD PUSH1 0x1 DUP2 PUSH1 0x1 AND ISZERO PUSH2 0x100 MUL SUB AND PUSH1 0x2 SWAP1 DIV DUP1 ISZERO PUSH2 0x2C46 JUMPI DUP1 PUSH1 0x1F LT PUSH2 0x2C1B JUMPI PUSH2 0x100 DUP1 DUP4 SLOAD DIV MUL DUP4 MSTORE SWAP2 PUSH1 0x20 ADD SWAP2 PUSH2 0x2C46 JUMP JUMPDEST DUP3 ADD SWAP2 SWAP1 PUSH1 0x0 MSTORE PUSH1 0x20 PUSH1 0x0 KECCAK256 SWAP1 JUMPDEST DUP2 SLOAD DUP2 MSTORE SWAP1 PUSH1 0x1 ADD SWAP1 PUSH1 0x20 ADD DUP1 DUP4 GT PUSH2 0x2C29 JUMPI DUP3 SWAP1 SUB PUSH1 0x1F AND DUP3 ADD SWAP2 JUMPDEST POP POP POP POP POP SWAP1 DUP1 PUSH1 0x3 ADD DUP1 SLOAD PUSH1 0x1 DUP2 PUSH1 0x1 AND ISZERO PUSH2 0x100 MUL SUB AND PUSH1 0x2 SWAP1 DIV DUP1 PUSH1 0x1F ADD PUSH1 0x20 DUP1 SWAP2 DIV MUL PUSH1 0x20 ADD PUSH1 0x40 MLOAD SWAP1 DUP2 ADD PUSH1 0x40 MSTORE DUP1 SWAP3 SWAP2 SWAP1 DUP2 DUP2 MSTORE PUSH1 0x20 ADD DUP3 DUP1 SLOAD PUSH1 0x1 DUP2 PUSH1 0x1 AND ISZERO PUSH2 0x100 MUL SUB AND PUSH1 0x2 SWAP1 DIV DUP1 ISZERO PUSH2 0x2CE4 JUMPI DUP1 PUSH1 0x1F LT PUSH2 0x2CB9 JUMPI PUSH2 0x100 DUP1 DUP4 SLOAD DIV MUL DUP4 MSTORE SWAP2 PUSH1 0x20 ADD SWAP2 PUSH2 0x2CE4 JUMP JUMPDEST DUP3 ADD SWAP2 SWAP1 PUSH1 0x0 MSTORE PUSH1 0x20 PUSH1 0x0 KECCAK256 SWAP1 JUMPDEST DUP2 SLOAD DUP2 MSTORE SWAP1 PUSH1 0x1 ADD SWAP1 PUSH1 0x20 ADD DUP1 DUP4 GT PUSH2 0x2CC7 JUMPI DUP3 SWAP1 SUB PUSH1 0x1F AND DUP3 ADD SWAP2 JUMPDEST POP POP POP POP POP SWAP1 DUP1 PUSH1 0x4 ADD SLOAD SWAP1 DUP1 PUSH1 0x5 ADD PUSH1 0x0 SWAP1 SLOAD SWAP1 PUSH2 0x100 EXP SWAP1 DIV PUSH1 0xFF AND SWAP1 POP DUP7 JUMP JUMPDEST PUSH1 0x5 PUSH1 0x20 MSTORE DUP1 PUSH1 0x0 MSTORE PUSH1 0x40 PUSH1 0x0 KECCAK256 PUSH1 0x0 SWAP2 POP SWAP1 POP DUP1 PUSH1 0x0 ADD PUSH1 0x0 SWAP1 SLOAD SWAP1 PUSH2 0x100 EXP SWAP1 DIV PUSH20 0xFFFFFFFFFFFFFFFFFFFFFFFFFFFFFFFFFFFFFFFF AND SWAP1 DUP1 PUSH1 0x1 ADD DUP1 SLOAD PUSH1 0x1 DUP2 PUSH1 0x1 AND ISZERO PUSH2 0x100 MUL SUB AND PUSH1 0x2 SWAP1 DIV DUP1 PUSH1 0x1F ADD PUSH1 0x20 DUP1 SWAP2 DIV MUL PUSH1 0x20 ADD PUSH1 0x40 MLOAD SWAP1 DUP2 ADD PUSH1 0x40 MSTORE DUP1 SWAP3 SWAP2 SWAP1 DUP2 DUP2 MSTORE PUSH1 0x20 ADD DUP3 DUP1 SLOAD PUSH1 0x1 DUP2 PUSH1 0x1 AND ISZERO PUSH2 0x100 MUL SUB AND PUSH1 0x2 SWAP1 DIV DUP1 ISZERO PUSH2 0x2DD9 JUMPI DUP1 PUSH1 0x1F LT PUSH2 0x2DAE JUMPI PUSH2 0x100 DUP1 DUP4 SLOAD DIV MUL DUP4 MSTORE SWAP2 PUSH1 0x20 ADD SWAP2 PUSH2 0x2DD9 JUMP JUMPDEST DUP3 ADD SWAP2 SWAP1 PUSH1 0x0 MSTORE PUSH1 0x20 PUSH1 0x0 KECCAK256 SWAP1 JUMPDEST DUP2 SLOAD DUP2 MSTORE SWAP1 PUSH1 0x1 ADD SWAP1 PUSH1 0x20 ADD DUP1 DUP4 GT PUSH2 0x2DBC JUMPI DUP3 SWAP1 SUB PUSH1 0x1F AND DUP3 ADD SWAP2 JUMPDEST POP POP POP POP POP SWAP1 DUP1 PUSH1 0x2 ADD PUSH1 0x0 SWAP1 SLOAD SWAP1 PUSH2 0x100 EXP SWAP1 DIV PUSH20 0xFFFFFFFFFFFFFFFFFFFFFFFFFFFFFFFFFFFFFFFF AND SWAP1 DUP1 PUSH1 0x2 ADD PUSH1 0x14 SWAP1 SLOAD SWAP1 PUSH2 0x100 EXP SWAP1 DIV PUSH1 0xFF AND SWAP1 POP DUP5 JUMP JUMPDEST PUSH2 0x2E25 DUP2 PUSH2 0x34EC JUMP JUMPDEST POP PUSH1 0x6 PUSH1 0x40 MLOAD DUP1 PUSH1 0x80 ADD PUSH1 0x40 MSTORE DUP1 DUP6 PUSH20 0xFFFFFFFFFFFFFFFFFFFFFFFFFFFFFFFFFFFFFFFF AND DUP2 MSTORE PUSH1 0x20 ADD DUP5 DUP2 MSTORE PUSH1 0x20 ADD DUP4 PUSH20 0xFFFFFFFFFFFFFFFFFFFFFFFFFFFFFFFFFFFFFFFF AND DUP2 MSTORE PUSH1 0x20 ADD PUSH1 0x1 ISZERO ISZERO DUP2 MSTORE POP SWAP1 DUP1 PUSH1 0x1 DUP2 SLOAD ADD DUP1 DUP3 SSTORE DUP1 SWAP2 POP POP PUSH1 0x1 SWAP1 SUB SWAP1 PUSH1 0x0 MSTORE PUSH1 0x20 PUSH1 0x0 KECCAK256 SWAP1 PUSH1 0x3 MUL ADD PUSH1 0x0 SWAP1 SWAP2 SWAP1 SWAP2 SWAP1 SWAP2 POP PUSH1 0x0 DUP3 ADD MLOAD DUP2 PUSH1 0x0 ADD PUSH1 0x0 PUSH2 0x100 EXP DUP2 SLOAD DUP2 PUSH20 0xFFFFFFFFFFFFFFFFFFFFFFFFFFFFFFFFFFFFFFFF MUL NOT AND SWAP1 DUP4 PUSH20 0xFFFFFFFFFFFFFFFFFFFFFFFFFFFFFFFFFFFFFFFF AND MUL OR SWAP1 SSTORE POP PUSH1 0x20 DUP3 ADD MLOAD DUP2 PUSH1 0x1 ADD SWAP1 DUP1 MLOAD SWAP1 PUSH1 0x20 ADD SWAP1 PUSH2 0x2F04 SWAP3 SWAP2 SWAP1 PUSH2 0x35CA JUMP JUMPDEST POP PUSH1 0x40 DUP3 ADD MLOAD DUP2 PUSH1 0x2 ADD PUSH1 0x0 PUSH2 0x100 EXP DUP2 SLOAD DUP2 PUSH20 0xFFFFFFFFFFFFFFFFFFFFFFFFFFFFFFFFFFFFFFFF MUL NOT AND SWAP1 DUP4 PUSH20 0xFFFFFFFFFFFFFFFFFFFFFFFFFFFFFFFFFFFFFFFF AND MUL OR SWAP1 SSTORE POP PUSH1 0x60 DUP3 ADD MLOAD DUP2 PUSH1 0x2 ADD PUSH1 0x14 PUSH2 0x100 EXP DUP2 SLOAD DUP2 PUSH1 0xFF MUL NOT AND SWAP1 DUP4 ISZERO ISZERO MUL OR SWAP1 SSTORE POP POP POP PUSH32 0x4578695497AF1A3A1F556F9C89F9F107851CB8E1820E4B336143406B9BA52E3B DUP4 DUP4 DUP4 PUSH1 0x1 PUSH1 0x40 MLOAD PUSH2 0x2FA4 SWAP5 SWAP4 SWAP3 SWAP2 SWAP1 PUSH2 0x435E JUMP JUMPDEST PUSH1 0x40 MLOAD DUP1 SWAP2 SUB SWAP1 LOG1 POP POP POP JUMP JUMPDEST PUSH1 0x8 DUP2 DUP2 SLOAD DUP2 LT PUSH2 0x2FC1 JUMPI PUSH1 0x0 DUP1 REVERT JUMPDEST SWAP1 PUSH1 0x0 MSTORE PUSH1 0x20 PUSH1 0x0 KECCAK256 SWAP1 PUSH1 0x5 MUL ADD PUSH1 0x0 SWAP2 POP SWAP1 POP DUP1 PUSH1 0x0 ADD SLOAD SWAP1 DUP1 PUSH1 0x1 ADD DUP1 SLOAD PUSH1 0x1 DUP2 PUSH1 0x1 AND ISZERO PUSH2 0x100 MUL SUB AND PUSH1 0x2 SWAP1 DIV DUP1 PUSH1 0x1F ADD PUSH1 0x20 DUP1 SWAP2 DIV MUL PUSH1 0x20 ADD PUSH1 0x40 MLOAD SWAP1 DUP2 ADD PUSH1 0x40 MSTORE DUP1 SWAP3 SWAP2 SWAP1 DUP2 DUP2 MSTORE PUSH1 0x20 ADD DUP3 DUP1 SLOAD PUSH1 0x1 DUP2 PUSH1 0x1 AND ISZERO PUSH2 0x100 MUL SUB AND PUSH1 0x2 SWAP1 DIV DUP1 ISZERO PUSH2 0x3073 JUMPI DUP1 PUSH1 0x1F LT PUSH2 0x3048 JUMPI PUSH2 0x100 DUP1 DUP4 SLOAD DIV MUL DUP4 MSTORE SWAP2 PUSH1 0x20 ADD SWAP2 PUSH2 0x3073 JUMP JUMPDEST DUP3 ADD SWAP2 SWAP1 PUSH1 0x0 MSTORE PUSH1 0x20 PUSH1 0x0 KECCAK256 SWAP1 JUMPDEST DUP2 SLOAD DUP2 MSTORE SWAP1 PUSH1 0x1 ADD SWAP1 PUSH1 0x20 ADD DUP1 DUP4 GT PUSH2 0x3056 JUMPI DUP3 SWAP1 SUB PUSH1 0x1F AND DUP3 ADD SWAP2 JUMPDEST POP POP POP POP POP SWAP1 DUP1 PUSH1 0x2 ADD DUP1 SLOAD PUSH1 0x1 DUP2 PUSH1 0x1 AND ISZERO PUSH2 0x100 MUL SUB AND PUSH1 0x2 SWAP1 DIV DUP1 PUSH1 0x1F ADD PUSH1 0x20 DUP1 SWAP2 DIV MUL PUSH1 0x20 ADD PUSH1 0x40 MLOAD SWAP1 DUP2 ADD PUSH1 0x40 MSTORE DUP1 SWAP3 SWAP2 SWAP1 DUP2 DUP2 MSTORE PUSH1 0x20 ADD DUP3 DUP1 SLOAD PUSH1 0x1 DUP2 PUSH1 0x1 AND ISZERO PUSH2 0x100 MUL SUB AND PUSH1 0x2 SWAP1 DIV DUP1 ISZERO PUSH2 0x3111 JUMPI DUP1 PUSH1 0x1F LT PUSH2 0x30E6 JUMPI PUSH2 0x100 DUP1 DUP4 SLOAD DIV MUL DUP4 MSTORE SWAP2 PUSH1 0x20 ADD SWAP2 PUSH2 0x3111 JUMP JUMPDEST DUP3 ADD SWAP2 SWAP1 PUSH1 0x0 MSTORE PUSH1 0x20 PUSH1 0x0 KECCAK256 SWAP1 JUMPDEST DUP2 SLOAD DUP2 MSTORE SWAP1 PUSH1 0x1 ADD SWAP1 PUSH1 0x20 ADD DUP1 DUP4 GT PUSH2 0x30F4 JUMPI DUP3 SWAP1 SUB PUSH1 0x1F AND DUP3 ADD SWAP2 JUMPDEST POP POP POP POP POP SWAP1 DUP1 PUSH1 0x3 ADD PUSH1 0x0 SWAP1 SLOAD SWAP1 PUSH2 0x100 EXP SWAP1 DIV PUSH20 0xFFFFFFFFFFFFFFFFFFFFFFFFFFFFFFFFFFFFFFFF AND SWAP1 DUP1 PUSH1 0x3 ADD PUSH1 0x14 SWAP1 SLOAD SWAP1 PUSH2 0x100 EXP SWAP1 DIV PUSH1 0xFF AND SWAP1 POP DUP6 JUMP JUMPDEST PUSH1 0x60 PUSH1 0x0 PUSH1 0x6 DUP1 SLOAD SWAP1 POP PUSH8 0xFFFFFFFFFFFFFFFF DUP2 GT DUP1 ISZERO PUSH2 0x3174 JUMPI PUSH1 0x0 DUP1 REVERT JUMPDEST POP PUSH1 0x40 MLOAD SWAP1 DUP1 DUP3 MSTORE DUP1 PUSH1 0x20 MUL PUSH1 0x20 ADD DUP3 ADD PUSH1 0x40 MSTORE DUP1 ISZERO PUSH2 0x31AE JUMPI DUP2 PUSH1 0x20 ADD JUMPDEST PUSH2 0x319B PUSH2 0x3741 JUMP JUMPDEST DUP2 MSTORE PUSH1 0x20 ADD SWAP1 PUSH1 0x1 SWAP1 SUB SWAP1 DUP2 PUSH2 0x3193 JUMPI SWAP1 POP JUMPDEST POP SWAP1 POP PUSH1 0x0 JUMPDEST PUSH1 0x6 DUP1 SLOAD SWAP1 POP DUP2 LT ISZERO PUSH2 0x3374 JUMPI PUSH1 0x6 DUP2 DUP2 SLOAD DUP2 LT PUSH2 0x31CE JUMPI INVALID JUMPDEST SWAP1 PUSH1 0x0 MSTORE PUSH1 0x20 PUSH1 0x0 KECCAK256 SWAP1 PUSH1 0x3 MUL ADD PUSH1 0x40 MLOAD DUP1 PUSH1 0x80 ADD PUSH1 0x40 MSTORE SWAP1 DUP2 PUSH1 0x0 DUP3 ADD PUSH1 0x0 SWAP1 SLOAD SWAP1 PUSH2 0x100 EXP SWAP1 DIV PUSH20 0xFFFFFFFFFFFFFFFFFFFFFFFFFFFFFFFFFFFFFFFF AND PUSH20 0xFFFFFFFFFFFFFFFFFFFFFFFFFFFFFFFFFFFFFFFF AND PUSH20 0xFFFFFFFFFFFFFFFFFFFFFFFFFFFFFFFFFFFFFFFF AND DUP2 MSTORE PUSH1 0x20 ADD PUSH1 0x1 DUP3 ADD DUP1 SLOAD PUSH1 0x1 DUP2 PUSH1 0x1 AND ISZERO PUSH2 0x100 MUL SUB AND PUSH1 0x2 SWAP1 DIV DUP1 PUSH1 0x1F ADD PUSH1 0x20 DUP1 SWAP2 DIV MUL PUSH1 0x20 ADD PUSH1 0x40 MLOAD SWAP1 DUP2 ADD PUSH1 0x40 MSTORE DUP1 SWAP3 SWAP2 SWAP1 DUP2 DUP2 MSTORE PUSH1 0x20 ADD DUP3 DUP1 SLOAD PUSH1 0x1 DUP2 PUSH1 0x1 AND ISZERO PUSH2 0x100 MUL SUB AND PUSH1 0x2 SWAP1 DIV DUP1 ISZERO PUSH2 0x32D6 JUMPI DUP1 PUSH1 0x1F LT PUSH2 0x32AB JUMPI PUSH2 0x100 DUP1 DUP4 SLOAD DIV MUL DUP4 MSTORE SWAP2 PUSH1 0x20 ADD SWAP2 PUSH2 0x32D6 JUMP JUMPDEST DUP3 ADD SWAP2 SWAP1 PUSH1 0x0 MSTORE PUSH1 0x20 PUSH1 0x0 KECCAK256 SWAP1 JUMPDEST DUP2 SLOAD DUP2 MSTORE SWAP1 PUSH1 0x1 ADD SWAP1 PUSH1 0x20 ADD DUP1 DUP4 GT PUSH2 0x32B9 JUMPI DUP3 SWAP1 SUB PUSH1 0x1F AND DUP3 ADD SWAP2 JUMPDEST POP POP POP POP POP DUP2 MSTORE PUSH1 0x20 ADD PUSH1 0x2 DUP3 ADD PUSH1 0x0 SWAP1 SLOAD SWAP1 PUSH2 0x100 EXP SWAP1 DIV PUSH20 0xFFFFFFFFFFFFFFFFFFFFFFFFFFFFFFFFFFFFFFFF AND PUSH20 0xFFFFFFFFFFFFFFFFFFFFFFFFFFFFFFFFFFFFFFFF AND PUSH20 0xFFFFFFFFFFFFFFFFFFFFFFFFFFFFFFFFFFFFFFFF AND DUP2 MSTORE PUSH1 0x20 ADD PUSH1 0x2 DUP3 ADD PUSH1 0x14 SWAP1 SLOAD SWAP1 PUSH2 0x100 EXP SWAP1 DIV PUSH1 0xFF AND ISZERO ISZERO ISZERO ISZERO DUP2 MSTORE POP POP DUP3 DUP3 DUP2 MLOAD DUP2 LT PUSH2 0x335C JUMPI INVALID JUMPDEST PUSH1 0x20 MUL PUSH1 0x20 ADD ADD DUP2 SWAP1 MSTORE POP DUP1 DUP1 PUSH1 0x1 ADD SWAP2 POP POP PUSH2 0x31B4 JUMP JUMPDEST POP DUP1 SWAP2 POP POP SWAP1 JUMP JUMPDEST PUSH1 0x0 DUP1 PUSH1 0x0 SWAP1 POP JUMPDEST PUSH1 0x8 DUP1 SLOAD SWAP1 POP DUP2 LT ISZERO PUSH2 0x33CD JUMPI DUP3 PUSH1 0x8 DUP3 DUP2 SLOAD DUP2 LT PUSH2 0x339F JUMPI INVALID JUMPDEST SWAP1 PUSH1 0x0 MSTORE PUSH1 0x20 PUSH1 0x0 KECCAK256 SWAP1 PUSH1 0x5 MUL ADD PUSH1 0x0 ADD SLOAD EQ ISZERO PUSH2 0x33C0 JUMPI DUP1 SWAP2 POP POP PUSH2 0x3409 JUMP JUMPDEST DUP1 DUP1 PUSH1 0x1 ADD SWAP2 POP POP PUSH2 0x3384 JUMP JUMPDEST POP PUSH1 0x40 MLOAD PUSH32 0x8C379A000000000000000000000000000000000000000000000000000000000 DUP2 MSTORE PUSH1 0x4 ADD PUSH2 0x3400 SWAP1 PUSH2 0x4683 JUMP JUMPDEST PUSH1 0x40 MLOAD DUP1 SWAP2 SUB SWAP1 REVERT JUMPDEST SWAP2 SWAP1 POP JUMP JUMPDEST PUSH1 0x0 DUP1 PUSH1 0x0 SWAP1 POP JUMPDEST PUSH1 0x6 DUP1 SLOAD SWAP1 POP DUP2 LT ISZERO PUSH2 0x34AB JUMPI DUP3 PUSH20 0xFFFFFFFFFFFFFFFFFFFFFFFFFFFFFFFFFFFFFFFF AND PUSH1 0x6 DUP3 DUP2 SLOAD DUP2 LT PUSH2 0x3447 JUMPI INVALID JUMPDEST SWAP1 PUSH1 0x0 MSTORE PUSH1 0x20 PUSH1 0x0 KECCAK256 SWAP1 PUSH1 0x3 MUL ADD PUSH1 0x0 ADD PUSH1 0x0 SWAP1 SLOAD SWAP1 PUSH2 0x100 EXP SWAP1 DIV PUSH20 0xFFFFFFFFFFFFFFFFFFFFFFFFFFFFFFFFFFFFFFFF AND PUSH20 0xFFFFFFFFFFFFFFFFFFFFFFFFFFFFFFFFFFFFFFFF AND EQ ISZERO PUSH2 0x349E JUMPI DUP1 SWAP2 POP POP PUSH2 0x34E7 JUMP JUMPDEST DUP1 DUP1 PUSH1 0x1 ADD SWAP2 POP POP PUSH2 0x3416 JUMP JUMPDEST POP PUSH1 0x40 MLOAD PUSH32 0x8C379A000000000000000000000000000000000000000000000000000000000 DUP2 MSTORE PUSH1 0x4 ADD PUSH2 0x34DE SWAP1 PUSH2 0x4663 JUMP JUMPDEST PUSH1 0x40 MLOAD DUP1 SWAP2 SUB SWAP1 REVERT JUMPDEST SWAP2 SWAP1 POP JUMP JUMPDEST PUSH1 0x0 DUP1 PUSH1 0x0 SWAP1 POP JUMPDEST PUSH1 0x4 DUP1 SLOAD SWAP1 POP DUP2 LT ISZERO PUSH2 0x3589 JUMPI DUP3 PUSH20 0xFFFFFFFFFFFFFFFFFFFFFFFFFFFFFFFFFFFFFFFF AND PUSH1 0x4 DUP3 DUP2 SLOAD DUP2 LT PUSH2 0x3525 JUMPI INVALID JUMPDEST SWAP1 PUSH1 0x0 MSTORE PUSH1 0x20 PUSH1 0x0 KECCAK256 SWAP1 PUSH1 0x6 MUL ADD PUSH1 0x0 ADD PUSH1 0x0 SWAP1 SLOAD SWAP1 PUSH2 0x100 EXP SWAP1 DIV PUSH20 0xFFFFFFFFFFFFFFFFFFFFFFFFFFFFFFFFFFFFFFFF AND PUSH20 0xFFFFFFFFFFFFFFFFFFFFFFFFFFFFFFFFFFFFFFFF AND EQ ISZERO PUSH2 0x357C JUMPI DUP1 SWAP2 POP POP PUSH2 0x35C5 JUMP JUMPDEST DUP1 DUP1 PUSH1 0x1 ADD SWAP2 POP POP PUSH2 0x34F4 JUMP JUMPDEST POP PUSH1 0x40 MLOAD PUSH32 0x8C379A000000000000000000000000000000000000000000000000000000000 DUP2 MSTORE PUSH1 0x4 ADD PUSH2 0x35BC SWAP1 PUSH2 0x46A3 JUMP JUMPDEST PUSH1 0x40 MLOAD DUP1 SWAP2 SUB SWAP1 REVERT JUMPDEST SWAP2 SWAP1 POP JUMP JUMPDEST DUP3 DUP1 SLOAD PUSH1 0x1 DUP2 PUSH1 0x1 AND ISZERO PUSH2 0x100 MUL SUB AND PUSH1 0x2 SWAP1 DIV SWAP1 PUSH1 0x0 MSTORE PUSH1 0x20 PUSH1 0x0 KECCAK256 SWAP1 PUSH1 0x1F ADD PUSH1 0x20 SWAP1 DIV DUP2 ADD SWAP3 DUP3 PUSH2 0x3600 JUMPI PUSH1 0x0 DUP6 SSTORE PUSH2 0x3647 JUMP JUMPDEST DUP3 PUSH1 0x1F LT PUSH2 0x3619 JUMPI DUP1 MLOAD PUSH1 0xFF NOT AND DUP4 DUP1 ADD OR DUP6 SSTORE PUSH2 0x3647 JUMP JUMPDEST DUP3 DUP1 ADD PUSH1 0x1 ADD DUP6 SSTORE DUP3 ISZERO PUSH2 0x3647 JUMPI SWAP2 DUP3 ADD JUMPDEST DUP3 DUP2 GT ISZERO PUSH2 0x3646 JUMPI DUP3 MLOAD DUP3 SSTORE SWAP2 PUSH1 0x20 ADD SWAP2 SWAP1 PUSH1 0x1 ADD SWAP1 PUSH2 0x362B JUMP JUMPDEST JUMPDEST POP SWAP1 POP PUSH2 0x3654 SWAP2 SWAP1 PUSH2 0x3797 JUMP JUMPDEST POP SWAP1 JUMP JUMPDEST DUP3 DUP1 SLOAD DUP3 DUP3 SSTORE SWAP1 PUSH1 0x0 MSTORE PUSH1 0x20 PUSH1 0x0 KECCAK256 SWAP1 DUP2 ADD SWAP3 DUP3 ISZERO PUSH2 0x3694 JUMPI SWAP2 PUSH1 0x20 MUL DUP3 ADD JUMPDEST DUP3 DUP2 GT ISZERO PUSH2 0x3693 JUMPI DUP3 MLOAD DUP3 SSTORE SWAP2 PUSH1 0x20 ADD SWAP2 SWAP1 PUSH1 0x1 ADD SWAP1 PUSH2 0x3678 JUMP JUMPDEST JUMPDEST POP SWAP1 POP PUSH2 0x36A1 SWAP2 SWAP1 PUSH2 0x3797 JUMP JUMPDEST POP SWAP1 JUMP JUMPDEST PUSH1 0x40 MLOAD DUP1 PUSH1 0xC0 ADD PUSH1 0x40 MSTORE DUP1 PUSH1 0x0 PUSH20 0xFFFFFFFFFFFFFFFFFFFFFFFFFFFFFFFFFFFFFFFF AND DUP2 MSTORE PUSH1 0x20 ADD PUSH1 0x60 DUP2 MSTORE PUSH1 0x20 ADD PUSH1 0x60 DUP2 MSTORE PUSH1 0x20 ADD PUSH1 0x60 DUP2 MSTORE PUSH1 0x20 ADD PUSH1 0x0 DUP2 MSTORE PUSH1 0x20 ADD PUSH1 0x0 ISZERO ISZERO DUP2 MSTORE POP SWAP1 JUMP JUMPDEST PUSH1 0x40 MLOAD DUP1 PUSH1 0xC0 ADD PUSH1 0x40 MSTORE DUP1 PUSH1 0x0 DUP2 MSTORE PUSH1 0x20 ADD PUSH1 0x60 DUP2 MSTORE PUSH1 0x20 ADD PUSH1 0x60 DUP2 MSTORE PUSH1 0x20 ADD PUSH1 0x0 PUSH20 0xFFFFFFFFFFFFFFFFFFFFFFFFFFFFFFFFFFFFFFFF AND DUP2 MSTORE PUSH1 0x20 ADD PUSH1 0x0 ISZERO ISZERO DUP2 MSTORE PUSH1 0x20 ADD PUSH1 0x60 DUP2 MSTORE POP SWAP1 JUMP JUMPDEST PUSH1 0x40 MLOAD DUP1 PUSH1 0x80 ADD PUSH1 0x40 MSTORE DUP1 PUSH1 0x0 PUSH20 0xFFFFFFFFFFFFFFFFFFFFFFFFFFFFFFFFFFFFFFFF AND DUP2 MSTORE PUSH1 0x20 ADD PUSH1 0x60 DUP2 MSTORE PUSH1 0x20 ADD PUSH1 0x0 PUSH20 0xFFFFFFFFFFFFFFFFFFFFFFFFFFFFFFFFFFFFFFFF AND DUP2 MSTORE PUSH1 0x20 ADD PUSH1 0x0 ISZERO ISZERO DUP2 MSTORE POP SWAP1 JUMP JUMPDEST JUMPDEST DUP1 DUP3 GT ISZERO PUSH2 0x37B0 JUMPI PUSH1 0x0 DUP2 PUSH1 0x0 SWAP1 SSTORE POP PUSH1 0x1 ADD PUSH2 0x3798 JUMP JUMPDEST POP SWAP1 JUMP JUMPDEST PUSH1 0x0 PUSH2 0x37C7 PUSH2 0x37C2 DUP5 PUSH2 0x4847 JUMP JUMPDEST PUSH2 0x4816 JUMP JUMPDEST SWAP1 POP DUP1 DUP4 DUP3 MSTORE PUSH1 0x20 DUP3 ADD SWAP1 POP DUP3 DUP6 PUSH1 0x20 DUP7 MUL DUP3 ADD GT ISZERO PUSH2 0x37E6 JUMPI PUSH1 0x0 DUP1 REVERT JUMPDEST PUSH1 0x0 JUMPDEST DUP6 DUP2 LT ISZERO PUSH2 0x3816 JUMPI DUP2 PUSH2 0x37FC DUP9 DUP3 PUSH2 0x38DC JUMP JUMPDEST DUP5 MSTORE PUSH1 0x20 DUP5 ADD SWAP4 POP PUSH1 0x20 DUP4 ADD SWAP3 POP POP PUSH1 0x1 DUP2 ADD SWAP1 POP PUSH2 0x37E9 JUMP JUMPDEST POP POP POP SWAP4 SWAP3 POP POP POP JUMP JUMPDEST PUSH1 0x0 PUSH2 0x3833 PUSH2 0x382E DUP5 PUSH2 0x4873 JUMP JUMPDEST PUSH2 0x4816 JUMP JUMPDEST SWAP1 POP DUP3 DUP2 MSTORE PUSH1 0x20 DUP2 ADD DUP5 DUP5 DUP5 ADD GT ISZERO PUSH2 0x384B JUMPI PUSH1 0x0 DUP1 REVERT JUMPDEST PUSH2 0x3856 DUP5 DUP3 DUP6 PUSH2 0x4A22 JUMP JUMPDEST POP SWAP4 SWAP3 POP POP POP JUMP JUMPDEST PUSH1 0x0 DUP2 CALLDATALOAD SWAP1 POP PUSH2 0x386D DUP2 PUSH2 0x4A77 JUMP JUMPDEST SWAP3 SWAP2 POP POP JUMP JUMPDEST PUSH1 0x0 DUP3 PUSH1 0x1F DUP4 ADD SLT PUSH2 0x3884 JUMPI PUSH1 0x0 DUP1 REVERT JUMPDEST DUP2 CALLDATALOAD PUSH2 0x3894 DUP5 DUP3 PUSH1 0x20 DUP7 ADD PUSH2 0x37B4 JUMP JUMPDEST SWAP2 POP POP SWAP3 SWAP2 POP POP JUMP JUMPDEST PUSH1 0x0 DUP2 CALLDATALOAD SWAP1 POP PUSH2 0x38AC DUP2 PUSH2 0x4A8E JUMP JUMPDEST SWAP3 SWAP2 POP POP JUMP JUMPDEST PUSH1 0x0 DUP3 PUSH1 0x1F DUP4 ADD SLT PUSH2 0x38C3 JUMPI PUSH1 0x0 DUP1 REVERT JUMPDEST DUP2 CALLDATALOAD PUSH2 0x38D3 DUP5 DUP3 PUSH1 0x20 DUP7 ADD PUSH2 0x3820 JUMP JUMPDEST SWAP2 POP POP SWAP3 SWAP2 POP POP JUMP JUMPDEST PUSH1 0x0 DUP2 CALLDATALOAD SWAP1 POP PUSH2 0x38EB DUP2 PUSH2 0x4AA5 JUMP JUMPDEST SWAP3 SWAP2 POP POP JUMP JUMPDEST PUSH1 0x0 PUSH1 0x20 DUP3 DUP5 SUB SLT ISZERO PUSH2 0x3903 JUMPI PUSH1 0x0 DUP1 REVERT JUMPDEST PUSH1 0x0 PUSH2 0x3911 DUP5 DUP3 DUP6 ADD PUSH2 0x385E JUMP JUMPDEST SWAP2 POP POP SWAP3 SWAP2 POP POP JUMP JUMPDEST PUSH1 0x0 DUP1 PUSH1 0x0 PUSH1 0x60 DUP5 DUP7 SUB SLT ISZERO PUSH2 0x392F JUMPI PUSH1 0x0 DUP1 REVERT JUMPDEST PUSH1 0x0 PUSH2 0x393D DUP7 DUP3 DUP8 ADD PUSH2 0x385E JUMP JUMPDEST SWAP4 POP POP PUSH1 0x20 DUP5 ADD CALLDATALOAD PUSH8 0xFFFFFFFFFFFFFFFF DUP2 GT ISZERO PUSH2 0x395A JUMPI PUSH1 0x0 DUP1 REVERT JUMPDEST PUSH2 0x3966 DUP7 DUP3 DUP8 ADD PUSH2 0x38B2 JUMP JUMPDEST SWAP3 POP POP PUSH1 0x40 PUSH2 0x3977 DUP7 DUP3 DUP8 ADD PUSH2 0x385E JUMP JUMPDEST SWAP2 POP POP SWAP3 POP SWAP3 POP SWAP3 JUMP JUMPDEST PUSH1 0x0 DUP1 PUSH1 0x0 DUP1 PUSH1 0x80 DUP6 DUP8 SUB SLT ISZERO PUSH2 0x3997 JUMPI PUSH1 0x0 DUP1 REVERT JUMPDEST PUSH1 0x0 PUSH2 0x39A5 DUP8 DUP3 DUP9 ADD PUSH2 0x385E JUMP JUMPDEST SWAP5 POP POP PUSH1 0x20 DUP6 ADD CALLDATALOAD PUSH8 0xFFFFFFFFFFFFFFFF DUP2 GT ISZERO PUSH2 0x39C2 JUMPI PUSH1 0x0 DUP1 REVERT JUMPDEST PUSH2 0x39CE DUP8 DUP3 DUP9 ADD PUSH2 0x38B2 JUMP JUMPDEST SWAP4 POP POP PUSH1 0x40 PUSH2 0x39DF DUP8 DUP3 DUP9 ADD PUSH2 0x385E JUMP JUMPDEST SWAP3 POP POP PUSH1 0x60 PUSH2 0x39F0 DUP8 DUP3 DUP9 ADD PUSH2 0x389D JUMP JUMPDEST SWAP2 POP POP SWAP3 SWAP6 SWAP2 SWAP5 POP SWAP3 POP JUMP JUMPDEST PUSH1 0x0 DUP1 PUSH1 0x0 DUP1 PUSH1 0x0 PUSH1 0xA0 DUP7 DUP9 SUB SLT ISZERO PUSH2 0x3A14 JUMPI PUSH1 0x0 DUP1 REVERT JUMPDEST PUSH1 0x0 PUSH2 0x3A22 DUP9 DUP3 DUP10 ADD PUSH2 0x385E JUMP JUMPDEST SWAP6 POP POP PUSH1 0x20 DUP7 ADD CALLDATALOAD PUSH8 0xFFFFFFFFFFFFFFFF DUP2 GT ISZERO PUSH2 0x3A3F JUMPI PUSH1 0x0 DUP1 REVERT JUMPDEST PUSH2 0x3A4B DUP9 DUP3 DUP10 ADD PUSH2 0x38B2 JUMP JUMPDEST SWAP5 POP POP PUSH1 0x40 DUP7 ADD CALLDATALOAD PUSH8 0xFFFFFFFFFFFFFFFF DUP2 GT ISZERO PUSH2 0x3A68 JUMPI PUSH1 0x0 DUP1 REVERT JUMPDEST PUSH2 0x3A74 DUP9 DUP3 DUP10 ADD PUSH2 0x38B2 JUMP JUMPDEST SWAP4 POP POP PUSH1 0x60 DUP7 ADD CALLDATALOAD PUSH8 0xFFFFFFFFFFFFFFFF DUP2 GT ISZERO PUSH2 0x3A91 JUMPI PUSH1 0x0 DUP1 REVERT JUMPDEST PUSH2 0x3A9D DUP9 DUP3 DUP10 ADD PUSH2 0x38B2 JUMP JUMPDEST SWAP3 POP POP PUSH1 0x80 PUSH2 0x3AAE DUP9 DUP3 DUP10 ADD PUSH2 0x38DC JUMP JUMPDEST SWAP2 POP POP SWAP3 SWAP6 POP SWAP3 SWAP6 SWAP1 SWAP4 POP JUMP JUMPDEST PUSH1 0x0 DUP1 PUSH1 0x0 DUP1 PUSH1 0x0 DUP1 PUSH1 0xC0 DUP8 DUP10 SUB SLT ISZERO PUSH2 0x3AD4 JUMPI PUSH1 0x0 DUP1 REVERT JUMPDEST PUSH1 0x0 PUSH2 0x3AE2 DUP10 DUP3 DUP11 ADD PUSH2 0x385E JUMP JUMPDEST SWAP7 POP POP PUSH1 0x20 DUP8 ADD CALLDATALOAD PUSH8 0xFFFFFFFFFFFFFFFF DUP2 GT ISZERO PUSH2 0x3AFF JUMPI PUSH1 0x0 DUP1 REVERT JUMPDEST PUSH2 0x3B0B DUP10 DUP3 DUP11 ADD PUSH2 0x38B2 JUMP JUMPDEST SWAP6 POP POP PUSH1 0x40 DUP8 ADD CALLDATALOAD PUSH8 0xFFFFFFFFFFFFFFFF DUP2 GT ISZERO PUSH2 0x3B28 JUMPI PUSH1 0x0 DUP1 REVERT JUMPDEST PUSH2 0x3B34 DUP10 DUP3 DUP11 ADD PUSH2 0x38B2 JUMP JUMPDEST SWAP5 POP POP PUSH1 0x60 DUP8 ADD CALLDATALOAD PUSH8 0xFFFFFFFFFFFFFFFF DUP2 GT ISZERO PUSH2 0x3B51 JUMPI PUSH1 0x0 DUP1 REVERT JUMPDEST PUSH2 0x3B5D DUP10 DUP3 DUP11 ADD PUSH2 0x38B2 JUMP JUMPDEST SWAP4 POP POP PUSH1 0x80 PUSH2 0x3B6E DUP10 DUP3 DUP11 ADD PUSH2 0x38DC JUMP JUMPDEST SWAP3 POP POP PUSH1 0xA0 PUSH2 0x3B7F DUP10 DUP3 DUP11 ADD PUSH2 0x389D JUMP JUMPDEST SWAP2 POP POP SWAP3 SWAP6 POP SWAP3 SWAP6 POP SWAP3 SWAP6 JUMP JUMPDEST PUSH1 0x0 DUP1 PUSH1 0x0 DUP1 PUSH1 0x80 DUP6 DUP8 SUB SLT ISZERO PUSH2 0x3BA2 JUMPI PUSH1 0x0 DUP1 REVERT JUMPDEST PUSH1 0x0 DUP6 ADD CALLDATALOAD PUSH8 0xFFFFFFFFFFFFFFFF DUP2 GT ISZERO PUSH2 0x3BBC JUMPI PUSH1 0x0 DUP1 REVERT JUMPDEST PUSH2 0x3BC8 DUP8 DUP3 DUP9 ADD PUSH2 0x38B2 JUMP JUMPDEST SWAP5 POP POP PUSH1 0x20 DUP6 ADD CALLDATALOAD PUSH8 0xFFFFFFFFFFFFFFFF DUP2 GT ISZERO PUSH2 0x3BE5 JUMPI PUSH1 0x0 DUP1 REVERT JUMPDEST PUSH2 0x3BF1 DUP8 DUP3 DUP9 ADD PUSH2 0x38B2 JUMP JUMPDEST SWAP4 POP POP PUSH1 0x40 PUSH2 0x3C02 DUP8 DUP3 DUP9 ADD PUSH2 0x385E JUMP JUMPDEST SWAP3 POP POP PUSH1 0x60 PUSH2 0x3C13 DUP8 DUP3 DUP9 ADD PUSH2 0x389D JUMP JUMPDEST SWAP2 POP POP SWAP3 SWAP6 SWAP2 SWAP5 POP SWAP3 POP JUMP JUMPDEST PUSH1 0x0 PUSH1 0x20 DUP3 DUP5 SUB SLT ISZERO PUSH2 0x3C31 JUMPI PUSH1 0x0 DUP1 REVERT JUMPDEST PUSH1 0x0 PUSH2 0x3C3F DUP5 DUP3 DUP6 ADD PUSH2 0x38DC JUMP JUMPDEST SWAP2 POP POP SWAP3 SWAP2 POP POP JUMP JUMPDEST PUSH1 0x0 DUP1 PUSH1 0x40 DUP4 DUP6 SUB SLT ISZERO PUSH2 0x3C5B JUMPI PUSH1 0x0 DUP1 REVERT JUMPDEST PUSH1 0x0 PUSH2 0x3C69 DUP6 DUP3 DUP7 ADD PUSH2 0x38DC JUMP JUMPDEST SWAP3 POP POP PUSH1 0x20 DUP4 ADD CALLDATALOAD PUSH8 0xFFFFFFFFFFFFFFFF DUP2 GT ISZERO PUSH2 0x3C86 JUMPI PUSH1 0x0 DUP1 REVERT JUMPDEST PUSH2 0x3C92 DUP6 DUP3 DUP7 ADD PUSH2 0x3873 JUMP JUMPDEST SWAP2 POP POP SWAP3 POP SWAP3 SWAP1 POP JUMP JUMPDEST PUSH1 0x0 DUP1 PUSH1 0x0 DUP1 PUSH1 0x0 PUSH1 0xA0 DUP7 DUP9 SUB SLT ISZERO PUSH2 0x3CB4 JUMPI PUSH1 0x0 DUP1 REVERT JUMPDEST PUSH1 0x0 PUSH2 0x3CC2 DUP9 DUP3 DUP10 ADD PUSH2 0x38DC JUMP JUMPDEST SWAP6 POP POP PUSH1 0x20 DUP7 ADD CALLDATALOAD PUSH8 0xFFFFFFFFFFFFFFFF DUP2 GT ISZERO PUSH2 0x3CDF JUMPI PUSH1 0x0 DUP1 REVERT JUMPDEST PUSH2 0x3CEB DUP9 DUP3 DUP10 ADD PUSH2 0x38B2 JUMP JUMPDEST SWAP5 POP POP PUSH1 0x40 DUP7 ADD CALLDATALOAD PUSH8 0xFFFFFFFFFFFFFFFF DUP2 GT ISZERO PUSH2 0x3D08 JUMPI PUSH1 0x0 DUP1 REVERT JUMPDEST PUSH2 0x3D14 DUP9 DUP3 DUP10 ADD PUSH2 0x38B2 JUMP JUMPDEST SWAP4 POP POP PUSH1 0x60 PUSH2 0x3D25 DUP9 DUP3 DUP10 ADD PUSH2 0x385E JUMP JUMPDEST SWAP3 POP POP PUSH1 0x80 PUSH2 0x3D36 DUP9 DUP3 DUP10 ADD PUSH2 0x389D JUMP JUMPDEST SWAP2 POP POP SWAP3 SWAP6 POP SWAP3 SWAP6 SWAP1 SWAP4 POP JUMP JUMPDEST PUSH1 0x0 PUSH2 0x3D4F DUP4 DUP4 PUSH2 0x41AF JUMP JUMPDEST SWAP1 POP SWAP3 SWAP2 POP POP JUMP JUMPDEST PUSH1 0x0 PUSH2 0x3D63 DUP4 DUP4 PUSH2 0x4212 JUMP JUMPDEST SWAP1 POP SWAP3 SWAP2 POP POP JUMP JUMPDEST PUSH1 0x0 PUSH2 0x3D77 DUP4 DUP4 PUSH2 0x42A9 JUMP JUMPDEST SWAP1 POP SWAP3 SWAP2 POP POP JUMP JUMPDEST PUSH1 0x0 PUSH2 0x3D8B DUP4 DUP4 PUSH2 0x4340 JUMP JUMPDEST PUSH1 0x20 DUP4 ADD SWAP1 POP SWAP3 SWAP2 POP POP JUMP JUMPDEST PUSH2 0x3DA0 DUP2 PUSH2 0x49DA JUMP JUMPDEST DUP3 MSTORE POP POP JUMP JUMPDEST PUSH2 0x3DAF DUP2 PUSH2 0x49DA JUMP JUMPDEST DUP3 MSTORE POP POP JUMP JUMPDEST PUSH1 0x0 PUSH2 0x3DC0 DUP3 PUSH2 0x48F8 JUMP JUMPDEST PUSH2 0x3DCA DUP2 DUP6 PUSH2 0x4963 JUMP JUMPDEST SWAP4 POP DUP4 PUSH1 0x20 DUP3 MUL DUP6 ADD PUSH2 0x3DDC DUP6 PUSH2 0x48A3 JUMP JUMPDEST DUP1 PUSH1 0x0 JUMPDEST DUP6 DUP2 LT ISZERO PUSH2 0x3E18 JUMPI DUP5 DUP5 SUB DUP10 MSTORE DUP2 MLOAD PUSH2 0x3DF9 DUP6 DUP3 PUSH2 0x3D43 JUMP JUMPDEST SWAP5 POP PUSH2 0x3E04 DUP4 PUSH2 0x492F JUMP JUMPDEST SWAP3 POP PUSH1 0x20 DUP11 ADD SWAP10 POP POP PUSH1 0x1 DUP2 ADD SWAP1 POP PUSH2 0x3DE0 JUMP JUMPDEST POP DUP3 SWAP8 POP DUP8 SWAP6 POP POP POP POP POP POP SWAP3 SWAP2 POP POP JUMP JUMPDEST PUSH1 0x0 PUSH2 0x3E35 DUP3 PUSH2 0x4903 JUMP JUMPDEST PUSH2 0x3E3F DUP2 DUP6 PUSH2 0x4974 JUMP JUMPDEST SWAP4 POP DUP4 PUSH1 0x20 DUP3 MUL DUP6 ADD PUSH2 0x3E51 DUP6 PUSH2 0x48B3 JUMP JUMPDEST DUP1 PUSH1 0x0 JUMPDEST DUP6 DUP2 LT ISZERO PUSH2 0x3E8D JUMPI DUP5 DUP5 SUB DUP10 MSTORE DUP2 MLOAD PUSH2 0x3E6E DUP6 DUP3 PUSH2 0x3D57 JUMP JUMPDEST SWAP5 POP PUSH2 0x3E79 DUP4 PUSH2 0x493C JUMP JUMPDEST SWAP3 POP PUSH1 0x20 DUP11 ADD SWAP10 POP POP PUSH1 0x1 DUP2 ADD SWAP1 POP PUSH2 0x3E55 JUMP JUMPDEST POP DUP3 SWAP8 POP DUP8 SWAP6 POP POP POP POP POP POP SWAP3 SWAP2 POP POP JUMP JUMPDEST PUSH1 0x0 PUSH2 0x3EAA DUP3 PUSH2 0x490E JUMP JUMPDEST PUSH2 0x3EB4 DUP2 DUP6 PUSH2 0x4985 JUMP JUMPDEST SWAP4 POP DUP4 PUSH1 0x20 DUP3 MUL DUP6 ADD PUSH2 0x3EC6 DUP6 PUSH2 0x48C3 JUMP JUMPDEST DUP1 PUSH1 0x0 JUMPDEST DUP6 DUP2 LT ISZERO PUSH2 0x3F02 JUMPI DUP5 DUP5 SUB DUP10 MSTORE DUP2 MLOAD PUSH2 0x3EE3 DUP6 DUP3 PUSH2 0x3D6B JUMP JUMPDEST SWAP5 POP PUSH2 0x3EEE DUP4 PUSH2 0x4949 JUMP JUMPDEST SWAP3 POP PUSH1 0x20 DUP11 ADD SWAP10 POP POP PUSH1 0x1 DUP2 ADD SWAP1 POP PUSH2 0x3ECA JUMP JUMPDEST POP DUP3 SWAP8 POP DUP8 SWAP6 POP POP POP POP POP POP SWAP3 SWAP2 POP POP JUMP JUMPDEST PUSH1 0x0 PUSH2 0x3F1F DUP3 PUSH2 0x4919 JUMP JUMPDEST PUSH2 0x3F29 DUP2 DUP6 PUSH2 0x4996 JUMP JUMPDEST SWAP4 POP PUSH2 0x3F34 DUP4 PUSH2 0x48D3 JUMP JUMPDEST DUP1 PUSH1 0x0 JUMPDEST DUP4 DUP2 LT ISZERO PUSH2 0x3F65 JUMPI DUP2 MLOAD PUSH2 0x3F4C DUP9 DUP3 PUSH2 0x3D7F JUMP JUMPDEST SWAP8 POP PUSH2 0x3F57 DUP4 PUSH2 0x4956 JUMP JUMPDEST SWAP3 POP POP PUSH1 0x1 DUP2 ADD SWAP1 POP PUSH2 0x3F38 JUMP JUMPDEST POP DUP6 SWAP4 POP POP POP POP SWAP3 SWAP2 POP POP JUMP JUMPDEST PUSH1 0x0 PUSH2 0x3F7D DUP3 PUSH2 0x4919 JUMP JUMPDEST PUSH2 0x3F87 DUP2 DUP6 PUSH2 0x49A7 JUMP JUMPDEST SWAP4 POP PUSH2 0x3F92 DUP4 PUSH2 0x48D3 JUMP JUMPDEST DUP1 PUSH1 0x0 JUMPDEST DUP4 DUP2 LT ISZERO PUSH2 0x3FC3 JUMPI DUP2 MLOAD PUSH2 0x3FAA DUP9 DUP3 PUSH2 0x3D7F JUMP JUMPDEST SWAP8 POP PUSH2 0x3FB5 DUP4 PUSH2 0x4956 JUMP JUMPDEST SWAP3 POP POP PUSH1 0x1 DUP2 ADD SWAP1 POP PUSH2 0x3F96 JUMP JUMPDEST POP DUP6 SWAP4 POP POP POP POP SWAP3 SWAP2 POP POP JUMP JUMPDEST PUSH2 0x3FD9 DUP2 PUSH2 0x49EC JUMP JUMPDEST DUP3 MSTORE POP POP JUMP JUMPDEST PUSH2 0x3FE8 DUP2 PUSH2 0x49EC JUMP JUMPDEST DUP3 MSTORE POP POP JUMP JUMPDEST PUSH1 0x0 PUSH2 0x3FF9 DUP3 PUSH2 0x4924 JUMP JUMPDEST PUSH2 0x4003 DUP2 DUP6 PUSH2 0x49B8 JUMP JUMPDEST SWAP4 POP PUSH2 0x4013 DUP2 DUP6 PUSH1 0x20 DUP7 ADD PUSH2 0x4A31 JUMP JUMPDEST PUSH2 0x401C DUP2 PUSH2 0x4A66 JUMP JUMPDEST DUP5 ADD SWAP2 POP POP SWAP3 SWAP2 POP POP JUMP JUMPDEST PUSH1 0x0 PUSH2 0x4032 DUP3 PUSH2 0x4924 JUMP JUMPDEST PUSH2 0x403C DUP2 DUP6 PUSH2 0x49C9 JUMP JUMPDEST SWAP4 POP PUSH2 0x404C DUP2 DUP6 PUSH1 0x20 DUP7 ADD PUSH2 0x4A31 JUMP JUMPDEST PUSH2 0x4055 DUP2 PUSH2 0x4A66 JUMP JUMPDEST DUP5 ADD SWAP2 POP POP SWAP3 SWAP2 POP POP JUMP JUMPDEST PUSH1 0x0 DUP2 SLOAD PUSH1 0x1 DUP2 AND PUSH1 0x0 DUP2 EQ PUSH2 0x407D JUMPI PUSH1 0x1 DUP2 EQ PUSH2 0x40A3 JUMPI PUSH2 0x40E7 JUMP JUMPDEST PUSH1 0x7F PUSH1 0x2 DUP4 DIV AND PUSH2 0x408E DUP2 DUP8 PUSH2 0x49C9 JUMP JUMPDEST SWAP6 POP PUSH1 0xFF NOT DUP4 AND DUP7 MSTORE PUSH1 0x20 DUP7 ADD SWAP4 POP POP PUSH2 0x40E7 JUMP JUMPDEST PUSH1 0x2 DUP3 DIV PUSH2 0x40B1 DUP2 DUP8 PUSH2 0x49C9 JUMP JUMPDEST SWAP6 POP PUSH2 0x40BC DUP6 PUSH2 0x48E3 JUMP JUMPDEST PUSH1 0x0 JUMPDEST DUP3 DUP2 LT ISZERO PUSH2 0x40DE JUMPI DUP2 SLOAD DUP2 DUP10 ADD MSTORE PUSH1 0x1 DUP3 ADD SWAP2 POP PUSH1 0x20 DUP2 ADD SWAP1 POP PUSH2 0x40BF JUMP JUMPDEST DUP1 DUP9 ADD SWAP6 POP POP POP POP JUMPDEST POP POP SWAP3 SWAP2 POP POP JUMP JUMPDEST PUSH1 0x0 PUSH2 0x40FC PUSH1 0x10 DUP4 PUSH2 0x49C9 JUMP JUMPDEST SWAP2 POP PUSH32 0x446F63746F72206E6F7420666F756E6400000000000000000000000000000000 PUSH1 0x0 DUP4 ADD MSTORE PUSH1 0x20 DUP3 ADD SWAP1 POP SWAP2 SWAP1 POP JUMP JUMPDEST PUSH1 0x0 PUSH2 0x413C PUSH1 0x10 DUP4 PUSH2 0x49C9 JUMP JUMPDEST SWAP2 POP PUSH32 0x53656E736F72206E6F7420666F756E6400000000000000000000000000000000 PUSH1 0x0 DUP4 ADD MSTORE PUSH1 0x20 DUP3 ADD SWAP1 POP SWAP2 SWAP1 POP JUMP JUMPDEST PUSH1 0x0 PUSH2 0x417C PUSH1 0x12 DUP4 PUSH2 0x49C9 JUMP JUMPDEST SWAP2 POP PUSH32 0x486F73706974616C206E6F7420666F756E640000000000000000000000000000 PUSH1 0x0 DUP4 ADD MSTORE PUSH1 0x20 DUP3 ADD SWAP1 POP SWAP2 SWAP1 POP JUMP JUMPDEST PUSH1 0x0 PUSH1 0x80 DUP4 ADD PUSH1 0x0 DUP4 ADD MLOAD PUSH2 0x41C7 PUSH1 0x0 DUP7 ADD DUP3 PUSH2 0x3D97 JUMP JUMPDEST POP PUSH1 0x20 DUP4 ADD MLOAD DUP5 DUP3 SUB PUSH1 0x20 DUP7 ADD MSTORE PUSH2 0x41DF DUP3 DUP3 PUSH2 0x3FEE JUMP JUMPDEST SWAP2 POP POP PUSH1 0x40 DUP4 ADD MLOAD PUSH2 0x41F4 PUSH1 0x40 DUP7 ADD DUP3 PUSH2 0x3D97 JUMP JUMPDEST POP PUSH1 0x60 DUP4 ADD MLOAD PUSH2 0x4207 PUSH1 0x60 DUP7 ADD DUP3 PUSH2 0x3FD0 JUMP JUMPDEST POP DUP1 SWAP2 POP POP SWAP3 SWAP2 POP POP JUMP JUMPDEST PUSH1 0x0 PUSH1 0xC0 DUP4 ADD PUSH1 0x0 DUP4 ADD MLOAD PUSH2 0x422A PUSH1 0x0 DUP7 ADD DUP3 PUSH2 0x3D97 JUMP JUMPDEST POP PUSH1 0x20 DUP4 ADD MLOAD DUP5 DUP3 SUB PUSH1 0x20 DUP7 ADD MSTORE PUSH2 0x4242 DUP3 DUP3 PUSH2 0x3FEE JUMP JUMPDEST SWAP2 POP POP PUSH1 0x40 DUP4 ADD MLOAD DUP5 DUP3 SUB PUSH1 0x40 DUP7 ADD MSTORE PUSH2 0x425C DUP3 DUP3 PUSH2 0x3FEE JUMP JUMPDEST SWAP2 POP POP PUSH1 0x60 DUP4 ADD MLOAD DUP5 DUP3 SUB PUSH1 0x60 DUP7 ADD MSTORE PUSH2 0x4276 DUP3 DUP3 PUSH2 0x3FEE JUMP JUMPDEST SWAP2 POP POP PUSH1 0x80 DUP4 ADD MLOAD PUSH2 0x428B PUSH1 0x80 DUP7 ADD DUP3 PUSH2 0x4340 JUMP JUMPDEST POP PUSH1 0xA0 DUP4 ADD MLOAD PUSH2 0x429E PUSH1 0xA0 DUP7 ADD DUP3 PUSH2 0x3FD0 JUMP JUMPDEST POP DUP1 SWAP2 POP POP SWAP3 SWAP2 POP POP JUMP JUMPDEST PUSH1 0x0 PUSH1 0xC0 DUP4 ADD PUSH1 0x0 DUP4 ADD MLOAD PUSH2 0x42C1 PUSH1 0x0 DUP7 ADD DUP3 PUSH2 0x4340 JUMP JUMPDEST POP PUSH1 0x20 DUP4 ADD MLOAD DUP5 DUP3 SUB PUSH1 0x20 DUP7 ADD MSTORE PUSH2 0x42D9 DUP3 DUP3 PUSH2 0x3FEE JUMP JUMPDEST SWAP2 POP POP PUSH1 0x40 DUP4 ADD MLOAD DUP5 DUP3 SUB PUSH1 0x40 DUP7 ADD MSTORE PUSH2 0x42F3 DUP3 DUP3 PUSH2 0x3FEE JUMP JUMPDEST SWAP2 POP POP PUSH1 0x60 DUP4 ADD MLOAD PUSH2 0x4308 PUSH1 0x60 DUP7 ADD DUP3 PUSH2 0x3D97 JUMP JUMPDEST POP PUSH1 0x80 DUP4 ADD MLOAD PUSH2 0x431B PUSH1 0x80 DUP7 ADD DUP3 PUSH2 0x3FD0 JUMP JUMPDEST POP PUSH1 0xA0 DUP4 ADD MLOAD DUP5 DUP3 SUB PUSH1 0xA0 DUP7 ADD MSTORE PUSH2 0x4333 DUP3 DUP3 PUSH2 0x3F14 JUMP JUMPDEST SWAP2 POP POP DUP1 SWAP2 POP POP SWAP3 SWAP2 POP POP JUMP JUMPDEST PUSH2 0x4349 DUP2 PUSH2 0x4A18 JUMP JUMPDEST DUP3 MSTORE POP POP JUMP JUMPDEST PUSH2 0x4358 DUP2 PUSH2 0x4A18 JUMP JUMPDEST DUP3 MSTORE POP POP JUMP JUMPDEST PUSH1 0x0 PUSH1 0x80 DUP3 ADD SWAP1 POP PUSH2 0x4373 PUSH1 0x0 DUP4 ADD DUP8 PUSH2 0x3DA6 JUMP JUMPDEST DUP2 DUP2 SUB PUSH1 0x20 DUP4 ADD MSTORE PUSH2 0x4385 DUP2 DUP7 PUSH2 0x4027 JUMP JUMPDEST SWAP1 POP PUSH2 0x4394 PUSH1 0x40 DUP4 ADD DUP6 PUSH2 0x3DA6 JUMP JUMPDEST PUSH2 0x43A1 PUSH1 0x60 DUP4 ADD DUP5 PUSH2 0x3FDF JUMP JUMPDEST SWAP6 SWAP5 POP POP POP POP POP JUMP JUMPDEST PUSH1 0x0 PUSH1 0xC0 DUP3 ADD SWAP1 POP PUSH2 0x43BF PUSH1 0x0 DUP4 ADD DUP10 PUSH2 0x3DA6 JUMP JUMPDEST DUP2 DUP2 SUB PUSH1 0x20 DUP4 ADD MSTORE PUSH2 0x43D1 DUP2 DUP9 PUSH2 0x4027 JUMP JUMPDEST SWAP1 POP DUP2 DUP2 SUB PUSH1 0x40 DUP4 ADD MSTORE PUSH2 0x43E5 DUP2 DUP8 PUSH2 0x4027 JUMP JUMPDEST SWAP1 POP DUP2 DUP2 SUB PUSH1 0x60 DUP4 ADD MSTORE PUSH2 0x43F9 DUP2 DUP7 PUSH2 0x4027 JUMP JUMPDEST SWAP1 POP PUSH2 0x4408 PUSH1 0x80 DUP4 ADD DUP6 PUSH2 0x434F JUMP JUMPDEST PUSH2 0x4415 PUSH1 0xA0 DUP4 ADD DUP5 PUSH2 0x3FDF JUMP JUMPDEST SWAP8 SWAP7 POP POP POP POP POP POP POP JUMP JUMPDEST PUSH1 0x0 PUSH1 0x80 DUP3 ADD SWAP1 POP PUSH2 0x4435 PUSH1 0x0 DUP4 ADD DUP8 PUSH2 0x3DA6 JUMP JUMPDEST DUP2 DUP2 SUB PUSH1 0x20 DUP4 ADD MSTORE PUSH2 0x4447 DUP2 DUP7 PUSH2 0x4060 JUMP JUMPDEST SWAP1 POP PUSH2 0x4456 PUSH1 0x40 DUP4 ADD DUP6 PUSH2 0x3DA6 JUMP JUMPDEST PUSH2 0x4463 PUSH1 0x60 DUP4 ADD DUP5 PUSH2 0x3FDF JUMP JUMPDEST SWAP6 SWAP5 POP POP POP POP POP JUMP JUMPDEST PUSH1 0x0 PUSH1 0xC0 DUP3 ADD SWAP1 POP PUSH2 0x4481 PUSH1 0x0 DUP4 ADD DUP10 PUSH2 0x3DA6 JUMP JUMPDEST DUP2 DUP2 SUB PUSH1 0x20 DUP4 ADD MSTORE PUSH2 0x4493 DUP2 DUP9 PUSH2 0x4060 JUMP JUMPDEST SWAP1 POP DUP2 DUP2 SUB PUSH1 0x40 DUP4 ADD MSTORE PUSH2 0x44A7 DUP2 DUP8 PUSH2 0x4060 JUMP JUMPDEST SWAP1 POP DUP2 DUP2 SUB PUSH1 0x60 DUP4 ADD MSTORE PUSH2 0x44BB DUP2 DUP7 PUSH2 0x4060 JUMP JUMPDEST SWAP1 POP PUSH2 0x44CA PUSH1 0x80 DUP4 ADD DUP6 PUSH2 0x434F JUMP JUMPDEST PUSH2 0x44D7 PUSH1 0xA0 DUP4 ADD DUP5 PUSH2 0x3FDF JUMP JUMPDEST SWAP8 SWAP7 POP POP POP POP POP POP POP JUMP JUMPDEST PUSH1 0x0 PUSH1 0x20 DUP3 ADD SWAP1 POP DUP2 DUP2 SUB PUSH1 0x0 DUP4 ADD MSTORE PUSH2 0x44FC DUP2 DUP5 PUSH2 0x3DB5 JUMP JUMPDEST SWAP1 POP SWAP3 SWAP2 POP POP JUMP JUMPDEST PUSH1 0x0 PUSH1 0x20 DUP3 ADD SWAP1 POP DUP2 DUP2 SUB PUSH1 0x0 DUP4 ADD MSTORE PUSH2 0x451E DUP2 DUP5 PUSH2 0x3E2A JUMP JUMPDEST SWAP1 POP SWAP3 SWAP2 POP POP JUMP JUMPDEST PUSH1 0x0 PUSH1 0x20 DUP3 ADD SWAP1 POP DUP2 DUP2 SUB PUSH1 0x0 DUP4 ADD MSTORE PUSH2 0x4540 DUP2 DUP5 PUSH2 0x3E9F JUMP JUMPDEST SWAP1 POP SWAP3 SWAP2 POP POP JUMP JUMPDEST PUSH1 0x0 PUSH1 0x20 DUP3 ADD SWAP1 POP DUP2 DUP2 SUB PUSH1 0x0 DUP4 ADD MSTORE PUSH2 0x4562 DUP2 DUP5 PUSH2 0x3F72 JUMP JUMPDEST SWAP1 POP SWAP3 SWAP2 POP POP JUMP JUMPDEST PUSH1 0x0 PUSH1 0x60 DUP3 ADD SWAP1 POP DUP2 DUP2 SUB PUSH1 0x0 DUP4 ADD MSTORE PUSH2 0x4584 DUP2 DUP7 PUSH2 0x4027 JUMP JUMPDEST SWAP1 POP PUSH2 0x4593 PUSH1 0x20 DUP4 ADD DUP6 PUSH2 0x3DA6 JUMP JUMPDEST PUSH2 0x45A0 PUSH1 0x40 DUP4 ADD DUP5 PUSH2 0x3FDF JUMP JUMPDEST SWAP5 SWAP4 POP POP POP POP JUMP JUMPDEST PUSH1 0x0 PUSH1 0x80 DUP3 ADD SWAP1 POP DUP2 DUP2 SUB PUSH1 0x0 DUP4 ADD MSTORE PUSH2 0x45C2 DUP2 DUP8 PUSH2 0x4027 JUMP JUMPDEST SWAP1 POP DUP2 DUP2 SUB PUSH1 0x20 DUP4 ADD MSTORE PUSH2 0x45D6 DUP2 DUP7 PUSH2 0x4027 JUMP JUMPDEST SWAP1 POP PUSH2 0x45E5 PUSH1 0x40 DUP4 ADD DUP6 PUSH2 0x3DA6 JUMP JUMPDEST PUSH2 0x45F2 PUSH1 0x60 DUP4 ADD DUP5 PUSH2 0x3FDF JUMP JUMPDEST SWAP6 SWAP5 POP POP POP POP POP JUMP JUMPDEST PUSH1 0x0 PUSH1 0xA0 DUP3 ADD SWAP1 POP DUP2 DUP2 SUB PUSH1 0x0 DUP4 ADD MSTORE PUSH2 0x4615 DUP2 DUP9 PUSH2 0x4027 JUMP JUMPDEST SWAP1 POP DUP2 DUP2 SUB PUSH1 0x20 DUP4 ADD MSTORE PUSH2 0x4629 DUP2 DUP8 PUSH2 0x4027 JUMP JUMPDEST SWAP1 POP DUP2 DUP2 SUB PUSH1 0x40 DUP4 ADD MSTORE PUSH2 0x463D DUP2 DUP7 PUSH2 0x4027 JUMP JUMPDEST SWAP1 POP PUSH2 0x464C PUSH1 0x60 DUP4 ADD DUP6 PUSH2 0x434F JUMP JUMPDEST PUSH2 0x4659 PUSH1 0x80 DUP4 ADD DUP5 PUSH2 0x3FDF JUMP JUMPDEST SWAP7 SWAP6 POP POP POP POP POP POP JUMP JUMPDEST PUSH1 0x0 PUSH1 0x20 DUP3 ADD SWAP1 POP DUP2 DUP2 SUB PUSH1 0x0 DUP4 ADD MSTORE PUSH2 0x467C DUP2 PUSH2 0x40EF JUMP JUMPDEST SWAP1 POP SWAP2 SWAP1 POP JUMP JUMPDEST PUSH1 0x0 PUSH1 0x20 DUP3 ADD SWAP1 POP DUP2 DUP2 SUB PUSH1 0x0 DUP4 ADD MSTORE PUSH2 0x469C DUP2 PUSH2 0x412F JUMP JUMPDEST SWAP1 POP SWAP2 SWAP1 POP JUMP JUMPDEST PUSH1 0x0 PUSH1 0x20 DUP3 ADD SWAP1 POP DUP2 DUP2 SUB PUSH1 0x0 DUP4 ADD MSTORE PUSH2 0x46BC DUP2 PUSH2 0x416F JUMP JUMPDEST SWAP1 POP SWAP2 SWAP1 POP JUMP JUMPDEST PUSH1 0x0 PUSH1 0x20 DUP3 ADD SWAP1 POP PUSH2 0x46D8 PUSH1 0x0 DUP4 ADD DUP5 PUSH2 0x434F JUMP JUMPDEST SWAP3 SWAP2 POP POP JUMP JUMPDEST PUSH1 0x0 PUSH1 0xA0 DUP3 ADD SWAP1 POP PUSH2 0x46F3 PUSH1 0x0 DUP4 ADD DUP9 PUSH2 0x434F JUMP JUMPDEST DUP2 DUP2 SUB PUSH1 0x20 DUP4 ADD MSTORE PUSH2 0x4705 DUP2 DUP8 PUSH2 0x4027 JUMP JUMPDEST SWAP1 POP DUP2 DUP2 SUB PUSH1 0x40 DUP4 ADD MSTORE PUSH2 0x4719 DUP2 DUP7 PUSH2 0x4027 JUMP JUMPDEST SWAP1 POP PUSH2 0x4728 PUSH1 0x60 DUP4 ADD DUP6 PUSH2 0x3DA6 JUMP JUMPDEST PUSH2 0x4735 PUSH1 0x80 DUP4 ADD DUP5 PUSH2 0x3FDF JUMP JUMPDEST SWAP7 SWAP6 POP POP POP POP POP POP JUMP JUMPDEST PUSH1 0x0 PUSH1 0xC0 DUP3 ADD SWAP1 POP PUSH2 0x4754 PUSH1 0x0 DUP4 ADD DUP10 PUSH2 0x434F JUMP JUMPDEST DUP2 DUP2 SUB PUSH1 0x20 DUP4 ADD MSTORE PUSH2 0x4766 DUP2 DUP9 PUSH2 0x4027 JUMP JUMPDEST SWAP1 POP DUP2 DUP2 SUB PUSH1 0x40 DUP4 ADD MSTORE PUSH2 0x477A DUP2 DUP8 PUSH2 0x4027 JUMP JUMPDEST SWAP1 POP PUSH2 0x4789 PUSH1 0x60 DUP4 ADD DUP7 PUSH2 0x3DA6 JUMP JUMPDEST PUSH2 0x4796 PUSH1 0x80 DUP4 ADD DUP6 PUSH2 0x3FDF JUMP JUMPDEST DUP2 DUP2 SUB PUSH1 0xA0 DUP4 ADD MSTORE PUSH2 0x47A8 DUP2 DUP5 PUSH2 0x3F72 JUMP JUMPDEST SWAP1 POP SWAP8 SWAP7 POP POP POP POP POP POP POP JUMP JUMPDEST PUSH1 0x0 PUSH1 0xA0 DUP3 ADD SWAP1 POP PUSH2 0x47CA PUSH1 0x0 DUP4 ADD DUP9 PUSH2 0x434F JUMP JUMPDEST DUP2 DUP2 SUB PUSH1 0x20 DUP4 ADD MSTORE PUSH2 0x47DC DUP2 DUP8 PUSH2 0x4060 JUMP JUMPDEST SWAP1 POP DUP2 DUP2 SUB PUSH1 0x40 DUP4 ADD MSTORE PUSH2 0x47F0 DUP2 DUP7 PUSH2 0x4060 JUMP JUMPDEST SWAP1 POP PUSH2 0x47FF PUSH1 0x60 DUP4 ADD DUP6 PUSH2 0x3DA6 JUMP JUMPDEST PUSH2 0x480C PUSH1 0x80 DUP4 ADD DUP5 PUSH2 0x3FDF JUMP JUMPDEST SWAP7 SWAP6 POP POP POP POP POP POP JUMP JUMPDEST PUSH1 0x0 PUSH1 0x40 MLOAD SWAP1 POP DUP2 DUP2 ADD DUP2 DUP2 LT PUSH8 0xFFFFFFFFFFFFFFFF DUP3 GT OR ISZERO PUSH2 0x483D JUMPI PUSH2 0x483C PUSH2 0x4A64 JUMP JUMPDEST JUMPDEST DUP1 PUSH1 0x40 MSTORE POP SWAP2 SWAP1 POP JUMP JUMPDEST PUSH1 0x0 PUSH8 0xFFFFFFFFFFFFFFFF DUP3 GT ISZERO PUSH2 0x4862 JUMPI PUSH2 0x4861 PUSH2 0x4A64 JUMP JUMPDEST JUMPDEST PUSH1 0x20 DUP3 MUL SWAP1 POP PUSH1 0x20 DUP2 ADD SWAP1 POP SWAP2 SWAP1 POP JUMP JUMPDEST PUSH1 0x0 PUSH8 0xFFFFFFFFFFFFFFFF DUP3 GT ISZERO PUSH2 0x488E JUMPI PUSH2 0x488D PUSH2 0x4A64 JUMP JUMPDEST JUMPDEST PUSH1 0x1F NOT PUSH1 0x1F DUP4 ADD AND SWAP1 POP PUSH1 0x20 DUP2 ADD SWAP1 POP SWAP2 SWAP1 POP JUMP JUMPDEST PUSH1 0x0 DUP2 SWAP1 POP PUSH1 0x20 DUP3 ADD SWAP1 POP SWAP2 SWAP1 POP JUMP JUMPDEST PUSH1 0x0 DUP2 SWAP1 POP PUSH1 0x20 DUP3 ADD SWAP1 POP SWAP2 SWAP1 POP JUMP JUMPDEST PUSH1 0x0 DUP2 SWAP1 POP PUSH1 0x20 DUP3 ADD SWAP1 POP SWAP2 SWAP1 POP JUMP JUMPDEST PUSH1 0x0 DUP2 SWAP1 POP PUSH1 0x20 DUP3 ADD SWAP1 POP SWAP2 SWAP1 POP JUMP JUMPDEST PUSH1 0x0 DUP2 SWAP1 POP DUP2 PUSH1 0x0 MSTORE PUSH1 0x20 PUSH1 0x0 KECCAK256 SWAP1 POP SWAP2 SWAP1 POP JUMP JUMPDEST PUSH1 0x0 DUP2 MLOAD SWAP1 POP SWAP2 SWAP1 POP JUMP JUMPDEST PUSH1 0x0 DUP2 MLOAD SWAP1 POP SWAP2 SWAP1 POP JUMP JUMPDEST PUSH1 0x0 DUP2 MLOAD SWAP1 POP SWAP2 SWAP1 POP JUMP JUMPDEST PUSH1 0x0 DUP2 MLOAD SWAP1 POP SWAP2 SWAP1 POP JUMP JUMPDEST PUSH1 0x0 DUP2 MLOAD SWAP1 POP SWAP2 SWAP1 POP JUMP JUMPDEST PUSH1 0x0 PUSH1 0x20 DUP3 ADD SWAP1 POP SWAP2 SWAP1 POP JUMP JUMPDEST PUSH1 0x0 PUSH1 0x20 DUP3 ADD SWAP1 POP SWAP2 SWAP1 POP JUMP JUMPDEST PUSH1 0x0 PUSH1 0x20 DUP3 ADD SWAP1 POP SWAP2 SWAP1 POP JUMP JUMPDEST PUSH1 0x0 PUSH1 0x20 DUP3 ADD SWAP1 POP SWAP2 SWAP1 POP JUMP JUMPDEST PUSH1 0x0 DUP3 DUP3 MSTORE PUSH1 0x20 DUP3 ADD SWAP1 POP SWAP3 SWAP2 POP POP JUMP JUMPDEST PUSH1 0x0 DUP3 DUP3 MSTORE PUSH1 0x20 DUP3 ADD SWAP1 POP SWAP3 SWAP2 POP POP JUMP JUMPDEST PUSH1 0x0 DUP3 DUP3 MSTORE PUSH1 0x20 DUP3 ADD SWAP1 POP SWAP3 SWAP2 POP POP JUMP JUMPDEST PUSH1 0x0 DUP3 DUP3 MSTORE PUSH1 0x20 DUP3 ADD SWAP1 POP SWAP3 SWAP2 POP POP JUMP JUMPDEST PUSH1 0x0 DUP3 DUP3 MSTORE PUSH1 0x20 DUP3 ADD SWAP1 POP SWAP3 SWAP2 POP POP JUMP JUMPDEST PUSH1 0x0 DUP3 DUP3 MSTORE PUSH1 0x20 DUP3 ADD SWAP1 POP SWAP3 SWAP2 POP POP JUMP JUMPDEST PUSH1 0x0 DUP3 DUP3 MSTORE PUSH1 0x20 DUP3 ADD SWAP1 POP SWAP3 SWAP2 POP POP JUMP JUMPDEST PUSH1 0x0 PUSH2 0x49E5 DUP3 PUSH2 0x49F8 JUMP JUMPDEST SWAP1 POP SWAP2 SWAP1 POP JUMP JUMPDEST PUSH1 0x0 DUP2 ISZERO ISZERO SWAP1 POP SWAP2 SWAP1 POP JUMP JUMPDEST PUSH1 0x0 PUSH20 0xFFFFFFFFFFFFFFFFFFFFFFFFFFFFFFFFFFFFFFFF DUP3 AND SWAP1 POP SWAP2 SWAP1 POP JUMP JUMPDEST PUSH1 0x0 DUP2 SWAP1 POP SWAP2 SWAP1 POP JUMP JUMPDEST DUP3 DUP2 DUP4 CALLDATACOPY PUSH1 0x0 DUP4 DUP4 ADD MSTORE POP POP POP JUMP JUMPDEST PUSH1 0x0 JUMPDEST DUP4 DUP2 LT ISZERO PUSH2 0x4A4F JUMPI DUP1 DUP3 ADD MLOAD DUP2 DUP5 ADD MSTORE PUSH1 0x20 DUP2 ADD SWAP1 POP PUSH2 0x4A34 JUMP JUMPDEST DUP4 DUP2 GT ISZERO PUSH2 0x4A5E JUMPI PUSH1 0x0 DUP5 DUP5 ADD MSTORE JUMPDEST POP POP POP POP JUMP JUMPDEST INVALID JUMPDEST PUSH1 0x0 PUSH1 0x1F NOT PUSH1 0x1F DUP4 ADD AND SWAP1 POP SWAP2 SWAP1 POP JUMP JUMPDEST PUSH2 0x4A80 DUP2 PUSH2 0x49DA JUMP JUMPDEST DUP2 EQ PUSH2 0x4A8B JUMPI PUSH1 0x0 DUP1 REVERT JUMPDEST POP JUMP JUMPDEST PUSH2 0x4A97 DUP2 PUSH2 0x49EC JUMP JUMPDEST DUP2 EQ PUSH2 0x4AA2 JUMPI PUSH1 0x0 DUP1 REVERT JUMPDEST POP JUMP JUMPDEST PUSH2 0x4AAE DUP2 PUSH2 0x4A18 JUMP JUMPDEST DUP2 EQ PUSH2 0x4AB9 JUMPI PUSH1 0x0 DUP1 REVERT JUMPDEST POP JUMP INVALID LOG2 PUSH5 0x6970667358 0x22 SLT KECCAK256 DUP4 GT LOG2 0xE1 LOG2 ISZERO NUMBER PUSH32 0xFBBBCD5B92127D271351BB96D8789285563AEF1E2BB4680064736F6C63430007 MOD STOP CALLER "
    },
    "gasEstimates": {
      "creation": {
        "codeDepositCost": "3837200",
        "executionCost": "25221",
        "totalCost": "3862421"
      },
      "external": {
        "AddDoctor(address,string,address)": "infinite",
        "AddHospital(address,string,string,string,uint256)": "infinite",
        "AddSensor(string,string,address,bool)": "infinite",
        "Doctors(address)": "infinite",
        "Hospitals(address)": "infinite",
        "Length_Doctors()": "1236",
        "Length_Hospitals()": "1190",
        "Length_sensors()": "1256",
        "ReadDoctor(address)": "infinite",
        "ReadHospital(address)": "infinite",
        "ReadSensor(uint256)": "infinite",
        "RemoveDoctor(address)": "infinite",
        "RemoveHospital(address)": "infinite",
        "RemoveSensor(uint256)": "infinite",
        "Sensors(address)": "infinite",
        "UpdateDoctor(address,string,address,bool)": "infinite",
        "UpdateHospital(address,string,string,string,uint256,bool)": "infinite",
        "UpdateSensor(uint256,string,string,address,bool)": "infinite",
        "doctorsHospital(uint256)": "infinite",
        "getAllDoctors()": "infinite",
        "getAllDoctorsInHospital(address)": "infinite",
        "getAllHospitals()": "infinite",
        "getAllSensorOfDoctor(address)": "infinite",
        "getAllSensors()": "infinite",
        "hospitalCenters(uint256)": "infinite",
        "sendData(uint256,uint256[])": "infinite",
        "sensorsDoctor(uint256)": "infinite",
        "viewSensorData(uint256)": "infinite"
      },
      "internal": {
        "FindDoctor(address)": "infinite",
        "FindHospital(address)": "infinite",
        "FindSensor(uint256)": "infinite"
      }
    },
    "methodIdentifiers": {
      "AddDoctor(address,string,address)": "e1ee3b56",
      "AddHospital(address,string,string,string,uint256)": "a27876c5",
      "AddSensor(string,string,address,bool)": "1b057e40",
      "Doctors(address)": "dc7aa36b",
      "Hospitals(address)": "a549a4ed",
      "Length_Doctors()": "1ba51696",
      "Length_Hospitals()": "a17d7a38",
      "Length_sensors()": "b5843613",
      "ReadDoctor(address)": "6cd8ebdc",
      "ReadHospital(address)": "9b70e779",
      "ReadSensor(uint256)": "02655c2e",
      "RemoveDoctor(address)": "a0568e2d",
      "RemoveHospital(address)": "4807fc69",
      "RemoveSensor(uint256)": "6151efb1",
      "Sensors(address)": "898bd140",
      "UpdateDoctor(address,string,address,bool)": "60ea3cdc",
      "UpdateHospital(address,string,string,string,uint256,bool)": "7fe53f83",
      "UpdateSensor(uint256,string,string,address,bool)": "6f39507d",
      "doctorsHospital(uint256)": "8db2fc41",
      "getAllDoctors()": "f0d95090",
      "getAllDoctorsInHospital(address)": "c266406d",
      "getAllHospitals()": "4e9f7154",
      "getAllSensorOfDoctor(address)": "9a2e5bed",
      "getAllSensors()": "5a4e5d3e",
      "hospitalCenters(uint256)": "d53d0a85",
      "sendData(uint256,uint256[])": "4444cc92",
      "sensorsDoctor(uint256)": "ea87659f",
      "viewSensorData(uint256)": "c3f4c25f"
    }
  },
  "storageLayout": {
    "storage": [
      {
        "astId": 4,
        "contract": "EHealth.sol:EHealth",
        "label": "nextIdDoctor",
        "offset": 0,
        "slot": "0",
        "type": "t_uint256"
      },
      {
        "astId": 6,
        "contract": "EHealth.sol:EHealth",
        "label": "nextIdSensor",
        "offset": 0,
        "slot": "1",
        "type": "t_uint256"
      },
      {
        "astId": 9,
        "contract": "EHealth.sol:EHealth",
        "label": "owner",
        "offset": 0,
        "slot": "2",
        "type": "t_address"
      },
      {
        "astId": 13,
        "contract": "EHealth.sol:EHealth",
        "label": "Hospitals",
        "offset": 0,
        "slot": "3",
        "type": "t_mapping(t_address,t_struct(Hospital)26_storage)"
      },
      {
        "astId": 29,
        "contract": "EHealth.sol:EHealth",
        "label": "hospitalCenters",
        "offset": 0,
        "slot": "4",
        "type": "t_array(t_struct(Hospital)26_storage)dyn_storage"
      },
      {
        "astId": 33,
        "contract": "EHealth.sol:EHealth",
        "label": "Doctors",
        "offset": 0,
        "slot": "5",
        "type": "t_mapping(t_address,t_struct(Doctor)42_storage)"
      },
      {
        "astId": 45,
        "contract": "EHealth.sol:EHealth",
        "label": "doctorsHospital",
        "offset": 0,
        "slot": "6",
        "type": "t_array(t_struct(Doctor)42_storage)dyn_storage"
      },
      {
        "astId": 49,
        "contract": "EHealth.sol:EHealth",
        "label": "Sensors",
        "offset": 0,
        "slot": "7",
        "type": "t_mapping(t_address,t_struct(Sensor)63_storage)"
      },
      {
        "astId": 66,
        "contract": "EHealth.sol:EHealth",
        "label": "sensorsDoctor",
        "offset": 0,
        "slot": "8",
        "type": "t_array(t_struct(Sensor)63_storage)dyn_storage"
      }
    ],
    "types": {
      "t_address": {
        "encoding": "inplace",
        "label": "address",
        "numberOfBytes": "20"
      },
      "t_array(t_struct(Doctor)42_storage)dyn_storage": {
        "base": "t_struct(Doctor)42_storage",
        "encoding": "dynamic_array",
        "label": "struct EHealth.Doctor[]",
        "numberOfBytes": "32"
      },
      "t_array(t_struct(Hospital)26_storage)dyn_storage": {
        "base": "t_struct(Hospital)26_storage",
        "encoding": "dynamic_array",
        "label": "struct EHealth.Hospital[]",
        "numberOfBytes": "32"
      },
      "t_array(t_struct(Sensor)63_storage)dyn_storage": {
        "base": "t_struct(Sensor)63_storage",
        "encoding": "dynamic_array",
        "label": "struct EHealth.Sensor[]",
        "numberOfBytes": "32"
      },
      "t_array(t_uint256)dyn_storage": {
        "base": "t_uint256",
        "encoding": "dynamic_array",
        "label": "uint256[]",
        "numberOfBytes": "32"
      },
      "t_bool": {
        "encoding": "inplace",
        "label": "bool",
        "numberOfBytes": "1"
      },
      "t_mapping(t_address,t_struct(Doctor)42_storage)": {
        "encoding": "mapping",
        "key": "t_address",
        "label": "mapping(address => struct EHealth.Doctor)",
        "numberOfBytes": "32",
        "value": "t_struct(Doctor)42_storage"
      },
      "t_mapping(t_address,t_struct(Hospital)26_storage)": {
        "encoding": "mapping",
        "key": "t_address",
        "label": "mapping(address => struct EHealth.Hospital)",
        "numberOfBytes": "32",
        "value": "t_struct(Hospital)26_storage"
      },
      "t_mapping(t_address,t_struct(Sensor)63_storage)": {
        "encoding": "mapping",
        "key": "t_address",
        "label": "mapping(address => struct EHealth.Sensor)",
        "numberOfBytes": "32",
        "value": "t_struct(Sensor)63_storage"
      },
      "t_string_storage": {
        "encoding": "bytes",
        "label": "string",
        "numberOfBytes": "32"
      },
      "t_struct(Doctor)42_storage": {
        "encoding": "inplace",
        "label": "struct EHealth.Doctor",
        "members": [
          {
            "astId": 35,
            "contract": "EHealth.sol:EHealth",
            "label": "idDoctor",
            "offset": 0,
            "slot": "0",
            "type": "t_address"
          },
          {
            "astId": 37,
            "contract": "EHealth.sol:EHealth",
            "label": "nameDoctor",
            "offset": 0,
            "slot": "1",
            "type": "t_string_storage"
          },
          {
            "astId": 39,
            "contract": "EHealth.sol:EHealth",
            "label": "hospital",
            "offset": 0,
            "slot": "2",
            "type": "t_address"
          },
          {
            "astId": 41,
            "contract": "EHealth.sol:EHealth",
            "label": "permission",
            "offset": 20,
            "slot": "2",
            "type": "t_bool"
          }
        ],
        "numberOfBytes": "96"
      },
      "t_struct(Hospital)26_storage": {
        "encoding": "inplace",
        "label": "struct EHealth.Hospital",
        "members": [
          {
            "astId": 15,
            "contract": "EHealth.sol:EHealth",
            "label": "idHospital",
            "offset": 0,
            "slot": "0",
            "type": "t_address"
          },
          {
            "astId": 17,
            "contract": "EHealth.sol:EHealth",
            "label": "name",
            "offset": 0,
            "slot": "1",
            "type": "t_string_storage"
          },
          {
            "astId": 19,
            "contract": "EHealth.sol:EHealth",
            "label": "city",
            "offset": 0,
            "slot": "2",
            "type": "t_string_storage"
          },
          {
            "astId": 21,
            "contract": "EHealth.sol:EHealth",
            "label": "state",
            "offset": 0,
            "slot": "3",
            "type": "t_string_storage"
          },
          {
            "astId": 23,
            "contract": "EHealth.sol:EHealth",
            "label": "postalCode",
            "offset": 0,
            "slot": "4",
            "type": "t_uint256"
          },
          {
            "astId": 25,
            "contract": "EHealth.sol:EHealth",
            "label": "permission",
            "offset": 0,
            "slot": "5",
            "type": "t_bool"
          }
        ],
        "numberOfBytes": "192"
      },
      "t_struct(Sensor)63_storage": {
        "encoding": "inplace",
        "label": "struct EHealth.Sensor",
        "members": [
          {
            "astId": 51,
            "contract": "EHealth.sol:EHealth",
            "label": "idSensor",
            "offset": 0,
            "slot": "0",
            "type": "t_uint256"
          },
          {
            "astId": 53,
            "contract": "EHealth.sol:EHealth",
            "label": "MAC",
            "offset": 0,
            "slot": "1",
            "type": "t_string_storage"
          },
          {
            "astId": 55,
            "contract": "EHealth.sol:EHealth",
            "label": "patientName",
            "offset": 0,
            "slot": "2",
            "type": "t_string_storage"
          },
          {
            "astId": 57,
            "contract": "EHealth.sol:EHealth",
            "label": "idDoctor",
            "offset": 0,
            "slot": "3",
            "type": "t_address"
          },
          {
            "astId": 59,
            "contract": "EHealth.sol:EHealth",
            "label": "active",
            "offset": 20,
            "slot": "3",
            "type": "t_bool"
          },
          {
            "astId": 62,
            "contract": "EHealth.sol:EHealth",
            "label": "data",
            "offset": 0,
            "slot": "4",
            "type": "t_array(t_uint256)dyn_storage"
          }
        ],
        "numberOfBytes": "160"
      },
      "t_uint256": {
        "encoding": "inplace",
        "label": "uint256",
        "numberOfBytes": "32"
      }
    }
  },
  "userdoc": {
    "kind": "user",
    "methods": {},
    "version": 1
  }
}