{
  "abi": [
    {
      "anonymous": false,
      "inputs": [
        {
          "indexed": false,
          "internalType": "uint256",
          "name": "",
          "type": "uint256"
        },
        {
          "indexed": false,
          "internalType": "string",
          "name": "",
          "type": "string"
        },
        {
          "indexed": false,
          "internalType": "address",
          "name": "",
          "type": "address"
        },
        {
          "indexed": false,
          "internalType": "bool",
          "name": "",
          "type": "bool"
        }
      ],
      "name": "DeleteDoctor",
      "type": "event",
      "signature": "0x3196e7ce6b332050a55708b2dd6fd95a0381cb56e1dcd604c5fe8b3152404448"
    },
    {
      "anonymous": false,
      "inputs": [
        {
          "indexed": false,
          "internalType": "address",
          "name": "",
          "type": "address"
        },
        {
          "indexed": false,
          "internalType": "string",
          "name": "",
          "type": "string"
        },
        {
          "indexed": false,
          "internalType": "string",
          "name": "",
          "type": "string"
        },
        {
          "indexed": false,
          "internalType": "string",
          "name": "",
          "type": "string"
        },
        {
          "indexed": false,
          "internalType": "uint256",
          "name": "",
          "type": "uint256"
        },
        {
          "indexed": false,
          "internalType": "bool",
          "name": "",
          "type": "bool"
        }
      ],
      "name": "DeleteHospital",
      "type": "event",
      "signature": "0x05818f5e23a2c2bb34c81792ea8e3397d3f8ad179cb93a5fa57b3d4681564aa0"
    },
    {
      "anonymous": false,
      "inputs": [
        {
          "indexed": false,
          "internalType": "uint256",
          "name": "",
          "type": "uint256"
        },
        {
          "indexed": false,
          "internalType": "string",
          "name": "",
          "type": "string"
        },
        {
          "indexed": false,
          "internalType": "string",
          "name": "",
          "type": "string"
        },
        {
          "indexed": false,
          "internalType": "uint256",
          "name": "",
          "type": "uint256"
        },
        {
          "indexed": false,
          "internalType": "bool",
          "name": "",
          "type": "bool"
        }
      ],
      "name": "DeleteSensor",
      "type": "event",
      "signature": "0xa1b22357b87bdd7b6e7615d113431de2ef11b50ee5b1c310a0c8d81d06d78300"
    },
    {
      "anonymous": false,
      "inputs": [
        {
          "indexed": false,
          "internalType": "uint256",
          "name": "",
          "type": "uint256"
        },
        {
          "indexed": false,
          "internalType": "string",
          "name": "",
          "type": "string"
        },
        {
          "indexed": false,
          "internalType": "address",
          "name": "",
          "type": "address"
        },
        {
          "indexed": false,
          "internalType": "bool",
          "name": "",
          "type": "bool"
        }
      ],
      "name": "NewDoctor",
      "type": "event",
      "signature": "0xa62610561b12041392f1d0d26c8fa465822ee8fbb7359c7311261ecc2f7709ff"
    },
    {
      "anonymous": false,
      "inputs": [
        {
          "indexed": false,
          "internalType": "address",
          "name": "",
          "type": "address"
        },
        {
          "indexed": false,
          "internalType": "string",
          "name": "",
          "type": "string"
        },
        {
          "indexed": false,
          "internalType": "string",
          "name": "",
          "type": "string"
        },
        {
          "indexed": false,
          "internalType": "string",
          "name": "",
          "type": "string"
        },
        {
          "indexed": false,
          "internalType": "uint256",
          "name": "",
          "type": "uint256"
        },
        {
          "indexed": false,
          "internalType": "bool",
          "name": "",
          "type": "bool"
        }
      ],
      "name": "NewHospital",
      "type": "event",
      "signature": "0xf646212acc3f5092fb0211ffd5121c0f706641b715e3982dab50afb395413dd5"
    },
    {
      "anonymous": false,
      "inputs": [
        {
          "indexed": false,
          "internalType": "uint256",
          "name": "",
          "type": "uint256"
        },
        {
          "indexed": false,
          "internalType": "string",
          "name": "",
          "type": "string"
        },
        {
          "indexed": false,
          "internalType": "string",
          "name": "",
          "type": "string"
        },
        {
          "indexed": false,
          "internalType": "uint256",
          "name": "",
          "type": "uint256"
        },
        {
          "indexed": false,
          "internalType": "bool",
          "name": "",
          "type": "bool"
        }
      ],
      "name": "NewSensor",
      "type": "event",
      "signature": "0x2d1264c978dbc04e67902bdd99ef64c71b576782adc2464152646b00c3464aa7"
    },
    {
      "anonymous": false,
      "inputs": [
        {
          "indexed": false,
          "internalType": "uint256",
          "name": "",
          "type": "uint256"
        },
        {
          "indexed": false,
          "internalType": "string",
          "name": "",
          "type": "string"
        },
        {
          "indexed": false,
          "internalType": "address",
          "name": "",
          "type": "address"
        }
      ],
      "name": "RefreshDoctor",
      "type": "event",
      "signature": "0x68a08c702a4f949d49f5e0d32562c70f97751a2846006d05beccc6c9bf8b564e"
    },
    {
      "anonymous": false,
      "inputs": [
        {
          "indexed": false,
          "internalType": "address",
          "name": "",
          "type": "address"
        },
        {
          "indexed": false,
          "internalType": "string",
          "name": "",
          "type": "string"
        },
        {
          "indexed": false,
          "internalType": "string",
          "name": "",
          "type": "string"
        },
        {
          "indexed": false,
          "internalType": "string",
          "name": "",
          "type": "string"
        },
        {
          "indexed": false,
          "internalType": "uint256",
          "name": "",
          "type": "uint256"
        }
      ],
      "name": "RefreshHospital",
      "type": "event",
      "signature": "0xb1c43f8b1923988960e95c122fd3ebb503023379b8ca6f0603d2f6b0beb52811"
    },
    {
      "anonymous": false,
      "inputs": [
        {
          "indexed": false,
          "internalType": "uint256",
          "name": "",
          "type": "uint256"
        },
        {
          "indexed": false,
          "internalType": "string",
          "name": "",
          "type": "string"
        },
        {
          "indexed": false,
          "internalType": "string",
          "name": "",
          "type": "string"
        },
        {
          "indexed": false,
          "internalType": "uint256",
          "name": "",
          "type": "uint256"
        }
      ],
      "name": "RefreshSensor",
      "type": "event",
      "signature": "0x3cdcbdac29c9d2da1e6acf97d069514bf4a172946cf98e2eddaeeec70dcb8ce7"
    },
    {
      "inputs": [
        {
          "internalType": "string",
          "name": "_nameDoctor",
          "type": "string"
        },
        {
          "internalType": "address",
          "name": "_hospital",
          "type": "address"
        }
      ],
      "name": "AddDoctor",
      "outputs": [],
      "stateMutability": "nonpayable",
      "type": "function",
      "signature": "0x3f98b96e"
    },
    {
      "inputs": [
        {
          "internalType": "address",
          "name": "_idHospital",
          "type": "address"
        },
        {
          "internalType": "string",
          "name": "_name",
          "type": "string"
        },
        {
          "internalType": "string",
          "name": "_city",
          "type": "string"
        },
        {
          "internalType": "string",
          "name": "_state",
          "type": "string"
        },
        {
          "internalType": "uint256",
          "name": "_postalCode",
          "type": "uint256"
        }
      ],
      "name": "AddHospital",
      "outputs": [],
      "stateMutability": "nonpayable",
      "type": "function",
      "signature": "0xa27876c5"
    },
    {
      "inputs": [
        {
          "internalType": "string",
          "name": "_mac",
          "type": "string"
        },
        {
          "internalType": "string",
          "name": "_patientName",
          "type": "string"
        },
        {
          "internalType": "uint256",
          "name": "_idDoctor",
          "type": "uint256"
        },
        {
          "internalType": "bool",
          "name": "_active",
          "type": "bool"
        }
      ],
      "name": "AddSensor",
      "outputs": [],
      "stateMutability": "nonpayable",
      "type": "function",
      "signature": "0xada913fd"
    },
    {
      "inputs": [
        {
          "internalType": "address",
          "name": "",
          "type": "address"
        }
      ],
      "name": "Doctors",
      "outputs": [
        {
          "internalType": "uint256",
          "name": "idDoctor",
          "type": "uint256"
        },
        {
          "internalType": "string",
          "name": "nameDoctor",
          "type": "string"
        },
        {
          "internalType": "address",
          "name": "hospital",
          "type": "address"
        },
        {
          "internalType": "bool",
          "name": "permission",
          "type": "bool"
        }
      ],
      "stateMutability": "view",
      "type": "function",
      "constant": true,
      "signature": "0xdc7aa36b"
    },
    {
      "inputs": [
        {
          "internalType": "address",
          "name": "",
          "type": "address"
        }
      ],
      "name": "Hospitals",
      "outputs": [
        {
          "internalType": "address",
          "name": "idHospital",
          "type": "address"
        },
        {
          "internalType": "string",
          "name": "name",
          "type": "string"
        },
        {
          "internalType": "string",
          "name": "city",
          "type": "string"
        },
        {
          "internalType": "string",
          "name": "state",
          "type": "string"
        },
        {
          "internalType": "uint256",
          "name": "postalCode",
          "type": "uint256"
        },
        {
          "internalType": "bool",
          "name": "permission",
          "type": "bool"
        }
      ],
      "stateMutability": "view",
      "type": "function",
      "constant": true,
      "signature": "0xa549a4ed"
    },
    {
      "inputs": [],
      "name": "Length_Doctors",
      "outputs": [
        {
          "internalType": "uint256",
          "name": "",
          "type": "uint256"
        }
      ],
      "stateMutability": "view",
      "type": "function",
      "constant": true,
      "signature": "0x1ba51696"
    },
    {
      "inputs": [],
      "name": "Length_Hospitals",
      "outputs": [
        {
          "internalType": "uint256",
          "name": "",
          "type": "uint256"
        }
      ],
      "stateMutability": "view",
      "type": "function",
      "constant": true,
      "signature": "0xa17d7a38"
    },
    {
      "inputs": [],
      "name": "Length_sensors",
      "outputs": [
        {
          "internalType": "uint256",
          "name": "",
          "type": "uint256"
        }
      ],
      "stateMutability": "view",
      "type": "function",
      "constant": true,
      "signature": "0xb5843613"
    },
    {
      "inputs": [
        {
          "internalType": "uint256",
          "name": "_id",
          "type": "uint256"
        }
      ],
      "name": "ReadDoctor",
      "outputs": [
        {
          "internalType": "string",
          "name": "",
          "type": "string"
        },
        {
          "internalType": "address",
          "name": "",
          "type": "address"
        },
        {
          "internalType": "bool",
          "name": "",
          "type": "bool"
        }
      ],
      "stateMutability": "view",
      "type": "function",
      "constant": true,
      "signature": "0x0c8cabec"
    },
    {
      "inputs": [
        {
          "internalType": "address",
          "name": "_address",
          "type": "address"
        }
      ],
      "name": "ReadHospital",
      "outputs": [
        {
          "internalType": "string",
          "name": "",
          "type": "string"
        },
        {
          "internalType": "string",
          "name": "",
          "type": "string"
        },
        {
          "internalType": "string",
          "name": "",
          "type": "string"
        },
        {
          "internalType": "uint256",
          "name": "",
          "type": "uint256"
        },
        {
          "internalType": "bool",
          "name": "",
          "type": "bool"
        }
      ],
      "stateMutability": "view",
      "type": "function",
      "constant": true,
      "signature": "0x9b70e779"
    },
    {
      "inputs": [
        {
          "internalType": "uint256",
          "name": "_id",
          "type": "uint256"
        }
      ],
      "name": "ReadSensor",
      "outputs": [
        {
          "internalType": "string",
          "name": "",
          "type": "string"
        },
        {
          "internalType": "string",
          "name": "",
          "type": "string"
        },
        {
          "internalType": "uint256",
          "name": "",
          "type": "uint256"
        },
        {
          "internalType": "bool",
          "name": "",
          "type": "bool"
        }
      ],
      "stateMutability": "view",
      "type": "function",
      "constant": true,
      "signature": "0x02655c2e"
    },
    {
      "inputs": [
        {
          "internalType": "uint256",
          "name": "_id",
          "type": "uint256"
        }
      ],
      "name": "RemoveDoctor",
      "outputs": [],
      "stateMutability": "nonpayable",
      "type": "function",
      "signature": "0x7e85bcea"
    },
    {
      "inputs": [
        {
          "internalType": "address",
          "name": "_address",
          "type": "address"
        }
      ],
      "name": "RemoveHospital",
      "outputs": [],
      "stateMutability": "nonpayable",
      "type": "function",
      "signature": "0x4807fc69"
    },
    {
      "inputs": [
        {
          "internalType": "uint256",
          "name": "_id",
          "type": "uint256"
        }
      ],
      "name": "RemoveSensor",
      "outputs": [],
      "stateMutability": "nonpayable",
      "type": "function",
      "signature": "0x6151efb1"
    },
    {
      "inputs": [
        {
          "internalType": "address",
          "name": "",
          "type": "address"
        }
      ],
      "name": "Sensors",
      "outputs": [
        {
          "internalType": "uint256",
          "name": "idSensor",
          "type": "uint256"
        },
        {
          "internalType": "string",
          "name": "MAC",
          "type": "string"
        },
        {
          "internalType": "string",
          "name": "patientName",
          "type": "string"
        },
        {
          "internalType": "uint256",
          "name": "idDoctor",
          "type": "uint256"
        },
        {
          "internalType": "bool",
          "name": "active",
          "type": "bool"
        }
      ],
      "stateMutability": "view",
      "type": "function",
      "constant": true,
      "signature": "0x898bd140"
    },
    {
      "inputs": [
        {
          "internalType": "uint256",
          "name": "_id",
          "type": "uint256"
        },
        {
          "internalType": "string",
          "name": "_nameDoctor",
          "type": "string"
        },
        {
          "internalType": "address",
          "name": "_hospital",
          "type": "address"
        }
      ],
      "name": "UpdateDoctor",
      "outputs": [],
      "stateMutability": "nonpayable",
      "type": "function",
      "signature": "0xc9034659"
    },
    {
      "inputs": [
        {
          "internalType": "address",
          "name": "_address",
          "type": "address"
        },
        {
          "internalType": "string",
          "name": "_name",
          "type": "string"
        },
        {
          "internalType": "string",
          "name": "_city",
          "type": "string"
        },
        {
          "internalType": "string",
          "name": "_state",
          "type": "string"
        },
        {
          "internalType": "uint256",
          "name": "_postalCode",
          "type": "uint256"
        }
      ],
      "name": "UpdateHospital",
      "outputs": [],
      "stateMutability": "nonpayable",
      "type": "function",
      "signature": "0x14c94371"
    },
    {
      "inputs": [
        {
          "internalType": "uint256",
          "name": "_id",
          "type": "uint256"
        },
        {
          "internalType": "string",
          "name": "_mac",
          "type": "string"
        },
        {
          "internalType": "string",
          "name": "_patientName",
          "type": "string"
        },
        {
          "internalType": "uint256",
          "name": "_idDoctor",
          "type": "uint256"
        }
      ],
      "name": "UpdateSensor",
      "outputs": [],
      "stateMutability": "nonpayable",
      "type": "function",
      "signature": "0xc1a92058"
    },
    {
      "inputs": [
        {
          "internalType": "uint256",
          "name": "",
          "type": "uint256"
        }
      ],
      "name": "doctorsHospital",
      "outputs": [
        {
          "internalType": "uint256",
          "name": "idDoctor",
          "type": "uint256"
        },
        {
          "internalType": "string",
          "name": "nameDoctor",
          "type": "string"
        },
        {
          "internalType": "address",
          "name": "hospital",
          "type": "address"
        },
        {
          "internalType": "bool",
          "name": "permission",
          "type": "bool"
        }
      ],
      "stateMutability": "view",
      "type": "function",
      "constant": true,
      "signature": "0x8db2fc41"
    },
    {
      "inputs": [],
      "name": "getAllDoctors",
      "outputs": [
        {
          "components": [
            {
              "internalType": "uint256",
              "name": "idDoctor",
              "type": "uint256"
            },
            {
              "internalType": "string",
              "name": "nameDoctor",
              "type": "string"
            },
            {
              "internalType": "address",
              "name": "hospital",
              "type": "address"
            },
            {
              "internalType": "bool",
              "name": "permission",
              "type": "bool"
            }
          ],
          "internalType": "struct EHealth.Doctor[]",
          "name": "",
          "type": "tuple[]"
        }
      ],
      "stateMutability": "view",
      "type": "function",
      "constant": true,
      "signature": "0xf0d95090"
    },
    {
      "inputs": [
        {
          "internalType": "address",
          "name": "_address",
          "type": "address"
        }
      ],
      "name": "getAllDoctorsInHospital",
      "outputs": [
        {
          "components": [
            {
              "internalType": "uint256",
              "name": "idDoctor",
              "type": "uint256"
            },
            {
              "internalType": "string",
              "name": "nameDoctor",
              "type": "string"
            },
            {
              "internalType": "address",
              "name": "hospital",
              "type": "address"
            },
            {
              "internalType": "bool",
              "name": "permission",
              "type": "bool"
            }
          ],
          "internalType": "struct EHealth.Doctor[]",
          "name": "",
          "type": "tuple[]"
        }
      ],
      "stateMutability": "view",
      "type": "function",
      "constant": true,
      "signature": "0xc266406d"
    },
    {
      "inputs": [],
      "name": "getAllHospitals",
      "outputs": [
        {
          "components": [
            {
              "internalType": "address",
              "name": "idHospital",
              "type": "address"
            },
            {
              "internalType": "string",
              "name": "name",
              "type": "string"
            },
            {
              "internalType": "string",
              "name": "city",
              "type": "string"
            },
            {
              "internalType": "string",
              "name": "state",
              "type": "string"
            },
            {
              "internalType": "uint256",
              "name": "postalCode",
              "type": "uint256"
            },
            {
              "internalType": "bool",
              "name": "permission",
              "type": "bool"
            }
          ],
          "internalType": "struct EHealth.Hospital[]",
          "name": "",
          "type": "tuple[]"
        }
      ],
      "stateMutability": "view",
      "type": "function",
      "constant": true,
      "signature": "0x4e9f7154"
    },
    {
      "inputs": [
        {
          "internalType": "uint256",
          "name": "_idDoctor",
          "type": "uint256"
        }
      ],
      "name": "getAllSensorOfDoctor",
      "outputs": [
        {
          "components": [
            {
              "internalType": "uint256",
              "name": "idSensor",
              "type": "uint256"
            },
            {
              "internalType": "string",
              "name": "MAC",
              "type": "string"
            },
            {
              "internalType": "string",
              "name": "patientName",
              "type": "string"
            },
            {
              "internalType": "uint256",
              "name": "idDoctor",
              "type": "uint256"
            },
            {
              "internalType": "bool",
              "name": "active",
              "type": "bool"
            }
          ],
          "internalType": "struct EHealth.Sensor[]",
          "name": "",
          "type": "tuple[]"
        }
      ],
      "stateMutability": "view",
      "type": "function",
      "constant": true,
      "signature": "0x66d92c81"
    },
    {
      "inputs": [],
      "name": "getAllSensors",
      "outputs": [
        {
          "components": [
            {
              "internalType": "uint256",
              "name": "idSensor",
              "type": "uint256"
            },
            {
              "internalType": "string",
              "name": "MAC",
              "type": "string"
            },
            {
              "internalType": "string",
              "name": "patientName",
              "type": "string"
            },
            {
              "internalType": "uint256",
              "name": "idDoctor",
              "type": "uint256"
            },
            {
              "internalType": "bool",
              "name": "active",
              "type": "bool"
            }
          ],
          "internalType": "struct EHealth.Sensor[]",
          "name": "",
          "type": "tuple[]"
        }
      ],
      "stateMutability": "view",
      "type": "function",
      "constant": true,
      "signature": "0x5a4e5d3e"
    },
    {
      "inputs": [
        {
          "internalType": "uint256",
          "name": "",
          "type": "uint256"
        }
      ],
      "name": "hospitalCenters",
      "outputs": [
        {
          "internalType": "address",
          "name": "idHospital",
          "type": "address"
        },
        {
          "internalType": "string",
          "name": "name",
          "type": "string"
        },
        {
          "internalType": "string",
          "name": "city",
          "type": "string"
        },
        {
          "internalType": "string",
          "name": "state",
          "type": "string"
        },
        {
          "internalType": "uint256",
          "name": "postalCode",
          "type": "uint256"
        },
        {
          "internalType": "bool",
          "name": "permission",
          "type": "bool"
        }
      ],
      "stateMutability": "view",
      "type": "function",
      "constant": true,
      "signature": "0xd53d0a85"
    },
    {
      "inputs": [
        {
          "internalType": "uint256",
          "name": "",
          "type": "uint256"
        }
      ],
      "name": "sensorsDoctor",
      "outputs": [
        {
          "internalType": "uint256",
          "name": "idSensor",
          "type": "uint256"
        },
        {
          "internalType": "string",
          "name": "MAC",
          "type": "string"
        },
        {
          "internalType": "string",
          "name": "patientName",
          "type": "string"
        },
        {
          "internalType": "uint256",
          "name": "idDoctor",
          "type": "uint256"
        },
        {
          "internalType": "bool",
          "name": "active",
          "type": "bool"
        }
      ],
      "stateMutability": "view",
      "type": "function",
      "constant": true,
      "signature": "0xea87659f"
    }
  ],
  "devdoc": {
    "kind": "dev",
    "methods": {},
    "version": 1
  },
  "evm": {
    "assembly": "    /* \"EHealth.sol\":119:9873  contract EHealth {\r... */\n  mstore(0x40, 0x80)\n    /* \"EHealth.sol\":232:274  0x8FcF3B91599C6d5bb93D8c7df9f3974C622b83a4 */\n  0x8fcf3b91599c6d5bb93d8c7df9f3974c622b83a4\n    /* \"EHealth.sol\":216:274  address owner = 0x8FcF3B91599C6d5bb93D8c7df9f3974C622b83a4 */\n  0x02\n  exp(0x0100, 0x00)\n  dup2\n  sload\n  dup2\n  0xffffffffffffffffffffffffffffffffffffffff\n  mul\n  not\n  and\n  swap1\n  dup4\n  0xffffffffffffffffffffffffffffffffffffffff\n  and\n  mul\n  or\n  swap1\n  sstore\n  pop\n    /* \"EHealth.sol\":119:9873  contract EHealth {\r... */\n  callvalue\n  dup1\n  iszero\n  tag_1\n  jumpi\n  0x00\n  dup1\n  revert\ntag_1:\n  pop\n  dataSize(sub_0)\n  dup1\n  dataOffset(sub_0)\n  0x00\n  codecopy\n  0x00\n  return\nstop\n\nsub_0: assembly {\n        /* \"EHealth.sol\":119:9873  contract EHealth {\r... */\n      mstore(0x40, 0x80)\n      callvalue\n      dup1\n      iszero\n      tag_1\n      jumpi\n      0x00\n      dup1\n      revert\n    tag_1:\n      pop\n      jumpi(tag_2, lt(calldatasize, 0x04))\n      shr(0xe0, calldataload(0x00))\n      dup1\n      0x9b70e779\n      gt\n      tag_29\n      jumpi\n      dup1\n      0xc1a92058\n      gt\n      tag_30\n      jumpi\n      dup1\n      0xd53d0a85\n      gt\n      tag_31\n      jumpi\n      dup1\n      0xd53d0a85\n      eq\n      tag_25\n      jumpi\n      dup1\n      0xdc7aa36b\n      eq\n      tag_26\n      jumpi\n      dup1\n      0xea87659f\n      eq\n      tag_27\n      jumpi\n      dup1\n      0xf0d95090\n      eq\n      tag_28\n      jumpi\n      jump(tag_2)\n    tag_31:\n      dup1\n      0xc1a92058\n      eq\n      tag_22\n      jumpi\n      dup1\n      0xc266406d\n      eq\n      tag_23\n      jumpi\n      dup1\n      0xc9034659\n      eq\n      tag_24\n      jumpi\n      jump(tag_2)\n    tag_30:\n      dup1\n      0x9b70e779\n      eq\n      tag_16\n      jumpi\n      dup1\n      0xa17d7a38\n      eq\n      tag_17\n      jumpi\n      dup1\n      0xa27876c5\n      eq\n      tag_18\n      jumpi\n      dup1\n      0xa549a4ed\n      eq\n      tag_19\n      jumpi\n      dup1\n      0xada913fd\n      eq\n      tag_20\n      jumpi\n      dup1\n      0xb5843613\n      eq\n      tag_21\n      jumpi\n      jump(tag_2)\n    tag_29:\n      dup1\n      0x4e9f7154\n      gt\n      tag_32\n      jumpi\n      dup1\n      0x66d92c81\n      gt\n      tag_33\n      jumpi\n      dup1\n      0x66d92c81\n      eq\n      tag_12\n      jumpi\n      dup1\n      0x7e85bcea\n      eq\n      tag_13\n      jumpi\n      dup1\n      0x898bd140\n      eq\n      tag_14\n      jumpi\n      dup1\n      0x8db2fc41\n      eq\n      tag_15\n      jumpi\n      jump(tag_2)\n    tag_33:\n      dup1\n      0x4e9f7154\n      eq\n      tag_9\n      jumpi\n      dup1\n      0x5a4e5d3e\n      eq\n      tag_10\n      jumpi\n      dup1\n      0x6151efb1\n      eq\n      tag_11\n      jumpi\n      jump(tag_2)\n    tag_32:\n      dup1\n      0x02655c2e\n      eq\n      tag_3\n      jumpi\n      dup1\n      0x0c8cabec\n      eq\n      tag_4\n      jumpi\n      dup1\n      0x14c94371\n      eq\n      tag_5\n      jumpi\n      dup1\n      0x1ba51696\n      eq\n      tag_6\n      jumpi\n      dup1\n      0x3f98b96e\n      eq\n      tag_7\n      jumpi\n      dup1\n      0x4807fc69\n      eq\n      tag_8\n      jumpi\n    tag_2:\n      0x00\n      dup1\n      revert\n        /* \"EHealth.sol\":8745:9016  function ReadSensor(uint _id)public view returns(string memory,string memory, uint, bool){\r... */\n    tag_3:\n      tag_34\n      0x04\n      dup1\n      calldatasize\n      sub\n      dup2\n      add\n      swap1\n      tag_35\n      swap2\n      swap1\n      tag_36\n      jump\t// in\n    tag_35:\n      tag_37\n      jump\t// in\n    tag_34:\n      mload(0x40)\n      tag_38\n      swap5\n      swap4\n      swap3\n      swap2\n      swap1\n      tag_39\n      jump\t// in\n    tag_38:\n      mload(0x40)\n      dup1\n      swap2\n      sub\n      swap1\n      return\n        /* \"EHealth.sol\":5931:6175  function ReadDoctor(uint _id)public view returns(string memory, address, bool){\r... */\n    tag_4:\n      tag_40\n      0x04\n      dup1\n      calldatasize\n      sub\n      dup2\n      add\n      swap1\n      tag_41\n      swap2\n      swap1\n      tag_36\n      jump\t// in\n    tag_41:\n      tag_42\n      jump\t// in\n    tag_40:\n      mload(0x40)\n      tag_43\n      swap4\n      swap3\n      swap2\n      swap1\n      tag_44\n      jump\t// in\n    tag_43:\n      mload(0x40)\n      dup1\n      swap2\n      sub\n      swap1\n      return\n        /* \"EHealth.sol\":2903:3518  function UpdateHospital(address _address, string memory _name, string memory _city, string memory _state, uint _postalCode ) public {\r... */\n    tag_5:\n      tag_45\n      0x04\n      dup1\n      calldatasize\n      sub\n      dup2\n      add\n      swap1\n      tag_46\n      swap2\n      swap1\n      tag_47\n      jump\t// in\n    tag_46:\n      tag_48\n      jump\t// in\n    tag_45:\n      stop\n        /* \"EHealth.sol\":6211:6314  function Length_Doctors() public view returns (uint256){\r... */\n    tag_6:\n      tag_49\n      tag_50\n      jump\t// in\n    tag_49:\n      mload(0x40)\n      tag_51\n      swap2\n      swap1\n      tag_52\n      jump\t// in\n    tag_51:\n      mload(0x40)\n      dup1\n      swap2\n      sub\n      swap1\n      return\n        /* \"EHealth.sol\":4503:4791  function AddDoctor(string memory _nameDoctor, address _hospital) public {\r... */\n    tag_7:\n      tag_53\n      0x04\n      dup1\n      calldatasize\n      sub\n      dup2\n      add\n      swap1\n      tag_54\n      swap2\n      swap1\n      tag_55\n      jump\t// in\n    tag_54:\n      tag_56\n      jump\t// in\n    tag_53:\n      stop\n        /* \"EHealth.sol\":2438:2864  function RemoveHospital(address _address) public {\r... */\n    tag_8:\n      tag_57\n      0x04\n      dup1\n      calldatasize\n      sub\n      dup2\n      add\n      swap1\n      tag_58\n      swap2\n      swap1\n      tag_59\n      jump\t// in\n    tag_58:\n      tag_60\n      jump\t// in\n    tag_57:\n      stop\n        /* \"EHealth.sol\":3551:3830  function getAllHospitals() public view returns (Hospital[] memory){\r... */\n    tag_9:\n      tag_61\n      tag_62\n      jump\t// in\n    tag_61:\n      mload(0x40)\n      tag_63\n      swap2\n      swap1\n      tag_64\n      jump\t// in\n    tag_63:\n      mload(0x40)\n      dup1\n      swap2\n      sub\n      swap1\n      return\n        /* \"EHealth.sol\":9189:9454  function getAllSensors() public view returns (Sensor[] memory){\r... */\n    tag_10:\n      tag_65\n      tag_66\n      jump\t// in\n    tag_65:\n      mload(0x40)\n      tag_67\n      swap2\n      swap1\n      tag_68\n      jump\t// in\n    tag_67:\n      mload(0x40)\n      dup1\n      swap2\n      sub\n      swap1\n      return\n        /* \"EHealth.sol\":7854:8199  function RemoveSensor(uint _id) public {\r... */\n    tag_11:\n      tag_69\n      0x04\n      dup1\n      calldatasize\n      sub\n      dup2\n      add\n      swap1\n      tag_70\n      swap2\n      swap1\n      tag_36\n      jump\t// in\n    tag_70:\n      tag_71\n      jump\t// in\n    tag_69:\n      stop\n        /* \"EHealth.sol\":9505:9868  function getAllSensorOfDoctor (uint _idDoctor) public view returns (Sensor[] memory){\r... */\n    tag_12:\n      tag_72\n      0x04\n      dup1\n      calldatasize\n      sub\n      dup2\n      add\n      swap1\n      tag_73\n      swap2\n      swap1\n      tag_36\n      jump\t// in\n    tag_73:\n      tag_74\n      jump\t// in\n    tag_72:\n      mload(0x40)\n      tag_75\n      swap2\n      swap1\n      tag_68\n      jump\t// in\n    tag_75:\n      mload(0x40)\n      dup1\n      swap2\n      sub\n      swap1\n      return\n        /* \"EHealth.sol\":5133:5460  function RemoveDoctor(uint _id) public {\r... */\n    tag_13:\n      tag_76\n      0x04\n      dup1\n      calldatasize\n      sub\n      dup2\n      add\n      swap1\n      tag_77\n      swap2\n      swap1\n      tag_36\n      jump\t// in\n    tag_77:\n      tag_78\n      jump\t// in\n    tag_76:\n      stop\n        /* \"EHealth.sol\":864:904  mapping(address=> Sensor) public Sensors */\n    tag_14:\n      tag_79\n      0x04\n      dup1\n      calldatasize\n      sub\n      dup2\n      add\n      swap1\n      tag_80\n      swap2\n      swap1\n      tag_59\n      jump\t// in\n    tag_80:\n      tag_81\n      jump\t// in\n    tag_79:\n      mload(0x40)\n      tag_82\n      swap6\n      swap5\n      swap4\n      swap3\n      swap2\n      swap1\n      tag_83\n      jump\t// in\n    tag_82:\n      mload(0x40)\n      dup1\n      swap2\n      sub\n      swap1\n      return\n        /* \"EHealth.sol\":808:839  Doctor[] public doctorsHospital */\n    tag_15:\n      tag_84\n      0x04\n      dup1\n      calldatasize\n      sub\n      dup2\n      add\n      swap1\n      tag_85\n      swap2\n      swap1\n      tag_36\n      jump\t// in\n    tag_85:\n      tag_86\n      jump\t// in\n    tag_84:\n      mload(0x40)\n      tag_87\n      swap5\n      swap4\n      swap3\n      swap2\n      swap1\n      tag_88\n      jump\t// in\n    tag_87:\n      mload(0x40)\n      dup1\n      swap2\n      sub\n      swap1\n      return\n        /* \"EHealth.sol\":4010:4361  function ReadHospital(address _address)public view returns(string memory, string memory, string memory, uint, bool){\r... */\n    tag_16:\n      tag_89\n      0x04\n      dup1\n      calldatasize\n      sub\n      dup2\n      add\n      swap1\n      tag_90\n      swap2\n      swap1\n      tag_59\n      jump\t// in\n    tag_90:\n      tag_91\n      jump\t// in\n    tag_89:\n      mload(0x40)\n      tag_92\n      swap6\n      swap5\n      swap4\n      swap3\n      swap2\n      swap1\n      tag_93\n      jump\t// in\n    tag_92:\n      mload(0x40)\n      dup1\n      swap2\n      sub\n      swap1\n      return\n        /* \"EHealth.sol\":3868:3973  function Length_Hospitals() public view returns (uint256){\r... */\n    tag_17:\n      tag_94\n      tag_95\n      jump\t// in\n    tag_94:\n      mload(0x40)\n      tag_96\n      swap2\n      swap1\n      tag_52\n      jump\t// in\n    tag_96:\n      mload(0x40)\n      dup1\n      swap2\n      sub\n      swap1\n      return\n        /* \"EHealth.sol\":1778:2094  function AddHospital(address _idHospital, string memory _name, string memory _city, string memory _state, uint _postalCode ) public {\r... */\n    tag_18:\n      tag_97\n      0x04\n      dup1\n      calldatasize\n      sub\n      dup2\n      add\n      swap1\n      tag_98\n      swap2\n      swap1\n      tag_47\n      jump\t// in\n    tag_98:\n      tag_99\n      jump\t// in\n    tag_97:\n      stop\n        /* \"EHealth.sol\":301:345  mapping(address=> Hospital) public Hospitals */\n    tag_19:\n      tag_100\n      0x04\n      dup1\n      calldatasize\n      sub\n      dup2\n      add\n      swap1\n      tag_101\n      swap2\n      swap1\n      tag_59\n      jump\t// in\n    tag_101:\n      tag_102\n      jump\t// in\n    tag_100:\n      mload(0x40)\n      tag_103\n      swap7\n      swap6\n      swap5\n      swap4\n      swap3\n      swap2\n      swap1\n      tag_104\n      jump\t// in\n    tag_103:\n      mload(0x40)\n      dup1\n      swap2\n      sub\n      swap1\n      return\n        /* \"EHealth.sol\":7175:7512  function AddSensor(string memory _mac, string memory _patientName, uint _idDoctor, bool _active) public {\r... */\n    tag_20:\n      tag_105\n      0x04\n      dup1\n      calldatasize\n      sub\n      dup2\n      add\n      swap1\n      tag_106\n      swap2\n      swap1\n      tag_107\n      jump\t// in\n    tag_106:\n      tag_108\n      jump\t// in\n    tag_105:\n      stop\n        /* \"EHealth.sol\":9056:9157  function Length_sensors() public view returns (uint256){\r... */\n    tag_21:\n      tag_109\n      tag_110\n      jump\t// in\n    tag_109:\n      mload(0x40)\n      tag_111\n      swap2\n      swap1\n      tag_52\n      jump\t// in\n    tag_111:\n      mload(0x40)\n      dup1\n      swap2\n      sub\n      swap1\n      return\n        /* \"EHealth.sol\":8236:8710  function UpdateSensor(uint _id, string memory _mac, string memory _patientName,uint _idDoctor ) public {\r... */\n    tag_22:\n      tag_112\n      0x04\n      dup1\n      calldatasize\n      sub\n      dup2\n      add\n      swap1\n      tag_113\n      swap2\n      swap1\n      tag_114\n      jump\t// in\n    tag_113:\n      tag_115\n      jump\t// in\n    tag_112:\n      stop\n        /* \"EHealth.sol\":6661:7035  function getAllDoctorsInHospital(address _address) public view returns (Doctor[] memory){\r... */\n    tag_23:\n      tag_116\n      0x04\n      dup1\n      calldatasize\n      sub\n      dup2\n      add\n      swap1\n      tag_117\n      swap2\n      swap1\n      tag_59\n      jump\t// in\n    tag_117:\n      tag_118\n      jump\t// in\n    tag_116:\n      mload(0x40)\n      tag_119\n      swap2\n      swap1\n      tag_120\n      jump\t// in\n    tag_119:\n      mload(0x40)\n      dup1\n      swap2\n      sub\n      swap1\n      return\n        /* \"EHealth.sol\":5497:5896  function UpdateDoctor(uint _id, string memory _nameDoctor, address _hospital ) public {\r... */\n    tag_24:\n      tag_121\n      0x04\n      dup1\n      calldatasize\n      sub\n      dup2\n      add\n      swap1\n      tag_122\n      swap2\n      swap1\n      tag_123\n      jump\t// in\n    tag_122:\n      tag_124\n      jump\t// in\n    tag_121:\n      stop\n        /* \"EHealth.sol\":536:569  Hospital[] public hospitalCenters */\n    tag_25:\n      tag_125\n      0x04\n      dup1\n      calldatasize\n      sub\n      dup2\n      add\n      swap1\n      tag_126\n      swap2\n      swap1\n      tag_36\n      jump\t// in\n    tag_126:\n      tag_127\n      jump\t// in\n    tag_125:\n      mload(0x40)\n      tag_128\n      swap7\n      swap6\n      swap5\n      swap4\n      swap3\n      swap2\n      swap1\n      tag_104\n      jump\t// in\n    tag_128:\n      mload(0x40)\n      dup1\n      swap2\n      sub\n      swap1\n      return\n        /* \"EHealth.sol\":598:638  mapping(address=> Doctor) public Doctors */\n    tag_26:\n      tag_129\n      0x04\n      dup1\n      calldatasize\n      sub\n      dup2\n      add\n      swap1\n      tag_130\n      swap2\n      swap1\n      tag_59\n      jump\t// in\n    tag_130:\n      tag_131\n      jump\t// in\n    tag_129:\n      mload(0x40)\n      tag_132\n      swap5\n      swap4\n      swap3\n      swap2\n      swap1\n      tag_88\n      jump\t// in\n    tag_132:\n      mload(0x40)\n      dup1\n      swap2\n      sub\n      swap1\n      return\n        /* \"EHealth.sol\":1089:1118  Sensor[] public sensorsDoctor */\n    tag_27:\n      tag_133\n      0x04\n      dup1\n      calldatasize\n      sub\n      dup2\n      add\n      swap1\n      tag_134\n      swap2\n      swap1\n      tag_36\n      jump\t// in\n    tag_134:\n      tag_135\n      jump\t// in\n    tag_133:\n      mload(0x40)\n      tag_136\n      swap6\n      swap5\n      swap4\n      swap3\n      swap2\n      swap1\n      tag_83\n      jump\t// in\n    tag_136:\n      mload(0x40)\n      dup1\n      swap2\n      sub\n      swap1\n      return\n        /* \"EHealth.sol\":6346:6617  function getAllDoctors() public view returns (Doctor[] memory){\r... */\n    tag_28:\n      tag_137\n      tag_138\n      jump\t// in\n    tag_137:\n      mload(0x40)\n      tag_139\n      swap2\n      swap1\n      tag_120\n      jump\t// in\n    tag_139:\n      mload(0x40)\n      dup1\n      swap2\n      sub\n      swap1\n      return\n        /* \"EHealth.sol\":8745:9016  function ReadSensor(uint _id)public view returns(string memory,string memory, uint, bool){\r... */\n    tag_37:\n        /* \"EHealth.sol\":8794:8807  string memory */\n      0x60\n        /* \"EHealth.sol\":8808:8821  string memory */\n      dup1\n        /* \"EHealth.sol\":8823:8827  uint */\n      0x00\n        /* \"EHealth.sol\":8829:8833  bool */\n      dup1\n        /* \"EHealth.sol\":8845:8855  uint index */\n      0x00\n        /* \"EHealth.sol\":8858:8873  FindSensor(_id) */\n      tag_141\n        /* \"EHealth.sol\":8869:8872  _id */\n      dup7\n        /* \"EHealth.sol\":8858:8868  FindSensor */\n      tag_142\n        /* \"EHealth.sol\":8858:8873  FindSensor(_id) */\n      jump\t// in\n    tag_141:\n        /* \"EHealth.sol\":8845:8873  uint index = FindSensor(_id) */\n      swap1\n      pop\n        /* \"EHealth.sol\":8892:8905  sensorsDoctor */\n      0x08\n        /* \"EHealth.sol\":8906:8911  index */\n      dup2\n        /* \"EHealth.sol\":8892:8912  sensorsDoctor[index] */\n      dup2\n      sload\n      dup2\n      lt\n      tag_143\n      jumpi\n      invalid\n    tag_143:\n      swap1\n      0x00\n      mstore\n      keccak256(0x00, 0x20)\n      swap1\n      0x05\n      mul\n      add\n        /* \"EHealth.sol\":8892:8916  sensorsDoctor[index].MAC */\n      0x01\n      add\n        /* \"EHealth.sol\":8917:8930  sensorsDoctor */\n      0x08\n        /* \"EHealth.sol\":8931:8936  index */\n      dup3\n        /* \"EHealth.sol\":8917:8937  sensorsDoctor[index] */\n      dup2\n      sload\n      dup2\n      lt\n      tag_145\n      jumpi\n      invalid\n    tag_145:\n      swap1\n      0x00\n      mstore\n      keccak256(0x00, 0x20)\n      swap1\n      0x05\n      mul\n      add\n        /* \"EHealth.sol\":8917:8949  sensorsDoctor[index].patientName */\n      0x02\n      add\n        /* \"EHealth.sol\":8950:8963  sensorsDoctor */\n      0x08\n        /* \"EHealth.sol\":8964:8969  index */\n      dup4\n        /* \"EHealth.sol\":8950:8970  sensorsDoctor[index] */\n      dup2\n      sload\n      dup2\n      lt\n      tag_147\n      jumpi\n      invalid\n    tag_147:\n      swap1\n      0x00\n      mstore\n      keccak256(0x00, 0x20)\n      swap1\n      0x05\n      mul\n      add\n        /* \"EHealth.sol\":8950:8979  sensorsDoctor[index].idDoctor */\n      0x03\n      add\n      sload\n        /* \"EHealth.sol\":8980:8993  sensorsDoctor */\n      0x08\n        /* \"EHealth.sol\":8994:8999  index */\n      dup5\n        /* \"EHealth.sol\":8980:9000  sensorsDoctor[index] */\n      dup2\n      sload\n      dup2\n      lt\n      tag_149\n      jumpi\n      invalid\n    tag_149:\n      swap1\n      0x00\n      mstore\n      keccak256(0x00, 0x20)\n      swap1\n      0x05\n      mul\n      add\n        /* \"EHealth.sol\":8980:9007  sensorsDoctor[index].active */\n      0x04\n      add\n      0x00\n      swap1\n      sload\n      swap1\n      0x0100\n      exp\n      swap1\n      div\n      0xff\n      and\n        /* \"EHealth.sol\":8884:9008  return (sensorsDoctor[index].MAC,sensorsDoctor[index].patientName,sensorsDoctor[index].idDoctor,sensorsDoctor[index].active) */\n      dup4\n      dup1\n      sload\n      0x01\n      dup2\n      0x01\n      and\n      iszero\n      0x0100\n      mul\n      sub\n      and\n      0x02\n      swap1\n      div\n      dup1\n      0x1f\n      add\n      0x20\n      dup1\n      swap2\n      div\n      mul\n      0x20\n      add\n      mload(0x40)\n      swap1\n      dup2\n      add\n      0x40\n      mstore\n      dup1\n      swap3\n      swap2\n      swap1\n      dup2\n      dup2\n      mstore\n      0x20\n      add\n      dup3\n      dup1\n      sload\n      0x01\n      dup2\n      0x01\n      and\n      iszero\n      0x0100\n      mul\n      sub\n      and\n      0x02\n      swap1\n      div\n      dup1\n      iszero\n      tag_151\n      jumpi\n      dup1\n      0x1f\n      lt\n      tag_152\n      jumpi\n      0x0100\n      dup1\n      dup4\n      sload\n      div\n      mul\n      dup4\n      mstore\n      swap2\n      0x20\n      add\n      swap2\n      jump(tag_151)\n    tag_152:\n      dup3\n      add\n      swap2\n      swap1\n      0x00\n      mstore\n      keccak256(0x00, 0x20)\n      swap1\n    tag_153:\n      dup2\n      sload\n      dup2\n      mstore\n      swap1\n      0x01\n      add\n      swap1\n      0x20\n      add\n      dup1\n      dup4\n      gt\n      tag_153\n      jumpi\n      dup3\n      swap1\n      sub\n      0x1f\n      and\n      dup3\n      add\n      swap2\n    tag_151:\n      pop\n      pop\n      pop\n      pop\n      pop\n      swap4\n      pop\n      dup3\n      dup1\n      sload\n      0x01\n      dup2\n      0x01\n      and\n      iszero\n      0x0100\n      mul\n      sub\n      and\n      0x02\n      swap1\n      div\n      dup1\n      0x1f\n      add\n      0x20\n      dup1\n      swap2\n      div\n      mul\n      0x20\n      add\n      mload(0x40)\n      swap1\n      dup2\n      add\n      0x40\n      mstore\n      dup1\n      swap3\n      swap2\n      swap1\n      dup2\n      dup2\n      mstore\n      0x20\n      add\n      dup3\n      dup1\n      sload\n      0x01\n      dup2\n      0x01\n      and\n      iszero\n      0x0100\n      mul\n      sub\n      and\n      0x02\n      swap1\n      div\n      dup1\n      iszero\n      tag_154\n      jumpi\n      dup1\n      0x1f\n      lt\n      tag_155\n      jumpi\n      0x0100\n      dup1\n      dup4\n      sload\n      div\n      mul\n      dup4\n      mstore\n      swap2\n      0x20\n      add\n      swap2\n      jump(tag_154)\n    tag_155:\n      dup3\n      add\n      swap2\n      swap1\n      0x00\n      mstore\n      keccak256(0x00, 0x20)\n      swap1\n    tag_156:\n      dup2\n      sload\n      dup2\n      mstore\n      swap1\n      0x01\n      add\n      swap1\n      0x20\n      add\n      dup1\n      dup4\n      gt\n      tag_156\n      jumpi\n      dup3\n      swap1\n      sub\n      0x1f\n      and\n      dup3\n      add\n      swap2\n    tag_154:\n      pop\n      pop\n      pop\n      pop\n      pop\n      swap3\n      pop\n      swap5\n      pop\n      swap5\n      pop\n      swap5\n      pop\n      swap5\n      pop\n      pop\n        /* \"EHealth.sol\":8745:9016  function ReadSensor(uint _id)public view returns(string memory,string memory, uint, bool){\r... */\n      swap2\n      swap4\n      pop\n      swap2\n      swap4\n      jump\t// out\n        /* \"EHealth.sol\":5931:6175  function ReadDoctor(uint _id)public view returns(string memory, address, bool){\r... */\n    tag_42:\n        /* \"EHealth.sol\":5980:5993  string memory */\n      0x60\n        /* \"EHealth.sol\":5995:6002  address */\n      0x00\n        /* \"EHealth.sol\":6004:6008  bool */\n      dup1\n        /* \"EHealth.sol\":6020:6030  uint index */\n      0x00\n        /* \"EHealth.sol\":6033:6048  FindDoctor(_id) */\n      tag_158\n        /* \"EHealth.sol\":6044:6047  _id */\n      dup6\n        /* \"EHealth.sol\":6033:6043  FindDoctor */\n      tag_159\n        /* \"EHealth.sol\":6033:6048  FindDoctor(_id) */\n      jump\t// in\n    tag_158:\n        /* \"EHealth.sol\":6020:6048  uint index = FindDoctor(_id) */\n      swap1\n      pop\n        /* \"EHealth.sol\":6067:6082  doctorsHospital */\n      0x06\n        /* \"EHealth.sol\":6083:6088  index */\n      dup2\n        /* \"EHealth.sol\":6067:6089  doctorsHospital[index] */\n      dup2\n      sload\n      dup2\n      lt\n      tag_160\n      jumpi\n      invalid\n    tag_160:\n      swap1\n      0x00\n      mstore\n      keccak256(0x00, 0x20)\n      swap1\n      0x03\n      mul\n      add\n        /* \"EHealth.sol\":6067:6100  doctorsHospital[index].nameDoctor */\n      0x01\n      add\n        /* \"EHealth.sol\":6101:6116  doctorsHospital */\n      0x06\n        /* \"EHealth.sol\":6117:6122  index */\n      dup3\n        /* \"EHealth.sol\":6101:6123  doctorsHospital[index] */\n      dup2\n      sload\n      dup2\n      lt\n      tag_162\n      jumpi\n      invalid\n    tag_162:\n      swap1\n      0x00\n      mstore\n      keccak256(0x00, 0x20)\n      swap1\n      0x03\n      mul\n      add\n        /* \"EHealth.sol\":6101:6132  doctorsHospital[index].hospital */\n      0x02\n      add\n      0x00\n      swap1\n      sload\n      swap1\n      0x0100\n      exp\n      swap1\n      div\n      0xffffffffffffffffffffffffffffffffffffffff\n      and\n        /* \"EHealth.sol\":6133:6148  doctorsHospital */\n      0x06\n        /* \"EHealth.sol\":6149:6154  index */\n      dup4\n        /* \"EHealth.sol\":6133:6155  doctorsHospital[index] */\n      dup2\n      sload\n      dup2\n      lt\n      tag_164\n      jumpi\n      invalid\n    tag_164:\n      swap1\n      0x00\n      mstore\n      keccak256(0x00, 0x20)\n      swap1\n      0x03\n      mul\n      add\n        /* \"EHealth.sol\":6133:6166  doctorsHospital[index].permission */\n      0x02\n      add\n      0x14\n      swap1\n      sload\n      swap1\n      0x0100\n      exp\n      swap1\n      div\n      0xff\n      and\n        /* \"EHealth.sol\":6059:6167  return (doctorsHospital[index].nameDoctor,doctorsHospital[index].hospital,doctorsHospital[index].permission) */\n      dup3\n      dup1\n      sload\n      0x01\n      dup2\n      0x01\n      and\n      iszero\n      0x0100\n      mul\n      sub\n      and\n      0x02\n      swap1\n      div\n      dup1\n      0x1f\n      add\n      0x20\n      dup1\n      swap2\n      div\n      mul\n      0x20\n      add\n      mload(0x40)\n      swap1\n      dup2\n      add\n      0x40\n      mstore\n      dup1\n      swap3\n      swap2\n      swap1\n      dup2\n      dup2\n      mstore\n      0x20\n      add\n      dup3\n      dup1\n      sload\n      0x01\n      dup2\n      0x01\n      and\n      iszero\n      0x0100\n      mul\n      sub\n      and\n      0x02\n      swap1\n      div\n      dup1\n      iszero\n      tag_166\n      jumpi\n      dup1\n      0x1f\n      lt\n      tag_167\n      jumpi\n      0x0100\n      dup1\n      dup4\n      sload\n      div\n      mul\n      dup4\n      mstore\n      swap2\n      0x20\n      add\n      swap2\n      jump(tag_166)\n    tag_167:\n      dup3\n      add\n      swap2\n      swap1\n      0x00\n      mstore\n      keccak256(0x00, 0x20)\n      swap1\n    tag_168:\n      dup2\n      sload\n      dup2\n      mstore\n      swap1\n      0x01\n      add\n      swap1\n      0x20\n      add\n      dup1\n      dup4\n      gt\n      tag_168\n      jumpi\n      dup3\n      swap1\n      sub\n      0x1f\n      and\n      dup3\n      add\n      swap2\n    tag_166:\n      pop\n      pop\n      pop\n      pop\n      pop\n      swap3\n      pop\n      swap4\n      pop\n      swap4\n      pop\n      swap4\n      pop\n      pop\n        /* \"EHealth.sol\":5931:6175  function ReadDoctor(uint _id)public view returns(string memory, address, bool){\r... */\n      swap2\n      swap4\n      swap1\n      swap3\n      pop\n      jump\t// out\n        /* \"EHealth.sol\":2903:3518  function UpdateHospital(address _address, string memory _name, string memory _city, string memory _state, uint _postalCode ) public {\r... */\n    tag_48:\n        /* \"EHealth.sol\":3046:3056  uint index */\n      0x00\n        /* \"EHealth.sol\":3059:3081  FindHospital(_address) */\n      tag_170\n        /* \"EHealth.sol\":3072:3080  _address */\n      dup7\n        /* \"EHealth.sol\":3059:3071  FindHospital */\n      tag_171\n        /* \"EHealth.sol\":3059:3081  FindHospital(_address) */\n      jump\t// in\n    tag_170:\n        /* \"EHealth.sol\":3046:3081  uint index = FindHospital(_address) */\n      swap1\n      pop\n        /* \"EHealth.sol\":3120:3125  _name */\n      dup5\n        /* \"EHealth.sol\":3092:3107  hospitalCenters */\n      0x04\n        /* \"EHealth.sol\":3108:3113  index */\n      dup3\n        /* \"EHealth.sol\":3092:3114  hospitalCenters[index] */\n      dup2\n      sload\n      dup2\n      lt\n      tag_172\n      jumpi\n      invalid\n    tag_172:\n      swap1\n      0x00\n      mstore\n      keccak256(0x00, 0x20)\n      swap1\n      0x06\n      mul\n      add\n        /* \"EHealth.sol\":3092:3119  hospitalCenters[index].name */\n      0x01\n      add\n        /* \"EHealth.sol\":3092:3125  hospitalCenters[index].name=_name */\n      swap1\n      dup1\n      mload\n      swap1\n      0x20\n      add\n      swap1\n      tag_174\n      swap3\n      swap2\n      swap1\n      tag_175\n      jump\t// in\n    tag_174:\n      pop\n        /* \"EHealth.sol\":3164:3169  _city */\n      dup4\n        /* \"EHealth.sol\":3136:3151  hospitalCenters */\n      0x04\n        /* \"EHealth.sol\":3152:3157  index */\n      dup3\n        /* \"EHealth.sol\":3136:3158  hospitalCenters[index] */\n      dup2\n      sload\n      dup2\n      lt\n      tag_176\n      jumpi\n      invalid\n    tag_176:\n      swap1\n      0x00\n      mstore\n      keccak256(0x00, 0x20)\n      swap1\n      0x06\n      mul\n      add\n        /* \"EHealth.sol\":3136:3163  hospitalCenters[index].city */\n      0x02\n      add\n        /* \"EHealth.sol\":3136:3169  hospitalCenters[index].city=_city */\n      swap1\n      dup1\n      mload\n      swap1\n      0x20\n      add\n      swap1\n      tag_178\n      swap3\n      swap2\n      swap1\n      tag_175\n      jump\t// in\n    tag_178:\n      pop\n        /* \"EHealth.sol\":3209:3215  _state */\n      dup3\n        /* \"EHealth.sol\":3180:3195  hospitalCenters */\n      0x04\n        /* \"EHealth.sol\":3196:3201  index */\n      dup3\n        /* \"EHealth.sol\":3180:3202  hospitalCenters[index] */\n      dup2\n      sload\n      dup2\n      lt\n      tag_179\n      jumpi\n      invalid\n    tag_179:\n      swap1\n      0x00\n      mstore\n      keccak256(0x00, 0x20)\n      swap1\n      0x06\n      mul\n      add\n        /* \"EHealth.sol\":3180:3208  hospitalCenters[index].state */\n      0x03\n      add\n        /* \"EHealth.sol\":3180:3215  hospitalCenters[index].state=_state */\n      swap1\n      dup1\n      mload\n      swap1\n      0x20\n      add\n      swap1\n      tag_181\n      swap3\n      swap2\n      swap1\n      tag_175\n      jump\t// in\n    tag_181:\n      pop\n        /* \"EHealth.sol\":3260:3271  _postalCode */\n      dup2\n        /* \"EHealth.sol\":3226:3241  hospitalCenters */\n      0x04\n        /* \"EHealth.sol\":3242:3247  index */\n      dup3\n        /* \"EHealth.sol\":3226:3248  hospitalCenters[index] */\n      dup2\n      sload\n      dup2\n      lt\n      tag_182\n      jumpi\n      invalid\n    tag_182:\n      swap1\n      0x00\n      mstore\n      keccak256(0x00, 0x20)\n      swap1\n      0x06\n      mul\n      add\n        /* \"EHealth.sol\":3226:3259  hospitalCenters[index].postalCode */\n      0x04\n      add\n        /* \"EHealth.sol\":3226:3271  hospitalCenters[index].postalCode=_postalCode */\n      dup2\n      swap1\n      sstore\n      pop\n        /* \"EHealth.sol\":3287:3510  RefreshHospital(hospitalCenters[index].idHospital, \r... */\n      0xb1c43f8b1923988960e95c122fd3ebb503023379b8ca6f0603d2f6b0beb52811\n        /* \"EHealth.sol\":3303:3318  hospitalCenters */\n      0x04\n        /* \"EHealth.sol\":3319:3324  index */\n      dup3\n        /* \"EHealth.sol\":3303:3325  hospitalCenters[index] */\n      dup2\n      sload\n      dup2\n      lt\n      tag_184\n      jumpi\n      invalid\n    tag_184:\n      swap1\n      0x00\n      mstore\n      keccak256(0x00, 0x20)\n      swap1\n      0x06\n      mul\n      add\n        /* \"EHealth.sol\":3303:3336  hospitalCenters[index].idHospital */\n      0x00\n      add\n      0x00\n      swap1\n      sload\n      swap1\n      0x0100\n      exp\n      swap1\n      div\n      0xffffffffffffffffffffffffffffffffffffffff\n      and\n        /* \"EHealth.sol\":3348:3363  hospitalCenters */\n      0x04\n        /* \"EHealth.sol\":3364:3369  index */\n      dup4\n        /* \"EHealth.sol\":3348:3370  hospitalCenters[index] */\n      dup2\n      sload\n      dup2\n      lt\n      tag_186\n      jumpi\n      invalid\n    tag_186:\n      swap1\n      0x00\n      mstore\n      keccak256(0x00, 0x20)\n      swap1\n      0x06\n      mul\n      add\n        /* \"EHealth.sol\":3348:3375  hospitalCenters[index].name */\n      0x01\n      add\n        /* \"EHealth.sol\":3387:3402  hospitalCenters */\n      0x04\n        /* \"EHealth.sol\":3403:3408  index */\n      dup5\n        /* \"EHealth.sol\":3387:3409  hospitalCenters[index] */\n      dup2\n      sload\n      dup2\n      lt\n      tag_188\n      jumpi\n      invalid\n    tag_188:\n      swap1\n      0x00\n      mstore\n      keccak256(0x00, 0x20)\n      swap1\n      0x06\n      mul\n      add\n        /* \"EHealth.sol\":3387:3414  hospitalCenters[index].city */\n      0x02\n      add\n        /* \"EHealth.sol\":3426:3441  hospitalCenters */\n      0x04\n        /* \"EHealth.sol\":3442:3447  index */\n      dup6\n        /* \"EHealth.sol\":3426:3448  hospitalCenters[index] */\n      dup2\n      sload\n      dup2\n      lt\n      tag_190\n      jumpi\n      invalid\n    tag_190:\n      swap1\n      0x00\n      mstore\n      keccak256(0x00, 0x20)\n      swap1\n      0x06\n      mul\n      add\n        /* \"EHealth.sol\":3426:3454  hospitalCenters[index].state */\n      0x03\n      add\n        /* \"EHealth.sol\":3466:3481  hospitalCenters */\n      0x04\n        /* \"EHealth.sol\":3482:3487  index */\n      dup7\n        /* \"EHealth.sol\":3466:3488  hospitalCenters[index] */\n      dup2\n      sload\n      dup2\n      lt\n      tag_192\n      jumpi\n      invalid\n    tag_192:\n      swap1\n      0x00\n      mstore\n      keccak256(0x00, 0x20)\n      swap1\n      0x06\n      mul\n      add\n        /* \"EHealth.sol\":3466:3499  hospitalCenters[index].postalCode */\n      0x04\n      add\n      sload\n        /* \"EHealth.sol\":3287:3510  RefreshHospital(hospitalCenters[index].idHospital, \r... */\n      mload(0x40)\n      tag_194\n      swap6\n      swap5\n      swap4\n      swap3\n      swap2\n      swap1\n      tag_195\n      jump\t// in\n    tag_194:\n      mload(0x40)\n      dup1\n      swap2\n      sub\n      swap1\n      log1\n        /* \"EHealth.sol\":2903:3518  function UpdateHospital(address _address, string memory _name, string memory _city, string memory _state, uint _postalCode ) public {\r... */\n      pop\n      pop\n      pop\n      pop\n      pop\n      pop\n      jump\t// out\n        /* \"EHealth.sol\":6211:6314  function Length_Doctors() public view returns (uint256){\r... */\n    tag_50:\n        /* \"EHealth.sol\":6258:6265  uint256 */\n      0x00\n        /* \"EHealth.sol\":6284:6299  hospitalCenters */\n      0x04\n        /* \"EHealth.sol\":6284:6306  hospitalCenters.length */\n      dup1\n      sload\n      swap1\n      pop\n        /* \"EHealth.sol\":6277:6306  return hospitalCenters.length */\n      swap1\n      pop\n        /* \"EHealth.sol\":6211:6314  function Length_Doctors() public view returns (uint256){\r... */\n      swap1\n      jump\t// out\n        /* \"EHealth.sol\":4503:4791  function AddDoctor(string memory _nameDoctor, address _hospital) public {\r... */\n    tag_56:\n        /* \"EHealth.sol\":4586:4609  FindHospital(_hospital) */\n      tag_198\n        /* \"EHealth.sol\":4599:4608  _hospital */\n      dup2\n        /* \"EHealth.sol\":4586:4598  FindHospital */\n      tag_171\n        /* \"EHealth.sol\":4586:4609  FindHospital(_hospital) */\n      jump\t// in\n    tag_198:\n      pop\n        /* \"EHealth.sol\":4620:4635  doctorsHospital */\n      0x06\n        /* \"EHealth.sol\":4641:4691  Doctor(nextIdDoctor, _nameDoctor, _hospital, true) */\n      mload(0x40)\n      dup1\n      0x80\n      add\n      0x40\n      mstore\n      dup1\n        /* \"EHealth.sol\":4648:4660  nextIdDoctor */\n      sload(0x00)\n        /* \"EHealth.sol\":4641:4691  Doctor(nextIdDoctor, _nameDoctor, _hospital, true) */\n      dup2\n      mstore\n      0x20\n      add\n        /* \"EHealth.sol\":4662:4673  _nameDoctor */\n      dup5\n        /* \"EHealth.sol\":4641:4691  Doctor(nextIdDoctor, _nameDoctor, _hospital, true) */\n      dup2\n      mstore\n      0x20\n      add\n        /* \"EHealth.sol\":4675:4684  _hospital */\n      dup4\n        /* \"EHealth.sol\":4641:4691  Doctor(nextIdDoctor, _nameDoctor, _hospital, true) */\n      0xffffffffffffffffffffffffffffffffffffffff\n      and\n      dup2\n      mstore\n      0x20\n      add\n        /* \"EHealth.sol\":4686:4690  true */\n      0x01\n        /* \"EHealth.sol\":4641:4691  Doctor(nextIdDoctor, _nameDoctor, _hospital, true) */\n      iszero\n      iszero\n      dup2\n      mstore\n      pop\n        /* \"EHealth.sol\":4620:4692  doctorsHospital.push(Doctor(nextIdDoctor, _nameDoctor, _hospital, true)) */\n      swap1\n      dup1\n      0x01\n      dup2\n      sload\n      add\n      dup1\n      dup3\n      sstore\n      dup1\n      swap2\n      pop\n      pop\n      0x01\n      swap1\n      sub\n      swap1\n      0x00\n      mstore\n      keccak256(0x00, 0x20)\n      swap1\n      0x03\n      mul\n      add\n      0x00\n      swap1\n      swap2\n      swap1\n      swap2\n      swap1\n      swap2\n      pop\n      0x00\n      dup3\n      add\n      mload\n      dup2\n      0x00\n      add\n      sstore\n      0x20\n      dup3\n      add\n      mload\n      dup2\n      0x01\n      add\n      swap1\n      dup1\n      mload\n      swap1\n      0x20\n      add\n      swap1\n      tag_200\n      swap3\n      swap2\n      swap1\n      tag_175\n      jump\t// in\n    tag_200:\n      pop\n      0x40\n      dup3\n      add\n      mload\n      dup2\n      0x02\n      add\n      exp(0x0100, 0x00)\n      dup2\n      sload\n      dup2\n      0xffffffffffffffffffffffffffffffffffffffff\n      mul\n      not\n      and\n      swap1\n      dup4\n      0xffffffffffffffffffffffffffffffffffffffff\n      and\n      mul\n      or\n      swap1\n      sstore\n      pop\n      0x60\n      dup3\n      add\n      mload\n      dup2\n      0x02\n      add\n      exp(0x0100, 0x14)\n      dup2\n      sload\n      dup2\n      0xff\n      mul\n      not\n      and\n      swap1\n      dup4\n      iszero\n      iszero\n      mul\n      or\n      swap1\n      sstore\n      pop\n      pop\n      pop\n        /* \"EHealth.sol\":4708:4758  NewDoctor(nextIdDoctor,_nameDoctor,_hospital,true) */\n      0xa62610561b12041392f1d0d26c8fa465822ee8fbb7359c7311261ecc2f7709ff\n        /* \"EHealth.sol\":4718:4730  nextIdDoctor */\n      sload(0x00)\n        /* \"EHealth.sol\":4731:4742  _nameDoctor */\n      dup4\n        /* \"EHealth.sol\":4743:4752  _hospital */\n      dup4\n        /* \"EHealth.sol\":4753:4757  true */\n      0x01\n        /* \"EHealth.sol\":4708:4758  NewDoctor(nextIdDoctor,_nameDoctor,_hospital,true) */\n      mload(0x40)\n      tag_201\n      swap5\n      swap4\n      swap3\n      swap2\n      swap1\n      tag_88\n      jump\t// in\n    tag_201:\n      mload(0x40)\n      dup1\n      swap2\n      sub\n      swap1\n      log1\n        /* \"EHealth.sol\":4769:4781  nextIdDoctor */\n      0x00\n      dup1\n        /* \"EHealth.sol\":4769:4783  nextIdDoctor++ */\n      dup2\n      sload\n      dup1\n      swap3\n      swap2\n      swap1\n      0x01\n      add\n      swap2\n      swap1\n      pop\n      sstore\n      pop\n        /* \"EHealth.sol\":4503:4791  function AddDoctor(string memory _nameDoctor, address _hospital) public {\r... */\n      pop\n      pop\n      jump\t// out\n        /* \"EHealth.sol\":2438:2864  function RemoveHospital(address _address) public {\r... */\n    tag_60:\n        /* \"EHealth.sol\":2498:2508  uint index */\n      0x00\n        /* \"EHealth.sol\":2511:2533  FindHospital(_address) */\n      tag_203\n        /* \"EHealth.sol\":2524:2532  _address */\n      dup3\n        /* \"EHealth.sol\":2511:2523  FindHospital */\n      tag_171\n        /* \"EHealth.sol\":2511:2533  FindHospital(_address) */\n      jump\t// in\n    tag_203:\n        /* \"EHealth.sol\":2498:2533  uint index = FindHospital(_address) */\n      swap1\n      pop\n        /* \"EHealth.sol\":2578:2583  false */\n      0x00\n        /* \"EHealth.sol\":2544:2559  hospitalCenters */\n      0x04\n        /* \"EHealth.sol\":2560:2565  index */\n      dup3\n        /* \"EHealth.sol\":2544:2566  hospitalCenters[index] */\n      dup2\n      sload\n      dup2\n      lt\n      tag_204\n      jumpi\n      invalid\n    tag_204:\n      swap1\n      0x00\n      mstore\n      keccak256(0x00, 0x20)\n      swap1\n      0x06\n      mul\n      add\n        /* \"EHealth.sol\":2544:2577  hospitalCenters[index].permission */\n      0x05\n      add\n      0x00\n        /* \"EHealth.sol\":2544:2583  hospitalCenters[index].permission=false */\n      0x0100\n      exp\n      dup2\n      sload\n      dup2\n      0xff\n      mul\n      not\n      and\n      swap1\n      dup4\n      iszero\n      iszero\n      mul\n      or\n      swap1\n      sstore\n      pop\n        /* \"EHealth.sol\":2599:2856  DeleteHospital(hospitalCenters[index].idHospital, \r... */\n      0x05818f5e23a2c2bb34c81792ea8e3397d3f8ad179cb93a5fa57b3d4681564aa0\n        /* \"EHealth.sol\":2614:2629  hospitalCenters */\n      0x04\n        /* \"EHealth.sol\":2630:2635  index */\n      dup3\n        /* \"EHealth.sol\":2614:2636  hospitalCenters[index] */\n      dup2\n      sload\n      dup2\n      lt\n      tag_206\n      jumpi\n      invalid\n    tag_206:\n      swap1\n      0x00\n      mstore\n      keccak256(0x00, 0x20)\n      swap1\n      0x06\n      mul\n      add\n        /* \"EHealth.sol\":2614:2647  hospitalCenters[index].idHospital */\n      0x00\n      add\n      0x00\n      swap1\n      sload\n      swap1\n      0x0100\n      exp\n      swap1\n      div\n      0xffffffffffffffffffffffffffffffffffffffff\n      and\n        /* \"EHealth.sol\":2659:2674  hospitalCenters */\n      0x04\n        /* \"EHealth.sol\":2675:2680  index */\n      dup4\n        /* \"EHealth.sol\":2659:2681  hospitalCenters[index] */\n      dup2\n      sload\n      dup2\n      lt\n      tag_208\n      jumpi\n      invalid\n    tag_208:\n      swap1\n      0x00\n      mstore\n      keccak256(0x00, 0x20)\n      swap1\n      0x06\n      mul\n      add\n        /* \"EHealth.sol\":2659:2686  hospitalCenters[index].name */\n      0x01\n      add\n        /* \"EHealth.sol\":2698:2713  hospitalCenters */\n      0x04\n        /* \"EHealth.sol\":2714:2719  index */\n      dup5\n        /* \"EHealth.sol\":2698:2720  hospitalCenters[index] */\n      dup2\n      sload\n      dup2\n      lt\n      tag_210\n      jumpi\n      invalid\n    tag_210:\n      swap1\n      0x00\n      mstore\n      keccak256(0x00, 0x20)\n      swap1\n      0x06\n      mul\n      add\n        /* \"EHealth.sol\":2698:2725  hospitalCenters[index].city */\n      0x02\n      add\n        /* \"EHealth.sol\":2737:2752  hospitalCenters */\n      0x04\n        /* \"EHealth.sol\":2753:2758  index */\n      dup6\n        /* \"EHealth.sol\":2737:2759  hospitalCenters[index] */\n      dup2\n      sload\n      dup2\n      lt\n      tag_212\n      jumpi\n      invalid\n    tag_212:\n      swap1\n      0x00\n      mstore\n      keccak256(0x00, 0x20)\n      swap1\n      0x06\n      mul\n      add\n        /* \"EHealth.sol\":2737:2765  hospitalCenters[index].state */\n      0x03\n      add\n        /* \"EHealth.sol\":2777:2792  hospitalCenters */\n      0x04\n        /* \"EHealth.sol\":2793:2798  index */\n      dup7\n        /* \"EHealth.sol\":2777:2799  hospitalCenters[index] */\n      dup2\n      sload\n      dup2\n      lt\n      tag_214\n      jumpi\n      invalid\n    tag_214:\n      swap1\n      0x00\n      mstore\n      keccak256(0x00, 0x20)\n      swap1\n      0x06\n      mul\n      add\n        /* \"EHealth.sol\":2777:2810  hospitalCenters[index].postalCode */\n      0x04\n      add\n      sload\n        /* \"EHealth.sol\":2822:2837  hospitalCenters */\n      0x04\n        /* \"EHealth.sol\":2838:2843  index */\n      dup8\n        /* \"EHealth.sol\":2822:2844  hospitalCenters[index] */\n      dup2\n      sload\n      dup2\n      lt\n      tag_216\n      jumpi\n      invalid\n    tag_216:\n      swap1\n      0x00\n      mstore\n      keccak256(0x00, 0x20)\n      swap1\n      0x06\n      mul\n      add\n        /* \"EHealth.sol\":2822:2855  hospitalCenters[index].permission */\n      0x05\n      add\n      0x00\n      swap1\n      sload\n      swap1\n      0x0100\n      exp\n      swap1\n      div\n      0xff\n      and\n        /* \"EHealth.sol\":2599:2856  DeleteHospital(hospitalCenters[index].idHospital, \r... */\n      mload(0x40)\n      tag_218\n      swap7\n      swap6\n      swap5\n      swap4\n      swap3\n      swap2\n      swap1\n      tag_219\n      jump\t// in\n    tag_218:\n      mload(0x40)\n      dup1\n      swap2\n      sub\n      swap1\n      log1\n        /* \"EHealth.sol\":2438:2864  function RemoveHospital(address _address) public {\r... */\n      pop\n      pop\n      jump\t// out\n        /* \"EHealth.sol\":3551:3830  function getAllHospitals() public view returns (Hospital[] memory){\r... */\n    tag_62:\n        /* \"EHealth.sol\":3599:3616  Hospital[] memory */\n      0x60\n        /* \"EHealth.sol\":3628:3649  Hospital[] memory ret */\n      0x00\n        /* \"EHealth.sol\":3667:3682  hospitalCenters */\n      0x04\n        /* \"EHealth.sol\":3667:3689  hospitalCenters.length */\n      dup1\n      sload\n      swap1\n      pop\n        /* \"EHealth.sol\":3652:3690  new Hospital[](hospitalCenters.length) */\n      0xffffffffffffffff\n      dup2\n      gt\n      dup1\n      iszero\n      tag_221\n      jumpi\n      0x00\n      dup1\n      revert\n    tag_221:\n      pop\n      mload(0x40)\n      swap1\n      dup1\n      dup3\n      mstore\n      dup1\n      0x20\n      mul\n      0x20\n      add\n      dup3\n      add\n      0x40\n      mstore\n      dup1\n      iszero\n      tag_222\n      jumpi\n      dup2\n      0x20\n      add\n    tag_223:\n      tag_224\n      tag_225\n      jump\t// in\n    tag_224:\n      dup2\n      mstore\n      0x20\n      add\n      swap1\n      0x01\n      swap1\n      sub\n      swap1\n      dup2\n      tag_223\n      jumpi\n      swap1\n      pop\n    tag_222:\n      pop\n        /* \"EHealth.sol\":3628:3690  Hospital[] memory ret = new Hospital[](hospitalCenters.length) */\n      swap1\n      pop\n        /* \"EHealth.sol\":3706:3712  uint i */\n      0x00\n        /* \"EHealth.sol\":3701:3802  for (uint i = 0; i< hospitalCenters.length; i++) {\r... */\n    tag_226:\n        /* \"EHealth.sol\":3721:3736  hospitalCenters */\n      0x04\n        /* \"EHealth.sol\":3721:3743  hospitalCenters.length */\n      dup1\n      sload\n      swap1\n      pop\n        /* \"EHealth.sol\":3718:3719  i */\n      dup2\n        /* \"EHealth.sol\":3718:3743  i< hospitalCenters.length */\n      lt\n        /* \"EHealth.sol\":3701:3802  for (uint i = 0; i< hospitalCenters.length; i++) {\r... */\n      iszero\n      tag_227\n      jumpi\n        /* \"EHealth.sol\":3772:3787  hospitalCenters */\n      0x04\n        /* \"EHealth.sol\":3788:3789  i */\n      dup2\n        /* \"EHealth.sol\":3772:3790  hospitalCenters[i] */\n      dup2\n      sload\n      dup2\n      lt\n      tag_229\n      jumpi\n      invalid\n    tag_229:\n      swap1\n      0x00\n      mstore\n      keccak256(0x00, 0x20)\n      swap1\n      0x06\n      mul\n      add\n        /* \"EHealth.sol\":3765:3790  ret[i]=hospitalCenters[i] */\n      mload(0x40)\n      dup1\n      0xc0\n      add\n      0x40\n      mstore\n      swap1\n      dup2\n      0x00\n      dup3\n      add\n      0x00\n      swap1\n      sload\n      swap1\n      0x0100\n      exp\n      swap1\n      div\n      0xffffffffffffffffffffffffffffffffffffffff\n      and\n      0xffffffffffffffffffffffffffffffffffffffff\n      and\n      0xffffffffffffffffffffffffffffffffffffffff\n      and\n      dup2\n      mstore\n      0x20\n      add\n      0x01\n      dup3\n      add\n      dup1\n      sload\n      0x01\n      dup2\n      0x01\n      and\n      iszero\n      0x0100\n      mul\n      sub\n      and\n      0x02\n      swap1\n      div\n      dup1\n      0x1f\n      add\n      0x20\n      dup1\n      swap2\n      div\n      mul\n      0x20\n      add\n      mload(0x40)\n      swap1\n      dup2\n      add\n      0x40\n      mstore\n      dup1\n      swap3\n      swap2\n      swap1\n      dup2\n      dup2\n      mstore\n      0x20\n      add\n      dup3\n      dup1\n      sload\n      0x01\n      dup2\n      0x01\n      and\n      iszero\n      0x0100\n      mul\n      sub\n      and\n      0x02\n      swap1\n      div\n      dup1\n      iszero\n      tag_231\n      jumpi\n      dup1\n      0x1f\n      lt\n      tag_232\n      jumpi\n      0x0100\n      dup1\n      dup4\n      sload\n      div\n      mul\n      dup4\n      mstore\n      swap2\n      0x20\n      add\n      swap2\n      jump(tag_231)\n    tag_232:\n      dup3\n      add\n      swap2\n      swap1\n      0x00\n      mstore\n      keccak256(0x00, 0x20)\n      swap1\n    tag_233:\n      dup2\n      sload\n      dup2\n      mstore\n      swap1\n      0x01\n      add\n      swap1\n      0x20\n      add\n      dup1\n      dup4\n      gt\n      tag_233\n      jumpi\n      dup3\n      swap1\n      sub\n      0x1f\n      and\n      dup3\n      add\n      swap2\n    tag_231:\n      pop\n      pop\n      pop\n      pop\n      pop\n      dup2\n      mstore\n      0x20\n      add\n      0x02\n      dup3\n      add\n      dup1\n      sload\n      0x01\n      dup2\n      0x01\n      and\n      iszero\n      0x0100\n      mul\n      sub\n      and\n      0x02\n      swap1\n      div\n      dup1\n      0x1f\n      add\n      0x20\n      dup1\n      swap2\n      div\n      mul\n      0x20\n      add\n      mload(0x40)\n      swap1\n      dup2\n      add\n      0x40\n      mstore\n      dup1\n      swap3\n      swap2\n      swap1\n      dup2\n      dup2\n      mstore\n      0x20\n      add\n      dup3\n      dup1\n      sload\n      0x01\n      dup2\n      0x01\n      and\n      iszero\n      0x0100\n      mul\n      sub\n      and\n      0x02\n      swap1\n      div\n      dup1\n      iszero\n      tag_234\n      jumpi\n      dup1\n      0x1f\n      lt\n      tag_235\n      jumpi\n      0x0100\n      dup1\n      dup4\n      sload\n      div\n      mul\n      dup4\n      mstore\n      swap2\n      0x20\n      add\n      swap2\n      jump(tag_234)\n    tag_235:\n      dup3\n      add\n      swap2\n      swap1\n      0x00\n      mstore\n      keccak256(0x00, 0x20)\n      swap1\n    tag_236:\n      dup2\n      sload\n      dup2\n      mstore\n      swap1\n      0x01\n      add\n      swap1\n      0x20\n      add\n      dup1\n      dup4\n      gt\n      tag_236\n      jumpi\n      dup3\n      swap1\n      sub\n      0x1f\n      and\n      dup3\n      add\n      swap2\n    tag_234:\n      pop\n      pop\n      pop\n      pop\n      pop\n      dup2\n      mstore\n      0x20\n      add\n      0x03\n      dup3\n      add\n      dup1\n      sload\n      0x01\n      dup2\n      0x01\n      and\n      iszero\n      0x0100\n      mul\n      sub\n      and\n      0x02\n      swap1\n      div\n      dup1\n      0x1f\n      add\n      0x20\n      dup1\n      swap2\n      div\n      mul\n      0x20\n      add\n      mload(0x40)\n      swap1\n      dup2\n      add\n      0x40\n      mstore\n      dup1\n      swap3\n      swap2\n      swap1\n      dup2\n      dup2\n      mstore\n      0x20\n      add\n      dup3\n      dup1\n      sload\n      0x01\n      dup2\n      0x01\n      and\n      iszero\n      0x0100\n      mul\n      sub\n      and\n      0x02\n      swap1\n      div\n      dup1\n      iszero\n      tag_237\n      jumpi\n      dup1\n      0x1f\n      lt\n      tag_238\n      jumpi\n      0x0100\n      dup1\n      dup4\n      sload\n      div\n      mul\n      dup4\n      mstore\n      swap2\n      0x20\n      add\n      swap2\n      jump(tag_237)\n    tag_238:\n      dup3\n      add\n      swap2\n      swap1\n      0x00\n      mstore\n      keccak256(0x00, 0x20)\n      swap1\n    tag_239:\n      dup2\n      sload\n      dup2\n      mstore\n      swap1\n      0x01\n      add\n      swap1\n      0x20\n      add\n      dup1\n      dup4\n      gt\n      tag_239\n      jumpi\n      dup3\n      swap1\n      sub\n      0x1f\n      and\n      dup3\n      add\n      swap2\n    tag_237:\n      pop\n      pop\n      pop\n      pop\n      pop\n      dup2\n      mstore\n      0x20\n      add\n      0x04\n      dup3\n      add\n      sload\n      dup2\n      mstore\n      0x20\n      add\n      0x05\n      dup3\n      add\n      0x00\n      swap1\n      sload\n      swap1\n      0x0100\n      exp\n      swap1\n      div\n      0xff\n      and\n      iszero\n      iszero\n      iszero\n      iszero\n      dup2\n      mstore\n      pop\n      pop\n        /* \"EHealth.sol\":3765:3768  ret */\n      dup3\n        /* \"EHealth.sol\":3769:3770  i */\n      dup3\n        /* \"EHealth.sol\":3765:3771  ret[i] */\n      dup2\n      mload\n      dup2\n      lt\n      tag_240\n      jumpi\n      invalid\n    tag_240:\n      0x20\n      mul\n      0x20\n      add\n      add\n        /* \"EHealth.sol\":3765:3790  ret[i]=hospitalCenters[i] */\n      dup2\n      swap1\n      mstore\n      pop\n        /* \"EHealth.sol\":3745:3748  i++ */\n      dup1\n      dup1\n      0x01\n      add\n      swap2\n      pop\n      pop\n        /* \"EHealth.sol\":3701:3802  for (uint i = 0; i< hospitalCenters.length; i++) {\r... */\n      jump(tag_226)\n    tag_227:\n      pop\n        /* \"EHealth.sol\":3819:3822  ret */\n      dup1\n        /* \"EHealth.sol\":3812:3822  return ret */\n      swap2\n      pop\n      pop\n        /* \"EHealth.sol\":3551:3830  function getAllHospitals() public view returns (Hospital[] memory){\r... */\n      swap1\n      jump\t// out\n        /* \"EHealth.sol\":9189:9454  function getAllSensors() public view returns (Sensor[] memory){\r... */\n    tag_66:\n        /* \"EHealth.sol\":9235:9250  Sensor[] memory */\n      0x60\n        /* \"EHealth.sol\":9262:9281  Sensor[] memory ret */\n      0x00\n        /* \"EHealth.sol\":9297:9310  sensorsDoctor */\n      0x08\n        /* \"EHealth.sol\":9297:9317  sensorsDoctor.length */\n      dup1\n      sload\n      swap1\n      pop\n        /* \"EHealth.sol\":9284:9318  new Sensor[](sensorsDoctor.length) */\n      0xffffffffffffffff\n      dup2\n      gt\n      dup1\n      iszero\n      tag_242\n      jumpi\n      0x00\n      dup1\n      revert\n    tag_242:\n      pop\n      mload(0x40)\n      swap1\n      dup1\n      dup3\n      mstore\n      dup1\n      0x20\n      mul\n      0x20\n      add\n      dup3\n      add\n      0x40\n      mstore\n      dup1\n      iszero\n      tag_243\n      jumpi\n      dup2\n      0x20\n      add\n    tag_244:\n      tag_245\n      tag_246\n      jump\t// in\n    tag_245:\n      dup2\n      mstore\n      0x20\n      add\n      swap1\n      0x01\n      swap1\n      sub\n      swap1\n      dup2\n      tag_244\n      jumpi\n      swap1\n      pop\n    tag_243:\n      pop\n        /* \"EHealth.sol\":9262:9318  Sensor[] memory ret = new Sensor[](sensorsDoctor.length) */\n      swap1\n      pop\n        /* \"EHealth.sol\":9334:9340  uint i */\n      0x00\n        /* \"EHealth.sol\":9329:9426  for (uint i = 0; i< sensorsDoctor.length; i++) {\r... */\n    tag_247:\n        /* \"EHealth.sol\":9349:9362  sensorsDoctor */\n      0x08\n        /* \"EHealth.sol\":9349:9369  sensorsDoctor.length */\n      dup1\n      sload\n      swap1\n      pop\n        /* \"EHealth.sol\":9346:9347  i */\n      dup2\n        /* \"EHealth.sol\":9346:9369  i< sensorsDoctor.length */\n      lt\n        /* \"EHealth.sol\":9329:9426  for (uint i = 0; i< sensorsDoctor.length; i++) {\r... */\n      iszero\n      tag_248\n      jumpi\n        /* \"EHealth.sol\":9398:9411  sensorsDoctor */\n      0x08\n        /* \"EHealth.sol\":9412:9413  i */\n      dup2\n        /* \"EHealth.sol\":9398:9414  sensorsDoctor[i] */\n      dup2\n      sload\n      dup2\n      lt\n      tag_250\n      jumpi\n      invalid\n    tag_250:\n      swap1\n      0x00\n      mstore\n      keccak256(0x00, 0x20)\n      swap1\n      0x05\n      mul\n      add\n        /* \"EHealth.sol\":9391:9414  ret[i]=sensorsDoctor[i] */\n      mload(0x40)\n      dup1\n      0xa0\n      add\n      0x40\n      mstore\n      swap1\n      dup2\n      0x00\n      dup3\n      add\n      sload\n      dup2\n      mstore\n      0x20\n      add\n      0x01\n      dup3\n      add\n      dup1\n      sload\n      0x01\n      dup2\n      0x01\n      and\n      iszero\n      0x0100\n      mul\n      sub\n      and\n      0x02\n      swap1\n      div\n      dup1\n      0x1f\n      add\n      0x20\n      dup1\n      swap2\n      div\n      mul\n      0x20\n      add\n      mload(0x40)\n      swap1\n      dup2\n      add\n      0x40\n      mstore\n      dup1\n      swap3\n      swap2\n      swap1\n      dup2\n      dup2\n      mstore\n      0x20\n      add\n      dup3\n      dup1\n      sload\n      0x01\n      dup2\n      0x01\n      and\n      iszero\n      0x0100\n      mul\n      sub\n      and\n      0x02\n      swap1\n      div\n      dup1\n      iszero\n      tag_252\n      jumpi\n      dup1\n      0x1f\n      lt\n      tag_253\n      jumpi\n      0x0100\n      dup1\n      dup4\n      sload\n      div\n      mul\n      dup4\n      mstore\n      swap2\n      0x20\n      add\n      swap2\n      jump(tag_252)\n    tag_253:\n      dup3\n      add\n      swap2\n      swap1\n      0x00\n      mstore\n      keccak256(0x00, 0x20)\n      swap1\n    tag_254:\n      dup2\n      sload\n      dup2\n      mstore\n      swap1\n      0x01\n      add\n      swap1\n      0x20\n      add\n      dup1\n      dup4\n      gt\n      tag_254\n      jumpi\n      dup3\n      swap1\n      sub\n      0x1f\n      and\n      dup3\n      add\n      swap2\n    tag_252:\n      pop\n      pop\n      pop\n      pop\n      pop\n      dup2\n      mstore\n      0x20\n      add\n      0x02\n      dup3\n      add\n      dup1\n      sload\n      0x01\n      dup2\n      0x01\n      and\n      iszero\n      0x0100\n      mul\n      sub\n      and\n      0x02\n      swap1\n      div\n      dup1\n      0x1f\n      add\n      0x20\n      dup1\n      swap2\n      div\n      mul\n      0x20\n      add\n      mload(0x40)\n      swap1\n      dup2\n      add\n      0x40\n      mstore\n      dup1\n      swap3\n      swap2\n      swap1\n      dup2\n      dup2\n      mstore\n      0x20\n      add\n      dup3\n      dup1\n      sload\n      0x01\n      dup2\n      0x01\n      and\n      iszero\n      0x0100\n      mul\n      sub\n      and\n      0x02\n      swap1\n      div\n      dup1\n      iszero\n      tag_255\n      jumpi\n      dup1\n      0x1f\n      lt\n      tag_256\n      jumpi\n      0x0100\n      dup1\n      dup4\n      sload\n      div\n      mul\n      dup4\n      mstore\n      swap2\n      0x20\n      add\n      swap2\n      jump(tag_255)\n    tag_256:\n      dup3\n      add\n      swap2\n      swap1\n      0x00\n      mstore\n      keccak256(0x00, 0x20)\n      swap1\n    tag_257:\n      dup2\n      sload\n      dup2\n      mstore\n      swap1\n      0x01\n      add\n      swap1\n      0x20\n      add\n      dup1\n      dup4\n      gt\n      tag_257\n      jumpi\n      dup3\n      swap1\n      sub\n      0x1f\n      and\n      dup3\n      add\n      swap2\n    tag_255:\n      pop\n      pop\n      pop\n      pop\n      pop\n      dup2\n      mstore\n      0x20\n      add\n      0x03\n      dup3\n      add\n      sload\n      dup2\n      mstore\n      0x20\n      add\n      0x04\n      dup3\n      add\n      0x00\n      swap1\n      sload\n      swap1\n      0x0100\n      exp\n      swap1\n      div\n      0xff\n      and\n      iszero\n      iszero\n      iszero\n      iszero\n      dup2\n      mstore\n      pop\n      pop\n        /* \"EHealth.sol\":9391:9394  ret */\n      dup3\n        /* \"EHealth.sol\":9395:9396  i */\n      dup3\n        /* \"EHealth.sol\":9391:9397  ret[i] */\n      dup2\n      mload\n      dup2\n      lt\n      tag_258\n      jumpi\n      invalid\n    tag_258:\n      0x20\n      mul\n      0x20\n      add\n      add\n        /* \"EHealth.sol\":9391:9414  ret[i]=sensorsDoctor[i] */\n      dup2\n      swap1\n      mstore\n      pop\n        /* \"EHealth.sol\":9371:9374  i++ */\n      dup1\n      dup1\n      0x01\n      add\n      swap2\n      pop\n      pop\n        /* \"EHealth.sol\":9329:9426  for (uint i = 0; i< sensorsDoctor.length; i++) {\r... */\n      jump(tag_247)\n    tag_248:\n      pop\n        /* \"EHealth.sol\":9443:9446  ret */\n      dup1\n        /* \"EHealth.sol\":9436:9446  return ret */\n      swap2\n      pop\n      pop\n        /* \"EHealth.sol\":9189:9454  function getAllSensors() public view returns (Sensor[] memory){\r... */\n      swap1\n      jump\t// out\n        /* \"EHealth.sol\":7854:8199  function RemoveSensor(uint _id) public {\r... */\n    tag_71:\n        /* \"EHealth.sol\":7904:7914  uint index */\n      0x00\n        /* \"EHealth.sol\":7917:7932  FindSensor(_id) */\n      tag_260\n        /* \"EHealth.sol\":7928:7931  _id */\n      dup3\n        /* \"EHealth.sol\":7917:7927  FindSensor */\n      tag_142\n        /* \"EHealth.sol\":7917:7932  FindSensor(_id) */\n      jump\t// in\n    tag_260:\n        /* \"EHealth.sol\":7904:7932  uint index = FindSensor(_id) */\n      swap1\n      pop\n        /* \"EHealth.sol\":7971:7976  false */\n      0x00\n        /* \"EHealth.sol\":7943:7956  sensorsDoctor */\n      0x08\n        /* \"EHealth.sol\":7957:7962  index */\n      dup3\n        /* \"EHealth.sol\":7943:7963  sensorsDoctor[index] */\n      dup2\n      sload\n      dup2\n      lt\n      tag_261\n      jumpi\n      invalid\n    tag_261:\n      swap1\n      0x00\n      mstore\n      keccak256(0x00, 0x20)\n      swap1\n      0x05\n      mul\n      add\n        /* \"EHealth.sol\":7943:7970  sensorsDoctor[index].active */\n      0x04\n      add\n      0x00\n        /* \"EHealth.sol\":7943:7976  sensorsDoctor[index].active=false */\n      0x0100\n      exp\n      dup2\n      sload\n      dup2\n      0xff\n      mul\n      not\n      and\n      swap1\n      dup4\n      iszero\n      iszero\n      mul\n      or\n      swap1\n      sstore\n      pop\n        /* \"EHealth.sol\":7992:8191  DeleteSensor(sensorsDoctor[index].idSensor,\r... */\n      0xa1b22357b87bdd7b6e7615d113431de2ef11b50ee5b1c310a0c8d81d06d78300\n        /* \"EHealth.sol\":8005:8018  sensorsDoctor */\n      0x08\n        /* \"EHealth.sol\":8019:8024  index */\n      dup3\n        /* \"EHealth.sol\":8005:8025  sensorsDoctor[index] */\n      dup2\n      sload\n      dup2\n      lt\n      tag_263\n      jumpi\n      invalid\n    tag_263:\n      swap1\n      0x00\n      mstore\n      keccak256(0x00, 0x20)\n      swap1\n      0x05\n      mul\n      add\n        /* \"EHealth.sol\":8005:8034  sensorsDoctor[index].idSensor */\n      0x00\n      add\n      sload\n        /* \"EHealth.sol\":8045:8058  sensorsDoctor */\n      0x08\n        /* \"EHealth.sol\":8059:8064  index */\n      dup4\n        /* \"EHealth.sol\":8045:8065  sensorsDoctor[index] */\n      dup2\n      sload\n      dup2\n      lt\n      tag_265\n      jumpi\n      invalid\n    tag_265:\n      swap1\n      0x00\n      mstore\n      keccak256(0x00, 0x20)\n      swap1\n      0x05\n      mul\n      add\n        /* \"EHealth.sol\":8045:8069  sensorsDoctor[index].MAC */\n      0x01\n      add\n        /* \"EHealth.sol\":8080:8093  sensorsDoctor */\n      0x08\n        /* \"EHealth.sol\":8094:8099  index */\n      dup5\n        /* \"EHealth.sol\":8080:8100  sensorsDoctor[index] */\n      dup2\n      sload\n      dup2\n      lt\n      tag_267\n      jumpi\n      invalid\n    tag_267:\n      swap1\n      0x00\n      mstore\n      keccak256(0x00, 0x20)\n      swap1\n      0x05\n      mul\n      add\n        /* \"EHealth.sol\":8080:8112  sensorsDoctor[index].patientName */\n      0x02\n      add\n        /* \"EHealth.sol\":8123:8136  sensorsDoctor */\n      0x08\n        /* \"EHealth.sol\":8137:8142  index */\n      dup6\n        /* \"EHealth.sol\":8123:8143  sensorsDoctor[index] */\n      dup2\n      sload\n      dup2\n      lt\n      tag_269\n      jumpi\n      invalid\n    tag_269:\n      swap1\n      0x00\n      mstore\n      keccak256(0x00, 0x20)\n      swap1\n      0x05\n      mul\n      add\n        /* \"EHealth.sol\":8123:8152  sensorsDoctor[index].idDoctor */\n      0x03\n      add\n      sload\n        /* \"EHealth.sol\":8163:8176  sensorsDoctor */\n      0x08\n        /* \"EHealth.sol\":8177:8182  index */\n      dup7\n        /* \"EHealth.sol\":8163:8183  sensorsDoctor[index] */\n      dup2\n      sload\n      dup2\n      lt\n      tag_271\n      jumpi\n      invalid\n    tag_271:\n      swap1\n      0x00\n      mstore\n      keccak256(0x00, 0x20)\n      swap1\n      0x05\n      mul\n      add\n        /* \"EHealth.sol\":8163:8190  sensorsDoctor[index].active */\n      0x04\n      add\n      0x00\n      swap1\n      sload\n      swap1\n      0x0100\n      exp\n      swap1\n      div\n      0xff\n      and\n        /* \"EHealth.sol\":7992:8191  DeleteSensor(sensorsDoctor[index].idSensor,\r... */\n      mload(0x40)\n      tag_273\n      swap6\n      swap5\n      swap4\n      swap3\n      swap2\n      swap1\n      tag_274\n      jump\t// in\n    tag_273:\n      mload(0x40)\n      dup1\n      swap2\n      sub\n      swap1\n      log1\n        /* \"EHealth.sol\":7854:8199  function RemoveSensor(uint _id) public {\r... */\n      pop\n      pop\n      jump\t// out\n        /* \"EHealth.sol\":9505:9868  function getAllSensorOfDoctor (uint _idDoctor) public view returns (Sensor[] memory){\r... */\n    tag_74:\n        /* \"EHealth.sol\":9573:9588  Sensor[] memory */\n      0x60\n        /* \"EHealth.sol\":9600:9619  Sensor[] memory ret */\n      0x00\n        /* \"EHealth.sol\":9635:9648  sensorsDoctor */\n      0x08\n        /* \"EHealth.sol\":9635:9655  sensorsDoctor.length */\n      dup1\n      sload\n      swap1\n      pop\n        /* \"EHealth.sol\":9622:9656  new Sensor[](sensorsDoctor.length) */\n      0xffffffffffffffff\n      dup2\n      gt\n      dup1\n      iszero\n      tag_276\n      jumpi\n      0x00\n      dup1\n      revert\n    tag_276:\n      pop\n      mload(0x40)\n      swap1\n      dup1\n      dup3\n      mstore\n      dup1\n      0x20\n      mul\n      0x20\n      add\n      dup3\n      add\n      0x40\n      mstore\n      dup1\n      iszero\n      tag_277\n      jumpi\n      dup2\n      0x20\n      add\n    tag_278:\n      tag_279\n      tag_246\n      jump\t// in\n    tag_279:\n      dup2\n      mstore\n      0x20\n      add\n      swap1\n      0x01\n      swap1\n      sub\n      swap1\n      dup2\n      tag_278\n      jumpi\n      swap1\n      pop\n    tag_277:\n      pop\n        /* \"EHealth.sol\":9600:9656  Sensor[] memory ret = new Sensor[](sensorsDoctor.length) */\n      swap1\n      pop\n        /* \"EHealth.sol\":9672:9678  uint i */\n      0x00\n        /* \"EHealth.sol\":9667:9840  for (uint i = 0; i< sensorsDoctor.length; i++) {\r... */\n    tag_280:\n        /* \"EHealth.sol\":9687:9700  sensorsDoctor */\n      0x08\n        /* \"EHealth.sol\":9687:9707  sensorsDoctor.length */\n      dup1\n      sload\n      swap1\n      pop\n        /* \"EHealth.sol\":9684:9685  i */\n      dup2\n        /* \"EHealth.sol\":9684:9707  i< sensorsDoctor.length */\n      lt\n        /* \"EHealth.sol\":9667:9840  for (uint i = 0; i< sensorsDoctor.length; i++) {\r... */\n      iszero\n      tag_281\n      jumpi\n        /* \"EHealth.sol\":9745:9758  sensorsDoctor */\n      0x08\n        /* \"EHealth.sol\":9759:9760  i */\n      dup2\n        /* \"EHealth.sol\":9745:9761  sensorsDoctor[i] */\n      dup2\n      sload\n      dup2\n      lt\n      tag_283\n      jumpi\n      invalid\n    tag_283:\n      swap1\n      0x00\n      mstore\n      keccak256(0x00, 0x20)\n      swap1\n      0x05\n      mul\n      add\n        /* \"EHealth.sol\":9745:9770  sensorsDoctor[i].idDoctor */\n      0x03\n      add\n      sload\n        /* \"EHealth.sol\":9732:9741  _idDoctor */\n      dup5\n        /* \"EHealth.sol\":9732:9770  _idDoctor == sensorsDoctor[i].idDoctor */\n      eq\n        /* \"EHealth.sol\":9729:9829  if(_idDoctor == sensorsDoctor[i].idDoctor){\r... */\n      iszero\n      tag_285\n      jumpi\n        /* \"EHealth.sol\":9797:9810  sensorsDoctor */\n      0x08\n        /* \"EHealth.sol\":9811:9812  i */\n      dup2\n        /* \"EHealth.sol\":9797:9813  sensorsDoctor[i] */\n      dup2\n      sload\n      dup2\n      lt\n      tag_286\n      jumpi\n      invalid\n    tag_286:\n      swap1\n      0x00\n      mstore\n      keccak256(0x00, 0x20)\n      swap1\n      0x05\n      mul\n      add\n        /* \"EHealth.sol\":9790:9813  ret[i]=sensorsDoctor[i] */\n      mload(0x40)\n      dup1\n      0xa0\n      add\n      0x40\n      mstore\n      swap1\n      dup2\n      0x00\n      dup3\n      add\n      sload\n      dup2\n      mstore\n      0x20\n      add\n      0x01\n      dup3\n      add\n      dup1\n      sload\n      0x01\n      dup2\n      0x01\n      and\n      iszero\n      0x0100\n      mul\n      sub\n      and\n      0x02\n      swap1\n      div\n      dup1\n      0x1f\n      add\n      0x20\n      dup1\n      swap2\n      div\n      mul\n      0x20\n      add\n      mload(0x40)\n      swap1\n      dup2\n      add\n      0x40\n      mstore\n      dup1\n      swap3\n      swap2\n      swap1\n      dup2\n      dup2\n      mstore\n      0x20\n      add\n      dup3\n      dup1\n      sload\n      0x01\n      dup2\n      0x01\n      and\n      iszero\n      0x0100\n      mul\n      sub\n      and\n      0x02\n      swap1\n      div\n      dup1\n      iszero\n      tag_288\n      jumpi\n      dup1\n      0x1f\n      lt\n      tag_289\n      jumpi\n      0x0100\n      dup1\n      dup4\n      sload\n      div\n      mul\n      dup4\n      mstore\n      swap2\n      0x20\n      add\n      swap2\n      jump(tag_288)\n    tag_289:\n      dup3\n      add\n      swap2\n      swap1\n      0x00\n      mstore\n      keccak256(0x00, 0x20)\n      swap1\n    tag_290:\n      dup2\n      sload\n      dup2\n      mstore\n      swap1\n      0x01\n      add\n      swap1\n      0x20\n      add\n      dup1\n      dup4\n      gt\n      tag_290\n      jumpi\n      dup3\n      swap1\n      sub\n      0x1f\n      and\n      dup3\n      add\n      swap2\n    tag_288:\n      pop\n      pop\n      pop\n      pop\n      pop\n      dup2\n      mstore\n      0x20\n      add\n      0x02\n      dup3\n      add\n      dup1\n      sload\n      0x01\n      dup2\n      0x01\n      and\n      iszero\n      0x0100\n      mul\n      sub\n      and\n      0x02\n      swap1\n      div\n      dup1\n      0x1f\n      add\n      0x20\n      dup1\n      swap2\n      div\n      mul\n      0x20\n      add\n      mload(0x40)\n      swap1\n      dup2\n      add\n      0x40\n      mstore\n      dup1\n      swap3\n      swap2\n      swap1\n      dup2\n      dup2\n      mstore\n      0x20\n      add\n      dup3\n      dup1\n      sload\n      0x01\n      dup2\n      0x01\n      and\n      iszero\n      0x0100\n      mul\n      sub\n      and\n      0x02\n      swap1\n      div\n      dup1\n      iszero\n      tag_291\n      jumpi\n      dup1\n      0x1f\n      lt\n      tag_292\n      jumpi\n      0x0100\n      dup1\n      dup4\n      sload\n      div\n      mul\n      dup4\n      mstore\n      swap2\n      0x20\n      add\n      swap2\n      jump(tag_291)\n    tag_292:\n      dup3\n      add\n      swap2\n      swap1\n      0x00\n      mstore\n      keccak256(0x00, 0x20)\n      swap1\n    tag_293:\n      dup2\n      sload\n      dup2\n      mstore\n      swap1\n      0x01\n      add\n      swap1\n      0x20\n      add\n      dup1\n      dup4\n      gt\n      tag_293\n      jumpi\n      dup3\n      swap1\n      sub\n      0x1f\n      and\n      dup3\n      add\n      swap2\n    tag_291:\n      pop\n      pop\n      pop\n      pop\n      pop\n      dup2\n      mstore\n      0x20\n      add\n      0x03\n      dup3\n      add\n      sload\n      dup2\n      mstore\n      0x20\n      add\n      0x04\n      dup3\n      add\n      0x00\n      swap1\n      sload\n      swap1\n      0x0100\n      exp\n      swap1\n      div\n      0xff\n      and\n      iszero\n      iszero\n      iszero\n      iszero\n      dup2\n      mstore\n      pop\n      pop\n        /* \"EHealth.sol\":9790:9793  ret */\n      dup3\n        /* \"EHealth.sol\":9794:9795  i */\n      dup3\n        /* \"EHealth.sol\":9790:9796  ret[i] */\n      dup2\n      mload\n      dup2\n      lt\n      tag_294\n      jumpi\n      invalid\n    tag_294:\n      0x20\n      mul\n      0x20\n      add\n      add\n        /* \"EHealth.sol\":9790:9813  ret[i]=sensorsDoctor[i] */\n      dup2\n      swap1\n      mstore\n      pop\n        /* \"EHealth.sol\":9729:9829  if(_idDoctor == sensorsDoctor[i].idDoctor){\r... */\n    tag_285:\n        /* \"EHealth.sol\":9709:9712  i++ */\n      dup1\n      dup1\n      0x01\n      add\n      swap2\n      pop\n      pop\n        /* \"EHealth.sol\":9667:9840  for (uint i = 0; i< sensorsDoctor.length; i++) {\r... */\n      jump(tag_280)\n    tag_281:\n      pop\n        /* \"EHealth.sol\":9857:9860  ret */\n      dup1\n        /* \"EHealth.sol\":9850:9860  return ret */\n      swap2\n      pop\n      pop\n        /* \"EHealth.sol\":9505:9868  function getAllSensorOfDoctor (uint _idDoctor) public view returns (Sensor[] memory){\r... */\n      swap2\n      swap1\n      pop\n      jump\t// out\n        /* \"EHealth.sol\":5133:5460  function RemoveDoctor(uint _id) public {\r... */\n    tag_78:\n        /* \"EHealth.sol\":5183:5193  uint index */\n      0x00\n        /* \"EHealth.sol\":5196:5211  FindDoctor(_id) */\n      tag_296\n        /* \"EHealth.sol\":5207:5210  _id */\n      dup3\n        /* \"EHealth.sol\":5196:5206  FindDoctor */\n      tag_159\n        /* \"EHealth.sol\":5196:5211  FindDoctor(_id) */\n      jump\t// in\n    tag_296:\n        /* \"EHealth.sol\":5183:5211  uint index = FindDoctor(_id) */\n      swap1\n      pop\n        /* \"EHealth.sol\":5256:5261  false */\n      0x00\n        /* \"EHealth.sol\":5222:5237  doctorsHospital */\n      0x06\n        /* \"EHealth.sol\":5238:5243  index */\n      dup3\n        /* \"EHealth.sol\":5222:5244  doctorsHospital[index] */\n      dup2\n      sload\n      dup2\n      lt\n      tag_297\n      jumpi\n      invalid\n    tag_297:\n      swap1\n      0x00\n      mstore\n      keccak256(0x00, 0x20)\n      swap1\n      0x03\n      mul\n      add\n        /* \"EHealth.sol\":5222:5255  doctorsHospital[index].permission */\n      0x02\n      add\n      0x14\n        /* \"EHealth.sol\":5222:5261  doctorsHospital[index].permission=false */\n      0x0100\n      exp\n      dup2\n      sload\n      dup2\n      0xff\n      mul\n      not\n      and\n      swap1\n      dup4\n      iszero\n      iszero\n      mul\n      or\n      swap1\n      sstore\n      pop\n        /* \"EHealth.sol\":5277:5452  DeleteDoctor(doctorsHospital[index].idDoctor,\r... */\n      0x3196e7ce6b332050a55708b2dd6fd95a0381cb56e1dcd604c5fe8b3152404448\n        /* \"EHealth.sol\":5290:5305  doctorsHospital */\n      0x06\n        /* \"EHealth.sol\":5306:5311  index */\n      dup3\n        /* \"EHealth.sol\":5290:5312  doctorsHospital[index] */\n      dup2\n      sload\n      dup2\n      lt\n      tag_299\n      jumpi\n      invalid\n    tag_299:\n      swap1\n      0x00\n      mstore\n      keccak256(0x00, 0x20)\n      swap1\n      0x03\n      mul\n      add\n        /* \"EHealth.sol\":5290:5321  doctorsHospital[index].idDoctor */\n      0x00\n      add\n      sload\n        /* \"EHealth.sol\":5332:5347  doctorsHospital */\n      0x06\n        /* \"EHealth.sol\":5348:5353  index */\n      dup4\n        /* \"EHealth.sol\":5332:5354  doctorsHospital[index] */\n      dup2\n      sload\n      dup2\n      lt\n      tag_301\n      jumpi\n      invalid\n    tag_301:\n      swap1\n      0x00\n      mstore\n      keccak256(0x00, 0x20)\n      swap1\n      0x03\n      mul\n      add\n        /* \"EHealth.sol\":5332:5365  doctorsHospital[index].nameDoctor */\n      0x01\n      add\n        /* \"EHealth.sol\":5376:5391  doctorsHospital */\n      0x06\n        /* \"EHealth.sol\":5392:5397  index */\n      dup5\n        /* \"EHealth.sol\":5376:5398  doctorsHospital[index] */\n      dup2\n      sload\n      dup2\n      lt\n      tag_303\n      jumpi\n      invalid\n    tag_303:\n      swap1\n      0x00\n      mstore\n      keccak256(0x00, 0x20)\n      swap1\n      0x03\n      mul\n      add\n        /* \"EHealth.sol\":5376:5407  doctorsHospital[index].hospital */\n      0x02\n      add\n      0x00\n      swap1\n      sload\n      swap1\n      0x0100\n      exp\n      swap1\n      div\n      0xffffffffffffffffffffffffffffffffffffffff\n      and\n        /* \"EHealth.sol\":5418:5433  doctorsHospital */\n      0x06\n        /* \"EHealth.sol\":5434:5439  index */\n      dup6\n        /* \"EHealth.sol\":5418:5440  doctorsHospital[index] */\n      dup2\n      sload\n      dup2\n      lt\n      tag_305\n      jumpi\n      invalid\n    tag_305:\n      swap1\n      0x00\n      mstore\n      keccak256(0x00, 0x20)\n      swap1\n      0x03\n      mul\n      add\n        /* \"EHealth.sol\":5418:5451  doctorsHospital[index].permission */\n      0x02\n      add\n      0x14\n      swap1\n      sload\n      swap1\n      0x0100\n      exp\n      swap1\n      div\n      0xff\n      and\n        /* \"EHealth.sol\":5277:5452  DeleteDoctor(doctorsHospital[index].idDoctor,\r... */\n      mload(0x40)\n      tag_307\n      swap5\n      swap4\n      swap3\n      swap2\n      swap1\n      tag_308\n      jump\t// in\n    tag_307:\n      mload(0x40)\n      dup1\n      swap2\n      sub\n      swap1\n      log1\n        /* \"EHealth.sol\":5133:5460  function RemoveDoctor(uint _id) public {\r... */\n      pop\n      pop\n      jump\t// out\n        /* \"EHealth.sol\":864:904  mapping(address=> Sensor) public Sensors */\n    tag_81:\n      mstore(0x20, 0x07)\n      dup1\n      0x00\n      mstore\n      keccak256(0x00, 0x40)\n      0x00\n      swap2\n      pop\n      swap1\n      pop\n      dup1\n      0x00\n      add\n      sload\n      swap1\n      dup1\n      0x01\n      add\n      dup1\n      sload\n      0x01\n      dup2\n      0x01\n      and\n      iszero\n      0x0100\n      mul\n      sub\n      and\n      0x02\n      swap1\n      div\n      dup1\n      0x1f\n      add\n      0x20\n      dup1\n      swap2\n      div\n      mul\n      0x20\n      add\n      mload(0x40)\n      swap1\n      dup2\n      add\n      0x40\n      mstore\n      dup1\n      swap3\n      swap2\n      swap1\n      dup2\n      dup2\n      mstore\n      0x20\n      add\n      dup3\n      dup1\n      sload\n      0x01\n      dup2\n      0x01\n      and\n      iszero\n      0x0100\n      mul\n      sub\n      and\n      0x02\n      swap1\n      div\n      dup1\n      iszero\n      tag_309\n      jumpi\n      dup1\n      0x1f\n      lt\n      tag_310\n      jumpi\n      0x0100\n      dup1\n      dup4\n      sload\n      div\n      mul\n      dup4\n      mstore\n      swap2\n      0x20\n      add\n      swap2\n      jump(tag_309)\n    tag_310:\n      dup3\n      add\n      swap2\n      swap1\n      0x00\n      mstore\n      keccak256(0x00, 0x20)\n      swap1\n    tag_311:\n      dup2\n      sload\n      dup2\n      mstore\n      swap1\n      0x01\n      add\n      swap1\n      0x20\n      add\n      dup1\n      dup4\n      gt\n      tag_311\n      jumpi\n      dup3\n      swap1\n      sub\n      0x1f\n      and\n      dup3\n      add\n      swap2\n    tag_309:\n      pop\n      pop\n      pop\n      pop\n      pop\n      swap1\n      dup1\n      0x02\n      add\n      dup1\n      sload\n      0x01\n      dup2\n      0x01\n      and\n      iszero\n      0x0100\n      mul\n      sub\n      and\n      0x02\n      swap1\n      div\n      dup1\n      0x1f\n      add\n      0x20\n      dup1\n      swap2\n      div\n      mul\n      0x20\n      add\n      mload(0x40)\n      swap1\n      dup2\n      add\n      0x40\n      mstore\n      dup1\n      swap3\n      swap2\n      swap1\n      dup2\n      dup2\n      mstore\n      0x20\n      add\n      dup3\n      dup1\n      sload\n      0x01\n      dup2\n      0x01\n      and\n      iszero\n      0x0100\n      mul\n      sub\n      and\n      0x02\n      swap1\n      div\n      dup1\n      iszero\n      tag_312\n      jumpi\n      dup1\n      0x1f\n      lt\n      tag_313\n      jumpi\n      0x0100\n      dup1\n      dup4\n      sload\n      div\n      mul\n      dup4\n      mstore\n      swap2\n      0x20\n      add\n      swap2\n      jump(tag_312)\n    tag_313:\n      dup3\n      add\n      swap2\n      swap1\n      0x00\n      mstore\n      keccak256(0x00, 0x20)\n      swap1\n    tag_314:\n      dup2\n      sload\n      dup2\n      mstore\n      swap1\n      0x01\n      add\n      swap1\n      0x20\n      add\n      dup1\n      dup4\n      gt\n      tag_314\n      jumpi\n      dup3\n      swap1\n      sub\n      0x1f\n      and\n      dup3\n      add\n      swap2\n    tag_312:\n      pop\n      pop\n      pop\n      pop\n      pop\n      swap1\n      dup1\n      0x03\n      add\n      sload\n      swap1\n      dup1\n      0x04\n      add\n      0x00\n      swap1\n      sload\n      swap1\n      0x0100\n      exp\n      swap1\n      div\n      0xff\n      and\n      swap1\n      pop\n      dup6\n      jump\t// out\n        /* \"EHealth.sol\":808:839  Doctor[] public doctorsHospital */\n    tag_86:\n      0x06\n      dup2\n      dup2\n      sload\n      dup2\n      lt\n      tag_315\n      jumpi\n      0x00\n      dup1\n      revert\n    tag_315:\n      swap1\n      0x00\n      mstore\n      keccak256(0x00, 0x20)\n      swap1\n      0x03\n      mul\n      add\n      0x00\n      swap2\n      pop\n      swap1\n      pop\n      dup1\n      0x00\n      add\n      sload\n      swap1\n      dup1\n      0x01\n      add\n      dup1\n      sload\n      0x01\n      dup2\n      0x01\n      and\n      iszero\n      0x0100\n      mul\n      sub\n      and\n      0x02\n      swap1\n      div\n      dup1\n      0x1f\n      add\n      0x20\n      dup1\n      swap2\n      div\n      mul\n      0x20\n      add\n      mload(0x40)\n      swap1\n      dup2\n      add\n      0x40\n      mstore\n      dup1\n      swap3\n      swap2\n      swap1\n      dup2\n      dup2\n      mstore\n      0x20\n      add\n      dup3\n      dup1\n      sload\n      0x01\n      dup2\n      0x01\n      and\n      iszero\n      0x0100\n      mul\n      sub\n      and\n      0x02\n      swap1\n      div\n      dup1\n      iszero\n      tag_317\n      jumpi\n      dup1\n      0x1f\n      lt\n      tag_318\n      jumpi\n      0x0100\n      dup1\n      dup4\n      sload\n      div\n      mul\n      dup4\n      mstore\n      swap2\n      0x20\n      add\n      swap2\n      jump(tag_317)\n    tag_318:\n      dup3\n      add\n      swap2\n      swap1\n      0x00\n      mstore\n      keccak256(0x00, 0x20)\n      swap1\n    tag_319:\n      dup2\n      sload\n      dup2\n      mstore\n      swap1\n      0x01\n      add\n      swap1\n      0x20\n      add\n      dup1\n      dup4\n      gt\n      tag_319\n      jumpi\n      dup3\n      swap1\n      sub\n      0x1f\n      and\n      dup3\n      add\n      swap2\n    tag_317:\n      pop\n      pop\n      pop\n      pop\n      pop\n      swap1\n      dup1\n      0x02\n      add\n      0x00\n      swap1\n      sload\n      swap1\n      0x0100\n      exp\n      swap1\n      div\n      0xffffffffffffffffffffffffffffffffffffffff\n      and\n      swap1\n      dup1\n      0x02\n      add\n      0x14\n      swap1\n      sload\n      swap1\n      0x0100\n      exp\n      swap1\n      div\n      0xff\n      and\n      swap1\n      pop\n      dup5\n      jump\t// out\n        /* \"EHealth.sol\":4010:4361  function ReadHospital(address _address)public view returns(string memory, string memory, string memory, uint, bool){\r... */\n    tag_91:\n        /* \"EHealth.sol\":4069:4082  string memory */\n      0x60\n        /* \"EHealth.sol\":4084:4097  string memory */\n      dup1\n        /* \"EHealth.sol\":4099:4112  string memory */\n      0x60\n        /* \"EHealth.sol\":4114:4118  uint */\n      0x00\n        /* \"EHealth.sol\":4120:4124  bool */\n      dup1\n        /* \"EHealth.sol\":4136:4146  uint index */\n      0x00\n        /* \"EHealth.sol\":4149:4171  FindHospital(_address) */\n      tag_321\n        /* \"EHealth.sol\":4162:4170  _address */\n      dup8\n        /* \"EHealth.sol\":4149:4161  FindHospital */\n      tag_171\n        /* \"EHealth.sol\":4149:4171  FindHospital(_address) */\n      jump\t// in\n    tag_321:\n        /* \"EHealth.sol\":4136:4171  uint index = FindHospital(_address) */\n      swap1\n      pop\n        /* \"EHealth.sol\":4190:4205  hospitalCenters */\n      0x04\n        /* \"EHealth.sol\":4206:4211  index */\n      dup2\n        /* \"EHealth.sol\":4190:4212  hospitalCenters[index] */\n      dup2\n      sload\n      dup2\n      lt\n      tag_322\n      jumpi\n      invalid\n    tag_322:\n      swap1\n      0x00\n      mstore\n      keccak256(0x00, 0x20)\n      swap1\n      0x06\n      mul\n      add\n        /* \"EHealth.sol\":4190:4217  hospitalCenters[index].name */\n      0x01\n      add\n        /* \"EHealth.sol\":4218:4233  hospitalCenters */\n      0x04\n        /* \"EHealth.sol\":4234:4239  index */\n      dup3\n        /* \"EHealth.sol\":4218:4240  hospitalCenters[index] */\n      dup2\n      sload\n      dup2\n      lt\n      tag_324\n      jumpi\n      invalid\n    tag_324:\n      swap1\n      0x00\n      mstore\n      keccak256(0x00, 0x20)\n      swap1\n      0x06\n      mul\n      add\n        /* \"EHealth.sol\":4218:4245  hospitalCenters[index].city */\n      0x02\n      add\n        /* \"EHealth.sol\":4246:4261  hospitalCenters */\n      0x04\n        /* \"EHealth.sol\":4262:4267  index */\n      dup4\n        /* \"EHealth.sol\":4246:4268  hospitalCenters[index] */\n      dup2\n      sload\n      dup2\n      lt\n      tag_326\n      jumpi\n      invalid\n    tag_326:\n      swap1\n      0x00\n      mstore\n      keccak256(0x00, 0x20)\n      swap1\n      0x06\n      mul\n      add\n        /* \"EHealth.sol\":4246:4274  hospitalCenters[index].state */\n      0x03\n      add\n        /* \"EHealth.sol\":4285:4300  hospitalCenters */\n      0x04\n        /* \"EHealth.sol\":4301:4306  index */\n      dup5\n        /* \"EHealth.sol\":4285:4307  hospitalCenters[index] */\n      dup2\n      sload\n      dup2\n      lt\n      tag_328\n      jumpi\n      invalid\n    tag_328:\n      swap1\n      0x00\n      mstore\n      keccak256(0x00, 0x20)\n      swap1\n      0x06\n      mul\n      add\n        /* \"EHealth.sol\":4285:4318  hospitalCenters[index].postalCode */\n      0x04\n      add\n      sload\n        /* \"EHealth.sol\":4319:4334  hospitalCenters */\n      0x04\n        /* \"EHealth.sol\":4335:4340  index */\n      dup6\n        /* \"EHealth.sol\":4319:4341  hospitalCenters[index] */\n      dup2\n      sload\n      dup2\n      lt\n      tag_330\n      jumpi\n      invalid\n    tag_330:\n      swap1\n      0x00\n      mstore\n      keccak256(0x00, 0x20)\n      swap1\n      0x06\n      mul\n      add\n        /* \"EHealth.sol\":4319:4352  hospitalCenters[index].permission */\n      0x05\n      add\n      0x00\n      swap1\n      sload\n      swap1\n      0x0100\n      exp\n      swap1\n      div\n      0xff\n      and\n        /* \"EHealth.sol\":4182:4353  return (hospitalCenters[index].name,hospitalCenters[index].city,hospitalCenters[index].state,\r... */\n      dup5\n      dup1\n      sload\n      0x01\n      dup2\n      0x01\n      and\n      iszero\n      0x0100\n      mul\n      sub\n      and\n      0x02\n      swap1\n      div\n      dup1\n      0x1f\n      add\n      0x20\n      dup1\n      swap2\n      div\n      mul\n      0x20\n      add\n      mload(0x40)\n      swap1\n      dup2\n      add\n      0x40\n      mstore\n      dup1\n      swap3\n      swap2\n      swap1\n      dup2\n      dup2\n      mstore\n      0x20\n      add\n      dup3\n      dup1\n      sload\n      0x01\n      dup2\n      0x01\n      and\n      iszero\n      0x0100\n      mul\n      sub\n      and\n      0x02\n      swap1\n      div\n      dup1\n      iszero\n      tag_332\n      jumpi\n      dup1\n      0x1f\n      lt\n      tag_333\n      jumpi\n      0x0100\n      dup1\n      dup4\n      sload\n      div\n      mul\n      dup4\n      mstore\n      swap2\n      0x20\n      add\n      swap2\n      jump(tag_332)\n    tag_333:\n      dup3\n      add\n      swap2\n      swap1\n      0x00\n      mstore\n      keccak256(0x00, 0x20)\n      swap1\n    tag_334:\n      dup2\n      sload\n      dup2\n      mstore\n      swap1\n      0x01\n      add\n      swap1\n      0x20\n      add\n      dup1\n      dup4\n      gt\n      tag_334\n      jumpi\n      dup3\n      swap1\n      sub\n      0x1f\n      and\n      dup3\n      add\n      swap2\n    tag_332:\n      pop\n      pop\n      pop\n      pop\n      pop\n      swap5\n      pop\n      dup4\n      dup1\n      sload\n      0x01\n      dup2\n      0x01\n      and\n      iszero\n      0x0100\n      mul\n      sub\n      and\n      0x02\n      swap1\n      div\n      dup1\n      0x1f\n      add\n      0x20\n      dup1\n      swap2\n      div\n      mul\n      0x20\n      add\n      mload(0x40)\n      swap1\n      dup2\n      add\n      0x40\n      mstore\n      dup1\n      swap3\n      swap2\n      swap1\n      dup2\n      dup2\n      mstore\n      0x20\n      add\n      dup3\n      dup1\n      sload\n      0x01\n      dup2\n      0x01\n      and\n      iszero\n      0x0100\n      mul\n      sub\n      and\n      0x02\n      swap1\n      div\n      dup1\n      iszero\n      tag_335\n      jumpi\n      dup1\n      0x1f\n      lt\n      tag_336\n      jumpi\n      0x0100\n      dup1\n      dup4\n      sload\n      div\n      mul\n      dup4\n      mstore\n      swap2\n      0x20\n      add\n      swap2\n      jump(tag_335)\n    tag_336:\n      dup3\n      add\n      swap2\n      swap1\n      0x00\n      mstore\n      keccak256(0x00, 0x20)\n      swap1\n    tag_337:\n      dup2\n      sload\n      dup2\n      mstore\n      swap1\n      0x01\n      add\n      swap1\n      0x20\n      add\n      dup1\n      dup4\n      gt\n      tag_337\n      jumpi\n      dup3\n      swap1\n      sub\n      0x1f\n      and\n      dup3\n      add\n      swap2\n    tag_335:\n      pop\n      pop\n      pop\n      pop\n      pop\n      swap4\n      pop\n      dup3\n      dup1\n      sload\n      0x01\n      dup2\n      0x01\n      and\n      iszero\n      0x0100\n      mul\n      sub\n      and\n      0x02\n      swap1\n      div\n      dup1\n      0x1f\n      add\n      0x20\n      dup1\n      swap2\n      div\n      mul\n      0x20\n      add\n      mload(0x40)\n      swap1\n      dup2\n      add\n      0x40\n      mstore\n      dup1\n      swap3\n      swap2\n      swap1\n      dup2\n      dup2\n      mstore\n      0x20\n      add\n      dup3\n      dup1\n      sload\n      0x01\n      dup2\n      0x01\n      and\n      iszero\n      0x0100\n      mul\n      sub\n      and\n      0x02\n      swap1\n      div\n      dup1\n      iszero\n      tag_338\n      jumpi\n      dup1\n      0x1f\n      lt\n      tag_339\n      jumpi\n      0x0100\n      dup1\n      dup4\n      sload\n      div\n      mul\n      dup4\n      mstore\n      swap2\n      0x20\n      add\n      swap2\n      jump(tag_338)\n    tag_339:\n      dup3\n      add\n      swap2\n      swap1\n      0x00\n      mstore\n      keccak256(0x00, 0x20)\n      swap1\n    tag_340:\n      dup2\n      sload\n      dup2\n      mstore\n      swap1\n      0x01\n      add\n      swap1\n      0x20\n      add\n      dup1\n      dup4\n      gt\n      tag_340\n      jumpi\n      dup3\n      swap1\n      sub\n      0x1f\n      and\n      dup3\n      add\n      swap2\n    tag_338:\n      pop\n      pop\n      pop\n      pop\n      pop\n      swap3\n      pop\n      swap6\n      pop\n      swap6\n      pop\n      swap6\n      pop\n      swap6\n      pop\n      swap6\n      pop\n      pop\n        /* \"EHealth.sol\":4010:4361  function ReadHospital(address _address)public view returns(string memory, string memory, string memory, uint, bool){\r... */\n      swap2\n      swap4\n      swap6\n      swap1\n      swap3\n      swap5\n      pop\n      jump\t// out\n        /* \"EHealth.sol\":3868:3973  function Length_Hospitals() public view returns (uint256){\r... */\n    tag_95:\n        /* \"EHealth.sol\":3917:3924  uint256 */\n      0x00\n        /* \"EHealth.sol\":3943:3958  hospitalCenters */\n      0x04\n        /* \"EHealth.sol\":3943:3965  hospitalCenters.length */\n      dup1\n      sload\n      swap1\n      pop\n        /* \"EHealth.sol\":3936:3965  return hospitalCenters.length */\n      swap1\n      pop\n        /* \"EHealth.sol\":3868:3973  function Length_Hospitals() public view returns (uint256){\r... */\n      swap1\n      jump\t// out\n        /* \"EHealth.sol\":1778:2094  function AddHospital(address _idHospital, string memory _name, string memory _city, string memory _state, uint _postalCode ) public {\r... */\n    tag_99:\n        /* \"EHealth.sol\":1921:1936  hospitalCenters */\n      0x04\n        /* \"EHealth.sol\":1942:2004  Hospital(_idHospital, _name, _city, _state, _postalCode, true) */\n      mload(0x40)\n      dup1\n      0xc0\n      add\n      0x40\n      mstore\n      dup1\n        /* \"EHealth.sol\":1951:1962  _idHospital */\n      dup8\n        /* \"EHealth.sol\":1942:2004  Hospital(_idHospital, _name, _city, _state, _postalCode, true) */\n      0xffffffffffffffffffffffffffffffffffffffff\n      and\n      dup2\n      mstore\n      0x20\n      add\n        /* \"EHealth.sol\":1964:1969  _name */\n      dup7\n        /* \"EHealth.sol\":1942:2004  Hospital(_idHospital, _name, _city, _state, _postalCode, true) */\n      dup2\n      mstore\n      0x20\n      add\n        /* \"EHealth.sol\":1971:1976  _city */\n      dup6\n        /* \"EHealth.sol\":1942:2004  Hospital(_idHospital, _name, _city, _state, _postalCode, true) */\n      dup2\n      mstore\n      0x20\n      add\n        /* \"EHealth.sol\":1978:1984  _state */\n      dup5\n        /* \"EHealth.sol\":1942:2004  Hospital(_idHospital, _name, _city, _state, _postalCode, true) */\n      dup2\n      mstore\n      0x20\n      add\n        /* \"EHealth.sol\":1986:1997  _postalCode */\n      dup4\n        /* \"EHealth.sol\":1942:2004  Hospital(_idHospital, _name, _city, _state, _postalCode, true) */\n      dup2\n      mstore\n      0x20\n      add\n        /* \"EHealth.sol\":1999:2003  true */\n      0x01\n        /* \"EHealth.sol\":1942:2004  Hospital(_idHospital, _name, _city, _state, _postalCode, true) */\n      iszero\n      iszero\n      dup2\n      mstore\n      pop\n        /* \"EHealth.sol\":1921:2005  hospitalCenters.push(Hospital(_idHospital, _name, _city, _state, _postalCode, true)) */\n      swap1\n      dup1\n      0x01\n      dup2\n      sload\n      add\n      dup1\n      dup3\n      sstore\n      dup1\n      swap2\n      pop\n      pop\n      0x01\n      swap1\n      sub\n      swap1\n      0x00\n      mstore\n      keccak256(0x00, 0x20)\n      swap1\n      0x06\n      mul\n      add\n      0x00\n      swap1\n      swap2\n      swap1\n      swap2\n      swap1\n      swap2\n      pop\n      0x00\n      dup3\n      add\n      mload\n      dup2\n      0x00\n      add\n      exp(0x0100, 0x00)\n      dup2\n      sload\n      dup2\n      0xffffffffffffffffffffffffffffffffffffffff\n      mul\n      not\n      and\n      swap1\n      dup4\n      0xffffffffffffffffffffffffffffffffffffffff\n      and\n      mul\n      or\n      swap1\n      sstore\n      pop\n      0x20\n      dup3\n      add\n      mload\n      dup2\n      0x01\n      add\n      swap1\n      dup1\n      mload\n      swap1\n      0x20\n      add\n      swap1\n      tag_344\n      swap3\n      swap2\n      swap1\n      tag_175\n      jump\t// in\n    tag_344:\n      pop\n      0x40\n      dup3\n      add\n      mload\n      dup2\n      0x02\n      add\n      swap1\n      dup1\n      mload\n      swap1\n      0x20\n      add\n      swap1\n      tag_345\n      swap3\n      swap2\n      swap1\n      tag_175\n      jump\t// in\n    tag_345:\n      pop\n      0x60\n      dup3\n      add\n      mload\n      dup2\n      0x03\n      add\n      swap1\n      dup1\n      mload\n      swap1\n      0x20\n      add\n      swap1\n      tag_346\n      swap3\n      swap2\n      swap1\n      tag_175\n      jump\t// in\n    tag_346:\n      pop\n      0x80\n      dup3\n      add\n      mload\n      dup2\n      0x04\n      add\n      sstore\n      0xa0\n      dup3\n      add\n      mload\n      dup2\n      0x05\n      add\n      exp(0x0100, 0x00)\n      dup2\n      sload\n      dup2\n      0xff\n      mul\n      not\n      and\n      swap1\n      dup4\n      iszero\n      iszero\n      mul\n      or\n      swap1\n      sstore\n      pop\n      pop\n      pop\n        /* \"EHealth.sol\":2021:2086  NewHospital(_idHospital, _name, _city, _state, _postalCode, true) */\n      0xf646212acc3f5092fb0211ffd5121c0f706641b715e3982dab50afb395413dd5\n        /* \"EHealth.sol\":2033:2044  _idHospital */\n      dup6\n        /* \"EHealth.sol\":2046:2051  _name */\n      dup6\n        /* \"EHealth.sol\":2053:2058  _city */\n      dup6\n        /* \"EHealth.sol\":2060:2066  _state */\n      dup6\n        /* \"EHealth.sol\":2068:2079  _postalCode */\n      dup6\n        /* \"EHealth.sol\":2081:2085  true */\n      0x01\n        /* \"EHealth.sol\":2021:2086  NewHospital(_idHospital, _name, _city, _state, _postalCode, true) */\n      mload(0x40)\n      tag_347\n      swap7\n      swap6\n      swap5\n      swap4\n      swap3\n      swap2\n      swap1\n      tag_104\n      jump\t// in\n    tag_347:\n      mload(0x40)\n      dup1\n      swap2\n      sub\n      swap1\n      log1\n        /* \"EHealth.sol\":1778:2094  function AddHospital(address _idHospital, string memory _name, string memory _city, string memory _state, uint _postalCode ) public {\r... */\n      pop\n      pop\n      pop\n      pop\n      pop\n      jump\t// out\n        /* \"EHealth.sol\":301:345  mapping(address=> Hospital) public Hospitals */\n    tag_102:\n      mstore(0x20, 0x03)\n      dup1\n      0x00\n      mstore\n      keccak256(0x00, 0x40)\n      0x00\n      swap2\n      pop\n      swap1\n      pop\n      dup1\n      0x00\n      add\n      0x00\n      swap1\n      sload\n      swap1\n      0x0100\n      exp\n      swap1\n      div\n      0xffffffffffffffffffffffffffffffffffffffff\n      and\n      swap1\n      dup1\n      0x01\n      add\n      dup1\n      sload\n      0x01\n      dup2\n      0x01\n      and\n      iszero\n      0x0100\n      mul\n      sub\n      and\n      0x02\n      swap1\n      div\n      dup1\n      0x1f\n      add\n      0x20\n      dup1\n      swap2\n      div\n      mul\n      0x20\n      add\n      mload(0x40)\n      swap1\n      dup2\n      add\n      0x40\n      mstore\n      dup1\n      swap3\n      swap2\n      swap1\n      dup2\n      dup2\n      mstore\n      0x20\n      add\n      dup3\n      dup1\n      sload\n      0x01\n      dup2\n      0x01\n      and\n      iszero\n      0x0100\n      mul\n      sub\n      and\n      0x02\n      swap1\n      div\n      dup1\n      iszero\n      tag_348\n      jumpi\n      dup1\n      0x1f\n      lt\n      tag_349\n      jumpi\n      0x0100\n      dup1\n      dup4\n      sload\n      div\n      mul\n      dup4\n      mstore\n      swap2\n      0x20\n      add\n      swap2\n      jump(tag_348)\n    tag_349:\n      dup3\n      add\n      swap2\n      swap1\n      0x00\n      mstore\n      keccak256(0x00, 0x20)\n      swap1\n    tag_350:\n      dup2\n      sload\n      dup2\n      mstore\n      swap1\n      0x01\n      add\n      swap1\n      0x20\n      add\n      dup1\n      dup4\n      gt\n      tag_350\n      jumpi\n      dup3\n      swap1\n      sub\n      0x1f\n      and\n      dup3\n      add\n      swap2\n    tag_348:\n      pop\n      pop\n      pop\n      pop\n      pop\n      swap1\n      dup1\n      0x02\n      add\n      dup1\n      sload\n      0x01\n      dup2\n      0x01\n      and\n      iszero\n      0x0100\n      mul\n      sub\n      and\n      0x02\n      swap1\n      div\n      dup1\n      0x1f\n      add\n      0x20\n      dup1\n      swap2\n      div\n      mul\n      0x20\n      add\n      mload(0x40)\n      swap1\n      dup2\n      add\n      0x40\n      mstore\n      dup1\n      swap3\n      swap2\n      swap1\n      dup2\n      dup2\n      mstore\n      0x20\n      add\n      dup3\n      dup1\n      sload\n      0x01\n      dup2\n      0x01\n      and\n      iszero\n      0x0100\n      mul\n      sub\n      and\n      0x02\n      swap1\n      div\n      dup1\n      iszero\n      tag_351\n      jumpi\n      dup1\n      0x1f\n      lt\n      tag_352\n      jumpi\n      0x0100\n      dup1\n      dup4\n      sload\n      div\n      mul\n      dup4\n      mstore\n      swap2\n      0x20\n      add\n      swap2\n      jump(tag_351)\n    tag_352:\n      dup3\n      add\n      swap2\n      swap1\n      0x00\n      mstore\n      keccak256(0x00, 0x20)\n      swap1\n    tag_353:\n      dup2\n      sload\n      dup2\n      mstore\n      swap1\n      0x01\n      add\n      swap1\n      0x20\n      add\n      dup1\n      dup4\n      gt\n      tag_353\n      jumpi\n      dup3\n      swap1\n      sub\n      0x1f\n      and\n      dup3\n      add\n      swap2\n    tag_351:\n      pop\n      pop\n      pop\n      pop\n      pop\n      swap1\n      dup1\n      0x03\n      add\n      dup1\n      sload\n      0x01\n      dup2\n      0x01\n      and\n      iszero\n      0x0100\n      mul\n      sub\n      and\n      0x02\n      swap1\n      div\n      dup1\n      0x1f\n      add\n      0x20\n      dup1\n      swap2\n      div\n      mul\n      0x20\n      add\n      mload(0x40)\n      swap1\n      dup2\n      add\n      0x40\n      mstore\n      dup1\n      swap3\n      swap2\n      swap1\n      dup2\n      dup2\n      mstore\n      0x20\n      add\n      dup3\n      dup1\n      sload\n      0x01\n      dup2\n      0x01\n      and\n      iszero\n      0x0100\n      mul\n      sub\n      and\n      0x02\n      swap1\n      div\n      dup1\n      iszero\n      tag_354\n      jumpi\n      dup1\n      0x1f\n      lt\n      tag_355\n      jumpi\n      0x0100\n      dup1\n      dup4\n      sload\n      div\n      mul\n      dup4\n      mstore\n      swap2\n      0x20\n      add\n      swap2\n      jump(tag_354)\n    tag_355:\n      dup3\n      add\n      swap2\n      swap1\n      0x00\n      mstore\n      keccak256(0x00, 0x20)\n      swap1\n    tag_356:\n      dup2\n      sload\n      dup2\n      mstore\n      swap1\n      0x01\n      add\n      swap1\n      0x20\n      add\n      dup1\n      dup4\n      gt\n      tag_356\n      jumpi\n      dup3\n      swap1\n      sub\n      0x1f\n      and\n      dup3\n      add\n      swap2\n    tag_354:\n      pop\n      pop\n      pop\n      pop\n      pop\n      swap1\n      dup1\n      0x04\n      add\n      sload\n      swap1\n      dup1\n      0x05\n      add\n      0x00\n      swap1\n      sload\n      swap1\n      0x0100\n      exp\n      swap1\n      div\n      0xff\n      and\n      swap1\n      pop\n      dup7\n      jump\t// out\n        /* \"EHealth.sol\":7175:7512  function AddSensor(string memory _mac, string memory _patientName, uint _idDoctor, bool _active) public {\r... */\n    tag_108:\n        /* \"EHealth.sol\":7290:7311  FindDoctor(_idDoctor) */\n      tag_358\n        /* \"EHealth.sol\":7301:7310  _idDoctor */\n      dup3\n        /* \"EHealth.sol\":7290:7300  FindDoctor */\n      tag_159\n        /* \"EHealth.sol\":7290:7311  FindDoctor(_idDoctor) */\n      jump\t// in\n    tag_358:\n      pop\n        /* \"EHealth.sol\":7322:7335  sensorsDoctor */\n      0x08\n        /* \"EHealth.sol\":7341:7400  Sensor(nextIdSensor,_mac, _patientName, _idDoctor, _active) */\n      mload(0x40)\n      dup1\n      0xa0\n      add\n      0x40\n      mstore\n      dup1\n        /* \"EHealth.sol\":7348:7360  nextIdSensor */\n      sload(0x01)\n        /* \"EHealth.sol\":7341:7400  Sensor(nextIdSensor,_mac, _patientName, _idDoctor, _active) */\n      dup2\n      mstore\n      0x20\n      add\n        /* \"EHealth.sol\":7361:7365  _mac */\n      dup7\n        /* \"EHealth.sol\":7341:7400  Sensor(nextIdSensor,_mac, _patientName, _idDoctor, _active) */\n      dup2\n      mstore\n      0x20\n      add\n        /* \"EHealth.sol\":7367:7379  _patientName */\n      dup6\n        /* \"EHealth.sol\":7341:7400  Sensor(nextIdSensor,_mac, _patientName, _idDoctor, _active) */\n      dup2\n      mstore\n      0x20\n      add\n        /* \"EHealth.sol\":7381:7390  _idDoctor */\n      dup5\n        /* \"EHealth.sol\":7341:7400  Sensor(nextIdSensor,_mac, _patientName, _idDoctor, _active) */\n      dup2\n      mstore\n      0x20\n      add\n        /* \"EHealth.sol\":7392:7399  _active */\n      dup4\n        /* \"EHealth.sol\":7341:7400  Sensor(nextIdSensor,_mac, _patientName, _idDoctor, _active) */\n      iszero\n      iszero\n      dup2\n      mstore\n      pop\n        /* \"EHealth.sol\":7322:7401  sensorsDoctor.push(Sensor(nextIdSensor,_mac, _patientName, _idDoctor, _active)) */\n      swap1\n      dup1\n      0x01\n      dup2\n      sload\n      add\n      dup1\n      dup3\n      sstore\n      dup1\n      swap2\n      pop\n      pop\n      0x01\n      swap1\n      sub\n      swap1\n      0x00\n      mstore\n      keccak256(0x00, 0x20)\n      swap1\n      0x05\n      mul\n      add\n      0x00\n      swap1\n      swap2\n      swap1\n      swap2\n      swap1\n      swap2\n      pop\n      0x00\n      dup3\n      add\n      mload\n      dup2\n      0x00\n      add\n      sstore\n      0x20\n      dup3\n      add\n      mload\n      dup2\n      0x01\n      add\n      swap1\n      dup1\n      mload\n      swap1\n      0x20\n      add\n      swap1\n      tag_360\n      swap3\n      swap2\n      swap1\n      tag_175\n      jump\t// in\n    tag_360:\n      pop\n      0x40\n      dup3\n      add\n      mload\n      dup2\n      0x02\n      add\n      swap1\n      dup1\n      mload\n      swap1\n      0x20\n      add\n      swap1\n      tag_361\n      swap3\n      swap2\n      swap1\n      tag_175\n      jump\t// in\n    tag_361:\n      pop\n      0x60\n      dup3\n      add\n      mload\n      dup2\n      0x03\n      add\n      sstore\n      0x80\n      dup3\n      add\n      mload\n      dup2\n      0x04\n      add\n      exp(0x0100, 0x00)\n      dup2\n      sload\n      dup2\n      0xff\n      mul\n      not\n      and\n      swap1\n      dup4\n      iszero\n      iszero\n      mul\n      or\n      swap1\n      sstore\n      pop\n      pop\n      pop\n        /* \"EHealth.sol\":7417:7479  NewSensor(nextIdSensor,_mac, _patientName, _idDoctor, _active) */\n      0x2d1264c978dbc04e67902bdd99ef64c71b576782adc2464152646b00c3464aa7\n        /* \"EHealth.sol\":7427:7439  nextIdSensor */\n      sload(0x01)\n        /* \"EHealth.sol\":7440:7444  _mac */\n      dup6\n        /* \"EHealth.sol\":7446:7458  _patientName */\n      dup6\n        /* \"EHealth.sol\":7460:7469  _idDoctor */\n      dup6\n        /* \"EHealth.sol\":7471:7478  _active */\n      dup6\n        /* \"EHealth.sol\":7417:7479  NewSensor(nextIdSensor,_mac, _patientName, _idDoctor, _active) */\n      mload(0x40)\n      tag_362\n      swap6\n      swap5\n      swap4\n      swap3\n      swap2\n      swap1\n      tag_83\n      jump\t// in\n    tag_362:\n      mload(0x40)\n      dup1\n      swap2\n      sub\n      swap1\n      log1\n        /* \"EHealth.sol\":7490:7502  nextIdSensor */\n      0x01\n      0x00\n        /* \"EHealth.sol\":7490:7504  nextIdSensor++ */\n      dup2\n      sload\n      dup1\n      swap3\n      swap2\n      swap1\n      0x01\n      add\n      swap2\n      swap1\n      pop\n      sstore\n      pop\n        /* \"EHealth.sol\":7175:7512  function AddSensor(string memory _mac, string memory _patientName, uint _idDoctor, bool _active) public {\r... */\n      pop\n      pop\n      pop\n      pop\n      jump\t// out\n        /* \"EHealth.sol\":9056:9157  function Length_sensors() public view returns (uint256){\r... */\n    tag_110:\n        /* \"EHealth.sol\":9103:9110  uint256 */\n      0x00\n        /* \"EHealth.sol\":9129:9142  sensorsDoctor */\n      0x08\n        /* \"EHealth.sol\":9129:9149  sensorsDoctor.length */\n      dup1\n      sload\n      swap1\n      pop\n        /* \"EHealth.sol\":9122:9149  return sensorsDoctor.length */\n      swap1\n      pop\n        /* \"EHealth.sol\":9056:9157  function Length_sensors() public view returns (uint256){\r... */\n      swap1\n      jump\t// out\n        /* \"EHealth.sol\":8236:8710  function UpdateSensor(uint _id, string memory _mac, string memory _patientName,uint _idDoctor ) public {\r... */\n    tag_115:\n        /* \"EHealth.sol\":8350:8360  uint index */\n      0x00\n        /* \"EHealth.sol\":8363:8378  FindSensor(_id) */\n      tag_365\n        /* \"EHealth.sol\":8374:8377  _id */\n      dup6\n        /* \"EHealth.sol\":8363:8373  FindSensor */\n      tag_142\n        /* \"EHealth.sol\":8363:8378  FindSensor(_id) */\n      jump\t// in\n    tag_365:\n        /* \"EHealth.sol\":8350:8378  uint index = FindSensor(_id) */\n      swap1\n      pop\n        /* \"EHealth.sol\":8414:8418  _mac */\n      dup4\n        /* \"EHealth.sol\":8389:8402  sensorsDoctor */\n      0x08\n        /* \"EHealth.sol\":8403:8408  index */\n      dup3\n        /* \"EHealth.sol\":8389:8409  sensorsDoctor[index] */\n      dup2\n      sload\n      dup2\n      lt\n      tag_366\n      jumpi\n      invalid\n    tag_366:\n      swap1\n      0x00\n      mstore\n      keccak256(0x00, 0x20)\n      swap1\n      0x05\n      mul\n      add\n        /* \"EHealth.sol\":8389:8413  sensorsDoctor[index].MAC */\n      0x01\n      add\n        /* \"EHealth.sol\":8389:8418  sensorsDoctor[index].MAC=_mac */\n      swap1\n      dup1\n      mload\n      swap1\n      0x20\n      add\n      swap1\n      tag_368\n      swap3\n      swap2\n      swap1\n      tag_175\n      jump\t// in\n    tag_368:\n      pop\n        /* \"EHealth.sol\":8462:8474  _patientName */\n      dup3\n        /* \"EHealth.sol\":8429:8442  sensorsDoctor */\n      0x08\n        /* \"EHealth.sol\":8443:8448  index */\n      dup3\n        /* \"EHealth.sol\":8429:8449  sensorsDoctor[index] */\n      dup2\n      sload\n      dup2\n      lt\n      tag_369\n      jumpi\n      invalid\n    tag_369:\n      swap1\n      0x00\n      mstore\n      keccak256(0x00, 0x20)\n      swap1\n      0x05\n      mul\n      add\n        /* \"EHealth.sol\":8429:8461  sensorsDoctor[index].patientName */\n      0x02\n      add\n        /* \"EHealth.sol\":8429:8474  sensorsDoctor[index].patientName=_patientName */\n      swap1\n      dup1\n      mload\n      swap1\n      0x20\n      add\n      swap1\n      tag_371\n      swap3\n      swap2\n      swap1\n      tag_175\n      jump\t// in\n    tag_371:\n      pop\n        /* \"EHealth.sol\":8515:8524  _idDoctor */\n      dup2\n        /* \"EHealth.sol\":8485:8498  sensorsDoctor */\n      0x08\n        /* \"EHealth.sol\":8499:8504  index */\n      dup3\n        /* \"EHealth.sol\":8485:8505  sensorsDoctor[index] */\n      dup2\n      sload\n      dup2\n      lt\n      tag_372\n      jumpi\n      invalid\n    tag_372:\n      swap1\n      0x00\n      mstore\n      keccak256(0x00, 0x20)\n      swap1\n      0x05\n      mul\n      add\n        /* \"EHealth.sol\":8485:8514  sensorsDoctor[index].idDoctor */\n      0x03\n      add\n        /* \"EHealth.sol\":8485:8524  sensorsDoctor[index].idDoctor=_idDoctor */\n      dup2\n      swap1\n      sstore\n      pop\n        /* \"EHealth.sol\":8540:8702  RefreshSensor(sensorsDoctor[index].idSensor,\r... */\n      0x3cdcbdac29c9d2da1e6acf97d069514bf4a172946cf98e2eddaeeec70dcb8ce7\n        /* \"EHealth.sol\":8554:8567  sensorsDoctor */\n      0x08\n        /* \"EHealth.sol\":8568:8573  index */\n      dup3\n        /* \"EHealth.sol\":8554:8574  sensorsDoctor[index] */\n      dup2\n      sload\n      dup2\n      lt\n      tag_374\n      jumpi\n      invalid\n    tag_374:\n      swap1\n      0x00\n      mstore\n      keccak256(0x00, 0x20)\n      swap1\n      0x05\n      mul\n      add\n        /* \"EHealth.sol\":8554:8583  sensorsDoctor[index].idSensor */\n      0x00\n      add\n      sload\n        /* \"EHealth.sol\":8594:8607  sensorsDoctor */\n      0x08\n        /* \"EHealth.sol\":8608:8613  index */\n      dup4\n        /* \"EHealth.sol\":8594:8614  sensorsDoctor[index] */\n      dup2\n      sload\n      dup2\n      lt\n      tag_376\n      jumpi\n      invalid\n    tag_376:\n      swap1\n      0x00\n      mstore\n      keccak256(0x00, 0x20)\n      swap1\n      0x05\n      mul\n      add\n        /* \"EHealth.sol\":8594:8618  sensorsDoctor[index].MAC */\n      0x01\n      add\n        /* \"EHealth.sol\":8629:8642  sensorsDoctor */\n      0x08\n        /* \"EHealth.sol\":8643:8648  index */\n      dup5\n        /* \"EHealth.sol\":8629:8649  sensorsDoctor[index] */\n      dup2\n      sload\n      dup2\n      lt\n      tag_378\n      jumpi\n      invalid\n    tag_378:\n      swap1\n      0x00\n      mstore\n      keccak256(0x00, 0x20)\n      swap1\n      0x05\n      mul\n      add\n        /* \"EHealth.sol\":8629:8661  sensorsDoctor[index].patientName */\n      0x02\n      add\n        /* \"EHealth.sol\":8672:8685  sensorsDoctor */\n      0x08\n        /* \"EHealth.sol\":8686:8691  index */\n      dup6\n        /* \"EHealth.sol\":8672:8692  sensorsDoctor[index] */\n      dup2\n      sload\n      dup2\n      lt\n      tag_380\n      jumpi\n      invalid\n    tag_380:\n      swap1\n      0x00\n      mstore\n      keccak256(0x00, 0x20)\n      swap1\n      0x05\n      mul\n      add\n        /* \"EHealth.sol\":8672:8701  sensorsDoctor[index].idDoctor */\n      0x03\n      add\n      sload\n        /* \"EHealth.sol\":8540:8702  RefreshSensor(sensorsDoctor[index].idSensor,\r... */\n      mload(0x40)\n      tag_382\n      swap5\n      swap4\n      swap3\n      swap2\n      swap1\n      tag_383\n      jump\t// in\n    tag_382:\n      mload(0x40)\n      dup1\n      swap2\n      sub\n      swap1\n      log1\n        /* \"EHealth.sol\":8236:8710  function UpdateSensor(uint _id, string memory _mac, string memory _patientName,uint _idDoctor ) public {\r... */\n      pop\n      pop\n      pop\n      pop\n      pop\n      jump\t// out\n        /* \"EHealth.sol\":6661:7035  function getAllDoctorsInHospital(address _address) public view returns (Doctor[] memory){\r... */\n    tag_118:\n        /* \"EHealth.sol\":6733:6748  Doctor[] memory */\n      0x60\n        /* \"EHealth.sol\":6760:6779  Doctor[] memory ret */\n      0x00\n        /* \"EHealth.sol\":6795:6810  doctorsHospital */\n      0x06\n        /* \"EHealth.sol\":6795:6817  doctorsHospital.length */\n      dup1\n      sload\n      swap1\n      pop\n        /* \"EHealth.sol\":6782:6818  new Doctor[](doctorsHospital.length) */\n      0xffffffffffffffff\n      dup2\n      gt\n      dup1\n      iszero\n      tag_385\n      jumpi\n      0x00\n      dup1\n      revert\n    tag_385:\n      pop\n      mload(0x40)\n      swap1\n      dup1\n      dup3\n      mstore\n      dup1\n      0x20\n      mul\n      0x20\n      add\n      dup3\n      add\n      0x40\n      mstore\n      dup1\n      iszero\n      tag_386\n      jumpi\n      dup2\n      0x20\n      add\n    tag_387:\n      tag_388\n      tag_389\n      jump\t// in\n    tag_388:\n      dup2\n      mstore\n      0x20\n      add\n      swap1\n      0x01\n      swap1\n      sub\n      swap1\n      dup2\n      tag_387\n      jumpi\n      swap1\n      pop\n    tag_386:\n      pop\n        /* \"EHealth.sol\":6760:6818  Doctor[] memory ret = new Doctor[](doctorsHospital.length) */\n      swap1\n      pop\n        /* \"EHealth.sol\":6834:6840  uint i */\n      0x00\n        /* \"EHealth.sol\":6829:7007  for (uint i = 0; i< doctorsHospital.length; i++) {\r... */\n    tag_390:\n        /* \"EHealth.sol\":6849:6864  doctorsHospital */\n      0x06\n        /* \"EHealth.sol\":6849:6871  doctorsHospital.length */\n      dup1\n      sload\n      swap1\n      pop\n        /* \"EHealth.sol\":6846:6847  i */\n      dup2\n        /* \"EHealth.sol\":6846:6871  i< doctorsHospital.length */\n      lt\n        /* \"EHealth.sol\":6829:7007  for (uint i = 0; i< doctorsHospital.length; i++) {\r... */\n      iszero\n      tag_391\n      jumpi\n        /* \"EHealth.sol\":6908:6923  doctorsHospital */\n      0x06\n        /* \"EHealth.sol\":6924:6925  i */\n      dup2\n        /* \"EHealth.sol\":6908:6926  doctorsHospital[i] */\n      dup2\n      sload\n      dup2\n      lt\n      tag_393\n      jumpi\n      invalid\n    tag_393:\n      swap1\n      0x00\n      mstore\n      keccak256(0x00, 0x20)\n      swap1\n      0x03\n      mul\n      add\n        /* \"EHealth.sol\":6908:6935  doctorsHospital[i].hospital */\n      0x02\n      add\n      0x00\n      swap1\n      sload\n      swap1\n      0x0100\n      exp\n      swap1\n      div\n      0xffffffffffffffffffffffffffffffffffffffff\n      and\n        /* \"EHealth.sol\":6896:6935  _address == doctorsHospital[i].hospital */\n      0xffffffffffffffffffffffffffffffffffffffff\n      and\n        /* \"EHealth.sol\":6896:6904  _address */\n      dup5\n        /* \"EHealth.sol\":6896:6935  _address == doctorsHospital[i].hospital */\n      0xffffffffffffffffffffffffffffffffffffffff\n      and\n      eq\n        /* \"EHealth.sol\":6893:6996  if(_address == doctorsHospital[i].hospital){\r... */\n      iszero\n      tag_395\n      jumpi\n        /* \"EHealth.sol\":6962:6977  doctorsHospital */\n      0x06\n        /* \"EHealth.sol\":6978:6979  i */\n      dup2\n        /* \"EHealth.sol\":6962:6980  doctorsHospital[i] */\n      dup2\n      sload\n      dup2\n      lt\n      tag_396\n      jumpi\n      invalid\n    tag_396:\n      swap1\n      0x00\n      mstore\n      keccak256(0x00, 0x20)\n      swap1\n      0x03\n      mul\n      add\n        /* \"EHealth.sol\":6955:6980  ret[i]=doctorsHospital[i] */\n      mload(0x40)\n      dup1\n      0x80\n      add\n      0x40\n      mstore\n      swap1\n      dup2\n      0x00\n      dup3\n      add\n      sload\n      dup2\n      mstore\n      0x20\n      add\n      0x01\n      dup3\n      add\n      dup1\n      sload\n      0x01\n      dup2\n      0x01\n      and\n      iszero\n      0x0100\n      mul\n      sub\n      and\n      0x02\n      swap1\n      div\n      dup1\n      0x1f\n      add\n      0x20\n      dup1\n      swap2\n      div\n      mul\n      0x20\n      add\n      mload(0x40)\n      swap1\n      dup2\n      add\n      0x40\n      mstore\n      dup1\n      swap3\n      swap2\n      swap1\n      dup2\n      dup2\n      mstore\n      0x20\n      add\n      dup3\n      dup1\n      sload\n      0x01\n      dup2\n      0x01\n      and\n      iszero\n      0x0100\n      mul\n      sub\n      and\n      0x02\n      swap1\n      div\n      dup1\n      iszero\n      tag_398\n      jumpi\n      dup1\n      0x1f\n      lt\n      tag_399\n      jumpi\n      0x0100\n      dup1\n      dup4\n      sload\n      div\n      mul\n      dup4\n      mstore\n      swap2\n      0x20\n      add\n      swap2\n      jump(tag_398)\n    tag_399:\n      dup3\n      add\n      swap2\n      swap1\n      0x00\n      mstore\n      keccak256(0x00, 0x20)\n      swap1\n    tag_400:\n      dup2\n      sload\n      dup2\n      mstore\n      swap1\n      0x01\n      add\n      swap1\n      0x20\n      add\n      dup1\n      dup4\n      gt\n      tag_400\n      jumpi\n      dup3\n      swap1\n      sub\n      0x1f\n      and\n      dup3\n      add\n      swap2\n    tag_398:\n      pop\n      pop\n      pop\n      pop\n      pop\n      dup2\n      mstore\n      0x20\n      add\n      0x02\n      dup3\n      add\n      0x00\n      swap1\n      sload\n      swap1\n      0x0100\n      exp\n      swap1\n      div\n      0xffffffffffffffffffffffffffffffffffffffff\n      and\n      0xffffffffffffffffffffffffffffffffffffffff\n      and\n      0xffffffffffffffffffffffffffffffffffffffff\n      and\n      dup2\n      mstore\n      0x20\n      add\n      0x02\n      dup3\n      add\n      0x14\n      swap1\n      sload\n      swap1\n      0x0100\n      exp\n      swap1\n      div\n      0xff\n      and\n      iszero\n      iszero\n      iszero\n      iszero\n      dup2\n      mstore\n      pop\n      pop\n        /* \"EHealth.sol\":6955:6958  ret */\n      dup3\n        /* \"EHealth.sol\":6959:6960  i */\n      dup3\n        /* \"EHealth.sol\":6955:6961  ret[i] */\n      dup2\n      mload\n      dup2\n      lt\n      tag_401\n      jumpi\n      invalid\n    tag_401:\n      0x20\n      mul\n      0x20\n      add\n      add\n        /* \"EHealth.sol\":6955:6980  ret[i]=doctorsHospital[i] */\n      dup2\n      swap1\n      mstore\n      pop\n        /* \"EHealth.sol\":6893:6996  if(_address == doctorsHospital[i].hospital){\r... */\n    tag_395:\n        /* \"EHealth.sol\":6873:6876  i++ */\n      dup1\n      dup1\n      0x01\n      add\n      swap2\n      pop\n      pop\n        /* \"EHealth.sol\":6829:7007  for (uint i = 0; i< doctorsHospital.length; i++) {\r... */\n      jump(tag_390)\n    tag_391:\n      pop\n        /* \"EHealth.sol\":7024:7027  ret */\n      dup1\n        /* \"EHealth.sol\":7017:7027  return ret */\n      swap2\n      pop\n      pop\n        /* \"EHealth.sol\":6661:7035  function getAllDoctorsInHospital(address _address) public view returns (Doctor[] memory){\r... */\n      swap2\n      swap1\n      pop\n      jump\t// out\n        /* \"EHealth.sol\":5497:5896  function UpdateDoctor(uint _id, string memory _nameDoctor, address _hospital ) public {\r... */\n    tag_124:\n        /* \"EHealth.sol\":5594:5604  uint index */\n      0x00\n        /* \"EHealth.sol\":5607:5622  FindDoctor(_id) */\n      tag_403\n        /* \"EHealth.sol\":5618:5621  _id */\n      dup5\n        /* \"EHealth.sol\":5607:5617  FindDoctor */\n      tag_159\n        /* \"EHealth.sol\":5607:5622  FindDoctor(_id) */\n      jump\t// in\n    tag_403:\n        /* \"EHealth.sol\":5594:5622  uint index = FindDoctor(_id) */\n      swap1\n      pop\n        /* \"EHealth.sol\":5667:5678  _nameDoctor */\n      dup3\n        /* \"EHealth.sol\":5633:5648  doctorsHospital */\n      0x06\n        /* \"EHealth.sol\":5649:5654  index */\n      dup3\n        /* \"EHealth.sol\":5633:5655  doctorsHospital[index] */\n      dup2\n      sload\n      dup2\n      lt\n      tag_404\n      jumpi\n      invalid\n    tag_404:\n      swap1\n      0x00\n      mstore\n      keccak256(0x00, 0x20)\n      swap1\n      0x03\n      mul\n      add\n        /* \"EHealth.sol\":5633:5666  doctorsHospital[index].nameDoctor */\n      0x01\n      add\n        /* \"EHealth.sol\":5633:5678  doctorsHospital[index].nameDoctor=_nameDoctor */\n      swap1\n      dup1\n      mload\n      swap1\n      0x20\n      add\n      swap1\n      tag_406\n      swap3\n      swap2\n      swap1\n      tag_175\n      jump\t// in\n    tag_406:\n      pop\n        /* \"EHealth.sol\":5721:5730  _hospital */\n      dup2\n        /* \"EHealth.sol\":5689:5704  doctorsHospital */\n      0x06\n        /* \"EHealth.sol\":5705:5710  index */\n      dup3\n        /* \"EHealth.sol\":5689:5711  doctorsHospital[index] */\n      dup2\n      sload\n      dup2\n      lt\n      tag_407\n      jumpi\n      invalid\n    tag_407:\n      swap1\n      0x00\n      mstore\n      keccak256(0x00, 0x20)\n      swap1\n      0x03\n      mul\n      add\n        /* \"EHealth.sol\":5689:5720  doctorsHospital[index].hospital */\n      0x02\n      add\n      0x00\n        /* \"EHealth.sol\":5689:5730  doctorsHospital[index].hospital=_hospital */\n      0x0100\n      exp\n      dup2\n      sload\n      dup2\n      0xffffffffffffffffffffffffffffffffffffffff\n      mul\n      not\n      and\n      swap1\n      dup4\n      0xffffffffffffffffffffffffffffffffffffffff\n      and\n      mul\n      or\n      swap1\n      sstore\n      pop\n        /* \"EHealth.sol\":5746:5888  RefreshDoctor(doctorsHospital[index].idDoctor,\r... */\n      0x68a08c702a4f949d49f5e0d32562c70f97751a2846006d05beccc6c9bf8b564e\n        /* \"EHealth.sol\":5760:5775  doctorsHospital */\n      0x06\n        /* \"EHealth.sol\":5776:5781  index */\n      dup3\n        /* \"EHealth.sol\":5760:5782  doctorsHospital[index] */\n      dup2\n      sload\n      dup2\n      lt\n      tag_409\n      jumpi\n      invalid\n    tag_409:\n      swap1\n      0x00\n      mstore\n      keccak256(0x00, 0x20)\n      swap1\n      0x03\n      mul\n      add\n        /* \"EHealth.sol\":5760:5791  doctorsHospital[index].idDoctor */\n      0x00\n      add\n      sload\n        /* \"EHealth.sol\":5802:5817  doctorsHospital */\n      0x06\n        /* \"EHealth.sol\":5818:5823  index */\n      dup4\n        /* \"EHealth.sol\":5802:5824  doctorsHospital[index] */\n      dup2\n      sload\n      dup2\n      lt\n      tag_411\n      jumpi\n      invalid\n    tag_411:\n      swap1\n      0x00\n      mstore\n      keccak256(0x00, 0x20)\n      swap1\n      0x03\n      mul\n      add\n        /* \"EHealth.sol\":5802:5835  doctorsHospital[index].nameDoctor */\n      0x01\n      add\n        /* \"EHealth.sol\":5846:5861  doctorsHospital */\n      0x06\n        /* \"EHealth.sol\":5862:5867  index */\n      dup5\n        /* \"EHealth.sol\":5846:5868  doctorsHospital[index] */\n      dup2\n      sload\n      dup2\n      lt\n      tag_413\n      jumpi\n      invalid\n    tag_413:\n      swap1\n      0x00\n      mstore\n      keccak256(0x00, 0x20)\n      swap1\n      0x03\n      mul\n      add\n        /* \"EHealth.sol\":5846:5877  doctorsHospital[index].hospital */\n      0x02\n      add\n      0x00\n      swap1\n      sload\n      swap1\n      0x0100\n      exp\n      swap1\n      div\n      0xffffffffffffffffffffffffffffffffffffffff\n      and\n        /* \"EHealth.sol\":5746:5888  RefreshDoctor(doctorsHospital[index].idDoctor,\r... */\n      mload(0x40)\n      tag_415\n      swap4\n      swap3\n      swap2\n      swap1\n      tag_416\n      jump\t// in\n    tag_415:\n      mload(0x40)\n      dup1\n      swap2\n      sub\n      swap1\n      log1\n        /* \"EHealth.sol\":5497:5896  function UpdateDoctor(uint _id, string memory _nameDoctor, address _hospital ) public {\r... */\n      pop\n      pop\n      pop\n      pop\n      jump\t// out\n        /* \"EHealth.sol\":536:569  Hospital[] public hospitalCenters */\n    tag_127:\n      0x04\n      dup2\n      dup2\n      sload\n      dup2\n      lt\n      tag_417\n      jumpi\n      0x00\n      dup1\n      revert\n    tag_417:\n      swap1\n      0x00\n      mstore\n      keccak256(0x00, 0x20)\n      swap1\n      0x06\n      mul\n      add\n      0x00\n      swap2\n      pop\n      swap1\n      pop\n      dup1\n      0x00\n      add\n      0x00\n      swap1\n      sload\n      swap1\n      0x0100\n      exp\n      swap1\n      div\n      0xffffffffffffffffffffffffffffffffffffffff\n      and\n      swap1\n      dup1\n      0x01\n      add\n      dup1\n      sload\n      0x01\n      dup2\n      0x01\n      and\n      iszero\n      0x0100\n      mul\n      sub\n      and\n      0x02\n      swap1\n      div\n      dup1\n      0x1f\n      add\n      0x20\n      dup1\n      swap2\n      div\n      mul\n      0x20\n      add\n      mload(0x40)\n      swap1\n      dup2\n      add\n      0x40\n      mstore\n      dup1\n      swap3\n      swap2\n      swap1\n      dup2\n      dup2\n      mstore\n      0x20\n      add\n      dup3\n      dup1\n      sload\n      0x01\n      dup2\n      0x01\n      and\n      iszero\n      0x0100\n      mul\n      sub\n      and\n      0x02\n      swap1\n      div\n      dup1\n      iszero\n      tag_419\n      jumpi\n      dup1\n      0x1f\n      lt\n      tag_420\n      jumpi\n      0x0100\n      dup1\n      dup4\n      sload\n      div\n      mul\n      dup4\n      mstore\n      swap2\n      0x20\n      add\n      swap2\n      jump(tag_419)\n    tag_420:\n      dup3\n      add\n      swap2\n      swap1\n      0x00\n      mstore\n      keccak256(0x00, 0x20)\n      swap1\n    tag_421:\n      dup2\n      sload\n      dup2\n      mstore\n      swap1\n      0x01\n      add\n      swap1\n      0x20\n      add\n      dup1\n      dup4\n      gt\n      tag_421\n      jumpi\n      dup3\n      swap1\n      sub\n      0x1f\n      and\n      dup3\n      add\n      swap2\n    tag_419:\n      pop\n      pop\n      pop\n      pop\n      pop\n      swap1\n      dup1\n      0x02\n      add\n      dup1\n      sload\n      0x01\n      dup2\n      0x01\n      and\n      iszero\n      0x0100\n      mul\n      sub\n      and\n      0x02\n      swap1\n      div\n      dup1\n      0x1f\n      add\n      0x20\n      dup1\n      swap2\n      div\n      mul\n      0x20\n      add\n      mload(0x40)\n      swap1\n      dup2\n      add\n      0x40\n      mstore\n      dup1\n      swap3\n      swap2\n      swap1\n      dup2\n      dup2\n      mstore\n      0x20\n      add\n      dup3\n      dup1\n      sload\n      0x01\n      dup2\n      0x01\n      and\n      iszero\n      0x0100\n      mul\n      sub\n      and\n      0x02\n      swap1\n      div\n      dup1\n      iszero\n      tag_422\n      jumpi\n      dup1\n      0x1f\n      lt\n      tag_423\n      jumpi\n      0x0100\n      dup1\n      dup4\n      sload\n      div\n      mul\n      dup4\n      mstore\n      swap2\n      0x20\n      add\n      swap2\n      jump(tag_422)\n    tag_423:\n      dup3\n      add\n      swap2\n      swap1\n      0x00\n      mstore\n      keccak256(0x00, 0x20)\n      swap1\n    tag_424:\n      dup2\n      sload\n      dup2\n      mstore\n      swap1\n      0x01\n      add\n      swap1\n      0x20\n      add\n      dup1\n      dup4\n      gt\n      tag_424\n      jumpi\n      dup3\n      swap1\n      sub\n      0x1f\n      and\n      dup3\n      add\n      swap2\n    tag_422:\n      pop\n      pop\n      pop\n      pop\n      pop\n      swap1\n      dup1\n      0x03\n      add\n      dup1\n      sload\n      0x01\n      dup2\n      0x01\n      and\n      iszero\n      0x0100\n      mul\n      sub\n      and\n      0x02\n      swap1\n      div\n      dup1\n      0x1f\n      add\n      0x20\n      dup1\n      swap2\n      div\n      mul\n      0x20\n      add\n      mload(0x40)\n      swap1\n      dup2\n      add\n      0x40\n      mstore\n      dup1\n      swap3\n      swap2\n      swap1\n      dup2\n      dup2\n      mstore\n      0x20\n      add\n      dup3\n      dup1\n      sload\n      0x01\n      dup2\n      0x01\n      and\n      iszero\n      0x0100\n      mul\n      sub\n      and\n      0x02\n      swap1\n      div\n      dup1\n      iszero\n      tag_425\n      jumpi\n      dup1\n      0x1f\n      lt\n      tag_426\n      jumpi\n      0x0100\n      dup1\n      dup4\n      sload\n      div\n      mul\n      dup4\n      mstore\n      swap2\n      0x20\n      add\n      swap2\n      jump(tag_425)\n    tag_426:\n      dup3\n      add\n      swap2\n      swap1\n      0x00\n      mstore\n      keccak256(0x00, 0x20)\n      swap1\n    tag_427:\n      dup2\n      sload\n      dup2\n      mstore\n      swap1\n      0x01\n      add\n      swap1\n      0x20\n      add\n      dup1\n      dup4\n      gt\n      tag_427\n      jumpi\n      dup3\n      swap1\n      sub\n      0x1f\n      and\n      dup3\n      add\n      swap2\n    tag_425:\n      pop\n      pop\n      pop\n      pop\n      pop\n      swap1\n      dup1\n      0x04\n      add\n      sload\n      swap1\n      dup1\n      0x05\n      add\n      0x00\n      swap1\n      sload\n      swap1\n      0x0100\n      exp\n      swap1\n      div\n      0xff\n      and\n      swap1\n      pop\n      dup7\n      jump\t// out\n        /* \"EHealth.sol\":598:638  mapping(address=> Doctor) public Doctors */\n    tag_131:\n      mstore(0x20, 0x05)\n      dup1\n      0x00\n      mstore\n      keccak256(0x00, 0x40)\n      0x00\n      swap2\n      pop\n      swap1\n      pop\n      dup1\n      0x00\n      add\n      sload\n      swap1\n      dup1\n      0x01\n      add\n      dup1\n      sload\n      0x01\n      dup2\n      0x01\n      and\n      iszero\n      0x0100\n      mul\n      sub\n      and\n      0x02\n      swap1\n      div\n      dup1\n      0x1f\n      add\n      0x20\n      dup1\n      swap2\n      div\n      mul\n      0x20\n      add\n      mload(0x40)\n      swap1\n      dup2\n      add\n      0x40\n      mstore\n      dup1\n      swap3\n      swap2\n      swap1\n      dup2\n      dup2\n      mstore\n      0x20\n      add\n      dup3\n      dup1\n      sload\n      0x01\n      dup2\n      0x01\n      and\n      iszero\n      0x0100\n      mul\n      sub\n      and\n      0x02\n      swap1\n      div\n      dup1\n      iszero\n      tag_428\n      jumpi\n      dup1\n      0x1f\n      lt\n      tag_429\n      jumpi\n      0x0100\n      dup1\n      dup4\n      sload\n      div\n      mul\n      dup4\n      mstore\n      swap2\n      0x20\n      add\n      swap2\n      jump(tag_428)\n    tag_429:\n      dup3\n      add\n      swap2\n      swap1\n      0x00\n      mstore\n      keccak256(0x00, 0x20)\n      swap1\n    tag_430:\n      dup2\n      sload\n      dup2\n      mstore\n      swap1\n      0x01\n      add\n      swap1\n      0x20\n      add\n      dup1\n      dup4\n      gt\n      tag_430\n      jumpi\n      dup3\n      swap1\n      sub\n      0x1f\n      and\n      dup3\n      add\n      swap2\n    tag_428:\n      pop\n      pop\n      pop\n      pop\n      pop\n      swap1\n      dup1\n      0x02\n      add\n      0x00\n      swap1\n      sload\n      swap1\n      0x0100\n      exp\n      swap1\n      div\n      0xffffffffffffffffffffffffffffffffffffffff\n      and\n      swap1\n      dup1\n      0x02\n      add\n      0x14\n      swap1\n      sload\n      swap1\n      0x0100\n      exp\n      swap1\n      div\n      0xff\n      and\n      swap1\n      pop\n      dup5\n      jump\t// out\n        /* \"EHealth.sol\":1089:1118  Sensor[] public sensorsDoctor */\n    tag_135:\n      0x08\n      dup2\n      dup2\n      sload\n      dup2\n      lt\n      tag_431\n      jumpi\n      0x00\n      dup1\n      revert\n    tag_431:\n      swap1\n      0x00\n      mstore\n      keccak256(0x00, 0x20)\n      swap1\n      0x05\n      mul\n      add\n      0x00\n      swap2\n      pop\n      swap1\n      pop\n      dup1\n      0x00\n      add\n      sload\n      swap1\n      dup1\n      0x01\n      add\n      dup1\n      sload\n      0x01\n      dup2\n      0x01\n      and\n      iszero\n      0x0100\n      mul\n      sub\n      and\n      0x02\n      swap1\n      div\n      dup1\n      0x1f\n      add\n      0x20\n      dup1\n      swap2\n      div\n      mul\n      0x20\n      add\n      mload(0x40)\n      swap1\n      dup2\n      add\n      0x40\n      mstore\n      dup1\n      swap3\n      swap2\n      swap1\n      dup2\n      dup2\n      mstore\n      0x20\n      add\n      dup3\n      dup1\n      sload\n      0x01\n      dup2\n      0x01\n      and\n      iszero\n      0x0100\n      mul\n      sub\n      and\n      0x02\n      swap1\n      div\n      dup1\n      iszero\n      tag_433\n      jumpi\n      dup1\n      0x1f\n      lt\n      tag_434\n      jumpi\n      0x0100\n      dup1\n      dup4\n      sload\n      div\n      mul\n      dup4\n      mstore\n      swap2\n      0x20\n      add\n      swap2\n      jump(tag_433)\n    tag_434:\n      dup3\n      add\n      swap2\n      swap1\n      0x00\n      mstore\n      keccak256(0x00, 0x20)\n      swap1\n    tag_435:\n      dup2\n      sload\n      dup2\n      mstore\n      swap1\n      0x01\n      add\n      swap1\n      0x20\n      add\n      dup1\n      dup4\n      gt\n      tag_435\n      jumpi\n      dup3\n      swap1\n      sub\n      0x1f\n      and\n      dup3\n      add\n      swap2\n    tag_433:\n      pop\n      pop\n      pop\n      pop\n      pop\n      swap1\n      dup1\n      0x02\n      add\n      dup1\n      sload\n      0x01\n      dup2\n      0x01\n      and\n      iszero\n      0x0100\n      mul\n      sub\n      and\n      0x02\n      swap1\n      div\n      dup1\n      0x1f\n      add\n      0x20\n      dup1\n      swap2\n      div\n      mul\n      0x20\n      add\n      mload(0x40)\n      swap1\n      dup2\n      add\n      0x40\n      mstore\n      dup1\n      swap3\n      swap2\n      swap1\n      dup2\n      dup2\n      mstore\n      0x20\n      add\n      dup3\n      dup1\n      sload\n      0x01\n      dup2\n      0x01\n      and\n      iszero\n      0x0100\n      mul\n      sub\n      and\n      0x02\n      swap1\n      div\n      dup1\n      iszero\n      tag_436\n      jumpi\n      dup1\n      0x1f\n      lt\n      tag_437\n      jumpi\n      0x0100\n      dup1\n      dup4\n      sload\n      div\n      mul\n      dup4\n      mstore\n      swap2\n      0x20\n      add\n      swap2\n      jump(tag_436)\n    tag_437:\n      dup3\n      add\n      swap2\n      swap1\n      0x00\n      mstore\n      keccak256(0x00, 0x20)\n      swap1\n    tag_438:\n      dup2\n      sload\n      dup2\n      mstore\n      swap1\n      0x01\n      add\n      swap1\n      0x20\n      add\n      dup1\n      dup4\n      gt\n      tag_438\n      jumpi\n      dup3\n      swap1\n      sub\n      0x1f\n      and\n      dup3\n      add\n      swap2\n    tag_436:\n      pop\n      pop\n      pop\n      pop\n      pop\n      swap1\n      dup1\n      0x03\n      add\n      sload\n      swap1\n      dup1\n      0x04\n      add\n      0x00\n      swap1\n      sload\n      swap1\n      0x0100\n      exp\n      swap1\n      div\n      0xff\n      and\n      swap1\n      pop\n      dup6\n      jump\t// out\n        /* \"EHealth.sol\":6346:6617  function getAllDoctors() public view returns (Doctor[] memory){\r... */\n    tag_138:\n        /* \"EHealth.sol\":6392:6407  Doctor[] memory */\n      0x60\n        /* \"EHealth.sol\":6419:6438  Doctor[] memory ret */\n      0x00\n        /* \"EHealth.sol\":6454:6469  doctorsHospital */\n      0x06\n        /* \"EHealth.sol\":6454:6476  doctorsHospital.length */\n      dup1\n      sload\n      swap1\n      pop\n        /* \"EHealth.sol\":6441:6477  new Doctor[](doctorsHospital.length) */\n      0xffffffffffffffff\n      dup2\n      gt\n      dup1\n      iszero\n      tag_440\n      jumpi\n      0x00\n      dup1\n      revert\n    tag_440:\n      pop\n      mload(0x40)\n      swap1\n      dup1\n      dup3\n      mstore\n      dup1\n      0x20\n      mul\n      0x20\n      add\n      dup3\n      add\n      0x40\n      mstore\n      dup1\n      iszero\n      tag_441\n      jumpi\n      dup2\n      0x20\n      add\n    tag_442:\n      tag_443\n      tag_389\n      jump\t// in\n    tag_443:\n      dup2\n      mstore\n      0x20\n      add\n      swap1\n      0x01\n      swap1\n      sub\n      swap1\n      dup2\n      tag_442\n      jumpi\n      swap1\n      pop\n    tag_441:\n      pop\n        /* \"EHealth.sol\":6419:6477  Doctor[] memory ret = new Doctor[](doctorsHospital.length) */\n      swap1\n      pop\n        /* \"EHealth.sol\":6493:6499  uint i */\n      0x00\n        /* \"EHealth.sol\":6488:6589  for (uint i = 0; i< doctorsHospital.length; i++) {\r... */\n    tag_444:\n        /* \"EHealth.sol\":6508:6523  doctorsHospital */\n      0x06\n        /* \"EHealth.sol\":6508:6530  doctorsHospital.length */\n      dup1\n      sload\n      swap1\n      pop\n        /* \"EHealth.sol\":6505:6506  i */\n      dup2\n        /* \"EHealth.sol\":6505:6530  i< doctorsHospital.length */\n      lt\n        /* \"EHealth.sol\":6488:6589  for (uint i = 0; i< doctorsHospital.length; i++) {\r... */\n      iszero\n      tag_445\n      jumpi\n        /* \"EHealth.sol\":6559:6574  doctorsHospital */\n      0x06\n        /* \"EHealth.sol\":6575:6576  i */\n      dup2\n        /* \"EHealth.sol\":6559:6577  doctorsHospital[i] */\n      dup2\n      sload\n      dup2\n      lt\n      tag_447\n      jumpi\n      invalid\n    tag_447:\n      swap1\n      0x00\n      mstore\n      keccak256(0x00, 0x20)\n      swap1\n      0x03\n      mul\n      add\n        /* \"EHealth.sol\":6552:6577  ret[i]=doctorsHospital[i] */\n      mload(0x40)\n      dup1\n      0x80\n      add\n      0x40\n      mstore\n      swap1\n      dup2\n      0x00\n      dup3\n      add\n      sload\n      dup2\n      mstore\n      0x20\n      add\n      0x01\n      dup3\n      add\n      dup1\n      sload\n      0x01\n      dup2\n      0x01\n      and\n      iszero\n      0x0100\n      mul\n      sub\n      and\n      0x02\n      swap1\n      div\n      dup1\n      0x1f\n      add\n      0x20\n      dup1\n      swap2\n      div\n      mul\n      0x20\n      add\n      mload(0x40)\n      swap1\n      dup2\n      add\n      0x40\n      mstore\n      dup1\n      swap3\n      swap2\n      swap1\n      dup2\n      dup2\n      mstore\n      0x20\n      add\n      dup3\n      dup1\n      sload\n      0x01\n      dup2\n      0x01\n      and\n      iszero\n      0x0100\n      mul\n      sub\n      and\n      0x02\n      swap1\n      div\n      dup1\n      iszero\n      tag_449\n      jumpi\n      dup1\n      0x1f\n      lt\n      tag_450\n      jumpi\n      0x0100\n      dup1\n      dup4\n      sload\n      div\n      mul\n      dup4\n      mstore\n      swap2\n      0x20\n      add\n      swap2\n      jump(tag_449)\n    tag_450:\n      dup3\n      add\n      swap2\n      swap1\n      0x00\n      mstore\n      keccak256(0x00, 0x20)\n      swap1\n    tag_451:\n      dup2\n      sload\n      dup2\n      mstore\n      swap1\n      0x01\n      add\n      swap1\n      0x20\n      add\n      dup1\n      dup4\n      gt\n      tag_451\n      jumpi\n      dup3\n      swap1\n      sub\n      0x1f\n      and\n      dup3\n      add\n      swap2\n    tag_449:\n      pop\n      pop\n      pop\n      pop\n      pop\n      dup2\n      mstore\n      0x20\n      add\n      0x02\n      dup3\n      add\n      0x00\n      swap1\n      sload\n      swap1\n      0x0100\n      exp\n      swap1\n      div\n      0xffffffffffffffffffffffffffffffffffffffff\n      and\n      0xffffffffffffffffffffffffffffffffffffffff\n      and\n      0xffffffffffffffffffffffffffffffffffffffff\n      and\n      dup2\n      mstore\n      0x20\n      add\n      0x02\n      dup3\n      add\n      0x14\n      swap1\n      sload\n      swap1\n      0x0100\n      exp\n      swap1\n      div\n      0xff\n      and\n      iszero\n      iszero\n      iszero\n      iszero\n      dup2\n      mstore\n      pop\n      pop\n        /* \"EHealth.sol\":6552:6555  ret */\n      dup3\n        /* \"EHealth.sol\":6556:6557  i */\n      dup3\n        /* \"EHealth.sol\":6552:6558  ret[i] */\n      dup2\n      mload\n      dup2\n      lt\n      tag_452\n      jumpi\n      invalid\n    tag_452:\n      0x20\n      mul\n      0x20\n      add\n      add\n        /* \"EHealth.sol\":6552:6577  ret[i]=doctorsHospital[i] */\n      dup2\n      swap1\n      mstore\n      pop\n        /* \"EHealth.sol\":6532:6535  i++ */\n      dup1\n      dup1\n      0x01\n      add\n      swap2\n      pop\n      pop\n        /* \"EHealth.sol\":6488:6589  for (uint i = 0; i< doctorsHospital.length; i++) {\r... */\n      jump(tag_444)\n    tag_445:\n      pop\n        /* \"EHealth.sol\":6606:6609  ret */\n      dup1\n        /* \"EHealth.sol\":6599:6609  return ret */\n      swap2\n      pop\n      pop\n        /* \"EHealth.sol\":6346:6617  function getAllDoctors() public view returns (Doctor[] memory){\r... */\n      swap1\n      jump\t// out\n        /* \"EHealth.sol\":7542:7817  function FindSensor(uint _idSensor) internal view returns(uint){\r... */\n    tag_142:\n        /* \"EHealth.sol\":7600:7604  uint */\n      0x00\n        /* \"EHealth.sol\":7620:7626  uint i */\n      dup1\n        /* \"EHealth.sol\":7629:7630  0 */\n      0x00\n        /* \"EHealth.sol\":7620:7630  uint i = 0 */\n      swap1\n      pop\n        /* \"EHealth.sol\":7616:7773  for(uint i = 0 ; i < sensorsDoctor.length ; i++){\r... */\n    tag_454:\n        /* \"EHealth.sol\":7637:7650  sensorsDoctor */\n      0x08\n        /* \"EHealth.sol\":7637:7657  sensorsDoctor.length */\n      dup1\n      sload\n      swap1\n      pop\n        /* \"EHealth.sol\":7633:7634  i */\n      dup2\n        /* \"EHealth.sol\":7633:7657  i < sensorsDoctor.length */\n      lt\n        /* \"EHealth.sol\":7616:7773  for(uint i = 0 ; i < sensorsDoctor.length ; i++){\r... */\n      iszero\n      tag_455\n      jumpi\n        /* \"EHealth.sol\":7709:7718  _idSensor */\n      dup3\n        /* \"EHealth.sol\":7682:7695  sensorsDoctor */\n      0x08\n        /* \"EHealth.sol\":7696:7697  i */\n      dup3\n        /* \"EHealth.sol\":7682:7698  sensorsDoctor[i] */\n      dup2\n      sload\n      dup2\n      lt\n      tag_457\n      jumpi\n      invalid\n    tag_457:\n      swap1\n      0x00\n      mstore\n      keccak256(0x00, 0x20)\n      swap1\n      0x05\n      mul\n      add\n        /* \"EHealth.sol\":7682:7707  sensorsDoctor[i].idSensor */\n      0x00\n      add\n      sload\n        /* \"EHealth.sol\":7682:7718  sensorsDoctor[i].idSensor==_idSensor */\n      eq\n        /* \"EHealth.sol\":7679:7762  if(sensorsDoctor[i].idSensor==_idSensor){\r... */\n      iszero\n      tag_459\n      jumpi\n        /* \"EHealth.sol\":7745:7746  i */\n      dup1\n        /* \"EHealth.sol\":7738:7746  return i */\n      swap2\n      pop\n      pop\n      jump(tag_453)\n        /* \"EHealth.sol\":7679:7762  if(sensorsDoctor[i].idSensor==_idSensor){\r... */\n    tag_459:\n        /* \"EHealth.sol\":7660:7663  i++ */\n      dup1\n      dup1\n      0x01\n      add\n      swap2\n      pop\n      pop\n        /* \"EHealth.sol\":7616:7773  for(uint i = 0 ; i < sensorsDoctor.length ; i++){\r... */\n      jump(tag_454)\n    tag_455:\n      pop\n        /* \"EHealth.sol\":7783:7809  revert('Sensor not found') */\n      mload(0x40)\n      0x08c379a000000000000000000000000000000000000000000000000000000000\n      dup2\n      mstore\n      0x04\n      add\n      tag_460\n      swap1\n      tag_461\n      jump\t// in\n    tag_460:\n      mload(0x40)\n      dup1\n      swap2\n      sub\n      swap1\n      revert\n        /* \"EHealth.sol\":7542:7817  function FindSensor(uint _idSensor) internal view returns(uint){\r... */\n    tag_453:\n      swap2\n      swap1\n      pop\n      jump\t// out\n        /* \"EHealth.sol\":4818:5085  function FindDoctor(uint _id) internal view returns(uint){\r... */\n    tag_159:\n        /* \"EHealth.sol\":4870:4874  uint */\n      0x00\n        /* \"EHealth.sol\":4890:4896  uint i */\n      dup1\n        /* \"EHealth.sol\":4899:4900  0 */\n      0x00\n        /* \"EHealth.sol\":4890:4900  uint i = 0 */\n      swap1\n      pop\n        /* \"EHealth.sol\":4886:5041  for(uint i = 0 ; i < doctorsHospital.length ; i++){\r... */\n    tag_463:\n        /* \"EHealth.sol\":4907:4922  doctorsHospital */\n      0x06\n        /* \"EHealth.sol\":4907:4929  doctorsHospital.length */\n      dup1\n      sload\n      swap1\n      pop\n        /* \"EHealth.sol\":4903:4904  i */\n      dup2\n        /* \"EHealth.sol\":4903:4929  i < doctorsHospital.length */\n      lt\n        /* \"EHealth.sol\":4886:5041  for(uint i = 0 ; i < doctorsHospital.length ; i++){\r... */\n      iszero\n      tag_464\n      jumpi\n        /* \"EHealth.sol\":4983:4986  _id */\n      dup3\n        /* \"EHealth.sol\":4954:4969  doctorsHospital */\n      0x06\n        /* \"EHealth.sol\":4970:4971  i */\n      dup3\n        /* \"EHealth.sol\":4954:4972  doctorsHospital[i] */\n      dup2\n      sload\n      dup2\n      lt\n      tag_466\n      jumpi\n      invalid\n    tag_466:\n      swap1\n      0x00\n      mstore\n      keccak256(0x00, 0x20)\n      swap1\n      0x03\n      mul\n      add\n        /* \"EHealth.sol\":4954:4981  doctorsHospital[i].idDoctor */\n      0x00\n      add\n      sload\n        /* \"EHealth.sol\":4954:4986  doctorsHospital[i].idDoctor==_id */\n      eq\n        /* \"EHealth.sol\":4951:5030  if(doctorsHospital[i].idDoctor==_id){\r... */\n      iszero\n      tag_468\n      jumpi\n        /* \"EHealth.sol\":5013:5014  i */\n      dup1\n        /* \"EHealth.sol\":5006:5014  return i */\n      swap2\n      pop\n      pop\n      jump(tag_462)\n        /* \"EHealth.sol\":4951:5030  if(doctorsHospital[i].idDoctor==_id){\r... */\n    tag_468:\n        /* \"EHealth.sol\":4932:4935  i++ */\n      dup1\n      dup1\n      0x01\n      add\n      swap2\n      pop\n      pop\n        /* \"EHealth.sol\":4886:5041  for(uint i = 0 ; i < doctorsHospital.length ; i++){\r... */\n      jump(tag_463)\n    tag_464:\n      pop\n        /* \"EHealth.sol\":5051:5077  revert('Doctor not found') */\n      mload(0x40)\n      0x08c379a000000000000000000000000000000000000000000000000000000000\n      dup2\n      mstore\n      0x04\n      add\n      tag_469\n      swap1\n      tag_470\n      jump\t// in\n    tag_469:\n      mload(0x40)\n      dup1\n      swap2\n      sub\n      swap1\n      revert\n        /* \"EHealth.sol\":4818:5085  function FindDoctor(uint _id) internal view returns(uint){\r... */\n    tag_462:\n      swap2\n      swap1\n      pop\n      jump\t// out\n        /* \"EHealth.sol\":2102:2388  function FindHospital(address _address) internal view returns(uint){\r... */\n    tag_171:\n        /* \"EHealth.sol\":2164:2168  uint */\n      0x00\n        /* \"EHealth.sol\":2184:2190  uint i */\n      dup1\n        /* \"EHealth.sol\":2193:2194  0 */\n      0x00\n        /* \"EHealth.sol\":2184:2194  uint i = 0 */\n      swap1\n      pop\n        /* \"EHealth.sol\":2180:2342  for(uint i = 0 ; i < hospitalCenters.length ; i++){\r... */\n    tag_472:\n        /* \"EHealth.sol\":2201:2216  hospitalCenters */\n      0x04\n        /* \"EHealth.sol\":2201:2223  hospitalCenters.length */\n      dup1\n      sload\n      swap1\n      pop\n        /* \"EHealth.sol\":2197:2198  i */\n      dup2\n        /* \"EHealth.sol\":2197:2223  i < hospitalCenters.length */\n      lt\n        /* \"EHealth.sol\":2180:2342  for(uint i = 0 ; i < hospitalCenters.length ; i++){\r... */\n      iszero\n      tag_473\n      jumpi\n        /* \"EHealth.sol\":2279:2287  _address */\n      dup3\n        /* \"EHealth.sol\":2248:2287  hospitalCenters[i].idHospital==_address */\n      0xffffffffffffffffffffffffffffffffffffffff\n      and\n        /* \"EHealth.sol\":2248:2263  hospitalCenters */\n      0x04\n        /* \"EHealth.sol\":2264:2265  i */\n      dup3\n        /* \"EHealth.sol\":2248:2266  hospitalCenters[i] */\n      dup2\n      sload\n      dup2\n      lt\n      tag_475\n      jumpi\n      invalid\n    tag_475:\n      swap1\n      0x00\n      mstore\n      keccak256(0x00, 0x20)\n      swap1\n      0x06\n      mul\n      add\n        /* \"EHealth.sol\":2248:2277  hospitalCenters[i].idHospital */\n      0x00\n      add\n      0x00\n      swap1\n      sload\n      swap1\n      0x0100\n      exp\n      swap1\n      div\n      0xffffffffffffffffffffffffffffffffffffffff\n      and\n        /* \"EHealth.sol\":2248:2287  hospitalCenters[i].idHospital==_address */\n      0xffffffffffffffffffffffffffffffffffffffff\n      and\n      eq\n        /* \"EHealth.sol\":2245:2331  if(hospitalCenters[i].idHospital==_address){\r... */\n      iszero\n      tag_477\n      jumpi\n        /* \"EHealth.sol\":2314:2315  i */\n      dup1\n        /* \"EHealth.sol\":2307:2315  return i */\n      swap2\n      pop\n      pop\n      jump(tag_471)\n        /* \"EHealth.sol\":2245:2331  if(hospitalCenters[i].idHospital==_address){\r... */\n    tag_477:\n        /* \"EHealth.sol\":2226:2229  i++ */\n      dup1\n      dup1\n      0x01\n      add\n      swap2\n      pop\n      pop\n        /* \"EHealth.sol\":2180:2342  for(uint i = 0 ; i < hospitalCenters.length ; i++){\r... */\n      jump(tag_472)\n    tag_473:\n      pop\n        /* \"EHealth.sol\":2352:2380  revert('Hospital not found') */\n      mload(0x40)\n      0x08c379a000000000000000000000000000000000000000000000000000000000\n      dup2\n      mstore\n      0x04\n      add\n      tag_478\n      swap1\n      tag_479\n      jump\t// in\n    tag_478:\n      mload(0x40)\n      dup1\n      swap2\n      sub\n      swap1\n      revert\n        /* \"EHealth.sol\":2102:2388  function FindHospital(address _address) internal view returns(uint){\r... */\n    tag_471:\n      swap2\n      swap1\n      pop\n      jump\t// out\n    tag_175:\n      dup3\n      dup1\n      sload\n      0x01\n      dup2\n      0x01\n      and\n      iszero\n      0x0100\n      mul\n      sub\n      and\n      0x02\n      swap1\n      div\n      swap1\n      0x00\n      mstore\n      keccak256(0x00, 0x20)\n      swap1\n      0x1f\n      add\n      0x20\n      swap1\n      div\n      dup2\n      add\n      swap3\n      dup3\n      tag_481\n      jumpi\n      0x00\n      dup6\n      sstore\n      jump(tag_480)\n    tag_481:\n      dup3\n      0x1f\n      lt\n      tag_482\n      jumpi\n      dup1\n      mload\n      not(0xff)\n      and\n      dup4\n      dup1\n      add\n      or\n      dup6\n      sstore\n      jump(tag_480)\n    tag_482:\n      dup3\n      dup1\n      add\n      0x01\n      add\n      dup6\n      sstore\n      dup3\n      iszero\n      tag_480\n      jumpi\n      swap2\n      dup3\n      add\n    tag_483:\n      dup3\n      dup2\n      gt\n      iszero\n      tag_484\n      jumpi\n      dup3\n      mload\n      dup3\n      sstore\n      swap2\n      0x20\n      add\n      swap2\n      swap1\n      0x01\n      add\n      swap1\n      jump(tag_483)\n    tag_484:\n    tag_480:\n      pop\n      swap1\n      pop\n      tag_485\n      swap2\n      swap1\n      tag_486\n      jump\t// in\n    tag_485:\n      pop\n      swap1\n      jump\t// out\n    tag_225:\n      mload(0x40)\n      dup1\n      0xc0\n      add\n      0x40\n      mstore\n      dup1\n      and(0xffffffffffffffffffffffffffffffffffffffff, 0x00)\n      dup2\n      mstore\n      0x20\n      add\n      0x60\n      dup2\n      mstore\n      0x20\n      add\n      0x60\n      dup2\n      mstore\n      0x20\n      add\n      0x60\n      dup2\n      mstore\n      0x20\n      add\n      0x00\n      dup2\n      mstore\n      0x20\n      add\n      iszero(iszero(0x00))\n      dup2\n      mstore\n      pop\n      swap1\n      jump\t// out\n    tag_246:\n      mload(0x40)\n      dup1\n      0xa0\n      add\n      0x40\n      mstore\n      dup1\n      0x00\n      dup2\n      mstore\n      0x20\n      add\n      0x60\n      dup2\n      mstore\n      0x20\n      add\n      0x60\n      dup2\n      mstore\n      0x20\n      add\n      0x00\n      dup2\n      mstore\n      0x20\n      add\n      iszero(iszero(0x00))\n      dup2\n      mstore\n      pop\n      swap1\n      jump\t// out\n    tag_389:\n      mload(0x40)\n      dup1\n      0x80\n      add\n      0x40\n      mstore\n      dup1\n      0x00\n      dup2\n      mstore\n      0x20\n      add\n      0x60\n      dup2\n      mstore\n      0x20\n      add\n      and(0xffffffffffffffffffffffffffffffffffffffff, 0x00)\n      dup2\n      mstore\n      0x20\n      add\n      iszero(iszero(0x00))\n      dup2\n      mstore\n      pop\n      swap1\n      jump\t// out\n    tag_486:\n    tag_487:\n      dup1\n      dup3\n      gt\n      iszero\n      tag_488\n      jumpi\n      0x00\n      dup2\n      0x00\n      swap1\n      sstore\n      pop\n      0x01\n      add\n      jump(tag_487)\n    tag_488:\n      pop\n      swap1\n      jump\t// out\n        /* \"#utility.yul\":7:351   */\n    tag_490:\n      0x00\n        /* \"#utility.yul\":110:175   */\n      tag_492\n        /* \"#utility.yul\":125:174   */\n      tag_493\n        /* \"#utility.yul\":167:173   */\n      dup5\n        /* \"#utility.yul\":125:174   */\n      tag_494\n      jump\t// in\n    tag_493:\n        /* \"#utility.yul\":110:175   */\n      tag_495\n      jump\t// in\n    tag_492:\n        /* \"#utility.yul\":101:175   */\n      swap1\n      pop\n        /* \"#utility.yul\":198:204   */\n      dup3\n        /* \"#utility.yul\":191:196   */\n      dup2\n        /* \"#utility.yul\":184:205   */\n      mstore\n        /* \"#utility.yul\":236:240   */\n      0x20\n        /* \"#utility.yul\":229:234   */\n      dup2\n        /* \"#utility.yul\":225:241   */\n      add\n        /* \"#utility.yul\":274:277   */\n      dup5\n        /* \"#utility.yul\":265:271   */\n      dup5\n        /* \"#utility.yul\":260:263   */\n      dup5\n        /* \"#utility.yul\":256:272   */\n      add\n        /* \"#utility.yul\":253:278   */\n      gt\n        /* \"#utility.yul\":250:252   */\n      iszero\n      tag_496\n      jumpi\n        /* \"#utility.yul\":291:292   */\n      0x00\n        /* \"#utility.yul\":288:289   */\n      dup1\n        /* \"#utility.yul\":281:293   */\n      revert\n        /* \"#utility.yul\":250:252   */\n    tag_496:\n        /* \"#utility.yul\":304:345   */\n      tag_497\n        /* \"#utility.yul\":338:344   */\n      dup5\n        /* \"#utility.yul\":333:336   */\n      dup3\n        /* \"#utility.yul\":328:331   */\n      dup6\n        /* \"#utility.yul\":304:345   */\n      tag_498\n      jump\t// in\n    tag_497:\n        /* \"#utility.yul\":91:351   */\n      pop\n      swap4\n      swap3\n      pop\n      pop\n      pop\n      jump\t// out\n        /* \"#utility.yul\":357:496   */\n    tag_499:\n      0x00\n        /* \"#utility.yul\":441:447   */\n      dup2\n        /* \"#utility.yul\":428:448   */\n      calldataload\n        /* \"#utility.yul\":419:448   */\n      swap1\n      pop\n        /* \"#utility.yul\":457:490   */\n      tag_501\n        /* \"#utility.yul\":484:489   */\n      dup2\n        /* \"#utility.yul\":457:490   */\n      tag_502\n      jump\t// in\n    tag_501:\n        /* \"#utility.yul\":409:496   */\n      swap3\n      swap2\n      pop\n      pop\n      jump\t// out\n        /* \"#utility.yul\":502:635   */\n    tag_503:\n      0x00\n        /* \"#utility.yul\":583:589   */\n      dup2\n        /* \"#utility.yul\":570:590   */\n      calldataload\n        /* \"#utility.yul\":561:590   */\n      swap1\n      pop\n        /* \"#utility.yul\":599:629   */\n      tag_505\n        /* \"#utility.yul\":623:628   */\n      dup2\n        /* \"#utility.yul\":599:629   */\n      tag_506\n      jump\t// in\n    tag_505:\n        /* \"#utility.yul\":551:635   */\n      swap3\n      swap2\n      pop\n      pop\n      jump\t// out\n        /* \"#utility.yul\":655:928   */\n    tag_507:\n      0x00\n        /* \"#utility.yul\":760:763   */\n      dup3\n        /* \"#utility.yul\":753:757   */\n      0x1f\n        /* \"#utility.yul\":745:751   */\n      dup4\n        /* \"#utility.yul\":741:758   */\n      add\n        /* \"#utility.yul\":737:764   */\n      slt\n        /* \"#utility.yul\":727:729   */\n      tag_509\n      jumpi\n        /* \"#utility.yul\":778:779   */\n      0x00\n        /* \"#utility.yul\":775:776   */\n      dup1\n        /* \"#utility.yul\":768:780   */\n      revert\n        /* \"#utility.yul\":727:729   */\n    tag_509:\n        /* \"#utility.yul\":818:824   */\n      dup2\n        /* \"#utility.yul\":805:825   */\n      calldataload\n        /* \"#utility.yul\":843:922   */\n      tag_510\n        /* \"#utility.yul\":918:921   */\n      dup5\n        /* \"#utility.yul\":910:916   */\n      dup3\n        /* \"#utility.yul\":903:907   */\n      0x20\n        /* \"#utility.yul\":895:901   */\n      dup7\n        /* \"#utility.yul\":891:908   */\n      add\n        /* \"#utility.yul\":843:922   */\n      tag_490\n      jump\t// in\n    tag_510:\n        /* \"#utility.yul\":834:922   */\n      swap2\n      pop\n        /* \"#utility.yul\":717:928   */\n      pop\n      swap3\n      swap2\n      pop\n      pop\n      jump\t// out\n        /* \"#utility.yul\":934:1073   */\n    tag_511:\n      0x00\n        /* \"#utility.yul\":1018:1024   */\n      dup2\n        /* \"#utility.yul\":1005:1025   */\n      calldataload\n        /* \"#utility.yul\":996:1025   */\n      swap1\n      pop\n        /* \"#utility.yul\":1034:1067   */\n      tag_513\n        /* \"#utility.yul\":1061:1066   */\n      dup2\n        /* \"#utility.yul\":1034:1067   */\n      tag_514\n      jump\t// in\n    tag_513:\n        /* \"#utility.yul\":986:1073   */\n      swap3\n      swap2\n      pop\n      pop\n      jump\t// out\n        /* \"#utility.yul\":1079:1341   */\n    tag_59:\n      0x00\n        /* \"#utility.yul\":1187:1189   */\n      0x20\n        /* \"#utility.yul\":1175:1184   */\n      dup3\n        /* \"#utility.yul\":1166:1173   */\n      dup5\n        /* \"#utility.yul\":1162:1185   */\n      sub\n        /* \"#utility.yul\":1158:1190   */\n      slt\n        /* \"#utility.yul\":1155:1157   */\n      iszero\n      tag_516\n      jumpi\n        /* \"#utility.yul\":1203:1204   */\n      0x00\n        /* \"#utility.yul\":1200:1201   */\n      dup1\n        /* \"#utility.yul\":1193:1205   */\n      revert\n        /* \"#utility.yul\":1155:1157   */\n    tag_516:\n        /* \"#utility.yul\":1246:1247   */\n      0x00\n        /* \"#utility.yul\":1271:1324   */\n      tag_517\n        /* \"#utility.yul\":1316:1323   */\n      dup5\n        /* \"#utility.yul\":1307:1313   */\n      dup3\n        /* \"#utility.yul\":1296:1305   */\n      dup6\n        /* \"#utility.yul\":1292:1314   */\n      add\n        /* \"#utility.yul\":1271:1324   */\n      tag_499\n      jump\t// in\n    tag_517:\n        /* \"#utility.yul\":1261:1324   */\n      swap2\n      pop\n        /* \"#utility.yul\":1217:1334   */\n      pop\n        /* \"#utility.yul\":1145:1341   */\n      swap3\n      swap2\n      pop\n      pop\n      jump\t// out\n        /* \"#utility.yul\":1347:2530   */\n    tag_47:\n      0x00\n      dup1\n      0x00\n      dup1\n      0x00\n        /* \"#utility.yul\":1553:1556   */\n      0xa0\n        /* \"#utility.yul\":1541:1550   */\n      dup7\n        /* \"#utility.yul\":1532:1539   */\n      dup9\n        /* \"#utility.yul\":1528:1551   */\n      sub\n        /* \"#utility.yul\":1524:1557   */\n      slt\n        /* \"#utility.yul\":1521:1523   */\n      iszero\n      tag_519\n      jumpi\n        /* \"#utility.yul\":1570:1571   */\n      0x00\n        /* \"#utility.yul\":1567:1568   */\n      dup1\n        /* \"#utility.yul\":1560:1572   */\n      revert\n        /* \"#utility.yul\":1521:1523   */\n    tag_519:\n        /* \"#utility.yul\":1613:1614   */\n      0x00\n        /* \"#utility.yul\":1638:1691   */\n      tag_520\n        /* \"#utility.yul\":1683:1690   */\n      dup9\n        /* \"#utility.yul\":1674:1680   */\n      dup3\n        /* \"#utility.yul\":1663:1672   */\n      dup10\n        /* \"#utility.yul\":1659:1681   */\n      add\n        /* \"#utility.yul\":1638:1691   */\n      tag_499\n      jump\t// in\n    tag_520:\n        /* \"#utility.yul\":1628:1691   */\n      swap6\n      pop\n        /* \"#utility.yul\":1584:1701   */\n      pop\n        /* \"#utility.yul\":1768:1770   */\n      0x20\n        /* \"#utility.yul\":1757:1766   */\n      dup7\n        /* \"#utility.yul\":1753:1771   */\n      add\n        /* \"#utility.yul\":1740:1772   */\n      calldataload\n        /* \"#utility.yul\":1799:1817   */\n      0xffffffffffffffff\n        /* \"#utility.yul\":1791:1797   */\n      dup2\n        /* \"#utility.yul\":1788:1818   */\n      gt\n        /* \"#utility.yul\":1785:1787   */\n      iszero\n      tag_521\n      jumpi\n        /* \"#utility.yul\":1831:1832   */\n      0x00\n        /* \"#utility.yul\":1828:1829   */\n      dup1\n        /* \"#utility.yul\":1821:1833   */\n      revert\n        /* \"#utility.yul\":1785:1787   */\n    tag_521:\n        /* \"#utility.yul\":1859:1922   */\n      tag_522\n        /* \"#utility.yul\":1914:1921   */\n      dup9\n        /* \"#utility.yul\":1905:1911   */\n      dup3\n        /* \"#utility.yul\":1894:1903   */\n      dup10\n        /* \"#utility.yul\":1890:1912   */\n      add\n        /* \"#utility.yul\":1859:1922   */\n      tag_507\n      jump\t// in\n    tag_522:\n        /* \"#utility.yul\":1849:1922   */\n      swap5\n      pop\n        /* \"#utility.yul\":1711:1932   */\n      pop\n        /* \"#utility.yul\":1999:2001   */\n      0x40\n        /* \"#utility.yul\":1988:1997   */\n      dup7\n        /* \"#utility.yul\":1984:2002   */\n      add\n        /* \"#utility.yul\":1971:2003   */\n      calldataload\n        /* \"#utility.yul\":2030:2048   */\n      0xffffffffffffffff\n        /* \"#utility.yul\":2022:2028   */\n      dup2\n        /* \"#utility.yul\":2019:2049   */\n      gt\n        /* \"#utility.yul\":2016:2018   */\n      iszero\n      tag_523\n      jumpi\n        /* \"#utility.yul\":2062:2063   */\n      0x00\n        /* \"#utility.yul\":2059:2060   */\n      dup1\n        /* \"#utility.yul\":2052:2064   */\n      revert\n        /* \"#utility.yul\":2016:2018   */\n    tag_523:\n        /* \"#utility.yul\":2090:2153   */\n      tag_524\n        /* \"#utility.yul\":2145:2152   */\n      dup9\n        /* \"#utility.yul\":2136:2142   */\n      dup3\n        /* \"#utility.yul\":2125:2134   */\n      dup10\n        /* \"#utility.yul\":2121:2143   */\n      add\n        /* \"#utility.yul\":2090:2153   */\n      tag_507\n      jump\t// in\n    tag_524:\n        /* \"#utility.yul\":2080:2153   */\n      swap4\n      pop\n        /* \"#utility.yul\":1942:2163   */\n      pop\n        /* \"#utility.yul\":2230:2232   */\n      0x60\n        /* \"#utility.yul\":2219:2228   */\n      dup7\n        /* \"#utility.yul\":2215:2233   */\n      add\n        /* \"#utility.yul\":2202:2234   */\n      calldataload\n        /* \"#utility.yul\":2261:2279   */\n      0xffffffffffffffff\n        /* \"#utility.yul\":2253:2259   */\n      dup2\n        /* \"#utility.yul\":2250:2280   */\n      gt\n        /* \"#utility.yul\":2247:2249   */\n      iszero\n      tag_525\n      jumpi\n        /* \"#utility.yul\":2293:2294   */\n      0x00\n        /* \"#utility.yul\":2290:2291   */\n      dup1\n        /* \"#utility.yul\":2283:2295   */\n      revert\n        /* \"#utility.yul\":2247:2249   */\n    tag_525:\n        /* \"#utility.yul\":2321:2384   */\n      tag_526\n        /* \"#utility.yul\":2376:2383   */\n      dup9\n        /* \"#utility.yul\":2367:2373   */\n      dup3\n        /* \"#utility.yul\":2356:2365   */\n      dup10\n        /* \"#utility.yul\":2352:2374   */\n      add\n        /* \"#utility.yul\":2321:2384   */\n      tag_507\n      jump\t// in\n    tag_526:\n        /* \"#utility.yul\":2311:2384   */\n      swap3\n      pop\n        /* \"#utility.yul\":2173:2394   */\n      pop\n        /* \"#utility.yul\":2433:2436   */\n      0x80\n        /* \"#utility.yul\":2460:2513   */\n      tag_527\n        /* \"#utility.yul\":2505:2512   */\n      dup9\n        /* \"#utility.yul\":2496:2502   */\n      dup3\n        /* \"#utility.yul\":2485:2494   */\n      dup10\n        /* \"#utility.yul\":2481:2503   */\n      add\n        /* \"#utility.yul\":2460:2513   */\n      tag_511\n      jump\t// in\n    tag_527:\n        /* \"#utility.yul\":2450:2513   */\n      swap2\n      pop\n        /* \"#utility.yul\":2404:2523   */\n      pop\n        /* \"#utility.yul\":1511:2530   */\n      swap3\n      swap6\n      pop\n      swap3\n      swap6\n      swap1\n      swap4\n      pop\n      jump\t// out\n        /* \"#utility.yul\":2536:3056   */\n    tag_55:\n      0x00\n      dup1\n        /* \"#utility.yul\":2671:2673   */\n      0x40\n        /* \"#utility.yul\":2659:2668   */\n      dup4\n        /* \"#utility.yul\":2650:2657   */\n      dup6\n        /* \"#utility.yul\":2646:2669   */\n      sub\n        /* \"#utility.yul\":2642:2674   */\n      slt\n        /* \"#utility.yul\":2639:2641   */\n      iszero\n      tag_529\n      jumpi\n        /* \"#utility.yul\":2687:2688   */\n      0x00\n        /* \"#utility.yul\":2684:2685   */\n      dup1\n        /* \"#utility.yul\":2677:2689   */\n      revert\n        /* \"#utility.yul\":2639:2641   */\n    tag_529:\n        /* \"#utility.yul\":2758:2759   */\n      0x00\n        /* \"#utility.yul\":2747:2756   */\n      dup4\n        /* \"#utility.yul\":2743:2760   */\n      add\n        /* \"#utility.yul\":2730:2761   */\n      calldataload\n        /* \"#utility.yul\":2788:2806   */\n      0xffffffffffffffff\n        /* \"#utility.yul\":2780:2786   */\n      dup2\n        /* \"#utility.yul\":2777:2807   */\n      gt\n        /* \"#utility.yul\":2774:2776   */\n      iszero\n      tag_530\n      jumpi\n        /* \"#utility.yul\":2820:2821   */\n      0x00\n        /* \"#utility.yul\":2817:2818   */\n      dup1\n        /* \"#utility.yul\":2810:2822   */\n      revert\n        /* \"#utility.yul\":2774:2776   */\n    tag_530:\n        /* \"#utility.yul\":2848:2911   */\n      tag_531\n        /* \"#utility.yul\":2903:2910   */\n      dup6\n        /* \"#utility.yul\":2894:2900   */\n      dup3\n        /* \"#utility.yul\":2883:2892   */\n      dup7\n        /* \"#utility.yul\":2879:2901   */\n      add\n        /* \"#utility.yul\":2848:2911   */\n      tag_507\n      jump\t// in\n    tag_531:\n        /* \"#utility.yul\":2838:2911   */\n      swap3\n      pop\n        /* \"#utility.yul\":2701:2921   */\n      pop\n        /* \"#utility.yul\":2960:2962   */\n      0x20\n        /* \"#utility.yul\":2986:3039   */\n      tag_532\n        /* \"#utility.yul\":3031:3038   */\n      dup6\n        /* \"#utility.yul\":3022:3028   */\n      dup3\n        /* \"#utility.yul\":3011:3020   */\n      dup7\n        /* \"#utility.yul\":3007:3029   */\n      add\n        /* \"#utility.yul\":2986:3039   */\n      tag_499\n      jump\t// in\n    tag_532:\n        /* \"#utility.yul\":2976:3039   */\n      swap2\n      pop\n        /* \"#utility.yul\":2931:3049   */\n      pop\n        /* \"#utility.yul\":2629:3056   */\n      swap3\n      pop\n      swap3\n      swap1\n      pop\n      jump\t// out\n        /* \"#utility.yul\":3062:3980   */\n    tag_107:\n      0x00\n      dup1\n      0x00\n      dup1\n        /* \"#utility.yul\":3238:3241   */\n      0x80\n        /* \"#utility.yul\":3226:3235   */\n      dup6\n        /* \"#utility.yul\":3217:3224   */\n      dup8\n        /* \"#utility.yul\":3213:3236   */\n      sub\n        /* \"#utility.yul\":3209:3242   */\n      slt\n        /* \"#utility.yul\":3206:3208   */\n      iszero\n      tag_534\n      jumpi\n        /* \"#utility.yul\":3255:3256   */\n      0x00\n        /* \"#utility.yul\":3252:3253   */\n      dup1\n        /* \"#utility.yul\":3245:3257   */\n      revert\n        /* \"#utility.yul\":3206:3208   */\n    tag_534:\n        /* \"#utility.yul\":3326:3327   */\n      0x00\n        /* \"#utility.yul\":3315:3324   */\n      dup6\n        /* \"#utility.yul\":3311:3328   */\n      add\n        /* \"#utility.yul\":3298:3329   */\n      calldataload\n        /* \"#utility.yul\":3356:3374   */\n      0xffffffffffffffff\n        /* \"#utility.yul\":3348:3354   */\n      dup2\n        /* \"#utility.yul\":3345:3375   */\n      gt\n        /* \"#utility.yul\":3342:3344   */\n      iszero\n      tag_535\n      jumpi\n        /* \"#utility.yul\":3388:3389   */\n      0x00\n        /* \"#utility.yul\":3385:3386   */\n      dup1\n        /* \"#utility.yul\":3378:3390   */\n      revert\n        /* \"#utility.yul\":3342:3344   */\n    tag_535:\n        /* \"#utility.yul\":3416:3479   */\n      tag_536\n        /* \"#utility.yul\":3471:3478   */\n      dup8\n        /* \"#utility.yul\":3462:3468   */\n      dup3\n        /* \"#utility.yul\":3451:3460   */\n      dup9\n        /* \"#utility.yul\":3447:3469   */\n      add\n        /* \"#utility.yul\":3416:3479   */\n      tag_507\n      jump\t// in\n    tag_536:\n        /* \"#utility.yul\":3406:3479   */\n      swap5\n      pop\n        /* \"#utility.yul\":3269:3489   */\n      pop\n        /* \"#utility.yul\":3556:3558   */\n      0x20\n        /* \"#utility.yul\":3545:3554   */\n      dup6\n        /* \"#utility.yul\":3541:3559   */\n      add\n        /* \"#utility.yul\":3528:3560   */\n      calldataload\n        /* \"#utility.yul\":3587:3605   */\n      0xffffffffffffffff\n        /* \"#utility.yul\":3579:3585   */\n      dup2\n        /* \"#utility.yul\":3576:3606   */\n      gt\n        /* \"#utility.yul\":3573:3575   */\n      iszero\n      tag_537\n      jumpi\n        /* \"#utility.yul\":3619:3620   */\n      0x00\n        /* \"#utility.yul\":3616:3617   */\n      dup1\n        /* \"#utility.yul\":3609:3621   */\n      revert\n        /* \"#utility.yul\":3573:3575   */\n    tag_537:\n        /* \"#utility.yul\":3647:3710   */\n      tag_538\n        /* \"#utility.yul\":3702:3709   */\n      dup8\n        /* \"#utility.yul\":3693:3699   */\n      dup3\n        /* \"#utility.yul\":3682:3691   */\n      dup9\n        /* \"#utility.yul\":3678:3700   */\n      add\n        /* \"#utility.yul\":3647:3710   */\n      tag_507\n      jump\t// in\n    tag_538:\n        /* \"#utility.yul\":3637:3710   */\n      swap4\n      pop\n        /* \"#utility.yul\":3499:3720   */\n      pop\n        /* \"#utility.yul\":3759:3761   */\n      0x40\n        /* \"#utility.yul\":3785:3838   */\n      tag_539\n        /* \"#utility.yul\":3830:3837   */\n      dup8\n        /* \"#utility.yul\":3821:3827   */\n      dup3\n        /* \"#utility.yul\":3810:3819   */\n      dup9\n        /* \"#utility.yul\":3806:3828   */\n      add\n        /* \"#utility.yul\":3785:3838   */\n      tag_511\n      jump\t// in\n    tag_539:\n        /* \"#utility.yul\":3775:3838   */\n      swap3\n      pop\n        /* \"#utility.yul\":3730:3848   */\n      pop\n        /* \"#utility.yul\":3887:3889   */\n      0x60\n        /* \"#utility.yul\":3913:3963   */\n      tag_540\n        /* \"#utility.yul\":3955:3962   */\n      dup8\n        /* \"#utility.yul\":3946:3952   */\n      dup3\n        /* \"#utility.yul\":3935:3944   */\n      dup9\n        /* \"#utility.yul\":3931:3953   */\n      add\n        /* \"#utility.yul\":3913:3963   */\n      tag_503\n      jump\t// in\n    tag_540:\n        /* \"#utility.yul\":3903:3963   */\n      swap2\n      pop\n        /* \"#utility.yul\":3858:3973   */\n      pop\n        /* \"#utility.yul\":3196:3980   */\n      swap3\n      swap6\n      swap2\n      swap5\n      pop\n      swap3\n      pop\n      jump\t// out\n        /* \"#utility.yul\":3986:4248   */\n    tag_36:\n      0x00\n        /* \"#utility.yul\":4094:4096   */\n      0x20\n        /* \"#utility.yul\":4082:4091   */\n      dup3\n        /* \"#utility.yul\":4073:4080   */\n      dup5\n        /* \"#utility.yul\":4069:4092   */\n      sub\n        /* \"#utility.yul\":4065:4097   */\n      slt\n        /* \"#utility.yul\":4062:4064   */\n      iszero\n      tag_542\n      jumpi\n        /* \"#utility.yul\":4110:4111   */\n      0x00\n        /* \"#utility.yul\":4107:4108   */\n      dup1\n        /* \"#utility.yul\":4100:4112   */\n      revert\n        /* \"#utility.yul\":4062:4064   */\n    tag_542:\n        /* \"#utility.yul\":4153:4154   */\n      0x00\n        /* \"#utility.yul\":4178:4231   */\n      tag_543\n        /* \"#utility.yul\":4223:4230   */\n      dup5\n        /* \"#utility.yul\":4214:4220   */\n      dup3\n        /* \"#utility.yul\":4203:4212   */\n      dup6\n        /* \"#utility.yul\":4199:4221   */\n      add\n        /* \"#utility.yul\":4178:4231   */\n      tag_511\n      jump\t// in\n    tag_543:\n        /* \"#utility.yul\":4168:4231   */\n      swap2\n      pop\n        /* \"#utility.yul\":4124:4241   */\n      pop\n        /* \"#utility.yul\":4052:4248   */\n      swap3\n      swap2\n      pop\n      pop\n      jump\t// out\n        /* \"#utility.yul\":4254:4919   */\n    tag_123:\n      0x00\n      dup1\n      0x00\n        /* \"#utility.yul\":4406:4408   */\n      0x60\n        /* \"#utility.yul\":4394:4403   */\n      dup5\n        /* \"#utility.yul\":4385:4392   */\n      dup7\n        /* \"#utility.yul\":4381:4404   */\n      sub\n        /* \"#utility.yul\":4377:4409   */\n      slt\n        /* \"#utility.yul\":4374:4376   */\n      iszero\n      tag_545\n      jumpi\n        /* \"#utility.yul\":4422:4423   */\n      0x00\n        /* \"#utility.yul\":4419:4420   */\n      dup1\n        /* \"#utility.yul\":4412:4424   */\n      revert\n        /* \"#utility.yul\":4374:4376   */\n    tag_545:\n        /* \"#utility.yul\":4465:4466   */\n      0x00\n        /* \"#utility.yul\":4490:4543   */\n      tag_546\n        /* \"#utility.yul\":4535:4542   */\n      dup7\n        /* \"#utility.yul\":4526:4532   */\n      dup3\n        /* \"#utility.yul\":4515:4524   */\n      dup8\n        /* \"#utility.yul\":4511:4533   */\n      add\n        /* \"#utility.yul\":4490:4543   */\n      tag_511\n      jump\t// in\n    tag_546:\n        /* \"#utility.yul\":4480:4543   */\n      swap4\n      pop\n        /* \"#utility.yul\":4436:4553   */\n      pop\n        /* \"#utility.yul\":4620:4622   */\n      0x20\n        /* \"#utility.yul\":4609:4618   */\n      dup5\n        /* \"#utility.yul\":4605:4623   */\n      add\n        /* \"#utility.yul\":4592:4624   */\n      calldataload\n        /* \"#utility.yul\":4651:4669   */\n      0xffffffffffffffff\n        /* \"#utility.yul\":4643:4649   */\n      dup2\n        /* \"#utility.yul\":4640:4670   */\n      gt\n        /* \"#utility.yul\":4637:4639   */\n      iszero\n      tag_547\n      jumpi\n        /* \"#utility.yul\":4683:4684   */\n      0x00\n        /* \"#utility.yul\":4680:4681   */\n      dup1\n        /* \"#utility.yul\":4673:4685   */\n      revert\n        /* \"#utility.yul\":4637:4639   */\n    tag_547:\n        /* \"#utility.yul\":4711:4774   */\n      tag_548\n        /* \"#utility.yul\":4766:4773   */\n      dup7\n        /* \"#utility.yul\":4757:4763   */\n      dup3\n        /* \"#utility.yul\":4746:4755   */\n      dup8\n        /* \"#utility.yul\":4742:4764   */\n      add\n        /* \"#utility.yul\":4711:4774   */\n      tag_507\n      jump\t// in\n    tag_548:\n        /* \"#utility.yul\":4701:4774   */\n      swap3\n      pop\n        /* \"#utility.yul\":4563:4784   */\n      pop\n        /* \"#utility.yul\":4823:4825   */\n      0x40\n        /* \"#utility.yul\":4849:4902   */\n      tag_549\n        /* \"#utility.yul\":4894:4901   */\n      dup7\n        /* \"#utility.yul\":4885:4891   */\n      dup3\n        /* \"#utility.yul\":4874:4883   */\n      dup8\n        /* \"#utility.yul\":4870:4892   */\n      add\n        /* \"#utility.yul\":4849:4902   */\n      tag_499\n      jump\t// in\n    tag_549:\n        /* \"#utility.yul\":4839:4902   */\n      swap2\n      pop\n        /* \"#utility.yul\":4794:4912   */\n      pop\n        /* \"#utility.yul\":4364:4919   */\n      swap3\n      pop\n      swap3\n      pop\n      swap3\n      jump\t// out\n        /* \"#utility.yul\":4925:5849   */\n    tag_114:\n      0x00\n      dup1\n      0x00\n      dup1\n        /* \"#utility.yul\":5104:5107   */\n      0x80\n        /* \"#utility.yul\":5092:5101   */\n      dup6\n        /* \"#utility.yul\":5083:5090   */\n      dup8\n        /* \"#utility.yul\":5079:5102   */\n      sub\n        /* \"#utility.yul\":5075:5108   */\n      slt\n        /* \"#utility.yul\":5072:5074   */\n      iszero\n      tag_551\n      jumpi\n        /* \"#utility.yul\":5121:5122   */\n      0x00\n        /* \"#utility.yul\":5118:5119   */\n      dup1\n        /* \"#utility.yul\":5111:5123   */\n      revert\n        /* \"#utility.yul\":5072:5074   */\n    tag_551:\n        /* \"#utility.yul\":5164:5165   */\n      0x00\n        /* \"#utility.yul\":5189:5242   */\n      tag_552\n        /* \"#utility.yul\":5234:5241   */\n      dup8\n        /* \"#utility.yul\":5225:5231   */\n      dup3\n        /* \"#utility.yul\":5214:5223   */\n      dup9\n        /* \"#utility.yul\":5210:5232   */\n      add\n        /* \"#utility.yul\":5189:5242   */\n      tag_511\n      jump\t// in\n    tag_552:\n        /* \"#utility.yul\":5179:5242   */\n      swap5\n      pop\n        /* \"#utility.yul\":5135:5252   */\n      pop\n        /* \"#utility.yul\":5319:5321   */\n      0x20\n        /* \"#utility.yul\":5308:5317   */\n      dup6\n        /* \"#utility.yul\":5304:5322   */\n      add\n        /* \"#utility.yul\":5291:5323   */\n      calldataload\n        /* \"#utility.yul\":5350:5368   */\n      0xffffffffffffffff\n        /* \"#utility.yul\":5342:5348   */\n      dup2\n        /* \"#utility.yul\":5339:5369   */\n      gt\n        /* \"#utility.yul\":5336:5338   */\n      iszero\n      tag_553\n      jumpi\n        /* \"#utility.yul\":5382:5383   */\n      0x00\n        /* \"#utility.yul\":5379:5380   */\n      dup1\n        /* \"#utility.yul\":5372:5384   */\n      revert\n        /* \"#utility.yul\":5336:5338   */\n    tag_553:\n        /* \"#utility.yul\":5410:5473   */\n      tag_554\n        /* \"#utility.yul\":5465:5472   */\n      dup8\n        /* \"#utility.yul\":5456:5462   */\n      dup3\n        /* \"#utility.yul\":5445:5454   */\n      dup9\n        /* \"#utility.yul\":5441:5463   */\n      add\n        /* \"#utility.yul\":5410:5473   */\n      tag_507\n      jump\t// in\n    tag_554:\n        /* \"#utility.yul\":5400:5473   */\n      swap4\n      pop\n        /* \"#utility.yul\":5262:5483   */\n      pop\n        /* \"#utility.yul\":5550:5552   */\n      0x40\n        /* \"#utility.yul\":5539:5548   */\n      dup6\n        /* \"#utility.yul\":5535:5553   */\n      add\n        /* \"#utility.yul\":5522:5554   */\n      calldataload\n        /* \"#utility.yul\":5581:5599   */\n      0xffffffffffffffff\n        /* \"#utility.yul\":5573:5579   */\n      dup2\n        /* \"#utility.yul\":5570:5600   */\n      gt\n        /* \"#utility.yul\":5567:5569   */\n      iszero\n      tag_555\n      jumpi\n        /* \"#utility.yul\":5613:5614   */\n      0x00\n        /* \"#utility.yul\":5610:5611   */\n      dup1\n        /* \"#utility.yul\":5603:5615   */\n      revert\n        /* \"#utility.yul\":5567:5569   */\n    tag_555:\n        /* \"#utility.yul\":5641:5704   */\n      tag_556\n        /* \"#utility.yul\":5696:5703   */\n      dup8\n        /* \"#utility.yul\":5687:5693   */\n      dup3\n        /* \"#utility.yul\":5676:5685   */\n      dup9\n        /* \"#utility.yul\":5672:5694   */\n      add\n        /* \"#utility.yul\":5641:5704   */\n      tag_507\n      jump\t// in\n    tag_556:\n        /* \"#utility.yul\":5631:5704   */\n      swap3\n      pop\n        /* \"#utility.yul\":5493:5714   */\n      pop\n        /* \"#utility.yul\":5753:5755   */\n      0x60\n        /* \"#utility.yul\":5779:5832   */\n      tag_557\n        /* \"#utility.yul\":5824:5831   */\n      dup8\n        /* \"#utility.yul\":5815:5821   */\n      dup3\n        /* \"#utility.yul\":5804:5813   */\n      dup9\n        /* \"#utility.yul\":5800:5822   */\n      add\n        /* \"#utility.yul\":5779:5832   */\n      tag_511\n      jump\t// in\n    tag_557:\n        /* \"#utility.yul\":5769:5832   */\n      swap2\n      pop\n        /* \"#utility.yul\":5724:5842   */\n      pop\n        /* \"#utility.yul\":5062:5849   */\n      swap3\n      swap6\n      swap2\n      swap5\n      pop\n      swap3\n      pop\n      jump\t// out\n        /* \"#utility.yul\":5855:6099   */\n    tag_558:\n      0x00\n        /* \"#utility.yul\":6003:6093   */\n      tag_560\n        /* \"#utility.yul\":6089:6092   */\n      dup4\n        /* \"#utility.yul\":6081:6087   */\n      dup4\n        /* \"#utility.yul\":6003:6093   */\n      tag_561\n      jump\t// in\n    tag_560:\n        /* \"#utility.yul\":5989:6093   */\n      swap1\n      pop\n        /* \"#utility.yul\":5979:6099   */\n      swap3\n      swap2\n      pop\n      pop\n      jump\t// out\n        /* \"#utility.yul\":6105:6357   */\n    tag_562:\n      0x00\n        /* \"#utility.yul\":6257:6351   */\n      tag_564\n        /* \"#utility.yul\":6347:6350   */\n      dup4\n        /* \"#utility.yul\":6339:6345   */\n      dup4\n        /* \"#utility.yul\":6257:6351   */\n      tag_565\n      jump\t// in\n    tag_564:\n        /* \"#utility.yul\":6243:6351   */\n      swap1\n      pop\n        /* \"#utility.yul\":6233:6357   */\n      swap3\n      swap2\n      pop\n      pop\n      jump\t// out\n        /* \"#utility.yul\":6363:6607   */\n    tag_566:\n      0x00\n        /* \"#utility.yul\":6511:6601   */\n      tag_568\n        /* \"#utility.yul\":6597:6600   */\n      dup4\n        /* \"#utility.yul\":6589:6595   */\n      dup4\n        /* \"#utility.yul\":6511:6601   */\n      tag_569\n      jump\t// in\n    tag_568:\n        /* \"#utility.yul\":6497:6601   */\n      swap1\n      pop\n        /* \"#utility.yul\":6487:6607   */\n      swap3\n      swap2\n      pop\n      pop\n      jump\t// out\n        /* \"#utility.yul\":6613:6721   */\n    tag_570:\n        /* \"#utility.yul\":6690:6714   */\n      tag_572\n        /* \"#utility.yul\":6708:6713   */\n      dup2\n        /* \"#utility.yul\":6690:6714   */\n      tag_573\n      jump\t// in\n    tag_572:\n        /* \"#utility.yul\":6685:6688   */\n      dup3\n        /* \"#utility.yul\":6678:6715   */\n      mstore\n        /* \"#utility.yul\":6668:6721   */\n      pop\n      pop\n      jump\t// out\n        /* \"#utility.yul\":6727:6845   */\n    tag_574:\n        /* \"#utility.yul\":6814:6838   */\n      tag_576\n        /* \"#utility.yul\":6832:6837   */\n      dup2\n        /* \"#utility.yul\":6814:6838   */\n      tag_573\n      jump\t// in\n    tag_576:\n        /* \"#utility.yul\":6809:6812   */\n      dup3\n        /* \"#utility.yul\":6802:6839   */\n      mstore\n        /* \"#utility.yul\":6792:6845   */\n      pop\n      pop\n      jump\t// out\n        /* \"#utility.yul\":6909:7996   */\n    tag_577:\n      0x00\n        /* \"#utility.yul\":7101:7177   */\n      tag_579\n        /* \"#utility.yul\":7171:7176   */\n      dup3\n        /* \"#utility.yul\":7101:7177   */\n      tag_580\n      jump\t// in\n    tag_579:\n        /* \"#utility.yul\":7193:7301   */\n      tag_581\n        /* \"#utility.yul\":7294:7300   */\n      dup2\n        /* \"#utility.yul\":7289:7292   */\n      dup6\n        /* \"#utility.yul\":7193:7301   */\n      tag_582\n      jump\t// in\n    tag_581:\n        /* \"#utility.yul\":7186:7301   */\n      swap4\n      pop\n        /* \"#utility.yul\":7327:7330   */\n      dup4\n        /* \"#utility.yul\":7372:7376   */\n      0x20\n        /* \"#utility.yul\":7364:7370   */\n      dup3\n        /* \"#utility.yul\":7360:7377   */\n      mul\n        /* \"#utility.yul\":7355:7358   */\n      dup6\n        /* \"#utility.yul\":7351:7378   */\n      add\n        /* \"#utility.yul\":7402:7480   */\n      tag_583\n        /* \"#utility.yul\":7474:7479   */\n      dup6\n        /* \"#utility.yul\":7402:7480   */\n      tag_584\n      jump\t// in\n    tag_583:\n        /* \"#utility.yul\":7503:7510   */\n      dup1\n        /* \"#utility.yul\":7534:7535   */\n      0x00\n        /* \"#utility.yul\":7519:7951   */\n    tag_585:\n        /* \"#utility.yul\":7544:7550   */\n      dup6\n        /* \"#utility.yul\":7541:7542   */\n      dup2\n        /* \"#utility.yul\":7538:7551   */\n      lt\n        /* \"#utility.yul\":7519:7951   */\n      iszero\n      tag_587\n      jumpi\n        /* \"#utility.yul\":7615:7624   */\n      dup5\n        /* \"#utility.yul\":7609:7613   */\n      dup5\n        /* \"#utility.yul\":7605:7625   */\n      sub\n        /* \"#utility.yul\":7600:7603   */\n      dup10\n        /* \"#utility.yul\":7593:7626   */\n      mstore\n        /* \"#utility.yul\":7666:7672   */\n      dup2\n        /* \"#utility.yul\":7660:7673   */\n      mload\n        /* \"#utility.yul\":7694:7802   */\n      tag_588\n        /* \"#utility.yul\":7797:7801   */\n      dup6\n        /* \"#utility.yul\":7782:7795   */\n      dup3\n        /* \"#utility.yul\":7694:7802   */\n      tag_558\n      jump\t// in\n    tag_588:\n        /* \"#utility.yul\":7686:7802   */\n      swap5\n      pop\n        /* \"#utility.yul\":7825:7907   */\n      tag_589\n        /* \"#utility.yul\":7900:7906   */\n      dup4\n        /* \"#utility.yul\":7825:7907   */\n      tag_590\n      jump\t// in\n    tag_589:\n        /* \"#utility.yul\":7815:7907   */\n      swap3\n      pop\n        /* \"#utility.yul\":7936:7940   */\n      0x20\n        /* \"#utility.yul\":7931:7934   */\n      dup11\n        /* \"#utility.yul\":7927:7941   */\n      add\n        /* \"#utility.yul\":7920:7941   */\n      swap10\n      pop\n        /* \"#utility.yul\":7579:7951   */\n      pop\n        /* \"#utility.yul\":7566:7567   */\n      0x01\n        /* \"#utility.yul\":7563:7564   */\n      dup2\n        /* \"#utility.yul\":7559:7568   */\n      add\n        /* \"#utility.yul\":7554:7568   */\n      swap1\n      pop\n        /* \"#utility.yul\":7519:7951   */\n      jump(tag_585)\n    tag_587:\n        /* \"#utility.yul\":7523:7537   */\n      pop\n        /* \"#utility.yul\":7967:7971   */\n      dup3\n        /* \"#utility.yul\":7960:7971   */\n      swap8\n      pop\n        /* \"#utility.yul\":7987:7990   */\n      dup8\n        /* \"#utility.yul\":7980:7990   */\n      swap6\n      pop\n        /* \"#utility.yul\":7077:7996   */\n      pop\n      pop\n      pop\n      pop\n      pop\n      swap3\n      swap2\n      pop\n      pop\n      jump\t// out\n        /* \"#utility.yul\":8064:9167   */\n    tag_591:\n      0x00\n        /* \"#utility.yul\":8260:8338   */\n      tag_593\n        /* \"#utility.yul\":8332:8337   */\n      dup3\n        /* \"#utility.yul\":8260:8338   */\n      tag_594\n      jump\t// in\n    tag_593:\n        /* \"#utility.yul\":8354:8464   */\n      tag_595\n        /* \"#utility.yul\":8457:8463   */\n      dup2\n        /* \"#utility.yul\":8452:8455   */\n      dup6\n        /* \"#utility.yul\":8354:8464   */\n      tag_596\n      jump\t// in\n    tag_595:\n        /* \"#utility.yul\":8347:8464   */\n      swap4\n      pop\n        /* \"#utility.yul\":8490:8493   */\n      dup4\n        /* \"#utility.yul\":8535:8539   */\n      0x20\n        /* \"#utility.yul\":8527:8533   */\n      dup3\n        /* \"#utility.yul\":8523:8540   */\n      mul\n        /* \"#utility.yul\":8518:8521   */\n      dup6\n        /* \"#utility.yul\":8514:8541   */\n      add\n        /* \"#utility.yul\":8565:8645   */\n      tag_597\n        /* \"#utility.yul\":8639:8644   */\n      dup6\n        /* \"#utility.yul\":8565:8645   */\n      tag_598\n      jump\t// in\n    tag_597:\n        /* \"#utility.yul\":8668:8675   */\n      dup1\n        /* \"#utility.yul\":8699:8700   */\n      0x00\n        /* \"#utility.yul\":8684:9122   */\n    tag_599:\n        /* \"#utility.yul\":8709:8715   */\n      dup6\n        /* \"#utility.yul\":8706:8707   */\n      dup2\n        /* \"#utility.yul\":8703:8716   */\n      lt\n        /* \"#utility.yul\":8684:9122   */\n      iszero\n      tag_601\n      jumpi\n        /* \"#utility.yul\":8780:8789   */\n      dup5\n        /* \"#utility.yul\":8774:8778   */\n      dup5\n        /* \"#utility.yul\":8770:8790   */\n      sub\n        /* \"#utility.yul\":8765:8768   */\n      dup10\n        /* \"#utility.yul\":8758:8791   */\n      mstore\n        /* \"#utility.yul\":8831:8837   */\n      dup2\n        /* \"#utility.yul\":8825:8838   */\n      mload\n        /* \"#utility.yul\":8859:8971   */\n      tag_602\n        /* \"#utility.yul\":8966:8970   */\n      dup6\n        /* \"#utility.yul\":8951:8964   */\n      dup3\n        /* \"#utility.yul\":8859:8971   */\n      tag_562\n      jump\t// in\n    tag_602:\n        /* \"#utility.yul\":8851:8971   */\n      swap5\n      pop\n        /* \"#utility.yul\":8994:9078   */\n      tag_603\n        /* \"#utility.yul\":9071:9077   */\n      dup4\n        /* \"#utility.yul\":8994:9078   */\n      tag_604\n      jump\t// in\n    tag_603:\n        /* \"#utility.yul\":8984:9078   */\n      swap3\n      pop\n        /* \"#utility.yul\":9107:9111   */\n      0x20\n        /* \"#utility.yul\":9102:9105   */\n      dup11\n        /* \"#utility.yul\":9098:9112   */\n      add\n        /* \"#utility.yul\":9091:9112   */\n      swap10\n      pop\n        /* \"#utility.yul\":8744:9122   */\n      pop\n        /* \"#utility.yul\":8731:8732   */\n      0x01\n        /* \"#utility.yul\":8728:8729   */\n      dup2\n        /* \"#utility.yul\":8724:8733   */\n      add\n        /* \"#utility.yul\":8719:8733   */\n      swap1\n      pop\n        /* \"#utility.yul\":8684:9122   */\n      jump(tag_599)\n    tag_601:\n        /* \"#utility.yul\":8688:8702   */\n      pop\n        /* \"#utility.yul\":9138:9142   */\n      dup3\n        /* \"#utility.yul\":9131:9142   */\n      swap8\n      pop\n        /* \"#utility.yul\":9158:9161   */\n      dup8\n        /* \"#utility.yul\":9151:9161   */\n      swap6\n      pop\n        /* \"#utility.yul\":8236:9167   */\n      pop\n      pop\n      pop\n      pop\n      pop\n      swap3\n      swap2\n      pop\n      pop\n      jump\t// out\n        /* \"#utility.yul\":9231:10318   */\n    tag_605:\n      0x00\n        /* \"#utility.yul\":9423:9499   */\n      tag_607\n        /* \"#utility.yul\":9493:9498   */\n      dup3\n        /* \"#utility.yul\":9423:9499   */\n      tag_608\n      jump\t// in\n    tag_607:\n        /* \"#utility.yul\":9515:9623   */\n      tag_609\n        /* \"#utility.yul\":9616:9622   */\n      dup2\n        /* \"#utility.yul\":9611:9614   */\n      dup6\n        /* \"#utility.yul\":9515:9623   */\n      tag_610\n      jump\t// in\n    tag_609:\n        /* \"#utility.yul\":9508:9623   */\n      swap4\n      pop\n        /* \"#utility.yul\":9649:9652   */\n      dup4\n        /* \"#utility.yul\":9694:9698   */\n      0x20\n        /* \"#utility.yul\":9686:9692   */\n      dup3\n        /* \"#utility.yul\":9682:9699   */\n      mul\n        /* \"#utility.yul\":9677:9680   */\n      dup6\n        /* \"#utility.yul\":9673:9700   */\n      add\n        /* \"#utility.yul\":9724:9802   */\n      tag_611\n        /* \"#utility.yul\":9796:9801   */\n      dup6\n        /* \"#utility.yul\":9724:9802   */\n      tag_612\n      jump\t// in\n    tag_611:\n        /* \"#utility.yul\":9825:9832   */\n      dup1\n        /* \"#utility.yul\":9856:9857   */\n      0x00\n        /* \"#utility.yul\":9841:10273   */\n    tag_613:\n        /* \"#utility.yul\":9866:9872   */\n      dup6\n        /* \"#utility.yul\":9863:9864   */\n      dup2\n        /* \"#utility.yul\":9860:9873   */\n      lt\n        /* \"#utility.yul\":9841:10273   */\n      iszero\n      tag_615\n      jumpi\n        /* \"#utility.yul\":9937:9946   */\n      dup5\n        /* \"#utility.yul\":9931:9935   */\n      dup5\n        /* \"#utility.yul\":9927:9947   */\n      sub\n        /* \"#utility.yul\":9922:9925   */\n      dup10\n        /* \"#utility.yul\":9915:9948   */\n      mstore\n        /* \"#utility.yul\":9988:9994   */\n      dup2\n        /* \"#utility.yul\":9982:9995   */\n      mload\n        /* \"#utility.yul\":10016:10124   */\n      tag_616\n        /* \"#utility.yul\":10119:10123   */\n      dup6\n        /* \"#utility.yul\":10104:10117   */\n      dup3\n        /* \"#utility.yul\":10016:10124   */\n      tag_566\n      jump\t// in\n    tag_616:\n        /* \"#utility.yul\":10008:10124   */\n      swap5\n      pop\n        /* \"#utility.yul\":10147:10229   */\n      tag_617\n        /* \"#utility.yul\":10222:10228   */\n      dup4\n        /* \"#utility.yul\":10147:10229   */\n      tag_618\n      jump\t// in\n    tag_617:\n        /* \"#utility.yul\":10137:10229   */\n      swap3\n      pop\n        /* \"#utility.yul\":10258:10262   */\n      0x20\n        /* \"#utility.yul\":10253:10256   */\n      dup11\n        /* \"#utility.yul\":10249:10263   */\n      add\n        /* \"#utility.yul\":10242:10263   */\n      swap10\n      pop\n        /* \"#utility.yul\":9901:10273   */\n      pop\n        /* \"#utility.yul\":9888:9889   */\n      0x01\n        /* \"#utility.yul\":9885:9886   */\n      dup2\n        /* \"#utility.yul\":9881:9890   */\n      add\n        /* \"#utility.yul\":9876:9890   */\n      swap1\n      pop\n        /* \"#utility.yul\":9841:10273   */\n      jump(tag_613)\n    tag_615:\n        /* \"#utility.yul\":9845:9859   */\n      pop\n        /* \"#utility.yul\":10289:10293   */\n      dup3\n        /* \"#utility.yul\":10282:10293   */\n      swap8\n      pop\n        /* \"#utility.yul\":10309:10312   */\n      dup8\n        /* \"#utility.yul\":10302:10312   */\n      swap6\n      pop\n        /* \"#utility.yul\":9399:10318   */\n      pop\n      pop\n      pop\n      pop\n      pop\n      swap3\n      swap2\n      pop\n      pop\n      jump\t// out\n        /* \"#utility.yul\":10324:10423   */\n    tag_619:\n        /* \"#utility.yul\":10395:10416   */\n      tag_621\n        /* \"#utility.yul\":10410:10415   */\n      dup2\n        /* \"#utility.yul\":10395:10416   */\n      tag_622\n      jump\t// in\n    tag_621:\n        /* \"#utility.yul\":10390:10393   */\n      dup3\n        /* \"#utility.yul\":10383:10417   */\n      mstore\n        /* \"#utility.yul\":10373:10423   */\n      pop\n      pop\n      jump\t// out\n        /* \"#utility.yul\":10429:10538   */\n    tag_623:\n        /* \"#utility.yul\":10510:10531   */\n      tag_625\n        /* \"#utility.yul\":10525:10530   */\n      dup2\n        /* \"#utility.yul\":10510:10531   */\n      tag_622\n      jump\t// in\n    tag_625:\n        /* \"#utility.yul\":10505:10508   */\n      dup3\n        /* \"#utility.yul\":10498:10532   */\n      mstore\n        /* \"#utility.yul\":10488:10538   */\n      pop\n      pop\n      jump\t// out\n        /* \"#utility.yul\":10544:10888   */\n    tag_626:\n      0x00\n        /* \"#utility.yul\":10650:10689   */\n      tag_628\n        /* \"#utility.yul\":10683:10688   */\n      dup3\n        /* \"#utility.yul\":10650:10689   */\n      tag_629\n      jump\t// in\n    tag_628:\n        /* \"#utility.yul\":10705:10766   */\n      tag_630\n        /* \"#utility.yul\":10759:10765   */\n      dup2\n        /* \"#utility.yul\":10754:10757   */\n      dup6\n        /* \"#utility.yul\":10705:10766   */\n      tag_631\n      jump\t// in\n    tag_630:\n        /* \"#utility.yul\":10698:10766   */\n      swap4\n      pop\n        /* \"#utility.yul\":10775:10827   */\n      tag_632\n        /* \"#utility.yul\":10820:10826   */\n      dup2\n        /* \"#utility.yul\":10815:10818   */\n      dup6\n        /* \"#utility.yul\":10808:10812   */\n      0x20\n        /* \"#utility.yul\":10801:10806   */\n      dup7\n        /* \"#utility.yul\":10797:10813   */\n      add\n        /* \"#utility.yul\":10775:10827   */\n      tag_633\n      jump\t// in\n    tag_632:\n        /* \"#utility.yul\":10852:10881   */\n      tag_634\n        /* \"#utility.yul\":10874:10880   */\n      dup2\n        /* \"#utility.yul\":10852:10881   */\n      tag_635\n      jump\t// in\n    tag_634:\n        /* \"#utility.yul\":10847:10850   */\n      dup5\n        /* \"#utility.yul\":10843:10882   */\n      add\n        /* \"#utility.yul\":10836:10882   */\n      swap2\n      pop\n        /* \"#utility.yul\":10626:10888   */\n      pop\n      swap3\n      swap2\n      pop\n      pop\n      jump\t// out\n        /* \"#utility.yul\":10894:11258   */\n    tag_636:\n      0x00\n        /* \"#utility.yul\":11010:11049   */\n      tag_638\n        /* \"#utility.yul\":11043:11048   */\n      dup3\n        /* \"#utility.yul\":11010:11049   */\n      tag_629\n      jump\t// in\n    tag_638:\n        /* \"#utility.yul\":11065:11136   */\n      tag_639\n        /* \"#utility.yul\":11129:11135   */\n      dup2\n        /* \"#utility.yul\":11124:11127   */\n      dup6\n        /* \"#utility.yul\":11065:11136   */\n      tag_640\n      jump\t// in\n    tag_639:\n        /* \"#utility.yul\":11058:11136   */\n      swap4\n      pop\n        /* \"#utility.yul\":11145:11197   */\n      tag_641\n        /* \"#utility.yul\":11190:11196   */\n      dup2\n        /* \"#utility.yul\":11185:11188   */\n      dup6\n        /* \"#utility.yul\":11178:11182   */\n      0x20\n        /* \"#utility.yul\":11171:11176   */\n      dup7\n        /* \"#utility.yul\":11167:11183   */\n      add\n        /* \"#utility.yul\":11145:11197   */\n      tag_633\n      jump\t// in\n    tag_641:\n        /* \"#utility.yul\":11222:11251   */\n      tag_642\n        /* \"#utility.yul\":11244:11250   */\n      dup2\n        /* \"#utility.yul\":11222:11251   */\n      tag_635\n      jump\t// in\n    tag_642:\n        /* \"#utility.yul\":11217:11220   */\n      dup5\n        /* \"#utility.yul\":11213:11252   */\n      add\n        /* \"#utility.yul\":11206:11252   */\n      swap2\n      pop\n        /* \"#utility.yul\":10986:11258   */\n      pop\n      swap3\n      swap2\n      pop\n      pop\n      jump\t// out\n        /* \"#utility.yul\":11288:12225   */\n    tag_643:\n      0x00\n        /* \"#utility.yul\":11410:11415   */\n      dup2\n        /* \"#utility.yul\":11404:11416   */\n      sload\n        /* \"#utility.yul\":11447:11448   */\n      0x01\n        /* \"#utility.yul\":11436:11445   */\n      dup2\n        /* \"#utility.yul\":11432:11449   */\n      and\n        /* \"#utility.yul\":11463:11464   */\n      0x00\n        /* \"#utility.yul\":11458:11739   */\n      dup2\n      eq\n      tag_646\n      jumpi\n        /* \"#utility.yul\":11753:11754   */\n      0x01\n        /* \"#utility.yul\":11748:12219   */\n      dup2\n      eq\n      tag_647\n      jumpi\n        /* \"#utility.yul\":11425:12219   */\n      jump(tag_645)\n        /* \"#utility.yul\":11458:11739   */\n    tag_646:\n        /* \"#utility.yul\":11548:11552   */\n      0x7f\n        /* \"#utility.yul\":11544:11545   */\n      0x02\n        /* \"#utility.yul\":11533:11542   */\n      dup4\n        /* \"#utility.yul\":11529:11546   */\n      div\n        /* \"#utility.yul\":11525:11553   */\n      and\n        /* \"#utility.yul\":11573:11644   */\n      tag_648\n        /* \"#utility.yul\":11637:11643   */\n      dup2\n        /* \"#utility.yul\":11632:11635   */\n      dup8\n        /* \"#utility.yul\":11573:11644   */\n      tag_640\n      jump\t// in\n    tag_648:\n        /* \"#utility.yul\":11566:11644   */\n      swap6\n      pop\n        /* \"#utility.yul\":11688:11692   */\n      0xff\n        /* \"#utility.yul\":11684:11693   */\n      not\n        /* \"#utility.yul\":11673:11682   */\n      dup4\n        /* \"#utility.yul\":11669:11694   */\n      and\n        /* \"#utility.yul\":11664:11667   */\n      dup7\n        /* \"#utility.yul\":11657:11695   */\n      mstore\n        /* \"#utility.yul\":11724:11728   */\n      0x20\n        /* \"#utility.yul\":11719:11722   */\n      dup7\n        /* \"#utility.yul\":11715:11729   */\n      add\n        /* \"#utility.yul\":11708:11729   */\n      swap4\n      pop\n        /* \"#utility.yul\":11465:11739   */\n      pop\n        /* \"#utility.yul\":11458:11739   */\n      jump(tag_645)\n        /* \"#utility.yul\":11748:12219   */\n    tag_647:\n        /* \"#utility.yul\":11829:11830   */\n      0x02\n        /* \"#utility.yul\":11818:11827   */\n      dup3\n        /* \"#utility.yul\":11814:11831   */\n      div\n        /* \"#utility.yul\":11851:11922   */\n      tag_649\n        /* \"#utility.yul\":11915:11921   */\n      dup2\n        /* \"#utility.yul\":11910:11913   */\n      dup8\n        /* \"#utility.yul\":11851:11922   */\n      tag_640\n      jump\t// in\n    tag_649:\n        /* \"#utility.yul\":11844:11922   */\n      swap6\n      pop\n        /* \"#utility.yul\":11950:11988   */\n      tag_650\n        /* \"#utility.yul\":11982:11987   */\n      dup6\n        /* \"#utility.yul\":11950:11988   */\n      tag_651\n      jump\t// in\n    tag_650:\n        /* \"#utility.yul\":12010:12011   */\n      0x00\n        /* \"#utility.yul\":12024:12178   */\n    tag_652:\n        /* \"#utility.yul\":12038:12044   */\n      dup3\n        /* \"#utility.yul\":12035:12036   */\n      dup2\n        /* \"#utility.yul\":12032:12045   */\n      lt\n        /* \"#utility.yul\":12024:12178   */\n      iszero\n      tag_654\n      jumpi\n        /* \"#utility.yul\":12112:12119   */\n      dup2\n        /* \"#utility.yul\":12106:12120   */\n      sload\n        /* \"#utility.yul\":12102:12103   */\n      dup2\n        /* \"#utility.yul\":12097:12100   */\n      dup10\n        /* \"#utility.yul\":12093:12104   */\n      add\n        /* \"#utility.yul\":12086:12121   */\n      mstore\n        /* \"#utility.yul\":12162:12163   */\n      0x01\n        /* \"#utility.yul\":12153:12160   */\n      dup3\n        /* \"#utility.yul\":12149:12164   */\n      add\n        /* \"#utility.yul\":12138:12164   */\n      swap2\n      pop\n        /* \"#utility.yul\":12060:12064   */\n      0x20\n        /* \"#utility.yul\":12057:12058   */\n      dup2\n        /* \"#utility.yul\":12053:12065   */\n      add\n        /* \"#utility.yul\":12048:12065   */\n      swap1\n      pop\n        /* \"#utility.yul\":12024:12178   */\n      jump(tag_652)\n    tag_654:\n        /* \"#utility.yul\":12207:12208   */\n      dup1\n        /* \"#utility.yul\":12202:12205   */\n      dup9\n        /* \"#utility.yul\":12198:12209   */\n      add\n        /* \"#utility.yul\":12191:12209   */\n      swap6\n      pop\n        /* \"#utility.yul\":11755:12219   */\n      pop\n      pop\n      pop\n        /* \"#utility.yul\":11425:12219   */\n    tag_645:\n      pop\n        /* \"#utility.yul\":11377:12225   */\n      pop\n      swap3\n      swap2\n      pop\n      pop\n      jump\t// out\n        /* \"#utility.yul\":12231:12545   */\n    tag_655:\n      0x00\n        /* \"#utility.yul\":12394:12461   */\n      tag_657\n        /* \"#utility.yul\":12458:12460   */\n      0x10\n        /* \"#utility.yul\":12453:12456   */\n      dup4\n        /* \"#utility.yul\":12394:12461   */\n      tag_640\n      jump\t// in\n    tag_657:\n        /* \"#utility.yul\":12387:12461   */\n      swap2\n      pop\n        /* \"#utility.yul\":12491:12509   */\n      0x446f63746f72206e6f7420666f756e6400000000000000000000000000000000\n        /* \"#utility.yul\":12487:12488   */\n      0x00\n        /* \"#utility.yul\":12482:12485   */\n      dup4\n        /* \"#utility.yul\":12478:12489   */\n      add\n        /* \"#utility.yul\":12471:12510   */\n      mstore\n        /* \"#utility.yul\":12536:12538   */\n      0x20\n        /* \"#utility.yul\":12531:12534   */\n      dup3\n        /* \"#utility.yul\":12527:12539   */\n      add\n        /* \"#utility.yul\":12520:12539   */\n      swap1\n      pop\n        /* \"#utility.yul\":12377:12545   */\n      swap2\n      swap1\n      pop\n      jump\t// out\n        /* \"#utility.yul\":12551:12865   */\n    tag_658:\n      0x00\n        /* \"#utility.yul\":12714:12781   */\n      tag_660\n        /* \"#utility.yul\":12778:12780   */\n      0x10\n        /* \"#utility.yul\":12773:12776   */\n      dup4\n        /* \"#utility.yul\":12714:12781   */\n      tag_640\n      jump\t// in\n    tag_660:\n        /* \"#utility.yul\":12707:12781   */\n      swap2\n      pop\n        /* \"#utility.yul\":12811:12829   */\n      0x53656e736f72206e6f7420666f756e6400000000000000000000000000000000\n        /* \"#utility.yul\":12807:12808   */\n      0x00\n        /* \"#utility.yul\":12802:12805   */\n      dup4\n        /* \"#utility.yul\":12798:12809   */\n      add\n        /* \"#utility.yul\":12791:12830   */\n      mstore\n        /* \"#utility.yul\":12856:12858   */\n      0x20\n        /* \"#utility.yul\":12851:12854   */\n      dup3\n        /* \"#utility.yul\":12847:12859   */\n      add\n        /* \"#utility.yul\":12840:12859   */\n      swap1\n      pop\n        /* \"#utility.yul\":12697:12865   */\n      swap2\n      swap1\n      pop\n      jump\t// out\n        /* \"#utility.yul\":12871:13187   */\n    tag_661:\n      0x00\n        /* \"#utility.yul\":13034:13101   */\n      tag_663\n        /* \"#utility.yul\":13098:13100   */\n      0x12\n        /* \"#utility.yul\":13093:13096   */\n      dup4\n        /* \"#utility.yul\":13034:13101   */\n      tag_640\n      jump\t// in\n    tag_663:\n        /* \"#utility.yul\":13027:13101   */\n      swap2\n      pop\n        /* \"#utility.yul\":13131:13151   */\n      0x486f73706974616c206e6f7420666f756e640000000000000000000000000000\n        /* \"#utility.yul\":13127:13128   */\n      0x00\n        /* \"#utility.yul\":13122:13125   */\n      dup4\n        /* \"#utility.yul\":13118:13129   */\n      add\n        /* \"#utility.yul\":13111:13152   */\n      mstore\n        /* \"#utility.yul\":13178:13180   */\n      0x20\n        /* \"#utility.yul\":13173:13176   */\n      dup3\n        /* \"#utility.yul\":13169:13181   */\n      add\n        /* \"#utility.yul\":13162:13181   */\n      swap1\n      pop\n        /* \"#utility.yul\":13017:13187   */\n      swap2\n      swap1\n      pop\n      jump\t// out\n        /* \"#utility.yul\":13247:14199   */\n    tag_561:\n      0x00\n        /* \"#utility.yul\":13386:13390   */\n      0x80\n        /* \"#utility.yul\":13381:13384   */\n      dup4\n        /* \"#utility.yul\":13377:13391   */\n      add\n        /* \"#utility.yul\":13477:13481   */\n      0x00\n        /* \"#utility.yul\":13470:13475   */\n      dup4\n        /* \"#utility.yul\":13466:13482   */\n      add\n        /* \"#utility.yul\":13460:13483   */\n      mload\n        /* \"#utility.yul\":13496:13559   */\n      tag_665\n        /* \"#utility.yul\":13553:13557   */\n      0x00\n        /* \"#utility.yul\":13548:13551   */\n      dup7\n        /* \"#utility.yul\":13544:13558   */\n      add\n        /* \"#utility.yul\":13530:13542   */\n      dup3\n        /* \"#utility.yul\":13496:13559   */\n      tag_666\n      jump\t// in\n    tag_665:\n        /* \"#utility.yul\":13401:13569   */\n      pop\n        /* \"#utility.yul\":13657:13661   */\n      0x20\n        /* \"#utility.yul\":13650:13655   */\n      dup4\n        /* \"#utility.yul\":13646:13662   */\n      add\n        /* \"#utility.yul\":13640:13663   */\n      mload\n        /* \"#utility.yul\":13710:13713   */\n      dup5\n        /* \"#utility.yul\":13704:13708   */\n      dup3\n        /* \"#utility.yul\":13700:13714   */\n      sub\n        /* \"#utility.yul\":13693:13697   */\n      0x20\n        /* \"#utility.yul\":13688:13691   */\n      dup7\n        /* \"#utility.yul\":13684:13698   */\n      add\n        /* \"#utility.yul\":13677:13715   */\n      mstore\n        /* \"#utility.yul\":13736:13809   */\n      tag_667\n        /* \"#utility.yul\":13804:13808   */\n      dup3\n        /* \"#utility.yul\":13790:13802   */\n      dup3\n        /* \"#utility.yul\":13736:13809   */\n      tag_626\n      jump\t// in\n    tag_667:\n        /* \"#utility.yul\":13728:13809   */\n      swap2\n      pop\n        /* \"#utility.yul\":13579:13820   */\n      pop\n        /* \"#utility.yul\":13906:13910   */\n      0x40\n        /* \"#utility.yul\":13899:13904   */\n      dup4\n        /* \"#utility.yul\":13895:13911   */\n      add\n        /* \"#utility.yul\":13889:13912   */\n      mload\n        /* \"#utility.yul\":13925:13988   */\n      tag_668\n        /* \"#utility.yul\":13982:13986   */\n      0x40\n        /* \"#utility.yul\":13977:13980   */\n      dup7\n        /* \"#utility.yul\":13973:13987   */\n      add\n        /* \"#utility.yul\":13959:13971   */\n      dup3\n        /* \"#utility.yul\":13925:13988   */\n      tag_570\n      jump\t// in\n    tag_668:\n        /* \"#utility.yul\":13830:13998   */\n      pop\n        /* \"#utility.yul\":14086:14090   */\n      0x60\n        /* \"#utility.yul\":14079:14084   */\n      dup4\n        /* \"#utility.yul\":14075:14091   */\n      add\n        /* \"#utility.yul\":14069:14092   */\n      mload\n        /* \"#utility.yul\":14105:14162   */\n      tag_669\n        /* \"#utility.yul\":14156:14160   */\n      0x60\n        /* \"#utility.yul\":14151:14154   */\n      dup7\n        /* \"#utility.yul\":14147:14161   */\n      add\n        /* \"#utility.yul\":14133:14145   */\n      dup3\n        /* \"#utility.yul\":14105:14162   */\n      tag_619\n      jump\t// in\n    tag_669:\n        /* \"#utility.yul\":14008:14172   */\n      pop\n        /* \"#utility.yul\":14189:14193   */\n      dup1\n        /* \"#utility.yul\":14182:14193   */\n      swap2\n      pop\n        /* \"#utility.yul\":13355:14199   */\n      pop\n      swap3\n      swap2\n      pop\n      pop\n      jump\t// out\n        /* \"#utility.yul\":14263:15708   */\n    tag_565:\n      0x00\n        /* \"#utility.yul\":14406:14410   */\n      0xc0\n        /* \"#utility.yul\":14401:14404   */\n      dup4\n        /* \"#utility.yul\":14397:14411   */\n      add\n        /* \"#utility.yul\":14499:14503   */\n      0x00\n        /* \"#utility.yul\":14492:14497   */\n      dup4\n        /* \"#utility.yul\":14488:14504   */\n      add\n        /* \"#utility.yul\":14482:14505   */\n      mload\n        /* \"#utility.yul\":14518:14581   */\n      tag_671\n        /* \"#utility.yul\":14575:14579   */\n      0x00\n        /* \"#utility.yul\":14570:14573   */\n      dup7\n        /* \"#utility.yul\":14566:14580   */\n      add\n        /* \"#utility.yul\":14552:14564   */\n      dup3\n        /* \"#utility.yul\":14518:14581   */\n      tag_570\n      jump\t// in\n    tag_671:\n        /* \"#utility.yul\":14421:14591   */\n      pop\n        /* \"#utility.yul\":14673:14677   */\n      0x20\n        /* \"#utility.yul\":14666:14671   */\n      dup4\n        /* \"#utility.yul\":14662:14678   */\n      add\n        /* \"#utility.yul\":14656:14679   */\n      mload\n        /* \"#utility.yul\":14726:14729   */\n      dup5\n        /* \"#utility.yul\":14720:14724   */\n      dup3\n        /* \"#utility.yul\":14716:14730   */\n      sub\n        /* \"#utility.yul\":14709:14713   */\n      0x20\n        /* \"#utility.yul\":14704:14707   */\n      dup7\n        /* \"#utility.yul\":14700:14714   */\n      add\n        /* \"#utility.yul\":14693:14731   */\n      mstore\n        /* \"#utility.yul\":14752:14825   */\n      tag_672\n        /* \"#utility.yul\":14820:14824   */\n      dup3\n        /* \"#utility.yul\":14806:14818   */\n      dup3\n        /* \"#utility.yul\":14752:14825   */\n      tag_626\n      jump\t// in\n    tag_672:\n        /* \"#utility.yul\":14744:14825   */\n      swap2\n      pop\n        /* \"#utility.yul\":14601:14836   */\n      pop\n        /* \"#utility.yul\":14918:14922   */\n      0x40\n        /* \"#utility.yul\":14911:14916   */\n      dup4\n        /* \"#utility.yul\":14907:14923   */\n      add\n        /* \"#utility.yul\":14901:14924   */\n      mload\n        /* \"#utility.yul\":14971:14974   */\n      dup5\n        /* \"#utility.yul\":14965:14969   */\n      dup3\n        /* \"#utility.yul\":14961:14975   */\n      sub\n        /* \"#utility.yul\":14954:14958   */\n      0x40\n        /* \"#utility.yul\":14949:14952   */\n      dup7\n        /* \"#utility.yul\":14945:14959   */\n      add\n        /* \"#utility.yul\":14938:14976   */\n      mstore\n        /* \"#utility.yul\":14997:15070   */\n      tag_673\n        /* \"#utility.yul\":15065:15069   */\n      dup3\n        /* \"#utility.yul\":15051:15063   */\n      dup3\n        /* \"#utility.yul\":14997:15070   */\n      tag_626\n      jump\t// in\n    tag_673:\n        /* \"#utility.yul\":14989:15070   */\n      swap2\n      pop\n        /* \"#utility.yul\":14846:15081   */\n      pop\n        /* \"#utility.yul\":15164:15168   */\n      0x60\n        /* \"#utility.yul\":15157:15162   */\n      dup4\n        /* \"#utility.yul\":15153:15169   */\n      add\n        /* \"#utility.yul\":15147:15170   */\n      mload\n        /* \"#utility.yul\":15217:15220   */\n      dup5\n        /* \"#utility.yul\":15211:15215   */\n      dup3\n        /* \"#utility.yul\":15207:15221   */\n      sub\n        /* \"#utility.yul\":15200:15204   */\n      0x60\n        /* \"#utility.yul\":15195:15198   */\n      dup7\n        /* \"#utility.yul\":15191:15205   */\n      add\n        /* \"#utility.yul\":15184:15222   */\n      mstore\n        /* \"#utility.yul\":15243:15316   */\n      tag_674\n        /* \"#utility.yul\":15311:15315   */\n      dup3\n        /* \"#utility.yul\":15297:15309   */\n      dup3\n        /* \"#utility.yul\":15243:15316   */\n      tag_626\n      jump\t// in\n    tag_674:\n        /* \"#utility.yul\":15235:15316   */\n      swap2\n      pop\n        /* \"#utility.yul\":15091:15327   */\n      pop\n        /* \"#utility.yul\":15415:15419   */\n      0x80\n        /* \"#utility.yul\":15408:15413   */\n      dup4\n        /* \"#utility.yul\":15404:15420   */\n      add\n        /* \"#utility.yul\":15398:15421   */\n      mload\n        /* \"#utility.yul\":15434:15497   */\n      tag_675\n        /* \"#utility.yul\":15491:15495   */\n      0x80\n        /* \"#utility.yul\":15486:15489   */\n      dup7\n        /* \"#utility.yul\":15482:15496   */\n      add\n        /* \"#utility.yul\":15468:15480   */\n      dup3\n        /* \"#utility.yul\":15434:15497   */\n      tag_666\n      jump\t// in\n    tag_675:\n        /* \"#utility.yul\":15337:15507   */\n      pop\n        /* \"#utility.yul\":15595:15599   */\n      0xa0\n        /* \"#utility.yul\":15588:15593   */\n      dup4\n        /* \"#utility.yul\":15584:15600   */\n      add\n        /* \"#utility.yul\":15578:15601   */\n      mload\n        /* \"#utility.yul\":15614:15671   */\n      tag_676\n        /* \"#utility.yul\":15665:15669   */\n      0xa0\n        /* \"#utility.yul\":15660:15663   */\n      dup7\n        /* \"#utility.yul\":15656:15670   */\n      add\n        /* \"#utility.yul\":15642:15654   */\n      dup3\n        /* \"#utility.yul\":15614:15671   */\n      tag_619\n      jump\t// in\n    tag_676:\n        /* \"#utility.yul\":15517:15681   */\n      pop\n        /* \"#utility.yul\":15698:15702   */\n      dup1\n        /* \"#utility.yul\":15691:15702   */\n      swap2\n      pop\n        /* \"#utility.yul\":14375:15708   */\n      pop\n      swap3\n      swap2\n      pop\n      pop\n      jump\t// out\n        /* \"#utility.yul\":15768:16961   */\n    tag_569:\n      0x00\n        /* \"#utility.yul\":15907:15911   */\n      0xa0\n        /* \"#utility.yul\":15902:15905   */\n      dup4\n        /* \"#utility.yul\":15898:15912   */\n      add\n        /* \"#utility.yul\":15998:16002   */\n      0x00\n        /* \"#utility.yul\":15991:15996   */\n      dup4\n        /* \"#utility.yul\":15987:16003   */\n      add\n        /* \"#utility.yul\":15981:16004   */\n      mload\n        /* \"#utility.yul\":16017:16080   */\n      tag_678\n        /* \"#utility.yul\":16074:16078   */\n      0x00\n        /* \"#utility.yul\":16069:16072   */\n      dup7\n        /* \"#utility.yul\":16065:16079   */\n      add\n        /* \"#utility.yul\":16051:16063   */\n      dup3\n        /* \"#utility.yul\":16017:16080   */\n      tag_666\n      jump\t// in\n    tag_678:\n        /* \"#utility.yul\":15922:16090   */\n      pop\n        /* \"#utility.yul\":16171:16175   */\n      0x20\n        /* \"#utility.yul\":16164:16169   */\n      dup4\n        /* \"#utility.yul\":16160:16176   */\n      add\n        /* \"#utility.yul\":16154:16177   */\n      mload\n        /* \"#utility.yul\":16224:16227   */\n      dup5\n        /* \"#utility.yul\":16218:16222   */\n      dup3\n        /* \"#utility.yul\":16214:16228   */\n      sub\n        /* \"#utility.yul\":16207:16211   */\n      0x20\n        /* \"#utility.yul\":16202:16205   */\n      dup7\n        /* \"#utility.yul\":16198:16212   */\n      add\n        /* \"#utility.yul\":16191:16229   */\n      mstore\n        /* \"#utility.yul\":16250:16323   */\n      tag_679\n        /* \"#utility.yul\":16318:16322   */\n      dup3\n        /* \"#utility.yul\":16304:16316   */\n      dup3\n        /* \"#utility.yul\":16250:16323   */\n      tag_626\n      jump\t// in\n    tag_679:\n        /* \"#utility.yul\":16242:16323   */\n      swap2\n      pop\n        /* \"#utility.yul\":16100:16334   */\n      pop\n        /* \"#utility.yul\":16423:16427   */\n      0x40\n        /* \"#utility.yul\":16416:16421   */\n      dup4\n        /* \"#utility.yul\":16412:16428   */\n      add\n        /* \"#utility.yul\":16406:16429   */\n      mload\n        /* \"#utility.yul\":16476:16479   */\n      dup5\n        /* \"#utility.yul\":16470:16474   */\n      dup3\n        /* \"#utility.yul\":16466:16480   */\n      sub\n        /* \"#utility.yul\":16459:16463   */\n      0x40\n        /* \"#utility.yul\":16454:16457   */\n      dup7\n        /* \"#utility.yul\":16450:16464   */\n      add\n        /* \"#utility.yul\":16443:16481   */\n      mstore\n        /* \"#utility.yul\":16502:16575   */\n      tag_680\n        /* \"#utility.yul\":16570:16574   */\n      dup3\n        /* \"#utility.yul\":16556:16568   */\n      dup3\n        /* \"#utility.yul\":16502:16575   */\n      tag_626\n      jump\t// in\n    tag_680:\n        /* \"#utility.yul\":16494:16575   */\n      swap2\n      pop\n        /* \"#utility.yul\":16344:16586   */\n      pop\n        /* \"#utility.yul\":16672:16676   */\n      0x60\n        /* \"#utility.yul\":16665:16670   */\n      dup4\n        /* \"#utility.yul\":16661:16677   */\n      add\n        /* \"#utility.yul\":16655:16678   */\n      mload\n        /* \"#utility.yul\":16691:16754   */\n      tag_681\n        /* \"#utility.yul\":16748:16752   */\n      0x60\n        /* \"#utility.yul\":16743:16746   */\n      dup7\n        /* \"#utility.yul\":16739:16753   */\n      add\n        /* \"#utility.yul\":16725:16737   */\n      dup3\n        /* \"#utility.yul\":16691:16754   */\n      tag_666\n      jump\t// in\n    tag_681:\n        /* \"#utility.yul\":16596:16764   */\n      pop\n        /* \"#utility.yul\":16848:16852   */\n      0x80\n        /* \"#utility.yul\":16841:16846   */\n      dup4\n        /* \"#utility.yul\":16837:16853   */\n      add\n        /* \"#utility.yul\":16831:16854   */\n      mload\n        /* \"#utility.yul\":16867:16924   */\n      tag_682\n        /* \"#utility.yul\":16918:16922   */\n      0x80\n        /* \"#utility.yul\":16913:16916   */\n      dup7\n        /* \"#utility.yul\":16909:16923   */\n      add\n        /* \"#utility.yul\":16895:16907   */\n      dup3\n        /* \"#utility.yul\":16867:16924   */\n      tag_619\n      jump\t// in\n    tag_682:\n        /* \"#utility.yul\":16774:16934   */\n      pop\n        /* \"#utility.yul\":16951:16955   */\n      dup1\n        /* \"#utility.yul\":16944:16955   */\n      swap2\n      pop\n        /* \"#utility.yul\":15876:16961   */\n      pop\n      swap3\n      swap2\n      pop\n      pop\n      jump\t// out\n        /* \"#utility.yul\":16967:17075   */\n    tag_666:\n        /* \"#utility.yul\":17044:17068   */\n      tag_684\n        /* \"#utility.yul\":17062:17067   */\n      dup2\n        /* \"#utility.yul\":17044:17068   */\n      tag_685\n      jump\t// in\n    tag_684:\n        /* \"#utility.yul\":17039:17042   */\n      dup3\n        /* \"#utility.yul\":17032:17069   */\n      mstore\n        /* \"#utility.yul\":17022:17075   */\n      pop\n      pop\n      jump\t// out\n        /* \"#utility.yul\":17081:17199   */\n    tag_686:\n        /* \"#utility.yul\":17168:17192   */\n      tag_688\n        /* \"#utility.yul\":17186:17191   */\n      dup2\n        /* \"#utility.yul\":17168:17192   */\n      tag_685\n      jump\t// in\n    tag_688:\n        /* \"#utility.yul\":17163:17166   */\n      dup3\n        /* \"#utility.yul\":17156:17193   */\n      mstore\n        /* \"#utility.yul\":17146:17199   */\n      pop\n      pop\n      jump\t// out\n        /* \"#utility.yul\":17205:18241   */\n    tag_104:\n      0x00\n        /* \"#utility.yul\":17530:17533   */\n      0xc0\n        /* \"#utility.yul\":17519:17528   */\n      dup3\n        /* \"#utility.yul\":17515:17534   */\n      add\n        /* \"#utility.yul\":17507:17534   */\n      swap1\n      pop\n        /* \"#utility.yul\":17544:17615   */\n      tag_690\n        /* \"#utility.yul\":17612:17613   */\n      0x00\n        /* \"#utility.yul\":17601:17610   */\n      dup4\n        /* \"#utility.yul\":17597:17614   */\n      add\n        /* \"#utility.yul\":17588:17594   */\n      dup10\n        /* \"#utility.yul\":17544:17615   */\n      tag_574\n      jump\t// in\n    tag_690:\n        /* \"#utility.yul\":17662:17671   */\n      dup2\n        /* \"#utility.yul\":17656:17660   */\n      dup2\n        /* \"#utility.yul\":17652:17672   */\n      sub\n        /* \"#utility.yul\":17647:17649   */\n      0x20\n        /* \"#utility.yul\":17636:17645   */\n      dup4\n        /* \"#utility.yul\":17632:17650   */\n      add\n        /* \"#utility.yul\":17625:17673   */\n      mstore\n        /* \"#utility.yul\":17690:17768   */\n      tag_691\n        /* \"#utility.yul\":17763:17767   */\n      dup2\n        /* \"#utility.yul\":17754:17760   */\n      dup9\n        /* \"#utility.yul\":17690:17768   */\n      tag_636\n      jump\t// in\n    tag_691:\n        /* \"#utility.yul\":17682:17768   */\n      swap1\n      pop\n        /* \"#utility.yul\":17815:17824   */\n      dup2\n        /* \"#utility.yul\":17809:17813   */\n      dup2\n        /* \"#utility.yul\":17805:17825   */\n      sub\n        /* \"#utility.yul\":17800:17802   */\n      0x40\n        /* \"#utility.yul\":17789:17798   */\n      dup4\n        /* \"#utility.yul\":17785:17803   */\n      add\n        /* \"#utility.yul\":17778:17826   */\n      mstore\n        /* \"#utility.yul\":17843:17921   */\n      tag_692\n        /* \"#utility.yul\":17916:17920   */\n      dup2\n        /* \"#utility.yul\":17907:17913   */\n      dup8\n        /* \"#utility.yul\":17843:17921   */\n      tag_636\n      jump\t// in\n    tag_692:\n        /* \"#utility.yul\":17835:17921   */\n      swap1\n      pop\n        /* \"#utility.yul\":17968:17977   */\n      dup2\n        /* \"#utility.yul\":17962:17966   */\n      dup2\n        /* \"#utility.yul\":17958:17978   */\n      sub\n        /* \"#utility.yul\":17953:17955   */\n      0x60\n        /* \"#utility.yul\":17942:17951   */\n      dup4\n        /* \"#utility.yul\":17938:17956   */\n      add\n        /* \"#utility.yul\":17931:17979   */\n      mstore\n        /* \"#utility.yul\":17996:18074   */\n      tag_693\n        /* \"#utility.yul\":18069:18073   */\n      dup2\n        /* \"#utility.yul\":18060:18066   */\n      dup7\n        /* \"#utility.yul\":17996:18074   */\n      tag_636\n      jump\t// in\n    tag_693:\n        /* \"#utility.yul\":17988:18074   */\n      swap1\n      pop\n        /* \"#utility.yul\":18084:18157   */\n      tag_694\n        /* \"#utility.yul\":18152:18155   */\n      0x80\n        /* \"#utility.yul\":18141:18150   */\n      dup4\n        /* \"#utility.yul\":18137:18156   */\n      add\n        /* \"#utility.yul\":18128:18134   */\n      dup6\n        /* \"#utility.yul\":18084:18157   */\n      tag_686\n      jump\t// in\n    tag_694:\n        /* \"#utility.yul\":18167:18234   */\n      tag_695\n        /* \"#utility.yul\":18229:18232   */\n      0xa0\n        /* \"#utility.yul\":18218:18227   */\n      dup4\n        /* \"#utility.yul\":18214:18233   */\n      add\n        /* \"#utility.yul\":18205:18211   */\n      dup5\n        /* \"#utility.yul\":18167:18234   */\n      tag_623\n      jump\t// in\n    tag_695:\n        /* \"#utility.yul\":17497:18241   */\n      swap8\n      swap7\n      pop\n      pop\n      pop\n      pop\n      pop\n      pop\n      pop\n      jump\t// out\n        /* \"#utility.yul\":18247:19166   */\n    tag_195:\n      0x00\n        /* \"#utility.yul\":18541:18544   */\n      0xa0\n        /* \"#utility.yul\":18530:18539   */\n      dup3\n        /* \"#utility.yul\":18526:18545   */\n      add\n        /* \"#utility.yul\":18518:18545   */\n      swap1\n      pop\n        /* \"#utility.yul\":18555:18626   */\n      tag_697\n        /* \"#utility.yul\":18623:18624   */\n      0x00\n        /* \"#utility.yul\":18612:18621   */\n      dup4\n        /* \"#utility.yul\":18608:18625   */\n      add\n        /* \"#utility.yul\":18599:18605   */\n      dup9\n        /* \"#utility.yul\":18555:18626   */\n      tag_574\n      jump\t// in\n    tag_697:\n        /* \"#utility.yul\":18673:18682   */\n      dup2\n        /* \"#utility.yul\":18667:18671   */\n      dup2\n        /* \"#utility.yul\":18663:18683   */\n      sub\n        /* \"#utility.yul\":18658:18660   */\n      0x20\n        /* \"#utility.yul\":18647:18656   */\n      dup4\n        /* \"#utility.yul\":18643:18661   */\n      add\n        /* \"#utility.yul\":18636:18684   */\n      mstore\n        /* \"#utility.yul\":18701:18776   */\n      tag_698\n        /* \"#utility.yul\":18771:18775   */\n      dup2\n        /* \"#utility.yul\":18762:18768   */\n      dup8\n        /* \"#utility.yul\":18701:18776   */\n      tag_643\n      jump\t// in\n    tag_698:\n        /* \"#utility.yul\":18693:18776   */\n      swap1\n      pop\n        /* \"#utility.yul\":18823:18832   */\n      dup2\n        /* \"#utility.yul\":18817:18821   */\n      dup2\n        /* \"#utility.yul\":18813:18833   */\n      sub\n        /* \"#utility.yul\":18808:18810   */\n      0x40\n        /* \"#utility.yul\":18797:18806   */\n      dup4\n        /* \"#utility.yul\":18793:18811   */\n      add\n        /* \"#utility.yul\":18786:18834   */\n      mstore\n        /* \"#utility.yul\":18851:18926   */\n      tag_699\n        /* \"#utility.yul\":18921:18925   */\n      dup2\n        /* \"#utility.yul\":18912:18918   */\n      dup7\n        /* \"#utility.yul\":18851:18926   */\n      tag_643\n      jump\t// in\n    tag_699:\n        /* \"#utility.yul\":18843:18926   */\n      swap1\n      pop\n        /* \"#utility.yul\":18973:18982   */\n      dup2\n        /* \"#utility.yul\":18967:18971   */\n      dup2\n        /* \"#utility.yul\":18963:18983   */\n      sub\n        /* \"#utility.yul\":18958:18960   */\n      0x60\n        /* \"#utility.yul\":18947:18956   */\n      dup4\n        /* \"#utility.yul\":18943:18961   */\n      add\n        /* \"#utility.yul\":18936:18984   */\n      mstore\n        /* \"#utility.yul\":19001:19076   */\n      tag_700\n        /* \"#utility.yul\":19071:19075   */\n      dup2\n        /* \"#utility.yul\":19062:19068   */\n      dup6\n        /* \"#utility.yul\":19001:19076   */\n      tag_643\n      jump\t// in\n    tag_700:\n        /* \"#utility.yul\":18993:19076   */\n      swap1\n      pop\n        /* \"#utility.yul\":19086:19159   */\n      tag_701\n        /* \"#utility.yul\":19154:19157   */\n      0x80\n        /* \"#utility.yul\":19143:19152   */\n      dup4\n        /* \"#utility.yul\":19139:19158   */\n      add\n        /* \"#utility.yul\":19130:19136   */\n      dup5\n        /* \"#utility.yul\":19086:19159   */\n      tag_686\n      jump\t// in\n    tag_701:\n        /* \"#utility.yul\":18508:19166   */\n      swap7\n      swap6\n      pop\n      pop\n      pop\n      pop\n      pop\n      pop\n      jump\t// out\n        /* \"#utility.yul\":19172:20190   */\n    tag_219:\n      0x00\n        /* \"#utility.yul\":19488:19491   */\n      0xc0\n        /* \"#utility.yul\":19477:19486   */\n      dup3\n        /* \"#utility.yul\":19473:19492   */\n      add\n        /* \"#utility.yul\":19465:19492   */\n      swap1\n      pop\n        /* \"#utility.yul\":19502:19573   */\n      tag_703\n        /* \"#utility.yul\":19570:19571   */\n      0x00\n        /* \"#utility.yul\":19559:19568   */\n      dup4\n        /* \"#utility.yul\":19555:19572   */\n      add\n        /* \"#utility.yul\":19546:19552   */\n      dup10\n        /* \"#utility.yul\":19502:19573   */\n      tag_574\n      jump\t// in\n    tag_703:\n        /* \"#utility.yul\":19620:19629   */\n      dup2\n        /* \"#utility.yul\":19614:19618   */\n      dup2\n        /* \"#utility.yul\":19610:19630   */\n      sub\n        /* \"#utility.yul\":19605:19607   */\n      0x20\n        /* \"#utility.yul\":19594:19603   */\n      dup4\n        /* \"#utility.yul\":19590:19608   */\n      add\n        /* \"#utility.yul\":19583:19631   */\n      mstore\n        /* \"#utility.yul\":19648:19723   */\n      tag_704\n        /* \"#utility.yul\":19718:19722   */\n      dup2\n        /* \"#utility.yul\":19709:19715   */\n      dup9\n        /* \"#utility.yul\":19648:19723   */\n      tag_643\n      jump\t// in\n    tag_704:\n        /* \"#utility.yul\":19640:19723   */\n      swap1\n      pop\n        /* \"#utility.yul\":19770:19779   */\n      dup2\n        /* \"#utility.yul\":19764:19768   */\n      dup2\n        /* \"#utility.yul\":19760:19780   */\n      sub\n        /* \"#utility.yul\":19755:19757   */\n      0x40\n        /* \"#utility.yul\":19744:19753   */\n      dup4\n        /* \"#utility.yul\":19740:19758   */\n      add\n        /* \"#utility.yul\":19733:19781   */\n      mstore\n        /* \"#utility.yul\":19798:19873   */\n      tag_705\n        /* \"#utility.yul\":19868:19872   */\n      dup2\n        /* \"#utility.yul\":19859:19865   */\n      dup8\n        /* \"#utility.yul\":19798:19873   */\n      tag_643\n      jump\t// in\n    tag_705:\n        /* \"#utility.yul\":19790:19873   */\n      swap1\n      pop\n        /* \"#utility.yul\":19920:19929   */\n      dup2\n        /* \"#utility.yul\":19914:19918   */\n      dup2\n        /* \"#utility.yul\":19910:19930   */\n      sub\n        /* \"#utility.yul\":19905:19907   */\n      0x60\n        /* \"#utility.yul\":19894:19903   */\n      dup4\n        /* \"#utility.yul\":19890:19908   */\n      add\n        /* \"#utility.yul\":19883:19931   */\n      mstore\n        /* \"#utility.yul\":19948:20023   */\n      tag_706\n        /* \"#utility.yul\":20018:20022   */\n      dup2\n        /* \"#utility.yul\":20009:20015   */\n      dup7\n        /* \"#utility.yul\":19948:20023   */\n      tag_643\n      jump\t// in\n    tag_706:\n        /* \"#utility.yul\":19940:20023   */\n      swap1\n      pop\n        /* \"#utility.yul\":20033:20106   */\n      tag_707\n        /* \"#utility.yul\":20101:20104   */\n      0x80\n        /* \"#utility.yul\":20090:20099   */\n      dup4\n        /* \"#utility.yul\":20086:20105   */\n      add\n        /* \"#utility.yul\":20077:20083   */\n      dup6\n        /* \"#utility.yul\":20033:20106   */\n      tag_686\n      jump\t// in\n    tag_707:\n        /* \"#utility.yul\":20116:20183   */\n      tag_708\n        /* \"#utility.yul\":20178:20181   */\n      0xa0\n        /* \"#utility.yul\":20167:20176   */\n      dup4\n        /* \"#utility.yul\":20163:20182   */\n      add\n        /* \"#utility.yul\":20154:20160   */\n      dup5\n        /* \"#utility.yul\":20116:20183   */\n      tag_623\n      jump\t// in\n    tag_708:\n        /* \"#utility.yul\":19455:20190   */\n      swap8\n      swap7\n      pop\n      pop\n      pop\n      pop\n      pop\n      pop\n      pop\n      jump\t// out\n        /* \"#utility.yul\":20196:20657   */\n    tag_120:\n      0x00\n        /* \"#utility.yul\":20421:20423   */\n      0x20\n        /* \"#utility.yul\":20410:20419   */\n      dup3\n        /* \"#utility.yul\":20406:20424   */\n      add\n        /* \"#utility.yul\":20398:20424   */\n      swap1\n      pop\n        /* \"#utility.yul\":20470:20479   */\n      dup2\n        /* \"#utility.yul\":20464:20468   */\n      dup2\n        /* \"#utility.yul\":20460:20480   */\n      sub\n        /* \"#utility.yul\":20456:20457   */\n      0x00\n        /* \"#utility.yul\":20445:20454   */\n      dup4\n        /* \"#utility.yul\":20441:20458   */\n      add\n        /* \"#utility.yul\":20434:20481   */\n      mstore\n        /* \"#utility.yul\":20498:20650   */\n      tag_710\n        /* \"#utility.yul\":20645:20649   */\n      dup2\n        /* \"#utility.yul\":20636:20642   */\n      dup5\n        /* \"#utility.yul\":20498:20650   */\n      tag_577\n      jump\t// in\n    tag_710:\n        /* \"#utility.yul\":20490:20650   */\n      swap1\n      pop\n        /* \"#utility.yul\":20388:20657   */\n      swap3\n      swap2\n      pop\n      pop\n      jump\t// out\n        /* \"#utility.yul\":20663:21132   */\n    tag_64:\n      0x00\n        /* \"#utility.yul\":20892:20894   */\n      0x20\n        /* \"#utility.yul\":20881:20890   */\n      dup3\n        /* \"#utility.yul\":20877:20895   */\n      add\n        /* \"#utility.yul\":20869:20895   */\n      swap1\n      pop\n        /* \"#utility.yul\":20941:20950   */\n      dup2\n        /* \"#utility.yul\":20935:20939   */\n      dup2\n        /* \"#utility.yul\":20931:20951   */\n      sub\n        /* \"#utility.yul\":20927:20928   */\n      0x00\n        /* \"#utility.yul\":20916:20925   */\n      dup4\n        /* \"#utility.yul\":20912:20929   */\n      add\n        /* \"#utility.yul\":20905:20952   */\n      mstore\n        /* \"#utility.yul\":20969:21125   */\n      tag_712\n        /* \"#utility.yul\":21120:21124   */\n      dup2\n        /* \"#utility.yul\":21111:21117   */\n      dup5\n        /* \"#utility.yul\":20969:21125   */\n      tag_591\n      jump\t// in\n    tag_712:\n        /* \"#utility.yul\":20961:21125   */\n      swap1\n      pop\n        /* \"#utility.yul\":20859:21132   */\n      swap3\n      swap2\n      pop\n      pop\n      jump\t// out\n        /* \"#utility.yul\":21138:21599   */\n    tag_68:\n      0x00\n        /* \"#utility.yul\":21363:21365   */\n      0x20\n        /* \"#utility.yul\":21352:21361   */\n      dup3\n        /* \"#utility.yul\":21348:21366   */\n      add\n        /* \"#utility.yul\":21340:21366   */\n      swap1\n      pop\n        /* \"#utility.yul\":21412:21421   */\n      dup2\n        /* \"#utility.yul\":21406:21410   */\n      dup2\n        /* \"#utility.yul\":21402:21422   */\n      sub\n        /* \"#utility.yul\":21398:21399   */\n      0x00\n        /* \"#utility.yul\":21387:21396   */\n      dup4\n        /* \"#utility.yul\":21383:21400   */\n      add\n        /* \"#utility.yul\":21376:21423   */\n      mstore\n        /* \"#utility.yul\":21440:21592   */\n      tag_714\n        /* \"#utility.yul\":21587:21591   */\n      dup2\n        /* \"#utility.yul\":21578:21584   */\n      dup5\n        /* \"#utility.yul\":21440:21592   */\n      tag_605\n      jump\t// in\n    tag_714:\n        /* \"#utility.yul\":21432:21592   */\n      swap1\n      pop\n        /* \"#utility.yul\":21330:21599   */\n      swap3\n      swap2\n      pop\n      pop\n      jump\t// out\n        /* \"#utility.yul\":21605:22126   */\n    tag_44:\n      0x00\n        /* \"#utility.yul\":21806:21808   */\n      0x60\n        /* \"#utility.yul\":21795:21804   */\n      dup3\n        /* \"#utility.yul\":21791:21809   */\n      add\n        /* \"#utility.yul\":21783:21809   */\n      swap1\n      pop\n        /* \"#utility.yul\":21855:21864   */\n      dup2\n        /* \"#utility.yul\":21849:21853   */\n      dup2\n        /* \"#utility.yul\":21845:21865   */\n      sub\n        /* \"#utility.yul\":21841:21842   */\n      0x00\n        /* \"#utility.yul\":21830:21839   */\n      dup4\n        /* \"#utility.yul\":21826:21843   */\n      add\n        /* \"#utility.yul\":21819:21866   */\n      mstore\n        /* \"#utility.yul\":21883:21961   */\n      tag_716\n        /* \"#utility.yul\":21956:21960   */\n      dup2\n        /* \"#utility.yul\":21947:21953   */\n      dup7\n        /* \"#utility.yul\":21883:21961   */\n      tag_636\n      jump\t// in\n    tag_716:\n        /* \"#utility.yul\":21875:21961   */\n      swap1\n      pop\n        /* \"#utility.yul\":21971:22043   */\n      tag_717\n        /* \"#utility.yul\":22039:22041   */\n      0x20\n        /* \"#utility.yul\":22028:22037   */\n      dup4\n        /* \"#utility.yul\":22024:22042   */\n      add\n        /* \"#utility.yul\":22015:22021   */\n      dup6\n        /* \"#utility.yul\":21971:22043   */\n      tag_574\n      jump\t// in\n    tag_717:\n        /* \"#utility.yul\":22053:22119   */\n      tag_718\n        /* \"#utility.yul\":22115:22117   */\n      0x40\n        /* \"#utility.yul\":22104:22113   */\n      dup4\n        /* \"#utility.yul\":22100:22118   */\n      add\n        /* \"#utility.yul\":22091:22097   */\n      dup5\n        /* \"#utility.yul\":22053:22119   */\n      tag_623\n      jump\t// in\n    tag_718:\n        /* \"#utility.yul\":21773:22126   */\n      swap5\n      swap4\n      pop\n      pop\n      pop\n      pop\n      jump\t// out\n        /* \"#utility.yul\":22132:23057   */\n    tag_93:\n      0x00\n        /* \"#utility.yul\":22429:22432   */\n      0xa0\n        /* \"#utility.yul\":22418:22427   */\n      dup3\n        /* \"#utility.yul\":22414:22433   */\n      add\n        /* \"#utility.yul\":22406:22433   */\n      swap1\n      pop\n        /* \"#utility.yul\":22479:22488   */\n      dup2\n        /* \"#utility.yul\":22473:22477   */\n      dup2\n        /* \"#utility.yul\":22469:22489   */\n      sub\n        /* \"#utility.yul\":22465:22466   */\n      0x00\n        /* \"#utility.yul\":22454:22463   */\n      dup4\n        /* \"#utility.yul\":22450:22467   */\n      add\n        /* \"#utility.yul\":22443:22490   */\n      mstore\n        /* \"#utility.yul\":22507:22585   */\n      tag_720\n        /* \"#utility.yul\":22580:22584   */\n      dup2\n        /* \"#utility.yul\":22571:22577   */\n      dup9\n        /* \"#utility.yul\":22507:22585   */\n      tag_636\n      jump\t// in\n    tag_720:\n        /* \"#utility.yul\":22499:22585   */\n      swap1\n      pop\n        /* \"#utility.yul\":22632:22641   */\n      dup2\n        /* \"#utility.yul\":22626:22630   */\n      dup2\n        /* \"#utility.yul\":22622:22642   */\n      sub\n        /* \"#utility.yul\":22617:22619   */\n      0x20\n        /* \"#utility.yul\":22606:22615   */\n      dup4\n        /* \"#utility.yul\":22602:22620   */\n      add\n        /* \"#utility.yul\":22595:22643   */\n      mstore\n        /* \"#utility.yul\":22660:22738   */\n      tag_721\n        /* \"#utility.yul\":22733:22737   */\n      dup2\n        /* \"#utility.yul\":22724:22730   */\n      dup8\n        /* \"#utility.yul\":22660:22738   */\n      tag_636\n      jump\t// in\n    tag_721:\n        /* \"#utility.yul\":22652:22738   */\n      swap1\n      pop\n        /* \"#utility.yul\":22785:22794   */\n      dup2\n        /* \"#utility.yul\":22779:22783   */\n      dup2\n        /* \"#utility.yul\":22775:22795   */\n      sub\n        /* \"#utility.yul\":22770:22772   */\n      0x40\n        /* \"#utility.yul\":22759:22768   */\n      dup4\n        /* \"#utility.yul\":22755:22773   */\n      add\n        /* \"#utility.yul\":22748:22796   */\n      mstore\n        /* \"#utility.yul\":22813:22891   */\n      tag_722\n        /* \"#utility.yul\":22886:22890   */\n      dup2\n        /* \"#utility.yul\":22877:22883   */\n      dup7\n        /* \"#utility.yul\":22813:22891   */\n      tag_636\n      jump\t// in\n    tag_722:\n        /* \"#utility.yul\":22805:22891   */\n      swap1\n      pop\n        /* \"#utility.yul\":22901:22973   */\n      tag_723\n        /* \"#utility.yul\":22969:22971   */\n      0x60\n        /* \"#utility.yul\":22958:22967   */\n      dup4\n        /* \"#utility.yul\":22954:22972   */\n      add\n        /* \"#utility.yul\":22945:22951   */\n      dup6\n        /* \"#utility.yul\":22901:22973   */\n      tag_686\n      jump\t// in\n    tag_723:\n        /* \"#utility.yul\":22983:23050   */\n      tag_724\n        /* \"#utility.yul\":23045:23048   */\n      0x80\n        /* \"#utility.yul\":23034:23043   */\n      dup4\n        /* \"#utility.yul\":23030:23049   */\n      add\n        /* \"#utility.yul\":23021:23027   */\n      dup5\n        /* \"#utility.yul\":22983:23050   */\n      tag_623\n      jump\t// in\n    tag_724:\n        /* \"#utility.yul\":22396:23057   */\n      swap7\n      swap6\n      pop\n      pop\n      pop\n      pop\n      pop\n      pop\n      jump\t// out\n        /* \"#utility.yul\":23063:23786   */\n    tag_39:\n      0x00\n        /* \"#utility.yul\":23312:23315   */\n      0x80\n        /* \"#utility.yul\":23301:23310   */\n      dup3\n        /* \"#utility.yul\":23297:23316   */\n      add\n        /* \"#utility.yul\":23289:23316   */\n      swap1\n      pop\n        /* \"#utility.yul\":23362:23371   */\n      dup2\n        /* \"#utility.yul\":23356:23360   */\n      dup2\n        /* \"#utility.yul\":23352:23372   */\n      sub\n        /* \"#utility.yul\":23348:23349   */\n      0x00\n        /* \"#utility.yul\":23337:23346   */\n      dup4\n        /* \"#utility.yul\":23333:23350   */\n      add\n        /* \"#utility.yul\":23326:23373   */\n      mstore\n        /* \"#utility.yul\":23390:23468   */\n      tag_726\n        /* \"#utility.yul\":23463:23467   */\n      dup2\n        /* \"#utility.yul\":23454:23460   */\n      dup8\n        /* \"#utility.yul\":23390:23468   */\n      tag_636\n      jump\t// in\n    tag_726:\n        /* \"#utility.yul\":23382:23468   */\n      swap1\n      pop\n        /* \"#utility.yul\":23515:23524   */\n      dup2\n        /* \"#utility.yul\":23509:23513   */\n      dup2\n        /* \"#utility.yul\":23505:23525   */\n      sub\n        /* \"#utility.yul\":23500:23502   */\n      0x20\n        /* \"#utility.yul\":23489:23498   */\n      dup4\n        /* \"#utility.yul\":23485:23503   */\n      add\n        /* \"#utility.yul\":23478:23526   */\n      mstore\n        /* \"#utility.yul\":23543:23621   */\n      tag_727\n        /* \"#utility.yul\":23616:23620   */\n      dup2\n        /* \"#utility.yul\":23607:23613   */\n      dup7\n        /* \"#utility.yul\":23543:23621   */\n      tag_636\n      jump\t// in\n    tag_727:\n        /* \"#utility.yul\":23535:23621   */\n      swap1\n      pop\n        /* \"#utility.yul\":23631:23703   */\n      tag_728\n        /* \"#utility.yul\":23699:23701   */\n      0x40\n        /* \"#utility.yul\":23688:23697   */\n      dup4\n        /* \"#utility.yul\":23684:23702   */\n      add\n        /* \"#utility.yul\":23675:23681   */\n      dup6\n        /* \"#utility.yul\":23631:23703   */\n      tag_686\n      jump\t// in\n    tag_728:\n        /* \"#utility.yul\":23713:23779   */\n      tag_729\n        /* \"#utility.yul\":23775:23777   */\n      0x60\n        /* \"#utility.yul\":23764:23773   */\n      dup4\n        /* \"#utility.yul\":23760:23778   */\n      add\n        /* \"#utility.yul\":23751:23757   */\n      dup5\n        /* \"#utility.yul\":23713:23779   */\n      tag_623\n      jump\t// in\n    tag_729:\n        /* \"#utility.yul\":23279:23786   */\n      swap6\n      swap5\n      pop\n      pop\n      pop\n      pop\n      pop\n      jump\t// out\n        /* \"#utility.yul\":23792:24211   */\n    tag_470:\n      0x00\n        /* \"#utility.yul\":23996:23998   */\n      0x20\n        /* \"#utility.yul\":23985:23994   */\n      dup3\n        /* \"#utility.yul\":23981:23999   */\n      add\n        /* \"#utility.yul\":23973:23999   */\n      swap1\n      pop\n        /* \"#utility.yul\":24045:24054   */\n      dup2\n        /* \"#utility.yul\":24039:24043   */\n      dup2\n        /* \"#utility.yul\":24035:24055   */\n      sub\n        /* \"#utility.yul\":24031:24032   */\n      0x00\n        /* \"#utility.yul\":24020:24029   */\n      dup4\n        /* \"#utility.yul\":24016:24033   */\n      add\n        /* \"#utility.yul\":24009:24056   */\n      mstore\n        /* \"#utility.yul\":24073:24204   */\n      tag_731\n        /* \"#utility.yul\":24199:24203   */\n      dup2\n        /* \"#utility.yul\":24073:24204   */\n      tag_655\n      jump\t// in\n    tag_731:\n        /* \"#utility.yul\":24065:24204   */\n      swap1\n      pop\n        /* \"#utility.yul\":23963:24211   */\n      swap2\n      swap1\n      pop\n      jump\t// out\n        /* \"#utility.yul\":24217:24636   */\n    tag_461:\n      0x00\n        /* \"#utility.yul\":24421:24423   */\n      0x20\n        /* \"#utility.yul\":24410:24419   */\n      dup3\n        /* \"#utility.yul\":24406:24424   */\n      add\n        /* \"#utility.yul\":24398:24424   */\n      swap1\n      pop\n        /* \"#utility.yul\":24470:24479   */\n      dup2\n        /* \"#utility.yul\":24464:24468   */\n      dup2\n        /* \"#utility.yul\":24460:24480   */\n      sub\n        /* \"#utility.yul\":24456:24457   */\n      0x00\n        /* \"#utility.yul\":24445:24454   */\n      dup4\n        /* \"#utility.yul\":24441:24458   */\n      add\n        /* \"#utility.yul\":24434:24481   */\n      mstore\n        /* \"#utility.yul\":24498:24629   */\n      tag_733\n        /* \"#utility.yul\":24624:24628   */\n      dup2\n        /* \"#utility.yul\":24498:24629   */\n      tag_658\n      jump\t// in\n    tag_733:\n        /* \"#utility.yul\":24490:24629   */\n      swap1\n      pop\n        /* \"#utility.yul\":24388:24636   */\n      swap2\n      swap1\n      pop\n      jump\t// out\n        /* \"#utility.yul\":24642:25061   */\n    tag_479:\n      0x00\n        /* \"#utility.yul\":24846:24848   */\n      0x20\n        /* \"#utility.yul\":24835:24844   */\n      dup3\n        /* \"#utility.yul\":24831:24849   */\n      add\n        /* \"#utility.yul\":24823:24849   */\n      swap1\n      pop\n        /* \"#utility.yul\":24895:24904   */\n      dup2\n        /* \"#utility.yul\":24889:24893   */\n      dup2\n        /* \"#utility.yul\":24885:24905   */\n      sub\n        /* \"#utility.yul\":24881:24882   */\n      0x00\n        /* \"#utility.yul\":24870:24879   */\n      dup4\n        /* \"#utility.yul\":24866:24883   */\n      add\n        /* \"#utility.yul\":24859:24906   */\n      mstore\n        /* \"#utility.yul\":24923:25054   */\n      tag_735\n        /* \"#utility.yul\":25049:25053   */\n      dup2\n        /* \"#utility.yul\":24923:25054   */\n      tag_661\n      jump\t// in\n    tag_735:\n        /* \"#utility.yul\":24915:25054   */\n      swap1\n      pop\n        /* \"#utility.yul\":24813:25061   */\n      swap2\n      swap1\n      pop\n      jump\t// out\n        /* \"#utility.yul\":25067:25289   */\n    tag_52:\n      0x00\n        /* \"#utility.yul\":25198:25200   */\n      0x20\n        /* \"#utility.yul\":25187:25196   */\n      dup3\n        /* \"#utility.yul\":25183:25201   */\n      add\n        /* \"#utility.yul\":25175:25201   */\n      swap1\n      pop\n        /* \"#utility.yul\":25211:25282   */\n      tag_737\n        /* \"#utility.yul\":25279:25280   */\n      0x00\n        /* \"#utility.yul\":25268:25277   */\n      dup4\n        /* \"#utility.yul\":25264:25281   */\n      add\n        /* \"#utility.yul\":25255:25261   */\n      dup5\n        /* \"#utility.yul\":25211:25282   */\n      tag_686\n      jump\t// in\n    tag_737:\n        /* \"#utility.yul\":25165:25289   */\n      swap3\n      swap2\n      pop\n      pop\n      jump\t// out\n        /* \"#utility.yul\":25295:25927   */\n    tag_88:\n      0x00\n        /* \"#utility.yul\":25524:25527   */\n      0x80\n        /* \"#utility.yul\":25513:25522   */\n      dup3\n        /* \"#utility.yul\":25509:25528   */\n      add\n        /* \"#utility.yul\":25501:25528   */\n      swap1\n      pop\n        /* \"#utility.yul\":25538:25609   */\n      tag_739\n        /* \"#utility.yul\":25606:25607   */\n      0x00\n        /* \"#utility.yul\":25595:25604   */\n      dup4\n        /* \"#utility.yul\":25591:25608   */\n      add\n        /* \"#utility.yul\":25582:25588   */\n      dup8\n        /* \"#utility.yul\":25538:25609   */\n      tag_686\n      jump\t// in\n    tag_739:\n        /* \"#utility.yul\":25656:25665   */\n      dup2\n        /* \"#utility.yul\":25650:25654   */\n      dup2\n        /* \"#utility.yul\":25646:25666   */\n      sub\n        /* \"#utility.yul\":25641:25643   */\n      0x20\n        /* \"#utility.yul\":25630:25639   */\n      dup4\n        /* \"#utility.yul\":25626:25644   */\n      add\n        /* \"#utility.yul\":25619:25667   */\n      mstore\n        /* \"#utility.yul\":25684:25762   */\n      tag_740\n        /* \"#utility.yul\":25757:25761   */\n      dup2\n        /* \"#utility.yul\":25748:25754   */\n      dup7\n        /* \"#utility.yul\":25684:25762   */\n      tag_636\n      jump\t// in\n    tag_740:\n        /* \"#utility.yul\":25676:25762   */\n      swap1\n      pop\n        /* \"#utility.yul\":25772:25844   */\n      tag_741\n        /* \"#utility.yul\":25840:25842   */\n      0x40\n        /* \"#utility.yul\":25829:25838   */\n      dup4\n        /* \"#utility.yul\":25825:25843   */\n      add\n        /* \"#utility.yul\":25816:25822   */\n      dup6\n        /* \"#utility.yul\":25772:25844   */\n      tag_574\n      jump\t// in\n    tag_741:\n        /* \"#utility.yul\":25854:25920   */\n      tag_742\n        /* \"#utility.yul\":25916:25918   */\n      0x60\n        /* \"#utility.yul\":25905:25914   */\n      dup4\n        /* \"#utility.yul\":25901:25919   */\n      add\n        /* \"#utility.yul\":25892:25898   */\n      dup5\n        /* \"#utility.yul\":25854:25920   */\n      tag_623\n      jump\t// in\n    tag_742:\n        /* \"#utility.yul\":25491:25927   */\n      swap6\n      swap5\n      pop\n      pop\n      pop\n      pop\n      pop\n      jump\t// out\n        /* \"#utility.yul\":25933:26767   */\n    tag_83:\n      0x00\n        /* \"#utility.yul\":26210:26213   */\n      0xa0\n        /* \"#utility.yul\":26199:26208   */\n      dup3\n        /* \"#utility.yul\":26195:26214   */\n      add\n        /* \"#utility.yul\":26187:26214   */\n      swap1\n      pop\n        /* \"#utility.yul\":26224:26295   */\n      tag_744\n        /* \"#utility.yul\":26292:26293   */\n      0x00\n        /* \"#utility.yul\":26281:26290   */\n      dup4\n        /* \"#utility.yul\":26277:26294   */\n      add\n        /* \"#utility.yul\":26268:26274   */\n      dup9\n        /* \"#utility.yul\":26224:26295   */\n      tag_686\n      jump\t// in\n    tag_744:\n        /* \"#utility.yul\":26342:26351   */\n      dup2\n        /* \"#utility.yul\":26336:26340   */\n      dup2\n        /* \"#utility.yul\":26332:26352   */\n      sub\n        /* \"#utility.yul\":26327:26329   */\n      0x20\n        /* \"#utility.yul\":26316:26325   */\n      dup4\n        /* \"#utility.yul\":26312:26330   */\n      add\n        /* \"#utility.yul\":26305:26353   */\n      mstore\n        /* \"#utility.yul\":26370:26448   */\n      tag_745\n        /* \"#utility.yul\":26443:26447   */\n      dup2\n        /* \"#utility.yul\":26434:26440   */\n      dup8\n        /* \"#utility.yul\":26370:26448   */\n      tag_636\n      jump\t// in\n    tag_745:\n        /* \"#utility.yul\":26362:26448   */\n      swap1\n      pop\n        /* \"#utility.yul\":26495:26504   */\n      dup2\n        /* \"#utility.yul\":26489:26493   */\n      dup2\n        /* \"#utility.yul\":26485:26505   */\n      sub\n        /* \"#utility.yul\":26480:26482   */\n      0x40\n        /* \"#utility.yul\":26469:26478   */\n      dup4\n        /* \"#utility.yul\":26465:26483   */\n      add\n        /* \"#utility.yul\":26458:26506   */\n      mstore\n        /* \"#utility.yul\":26523:26601   */\n      tag_746\n        /* \"#utility.yul\":26596:26600   */\n      dup2\n        /* \"#utility.yul\":26587:26593   */\n      dup7\n        /* \"#utility.yul\":26523:26601   */\n      tag_636\n      jump\t// in\n    tag_746:\n        /* \"#utility.yul\":26515:26601   */\n      swap1\n      pop\n        /* \"#utility.yul\":26611:26683   */\n      tag_747\n        /* \"#utility.yul\":26679:26681   */\n      0x60\n        /* \"#utility.yul\":26668:26677   */\n      dup4\n        /* \"#utility.yul\":26664:26682   */\n      add\n        /* \"#utility.yul\":26655:26661   */\n      dup6\n        /* \"#utility.yul\":26611:26683   */\n      tag_686\n      jump\t// in\n    tag_747:\n        /* \"#utility.yul\":26693:26760   */\n      tag_748\n        /* \"#utility.yul\":26755:26758   */\n      0x80\n        /* \"#utility.yul\":26744:26753   */\n      dup4\n        /* \"#utility.yul\":26740:26759   */\n      add\n        /* \"#utility.yul\":26731:26737   */\n      dup5\n        /* \"#utility.yul\":26693:26760   */\n      tag_623\n      jump\t// in\n    tag_748:\n        /* \"#utility.yul\":26177:26767   */\n      swap7\n      swap6\n      pop\n      pop\n      pop\n      pop\n      pop\n      pop\n      jump\t// out\n        /* \"#utility.yul\":26773:27300   */\n    tag_416:\n      0x00\n        /* \"#utility.yul\":26977:26979   */\n      0x60\n        /* \"#utility.yul\":26966:26975   */\n      dup3\n        /* \"#utility.yul\":26962:26980   */\n      add\n        /* \"#utility.yul\":26954:26980   */\n      swap1\n      pop\n        /* \"#utility.yul\":26990:27061   */\n      tag_750\n        /* \"#utility.yul\":27058:27059   */\n      0x00\n        /* \"#utility.yul\":27047:27056   */\n      dup4\n        /* \"#utility.yul\":27043:27060   */\n      add\n        /* \"#utility.yul\":27034:27040   */\n      dup7\n        /* \"#utility.yul\":26990:27061   */\n      tag_686\n      jump\t// in\n    tag_750:\n        /* \"#utility.yul\":27108:27117   */\n      dup2\n        /* \"#utility.yul\":27102:27106   */\n      dup2\n        /* \"#utility.yul\":27098:27118   */\n      sub\n        /* \"#utility.yul\":27093:27095   */\n      0x20\n        /* \"#utility.yul\":27082:27091   */\n      dup4\n        /* \"#utility.yul\":27078:27096   */\n      add\n        /* \"#utility.yul\":27071:27119   */\n      mstore\n        /* \"#utility.yul\":27136:27211   */\n      tag_751\n        /* \"#utility.yul\":27206:27210   */\n      dup2\n        /* \"#utility.yul\":27197:27203   */\n      dup6\n        /* \"#utility.yul\":27136:27211   */\n      tag_643\n      jump\t// in\n    tag_751:\n        /* \"#utility.yul\":27128:27211   */\n      swap1\n      pop\n        /* \"#utility.yul\":27221:27293   */\n      tag_752\n        /* \"#utility.yul\":27289:27291   */\n      0x40\n        /* \"#utility.yul\":27278:27287   */\n      dup4\n        /* \"#utility.yul\":27274:27292   */\n      add\n        /* \"#utility.yul\":27265:27271   */\n      dup5\n        /* \"#utility.yul\":27221:27293   */\n      tag_574\n      jump\t// in\n    tag_752:\n        /* \"#utility.yul\":26944:27300   */\n      swap5\n      swap4\n      pop\n      pop\n      pop\n      pop\n      jump\t// out\n        /* \"#utility.yul\":27306:27932   */\n    tag_308:\n      0x00\n        /* \"#utility.yul\":27532:27535   */\n      0x80\n        /* \"#utility.yul\":27521:27530   */\n      dup3\n        /* \"#utility.yul\":27517:27536   */\n      add\n        /* \"#utility.yul\":27509:27536   */\n      swap1\n      pop\n        /* \"#utility.yul\":27546:27617   */\n      tag_754\n        /* \"#utility.yul\":27614:27615   */\n      0x00\n        /* \"#utility.yul\":27603:27612   */\n      dup4\n        /* \"#utility.yul\":27599:27616   */\n      add\n        /* \"#utility.yul\":27590:27596   */\n      dup8\n        /* \"#utility.yul\":27546:27617   */\n      tag_686\n      jump\t// in\n    tag_754:\n        /* \"#utility.yul\":27664:27673   */\n      dup2\n        /* \"#utility.yul\":27658:27662   */\n      dup2\n        /* \"#utility.yul\":27654:27674   */\n      sub\n        /* \"#utility.yul\":27649:27651   */\n      0x20\n        /* \"#utility.yul\":27638:27647   */\n      dup4\n        /* \"#utility.yul\":27634:27652   */\n      add\n        /* \"#utility.yul\":27627:27675   */\n      mstore\n        /* \"#utility.yul\":27692:27767   */\n      tag_755\n        /* \"#utility.yul\":27762:27766   */\n      dup2\n        /* \"#utility.yul\":27753:27759   */\n      dup7\n        /* \"#utility.yul\":27692:27767   */\n      tag_643\n      jump\t// in\n    tag_755:\n        /* \"#utility.yul\":27684:27767   */\n      swap1\n      pop\n        /* \"#utility.yul\":27777:27849   */\n      tag_756\n        /* \"#utility.yul\":27845:27847   */\n      0x40\n        /* \"#utility.yul\":27834:27843   */\n      dup4\n        /* \"#utility.yul\":27830:27848   */\n      add\n        /* \"#utility.yul\":27821:27827   */\n      dup6\n        /* \"#utility.yul\":27777:27849   */\n      tag_574\n      jump\t// in\n    tag_756:\n        /* \"#utility.yul\":27859:27925   */\n      tag_757\n        /* \"#utility.yul\":27921:27923   */\n      0x60\n        /* \"#utility.yul\":27910:27919   */\n      dup4\n        /* \"#utility.yul\":27906:27924   */\n      add\n        /* \"#utility.yul\":27897:27903   */\n      dup5\n        /* \"#utility.yul\":27859:27925   */\n      tag_623\n      jump\t// in\n    tag_757:\n        /* \"#utility.yul\":27499:27932   */\n      swap6\n      swap5\n      pop\n      pop\n      pop\n      pop\n      pop\n      jump\t// out\n        /* \"#utility.yul\":27938:28661   */\n    tag_383:\n      0x00\n        /* \"#utility.yul\":28187:28190   */\n      0x80\n        /* \"#utility.yul\":28176:28185   */\n      dup3\n        /* \"#utility.yul\":28172:28191   */\n      add\n        /* \"#utility.yul\":28164:28191   */\n      swap1\n      pop\n        /* \"#utility.yul\":28201:28272   */\n      tag_759\n        /* \"#utility.yul\":28269:28270   */\n      0x00\n        /* \"#utility.yul\":28258:28267   */\n      dup4\n        /* \"#utility.yul\":28254:28271   */\n      add\n        /* \"#utility.yul\":28245:28251   */\n      dup8\n        /* \"#utility.yul\":28201:28272   */\n      tag_686\n      jump\t// in\n    tag_759:\n        /* \"#utility.yul\":28319:28328   */\n      dup2\n        /* \"#utility.yul\":28313:28317   */\n      dup2\n        /* \"#utility.yul\":28309:28329   */\n      sub\n        /* \"#utility.yul\":28304:28306   */\n      0x20\n        /* \"#utility.yul\":28293:28302   */\n      dup4\n        /* \"#utility.yul\":28289:28307   */\n      add\n        /* \"#utility.yul\":28282:28330   */\n      mstore\n        /* \"#utility.yul\":28347:28422   */\n      tag_760\n        /* \"#utility.yul\":28417:28421   */\n      dup2\n        /* \"#utility.yul\":28408:28414   */\n      dup7\n        /* \"#utility.yul\":28347:28422   */\n      tag_643\n      jump\t// in\n    tag_760:\n        /* \"#utility.yul\":28339:28422   */\n      swap1\n      pop\n        /* \"#utility.yul\":28469:28478   */\n      dup2\n        /* \"#utility.yul\":28463:28467   */\n      dup2\n        /* \"#utility.yul\":28459:28479   */\n      sub\n        /* \"#utility.yul\":28454:28456   */\n      0x40\n        /* \"#utility.yul\":28443:28452   */\n      dup4\n        /* \"#utility.yul\":28439:28457   */\n      add\n        /* \"#utility.yul\":28432:28480   */\n      mstore\n        /* \"#utility.yul\":28497:28572   */\n      tag_761\n        /* \"#utility.yul\":28567:28571   */\n      dup2\n        /* \"#utility.yul\":28558:28564   */\n      dup6\n        /* \"#utility.yul\":28497:28572   */\n      tag_643\n      jump\t// in\n    tag_761:\n        /* \"#utility.yul\":28489:28572   */\n      swap1\n      pop\n        /* \"#utility.yul\":28582:28654   */\n      tag_762\n        /* \"#utility.yul\":28650:28652   */\n      0x60\n        /* \"#utility.yul\":28639:28648   */\n      dup4\n        /* \"#utility.yul\":28635:28653   */\n      add\n        /* \"#utility.yul\":28626:28632   */\n      dup5\n        /* \"#utility.yul\":28582:28654   */\n      tag_686\n      jump\t// in\n    tag_762:\n        /* \"#utility.yul\":28154:28661   */\n      swap6\n      swap5\n      pop\n      pop\n      pop\n      pop\n      pop\n      jump\t// out\n        /* \"#utility.yul\":28667:29489   */\n    tag_274:\n      0x00\n        /* \"#utility.yul\":28938:28941   */\n      0xa0\n        /* \"#utility.yul\":28927:28936   */\n      dup3\n        /* \"#utility.yul\":28923:28942   */\n      add\n        /* \"#utility.yul\":28915:28942   */\n      swap1\n      pop\n        /* \"#utility.yul\":28952:29023   */\n      tag_764\n        /* \"#utility.yul\":29020:29021   */\n      0x00\n        /* \"#utility.yul\":29009:29018   */\n      dup4\n        /* \"#utility.yul\":29005:29022   */\n      add\n        /* \"#utility.yul\":28996:29002   */\n      dup9\n        /* \"#utility.yul\":28952:29023   */\n      tag_686\n      jump\t// in\n    tag_764:\n        /* \"#utility.yul\":29070:29079   */\n      dup2\n        /* \"#utility.yul\":29064:29068   */\n      dup2\n        /* \"#utility.yul\":29060:29080   */\n      sub\n        /* \"#utility.yul\":29055:29057   */\n      0x20\n        /* \"#utility.yul\":29044:29053   */\n      dup4\n        /* \"#utility.yul\":29040:29058   */\n      add\n        /* \"#utility.yul\":29033:29081   */\n      mstore\n        /* \"#utility.yul\":29098:29173   */\n      tag_765\n        /* \"#utility.yul\":29168:29172   */\n      dup2\n        /* \"#utility.yul\":29159:29165   */\n      dup8\n        /* \"#utility.yul\":29098:29173   */\n      tag_643\n      jump\t// in\n    tag_765:\n        /* \"#utility.yul\":29090:29173   */\n      swap1\n      pop\n        /* \"#utility.yul\":29220:29229   */\n      dup2\n        /* \"#utility.yul\":29214:29218   */\n      dup2\n        /* \"#utility.yul\":29210:29230   */\n      sub\n        /* \"#utility.yul\":29205:29207   */\n      0x40\n        /* \"#utility.yul\":29194:29203   */\n      dup4\n        /* \"#utility.yul\":29190:29208   */\n      add\n        /* \"#utility.yul\":29183:29231   */\n      mstore\n        /* \"#utility.yul\":29248:29323   */\n      tag_766\n        /* \"#utility.yul\":29318:29322   */\n      dup2\n        /* \"#utility.yul\":29309:29315   */\n      dup7\n        /* \"#utility.yul\":29248:29323   */\n      tag_643\n      jump\t// in\n    tag_766:\n        /* \"#utility.yul\":29240:29323   */\n      swap1\n      pop\n        /* \"#utility.yul\":29333:29405   */\n      tag_767\n        /* \"#utility.yul\":29401:29403   */\n      0x60\n        /* \"#utility.yul\":29390:29399   */\n      dup4\n        /* \"#utility.yul\":29386:29404   */\n      add\n        /* \"#utility.yul\":29377:29383   */\n      dup6\n        /* \"#utility.yul\":29333:29405   */\n      tag_686\n      jump\t// in\n    tag_767:\n        /* \"#utility.yul\":29415:29482   */\n      tag_768\n        /* \"#utility.yul\":29477:29480   */\n      0x80\n        /* \"#utility.yul\":29466:29475   */\n      dup4\n        /* \"#utility.yul\":29462:29481   */\n      add\n        /* \"#utility.yul\":29453:29459   */\n      dup5\n        /* \"#utility.yul\":29415:29482   */\n      tag_623\n      jump\t// in\n    tag_768:\n        /* \"#utility.yul\":28905:29489   */\n      swap7\n      swap6\n      pop\n      pop\n      pop\n      pop\n      pop\n      pop\n      jump\t// out\n        /* \"#utility.yul\":29495:29773   */\n    tag_495:\n      0x00\n        /* \"#utility.yul\":29561:29563   */\n      0x40\n        /* \"#utility.yul\":29555:29564   */\n      mload\n        /* \"#utility.yul\":29545:29564   */\n      swap1\n      pop\n        /* \"#utility.yul\":29603:29607   */\n      dup2\n        /* \"#utility.yul\":29595:29601   */\n      dup2\n        /* \"#utility.yul\":29591:29608   */\n      add\n        /* \"#utility.yul\":29710:29716   */\n      dup2\n        /* \"#utility.yul\":29698:29708   */\n      dup2\n        /* \"#utility.yul\":29695:29717   */\n      lt\n        /* \"#utility.yul\":29674:29692   */\n      0xffffffffffffffff\n        /* \"#utility.yul\":29662:29672   */\n      dup3\n        /* \"#utility.yul\":29659:29693   */\n      gt\n        /* \"#utility.yul\":29656:29718   */\n      or\n        /* \"#utility.yul\":29653:29655   */\n      iszero\n      tag_770\n      jumpi\n        /* \"#utility.yul\":29721:29734   */\n      tag_771\n      tag_772\n      jump\t// in\n    tag_771:\n        /* \"#utility.yul\":29653:29655   */\n    tag_770:\n        /* \"#utility.yul\":29756:29766   */\n      dup1\n        /* \"#utility.yul\":29752:29754   */\n      0x40\n        /* \"#utility.yul\":29745:29767   */\n      mstore\n        /* \"#utility.yul\":29535:29773   */\n      pop\n      swap2\n      swap1\n      pop\n      jump\t// out\n        /* \"#utility.yul\":29779:30106   */\n    tag_494:\n      0x00\n        /* \"#utility.yul\":29931:29949   */\n      0xffffffffffffffff\n        /* \"#utility.yul\":29923:29929   */\n      dup3\n        /* \"#utility.yul\":29920:29950   */\n      gt\n        /* \"#utility.yul\":29917:29919   */\n      iszero\n      tag_774\n      jumpi\n        /* \"#utility.yul\":29953:29966   */\n      tag_775\n      tag_772\n      jump\t// in\n    tag_775:\n        /* \"#utility.yul\":29917:29919   */\n    tag_774:\n        /* \"#utility.yul\":30033:30037   */\n      0x1f\n        /* \"#utility.yul\":30029:30038   */\n      not\n        /* \"#utility.yul\":30022:30026   */\n      0x1f\n        /* \"#utility.yul\":30014:30020   */\n      dup4\n        /* \"#utility.yul\":30010:30027   */\n      add\n        /* \"#utility.yul\":30006:30039   */\n      and\n        /* \"#utility.yul\":29998:30039   */\n      swap1\n      pop\n        /* \"#utility.yul\":30094:30098   */\n      0x20\n        /* \"#utility.yul\":30088:30092   */\n      dup2\n        /* \"#utility.yul\":30084:30099   */\n      add\n        /* \"#utility.yul\":30076:30099   */\n      swap1\n      pop\n        /* \"#utility.yul\":29846:30106   */\n      swap2\n      swap1\n      pop\n      jump\t// out\n        /* \"#utility.yul\":30112:30266   */\n    tag_584:\n      0x00\n        /* \"#utility.yul\":30224:30227   */\n      dup2\n        /* \"#utility.yul\":30216:30227   */\n      swap1\n      pop\n        /* \"#utility.yul\":30254:30258   */\n      0x20\n        /* \"#utility.yul\":30249:30252   */\n      dup3\n        /* \"#utility.yul\":30245:30259   */\n      add\n        /* \"#utility.yul\":30237:30259   */\n      swap1\n      pop\n        /* \"#utility.yul\":30206:30266   */\n      swap2\n      swap1\n      pop\n      jump\t// out\n        /* \"#utility.yul\":30272:30428   */\n    tag_598:\n      0x00\n        /* \"#utility.yul\":30386:30389   */\n      dup2\n        /* \"#utility.yul\":30378:30389   */\n      swap1\n      pop\n        /* \"#utility.yul\":30416:30420   */\n      0x20\n        /* \"#utility.yul\":30411:30414   */\n      dup3\n        /* \"#utility.yul\":30407:30421   */\n      add\n        /* \"#utility.yul\":30399:30421   */\n      swap1\n      pop\n        /* \"#utility.yul\":30368:30428   */\n      swap2\n      swap1\n      pop\n      jump\t// out\n        /* \"#utility.yul\":30434:30588   */\n    tag_612:\n      0x00\n        /* \"#utility.yul\":30546:30549   */\n      dup2\n        /* \"#utility.yul\":30538:30549   */\n      swap1\n      pop\n        /* \"#utility.yul\":30576:30580   */\n      0x20\n        /* \"#utility.yul\":30571:30574   */\n      dup3\n        /* \"#utility.yul\":30567:30581   */\n      add\n        /* \"#utility.yul\":30559:30581   */\n      swap1\n      pop\n        /* \"#utility.yul\":30528:30588   */\n      swap2\n      swap1\n      pop\n      jump\t// out\n        /* \"#utility.yul\":30594:30735   */\n    tag_651:\n      0x00\n        /* \"#utility.yul\":30666:30669   */\n      dup2\n        /* \"#utility.yul\":30658:30669   */\n      swap1\n      pop\n        /* \"#utility.yul\":30689:30692   */\n      dup2\n        /* \"#utility.yul\":30686:30687   */\n      0x00\n        /* \"#utility.yul\":30679:30693   */\n      mstore\n        /* \"#utility.yul\":30723:30727   */\n      0x20\n        /* \"#utility.yul\":30720:30721   */\n      0x00\n        /* \"#utility.yul\":30710:30728   */\n      keccak256\n        /* \"#utility.yul\":30702:30728   */\n      swap1\n      pop\n        /* \"#utility.yul\":30648:30735   */\n      swap2\n      swap1\n      pop\n      jump\t// out\n        /* \"#utility.yul\":30741:30877   */\n    tag_580:\n      0x00\n        /* \"#utility.yul\":30864:30869   */\n      dup2\n        /* \"#utility.yul\":30858:30870   */\n      mload\n        /* \"#utility.yul\":30848:30870   */\n      swap1\n      pop\n        /* \"#utility.yul\":30837:30877   */\n      swap2\n      swap1\n      pop\n      jump\t// out\n        /* \"#utility.yul\":30883:31021   */\n    tag_594:\n      0x00\n        /* \"#utility.yul\":31008:31013   */\n      dup2\n        /* \"#utility.yul\":31002:31014   */\n      mload\n        /* \"#utility.yul\":30992:31014   */\n      swap1\n      pop\n        /* \"#utility.yul\":30981:31021   */\n      swap2\n      swap1\n      pop\n      jump\t// out\n        /* \"#utility.yul\":31027:31163   */\n    tag_608:\n      0x00\n        /* \"#utility.yul\":31150:31155   */\n      dup2\n        /* \"#utility.yul\":31144:31156   */\n      mload\n        /* \"#utility.yul\":31134:31156   */\n      swap1\n      pop\n        /* \"#utility.yul\":31123:31163   */\n      swap2\n      swap1\n      pop\n      jump\t// out\n        /* \"#utility.yul\":31169:31268   */\n    tag_629:\n      0x00\n        /* \"#utility.yul\":31255:31260   */\n      dup2\n        /* \"#utility.yul\":31249:31261   */\n      mload\n        /* \"#utility.yul\":31239:31261   */\n      swap1\n      pop\n        /* \"#utility.yul\":31228:31268   */\n      swap2\n      swap1\n      pop\n      jump\t// out\n        /* \"#utility.yul\":31274:31409   */\n    tag_590:\n      0x00\n        /* \"#utility.yul\":31398:31402   */\n      0x20\n        /* \"#utility.yul\":31393:31396   */\n      dup3\n        /* \"#utility.yul\":31389:31403   */\n      add\n        /* \"#utility.yul\":31381:31403   */\n      swap1\n      pop\n        /* \"#utility.yul\":31371:31409   */\n      swap2\n      swap1\n      pop\n      jump\t// out\n        /* \"#utility.yul\":31415:31552   */\n    tag_604:\n      0x00\n        /* \"#utility.yul\":31541:31545   */\n      0x20\n        /* \"#utility.yul\":31536:31539   */\n      dup3\n        /* \"#utility.yul\":31532:31546   */\n      add\n        /* \"#utility.yul\":31524:31546   */\n      swap1\n      pop\n        /* \"#utility.yul\":31514:31552   */\n      swap2\n      swap1\n      pop\n      jump\t// out\n        /* \"#utility.yul\":31558:31693   */\n    tag_618:\n      0x00\n        /* \"#utility.yul\":31682:31686   */\n      0x20\n        /* \"#utility.yul\":31677:31680   */\n      dup3\n        /* \"#utility.yul\":31673:31687   */\n      add\n        /* \"#utility.yul\":31665:31687   */\n      swap1\n      pop\n        /* \"#utility.yul\":31655:31693   */\n      swap2\n      swap1\n      pop\n      jump\t// out\n        /* \"#utility.yul\":31699:31905   */\n    tag_582:\n      0x00\n        /* \"#utility.yul\":31854:31860   */\n      dup3\n        /* \"#utility.yul\":31849:31852   */\n      dup3\n        /* \"#utility.yul\":31842:31861   */\n      mstore\n        /* \"#utility.yul\":31894:31898   */\n      0x20\n        /* \"#utility.yul\":31889:31892   */\n      dup3\n        /* \"#utility.yul\":31885:31899   */\n      add\n        /* \"#utility.yul\":31870:31899   */\n      swap1\n      pop\n        /* \"#utility.yul\":31832:31905   */\n      swap3\n      swap2\n      pop\n      pop\n      jump\t// out\n        /* \"#utility.yul\":31911:32119   */\n    tag_596:\n      0x00\n        /* \"#utility.yul\":32068:32074   */\n      dup3\n        /* \"#utility.yul\":32063:32066   */\n      dup3\n        /* \"#utility.yul\":32056:32075   */\n      mstore\n        /* \"#utility.yul\":32108:32112   */\n      0x20\n        /* \"#utility.yul\":32103:32106   */\n      dup3\n        /* \"#utility.yul\":32099:32113   */\n      add\n        /* \"#utility.yul\":32084:32113   */\n      swap1\n      pop\n        /* \"#utility.yul\":32046:32119   */\n      swap3\n      swap2\n      pop\n      pop\n      jump\t// out\n        /* \"#utility.yul\":32125:32331   */\n    tag_610:\n      0x00\n        /* \"#utility.yul\":32280:32286   */\n      dup3\n        /* \"#utility.yul\":32275:32278   */\n      dup3\n        /* \"#utility.yul\":32268:32287   */\n      mstore\n        /* \"#utility.yul\":32320:32324   */\n      0x20\n        /* \"#utility.yul\":32315:32318   */\n      dup3\n        /* \"#utility.yul\":32311:32325   */\n      add\n        /* \"#utility.yul\":32296:32325   */\n      swap1\n      pop\n        /* \"#utility.yul\":32258:32331   */\n      swap3\n      swap2\n      pop\n      pop\n      jump\t// out\n        /* \"#utility.yul\":32337:32496   */\n    tag_631:\n      0x00\n        /* \"#utility.yul\":32445:32451   */\n      dup3\n        /* \"#utility.yul\":32440:32443   */\n      dup3\n        /* \"#utility.yul\":32433:32452   */\n      mstore\n        /* \"#utility.yul\":32485:32489   */\n      0x20\n        /* \"#utility.yul\":32480:32483   */\n      dup3\n        /* \"#utility.yul\":32476:32490   */\n      add\n        /* \"#utility.yul\":32461:32490   */\n      swap1\n      pop\n        /* \"#utility.yul\":32423:32496   */\n      swap3\n      swap2\n      pop\n      pop\n      jump\t// out\n        /* \"#utility.yul\":32502:32671   */\n    tag_640:\n      0x00\n        /* \"#utility.yul\":32620:32626   */\n      dup3\n        /* \"#utility.yul\":32615:32618   */\n      dup3\n        /* \"#utility.yul\":32608:32627   */\n      mstore\n        /* \"#utility.yul\":32660:32664   */\n      0x20\n        /* \"#utility.yul\":32655:32658   */\n      dup3\n        /* \"#utility.yul\":32651:32665   */\n      add\n        /* \"#utility.yul\":32636:32665   */\n      swap1\n      pop\n        /* \"#utility.yul\":32598:32671   */\n      swap3\n      swap2\n      pop\n      pop\n      jump\t// out\n        /* \"#utility.yul\":32677:32773   */\n    tag_573:\n      0x00\n        /* \"#utility.yul\":32743:32767   */\n      tag_793\n        /* \"#utility.yul\":32761:32766   */\n      dup3\n        /* \"#utility.yul\":32743:32767   */\n      tag_794\n      jump\t// in\n    tag_793:\n        /* \"#utility.yul\":32732:32767   */\n      swap1\n      pop\n        /* \"#utility.yul\":32722:32773   */\n      swap2\n      swap1\n      pop\n      jump\t// out\n        /* \"#utility.yul\":32779:32869   */\n    tag_622:\n      0x00\n        /* \"#utility.yul\":32856:32861   */\n      dup2\n        /* \"#utility.yul\":32849:32862   */\n      iszero\n        /* \"#utility.yul\":32842:32863   */\n      iszero\n        /* \"#utility.yul\":32831:32863   */\n      swap1\n      pop\n        /* \"#utility.yul\":32821:32869   */\n      swap2\n      swap1\n      pop\n      jump\t// out\n        /* \"#utility.yul\":32875:33001   */\n    tag_794:\n      0x00\n        /* \"#utility.yul\":32952:32994   */\n      0xffffffffffffffffffffffffffffffffffffffff\n        /* \"#utility.yul\":32945:32950   */\n      dup3\n        /* \"#utility.yul\":32941:32995   */\n      and\n        /* \"#utility.yul\":32930:32995   */\n      swap1\n      pop\n        /* \"#utility.yul\":32920:33001   */\n      swap2\n      swap1\n      pop\n      jump\t// out\n        /* \"#utility.yul\":33007:33084   */\n    tag_685:\n      0x00\n        /* \"#utility.yul\":33073:33078   */\n      dup2\n        /* \"#utility.yul\":33062:33078   */\n      swap1\n      pop\n        /* \"#utility.yul\":33052:33084   */\n      swap2\n      swap1\n      pop\n      jump\t// out\n        /* \"#utility.yul\":33090:33244   */\n    tag_498:\n        /* \"#utility.yul\":33174:33180   */\n      dup3\n        /* \"#utility.yul\":33169:33172   */\n      dup2\n        /* \"#utility.yul\":33164:33167   */\n      dup4\n        /* \"#utility.yul\":33151:33181   */\n      calldatacopy\n        /* \"#utility.yul\":33236:33237   */\n      0x00\n        /* \"#utility.yul\":33227:33233   */\n      dup4\n        /* \"#utility.yul\":33222:33225   */\n      dup4\n        /* \"#utility.yul\":33218:33234   */\n      add\n        /* \"#utility.yul\":33211:33238   */\n      mstore\n        /* \"#utility.yul\":33141:33244   */\n      pop\n      pop\n      pop\n      jump\t// out\n        /* \"#utility.yul\":33250:33557   */\n    tag_633:\n        /* \"#utility.yul\":33318:33319   */\n      0x00\n        /* \"#utility.yul\":33328:33441   */\n    tag_800:\n        /* \"#utility.yul\":33342:33348   */\n      dup4\n        /* \"#utility.yul\":33339:33340   */\n      dup2\n        /* \"#utility.yul\":33336:33349   */\n      lt\n        /* \"#utility.yul\":33328:33441   */\n      iszero\n      tag_802\n      jumpi\n        /* \"#utility.yul\":33427:33428   */\n      dup1\n        /* \"#utility.yul\":33422:33425   */\n      dup3\n        /* \"#utility.yul\":33418:33429   */\n      add\n        /* \"#utility.yul\":33412:33430   */\n      mload\n        /* \"#utility.yul\":33408:33409   */\n      dup2\n        /* \"#utility.yul\":33403:33406   */\n      dup5\n        /* \"#utility.yul\":33399:33410   */\n      add\n        /* \"#utility.yul\":33392:33431   */\n      mstore\n        /* \"#utility.yul\":33364:33366   */\n      0x20\n        /* \"#utility.yul\":33361:33362   */\n      dup2\n        /* \"#utility.yul\":33357:33367   */\n      add\n        /* \"#utility.yul\":33352:33367   */\n      swap1\n      pop\n        /* \"#utility.yul\":33328:33441   */\n      jump(tag_800)\n    tag_802:\n        /* \"#utility.yul\":33459:33465   */\n      dup4\n        /* \"#utility.yul\":33456:33457   */\n      dup2\n        /* \"#utility.yul\":33453:33466   */\n      gt\n        /* \"#utility.yul\":33450:33452   */\n      iszero\n      tag_803\n      jumpi\n        /* \"#utility.yul\":33539:33540   */\n      0x00\n        /* \"#utility.yul\":33530:33536   */\n      dup5\n        /* \"#utility.yul\":33525:33528   */\n      dup5\n        /* \"#utility.yul\":33521:33537   */\n      add\n        /* \"#utility.yul\":33514:33541   */\n      mstore\n        /* \"#utility.yul\":33450:33452   */\n    tag_803:\n        /* \"#utility.yul\":33299:33557   */\n      pop\n      pop\n      pop\n      pop\n      jump\t// out\n        /* \"#utility.yul\":33563:33611   */\n    tag_772:\n        /* \"#utility.yul\":33596:33605   */\n      invalid\n        /* \"#utility.yul\":33617:33719   */\n    tag_635:\n      0x00\n        /* \"#utility.yul\":33709:33711   */\n      0x1f\n        /* \"#utility.yul\":33705:33712   */\n      not\n        /* \"#utility.yul\":33700:33702   */\n      0x1f\n        /* \"#utility.yul\":33693:33698   */\n      dup4\n        /* \"#utility.yul\":33689:33703   */\n      add\n        /* \"#utility.yul\":33685:33713   */\n      and\n        /* \"#utility.yul\":33675:33713   */\n      swap1\n      pop\n        /* \"#utility.yul\":33665:33719   */\n      swap2\n      swap1\n      pop\n      jump\t// out\n        /* \"#utility.yul\":33725:33847   */\n    tag_502:\n        /* \"#utility.yul\":33798:33822   */\n      tag_807\n        /* \"#utility.yul\":33816:33821   */\n      dup2\n        /* \"#utility.yul\":33798:33822   */\n      tag_573\n      jump\t// in\n    tag_807:\n        /* \"#utility.yul\":33791:33796   */\n      dup2\n        /* \"#utility.yul\":33788:33823   */\n      eq\n        /* \"#utility.yul\":33778:33780   */\n      tag_808\n      jumpi\n        /* \"#utility.yul\":33837:33838   */\n      0x00\n        /* \"#utility.yul\":33834:33835   */\n      dup1\n        /* \"#utility.yul\":33827:33839   */\n      revert\n        /* \"#utility.yul\":33778:33780   */\n    tag_808:\n        /* \"#utility.yul\":33768:33847   */\n      pop\n      jump\t// out\n        /* \"#utility.yul\":33853:33969   */\n    tag_506:\n        /* \"#utility.yul\":33923:33944   */\n      tag_810\n        /* \"#utility.yul\":33938:33943   */\n      dup2\n        /* \"#utility.yul\":33923:33944   */\n      tag_622\n      jump\t// in\n    tag_810:\n        /* \"#utility.yul\":33916:33921   */\n      dup2\n        /* \"#utility.yul\":33913:33945   */\n      eq\n        /* \"#utility.yul\":33903:33905   */\n      tag_811\n      jumpi\n        /* \"#utility.yul\":33959:33960   */\n      0x00\n        /* \"#utility.yul\":33956:33957   */\n      dup1\n        /* \"#utility.yul\":33949:33961   */\n      revert\n        /* \"#utility.yul\":33903:33905   */\n    tag_811:\n        /* \"#utility.yul\":33893:33969   */\n      pop\n      jump\t// out\n        /* \"#utility.yul\":33975:34097   */\n    tag_514:\n        /* \"#utility.yul\":34048:34072   */\n      tag_813\n        /* \"#utility.yul\":34066:34071   */\n      dup2\n        /* \"#utility.yul\":34048:34072   */\n      tag_685\n      jump\t// in\n    tag_813:\n        /* \"#utility.yul\":34041:34046   */\n      dup2\n        /* \"#utility.yul\":34038:34073   */\n      eq\n        /* \"#utility.yul\":34028:34030   */\n      tag_814\n      jumpi\n        /* \"#utility.yul\":34087:34088   */\n      0x00\n        /* \"#utility.yul\":34084:34085   */\n      dup1\n        /* \"#utility.yul\":34077:34089   */\n      revert\n        /* \"#utility.yul\":34028:34030   */\n    tag_814:\n        /* \"#utility.yul\":34018:34097   */\n      pop\n      jump\t// out\n\n    auxdata: 0xa264697066735822122046adc12d66d88676df3d6d6ea8025e217750494aa1b693e3b5dd3860046e643c64736f6c63430007060033\n}\n",
    "bytecode": {
      "linkReferences": {},
      "object": "6080604052738fcf3b91599c6d5bb93d8c7df9f3974c622b83a4600260006101000a81548173ffffffffffffffffffffffffffffffffffffffff021916908373ffffffffffffffffffffffffffffffffffffffff16021790555034801561006557600080fd5b50614076806100756000396000f3fe608060405234801561001057600080fd5b506004361061018e5760003560e01c80639b70e779116100de578063c1a9205811610097578063d53d0a8511610071578063d53d0a85146104ba578063dc7aa36b146104ef578063ea87659f14610522578063f0d95090146105565761018e565b8063c1a9205814610452578063c266406d1461046e578063c90346591461049e5761018e565b80639b70e77914610375578063a17d7a38146103a9578063a27876c5146103c7578063a549a4ed146103e3578063ada913fd14610418578063b5843613146104345761018e565b80634e9f71541161014b57806366d92c811161012557806366d92c81146102c25780637e85bcea146102f2578063898bd1401461030e5780638db2fc41146103425761018e565b80634e9f71541461026a5780635a4e5d3e146102885780636151efb1146102a65761018e565b806302655c2e146101935780630c8cabec146101c657806314c94371146101f85780631ba51696146102145780633f98b96e146102325780634807fc691461024e575b600080fd5b6101ad60048036038101906101a891906132a7565b610574565b6040516101bd9493929190613b57565b60405180910390f35b6101e060048036038101906101db91906132a7565b610756565b6040516101ef93929190613ab1565b60405180910390f35b610212600480360381019061020d9190613101565b61089b565b005b61021c610a5e565b6040516102299190613c0a565b60405180910390f35b61024c600480360381019061024791906131c0565b610a6b565b005b610268600480360381019061026391906130d8565b610bc1565b005b610272610d28565b60405161027f9190613a6d565b60405180910390f35b610290611048565b60405161029d9190613a8f565b60405180910390f35b6102c060048036038101906102bb91906132a7565b61127a565b005b6102dc60048036038101906102d791906132a7565b6113a2565b6040516102e99190613a8f565b60405180910390f35b61030c600480360381019061030791906132a7565b6115fd565b005b610328600480360381019061032391906130d8565b611726565b604051610339959493929190613c71565b60405180910390f35b61035c600480360381019061035791906132a7565b611899565b60405161036c9493929190613c25565b60405180910390f35b61038f600480360381019061038a91906130d8565b61199e565b6040516103a0959493929190613aef565b60405180910390f35b6103b1611c40565b6040516103be9190613c0a565b60405180910390f35b6103e160048036038101906103dc9190613101565b611c4d565b005b6103fd60048036038101906103f891906130d8565b611dd1565b60405161040f969594939291906138f7565b60405180910390f35b610432600480360381019061042d9190613214565b612002565b005b61043c61212b565b6040516104499190613c0a565b60405180910390f35b61046c60048036038101906104679190613337565b612138565b005b610488600480360381019061048391906130d8565b612288565b6040516104959190613a4b565b60405180910390f35b6104b860048036038101906104b391906132d0565b6124d9565b005b6104d460048036038101906104cf91906132a7565b612630565b6040516104e6969594939291906138f7565b60405180910390f35b610509600480360381019061050491906130d8565b612871565b6040516105199493929190613c25565b60405180910390f35b61053c600480360381019061053791906132a7565b612966565b60405161054d959493929190613c71565b60405180910390f35b61055e612ae9565b60405161056b9190613a4b565b60405180910390f35b606080600080600061058586612cc5565b90506008818154811061059457fe5b9060005260206000209060050201600101600882815481106105b257fe5b9060005260206000209060050201600201600883815481106105d057fe5b906000526020600020906005020160030154600884815481106105ef57fe5b906000526020600020906005020160040160009054906101000a900460ff16838054600181600116156101000203166002900480601f0160208091040260200160405190810160405280929190818152602001828054600181600116156101000203166002900480156106a35780601f10610678576101008083540402835291602001916106a3565b820191906000526020600020905b81548152906001019060200180831161068657829003601f168201915b50505050509350828054600181600116156101000203166002900480601f01602080910402602001604051908101604052809291908181526020018280546001816001161561010002031660029004801561073f5780601f106107145761010080835404028352916020019161073f565b820191906000526020600020905b81548152906001019060200180831161072257829003601f168201915b505050505092509450945094509450509193509193565b6060600080600061076685612d57565b90506006818154811061077557fe5b90600052602060002090600302016001016006828154811061079357fe5b906000526020600020906003020160020160009054906101000a900473ffffffffffffffffffffffffffffffffffffffff16600683815481106107d257fe5b906000526020600020906003020160020160149054906101000a900460ff16828054600181600116156101000203166002900480601f0160208091040260200160405190810160405280929190818152602001828054600181600116156101000203166002900480156108865780601f1061085b57610100808354040283529160200191610886565b820191906000526020600020905b81548152906001019060200180831161086957829003601f168201915b50505050509250935093509350509193909250565b60006108a686612de9565b905084600482815481106108b657fe5b906000526020600020906006020160010190805190602001906108da929190612ec7565b5083600482815481106108e957fe5b9060005260206000209060060201600201908051906020019061090d929190612ec7565b50826004828154811061091c57fe5b90600052602060002090600602016003019080519060200190610940929190612ec7565b50816004828154811061094f57fe5b9060005260206000209060060201600401819055507fb1c43f8b1923988960e95c122fd3ebb503023379b8ca6f0603d2f6b0beb528116004828154811061099257fe5b906000526020600020906006020160000160009054906101000a900473ffffffffffffffffffffffffffffffffffffffff16600483815481106109d157fe5b9060005260206000209060060201600101600484815481106109ef57fe5b906000526020600020906006020160020160048581548110610a0d57fe5b906000526020600020906006020160030160048681548110610a2b57fe5b906000526020600020906006020160040154604051610a4e95949392919061396d565b60405180910390a1505050505050565b6000600480549050905090565b610a7481612de9565b506006604051806080016040528060005481526020018481526020018373ffffffffffffffffffffffffffffffffffffffff168152602001600115158152509080600181540180825580915050600190039060005260206000209060030201600090919091909150600082015181600001556020820151816001019080519060200190610b02929190612ec7565b5060408201518160020160006101000a81548173ffffffffffffffffffffffffffffffffffffffff021916908373ffffffffffffffffffffffffffffffffffffffff16021790555060608201518160020160146101000a81548160ff02191690831515021790555050507fa62610561b12041392f1d0d26c8fa465822ee8fbb7359c7311261ecc2f7709ff60005483836001604051610ba49493929190613c25565b60405180910390a160008081548092919060010191905055505050565b6000610bcc82612de9565b9050600060048281548110610bdd57fe5b906000526020600020906006020160050160006101000a81548160ff0219169083151502179055507f05818f5e23a2c2bb34c81792ea8e3397d3f8ad179cb93a5fa57b3d4681564aa060048281548110610c3357fe5b906000526020600020906006020160000160009054906101000a900473ffffffffffffffffffffffffffffffffffffffff1660048381548110610c7257fe5b906000526020600020906006020160010160048481548110610c9057fe5b906000526020600020906006020160020160048581548110610cae57fe5b906000526020600020906006020160030160048681548110610ccc57fe5b90600052602060002090600602016004015460048781548110610ceb57fe5b906000526020600020906006020160050160009054906101000a900460ff16604051610d1c969594939291906139d5565b60405180910390a15050565b6060600060048054905067ffffffffffffffff81118015610d4857600080fd5b50604051908082528060200260200182016040528015610d8257816020015b610d6f612f55565b815260200190600190039081610d675790505b50905060005b6004805490508110156110405760048181548110610da257fe5b90600052602060002090600602016040518060c00160405290816000820160009054906101000a900473ffffffffffffffffffffffffffffffffffffffff1673ffffffffffffffffffffffffffffffffffffffff1673ffffffffffffffffffffffffffffffffffffffff168152602001600182018054600181600116156101000203166002900480601f016020809104026020016040519081016040528092919081815260200182805460018160011615610100020316600290048015610eaa5780601f10610e7f57610100808354040283529160200191610eaa565b820191906000526020600020905b815481529060010190602001808311610e8d57829003601f168201915b50505050508152602001600282018054600181600116156101000203166002900480601f016020809104026020016040519081016040528092919081815260200182805460018160011615610100020316600290048015610f4c5780601f10610f2157610100808354040283529160200191610f4c565b820191906000526020600020905b815481529060010190602001808311610f2f57829003601f168201915b50505050508152602001600382018054600181600116156101000203166002900480601f016020809104026020016040519081016040528092919081815260200182805460018160011615610100020316600290048015610fee5780601f10610fc357610100808354040283529160200191610fee565b820191906000526020600020905b815481529060010190602001808311610fd157829003601f168201915b50505050508152602001600482015481526020016005820160009054906101000a900460ff16151515158152505082828151811061102857fe5b60200260200101819052508080600101915050610d88565b508091505090565b6060600060088054905067ffffffffffffffff8111801561106857600080fd5b506040519080825280602002602001820160405280156110a257816020015b61108f612fa3565b8152602001906001900390816110875790505b50905060005b60088054905081101561127257600881815481106110c257fe5b90600052602060002090600502016040518060a001604052908160008201548152602001600182018054600181600116156101000203166002900480601f01602080910402602001604051908101604052809291908181526020018280546001816001161561010002031660029004801561117e5780601f106111535761010080835404028352916020019161117e565b820191906000526020600020905b81548152906001019060200180831161116157829003601f168201915b50505050508152602001600282018054600181600116156101000203166002900480601f0160208091040260200160405190810160405280929190818152602001828054600181600116156101000203166002900480156112205780601f106111f557610100808354040283529160200191611220565b820191906000526020600020905b81548152906001019060200180831161120357829003601f168201915b50505050508152602001600382015481526020016004820160009054906101000a900460ff16151515158152505082828151811061125a57fe5b602002602001018190525080806001019150506110a8565b508091505090565b600061128582612cc5565b905060006008828154811061129657fe5b906000526020600020906005020160040160006101000a81548160ff0219169083151502179055507fa1b22357b87bdd7b6e7615d113431de2ef11b50ee5b1c310a0c8d81d06d78300600882815481106112ec57fe5b9060005260206000209060050201600001546008838154811061130b57fe5b90600052602060002090600502016001016008848154811061132957fe5b90600052602060002090600502016002016008858154811061134757fe5b9060005260206000209060050201600301546008868154811061136657fe5b906000526020600020906005020160040160009054906101000a900460ff16604051611396959493929190613daf565b60405180910390a15050565b6060600060088054905067ffffffffffffffff811180156113c257600080fd5b506040519080825280602002602001820160405280156113fc57816020015b6113e9612fa3565b8152602001906001900390816113e15790505b50905060005b6008805490508110156115f3576008818154811061141c57fe5b9060005260206000209060050201600301548414156115e6576008818154811061144257fe5b90600052602060002090600502016040518060a001604052908160008201548152602001600182018054600181600116156101000203166002900480601f0160208091040260200160405190810160405280929190818152602001828054600181600116156101000203166002900480156114fe5780601f106114d3576101008083540402835291602001916114fe565b820191906000526020600020905b8154815290600101906020018083116114e157829003601f168201915b50505050508152602001600282018054600181600116156101000203166002900480601f0160208091040260200160405190810160405280929190818152602001828054600181600116156101000203166002900480156115a05780601f10611575576101008083540402835291602001916115a0565b820191906000526020600020905b81548152906001019060200180831161158357829003601f168201915b50505050508152602001600382015481526020016004820160009054906101000a900460ff1615151515815250508282815181106115da57fe5b60200260200101819052505b8080600101915050611402565b5080915050919050565b600061160882612d57565b905060006006828154811061161957fe5b906000526020600020906003020160020160146101000a81548160ff0219169083151502179055507f3196e7ce6b332050a55708b2dd6fd95a0381cb56e1dcd604c5fe8b31524044486006828154811061166f57fe5b9060005260206000209060030201600001546006838154811061168e57fe5b9060005260206000209060030201600101600684815481106116ac57fe5b906000526020600020906003020160020160009054906101000a900473ffffffffffffffffffffffffffffffffffffffff16600685815481106116eb57fe5b906000526020600020906003020160020160149054906101000a900460ff1660405161171a9493929190613d10565b60405180910390a15050565b6007602052806000526040600020600091509050806000015490806001018054600181600116156101000203166002900480601f0160208091040260200160405190810160405280929190818152602001828054600181600116156101000203166002900480156117d85780601f106117ad576101008083540402835291602001916117d8565b820191906000526020600020905b8154815290600101906020018083116117bb57829003601f168201915b505050505090806002018054600181600116156101000203166002900480601f0160208091040260200160405190810160405280929190818152602001828054600181600116156101000203166002900480156118765780601f1061184b57610100808354040283529160200191611876565b820191906000526020600020905b81548152906001019060200180831161185957829003601f168201915b5050505050908060030154908060040160009054906101000a900460ff16905085565b600681815481106118a957600080fd5b9060005260206000209060030201600091509050806000015490806001018054600181600116156101000203166002900480601f01602080910402602001604051908101604052809291908181526020018280546001816001161561010002031660029004801561195b5780601f106119305761010080835404028352916020019161195b565b820191906000526020600020905b81548152906001019060200180831161193e57829003601f168201915b5050505050908060020160009054906101000a900473ffffffffffffffffffffffffffffffffffffffff16908060020160149054906101000a900460ff16905084565b606080606060008060006119b187612de9565b9050600481815481106119c057fe5b9060005260206000209060060201600101600482815481106119de57fe5b9060005260206000209060060201600201600483815481106119fc57fe5b906000526020600020906006020160030160048481548110611a1a57fe5b90600052602060002090600602016004015460048581548110611a3957fe5b906000526020600020906006020160050160009054906101000a900460ff16848054600181600116156101000203166002900480601f016020809104026020016040519081016040528092919081815260200182805460018160011615610100020316600290048015611aed5780601f10611ac257610100808354040283529160200191611aed565b820191906000526020600020905b815481529060010190602001808311611ad057829003601f168201915b50505050509450838054600181600116156101000203166002900480601f016020809104026020016040519081016040528092919081815260200182805460018160011615610100020316600290048015611b895780601f10611b5e57610100808354040283529160200191611b89565b820191906000526020600020905b815481529060010190602001808311611b6c57829003601f168201915b50505050509350828054600181600116156101000203166002900480601f016020809104026020016040519081016040528092919081815260200182805460018160011615610100020316600290048015611c255780601f10611bfa57610100808354040283529160200191611c25565b820191906000526020600020905b815481529060010190602001808311611c0857829003601f168201915b50505050509250955095509550955095505091939590929450565b6000600480549050905090565b60046040518060c001604052808773ffffffffffffffffffffffffffffffffffffffff16815260200186815260200185815260200184815260200183815260200160011515815250908060018154018082558091505060019003906000526020600020906006020160009091909190915060008201518160000160006101000a81548173ffffffffffffffffffffffffffffffffffffffff021916908373ffffffffffffffffffffffffffffffffffffffff1602179055506020820151816001019080519060200190611d21929190612ec7565b506040820151816002019080519060200190611d3e929190612ec7565b506060820151816003019080519060200190611d5b929190612ec7565b506080820151816004015560a08201518160050160006101000a81548160ff02191690831515021790555050507ff646212acc3f5092fb0211ffd5121c0f706641b715e3982dab50afb395413dd585858585856001604051611dc2969594939291906138f7565b60405180910390a15050505050565b60036020528060005260406000206000915090508060000160009054906101000a900473ffffffffffffffffffffffffffffffffffffffff1690806001018054600181600116156101000203166002900480601f016020809104026020016040519081016040528092919081815260200182805460018160011615610100020316600290048015611ea35780601f10611e7857610100808354040283529160200191611ea3565b820191906000526020600020905b815481529060010190602001808311611e8657829003601f168201915b505050505090806002018054600181600116156101000203166002900480601f016020809104026020016040519081016040528092919081815260200182805460018160011615610100020316600290048015611f415780601f10611f1657610100808354040283529160200191611f41565b820191906000526020600020905b815481529060010190602001808311611f2457829003601f168201915b505050505090806003018054600181600116156101000203166002900480601f016020809104026020016040519081016040528092919081815260200182805460018160011615610100020316600290048015611fdf5780601f10611fb457610100808354040283529160200191611fdf565b820191906000526020600020905b815481529060010190602001808311611fc257829003601f168201915b5050505050908060040154908060050160009054906101000a900460ff16905086565b61200b82612d57565b5060086040518060a0016040528060015481526020018681526020018581526020018481526020018315158152509080600181540180825580915050600190039060005260206000209060050201600090919091909150600082015181600001556020820151816001019080519060200190612088929190612ec7565b5060408201518160020190805190602001906120a5929190612ec7565b506060820151816003015560808201518160040160006101000a81548160ff02191690831515021790555050507f2d1264c978dbc04e67902bdd99ef64c71b576782adc2464152646b00c3464aa76001548585858560405161210b959493929190613c71565b60405180910390a160016000815480929190600101919050555050505050565b6000600880549050905090565b600061214385612cc5565b9050836008828154811061215357fe5b90600052602060002090600502016001019080519060200190612177929190612ec7565b50826008828154811061218657fe5b906000526020600020906005020160020190805190602001906121aa929190612ec7565b5081600882815481106121b957fe5b9060005260206000209060050201600301819055507f3cdcbdac29c9d2da1e6acf97d069514bf4a172946cf98e2eddaeeec70dcb8ce7600882815481106121fc57fe5b9060005260206000209060050201600001546008838154811061221b57fe5b90600052602060002090600502016001016008848154811061223957fe5b90600052602060002090600502016002016008858154811061225757fe5b9060005260206000209060050201600301546040516122799493929190613d5c565b60405180910390a15050505050565b6060600060068054905067ffffffffffffffff811180156122a857600080fd5b506040519080825280602002602001820160405280156122e257816020015b6122cf612fd4565b8152602001906001900390816122c75790505b50905060005b6006805490508110156124cf576006818154811061230257fe5b906000526020600020906003020160020160009054906101000a900473ffffffffffffffffffffffffffffffffffffffff1673ffffffffffffffffffffffffffffffffffffffff168473ffffffffffffffffffffffffffffffffffffffff1614156124c2576006818154811061237457fe5b906000526020600020906003020160405180608001604052908160008201548152602001600182018054600181600116156101000203166002900480601f0160208091040260200160405190810160405280929190818152602001828054600181600116156101000203166002900480156124305780601f1061240557610100808354040283529160200191612430565b820191906000526020600020905b81548152906001019060200180831161241357829003601f168201915b505050505081526020016002820160009054906101000a900473ffffffffffffffffffffffffffffffffffffffff1673ffffffffffffffffffffffffffffffffffffffff1673ffffffffffffffffffffffffffffffffffffffff1681526020016002820160149054906101000a900460ff1615151515815250508282815181106124b657fe5b60200260200101819052505b80806001019150506122e8565b5080915050919050565b60006124e484612d57565b905082600682815481106124f457fe5b90600052602060002090600302016001019080519060200190612518929190612ec7565b50816006828154811061252757fe5b906000526020600020906003020160020160006101000a81548173ffffffffffffffffffffffffffffffffffffffff021916908373ffffffffffffffffffffffffffffffffffffffff1602179055507f68a08c702a4f949d49f5e0d32562c70f97751a2846006d05beccc6c9bf8b564e600682815481106125a457fe5b906000526020600020906003020160000154600683815481106125c357fe5b9060005260206000209060030201600101600684815481106125e157fe5b906000526020600020906003020160020160009054906101000a900473ffffffffffffffffffffffffffffffffffffffff1660405161262293929190613cd2565b60405180910390a150505050565b6004818154811061264057600080fd5b90600052602060002090600602016000915090508060000160009054906101000a900473ffffffffffffffffffffffffffffffffffffffff1690806001018054600181600116156101000203166002900480601f0160208091040260200160405190810160405280929190818152602001828054600181600116156101000203166002900480156127125780601f106126e757610100808354040283529160200191612712565b820191906000526020600020905b8154815290600101906020018083116126f557829003601f168201915b505050505090806002018054600181600116156101000203166002900480601f0160208091040260200160405190810160405280929190818152602001828054600181600116156101000203166002900480156127b05780601f10612785576101008083540402835291602001916127b0565b820191906000526020600020905b81548152906001019060200180831161279357829003601f168201915b505050505090806003018054600181600116156101000203166002900480601f01602080910402602001604051908101604052809291908181526020018280546001816001161561010002031660029004801561284e5780601f106128235761010080835404028352916020019161284e565b820191906000526020600020905b81548152906001019060200180831161283157829003601f168201915b5050505050908060040154908060050160009054906101000a900460ff16905086565b6005602052806000526040600020600091509050806000015490806001018054600181600116156101000203166002900480601f0160208091040260200160405190810160405280929190818152602001828054600181600116156101000203166002900480156129235780601f106128f857610100808354040283529160200191612923565b820191906000526020600020905b81548152906001019060200180831161290657829003601f168201915b5050505050908060020160009054906101000a900473ffffffffffffffffffffffffffffffffffffffff16908060020160149054906101000a900460ff16905084565b6008818154811061297657600080fd5b9060005260206000209060050201600091509050806000015490806001018054600181600116156101000203166002900480601f016020809104026020016040519081016040528092919081815260200182805460018160011615610100020316600290048015612a285780601f106129fd57610100808354040283529160200191612a28565b820191906000526020600020905b815481529060010190602001808311612a0b57829003601f168201915b505050505090806002018054600181600116156101000203166002900480601f016020809104026020016040519081016040528092919081815260200182805460018160011615610100020316600290048015612ac65780601f10612a9b57610100808354040283529160200191612ac6565b820191906000526020600020905b815481529060010190602001808311612aa957829003601f168201915b5050505050908060030154908060040160009054906101000a900460ff16905085565b6060600060068054905067ffffffffffffffff81118015612b0957600080fd5b50604051908082528060200260200182016040528015612b4357816020015b612b30612fd4565b815260200190600190039081612b285790505b50905060005b600680549050811015612cbd5760068181548110612b6357fe5b906000526020600020906003020160405180608001604052908160008201548152602001600182018054600181600116156101000203166002900480601f016020809104026020016040519081016040528092919081815260200182805460018160011615610100020316600290048015612c1f5780601f10612bf457610100808354040283529160200191612c1f565b820191906000526020600020905b815481529060010190602001808311612c0257829003601f168201915b505050505081526020016002820160009054906101000a900473ffffffffffffffffffffffffffffffffffffffff1673ffffffffffffffffffffffffffffffffffffffff1673ffffffffffffffffffffffffffffffffffffffff1681526020016002820160149054906101000a900460ff161515151581525050828281518110612ca557fe5b60200260200101819052508080600101915050612b49565b508091505090565b600080600090505b600880549050811015612d16578260088281548110612ce857fe5b9060005260206000209060050201600001541415612d095780915050612d52565b8080600101915050612ccd565b506040517f08c379a0000000000000000000000000000000000000000000000000000000008152600401612d4990613bca565b60405180910390fd5b919050565b600080600090505b600680549050811015612da8578260068281548110612d7a57fe5b9060005260206000209060030201600001541415612d9b5780915050612de4565b8080600101915050612d5f565b506040517f08c379a0000000000000000000000000000000000000000000000000000000008152600401612ddb90613baa565b60405180910390fd5b919050565b600080600090505b600480549050811015612e86578273ffffffffffffffffffffffffffffffffffffffff1660048281548110612e2257fe5b906000526020600020906006020160000160009054906101000a900473ffffffffffffffffffffffffffffffffffffffff1673ffffffffffffffffffffffffffffffffffffffff161415612e795780915050612ec2565b8080600101915050612df1565b506040517f08c379a0000000000000000000000000000000000000000000000000000000008152600401612eb990613bea565b60405180910390fd5b919050565b828054600181600116156101000203166002900490600052602060002090601f016020900481019282612efd5760008555612f44565b82601f10612f1657805160ff1916838001178555612f44565b82800160010185558215612f44579182015b82811115612f43578251825591602001919060010190612f28565b5b509050612f519190613014565b5090565b6040518060c00160405280600073ffffffffffffffffffffffffffffffffffffffff168152602001606081526020016060815260200160608152602001600081526020016000151581525090565b6040518060a00160405280600081526020016060815260200160608152602001600081526020016000151581525090565b60405180608001604052806000815260200160608152602001600073ffffffffffffffffffffffffffffffffffffffff1681526020016000151581525090565b5b8082111561302d576000816000905550600101613015565b5090565b600061304461303f84613e41565b613e10565b90508281526020810184848401111561305c57600080fd5b613067848285613fa6565b509392505050565b60008135905061307e81613ffb565b92915050565b60008135905061309381614012565b92915050565b600082601f8301126130aa57600080fd5b81356130ba848260208601613031565b91505092915050565b6000813590506130d281614029565b92915050565b6000602082840312156130ea57600080fd5b60006130f88482850161306f565b91505092915050565b600080600080600060a0868803121561311957600080fd5b60006131278882890161306f565b955050602086013567ffffffffffffffff81111561314457600080fd5b61315088828901613099565b945050604086013567ffffffffffffffff81111561316d57600080fd5b61317988828901613099565b935050606086013567ffffffffffffffff81111561319657600080fd5b6131a288828901613099565b92505060806131b3888289016130c3565b9150509295509295909350565b600080604083850312156131d357600080fd5b600083013567ffffffffffffffff8111156131ed57600080fd5b6131f985828601613099565b925050602061320a8582860161306f565b9150509250929050565b6000806000806080858703121561322a57600080fd5b600085013567ffffffffffffffff81111561324457600080fd5b61325087828801613099565b945050602085013567ffffffffffffffff81111561326d57600080fd5b61327987828801613099565b935050604061328a878288016130c3565b925050606061329b87828801613084565b91505092959194509250565b6000602082840312156132b957600080fd5b60006132c7848285016130c3565b91505092915050565b6000806000606084860312156132e557600080fd5b60006132f3868287016130c3565b935050602084013567ffffffffffffffff81111561331057600080fd5b61331c86828701613099565b925050604061332d8682870161306f565b9150509250925092565b6000806000806080858703121561334d57600080fd5b600061335b878288016130c3565b945050602085013567ffffffffffffffff81111561337857600080fd5b61338487828801613099565b935050604085013567ffffffffffffffff8111156133a157600080fd5b6133ad87828801613099565b92505060606133be878288016130c3565b91505092959194509250565b60006133d68383613762565b905092915050565b60006133ea83836137c5565b905092915050565b60006133fe838361385c565b905092915050565b61340f81613f5e565b82525050565b61341e81613f5e565b82525050565b600061342f82613eb6565b6134398185613f09565b93508360208202850161344b85613e71565b8060005b85811015613487578484038952815161346885826133ca565b945061347383613ee2565b925060208a0199505060018101905061344f565b50829750879550505050505092915050565b60006134a482613ec1565b6134ae8185613f1a565b9350836020820285016134c085613e81565b8060005b858110156134fc57848403895281516134dd85826133de565b94506134e883613eef565b925060208a019950506001810190506134c4565b50829750879550505050505092915050565b600061351982613ecc565b6135238185613f2b565b93508360208202850161353585613e91565b8060005b85811015613571578484038952815161355285826133f2565b945061355d83613efc565b925060208a01995050600181019050613539565b50829750879550505050505092915050565b61358c81613f70565b82525050565b61359b81613f70565b82525050565b60006135ac82613ed7565b6135b68185613f3c565b93506135c6818560208601613fb5565b6135cf81613fea565b840191505092915050565b60006135e582613ed7565b6135ef8185613f4d565b93506135ff818560208601613fb5565b61360881613fea565b840191505092915050565b60008154600181166000811461363057600181146136565761369a565b607f60028304166136418187613f4d565b955060ff19831686526020860193505061369a565b600282046136648187613f4d565b955061366f85613ea1565b60005b8281101561369157815481890152600182019150602081019050613672565b80880195505050505b505092915050565b60006136af601083613f4d565b91507f446f63746f72206e6f7420666f756e64000000000000000000000000000000006000830152602082019050919050565b60006136ef601083613f4d565b91507f53656e736f72206e6f7420666f756e64000000000000000000000000000000006000830152602082019050919050565b600061372f601283613f4d565b91507f486f73706974616c206e6f7420666f756e6400000000000000000000000000006000830152602082019050919050565b600060808301600083015161377a60008601826138d9565b506020830151848203602086015261379282826135a1565b91505060408301516137a76040860182613406565b5060608301516137ba6060860182613583565b508091505092915050565b600060c0830160008301516137dd6000860182613406565b50602083015184820360208601526137f582826135a1565b9150506040830151848203604086015261380f82826135a1565b9150506060830151848203606086015261382982826135a1565b915050608083015161383e60808601826138d9565b5060a083015161385160a0860182613583565b508091505092915050565b600060a08301600083015161387460008601826138d9565b506020830151848203602086015261388c82826135a1565b915050604083015184820360408601526138a682826135a1565b91505060608301516138bb60608601826138d9565b5060808301516138ce6080860182613583565b508091505092915050565b6138e281613f9c565b82525050565b6138f181613f9c565b82525050565b600060c08201905061390c6000830189613415565b818103602083015261391e81886135da565b9050818103604083015261393281876135da565b9050818103606083015261394681866135da565b905061395560808301856138e8565b61396260a0830184613592565b979650505050505050565b600060a0820190506139826000830188613415565b81810360208301526139948187613613565b905081810360408301526139a88186613613565b905081810360608301526139bc8185613613565b90506139cb60808301846138e8565b9695505050505050565b600060c0820190506139ea6000830189613415565b81810360208301526139fc8188613613565b90508181036040830152613a108187613613565b90508181036060830152613a248186613613565b9050613a3360808301856138e8565b613a4060a0830184613592565b979650505050505050565b60006020820190508181036000830152613a658184613424565b905092915050565b60006020820190508181036000830152613a878184613499565b905092915050565b60006020820190508181036000830152613aa9818461350e565b905092915050565b60006060820190508181036000830152613acb81866135da565b9050613ada6020830185613415565b613ae76040830184613592565b949350505050565b600060a0820190508181036000830152613b0981886135da565b90508181036020830152613b1d81876135da565b90508181036040830152613b3181866135da565b9050613b4060608301856138e8565b613b4d6080830184613592565b9695505050505050565b60006080820190508181036000830152613b7181876135da565b90508181036020830152613b8581866135da565b9050613b9460408301856138e8565b613ba16060830184613592565b95945050505050565b60006020820190508181036000830152613bc3816136a2565b9050919050565b60006020820190508181036000830152613be3816136e2565b9050919050565b60006020820190508181036000830152613c0381613722565b9050919050565b6000602082019050613c1f60008301846138e8565b92915050565b6000608082019050613c3a60008301876138e8565b8181036020830152613c4c81866135da565b9050613c5b6040830185613415565b613c686060830184613592565b95945050505050565b600060a082019050613c8660008301886138e8565b8181036020830152613c9881876135da565b90508181036040830152613cac81866135da565b9050613cbb60608301856138e8565b613cc86080830184613592565b9695505050505050565b6000606082019050613ce760008301866138e8565b8181036020830152613cf98185613613565b9050613d086040830184613415565b949350505050565b6000608082019050613d2560008301876138e8565b8181036020830152613d378186613613565b9050613d466040830185613415565b613d536060830184613592565b95945050505050565b6000608082019050613d7160008301876138e8565b8181036020830152613d838186613613565b90508181036040830152613d978185613613565b9050613da660608301846138e8565b95945050505050565b600060a082019050613dc460008301886138e8565b8181036020830152613dd68187613613565b90508181036040830152613dea8186613613565b9050613df960608301856138e8565b613e066080830184613592565b9695505050505050565b6000604051905081810181811067ffffffffffffffff82111715613e3757613e36613fe8565b5b8060405250919050565b600067ffffffffffffffff821115613e5c57613e5b613fe8565b5b601f19601f8301169050602081019050919050565b6000819050602082019050919050565b6000819050602082019050919050565b6000819050602082019050919050565b60008190508160005260206000209050919050565b600081519050919050565b600081519050919050565b600081519050919050565b600081519050919050565b6000602082019050919050565b6000602082019050919050565b6000602082019050919050565b600082825260208201905092915050565b600082825260208201905092915050565b600082825260208201905092915050565b600082825260208201905092915050565b600082825260208201905092915050565b6000613f6982613f7c565b9050919050565b60008115159050919050565b600073ffffffffffffffffffffffffffffffffffffffff82169050919050565b6000819050919050565b82818337600083830152505050565b60005b83811015613fd3578082015181840152602081019050613fb8565b83811115613fe2576000848401525b50505050565bfe5b6000601f19601f8301169050919050565b61400481613f5e565b811461400f57600080fd5b50565b61401b81613f70565b811461402657600080fd5b50565b61403281613f9c565b811461403d57600080fd5b5056fea264697066735822122046adc12d66d88676df3d6d6ea8025e217750494aa1b693e3b5dd3860046e643c64736f6c63430007060033",
      "opcodes": "PUSH1 0x80 PUSH1 0x40 MSTORE PUSH20 0x8FCF3B91599C6D5BB93D8C7DF9F3974C622B83A4 PUSH1 0x2 PUSH1 0x0 PUSH2 0x100 EXP DUP2 SLOAD DUP2 PUSH20 0xFFFFFFFFFFFFFFFFFFFFFFFFFFFFFFFFFFFFFFFF MUL NOT AND SWAP1 DUP4 PUSH20 0xFFFFFFFFFFFFFFFFFFFFFFFFFFFFFFFFFFFFFFFF AND MUL OR SWAP1 SSTORE POP CALLVALUE DUP1 ISZERO PUSH2 0x65 JUMPI PUSH1 0x0 DUP1 REVERT JUMPDEST POP PUSH2 0x4076 DUP1 PUSH2 0x75 PUSH1 0x0 CODECOPY PUSH1 0x0 RETURN INVALID PUSH1 0x80 PUSH1 0x40 MSTORE CALLVALUE DUP1 ISZERO PUSH2 0x10 JUMPI PUSH1 0x0 DUP1 REVERT JUMPDEST POP PUSH1 0x4 CALLDATASIZE LT PUSH2 0x18E JUMPI PUSH1 0x0 CALLDATALOAD PUSH1 0xE0 SHR DUP1 PUSH4 0x9B70E779 GT PUSH2 0xDE JUMPI DUP1 PUSH4 0xC1A92058 GT PUSH2 0x97 JUMPI DUP1 PUSH4 0xD53D0A85 GT PUSH2 0x71 JUMPI DUP1 PUSH4 0xD53D0A85 EQ PUSH2 0x4BA JUMPI DUP1 PUSH4 0xDC7AA36B EQ PUSH2 0x4EF JUMPI DUP1 PUSH4 0xEA87659F EQ PUSH2 0x522 JUMPI DUP1 PUSH4 0xF0D95090 EQ PUSH2 0x556 JUMPI PUSH2 0x18E JUMP JUMPDEST DUP1 PUSH4 0xC1A92058 EQ PUSH2 0x452 JUMPI DUP1 PUSH4 0xC266406D EQ PUSH2 0x46E JUMPI DUP1 PUSH4 0xC9034659 EQ PUSH2 0x49E JUMPI PUSH2 0x18E JUMP JUMPDEST DUP1 PUSH4 0x9B70E779 EQ PUSH2 0x375 JUMPI DUP1 PUSH4 0xA17D7A38 EQ PUSH2 0x3A9 JUMPI DUP1 PUSH4 0xA27876C5 EQ PUSH2 0x3C7 JUMPI DUP1 PUSH4 0xA549A4ED EQ PUSH2 0x3E3 JUMPI DUP1 PUSH4 0xADA913FD EQ PUSH2 0x418 JUMPI DUP1 PUSH4 0xB5843613 EQ PUSH2 0x434 JUMPI PUSH2 0x18E JUMP JUMPDEST DUP1 PUSH4 0x4E9F7154 GT PUSH2 0x14B JUMPI DUP1 PUSH4 0x66D92C81 GT PUSH2 0x125 JUMPI DUP1 PUSH4 0x66D92C81 EQ PUSH2 0x2C2 JUMPI DUP1 PUSH4 0x7E85BCEA EQ PUSH2 0x2F2 JUMPI DUP1 PUSH4 0x898BD140 EQ PUSH2 0x30E JUMPI DUP1 PUSH4 0x8DB2FC41 EQ PUSH2 0x342 JUMPI PUSH2 0x18E JUMP JUMPDEST DUP1 PUSH4 0x4E9F7154 EQ PUSH2 0x26A JUMPI DUP1 PUSH4 0x5A4E5D3E EQ PUSH2 0x288 JUMPI DUP1 PUSH4 0x6151EFB1 EQ PUSH2 0x2A6 JUMPI PUSH2 0x18E JUMP JUMPDEST DUP1 PUSH4 0x2655C2E EQ PUSH2 0x193 JUMPI DUP1 PUSH4 0xC8CABEC EQ PUSH2 0x1C6 JUMPI DUP1 PUSH4 0x14C94371 EQ PUSH2 0x1F8 JUMPI DUP1 PUSH4 0x1BA51696 EQ PUSH2 0x214 JUMPI DUP1 PUSH4 0x3F98B96E EQ PUSH2 0x232 JUMPI DUP1 PUSH4 0x4807FC69 EQ PUSH2 0x24E JUMPI JUMPDEST PUSH1 0x0 DUP1 REVERT JUMPDEST PUSH2 0x1AD PUSH1 0x4 DUP1 CALLDATASIZE SUB DUP2 ADD SWAP1 PUSH2 0x1A8 SWAP2 SWAP1 PUSH2 0x32A7 JUMP JUMPDEST PUSH2 0x574 JUMP JUMPDEST PUSH1 0x40 MLOAD PUSH2 0x1BD SWAP5 SWAP4 SWAP3 SWAP2 SWAP1 PUSH2 0x3B57 JUMP JUMPDEST PUSH1 0x40 MLOAD DUP1 SWAP2 SUB SWAP1 RETURN JUMPDEST PUSH2 0x1E0 PUSH1 0x4 DUP1 CALLDATASIZE SUB DUP2 ADD SWAP1 PUSH2 0x1DB SWAP2 SWAP1 PUSH2 0x32A7 JUMP JUMPDEST PUSH2 0x756 JUMP JUMPDEST PUSH1 0x40 MLOAD PUSH2 0x1EF SWAP4 SWAP3 SWAP2 SWAP1 PUSH2 0x3AB1 JUMP JUMPDEST PUSH1 0x40 MLOAD DUP1 SWAP2 SUB SWAP1 RETURN JUMPDEST PUSH2 0x212 PUSH1 0x4 DUP1 CALLDATASIZE SUB DUP2 ADD SWAP1 PUSH2 0x20D SWAP2 SWAP1 PUSH2 0x3101 JUMP JUMPDEST PUSH2 0x89B JUMP JUMPDEST STOP JUMPDEST PUSH2 0x21C PUSH2 0xA5E JUMP JUMPDEST PUSH1 0x40 MLOAD PUSH2 0x229 SWAP2 SWAP1 PUSH2 0x3C0A JUMP JUMPDEST PUSH1 0x40 MLOAD DUP1 SWAP2 SUB SWAP1 RETURN JUMPDEST PUSH2 0x24C PUSH1 0x4 DUP1 CALLDATASIZE SUB DUP2 ADD SWAP1 PUSH2 0x247 SWAP2 SWAP1 PUSH2 0x31C0 JUMP JUMPDEST PUSH2 0xA6B JUMP JUMPDEST STOP JUMPDEST PUSH2 0x268 PUSH1 0x4 DUP1 CALLDATASIZE SUB DUP2 ADD SWAP1 PUSH2 0x263 SWAP2 SWAP1 PUSH2 0x30D8 JUMP JUMPDEST PUSH2 0xBC1 JUMP JUMPDEST STOP JUMPDEST PUSH2 0x272 PUSH2 0xD28 JUMP JUMPDEST PUSH1 0x40 MLOAD PUSH2 0x27F SWAP2 SWAP1 PUSH2 0x3A6D JUMP JUMPDEST PUSH1 0x40 MLOAD DUP1 SWAP2 SUB SWAP1 RETURN JUMPDEST PUSH2 0x290 PUSH2 0x1048 JUMP JUMPDEST PUSH1 0x40 MLOAD PUSH2 0x29D SWAP2 SWAP1 PUSH2 0x3A8F JUMP JUMPDEST PUSH1 0x40 MLOAD DUP1 SWAP2 SUB SWAP1 RETURN JUMPDEST PUSH2 0x2C0 PUSH1 0x4 DUP1 CALLDATASIZE SUB DUP2 ADD SWAP1 PUSH2 0x2BB SWAP2 SWAP1 PUSH2 0x32A7 JUMP JUMPDEST PUSH2 0x127A JUMP JUMPDEST STOP JUMPDEST PUSH2 0x2DC PUSH1 0x4 DUP1 CALLDATASIZE SUB DUP2 ADD SWAP1 PUSH2 0x2D7 SWAP2 SWAP1 PUSH2 0x32A7 JUMP JUMPDEST PUSH2 0x13A2 JUMP JUMPDEST PUSH1 0x40 MLOAD PUSH2 0x2E9 SWAP2 SWAP1 PUSH2 0x3A8F JUMP JUMPDEST PUSH1 0x40 MLOAD DUP1 SWAP2 SUB SWAP1 RETURN JUMPDEST PUSH2 0x30C PUSH1 0x4 DUP1 CALLDATASIZE SUB DUP2 ADD SWAP1 PUSH2 0x307 SWAP2 SWAP1 PUSH2 0x32A7 JUMP JUMPDEST PUSH2 0x15FD JUMP JUMPDEST STOP JUMPDEST PUSH2 0x328 PUSH1 0x4 DUP1 CALLDATASIZE SUB DUP2 ADD SWAP1 PUSH2 0x323 SWAP2 SWAP1 PUSH2 0x30D8 JUMP JUMPDEST PUSH2 0x1726 JUMP JUMPDEST PUSH1 0x40 MLOAD PUSH2 0x339 SWAP6 SWAP5 SWAP4 SWAP3 SWAP2 SWAP1 PUSH2 0x3C71 JUMP JUMPDEST PUSH1 0x40 MLOAD DUP1 SWAP2 SUB SWAP1 RETURN JUMPDEST PUSH2 0x35C PUSH1 0x4 DUP1 CALLDATASIZE SUB DUP2 ADD SWAP1 PUSH2 0x357 SWAP2 SWAP1 PUSH2 0x32A7 JUMP JUMPDEST PUSH2 0x1899 JUMP JUMPDEST PUSH1 0x40 MLOAD PUSH2 0x36C SWAP5 SWAP4 SWAP3 SWAP2 SWAP1 PUSH2 0x3C25 JUMP JUMPDEST PUSH1 0x40 MLOAD DUP1 SWAP2 SUB SWAP1 RETURN JUMPDEST PUSH2 0x38F PUSH1 0x4 DUP1 CALLDATASIZE SUB DUP2 ADD SWAP1 PUSH2 0x38A SWAP2 SWAP1 PUSH2 0x30D8 JUMP JUMPDEST PUSH2 0x199E JUMP JUMPDEST PUSH1 0x40 MLOAD PUSH2 0x3A0 SWAP6 SWAP5 SWAP4 SWAP3 SWAP2 SWAP1 PUSH2 0x3AEF JUMP JUMPDEST PUSH1 0x40 MLOAD DUP1 SWAP2 SUB SWAP1 RETURN JUMPDEST PUSH2 0x3B1 PUSH2 0x1C40 JUMP JUMPDEST PUSH1 0x40 MLOAD PUSH2 0x3BE SWAP2 SWAP1 PUSH2 0x3C0A JUMP JUMPDEST PUSH1 0x40 MLOAD DUP1 SWAP2 SUB SWAP1 RETURN JUMPDEST PUSH2 0x3E1 PUSH1 0x4 DUP1 CALLDATASIZE SUB DUP2 ADD SWAP1 PUSH2 0x3DC SWAP2 SWAP1 PUSH2 0x3101 JUMP JUMPDEST PUSH2 0x1C4D JUMP JUMPDEST STOP JUMPDEST PUSH2 0x3FD PUSH1 0x4 DUP1 CALLDATASIZE SUB DUP2 ADD SWAP1 PUSH2 0x3F8 SWAP2 SWAP1 PUSH2 0x30D8 JUMP JUMPDEST PUSH2 0x1DD1 JUMP JUMPDEST PUSH1 0x40 MLOAD PUSH2 0x40F SWAP7 SWAP6 SWAP5 SWAP4 SWAP3 SWAP2 SWAP1 PUSH2 0x38F7 JUMP JUMPDEST PUSH1 0x40 MLOAD DUP1 SWAP2 SUB SWAP1 RETURN JUMPDEST PUSH2 0x432 PUSH1 0x4 DUP1 CALLDATASIZE SUB DUP2 ADD SWAP1 PUSH2 0x42D SWAP2 SWAP1 PUSH2 0x3214 JUMP JUMPDEST PUSH2 0x2002 JUMP JUMPDEST STOP JUMPDEST PUSH2 0x43C PUSH2 0x212B JUMP JUMPDEST PUSH1 0x40 MLOAD PUSH2 0x449 SWAP2 SWAP1 PUSH2 0x3C0A JUMP JUMPDEST PUSH1 0x40 MLOAD DUP1 SWAP2 SUB SWAP1 RETURN JUMPDEST PUSH2 0x46C PUSH1 0x4 DUP1 CALLDATASIZE SUB DUP2 ADD SWAP1 PUSH2 0x467 SWAP2 SWAP1 PUSH2 0x3337 JUMP JUMPDEST PUSH2 0x2138 JUMP JUMPDEST STOP JUMPDEST PUSH2 0x488 PUSH1 0x4 DUP1 CALLDATASIZE SUB DUP2 ADD SWAP1 PUSH2 0x483 SWAP2 SWAP1 PUSH2 0x30D8 JUMP JUMPDEST PUSH2 0x2288 JUMP JUMPDEST PUSH1 0x40 MLOAD PUSH2 0x495 SWAP2 SWAP1 PUSH2 0x3A4B JUMP JUMPDEST PUSH1 0x40 MLOAD DUP1 SWAP2 SUB SWAP1 RETURN JUMPDEST PUSH2 0x4B8 PUSH1 0x4 DUP1 CALLDATASIZE SUB DUP2 ADD SWAP1 PUSH2 0x4B3 SWAP2 SWAP1 PUSH2 0x32D0 JUMP JUMPDEST PUSH2 0x24D9 JUMP JUMPDEST STOP JUMPDEST PUSH2 0x4D4 PUSH1 0x4 DUP1 CALLDATASIZE SUB DUP2 ADD SWAP1 PUSH2 0x4CF SWAP2 SWAP1 PUSH2 0x32A7 JUMP JUMPDEST PUSH2 0x2630 JUMP JUMPDEST PUSH1 0x40 MLOAD PUSH2 0x4E6 SWAP7 SWAP6 SWAP5 SWAP4 SWAP3 SWAP2 SWAP1 PUSH2 0x38F7 JUMP JUMPDEST PUSH1 0x40 MLOAD DUP1 SWAP2 SUB SWAP1 RETURN JUMPDEST PUSH2 0x509 PUSH1 0x4 DUP1 CALLDATASIZE SUB DUP2 ADD SWAP1 PUSH2 0x504 SWAP2 SWAP1 PUSH2 0x30D8 JUMP JUMPDEST PUSH2 0x2871 JUMP JUMPDEST PUSH1 0x40 MLOAD PUSH2 0x519 SWAP5 SWAP4 SWAP3 SWAP2 SWAP1 PUSH2 0x3C25 JUMP JUMPDEST PUSH1 0x40 MLOAD DUP1 SWAP2 SUB SWAP1 RETURN JUMPDEST PUSH2 0x53C PUSH1 0x4 DUP1 CALLDATASIZE SUB DUP2 ADD SWAP1 PUSH2 0x537 SWAP2 SWAP1 PUSH2 0x32A7 JUMP JUMPDEST PUSH2 0x2966 JUMP JUMPDEST PUSH1 0x40 MLOAD PUSH2 0x54D SWAP6 SWAP5 SWAP4 SWAP3 SWAP2 SWAP1 PUSH2 0x3C71 JUMP JUMPDEST PUSH1 0x40 MLOAD DUP1 SWAP2 SUB SWAP1 RETURN JUMPDEST PUSH2 0x55E PUSH2 0x2AE9 JUMP JUMPDEST PUSH1 0x40 MLOAD PUSH2 0x56B SWAP2 SWAP1 PUSH2 0x3A4B JUMP JUMPDEST PUSH1 0x40 MLOAD DUP1 SWAP2 SUB SWAP1 RETURN JUMPDEST PUSH1 0x60 DUP1 PUSH1 0x0 DUP1 PUSH1 0x0 PUSH2 0x585 DUP7 PUSH2 0x2CC5 JUMP JUMPDEST SWAP1 POP PUSH1 0x8 DUP2 DUP2 SLOAD DUP2 LT PUSH2 0x594 JUMPI INVALID JUMPDEST SWAP1 PUSH1 0x0 MSTORE PUSH1 0x20 PUSH1 0x0 KECCAK256 SWAP1 PUSH1 0x5 MUL ADD PUSH1 0x1 ADD PUSH1 0x8 DUP3 DUP2 SLOAD DUP2 LT PUSH2 0x5B2 JUMPI INVALID JUMPDEST SWAP1 PUSH1 0x0 MSTORE PUSH1 0x20 PUSH1 0x0 KECCAK256 SWAP1 PUSH1 0x5 MUL ADD PUSH1 0x2 ADD PUSH1 0x8 DUP4 DUP2 SLOAD DUP2 LT PUSH2 0x5D0 JUMPI INVALID JUMPDEST SWAP1 PUSH1 0x0 MSTORE PUSH1 0x20 PUSH1 0x0 KECCAK256 SWAP1 PUSH1 0x5 MUL ADD PUSH1 0x3 ADD SLOAD PUSH1 0x8 DUP5 DUP2 SLOAD DUP2 LT PUSH2 0x5EF JUMPI INVALID JUMPDEST SWAP1 PUSH1 0x0 MSTORE PUSH1 0x20 PUSH1 0x0 KECCAK256 SWAP1 PUSH1 0x5 MUL ADD PUSH1 0x4 ADD PUSH1 0x0 SWAP1 SLOAD SWAP1 PUSH2 0x100 EXP SWAP1 DIV PUSH1 0xFF AND DUP4 DUP1 SLOAD PUSH1 0x1 DUP2 PUSH1 0x1 AND ISZERO PUSH2 0x100 MUL SUB AND PUSH1 0x2 SWAP1 DIV DUP1 PUSH1 0x1F ADD PUSH1 0x20 DUP1 SWAP2 DIV MUL PUSH1 0x20 ADD PUSH1 0x40 MLOAD SWAP1 DUP2 ADD PUSH1 0x40 MSTORE DUP1 SWAP3 SWAP2 SWAP1 DUP2 DUP2 MSTORE PUSH1 0x20 ADD DUP3 DUP1 SLOAD PUSH1 0x1 DUP2 PUSH1 0x1 AND ISZERO PUSH2 0x100 MUL SUB AND PUSH1 0x2 SWAP1 DIV DUP1 ISZERO PUSH2 0x6A3 JUMPI DUP1 PUSH1 0x1F LT PUSH2 0x678 JUMPI PUSH2 0x100 DUP1 DUP4 SLOAD DIV MUL DUP4 MSTORE SWAP2 PUSH1 0x20 ADD SWAP2 PUSH2 0x6A3 JUMP JUMPDEST DUP3 ADD SWAP2 SWAP1 PUSH1 0x0 MSTORE PUSH1 0x20 PUSH1 0x0 KECCAK256 SWAP1 JUMPDEST DUP2 SLOAD DUP2 MSTORE SWAP1 PUSH1 0x1 ADD SWAP1 PUSH1 0x20 ADD DUP1 DUP4 GT PUSH2 0x686 JUMPI DUP3 SWAP1 SUB PUSH1 0x1F AND DUP3 ADD SWAP2 JUMPDEST POP POP POP POP POP SWAP4 POP DUP3 DUP1 SLOAD PUSH1 0x1 DUP2 PUSH1 0x1 AND ISZERO PUSH2 0x100 MUL SUB AND PUSH1 0x2 SWAP1 DIV DUP1 PUSH1 0x1F ADD PUSH1 0x20 DUP1 SWAP2 DIV MUL PUSH1 0x20 ADD PUSH1 0x40 MLOAD SWAP1 DUP2 ADD PUSH1 0x40 MSTORE DUP1 SWAP3 SWAP2 SWAP1 DUP2 DUP2 MSTORE PUSH1 0x20 ADD DUP3 DUP1 SLOAD PUSH1 0x1 DUP2 PUSH1 0x1 AND ISZERO PUSH2 0x100 MUL SUB AND PUSH1 0x2 SWAP1 DIV DUP1 ISZERO PUSH2 0x73F JUMPI DUP1 PUSH1 0x1F LT PUSH2 0x714 JUMPI PUSH2 0x100 DUP1 DUP4 SLOAD DIV MUL DUP4 MSTORE SWAP2 PUSH1 0x20 ADD SWAP2 PUSH2 0x73F JUMP JUMPDEST DUP3 ADD SWAP2 SWAP1 PUSH1 0x0 MSTORE PUSH1 0x20 PUSH1 0x0 KECCAK256 SWAP1 JUMPDEST DUP2 SLOAD DUP2 MSTORE SWAP1 PUSH1 0x1 ADD SWAP1 PUSH1 0x20 ADD DUP1 DUP4 GT PUSH2 0x722 JUMPI DUP3 SWAP1 SUB PUSH1 0x1F AND DUP3 ADD SWAP2 JUMPDEST POP POP POP POP POP SWAP3 POP SWAP5 POP SWAP5 POP SWAP5 POP SWAP5 POP POP SWAP2 SWAP4 POP SWAP2 SWAP4 JUMP JUMPDEST PUSH1 0x60 PUSH1 0x0 DUP1 PUSH1 0x0 PUSH2 0x766 DUP6 PUSH2 0x2D57 JUMP JUMPDEST SWAP1 POP PUSH1 0x6 DUP2 DUP2 SLOAD DUP2 LT PUSH2 0x775 JUMPI INVALID JUMPDEST SWAP1 PUSH1 0x0 MSTORE PUSH1 0x20 PUSH1 0x0 KECCAK256 SWAP1 PUSH1 0x3 MUL ADD PUSH1 0x1 ADD PUSH1 0x6 DUP3 DUP2 SLOAD DUP2 LT PUSH2 0x793 JUMPI INVALID JUMPDEST SWAP1 PUSH1 0x0 MSTORE PUSH1 0x20 PUSH1 0x0 KECCAK256 SWAP1 PUSH1 0x3 MUL ADD PUSH1 0x2 ADD PUSH1 0x0 SWAP1 SLOAD SWAP1 PUSH2 0x100 EXP SWAP1 DIV PUSH20 0xFFFFFFFFFFFFFFFFFFFFFFFFFFFFFFFFFFFFFFFF AND PUSH1 0x6 DUP4 DUP2 SLOAD DUP2 LT PUSH2 0x7D2 JUMPI INVALID JUMPDEST SWAP1 PUSH1 0x0 MSTORE PUSH1 0x20 PUSH1 0x0 KECCAK256 SWAP1 PUSH1 0x3 MUL ADD PUSH1 0x2 ADD PUSH1 0x14 SWAP1 SLOAD SWAP1 PUSH2 0x100 EXP SWAP1 DIV PUSH1 0xFF AND DUP3 DUP1 SLOAD PUSH1 0x1 DUP2 PUSH1 0x1 AND ISZERO PUSH2 0x100 MUL SUB AND PUSH1 0x2 SWAP1 DIV DUP1 PUSH1 0x1F ADD PUSH1 0x20 DUP1 SWAP2 DIV MUL PUSH1 0x20 ADD PUSH1 0x40 MLOAD SWAP1 DUP2 ADD PUSH1 0x40 MSTORE DUP1 SWAP3 SWAP2 SWAP1 DUP2 DUP2 MSTORE PUSH1 0x20 ADD DUP3 DUP1 SLOAD PUSH1 0x1 DUP2 PUSH1 0x1 AND ISZERO PUSH2 0x100 MUL SUB AND PUSH1 0x2 SWAP1 DIV DUP1 ISZERO PUSH2 0x886 JUMPI DUP1 PUSH1 0x1F LT PUSH2 0x85B JUMPI PUSH2 0x100 DUP1 DUP4 SLOAD DIV MUL DUP4 MSTORE SWAP2 PUSH1 0x20 ADD SWAP2 PUSH2 0x886 JUMP JUMPDEST DUP3 ADD SWAP2 SWAP1 PUSH1 0x0 MSTORE PUSH1 0x20 PUSH1 0x0 KECCAK256 SWAP1 JUMPDEST DUP2 SLOAD DUP2 MSTORE SWAP1 PUSH1 0x1 ADD SWAP1 PUSH1 0x20 ADD DUP1 DUP4 GT PUSH2 0x869 JUMPI DUP3 SWAP1 SUB PUSH1 0x1F AND DUP3 ADD SWAP2 JUMPDEST POP POP POP POP POP SWAP3 POP SWAP4 POP SWAP4 POP SWAP4 POP POP SWAP2 SWAP4 SWAP1 SWAP3 POP JUMP JUMPDEST PUSH1 0x0 PUSH2 0x8A6 DUP7 PUSH2 0x2DE9 JUMP JUMPDEST SWAP1 POP DUP5 PUSH1 0x4 DUP3 DUP2 SLOAD DUP2 LT PUSH2 0x8B6 JUMPI INVALID JUMPDEST SWAP1 PUSH1 0x0 MSTORE PUSH1 0x20 PUSH1 0x0 KECCAK256 SWAP1 PUSH1 0x6 MUL ADD PUSH1 0x1 ADD SWAP1 DUP1 MLOAD SWAP1 PUSH1 0x20 ADD SWAP1 PUSH2 0x8DA SWAP3 SWAP2 SWAP1 PUSH2 0x2EC7 JUMP JUMPDEST POP DUP4 PUSH1 0x4 DUP3 DUP2 SLOAD DUP2 LT PUSH2 0x8E9 JUMPI INVALID JUMPDEST SWAP1 PUSH1 0x0 MSTORE PUSH1 0x20 PUSH1 0x0 KECCAK256 SWAP1 PUSH1 0x6 MUL ADD PUSH1 0x2 ADD SWAP1 DUP1 MLOAD SWAP1 PUSH1 0x20 ADD SWAP1 PUSH2 0x90D SWAP3 SWAP2 SWAP1 PUSH2 0x2EC7 JUMP JUMPDEST POP DUP3 PUSH1 0x4 DUP3 DUP2 SLOAD DUP2 LT PUSH2 0x91C JUMPI INVALID JUMPDEST SWAP1 PUSH1 0x0 MSTORE PUSH1 0x20 PUSH1 0x0 KECCAK256 SWAP1 PUSH1 0x6 MUL ADD PUSH1 0x3 ADD SWAP1 DUP1 MLOAD SWAP1 PUSH1 0x20 ADD SWAP1 PUSH2 0x940 SWAP3 SWAP2 SWAP1 PUSH2 0x2EC7 JUMP JUMPDEST POP DUP2 PUSH1 0x4 DUP3 DUP2 SLOAD DUP2 LT PUSH2 0x94F JUMPI INVALID JUMPDEST SWAP1 PUSH1 0x0 MSTORE PUSH1 0x20 PUSH1 0x0 KECCAK256 SWAP1 PUSH1 0x6 MUL ADD PUSH1 0x4 ADD DUP2 SWAP1 SSTORE POP PUSH32 0xB1C43F8B1923988960E95C122FD3EBB503023379B8CA6F0603D2F6B0BEB52811 PUSH1 0x4 DUP3 DUP2 SLOAD DUP2 LT PUSH2 0x992 JUMPI INVALID JUMPDEST SWAP1 PUSH1 0x0 MSTORE PUSH1 0x20 PUSH1 0x0 KECCAK256 SWAP1 PUSH1 0x6 MUL ADD PUSH1 0x0 ADD PUSH1 0x0 SWAP1 SLOAD SWAP1 PUSH2 0x100 EXP SWAP1 DIV PUSH20 0xFFFFFFFFFFFFFFFFFFFFFFFFFFFFFFFFFFFFFFFF AND PUSH1 0x4 DUP4 DUP2 SLOAD DUP2 LT PUSH2 0x9D1 JUMPI INVALID JUMPDEST SWAP1 PUSH1 0x0 MSTORE PUSH1 0x20 PUSH1 0x0 KECCAK256 SWAP1 PUSH1 0x6 MUL ADD PUSH1 0x1 ADD PUSH1 0x4 DUP5 DUP2 SLOAD DUP2 LT PUSH2 0x9EF JUMPI INVALID JUMPDEST SWAP1 PUSH1 0x0 MSTORE PUSH1 0x20 PUSH1 0x0 KECCAK256 SWAP1 PUSH1 0x6 MUL ADD PUSH1 0x2 ADD PUSH1 0x4 DUP6 DUP2 SLOAD DUP2 LT PUSH2 0xA0D JUMPI INVALID JUMPDEST SWAP1 PUSH1 0x0 MSTORE PUSH1 0x20 PUSH1 0x0 KECCAK256 SWAP1 PUSH1 0x6 MUL ADD PUSH1 0x3 ADD PUSH1 0x4 DUP7 DUP2 SLOAD DUP2 LT PUSH2 0xA2B JUMPI INVALID JUMPDEST SWAP1 PUSH1 0x0 MSTORE PUSH1 0x20 PUSH1 0x0 KECCAK256 SWAP1 PUSH1 0x6 MUL ADD PUSH1 0x4 ADD SLOAD PUSH1 0x40 MLOAD PUSH2 0xA4E SWAP6 SWAP5 SWAP4 SWAP3 SWAP2 SWAP1 PUSH2 0x396D JUMP JUMPDEST PUSH1 0x40 MLOAD DUP1 SWAP2 SUB SWAP1 LOG1 POP POP POP POP POP POP JUMP JUMPDEST PUSH1 0x0 PUSH1 0x4 DUP1 SLOAD SWAP1 POP SWAP1 POP SWAP1 JUMP JUMPDEST PUSH2 0xA74 DUP2 PUSH2 0x2DE9 JUMP JUMPDEST POP PUSH1 0x6 PUSH1 0x40 MLOAD DUP1 PUSH1 0x80 ADD PUSH1 0x40 MSTORE DUP1 PUSH1 0x0 SLOAD DUP2 MSTORE PUSH1 0x20 ADD DUP5 DUP2 MSTORE PUSH1 0x20 ADD DUP4 PUSH20 0xFFFFFFFFFFFFFFFFFFFFFFFFFFFFFFFFFFFFFFFF AND DUP2 MSTORE PUSH1 0x20 ADD PUSH1 0x1 ISZERO ISZERO DUP2 MSTORE POP SWAP1 DUP1 PUSH1 0x1 DUP2 SLOAD ADD DUP1 DUP3 SSTORE DUP1 SWAP2 POP POP PUSH1 0x1 SWAP1 SUB SWAP1 PUSH1 0x0 MSTORE PUSH1 0x20 PUSH1 0x0 KECCAK256 SWAP1 PUSH1 0x3 MUL ADD PUSH1 0x0 SWAP1 SWAP2 SWAP1 SWAP2 SWAP1 SWAP2 POP PUSH1 0x0 DUP3 ADD MLOAD DUP2 PUSH1 0x0 ADD SSTORE PUSH1 0x20 DUP3 ADD MLOAD DUP2 PUSH1 0x1 ADD SWAP1 DUP1 MLOAD SWAP1 PUSH1 0x20 ADD SWAP1 PUSH2 0xB02 SWAP3 SWAP2 SWAP1 PUSH2 0x2EC7 JUMP JUMPDEST POP PUSH1 0x40 DUP3 ADD MLOAD DUP2 PUSH1 0x2 ADD PUSH1 0x0 PUSH2 0x100 EXP DUP2 SLOAD DUP2 PUSH20 0xFFFFFFFFFFFFFFFFFFFFFFFFFFFFFFFFFFFFFFFF MUL NOT AND SWAP1 DUP4 PUSH20 0xFFFFFFFFFFFFFFFFFFFFFFFFFFFFFFFFFFFFFFFF AND MUL OR SWAP1 SSTORE POP PUSH1 0x60 DUP3 ADD MLOAD DUP2 PUSH1 0x2 ADD PUSH1 0x14 PUSH2 0x100 EXP DUP2 SLOAD DUP2 PUSH1 0xFF MUL NOT AND SWAP1 DUP4 ISZERO ISZERO MUL OR SWAP1 SSTORE POP POP POP PUSH32 0xA62610561B12041392F1D0D26C8FA465822EE8FBB7359C7311261ECC2F7709FF PUSH1 0x0 SLOAD DUP4 DUP4 PUSH1 0x1 PUSH1 0x40 MLOAD PUSH2 0xBA4 SWAP5 SWAP4 SWAP3 SWAP2 SWAP1 PUSH2 0x3C25 JUMP JUMPDEST PUSH1 0x40 MLOAD DUP1 SWAP2 SUB SWAP1 LOG1 PUSH1 0x0 DUP1 DUP2 SLOAD DUP1 SWAP3 SWAP2 SWAP1 PUSH1 0x1 ADD SWAP2 SWAP1 POP SSTORE POP POP POP JUMP JUMPDEST PUSH1 0x0 PUSH2 0xBCC DUP3 PUSH2 0x2DE9 JUMP JUMPDEST SWAP1 POP PUSH1 0x0 PUSH1 0x4 DUP3 DUP2 SLOAD DUP2 LT PUSH2 0xBDD JUMPI INVALID JUMPDEST SWAP1 PUSH1 0x0 MSTORE PUSH1 0x20 PUSH1 0x0 KECCAK256 SWAP1 PUSH1 0x6 MUL ADD PUSH1 0x5 ADD PUSH1 0x0 PUSH2 0x100 EXP DUP2 SLOAD DUP2 PUSH1 0xFF MUL NOT AND SWAP1 DUP4 ISZERO ISZERO MUL OR SWAP1 SSTORE POP PUSH32 0x5818F5E23A2C2BB34C81792EA8E3397D3F8AD179CB93A5FA57B3D4681564AA0 PUSH1 0x4 DUP3 DUP2 SLOAD DUP2 LT PUSH2 0xC33 JUMPI INVALID JUMPDEST SWAP1 PUSH1 0x0 MSTORE PUSH1 0x20 PUSH1 0x0 KECCAK256 SWAP1 PUSH1 0x6 MUL ADD PUSH1 0x0 ADD PUSH1 0x0 SWAP1 SLOAD SWAP1 PUSH2 0x100 EXP SWAP1 DIV PUSH20 0xFFFFFFFFFFFFFFFFFFFFFFFFFFFFFFFFFFFFFFFF AND PUSH1 0x4 DUP4 DUP2 SLOAD DUP2 LT PUSH2 0xC72 JUMPI INVALID JUMPDEST SWAP1 PUSH1 0x0 MSTORE PUSH1 0x20 PUSH1 0x0 KECCAK256 SWAP1 PUSH1 0x6 MUL ADD PUSH1 0x1 ADD PUSH1 0x4 DUP5 DUP2 SLOAD DUP2 LT PUSH2 0xC90 JUMPI INVALID JUMPDEST SWAP1 PUSH1 0x0 MSTORE PUSH1 0x20 PUSH1 0x0 KECCAK256 SWAP1 PUSH1 0x6 MUL ADD PUSH1 0x2 ADD PUSH1 0x4 DUP6 DUP2 SLOAD DUP2 LT PUSH2 0xCAE JUMPI INVALID JUMPDEST SWAP1 PUSH1 0x0 MSTORE PUSH1 0x20 PUSH1 0x0 KECCAK256 SWAP1 PUSH1 0x6 MUL ADD PUSH1 0x3 ADD PUSH1 0x4 DUP7 DUP2 SLOAD DUP2 LT PUSH2 0xCCC JUMPI INVALID JUMPDEST SWAP1 PUSH1 0x0 MSTORE PUSH1 0x20 PUSH1 0x0 KECCAK256 SWAP1 PUSH1 0x6 MUL ADD PUSH1 0x4 ADD SLOAD PUSH1 0x4 DUP8 DUP2 SLOAD DUP2 LT PUSH2 0xCEB JUMPI INVALID JUMPDEST SWAP1 PUSH1 0x0 MSTORE PUSH1 0x20 PUSH1 0x0 KECCAK256 SWAP1 PUSH1 0x6 MUL ADD PUSH1 0x5 ADD PUSH1 0x0 SWAP1 SLOAD SWAP1 PUSH2 0x100 EXP SWAP1 DIV PUSH1 0xFF AND PUSH1 0x40 MLOAD PUSH2 0xD1C SWAP7 SWAP6 SWAP5 SWAP4 SWAP3 SWAP2 SWAP1 PUSH2 0x39D5 JUMP JUMPDEST PUSH1 0x40 MLOAD DUP1 SWAP2 SUB SWAP1 LOG1 POP POP JUMP JUMPDEST PUSH1 0x60 PUSH1 0x0 PUSH1 0x4 DUP1 SLOAD SWAP1 POP PUSH8 0xFFFFFFFFFFFFFFFF DUP2 GT DUP1 ISZERO PUSH2 0xD48 JUMPI PUSH1 0x0 DUP1 REVERT JUMPDEST POP PUSH1 0x40 MLOAD SWAP1 DUP1 DUP3 MSTORE DUP1 PUSH1 0x20 MUL PUSH1 0x20 ADD DUP3 ADD PUSH1 0x40 MSTORE DUP1 ISZERO PUSH2 0xD82 JUMPI DUP2 PUSH1 0x20 ADD JUMPDEST PUSH2 0xD6F PUSH2 0x2F55 JUMP JUMPDEST DUP2 MSTORE PUSH1 0x20 ADD SWAP1 PUSH1 0x1 SWAP1 SUB SWAP1 DUP2 PUSH2 0xD67 JUMPI SWAP1 POP JUMPDEST POP SWAP1 POP PUSH1 0x0 JUMPDEST PUSH1 0x4 DUP1 SLOAD SWAP1 POP DUP2 LT ISZERO PUSH2 0x1040 JUMPI PUSH1 0x4 DUP2 DUP2 SLOAD DUP2 LT PUSH2 0xDA2 JUMPI INVALID JUMPDEST SWAP1 PUSH1 0x0 MSTORE PUSH1 0x20 PUSH1 0x0 KECCAK256 SWAP1 PUSH1 0x6 MUL ADD PUSH1 0x40 MLOAD DUP1 PUSH1 0xC0 ADD PUSH1 0x40 MSTORE SWAP1 DUP2 PUSH1 0x0 DUP3 ADD PUSH1 0x0 SWAP1 SLOAD SWAP1 PUSH2 0x100 EXP SWAP1 DIV PUSH20 0xFFFFFFFFFFFFFFFFFFFFFFFFFFFFFFFFFFFFFFFF AND PUSH20 0xFFFFFFFFFFFFFFFFFFFFFFFFFFFFFFFFFFFFFFFF AND PUSH20 0xFFFFFFFFFFFFFFFFFFFFFFFFFFFFFFFFFFFFFFFF AND DUP2 MSTORE PUSH1 0x20 ADD PUSH1 0x1 DUP3 ADD DUP1 SLOAD PUSH1 0x1 DUP2 PUSH1 0x1 AND ISZERO PUSH2 0x100 MUL SUB AND PUSH1 0x2 SWAP1 DIV DUP1 PUSH1 0x1F ADD PUSH1 0x20 DUP1 SWAP2 DIV MUL PUSH1 0x20 ADD PUSH1 0x40 MLOAD SWAP1 DUP2 ADD PUSH1 0x40 MSTORE DUP1 SWAP3 SWAP2 SWAP1 DUP2 DUP2 MSTORE PUSH1 0x20 ADD DUP3 DUP1 SLOAD PUSH1 0x1 DUP2 PUSH1 0x1 AND ISZERO PUSH2 0x100 MUL SUB AND PUSH1 0x2 SWAP1 DIV DUP1 ISZERO PUSH2 0xEAA JUMPI DUP1 PUSH1 0x1F LT PUSH2 0xE7F JUMPI PUSH2 0x100 DUP1 DUP4 SLOAD DIV MUL DUP4 MSTORE SWAP2 PUSH1 0x20 ADD SWAP2 PUSH2 0xEAA JUMP JUMPDEST DUP3 ADD SWAP2 SWAP1 PUSH1 0x0 MSTORE PUSH1 0x20 PUSH1 0x0 KECCAK256 SWAP1 JUMPDEST DUP2 SLOAD DUP2 MSTORE SWAP1 PUSH1 0x1 ADD SWAP1 PUSH1 0x20 ADD DUP1 DUP4 GT PUSH2 0xE8D JUMPI DUP3 SWAP1 SUB PUSH1 0x1F AND DUP3 ADD SWAP2 JUMPDEST POP POP POP POP POP DUP2 MSTORE PUSH1 0x20 ADD PUSH1 0x2 DUP3 ADD DUP1 SLOAD PUSH1 0x1 DUP2 PUSH1 0x1 AND ISZERO PUSH2 0x100 MUL SUB AND PUSH1 0x2 SWAP1 DIV DUP1 PUSH1 0x1F ADD PUSH1 0x20 DUP1 SWAP2 DIV MUL PUSH1 0x20 ADD PUSH1 0x40 MLOAD SWAP1 DUP2 ADD PUSH1 0x40 MSTORE DUP1 SWAP3 SWAP2 SWAP1 DUP2 DUP2 MSTORE PUSH1 0x20 ADD DUP3 DUP1 SLOAD PUSH1 0x1 DUP2 PUSH1 0x1 AND ISZERO PUSH2 0x100 MUL SUB AND PUSH1 0x2 SWAP1 DIV DUP1 ISZERO PUSH2 0xF4C JUMPI DUP1 PUSH1 0x1F LT PUSH2 0xF21 JUMPI PUSH2 0x100 DUP1 DUP4 SLOAD DIV MUL DUP4 MSTORE SWAP2 PUSH1 0x20 ADD SWAP2 PUSH2 0xF4C JUMP JUMPDEST DUP3 ADD SWAP2 SWAP1 PUSH1 0x0 MSTORE PUSH1 0x20 PUSH1 0x0 KECCAK256 SWAP1 JUMPDEST DUP2 SLOAD DUP2 MSTORE SWAP1 PUSH1 0x1 ADD SWAP1 PUSH1 0x20 ADD DUP1 DUP4 GT PUSH2 0xF2F JUMPI DUP3 SWAP1 SUB PUSH1 0x1F AND DUP3 ADD SWAP2 JUMPDEST POP POP POP POP POP DUP2 MSTORE PUSH1 0x20 ADD PUSH1 0x3 DUP3 ADD DUP1 SLOAD PUSH1 0x1 DUP2 PUSH1 0x1 AND ISZERO PUSH2 0x100 MUL SUB AND PUSH1 0x2 SWAP1 DIV DUP1 PUSH1 0x1F ADD PUSH1 0x20 DUP1 SWAP2 DIV MUL PUSH1 0x20 ADD PUSH1 0x40 MLOAD SWAP1 DUP2 ADD PUSH1 0x40 MSTORE DUP1 SWAP3 SWAP2 SWAP1 DUP2 DUP2 MSTORE PUSH1 0x20 ADD DUP3 DUP1 SLOAD PUSH1 0x1 DUP2 PUSH1 0x1 AND ISZERO PUSH2 0x100 MUL SUB AND PUSH1 0x2 SWAP1 DIV DUP1 ISZERO PUSH2 0xFEE JUMPI DUP1 PUSH1 0x1F LT PUSH2 0xFC3 JUMPI PUSH2 0x100 DUP1 DUP4 SLOAD DIV MUL DUP4 MSTORE SWAP2 PUSH1 0x20 ADD SWAP2 PUSH2 0xFEE JUMP JUMPDEST DUP3 ADD SWAP2 SWAP1 PUSH1 0x0 MSTORE PUSH1 0x20 PUSH1 0x0 KECCAK256 SWAP1 JUMPDEST DUP2 SLOAD DUP2 MSTORE SWAP1 PUSH1 0x1 ADD SWAP1 PUSH1 0x20 ADD DUP1 DUP4 GT PUSH2 0xFD1 JUMPI DUP3 SWAP1 SUB PUSH1 0x1F AND DUP3 ADD SWAP2 JUMPDEST POP POP POP POP POP DUP2 MSTORE PUSH1 0x20 ADD PUSH1 0x4 DUP3 ADD SLOAD DUP2 MSTORE PUSH1 0x20 ADD PUSH1 0x5 DUP3 ADD PUSH1 0x0 SWAP1 SLOAD SWAP1 PUSH2 0x100 EXP SWAP1 DIV PUSH1 0xFF AND ISZERO ISZERO ISZERO ISZERO DUP2 MSTORE POP POP DUP3 DUP3 DUP2 MLOAD DUP2 LT PUSH2 0x1028 JUMPI INVALID JUMPDEST PUSH1 0x20 MUL PUSH1 0x20 ADD ADD DUP2 SWAP1 MSTORE POP DUP1 DUP1 PUSH1 0x1 ADD SWAP2 POP POP PUSH2 0xD88 JUMP JUMPDEST POP DUP1 SWAP2 POP POP SWAP1 JUMP JUMPDEST PUSH1 0x60 PUSH1 0x0 PUSH1 0x8 DUP1 SLOAD SWAP1 POP PUSH8 0xFFFFFFFFFFFFFFFF DUP2 GT DUP1 ISZERO PUSH2 0x1068 JUMPI PUSH1 0x0 DUP1 REVERT JUMPDEST POP PUSH1 0x40 MLOAD SWAP1 DUP1 DUP3 MSTORE DUP1 PUSH1 0x20 MUL PUSH1 0x20 ADD DUP3 ADD PUSH1 0x40 MSTORE DUP1 ISZERO PUSH2 0x10A2 JUMPI DUP2 PUSH1 0x20 ADD JUMPDEST PUSH2 0x108F PUSH2 0x2FA3 JUMP JUMPDEST DUP2 MSTORE PUSH1 0x20 ADD SWAP1 PUSH1 0x1 SWAP1 SUB SWAP1 DUP2 PUSH2 0x1087 JUMPI SWAP1 POP JUMPDEST POP SWAP1 POP PUSH1 0x0 JUMPDEST PUSH1 0x8 DUP1 SLOAD SWAP1 POP DUP2 LT ISZERO PUSH2 0x1272 JUMPI PUSH1 0x8 DUP2 DUP2 SLOAD DUP2 LT PUSH2 0x10C2 JUMPI INVALID JUMPDEST SWAP1 PUSH1 0x0 MSTORE PUSH1 0x20 PUSH1 0x0 KECCAK256 SWAP1 PUSH1 0x5 MUL ADD PUSH1 0x40 MLOAD DUP1 PUSH1 0xA0 ADD PUSH1 0x40 MSTORE SWAP1 DUP2 PUSH1 0x0 DUP3 ADD SLOAD DUP2 MSTORE PUSH1 0x20 ADD PUSH1 0x1 DUP3 ADD DUP1 SLOAD PUSH1 0x1 DUP2 PUSH1 0x1 AND ISZERO PUSH2 0x100 MUL SUB AND PUSH1 0x2 SWAP1 DIV DUP1 PUSH1 0x1F ADD PUSH1 0x20 DUP1 SWAP2 DIV MUL PUSH1 0x20 ADD PUSH1 0x40 MLOAD SWAP1 DUP2 ADD PUSH1 0x40 MSTORE DUP1 SWAP3 SWAP2 SWAP1 DUP2 DUP2 MSTORE PUSH1 0x20 ADD DUP3 DUP1 SLOAD PUSH1 0x1 DUP2 PUSH1 0x1 AND ISZERO PUSH2 0x100 MUL SUB AND PUSH1 0x2 SWAP1 DIV DUP1 ISZERO PUSH2 0x117E JUMPI DUP1 PUSH1 0x1F LT PUSH2 0x1153 JUMPI PUSH2 0x100 DUP1 DUP4 SLOAD DIV MUL DUP4 MSTORE SWAP2 PUSH1 0x20 ADD SWAP2 PUSH2 0x117E JUMP JUMPDEST DUP3 ADD SWAP2 SWAP1 PUSH1 0x0 MSTORE PUSH1 0x20 PUSH1 0x0 KECCAK256 SWAP1 JUMPDEST DUP2 SLOAD DUP2 MSTORE SWAP1 PUSH1 0x1 ADD SWAP1 PUSH1 0x20 ADD DUP1 DUP4 GT PUSH2 0x1161 JUMPI DUP3 SWAP1 SUB PUSH1 0x1F AND DUP3 ADD SWAP2 JUMPDEST POP POP POP POP POP DUP2 MSTORE PUSH1 0x20 ADD PUSH1 0x2 DUP3 ADD DUP1 SLOAD PUSH1 0x1 DUP2 PUSH1 0x1 AND ISZERO PUSH2 0x100 MUL SUB AND PUSH1 0x2 SWAP1 DIV DUP1 PUSH1 0x1F ADD PUSH1 0x20 DUP1 SWAP2 DIV MUL PUSH1 0x20 ADD PUSH1 0x40 MLOAD SWAP1 DUP2 ADD PUSH1 0x40 MSTORE DUP1 SWAP3 SWAP2 SWAP1 DUP2 DUP2 MSTORE PUSH1 0x20 ADD DUP3 DUP1 SLOAD PUSH1 0x1 DUP2 PUSH1 0x1 AND ISZERO PUSH2 0x100 MUL SUB AND PUSH1 0x2 SWAP1 DIV DUP1 ISZERO PUSH2 0x1220 JUMPI DUP1 PUSH1 0x1F LT PUSH2 0x11F5 JUMPI PUSH2 0x100 DUP1 DUP4 SLOAD DIV MUL DUP4 MSTORE SWAP2 PUSH1 0x20 ADD SWAP2 PUSH2 0x1220 JUMP JUMPDEST DUP3 ADD SWAP2 SWAP1 PUSH1 0x0 MSTORE PUSH1 0x20 PUSH1 0x0 KECCAK256 SWAP1 JUMPDEST DUP2 SLOAD DUP2 MSTORE SWAP1 PUSH1 0x1 ADD SWAP1 PUSH1 0x20 ADD DUP1 DUP4 GT PUSH2 0x1203 JUMPI DUP3 SWAP1 SUB PUSH1 0x1F AND DUP3 ADD SWAP2 JUMPDEST POP POP POP POP POP DUP2 MSTORE PUSH1 0x20 ADD PUSH1 0x3 DUP3 ADD SLOAD DUP2 MSTORE PUSH1 0x20 ADD PUSH1 0x4 DUP3 ADD PUSH1 0x0 SWAP1 SLOAD SWAP1 PUSH2 0x100 EXP SWAP1 DIV PUSH1 0xFF AND ISZERO ISZERO ISZERO ISZERO DUP2 MSTORE POP POP DUP3 DUP3 DUP2 MLOAD DUP2 LT PUSH2 0x125A JUMPI INVALID JUMPDEST PUSH1 0x20 MUL PUSH1 0x20 ADD ADD DUP2 SWAP1 MSTORE POP DUP1 DUP1 PUSH1 0x1 ADD SWAP2 POP POP PUSH2 0x10A8 JUMP JUMPDEST POP DUP1 SWAP2 POP POP SWAP1 JUMP JUMPDEST PUSH1 0x0 PUSH2 0x1285 DUP3 PUSH2 0x2CC5 JUMP JUMPDEST SWAP1 POP PUSH1 0x0 PUSH1 0x8 DUP3 DUP2 SLOAD DUP2 LT PUSH2 0x1296 JUMPI INVALID JUMPDEST SWAP1 PUSH1 0x0 MSTORE PUSH1 0x20 PUSH1 0x0 KECCAK256 SWAP1 PUSH1 0x5 MUL ADD PUSH1 0x4 ADD PUSH1 0x0 PUSH2 0x100 EXP DUP2 SLOAD DUP2 PUSH1 0xFF MUL NOT AND SWAP1 DUP4 ISZERO ISZERO MUL OR SWAP1 SSTORE POP PUSH32 0xA1B22357B87BDD7B6E7615D113431DE2EF11B50EE5B1C310A0C8D81D06D78300 PUSH1 0x8 DUP3 DUP2 SLOAD DUP2 LT PUSH2 0x12EC JUMPI INVALID JUMPDEST SWAP1 PUSH1 0x0 MSTORE PUSH1 0x20 PUSH1 0x0 KECCAK256 SWAP1 PUSH1 0x5 MUL ADD PUSH1 0x0 ADD SLOAD PUSH1 0x8 DUP4 DUP2 SLOAD DUP2 LT PUSH2 0x130B JUMPI INVALID JUMPDEST SWAP1 PUSH1 0x0 MSTORE PUSH1 0x20 PUSH1 0x0 KECCAK256 SWAP1 PUSH1 0x5 MUL ADD PUSH1 0x1 ADD PUSH1 0x8 DUP5 DUP2 SLOAD DUP2 LT PUSH2 0x1329 JUMPI INVALID JUMPDEST SWAP1 PUSH1 0x0 MSTORE PUSH1 0x20 PUSH1 0x0 KECCAK256 SWAP1 PUSH1 0x5 MUL ADD PUSH1 0x2 ADD PUSH1 0x8 DUP6 DUP2 SLOAD DUP2 LT PUSH2 0x1347 JUMPI INVALID JUMPDEST SWAP1 PUSH1 0x0 MSTORE PUSH1 0x20 PUSH1 0x0 KECCAK256 SWAP1 PUSH1 0x5 MUL ADD PUSH1 0x3 ADD SLOAD PUSH1 0x8 DUP7 DUP2 SLOAD DUP2 LT PUSH2 0x1366 JUMPI INVALID JUMPDEST SWAP1 PUSH1 0x0 MSTORE PUSH1 0x20 PUSH1 0x0 KECCAK256 SWAP1 PUSH1 0x5 MUL ADD PUSH1 0x4 ADD PUSH1 0x0 SWAP1 SLOAD SWAP1 PUSH2 0x100 EXP SWAP1 DIV PUSH1 0xFF AND PUSH1 0x40 MLOAD PUSH2 0x1396 SWAP6 SWAP5 SWAP4 SWAP3 SWAP2 SWAP1 PUSH2 0x3DAF JUMP JUMPDEST PUSH1 0x40 MLOAD DUP1 SWAP2 SUB SWAP1 LOG1 POP POP JUMP JUMPDEST PUSH1 0x60 PUSH1 0x0 PUSH1 0x8 DUP1 SLOAD SWAP1 POP PUSH8 0xFFFFFFFFFFFFFFFF DUP2 GT DUP1 ISZERO PUSH2 0x13C2 JUMPI PUSH1 0x0 DUP1 REVERT JUMPDEST POP PUSH1 0x40 MLOAD SWAP1 DUP1 DUP3 MSTORE DUP1 PUSH1 0x20 MUL PUSH1 0x20 ADD DUP3 ADD PUSH1 0x40 MSTORE DUP1 ISZERO PUSH2 0x13FC JUMPI DUP2 PUSH1 0x20 ADD JUMPDEST PUSH2 0x13E9 PUSH2 0x2FA3 JUMP JUMPDEST DUP2 MSTORE PUSH1 0x20 ADD SWAP1 PUSH1 0x1 SWAP1 SUB SWAP1 DUP2 PUSH2 0x13E1 JUMPI SWAP1 POP JUMPDEST POP SWAP1 POP PUSH1 0x0 JUMPDEST PUSH1 0x8 DUP1 SLOAD SWAP1 POP DUP2 LT ISZERO PUSH2 0x15F3 JUMPI PUSH1 0x8 DUP2 DUP2 SLOAD DUP2 LT PUSH2 0x141C JUMPI INVALID JUMPDEST SWAP1 PUSH1 0x0 MSTORE PUSH1 0x20 PUSH1 0x0 KECCAK256 SWAP1 PUSH1 0x5 MUL ADD PUSH1 0x3 ADD SLOAD DUP5 EQ ISZERO PUSH2 0x15E6 JUMPI PUSH1 0x8 DUP2 DUP2 SLOAD DUP2 LT PUSH2 0x1442 JUMPI INVALID JUMPDEST SWAP1 PUSH1 0x0 MSTORE PUSH1 0x20 PUSH1 0x0 KECCAK256 SWAP1 PUSH1 0x5 MUL ADD PUSH1 0x40 MLOAD DUP1 PUSH1 0xA0 ADD PUSH1 0x40 MSTORE SWAP1 DUP2 PUSH1 0x0 DUP3 ADD SLOAD DUP2 MSTORE PUSH1 0x20 ADD PUSH1 0x1 DUP3 ADD DUP1 SLOAD PUSH1 0x1 DUP2 PUSH1 0x1 AND ISZERO PUSH2 0x100 MUL SUB AND PUSH1 0x2 SWAP1 DIV DUP1 PUSH1 0x1F ADD PUSH1 0x20 DUP1 SWAP2 DIV MUL PUSH1 0x20 ADD PUSH1 0x40 MLOAD SWAP1 DUP2 ADD PUSH1 0x40 MSTORE DUP1 SWAP3 SWAP2 SWAP1 DUP2 DUP2 MSTORE PUSH1 0x20 ADD DUP3 DUP1 SLOAD PUSH1 0x1 DUP2 PUSH1 0x1 AND ISZERO PUSH2 0x100 MUL SUB AND PUSH1 0x2 SWAP1 DIV DUP1 ISZERO PUSH2 0x14FE JUMPI DUP1 PUSH1 0x1F LT PUSH2 0x14D3 JUMPI PUSH2 0x100 DUP1 DUP4 SLOAD DIV MUL DUP4 MSTORE SWAP2 PUSH1 0x20 ADD SWAP2 PUSH2 0x14FE JUMP JUMPDEST DUP3 ADD SWAP2 SWAP1 PUSH1 0x0 MSTORE PUSH1 0x20 PUSH1 0x0 KECCAK256 SWAP1 JUMPDEST DUP2 SLOAD DUP2 MSTORE SWAP1 PUSH1 0x1 ADD SWAP1 PUSH1 0x20 ADD DUP1 DUP4 GT PUSH2 0x14E1 JUMPI DUP3 SWAP1 SUB PUSH1 0x1F AND DUP3 ADD SWAP2 JUMPDEST POP POP POP POP POP DUP2 MSTORE PUSH1 0x20 ADD PUSH1 0x2 DUP3 ADD DUP1 SLOAD PUSH1 0x1 DUP2 PUSH1 0x1 AND ISZERO PUSH2 0x100 MUL SUB AND PUSH1 0x2 SWAP1 DIV DUP1 PUSH1 0x1F ADD PUSH1 0x20 DUP1 SWAP2 DIV MUL PUSH1 0x20 ADD PUSH1 0x40 MLOAD SWAP1 DUP2 ADD PUSH1 0x40 MSTORE DUP1 SWAP3 SWAP2 SWAP1 DUP2 DUP2 MSTORE PUSH1 0x20 ADD DUP3 DUP1 SLOAD PUSH1 0x1 DUP2 PUSH1 0x1 AND ISZERO PUSH2 0x100 MUL SUB AND PUSH1 0x2 SWAP1 DIV DUP1 ISZERO PUSH2 0x15A0 JUMPI DUP1 PUSH1 0x1F LT PUSH2 0x1575 JUMPI PUSH2 0x100 DUP1 DUP4 SLOAD DIV MUL DUP4 MSTORE SWAP2 PUSH1 0x20 ADD SWAP2 PUSH2 0x15A0 JUMP JUMPDEST DUP3 ADD SWAP2 SWAP1 PUSH1 0x0 MSTORE PUSH1 0x20 PUSH1 0x0 KECCAK256 SWAP1 JUMPDEST DUP2 SLOAD DUP2 MSTORE SWAP1 PUSH1 0x1 ADD SWAP1 PUSH1 0x20 ADD DUP1 DUP4 GT PUSH2 0x1583 JUMPI DUP3 SWAP1 SUB PUSH1 0x1F AND DUP3 ADD SWAP2 JUMPDEST POP POP POP POP POP DUP2 MSTORE PUSH1 0x20 ADD PUSH1 0x3 DUP3 ADD SLOAD DUP2 MSTORE PUSH1 0x20 ADD PUSH1 0x4 DUP3 ADD PUSH1 0x0 SWAP1 SLOAD SWAP1 PUSH2 0x100 EXP SWAP1 DIV PUSH1 0xFF AND ISZERO ISZERO ISZERO ISZERO DUP2 MSTORE POP POP DUP3 DUP3 DUP2 MLOAD DUP2 LT PUSH2 0x15DA JUMPI INVALID JUMPDEST PUSH1 0x20 MUL PUSH1 0x20 ADD ADD DUP2 SWAP1 MSTORE POP JUMPDEST DUP1 DUP1 PUSH1 0x1 ADD SWAP2 POP POP PUSH2 0x1402 JUMP JUMPDEST POP DUP1 SWAP2 POP POP SWAP2 SWAP1 POP JUMP JUMPDEST PUSH1 0x0 PUSH2 0x1608 DUP3 PUSH2 0x2D57 JUMP JUMPDEST SWAP1 POP PUSH1 0x0 PUSH1 0x6 DUP3 DUP2 SLOAD DUP2 LT PUSH2 0x1619 JUMPI INVALID JUMPDEST SWAP1 PUSH1 0x0 MSTORE PUSH1 0x20 PUSH1 0x0 KECCAK256 SWAP1 PUSH1 0x3 MUL ADD PUSH1 0x2 ADD PUSH1 0x14 PUSH2 0x100 EXP DUP2 SLOAD DUP2 PUSH1 0xFF MUL NOT AND SWAP1 DUP4 ISZERO ISZERO MUL OR SWAP1 SSTORE POP PUSH32 0x3196E7CE6B332050A55708B2DD6FD95A0381CB56E1DCD604C5FE8B3152404448 PUSH1 0x6 DUP3 DUP2 SLOAD DUP2 LT PUSH2 0x166F JUMPI INVALID JUMPDEST SWAP1 PUSH1 0x0 MSTORE PUSH1 0x20 PUSH1 0x0 KECCAK256 SWAP1 PUSH1 0x3 MUL ADD PUSH1 0x0 ADD SLOAD PUSH1 0x6 DUP4 DUP2 SLOAD DUP2 LT PUSH2 0x168E JUMPI INVALID JUMPDEST SWAP1 PUSH1 0x0 MSTORE PUSH1 0x20 PUSH1 0x0 KECCAK256 SWAP1 PUSH1 0x3 MUL ADD PUSH1 0x1 ADD PUSH1 0x6 DUP5 DUP2 SLOAD DUP2 LT PUSH2 0x16AC JUMPI INVALID JUMPDEST SWAP1 PUSH1 0x0 MSTORE PUSH1 0x20 PUSH1 0x0 KECCAK256 SWAP1 PUSH1 0x3 MUL ADD PUSH1 0x2 ADD PUSH1 0x0 SWAP1 SLOAD SWAP1 PUSH2 0x100 EXP SWAP1 DIV PUSH20 0xFFFFFFFFFFFFFFFFFFFFFFFFFFFFFFFFFFFFFFFF AND PUSH1 0x6 DUP6 DUP2 SLOAD DUP2 LT PUSH2 0x16EB JUMPI INVALID JUMPDEST SWAP1 PUSH1 0x0 MSTORE PUSH1 0x20 PUSH1 0x0 KECCAK256 SWAP1 PUSH1 0x3 MUL ADD PUSH1 0x2 ADD PUSH1 0x14 SWAP1 SLOAD SWAP1 PUSH2 0x100 EXP SWAP1 DIV PUSH1 0xFF AND PUSH1 0x40 MLOAD PUSH2 0x171A SWAP5 SWAP4 SWAP3 SWAP2 SWAP1 PUSH2 0x3D10 JUMP JUMPDEST PUSH1 0x40 MLOAD DUP1 SWAP2 SUB SWAP1 LOG1 POP POP JUMP JUMPDEST PUSH1 0x7 PUSH1 0x20 MSTORE DUP1 PUSH1 0x0 MSTORE PUSH1 0x40 PUSH1 0x0 KECCAK256 PUSH1 0x0 SWAP2 POP SWAP1 POP DUP1 PUSH1 0x0 ADD SLOAD SWAP1 DUP1 PUSH1 0x1 ADD DUP1 SLOAD PUSH1 0x1 DUP2 PUSH1 0x1 AND ISZERO PUSH2 0x100 MUL SUB AND PUSH1 0x2 SWAP1 DIV DUP1 PUSH1 0x1F ADD PUSH1 0x20 DUP1 SWAP2 DIV MUL PUSH1 0x20 ADD PUSH1 0x40 MLOAD SWAP1 DUP2 ADD PUSH1 0x40 MSTORE DUP1 SWAP3 SWAP2 SWAP1 DUP2 DUP2 MSTORE PUSH1 0x20 ADD DUP3 DUP1 SLOAD PUSH1 0x1 DUP2 PUSH1 0x1 AND ISZERO PUSH2 0x100 MUL SUB AND PUSH1 0x2 SWAP1 DIV DUP1 ISZERO PUSH2 0x17D8 JUMPI DUP1 PUSH1 0x1F LT PUSH2 0x17AD JUMPI PUSH2 0x100 DUP1 DUP4 SLOAD DIV MUL DUP4 MSTORE SWAP2 PUSH1 0x20 ADD SWAP2 PUSH2 0x17D8 JUMP JUMPDEST DUP3 ADD SWAP2 SWAP1 PUSH1 0x0 MSTORE PUSH1 0x20 PUSH1 0x0 KECCAK256 SWAP1 JUMPDEST DUP2 SLOAD DUP2 MSTORE SWAP1 PUSH1 0x1 ADD SWAP1 PUSH1 0x20 ADD DUP1 DUP4 GT PUSH2 0x17BB JUMPI DUP3 SWAP1 SUB PUSH1 0x1F AND DUP3 ADD SWAP2 JUMPDEST POP POP POP POP POP SWAP1 DUP1 PUSH1 0x2 ADD DUP1 SLOAD PUSH1 0x1 DUP2 PUSH1 0x1 AND ISZERO PUSH2 0x100 MUL SUB AND PUSH1 0x2 SWAP1 DIV DUP1 PUSH1 0x1F ADD PUSH1 0x20 DUP1 SWAP2 DIV MUL PUSH1 0x20 ADD PUSH1 0x40 MLOAD SWAP1 DUP2 ADD PUSH1 0x40 MSTORE DUP1 SWAP3 SWAP2 SWAP1 DUP2 DUP2 MSTORE PUSH1 0x20 ADD DUP3 DUP1 SLOAD PUSH1 0x1 DUP2 PUSH1 0x1 AND ISZERO PUSH2 0x100 MUL SUB AND PUSH1 0x2 SWAP1 DIV DUP1 ISZERO PUSH2 0x1876 JUMPI DUP1 PUSH1 0x1F LT PUSH2 0x184B JUMPI PUSH2 0x100 DUP1 DUP4 SLOAD DIV MUL DUP4 MSTORE SWAP2 PUSH1 0x20 ADD SWAP2 PUSH2 0x1876 JUMP JUMPDEST DUP3 ADD SWAP2 SWAP1 PUSH1 0x0 MSTORE PUSH1 0x20 PUSH1 0x0 KECCAK256 SWAP1 JUMPDEST DUP2 SLOAD DUP2 MSTORE SWAP1 PUSH1 0x1 ADD SWAP1 PUSH1 0x20 ADD DUP1 DUP4 GT PUSH2 0x1859 JUMPI DUP3 SWAP1 SUB PUSH1 0x1F AND DUP3 ADD SWAP2 JUMPDEST POP POP POP POP POP SWAP1 DUP1 PUSH1 0x3 ADD SLOAD SWAP1 DUP1 PUSH1 0x4 ADD PUSH1 0x0 SWAP1 SLOAD SWAP1 PUSH2 0x100 EXP SWAP1 DIV PUSH1 0xFF AND SWAP1 POP DUP6 JUMP JUMPDEST PUSH1 0x6 DUP2 DUP2 SLOAD DUP2 LT PUSH2 0x18A9 JUMPI PUSH1 0x0 DUP1 REVERT JUMPDEST SWAP1 PUSH1 0x0 MSTORE PUSH1 0x20 PUSH1 0x0 KECCAK256 SWAP1 PUSH1 0x3 MUL ADD PUSH1 0x0 SWAP2 POP SWAP1 POP DUP1 PUSH1 0x0 ADD SLOAD SWAP1 DUP1 PUSH1 0x1 ADD DUP1 SLOAD PUSH1 0x1 DUP2 PUSH1 0x1 AND ISZERO PUSH2 0x100 MUL SUB AND PUSH1 0x2 SWAP1 DIV DUP1 PUSH1 0x1F ADD PUSH1 0x20 DUP1 SWAP2 DIV MUL PUSH1 0x20 ADD PUSH1 0x40 MLOAD SWAP1 DUP2 ADD PUSH1 0x40 MSTORE DUP1 SWAP3 SWAP2 SWAP1 DUP2 DUP2 MSTORE PUSH1 0x20 ADD DUP3 DUP1 SLOAD PUSH1 0x1 DUP2 PUSH1 0x1 AND ISZERO PUSH2 0x100 MUL SUB AND PUSH1 0x2 SWAP1 DIV DUP1 ISZERO PUSH2 0x195B JUMPI DUP1 PUSH1 0x1F LT PUSH2 0x1930 JUMPI PUSH2 0x100 DUP1 DUP4 SLOAD DIV MUL DUP4 MSTORE SWAP2 PUSH1 0x20 ADD SWAP2 PUSH2 0x195B JUMP JUMPDEST DUP3 ADD SWAP2 SWAP1 PUSH1 0x0 MSTORE PUSH1 0x20 PUSH1 0x0 KECCAK256 SWAP1 JUMPDEST DUP2 SLOAD DUP2 MSTORE SWAP1 PUSH1 0x1 ADD SWAP1 PUSH1 0x20 ADD DUP1 DUP4 GT PUSH2 0x193E JUMPI DUP3 SWAP1 SUB PUSH1 0x1F AND DUP3 ADD SWAP2 JUMPDEST POP POP POP POP POP SWAP1 DUP1 PUSH1 0x2 ADD PUSH1 0x0 SWAP1 SLOAD SWAP1 PUSH2 0x100 EXP SWAP1 DIV PUSH20 0xFFFFFFFFFFFFFFFFFFFFFFFFFFFFFFFFFFFFFFFF AND SWAP1 DUP1 PUSH1 0x2 ADD PUSH1 0x14 SWAP1 SLOAD SWAP1 PUSH2 0x100 EXP SWAP1 DIV PUSH1 0xFF AND SWAP1 POP DUP5 JUMP JUMPDEST PUSH1 0x60 DUP1 PUSH1 0x60 PUSH1 0x0 DUP1 PUSH1 0x0 PUSH2 0x19B1 DUP8 PUSH2 0x2DE9 JUMP JUMPDEST SWAP1 POP PUSH1 0x4 DUP2 DUP2 SLOAD DUP2 LT PUSH2 0x19C0 JUMPI INVALID JUMPDEST SWAP1 PUSH1 0x0 MSTORE PUSH1 0x20 PUSH1 0x0 KECCAK256 SWAP1 PUSH1 0x6 MUL ADD PUSH1 0x1 ADD PUSH1 0x4 DUP3 DUP2 SLOAD DUP2 LT PUSH2 0x19DE JUMPI INVALID JUMPDEST SWAP1 PUSH1 0x0 MSTORE PUSH1 0x20 PUSH1 0x0 KECCAK256 SWAP1 PUSH1 0x6 MUL ADD PUSH1 0x2 ADD PUSH1 0x4 DUP4 DUP2 SLOAD DUP2 LT PUSH2 0x19FC JUMPI INVALID JUMPDEST SWAP1 PUSH1 0x0 MSTORE PUSH1 0x20 PUSH1 0x0 KECCAK256 SWAP1 PUSH1 0x6 MUL ADD PUSH1 0x3 ADD PUSH1 0x4 DUP5 DUP2 SLOAD DUP2 LT PUSH2 0x1A1A JUMPI INVALID JUMPDEST SWAP1 PUSH1 0x0 MSTORE PUSH1 0x20 PUSH1 0x0 KECCAK256 SWAP1 PUSH1 0x6 MUL ADD PUSH1 0x4 ADD SLOAD PUSH1 0x4 DUP6 DUP2 SLOAD DUP2 LT PUSH2 0x1A39 JUMPI INVALID JUMPDEST SWAP1 PUSH1 0x0 MSTORE PUSH1 0x20 PUSH1 0x0 KECCAK256 SWAP1 PUSH1 0x6 MUL ADD PUSH1 0x5 ADD PUSH1 0x0 SWAP1 SLOAD SWAP1 PUSH2 0x100 EXP SWAP1 DIV PUSH1 0xFF AND DUP5 DUP1 SLOAD PUSH1 0x1 DUP2 PUSH1 0x1 AND ISZERO PUSH2 0x100 MUL SUB AND PUSH1 0x2 SWAP1 DIV DUP1 PUSH1 0x1F ADD PUSH1 0x20 DUP1 SWAP2 DIV MUL PUSH1 0x20 ADD PUSH1 0x40 MLOAD SWAP1 DUP2 ADD PUSH1 0x40 MSTORE DUP1 SWAP3 SWAP2 SWAP1 DUP2 DUP2 MSTORE PUSH1 0x20 ADD DUP3 DUP1 SLOAD PUSH1 0x1 DUP2 PUSH1 0x1 AND ISZERO PUSH2 0x100 MUL SUB AND PUSH1 0x2 SWAP1 DIV DUP1 ISZERO PUSH2 0x1AED JUMPI DUP1 PUSH1 0x1F LT PUSH2 0x1AC2 JUMPI PUSH2 0x100 DUP1 DUP4 SLOAD DIV MUL DUP4 MSTORE SWAP2 PUSH1 0x20 ADD SWAP2 PUSH2 0x1AED JUMP JUMPDEST DUP3 ADD SWAP2 SWAP1 PUSH1 0x0 MSTORE PUSH1 0x20 PUSH1 0x0 KECCAK256 SWAP1 JUMPDEST DUP2 SLOAD DUP2 MSTORE SWAP1 PUSH1 0x1 ADD SWAP1 PUSH1 0x20 ADD DUP1 DUP4 GT PUSH2 0x1AD0 JUMPI DUP3 SWAP1 SUB PUSH1 0x1F AND DUP3 ADD SWAP2 JUMPDEST POP POP POP POP POP SWAP5 POP DUP4 DUP1 SLOAD PUSH1 0x1 DUP2 PUSH1 0x1 AND ISZERO PUSH2 0x100 MUL SUB AND PUSH1 0x2 SWAP1 DIV DUP1 PUSH1 0x1F ADD PUSH1 0x20 DUP1 SWAP2 DIV MUL PUSH1 0x20 ADD PUSH1 0x40 MLOAD SWAP1 DUP2 ADD PUSH1 0x40 MSTORE DUP1 SWAP3 SWAP2 SWAP1 DUP2 DUP2 MSTORE PUSH1 0x20 ADD DUP3 DUP1 SLOAD PUSH1 0x1 DUP2 PUSH1 0x1 AND ISZERO PUSH2 0x100 MUL SUB AND PUSH1 0x2 SWAP1 DIV DUP1 ISZERO PUSH2 0x1B89 JUMPI DUP1 PUSH1 0x1F LT PUSH2 0x1B5E JUMPI PUSH2 0x100 DUP1 DUP4 SLOAD DIV MUL DUP4 MSTORE SWAP2 PUSH1 0x20 ADD SWAP2 PUSH2 0x1B89 JUMP JUMPDEST DUP3 ADD SWAP2 SWAP1 PUSH1 0x0 MSTORE PUSH1 0x20 PUSH1 0x0 KECCAK256 SWAP1 JUMPDEST DUP2 SLOAD DUP2 MSTORE SWAP1 PUSH1 0x1 ADD SWAP1 PUSH1 0x20 ADD DUP1 DUP4 GT PUSH2 0x1B6C JUMPI DUP3 SWAP1 SUB PUSH1 0x1F AND DUP3 ADD SWAP2 JUMPDEST POP POP POP POP POP SWAP4 POP DUP3 DUP1 SLOAD PUSH1 0x1 DUP2 PUSH1 0x1 AND ISZERO PUSH2 0x100 MUL SUB AND PUSH1 0x2 SWAP1 DIV DUP1 PUSH1 0x1F ADD PUSH1 0x20 DUP1 SWAP2 DIV MUL PUSH1 0x20 ADD PUSH1 0x40 MLOAD SWAP1 DUP2 ADD PUSH1 0x40 MSTORE DUP1 SWAP3 SWAP2 SWAP1 DUP2 DUP2 MSTORE PUSH1 0x20 ADD DUP3 DUP1 SLOAD PUSH1 0x1 DUP2 PUSH1 0x1 AND ISZERO PUSH2 0x100 MUL SUB AND PUSH1 0x2 SWAP1 DIV DUP1 ISZERO PUSH2 0x1C25 JUMPI DUP1 PUSH1 0x1F LT PUSH2 0x1BFA JUMPI PUSH2 0x100 DUP1 DUP4 SLOAD DIV MUL DUP4 MSTORE SWAP2 PUSH1 0x20 ADD SWAP2 PUSH2 0x1C25 JUMP JUMPDEST DUP3 ADD SWAP2 SWAP1 PUSH1 0x0 MSTORE PUSH1 0x20 PUSH1 0x0 KECCAK256 SWAP1 JUMPDEST DUP2 SLOAD DUP2 MSTORE SWAP1 PUSH1 0x1 ADD SWAP1 PUSH1 0x20 ADD DUP1 DUP4 GT PUSH2 0x1C08 JUMPI DUP3 SWAP1 SUB PUSH1 0x1F AND DUP3 ADD SWAP2 JUMPDEST POP POP POP POP POP SWAP3 POP SWAP6 POP SWAP6 POP SWAP6 POP SWAP6 POP SWAP6 POP POP SWAP2 SWAP4 SWAP6 SWAP1 SWAP3 SWAP5 POP JUMP JUMPDEST PUSH1 0x0 PUSH1 0x4 DUP1 SLOAD SWAP1 POP SWAP1 POP SWAP1 JUMP JUMPDEST PUSH1 0x4 PUSH1 0x40 MLOAD DUP1 PUSH1 0xC0 ADD PUSH1 0x40 MSTORE DUP1 DUP8 PUSH20 0xFFFFFFFFFFFFFFFFFFFFFFFFFFFFFFFFFFFFFFFF AND DUP2 MSTORE PUSH1 0x20 ADD DUP7 DUP2 MSTORE PUSH1 0x20 ADD DUP6 DUP2 MSTORE PUSH1 0x20 ADD DUP5 DUP2 MSTORE PUSH1 0x20 ADD DUP4 DUP2 MSTORE PUSH1 0x20 ADD PUSH1 0x1 ISZERO ISZERO DUP2 MSTORE POP SWAP1 DUP1 PUSH1 0x1 DUP2 SLOAD ADD DUP1 DUP3 SSTORE DUP1 SWAP2 POP POP PUSH1 0x1 SWAP1 SUB SWAP1 PUSH1 0x0 MSTORE PUSH1 0x20 PUSH1 0x0 KECCAK256 SWAP1 PUSH1 0x6 MUL ADD PUSH1 0x0 SWAP1 SWAP2 SWAP1 SWAP2 SWAP1 SWAP2 POP PUSH1 0x0 DUP3 ADD MLOAD DUP2 PUSH1 0x0 ADD PUSH1 0x0 PUSH2 0x100 EXP DUP2 SLOAD DUP2 PUSH20 0xFFFFFFFFFFFFFFFFFFFFFFFFFFFFFFFFFFFFFFFF MUL NOT AND SWAP1 DUP4 PUSH20 0xFFFFFFFFFFFFFFFFFFFFFFFFFFFFFFFFFFFFFFFF AND MUL OR SWAP1 SSTORE POP PUSH1 0x20 DUP3 ADD MLOAD DUP2 PUSH1 0x1 ADD SWAP1 DUP1 MLOAD SWAP1 PUSH1 0x20 ADD SWAP1 PUSH2 0x1D21 SWAP3 SWAP2 SWAP1 PUSH2 0x2EC7 JUMP JUMPDEST POP PUSH1 0x40 DUP3 ADD MLOAD DUP2 PUSH1 0x2 ADD SWAP1 DUP1 MLOAD SWAP1 PUSH1 0x20 ADD SWAP1 PUSH2 0x1D3E SWAP3 SWAP2 SWAP1 PUSH2 0x2EC7 JUMP JUMPDEST POP PUSH1 0x60 DUP3 ADD MLOAD DUP2 PUSH1 0x3 ADD SWAP1 DUP1 MLOAD SWAP1 PUSH1 0x20 ADD SWAP1 PUSH2 0x1D5B SWAP3 SWAP2 SWAP1 PUSH2 0x2EC7 JUMP JUMPDEST POP PUSH1 0x80 DUP3 ADD MLOAD DUP2 PUSH1 0x4 ADD SSTORE PUSH1 0xA0 DUP3 ADD MLOAD DUP2 PUSH1 0x5 ADD PUSH1 0x0 PUSH2 0x100 EXP DUP2 SLOAD DUP2 PUSH1 0xFF MUL NOT AND SWAP1 DUP4 ISZERO ISZERO MUL OR SWAP1 SSTORE POP POP POP PUSH32 0xF646212ACC3F5092FB0211FFD5121C0F706641B715E3982DAB50AFB395413DD5 DUP6 DUP6 DUP6 DUP6 DUP6 PUSH1 0x1 PUSH1 0x40 MLOAD PUSH2 0x1DC2 SWAP7 SWAP6 SWAP5 SWAP4 SWAP3 SWAP2 SWAP1 PUSH2 0x38F7 JUMP JUMPDEST PUSH1 0x40 MLOAD DUP1 SWAP2 SUB SWAP1 LOG1 POP POP POP POP POP JUMP JUMPDEST PUSH1 0x3 PUSH1 0x20 MSTORE DUP1 PUSH1 0x0 MSTORE PUSH1 0x40 PUSH1 0x0 KECCAK256 PUSH1 0x0 SWAP2 POP SWAP1 POP DUP1 PUSH1 0x0 ADD PUSH1 0x0 SWAP1 SLOAD SWAP1 PUSH2 0x100 EXP SWAP1 DIV PUSH20 0xFFFFFFFFFFFFFFFFFFFFFFFFFFFFFFFFFFFFFFFF AND SWAP1 DUP1 PUSH1 0x1 ADD DUP1 SLOAD PUSH1 0x1 DUP2 PUSH1 0x1 AND ISZERO PUSH2 0x100 MUL SUB AND PUSH1 0x2 SWAP1 DIV DUP1 PUSH1 0x1F ADD PUSH1 0x20 DUP1 SWAP2 DIV MUL PUSH1 0x20 ADD PUSH1 0x40 MLOAD SWAP1 DUP2 ADD PUSH1 0x40 MSTORE DUP1 SWAP3 SWAP2 SWAP1 DUP2 DUP2 MSTORE PUSH1 0x20 ADD DUP3 DUP1 SLOAD PUSH1 0x1 DUP2 PUSH1 0x1 AND ISZERO PUSH2 0x100 MUL SUB AND PUSH1 0x2 SWAP1 DIV DUP1 ISZERO PUSH2 0x1EA3 JUMPI DUP1 PUSH1 0x1F LT PUSH2 0x1E78 JUMPI PUSH2 0x100 DUP1 DUP4 SLOAD DIV MUL DUP4 MSTORE SWAP2 PUSH1 0x20 ADD SWAP2 PUSH2 0x1EA3 JUMP JUMPDEST DUP3 ADD SWAP2 SWAP1 PUSH1 0x0 MSTORE PUSH1 0x20 PUSH1 0x0 KECCAK256 SWAP1 JUMPDEST DUP2 SLOAD DUP2 MSTORE SWAP1 PUSH1 0x1 ADD SWAP1 PUSH1 0x20 ADD DUP1 DUP4 GT PUSH2 0x1E86 JUMPI DUP3 SWAP1 SUB PUSH1 0x1F AND DUP3 ADD SWAP2 JUMPDEST POP POP POP POP POP SWAP1 DUP1 PUSH1 0x2 ADD DUP1 SLOAD PUSH1 0x1 DUP2 PUSH1 0x1 AND ISZERO PUSH2 0x100 MUL SUB AND PUSH1 0x2 SWAP1 DIV DUP1 PUSH1 0x1F ADD PUSH1 0x20 DUP1 SWAP2 DIV MUL PUSH1 0x20 ADD PUSH1 0x40 MLOAD SWAP1 DUP2 ADD PUSH1 0x40 MSTORE DUP1 SWAP3 SWAP2 SWAP1 DUP2 DUP2 MSTORE PUSH1 0x20 ADD DUP3 DUP1 SLOAD PUSH1 0x1 DUP2 PUSH1 0x1 AND ISZERO PUSH2 0x100 MUL SUB AND PUSH1 0x2 SWAP1 DIV DUP1 ISZERO PUSH2 0x1F41 JUMPI DUP1 PUSH1 0x1F LT PUSH2 0x1F16 JUMPI PUSH2 0x100 DUP1 DUP4 SLOAD DIV MUL DUP4 MSTORE SWAP2 PUSH1 0x20 ADD SWAP2 PUSH2 0x1F41 JUMP JUMPDEST DUP3 ADD SWAP2 SWAP1 PUSH1 0x0 MSTORE PUSH1 0x20 PUSH1 0x0 KECCAK256 SWAP1 JUMPDEST DUP2 SLOAD DUP2 MSTORE SWAP1 PUSH1 0x1 ADD SWAP1 PUSH1 0x20 ADD DUP1 DUP4 GT PUSH2 0x1F24 JUMPI DUP3 SWAP1 SUB PUSH1 0x1F AND DUP3 ADD SWAP2 JUMPDEST POP POP POP POP POP SWAP1 DUP1 PUSH1 0x3 ADD DUP1 SLOAD PUSH1 0x1 DUP2 PUSH1 0x1 AND ISZERO PUSH2 0x100 MUL SUB AND PUSH1 0x2 SWAP1 DIV DUP1 PUSH1 0x1F ADD PUSH1 0x20 DUP1 SWAP2 DIV MUL PUSH1 0x20 ADD PUSH1 0x40 MLOAD SWAP1 DUP2 ADD PUSH1 0x40 MSTORE DUP1 SWAP3 SWAP2 SWAP1 DUP2 DUP2 MSTORE PUSH1 0x20 ADD DUP3 DUP1 SLOAD PUSH1 0x1 DUP2 PUSH1 0x1 AND ISZERO PUSH2 0x100 MUL SUB AND PUSH1 0x2 SWAP1 DIV DUP1 ISZERO PUSH2 0x1FDF JUMPI DUP1 PUSH1 0x1F LT PUSH2 0x1FB4 JUMPI PUSH2 0x100 DUP1 DUP4 SLOAD DIV MUL DUP4 MSTORE SWAP2 PUSH1 0x20 ADD SWAP2 PUSH2 0x1FDF JUMP JUMPDEST DUP3 ADD SWAP2 SWAP1 PUSH1 0x0 MSTORE PUSH1 0x20 PUSH1 0x0 KECCAK256 SWAP1 JUMPDEST DUP2 SLOAD DUP2 MSTORE SWAP1 PUSH1 0x1 ADD SWAP1 PUSH1 0x20 ADD DUP1 DUP4 GT PUSH2 0x1FC2 JUMPI DUP3 SWAP1 SUB PUSH1 0x1F AND DUP3 ADD SWAP2 JUMPDEST POP POP POP POP POP SWAP1 DUP1 PUSH1 0x4 ADD SLOAD SWAP1 DUP1 PUSH1 0x5 ADD PUSH1 0x0 SWAP1 SLOAD SWAP1 PUSH2 0x100 EXP SWAP1 DIV PUSH1 0xFF AND SWAP1 POP DUP7 JUMP JUMPDEST PUSH2 0x200B DUP3 PUSH2 0x2D57 JUMP JUMPDEST POP PUSH1 0x8 PUSH1 0x40 MLOAD DUP1 PUSH1 0xA0 ADD PUSH1 0x40 MSTORE DUP1 PUSH1 0x1 SLOAD DUP2 MSTORE PUSH1 0x20 ADD DUP7 DUP2 MSTORE PUSH1 0x20 ADD DUP6 DUP2 MSTORE PUSH1 0x20 ADD DUP5 DUP2 MSTORE PUSH1 0x20 ADD DUP4 ISZERO ISZERO DUP2 MSTORE POP SWAP1 DUP1 PUSH1 0x1 DUP2 SLOAD ADD DUP1 DUP3 SSTORE DUP1 SWAP2 POP POP PUSH1 0x1 SWAP1 SUB SWAP1 PUSH1 0x0 MSTORE PUSH1 0x20 PUSH1 0x0 KECCAK256 SWAP1 PUSH1 0x5 MUL ADD PUSH1 0x0 SWAP1 SWAP2 SWAP1 SWAP2 SWAP1 SWAP2 POP PUSH1 0x0 DUP3 ADD MLOAD DUP2 PUSH1 0x0 ADD SSTORE PUSH1 0x20 DUP3 ADD MLOAD DUP2 PUSH1 0x1 ADD SWAP1 DUP1 MLOAD SWAP1 PUSH1 0x20 ADD SWAP1 PUSH2 0x2088 SWAP3 SWAP2 SWAP1 PUSH2 0x2EC7 JUMP JUMPDEST POP PUSH1 0x40 DUP3 ADD MLOAD DUP2 PUSH1 0x2 ADD SWAP1 DUP1 MLOAD SWAP1 PUSH1 0x20 ADD SWAP1 PUSH2 0x20A5 SWAP3 SWAP2 SWAP1 PUSH2 0x2EC7 JUMP JUMPDEST POP PUSH1 0x60 DUP3 ADD MLOAD DUP2 PUSH1 0x3 ADD SSTORE PUSH1 0x80 DUP3 ADD MLOAD DUP2 PUSH1 0x4 ADD PUSH1 0x0 PUSH2 0x100 EXP DUP2 SLOAD DUP2 PUSH1 0xFF MUL NOT AND SWAP1 DUP4 ISZERO ISZERO MUL OR SWAP1 SSTORE POP POP POP PUSH32 0x2D1264C978DBC04E67902BDD99EF64C71B576782ADC2464152646B00C3464AA7 PUSH1 0x1 SLOAD DUP6 DUP6 DUP6 DUP6 PUSH1 0x40 MLOAD PUSH2 0x210B SWAP6 SWAP5 SWAP4 SWAP3 SWAP2 SWAP1 PUSH2 0x3C71 JUMP JUMPDEST PUSH1 0x40 MLOAD DUP1 SWAP2 SUB SWAP1 LOG1 PUSH1 0x1 PUSH1 0x0 DUP2 SLOAD DUP1 SWAP3 SWAP2 SWAP1 PUSH1 0x1 ADD SWAP2 SWAP1 POP SSTORE POP POP POP POP POP JUMP JUMPDEST PUSH1 0x0 PUSH1 0x8 DUP1 SLOAD SWAP1 POP SWAP1 POP SWAP1 JUMP JUMPDEST PUSH1 0x0 PUSH2 0x2143 DUP6 PUSH2 0x2CC5 JUMP JUMPDEST SWAP1 POP DUP4 PUSH1 0x8 DUP3 DUP2 SLOAD DUP2 LT PUSH2 0x2153 JUMPI INVALID JUMPDEST SWAP1 PUSH1 0x0 MSTORE PUSH1 0x20 PUSH1 0x0 KECCAK256 SWAP1 PUSH1 0x5 MUL ADD PUSH1 0x1 ADD SWAP1 DUP1 MLOAD SWAP1 PUSH1 0x20 ADD SWAP1 PUSH2 0x2177 SWAP3 SWAP2 SWAP1 PUSH2 0x2EC7 JUMP JUMPDEST POP DUP3 PUSH1 0x8 DUP3 DUP2 SLOAD DUP2 LT PUSH2 0x2186 JUMPI INVALID JUMPDEST SWAP1 PUSH1 0x0 MSTORE PUSH1 0x20 PUSH1 0x0 KECCAK256 SWAP1 PUSH1 0x5 MUL ADD PUSH1 0x2 ADD SWAP1 DUP1 MLOAD SWAP1 PUSH1 0x20 ADD SWAP1 PUSH2 0x21AA SWAP3 SWAP2 SWAP1 PUSH2 0x2EC7 JUMP JUMPDEST POP DUP2 PUSH1 0x8 DUP3 DUP2 SLOAD DUP2 LT PUSH2 0x21B9 JUMPI INVALID JUMPDEST SWAP1 PUSH1 0x0 MSTORE PUSH1 0x20 PUSH1 0x0 KECCAK256 SWAP1 PUSH1 0x5 MUL ADD PUSH1 0x3 ADD DUP2 SWAP1 SSTORE POP PUSH32 0x3CDCBDAC29C9D2DA1E6ACF97D069514BF4A172946CF98E2EDDAEEEC70DCB8CE7 PUSH1 0x8 DUP3 DUP2 SLOAD DUP2 LT PUSH2 0x21FC JUMPI INVALID JUMPDEST SWAP1 PUSH1 0x0 MSTORE PUSH1 0x20 PUSH1 0x0 KECCAK256 SWAP1 PUSH1 0x5 MUL ADD PUSH1 0x0 ADD SLOAD PUSH1 0x8 DUP4 DUP2 SLOAD DUP2 LT PUSH2 0x221B JUMPI INVALID JUMPDEST SWAP1 PUSH1 0x0 MSTORE PUSH1 0x20 PUSH1 0x0 KECCAK256 SWAP1 PUSH1 0x5 MUL ADD PUSH1 0x1 ADD PUSH1 0x8 DUP5 DUP2 SLOAD DUP2 LT PUSH2 0x2239 JUMPI INVALID JUMPDEST SWAP1 PUSH1 0x0 MSTORE PUSH1 0x20 PUSH1 0x0 KECCAK256 SWAP1 PUSH1 0x5 MUL ADD PUSH1 0x2 ADD PUSH1 0x8 DUP6 DUP2 SLOAD DUP2 LT PUSH2 0x2257 JUMPI INVALID JUMPDEST SWAP1 PUSH1 0x0 MSTORE PUSH1 0x20 PUSH1 0x0 KECCAK256 SWAP1 PUSH1 0x5 MUL ADD PUSH1 0x3 ADD SLOAD PUSH1 0x40 MLOAD PUSH2 0x2279 SWAP5 SWAP4 SWAP3 SWAP2 SWAP1 PUSH2 0x3D5C JUMP JUMPDEST PUSH1 0x40 MLOAD DUP1 SWAP2 SUB SWAP1 LOG1 POP POP POP POP POP JUMP JUMPDEST PUSH1 0x60 PUSH1 0x0 PUSH1 0x6 DUP1 SLOAD SWAP1 POP PUSH8 0xFFFFFFFFFFFFFFFF DUP2 GT DUP1 ISZERO PUSH2 0x22A8 JUMPI PUSH1 0x0 DUP1 REVERT JUMPDEST POP PUSH1 0x40 MLOAD SWAP1 DUP1 DUP3 MSTORE DUP1 PUSH1 0x20 MUL PUSH1 0x20 ADD DUP3 ADD PUSH1 0x40 MSTORE DUP1 ISZERO PUSH2 0x22E2 JUMPI DUP2 PUSH1 0x20 ADD JUMPDEST PUSH2 0x22CF PUSH2 0x2FD4 JUMP JUMPDEST DUP2 MSTORE PUSH1 0x20 ADD SWAP1 PUSH1 0x1 SWAP1 SUB SWAP1 DUP2 PUSH2 0x22C7 JUMPI SWAP1 POP JUMPDEST POP SWAP1 POP PUSH1 0x0 JUMPDEST PUSH1 0x6 DUP1 SLOAD SWAP1 POP DUP2 LT ISZERO PUSH2 0x24CF JUMPI PUSH1 0x6 DUP2 DUP2 SLOAD DUP2 LT PUSH2 0x2302 JUMPI INVALID JUMPDEST SWAP1 PUSH1 0x0 MSTORE PUSH1 0x20 PUSH1 0x0 KECCAK256 SWAP1 PUSH1 0x3 MUL ADD PUSH1 0x2 ADD PUSH1 0x0 SWAP1 SLOAD SWAP1 PUSH2 0x100 EXP SWAP1 DIV PUSH20 0xFFFFFFFFFFFFFFFFFFFFFFFFFFFFFFFFFFFFFFFF AND PUSH20 0xFFFFFFFFFFFFFFFFFFFFFFFFFFFFFFFFFFFFFFFF AND DUP5 PUSH20 0xFFFFFFFFFFFFFFFFFFFFFFFFFFFFFFFFFFFFFFFF AND EQ ISZERO PUSH2 0x24C2 JUMPI PUSH1 0x6 DUP2 DUP2 SLOAD DUP2 LT PUSH2 0x2374 JUMPI INVALID JUMPDEST SWAP1 PUSH1 0x0 MSTORE PUSH1 0x20 PUSH1 0x0 KECCAK256 SWAP1 PUSH1 0x3 MUL ADD PUSH1 0x40 MLOAD DUP1 PUSH1 0x80 ADD PUSH1 0x40 MSTORE SWAP1 DUP2 PUSH1 0x0 DUP3 ADD SLOAD DUP2 MSTORE PUSH1 0x20 ADD PUSH1 0x1 DUP3 ADD DUP1 SLOAD PUSH1 0x1 DUP2 PUSH1 0x1 AND ISZERO PUSH2 0x100 MUL SUB AND PUSH1 0x2 SWAP1 DIV DUP1 PUSH1 0x1F ADD PUSH1 0x20 DUP1 SWAP2 DIV MUL PUSH1 0x20 ADD PUSH1 0x40 MLOAD SWAP1 DUP2 ADD PUSH1 0x40 MSTORE DUP1 SWAP3 SWAP2 SWAP1 DUP2 DUP2 MSTORE PUSH1 0x20 ADD DUP3 DUP1 SLOAD PUSH1 0x1 DUP2 PUSH1 0x1 AND ISZERO PUSH2 0x100 MUL SUB AND PUSH1 0x2 SWAP1 DIV DUP1 ISZERO PUSH2 0x2430 JUMPI DUP1 PUSH1 0x1F LT PUSH2 0x2405 JUMPI PUSH2 0x100 DUP1 DUP4 SLOAD DIV MUL DUP4 MSTORE SWAP2 PUSH1 0x20 ADD SWAP2 PUSH2 0x2430 JUMP JUMPDEST DUP3 ADD SWAP2 SWAP1 PUSH1 0x0 MSTORE PUSH1 0x20 PUSH1 0x0 KECCAK256 SWAP1 JUMPDEST DUP2 SLOAD DUP2 MSTORE SWAP1 PUSH1 0x1 ADD SWAP1 PUSH1 0x20 ADD DUP1 DUP4 GT PUSH2 0x2413 JUMPI DUP3 SWAP1 SUB PUSH1 0x1F AND DUP3 ADD SWAP2 JUMPDEST POP POP POP POP POP DUP2 MSTORE PUSH1 0x20 ADD PUSH1 0x2 DUP3 ADD PUSH1 0x0 SWAP1 SLOAD SWAP1 PUSH2 0x100 EXP SWAP1 DIV PUSH20 0xFFFFFFFFFFFFFFFFFFFFFFFFFFFFFFFFFFFFFFFF AND PUSH20 0xFFFFFFFFFFFFFFFFFFFFFFFFFFFFFFFFFFFFFFFF AND PUSH20 0xFFFFFFFFFFFFFFFFFFFFFFFFFFFFFFFFFFFFFFFF AND DUP2 MSTORE PUSH1 0x20 ADD PUSH1 0x2 DUP3 ADD PUSH1 0x14 SWAP1 SLOAD SWAP1 PUSH2 0x100 EXP SWAP1 DIV PUSH1 0xFF AND ISZERO ISZERO ISZERO ISZERO DUP2 MSTORE POP POP DUP3 DUP3 DUP2 MLOAD DUP2 LT PUSH2 0x24B6 JUMPI INVALID JUMPDEST PUSH1 0x20 MUL PUSH1 0x20 ADD ADD DUP2 SWAP1 MSTORE POP JUMPDEST DUP1 DUP1 PUSH1 0x1 ADD SWAP2 POP POP PUSH2 0x22E8 JUMP JUMPDEST POP DUP1 SWAP2 POP POP SWAP2 SWAP1 POP JUMP JUMPDEST PUSH1 0x0 PUSH2 0x24E4 DUP5 PUSH2 0x2D57 JUMP JUMPDEST SWAP1 POP DUP3 PUSH1 0x6 DUP3 DUP2 SLOAD DUP2 LT PUSH2 0x24F4 JUMPI INVALID JUMPDEST SWAP1 PUSH1 0x0 MSTORE PUSH1 0x20 PUSH1 0x0 KECCAK256 SWAP1 PUSH1 0x3 MUL ADD PUSH1 0x1 ADD SWAP1 DUP1 MLOAD SWAP1 PUSH1 0x20 ADD SWAP1 PUSH2 0x2518 SWAP3 SWAP2 SWAP1 PUSH2 0x2EC7 JUMP JUMPDEST POP DUP2 PUSH1 0x6 DUP3 DUP2 SLOAD DUP2 LT PUSH2 0x2527 JUMPI INVALID JUMPDEST SWAP1 PUSH1 0x0 MSTORE PUSH1 0x20 PUSH1 0x0 KECCAK256 SWAP1 PUSH1 0x3 MUL ADD PUSH1 0x2 ADD PUSH1 0x0 PUSH2 0x100 EXP DUP2 SLOAD DUP2 PUSH20 0xFFFFFFFFFFFFFFFFFFFFFFFFFFFFFFFFFFFFFFFF MUL NOT AND SWAP1 DUP4 PUSH20 0xFFFFFFFFFFFFFFFFFFFFFFFFFFFFFFFFFFFFFFFF AND MUL OR SWAP1 SSTORE POP PUSH32 0x68A08C702A4F949D49F5E0D32562C70F97751A2846006D05BECCC6C9BF8B564E PUSH1 0x6 DUP3 DUP2 SLOAD DUP2 LT PUSH2 0x25A4 JUMPI INVALID JUMPDEST SWAP1 PUSH1 0x0 MSTORE PUSH1 0x20 PUSH1 0x0 KECCAK256 SWAP1 PUSH1 0x3 MUL ADD PUSH1 0x0 ADD SLOAD PUSH1 0x6 DUP4 DUP2 SLOAD DUP2 LT PUSH2 0x25C3 JUMPI INVALID JUMPDEST SWAP1 PUSH1 0x0 MSTORE PUSH1 0x20 PUSH1 0x0 KECCAK256 SWAP1 PUSH1 0x3 MUL ADD PUSH1 0x1 ADD PUSH1 0x6 DUP5 DUP2 SLOAD DUP2 LT PUSH2 0x25E1 JUMPI INVALID JUMPDEST SWAP1 PUSH1 0x0 MSTORE PUSH1 0x20 PUSH1 0x0 KECCAK256 SWAP1 PUSH1 0x3 MUL ADD PUSH1 0x2 ADD PUSH1 0x0 SWAP1 SLOAD SWAP1 PUSH2 0x100 EXP SWAP1 DIV PUSH20 0xFFFFFFFFFFFFFFFFFFFFFFFFFFFFFFFFFFFFFFFF AND PUSH1 0x40 MLOAD PUSH2 0x2622 SWAP4 SWAP3 SWAP2 SWAP1 PUSH2 0x3CD2 JUMP JUMPDEST PUSH1 0x40 MLOAD DUP1 SWAP2 SUB SWAP1 LOG1 POP POP POP POP JUMP JUMPDEST PUSH1 0x4 DUP2 DUP2 SLOAD DUP2 LT PUSH2 0x2640 JUMPI PUSH1 0x0 DUP1 REVERT JUMPDEST SWAP1 PUSH1 0x0 MSTORE PUSH1 0x20 PUSH1 0x0 KECCAK256 SWAP1 PUSH1 0x6 MUL ADD PUSH1 0x0 SWAP2 POP SWAP1 POP DUP1 PUSH1 0x0 ADD PUSH1 0x0 SWAP1 SLOAD SWAP1 PUSH2 0x100 EXP SWAP1 DIV PUSH20 0xFFFFFFFFFFFFFFFFFFFFFFFFFFFFFFFFFFFFFFFF AND SWAP1 DUP1 PUSH1 0x1 ADD DUP1 SLOAD PUSH1 0x1 DUP2 PUSH1 0x1 AND ISZERO PUSH2 0x100 MUL SUB AND PUSH1 0x2 SWAP1 DIV DUP1 PUSH1 0x1F ADD PUSH1 0x20 DUP1 SWAP2 DIV MUL PUSH1 0x20 ADD PUSH1 0x40 MLOAD SWAP1 DUP2 ADD PUSH1 0x40 MSTORE DUP1 SWAP3 SWAP2 SWAP1 DUP2 DUP2 MSTORE PUSH1 0x20 ADD DUP3 DUP1 SLOAD PUSH1 0x1 DUP2 PUSH1 0x1 AND ISZERO PUSH2 0x100 MUL SUB AND PUSH1 0x2 SWAP1 DIV DUP1 ISZERO PUSH2 0x2712 JUMPI DUP1 PUSH1 0x1F LT PUSH2 0x26E7 JUMPI PUSH2 0x100 DUP1 DUP4 SLOAD DIV MUL DUP4 MSTORE SWAP2 PUSH1 0x20 ADD SWAP2 PUSH2 0x2712 JUMP JUMPDEST DUP3 ADD SWAP2 SWAP1 PUSH1 0x0 MSTORE PUSH1 0x20 PUSH1 0x0 KECCAK256 SWAP1 JUMPDEST DUP2 SLOAD DUP2 MSTORE SWAP1 PUSH1 0x1 ADD SWAP1 PUSH1 0x20 ADD DUP1 DUP4 GT PUSH2 0x26F5 JUMPI DUP3 SWAP1 SUB PUSH1 0x1F AND DUP3 ADD SWAP2 JUMPDEST POP POP POP POP POP SWAP1 DUP1 PUSH1 0x2 ADD DUP1 SLOAD PUSH1 0x1 DUP2 PUSH1 0x1 AND ISZERO PUSH2 0x100 MUL SUB AND PUSH1 0x2 SWAP1 DIV DUP1 PUSH1 0x1F ADD PUSH1 0x20 DUP1 SWAP2 DIV MUL PUSH1 0x20 ADD PUSH1 0x40 MLOAD SWAP1 DUP2 ADD PUSH1 0x40 MSTORE DUP1 SWAP3 SWAP2 SWAP1 DUP2 DUP2 MSTORE PUSH1 0x20 ADD DUP3 DUP1 SLOAD PUSH1 0x1 DUP2 PUSH1 0x1 AND ISZERO PUSH2 0x100 MUL SUB AND PUSH1 0x2 SWAP1 DIV DUP1 ISZERO PUSH2 0x27B0 JUMPI DUP1 PUSH1 0x1F LT PUSH2 0x2785 JUMPI PUSH2 0x100 DUP1 DUP4 SLOAD DIV MUL DUP4 MSTORE SWAP2 PUSH1 0x20 ADD SWAP2 PUSH2 0x27B0 JUMP JUMPDEST DUP3 ADD SWAP2 SWAP1 PUSH1 0x0 MSTORE PUSH1 0x20 PUSH1 0x0 KECCAK256 SWAP1 JUMPDEST DUP2 SLOAD DUP2 MSTORE SWAP1 PUSH1 0x1 ADD SWAP1 PUSH1 0x20 ADD DUP1 DUP4 GT PUSH2 0x2793 JUMPI DUP3 SWAP1 SUB PUSH1 0x1F AND DUP3 ADD SWAP2 JUMPDEST POP POP POP POP POP SWAP1 DUP1 PUSH1 0x3 ADD DUP1 SLOAD PUSH1 0x1 DUP2 PUSH1 0x1 AND ISZERO PUSH2 0x100 MUL SUB AND PUSH1 0x2 SWAP1 DIV DUP1 PUSH1 0x1F ADD PUSH1 0x20 DUP1 SWAP2 DIV MUL PUSH1 0x20 ADD PUSH1 0x40 MLOAD SWAP1 DUP2 ADD PUSH1 0x40 MSTORE DUP1 SWAP3 SWAP2 SWAP1 DUP2 DUP2 MSTORE PUSH1 0x20 ADD DUP3 DUP1 SLOAD PUSH1 0x1 DUP2 PUSH1 0x1 AND ISZERO PUSH2 0x100 MUL SUB AND PUSH1 0x2 SWAP1 DIV DUP1 ISZERO PUSH2 0x284E JUMPI DUP1 PUSH1 0x1F LT PUSH2 0x2823 JUMPI PUSH2 0x100 DUP1 DUP4 SLOAD DIV MUL DUP4 MSTORE SWAP2 PUSH1 0x20 ADD SWAP2 PUSH2 0x284E JUMP JUMPDEST DUP3 ADD SWAP2 SWAP1 PUSH1 0x0 MSTORE PUSH1 0x20 PUSH1 0x0 KECCAK256 SWAP1 JUMPDEST DUP2 SLOAD DUP2 MSTORE SWAP1 PUSH1 0x1 ADD SWAP1 PUSH1 0x20 ADD DUP1 DUP4 GT PUSH2 0x2831 JUMPI DUP3 SWAP1 SUB PUSH1 0x1F AND DUP3 ADD SWAP2 JUMPDEST POP POP POP POP POP SWAP1 DUP1 PUSH1 0x4 ADD SLOAD SWAP1 DUP1 PUSH1 0x5 ADD PUSH1 0x0 SWAP1 SLOAD SWAP1 PUSH2 0x100 EXP SWAP1 DIV PUSH1 0xFF AND SWAP1 POP DUP7 JUMP JUMPDEST PUSH1 0x5 PUSH1 0x20 MSTORE DUP1 PUSH1 0x0 MSTORE PUSH1 0x40 PUSH1 0x0 KECCAK256 PUSH1 0x0 SWAP2 POP SWAP1 POP DUP1 PUSH1 0x0 ADD SLOAD SWAP1 DUP1 PUSH1 0x1 ADD DUP1 SLOAD PUSH1 0x1 DUP2 PUSH1 0x1 AND ISZERO PUSH2 0x100 MUL SUB AND PUSH1 0x2 SWAP1 DIV DUP1 PUSH1 0x1F ADD PUSH1 0x20 DUP1 SWAP2 DIV MUL PUSH1 0x20 ADD PUSH1 0x40 MLOAD SWAP1 DUP2 ADD PUSH1 0x40 MSTORE DUP1 SWAP3 SWAP2 SWAP1 DUP2 DUP2 MSTORE PUSH1 0x20 ADD DUP3 DUP1 SLOAD PUSH1 0x1 DUP2 PUSH1 0x1 AND ISZERO PUSH2 0x100 MUL SUB AND PUSH1 0x2 SWAP1 DIV DUP1 ISZERO PUSH2 0x2923 JUMPI DUP1 PUSH1 0x1F LT PUSH2 0x28F8 JUMPI PUSH2 0x100 DUP1 DUP4 SLOAD DIV MUL DUP4 MSTORE SWAP2 PUSH1 0x20 ADD SWAP2 PUSH2 0x2923 JUMP JUMPDEST DUP3 ADD SWAP2 SWAP1 PUSH1 0x0 MSTORE PUSH1 0x20 PUSH1 0x0 KECCAK256 SWAP1 JUMPDEST DUP2 SLOAD DUP2 MSTORE SWAP1 PUSH1 0x1 ADD SWAP1 PUSH1 0x20 ADD DUP1 DUP4 GT PUSH2 0x2906 JUMPI DUP3 SWAP1 SUB PUSH1 0x1F AND DUP3 ADD SWAP2 JUMPDEST POP POP POP POP POP SWAP1 DUP1 PUSH1 0x2 ADD PUSH1 0x0 SWAP1 SLOAD SWAP1 PUSH2 0x100 EXP SWAP1 DIV PUSH20 0xFFFFFFFFFFFFFFFFFFFFFFFFFFFFFFFFFFFFFFFF AND SWAP1 DUP1 PUSH1 0x2 ADD PUSH1 0x14 SWAP1 SLOAD SWAP1 PUSH2 0x100 EXP SWAP1 DIV PUSH1 0xFF AND SWAP1 POP DUP5 JUMP JUMPDEST PUSH1 0x8 DUP2 DUP2 SLOAD DUP2 LT PUSH2 0x2976 JUMPI PUSH1 0x0 DUP1 REVERT JUMPDEST SWAP1 PUSH1 0x0 MSTORE PUSH1 0x20 PUSH1 0x0 KECCAK256 SWAP1 PUSH1 0x5 MUL ADD PUSH1 0x0 SWAP2 POP SWAP1 POP DUP1 PUSH1 0x0 ADD SLOAD SWAP1 DUP1 PUSH1 0x1 ADD DUP1 SLOAD PUSH1 0x1 DUP2 PUSH1 0x1 AND ISZERO PUSH2 0x100 MUL SUB AND PUSH1 0x2 SWAP1 DIV DUP1 PUSH1 0x1F ADD PUSH1 0x20 DUP1 SWAP2 DIV MUL PUSH1 0x20 ADD PUSH1 0x40 MLOAD SWAP1 DUP2 ADD PUSH1 0x40 MSTORE DUP1 SWAP3 SWAP2 SWAP1 DUP2 DUP2 MSTORE PUSH1 0x20 ADD DUP3 DUP1 SLOAD PUSH1 0x1 DUP2 PUSH1 0x1 AND ISZERO PUSH2 0x100 MUL SUB AND PUSH1 0x2 SWAP1 DIV DUP1 ISZERO PUSH2 0x2A28 JUMPI DUP1 PUSH1 0x1F LT PUSH2 0x29FD JUMPI PUSH2 0x100 DUP1 DUP4 SLOAD DIV MUL DUP4 MSTORE SWAP2 PUSH1 0x20 ADD SWAP2 PUSH2 0x2A28 JUMP JUMPDEST DUP3 ADD SWAP2 SWAP1 PUSH1 0x0 MSTORE PUSH1 0x20 PUSH1 0x0 KECCAK256 SWAP1 JUMPDEST DUP2 SLOAD DUP2 MSTORE SWAP1 PUSH1 0x1 ADD SWAP1 PUSH1 0x20 ADD DUP1 DUP4 GT PUSH2 0x2A0B JUMPI DUP3 SWAP1 SUB PUSH1 0x1F AND DUP3 ADD SWAP2 JUMPDEST POP POP POP POP POP SWAP1 DUP1 PUSH1 0x2 ADD DUP1 SLOAD PUSH1 0x1 DUP2 PUSH1 0x1 AND ISZERO PUSH2 0x100 MUL SUB AND PUSH1 0x2 SWAP1 DIV DUP1 PUSH1 0x1F ADD PUSH1 0x20 DUP1 SWAP2 DIV MUL PUSH1 0x20 ADD PUSH1 0x40 MLOAD SWAP1 DUP2 ADD PUSH1 0x40 MSTORE DUP1 SWAP3 SWAP2 SWAP1 DUP2 DUP2 MSTORE PUSH1 0x20 ADD DUP3 DUP1 SLOAD PUSH1 0x1 DUP2 PUSH1 0x1 AND ISZERO PUSH2 0x100 MUL SUB AND PUSH1 0x2 SWAP1 DIV DUP1 ISZERO PUSH2 0x2AC6 JUMPI DUP1 PUSH1 0x1F LT PUSH2 0x2A9B JUMPI PUSH2 0x100 DUP1 DUP4 SLOAD DIV MUL DUP4 MSTORE SWAP2 PUSH1 0x20 ADD SWAP2 PUSH2 0x2AC6 JUMP JUMPDEST DUP3 ADD SWAP2 SWAP1 PUSH1 0x0 MSTORE PUSH1 0x20 PUSH1 0x0 KECCAK256 SWAP1 JUMPDEST DUP2 SLOAD DUP2 MSTORE SWAP1 PUSH1 0x1 ADD SWAP1 PUSH1 0x20 ADD DUP1 DUP4 GT PUSH2 0x2AA9 JUMPI DUP3 SWAP1 SUB PUSH1 0x1F AND DUP3 ADD SWAP2 JUMPDEST POP POP POP POP POP SWAP1 DUP1 PUSH1 0x3 ADD SLOAD SWAP1 DUP1 PUSH1 0x4 ADD PUSH1 0x0 SWAP1 SLOAD SWAP1 PUSH2 0x100 EXP SWAP1 DIV PUSH1 0xFF AND SWAP1 POP DUP6 JUMP JUMPDEST PUSH1 0x60 PUSH1 0x0 PUSH1 0x6 DUP1 SLOAD SWAP1 POP PUSH8 0xFFFFFFFFFFFFFFFF DUP2 GT DUP1 ISZERO PUSH2 0x2B09 JUMPI PUSH1 0x0 DUP1 REVERT JUMPDEST POP PUSH1 0x40 MLOAD SWAP1 DUP1 DUP3 MSTORE DUP1 PUSH1 0x20 MUL PUSH1 0x20 ADD DUP3 ADD PUSH1 0x40 MSTORE DUP1 ISZERO PUSH2 0x2B43 JUMPI DUP2 PUSH1 0x20 ADD JUMPDEST PUSH2 0x2B30 PUSH2 0x2FD4 JUMP JUMPDEST DUP2 MSTORE PUSH1 0x20 ADD SWAP1 PUSH1 0x1 SWAP1 SUB SWAP1 DUP2 PUSH2 0x2B28 JUMPI SWAP1 POP JUMPDEST POP SWAP1 POP PUSH1 0x0 JUMPDEST PUSH1 0x6 DUP1 SLOAD SWAP1 POP DUP2 LT ISZERO PUSH2 0x2CBD JUMPI PUSH1 0x6 DUP2 DUP2 SLOAD DUP2 LT PUSH2 0x2B63 JUMPI INVALID JUMPDEST SWAP1 PUSH1 0x0 MSTORE PUSH1 0x20 PUSH1 0x0 KECCAK256 SWAP1 PUSH1 0x3 MUL ADD PUSH1 0x40 MLOAD DUP1 PUSH1 0x80 ADD PUSH1 0x40 MSTORE SWAP1 DUP2 PUSH1 0x0 DUP3 ADD SLOAD DUP2 MSTORE PUSH1 0x20 ADD PUSH1 0x1 DUP3 ADD DUP1 SLOAD PUSH1 0x1 DUP2 PUSH1 0x1 AND ISZERO PUSH2 0x100 MUL SUB AND PUSH1 0x2 SWAP1 DIV DUP1 PUSH1 0x1F ADD PUSH1 0x20 DUP1 SWAP2 DIV MUL PUSH1 0x20 ADD PUSH1 0x40 MLOAD SWAP1 DUP2 ADD PUSH1 0x40 MSTORE DUP1 SWAP3 SWAP2 SWAP1 DUP2 DUP2 MSTORE PUSH1 0x20 ADD DUP3 DUP1 SLOAD PUSH1 0x1 DUP2 PUSH1 0x1 AND ISZERO PUSH2 0x100 MUL SUB AND PUSH1 0x2 SWAP1 DIV DUP1 ISZERO PUSH2 0x2C1F JUMPI DUP1 PUSH1 0x1F LT PUSH2 0x2BF4 JUMPI PUSH2 0x100 DUP1 DUP4 SLOAD DIV MUL DUP4 MSTORE SWAP2 PUSH1 0x20 ADD SWAP2 PUSH2 0x2C1F JUMP JUMPDEST DUP3 ADD SWAP2 SWAP1 PUSH1 0x0 MSTORE PUSH1 0x20 PUSH1 0x0 KECCAK256 SWAP1 JUMPDEST DUP2 SLOAD DUP2 MSTORE SWAP1 PUSH1 0x1 ADD SWAP1 PUSH1 0x20 ADD DUP1 DUP4 GT PUSH2 0x2C02 JUMPI DUP3 SWAP1 SUB PUSH1 0x1F AND DUP3 ADD SWAP2 JUMPDEST POP POP POP POP POP DUP2 MSTORE PUSH1 0x20 ADD PUSH1 0x2 DUP3 ADD PUSH1 0x0 SWAP1 SLOAD SWAP1 PUSH2 0x100 EXP SWAP1 DIV PUSH20 0xFFFFFFFFFFFFFFFFFFFFFFFFFFFFFFFFFFFFFFFF AND PUSH20 0xFFFFFFFFFFFFFFFFFFFFFFFFFFFFFFFFFFFFFFFF AND PUSH20 0xFFFFFFFFFFFFFFFFFFFFFFFFFFFFFFFFFFFFFFFF AND DUP2 MSTORE PUSH1 0x20 ADD PUSH1 0x2 DUP3 ADD PUSH1 0x14 SWAP1 SLOAD SWAP1 PUSH2 0x100 EXP SWAP1 DIV PUSH1 0xFF AND ISZERO ISZERO ISZERO ISZERO DUP2 MSTORE POP POP DUP3 DUP3 DUP2 MLOAD DUP2 LT PUSH2 0x2CA5 JUMPI INVALID JUMPDEST PUSH1 0x20 MUL PUSH1 0x20 ADD ADD DUP2 SWAP1 MSTORE POP DUP1 DUP1 PUSH1 0x1 ADD SWAP2 POP POP PUSH2 0x2B49 JUMP JUMPDEST POP DUP1 SWAP2 POP POP SWAP1 JUMP JUMPDEST PUSH1 0x0 DUP1 PUSH1 0x0 SWAP1 POP JUMPDEST PUSH1 0x8 DUP1 SLOAD SWAP1 POP DUP2 LT ISZERO PUSH2 0x2D16 JUMPI DUP3 PUSH1 0x8 DUP3 DUP2 SLOAD DUP2 LT PUSH2 0x2CE8 JUMPI INVALID JUMPDEST SWAP1 PUSH1 0x0 MSTORE PUSH1 0x20 PUSH1 0x0 KECCAK256 SWAP1 PUSH1 0x5 MUL ADD PUSH1 0x0 ADD SLOAD EQ ISZERO PUSH2 0x2D09 JUMPI DUP1 SWAP2 POP POP PUSH2 0x2D52 JUMP JUMPDEST DUP1 DUP1 PUSH1 0x1 ADD SWAP2 POP POP PUSH2 0x2CCD JUMP JUMPDEST POP PUSH1 0x40 MLOAD PUSH32 0x8C379A000000000000000000000000000000000000000000000000000000000 DUP2 MSTORE PUSH1 0x4 ADD PUSH2 0x2D49 SWAP1 PUSH2 0x3BCA JUMP JUMPDEST PUSH1 0x40 MLOAD DUP1 SWAP2 SUB SWAP1 REVERT JUMPDEST SWAP2 SWAP1 POP JUMP JUMPDEST PUSH1 0x0 DUP1 PUSH1 0x0 SWAP1 POP JUMPDEST PUSH1 0x6 DUP1 SLOAD SWAP1 POP DUP2 LT ISZERO PUSH2 0x2DA8 JUMPI DUP3 PUSH1 0x6 DUP3 DUP2 SLOAD DUP2 LT PUSH2 0x2D7A JUMPI INVALID JUMPDEST SWAP1 PUSH1 0x0 MSTORE PUSH1 0x20 PUSH1 0x0 KECCAK256 SWAP1 PUSH1 0x3 MUL ADD PUSH1 0x0 ADD SLOAD EQ ISZERO PUSH2 0x2D9B JUMPI DUP1 SWAP2 POP POP PUSH2 0x2DE4 JUMP JUMPDEST DUP1 DUP1 PUSH1 0x1 ADD SWAP2 POP POP PUSH2 0x2D5F JUMP JUMPDEST POP PUSH1 0x40 MLOAD PUSH32 0x8C379A000000000000000000000000000000000000000000000000000000000 DUP2 MSTORE PUSH1 0x4 ADD PUSH2 0x2DDB SWAP1 PUSH2 0x3BAA JUMP JUMPDEST PUSH1 0x40 MLOAD DUP1 SWAP2 SUB SWAP1 REVERT JUMPDEST SWAP2 SWAP1 POP JUMP JUMPDEST PUSH1 0x0 DUP1 PUSH1 0x0 SWAP1 POP JUMPDEST PUSH1 0x4 DUP1 SLOAD SWAP1 POP DUP2 LT ISZERO PUSH2 0x2E86 JUMPI DUP3 PUSH20 0xFFFFFFFFFFFFFFFFFFFFFFFFFFFFFFFFFFFFFFFF AND PUSH1 0x4 DUP3 DUP2 SLOAD DUP2 LT PUSH2 0x2E22 JUMPI INVALID JUMPDEST SWAP1 PUSH1 0x0 MSTORE PUSH1 0x20 PUSH1 0x0 KECCAK256 SWAP1 PUSH1 0x6 MUL ADD PUSH1 0x0 ADD PUSH1 0x0 SWAP1 SLOAD SWAP1 PUSH2 0x100 EXP SWAP1 DIV PUSH20 0xFFFFFFFFFFFFFFFFFFFFFFFFFFFFFFFFFFFFFFFF AND PUSH20 0xFFFFFFFFFFFFFFFFFFFFFFFFFFFFFFFFFFFFFFFF AND EQ ISZERO PUSH2 0x2E79 JUMPI DUP1 SWAP2 POP POP PUSH2 0x2EC2 JUMP JUMPDEST DUP1 DUP1 PUSH1 0x1 ADD SWAP2 POP POP PUSH2 0x2DF1 JUMP JUMPDEST POP PUSH1 0x40 MLOAD PUSH32 0x8C379A000000000000000000000000000000000000000000000000000000000 DUP2 MSTORE PUSH1 0x4 ADD PUSH2 0x2EB9 SWAP1 PUSH2 0x3BEA JUMP JUMPDEST PUSH1 0x40 MLOAD DUP1 SWAP2 SUB SWAP1 REVERT JUMPDEST SWAP2 SWAP1 POP JUMP JUMPDEST DUP3 DUP1 SLOAD PUSH1 0x1 DUP2 PUSH1 0x1 AND ISZERO PUSH2 0x100 MUL SUB AND PUSH1 0x2 SWAP1 DIV SWAP1 PUSH1 0x0 MSTORE PUSH1 0x20 PUSH1 0x0 KECCAK256 SWAP1 PUSH1 0x1F ADD PUSH1 0x20 SWAP1 DIV DUP2 ADD SWAP3 DUP3 PUSH2 0x2EFD JUMPI PUSH1 0x0 DUP6 SSTORE PUSH2 0x2F44 JUMP JUMPDEST DUP3 PUSH1 0x1F LT PUSH2 0x2F16 JUMPI DUP1 MLOAD PUSH1 0xFF NOT AND DUP4 DUP1 ADD OR DUP6 SSTORE PUSH2 0x2F44 JUMP JUMPDEST DUP3 DUP1 ADD PUSH1 0x1 ADD DUP6 SSTORE DUP3 ISZERO PUSH2 0x2F44 JUMPI SWAP2 DUP3 ADD JUMPDEST DUP3 DUP2 GT ISZERO PUSH2 0x2F43 JUMPI DUP3 MLOAD DUP3 SSTORE SWAP2 PUSH1 0x20 ADD SWAP2 SWAP1 PUSH1 0x1 ADD SWAP1 PUSH2 0x2F28 JUMP JUMPDEST JUMPDEST POP SWAP1 POP PUSH2 0x2F51 SWAP2 SWAP1 PUSH2 0x3014 JUMP JUMPDEST POP SWAP1 JUMP JUMPDEST PUSH1 0x40 MLOAD DUP1 PUSH1 0xC0 ADD PUSH1 0x40 MSTORE DUP1 PUSH1 0x0 PUSH20 0xFFFFFFFFFFFFFFFFFFFFFFFFFFFFFFFFFFFFFFFF AND DUP2 MSTORE PUSH1 0x20 ADD PUSH1 0x60 DUP2 MSTORE PUSH1 0x20 ADD PUSH1 0x60 DUP2 MSTORE PUSH1 0x20 ADD PUSH1 0x60 DUP2 MSTORE PUSH1 0x20 ADD PUSH1 0x0 DUP2 MSTORE PUSH1 0x20 ADD PUSH1 0x0 ISZERO ISZERO DUP2 MSTORE POP SWAP1 JUMP JUMPDEST PUSH1 0x40 MLOAD DUP1 PUSH1 0xA0 ADD PUSH1 0x40 MSTORE DUP1 PUSH1 0x0 DUP2 MSTORE PUSH1 0x20 ADD PUSH1 0x60 DUP2 MSTORE PUSH1 0x20 ADD PUSH1 0x60 DUP2 MSTORE PUSH1 0x20 ADD PUSH1 0x0 DUP2 MSTORE PUSH1 0x20 ADD PUSH1 0x0 ISZERO ISZERO DUP2 MSTORE POP SWAP1 JUMP JUMPDEST PUSH1 0x40 MLOAD DUP1 PUSH1 0x80 ADD PUSH1 0x40 MSTORE DUP1 PUSH1 0x0 DUP2 MSTORE PUSH1 0x20 ADD PUSH1 0x60 DUP2 MSTORE PUSH1 0x20 ADD PUSH1 0x0 PUSH20 0xFFFFFFFFFFFFFFFFFFFFFFFFFFFFFFFFFFFFFFFF AND DUP2 MSTORE PUSH1 0x20 ADD PUSH1 0x0 ISZERO ISZERO DUP2 MSTORE POP SWAP1 JUMP JUMPDEST JUMPDEST DUP1 DUP3 GT ISZERO PUSH2 0x302D JUMPI PUSH1 0x0 DUP2 PUSH1 0x0 SWAP1 SSTORE POP PUSH1 0x1 ADD PUSH2 0x3015 JUMP JUMPDEST POP SWAP1 JUMP JUMPDEST PUSH1 0x0 PUSH2 0x3044 PUSH2 0x303F DUP5 PUSH2 0x3E41 JUMP JUMPDEST PUSH2 0x3E10 JUMP JUMPDEST SWAP1 POP DUP3 DUP2 MSTORE PUSH1 0x20 DUP2 ADD DUP5 DUP5 DUP5 ADD GT ISZERO PUSH2 0x305C JUMPI PUSH1 0x0 DUP1 REVERT JUMPDEST PUSH2 0x3067 DUP5 DUP3 DUP6 PUSH2 0x3FA6 JUMP JUMPDEST POP SWAP4 SWAP3 POP POP POP JUMP JUMPDEST PUSH1 0x0 DUP2 CALLDATALOAD SWAP1 POP PUSH2 0x307E DUP2 PUSH2 0x3FFB JUMP JUMPDEST SWAP3 SWAP2 POP POP JUMP JUMPDEST PUSH1 0x0 DUP2 CALLDATALOAD SWAP1 POP PUSH2 0x3093 DUP2 PUSH2 0x4012 JUMP JUMPDEST SWAP3 SWAP2 POP POP JUMP JUMPDEST PUSH1 0x0 DUP3 PUSH1 0x1F DUP4 ADD SLT PUSH2 0x30AA JUMPI PUSH1 0x0 DUP1 REVERT JUMPDEST DUP2 CALLDATALOAD PUSH2 0x30BA DUP5 DUP3 PUSH1 0x20 DUP7 ADD PUSH2 0x3031 JUMP JUMPDEST SWAP2 POP POP SWAP3 SWAP2 POP POP JUMP JUMPDEST PUSH1 0x0 DUP2 CALLDATALOAD SWAP1 POP PUSH2 0x30D2 DUP2 PUSH2 0x4029 JUMP JUMPDEST SWAP3 SWAP2 POP POP JUMP JUMPDEST PUSH1 0x0 PUSH1 0x20 DUP3 DUP5 SUB SLT ISZERO PUSH2 0x30EA JUMPI PUSH1 0x0 DUP1 REVERT JUMPDEST PUSH1 0x0 PUSH2 0x30F8 DUP5 DUP3 DUP6 ADD PUSH2 0x306F JUMP JUMPDEST SWAP2 POP POP SWAP3 SWAP2 POP POP JUMP JUMPDEST PUSH1 0x0 DUP1 PUSH1 0x0 DUP1 PUSH1 0x0 PUSH1 0xA0 DUP7 DUP9 SUB SLT ISZERO PUSH2 0x3119 JUMPI PUSH1 0x0 DUP1 REVERT JUMPDEST PUSH1 0x0 PUSH2 0x3127 DUP9 DUP3 DUP10 ADD PUSH2 0x306F JUMP JUMPDEST SWAP6 POP POP PUSH1 0x20 DUP7 ADD CALLDATALOAD PUSH8 0xFFFFFFFFFFFFFFFF DUP2 GT ISZERO PUSH2 0x3144 JUMPI PUSH1 0x0 DUP1 REVERT JUMPDEST PUSH2 0x3150 DUP9 DUP3 DUP10 ADD PUSH2 0x3099 JUMP JUMPDEST SWAP5 POP POP PUSH1 0x40 DUP7 ADD CALLDATALOAD PUSH8 0xFFFFFFFFFFFFFFFF DUP2 GT ISZERO PUSH2 0x316D JUMPI PUSH1 0x0 DUP1 REVERT JUMPDEST PUSH2 0x3179 DUP9 DUP3 DUP10 ADD PUSH2 0x3099 JUMP JUMPDEST SWAP4 POP POP PUSH1 0x60 DUP7 ADD CALLDATALOAD PUSH8 0xFFFFFFFFFFFFFFFF DUP2 GT ISZERO PUSH2 0x3196 JUMPI PUSH1 0x0 DUP1 REVERT JUMPDEST PUSH2 0x31A2 DUP9 DUP3 DUP10 ADD PUSH2 0x3099 JUMP JUMPDEST SWAP3 POP POP PUSH1 0x80 PUSH2 0x31B3 DUP9 DUP3 DUP10 ADD PUSH2 0x30C3 JUMP JUMPDEST SWAP2 POP POP SWAP3 SWAP6 POP SWAP3 SWAP6 SWAP1 SWAP4 POP JUMP JUMPDEST PUSH1 0x0 DUP1 PUSH1 0x40 DUP4 DUP6 SUB SLT ISZERO PUSH2 0x31D3 JUMPI PUSH1 0x0 DUP1 REVERT JUMPDEST PUSH1 0x0 DUP4 ADD CALLDATALOAD PUSH8 0xFFFFFFFFFFFFFFFF DUP2 GT ISZERO PUSH2 0x31ED JUMPI PUSH1 0x0 DUP1 REVERT JUMPDEST PUSH2 0x31F9 DUP6 DUP3 DUP7 ADD PUSH2 0x3099 JUMP JUMPDEST SWAP3 POP POP PUSH1 0x20 PUSH2 0x320A DUP6 DUP3 DUP7 ADD PUSH2 0x306F JUMP JUMPDEST SWAP2 POP POP SWAP3 POP SWAP3 SWAP1 POP JUMP JUMPDEST PUSH1 0x0 DUP1 PUSH1 0x0 DUP1 PUSH1 0x80 DUP6 DUP8 SUB SLT ISZERO PUSH2 0x322A JUMPI PUSH1 0x0 DUP1 REVERT JUMPDEST PUSH1 0x0 DUP6 ADD CALLDATALOAD PUSH8 0xFFFFFFFFFFFFFFFF DUP2 GT ISZERO PUSH2 0x3244 JUMPI PUSH1 0x0 DUP1 REVERT JUMPDEST PUSH2 0x3250 DUP8 DUP3 DUP9 ADD PUSH2 0x3099 JUMP JUMPDEST SWAP5 POP POP PUSH1 0x20 DUP6 ADD CALLDATALOAD PUSH8 0xFFFFFFFFFFFFFFFF DUP2 GT ISZERO PUSH2 0x326D JUMPI PUSH1 0x0 DUP1 REVERT JUMPDEST PUSH2 0x3279 DUP8 DUP3 DUP9 ADD PUSH2 0x3099 JUMP JUMPDEST SWAP4 POP POP PUSH1 0x40 PUSH2 0x328A DUP8 DUP3 DUP9 ADD PUSH2 0x30C3 JUMP JUMPDEST SWAP3 POP POP PUSH1 0x60 PUSH2 0x329B DUP8 DUP3 DUP9 ADD PUSH2 0x3084 JUMP JUMPDEST SWAP2 POP POP SWAP3 SWAP6 SWAP2 SWAP5 POP SWAP3 POP JUMP JUMPDEST PUSH1 0x0 PUSH1 0x20 DUP3 DUP5 SUB SLT ISZERO PUSH2 0x32B9 JUMPI PUSH1 0x0 DUP1 REVERT JUMPDEST PUSH1 0x0 PUSH2 0x32C7 DUP5 DUP3 DUP6 ADD PUSH2 0x30C3 JUMP JUMPDEST SWAP2 POP POP SWAP3 SWAP2 POP POP JUMP JUMPDEST PUSH1 0x0 DUP1 PUSH1 0x0 PUSH1 0x60 DUP5 DUP7 SUB SLT ISZERO PUSH2 0x32E5 JUMPI PUSH1 0x0 DUP1 REVERT JUMPDEST PUSH1 0x0 PUSH2 0x32F3 DUP7 DUP3 DUP8 ADD PUSH2 0x30C3 JUMP JUMPDEST SWAP4 POP POP PUSH1 0x20 DUP5 ADD CALLDATALOAD PUSH8 0xFFFFFFFFFFFFFFFF DUP2 GT ISZERO PUSH2 0x3310 JUMPI PUSH1 0x0 DUP1 REVERT JUMPDEST PUSH2 0x331C DUP7 DUP3 DUP8 ADD PUSH2 0x3099 JUMP JUMPDEST SWAP3 POP POP PUSH1 0x40 PUSH2 0x332D DUP7 DUP3 DUP8 ADD PUSH2 0x306F JUMP JUMPDEST SWAP2 POP POP SWAP3 POP SWAP3 POP SWAP3 JUMP JUMPDEST PUSH1 0x0 DUP1 PUSH1 0x0 DUP1 PUSH1 0x80 DUP6 DUP8 SUB SLT ISZERO PUSH2 0x334D JUMPI PUSH1 0x0 DUP1 REVERT JUMPDEST PUSH1 0x0 PUSH2 0x335B DUP8 DUP3 DUP9 ADD PUSH2 0x30C3 JUMP JUMPDEST SWAP5 POP POP PUSH1 0x20 DUP6 ADD CALLDATALOAD PUSH8 0xFFFFFFFFFFFFFFFF DUP2 GT ISZERO PUSH2 0x3378 JUMPI PUSH1 0x0 DUP1 REVERT JUMPDEST PUSH2 0x3384 DUP8 DUP3 DUP9 ADD PUSH2 0x3099 JUMP JUMPDEST SWAP4 POP POP PUSH1 0x40 DUP6 ADD CALLDATALOAD PUSH8 0xFFFFFFFFFFFFFFFF DUP2 GT ISZERO PUSH2 0x33A1 JUMPI PUSH1 0x0 DUP1 REVERT JUMPDEST PUSH2 0x33AD DUP8 DUP3 DUP9 ADD PUSH2 0x3099 JUMP JUMPDEST SWAP3 POP POP PUSH1 0x60 PUSH2 0x33BE DUP8 DUP3 DUP9 ADD PUSH2 0x30C3 JUMP JUMPDEST SWAP2 POP POP SWAP3 SWAP6 SWAP2 SWAP5 POP SWAP3 POP JUMP JUMPDEST PUSH1 0x0 PUSH2 0x33D6 DUP4 DUP4 PUSH2 0x3762 JUMP JUMPDEST SWAP1 POP SWAP3 SWAP2 POP POP JUMP JUMPDEST PUSH1 0x0 PUSH2 0x33EA DUP4 DUP4 PUSH2 0x37C5 JUMP JUMPDEST SWAP1 POP SWAP3 SWAP2 POP POP JUMP JUMPDEST PUSH1 0x0 PUSH2 0x33FE DUP4 DUP4 PUSH2 0x385C JUMP JUMPDEST SWAP1 POP SWAP3 SWAP2 POP POP JUMP JUMPDEST PUSH2 0x340F DUP2 PUSH2 0x3F5E JUMP JUMPDEST DUP3 MSTORE POP POP JUMP JUMPDEST PUSH2 0x341E DUP2 PUSH2 0x3F5E JUMP JUMPDEST DUP3 MSTORE POP POP JUMP JUMPDEST PUSH1 0x0 PUSH2 0x342F DUP3 PUSH2 0x3EB6 JUMP JUMPDEST PUSH2 0x3439 DUP2 DUP6 PUSH2 0x3F09 JUMP JUMPDEST SWAP4 POP DUP4 PUSH1 0x20 DUP3 MUL DUP6 ADD PUSH2 0x344B DUP6 PUSH2 0x3E71 JUMP JUMPDEST DUP1 PUSH1 0x0 JUMPDEST DUP6 DUP2 LT ISZERO PUSH2 0x3487 JUMPI DUP5 DUP5 SUB DUP10 MSTORE DUP2 MLOAD PUSH2 0x3468 DUP6 DUP3 PUSH2 0x33CA JUMP JUMPDEST SWAP5 POP PUSH2 0x3473 DUP4 PUSH2 0x3EE2 JUMP JUMPDEST SWAP3 POP PUSH1 0x20 DUP11 ADD SWAP10 POP POP PUSH1 0x1 DUP2 ADD SWAP1 POP PUSH2 0x344F JUMP JUMPDEST POP DUP3 SWAP8 POP DUP8 SWAP6 POP POP POP POP POP POP SWAP3 SWAP2 POP POP JUMP JUMPDEST PUSH1 0x0 PUSH2 0x34A4 DUP3 PUSH2 0x3EC1 JUMP JUMPDEST PUSH2 0x34AE DUP2 DUP6 PUSH2 0x3F1A JUMP JUMPDEST SWAP4 POP DUP4 PUSH1 0x20 DUP3 MUL DUP6 ADD PUSH2 0x34C0 DUP6 PUSH2 0x3E81 JUMP JUMPDEST DUP1 PUSH1 0x0 JUMPDEST DUP6 DUP2 LT ISZERO PUSH2 0x34FC JUMPI DUP5 DUP5 SUB DUP10 MSTORE DUP2 MLOAD PUSH2 0x34DD DUP6 DUP3 PUSH2 0x33DE JUMP JUMPDEST SWAP5 POP PUSH2 0x34E8 DUP4 PUSH2 0x3EEF JUMP JUMPDEST SWAP3 POP PUSH1 0x20 DUP11 ADD SWAP10 POP POP PUSH1 0x1 DUP2 ADD SWAP1 POP PUSH2 0x34C4 JUMP JUMPDEST POP DUP3 SWAP8 POP DUP8 SWAP6 POP POP POP POP POP POP SWAP3 SWAP2 POP POP JUMP JUMPDEST PUSH1 0x0 PUSH2 0x3519 DUP3 PUSH2 0x3ECC JUMP JUMPDEST PUSH2 0x3523 DUP2 DUP6 PUSH2 0x3F2B JUMP JUMPDEST SWAP4 POP DUP4 PUSH1 0x20 DUP3 MUL DUP6 ADD PUSH2 0x3535 DUP6 PUSH2 0x3E91 JUMP JUMPDEST DUP1 PUSH1 0x0 JUMPDEST DUP6 DUP2 LT ISZERO PUSH2 0x3571 JUMPI DUP5 DUP5 SUB DUP10 MSTORE DUP2 MLOAD PUSH2 0x3552 DUP6 DUP3 PUSH2 0x33F2 JUMP JUMPDEST SWAP5 POP PUSH2 0x355D DUP4 PUSH2 0x3EFC JUMP JUMPDEST SWAP3 POP PUSH1 0x20 DUP11 ADD SWAP10 POP POP PUSH1 0x1 DUP2 ADD SWAP1 POP PUSH2 0x3539 JUMP JUMPDEST POP DUP3 SWAP8 POP DUP8 SWAP6 POP POP POP POP POP POP SWAP3 SWAP2 POP POP JUMP JUMPDEST PUSH2 0x358C DUP2 PUSH2 0x3F70 JUMP JUMPDEST DUP3 MSTORE POP POP JUMP JUMPDEST PUSH2 0x359B DUP2 PUSH2 0x3F70 JUMP JUMPDEST DUP3 MSTORE POP POP JUMP JUMPDEST PUSH1 0x0 PUSH2 0x35AC DUP3 PUSH2 0x3ED7 JUMP JUMPDEST PUSH2 0x35B6 DUP2 DUP6 PUSH2 0x3F3C JUMP JUMPDEST SWAP4 POP PUSH2 0x35C6 DUP2 DUP6 PUSH1 0x20 DUP7 ADD PUSH2 0x3FB5 JUMP JUMPDEST PUSH2 0x35CF DUP2 PUSH2 0x3FEA JUMP JUMPDEST DUP5 ADD SWAP2 POP POP SWAP3 SWAP2 POP POP JUMP JUMPDEST PUSH1 0x0 PUSH2 0x35E5 DUP3 PUSH2 0x3ED7 JUMP JUMPDEST PUSH2 0x35EF DUP2 DUP6 PUSH2 0x3F4D JUMP JUMPDEST SWAP4 POP PUSH2 0x35FF DUP2 DUP6 PUSH1 0x20 DUP7 ADD PUSH2 0x3FB5 JUMP JUMPDEST PUSH2 0x3608 DUP2 PUSH2 0x3FEA JUMP JUMPDEST DUP5 ADD SWAP2 POP POP SWAP3 SWAP2 POP POP JUMP JUMPDEST PUSH1 0x0 DUP2 SLOAD PUSH1 0x1 DUP2 AND PUSH1 0x0 DUP2 EQ PUSH2 0x3630 JUMPI PUSH1 0x1 DUP2 EQ PUSH2 0x3656 JUMPI PUSH2 0x369A JUMP JUMPDEST PUSH1 0x7F PUSH1 0x2 DUP4 DIV AND PUSH2 0x3641 DUP2 DUP8 PUSH2 0x3F4D JUMP JUMPDEST SWAP6 POP PUSH1 0xFF NOT DUP4 AND DUP7 MSTORE PUSH1 0x20 DUP7 ADD SWAP4 POP POP PUSH2 0x369A JUMP JUMPDEST PUSH1 0x2 DUP3 DIV PUSH2 0x3664 DUP2 DUP8 PUSH2 0x3F4D JUMP JUMPDEST SWAP6 POP PUSH2 0x366F DUP6 PUSH2 0x3EA1 JUMP JUMPDEST PUSH1 0x0 JUMPDEST DUP3 DUP2 LT ISZERO PUSH2 0x3691 JUMPI DUP2 SLOAD DUP2 DUP10 ADD MSTORE PUSH1 0x1 DUP3 ADD SWAP2 POP PUSH1 0x20 DUP2 ADD SWAP1 POP PUSH2 0x3672 JUMP JUMPDEST DUP1 DUP9 ADD SWAP6 POP POP POP POP JUMPDEST POP POP SWAP3 SWAP2 POP POP JUMP JUMPDEST PUSH1 0x0 PUSH2 0x36AF PUSH1 0x10 DUP4 PUSH2 0x3F4D JUMP JUMPDEST SWAP2 POP PUSH32 0x446F63746F72206E6F7420666F756E6400000000000000000000000000000000 PUSH1 0x0 DUP4 ADD MSTORE PUSH1 0x20 DUP3 ADD SWAP1 POP SWAP2 SWAP1 POP JUMP JUMPDEST PUSH1 0x0 PUSH2 0x36EF PUSH1 0x10 DUP4 PUSH2 0x3F4D JUMP JUMPDEST SWAP2 POP PUSH32 0x53656E736F72206E6F7420666F756E6400000000000000000000000000000000 PUSH1 0x0 DUP4 ADD MSTORE PUSH1 0x20 DUP3 ADD SWAP1 POP SWAP2 SWAP1 POP JUMP JUMPDEST PUSH1 0x0 PUSH2 0x372F PUSH1 0x12 DUP4 PUSH2 0x3F4D JUMP JUMPDEST SWAP2 POP PUSH32 0x486F73706974616C206E6F7420666F756E640000000000000000000000000000 PUSH1 0x0 DUP4 ADD MSTORE PUSH1 0x20 DUP3 ADD SWAP1 POP SWAP2 SWAP1 POP JUMP JUMPDEST PUSH1 0x0 PUSH1 0x80 DUP4 ADD PUSH1 0x0 DUP4 ADD MLOAD PUSH2 0x377A PUSH1 0x0 DUP7 ADD DUP3 PUSH2 0x38D9 JUMP JUMPDEST POP PUSH1 0x20 DUP4 ADD MLOAD DUP5 DUP3 SUB PUSH1 0x20 DUP7 ADD MSTORE PUSH2 0x3792 DUP3 DUP3 PUSH2 0x35A1 JUMP JUMPDEST SWAP2 POP POP PUSH1 0x40 DUP4 ADD MLOAD PUSH2 0x37A7 PUSH1 0x40 DUP7 ADD DUP3 PUSH2 0x3406 JUMP JUMPDEST POP PUSH1 0x60 DUP4 ADD MLOAD PUSH2 0x37BA PUSH1 0x60 DUP7 ADD DUP3 PUSH2 0x3583 JUMP JUMPDEST POP DUP1 SWAP2 POP POP SWAP3 SWAP2 POP POP JUMP JUMPDEST PUSH1 0x0 PUSH1 0xC0 DUP4 ADD PUSH1 0x0 DUP4 ADD MLOAD PUSH2 0x37DD PUSH1 0x0 DUP7 ADD DUP3 PUSH2 0x3406 JUMP JUMPDEST POP PUSH1 0x20 DUP4 ADD MLOAD DUP5 DUP3 SUB PUSH1 0x20 DUP7 ADD MSTORE PUSH2 0x37F5 DUP3 DUP3 PUSH2 0x35A1 JUMP JUMPDEST SWAP2 POP POP PUSH1 0x40 DUP4 ADD MLOAD DUP5 DUP3 SUB PUSH1 0x40 DUP7 ADD MSTORE PUSH2 0x380F DUP3 DUP3 PUSH2 0x35A1 JUMP JUMPDEST SWAP2 POP POP PUSH1 0x60 DUP4 ADD MLOAD DUP5 DUP3 SUB PUSH1 0x60 DUP7 ADD MSTORE PUSH2 0x3829 DUP3 DUP3 PUSH2 0x35A1 JUMP JUMPDEST SWAP2 POP POP PUSH1 0x80 DUP4 ADD MLOAD PUSH2 0x383E PUSH1 0x80 DUP7 ADD DUP3 PUSH2 0x38D9 JUMP JUMPDEST POP PUSH1 0xA0 DUP4 ADD MLOAD PUSH2 0x3851 PUSH1 0xA0 DUP7 ADD DUP3 PUSH2 0x3583 JUMP JUMPDEST POP DUP1 SWAP2 POP POP SWAP3 SWAP2 POP POP JUMP JUMPDEST PUSH1 0x0 PUSH1 0xA0 DUP4 ADD PUSH1 0x0 DUP4 ADD MLOAD PUSH2 0x3874 PUSH1 0x0 DUP7 ADD DUP3 PUSH2 0x38D9 JUMP JUMPDEST POP PUSH1 0x20 DUP4 ADD MLOAD DUP5 DUP3 SUB PUSH1 0x20 DUP7 ADD MSTORE PUSH2 0x388C DUP3 DUP3 PUSH2 0x35A1 JUMP JUMPDEST SWAP2 POP POP PUSH1 0x40 DUP4 ADD MLOAD DUP5 DUP3 SUB PUSH1 0x40 DUP7 ADD MSTORE PUSH2 0x38A6 DUP3 DUP3 PUSH2 0x35A1 JUMP JUMPDEST SWAP2 POP POP PUSH1 0x60 DUP4 ADD MLOAD PUSH2 0x38BB PUSH1 0x60 DUP7 ADD DUP3 PUSH2 0x38D9 JUMP JUMPDEST POP PUSH1 0x80 DUP4 ADD MLOAD PUSH2 0x38CE PUSH1 0x80 DUP7 ADD DUP3 PUSH2 0x3583 JUMP JUMPDEST POP DUP1 SWAP2 POP POP SWAP3 SWAP2 POP POP JUMP JUMPDEST PUSH2 0x38E2 DUP2 PUSH2 0x3F9C JUMP JUMPDEST DUP3 MSTORE POP POP JUMP JUMPDEST PUSH2 0x38F1 DUP2 PUSH2 0x3F9C JUMP JUMPDEST DUP3 MSTORE POP POP JUMP JUMPDEST PUSH1 0x0 PUSH1 0xC0 DUP3 ADD SWAP1 POP PUSH2 0x390C PUSH1 0x0 DUP4 ADD DUP10 PUSH2 0x3415 JUMP JUMPDEST DUP2 DUP2 SUB PUSH1 0x20 DUP4 ADD MSTORE PUSH2 0x391E DUP2 DUP9 PUSH2 0x35DA JUMP JUMPDEST SWAP1 POP DUP2 DUP2 SUB PUSH1 0x40 DUP4 ADD MSTORE PUSH2 0x3932 DUP2 DUP8 PUSH2 0x35DA JUMP JUMPDEST SWAP1 POP DUP2 DUP2 SUB PUSH1 0x60 DUP4 ADD MSTORE PUSH2 0x3946 DUP2 DUP7 PUSH2 0x35DA JUMP JUMPDEST SWAP1 POP PUSH2 0x3955 PUSH1 0x80 DUP4 ADD DUP6 PUSH2 0x38E8 JUMP JUMPDEST PUSH2 0x3962 PUSH1 0xA0 DUP4 ADD DUP5 PUSH2 0x3592 JUMP JUMPDEST SWAP8 SWAP7 POP POP POP POP POP POP POP JUMP JUMPDEST PUSH1 0x0 PUSH1 0xA0 DUP3 ADD SWAP1 POP PUSH2 0x3982 PUSH1 0x0 DUP4 ADD DUP9 PUSH2 0x3415 JUMP JUMPDEST DUP2 DUP2 SUB PUSH1 0x20 DUP4 ADD MSTORE PUSH2 0x3994 DUP2 DUP8 PUSH2 0x3613 JUMP JUMPDEST SWAP1 POP DUP2 DUP2 SUB PUSH1 0x40 DUP4 ADD MSTORE PUSH2 0x39A8 DUP2 DUP7 PUSH2 0x3613 JUMP JUMPDEST SWAP1 POP DUP2 DUP2 SUB PUSH1 0x60 DUP4 ADD MSTORE PUSH2 0x39BC DUP2 DUP6 PUSH2 0x3613 JUMP JUMPDEST SWAP1 POP PUSH2 0x39CB PUSH1 0x80 DUP4 ADD DUP5 PUSH2 0x38E8 JUMP JUMPDEST SWAP7 SWAP6 POP POP POP POP POP POP JUMP JUMPDEST PUSH1 0x0 PUSH1 0xC0 DUP3 ADD SWAP1 POP PUSH2 0x39EA PUSH1 0x0 DUP4 ADD DUP10 PUSH2 0x3415 JUMP JUMPDEST DUP2 DUP2 SUB PUSH1 0x20 DUP4 ADD MSTORE PUSH2 0x39FC DUP2 DUP9 PUSH2 0x3613 JUMP JUMPDEST SWAP1 POP DUP2 DUP2 SUB PUSH1 0x40 DUP4 ADD MSTORE PUSH2 0x3A10 DUP2 DUP8 PUSH2 0x3613 JUMP JUMPDEST SWAP1 POP DUP2 DUP2 SUB PUSH1 0x60 DUP4 ADD MSTORE PUSH2 0x3A24 DUP2 DUP7 PUSH2 0x3613 JUMP JUMPDEST SWAP1 POP PUSH2 0x3A33 PUSH1 0x80 DUP4 ADD DUP6 PUSH2 0x38E8 JUMP JUMPDEST PUSH2 0x3A40 PUSH1 0xA0 DUP4 ADD DUP5 PUSH2 0x3592 JUMP JUMPDEST SWAP8 SWAP7 POP POP POP POP POP POP POP JUMP JUMPDEST PUSH1 0x0 PUSH1 0x20 DUP3 ADD SWAP1 POP DUP2 DUP2 SUB PUSH1 0x0 DUP4 ADD MSTORE PUSH2 0x3A65 DUP2 DUP5 PUSH2 0x3424 JUMP JUMPDEST SWAP1 POP SWAP3 SWAP2 POP POP JUMP JUMPDEST PUSH1 0x0 PUSH1 0x20 DUP3 ADD SWAP1 POP DUP2 DUP2 SUB PUSH1 0x0 DUP4 ADD MSTORE PUSH2 0x3A87 DUP2 DUP5 PUSH2 0x3499 JUMP JUMPDEST SWAP1 POP SWAP3 SWAP2 POP POP JUMP JUMPDEST PUSH1 0x0 PUSH1 0x20 DUP3 ADD SWAP1 POP DUP2 DUP2 SUB PUSH1 0x0 DUP4 ADD MSTORE PUSH2 0x3AA9 DUP2 DUP5 PUSH2 0x350E JUMP JUMPDEST SWAP1 POP SWAP3 SWAP2 POP POP JUMP JUMPDEST PUSH1 0x0 PUSH1 0x60 DUP3 ADD SWAP1 POP DUP2 DUP2 SUB PUSH1 0x0 DUP4 ADD MSTORE PUSH2 0x3ACB DUP2 DUP7 PUSH2 0x35DA JUMP JUMPDEST SWAP1 POP PUSH2 0x3ADA PUSH1 0x20 DUP4 ADD DUP6 PUSH2 0x3415 JUMP JUMPDEST PUSH2 0x3AE7 PUSH1 0x40 DUP4 ADD DUP5 PUSH2 0x3592 JUMP JUMPDEST SWAP5 SWAP4 POP POP POP POP JUMP JUMPDEST PUSH1 0x0 PUSH1 0xA0 DUP3 ADD SWAP1 POP DUP2 DUP2 SUB PUSH1 0x0 DUP4 ADD MSTORE PUSH2 0x3B09 DUP2 DUP9 PUSH2 0x35DA JUMP JUMPDEST SWAP1 POP DUP2 DUP2 SUB PUSH1 0x20 DUP4 ADD MSTORE PUSH2 0x3B1D DUP2 DUP8 PUSH2 0x35DA JUMP JUMPDEST SWAP1 POP DUP2 DUP2 SUB PUSH1 0x40 DUP4 ADD MSTORE PUSH2 0x3B31 DUP2 DUP7 PUSH2 0x35DA JUMP JUMPDEST SWAP1 POP PUSH2 0x3B40 PUSH1 0x60 DUP4 ADD DUP6 PUSH2 0x38E8 JUMP JUMPDEST PUSH2 0x3B4D PUSH1 0x80 DUP4 ADD DUP5 PUSH2 0x3592 JUMP JUMPDEST SWAP7 SWAP6 POP POP POP POP POP POP JUMP JUMPDEST PUSH1 0x0 PUSH1 0x80 DUP3 ADD SWAP1 POP DUP2 DUP2 SUB PUSH1 0x0 DUP4 ADD MSTORE PUSH2 0x3B71 DUP2 DUP8 PUSH2 0x35DA JUMP JUMPDEST SWAP1 POP DUP2 DUP2 SUB PUSH1 0x20 DUP4 ADD MSTORE PUSH2 0x3B85 DUP2 DUP7 PUSH2 0x35DA JUMP JUMPDEST SWAP1 POP PUSH2 0x3B94 PUSH1 0x40 DUP4 ADD DUP6 PUSH2 0x38E8 JUMP JUMPDEST PUSH2 0x3BA1 PUSH1 0x60 DUP4 ADD DUP5 PUSH2 0x3592 JUMP JUMPDEST SWAP6 SWAP5 POP POP POP POP POP JUMP JUMPDEST PUSH1 0x0 PUSH1 0x20 DUP3 ADD SWAP1 POP DUP2 DUP2 SUB PUSH1 0x0 DUP4 ADD MSTORE PUSH2 0x3BC3 DUP2 PUSH2 0x36A2 JUMP JUMPDEST SWAP1 POP SWAP2 SWAP1 POP JUMP JUMPDEST PUSH1 0x0 PUSH1 0x20 DUP3 ADD SWAP1 POP DUP2 DUP2 SUB PUSH1 0x0 DUP4 ADD MSTORE PUSH2 0x3BE3 DUP2 PUSH2 0x36E2 JUMP JUMPDEST SWAP1 POP SWAP2 SWAP1 POP JUMP JUMPDEST PUSH1 0x0 PUSH1 0x20 DUP3 ADD SWAP1 POP DUP2 DUP2 SUB PUSH1 0x0 DUP4 ADD MSTORE PUSH2 0x3C03 DUP2 PUSH2 0x3722 JUMP JUMPDEST SWAP1 POP SWAP2 SWAP1 POP JUMP JUMPDEST PUSH1 0x0 PUSH1 0x20 DUP3 ADD SWAP1 POP PUSH2 0x3C1F PUSH1 0x0 DUP4 ADD DUP5 PUSH2 0x38E8 JUMP JUMPDEST SWAP3 SWAP2 POP POP JUMP JUMPDEST PUSH1 0x0 PUSH1 0x80 DUP3 ADD SWAP1 POP PUSH2 0x3C3A PUSH1 0x0 DUP4 ADD DUP8 PUSH2 0x38E8 JUMP JUMPDEST DUP2 DUP2 SUB PUSH1 0x20 DUP4 ADD MSTORE PUSH2 0x3C4C DUP2 DUP7 PUSH2 0x35DA JUMP JUMPDEST SWAP1 POP PUSH2 0x3C5B PUSH1 0x40 DUP4 ADD DUP6 PUSH2 0x3415 JUMP JUMPDEST PUSH2 0x3C68 PUSH1 0x60 DUP4 ADD DUP5 PUSH2 0x3592 JUMP JUMPDEST SWAP6 SWAP5 POP POP POP POP POP JUMP JUMPDEST PUSH1 0x0 PUSH1 0xA0 DUP3 ADD SWAP1 POP PUSH2 0x3C86 PUSH1 0x0 DUP4 ADD DUP9 PUSH2 0x38E8 JUMP JUMPDEST DUP2 DUP2 SUB PUSH1 0x20 DUP4 ADD MSTORE PUSH2 0x3C98 DUP2 DUP8 PUSH2 0x35DA JUMP JUMPDEST SWAP1 POP DUP2 DUP2 SUB PUSH1 0x40 DUP4 ADD MSTORE PUSH2 0x3CAC DUP2 DUP7 PUSH2 0x35DA JUMP JUMPDEST SWAP1 POP PUSH2 0x3CBB PUSH1 0x60 DUP4 ADD DUP6 PUSH2 0x38E8 JUMP JUMPDEST PUSH2 0x3CC8 PUSH1 0x80 DUP4 ADD DUP5 PUSH2 0x3592 JUMP JUMPDEST SWAP7 SWAP6 POP POP POP POP POP POP JUMP JUMPDEST PUSH1 0x0 PUSH1 0x60 DUP3 ADD SWAP1 POP PUSH2 0x3CE7 PUSH1 0x0 DUP4 ADD DUP7 PUSH2 0x38E8 JUMP JUMPDEST DUP2 DUP2 SUB PUSH1 0x20 DUP4 ADD MSTORE PUSH2 0x3CF9 DUP2 DUP6 PUSH2 0x3613 JUMP JUMPDEST SWAP1 POP PUSH2 0x3D08 PUSH1 0x40 DUP4 ADD DUP5 PUSH2 0x3415 JUMP JUMPDEST SWAP5 SWAP4 POP POP POP POP JUMP JUMPDEST PUSH1 0x0 PUSH1 0x80 DUP3 ADD SWAP1 POP PUSH2 0x3D25 PUSH1 0x0 DUP4 ADD DUP8 PUSH2 0x38E8 JUMP JUMPDEST DUP2 DUP2 SUB PUSH1 0x20 DUP4 ADD MSTORE PUSH2 0x3D37 DUP2 DUP7 PUSH2 0x3613 JUMP JUMPDEST SWAP1 POP PUSH2 0x3D46 PUSH1 0x40 DUP4 ADD DUP6 PUSH2 0x3415 JUMP JUMPDEST PUSH2 0x3D53 PUSH1 0x60 DUP4 ADD DUP5 PUSH2 0x3592 JUMP JUMPDEST SWAP6 SWAP5 POP POP POP POP POP JUMP JUMPDEST PUSH1 0x0 PUSH1 0x80 DUP3 ADD SWAP1 POP PUSH2 0x3D71 PUSH1 0x0 DUP4 ADD DUP8 PUSH2 0x38E8 JUMP JUMPDEST DUP2 DUP2 SUB PUSH1 0x20 DUP4 ADD MSTORE PUSH2 0x3D83 DUP2 DUP7 PUSH2 0x3613 JUMP JUMPDEST SWAP1 POP DUP2 DUP2 SUB PUSH1 0x40 DUP4 ADD MSTORE PUSH2 0x3D97 DUP2 DUP6 PUSH2 0x3613 JUMP JUMPDEST SWAP1 POP PUSH2 0x3DA6 PUSH1 0x60 DUP4 ADD DUP5 PUSH2 0x38E8 JUMP JUMPDEST SWAP6 SWAP5 POP POP POP POP POP JUMP JUMPDEST PUSH1 0x0 PUSH1 0xA0 DUP3 ADD SWAP1 POP PUSH2 0x3DC4 PUSH1 0x0 DUP4 ADD DUP9 PUSH2 0x38E8 JUMP JUMPDEST DUP2 DUP2 SUB PUSH1 0x20 DUP4 ADD MSTORE PUSH2 0x3DD6 DUP2 DUP8 PUSH2 0x3613 JUMP JUMPDEST SWAP1 POP DUP2 DUP2 SUB PUSH1 0x40 DUP4 ADD MSTORE PUSH2 0x3DEA DUP2 DUP7 PUSH2 0x3613 JUMP JUMPDEST SWAP1 POP PUSH2 0x3DF9 PUSH1 0x60 DUP4 ADD DUP6 PUSH2 0x38E8 JUMP JUMPDEST PUSH2 0x3E06 PUSH1 0x80 DUP4 ADD DUP5 PUSH2 0x3592 JUMP JUMPDEST SWAP7 SWAP6 POP POP POP POP POP POP JUMP JUMPDEST PUSH1 0x0 PUSH1 0x40 MLOAD SWAP1 POP DUP2 DUP2 ADD DUP2 DUP2 LT PUSH8 0xFFFFFFFFFFFFFFFF DUP3 GT OR ISZERO PUSH2 0x3E37 JUMPI PUSH2 0x3E36 PUSH2 0x3FE8 JUMP JUMPDEST JUMPDEST DUP1 PUSH1 0x40 MSTORE POP SWAP2 SWAP1 POP JUMP JUMPDEST PUSH1 0x0 PUSH8 0xFFFFFFFFFFFFFFFF DUP3 GT ISZERO PUSH2 0x3E5C JUMPI PUSH2 0x3E5B PUSH2 0x3FE8 JUMP JUMPDEST JUMPDEST PUSH1 0x1F NOT PUSH1 0x1F DUP4 ADD AND SWAP1 POP PUSH1 0x20 DUP2 ADD SWAP1 POP SWAP2 SWAP1 POP JUMP JUMPDEST PUSH1 0x0 DUP2 SWAP1 POP PUSH1 0x20 DUP3 ADD SWAP1 POP SWAP2 SWAP1 POP JUMP JUMPDEST PUSH1 0x0 DUP2 SWAP1 POP PUSH1 0x20 DUP3 ADD SWAP1 POP SWAP2 SWAP1 POP JUMP JUMPDEST PUSH1 0x0 DUP2 SWAP1 POP PUSH1 0x20 DUP3 ADD SWAP1 POP SWAP2 SWAP1 POP JUMP JUMPDEST PUSH1 0x0 DUP2 SWAP1 POP DUP2 PUSH1 0x0 MSTORE PUSH1 0x20 PUSH1 0x0 KECCAK256 SWAP1 POP SWAP2 SWAP1 POP JUMP JUMPDEST PUSH1 0x0 DUP2 MLOAD SWAP1 POP SWAP2 SWAP1 POP JUMP JUMPDEST PUSH1 0x0 DUP2 MLOAD SWAP1 POP SWAP2 SWAP1 POP JUMP JUMPDEST PUSH1 0x0 DUP2 MLOAD SWAP1 POP SWAP2 SWAP1 POP JUMP JUMPDEST PUSH1 0x0 DUP2 MLOAD SWAP1 POP SWAP2 SWAP1 POP JUMP JUMPDEST PUSH1 0x0 PUSH1 0x20 DUP3 ADD SWAP1 POP SWAP2 SWAP1 POP JUMP JUMPDEST PUSH1 0x0 PUSH1 0x20 DUP3 ADD SWAP1 POP SWAP2 SWAP1 POP JUMP JUMPDEST PUSH1 0x0 PUSH1 0x20 DUP3 ADD SWAP1 POP SWAP2 SWAP1 POP JUMP JUMPDEST PUSH1 0x0 DUP3 DUP3 MSTORE PUSH1 0x20 DUP3 ADD SWAP1 POP SWAP3 SWAP2 POP POP JUMP JUMPDEST PUSH1 0x0 DUP3 DUP3 MSTORE PUSH1 0x20 DUP3 ADD SWAP1 POP SWAP3 SWAP2 POP POP JUMP JUMPDEST PUSH1 0x0 DUP3 DUP3 MSTORE PUSH1 0x20 DUP3 ADD SWAP1 POP SWAP3 SWAP2 POP POP JUMP JUMPDEST PUSH1 0x0 DUP3 DUP3 MSTORE PUSH1 0x20 DUP3 ADD SWAP1 POP SWAP3 SWAP2 POP POP JUMP JUMPDEST PUSH1 0x0 DUP3 DUP3 MSTORE PUSH1 0x20 DUP3 ADD SWAP1 POP SWAP3 SWAP2 POP POP JUMP JUMPDEST PUSH1 0x0 PUSH2 0x3F69 DUP3 PUSH2 0x3F7C JUMP JUMPDEST SWAP1 POP SWAP2 SWAP1 POP JUMP JUMPDEST PUSH1 0x0 DUP2 ISZERO ISZERO SWAP1 POP SWAP2 SWAP1 POP JUMP JUMPDEST PUSH1 0x0 PUSH20 0xFFFFFFFFFFFFFFFFFFFFFFFFFFFFFFFFFFFFFFFF DUP3 AND SWAP1 POP SWAP2 SWAP1 POP JUMP JUMPDEST PUSH1 0x0 DUP2 SWAP1 POP SWAP2 SWAP1 POP JUMP JUMPDEST DUP3 DUP2 DUP4 CALLDATACOPY PUSH1 0x0 DUP4 DUP4 ADD MSTORE POP POP POP JUMP JUMPDEST PUSH1 0x0 JUMPDEST DUP4 DUP2 LT ISZERO PUSH2 0x3FD3 JUMPI DUP1 DUP3 ADD MLOAD DUP2 DUP5 ADD MSTORE PUSH1 0x20 DUP2 ADD SWAP1 POP PUSH2 0x3FB8 JUMP JUMPDEST DUP4 DUP2 GT ISZERO PUSH2 0x3FE2 JUMPI PUSH1 0x0 DUP5 DUP5 ADD MSTORE JUMPDEST POP POP POP POP JUMP JUMPDEST INVALID JUMPDEST PUSH1 0x0 PUSH1 0x1F NOT PUSH1 0x1F DUP4 ADD AND SWAP1 POP SWAP2 SWAP1 POP JUMP JUMPDEST PUSH2 0x4004 DUP2 PUSH2 0x3F5E JUMP JUMPDEST DUP2 EQ PUSH2 0x400F JUMPI PUSH1 0x0 DUP1 REVERT JUMPDEST POP JUMP JUMPDEST PUSH2 0x401B DUP2 PUSH2 0x3F70 JUMP JUMPDEST DUP2 EQ PUSH2 0x4026 JUMPI PUSH1 0x0 DUP1 REVERT JUMPDEST POP JUMP JUMPDEST PUSH2 0x4032 DUP2 PUSH2 0x3F9C JUMP JUMPDEST DUP2 EQ PUSH2 0x403D JUMPI PUSH1 0x0 DUP1 REVERT JUMPDEST POP JUMP INVALID LOG2 PUSH5 0x6970667358 0x22 SLT KECCAK256 CHAINID 0xAD 0xC1 0x2D PUSH7 0xD88676DF3D6D6E 0xA8 MUL 0x5E 0x21 PUSH24 0x50494AA1B693E3B5DD3860046E643C64736F6C6343000706 STOP CALLER "
    },
    "gasEstimates": {
      "creation": {
        "codeDepositCost": "3300400",
        "executionCost": "24534",
        "totalCost": "3324934"
      },
      "external": {
        "AddDoctor(string,address)": "infinite",
        "AddHospital(address,string,string,string,uint256)": "infinite",
        "AddSensor(string,string,uint256,bool)": "infinite",
        "Doctors(address)": "infinite",
        "Hospitals(address)": "infinite",
        "Length_Doctors()": "1235",
        "Length_Hospitals()": "1190",
        "Length_sensors()": "1278",
        "ReadDoctor(uint256)": "infinite",
        "ReadHospital(address)": "infinite",
        "ReadSensor(uint256)": "infinite",
        "RemoveDoctor(uint256)": "infinite",
        "RemoveHospital(address)": "infinite",
        "RemoveSensor(uint256)": "infinite",
        "Sensors(address)": "infinite",
        "UpdateDoctor(uint256,string,address)": "infinite",
        "UpdateHospital(address,string,string,string,uint256)": "infinite",
        "UpdateSensor(uint256,string,string,uint256)": "infinite",
        "doctorsHospital(uint256)": "infinite",
        "getAllDoctors()": "infinite",
        "getAllDoctorsInHospital(address)": "infinite",
        "getAllHospitals()": "infinite",
        "getAllSensorOfDoctor(uint256)": "infinite",
        "getAllSensors()": "infinite",
        "hospitalCenters(uint256)": "infinite",
        "sensorsDoctor(uint256)": "infinite"
      },
      "internal": {
        "FindDoctor(uint256)": "infinite",
        "FindHospital(address)": "infinite",
        "FindSensor(uint256)": "infinite"
      }
    },
    "methodIdentifiers": {
      "AddDoctor(string,address)": "3f98b96e",
      "AddHospital(address,string,string,string,uint256)": "a27876c5",
      "AddSensor(string,string,uint256,bool)": "ada913fd",
      "Doctors(address)": "dc7aa36b",
      "Hospitals(address)": "a549a4ed",
      "Length_Doctors()": "1ba51696",
      "Length_Hospitals()": "a17d7a38",
      "Length_sensors()": "b5843613",
      "ReadDoctor(uint256)": "0c8cabec",
      "ReadHospital(address)": "9b70e779",
      "ReadSensor(uint256)": "02655c2e",
      "RemoveDoctor(uint256)": "7e85bcea",
      "RemoveHospital(address)": "4807fc69",
      "RemoveSensor(uint256)": "6151efb1",
      "Sensors(address)": "898bd140",
      "UpdateDoctor(uint256,string,address)": "c9034659",
      "UpdateHospital(address,string,string,string,uint256)": "14c94371",
      "UpdateSensor(uint256,string,string,uint256)": "c1a92058",
      "doctorsHospital(uint256)": "8db2fc41",
      "getAllDoctors()": "f0d95090",
      "getAllDoctorsInHospital(address)": "c266406d",
      "getAllHospitals()": "4e9f7154",
      "getAllSensorOfDoctor(uint256)": "66d92c81",
      "getAllSensors()": "5a4e5d3e",
      "hospitalCenters(uint256)": "d53d0a85",
      "sensorsDoctor(uint256)": "ea87659f"
    }
  },
  "storageLayout": {
    "storage": [
      {
        "astId": 4,
        "contract": "EHealth.sol:EHealth",
        "label": "nextIdDoctor",
        "offset": 0,
        "slot": "0",
        "type": "t_uint256"
      },
      {
        "astId": 6,
        "contract": "EHealth.sol:EHealth",
        "label": "nextIdSensor",
        "offset": 0,
        "slot": "1",
        "type": "t_uint256"
      },
      {
        "astId": 9,
        "contract": "EHealth.sol:EHealth",
        "label": "owner",
        "offset": 0,
        "slot": "2",
        "type": "t_address"
      },
      {
        "astId": 13,
        "contract": "EHealth.sol:EHealth",
        "label": "Hospitals",
        "offset": 0,
        "slot": "3",
        "type": "t_mapping(t_address,t_struct(Hospital)26_storage)"
      },
      {
        "astId": 29,
        "contract": "EHealth.sol:EHealth",
        "label": "hospitalCenters",
        "offset": 0,
        "slot": "4",
        "type": "t_array(t_struct(Hospital)26_storage)dyn_storage"
      },
      {
        "astId": 33,
        "contract": "EHealth.sol:EHealth",
        "label": "Doctors",
        "offset": 0,
        "slot": "5",
        "type": "t_mapping(t_address,t_struct(Doctor)42_storage)"
      },
      {
        "astId": 45,
        "contract": "EHealth.sol:EHealth",
        "label": "doctorsHospital",
        "offset": 0,
        "slot": "6",
        "type": "t_array(t_struct(Doctor)42_storage)dyn_storage"
      },
      {
        "astId": 49,
        "contract": "EHealth.sol:EHealth",
        "label": "Sensors",
        "offset": 0,
        "slot": "7",
        "type": "t_mapping(t_address,t_struct(Sensor)60_storage)"
      },
      {
        "astId": 63,
        "contract": "EHealth.sol:EHealth",
        "label": "sensorsDoctor",
        "offset": 0,
        "slot": "8",
        "type": "t_array(t_struct(Sensor)60_storage)dyn_storage"
      }
    ],
    "types": {
      "t_address": {
        "encoding": "inplace",
        "label": "address",
        "numberOfBytes": "20"
      },
      "t_array(t_struct(Doctor)42_storage)dyn_storage": {
        "base": "t_struct(Doctor)42_storage",
        "encoding": "dynamic_array",
        "label": "struct EHealth.Doctor[]",
        "numberOfBytes": "32"
      },
      "t_array(t_struct(Hospital)26_storage)dyn_storage": {
        "base": "t_struct(Hospital)26_storage",
        "encoding": "dynamic_array",
        "label": "struct EHealth.Hospital[]",
        "numberOfBytes": "32"
      },
      "t_array(t_struct(Sensor)60_storage)dyn_storage": {
        "base": "t_struct(Sensor)60_storage",
        "encoding": "dynamic_array",
        "label": "struct EHealth.Sensor[]",
        "numberOfBytes": "32"
      },
      "t_bool": {
        "encoding": "inplace",
        "label": "bool",
        "numberOfBytes": "1"
      },
      "t_mapping(t_address,t_struct(Doctor)42_storage)": {
        "encoding": "mapping",
        "key": "t_address",
        "label": "mapping(address => struct EHealth.Doctor)",
        "numberOfBytes": "32",
        "value": "t_struct(Doctor)42_storage"
      },
      "t_mapping(t_address,t_struct(Hospital)26_storage)": {
        "encoding": "mapping",
        "key": "t_address",
        "label": "mapping(address => struct EHealth.Hospital)",
        "numberOfBytes": "32",
        "value": "t_struct(Hospital)26_storage"
      },
      "t_mapping(t_address,t_struct(Sensor)60_storage)": {
        "encoding": "mapping",
        "key": "t_address",
        "label": "mapping(address => struct EHealth.Sensor)",
        "numberOfBytes": "32",
        "value": "t_struct(Sensor)60_storage"
      },
      "t_string_storage": {
        "encoding": "bytes",
        "label": "string",
        "numberOfBytes": "32"
      },
      "t_struct(Doctor)42_storage": {
        "encoding": "inplace",
        "label": "struct EHealth.Doctor",
        "members": [
          {
            "astId": 35,
            "contract": "EHealth.sol:EHealth",
            "label": "idDoctor",
            "offset": 0,
            "slot": "0",
            "type": "t_uint256"
          },
          {
            "astId": 37,
            "contract": "EHealth.sol:EHealth",
            "label": "nameDoctor",
            "offset": 0,
            "slot": "1",
            "type": "t_string_storage"
          },
          {
            "astId": 39,
            "contract": "EHealth.sol:EHealth",
            "label": "hospital",
            "offset": 0,
            "slot": "2",
            "type": "t_address"
          },
          {
            "astId": 41,
            "contract": "EHealth.sol:EHealth",
            "label": "permission",
            "offset": 20,
            "slot": "2",
            "type": "t_bool"
          }
        ],
        "numberOfBytes": "96"
      },
      "t_struct(Hospital)26_storage": {
        "encoding": "inplace",
        "label": "struct EHealth.Hospital",
        "members": [
          {
            "astId": 15,
            "contract": "EHealth.sol:EHealth",
            "label": "idHospital",
            "offset": 0,
            "slot": "0",
            "type": "t_address"
          },
          {
            "astId": 17,
            "contract": "EHealth.sol:EHealth",
            "label": "name",
            "offset": 0,
            "slot": "1",
            "type": "t_string_storage"
          },
          {
            "astId": 19,
            "contract": "EHealth.sol:EHealth",
            "label": "city",
            "offset": 0,
            "slot": "2",
            "type": "t_string_storage"
          },
          {
            "astId": 21,
            "contract": "EHealth.sol:EHealth",
            "label": "state",
            "offset": 0,
            "slot": "3",
            "type": "t_string_storage"
          },
          {
            "astId": 23,
            "contract": "EHealth.sol:EHealth",
            "label": "postalCode",
            "offset": 0,
            "slot": "4",
            "type": "t_uint256"
          },
          {
            "astId": 25,
            "contract": "EHealth.sol:EHealth",
            "label": "permission",
            "offset": 0,
            "slot": "5",
            "type": "t_bool"
          }
        ],
        "numberOfBytes": "192"
      },
      "t_struct(Sensor)60_storage": {
        "encoding": "inplace",
        "label": "struct EHealth.Sensor",
        "members": [
          {
            "astId": 51,
            "contract": "EHealth.sol:EHealth",
            "label": "idSensor",
            "offset": 0,
            "slot": "0",
            "type": "t_uint256"
          },
          {
            "astId": 53,
            "contract": "EHealth.sol:EHealth",
            "label": "MAC",
            "offset": 0,
            "slot": "1",
            "type": "t_string_storage"
          },
          {
            "astId": 55,
            "contract": "EHealth.sol:EHealth",
            "label": "patientName",
            "offset": 0,
            "slot": "2",
            "type": "t_string_storage"
          },
          {
            "astId": 57,
            "contract": "EHealth.sol:EHealth",
            "label": "idDoctor",
            "offset": 0,
            "slot": "3",
            "type": "t_uint256"
          },
          {
            "astId": 59,
            "contract": "EHealth.sol:EHealth",
            "label": "active",
            "offset": 0,
            "slot": "4",
            "type": "t_bool"
          }
        ],
        "numberOfBytes": "160"
      },
      "t_uint256": {
        "encoding": "inplace",
        "label": "uint256",
        "numberOfBytes": "32"
      }
    }
  },
  "userdoc": {
    "kind": "user",
    "methods": {},
    "version": 1
  },
  "address": "0xe20F4368ec7D5d641d59FfaA9E96C4D6C4db17Be"
}