{
  "abi": [
    {
      "anonymous": false,
      "inputs": [
        {
          "indexed": false,
          "internalType": "address",
          "name": "",
          "type": "address"
        },
        {
          "indexed": false,
          "internalType": "string",
          "name": "",
          "type": "string"
        },
        {
          "indexed": false,
          "internalType": "address",
          "name": "",
          "type": "address"
        },
        {
          "indexed": false,
          "internalType": "bool",
          "name": "",
          "type": "bool"
        }
      ],
      "name": "DeleteDoctor",
      "type": "event",
      "signature": "0x780b3c74ec1e08d8c65fd8a12c6ac2da5c15f2d3b5e54335b51671f63b7d2ad0"
    },
    {
      "anonymous": false,
      "inputs": [
        {
          "indexed": false,
          "internalType": "address",
          "name": "",
          "type": "address"
        },
        {
          "indexed": false,
          "internalType": "string",
          "name": "",
          "type": "string"
        },
        {
          "indexed": false,
          "internalType": "string",
          "name": "",
          "type": "string"
        },
        {
          "indexed": false,
          "internalType": "string",
          "name": "",
          "type": "string"
        },
        {
          "indexed": false,
          "internalType": "uint256",
          "name": "",
          "type": "uint256"
        },
        {
          "indexed": false,
          "internalType": "bool",
          "name": "",
          "type": "bool"
        }
      ],
      "name": "DeleteHospital",
      "type": "event",
      "signature": "0x05818f5e23a2c2bb34c81792ea8e3397d3f8ad179cb93a5fa57b3d4681564aa0"
    },
    {
      "anonymous": false,
      "inputs": [
        {
          "indexed": false,
          "internalType": "uint256",
          "name": "",
          "type": "uint256"
        },
        {
          "indexed": false,
          "internalType": "string",
          "name": "",
          "type": "string"
        },
        {
          "indexed": false,
          "internalType": "string",
          "name": "",
          "type": "string"
        },
        {
          "indexed": false,
          "internalType": "address",
          "name": "",
          "type": "address"
        },
        {
          "indexed": false,
          "internalType": "bool",
          "name": "",
          "type": "bool"
        }
      ],
      "name": "DeleteSensor",
      "type": "event",
      "signature": "0xef9006907eb20210e880b0bb1c39946083bcec24688718507d63a259ffa8351b"
    },
    {
      "anonymous": false,
      "inputs": [
        {
          "indexed": false,
          "internalType": "address",
          "name": "",
          "type": "address"
        },
        {
          "indexed": false,
          "internalType": "string",
          "name": "",
          "type": "string"
        },
        {
          "indexed": false,
          "internalType": "address",
          "name": "",
          "type": "address"
        },
        {
          "indexed": false,
          "internalType": "bool",
          "name": "",
          "type": "bool"
        }
      ],
      "name": "NewDoctor",
      "type": "event",
      "signature": "0x4578695497af1a3a1f556f9c89f9f107851cb8e1820e4b336143406b9ba52e3b"
    },
    {
      "anonymous": false,
      "inputs": [
        {
          "indexed": false,
          "internalType": "address",
          "name": "",
          "type": "address"
        },
        {
          "indexed": false,
          "internalType": "string",
          "name": "",
          "type": "string"
        },
        {
          "indexed": false,
          "internalType": "string",
          "name": "",
          "type": "string"
        },
        {
          "indexed": false,
          "internalType": "string",
          "name": "",
          "type": "string"
        },
        {
          "indexed": false,
          "internalType": "uint256",
          "name": "",
          "type": "uint256"
        },
        {
          "indexed": false,
          "internalType": "bool",
          "name": "",
          "type": "bool"
        }
      ],
      "name": "NewHospital",
      "type": "event",
      "signature": "0xf646212acc3f5092fb0211ffd5121c0f706641b715e3982dab50afb395413dd5"
    },
    {
      "anonymous": false,
      "inputs": [
        {
          "indexed": false,
          "internalType": "uint256",
          "name": "",
          "type": "uint256"
        },
        {
          "indexed": false,
          "internalType": "string",
          "name": "",
          "type": "string"
        },
        {
          "indexed": false,
          "internalType": "string",
          "name": "",
          "type": "string"
        },
        {
          "indexed": false,
          "internalType": "address",
          "name": "",
          "type": "address"
        },
        {
          "indexed": false,
          "internalType": "bool",
          "name": "",
          "type": "bool"
        }
      ],
      "name": "NewSensor",
      "type": "event",
      "signature": "0x1d6a52c11773994a4a6eaa1ace32b929e7f0900bbe29db3f1d36a3cd45f1486c"
    },
    {
      "anonymous": false,
      "inputs": [
        {
          "indexed": false,
          "internalType": "address",
          "name": "",
          "type": "address"
        },
        {
          "indexed": false,
          "internalType": "string",
          "name": "",
          "type": "string"
        },
        {
          "indexed": false,
          "internalType": "address",
          "name": "",
          "type": "address"
        },
        {
          "indexed": false,
          "internalType": "bool",
          "name": "",
          "type": "bool"
        }
      ],
      "name": "RefreshDoctor",
      "type": "event",
      "signature": "0x6fcbc4a02269ac36204ac7e60c4cf625c6fc2b2365cac750c9927b670e347f90"
    },
    {
      "anonymous": false,
      "inputs": [
        {
          "indexed": false,
          "internalType": "address",
          "name": "",
          "type": "address"
        },
        {
          "indexed": false,
          "internalType": "string",
          "name": "",
          "type": "string"
        },
        {
          "indexed": false,
          "internalType": "string",
          "name": "",
          "type": "string"
        },
        {
          "indexed": false,
          "internalType": "string",
          "name": "",
          "type": "string"
        },
        {
          "indexed": false,
          "internalType": "uint256",
          "name": "",
          "type": "uint256"
        },
        {
          "indexed": false,
          "internalType": "bool",
          "name": "",
          "type": "bool"
        }
      ],
      "name": "RefreshHospital",
      "type": "event",
      "signature": "0x5975e6fed8802a324436eb320387035d99d011c9901bb75b34b8c23b91250c1c"
    },
    {
      "anonymous": false,
      "inputs": [
        {
          "indexed": false,
          "internalType": "uint256",
          "name": "",
          "type": "uint256"
        },
        {
          "indexed": false,
          "internalType": "string",
          "name": "",
          "type": "string"
        },
        {
          "indexed": false,
          "internalType": "string",
          "name": "",
          "type": "string"
        },
        {
          "indexed": false,
          "internalType": "address",
          "name": "",
          "type": "address"
        },
        {
          "indexed": false,
          "internalType": "bool",
          "name": "",
          "type": "bool"
        }
      ],
      "name": "RefreshSensor",
      "type": "event",
      "signature": "0x3ab6f9ea2e72cad17988f4527dc5626fa4e97c597fcbd9d7e2a7e820851b54ce"
    },
    {
      "inputs": [
        {
          "internalType": "address",
          "name": "idDoctor",
          "type": "address"
        },
        {
          "internalType": "string",
          "name": "_nameDoctor",
          "type": "string"
        },
        {
          "internalType": "address",
          "name": "_hospital",
          "type": "address"
        }
      ],
      "name": "AddDoctor",
      "outputs": [],
      "stateMutability": "nonpayable",
      "type": "function",
      "signature": "0xe1ee3b56"
    },
    {
      "inputs": [
        {
          "internalType": "address",
          "name": "_idHospital",
          "type": "address"
        },
        {
          "internalType": "string",
          "name": "_name",
          "type": "string"
        },
        {
          "internalType": "string",
          "name": "_city",
          "type": "string"
        },
        {
          "internalType": "string",
          "name": "_state",
          "type": "string"
        },
        {
          "internalType": "uint256",
          "name": "_postalCode",
          "type": "uint256"
        }
      ],
      "name": "AddHospital",
      "outputs": [],
      "stateMutability": "nonpayable",
      "type": "function",
      "signature": "0xa27876c5"
    },
    {
      "inputs": [
        {
          "internalType": "string",
          "name": "_mac",
          "type": "string"
        },
        {
          "internalType": "string",
          "name": "_patientName",
          "type": "string"
        },
        {
          "internalType": "address",
          "name": "_idDoctor",
          "type": "address"
        },
        {
          "internalType": "bool",
          "name": "_active",
          "type": "bool"
        }
      ],
      "name": "AddSensor",
      "outputs": [],
      "stateMutability": "nonpayable",
      "type": "function",
      "signature": "0x1b057e40"
    },
    {
      "inputs": [
        {
          "internalType": "address",
          "name": "",
          "type": "address"
        }
      ],
      "name": "Doctors",
      "outputs": [
        {
          "internalType": "address",
          "name": "idDoctor",
          "type": "address"
        },
        {
          "internalType": "string",
          "name": "nameDoctor",
          "type": "string"
        },
        {
          "internalType": "address",
          "name": "hospital",
          "type": "address"
        },
        {
          "internalType": "bool",
          "name": "permission",
          "type": "bool"
        }
      ],
      "stateMutability": "view",
      "type": "function",
      "constant": true,
      "signature": "0xdc7aa36b"
    },
    {
      "inputs": [
        {
          "internalType": "address",
          "name": "",
          "type": "address"
        }
      ],
      "name": "Hospitals",
      "outputs": [
        {
          "internalType": "address",
          "name": "idHospital",
          "type": "address"
        },
        {
          "internalType": "string",
          "name": "name",
          "type": "string"
        },
        {
          "internalType": "string",
          "name": "city",
          "type": "string"
        },
        {
          "internalType": "string",
          "name": "state",
          "type": "string"
        },
        {
          "internalType": "uint256",
          "name": "postalCode",
          "type": "uint256"
        },
        {
          "internalType": "bool",
          "name": "permission",
          "type": "bool"
        }
      ],
      "stateMutability": "view",
      "type": "function",
      "constant": true,
      "signature": "0xa549a4ed"
    },
    {
      "inputs": [],
      "name": "Length_Doctors",
      "outputs": [
        {
          "internalType": "uint256",
          "name": "",
          "type": "uint256"
        }
      ],
      "stateMutability": "view",
      "type": "function",
      "constant": true,
      "signature": "0x1ba51696"
    },
    {
      "inputs": [],
      "name": "Length_Hospitals",
      "outputs": [
        {
          "internalType": "uint256",
          "name": "",
          "type": "uint256"
        }
      ],
      "stateMutability": "view",
      "type": "function",
      "constant": true,
      "signature": "0xa17d7a38"
    },
    {
      "inputs": [],
      "name": "Length_sensors",
      "outputs": [
        {
          "internalType": "uint256",
          "name": "",
          "type": "uint256"
        }
      ],
      "stateMutability": "view",
      "type": "function",
      "constant": true,
      "signature": "0xb5843613"
    },
    {
      "inputs": [
        {
          "internalType": "address",
          "name": "_id",
          "type": "address"
        }
      ],
      "name": "ReadDoctor",
      "outputs": [
        {
          "internalType": "string",
          "name": "",
          "type": "string"
        },
        {
          "internalType": "address",
          "name": "",
          "type": "address"
        },
        {
          "internalType": "bool",
          "name": "",
          "type": "bool"
        }
      ],
      "stateMutability": "view",
      "type": "function",
      "constant": true,
      "signature": "0x6cd8ebdc"
    },
    {
      "inputs": [
        {
          "internalType": "address",
          "name": "_address",
          "type": "address"
        }
      ],
      "name": "ReadHospital",
      "outputs": [
        {
          "internalType": "string",
          "name": "",
          "type": "string"
        },
        {
          "internalType": "string",
          "name": "",
          "type": "string"
        },
        {
          "internalType": "string",
          "name": "",
          "type": "string"
        },
        {
          "internalType": "uint256",
          "name": "",
          "type": "uint256"
        },
        {
          "internalType": "bool",
          "name": "",
          "type": "bool"
        }
      ],
      "stateMutability": "view",
      "type": "function",
      "constant": true,
      "signature": "0x9b70e779"
    },
    {
      "inputs": [
        {
          "internalType": "uint256",
          "name": "_id",
          "type": "uint256"
        }
      ],
      "name": "ReadSensor",
      "outputs": [
        {
          "internalType": "string",
          "name": "",
          "type": "string"
        },
        {
          "internalType": "string",
          "name": "",
          "type": "string"
        },
        {
          "internalType": "address",
          "name": "",
          "type": "address"
        },
        {
          "internalType": "bool",
          "name": "",
          "type": "bool"
        }
      ],
      "stateMutability": "view",
      "type": "function",
      "constant": true,
      "signature": "0x02655c2e"
    },
    {
      "inputs": [
        {
          "internalType": "address",
          "name": "_id",
          "type": "address"
        }
      ],
      "name": "RemoveDoctor",
      "outputs": [],
      "stateMutability": "nonpayable",
      "type": "function",
      "signature": "0xa0568e2d"
    },
    {
      "inputs": [
        {
          "internalType": "address",
          "name": "_address",
          "type": "address"
        }
      ],
      "name": "RemoveHospital",
      "outputs": [],
      "stateMutability": "nonpayable",
      "type": "function",
      "signature": "0x4807fc69"
    },
    {
      "inputs": [
        {
          "internalType": "uint256",
          "name": "_id",
          "type": "uint256"
        }
      ],
      "name": "RemoveSensor",
      "outputs": [],
      "stateMutability": "nonpayable",
      "type": "function",
      "signature": "0x6151efb1"
    },
    {
      "inputs": [
        {
          "internalType": "address",
          "name": "",
          "type": "address"
        }
      ],
      "name": "Sensors",
      "outputs": [
        {
          "internalType": "uint256",
          "name": "idSensor",
          "type": "uint256"
        },
        {
          "internalType": "string",
          "name": "MAC",
          "type": "string"
        },
        {
          "internalType": "string",
          "name": "patientName",
          "type": "string"
        },
        {
          "internalType": "address",
          "name": "idDoctor",
          "type": "address"
        },
        {
          "internalType": "bool",
          "name": "active",
          "type": "bool"
        }
      ],
      "stateMutability": "view",
      "type": "function",
      "constant": true,
      "signature": "0x898bd140"
    },
    {
      "inputs": [
        {
          "internalType": "address",
          "name": "_id",
          "type": "address"
        },
        {
          "internalType": "string",
          "name": "_nameDoctor",
          "type": "string"
        },
        {
          "internalType": "address",
          "name": "_hospital",
          "type": "address"
        },
        {
          "internalType": "bool",
          "name": "_permission",
          "type": "bool"
        }
      ],
      "name": "UpdateDoctor",
      "outputs": [],
      "stateMutability": "nonpayable",
      "type": "function",
      "signature": "0x60ea3cdc"
    },
    {
      "inputs": [
        {
          "internalType": "address",
          "name": "_address",
          "type": "address"
        },
        {
          "internalType": "string",
          "name": "_name",
          "type": "string"
        },
        {
          "internalType": "string",
          "name": "_city",
          "type": "string"
        },
        {
          "internalType": "string",
          "name": "_state",
          "type": "string"
        },
        {
          "internalType": "uint256",
          "name": "_postalCode",
          "type": "uint256"
        },
        {
          "internalType": "bool",
          "name": "_permission",
          "type": "bool"
        }
      ],
      "name": "UpdateHospital",
      "outputs": [],
      "stateMutability": "nonpayable",
      "type": "function",
      "signature": "0x7fe53f83"
    },
    {
      "inputs": [
        {
          "internalType": "uint256",
          "name": "_id",
          "type": "uint256"
        },
        {
          "internalType": "string",
          "name": "_mac",
          "type": "string"
        },
        {
          "internalType": "string",
          "name": "_patientName",
          "type": "string"
        },
        {
          "internalType": "address",
          "name": "_idDoctor",
          "type": "address"
        },
        {
          "internalType": "bool",
          "name": "_active",
          "type": "bool"
        }
      ],
      "name": "UpdateSensor",
      "outputs": [],
      "stateMutability": "nonpayable",
      "type": "function",
      "signature": "0x6f39507d"
    },
    {
      "inputs": [
        {
          "internalType": "uint256",
          "name": "",
          "type": "uint256"
        }
      ],
      "name": "doctorsHospital",
      "outputs": [
        {
          "internalType": "address",
          "name": "idDoctor",
          "type": "address"
        },
        {
          "internalType": "string",
          "name": "nameDoctor",
          "type": "string"
        },
        {
          "internalType": "address",
          "name": "hospital",
          "type": "address"
        },
        {
          "internalType": "bool",
          "name": "permission",
          "type": "bool"
        }
      ],
      "stateMutability": "view",
      "type": "function",
      "constant": true,
      "signature": "0x8db2fc41"
    },
    {
      "inputs": [],
      "name": "getAllDoctors",
      "outputs": [
        {
          "components": [
            {
              "internalType": "address",
              "name": "idDoctor",
              "type": "address"
            },
            {
              "internalType": "string",
              "name": "nameDoctor",
              "type": "string"
            },
            {
              "internalType": "address",
              "name": "hospital",
              "type": "address"
            },
            {
              "internalType": "bool",
              "name": "permission",
              "type": "bool"
            }
          ],
          "internalType": "struct EHealth.Doctor[]",
          "name": "",
          "type": "tuple[]"
        }
      ],
      "stateMutability": "view",
      "type": "function",
      "constant": true,
      "signature": "0xf0d95090"
    },
    {
      "inputs": [
        {
          "internalType": "address",
          "name": "_address",
          "type": "address"
        }
      ],
      "name": "getAllDoctorsInHospital",
      "outputs": [
        {
          "components": [
            {
              "internalType": "address",
              "name": "idDoctor",
              "type": "address"
            },
            {
              "internalType": "string",
              "name": "nameDoctor",
              "type": "string"
            },
            {
              "internalType": "address",
              "name": "hospital",
              "type": "address"
            },
            {
              "internalType": "bool",
              "name": "permission",
              "type": "bool"
            }
          ],
          "internalType": "struct EHealth.Doctor[]",
          "name": "",
          "type": "tuple[]"
        }
      ],
      "stateMutability": "view",
      "type": "function",
      "constant": true,
      "signature": "0xc266406d"
    },
    {
      "inputs": [],
      "name": "getAllHospitals",
      "outputs": [
        {
          "components": [
            {
              "internalType": "address",
              "name": "idHospital",
              "type": "address"
            },
            {
              "internalType": "string",
              "name": "name",
              "type": "string"
            },
            {
              "internalType": "string",
              "name": "city",
              "type": "string"
            },
            {
              "internalType": "string",
              "name": "state",
              "type": "string"
            },
            {
              "internalType": "uint256",
              "name": "postalCode",
              "type": "uint256"
            },
            {
              "internalType": "bool",
              "name": "permission",
              "type": "bool"
            }
          ],
          "internalType": "struct EHealth.Hospital[]",
          "name": "",
          "type": "tuple[]"
        }
      ],
      "stateMutability": "view",
      "type": "function",
      "constant": true,
      "signature": "0x4e9f7154"
    },
    {
      "inputs": [
        {
          "internalType": "address",
          "name": "_idDoctor",
          "type": "address"
        }
      ],
      "name": "getAllSensorOfDoctor",
      "outputs": [
        {
          "components": [
            {
              "internalType": "uint256",
              "name": "idSensor",
              "type": "uint256"
            },
            {
              "internalType": "string",
              "name": "MAC",
              "type": "string"
            },
            {
              "internalType": "string",
              "name": "patientName",
              "type": "string"
            },
            {
              "internalType": "address",
              "name": "idDoctor",
              "type": "address"
            },
            {
              "internalType": "bool",
              "name": "active",
              "type": "bool"
            }
          ],
          "internalType": "struct EHealth.Sensor[]",
          "name": "",
          "type": "tuple[]"
        }
      ],
      "stateMutability": "view",
      "type": "function",
      "constant": true,
      "signature": "0x9a2e5bed"
    },
    {
      "inputs": [],
      "name": "getAllSensors",
      "outputs": [
        {
          "components": [
            {
              "internalType": "uint256",
              "name": "idSensor",
              "type": "uint256"
            },
            {
              "internalType": "string",
              "name": "MAC",
              "type": "string"
            },
            {
              "internalType": "string",
              "name": "patientName",
              "type": "string"
            },
            {
              "internalType": "address",
              "name": "idDoctor",
              "type": "address"
            },
            {
              "internalType": "bool",
              "name": "active",
              "type": "bool"
            }
          ],
          "internalType": "struct EHealth.Sensor[]",
          "name": "",
          "type": "tuple[]"
        }
      ],
      "stateMutability": "view",
      "type": "function",
      "constant": true,
      "signature": "0x5a4e5d3e"
    },
    {
      "inputs": [
        {
          "internalType": "uint256",
          "name": "",
          "type": "uint256"
        }
      ],
      "name": "hospitalCenters",
      "outputs": [
        {
          "internalType": "address",
          "name": "idHospital",
          "type": "address"
        },
        {
          "internalType": "string",
          "name": "name",
          "type": "string"
        },
        {
          "internalType": "string",
          "name": "city",
          "type": "string"
        },
        {
          "internalType": "string",
          "name": "state",
          "type": "string"
        },
        {
          "internalType": "uint256",
          "name": "postalCode",
          "type": "uint256"
        },
        {
          "internalType": "bool",
          "name": "permission",
          "type": "bool"
        }
      ],
      "stateMutability": "view",
      "type": "function",
      "constant": true,
      "signature": "0xd53d0a85"
    },
    {
      "inputs": [
        {
          "internalType": "uint256",
          "name": "",
          "type": "uint256"
        }
      ],
      "name": "sensorsDoctor",
      "outputs": [
        {
          "internalType": "uint256",
          "name": "idSensor",
          "type": "uint256"
        },
        {
          "internalType": "string",
          "name": "MAC",
          "type": "string"
        },
        {
          "internalType": "string",
          "name": "patientName",
          "type": "string"
        },
        {
          "internalType": "address",
          "name": "idDoctor",
          "type": "address"
        },
        {
          "internalType": "bool",
          "name": "active",
          "type": "bool"
        }
      ],
      "stateMutability": "view",
      "type": "function",
      "constant": true,
      "signature": "0xea87659f"
    }
  ],
  "devdoc": {
    "kind": "dev",
    "methods": {},
    "version": 1
  },
  "evm": {
    "assembly": "    /* \"EHealth.sol\":119:10213  contract EHealth {\r... */\n  mstore(0x40, 0x80)\n    /* \"EHealth.sol\":232:274  0x8FcF3B91599C6d5bb93D8c7df9f3974C622b83a4 */\n  0x8fcf3b91599c6d5bb93d8c7df9f3974c622b83a4\n    /* \"EHealth.sol\":216:274  address owner = 0x8FcF3B91599C6d5bb93D8c7df9f3974C622b83a4 */\n  0x02\n  exp(0x0100, 0x00)\n  dup2\n  sload\n  dup2\n  0xffffffffffffffffffffffffffffffffffffffff\n  mul\n  not\n  and\n  swap1\n  dup4\n  0xffffffffffffffffffffffffffffffffffffffff\n  and\n  mul\n  or\n  swap1\n  sstore\n  pop\n    /* \"EHealth.sol\":119:10213  contract EHealth {\r... */\n  callvalue\n  dup1\n  iszero\n  tag_1\n  jumpi\n  0x00\n  dup1\n  revert\ntag_1:\n  pop\n  dataSize(sub_0)\n  dup1\n  dataOffset(sub_0)\n  0x00\n  codecopy\n  0x00\n  return\nstop\n\nsub_0: assembly {\n        /* \"EHealth.sol\":119:10213  contract EHealth {\r... */\n      mstore(0x40, 0x80)\n      callvalue\n      dup1\n      iszero\n      tag_1\n      jumpi\n      0x00\n      dup1\n      revert\n    tag_1:\n      pop\n      jumpi(tag_2, lt(calldatasize, 0x04))\n      shr(0xe0, calldataload(0x00))\n      dup1\n      0x9a2e5bed\n      gt\n      tag_29\n      jumpi\n      dup1\n      0xb5843613\n      gt\n      tag_30\n      jumpi\n      dup1\n      0xdc7aa36b\n      gt\n      tag_31\n      jumpi\n      dup1\n      0xdc7aa36b\n      eq\n      tag_25\n      jumpi\n      dup1\n      0xe1ee3b56\n      eq\n      tag_26\n      jumpi\n      dup1\n      0xea87659f\n      eq\n      tag_27\n      jumpi\n      dup1\n      0xf0d95090\n      eq\n      tag_28\n      jumpi\n      jump(tag_2)\n    tag_31:\n      dup1\n      0xb5843613\n      eq\n      tag_22\n      jumpi\n      dup1\n      0xc266406d\n      eq\n      tag_23\n      jumpi\n      dup1\n      0xd53d0a85\n      eq\n      tag_24\n      jumpi\n      jump(tag_2)\n    tag_30:\n      dup1\n      0x9a2e5bed\n      eq\n      tag_16\n      jumpi\n      dup1\n      0x9b70e779\n      eq\n      tag_17\n      jumpi\n      dup1\n      0xa0568e2d\n      eq\n      tag_18\n      jumpi\n      dup1\n      0xa17d7a38\n      eq\n      tag_19\n      jumpi\n      dup1\n      0xa27876c5\n      eq\n      tag_20\n      jumpi\n      dup1\n      0xa549a4ed\n      eq\n      tag_21\n      jumpi\n      jump(tag_2)\n    tag_29:\n      dup1\n      0x60ea3cdc\n      gt\n      tag_32\n      jumpi\n      dup1\n      0x6f39507d\n      gt\n      tag_33\n      jumpi\n      dup1\n      0x6f39507d\n      eq\n      tag_12\n      jumpi\n      dup1\n      0x7fe53f83\n      eq\n      tag_13\n      jumpi\n      dup1\n      0x898bd140\n      eq\n      tag_14\n      jumpi\n      dup1\n      0x8db2fc41\n      eq\n      tag_15\n      jumpi\n      jump(tag_2)\n    tag_33:\n      dup1\n      0x60ea3cdc\n      eq\n      tag_9\n      jumpi\n      dup1\n      0x6151efb1\n      eq\n      tag_10\n      jumpi\n      dup1\n      0x6cd8ebdc\n      eq\n      tag_11\n      jumpi\n      jump(tag_2)\n    tag_32:\n      dup1\n      0x02655c2e\n      eq\n      tag_3\n      jumpi\n      dup1\n      0x1b057e40\n      eq\n      tag_4\n      jumpi\n      dup1\n      0x1ba51696\n      eq\n      tag_5\n      jumpi\n      dup1\n      0x4807fc69\n      eq\n      tag_6\n      jumpi\n      dup1\n      0x4e9f7154\n      eq\n      tag_7\n      jumpi\n      dup1\n      0x5a4e5d3e\n      eq\n      tag_8\n      jumpi\n    tag_2:\n      0x00\n      dup1\n      revert\n        /* \"EHealth.sol\":9091:9365  function ReadSensor(uint _id)public view returns(string memory,string memory, address, bool){\r... */\n    tag_3:\n      tag_34\n      0x04\n      dup1\n      calldatasize\n      sub\n      dup2\n      add\n      swap1\n      tag_35\n      swap2\n      swap1\n      tag_36\n      jump\t// in\n    tag_35:\n      tag_37\n      jump\t// in\n    tag_34:\n      mload(0x40)\n      tag_38\n      swap5\n      swap4\n      swap3\n      swap2\n      swap1\n      tag_39\n      jump\t// in\n    tag_38:\n      mload(0x40)\n      dup1\n      swap2\n      sub\n      swap1\n      return\n        /* \"EHealth.sol\":7421:7761  function AddSensor(string memory _mac, string memory _patientName, address _idDoctor, bool _active) public {\r... */\n    tag_4:\n      tag_40\n      0x04\n      dup1\n      calldatasize\n      sub\n      dup2\n      add\n      swap1\n      tag_41\n      swap2\n      swap1\n      tag_42\n      jump\t// in\n    tag_41:\n      tag_43\n      jump\t// in\n    tag_40:\n      stop\n        /* \"EHealth.sol\":6465:6568  function Length_Doctors() public view returns (uint256){\r... */\n    tag_5:\n      tag_44\n      tag_45\n      jump\t// in\n    tag_44:\n      mload(0x40)\n      tag_46\n      swap2\n      swap1\n      tag_47\n      jump\t// in\n    tag_46:\n      mload(0x40)\n      dup1\n      swap2\n      sub\n      swap1\n      return\n        /* \"EHealth.sol\":2474:2900  function RemoveHospital(address _address) public {\r... */\n    tag_6:\n      tag_48\n      0x04\n      dup1\n      calldatasize\n      sub\n      dup2\n      add\n      swap1\n      tag_49\n      swap2\n      swap1\n      tag_50\n      jump\t// in\n    tag_49:\n      tag_51\n      jump\t// in\n    tag_48:\n      stop\n        /* \"EHealth.sol\":3705:3984  function getAllHospitals() public view returns (Hospital[] memory){\r... */\n    tag_7:\n      tag_52\n      tag_53\n      jump\t// in\n    tag_52:\n      mload(0x40)\n      tag_54\n      swap2\n      swap1\n      tag_55\n      jump\t// in\n    tag_54:\n      mload(0x40)\n      dup1\n      swap2\n      sub\n      swap1\n      return\n        /* \"EHealth.sol\":9530:9795  function getAllSensors() public view returns (Sensor[] memory){\r... */\n    tag_8:\n      tag_56\n      tag_57\n      jump\t// in\n    tag_56:\n      mload(0x40)\n      tag_58\n      swap2\n      swap1\n      tag_59\n      jump\t// in\n    tag_58:\n      mload(0x40)\n      dup1\n      swap2\n      sub\n      swap1\n      return\n        /* \"EHealth.sol\":5632:6151  function UpdateDoctor(address _id, string memory _nameDoctor, address _hospital ,bool _permission) public {\r... */\n    tag_9:\n      tag_60\n      0x04\n      dup1\n      calldatasize\n      sub\n      dup2\n      add\n      swap1\n      tag_61\n      swap2\n      swap1\n      tag_62\n      jump\t// in\n    tag_61:\n      tag_63\n      jump\t// in\n    tag_60:\n      stop\n        /* \"EHealth.sol\":8103:8448  function RemoveSensor(uint _id) public {\r... */\n    tag_10:\n      tag_64\n      0x04\n      dup1\n      calldatasize\n      sub\n      dup2\n      add\n      swap1\n      tag_65\n      swap2\n      swap1\n      tag_36\n      jump\t// in\n    tag_65:\n      tag_66\n      jump\t// in\n    tag_64:\n      stop\n        /* \"EHealth.sol\":6184:6431  function ReadDoctor(address _id)public view returns(string memory, address, bool){\r... */\n    tag_11:\n      tag_67\n      0x04\n      dup1\n      calldatasize\n      sub\n      dup2\n      add\n      swap1\n      tag_68\n      swap2\n      swap1\n      tag_50\n      jump\t// in\n    tag_68:\n      tag_69\n      jump\t// in\n    tag_67:\n      mload(0x40)\n      tag_70\n      swap4\n      swap3\n      swap2\n      swap1\n      tag_71\n      jump\t// in\n    tag_70:\n      mload(0x40)\n      dup1\n      swap2\n      sub\n      swap1\n      return\n        /* \"EHealth.sol\":8483:9058  function UpdateSensor(uint _id, string memory _mac, string memory _patientName,address _idDoctor, bool _active ) public {\r... */\n    tag_12:\n      tag_72\n      0x04\n      dup1\n      calldatasize\n      sub\n      dup2\n      add\n      swap1\n      tag_73\n      swap2\n      swap1\n      tag_74\n      jump\t// in\n    tag_73:\n      tag_75\n      jump\t// in\n    tag_72:\n      stop\n        /* \"EHealth.sol\":2939:3672  function UpdateHospital(address _address, string memory _name, string memory _city, string memory _state, uint _postalCode, bool _permission ) public {\r... */\n    tag_13:\n      tag_76\n      0x04\n      dup1\n      calldatasize\n      sub\n      dup2\n      add\n      swap1\n      tag_77\n      swap2\n      swap1\n      tag_78\n      jump\t// in\n    tag_77:\n      tag_79\n      jump\t// in\n    tag_76:\n      stop\n        /* \"EHealth.sol\":864:904  mapping(address=> Sensor) public Sensors */\n    tag_14:\n      tag_80\n      0x04\n      dup1\n      calldatasize\n      sub\n      dup2\n      add\n      swap1\n      tag_81\n      swap2\n      swap1\n      tag_50\n      jump\t// in\n    tag_81:\n      tag_82\n      jump\t// in\n    tag_80:\n      mload(0x40)\n      tag_83\n      swap6\n      swap5\n      swap4\n      swap3\n      swap2\n      swap1\n      tag_84\n      jump\t// in\n    tag_83:\n      mload(0x40)\n      dup1\n      swap2\n      sub\n      swap1\n      return\n        /* \"EHealth.sol\":808:839  Doctor[] public doctorsHospital */\n    tag_15:\n      tag_85\n      0x04\n      dup1\n      calldatasize\n      sub\n      dup2\n      add\n      swap1\n      tag_86\n      swap2\n      swap1\n      tag_36\n      jump\t// in\n    tag_86:\n      tag_87\n      jump\t// in\n    tag_85:\n      mload(0x40)\n      tag_88\n      swap5\n      swap4\n      swap3\n      swap2\n      swap1\n      tag_89\n      jump\t// in\n    tag_88:\n      mload(0x40)\n      dup1\n      swap2\n      sub\n      swap1\n      return\n        /* \"EHealth.sol\":9844:10210  function getAllSensorOfDoctor (address _idDoctor) public view returns (Sensor[] memory){\r... */\n    tag_16:\n      tag_90\n      0x04\n      dup1\n      calldatasize\n      sub\n      dup2\n      add\n      swap1\n      tag_91\n      swap2\n      swap1\n      tag_50\n      jump\t// in\n    tag_91:\n      tag_92\n      jump\t// in\n    tag_90:\n      mload(0x40)\n      tag_93\n      swap2\n      swap1\n      tag_59\n      jump\t// in\n    tag_93:\n      mload(0x40)\n      dup1\n      swap2\n      sub\n      swap1\n      return\n        /* \"EHealth.sol\":4164:4515  function ReadHospital(address _address)public view returns(string memory, string memory, string memory, uint, bool){\r... */\n    tag_17:\n      tag_94\n      0x04\n      dup1\n      calldatasize\n      sub\n      dup2\n      add\n      swap1\n      tag_95\n      swap2\n      swap1\n      tag_50\n      jump\t// in\n    tag_95:\n      tag_96\n      jump\t// in\n    tag_94:\n      mload(0x40)\n      tag_97\n      swap6\n      swap5\n      swap4\n      swap3\n      swap2\n      swap1\n      tag_98\n      jump\t// in\n    tag_97:\n      mload(0x40)\n      dup1\n      swap2\n      sub\n      swap1\n      return\n        /* \"EHealth.sol\":5267:5597  function RemoveDoctor(address _id) public {\r... */\n    tag_18:\n      tag_99\n      0x04\n      dup1\n      calldatasize\n      sub\n      dup2\n      add\n      swap1\n      tag_100\n      swap2\n      swap1\n      tag_50\n      jump\t// in\n    tag_100:\n      tag_101\n      jump\t// in\n    tag_99:\n      stop\n        /* \"EHealth.sol\":4022:4127  function Length_Hospitals() public view returns (uint256){\r... */\n    tag_19:\n      tag_102\n      tag_103\n      jump\t// in\n    tag_102:\n      mload(0x40)\n      tag_104\n      swap2\n      swap1\n      tag_47\n      jump\t// in\n    tag_104:\n      mload(0x40)\n      dup1\n      swap2\n      sub\n      swap1\n      return\n        /* \"EHealth.sol\":1814:2130  function AddHospital(address _idHospital, string memory _name, string memory _city, string memory _state, uint _postalCode ) public {\r... */\n    tag_20:\n      tag_105\n      0x04\n      dup1\n      calldatasize\n      sub\n      dup2\n      add\n      swap1\n      tag_106\n      swap2\n      swap1\n      tag_107\n      jump\t// in\n    tag_106:\n      tag_108\n      jump\t// in\n    tag_105:\n      stop\n        /* \"EHealth.sol\":301:345  mapping(address=> Hospital) public Hospitals */\n    tag_21:\n      tag_109\n      0x04\n      dup1\n      calldatasize\n      sub\n      dup2\n      add\n      swap1\n      tag_110\n      swap2\n      swap1\n      tag_50\n      jump\t// in\n    tag_110:\n      tag_111\n      jump\t// in\n    tag_109:\n      mload(0x40)\n      tag_112\n      swap7\n      swap6\n      swap5\n      swap4\n      swap3\n      swap2\n      swap1\n      tag_113\n      jump\t// in\n    tag_112:\n      mload(0x40)\n      dup1\n      swap2\n      sub\n      swap1\n      return\n        /* \"EHealth.sol\":9399:9500  function Length_sensors() public view returns (uint256){\r... */\n    tag_22:\n      tag_114\n      tag_115\n      jump\t// in\n    tag_114:\n      mload(0x40)\n      tag_116\n      swap2\n      swap1\n      tag_47\n      jump\t// in\n    tag_116:\n      mload(0x40)\n      dup1\n      swap2\n      sub\n      swap1\n      return\n        /* \"EHealth.sol\":6911:7285  function getAllDoctorsInHospital(address _address) public view returns (Doctor[] memory){\r... */\n    tag_23:\n      tag_117\n      0x04\n      dup1\n      calldatasize\n      sub\n      dup2\n      add\n      swap1\n      tag_118\n      swap2\n      swap1\n      tag_50\n      jump\t// in\n    tag_118:\n      tag_119\n      jump\t// in\n    tag_117:\n      mload(0x40)\n      tag_120\n      swap2\n      swap1\n      tag_121\n      jump\t// in\n    tag_120:\n      mload(0x40)\n      dup1\n      swap2\n      sub\n      swap1\n      return\n        /* \"EHealth.sol\":536:569  Hospital[] public hospitalCenters */\n    tag_24:\n      tag_122\n      0x04\n      dup1\n      calldatasize\n      sub\n      dup2\n      add\n      swap1\n      tag_123\n      swap2\n      swap1\n      tag_36\n      jump\t// in\n    tag_123:\n      tag_124\n      jump\t// in\n    tag_122:\n      mload(0x40)\n      tag_125\n      swap7\n      swap6\n      swap5\n      swap4\n      swap3\n      swap2\n      swap1\n      tag_113\n      jump\t// in\n    tag_125:\n      mload(0x40)\n      dup1\n      swap2\n      sub\n      swap1\n      return\n        /* \"EHealth.sol\":598:638  mapping(address=> Doctor) public Doctors */\n    tag_25:\n      tag_126\n      0x04\n      dup1\n      calldatasize\n      sub\n      dup2\n      add\n      swap1\n      tag_127\n      swap2\n      swap1\n      tag_50\n      jump\t// in\n    tag_127:\n      tag_128\n      jump\t// in\n    tag_126:\n      mload(0x40)\n      tag_129\n      swap5\n      swap4\n      swap3\n      swap2\n      swap1\n      tag_89\n      jump\t// in\n    tag_129:\n      mload(0x40)\n      dup1\n      swap2\n      sub\n      swap1\n      return\n        /* \"EHealth.sol\":4649:4922  function AddDoctor(address idDoctor, string memory _nameDoctor, address _hospital) public {\r... */\n    tag_26:\n      tag_130\n      0x04\n      dup1\n      calldatasize\n      sub\n      dup2\n      add\n      swap1\n      tag_131\n      swap2\n      swap1\n      tag_132\n      jump\t// in\n    tag_131:\n      tag_133\n      jump\t// in\n    tag_130:\n      stop\n        /* \"EHealth.sol\":1092:1121  Sensor[] public sensorsDoctor */\n    tag_27:\n      tag_134\n      0x04\n      dup1\n      calldatasize\n      sub\n      dup2\n      add\n      swap1\n      tag_135\n      swap2\n      swap1\n      tag_36\n      jump\t// in\n    tag_135:\n      tag_136\n      jump\t// in\n    tag_134:\n      mload(0x40)\n      tag_137\n      swap6\n      swap5\n      swap4\n      swap3\n      swap2\n      swap1\n      tag_84\n      jump\t// in\n    tag_137:\n      mload(0x40)\n      dup1\n      swap2\n      sub\n      swap1\n      return\n        /* \"EHealth.sol\":6598:6869  function getAllDoctors() public view returns (Doctor[] memory){\r... */\n    tag_28:\n      tag_138\n      tag_139\n      jump\t// in\n    tag_138:\n      mload(0x40)\n      tag_140\n      swap2\n      swap1\n      tag_121\n      jump\t// in\n    tag_140:\n      mload(0x40)\n      dup1\n      swap2\n      sub\n      swap1\n      return\n        /* \"EHealth.sol\":9091:9365  function ReadSensor(uint _id)public view returns(string memory,string memory, address, bool){\r... */\n    tag_37:\n        /* \"EHealth.sol\":9140:9153  string memory */\n      0x60\n        /* \"EHealth.sol\":9154:9167  string memory */\n      dup1\n        /* \"EHealth.sol\":9169:9176  address */\n      0x00\n        /* \"EHealth.sol\":9178:9182  bool */\n      dup1\n        /* \"EHealth.sol\":9194:9204  uint index */\n      0x00\n        /* \"EHealth.sol\":9207:9222  FindSensor(_id) */\n      tag_142\n        /* \"EHealth.sol\":9218:9221  _id */\n      dup7\n        /* \"EHealth.sol\":9207:9217  FindSensor */\n      tag_143\n        /* \"EHealth.sol\":9207:9222  FindSensor(_id) */\n      jump\t// in\n    tag_142:\n        /* \"EHealth.sol\":9194:9222  uint index = FindSensor(_id) */\n      swap1\n      pop\n        /* \"EHealth.sol\":9241:9254  sensorsDoctor */\n      0x08\n        /* \"EHealth.sol\":9255:9260  index */\n      dup2\n        /* \"EHealth.sol\":9241:9261  sensorsDoctor[index] */\n      dup2\n      sload\n      dup2\n      lt\n      tag_144\n      jumpi\n      invalid\n    tag_144:\n      swap1\n      0x00\n      mstore\n      keccak256(0x00, 0x20)\n      swap1\n      0x04\n      mul\n      add\n        /* \"EHealth.sol\":9241:9265  sensorsDoctor[index].MAC */\n      0x01\n      add\n        /* \"EHealth.sol\":9266:9279  sensorsDoctor */\n      0x08\n        /* \"EHealth.sol\":9280:9285  index */\n      dup3\n        /* \"EHealth.sol\":9266:9286  sensorsDoctor[index] */\n      dup2\n      sload\n      dup2\n      lt\n      tag_146\n      jumpi\n      invalid\n    tag_146:\n      swap1\n      0x00\n      mstore\n      keccak256(0x00, 0x20)\n      swap1\n      0x04\n      mul\n      add\n        /* \"EHealth.sol\":9266:9298  sensorsDoctor[index].patientName */\n      0x02\n      add\n        /* \"EHealth.sol\":9299:9312  sensorsDoctor */\n      0x08\n        /* \"EHealth.sol\":9313:9318  index */\n      dup4\n        /* \"EHealth.sol\":9299:9319  sensorsDoctor[index] */\n      dup2\n      sload\n      dup2\n      lt\n      tag_148\n      jumpi\n      invalid\n    tag_148:\n      swap1\n      0x00\n      mstore\n      keccak256(0x00, 0x20)\n      swap1\n      0x04\n      mul\n      add\n        /* \"EHealth.sol\":9299:9328  sensorsDoctor[index].idDoctor */\n      0x03\n      add\n      0x00\n      swap1\n      sload\n      swap1\n      0x0100\n      exp\n      swap1\n      div\n      0xffffffffffffffffffffffffffffffffffffffff\n      and\n        /* \"EHealth.sol\":9329:9342  sensorsDoctor */\n      0x08\n        /* \"EHealth.sol\":9343:9348  index */\n      dup5\n        /* \"EHealth.sol\":9329:9349  sensorsDoctor[index] */\n      dup2\n      sload\n      dup2\n      lt\n      tag_150\n      jumpi\n      invalid\n    tag_150:\n      swap1\n      0x00\n      mstore\n      keccak256(0x00, 0x20)\n      swap1\n      0x04\n      mul\n      add\n        /* \"EHealth.sol\":9329:9356  sensorsDoctor[index].active */\n      0x03\n      add\n      0x14\n      swap1\n      sload\n      swap1\n      0x0100\n      exp\n      swap1\n      div\n      0xff\n      and\n        /* \"EHealth.sol\":9233:9357  return (sensorsDoctor[index].MAC,sensorsDoctor[index].patientName,sensorsDoctor[index].idDoctor,sensorsDoctor[index].active) */\n      dup4\n      dup1\n      sload\n      0x01\n      dup2\n      0x01\n      and\n      iszero\n      0x0100\n      mul\n      sub\n      and\n      0x02\n      swap1\n      div\n      dup1\n      0x1f\n      add\n      0x20\n      dup1\n      swap2\n      div\n      mul\n      0x20\n      add\n      mload(0x40)\n      swap1\n      dup2\n      add\n      0x40\n      mstore\n      dup1\n      swap3\n      swap2\n      swap1\n      dup2\n      dup2\n      mstore\n      0x20\n      add\n      dup3\n      dup1\n      sload\n      0x01\n      dup2\n      0x01\n      and\n      iszero\n      0x0100\n      mul\n      sub\n      and\n      0x02\n      swap1\n      div\n      dup1\n      iszero\n      tag_152\n      jumpi\n      dup1\n      0x1f\n      lt\n      tag_153\n      jumpi\n      0x0100\n      dup1\n      dup4\n      sload\n      div\n      mul\n      dup4\n      mstore\n      swap2\n      0x20\n      add\n      swap2\n      jump(tag_152)\n    tag_153:\n      dup3\n      add\n      swap2\n      swap1\n      0x00\n      mstore\n      keccak256(0x00, 0x20)\n      swap1\n    tag_154:\n      dup2\n      sload\n      dup2\n      mstore\n      swap1\n      0x01\n      add\n      swap1\n      0x20\n      add\n      dup1\n      dup4\n      gt\n      tag_154\n      jumpi\n      dup3\n      swap1\n      sub\n      0x1f\n      and\n      dup3\n      add\n      swap2\n    tag_152:\n      pop\n      pop\n      pop\n      pop\n      pop\n      swap4\n      pop\n      dup3\n      dup1\n      sload\n      0x01\n      dup2\n      0x01\n      and\n      iszero\n      0x0100\n      mul\n      sub\n      and\n      0x02\n      swap1\n      div\n      dup1\n      0x1f\n      add\n      0x20\n      dup1\n      swap2\n      div\n      mul\n      0x20\n      add\n      mload(0x40)\n      swap1\n      dup2\n      add\n      0x40\n      mstore\n      dup1\n      swap3\n      swap2\n      swap1\n      dup2\n      dup2\n      mstore\n      0x20\n      add\n      dup3\n      dup1\n      sload\n      0x01\n      dup2\n      0x01\n      and\n      iszero\n      0x0100\n      mul\n      sub\n      and\n      0x02\n      swap1\n      div\n      dup1\n      iszero\n      tag_155\n      jumpi\n      dup1\n      0x1f\n      lt\n      tag_156\n      jumpi\n      0x0100\n      dup1\n      dup4\n      sload\n      div\n      mul\n      dup4\n      mstore\n      swap2\n      0x20\n      add\n      swap2\n      jump(tag_155)\n    tag_156:\n      dup3\n      add\n      swap2\n      swap1\n      0x00\n      mstore\n      keccak256(0x00, 0x20)\n      swap1\n    tag_157:\n      dup2\n      sload\n      dup2\n      mstore\n      swap1\n      0x01\n      add\n      swap1\n      0x20\n      add\n      dup1\n      dup4\n      gt\n      tag_157\n      jumpi\n      dup3\n      swap1\n      sub\n      0x1f\n      and\n      dup3\n      add\n      swap2\n    tag_155:\n      pop\n      pop\n      pop\n      pop\n      pop\n      swap3\n      pop\n      swap5\n      pop\n      swap5\n      pop\n      swap5\n      pop\n      swap5\n      pop\n      pop\n        /* \"EHealth.sol\":9091:9365  function ReadSensor(uint _id)public view returns(string memory,string memory, address, bool){\r... */\n      swap2\n      swap4\n      pop\n      swap2\n      swap4\n      jump\t// out\n        /* \"EHealth.sol\":7421:7761  function AddSensor(string memory _mac, string memory _patientName, address _idDoctor, bool _active) public {\r... */\n    tag_43:\n        /* \"EHealth.sol\":7539:7560  FindDoctor(_idDoctor) */\n      tag_159\n        /* \"EHealth.sol\":7550:7559  _idDoctor */\n      dup3\n        /* \"EHealth.sol\":7539:7549  FindDoctor */\n      tag_160\n        /* \"EHealth.sol\":7539:7560  FindDoctor(_idDoctor) */\n      jump\t// in\n    tag_159:\n      pop\n        /* \"EHealth.sol\":7571:7584  sensorsDoctor */\n      0x08\n        /* \"EHealth.sol\":7590:7649  Sensor(nextIdSensor,_mac, _patientName, _idDoctor, _active) */\n      mload(0x40)\n      dup1\n      0xa0\n      add\n      0x40\n      mstore\n      dup1\n        /* \"EHealth.sol\":7597:7609  nextIdSensor */\n      sload(0x01)\n        /* \"EHealth.sol\":7590:7649  Sensor(nextIdSensor,_mac, _patientName, _idDoctor, _active) */\n      dup2\n      mstore\n      0x20\n      add\n        /* \"EHealth.sol\":7610:7614  _mac */\n      dup7\n        /* \"EHealth.sol\":7590:7649  Sensor(nextIdSensor,_mac, _patientName, _idDoctor, _active) */\n      dup2\n      mstore\n      0x20\n      add\n        /* \"EHealth.sol\":7616:7628  _patientName */\n      dup6\n        /* \"EHealth.sol\":7590:7649  Sensor(nextIdSensor,_mac, _patientName, _idDoctor, _active) */\n      dup2\n      mstore\n      0x20\n      add\n        /* \"EHealth.sol\":7630:7639  _idDoctor */\n      dup5\n        /* \"EHealth.sol\":7590:7649  Sensor(nextIdSensor,_mac, _patientName, _idDoctor, _active) */\n      0xffffffffffffffffffffffffffffffffffffffff\n      and\n      dup2\n      mstore\n      0x20\n      add\n        /* \"EHealth.sol\":7641:7648  _active */\n      dup4\n        /* \"EHealth.sol\":7590:7649  Sensor(nextIdSensor,_mac, _patientName, _idDoctor, _active) */\n      iszero\n      iszero\n      dup2\n      mstore\n      pop\n        /* \"EHealth.sol\":7571:7650  sensorsDoctor.push(Sensor(nextIdSensor,_mac, _patientName, _idDoctor, _active)) */\n      swap1\n      dup1\n      0x01\n      dup2\n      sload\n      add\n      dup1\n      dup3\n      sstore\n      dup1\n      swap2\n      pop\n      pop\n      0x01\n      swap1\n      sub\n      swap1\n      0x00\n      mstore\n      keccak256(0x00, 0x20)\n      swap1\n      0x04\n      mul\n      add\n      0x00\n      swap1\n      swap2\n      swap1\n      swap2\n      swap1\n      swap2\n      pop\n      0x00\n      dup3\n      add\n      mload\n      dup2\n      0x00\n      add\n      sstore\n      0x20\n      dup3\n      add\n      mload\n      dup2\n      0x01\n      add\n      swap1\n      dup1\n      mload\n      swap1\n      0x20\n      add\n      swap1\n      tag_162\n      swap3\n      swap2\n      swap1\n      tag_163\n      jump\t// in\n    tag_162:\n      pop\n      0x40\n      dup3\n      add\n      mload\n      dup2\n      0x02\n      add\n      swap1\n      dup1\n      mload\n      swap1\n      0x20\n      add\n      swap1\n      tag_164\n      swap3\n      swap2\n      swap1\n      tag_163\n      jump\t// in\n    tag_164:\n      pop\n      0x60\n      dup3\n      add\n      mload\n      dup2\n      0x03\n      add\n      exp(0x0100, 0x00)\n      dup2\n      sload\n      dup2\n      0xffffffffffffffffffffffffffffffffffffffff\n      mul\n      not\n      and\n      swap1\n      dup4\n      0xffffffffffffffffffffffffffffffffffffffff\n      and\n      mul\n      or\n      swap1\n      sstore\n      pop\n      0x80\n      dup3\n      add\n      mload\n      dup2\n      0x03\n      add\n      exp(0x0100, 0x14)\n      dup2\n      sload\n      dup2\n      0xff\n      mul\n      not\n      and\n      swap1\n      dup4\n      iszero\n      iszero\n      mul\n      or\n      swap1\n      sstore\n      pop\n      pop\n      pop\n        /* \"EHealth.sol\":7666:7728  NewSensor(nextIdSensor,_mac, _patientName, _idDoctor, _active) */\n      0x1d6a52c11773994a4a6eaa1ace32b929e7f0900bbe29db3f1d36a3cd45f1486c\n        /* \"EHealth.sol\":7676:7688  nextIdSensor */\n      sload(0x01)\n        /* \"EHealth.sol\":7689:7693  _mac */\n      dup6\n        /* \"EHealth.sol\":7695:7707  _patientName */\n      dup6\n        /* \"EHealth.sol\":7709:7718  _idDoctor */\n      dup6\n        /* \"EHealth.sol\":7720:7727  _active */\n      dup6\n        /* \"EHealth.sol\":7666:7728  NewSensor(nextIdSensor,_mac, _patientName, _idDoctor, _active) */\n      mload(0x40)\n      tag_165\n      swap6\n      swap5\n      swap4\n      swap3\n      swap2\n      swap1\n      tag_84\n      jump\t// in\n    tag_165:\n      mload(0x40)\n      dup1\n      swap2\n      sub\n      swap1\n      log1\n        /* \"EHealth.sol\":7739:7751  nextIdSensor */\n      0x01\n      0x00\n        /* \"EHealth.sol\":7739:7753  nextIdSensor++ */\n      dup2\n      sload\n      dup1\n      swap3\n      swap2\n      swap1\n      0x01\n      add\n      swap2\n      swap1\n      pop\n      sstore\n      pop\n        /* \"EHealth.sol\":7421:7761  function AddSensor(string memory _mac, string memory _patientName, address _idDoctor, bool _active) public {\r... */\n      pop\n      pop\n      pop\n      pop\n      jump\t// out\n        /* \"EHealth.sol\":6465:6568  function Length_Doctors() public view returns (uint256){\r... */\n    tag_45:\n        /* \"EHealth.sol\":6512:6519  uint256 */\n      0x00\n        /* \"EHealth.sol\":6538:6553  hospitalCenters */\n      0x04\n        /* \"EHealth.sol\":6538:6560  hospitalCenters.length */\n      dup1\n      sload\n      swap1\n      pop\n        /* \"EHealth.sol\":6531:6560  return hospitalCenters.length */\n      swap1\n      pop\n        /* \"EHealth.sol\":6465:6568  function Length_Doctors() public view returns (uint256){\r... */\n      swap1\n      jump\t// out\n        /* \"EHealth.sol\":2474:2900  function RemoveHospital(address _address) public {\r... */\n    tag_51:\n        /* \"EHealth.sol\":2534:2544  uint index */\n      0x00\n        /* \"EHealth.sol\":2547:2569  FindHospital(_address) */\n      tag_168\n        /* \"EHealth.sol\":2560:2568  _address */\n      dup3\n        /* \"EHealth.sol\":2547:2559  FindHospital */\n      tag_169\n        /* \"EHealth.sol\":2547:2569  FindHospital(_address) */\n      jump\t// in\n    tag_168:\n        /* \"EHealth.sol\":2534:2569  uint index = FindHospital(_address) */\n      swap1\n      pop\n        /* \"EHealth.sol\":2614:2619  false */\n      0x00\n        /* \"EHealth.sol\":2580:2595  hospitalCenters */\n      0x04\n        /* \"EHealth.sol\":2596:2601  index */\n      dup3\n        /* \"EHealth.sol\":2580:2602  hospitalCenters[index] */\n      dup2\n      sload\n      dup2\n      lt\n      tag_170\n      jumpi\n      invalid\n    tag_170:\n      swap1\n      0x00\n      mstore\n      keccak256(0x00, 0x20)\n      swap1\n      0x06\n      mul\n      add\n        /* \"EHealth.sol\":2580:2613  hospitalCenters[index].permission */\n      0x05\n      add\n      0x00\n        /* \"EHealth.sol\":2580:2619  hospitalCenters[index].permission=false */\n      0x0100\n      exp\n      dup2\n      sload\n      dup2\n      0xff\n      mul\n      not\n      and\n      swap1\n      dup4\n      iszero\n      iszero\n      mul\n      or\n      swap1\n      sstore\n      pop\n        /* \"EHealth.sol\":2635:2892  DeleteHospital(hospitalCenters[index].idHospital, \r... */\n      0x05818f5e23a2c2bb34c81792ea8e3397d3f8ad179cb93a5fa57b3d4681564aa0\n        /* \"EHealth.sol\":2650:2665  hospitalCenters */\n      0x04\n        /* \"EHealth.sol\":2666:2671  index */\n      dup3\n        /* \"EHealth.sol\":2650:2672  hospitalCenters[index] */\n      dup2\n      sload\n      dup2\n      lt\n      tag_172\n      jumpi\n      invalid\n    tag_172:\n      swap1\n      0x00\n      mstore\n      keccak256(0x00, 0x20)\n      swap1\n      0x06\n      mul\n      add\n        /* \"EHealth.sol\":2650:2683  hospitalCenters[index].idHospital */\n      0x00\n      add\n      0x00\n      swap1\n      sload\n      swap1\n      0x0100\n      exp\n      swap1\n      div\n      0xffffffffffffffffffffffffffffffffffffffff\n      and\n        /* \"EHealth.sol\":2695:2710  hospitalCenters */\n      0x04\n        /* \"EHealth.sol\":2711:2716  index */\n      dup4\n        /* \"EHealth.sol\":2695:2717  hospitalCenters[index] */\n      dup2\n      sload\n      dup2\n      lt\n      tag_174\n      jumpi\n      invalid\n    tag_174:\n      swap1\n      0x00\n      mstore\n      keccak256(0x00, 0x20)\n      swap1\n      0x06\n      mul\n      add\n        /* \"EHealth.sol\":2695:2722  hospitalCenters[index].name */\n      0x01\n      add\n        /* \"EHealth.sol\":2734:2749  hospitalCenters */\n      0x04\n        /* \"EHealth.sol\":2750:2755  index */\n      dup5\n        /* \"EHealth.sol\":2734:2756  hospitalCenters[index] */\n      dup2\n      sload\n      dup2\n      lt\n      tag_176\n      jumpi\n      invalid\n    tag_176:\n      swap1\n      0x00\n      mstore\n      keccak256(0x00, 0x20)\n      swap1\n      0x06\n      mul\n      add\n        /* \"EHealth.sol\":2734:2761  hospitalCenters[index].city */\n      0x02\n      add\n        /* \"EHealth.sol\":2773:2788  hospitalCenters */\n      0x04\n        /* \"EHealth.sol\":2789:2794  index */\n      dup6\n        /* \"EHealth.sol\":2773:2795  hospitalCenters[index] */\n      dup2\n      sload\n      dup2\n      lt\n      tag_178\n      jumpi\n      invalid\n    tag_178:\n      swap1\n      0x00\n      mstore\n      keccak256(0x00, 0x20)\n      swap1\n      0x06\n      mul\n      add\n        /* \"EHealth.sol\":2773:2801  hospitalCenters[index].state */\n      0x03\n      add\n        /* \"EHealth.sol\":2813:2828  hospitalCenters */\n      0x04\n        /* \"EHealth.sol\":2829:2834  index */\n      dup7\n        /* \"EHealth.sol\":2813:2835  hospitalCenters[index] */\n      dup2\n      sload\n      dup2\n      lt\n      tag_180\n      jumpi\n      invalid\n    tag_180:\n      swap1\n      0x00\n      mstore\n      keccak256(0x00, 0x20)\n      swap1\n      0x06\n      mul\n      add\n        /* \"EHealth.sol\":2813:2846  hospitalCenters[index].postalCode */\n      0x04\n      add\n      sload\n        /* \"EHealth.sol\":2858:2873  hospitalCenters */\n      0x04\n        /* \"EHealth.sol\":2874:2879  index */\n      dup8\n        /* \"EHealth.sol\":2858:2880  hospitalCenters[index] */\n      dup2\n      sload\n      dup2\n      lt\n      tag_182\n      jumpi\n      invalid\n    tag_182:\n      swap1\n      0x00\n      mstore\n      keccak256(0x00, 0x20)\n      swap1\n      0x06\n      mul\n      add\n        /* \"EHealth.sol\":2858:2891  hospitalCenters[index].permission */\n      0x05\n      add\n      0x00\n      swap1\n      sload\n      swap1\n      0x0100\n      exp\n      swap1\n      div\n      0xff\n      and\n        /* \"EHealth.sol\":2635:2892  DeleteHospital(hospitalCenters[index].idHospital, \r... */\n      mload(0x40)\n      tag_184\n      swap7\n      swap6\n      swap5\n      swap4\n      swap3\n      swap2\n      swap1\n      tag_185\n      jump\t// in\n    tag_184:\n      mload(0x40)\n      dup1\n      swap2\n      sub\n      swap1\n      log1\n        /* \"EHealth.sol\":2474:2900  function RemoveHospital(address _address) public {\r... */\n      pop\n      pop\n      jump\t// out\n        /* \"EHealth.sol\":3705:3984  function getAllHospitals() public view returns (Hospital[] memory){\r... */\n    tag_53:\n        /* \"EHealth.sol\":3753:3770  Hospital[] memory */\n      0x60\n        /* \"EHealth.sol\":3782:3803  Hospital[] memory ret */\n      0x00\n        /* \"EHealth.sol\":3821:3836  hospitalCenters */\n      0x04\n        /* \"EHealth.sol\":3821:3843  hospitalCenters.length */\n      dup1\n      sload\n      swap1\n      pop\n        /* \"EHealth.sol\":3806:3844  new Hospital[](hospitalCenters.length) */\n      0xffffffffffffffff\n      dup2\n      gt\n      dup1\n      iszero\n      tag_187\n      jumpi\n      0x00\n      dup1\n      revert\n    tag_187:\n      pop\n      mload(0x40)\n      swap1\n      dup1\n      dup3\n      mstore\n      dup1\n      0x20\n      mul\n      0x20\n      add\n      dup3\n      add\n      0x40\n      mstore\n      dup1\n      iszero\n      tag_188\n      jumpi\n      dup2\n      0x20\n      add\n    tag_189:\n      tag_190\n      tag_191\n      jump\t// in\n    tag_190:\n      dup2\n      mstore\n      0x20\n      add\n      swap1\n      0x01\n      swap1\n      sub\n      swap1\n      dup2\n      tag_189\n      jumpi\n      swap1\n      pop\n    tag_188:\n      pop\n        /* \"EHealth.sol\":3782:3844  Hospital[] memory ret = new Hospital[](hospitalCenters.length) */\n      swap1\n      pop\n        /* \"EHealth.sol\":3860:3866  uint i */\n      0x00\n        /* \"EHealth.sol\":3855:3956  for (uint i = 0; i< hospitalCenters.length; i++) {\r... */\n    tag_192:\n        /* \"EHealth.sol\":3875:3890  hospitalCenters */\n      0x04\n        /* \"EHealth.sol\":3875:3897  hospitalCenters.length */\n      dup1\n      sload\n      swap1\n      pop\n        /* \"EHealth.sol\":3872:3873  i */\n      dup2\n        /* \"EHealth.sol\":3872:3897  i< hospitalCenters.length */\n      lt\n        /* \"EHealth.sol\":3855:3956  for (uint i = 0; i< hospitalCenters.length; i++) {\r... */\n      iszero\n      tag_193\n      jumpi\n        /* \"EHealth.sol\":3926:3941  hospitalCenters */\n      0x04\n        /* \"EHealth.sol\":3942:3943  i */\n      dup2\n        /* \"EHealth.sol\":3926:3944  hospitalCenters[i] */\n      dup2\n      sload\n      dup2\n      lt\n      tag_195\n      jumpi\n      invalid\n    tag_195:\n      swap1\n      0x00\n      mstore\n      keccak256(0x00, 0x20)\n      swap1\n      0x06\n      mul\n      add\n        /* \"EHealth.sol\":3919:3944  ret[i]=hospitalCenters[i] */\n      mload(0x40)\n      dup1\n      0xc0\n      add\n      0x40\n      mstore\n      swap1\n      dup2\n      0x00\n      dup3\n      add\n      0x00\n      swap1\n      sload\n      swap1\n      0x0100\n      exp\n      swap1\n      div\n      0xffffffffffffffffffffffffffffffffffffffff\n      and\n      0xffffffffffffffffffffffffffffffffffffffff\n      and\n      0xffffffffffffffffffffffffffffffffffffffff\n      and\n      dup2\n      mstore\n      0x20\n      add\n      0x01\n      dup3\n      add\n      dup1\n      sload\n      0x01\n      dup2\n      0x01\n      and\n      iszero\n      0x0100\n      mul\n      sub\n      and\n      0x02\n      swap1\n      div\n      dup1\n      0x1f\n      add\n      0x20\n      dup1\n      swap2\n      div\n      mul\n      0x20\n      add\n      mload(0x40)\n      swap1\n      dup2\n      add\n      0x40\n      mstore\n      dup1\n      swap3\n      swap2\n      swap1\n      dup2\n      dup2\n      mstore\n      0x20\n      add\n      dup3\n      dup1\n      sload\n      0x01\n      dup2\n      0x01\n      and\n      iszero\n      0x0100\n      mul\n      sub\n      and\n      0x02\n      swap1\n      div\n      dup1\n      iszero\n      tag_197\n      jumpi\n      dup1\n      0x1f\n      lt\n      tag_198\n      jumpi\n      0x0100\n      dup1\n      dup4\n      sload\n      div\n      mul\n      dup4\n      mstore\n      swap2\n      0x20\n      add\n      swap2\n      jump(tag_197)\n    tag_198:\n      dup3\n      add\n      swap2\n      swap1\n      0x00\n      mstore\n      keccak256(0x00, 0x20)\n      swap1\n    tag_199:\n      dup2\n      sload\n      dup2\n      mstore\n      swap1\n      0x01\n      add\n      swap1\n      0x20\n      add\n      dup1\n      dup4\n      gt\n      tag_199\n      jumpi\n      dup3\n      swap1\n      sub\n      0x1f\n      and\n      dup3\n      add\n      swap2\n    tag_197:\n      pop\n      pop\n      pop\n      pop\n      pop\n      dup2\n      mstore\n      0x20\n      add\n      0x02\n      dup3\n      add\n      dup1\n      sload\n      0x01\n      dup2\n      0x01\n      and\n      iszero\n      0x0100\n      mul\n      sub\n      and\n      0x02\n      swap1\n      div\n      dup1\n      0x1f\n      add\n      0x20\n      dup1\n      swap2\n      div\n      mul\n      0x20\n      add\n      mload(0x40)\n      swap1\n      dup2\n      add\n      0x40\n      mstore\n      dup1\n      swap3\n      swap2\n      swap1\n      dup2\n      dup2\n      mstore\n      0x20\n      add\n      dup3\n      dup1\n      sload\n      0x01\n      dup2\n      0x01\n      and\n      iszero\n      0x0100\n      mul\n      sub\n      and\n      0x02\n      swap1\n      div\n      dup1\n      iszero\n      tag_200\n      jumpi\n      dup1\n      0x1f\n      lt\n      tag_201\n      jumpi\n      0x0100\n      dup1\n      dup4\n      sload\n      div\n      mul\n      dup4\n      mstore\n      swap2\n      0x20\n      add\n      swap2\n      jump(tag_200)\n    tag_201:\n      dup3\n      add\n      swap2\n      swap1\n      0x00\n      mstore\n      keccak256(0x00, 0x20)\n      swap1\n    tag_202:\n      dup2\n      sload\n      dup2\n      mstore\n      swap1\n      0x01\n      add\n      swap1\n      0x20\n      add\n      dup1\n      dup4\n      gt\n      tag_202\n      jumpi\n      dup3\n      swap1\n      sub\n      0x1f\n      and\n      dup3\n      add\n      swap2\n    tag_200:\n      pop\n      pop\n      pop\n      pop\n      pop\n      dup2\n      mstore\n      0x20\n      add\n      0x03\n      dup3\n      add\n      dup1\n      sload\n      0x01\n      dup2\n      0x01\n      and\n      iszero\n      0x0100\n      mul\n      sub\n      and\n      0x02\n      swap1\n      div\n      dup1\n      0x1f\n      add\n      0x20\n      dup1\n      swap2\n      div\n      mul\n      0x20\n      add\n      mload(0x40)\n      swap1\n      dup2\n      add\n      0x40\n      mstore\n      dup1\n      swap3\n      swap2\n      swap1\n      dup2\n      dup2\n      mstore\n      0x20\n      add\n      dup3\n      dup1\n      sload\n      0x01\n      dup2\n      0x01\n      and\n      iszero\n      0x0100\n      mul\n      sub\n      and\n      0x02\n      swap1\n      div\n      dup1\n      iszero\n      tag_203\n      jumpi\n      dup1\n      0x1f\n      lt\n      tag_204\n      jumpi\n      0x0100\n      dup1\n      dup4\n      sload\n      div\n      mul\n      dup4\n      mstore\n      swap2\n      0x20\n      add\n      swap2\n      jump(tag_203)\n    tag_204:\n      dup3\n      add\n      swap2\n      swap1\n      0x00\n      mstore\n      keccak256(0x00, 0x20)\n      swap1\n    tag_205:\n      dup2\n      sload\n      dup2\n      mstore\n      swap1\n      0x01\n      add\n      swap1\n      0x20\n      add\n      dup1\n      dup4\n      gt\n      tag_205\n      jumpi\n      dup3\n      swap1\n      sub\n      0x1f\n      and\n      dup3\n      add\n      swap2\n    tag_203:\n      pop\n      pop\n      pop\n      pop\n      pop\n      dup2\n      mstore\n      0x20\n      add\n      0x04\n      dup3\n      add\n      sload\n      dup2\n      mstore\n      0x20\n      add\n      0x05\n      dup3\n      add\n      0x00\n      swap1\n      sload\n      swap1\n      0x0100\n      exp\n      swap1\n      div\n      0xff\n      and\n      iszero\n      iszero\n      iszero\n      iszero\n      dup2\n      mstore\n      pop\n      pop\n        /* \"EHealth.sol\":3919:3922  ret */\n      dup3\n        /* \"EHealth.sol\":3923:3924  i */\n      dup3\n        /* \"EHealth.sol\":3919:3925  ret[i] */\n      dup2\n      mload\n      dup2\n      lt\n      tag_206\n      jumpi\n      invalid\n    tag_206:\n      0x20\n      mul\n      0x20\n      add\n      add\n        /* \"EHealth.sol\":3919:3944  ret[i]=hospitalCenters[i] */\n      dup2\n      swap1\n      mstore\n      pop\n        /* \"EHealth.sol\":3899:3902  i++ */\n      dup1\n      dup1\n      0x01\n      add\n      swap2\n      pop\n      pop\n        /* \"EHealth.sol\":3855:3956  for (uint i = 0; i< hospitalCenters.length; i++) {\r... */\n      jump(tag_192)\n    tag_193:\n      pop\n        /* \"EHealth.sol\":3973:3976  ret */\n      dup1\n        /* \"EHealth.sol\":3966:3976  return ret */\n      swap2\n      pop\n      pop\n        /* \"EHealth.sol\":3705:3984  function getAllHospitals() public view returns (Hospital[] memory){\r... */\n      swap1\n      jump\t// out\n        /* \"EHealth.sol\":9530:9795  function getAllSensors() public view returns (Sensor[] memory){\r... */\n    tag_57:\n        /* \"EHealth.sol\":9576:9591  Sensor[] memory */\n      0x60\n        /* \"EHealth.sol\":9603:9622  Sensor[] memory ret */\n      0x00\n        /* \"EHealth.sol\":9638:9651  sensorsDoctor */\n      0x08\n        /* \"EHealth.sol\":9638:9658  sensorsDoctor.length */\n      dup1\n      sload\n      swap1\n      pop\n        /* \"EHealth.sol\":9625:9659  new Sensor[](sensorsDoctor.length) */\n      0xffffffffffffffff\n      dup2\n      gt\n      dup1\n      iszero\n      tag_208\n      jumpi\n      0x00\n      dup1\n      revert\n    tag_208:\n      pop\n      mload(0x40)\n      swap1\n      dup1\n      dup3\n      mstore\n      dup1\n      0x20\n      mul\n      0x20\n      add\n      dup3\n      add\n      0x40\n      mstore\n      dup1\n      iszero\n      tag_209\n      jumpi\n      dup2\n      0x20\n      add\n    tag_210:\n      tag_211\n      tag_212\n      jump\t// in\n    tag_211:\n      dup2\n      mstore\n      0x20\n      add\n      swap1\n      0x01\n      swap1\n      sub\n      swap1\n      dup2\n      tag_210\n      jumpi\n      swap1\n      pop\n    tag_209:\n      pop\n        /* \"EHealth.sol\":9603:9659  Sensor[] memory ret = new Sensor[](sensorsDoctor.length) */\n      swap1\n      pop\n        /* \"EHealth.sol\":9675:9681  uint i */\n      0x00\n        /* \"EHealth.sol\":9670:9767  for (uint i = 0; i< sensorsDoctor.length; i++) {\r... */\n    tag_213:\n        /* \"EHealth.sol\":9690:9703  sensorsDoctor */\n      0x08\n        /* \"EHealth.sol\":9690:9710  sensorsDoctor.length */\n      dup1\n      sload\n      swap1\n      pop\n        /* \"EHealth.sol\":9687:9688  i */\n      dup2\n        /* \"EHealth.sol\":9687:9710  i< sensorsDoctor.length */\n      lt\n        /* \"EHealth.sol\":9670:9767  for (uint i = 0; i< sensorsDoctor.length; i++) {\r... */\n      iszero\n      tag_214\n      jumpi\n        /* \"EHealth.sol\":9739:9752  sensorsDoctor */\n      0x08\n        /* \"EHealth.sol\":9753:9754  i */\n      dup2\n        /* \"EHealth.sol\":9739:9755  sensorsDoctor[i] */\n      dup2\n      sload\n      dup2\n      lt\n      tag_216\n      jumpi\n      invalid\n    tag_216:\n      swap1\n      0x00\n      mstore\n      keccak256(0x00, 0x20)\n      swap1\n      0x04\n      mul\n      add\n        /* \"EHealth.sol\":9732:9755  ret[i]=sensorsDoctor[i] */\n      mload(0x40)\n      dup1\n      0xa0\n      add\n      0x40\n      mstore\n      swap1\n      dup2\n      0x00\n      dup3\n      add\n      sload\n      dup2\n      mstore\n      0x20\n      add\n      0x01\n      dup3\n      add\n      dup1\n      sload\n      0x01\n      dup2\n      0x01\n      and\n      iszero\n      0x0100\n      mul\n      sub\n      and\n      0x02\n      swap1\n      div\n      dup1\n      0x1f\n      add\n      0x20\n      dup1\n      swap2\n      div\n      mul\n      0x20\n      add\n      mload(0x40)\n      swap1\n      dup2\n      add\n      0x40\n      mstore\n      dup1\n      swap3\n      swap2\n      swap1\n      dup2\n      dup2\n      mstore\n      0x20\n      add\n      dup3\n      dup1\n      sload\n      0x01\n      dup2\n      0x01\n      and\n      iszero\n      0x0100\n      mul\n      sub\n      and\n      0x02\n      swap1\n      div\n      dup1\n      iszero\n      tag_218\n      jumpi\n      dup1\n      0x1f\n      lt\n      tag_219\n      jumpi\n      0x0100\n      dup1\n      dup4\n      sload\n      div\n      mul\n      dup4\n      mstore\n      swap2\n      0x20\n      add\n      swap2\n      jump(tag_218)\n    tag_219:\n      dup3\n      add\n      swap2\n      swap1\n      0x00\n      mstore\n      keccak256(0x00, 0x20)\n      swap1\n    tag_220:\n      dup2\n      sload\n      dup2\n      mstore\n      swap1\n      0x01\n      add\n      swap1\n      0x20\n      add\n      dup1\n      dup4\n      gt\n      tag_220\n      jumpi\n      dup3\n      swap1\n      sub\n      0x1f\n      and\n      dup3\n      add\n      swap2\n    tag_218:\n      pop\n      pop\n      pop\n      pop\n      pop\n      dup2\n      mstore\n      0x20\n      add\n      0x02\n      dup3\n      add\n      dup1\n      sload\n      0x01\n      dup2\n      0x01\n      and\n      iszero\n      0x0100\n      mul\n      sub\n      and\n      0x02\n      swap1\n      div\n      dup1\n      0x1f\n      add\n      0x20\n      dup1\n      swap2\n      div\n      mul\n      0x20\n      add\n      mload(0x40)\n      swap1\n      dup2\n      add\n      0x40\n      mstore\n      dup1\n      swap3\n      swap2\n      swap1\n      dup2\n      dup2\n      mstore\n      0x20\n      add\n      dup3\n      dup1\n      sload\n      0x01\n      dup2\n      0x01\n      and\n      iszero\n      0x0100\n      mul\n      sub\n      and\n      0x02\n      swap1\n      div\n      dup1\n      iszero\n      tag_221\n      jumpi\n      dup1\n      0x1f\n      lt\n      tag_222\n      jumpi\n      0x0100\n      dup1\n      dup4\n      sload\n      div\n      mul\n      dup4\n      mstore\n      swap2\n      0x20\n      add\n      swap2\n      jump(tag_221)\n    tag_222:\n      dup3\n      add\n      swap2\n      swap1\n      0x00\n      mstore\n      keccak256(0x00, 0x20)\n      swap1\n    tag_223:\n      dup2\n      sload\n      dup2\n      mstore\n      swap1\n      0x01\n      add\n      swap1\n      0x20\n      add\n      dup1\n      dup4\n      gt\n      tag_223\n      jumpi\n      dup3\n      swap1\n      sub\n      0x1f\n      and\n      dup3\n      add\n      swap2\n    tag_221:\n      pop\n      pop\n      pop\n      pop\n      pop\n      dup2\n      mstore\n      0x20\n      add\n      0x03\n      dup3\n      add\n      0x00\n      swap1\n      sload\n      swap1\n      0x0100\n      exp\n      swap1\n      div\n      0xffffffffffffffffffffffffffffffffffffffff\n      and\n      0xffffffffffffffffffffffffffffffffffffffff\n      and\n      0xffffffffffffffffffffffffffffffffffffffff\n      and\n      dup2\n      mstore\n      0x20\n      add\n      0x03\n      dup3\n      add\n      0x14\n      swap1\n      sload\n      swap1\n      0x0100\n      exp\n      swap1\n      div\n      0xff\n      and\n      iszero\n      iszero\n      iszero\n      iszero\n      dup2\n      mstore\n      pop\n      pop\n        /* \"EHealth.sol\":9732:9735  ret */\n      dup3\n        /* \"EHealth.sol\":9736:9737  i */\n      dup3\n        /* \"EHealth.sol\":9732:9738  ret[i] */\n      dup2\n      mload\n      dup2\n      lt\n      tag_224\n      jumpi\n      invalid\n    tag_224:\n      0x20\n      mul\n      0x20\n      add\n      add\n        /* \"EHealth.sol\":9732:9755  ret[i]=sensorsDoctor[i] */\n      dup2\n      swap1\n      mstore\n      pop\n        /* \"EHealth.sol\":9712:9715  i++ */\n      dup1\n      dup1\n      0x01\n      add\n      swap2\n      pop\n      pop\n        /* \"EHealth.sol\":9670:9767  for (uint i = 0; i< sensorsDoctor.length; i++) {\r... */\n      jump(tag_213)\n    tag_214:\n      pop\n        /* \"EHealth.sol\":9784:9787  ret */\n      dup1\n        /* \"EHealth.sol\":9777:9787  return ret */\n      swap2\n      pop\n      pop\n        /* \"EHealth.sol\":9530:9795  function getAllSensors() public view returns (Sensor[] memory){\r... */\n      swap1\n      jump\t// out\n        /* \"EHealth.sol\":5632:6151  function UpdateDoctor(address _id, string memory _nameDoctor, address _hospital ,bool _permission) public {\r... */\n    tag_63:\n        /* \"EHealth.sol\":5749:5759  uint index */\n      0x00\n        /* \"EHealth.sol\":5762:5777  FindDoctor(_id) */\n      tag_226\n        /* \"EHealth.sol\":5773:5776  _id */\n      dup6\n        /* \"EHealth.sol\":5762:5772  FindDoctor */\n      tag_160\n        /* \"EHealth.sol\":5762:5777  FindDoctor(_id) */\n      jump\t// in\n    tag_226:\n        /* \"EHealth.sol\":5749:5777  uint index = FindDoctor(_id) */\n      swap1\n      pop\n        /* \"EHealth.sol\":5822:5833  _nameDoctor */\n      dup4\n        /* \"EHealth.sol\":5788:5803  doctorsHospital */\n      0x06\n        /* \"EHealth.sol\":5804:5809  index */\n      dup3\n        /* \"EHealth.sol\":5788:5810  doctorsHospital[index] */\n      dup2\n      sload\n      dup2\n      lt\n      tag_227\n      jumpi\n      invalid\n    tag_227:\n      swap1\n      0x00\n      mstore\n      keccak256(0x00, 0x20)\n      swap1\n      0x03\n      mul\n      add\n        /* \"EHealth.sol\":5788:5821  doctorsHospital[index].nameDoctor */\n      0x01\n      add\n        /* \"EHealth.sol\":5788:5833  doctorsHospital[index].nameDoctor=_nameDoctor */\n      swap1\n      dup1\n      mload\n      swap1\n      0x20\n      add\n      swap1\n      tag_229\n      swap3\n      swap2\n      swap1\n      tag_163\n      jump\t// in\n    tag_229:\n      pop\n        /* \"EHealth.sol\":5876:5885  _hospital */\n      dup3\n        /* \"EHealth.sol\":5844:5859  doctorsHospital */\n      0x06\n        /* \"EHealth.sol\":5860:5865  index */\n      dup3\n        /* \"EHealth.sol\":5844:5866  doctorsHospital[index] */\n      dup2\n      sload\n      dup2\n      lt\n      tag_230\n      jumpi\n      invalid\n    tag_230:\n      swap1\n      0x00\n      mstore\n      keccak256(0x00, 0x20)\n      swap1\n      0x03\n      mul\n      add\n        /* \"EHealth.sol\":5844:5875  doctorsHospital[index].hospital */\n      0x02\n      add\n      0x00\n        /* \"EHealth.sol\":5844:5885  doctorsHospital[index].hospital=_hospital */\n      0x0100\n      exp\n      dup2\n      sload\n      dup2\n      0xffffffffffffffffffffffffffffffffffffffff\n      mul\n      not\n      and\n      swap1\n      dup4\n      0xffffffffffffffffffffffffffffffffffffffff\n      and\n      mul\n      or\n      swap1\n      sstore\n      pop\n        /* \"EHealth.sol\":5930:5941  _permission */\n      dup2\n        /* \"EHealth.sol\":5896:5911  doctorsHospital */\n      0x06\n        /* \"EHealth.sol\":5912:5917  index */\n      dup3\n        /* \"EHealth.sol\":5896:5918  doctorsHospital[index] */\n      dup2\n      sload\n      dup2\n      lt\n      tag_232\n      jumpi\n      invalid\n    tag_232:\n      swap1\n      0x00\n      mstore\n      keccak256(0x00, 0x20)\n      swap1\n      0x03\n      mul\n      add\n        /* \"EHealth.sol\":5896:5929  doctorsHospital[index].permission */\n      0x02\n      add\n      0x14\n        /* \"EHealth.sol\":5896:5941  doctorsHospital[index].permission=_permission */\n      0x0100\n      exp\n      dup2\n      sload\n      dup2\n      0xff\n      mul\n      not\n      and\n      swap1\n      dup4\n      iszero\n      iszero\n      mul\n      or\n      swap1\n      sstore\n      pop\n        /* \"EHealth.sol\":5957:6143  RefreshDoctor(doctorsHospital[index].idDoctor,\r... */\n      0x6fcbc4a02269ac36204ac7e60c4cf625c6fc2b2365cac750c9927b670e347f90\n        /* \"EHealth.sol\":5971:5986  doctorsHospital */\n      0x06\n        /* \"EHealth.sol\":5987:5992  index */\n      dup3\n        /* \"EHealth.sol\":5971:5993  doctorsHospital[index] */\n      dup2\n      sload\n      dup2\n      lt\n      tag_234\n      jumpi\n      invalid\n    tag_234:\n      swap1\n      0x00\n      mstore\n      keccak256(0x00, 0x20)\n      swap1\n      0x03\n      mul\n      add\n        /* \"EHealth.sol\":5971:6002  doctorsHospital[index].idDoctor */\n      0x00\n      add\n      0x00\n      swap1\n      sload\n      swap1\n      0x0100\n      exp\n      swap1\n      div\n      0xffffffffffffffffffffffffffffffffffffffff\n      and\n        /* \"EHealth.sol\":6013:6028  doctorsHospital */\n      0x06\n        /* \"EHealth.sol\":6029:6034  index */\n      dup4\n        /* \"EHealth.sol\":6013:6035  doctorsHospital[index] */\n      dup2\n      sload\n      dup2\n      lt\n      tag_236\n      jumpi\n      invalid\n    tag_236:\n      swap1\n      0x00\n      mstore\n      keccak256(0x00, 0x20)\n      swap1\n      0x03\n      mul\n      add\n        /* \"EHealth.sol\":6013:6046  doctorsHospital[index].nameDoctor */\n      0x01\n      add\n        /* \"EHealth.sol\":6057:6072  doctorsHospital */\n      0x06\n        /* \"EHealth.sol\":6073:6078  index */\n      dup5\n        /* \"EHealth.sol\":6057:6079  doctorsHospital[index] */\n      dup2\n      sload\n      dup2\n      lt\n      tag_238\n      jumpi\n      invalid\n    tag_238:\n      swap1\n      0x00\n      mstore\n      keccak256(0x00, 0x20)\n      swap1\n      0x03\n      mul\n      add\n        /* \"EHealth.sol\":6057:6088  doctorsHospital[index].hospital */\n      0x02\n      add\n      0x00\n      swap1\n      sload\n      swap1\n      0x0100\n      exp\n      swap1\n      div\n      0xffffffffffffffffffffffffffffffffffffffff\n      and\n        /* \"EHealth.sol\":6099:6114  doctorsHospital */\n      0x06\n        /* \"EHealth.sol\":6115:6120  index */\n      dup6\n        /* \"EHealth.sol\":6099:6121  doctorsHospital[index] */\n      dup2\n      sload\n      dup2\n      lt\n      tag_240\n      jumpi\n      invalid\n    tag_240:\n      swap1\n      0x00\n      mstore\n      keccak256(0x00, 0x20)\n      swap1\n      0x03\n      mul\n      add\n        /* \"EHealth.sol\":6099:6132  doctorsHospital[index].permission */\n      0x02\n      add\n      0x14\n      swap1\n      sload\n      swap1\n      0x0100\n      exp\n      swap1\n      div\n      0xff\n      and\n        /* \"EHealth.sol\":5957:6143  RefreshDoctor(doctorsHospital[index].idDoctor,\r... */\n      mload(0x40)\n      tag_242\n      swap5\n      swap4\n      swap3\n      swap2\n      swap1\n      tag_243\n      jump\t// in\n    tag_242:\n      mload(0x40)\n      dup1\n      swap2\n      sub\n      swap1\n      log1\n        /* \"EHealth.sol\":5632:6151  function UpdateDoctor(address _id, string memory _nameDoctor, address _hospital ,bool _permission) public {\r... */\n      pop\n      pop\n      pop\n      pop\n      pop\n      jump\t// out\n        /* \"EHealth.sol\":8103:8448  function RemoveSensor(uint _id) public {\r... */\n    tag_66:\n        /* \"EHealth.sol\":8153:8163  uint index */\n      0x00\n        /* \"EHealth.sol\":8166:8181  FindSensor(_id) */\n      tag_245\n        /* \"EHealth.sol\":8177:8180  _id */\n      dup3\n        /* \"EHealth.sol\":8166:8176  FindSensor */\n      tag_143\n        /* \"EHealth.sol\":8166:8181  FindSensor(_id) */\n      jump\t// in\n    tag_245:\n        /* \"EHealth.sol\":8153:8181  uint index = FindSensor(_id) */\n      swap1\n      pop\n        /* \"EHealth.sol\":8220:8225  false */\n      0x00\n        /* \"EHealth.sol\":8192:8205  sensorsDoctor */\n      0x08\n        /* \"EHealth.sol\":8206:8211  index */\n      dup3\n        /* \"EHealth.sol\":8192:8212  sensorsDoctor[index] */\n      dup2\n      sload\n      dup2\n      lt\n      tag_246\n      jumpi\n      invalid\n    tag_246:\n      swap1\n      0x00\n      mstore\n      keccak256(0x00, 0x20)\n      swap1\n      0x04\n      mul\n      add\n        /* \"EHealth.sol\":8192:8219  sensorsDoctor[index].active */\n      0x03\n      add\n      0x14\n        /* \"EHealth.sol\":8192:8225  sensorsDoctor[index].active=false */\n      0x0100\n      exp\n      dup2\n      sload\n      dup2\n      0xff\n      mul\n      not\n      and\n      swap1\n      dup4\n      iszero\n      iszero\n      mul\n      or\n      swap1\n      sstore\n      pop\n        /* \"EHealth.sol\":8241:8440  DeleteSensor(sensorsDoctor[index].idSensor,\r... */\n      0xef9006907eb20210e880b0bb1c39946083bcec24688718507d63a259ffa8351b\n        /* \"EHealth.sol\":8254:8267  sensorsDoctor */\n      0x08\n        /* \"EHealth.sol\":8268:8273  index */\n      dup3\n        /* \"EHealth.sol\":8254:8274  sensorsDoctor[index] */\n      dup2\n      sload\n      dup2\n      lt\n      tag_248\n      jumpi\n      invalid\n    tag_248:\n      swap1\n      0x00\n      mstore\n      keccak256(0x00, 0x20)\n      swap1\n      0x04\n      mul\n      add\n        /* \"EHealth.sol\":8254:8283  sensorsDoctor[index].idSensor */\n      0x00\n      add\n      sload\n        /* \"EHealth.sol\":8294:8307  sensorsDoctor */\n      0x08\n        /* \"EHealth.sol\":8308:8313  index */\n      dup4\n        /* \"EHealth.sol\":8294:8314  sensorsDoctor[index] */\n      dup2\n      sload\n      dup2\n      lt\n      tag_250\n      jumpi\n      invalid\n    tag_250:\n      swap1\n      0x00\n      mstore\n      keccak256(0x00, 0x20)\n      swap1\n      0x04\n      mul\n      add\n        /* \"EHealth.sol\":8294:8318  sensorsDoctor[index].MAC */\n      0x01\n      add\n        /* \"EHealth.sol\":8329:8342  sensorsDoctor */\n      0x08\n        /* \"EHealth.sol\":8343:8348  index */\n      dup5\n        /* \"EHealth.sol\":8329:8349  sensorsDoctor[index] */\n      dup2\n      sload\n      dup2\n      lt\n      tag_252\n      jumpi\n      invalid\n    tag_252:\n      swap1\n      0x00\n      mstore\n      keccak256(0x00, 0x20)\n      swap1\n      0x04\n      mul\n      add\n        /* \"EHealth.sol\":8329:8361  sensorsDoctor[index].patientName */\n      0x02\n      add\n        /* \"EHealth.sol\":8372:8385  sensorsDoctor */\n      0x08\n        /* \"EHealth.sol\":8386:8391  index */\n      dup6\n        /* \"EHealth.sol\":8372:8392  sensorsDoctor[index] */\n      dup2\n      sload\n      dup2\n      lt\n      tag_254\n      jumpi\n      invalid\n    tag_254:\n      swap1\n      0x00\n      mstore\n      keccak256(0x00, 0x20)\n      swap1\n      0x04\n      mul\n      add\n        /* \"EHealth.sol\":8372:8401  sensorsDoctor[index].idDoctor */\n      0x03\n      add\n      0x00\n      swap1\n      sload\n      swap1\n      0x0100\n      exp\n      swap1\n      div\n      0xffffffffffffffffffffffffffffffffffffffff\n      and\n        /* \"EHealth.sol\":8412:8425  sensorsDoctor */\n      0x08\n        /* \"EHealth.sol\":8426:8431  index */\n      dup7\n        /* \"EHealth.sol\":8412:8432  sensorsDoctor[index] */\n      dup2\n      sload\n      dup2\n      lt\n      tag_256\n      jumpi\n      invalid\n    tag_256:\n      swap1\n      0x00\n      mstore\n      keccak256(0x00, 0x20)\n      swap1\n      0x04\n      mul\n      add\n        /* \"EHealth.sol\":8412:8439  sensorsDoctor[index].active */\n      0x03\n      add\n      0x14\n      swap1\n      sload\n      swap1\n      0x0100\n      exp\n      swap1\n      div\n      0xff\n      and\n        /* \"EHealth.sol\":8241:8440  DeleteSensor(sensorsDoctor[index].idSensor,\r... */\n      mload(0x40)\n      tag_258\n      swap6\n      swap5\n      swap4\n      swap3\n      swap2\n      swap1\n      tag_259\n      jump\t// in\n    tag_258:\n      mload(0x40)\n      dup1\n      swap2\n      sub\n      swap1\n      log1\n        /* \"EHealth.sol\":8103:8448  function RemoveSensor(uint _id) public {\r... */\n      pop\n      pop\n      jump\t// out\n        /* \"EHealth.sol\":6184:6431  function ReadDoctor(address _id)public view returns(string memory, address, bool){\r... */\n    tag_69:\n        /* \"EHealth.sol\":6236:6249  string memory */\n      0x60\n        /* \"EHealth.sol\":6251:6258  address */\n      0x00\n        /* \"EHealth.sol\":6260:6264  bool */\n      dup1\n        /* \"EHealth.sol\":6276:6286  uint index */\n      0x00\n        /* \"EHealth.sol\":6289:6304  FindDoctor(_id) */\n      tag_261\n        /* \"EHealth.sol\":6300:6303  _id */\n      dup6\n        /* \"EHealth.sol\":6289:6299  FindDoctor */\n      tag_160\n        /* \"EHealth.sol\":6289:6304  FindDoctor(_id) */\n      jump\t// in\n    tag_261:\n        /* \"EHealth.sol\":6276:6304  uint index = FindDoctor(_id) */\n      swap1\n      pop\n        /* \"EHealth.sol\":6323:6338  doctorsHospital */\n      0x06\n        /* \"EHealth.sol\":6339:6344  index */\n      dup2\n        /* \"EHealth.sol\":6323:6345  doctorsHospital[index] */\n      dup2\n      sload\n      dup2\n      lt\n      tag_262\n      jumpi\n      invalid\n    tag_262:\n      swap1\n      0x00\n      mstore\n      keccak256(0x00, 0x20)\n      swap1\n      0x03\n      mul\n      add\n        /* \"EHealth.sol\":6323:6356  doctorsHospital[index].nameDoctor */\n      0x01\n      add\n        /* \"EHealth.sol\":6357:6372  doctorsHospital */\n      0x06\n        /* \"EHealth.sol\":6373:6378  index */\n      dup3\n        /* \"EHealth.sol\":6357:6379  doctorsHospital[index] */\n      dup2\n      sload\n      dup2\n      lt\n      tag_264\n      jumpi\n      invalid\n    tag_264:\n      swap1\n      0x00\n      mstore\n      keccak256(0x00, 0x20)\n      swap1\n      0x03\n      mul\n      add\n        /* \"EHealth.sol\":6357:6388  doctorsHospital[index].hospital */\n      0x02\n      add\n      0x00\n      swap1\n      sload\n      swap1\n      0x0100\n      exp\n      swap1\n      div\n      0xffffffffffffffffffffffffffffffffffffffff\n      and\n        /* \"EHealth.sol\":6389:6404  doctorsHospital */\n      0x06\n        /* \"EHealth.sol\":6405:6410  index */\n      dup4\n        /* \"EHealth.sol\":6389:6411  doctorsHospital[index] */\n      dup2\n      sload\n      dup2\n      lt\n      tag_266\n      jumpi\n      invalid\n    tag_266:\n      swap1\n      0x00\n      mstore\n      keccak256(0x00, 0x20)\n      swap1\n      0x03\n      mul\n      add\n        /* \"EHealth.sol\":6389:6422  doctorsHospital[index].permission */\n      0x02\n      add\n      0x14\n      swap1\n      sload\n      swap1\n      0x0100\n      exp\n      swap1\n      div\n      0xff\n      and\n        /* \"EHealth.sol\":6315:6423  return (doctorsHospital[index].nameDoctor,doctorsHospital[index].hospital,doctorsHospital[index].permission) */\n      dup3\n      dup1\n      sload\n      0x01\n      dup2\n      0x01\n      and\n      iszero\n      0x0100\n      mul\n      sub\n      and\n      0x02\n      swap1\n      div\n      dup1\n      0x1f\n      add\n      0x20\n      dup1\n      swap2\n      div\n      mul\n      0x20\n      add\n      mload(0x40)\n      swap1\n      dup2\n      add\n      0x40\n      mstore\n      dup1\n      swap3\n      swap2\n      swap1\n      dup2\n      dup2\n      mstore\n      0x20\n      add\n      dup3\n      dup1\n      sload\n      0x01\n      dup2\n      0x01\n      and\n      iszero\n      0x0100\n      mul\n      sub\n      and\n      0x02\n      swap1\n      div\n      dup1\n      iszero\n      tag_268\n      jumpi\n      dup1\n      0x1f\n      lt\n      tag_269\n      jumpi\n      0x0100\n      dup1\n      dup4\n      sload\n      div\n      mul\n      dup4\n      mstore\n      swap2\n      0x20\n      add\n      swap2\n      jump(tag_268)\n    tag_269:\n      dup3\n      add\n      swap2\n      swap1\n      0x00\n      mstore\n      keccak256(0x00, 0x20)\n      swap1\n    tag_270:\n      dup2\n      sload\n      dup2\n      mstore\n      swap1\n      0x01\n      add\n      swap1\n      0x20\n      add\n      dup1\n      dup4\n      gt\n      tag_270\n      jumpi\n      dup3\n      swap1\n      sub\n      0x1f\n      and\n      dup3\n      add\n      swap2\n    tag_268:\n      pop\n      pop\n      pop\n      pop\n      pop\n      swap3\n      pop\n      swap4\n      pop\n      swap4\n      pop\n      swap4\n      pop\n      pop\n        /* \"EHealth.sol\":6184:6431  function ReadDoctor(address _id)public view returns(string memory, address, bool){\r... */\n      swap2\n      swap4\n      swap1\n      swap3\n      pop\n      jump\t// out\n        /* \"EHealth.sol\":8483:9058  function UpdateSensor(uint _id, string memory _mac, string memory _patientName,address _idDoctor, bool _active ) public {\r... */\n    tag_75:\n        /* \"EHealth.sol\":8614:8624  uint index */\n      0x00\n        /* \"EHealth.sol\":8627:8642  FindSensor(_id) */\n      tag_272\n        /* \"EHealth.sol\":8638:8641  _id */\n      dup7\n        /* \"EHealth.sol\":8627:8637  FindSensor */\n      tag_143\n        /* \"EHealth.sol\":8627:8642  FindSensor(_id) */\n      jump\t// in\n    tag_272:\n        /* \"EHealth.sol\":8614:8642  uint index = FindSensor(_id) */\n      swap1\n      pop\n        /* \"EHealth.sol\":8678:8682  _mac */\n      dup5\n        /* \"EHealth.sol\":8653:8666  sensorsDoctor */\n      0x08\n        /* \"EHealth.sol\":8667:8672  index */\n      dup3\n        /* \"EHealth.sol\":8653:8673  sensorsDoctor[index] */\n      dup2\n      sload\n      dup2\n      lt\n      tag_273\n      jumpi\n      invalid\n    tag_273:\n      swap1\n      0x00\n      mstore\n      keccak256(0x00, 0x20)\n      swap1\n      0x04\n      mul\n      add\n        /* \"EHealth.sol\":8653:8677  sensorsDoctor[index].MAC */\n      0x01\n      add\n        /* \"EHealth.sol\":8653:8682  sensorsDoctor[index].MAC=_mac */\n      swap1\n      dup1\n      mload\n      swap1\n      0x20\n      add\n      swap1\n      tag_275\n      swap3\n      swap2\n      swap1\n      tag_163\n      jump\t// in\n    tag_275:\n      pop\n        /* \"EHealth.sol\":8726:8738  _patientName */\n      dup4\n        /* \"EHealth.sol\":8693:8706  sensorsDoctor */\n      0x08\n        /* \"EHealth.sol\":8707:8712  index */\n      dup3\n        /* \"EHealth.sol\":8693:8713  sensorsDoctor[index] */\n      dup2\n      sload\n      dup2\n      lt\n      tag_276\n      jumpi\n      invalid\n    tag_276:\n      swap1\n      0x00\n      mstore\n      keccak256(0x00, 0x20)\n      swap1\n      0x04\n      mul\n      add\n        /* \"EHealth.sol\":8693:8725  sensorsDoctor[index].patientName */\n      0x02\n      add\n        /* \"EHealth.sol\":8693:8738  sensorsDoctor[index].patientName=_patientName */\n      swap1\n      dup1\n      mload\n      swap1\n      0x20\n      add\n      swap1\n      tag_278\n      swap3\n      swap2\n      swap1\n      tag_163\n      jump\t// in\n    tag_278:\n      pop\n        /* \"EHealth.sol\":8779:8788  _idDoctor */\n      dup3\n        /* \"EHealth.sol\":8749:8762  sensorsDoctor */\n      0x08\n        /* \"EHealth.sol\":8763:8768  index */\n      dup3\n        /* \"EHealth.sol\":8749:8769  sensorsDoctor[index] */\n      dup2\n      sload\n      dup2\n      lt\n      tag_279\n      jumpi\n      invalid\n    tag_279:\n      swap1\n      0x00\n      mstore\n      keccak256(0x00, 0x20)\n      swap1\n      0x04\n      mul\n      add\n        /* \"EHealth.sol\":8749:8778  sensorsDoctor[index].idDoctor */\n      0x03\n      add\n      0x00\n        /* \"EHealth.sol\":8749:8788  sensorsDoctor[index].idDoctor=_idDoctor */\n      0x0100\n      exp\n      dup2\n      sload\n      dup2\n      0xffffffffffffffffffffffffffffffffffffffff\n      mul\n      not\n      and\n      swap1\n      dup4\n      0xffffffffffffffffffffffffffffffffffffffff\n      and\n      mul\n      or\n      swap1\n      sstore\n      pop\n        /* \"EHealth.sol\":8827:8834  _active */\n      dup2\n        /* \"EHealth.sol\":8799:8812  sensorsDoctor */\n      0x08\n        /* \"EHealth.sol\":8813:8818  index */\n      dup3\n        /* \"EHealth.sol\":8799:8819  sensorsDoctor[index] */\n      dup2\n      sload\n      dup2\n      lt\n      tag_281\n      jumpi\n      invalid\n    tag_281:\n      swap1\n      0x00\n      mstore\n      keccak256(0x00, 0x20)\n      swap1\n      0x04\n      mul\n      add\n        /* \"EHealth.sol\":8799:8826  sensorsDoctor[index].active */\n      0x03\n      add\n      0x14\n        /* \"EHealth.sol\":8799:8834  sensorsDoctor[index].active=_active */\n      0x0100\n      exp\n      dup2\n      sload\n      dup2\n      0xff\n      mul\n      not\n      and\n      swap1\n      dup4\n      iszero\n      iszero\n      mul\n      or\n      swap1\n      sstore\n      pop\n        /* \"EHealth.sol\":8850:9050  RefreshSensor(sensorsDoctor[index].idSensor,\r... */\n      0x3ab6f9ea2e72cad17988f4527dc5626fa4e97c597fcbd9d7e2a7e820851b54ce\n        /* \"EHealth.sol\":8864:8877  sensorsDoctor */\n      0x08\n        /* \"EHealth.sol\":8878:8883  index */\n      dup3\n        /* \"EHealth.sol\":8864:8884  sensorsDoctor[index] */\n      dup2\n      sload\n      dup2\n      lt\n      tag_283\n      jumpi\n      invalid\n    tag_283:\n      swap1\n      0x00\n      mstore\n      keccak256(0x00, 0x20)\n      swap1\n      0x04\n      mul\n      add\n        /* \"EHealth.sol\":8864:8893  sensorsDoctor[index].idSensor */\n      0x00\n      add\n      sload\n        /* \"EHealth.sol\":8904:8917  sensorsDoctor */\n      0x08\n        /* \"EHealth.sol\":8918:8923  index */\n      dup4\n        /* \"EHealth.sol\":8904:8924  sensorsDoctor[index] */\n      dup2\n      sload\n      dup2\n      lt\n      tag_285\n      jumpi\n      invalid\n    tag_285:\n      swap1\n      0x00\n      mstore\n      keccak256(0x00, 0x20)\n      swap1\n      0x04\n      mul\n      add\n        /* \"EHealth.sol\":8904:8928  sensorsDoctor[index].MAC */\n      0x01\n      add\n        /* \"EHealth.sol\":8939:8952  sensorsDoctor */\n      0x08\n        /* \"EHealth.sol\":8953:8958  index */\n      dup5\n        /* \"EHealth.sol\":8939:8959  sensorsDoctor[index] */\n      dup2\n      sload\n      dup2\n      lt\n      tag_287\n      jumpi\n      invalid\n    tag_287:\n      swap1\n      0x00\n      mstore\n      keccak256(0x00, 0x20)\n      swap1\n      0x04\n      mul\n      add\n        /* \"EHealth.sol\":8939:8971  sensorsDoctor[index].patientName */\n      0x02\n      add\n        /* \"EHealth.sol\":8982:8995  sensorsDoctor */\n      0x08\n        /* \"EHealth.sol\":8996:9001  index */\n      dup6\n        /* \"EHealth.sol\":8982:9002  sensorsDoctor[index] */\n      dup2\n      sload\n      dup2\n      lt\n      tag_289\n      jumpi\n      invalid\n    tag_289:\n      swap1\n      0x00\n      mstore\n      keccak256(0x00, 0x20)\n      swap1\n      0x04\n      mul\n      add\n        /* \"EHealth.sol\":8982:9011  sensorsDoctor[index].idDoctor */\n      0x03\n      add\n      0x00\n      swap1\n      sload\n      swap1\n      0x0100\n      exp\n      swap1\n      div\n      0xffffffffffffffffffffffffffffffffffffffff\n      and\n        /* \"EHealth.sol\":9022:9035  sensorsDoctor */\n      0x08\n        /* \"EHealth.sol\":9036:9041  index */\n      dup7\n        /* \"EHealth.sol\":9022:9042  sensorsDoctor[index] */\n      dup2\n      sload\n      dup2\n      lt\n      tag_291\n      jumpi\n      invalid\n    tag_291:\n      swap1\n      0x00\n      mstore\n      keccak256(0x00, 0x20)\n      swap1\n      0x04\n      mul\n      add\n        /* \"EHealth.sol\":9022:9049  sensorsDoctor[index].active */\n      0x03\n      add\n      0x14\n      swap1\n      sload\n      swap1\n      0x0100\n      exp\n      swap1\n      div\n      0xff\n      and\n        /* \"EHealth.sol\":8850:9050  RefreshSensor(sensorsDoctor[index].idSensor,\r... */\n      mload(0x40)\n      tag_293\n      swap6\n      swap5\n      swap4\n      swap3\n      swap2\n      swap1\n      tag_259\n      jump\t// in\n    tag_293:\n      mload(0x40)\n      dup1\n      swap2\n      sub\n      swap1\n      log1\n        /* \"EHealth.sol\":8483:9058  function UpdateSensor(uint _id, string memory _mac, string memory _patientName,address _idDoctor, bool _active ) public {\r... */\n      pop\n      pop\n      pop\n      pop\n      pop\n      pop\n      jump\t// out\n        /* \"EHealth.sol\":2939:3672  function UpdateHospital(address _address, string memory _name, string memory _city, string memory _state, uint _postalCode, bool _permission ) public {\r... */\n    tag_79:\n        /* \"EHealth.sol\":3100:3110  uint index */\n      0x00\n        /* \"EHealth.sol\":3113:3135  FindHospital(_address) */\n      tag_295\n        /* \"EHealth.sol\":3126:3134  _address */\n      dup8\n        /* \"EHealth.sol\":3113:3125  FindHospital */\n      tag_169\n        /* \"EHealth.sol\":3113:3135  FindHospital(_address) */\n      jump\t// in\n    tag_295:\n        /* \"EHealth.sol\":3100:3135  uint index = FindHospital(_address) */\n      swap1\n      pop\n        /* \"EHealth.sol\":3174:3179  _name */\n      dup6\n        /* \"EHealth.sol\":3146:3161  hospitalCenters */\n      0x04\n        /* \"EHealth.sol\":3162:3167  index */\n      dup3\n        /* \"EHealth.sol\":3146:3168  hospitalCenters[index] */\n      dup2\n      sload\n      dup2\n      lt\n      tag_296\n      jumpi\n      invalid\n    tag_296:\n      swap1\n      0x00\n      mstore\n      keccak256(0x00, 0x20)\n      swap1\n      0x06\n      mul\n      add\n        /* \"EHealth.sol\":3146:3173  hospitalCenters[index].name */\n      0x01\n      add\n        /* \"EHealth.sol\":3146:3179  hospitalCenters[index].name=_name */\n      swap1\n      dup1\n      mload\n      swap1\n      0x20\n      add\n      swap1\n      tag_298\n      swap3\n      swap2\n      swap1\n      tag_163\n      jump\t// in\n    tag_298:\n      pop\n        /* \"EHealth.sol\":3218:3223  _city */\n      dup5\n        /* \"EHealth.sol\":3190:3205  hospitalCenters */\n      0x04\n        /* \"EHealth.sol\":3206:3211  index */\n      dup3\n        /* \"EHealth.sol\":3190:3212  hospitalCenters[index] */\n      dup2\n      sload\n      dup2\n      lt\n      tag_299\n      jumpi\n      invalid\n    tag_299:\n      swap1\n      0x00\n      mstore\n      keccak256(0x00, 0x20)\n      swap1\n      0x06\n      mul\n      add\n        /* \"EHealth.sol\":3190:3217  hospitalCenters[index].city */\n      0x02\n      add\n        /* \"EHealth.sol\":3190:3223  hospitalCenters[index].city=_city */\n      swap1\n      dup1\n      mload\n      swap1\n      0x20\n      add\n      swap1\n      tag_301\n      swap3\n      swap2\n      swap1\n      tag_163\n      jump\t// in\n    tag_301:\n      pop\n        /* \"EHealth.sol\":3263:3269  _state */\n      dup4\n        /* \"EHealth.sol\":3234:3249  hospitalCenters */\n      0x04\n        /* \"EHealth.sol\":3250:3255  index */\n      dup3\n        /* \"EHealth.sol\":3234:3256  hospitalCenters[index] */\n      dup2\n      sload\n      dup2\n      lt\n      tag_302\n      jumpi\n      invalid\n    tag_302:\n      swap1\n      0x00\n      mstore\n      keccak256(0x00, 0x20)\n      swap1\n      0x06\n      mul\n      add\n        /* \"EHealth.sol\":3234:3262  hospitalCenters[index].state */\n      0x03\n      add\n        /* \"EHealth.sol\":3234:3269  hospitalCenters[index].state=_state */\n      swap1\n      dup1\n      mload\n      swap1\n      0x20\n      add\n      swap1\n      tag_304\n      swap3\n      swap2\n      swap1\n      tag_163\n      jump\t// in\n    tag_304:\n      pop\n        /* \"EHealth.sol\":3314:3325  _postalCode */\n      dup3\n        /* \"EHealth.sol\":3280:3295  hospitalCenters */\n      0x04\n        /* \"EHealth.sol\":3296:3301  index */\n      dup3\n        /* \"EHealth.sol\":3280:3302  hospitalCenters[index] */\n      dup2\n      sload\n      dup2\n      lt\n      tag_305\n      jumpi\n      invalid\n    tag_305:\n      swap1\n      0x00\n      mstore\n      keccak256(0x00, 0x20)\n      swap1\n      0x06\n      mul\n      add\n        /* \"EHealth.sol\":3280:3313  hospitalCenters[index].postalCode */\n      0x04\n      add\n        /* \"EHealth.sol\":3280:3325  hospitalCenters[index].postalCode=_postalCode */\n      dup2\n      swap1\n      sstore\n      pop\n        /* \"EHealth.sol\":3370:3381  _permission */\n      dup2\n        /* \"EHealth.sol\":3336:3351  hospitalCenters */\n      0x04\n        /* \"EHealth.sol\":3352:3357  index */\n      dup3\n        /* \"EHealth.sol\":3336:3358  hospitalCenters[index] */\n      dup2\n      sload\n      dup2\n      lt\n      tag_307\n      jumpi\n      invalid\n    tag_307:\n      swap1\n      0x00\n      mstore\n      keccak256(0x00, 0x20)\n      swap1\n      0x06\n      mul\n      add\n        /* \"EHealth.sol\":3336:3369  hospitalCenters[index].permission */\n      0x05\n      add\n      0x00\n        /* \"EHealth.sol\":3336:3381  hospitalCenters[index].permission=_permission */\n      0x0100\n      exp\n      dup2\n      sload\n      dup2\n      0xff\n      mul\n      not\n      and\n      swap1\n      dup4\n      iszero\n      iszero\n      mul\n      or\n      swap1\n      sstore\n      pop\n        /* \"EHealth.sol\":3397:3664  RefreshHospital(hospitalCenters[index].idHospital, \r... */\n      0x5975e6fed8802a324436eb320387035d99d011c9901bb75b34b8c23b91250c1c\n        /* \"EHealth.sol\":3413:3428  hospitalCenters */\n      0x04\n        /* \"EHealth.sol\":3429:3434  index */\n      dup3\n        /* \"EHealth.sol\":3413:3435  hospitalCenters[index] */\n      dup2\n      sload\n      dup2\n      lt\n      tag_309\n      jumpi\n      invalid\n    tag_309:\n      swap1\n      0x00\n      mstore\n      keccak256(0x00, 0x20)\n      swap1\n      0x06\n      mul\n      add\n        /* \"EHealth.sol\":3413:3446  hospitalCenters[index].idHospital */\n      0x00\n      add\n      0x00\n      swap1\n      sload\n      swap1\n      0x0100\n      exp\n      swap1\n      div\n      0xffffffffffffffffffffffffffffffffffffffff\n      and\n        /* \"EHealth.sol\":3458:3473  hospitalCenters */\n      0x04\n        /* \"EHealth.sol\":3474:3479  index */\n      dup4\n        /* \"EHealth.sol\":3458:3480  hospitalCenters[index] */\n      dup2\n      sload\n      dup2\n      lt\n      tag_311\n      jumpi\n      invalid\n    tag_311:\n      swap1\n      0x00\n      mstore\n      keccak256(0x00, 0x20)\n      swap1\n      0x06\n      mul\n      add\n        /* \"EHealth.sol\":3458:3485  hospitalCenters[index].name */\n      0x01\n      add\n        /* \"EHealth.sol\":3497:3512  hospitalCenters */\n      0x04\n        /* \"EHealth.sol\":3513:3518  index */\n      dup5\n        /* \"EHealth.sol\":3497:3519  hospitalCenters[index] */\n      dup2\n      sload\n      dup2\n      lt\n      tag_313\n      jumpi\n      invalid\n    tag_313:\n      swap1\n      0x00\n      mstore\n      keccak256(0x00, 0x20)\n      swap1\n      0x06\n      mul\n      add\n        /* \"EHealth.sol\":3497:3524  hospitalCenters[index].city */\n      0x02\n      add\n        /* \"EHealth.sol\":3536:3551  hospitalCenters */\n      0x04\n        /* \"EHealth.sol\":3552:3557  index */\n      dup6\n        /* \"EHealth.sol\":3536:3558  hospitalCenters[index] */\n      dup2\n      sload\n      dup2\n      lt\n      tag_315\n      jumpi\n      invalid\n    tag_315:\n      swap1\n      0x00\n      mstore\n      keccak256(0x00, 0x20)\n      swap1\n      0x06\n      mul\n      add\n        /* \"EHealth.sol\":3536:3564  hospitalCenters[index].state */\n      0x03\n      add\n        /* \"EHealth.sol\":3576:3591  hospitalCenters */\n      0x04\n        /* \"EHealth.sol\":3592:3597  index */\n      dup7\n        /* \"EHealth.sol\":3576:3598  hospitalCenters[index] */\n      dup2\n      sload\n      dup2\n      lt\n      tag_317\n      jumpi\n      invalid\n    tag_317:\n      swap1\n      0x00\n      mstore\n      keccak256(0x00, 0x20)\n      swap1\n      0x06\n      mul\n      add\n        /* \"EHealth.sol\":3576:3609  hospitalCenters[index].postalCode */\n      0x04\n      add\n      sload\n        /* \"EHealth.sol\":3620:3635  hospitalCenters */\n      0x04\n        /* \"EHealth.sol\":3636:3641  index */\n      dup8\n        /* \"EHealth.sol\":3620:3642  hospitalCenters[index] */\n      dup2\n      sload\n      dup2\n      lt\n      tag_319\n      jumpi\n      invalid\n    tag_319:\n      swap1\n      0x00\n      mstore\n      keccak256(0x00, 0x20)\n      swap1\n      0x06\n      mul\n      add\n        /* \"EHealth.sol\":3620:3653  hospitalCenters[index].permission */\n      0x05\n      add\n      0x00\n      swap1\n      sload\n      swap1\n      0x0100\n      exp\n      swap1\n      div\n      0xff\n      and\n        /* \"EHealth.sol\":3397:3664  RefreshHospital(hospitalCenters[index].idHospital, \r... */\n      mload(0x40)\n      tag_321\n      swap7\n      swap6\n      swap5\n      swap4\n      swap3\n      swap2\n      swap1\n      tag_185\n      jump\t// in\n    tag_321:\n      mload(0x40)\n      dup1\n      swap2\n      sub\n      swap1\n      log1\n        /* \"EHealth.sol\":2939:3672  function UpdateHospital(address _address, string memory _name, string memory _city, string memory _state, uint _postalCode, bool _permission ) public {\r... */\n      pop\n      pop\n      pop\n      pop\n      pop\n      pop\n      pop\n      jump\t// out\n        /* \"EHealth.sol\":864:904  mapping(address=> Sensor) public Sensors */\n    tag_82:\n      mstore(0x20, 0x07)\n      dup1\n      0x00\n      mstore\n      keccak256(0x00, 0x40)\n      0x00\n      swap2\n      pop\n      swap1\n      pop\n      dup1\n      0x00\n      add\n      sload\n      swap1\n      dup1\n      0x01\n      add\n      dup1\n      sload\n      0x01\n      dup2\n      0x01\n      and\n      iszero\n      0x0100\n      mul\n      sub\n      and\n      0x02\n      swap1\n      div\n      dup1\n      0x1f\n      add\n      0x20\n      dup1\n      swap2\n      div\n      mul\n      0x20\n      add\n      mload(0x40)\n      swap1\n      dup2\n      add\n      0x40\n      mstore\n      dup1\n      swap3\n      swap2\n      swap1\n      dup2\n      dup2\n      mstore\n      0x20\n      add\n      dup3\n      dup1\n      sload\n      0x01\n      dup2\n      0x01\n      and\n      iszero\n      0x0100\n      mul\n      sub\n      and\n      0x02\n      swap1\n      div\n      dup1\n      iszero\n      tag_322\n      jumpi\n      dup1\n      0x1f\n      lt\n      tag_323\n      jumpi\n      0x0100\n      dup1\n      dup4\n      sload\n      div\n      mul\n      dup4\n      mstore\n      swap2\n      0x20\n      add\n      swap2\n      jump(tag_322)\n    tag_323:\n      dup3\n      add\n      swap2\n      swap1\n      0x00\n      mstore\n      keccak256(0x00, 0x20)\n      swap1\n    tag_324:\n      dup2\n      sload\n      dup2\n      mstore\n      swap1\n      0x01\n      add\n      swap1\n      0x20\n      add\n      dup1\n      dup4\n      gt\n      tag_324\n      jumpi\n      dup3\n      swap1\n      sub\n      0x1f\n      and\n      dup3\n      add\n      swap2\n    tag_322:\n      pop\n      pop\n      pop\n      pop\n      pop\n      swap1\n      dup1\n      0x02\n      add\n      dup1\n      sload\n      0x01\n      dup2\n      0x01\n      and\n      iszero\n      0x0100\n      mul\n      sub\n      and\n      0x02\n      swap1\n      div\n      dup1\n      0x1f\n      add\n      0x20\n      dup1\n      swap2\n      div\n      mul\n      0x20\n      add\n      mload(0x40)\n      swap1\n      dup2\n      add\n      0x40\n      mstore\n      dup1\n      swap3\n      swap2\n      swap1\n      dup2\n      dup2\n      mstore\n      0x20\n      add\n      dup3\n      dup1\n      sload\n      0x01\n      dup2\n      0x01\n      and\n      iszero\n      0x0100\n      mul\n      sub\n      and\n      0x02\n      swap1\n      div\n      dup1\n      iszero\n      tag_325\n      jumpi\n      dup1\n      0x1f\n      lt\n      tag_326\n      jumpi\n      0x0100\n      dup1\n      dup4\n      sload\n      div\n      mul\n      dup4\n      mstore\n      swap2\n      0x20\n      add\n      swap2\n      jump(tag_325)\n    tag_326:\n      dup3\n      add\n      swap2\n      swap1\n      0x00\n      mstore\n      keccak256(0x00, 0x20)\n      swap1\n    tag_327:\n      dup2\n      sload\n      dup2\n      mstore\n      swap1\n      0x01\n      add\n      swap1\n      0x20\n      add\n      dup1\n      dup4\n      gt\n      tag_327\n      jumpi\n      dup3\n      swap1\n      sub\n      0x1f\n      and\n      dup3\n      add\n      swap2\n    tag_325:\n      pop\n      pop\n      pop\n      pop\n      pop\n      swap1\n      dup1\n      0x03\n      add\n      0x00\n      swap1\n      sload\n      swap1\n      0x0100\n      exp\n      swap1\n      div\n      0xffffffffffffffffffffffffffffffffffffffff\n      and\n      swap1\n      dup1\n      0x03\n      add\n      0x14\n      swap1\n      sload\n      swap1\n      0x0100\n      exp\n      swap1\n      div\n      0xff\n      and\n      swap1\n      pop\n      dup6\n      jump\t// out\n        /* \"EHealth.sol\":808:839  Doctor[] public doctorsHospital */\n    tag_87:\n      0x06\n      dup2\n      dup2\n      sload\n      dup2\n      lt\n      tag_328\n      jumpi\n      0x00\n      dup1\n      revert\n    tag_328:\n      swap1\n      0x00\n      mstore\n      keccak256(0x00, 0x20)\n      swap1\n      0x03\n      mul\n      add\n      0x00\n      swap2\n      pop\n      swap1\n      pop\n      dup1\n      0x00\n      add\n      0x00\n      swap1\n      sload\n      swap1\n      0x0100\n      exp\n      swap1\n      div\n      0xffffffffffffffffffffffffffffffffffffffff\n      and\n      swap1\n      dup1\n      0x01\n      add\n      dup1\n      sload\n      0x01\n      dup2\n      0x01\n      and\n      iszero\n      0x0100\n      mul\n      sub\n      and\n      0x02\n      swap1\n      div\n      dup1\n      0x1f\n      add\n      0x20\n      dup1\n      swap2\n      div\n      mul\n      0x20\n      add\n      mload(0x40)\n      swap1\n      dup2\n      add\n      0x40\n      mstore\n      dup1\n      swap3\n      swap2\n      swap1\n      dup2\n      dup2\n      mstore\n      0x20\n      add\n      dup3\n      dup1\n      sload\n      0x01\n      dup2\n      0x01\n      and\n      iszero\n      0x0100\n      mul\n      sub\n      and\n      0x02\n      swap1\n      div\n      dup1\n      iszero\n      tag_330\n      jumpi\n      dup1\n      0x1f\n      lt\n      tag_331\n      jumpi\n      0x0100\n      dup1\n      dup4\n      sload\n      div\n      mul\n      dup4\n      mstore\n      swap2\n      0x20\n      add\n      swap2\n      jump(tag_330)\n    tag_331:\n      dup3\n      add\n      swap2\n      swap1\n      0x00\n      mstore\n      keccak256(0x00, 0x20)\n      swap1\n    tag_332:\n      dup2\n      sload\n      dup2\n      mstore\n      swap1\n      0x01\n      add\n      swap1\n      0x20\n      add\n      dup1\n      dup4\n      gt\n      tag_332\n      jumpi\n      dup3\n      swap1\n      sub\n      0x1f\n      and\n      dup3\n      add\n      swap2\n    tag_330:\n      pop\n      pop\n      pop\n      pop\n      pop\n      swap1\n      dup1\n      0x02\n      add\n      0x00\n      swap1\n      sload\n      swap1\n      0x0100\n      exp\n      swap1\n      div\n      0xffffffffffffffffffffffffffffffffffffffff\n      and\n      swap1\n      dup1\n      0x02\n      add\n      0x14\n      swap1\n      sload\n      swap1\n      0x0100\n      exp\n      swap1\n      div\n      0xff\n      and\n      swap1\n      pop\n      dup5\n      jump\t// out\n        /* \"EHealth.sol\":9844:10210  function getAllSensorOfDoctor (address _idDoctor) public view returns (Sensor[] memory){\r... */\n    tag_92:\n        /* \"EHealth.sol\":9915:9930  Sensor[] memory */\n      0x60\n        /* \"EHealth.sol\":9942:9961  Sensor[] memory ret */\n      0x00\n        /* \"EHealth.sol\":9977:9990  sensorsDoctor */\n      0x08\n        /* \"EHealth.sol\":9977:9997  sensorsDoctor.length */\n      dup1\n      sload\n      swap1\n      pop\n        /* \"EHealth.sol\":9964:9998  new Sensor[](sensorsDoctor.length) */\n      0xffffffffffffffff\n      dup2\n      gt\n      dup1\n      iszero\n      tag_334\n      jumpi\n      0x00\n      dup1\n      revert\n    tag_334:\n      pop\n      mload(0x40)\n      swap1\n      dup1\n      dup3\n      mstore\n      dup1\n      0x20\n      mul\n      0x20\n      add\n      dup3\n      add\n      0x40\n      mstore\n      dup1\n      iszero\n      tag_335\n      jumpi\n      dup2\n      0x20\n      add\n    tag_336:\n      tag_337\n      tag_212\n      jump\t// in\n    tag_337:\n      dup2\n      mstore\n      0x20\n      add\n      swap1\n      0x01\n      swap1\n      sub\n      swap1\n      dup2\n      tag_336\n      jumpi\n      swap1\n      pop\n    tag_335:\n      pop\n        /* \"EHealth.sol\":9942:9998  Sensor[] memory ret = new Sensor[](sensorsDoctor.length) */\n      swap1\n      pop\n        /* \"EHealth.sol\":10014:10020  uint i */\n      0x00\n        /* \"EHealth.sol\":10009:10182  for (uint i = 0; i< sensorsDoctor.length; i++) {\r... */\n    tag_338:\n        /* \"EHealth.sol\":10029:10042  sensorsDoctor */\n      0x08\n        /* \"EHealth.sol\":10029:10049  sensorsDoctor.length */\n      dup1\n      sload\n      swap1\n      pop\n        /* \"EHealth.sol\":10026:10027  i */\n      dup2\n        /* \"EHealth.sol\":10026:10049  i< sensorsDoctor.length */\n      lt\n        /* \"EHealth.sol\":10009:10182  for (uint i = 0; i< sensorsDoctor.length; i++) {\r... */\n      iszero\n      tag_339\n      jumpi\n        /* \"EHealth.sol\":10087:10100  sensorsDoctor */\n      0x08\n        /* \"EHealth.sol\":10101:10102  i */\n      dup2\n        /* \"EHealth.sol\":10087:10103  sensorsDoctor[i] */\n      dup2\n      sload\n      dup2\n      lt\n      tag_341\n      jumpi\n      invalid\n    tag_341:\n      swap1\n      0x00\n      mstore\n      keccak256(0x00, 0x20)\n      swap1\n      0x04\n      mul\n      add\n        /* \"EHealth.sol\":10087:10112  sensorsDoctor[i].idDoctor */\n      0x03\n      add\n      0x00\n      swap1\n      sload\n      swap1\n      0x0100\n      exp\n      swap1\n      div\n      0xffffffffffffffffffffffffffffffffffffffff\n      and\n        /* \"EHealth.sol\":10074:10112  _idDoctor == sensorsDoctor[i].idDoctor */\n      0xffffffffffffffffffffffffffffffffffffffff\n      and\n        /* \"EHealth.sol\":10074:10083  _idDoctor */\n      dup5\n        /* \"EHealth.sol\":10074:10112  _idDoctor == sensorsDoctor[i].idDoctor */\n      0xffffffffffffffffffffffffffffffffffffffff\n      and\n      eq\n        /* \"EHealth.sol\":10071:10171  if(_idDoctor == sensorsDoctor[i].idDoctor){\r... */\n      iszero\n      tag_343\n      jumpi\n        /* \"EHealth.sol\":10139:10152  sensorsDoctor */\n      0x08\n        /* \"EHealth.sol\":10153:10154  i */\n      dup2\n        /* \"EHealth.sol\":10139:10155  sensorsDoctor[i] */\n      dup2\n      sload\n      dup2\n      lt\n      tag_344\n      jumpi\n      invalid\n    tag_344:\n      swap1\n      0x00\n      mstore\n      keccak256(0x00, 0x20)\n      swap1\n      0x04\n      mul\n      add\n        /* \"EHealth.sol\":10132:10155  ret[i]=sensorsDoctor[i] */\n      mload(0x40)\n      dup1\n      0xa0\n      add\n      0x40\n      mstore\n      swap1\n      dup2\n      0x00\n      dup3\n      add\n      sload\n      dup2\n      mstore\n      0x20\n      add\n      0x01\n      dup3\n      add\n      dup1\n      sload\n      0x01\n      dup2\n      0x01\n      and\n      iszero\n      0x0100\n      mul\n      sub\n      and\n      0x02\n      swap1\n      div\n      dup1\n      0x1f\n      add\n      0x20\n      dup1\n      swap2\n      div\n      mul\n      0x20\n      add\n      mload(0x40)\n      swap1\n      dup2\n      add\n      0x40\n      mstore\n      dup1\n      swap3\n      swap2\n      swap1\n      dup2\n      dup2\n      mstore\n      0x20\n      add\n      dup3\n      dup1\n      sload\n      0x01\n      dup2\n      0x01\n      and\n      iszero\n      0x0100\n      mul\n      sub\n      and\n      0x02\n      swap1\n      div\n      dup1\n      iszero\n      tag_346\n      jumpi\n      dup1\n      0x1f\n      lt\n      tag_347\n      jumpi\n      0x0100\n      dup1\n      dup4\n      sload\n      div\n      mul\n      dup4\n      mstore\n      swap2\n      0x20\n      add\n      swap2\n      jump(tag_346)\n    tag_347:\n      dup3\n      add\n      swap2\n      swap1\n      0x00\n      mstore\n      keccak256(0x00, 0x20)\n      swap1\n    tag_348:\n      dup2\n      sload\n      dup2\n      mstore\n      swap1\n      0x01\n      add\n      swap1\n      0x20\n      add\n      dup1\n      dup4\n      gt\n      tag_348\n      jumpi\n      dup3\n      swap1\n      sub\n      0x1f\n      and\n      dup3\n      add\n      swap2\n    tag_346:\n      pop\n      pop\n      pop\n      pop\n      pop\n      dup2\n      mstore\n      0x20\n      add\n      0x02\n      dup3\n      add\n      dup1\n      sload\n      0x01\n      dup2\n      0x01\n      and\n      iszero\n      0x0100\n      mul\n      sub\n      and\n      0x02\n      swap1\n      div\n      dup1\n      0x1f\n      add\n      0x20\n      dup1\n      swap2\n      div\n      mul\n      0x20\n      add\n      mload(0x40)\n      swap1\n      dup2\n      add\n      0x40\n      mstore\n      dup1\n      swap3\n      swap2\n      swap1\n      dup2\n      dup2\n      mstore\n      0x20\n      add\n      dup3\n      dup1\n      sload\n      0x01\n      dup2\n      0x01\n      and\n      iszero\n      0x0100\n      mul\n      sub\n      and\n      0x02\n      swap1\n      div\n      dup1\n      iszero\n      tag_349\n      jumpi\n      dup1\n      0x1f\n      lt\n      tag_350\n      jumpi\n      0x0100\n      dup1\n      dup4\n      sload\n      div\n      mul\n      dup4\n      mstore\n      swap2\n      0x20\n      add\n      swap2\n      jump(tag_349)\n    tag_350:\n      dup3\n      add\n      swap2\n      swap1\n      0x00\n      mstore\n      keccak256(0x00, 0x20)\n      swap1\n    tag_351:\n      dup2\n      sload\n      dup2\n      mstore\n      swap1\n      0x01\n      add\n      swap1\n      0x20\n      add\n      dup1\n      dup4\n      gt\n      tag_351\n      jumpi\n      dup3\n      swap1\n      sub\n      0x1f\n      and\n      dup3\n      add\n      swap2\n    tag_349:\n      pop\n      pop\n      pop\n      pop\n      pop\n      dup2\n      mstore\n      0x20\n      add\n      0x03\n      dup3\n      add\n      0x00\n      swap1\n      sload\n      swap1\n      0x0100\n      exp\n      swap1\n      div\n      0xffffffffffffffffffffffffffffffffffffffff\n      and\n      0xffffffffffffffffffffffffffffffffffffffff\n      and\n      0xffffffffffffffffffffffffffffffffffffffff\n      and\n      dup2\n      mstore\n      0x20\n      add\n      0x03\n      dup3\n      add\n      0x14\n      swap1\n      sload\n      swap1\n      0x0100\n      exp\n      swap1\n      div\n      0xff\n      and\n      iszero\n      iszero\n      iszero\n      iszero\n      dup2\n      mstore\n      pop\n      pop\n        /* \"EHealth.sol\":10132:10135  ret */\n      dup3\n        /* \"EHealth.sol\":10136:10137  i */\n      dup3\n        /* \"EHealth.sol\":10132:10138  ret[i] */\n      dup2\n      mload\n      dup2\n      lt\n      tag_352\n      jumpi\n      invalid\n    tag_352:\n      0x20\n      mul\n      0x20\n      add\n      add\n        /* \"EHealth.sol\":10132:10155  ret[i]=sensorsDoctor[i] */\n      dup2\n      swap1\n      mstore\n      pop\n        /* \"EHealth.sol\":10071:10171  if(_idDoctor == sensorsDoctor[i].idDoctor){\r... */\n    tag_343:\n        /* \"EHealth.sol\":10051:10054  i++ */\n      dup1\n      dup1\n      0x01\n      add\n      swap2\n      pop\n      pop\n        /* \"EHealth.sol\":10009:10182  for (uint i = 0; i< sensorsDoctor.length; i++) {\r... */\n      jump(tag_338)\n    tag_339:\n      pop\n        /* \"EHealth.sol\":10199:10202  ret */\n      dup1\n        /* \"EHealth.sol\":10192:10202  return ret */\n      swap2\n      pop\n      pop\n        /* \"EHealth.sol\":9844:10210  function getAllSensorOfDoctor (address _idDoctor) public view returns (Sensor[] memory){\r... */\n      swap2\n      swap1\n      pop\n      jump\t// out\n        /* \"EHealth.sol\":4164:4515  function ReadHospital(address _address)public view returns(string memory, string memory, string memory, uint, bool){\r... */\n    tag_96:\n        /* \"EHealth.sol\":4223:4236  string memory */\n      0x60\n        /* \"EHealth.sol\":4238:4251  string memory */\n      dup1\n        /* \"EHealth.sol\":4253:4266  string memory */\n      0x60\n        /* \"EHealth.sol\":4268:4272  uint */\n      0x00\n        /* \"EHealth.sol\":4274:4278  bool */\n      dup1\n        /* \"EHealth.sol\":4290:4300  uint index */\n      0x00\n        /* \"EHealth.sol\":4303:4325  FindHospital(_address) */\n      tag_354\n        /* \"EHealth.sol\":4316:4324  _address */\n      dup8\n        /* \"EHealth.sol\":4303:4315  FindHospital */\n      tag_169\n        /* \"EHealth.sol\":4303:4325  FindHospital(_address) */\n      jump\t// in\n    tag_354:\n        /* \"EHealth.sol\":4290:4325  uint index = FindHospital(_address) */\n      swap1\n      pop\n        /* \"EHealth.sol\":4344:4359  hospitalCenters */\n      0x04\n        /* \"EHealth.sol\":4360:4365  index */\n      dup2\n        /* \"EHealth.sol\":4344:4366  hospitalCenters[index] */\n      dup2\n      sload\n      dup2\n      lt\n      tag_355\n      jumpi\n      invalid\n    tag_355:\n      swap1\n      0x00\n      mstore\n      keccak256(0x00, 0x20)\n      swap1\n      0x06\n      mul\n      add\n        /* \"EHealth.sol\":4344:4371  hospitalCenters[index].name */\n      0x01\n      add\n        /* \"EHealth.sol\":4372:4387  hospitalCenters */\n      0x04\n        /* \"EHealth.sol\":4388:4393  index */\n      dup3\n        /* \"EHealth.sol\":4372:4394  hospitalCenters[index] */\n      dup2\n      sload\n      dup2\n      lt\n      tag_357\n      jumpi\n      invalid\n    tag_357:\n      swap1\n      0x00\n      mstore\n      keccak256(0x00, 0x20)\n      swap1\n      0x06\n      mul\n      add\n        /* \"EHealth.sol\":4372:4399  hospitalCenters[index].city */\n      0x02\n      add\n        /* \"EHealth.sol\":4400:4415  hospitalCenters */\n      0x04\n        /* \"EHealth.sol\":4416:4421  index */\n      dup4\n        /* \"EHealth.sol\":4400:4422  hospitalCenters[index] */\n      dup2\n      sload\n      dup2\n      lt\n      tag_359\n      jumpi\n      invalid\n    tag_359:\n      swap1\n      0x00\n      mstore\n      keccak256(0x00, 0x20)\n      swap1\n      0x06\n      mul\n      add\n        /* \"EHealth.sol\":4400:4428  hospitalCenters[index].state */\n      0x03\n      add\n        /* \"EHealth.sol\":4439:4454  hospitalCenters */\n      0x04\n        /* \"EHealth.sol\":4455:4460  index */\n      dup5\n        /* \"EHealth.sol\":4439:4461  hospitalCenters[index] */\n      dup2\n      sload\n      dup2\n      lt\n      tag_361\n      jumpi\n      invalid\n    tag_361:\n      swap1\n      0x00\n      mstore\n      keccak256(0x00, 0x20)\n      swap1\n      0x06\n      mul\n      add\n        /* \"EHealth.sol\":4439:4472  hospitalCenters[index].postalCode */\n      0x04\n      add\n      sload\n        /* \"EHealth.sol\":4473:4488  hospitalCenters */\n      0x04\n        /* \"EHealth.sol\":4489:4494  index */\n      dup6\n        /* \"EHealth.sol\":4473:4495  hospitalCenters[index] */\n      dup2\n      sload\n      dup2\n      lt\n      tag_363\n      jumpi\n      invalid\n    tag_363:\n      swap1\n      0x00\n      mstore\n      keccak256(0x00, 0x20)\n      swap1\n      0x06\n      mul\n      add\n        /* \"EHealth.sol\":4473:4506  hospitalCenters[index].permission */\n      0x05\n      add\n      0x00\n      swap1\n      sload\n      swap1\n      0x0100\n      exp\n      swap1\n      div\n      0xff\n      and\n        /* \"EHealth.sol\":4336:4507  return (hospitalCenters[index].name,hospitalCenters[index].city,hospitalCenters[index].state,\r... */\n      dup5\n      dup1\n      sload\n      0x01\n      dup2\n      0x01\n      and\n      iszero\n      0x0100\n      mul\n      sub\n      and\n      0x02\n      swap1\n      div\n      dup1\n      0x1f\n      add\n      0x20\n      dup1\n      swap2\n      div\n      mul\n      0x20\n      add\n      mload(0x40)\n      swap1\n      dup2\n      add\n      0x40\n      mstore\n      dup1\n      swap3\n      swap2\n      swap1\n      dup2\n      dup2\n      mstore\n      0x20\n      add\n      dup3\n      dup1\n      sload\n      0x01\n      dup2\n      0x01\n      and\n      iszero\n      0x0100\n      mul\n      sub\n      and\n      0x02\n      swap1\n      div\n      dup1\n      iszero\n      tag_365\n      jumpi\n      dup1\n      0x1f\n      lt\n      tag_366\n      jumpi\n      0x0100\n      dup1\n      dup4\n      sload\n      div\n      mul\n      dup4\n      mstore\n      swap2\n      0x20\n      add\n      swap2\n      jump(tag_365)\n    tag_366:\n      dup3\n      add\n      swap2\n      swap1\n      0x00\n      mstore\n      keccak256(0x00, 0x20)\n      swap1\n    tag_367:\n      dup2\n      sload\n      dup2\n      mstore\n      swap1\n      0x01\n      add\n      swap1\n      0x20\n      add\n      dup1\n      dup4\n      gt\n      tag_367\n      jumpi\n      dup3\n      swap1\n      sub\n      0x1f\n      and\n      dup3\n      add\n      swap2\n    tag_365:\n      pop\n      pop\n      pop\n      pop\n      pop\n      swap5\n      pop\n      dup4\n      dup1\n      sload\n      0x01\n      dup2\n      0x01\n      and\n      iszero\n      0x0100\n      mul\n      sub\n      and\n      0x02\n      swap1\n      div\n      dup1\n      0x1f\n      add\n      0x20\n      dup1\n      swap2\n      div\n      mul\n      0x20\n      add\n      mload(0x40)\n      swap1\n      dup2\n      add\n      0x40\n      mstore\n      dup1\n      swap3\n      swap2\n      swap1\n      dup2\n      dup2\n      mstore\n      0x20\n      add\n      dup3\n      dup1\n      sload\n      0x01\n      dup2\n      0x01\n      and\n      iszero\n      0x0100\n      mul\n      sub\n      and\n      0x02\n      swap1\n      div\n      dup1\n      iszero\n      tag_368\n      jumpi\n      dup1\n      0x1f\n      lt\n      tag_369\n      jumpi\n      0x0100\n      dup1\n      dup4\n      sload\n      div\n      mul\n      dup4\n      mstore\n      swap2\n      0x20\n      add\n      swap2\n      jump(tag_368)\n    tag_369:\n      dup3\n      add\n      swap2\n      swap1\n      0x00\n      mstore\n      keccak256(0x00, 0x20)\n      swap1\n    tag_370:\n      dup2\n      sload\n      dup2\n      mstore\n      swap1\n      0x01\n      add\n      swap1\n      0x20\n      add\n      dup1\n      dup4\n      gt\n      tag_370\n      jumpi\n      dup3\n      swap1\n      sub\n      0x1f\n      and\n      dup3\n      add\n      swap2\n    tag_368:\n      pop\n      pop\n      pop\n      pop\n      pop\n      swap4\n      pop\n      dup3\n      dup1\n      sload\n      0x01\n      dup2\n      0x01\n      and\n      iszero\n      0x0100\n      mul\n      sub\n      and\n      0x02\n      swap1\n      div\n      dup1\n      0x1f\n      add\n      0x20\n      dup1\n      swap2\n      div\n      mul\n      0x20\n      add\n      mload(0x40)\n      swap1\n      dup2\n      add\n      0x40\n      mstore\n      dup1\n      swap3\n      swap2\n      swap1\n      dup2\n      dup2\n      mstore\n      0x20\n      add\n      dup3\n      dup1\n      sload\n      0x01\n      dup2\n      0x01\n      and\n      iszero\n      0x0100\n      mul\n      sub\n      and\n      0x02\n      swap1\n      div\n      dup1\n      iszero\n      tag_371\n      jumpi\n      dup1\n      0x1f\n      lt\n      tag_372\n      jumpi\n      0x0100\n      dup1\n      dup4\n      sload\n      div\n      mul\n      dup4\n      mstore\n      swap2\n      0x20\n      add\n      swap2\n      jump(tag_371)\n    tag_372:\n      dup3\n      add\n      swap2\n      swap1\n      0x00\n      mstore\n      keccak256(0x00, 0x20)\n      swap1\n    tag_373:\n      dup2\n      sload\n      dup2\n      mstore\n      swap1\n      0x01\n      add\n      swap1\n      0x20\n      add\n      dup1\n      dup4\n      gt\n      tag_373\n      jumpi\n      dup3\n      swap1\n      sub\n      0x1f\n      and\n      dup3\n      add\n      swap2\n    tag_371:\n      pop\n      pop\n      pop\n      pop\n      pop\n      swap3\n      pop\n      swap6\n      pop\n      swap6\n      pop\n      swap6\n      pop\n      swap6\n      pop\n      swap6\n      pop\n      pop\n        /* \"EHealth.sol\":4164:4515  function ReadHospital(address _address)public view returns(string memory, string memory, string memory, uint, bool){\r... */\n      swap2\n      swap4\n      swap6\n      swap1\n      swap3\n      swap5\n      pop\n      jump\t// out\n        /* \"EHealth.sol\":5267:5597  function RemoveDoctor(address _id) public {\r... */\n    tag_101:\n        /* \"EHealth.sol\":5320:5330  uint index */\n      0x00\n        /* \"EHealth.sol\":5333:5348  FindDoctor(_id) */\n      tag_375\n        /* \"EHealth.sol\":5344:5347  _id */\n      dup3\n        /* \"EHealth.sol\":5333:5343  FindDoctor */\n      tag_160\n        /* \"EHealth.sol\":5333:5348  FindDoctor(_id) */\n      jump\t// in\n    tag_375:\n        /* \"EHealth.sol\":5320:5348  uint index = FindDoctor(_id) */\n      swap1\n      pop\n        /* \"EHealth.sol\":5393:5398  false */\n      0x00\n        /* \"EHealth.sol\":5359:5374  doctorsHospital */\n      0x06\n        /* \"EHealth.sol\":5375:5380  index */\n      dup3\n        /* \"EHealth.sol\":5359:5381  doctorsHospital[index] */\n      dup2\n      sload\n      dup2\n      lt\n      tag_376\n      jumpi\n      invalid\n    tag_376:\n      swap1\n      0x00\n      mstore\n      keccak256(0x00, 0x20)\n      swap1\n      0x03\n      mul\n      add\n        /* \"EHealth.sol\":5359:5392  doctorsHospital[index].permission */\n      0x02\n      add\n      0x14\n        /* \"EHealth.sol\":5359:5398  doctorsHospital[index].permission=false */\n      0x0100\n      exp\n      dup2\n      sload\n      dup2\n      0xff\n      mul\n      not\n      and\n      swap1\n      dup4\n      iszero\n      iszero\n      mul\n      or\n      swap1\n      sstore\n      pop\n        /* \"EHealth.sol\":5414:5589  DeleteDoctor(doctorsHospital[index].idDoctor,\r... */\n      0x780b3c74ec1e08d8c65fd8a12c6ac2da5c15f2d3b5e54335b51671f63b7d2ad0\n        /* \"EHealth.sol\":5427:5442  doctorsHospital */\n      0x06\n        /* \"EHealth.sol\":5443:5448  index */\n      dup3\n        /* \"EHealth.sol\":5427:5449  doctorsHospital[index] */\n      dup2\n      sload\n      dup2\n      lt\n      tag_378\n      jumpi\n      invalid\n    tag_378:\n      swap1\n      0x00\n      mstore\n      keccak256(0x00, 0x20)\n      swap1\n      0x03\n      mul\n      add\n        /* \"EHealth.sol\":5427:5458  doctorsHospital[index].idDoctor */\n      0x00\n      add\n      0x00\n      swap1\n      sload\n      swap1\n      0x0100\n      exp\n      swap1\n      div\n      0xffffffffffffffffffffffffffffffffffffffff\n      and\n        /* \"EHealth.sol\":5469:5484  doctorsHospital */\n      0x06\n        /* \"EHealth.sol\":5485:5490  index */\n      dup4\n        /* \"EHealth.sol\":5469:5491  doctorsHospital[index] */\n      dup2\n      sload\n      dup2\n      lt\n      tag_380\n      jumpi\n      invalid\n    tag_380:\n      swap1\n      0x00\n      mstore\n      keccak256(0x00, 0x20)\n      swap1\n      0x03\n      mul\n      add\n        /* \"EHealth.sol\":5469:5502  doctorsHospital[index].nameDoctor */\n      0x01\n      add\n        /* \"EHealth.sol\":5513:5528  doctorsHospital */\n      0x06\n        /* \"EHealth.sol\":5529:5534  index */\n      dup5\n        /* \"EHealth.sol\":5513:5535  doctorsHospital[index] */\n      dup2\n      sload\n      dup2\n      lt\n      tag_382\n      jumpi\n      invalid\n    tag_382:\n      swap1\n      0x00\n      mstore\n      keccak256(0x00, 0x20)\n      swap1\n      0x03\n      mul\n      add\n        /* \"EHealth.sol\":5513:5544  doctorsHospital[index].hospital */\n      0x02\n      add\n      0x00\n      swap1\n      sload\n      swap1\n      0x0100\n      exp\n      swap1\n      div\n      0xffffffffffffffffffffffffffffffffffffffff\n      and\n        /* \"EHealth.sol\":5555:5570  doctorsHospital */\n      0x06\n        /* \"EHealth.sol\":5571:5576  index */\n      dup6\n        /* \"EHealth.sol\":5555:5577  doctorsHospital[index] */\n      dup2\n      sload\n      dup2\n      lt\n      tag_384\n      jumpi\n      invalid\n    tag_384:\n      swap1\n      0x00\n      mstore\n      keccak256(0x00, 0x20)\n      swap1\n      0x03\n      mul\n      add\n        /* \"EHealth.sol\":5555:5588  doctorsHospital[index].permission */\n      0x02\n      add\n      0x14\n      swap1\n      sload\n      swap1\n      0x0100\n      exp\n      swap1\n      div\n      0xff\n      and\n        /* \"EHealth.sol\":5414:5589  DeleteDoctor(doctorsHospital[index].idDoctor,\r... */\n      mload(0x40)\n      tag_386\n      swap5\n      swap4\n      swap3\n      swap2\n      swap1\n      tag_243\n      jump\t// in\n    tag_386:\n      mload(0x40)\n      dup1\n      swap2\n      sub\n      swap1\n      log1\n        /* \"EHealth.sol\":5267:5597  function RemoveDoctor(address _id) public {\r... */\n      pop\n      pop\n      jump\t// out\n        /* \"EHealth.sol\":4022:4127  function Length_Hospitals() public view returns (uint256){\r... */\n    tag_103:\n        /* \"EHealth.sol\":4071:4078  uint256 */\n      0x00\n        /* \"EHealth.sol\":4097:4112  hospitalCenters */\n      0x04\n        /* \"EHealth.sol\":4097:4119  hospitalCenters.length */\n      dup1\n      sload\n      swap1\n      pop\n        /* \"EHealth.sol\":4090:4119  return hospitalCenters.length */\n      swap1\n      pop\n        /* \"EHealth.sol\":4022:4127  function Length_Hospitals() public view returns (uint256){\r... */\n      swap1\n      jump\t// out\n        /* \"EHealth.sol\":1814:2130  function AddHospital(address _idHospital, string memory _name, string memory _city, string memory _state, uint _postalCode ) public {\r... */\n    tag_108:\n        /* \"EHealth.sol\":1957:1972  hospitalCenters */\n      0x04\n        /* \"EHealth.sol\":1978:2040  Hospital(_idHospital, _name, _city, _state, _postalCode, true) */\n      mload(0x40)\n      dup1\n      0xc0\n      add\n      0x40\n      mstore\n      dup1\n        /* \"EHealth.sol\":1987:1998  _idHospital */\n      dup8\n        /* \"EHealth.sol\":1978:2040  Hospital(_idHospital, _name, _city, _state, _postalCode, true) */\n      0xffffffffffffffffffffffffffffffffffffffff\n      and\n      dup2\n      mstore\n      0x20\n      add\n        /* \"EHealth.sol\":2000:2005  _name */\n      dup7\n        /* \"EHealth.sol\":1978:2040  Hospital(_idHospital, _name, _city, _state, _postalCode, true) */\n      dup2\n      mstore\n      0x20\n      add\n        /* \"EHealth.sol\":2007:2012  _city */\n      dup6\n        /* \"EHealth.sol\":1978:2040  Hospital(_idHospital, _name, _city, _state, _postalCode, true) */\n      dup2\n      mstore\n      0x20\n      add\n        /* \"EHealth.sol\":2014:2020  _state */\n      dup5\n        /* \"EHealth.sol\":1978:2040  Hospital(_idHospital, _name, _city, _state, _postalCode, true) */\n      dup2\n      mstore\n      0x20\n      add\n        /* \"EHealth.sol\":2022:2033  _postalCode */\n      dup4\n        /* \"EHealth.sol\":1978:2040  Hospital(_idHospital, _name, _city, _state, _postalCode, true) */\n      dup2\n      mstore\n      0x20\n      add\n        /* \"EHealth.sol\":2035:2039  true */\n      0x01\n        /* \"EHealth.sol\":1978:2040  Hospital(_idHospital, _name, _city, _state, _postalCode, true) */\n      iszero\n      iszero\n      dup2\n      mstore\n      pop\n        /* \"EHealth.sol\":1957:2041  hospitalCenters.push(Hospital(_idHospital, _name, _city, _state, _postalCode, true)) */\n      swap1\n      dup1\n      0x01\n      dup2\n      sload\n      add\n      dup1\n      dup3\n      sstore\n      dup1\n      swap2\n      pop\n      pop\n      0x01\n      swap1\n      sub\n      swap1\n      0x00\n      mstore\n      keccak256(0x00, 0x20)\n      swap1\n      0x06\n      mul\n      add\n      0x00\n      swap1\n      swap2\n      swap1\n      swap2\n      swap1\n      swap2\n      pop\n      0x00\n      dup3\n      add\n      mload\n      dup2\n      0x00\n      add\n      exp(0x0100, 0x00)\n      dup2\n      sload\n      dup2\n      0xffffffffffffffffffffffffffffffffffffffff\n      mul\n      not\n      and\n      swap1\n      dup4\n      0xffffffffffffffffffffffffffffffffffffffff\n      and\n      mul\n      or\n      swap1\n      sstore\n      pop\n      0x20\n      dup3\n      add\n      mload\n      dup2\n      0x01\n      add\n      swap1\n      dup1\n      mload\n      swap1\n      0x20\n      add\n      swap1\n      tag_390\n      swap3\n      swap2\n      swap1\n      tag_163\n      jump\t// in\n    tag_390:\n      pop\n      0x40\n      dup3\n      add\n      mload\n      dup2\n      0x02\n      add\n      swap1\n      dup1\n      mload\n      swap1\n      0x20\n      add\n      swap1\n      tag_391\n      swap3\n      swap2\n      swap1\n      tag_163\n      jump\t// in\n    tag_391:\n      pop\n      0x60\n      dup3\n      add\n      mload\n      dup2\n      0x03\n      add\n      swap1\n      dup1\n      mload\n      swap1\n      0x20\n      add\n      swap1\n      tag_392\n      swap3\n      swap2\n      swap1\n      tag_163\n      jump\t// in\n    tag_392:\n      pop\n      0x80\n      dup3\n      add\n      mload\n      dup2\n      0x04\n      add\n      sstore\n      0xa0\n      dup3\n      add\n      mload\n      dup2\n      0x05\n      add\n      exp(0x0100, 0x00)\n      dup2\n      sload\n      dup2\n      0xff\n      mul\n      not\n      and\n      swap1\n      dup4\n      iszero\n      iszero\n      mul\n      or\n      swap1\n      sstore\n      pop\n      pop\n      pop\n        /* \"EHealth.sol\":2057:2122  NewHospital(_idHospital, _name, _city, _state, _postalCode, true) */\n      0xf646212acc3f5092fb0211ffd5121c0f706641b715e3982dab50afb395413dd5\n        /* \"EHealth.sol\":2069:2080  _idHospital */\n      dup6\n        /* \"EHealth.sol\":2082:2087  _name */\n      dup6\n        /* \"EHealth.sol\":2089:2094  _city */\n      dup6\n        /* \"EHealth.sol\":2096:2102  _state */\n      dup6\n        /* \"EHealth.sol\":2104:2115  _postalCode */\n      dup6\n        /* \"EHealth.sol\":2117:2121  true */\n      0x01\n        /* \"EHealth.sol\":2057:2122  NewHospital(_idHospital, _name, _city, _state, _postalCode, true) */\n      mload(0x40)\n      tag_393\n      swap7\n      swap6\n      swap5\n      swap4\n      swap3\n      swap2\n      swap1\n      tag_113\n      jump\t// in\n    tag_393:\n      mload(0x40)\n      dup1\n      swap2\n      sub\n      swap1\n      log1\n        /* \"EHealth.sol\":1814:2130  function AddHospital(address _idHospital, string memory _name, string memory _city, string memory _state, uint _postalCode ) public {\r... */\n      pop\n      pop\n      pop\n      pop\n      pop\n      jump\t// out\n        /* \"EHealth.sol\":301:345  mapping(address=> Hospital) public Hospitals */\n    tag_111:\n      mstore(0x20, 0x03)\n      dup1\n      0x00\n      mstore\n      keccak256(0x00, 0x40)\n      0x00\n      swap2\n      pop\n      swap1\n      pop\n      dup1\n      0x00\n      add\n      0x00\n      swap1\n      sload\n      swap1\n      0x0100\n      exp\n      swap1\n      div\n      0xffffffffffffffffffffffffffffffffffffffff\n      and\n      swap1\n      dup1\n      0x01\n      add\n      dup1\n      sload\n      0x01\n      dup2\n      0x01\n      and\n      iszero\n      0x0100\n      mul\n      sub\n      and\n      0x02\n      swap1\n      div\n      dup1\n      0x1f\n      add\n      0x20\n      dup1\n      swap2\n      div\n      mul\n      0x20\n      add\n      mload(0x40)\n      swap1\n      dup2\n      add\n      0x40\n      mstore\n      dup1\n      swap3\n      swap2\n      swap1\n      dup2\n      dup2\n      mstore\n      0x20\n      add\n      dup3\n      dup1\n      sload\n      0x01\n      dup2\n      0x01\n      and\n      iszero\n      0x0100\n      mul\n      sub\n      and\n      0x02\n      swap1\n      div\n      dup1\n      iszero\n      tag_394\n      jumpi\n      dup1\n      0x1f\n      lt\n      tag_395\n      jumpi\n      0x0100\n      dup1\n      dup4\n      sload\n      div\n      mul\n      dup4\n      mstore\n      swap2\n      0x20\n      add\n      swap2\n      jump(tag_394)\n    tag_395:\n      dup3\n      add\n      swap2\n      swap1\n      0x00\n      mstore\n      keccak256(0x00, 0x20)\n      swap1\n    tag_396:\n      dup2\n      sload\n      dup2\n      mstore\n      swap1\n      0x01\n      add\n      swap1\n      0x20\n      add\n      dup1\n      dup4\n      gt\n      tag_396\n      jumpi\n      dup3\n      swap1\n      sub\n      0x1f\n      and\n      dup3\n      add\n      swap2\n    tag_394:\n      pop\n      pop\n      pop\n      pop\n      pop\n      swap1\n      dup1\n      0x02\n      add\n      dup1\n      sload\n      0x01\n      dup2\n      0x01\n      and\n      iszero\n      0x0100\n      mul\n      sub\n      and\n      0x02\n      swap1\n      div\n      dup1\n      0x1f\n      add\n      0x20\n      dup1\n      swap2\n      div\n      mul\n      0x20\n      add\n      mload(0x40)\n      swap1\n      dup2\n      add\n      0x40\n      mstore\n      dup1\n      swap3\n      swap2\n      swap1\n      dup2\n      dup2\n      mstore\n      0x20\n      add\n      dup3\n      dup1\n      sload\n      0x01\n      dup2\n      0x01\n      and\n      iszero\n      0x0100\n      mul\n      sub\n      and\n      0x02\n      swap1\n      div\n      dup1\n      iszero\n      tag_397\n      jumpi\n      dup1\n      0x1f\n      lt\n      tag_398\n      jumpi\n      0x0100\n      dup1\n      dup4\n      sload\n      div\n      mul\n      dup4\n      mstore\n      swap2\n      0x20\n      add\n      swap2\n      jump(tag_397)\n    tag_398:\n      dup3\n      add\n      swap2\n      swap1\n      0x00\n      mstore\n      keccak256(0x00, 0x20)\n      swap1\n    tag_399:\n      dup2\n      sload\n      dup2\n      mstore\n      swap1\n      0x01\n      add\n      swap1\n      0x20\n      add\n      dup1\n      dup4\n      gt\n      tag_399\n      jumpi\n      dup3\n      swap1\n      sub\n      0x1f\n      and\n      dup3\n      add\n      swap2\n    tag_397:\n      pop\n      pop\n      pop\n      pop\n      pop\n      swap1\n      dup1\n      0x03\n      add\n      dup1\n      sload\n      0x01\n      dup2\n      0x01\n      and\n      iszero\n      0x0100\n      mul\n      sub\n      and\n      0x02\n      swap1\n      div\n      dup1\n      0x1f\n      add\n      0x20\n      dup1\n      swap2\n      div\n      mul\n      0x20\n      add\n      mload(0x40)\n      swap1\n      dup2\n      add\n      0x40\n      mstore\n      dup1\n      swap3\n      swap2\n      swap1\n      dup2\n      dup2\n      mstore\n      0x20\n      add\n      dup3\n      dup1\n      sload\n      0x01\n      dup2\n      0x01\n      and\n      iszero\n      0x0100\n      mul\n      sub\n      and\n      0x02\n      swap1\n      div\n      dup1\n      iszero\n      tag_400\n      jumpi\n      dup1\n      0x1f\n      lt\n      tag_401\n      jumpi\n      0x0100\n      dup1\n      dup4\n      sload\n      div\n      mul\n      dup4\n      mstore\n      swap2\n      0x20\n      add\n      swap2\n      jump(tag_400)\n    tag_401:\n      dup3\n      add\n      swap2\n      swap1\n      0x00\n      mstore\n      keccak256(0x00, 0x20)\n      swap1\n    tag_402:\n      dup2\n      sload\n      dup2\n      mstore\n      swap1\n      0x01\n      add\n      swap1\n      0x20\n      add\n      dup1\n      dup4\n      gt\n      tag_402\n      jumpi\n      dup3\n      swap1\n      sub\n      0x1f\n      and\n      dup3\n      add\n      swap2\n    tag_400:\n      pop\n      pop\n      pop\n      pop\n      pop\n      swap1\n      dup1\n      0x04\n      add\n      sload\n      swap1\n      dup1\n      0x05\n      add\n      0x00\n      swap1\n      sload\n      swap1\n      0x0100\n      exp\n      swap1\n      div\n      0xff\n      and\n      swap1\n      pop\n      dup7\n      jump\t// out\n        /* \"EHealth.sol\":9399:9500  function Length_sensors() public view returns (uint256){\r... */\n    tag_115:\n        /* \"EHealth.sol\":9446:9453  uint256 */\n      0x00\n        /* \"EHealth.sol\":9472:9485  sensorsDoctor */\n      0x08\n        /* \"EHealth.sol\":9472:9492  sensorsDoctor.length */\n      dup1\n      sload\n      swap1\n      pop\n        /* \"EHealth.sol\":9465:9492  return sensorsDoctor.length */\n      swap1\n      pop\n        /* \"EHealth.sol\":9399:9500  function Length_sensors() public view returns (uint256){\r... */\n      swap1\n      jump\t// out\n        /* \"EHealth.sol\":6911:7285  function getAllDoctorsInHospital(address _address) public view returns (Doctor[] memory){\r... */\n    tag_119:\n        /* \"EHealth.sol\":6983:6998  Doctor[] memory */\n      0x60\n        /* \"EHealth.sol\":7010:7029  Doctor[] memory ret */\n      0x00\n        /* \"EHealth.sol\":7045:7060  doctorsHospital */\n      0x06\n        /* \"EHealth.sol\":7045:7067  doctorsHospital.length */\n      dup1\n      sload\n      swap1\n      pop\n        /* \"EHealth.sol\":7032:7068  new Doctor[](doctorsHospital.length) */\n      0xffffffffffffffff\n      dup2\n      gt\n      dup1\n      iszero\n      tag_405\n      jumpi\n      0x00\n      dup1\n      revert\n    tag_405:\n      pop\n      mload(0x40)\n      swap1\n      dup1\n      dup3\n      mstore\n      dup1\n      0x20\n      mul\n      0x20\n      add\n      dup3\n      add\n      0x40\n      mstore\n      dup1\n      iszero\n      tag_406\n      jumpi\n      dup2\n      0x20\n      add\n    tag_407:\n      tag_408\n      tag_409\n      jump\t// in\n    tag_408:\n      dup2\n      mstore\n      0x20\n      add\n      swap1\n      0x01\n      swap1\n      sub\n      swap1\n      dup2\n      tag_407\n      jumpi\n      swap1\n      pop\n    tag_406:\n      pop\n        /* \"EHealth.sol\":7010:7068  Doctor[] memory ret = new Doctor[](doctorsHospital.length) */\n      swap1\n      pop\n        /* \"EHealth.sol\":7084:7090  uint i */\n      0x00\n        /* \"EHealth.sol\":7079:7257  for (uint i = 0; i< doctorsHospital.length; i++) {\r... */\n    tag_410:\n        /* \"EHealth.sol\":7099:7114  doctorsHospital */\n      0x06\n        /* \"EHealth.sol\":7099:7121  doctorsHospital.length */\n      dup1\n      sload\n      swap1\n      pop\n        /* \"EHealth.sol\":7096:7097  i */\n      dup2\n        /* \"EHealth.sol\":7096:7121  i< doctorsHospital.length */\n      lt\n        /* \"EHealth.sol\":7079:7257  for (uint i = 0; i< doctorsHospital.length; i++) {\r... */\n      iszero\n      tag_411\n      jumpi\n        /* \"EHealth.sol\":7158:7173  doctorsHospital */\n      0x06\n        /* \"EHealth.sol\":7174:7175  i */\n      dup2\n        /* \"EHealth.sol\":7158:7176  doctorsHospital[i] */\n      dup2\n      sload\n      dup2\n      lt\n      tag_413\n      jumpi\n      invalid\n    tag_413:\n      swap1\n      0x00\n      mstore\n      keccak256(0x00, 0x20)\n      swap1\n      0x03\n      mul\n      add\n        /* \"EHealth.sol\":7158:7185  doctorsHospital[i].hospital */\n      0x02\n      add\n      0x00\n      swap1\n      sload\n      swap1\n      0x0100\n      exp\n      swap1\n      div\n      0xffffffffffffffffffffffffffffffffffffffff\n      and\n        /* \"EHealth.sol\":7146:7185  _address == doctorsHospital[i].hospital */\n      0xffffffffffffffffffffffffffffffffffffffff\n      and\n        /* \"EHealth.sol\":7146:7154  _address */\n      dup5\n        /* \"EHealth.sol\":7146:7185  _address == doctorsHospital[i].hospital */\n      0xffffffffffffffffffffffffffffffffffffffff\n      and\n      eq\n        /* \"EHealth.sol\":7143:7246  if(_address == doctorsHospital[i].hospital){\r... */\n      iszero\n      tag_415\n      jumpi\n        /* \"EHealth.sol\":7212:7227  doctorsHospital */\n      0x06\n        /* \"EHealth.sol\":7228:7229  i */\n      dup2\n        /* \"EHealth.sol\":7212:7230  doctorsHospital[i] */\n      dup2\n      sload\n      dup2\n      lt\n      tag_416\n      jumpi\n      invalid\n    tag_416:\n      swap1\n      0x00\n      mstore\n      keccak256(0x00, 0x20)\n      swap1\n      0x03\n      mul\n      add\n        /* \"EHealth.sol\":7205:7230  ret[i]=doctorsHospital[i] */\n      mload(0x40)\n      dup1\n      0x80\n      add\n      0x40\n      mstore\n      swap1\n      dup2\n      0x00\n      dup3\n      add\n      0x00\n      swap1\n      sload\n      swap1\n      0x0100\n      exp\n      swap1\n      div\n      0xffffffffffffffffffffffffffffffffffffffff\n      and\n      0xffffffffffffffffffffffffffffffffffffffff\n      and\n      0xffffffffffffffffffffffffffffffffffffffff\n      and\n      dup2\n      mstore\n      0x20\n      add\n      0x01\n      dup3\n      add\n      dup1\n      sload\n      0x01\n      dup2\n      0x01\n      and\n      iszero\n      0x0100\n      mul\n      sub\n      and\n      0x02\n      swap1\n      div\n      dup1\n      0x1f\n      add\n      0x20\n      dup1\n      swap2\n      div\n      mul\n      0x20\n      add\n      mload(0x40)\n      swap1\n      dup2\n      add\n      0x40\n      mstore\n      dup1\n      swap3\n      swap2\n      swap1\n      dup2\n      dup2\n      mstore\n      0x20\n      add\n      dup3\n      dup1\n      sload\n      0x01\n      dup2\n      0x01\n      and\n      iszero\n      0x0100\n      mul\n      sub\n      and\n      0x02\n      swap1\n      div\n      dup1\n      iszero\n      tag_418\n      jumpi\n      dup1\n      0x1f\n      lt\n      tag_419\n      jumpi\n      0x0100\n      dup1\n      dup4\n      sload\n      div\n      mul\n      dup4\n      mstore\n      swap2\n      0x20\n      add\n      swap2\n      jump(tag_418)\n    tag_419:\n      dup3\n      add\n      swap2\n      swap1\n      0x00\n      mstore\n      keccak256(0x00, 0x20)\n      swap1\n    tag_420:\n      dup2\n      sload\n      dup2\n      mstore\n      swap1\n      0x01\n      add\n      swap1\n      0x20\n      add\n      dup1\n      dup4\n      gt\n      tag_420\n      jumpi\n      dup3\n      swap1\n      sub\n      0x1f\n      and\n      dup3\n      add\n      swap2\n    tag_418:\n      pop\n      pop\n      pop\n      pop\n      pop\n      dup2\n      mstore\n      0x20\n      add\n      0x02\n      dup3\n      add\n      0x00\n      swap1\n      sload\n      swap1\n      0x0100\n      exp\n      swap1\n      div\n      0xffffffffffffffffffffffffffffffffffffffff\n      and\n      0xffffffffffffffffffffffffffffffffffffffff\n      and\n      0xffffffffffffffffffffffffffffffffffffffff\n      and\n      dup2\n      mstore\n      0x20\n      add\n      0x02\n      dup3\n      add\n      0x14\n      swap1\n      sload\n      swap1\n      0x0100\n      exp\n      swap1\n      div\n      0xff\n      and\n      iszero\n      iszero\n      iszero\n      iszero\n      dup2\n      mstore\n      pop\n      pop\n        /* \"EHealth.sol\":7205:7208  ret */\n      dup3\n        /* \"EHealth.sol\":7209:7210  i */\n      dup3\n        /* \"EHealth.sol\":7205:7211  ret[i] */\n      dup2\n      mload\n      dup2\n      lt\n      tag_421\n      jumpi\n      invalid\n    tag_421:\n      0x20\n      mul\n      0x20\n      add\n      add\n        /* \"EHealth.sol\":7205:7230  ret[i]=doctorsHospital[i] */\n      dup2\n      swap1\n      mstore\n      pop\n        /* \"EHealth.sol\":7143:7246  if(_address == doctorsHospital[i].hospital){\r... */\n    tag_415:\n        /* \"EHealth.sol\":7123:7126  i++ */\n      dup1\n      dup1\n      0x01\n      add\n      swap2\n      pop\n      pop\n        /* \"EHealth.sol\":7079:7257  for (uint i = 0; i< doctorsHospital.length; i++) {\r... */\n      jump(tag_410)\n    tag_411:\n      pop\n        /* \"EHealth.sol\":7274:7277  ret */\n      dup1\n        /* \"EHealth.sol\":7267:7277  return ret */\n      swap2\n      pop\n      pop\n        /* \"EHealth.sol\":6911:7285  function getAllDoctorsInHospital(address _address) public view returns (Doctor[] memory){\r... */\n      swap2\n      swap1\n      pop\n      jump\t// out\n        /* \"EHealth.sol\":536:569  Hospital[] public hospitalCenters */\n    tag_124:\n      0x04\n      dup2\n      dup2\n      sload\n      dup2\n      lt\n      tag_422\n      jumpi\n      0x00\n      dup1\n      revert\n    tag_422:\n      swap1\n      0x00\n      mstore\n      keccak256(0x00, 0x20)\n      swap1\n      0x06\n      mul\n      add\n      0x00\n      swap2\n      pop\n      swap1\n      pop\n      dup1\n      0x00\n      add\n      0x00\n      swap1\n      sload\n      swap1\n      0x0100\n      exp\n      swap1\n      div\n      0xffffffffffffffffffffffffffffffffffffffff\n      and\n      swap1\n      dup1\n      0x01\n      add\n      dup1\n      sload\n      0x01\n      dup2\n      0x01\n      and\n      iszero\n      0x0100\n      mul\n      sub\n      and\n      0x02\n      swap1\n      div\n      dup1\n      0x1f\n      add\n      0x20\n      dup1\n      swap2\n      div\n      mul\n      0x20\n      add\n      mload(0x40)\n      swap1\n      dup2\n      add\n      0x40\n      mstore\n      dup1\n      swap3\n      swap2\n      swap1\n      dup2\n      dup2\n      mstore\n      0x20\n      add\n      dup3\n      dup1\n      sload\n      0x01\n      dup2\n      0x01\n      and\n      iszero\n      0x0100\n      mul\n      sub\n      and\n      0x02\n      swap1\n      div\n      dup1\n      iszero\n      tag_424\n      jumpi\n      dup1\n      0x1f\n      lt\n      tag_425\n      jumpi\n      0x0100\n      dup1\n      dup4\n      sload\n      div\n      mul\n      dup4\n      mstore\n      swap2\n      0x20\n      add\n      swap2\n      jump(tag_424)\n    tag_425:\n      dup3\n      add\n      swap2\n      swap1\n      0x00\n      mstore\n      keccak256(0x00, 0x20)\n      swap1\n    tag_426:\n      dup2\n      sload\n      dup2\n      mstore\n      swap1\n      0x01\n      add\n      swap1\n      0x20\n      add\n      dup1\n      dup4\n      gt\n      tag_426\n      jumpi\n      dup3\n      swap1\n      sub\n      0x1f\n      and\n      dup3\n      add\n      swap2\n    tag_424:\n      pop\n      pop\n      pop\n      pop\n      pop\n      swap1\n      dup1\n      0x02\n      add\n      dup1\n      sload\n      0x01\n      dup2\n      0x01\n      and\n      iszero\n      0x0100\n      mul\n      sub\n      and\n      0x02\n      swap1\n      div\n      dup1\n      0x1f\n      add\n      0x20\n      dup1\n      swap2\n      div\n      mul\n      0x20\n      add\n      mload(0x40)\n      swap1\n      dup2\n      add\n      0x40\n      mstore\n      dup1\n      swap3\n      swap2\n      swap1\n      dup2\n      dup2\n      mstore\n      0x20\n      add\n      dup3\n      dup1\n      sload\n      0x01\n      dup2\n      0x01\n      and\n      iszero\n      0x0100\n      mul\n      sub\n      and\n      0x02\n      swap1\n      div\n      dup1\n      iszero\n      tag_427\n      jumpi\n      dup1\n      0x1f\n      lt\n      tag_428\n      jumpi\n      0x0100\n      dup1\n      dup4\n      sload\n      div\n      mul\n      dup4\n      mstore\n      swap2\n      0x20\n      add\n      swap2\n      jump(tag_427)\n    tag_428:\n      dup3\n      add\n      swap2\n      swap1\n      0x00\n      mstore\n      keccak256(0x00, 0x20)\n      swap1\n    tag_429:\n      dup2\n      sload\n      dup2\n      mstore\n      swap1\n      0x01\n      add\n      swap1\n      0x20\n      add\n      dup1\n      dup4\n      gt\n      tag_429\n      jumpi\n      dup3\n      swap1\n      sub\n      0x1f\n      and\n      dup3\n      add\n      swap2\n    tag_427:\n      pop\n      pop\n      pop\n      pop\n      pop\n      swap1\n      dup1\n      0x03\n      add\n      dup1\n      sload\n      0x01\n      dup2\n      0x01\n      and\n      iszero\n      0x0100\n      mul\n      sub\n      and\n      0x02\n      swap1\n      div\n      dup1\n      0x1f\n      add\n      0x20\n      dup1\n      swap2\n      div\n      mul\n      0x20\n      add\n      mload(0x40)\n      swap1\n      dup2\n      add\n      0x40\n      mstore\n      dup1\n      swap3\n      swap2\n      swap1\n      dup2\n      dup2\n      mstore\n      0x20\n      add\n      dup3\n      dup1\n      sload\n      0x01\n      dup2\n      0x01\n      and\n      iszero\n      0x0100\n      mul\n      sub\n      and\n      0x02\n      swap1\n      div\n      dup1\n      iszero\n      tag_430\n      jumpi\n      dup1\n      0x1f\n      lt\n      tag_431\n      jumpi\n      0x0100\n      dup1\n      dup4\n      sload\n      div\n      mul\n      dup4\n      mstore\n      swap2\n      0x20\n      add\n      swap2\n      jump(tag_430)\n    tag_431:\n      dup3\n      add\n      swap2\n      swap1\n      0x00\n      mstore\n      keccak256(0x00, 0x20)\n      swap1\n    tag_432:\n      dup2\n      sload\n      dup2\n      mstore\n      swap1\n      0x01\n      add\n      swap1\n      0x20\n      add\n      dup1\n      dup4\n      gt\n      tag_432\n      jumpi\n      dup3\n      swap1\n      sub\n      0x1f\n      and\n      dup3\n      add\n      swap2\n    tag_430:\n      pop\n      pop\n      pop\n      pop\n      pop\n      swap1\n      dup1\n      0x04\n      add\n      sload\n      swap1\n      dup1\n      0x05\n      add\n      0x00\n      swap1\n      sload\n      swap1\n      0x0100\n      exp\n      swap1\n      div\n      0xff\n      and\n      swap1\n      pop\n      dup7\n      jump\t// out\n        /* \"EHealth.sol\":598:638  mapping(address=> Doctor) public Doctors */\n    tag_128:\n      mstore(0x20, 0x05)\n      dup1\n      0x00\n      mstore\n      keccak256(0x00, 0x40)\n      0x00\n      swap2\n      pop\n      swap1\n      pop\n      dup1\n      0x00\n      add\n      0x00\n      swap1\n      sload\n      swap1\n      0x0100\n      exp\n      swap1\n      div\n      0xffffffffffffffffffffffffffffffffffffffff\n      and\n      swap1\n      dup1\n      0x01\n      add\n      dup1\n      sload\n      0x01\n      dup2\n      0x01\n      and\n      iszero\n      0x0100\n      mul\n      sub\n      and\n      0x02\n      swap1\n      div\n      dup1\n      0x1f\n      add\n      0x20\n      dup1\n      swap2\n      div\n      mul\n      0x20\n      add\n      mload(0x40)\n      swap1\n      dup2\n      add\n      0x40\n      mstore\n      dup1\n      swap3\n      swap2\n      swap1\n      dup2\n      dup2\n      mstore\n      0x20\n      add\n      dup3\n      dup1\n      sload\n      0x01\n      dup2\n      0x01\n      and\n      iszero\n      0x0100\n      mul\n      sub\n      and\n      0x02\n      swap1\n      div\n      dup1\n      iszero\n      tag_433\n      jumpi\n      dup1\n      0x1f\n      lt\n      tag_434\n      jumpi\n      0x0100\n      dup1\n      dup4\n      sload\n      div\n      mul\n      dup4\n      mstore\n      swap2\n      0x20\n      add\n      swap2\n      jump(tag_433)\n    tag_434:\n      dup3\n      add\n      swap2\n      swap1\n      0x00\n      mstore\n      keccak256(0x00, 0x20)\n      swap1\n    tag_435:\n      dup2\n      sload\n      dup2\n      mstore\n      swap1\n      0x01\n      add\n      swap1\n      0x20\n      add\n      dup1\n      dup4\n      gt\n      tag_435\n      jumpi\n      dup3\n      swap1\n      sub\n      0x1f\n      and\n      dup3\n      add\n      swap2\n    tag_433:\n      pop\n      pop\n      pop\n      pop\n      pop\n      swap1\n      dup1\n      0x02\n      add\n      0x00\n      swap1\n      sload\n      swap1\n      0x0100\n      exp\n      swap1\n      div\n      0xffffffffffffffffffffffffffffffffffffffff\n      and\n      swap1\n      dup1\n      0x02\n      add\n      0x14\n      swap1\n      sload\n      swap1\n      0x0100\n      exp\n      swap1\n      div\n      0xff\n      and\n      swap1\n      pop\n      dup5\n      jump\t// out\n        /* \"EHealth.sol\":4649:4922  function AddDoctor(address idDoctor, string memory _nameDoctor, address _hospital) public {\r... */\n    tag_133:\n        /* \"EHealth.sol\":4750:4773  FindHospital(_hospital) */\n      tag_437\n        /* \"EHealth.sol\":4763:4772  _hospital */\n      dup2\n        /* \"EHealth.sol\":4750:4762  FindHospital */\n      tag_169\n        /* \"EHealth.sol\":4750:4773  FindHospital(_hospital) */\n      jump\t// in\n    tag_437:\n      pop\n        /* \"EHealth.sol\":4784:4799  doctorsHospital */\n      0x06\n        /* \"EHealth.sol\":4805:4851  Doctor(idDoctor, _nameDoctor, _hospital, true) */\n      mload(0x40)\n      dup1\n      0x80\n      add\n      0x40\n      mstore\n      dup1\n        /* \"EHealth.sol\":4812:4820  idDoctor */\n      dup6\n        /* \"EHealth.sol\":4805:4851  Doctor(idDoctor, _nameDoctor, _hospital, true) */\n      0xffffffffffffffffffffffffffffffffffffffff\n      and\n      dup2\n      mstore\n      0x20\n      add\n        /* \"EHealth.sol\":4822:4833  _nameDoctor */\n      dup5\n        /* \"EHealth.sol\":4805:4851  Doctor(idDoctor, _nameDoctor, _hospital, true) */\n      dup2\n      mstore\n      0x20\n      add\n        /* \"EHealth.sol\":4835:4844  _hospital */\n      dup4\n        /* \"EHealth.sol\":4805:4851  Doctor(idDoctor, _nameDoctor, _hospital, true) */\n      0xffffffffffffffffffffffffffffffffffffffff\n      and\n      dup2\n      mstore\n      0x20\n      add\n        /* \"EHealth.sol\":4846:4850  true */\n      0x01\n        /* \"EHealth.sol\":4805:4851  Doctor(idDoctor, _nameDoctor, _hospital, true) */\n      iszero\n      iszero\n      dup2\n      mstore\n      pop\n        /* \"EHealth.sol\":4784:4852  doctorsHospital.push(Doctor(idDoctor, _nameDoctor, _hospital, true)) */\n      swap1\n      dup1\n      0x01\n      dup2\n      sload\n      add\n      dup1\n      dup3\n      sstore\n      dup1\n      swap2\n      pop\n      pop\n      0x01\n      swap1\n      sub\n      swap1\n      0x00\n      mstore\n      keccak256(0x00, 0x20)\n      swap1\n      0x03\n      mul\n      add\n      0x00\n      swap1\n      swap2\n      swap1\n      swap2\n      swap1\n      swap2\n      pop\n      0x00\n      dup3\n      add\n      mload\n      dup2\n      0x00\n      add\n      exp(0x0100, 0x00)\n      dup2\n      sload\n      dup2\n      0xffffffffffffffffffffffffffffffffffffffff\n      mul\n      not\n      and\n      swap1\n      dup4\n      0xffffffffffffffffffffffffffffffffffffffff\n      and\n      mul\n      or\n      swap1\n      sstore\n      pop\n      0x20\n      dup3\n      add\n      mload\n      dup2\n      0x01\n      add\n      swap1\n      dup1\n      mload\n      swap1\n      0x20\n      add\n      swap1\n      tag_439\n      swap3\n      swap2\n      swap1\n      tag_163\n      jump\t// in\n    tag_439:\n      pop\n      0x40\n      dup3\n      add\n      mload\n      dup2\n      0x02\n      add\n      exp(0x0100, 0x00)\n      dup2\n      sload\n      dup2\n      0xffffffffffffffffffffffffffffffffffffffff\n      mul\n      not\n      and\n      swap1\n      dup4\n      0xffffffffffffffffffffffffffffffffffffffff\n      and\n      mul\n      or\n      swap1\n      sstore\n      pop\n      0x60\n      dup3\n      add\n      mload\n      dup2\n      0x02\n      add\n      exp(0x0100, 0x14)\n      dup2\n      sload\n      dup2\n      0xff\n      mul\n      not\n      and\n      swap1\n      dup4\n      iszero\n      iszero\n      mul\n      or\n      swap1\n      sstore\n      pop\n      pop\n      pop\n        /* \"EHealth.sol\":4868:4914  NewDoctor(idDoctor,_nameDoctor,_hospital,true) */\n      0x4578695497af1a3a1f556f9c89f9f107851cb8e1820e4b336143406b9ba52e3b\n        /* \"EHealth.sol\":4878:4886  idDoctor */\n      dup4\n        /* \"EHealth.sol\":4887:4898  _nameDoctor */\n      dup4\n        /* \"EHealth.sol\":4899:4908  _hospital */\n      dup4\n        /* \"EHealth.sol\":4909:4913  true */\n      0x01\n        /* \"EHealth.sol\":4868:4914  NewDoctor(idDoctor,_nameDoctor,_hospital,true) */\n      mload(0x40)\n      tag_440\n      swap5\n      swap4\n      swap3\n      swap2\n      swap1\n      tag_89\n      jump\t// in\n    tag_440:\n      mload(0x40)\n      dup1\n      swap2\n      sub\n      swap1\n      log1\n        /* \"EHealth.sol\":4649:4922  function AddDoctor(address idDoctor, string memory _nameDoctor, address _hospital) public {\r... */\n      pop\n      pop\n      pop\n      jump\t// out\n        /* \"EHealth.sol\":1092:1121  Sensor[] public sensorsDoctor */\n    tag_136:\n      0x08\n      dup2\n      dup2\n      sload\n      dup2\n      lt\n      tag_441\n      jumpi\n      0x00\n      dup1\n      revert\n    tag_441:\n      swap1\n      0x00\n      mstore\n      keccak256(0x00, 0x20)\n      swap1\n      0x04\n      mul\n      add\n      0x00\n      swap2\n      pop\n      swap1\n      pop\n      dup1\n      0x00\n      add\n      sload\n      swap1\n      dup1\n      0x01\n      add\n      dup1\n      sload\n      0x01\n      dup2\n      0x01\n      and\n      iszero\n      0x0100\n      mul\n      sub\n      and\n      0x02\n      swap1\n      div\n      dup1\n      0x1f\n      add\n      0x20\n      dup1\n      swap2\n      div\n      mul\n      0x20\n      add\n      mload(0x40)\n      swap1\n      dup2\n      add\n      0x40\n      mstore\n      dup1\n      swap3\n      swap2\n      swap1\n      dup2\n      dup2\n      mstore\n      0x20\n      add\n      dup3\n      dup1\n      sload\n      0x01\n      dup2\n      0x01\n      and\n      iszero\n      0x0100\n      mul\n      sub\n      and\n      0x02\n      swap1\n      div\n      dup1\n      iszero\n      tag_443\n      jumpi\n      dup1\n      0x1f\n      lt\n      tag_444\n      jumpi\n      0x0100\n      dup1\n      dup4\n      sload\n      div\n      mul\n      dup4\n      mstore\n      swap2\n      0x20\n      add\n      swap2\n      jump(tag_443)\n    tag_444:\n      dup3\n      add\n      swap2\n      swap1\n      0x00\n      mstore\n      keccak256(0x00, 0x20)\n      swap1\n    tag_445:\n      dup2\n      sload\n      dup2\n      mstore\n      swap1\n      0x01\n      add\n      swap1\n      0x20\n      add\n      dup1\n      dup4\n      gt\n      tag_445\n      jumpi\n      dup3\n      swap1\n      sub\n      0x1f\n      and\n      dup3\n      add\n      swap2\n    tag_443:\n      pop\n      pop\n      pop\n      pop\n      pop\n      swap1\n      dup1\n      0x02\n      add\n      dup1\n      sload\n      0x01\n      dup2\n      0x01\n      and\n      iszero\n      0x0100\n      mul\n      sub\n      and\n      0x02\n      swap1\n      div\n      dup1\n      0x1f\n      add\n      0x20\n      dup1\n      swap2\n      div\n      mul\n      0x20\n      add\n      mload(0x40)\n      swap1\n      dup2\n      add\n      0x40\n      mstore\n      dup1\n      swap3\n      swap2\n      swap1\n      dup2\n      dup2\n      mstore\n      0x20\n      add\n      dup3\n      dup1\n      sload\n      0x01\n      dup2\n      0x01\n      and\n      iszero\n      0x0100\n      mul\n      sub\n      and\n      0x02\n      swap1\n      div\n      dup1\n      iszero\n      tag_446\n      jumpi\n      dup1\n      0x1f\n      lt\n      tag_447\n      jumpi\n      0x0100\n      dup1\n      dup4\n      sload\n      div\n      mul\n      dup4\n      mstore\n      swap2\n      0x20\n      add\n      swap2\n      jump(tag_446)\n    tag_447:\n      dup3\n      add\n      swap2\n      swap1\n      0x00\n      mstore\n      keccak256(0x00, 0x20)\n      swap1\n    tag_448:\n      dup2\n      sload\n      dup2\n      mstore\n      swap1\n      0x01\n      add\n      swap1\n      0x20\n      add\n      dup1\n      dup4\n      gt\n      tag_448\n      jumpi\n      dup3\n      swap1\n      sub\n      0x1f\n      and\n      dup3\n      add\n      swap2\n    tag_446:\n      pop\n      pop\n      pop\n      pop\n      pop\n      swap1\n      dup1\n      0x03\n      add\n      0x00\n      swap1\n      sload\n      swap1\n      0x0100\n      exp\n      swap1\n      div\n      0xffffffffffffffffffffffffffffffffffffffff\n      and\n      swap1\n      dup1\n      0x03\n      add\n      0x14\n      swap1\n      sload\n      swap1\n      0x0100\n      exp\n      swap1\n      div\n      0xff\n      and\n      swap1\n      pop\n      dup6\n      jump\t// out\n        /* \"EHealth.sol\":6598:6869  function getAllDoctors() public view returns (Doctor[] memory){\r... */\n    tag_139:\n        /* \"EHealth.sol\":6644:6659  Doctor[] memory */\n      0x60\n        /* \"EHealth.sol\":6671:6690  Doctor[] memory ret */\n      0x00\n        /* \"EHealth.sol\":6706:6721  doctorsHospital */\n      0x06\n        /* \"EHealth.sol\":6706:6728  doctorsHospital.length */\n      dup1\n      sload\n      swap1\n      pop\n        /* \"EHealth.sol\":6693:6729  new Doctor[](doctorsHospital.length) */\n      0xffffffffffffffff\n      dup2\n      gt\n      dup1\n      iszero\n      tag_450\n      jumpi\n      0x00\n      dup1\n      revert\n    tag_450:\n      pop\n      mload(0x40)\n      swap1\n      dup1\n      dup3\n      mstore\n      dup1\n      0x20\n      mul\n      0x20\n      add\n      dup3\n      add\n      0x40\n      mstore\n      dup1\n      iszero\n      tag_451\n      jumpi\n      dup2\n      0x20\n      add\n    tag_452:\n      tag_453\n      tag_409\n      jump\t// in\n    tag_453:\n      dup2\n      mstore\n      0x20\n      add\n      swap1\n      0x01\n      swap1\n      sub\n      swap1\n      dup2\n      tag_452\n      jumpi\n      swap1\n      pop\n    tag_451:\n      pop\n        /* \"EHealth.sol\":6671:6729  Doctor[] memory ret = new Doctor[](doctorsHospital.length) */\n      swap1\n      pop\n        /* \"EHealth.sol\":6745:6751  uint i */\n      0x00\n        /* \"EHealth.sol\":6740:6841  for (uint i = 0; i< doctorsHospital.length; i++) {\r... */\n    tag_454:\n        /* \"EHealth.sol\":6760:6775  doctorsHospital */\n      0x06\n        /* \"EHealth.sol\":6760:6782  doctorsHospital.length */\n      dup1\n      sload\n      swap1\n      pop\n        /* \"EHealth.sol\":6757:6758  i */\n      dup2\n        /* \"EHealth.sol\":6757:6782  i< doctorsHospital.length */\n      lt\n        /* \"EHealth.sol\":6740:6841  for (uint i = 0; i< doctorsHospital.length; i++) {\r... */\n      iszero\n      tag_455\n      jumpi\n        /* \"EHealth.sol\":6811:6826  doctorsHospital */\n      0x06\n        /* \"EHealth.sol\":6827:6828  i */\n      dup2\n        /* \"EHealth.sol\":6811:6829  doctorsHospital[i] */\n      dup2\n      sload\n      dup2\n      lt\n      tag_457\n      jumpi\n      invalid\n    tag_457:\n      swap1\n      0x00\n      mstore\n      keccak256(0x00, 0x20)\n      swap1\n      0x03\n      mul\n      add\n        /* \"EHealth.sol\":6804:6829  ret[i]=doctorsHospital[i] */\n      mload(0x40)\n      dup1\n      0x80\n      add\n      0x40\n      mstore\n      swap1\n      dup2\n      0x00\n      dup3\n      add\n      0x00\n      swap1\n      sload\n      swap1\n      0x0100\n      exp\n      swap1\n      div\n      0xffffffffffffffffffffffffffffffffffffffff\n      and\n      0xffffffffffffffffffffffffffffffffffffffff\n      and\n      0xffffffffffffffffffffffffffffffffffffffff\n      and\n      dup2\n      mstore\n      0x20\n      add\n      0x01\n      dup3\n      add\n      dup1\n      sload\n      0x01\n      dup2\n      0x01\n      and\n      iszero\n      0x0100\n      mul\n      sub\n      and\n      0x02\n      swap1\n      div\n      dup1\n      0x1f\n      add\n      0x20\n      dup1\n      swap2\n      div\n      mul\n      0x20\n      add\n      mload(0x40)\n      swap1\n      dup2\n      add\n      0x40\n      mstore\n      dup1\n      swap3\n      swap2\n      swap1\n      dup2\n      dup2\n      mstore\n      0x20\n      add\n      dup3\n      dup1\n      sload\n      0x01\n      dup2\n      0x01\n      and\n      iszero\n      0x0100\n      mul\n      sub\n      and\n      0x02\n      swap1\n      div\n      dup1\n      iszero\n      tag_459\n      jumpi\n      dup1\n      0x1f\n      lt\n      tag_460\n      jumpi\n      0x0100\n      dup1\n      dup4\n      sload\n      div\n      mul\n      dup4\n      mstore\n      swap2\n      0x20\n      add\n      swap2\n      jump(tag_459)\n    tag_460:\n      dup3\n      add\n      swap2\n      swap1\n      0x00\n      mstore\n      keccak256(0x00, 0x20)\n      swap1\n    tag_461:\n      dup2\n      sload\n      dup2\n      mstore\n      swap1\n      0x01\n      add\n      swap1\n      0x20\n      add\n      dup1\n      dup4\n      gt\n      tag_461\n      jumpi\n      dup3\n      swap1\n      sub\n      0x1f\n      and\n      dup3\n      add\n      swap2\n    tag_459:\n      pop\n      pop\n      pop\n      pop\n      pop\n      dup2\n      mstore\n      0x20\n      add\n      0x02\n      dup3\n      add\n      0x00\n      swap1\n      sload\n      swap1\n      0x0100\n      exp\n      swap1\n      div\n      0xffffffffffffffffffffffffffffffffffffffff\n      and\n      0xffffffffffffffffffffffffffffffffffffffff\n      and\n      0xffffffffffffffffffffffffffffffffffffffff\n      and\n      dup2\n      mstore\n      0x20\n      add\n      0x02\n      dup3\n      add\n      0x14\n      swap1\n      sload\n      swap1\n      0x0100\n      exp\n      swap1\n      div\n      0xff\n      and\n      iszero\n      iszero\n      iszero\n      iszero\n      dup2\n      mstore\n      pop\n      pop\n        /* \"EHealth.sol\":6804:6807  ret */\n      dup3\n        /* \"EHealth.sol\":6808:6809  i */\n      dup3\n        /* \"EHealth.sol\":6804:6810  ret[i] */\n      dup2\n      mload\n      dup2\n      lt\n      tag_462\n      jumpi\n      invalid\n    tag_462:\n      0x20\n      mul\n      0x20\n      add\n      add\n        /* \"EHealth.sol\":6804:6829  ret[i]=doctorsHospital[i] */\n      dup2\n      swap1\n      mstore\n      pop\n        /* \"EHealth.sol\":6784:6787  i++ */\n      dup1\n      dup1\n      0x01\n      add\n      swap2\n      pop\n      pop\n        /* \"EHealth.sol\":6740:6841  for (uint i = 0; i< doctorsHospital.length; i++) {\r... */\n      jump(tag_454)\n    tag_455:\n      pop\n        /* \"EHealth.sol\":6858:6861  ret */\n      dup1\n        /* \"EHealth.sol\":6851:6861  return ret */\n      swap2\n      pop\n      pop\n        /* \"EHealth.sol\":6598:6869  function getAllDoctors() public view returns (Doctor[] memory){\r... */\n      swap1\n      jump\t// out\n        /* \"EHealth.sol\":7791:8066  function FindSensor(uint _idSensor) internal view returns(uint){\r... */\n    tag_143:\n        /* \"EHealth.sol\":7849:7853  uint */\n      0x00\n        /* \"EHealth.sol\":7869:7875  uint i */\n      dup1\n        /* \"EHealth.sol\":7878:7879  0 */\n      0x00\n        /* \"EHealth.sol\":7869:7879  uint i = 0 */\n      swap1\n      pop\n        /* \"EHealth.sol\":7865:8022  for(uint i = 0 ; i < sensorsDoctor.length ; i++){\r... */\n    tag_464:\n        /* \"EHealth.sol\":7886:7899  sensorsDoctor */\n      0x08\n        /* \"EHealth.sol\":7886:7906  sensorsDoctor.length */\n      dup1\n      sload\n      swap1\n      pop\n        /* \"EHealth.sol\":7882:7883  i */\n      dup2\n        /* \"EHealth.sol\":7882:7906  i < sensorsDoctor.length */\n      lt\n        /* \"EHealth.sol\":7865:8022  for(uint i = 0 ; i < sensorsDoctor.length ; i++){\r... */\n      iszero\n      tag_465\n      jumpi\n        /* \"EHealth.sol\":7958:7967  _idSensor */\n      dup3\n        /* \"EHealth.sol\":7931:7944  sensorsDoctor */\n      0x08\n        /* \"EHealth.sol\":7945:7946  i */\n      dup3\n        /* \"EHealth.sol\":7931:7947  sensorsDoctor[i] */\n      dup2\n      sload\n      dup2\n      lt\n      tag_467\n      jumpi\n      invalid\n    tag_467:\n      swap1\n      0x00\n      mstore\n      keccak256(0x00, 0x20)\n      swap1\n      0x04\n      mul\n      add\n        /* \"EHealth.sol\":7931:7956  sensorsDoctor[i].idSensor */\n      0x00\n      add\n      sload\n        /* \"EHealth.sol\":7931:7967  sensorsDoctor[i].idSensor==_idSensor */\n      eq\n        /* \"EHealth.sol\":7928:8011  if(sensorsDoctor[i].idSensor==_idSensor){\r... */\n      iszero\n      tag_469\n      jumpi\n        /* \"EHealth.sol\":7994:7995  i */\n      dup1\n        /* \"EHealth.sol\":7987:7995  return i */\n      swap2\n      pop\n      pop\n      jump(tag_463)\n        /* \"EHealth.sol\":7928:8011  if(sensorsDoctor[i].idSensor==_idSensor){\r... */\n    tag_469:\n        /* \"EHealth.sol\":7909:7912  i++ */\n      dup1\n      dup1\n      0x01\n      add\n      swap2\n      pop\n      pop\n        /* \"EHealth.sol\":7865:8022  for(uint i = 0 ; i < sensorsDoctor.length ; i++){\r... */\n      jump(tag_464)\n    tag_465:\n      pop\n        /* \"EHealth.sol\":8032:8058  revert('Sensor not found') */\n      mload(0x40)\n      0x08c379a000000000000000000000000000000000000000000000000000000000\n      dup2\n      mstore\n      0x04\n      add\n      tag_470\n      swap1\n      tag_471\n      jump\t// in\n    tag_470:\n      mload(0x40)\n      dup1\n      swap2\n      sub\n      swap1\n      revert\n        /* \"EHealth.sol\":7791:8066  function FindSensor(uint _idSensor) internal view returns(uint){\r... */\n    tag_463:\n      swap2\n      swap1\n      pop\n      jump\t// out\n        /* \"EHealth.sol\":4949:5219  function FindDoctor(address _id) internal view returns(uint){\r... */\n    tag_160:\n        /* \"EHealth.sol\":5004:5008  uint */\n      0x00\n        /* \"EHealth.sol\":5024:5030  uint i */\n      dup1\n        /* \"EHealth.sol\":5033:5034  0 */\n      0x00\n        /* \"EHealth.sol\":5024:5034  uint i = 0 */\n      swap1\n      pop\n        /* \"EHealth.sol\":5020:5175  for(uint i = 0 ; i < doctorsHospital.length ; i++){\r... */\n    tag_473:\n        /* \"EHealth.sol\":5041:5056  doctorsHospital */\n      0x06\n        /* \"EHealth.sol\":5041:5063  doctorsHospital.length */\n      dup1\n      sload\n      swap1\n      pop\n        /* \"EHealth.sol\":5037:5038  i */\n      dup2\n        /* \"EHealth.sol\":5037:5063  i < doctorsHospital.length */\n      lt\n        /* \"EHealth.sol\":5020:5175  for(uint i = 0 ; i < doctorsHospital.length ; i++){\r... */\n      iszero\n      tag_474\n      jumpi\n        /* \"EHealth.sol\":5117:5120  _id */\n      dup3\n        /* \"EHealth.sol\":5088:5120  doctorsHospital[i].idDoctor==_id */\n      0xffffffffffffffffffffffffffffffffffffffff\n      and\n        /* \"EHealth.sol\":5088:5103  doctorsHospital */\n      0x06\n        /* \"EHealth.sol\":5104:5105  i */\n      dup3\n        /* \"EHealth.sol\":5088:5106  doctorsHospital[i] */\n      dup2\n      sload\n      dup2\n      lt\n      tag_476\n      jumpi\n      invalid\n    tag_476:\n      swap1\n      0x00\n      mstore\n      keccak256(0x00, 0x20)\n      swap1\n      0x03\n      mul\n      add\n        /* \"EHealth.sol\":5088:5115  doctorsHospital[i].idDoctor */\n      0x00\n      add\n      0x00\n      swap1\n      sload\n      swap1\n      0x0100\n      exp\n      swap1\n      div\n      0xffffffffffffffffffffffffffffffffffffffff\n      and\n        /* \"EHealth.sol\":5088:5120  doctorsHospital[i].idDoctor==_id */\n      0xffffffffffffffffffffffffffffffffffffffff\n      and\n      eq\n        /* \"EHealth.sol\":5085:5164  if(doctorsHospital[i].idDoctor==_id){\r... */\n      iszero\n      tag_478\n      jumpi\n        /* \"EHealth.sol\":5147:5148  i */\n      dup1\n        /* \"EHealth.sol\":5140:5148  return i */\n      swap2\n      pop\n      pop\n      jump(tag_472)\n        /* \"EHealth.sol\":5085:5164  if(doctorsHospital[i].idDoctor==_id){\r... */\n    tag_478:\n        /* \"EHealth.sol\":5066:5069  i++ */\n      dup1\n      dup1\n      0x01\n      add\n      swap2\n      pop\n      pop\n        /* \"EHealth.sol\":5020:5175  for(uint i = 0 ; i < doctorsHospital.length ; i++){\r... */\n      jump(tag_473)\n    tag_474:\n      pop\n        /* \"EHealth.sol\":5185:5211  revert('Doctor not found') */\n      mload(0x40)\n      0x08c379a000000000000000000000000000000000000000000000000000000000\n      dup2\n      mstore\n      0x04\n      add\n      tag_479\n      swap1\n      tag_480\n      jump\t// in\n    tag_479:\n      mload(0x40)\n      dup1\n      swap2\n      sub\n      swap1\n      revert\n        /* \"EHealth.sol\":4949:5219  function FindDoctor(address _id) internal view returns(uint){\r... */\n    tag_472:\n      swap2\n      swap1\n      pop\n      jump\t// out\n        /* \"EHealth.sol\":2138:2424  function FindHospital(address _address) internal view returns(uint){\r... */\n    tag_169:\n        /* \"EHealth.sol\":2200:2204  uint */\n      0x00\n        /* \"EHealth.sol\":2220:2226  uint i */\n      dup1\n        /* \"EHealth.sol\":2229:2230  0 */\n      0x00\n        /* \"EHealth.sol\":2220:2230  uint i = 0 */\n      swap1\n      pop\n        /* \"EHealth.sol\":2216:2378  for(uint i = 0 ; i < hospitalCenters.length ; i++){\r... */\n    tag_482:\n        /* \"EHealth.sol\":2237:2252  hospitalCenters */\n      0x04\n        /* \"EHealth.sol\":2237:2259  hospitalCenters.length */\n      dup1\n      sload\n      swap1\n      pop\n        /* \"EHealth.sol\":2233:2234  i */\n      dup2\n        /* \"EHealth.sol\":2233:2259  i < hospitalCenters.length */\n      lt\n        /* \"EHealth.sol\":2216:2378  for(uint i = 0 ; i < hospitalCenters.length ; i++){\r... */\n      iszero\n      tag_483\n      jumpi\n        /* \"EHealth.sol\":2315:2323  _address */\n      dup3\n        /* \"EHealth.sol\":2284:2323  hospitalCenters[i].idHospital==_address */\n      0xffffffffffffffffffffffffffffffffffffffff\n      and\n        /* \"EHealth.sol\":2284:2299  hospitalCenters */\n      0x04\n        /* \"EHealth.sol\":2300:2301  i */\n      dup3\n        /* \"EHealth.sol\":2284:2302  hospitalCenters[i] */\n      dup2\n      sload\n      dup2\n      lt\n      tag_485\n      jumpi\n      invalid\n    tag_485:\n      swap1\n      0x00\n      mstore\n      keccak256(0x00, 0x20)\n      swap1\n      0x06\n      mul\n      add\n        /* \"EHealth.sol\":2284:2313  hospitalCenters[i].idHospital */\n      0x00\n      add\n      0x00\n      swap1\n      sload\n      swap1\n      0x0100\n      exp\n      swap1\n      div\n      0xffffffffffffffffffffffffffffffffffffffff\n      and\n        /* \"EHealth.sol\":2284:2323  hospitalCenters[i].idHospital==_address */\n      0xffffffffffffffffffffffffffffffffffffffff\n      and\n      eq\n        /* \"EHealth.sol\":2281:2367  if(hospitalCenters[i].idHospital==_address){\r... */\n      iszero\n      tag_487\n      jumpi\n        /* \"EHealth.sol\":2350:2351  i */\n      dup1\n        /* \"EHealth.sol\":2343:2351  return i */\n      swap2\n      pop\n      pop\n      jump(tag_481)\n        /* \"EHealth.sol\":2281:2367  if(hospitalCenters[i].idHospital==_address){\r... */\n    tag_487:\n        /* \"EHealth.sol\":2262:2265  i++ */\n      dup1\n      dup1\n      0x01\n      add\n      swap2\n      pop\n      pop\n        /* \"EHealth.sol\":2216:2378  for(uint i = 0 ; i < hospitalCenters.length ; i++){\r... */\n      jump(tag_482)\n    tag_483:\n      pop\n        /* \"EHealth.sol\":2388:2416  revert('Hospital not found') */\n      mload(0x40)\n      0x08c379a000000000000000000000000000000000000000000000000000000000\n      dup2\n      mstore\n      0x04\n      add\n      tag_488\n      swap1\n      tag_489\n      jump\t// in\n    tag_488:\n      mload(0x40)\n      dup1\n      swap2\n      sub\n      swap1\n      revert\n        /* \"EHealth.sol\":2138:2424  function FindHospital(address _address) internal view returns(uint){\r... */\n    tag_481:\n      swap2\n      swap1\n      pop\n      jump\t// out\n    tag_163:\n      dup3\n      dup1\n      sload\n      0x01\n      dup2\n      0x01\n      and\n      iszero\n      0x0100\n      mul\n      sub\n      and\n      0x02\n      swap1\n      div\n      swap1\n      0x00\n      mstore\n      keccak256(0x00, 0x20)\n      swap1\n      0x1f\n      add\n      0x20\n      swap1\n      div\n      dup2\n      add\n      swap3\n      dup3\n      tag_491\n      jumpi\n      0x00\n      dup6\n      sstore\n      jump(tag_490)\n    tag_491:\n      dup3\n      0x1f\n      lt\n      tag_492\n      jumpi\n      dup1\n      mload\n      not(0xff)\n      and\n      dup4\n      dup1\n      add\n      or\n      dup6\n      sstore\n      jump(tag_490)\n    tag_492:\n      dup3\n      dup1\n      add\n      0x01\n      add\n      dup6\n      sstore\n      dup3\n      iszero\n      tag_490\n      jumpi\n      swap2\n      dup3\n      add\n    tag_493:\n      dup3\n      dup2\n      gt\n      iszero\n      tag_494\n      jumpi\n      dup3\n      mload\n      dup3\n      sstore\n      swap2\n      0x20\n      add\n      swap2\n      swap1\n      0x01\n      add\n      swap1\n      jump(tag_493)\n    tag_494:\n    tag_490:\n      pop\n      swap1\n      pop\n      tag_495\n      swap2\n      swap1\n      tag_496\n      jump\t// in\n    tag_495:\n      pop\n      swap1\n      jump\t// out\n    tag_191:\n      mload(0x40)\n      dup1\n      0xc0\n      add\n      0x40\n      mstore\n      dup1\n      and(0xffffffffffffffffffffffffffffffffffffffff, 0x00)\n      dup2\n      mstore\n      0x20\n      add\n      0x60\n      dup2\n      mstore\n      0x20\n      add\n      0x60\n      dup2\n      mstore\n      0x20\n      add\n      0x60\n      dup2\n      mstore\n      0x20\n      add\n      0x00\n      dup2\n      mstore\n      0x20\n      add\n      iszero(iszero(0x00))\n      dup2\n      mstore\n      pop\n      swap1\n      jump\t// out\n    tag_212:\n      mload(0x40)\n      dup1\n      0xa0\n      add\n      0x40\n      mstore\n      dup1\n      0x00\n      dup2\n      mstore\n      0x20\n      add\n      0x60\n      dup2\n      mstore\n      0x20\n      add\n      0x60\n      dup2\n      mstore\n      0x20\n      add\n      and(0xffffffffffffffffffffffffffffffffffffffff, 0x00)\n      dup2\n      mstore\n      0x20\n      add\n      iszero(iszero(0x00))\n      dup2\n      mstore\n      pop\n      swap1\n      jump\t// out\n    tag_409:\n      mload(0x40)\n      dup1\n      0x80\n      add\n      0x40\n      mstore\n      dup1\n      and(0xffffffffffffffffffffffffffffffffffffffff, 0x00)\n      dup2\n      mstore\n      0x20\n      add\n      0x60\n      dup2\n      mstore\n      0x20\n      add\n      and(0xffffffffffffffffffffffffffffffffffffffff, 0x00)\n      dup2\n      mstore\n      0x20\n      add\n      iszero(iszero(0x00))\n      dup2\n      mstore\n      pop\n      swap1\n      jump\t// out\n    tag_496:\n    tag_497:\n      dup1\n      dup3\n      gt\n      iszero\n      tag_498\n      jumpi\n      0x00\n      dup2\n      0x00\n      swap1\n      sstore\n      pop\n      0x01\n      add\n      jump(tag_497)\n    tag_498:\n      pop\n      swap1\n      jump\t// out\n        /* \"#utility.yul\":7:351   */\n    tag_500:\n      0x00\n        /* \"#utility.yul\":110:175   */\n      tag_502\n        /* \"#utility.yul\":125:174   */\n      tag_503\n        /* \"#utility.yul\":167:173   */\n      dup5\n        /* \"#utility.yul\":125:174   */\n      tag_504\n      jump\t// in\n    tag_503:\n        /* \"#utility.yul\":110:175   */\n      tag_505\n      jump\t// in\n    tag_502:\n        /* \"#utility.yul\":101:175   */\n      swap1\n      pop\n        /* \"#utility.yul\":198:204   */\n      dup3\n        /* \"#utility.yul\":191:196   */\n      dup2\n        /* \"#utility.yul\":184:205   */\n      mstore\n        /* \"#utility.yul\":236:240   */\n      0x20\n        /* \"#utility.yul\":229:234   */\n      dup2\n        /* \"#utility.yul\":225:241   */\n      add\n        /* \"#utility.yul\":274:277   */\n      dup5\n        /* \"#utility.yul\":265:271   */\n      dup5\n        /* \"#utility.yul\":260:263   */\n      dup5\n        /* \"#utility.yul\":256:272   */\n      add\n        /* \"#utility.yul\":253:278   */\n      gt\n        /* \"#utility.yul\":250:252   */\n      iszero\n      tag_506\n      jumpi\n        /* \"#utility.yul\":291:292   */\n      0x00\n        /* \"#utility.yul\":288:289   */\n      dup1\n        /* \"#utility.yul\":281:293   */\n      revert\n        /* \"#utility.yul\":250:252   */\n    tag_506:\n        /* \"#utility.yul\":304:345   */\n      tag_507\n        /* \"#utility.yul\":338:344   */\n      dup5\n        /* \"#utility.yul\":333:336   */\n      dup3\n        /* \"#utility.yul\":328:331   */\n      dup6\n        /* \"#utility.yul\":304:345   */\n      tag_508\n      jump\t// in\n    tag_507:\n        /* \"#utility.yul\":91:351   */\n      pop\n      swap4\n      swap3\n      pop\n      pop\n      pop\n      jump\t// out\n        /* \"#utility.yul\":357:496   */\n    tag_509:\n      0x00\n        /* \"#utility.yul\":441:447   */\n      dup2\n        /* \"#utility.yul\":428:448   */\n      calldataload\n        /* \"#utility.yul\":419:448   */\n      swap1\n      pop\n        /* \"#utility.yul\":457:490   */\n      tag_511\n        /* \"#utility.yul\":484:489   */\n      dup2\n        /* \"#utility.yul\":457:490   */\n      tag_512\n      jump\t// in\n    tag_511:\n        /* \"#utility.yul\":409:496   */\n      swap3\n      swap2\n      pop\n      pop\n      jump\t// out\n        /* \"#utility.yul\":502:635   */\n    tag_513:\n      0x00\n        /* \"#utility.yul\":583:589   */\n      dup2\n        /* \"#utility.yul\":570:590   */\n      calldataload\n        /* \"#utility.yul\":561:590   */\n      swap1\n      pop\n        /* \"#utility.yul\":599:629   */\n      tag_515\n        /* \"#utility.yul\":623:628   */\n      dup2\n        /* \"#utility.yul\":599:629   */\n      tag_516\n      jump\t// in\n    tag_515:\n        /* \"#utility.yul\":551:635   */\n      swap3\n      swap2\n      pop\n      pop\n      jump\t// out\n        /* \"#utility.yul\":655:928   */\n    tag_517:\n      0x00\n        /* \"#utility.yul\":760:763   */\n      dup3\n        /* \"#utility.yul\":753:757   */\n      0x1f\n        /* \"#utility.yul\":745:751   */\n      dup4\n        /* \"#utility.yul\":741:758   */\n      add\n        /* \"#utility.yul\":737:764   */\n      slt\n        /* \"#utility.yul\":727:729   */\n      tag_519\n      jumpi\n        /* \"#utility.yul\":778:779   */\n      0x00\n        /* \"#utility.yul\":775:776   */\n      dup1\n        /* \"#utility.yul\":768:780   */\n      revert\n        /* \"#utility.yul\":727:729   */\n    tag_519:\n        /* \"#utility.yul\":818:824   */\n      dup2\n        /* \"#utility.yul\":805:825   */\n      calldataload\n        /* \"#utility.yul\":843:922   */\n      tag_520\n        /* \"#utility.yul\":918:921   */\n      dup5\n        /* \"#utility.yul\":910:916   */\n      dup3\n        /* \"#utility.yul\":903:907   */\n      0x20\n        /* \"#utility.yul\":895:901   */\n      dup7\n        /* \"#utility.yul\":891:908   */\n      add\n        /* \"#utility.yul\":843:922   */\n      tag_500\n      jump\t// in\n    tag_520:\n        /* \"#utility.yul\":834:922   */\n      swap2\n      pop\n        /* \"#utility.yul\":717:928   */\n      pop\n      swap3\n      swap2\n      pop\n      pop\n      jump\t// out\n        /* \"#utility.yul\":934:1073   */\n    tag_521:\n      0x00\n        /* \"#utility.yul\":1018:1024   */\n      dup2\n        /* \"#utility.yul\":1005:1025   */\n      calldataload\n        /* \"#utility.yul\":996:1025   */\n      swap1\n      pop\n        /* \"#utility.yul\":1034:1067   */\n      tag_523\n        /* \"#utility.yul\":1061:1066   */\n      dup2\n        /* \"#utility.yul\":1034:1067   */\n      tag_524\n      jump\t// in\n    tag_523:\n        /* \"#utility.yul\":986:1073   */\n      swap3\n      swap2\n      pop\n      pop\n      jump\t// out\n        /* \"#utility.yul\":1079:1341   */\n    tag_50:\n      0x00\n        /* \"#utility.yul\":1187:1189   */\n      0x20\n        /* \"#utility.yul\":1175:1184   */\n      dup3\n        /* \"#utility.yul\":1166:1173   */\n      dup5\n        /* \"#utility.yul\":1162:1185   */\n      sub\n        /* \"#utility.yul\":1158:1190   */\n      slt\n        /* \"#utility.yul\":1155:1157   */\n      iszero\n      tag_526\n      jumpi\n        /* \"#utility.yul\":1203:1204   */\n      0x00\n        /* \"#utility.yul\":1200:1201   */\n      dup1\n        /* \"#utility.yul\":1193:1205   */\n      revert\n        /* \"#utility.yul\":1155:1157   */\n    tag_526:\n        /* \"#utility.yul\":1246:1247   */\n      0x00\n        /* \"#utility.yul\":1271:1324   */\n      tag_527\n        /* \"#utility.yul\":1316:1323   */\n      dup5\n        /* \"#utility.yul\":1307:1313   */\n      dup3\n        /* \"#utility.yul\":1296:1305   */\n      dup6\n        /* \"#utility.yul\":1292:1314   */\n      add\n        /* \"#utility.yul\":1271:1324   */\n      tag_509\n      jump\t// in\n    tag_527:\n        /* \"#utility.yul\":1261:1324   */\n      swap2\n      pop\n        /* \"#utility.yul\":1217:1334   */\n      pop\n        /* \"#utility.yul\":1145:1341   */\n      swap3\n      swap2\n      pop\n      pop\n      jump\t// out\n        /* \"#utility.yul\":1347:2012   */\n    tag_132:\n      0x00\n      dup1\n      0x00\n        /* \"#utility.yul\":1499:1501   */\n      0x60\n        /* \"#utility.yul\":1487:1496   */\n      dup5\n        /* \"#utility.yul\":1478:1485   */\n      dup7\n        /* \"#utility.yul\":1474:1497   */\n      sub\n        /* \"#utility.yul\":1470:1502   */\n      slt\n        /* \"#utility.yul\":1467:1469   */\n      iszero\n      tag_529\n      jumpi\n        /* \"#utility.yul\":1515:1516   */\n      0x00\n        /* \"#utility.yul\":1512:1513   */\n      dup1\n        /* \"#utility.yul\":1505:1517   */\n      revert\n        /* \"#utility.yul\":1467:1469   */\n    tag_529:\n        /* \"#utility.yul\":1558:1559   */\n      0x00\n        /* \"#utility.yul\":1583:1636   */\n      tag_530\n        /* \"#utility.yul\":1628:1635   */\n      dup7\n        /* \"#utility.yul\":1619:1625   */\n      dup3\n        /* \"#utility.yul\":1608:1617   */\n      dup8\n        /* \"#utility.yul\":1604:1626   */\n      add\n        /* \"#utility.yul\":1583:1636   */\n      tag_509\n      jump\t// in\n    tag_530:\n        /* \"#utility.yul\":1573:1636   */\n      swap4\n      pop\n        /* \"#utility.yul\":1529:1646   */\n      pop\n        /* \"#utility.yul\":1713:1715   */\n      0x20\n        /* \"#utility.yul\":1702:1711   */\n      dup5\n        /* \"#utility.yul\":1698:1716   */\n      add\n        /* \"#utility.yul\":1685:1717   */\n      calldataload\n        /* \"#utility.yul\":1744:1762   */\n      0xffffffffffffffff\n        /* \"#utility.yul\":1736:1742   */\n      dup2\n        /* \"#utility.yul\":1733:1763   */\n      gt\n        /* \"#utility.yul\":1730:1732   */\n      iszero\n      tag_531\n      jumpi\n        /* \"#utility.yul\":1776:1777   */\n      0x00\n        /* \"#utility.yul\":1773:1774   */\n      dup1\n        /* \"#utility.yul\":1766:1778   */\n      revert\n        /* \"#utility.yul\":1730:1732   */\n    tag_531:\n        /* \"#utility.yul\":1804:1867   */\n      tag_532\n        /* \"#utility.yul\":1859:1866   */\n      dup7\n        /* \"#utility.yul\":1850:1856   */\n      dup3\n        /* \"#utility.yul\":1839:1848   */\n      dup8\n        /* \"#utility.yul\":1835:1857   */\n      add\n        /* \"#utility.yul\":1804:1867   */\n      tag_517\n      jump\t// in\n    tag_532:\n        /* \"#utility.yul\":1794:1867   */\n      swap3\n      pop\n        /* \"#utility.yul\":1656:1877   */\n      pop\n        /* \"#utility.yul\":1916:1918   */\n      0x40\n        /* \"#utility.yul\":1942:1995   */\n      tag_533\n        /* \"#utility.yul\":1987:1994   */\n      dup7\n        /* \"#utility.yul\":1978:1984   */\n      dup3\n        /* \"#utility.yul\":1967:1976   */\n      dup8\n        /* \"#utility.yul\":1963:1985   */\n      add\n        /* \"#utility.yul\":1942:1995   */\n      tag_509\n      jump\t// in\n    tag_533:\n        /* \"#utility.yul\":1932:1995   */\n      swap2\n      pop\n        /* \"#utility.yul\":1887:2005   */\n      pop\n        /* \"#utility.yul\":1457:2012   */\n      swap3\n      pop\n      swap3\n      pop\n      swap3\n      jump\t// out\n        /* \"#utility.yul\":2018:2823   */\n    tag_62:\n      0x00\n      dup1\n      0x00\n      dup1\n        /* \"#utility.yul\":2184:2187   */\n      0x80\n        /* \"#utility.yul\":2172:2181   */\n      dup6\n        /* \"#utility.yul\":2163:2170   */\n      dup8\n        /* \"#utility.yul\":2159:2182   */\n      sub\n        /* \"#utility.yul\":2155:2188   */\n      slt\n        /* \"#utility.yul\":2152:2154   */\n      iszero\n      tag_535\n      jumpi\n        /* \"#utility.yul\":2201:2202   */\n      0x00\n        /* \"#utility.yul\":2198:2199   */\n      dup1\n        /* \"#utility.yul\":2191:2203   */\n      revert\n        /* \"#utility.yul\":2152:2154   */\n    tag_535:\n        /* \"#utility.yul\":2244:2245   */\n      0x00\n        /* \"#utility.yul\":2269:2322   */\n      tag_536\n        /* \"#utility.yul\":2314:2321   */\n      dup8\n        /* \"#utility.yul\":2305:2311   */\n      dup3\n        /* \"#utility.yul\":2294:2303   */\n      dup9\n        /* \"#utility.yul\":2290:2312   */\n      add\n        /* \"#utility.yul\":2269:2322   */\n      tag_509\n      jump\t// in\n    tag_536:\n        /* \"#utility.yul\":2259:2322   */\n      swap5\n      pop\n        /* \"#utility.yul\":2215:2332   */\n      pop\n        /* \"#utility.yul\":2399:2401   */\n      0x20\n        /* \"#utility.yul\":2388:2397   */\n      dup6\n        /* \"#utility.yul\":2384:2402   */\n      add\n        /* \"#utility.yul\":2371:2403   */\n      calldataload\n        /* \"#utility.yul\":2430:2448   */\n      0xffffffffffffffff\n        /* \"#utility.yul\":2422:2428   */\n      dup2\n        /* \"#utility.yul\":2419:2449   */\n      gt\n        /* \"#utility.yul\":2416:2418   */\n      iszero\n      tag_537\n      jumpi\n        /* \"#utility.yul\":2462:2463   */\n      0x00\n        /* \"#utility.yul\":2459:2460   */\n      dup1\n        /* \"#utility.yul\":2452:2464   */\n      revert\n        /* \"#utility.yul\":2416:2418   */\n    tag_537:\n        /* \"#utility.yul\":2490:2553   */\n      tag_538\n        /* \"#utility.yul\":2545:2552   */\n      dup8\n        /* \"#utility.yul\":2536:2542   */\n      dup3\n        /* \"#utility.yul\":2525:2534   */\n      dup9\n        /* \"#utility.yul\":2521:2543   */\n      add\n        /* \"#utility.yul\":2490:2553   */\n      tag_517\n      jump\t// in\n    tag_538:\n        /* \"#utility.yul\":2480:2553   */\n      swap4\n      pop\n        /* \"#utility.yul\":2342:2563   */\n      pop\n        /* \"#utility.yul\":2602:2604   */\n      0x40\n        /* \"#utility.yul\":2628:2681   */\n      tag_539\n        /* \"#utility.yul\":2673:2680   */\n      dup8\n        /* \"#utility.yul\":2664:2670   */\n      dup3\n        /* \"#utility.yul\":2653:2662   */\n      dup9\n        /* \"#utility.yul\":2649:2671   */\n      add\n        /* \"#utility.yul\":2628:2681   */\n      tag_509\n      jump\t// in\n    tag_539:\n        /* \"#utility.yul\":2618:2681   */\n      swap3\n      pop\n        /* \"#utility.yul\":2573:2691   */\n      pop\n        /* \"#utility.yul\":2730:2732   */\n      0x60\n        /* \"#utility.yul\":2756:2806   */\n      tag_540\n        /* \"#utility.yul\":2798:2805   */\n      dup8\n        /* \"#utility.yul\":2789:2795   */\n      dup3\n        /* \"#utility.yul\":2778:2787   */\n      dup9\n        /* \"#utility.yul\":2774:2796   */\n      add\n        /* \"#utility.yul\":2756:2806   */\n      tag_513\n      jump\t// in\n    tag_540:\n        /* \"#utility.yul\":2746:2806   */\n      swap2\n      pop\n        /* \"#utility.yul\":2701:2816   */\n      pop\n        /* \"#utility.yul\":2142:2823   */\n      swap3\n      swap6\n      swap2\n      swap5\n      pop\n      swap3\n      pop\n      jump\t// out\n        /* \"#utility.yul\":2829:4012   */\n    tag_107:\n      0x00\n      dup1\n      0x00\n      dup1\n      0x00\n        /* \"#utility.yul\":3035:3038   */\n      0xa0\n        /* \"#utility.yul\":3023:3032   */\n      dup7\n        /* \"#utility.yul\":3014:3021   */\n      dup9\n        /* \"#utility.yul\":3010:3033   */\n      sub\n        /* \"#utility.yul\":3006:3039   */\n      slt\n        /* \"#utility.yul\":3003:3005   */\n      iszero\n      tag_542\n      jumpi\n        /* \"#utility.yul\":3052:3053   */\n      0x00\n        /* \"#utility.yul\":3049:3050   */\n      dup1\n        /* \"#utility.yul\":3042:3054   */\n      revert\n        /* \"#utility.yul\":3003:3005   */\n    tag_542:\n        /* \"#utility.yul\":3095:3096   */\n      0x00\n        /* \"#utility.yul\":3120:3173   */\n      tag_543\n        /* \"#utility.yul\":3165:3172   */\n      dup9\n        /* \"#utility.yul\":3156:3162   */\n      dup3\n        /* \"#utility.yul\":3145:3154   */\n      dup10\n        /* \"#utility.yul\":3141:3163   */\n      add\n        /* \"#utility.yul\":3120:3173   */\n      tag_509\n      jump\t// in\n    tag_543:\n        /* \"#utility.yul\":3110:3173   */\n      swap6\n      pop\n        /* \"#utility.yul\":3066:3183   */\n      pop\n        /* \"#utility.yul\":3250:3252   */\n      0x20\n        /* \"#utility.yul\":3239:3248   */\n      dup7\n        /* \"#utility.yul\":3235:3253   */\n      add\n        /* \"#utility.yul\":3222:3254   */\n      calldataload\n        /* \"#utility.yul\":3281:3299   */\n      0xffffffffffffffff\n        /* \"#utility.yul\":3273:3279   */\n      dup2\n        /* \"#utility.yul\":3270:3300   */\n      gt\n        /* \"#utility.yul\":3267:3269   */\n      iszero\n      tag_544\n      jumpi\n        /* \"#utility.yul\":3313:3314   */\n      0x00\n        /* \"#utility.yul\":3310:3311   */\n      dup1\n        /* \"#utility.yul\":3303:3315   */\n      revert\n        /* \"#utility.yul\":3267:3269   */\n    tag_544:\n        /* \"#utility.yul\":3341:3404   */\n      tag_545\n        /* \"#utility.yul\":3396:3403   */\n      dup9\n        /* \"#utility.yul\":3387:3393   */\n      dup3\n        /* \"#utility.yul\":3376:3385   */\n      dup10\n        /* \"#utility.yul\":3372:3394   */\n      add\n        /* \"#utility.yul\":3341:3404   */\n      tag_517\n      jump\t// in\n    tag_545:\n        /* \"#utility.yul\":3331:3404   */\n      swap5\n      pop\n        /* \"#utility.yul\":3193:3414   */\n      pop\n        /* \"#utility.yul\":3481:3483   */\n      0x40\n        /* \"#utility.yul\":3470:3479   */\n      dup7\n        /* \"#utility.yul\":3466:3484   */\n      add\n        /* \"#utility.yul\":3453:3485   */\n      calldataload\n        /* \"#utility.yul\":3512:3530   */\n      0xffffffffffffffff\n        /* \"#utility.yul\":3504:3510   */\n      dup2\n        /* \"#utility.yul\":3501:3531   */\n      gt\n        /* \"#utility.yul\":3498:3500   */\n      iszero\n      tag_546\n      jumpi\n        /* \"#utility.yul\":3544:3545   */\n      0x00\n        /* \"#utility.yul\":3541:3542   */\n      dup1\n        /* \"#utility.yul\":3534:3546   */\n      revert\n        /* \"#utility.yul\":3498:3500   */\n    tag_546:\n        /* \"#utility.yul\":3572:3635   */\n      tag_547\n        /* \"#utility.yul\":3627:3634   */\n      dup9\n        /* \"#utility.yul\":3618:3624   */\n      dup3\n        /* \"#utility.yul\":3607:3616   */\n      dup10\n        /* \"#utility.yul\":3603:3625   */\n      add\n        /* \"#utility.yul\":3572:3635   */\n      tag_517\n      jump\t// in\n    tag_547:\n        /* \"#utility.yul\":3562:3635   */\n      swap4\n      pop\n        /* \"#utility.yul\":3424:3645   */\n      pop\n        /* \"#utility.yul\":3712:3714   */\n      0x60\n        /* \"#utility.yul\":3701:3710   */\n      dup7\n        /* \"#utility.yul\":3697:3715   */\n      add\n        /* \"#utility.yul\":3684:3716   */\n      calldataload\n        /* \"#utility.yul\":3743:3761   */\n      0xffffffffffffffff\n        /* \"#utility.yul\":3735:3741   */\n      dup2\n        /* \"#utility.yul\":3732:3762   */\n      gt\n        /* \"#utility.yul\":3729:3731   */\n      iszero\n      tag_548\n      jumpi\n        /* \"#utility.yul\":3775:3776   */\n      0x00\n        /* \"#utility.yul\":3772:3773   */\n      dup1\n        /* \"#utility.yul\":3765:3777   */\n      revert\n        /* \"#utility.yul\":3729:3731   */\n    tag_548:\n        /* \"#utility.yul\":3803:3866   */\n      tag_549\n        /* \"#utility.yul\":3858:3865   */\n      dup9\n        /* \"#utility.yul\":3849:3855   */\n      dup3\n        /* \"#utility.yul\":3838:3847   */\n      dup10\n        /* \"#utility.yul\":3834:3856   */\n      add\n        /* \"#utility.yul\":3803:3866   */\n      tag_517\n      jump\t// in\n    tag_549:\n        /* \"#utility.yul\":3793:3866   */\n      swap3\n      pop\n        /* \"#utility.yul\":3655:3876   */\n      pop\n        /* \"#utility.yul\":3915:3918   */\n      0x80\n        /* \"#utility.yul\":3942:3995   */\n      tag_550\n        /* \"#utility.yul\":3987:3994   */\n      dup9\n        /* \"#utility.yul\":3978:3984   */\n      dup3\n        /* \"#utility.yul\":3967:3976   */\n      dup10\n        /* \"#utility.yul\":3963:3985   */\n      add\n        /* \"#utility.yul\":3942:3995   */\n      tag_521\n      jump\t// in\n    tag_550:\n        /* \"#utility.yul\":3932:3995   */\n      swap2\n      pop\n        /* \"#utility.yul\":3886:4005   */\n      pop\n        /* \"#utility.yul\":2993:4012   */\n      swap3\n      swap6\n      pop\n      swap3\n      swap6\n      swap1\n      swap4\n      pop\n      jump\t// out\n        /* \"#utility.yul\":4018:5341   */\n    tag_78:\n      0x00\n      dup1\n      0x00\n      dup1\n      0x00\n      dup1\n        /* \"#utility.yul\":4238:4241   */\n      0xc0\n        /* \"#utility.yul\":4226:4235   */\n      dup8\n        /* \"#utility.yul\":4217:4224   */\n      dup10\n        /* \"#utility.yul\":4213:4236   */\n      sub\n        /* \"#utility.yul\":4209:4242   */\n      slt\n        /* \"#utility.yul\":4206:4208   */\n      iszero\n      tag_552\n      jumpi\n        /* \"#utility.yul\":4255:4256   */\n      0x00\n        /* \"#utility.yul\":4252:4253   */\n      dup1\n        /* \"#utility.yul\":4245:4257   */\n      revert\n        /* \"#utility.yul\":4206:4208   */\n    tag_552:\n        /* \"#utility.yul\":4298:4299   */\n      0x00\n        /* \"#utility.yul\":4323:4376   */\n      tag_553\n        /* \"#utility.yul\":4368:4375   */\n      dup10\n        /* \"#utility.yul\":4359:4365   */\n      dup3\n        /* \"#utility.yul\":4348:4357   */\n      dup11\n        /* \"#utility.yul\":4344:4366   */\n      add\n        /* \"#utility.yul\":4323:4376   */\n      tag_509\n      jump\t// in\n    tag_553:\n        /* \"#utility.yul\":4313:4376   */\n      swap7\n      pop\n        /* \"#utility.yul\":4269:4386   */\n      pop\n        /* \"#utility.yul\":4453:4455   */\n      0x20\n        /* \"#utility.yul\":4442:4451   */\n      dup8\n        /* \"#utility.yul\":4438:4456   */\n      add\n        /* \"#utility.yul\":4425:4457   */\n      calldataload\n        /* \"#utility.yul\":4484:4502   */\n      0xffffffffffffffff\n        /* \"#utility.yul\":4476:4482   */\n      dup2\n        /* \"#utility.yul\":4473:4503   */\n      gt\n        /* \"#utility.yul\":4470:4472   */\n      iszero\n      tag_554\n      jumpi\n        /* \"#utility.yul\":4516:4517   */\n      0x00\n        /* \"#utility.yul\":4513:4514   */\n      dup1\n        /* \"#utility.yul\":4506:4518   */\n      revert\n        /* \"#utility.yul\":4470:4472   */\n    tag_554:\n        /* \"#utility.yul\":4544:4607   */\n      tag_555\n        /* \"#utility.yul\":4599:4606   */\n      dup10\n        /* \"#utility.yul\":4590:4596   */\n      dup3\n        /* \"#utility.yul\":4579:4588   */\n      dup11\n        /* \"#utility.yul\":4575:4597   */\n      add\n        /* \"#utility.yul\":4544:4607   */\n      tag_517\n      jump\t// in\n    tag_555:\n        /* \"#utility.yul\":4534:4607   */\n      swap6\n      pop\n        /* \"#utility.yul\":4396:4617   */\n      pop\n        /* \"#utility.yul\":4684:4686   */\n      0x40\n        /* \"#utility.yul\":4673:4682   */\n      dup8\n        /* \"#utility.yul\":4669:4687   */\n      add\n        /* \"#utility.yul\":4656:4688   */\n      calldataload\n        /* \"#utility.yul\":4715:4733   */\n      0xffffffffffffffff\n        /* \"#utility.yul\":4707:4713   */\n      dup2\n        /* \"#utility.yul\":4704:4734   */\n      gt\n        /* \"#utility.yul\":4701:4703   */\n      iszero\n      tag_556\n      jumpi\n        /* \"#utility.yul\":4747:4748   */\n      0x00\n        /* \"#utility.yul\":4744:4745   */\n      dup1\n        /* \"#utility.yul\":4737:4749   */\n      revert\n        /* \"#utility.yul\":4701:4703   */\n    tag_556:\n        /* \"#utility.yul\":4775:4838   */\n      tag_557\n        /* \"#utility.yul\":4830:4837   */\n      dup10\n        /* \"#utility.yul\":4821:4827   */\n      dup3\n        /* \"#utility.yul\":4810:4819   */\n      dup11\n        /* \"#utility.yul\":4806:4828   */\n      add\n        /* \"#utility.yul\":4775:4838   */\n      tag_517\n      jump\t// in\n    tag_557:\n        /* \"#utility.yul\":4765:4838   */\n      swap5\n      pop\n        /* \"#utility.yul\":4627:4848   */\n      pop\n        /* \"#utility.yul\":4915:4917   */\n      0x60\n        /* \"#utility.yul\":4904:4913   */\n      dup8\n        /* \"#utility.yul\":4900:4918   */\n      add\n        /* \"#utility.yul\":4887:4919   */\n      calldataload\n        /* \"#utility.yul\":4946:4964   */\n      0xffffffffffffffff\n        /* \"#utility.yul\":4938:4944   */\n      dup2\n        /* \"#utility.yul\":4935:4965   */\n      gt\n        /* \"#utility.yul\":4932:4934   */\n      iszero\n      tag_558\n      jumpi\n        /* \"#utility.yul\":4978:4979   */\n      0x00\n        /* \"#utility.yul\":4975:4976   */\n      dup1\n        /* \"#utility.yul\":4968:4980   */\n      revert\n        /* \"#utility.yul\":4932:4934   */\n    tag_558:\n        /* \"#utility.yul\":5006:5069   */\n      tag_559\n        /* \"#utility.yul\":5061:5068   */\n      dup10\n        /* \"#utility.yul\":5052:5058   */\n      dup3\n        /* \"#utility.yul\":5041:5050   */\n      dup11\n        /* \"#utility.yul\":5037:5059   */\n      add\n        /* \"#utility.yul\":5006:5069   */\n      tag_517\n      jump\t// in\n    tag_559:\n        /* \"#utility.yul\":4996:5069   */\n      swap4\n      pop\n        /* \"#utility.yul\":4858:5079   */\n      pop\n        /* \"#utility.yul\":5118:5121   */\n      0x80\n        /* \"#utility.yul\":5145:5198   */\n      tag_560\n        /* \"#utility.yul\":5190:5197   */\n      dup10\n        /* \"#utility.yul\":5181:5187   */\n      dup3\n        /* \"#utility.yul\":5170:5179   */\n      dup11\n        /* \"#utility.yul\":5166:5188   */\n      add\n        /* \"#utility.yul\":5145:5198   */\n      tag_521\n      jump\t// in\n    tag_560:\n        /* \"#utility.yul\":5135:5198   */\n      swap3\n      pop\n        /* \"#utility.yul\":5089:5208   */\n      pop\n        /* \"#utility.yul\":5247:5250   */\n      0xa0\n        /* \"#utility.yul\":5274:5324   */\n      tag_561\n        /* \"#utility.yul\":5316:5323   */\n      dup10\n        /* \"#utility.yul\":5307:5313   */\n      dup3\n        /* \"#utility.yul\":5296:5305   */\n      dup11\n        /* \"#utility.yul\":5292:5314   */\n      add\n        /* \"#utility.yul\":5274:5324   */\n      tag_513\n      jump\t// in\n    tag_561:\n        /* \"#utility.yul\":5264:5324   */\n      swap2\n      pop\n        /* \"#utility.yul\":5218:5334   */\n      pop\n        /* \"#utility.yul\":4196:5341   */\n      swap3\n      swap6\n      pop\n      swap3\n      swap6\n      pop\n      swap3\n      swap6\n      jump\t// out\n        /* \"#utility.yul\":5347:6265   */\n    tag_42:\n      0x00\n      dup1\n      0x00\n      dup1\n        /* \"#utility.yul\":5523:5526   */\n      0x80\n        /* \"#utility.yul\":5511:5520   */\n      dup6\n        /* \"#utility.yul\":5502:5509   */\n      dup8\n        /* \"#utility.yul\":5498:5521   */\n      sub\n        /* \"#utility.yul\":5494:5527   */\n      slt\n        /* \"#utility.yul\":5491:5493   */\n      iszero\n      tag_563\n      jumpi\n        /* \"#utility.yul\":5540:5541   */\n      0x00\n        /* \"#utility.yul\":5537:5538   */\n      dup1\n        /* \"#utility.yul\":5530:5542   */\n      revert\n        /* \"#utility.yul\":5491:5493   */\n    tag_563:\n        /* \"#utility.yul\":5611:5612   */\n      0x00\n        /* \"#utility.yul\":5600:5609   */\n      dup6\n        /* \"#utility.yul\":5596:5613   */\n      add\n        /* \"#utility.yul\":5583:5614   */\n      calldataload\n        /* \"#utility.yul\":5641:5659   */\n      0xffffffffffffffff\n        /* \"#utility.yul\":5633:5639   */\n      dup2\n        /* \"#utility.yul\":5630:5660   */\n      gt\n        /* \"#utility.yul\":5627:5629   */\n      iszero\n      tag_564\n      jumpi\n        /* \"#utility.yul\":5673:5674   */\n      0x00\n        /* \"#utility.yul\":5670:5671   */\n      dup1\n        /* \"#utility.yul\":5663:5675   */\n      revert\n        /* \"#utility.yul\":5627:5629   */\n    tag_564:\n        /* \"#utility.yul\":5701:5764   */\n      tag_565\n        /* \"#utility.yul\":5756:5763   */\n      dup8\n        /* \"#utility.yul\":5747:5753   */\n      dup3\n        /* \"#utility.yul\":5736:5745   */\n      dup9\n        /* \"#utility.yul\":5732:5754   */\n      add\n        /* \"#utility.yul\":5701:5764   */\n      tag_517\n      jump\t// in\n    tag_565:\n        /* \"#utility.yul\":5691:5764   */\n      swap5\n      pop\n        /* \"#utility.yul\":5554:5774   */\n      pop\n        /* \"#utility.yul\":5841:5843   */\n      0x20\n        /* \"#utility.yul\":5830:5839   */\n      dup6\n        /* \"#utility.yul\":5826:5844   */\n      add\n        /* \"#utility.yul\":5813:5845   */\n      calldataload\n        /* \"#utility.yul\":5872:5890   */\n      0xffffffffffffffff\n        /* \"#utility.yul\":5864:5870   */\n      dup2\n        /* \"#utility.yul\":5861:5891   */\n      gt\n        /* \"#utility.yul\":5858:5860   */\n      iszero\n      tag_566\n      jumpi\n        /* \"#utility.yul\":5904:5905   */\n      0x00\n        /* \"#utility.yul\":5901:5902   */\n      dup1\n        /* \"#utility.yul\":5894:5906   */\n      revert\n        /* \"#utility.yul\":5858:5860   */\n    tag_566:\n        /* \"#utility.yul\":5932:5995   */\n      tag_567\n        /* \"#utility.yul\":5987:5994   */\n      dup8\n        /* \"#utility.yul\":5978:5984   */\n      dup3\n        /* \"#utility.yul\":5967:5976   */\n      dup9\n        /* \"#utility.yul\":5963:5985   */\n      add\n        /* \"#utility.yul\":5932:5995   */\n      tag_517\n      jump\t// in\n    tag_567:\n        /* \"#utility.yul\":5922:5995   */\n      swap4\n      pop\n        /* \"#utility.yul\":5784:6005   */\n      pop\n        /* \"#utility.yul\":6044:6046   */\n      0x40\n        /* \"#utility.yul\":6070:6123   */\n      tag_568\n        /* \"#utility.yul\":6115:6122   */\n      dup8\n        /* \"#utility.yul\":6106:6112   */\n      dup3\n        /* \"#utility.yul\":6095:6104   */\n      dup9\n        /* \"#utility.yul\":6091:6113   */\n      add\n        /* \"#utility.yul\":6070:6123   */\n      tag_509\n      jump\t// in\n    tag_568:\n        /* \"#utility.yul\":6060:6123   */\n      swap3\n      pop\n        /* \"#utility.yul\":6015:6133   */\n      pop\n        /* \"#utility.yul\":6172:6174   */\n      0x60\n        /* \"#utility.yul\":6198:6248   */\n      tag_569\n        /* \"#utility.yul\":6240:6247   */\n      dup8\n        /* \"#utility.yul\":6231:6237   */\n      dup3\n        /* \"#utility.yul\":6220:6229   */\n      dup9\n        /* \"#utility.yul\":6216:6238   */\n      add\n        /* \"#utility.yul\":6198:6248   */\n      tag_513\n      jump\t// in\n    tag_569:\n        /* \"#utility.yul\":6188:6248   */\n      swap2\n      pop\n        /* \"#utility.yul\":6143:6258   */\n      pop\n        /* \"#utility.yul\":5481:6265   */\n      swap3\n      swap6\n      swap2\n      swap5\n      pop\n      swap3\n      pop\n      jump\t// out\n        /* \"#utility.yul\":6271:6533   */\n    tag_36:\n      0x00\n        /* \"#utility.yul\":6379:6381   */\n      0x20\n        /* \"#utility.yul\":6367:6376   */\n      dup3\n        /* \"#utility.yul\":6358:6365   */\n      dup5\n        /* \"#utility.yul\":6354:6377   */\n      sub\n        /* \"#utility.yul\":6350:6382   */\n      slt\n        /* \"#utility.yul\":6347:6349   */\n      iszero\n      tag_571\n      jumpi\n        /* \"#utility.yul\":6395:6396   */\n      0x00\n        /* \"#utility.yul\":6392:6393   */\n      dup1\n        /* \"#utility.yul\":6385:6397   */\n      revert\n        /* \"#utility.yul\":6347:6349   */\n    tag_571:\n        /* \"#utility.yul\":6438:6439   */\n      0x00\n        /* \"#utility.yul\":6463:6516   */\n      tag_572\n        /* \"#utility.yul\":6508:6515   */\n      dup5\n        /* \"#utility.yul\":6499:6505   */\n      dup3\n        /* \"#utility.yul\":6488:6497   */\n      dup6\n        /* \"#utility.yul\":6484:6506   */\n      add\n        /* \"#utility.yul\":6463:6516   */\n      tag_521\n      jump\t// in\n    tag_572:\n        /* \"#utility.yul\":6453:6516   */\n      swap2\n      pop\n        /* \"#utility.yul\":6409:6526   */\n      pop\n        /* \"#utility.yul\":6337:6533   */\n      swap3\n      swap2\n      pop\n      pop\n      jump\t// out\n        /* \"#utility.yul\":6539:7603   */\n    tag_74:\n      0x00\n      dup1\n      0x00\n      dup1\n      0x00\n        /* \"#utility.yul\":6732:6735   */\n      0xa0\n        /* \"#utility.yul\":6720:6729   */\n      dup7\n        /* \"#utility.yul\":6711:6718   */\n      dup9\n        /* \"#utility.yul\":6707:6730   */\n      sub\n        /* \"#utility.yul\":6703:6736   */\n      slt\n        /* \"#utility.yul\":6700:6702   */\n      iszero\n      tag_574\n      jumpi\n        /* \"#utility.yul\":6749:6750   */\n      0x00\n        /* \"#utility.yul\":6746:6747   */\n      dup1\n        /* \"#utility.yul\":6739:6751   */\n      revert\n        /* \"#utility.yul\":6700:6702   */\n    tag_574:\n        /* \"#utility.yul\":6792:6793   */\n      0x00\n        /* \"#utility.yul\":6817:6870   */\n      tag_575\n        /* \"#utility.yul\":6862:6869   */\n      dup9\n        /* \"#utility.yul\":6853:6859   */\n      dup3\n        /* \"#utility.yul\":6842:6851   */\n      dup10\n        /* \"#utility.yul\":6838:6860   */\n      add\n        /* \"#utility.yul\":6817:6870   */\n      tag_521\n      jump\t// in\n    tag_575:\n        /* \"#utility.yul\":6807:6870   */\n      swap6\n      pop\n        /* \"#utility.yul\":6763:6880   */\n      pop\n        /* \"#utility.yul\":6947:6949   */\n      0x20\n        /* \"#utility.yul\":6936:6945   */\n      dup7\n        /* \"#utility.yul\":6932:6950   */\n      add\n        /* \"#utility.yul\":6919:6951   */\n      calldataload\n        /* \"#utility.yul\":6978:6996   */\n      0xffffffffffffffff\n        /* \"#utility.yul\":6970:6976   */\n      dup2\n        /* \"#utility.yul\":6967:6997   */\n      gt\n        /* \"#utility.yul\":6964:6966   */\n      iszero\n      tag_576\n      jumpi\n        /* \"#utility.yul\":7010:7011   */\n      0x00\n        /* \"#utility.yul\":7007:7008   */\n      dup1\n        /* \"#utility.yul\":7000:7012   */\n      revert\n        /* \"#utility.yul\":6964:6966   */\n    tag_576:\n        /* \"#utility.yul\":7038:7101   */\n      tag_577\n        /* \"#utility.yul\":7093:7100   */\n      dup9\n        /* \"#utility.yul\":7084:7090   */\n      dup3\n        /* \"#utility.yul\":7073:7082   */\n      dup10\n        /* \"#utility.yul\":7069:7091   */\n      add\n        /* \"#utility.yul\":7038:7101   */\n      tag_517\n      jump\t// in\n    tag_577:\n        /* \"#utility.yul\":7028:7101   */\n      swap5\n      pop\n        /* \"#utility.yul\":6890:7111   */\n      pop\n        /* \"#utility.yul\":7178:7180   */\n      0x40\n        /* \"#utility.yul\":7167:7176   */\n      dup7\n        /* \"#utility.yul\":7163:7181   */\n      add\n        /* \"#utility.yul\":7150:7182   */\n      calldataload\n        /* \"#utility.yul\":7209:7227   */\n      0xffffffffffffffff\n        /* \"#utility.yul\":7201:7207   */\n      dup2\n        /* \"#utility.yul\":7198:7228   */\n      gt\n        /* \"#utility.yul\":7195:7197   */\n      iszero\n      tag_578\n      jumpi\n        /* \"#utility.yul\":7241:7242   */\n      0x00\n        /* \"#utility.yul\":7238:7239   */\n      dup1\n        /* \"#utility.yul\":7231:7243   */\n      revert\n        /* \"#utility.yul\":7195:7197   */\n    tag_578:\n        /* \"#utility.yul\":7269:7332   */\n      tag_579\n        /* \"#utility.yul\":7324:7331   */\n      dup9\n        /* \"#utility.yul\":7315:7321   */\n      dup3\n        /* \"#utility.yul\":7304:7313   */\n      dup10\n        /* \"#utility.yul\":7300:7322   */\n      add\n        /* \"#utility.yul\":7269:7332   */\n      tag_517\n      jump\t// in\n    tag_579:\n        /* \"#utility.yul\":7259:7332   */\n      swap4\n      pop\n        /* \"#utility.yul\":7121:7342   */\n      pop\n        /* \"#utility.yul\":7381:7383   */\n      0x60\n        /* \"#utility.yul\":7407:7460   */\n      tag_580\n        /* \"#utility.yul\":7452:7459   */\n      dup9\n        /* \"#utility.yul\":7443:7449   */\n      dup3\n        /* \"#utility.yul\":7432:7441   */\n      dup10\n        /* \"#utility.yul\":7428:7450   */\n      add\n        /* \"#utility.yul\":7407:7460   */\n      tag_509\n      jump\t// in\n    tag_580:\n        /* \"#utility.yul\":7397:7460   */\n      swap3\n      pop\n        /* \"#utility.yul\":7352:7470   */\n      pop\n        /* \"#utility.yul\":7509:7512   */\n      0x80\n        /* \"#utility.yul\":7536:7586   */\n      tag_581\n        /* \"#utility.yul\":7578:7585   */\n      dup9\n        /* \"#utility.yul\":7569:7575   */\n      dup3\n        /* \"#utility.yul\":7558:7567   */\n      dup10\n        /* \"#utility.yul\":7554:7576   */\n      add\n        /* \"#utility.yul\":7536:7586   */\n      tag_513\n      jump\t// in\n    tag_581:\n        /* \"#utility.yul\":7526:7586   */\n      swap2\n      pop\n        /* \"#utility.yul\":7480:7596   */\n      pop\n        /* \"#utility.yul\":6690:7603   */\n      swap3\n      swap6\n      pop\n      swap3\n      swap6\n      swap1\n      swap4\n      pop\n      jump\t// out\n        /* \"#utility.yul\":7609:7853   */\n    tag_582:\n      0x00\n        /* \"#utility.yul\":7757:7847   */\n      tag_584\n        /* \"#utility.yul\":7843:7846   */\n      dup4\n        /* \"#utility.yul\":7835:7841   */\n      dup4\n        /* \"#utility.yul\":7757:7847   */\n      tag_585\n      jump\t// in\n    tag_584:\n        /* \"#utility.yul\":7743:7847   */\n      swap1\n      pop\n        /* \"#utility.yul\":7733:7853   */\n      swap3\n      swap2\n      pop\n      pop\n      jump\t// out\n        /* \"#utility.yul\":7859:8111   */\n    tag_586:\n      0x00\n        /* \"#utility.yul\":8011:8105   */\n      tag_588\n        /* \"#utility.yul\":8101:8104   */\n      dup4\n        /* \"#utility.yul\":8093:8099   */\n      dup4\n        /* \"#utility.yul\":8011:8105   */\n      tag_589\n      jump\t// in\n    tag_588:\n        /* \"#utility.yul\":7997:8105   */\n      swap1\n      pop\n        /* \"#utility.yul\":7987:8111   */\n      swap3\n      swap2\n      pop\n      pop\n      jump\t// out\n        /* \"#utility.yul\":8117:8361   */\n    tag_590:\n      0x00\n        /* \"#utility.yul\":8265:8355   */\n      tag_592\n        /* \"#utility.yul\":8351:8354   */\n      dup4\n        /* \"#utility.yul\":8343:8349   */\n      dup4\n        /* \"#utility.yul\":8265:8355   */\n      tag_593\n      jump\t// in\n    tag_592:\n        /* \"#utility.yul\":8251:8355   */\n      swap1\n      pop\n        /* \"#utility.yul\":8241:8361   */\n      swap3\n      swap2\n      pop\n      pop\n      jump\t// out\n        /* \"#utility.yul\":8367:8475   */\n    tag_594:\n        /* \"#utility.yul\":8444:8468   */\n      tag_596\n        /* \"#utility.yul\":8462:8467   */\n      dup2\n        /* \"#utility.yul\":8444:8468   */\n      tag_597\n      jump\t// in\n    tag_596:\n        /* \"#utility.yul\":8439:8442   */\n      dup3\n        /* \"#utility.yul\":8432:8469   */\n      mstore\n        /* \"#utility.yul\":8422:8475   */\n      pop\n      pop\n      jump\t// out\n        /* \"#utility.yul\":8481:8599   */\n    tag_598:\n        /* \"#utility.yul\":8568:8592   */\n      tag_600\n        /* \"#utility.yul\":8586:8591   */\n      dup2\n        /* \"#utility.yul\":8568:8592   */\n      tag_597\n      jump\t// in\n    tag_600:\n        /* \"#utility.yul\":8563:8566   */\n      dup3\n        /* \"#utility.yul\":8556:8593   */\n      mstore\n        /* \"#utility.yul\":8546:8599   */\n      pop\n      pop\n      jump\t// out\n        /* \"#utility.yul\":8663:9750   */\n    tag_601:\n      0x00\n        /* \"#utility.yul\":8855:8931   */\n      tag_603\n        /* \"#utility.yul\":8925:8930   */\n      dup3\n        /* \"#utility.yul\":8855:8931   */\n      tag_604\n      jump\t// in\n    tag_603:\n        /* \"#utility.yul\":8947:9055   */\n      tag_605\n        /* \"#utility.yul\":9048:9054   */\n      dup2\n        /* \"#utility.yul\":9043:9046   */\n      dup6\n        /* \"#utility.yul\":8947:9055   */\n      tag_606\n      jump\t// in\n    tag_605:\n        /* \"#utility.yul\":8940:9055   */\n      swap4\n      pop\n        /* \"#utility.yul\":9081:9084   */\n      dup4\n        /* \"#utility.yul\":9126:9130   */\n      0x20\n        /* \"#utility.yul\":9118:9124   */\n      dup3\n        /* \"#utility.yul\":9114:9131   */\n      mul\n        /* \"#utility.yul\":9109:9112   */\n      dup6\n        /* \"#utility.yul\":9105:9132   */\n      add\n        /* \"#utility.yul\":9156:9234   */\n      tag_607\n        /* \"#utility.yul\":9228:9233   */\n      dup6\n        /* \"#utility.yul\":9156:9234   */\n      tag_608\n      jump\t// in\n    tag_607:\n        /* \"#utility.yul\":9257:9264   */\n      dup1\n        /* \"#utility.yul\":9288:9289   */\n      0x00\n        /* \"#utility.yul\":9273:9705   */\n    tag_609:\n        /* \"#utility.yul\":9298:9304   */\n      dup6\n        /* \"#utility.yul\":9295:9296   */\n      dup2\n        /* \"#utility.yul\":9292:9305   */\n      lt\n        /* \"#utility.yul\":9273:9705   */\n      iszero\n      tag_611\n      jumpi\n        /* \"#utility.yul\":9369:9378   */\n      dup5\n        /* \"#utility.yul\":9363:9367   */\n      dup5\n        /* \"#utility.yul\":9359:9379   */\n      sub\n        /* \"#utility.yul\":9354:9357   */\n      dup10\n        /* \"#utility.yul\":9347:9380   */\n      mstore\n        /* \"#utility.yul\":9420:9426   */\n      dup2\n        /* \"#utility.yul\":9414:9427   */\n      mload\n        /* \"#utility.yul\":9448:9556   */\n      tag_612\n        /* \"#utility.yul\":9551:9555   */\n      dup6\n        /* \"#utility.yul\":9536:9549   */\n      dup3\n        /* \"#utility.yul\":9448:9556   */\n      tag_582\n      jump\t// in\n    tag_612:\n        /* \"#utility.yul\":9440:9556   */\n      swap5\n      pop\n        /* \"#utility.yul\":9579:9661   */\n      tag_613\n        /* \"#utility.yul\":9654:9660   */\n      dup4\n        /* \"#utility.yul\":9579:9661   */\n      tag_614\n      jump\t// in\n    tag_613:\n        /* \"#utility.yul\":9569:9661   */\n      swap3\n      pop\n        /* \"#utility.yul\":9690:9694   */\n      0x20\n        /* \"#utility.yul\":9685:9688   */\n      dup11\n        /* \"#utility.yul\":9681:9695   */\n      add\n        /* \"#utility.yul\":9674:9695   */\n      swap10\n      pop\n        /* \"#utility.yul\":9333:9705   */\n      pop\n        /* \"#utility.yul\":9320:9321   */\n      0x01\n        /* \"#utility.yul\":9317:9318   */\n      dup2\n        /* \"#utility.yul\":9313:9322   */\n      add\n        /* \"#utility.yul\":9308:9322   */\n      swap1\n      pop\n        /* \"#utility.yul\":9273:9705   */\n      jump(tag_609)\n    tag_611:\n        /* \"#utility.yul\":9277:9291   */\n      pop\n        /* \"#utility.yul\":9721:9725   */\n      dup3\n        /* \"#utility.yul\":9714:9725   */\n      swap8\n      pop\n        /* \"#utility.yul\":9741:9744   */\n      dup8\n        /* \"#utility.yul\":9734:9744   */\n      swap6\n      pop\n        /* \"#utility.yul\":8831:9750   */\n      pop\n      pop\n      pop\n      pop\n      pop\n      swap3\n      swap2\n      pop\n      pop\n      jump\t// out\n        /* \"#utility.yul\":9818:10921   */\n    tag_615:\n      0x00\n        /* \"#utility.yul\":10014:10092   */\n      tag_617\n        /* \"#utility.yul\":10086:10091   */\n      dup3\n        /* \"#utility.yul\":10014:10092   */\n      tag_618\n      jump\t// in\n    tag_617:\n        /* \"#utility.yul\":10108:10218   */\n      tag_619\n        /* \"#utility.yul\":10211:10217   */\n      dup2\n        /* \"#utility.yul\":10206:10209   */\n      dup6\n        /* \"#utility.yul\":10108:10218   */\n      tag_620\n      jump\t// in\n    tag_619:\n        /* \"#utility.yul\":10101:10218   */\n      swap4\n      pop\n        /* \"#utility.yul\":10244:10247   */\n      dup4\n        /* \"#utility.yul\":10289:10293   */\n      0x20\n        /* \"#utility.yul\":10281:10287   */\n      dup3\n        /* \"#utility.yul\":10277:10294   */\n      mul\n        /* \"#utility.yul\":10272:10275   */\n      dup6\n        /* \"#utility.yul\":10268:10295   */\n      add\n        /* \"#utility.yul\":10319:10399   */\n      tag_621\n        /* \"#utility.yul\":10393:10398   */\n      dup6\n        /* \"#utility.yul\":10319:10399   */\n      tag_622\n      jump\t// in\n    tag_621:\n        /* \"#utility.yul\":10422:10429   */\n      dup1\n        /* \"#utility.yul\":10453:10454   */\n      0x00\n        /* \"#utility.yul\":10438:10876   */\n    tag_623:\n        /* \"#utility.yul\":10463:10469   */\n      dup6\n        /* \"#utility.yul\":10460:10461   */\n      dup2\n        /* \"#utility.yul\":10457:10470   */\n      lt\n        /* \"#utility.yul\":10438:10876   */\n      iszero\n      tag_625\n      jumpi\n        /* \"#utility.yul\":10534:10543   */\n      dup5\n        /* \"#utility.yul\":10528:10532   */\n      dup5\n        /* \"#utility.yul\":10524:10544   */\n      sub\n        /* \"#utility.yul\":10519:10522   */\n      dup10\n        /* \"#utility.yul\":10512:10545   */\n      mstore\n        /* \"#utility.yul\":10585:10591   */\n      dup2\n        /* \"#utility.yul\":10579:10592   */\n      mload\n        /* \"#utility.yul\":10613:10725   */\n      tag_626\n        /* \"#utility.yul\":10720:10724   */\n      dup6\n        /* \"#utility.yul\":10705:10718   */\n      dup3\n        /* \"#utility.yul\":10613:10725   */\n      tag_586\n      jump\t// in\n    tag_626:\n        /* \"#utility.yul\":10605:10725   */\n      swap5\n      pop\n        /* \"#utility.yul\":10748:10832   */\n      tag_627\n        /* \"#utility.yul\":10825:10831   */\n      dup4\n        /* \"#utility.yul\":10748:10832   */\n      tag_628\n      jump\t// in\n    tag_627:\n        /* \"#utility.yul\":10738:10832   */\n      swap3\n      pop\n        /* \"#utility.yul\":10861:10865   */\n      0x20\n        /* \"#utility.yul\":10856:10859   */\n      dup11\n        /* \"#utility.yul\":10852:10866   */\n      add\n        /* \"#utility.yul\":10845:10866   */\n      swap10\n      pop\n        /* \"#utility.yul\":10498:10876   */\n      pop\n        /* \"#utility.yul\":10485:10486   */\n      0x01\n        /* \"#utility.yul\":10482:10483   */\n      dup2\n        /* \"#utility.yul\":10478:10487   */\n      add\n        /* \"#utility.yul\":10473:10487   */\n      swap1\n      pop\n        /* \"#utility.yul\":10438:10876   */\n      jump(tag_623)\n    tag_625:\n        /* \"#utility.yul\":10442:10456   */\n      pop\n        /* \"#utility.yul\":10892:10896   */\n      dup3\n        /* \"#utility.yul\":10885:10896   */\n      swap8\n      pop\n        /* \"#utility.yul\":10912:10915   */\n      dup8\n        /* \"#utility.yul\":10905:10915   */\n      swap6\n      pop\n        /* \"#utility.yul\":9990:10921   */\n      pop\n      pop\n      pop\n      pop\n      pop\n      swap3\n      swap2\n      pop\n      pop\n      jump\t// out\n        /* \"#utility.yul\":10985:12072   */\n    tag_629:\n      0x00\n        /* \"#utility.yul\":11177:11253   */\n      tag_631\n        /* \"#utility.yul\":11247:11252   */\n      dup3\n        /* \"#utility.yul\":11177:11253   */\n      tag_632\n      jump\t// in\n    tag_631:\n        /* \"#utility.yul\":11269:11377   */\n      tag_633\n        /* \"#utility.yul\":11370:11376   */\n      dup2\n        /* \"#utility.yul\":11365:11368   */\n      dup6\n        /* \"#utility.yul\":11269:11377   */\n      tag_634\n      jump\t// in\n    tag_633:\n        /* \"#utility.yul\":11262:11377   */\n      swap4\n      pop\n        /* \"#utility.yul\":11403:11406   */\n      dup4\n        /* \"#utility.yul\":11448:11452   */\n      0x20\n        /* \"#utility.yul\":11440:11446   */\n      dup3\n        /* \"#utility.yul\":11436:11453   */\n      mul\n        /* \"#utility.yul\":11431:11434   */\n      dup6\n        /* \"#utility.yul\":11427:11454   */\n      add\n        /* \"#utility.yul\":11478:11556   */\n      tag_635\n        /* \"#utility.yul\":11550:11555   */\n      dup6\n        /* \"#utility.yul\":11478:11556   */\n      tag_636\n      jump\t// in\n    tag_635:\n        /* \"#utility.yul\":11579:11586   */\n      dup1\n        /* \"#utility.yul\":11610:11611   */\n      0x00\n        /* \"#utility.yul\":11595:12027   */\n    tag_637:\n        /* \"#utility.yul\":11620:11626   */\n      dup6\n        /* \"#utility.yul\":11617:11618   */\n      dup2\n        /* \"#utility.yul\":11614:11627   */\n      lt\n        /* \"#utility.yul\":11595:12027   */\n      iszero\n      tag_639\n      jumpi\n        /* \"#utility.yul\":11691:11700   */\n      dup5\n        /* \"#utility.yul\":11685:11689   */\n      dup5\n        /* \"#utility.yul\":11681:11701   */\n      sub\n        /* \"#utility.yul\":11676:11679   */\n      dup10\n        /* \"#utility.yul\":11669:11702   */\n      mstore\n        /* \"#utility.yul\":11742:11748   */\n      dup2\n        /* \"#utility.yul\":11736:11749   */\n      mload\n        /* \"#utility.yul\":11770:11878   */\n      tag_640\n        /* \"#utility.yul\":11873:11877   */\n      dup6\n        /* \"#utility.yul\":11858:11871   */\n      dup3\n        /* \"#utility.yul\":11770:11878   */\n      tag_590\n      jump\t// in\n    tag_640:\n        /* \"#utility.yul\":11762:11878   */\n      swap5\n      pop\n        /* \"#utility.yul\":11901:11983   */\n      tag_641\n        /* \"#utility.yul\":11976:11982   */\n      dup4\n        /* \"#utility.yul\":11901:11983   */\n      tag_642\n      jump\t// in\n    tag_641:\n        /* \"#utility.yul\":11891:11983   */\n      swap3\n      pop\n        /* \"#utility.yul\":12012:12016   */\n      0x20\n        /* \"#utility.yul\":12007:12010   */\n      dup11\n        /* \"#utility.yul\":12003:12017   */\n      add\n        /* \"#utility.yul\":11996:12017   */\n      swap10\n      pop\n        /* \"#utility.yul\":11655:12027   */\n      pop\n        /* \"#utility.yul\":11642:11643   */\n      0x01\n        /* \"#utility.yul\":11639:11640   */\n      dup2\n        /* \"#utility.yul\":11635:11644   */\n      add\n        /* \"#utility.yul\":11630:11644   */\n      swap1\n      pop\n        /* \"#utility.yul\":11595:12027   */\n      jump(tag_637)\n    tag_639:\n        /* \"#utility.yul\":11599:11613   */\n      pop\n        /* \"#utility.yul\":12043:12047   */\n      dup3\n        /* \"#utility.yul\":12036:12047   */\n      swap8\n      pop\n        /* \"#utility.yul\":12063:12066   */\n      dup8\n        /* \"#utility.yul\":12056:12066   */\n      swap6\n      pop\n        /* \"#utility.yul\":11153:12072   */\n      pop\n      pop\n      pop\n      pop\n      pop\n      swap3\n      swap2\n      pop\n      pop\n      jump\t// out\n        /* \"#utility.yul\":12078:12177   */\n    tag_643:\n        /* \"#utility.yul\":12149:12170   */\n      tag_645\n        /* \"#utility.yul\":12164:12169   */\n      dup2\n        /* \"#utility.yul\":12149:12170   */\n      tag_646\n      jump\t// in\n    tag_645:\n        /* \"#utility.yul\":12144:12147   */\n      dup3\n        /* \"#utility.yul\":12137:12171   */\n      mstore\n        /* \"#utility.yul\":12127:12177   */\n      pop\n      pop\n      jump\t// out\n        /* \"#utility.yul\":12183:12292   */\n    tag_647:\n        /* \"#utility.yul\":12264:12285   */\n      tag_649\n        /* \"#utility.yul\":12279:12284   */\n      dup2\n        /* \"#utility.yul\":12264:12285   */\n      tag_646\n      jump\t// in\n    tag_649:\n        /* \"#utility.yul\":12259:12262   */\n      dup3\n        /* \"#utility.yul\":12252:12286   */\n      mstore\n        /* \"#utility.yul\":12242:12292   */\n      pop\n      pop\n      jump\t// out\n        /* \"#utility.yul\":12298:12642   */\n    tag_650:\n      0x00\n        /* \"#utility.yul\":12404:12443   */\n      tag_652\n        /* \"#utility.yul\":12437:12442   */\n      dup3\n        /* \"#utility.yul\":12404:12443   */\n      tag_653\n      jump\t// in\n    tag_652:\n        /* \"#utility.yul\":12459:12520   */\n      tag_654\n        /* \"#utility.yul\":12513:12519   */\n      dup2\n        /* \"#utility.yul\":12508:12511   */\n      dup6\n        /* \"#utility.yul\":12459:12520   */\n      tag_655\n      jump\t// in\n    tag_654:\n        /* \"#utility.yul\":12452:12520   */\n      swap4\n      pop\n        /* \"#utility.yul\":12529:12581   */\n      tag_656\n        /* \"#utility.yul\":12574:12580   */\n      dup2\n        /* \"#utility.yul\":12569:12572   */\n      dup6\n        /* \"#utility.yul\":12562:12566   */\n      0x20\n        /* \"#utility.yul\":12555:12560   */\n      dup7\n        /* \"#utility.yul\":12551:12567   */\n      add\n        /* \"#utility.yul\":12529:12581   */\n      tag_657\n      jump\t// in\n    tag_656:\n        /* \"#utility.yul\":12606:12635   */\n      tag_658\n        /* \"#utility.yul\":12628:12634   */\n      dup2\n        /* \"#utility.yul\":12606:12635   */\n      tag_659\n      jump\t// in\n    tag_658:\n        /* \"#utility.yul\":12601:12604   */\n      dup5\n        /* \"#utility.yul\":12597:12636   */\n      add\n        /* \"#utility.yul\":12590:12636   */\n      swap2\n      pop\n        /* \"#utility.yul\":12380:12642   */\n      pop\n      swap3\n      swap2\n      pop\n      pop\n      jump\t// out\n        /* \"#utility.yul\":12648:13012   */\n    tag_660:\n      0x00\n        /* \"#utility.yul\":12764:12803   */\n      tag_662\n        /* \"#utility.yul\":12797:12802   */\n      dup3\n        /* \"#utility.yul\":12764:12803   */\n      tag_653\n      jump\t// in\n    tag_662:\n        /* \"#utility.yul\":12819:12890   */\n      tag_663\n        /* \"#utility.yul\":12883:12889   */\n      dup2\n        /* \"#utility.yul\":12878:12881   */\n      dup6\n        /* \"#utility.yul\":12819:12890   */\n      tag_664\n      jump\t// in\n    tag_663:\n        /* \"#utility.yul\":12812:12890   */\n      swap4\n      pop\n        /* \"#utility.yul\":12899:12951   */\n      tag_665\n        /* \"#utility.yul\":12944:12950   */\n      dup2\n        /* \"#utility.yul\":12939:12942   */\n      dup6\n        /* \"#utility.yul\":12932:12936   */\n      0x20\n        /* \"#utility.yul\":12925:12930   */\n      dup7\n        /* \"#utility.yul\":12921:12937   */\n      add\n        /* \"#utility.yul\":12899:12951   */\n      tag_657\n      jump\t// in\n    tag_665:\n        /* \"#utility.yul\":12976:13005   */\n      tag_666\n        /* \"#utility.yul\":12998:13004   */\n      dup2\n        /* \"#utility.yul\":12976:13005   */\n      tag_659\n      jump\t// in\n    tag_666:\n        /* \"#utility.yul\":12971:12974   */\n      dup5\n        /* \"#utility.yul\":12967:13006   */\n      add\n        /* \"#utility.yul\":12960:13006   */\n      swap2\n      pop\n        /* \"#utility.yul\":12740:13012   */\n      pop\n      swap3\n      swap2\n      pop\n      pop\n      jump\t// out\n        /* \"#utility.yul\":13042:13979   */\n    tag_667:\n      0x00\n        /* \"#utility.yul\":13164:13169   */\n      dup2\n        /* \"#utility.yul\":13158:13170   */\n      sload\n        /* \"#utility.yul\":13201:13202   */\n      0x01\n        /* \"#utility.yul\":13190:13199   */\n      dup2\n        /* \"#utility.yul\":13186:13203   */\n      and\n        /* \"#utility.yul\":13217:13218   */\n      0x00\n        /* \"#utility.yul\":13212:13493   */\n      dup2\n      eq\n      tag_670\n      jumpi\n        /* \"#utility.yul\":13507:13508   */\n      0x01\n        /* \"#utility.yul\":13502:13973   */\n      dup2\n      eq\n      tag_671\n      jumpi\n        /* \"#utility.yul\":13179:13973   */\n      jump(tag_669)\n        /* \"#utility.yul\":13212:13493   */\n    tag_670:\n        /* \"#utility.yul\":13302:13306   */\n      0x7f\n        /* \"#utility.yul\":13298:13299   */\n      0x02\n        /* \"#utility.yul\":13287:13296   */\n      dup4\n        /* \"#utility.yul\":13283:13300   */\n      div\n        /* \"#utility.yul\":13279:13307   */\n      and\n        /* \"#utility.yul\":13327:13398   */\n      tag_672\n        /* \"#utility.yul\":13391:13397   */\n      dup2\n        /* \"#utility.yul\":13386:13389   */\n      dup8\n        /* \"#utility.yul\":13327:13398   */\n      tag_664\n      jump\t// in\n    tag_672:\n        /* \"#utility.yul\":13320:13398   */\n      swap6\n      pop\n        /* \"#utility.yul\":13442:13446   */\n      0xff\n        /* \"#utility.yul\":13438:13447   */\n      not\n        /* \"#utility.yul\":13427:13436   */\n      dup4\n        /* \"#utility.yul\":13423:13448   */\n      and\n        /* \"#utility.yul\":13418:13421   */\n      dup7\n        /* \"#utility.yul\":13411:13449   */\n      mstore\n        /* \"#utility.yul\":13478:13482   */\n      0x20\n        /* \"#utility.yul\":13473:13476   */\n      dup7\n        /* \"#utility.yul\":13469:13483   */\n      add\n        /* \"#utility.yul\":13462:13483   */\n      swap4\n      pop\n        /* \"#utility.yul\":13219:13493   */\n      pop\n        /* \"#utility.yul\":13212:13493   */\n      jump(tag_669)\n        /* \"#utility.yul\":13502:13973   */\n    tag_671:\n        /* \"#utility.yul\":13583:13584   */\n      0x02\n        /* \"#utility.yul\":13572:13581   */\n      dup3\n        /* \"#utility.yul\":13568:13585   */\n      div\n        /* \"#utility.yul\":13605:13676   */\n      tag_673\n        /* \"#utility.yul\":13669:13675   */\n      dup2\n        /* \"#utility.yul\":13664:13667   */\n      dup8\n        /* \"#utility.yul\":13605:13676   */\n      tag_664\n      jump\t// in\n    tag_673:\n        /* \"#utility.yul\":13598:13676   */\n      swap6\n      pop\n        /* \"#utility.yul\":13704:13742   */\n      tag_674\n        /* \"#utility.yul\":13736:13741   */\n      dup6\n        /* \"#utility.yul\":13704:13742   */\n      tag_675\n      jump\t// in\n    tag_674:\n        /* \"#utility.yul\":13764:13765   */\n      0x00\n        /* \"#utility.yul\":13778:13932   */\n    tag_676:\n        /* \"#utility.yul\":13792:13798   */\n      dup3\n        /* \"#utility.yul\":13789:13790   */\n      dup2\n        /* \"#utility.yul\":13786:13799   */\n      lt\n        /* \"#utility.yul\":13778:13932   */\n      iszero\n      tag_678\n      jumpi\n        /* \"#utility.yul\":13866:13873   */\n      dup2\n        /* \"#utility.yul\":13860:13874   */\n      sload\n        /* \"#utility.yul\":13856:13857   */\n      dup2\n        /* \"#utility.yul\":13851:13854   */\n      dup10\n        /* \"#utility.yul\":13847:13858   */\n      add\n        /* \"#utility.yul\":13840:13875   */\n      mstore\n        /* \"#utility.yul\":13916:13917   */\n      0x01\n        /* \"#utility.yul\":13907:13914   */\n      dup3\n        /* \"#utility.yul\":13903:13918   */\n      add\n        /* \"#utility.yul\":13892:13918   */\n      swap2\n      pop\n        /* \"#utility.yul\":13814:13818   */\n      0x20\n        /* \"#utility.yul\":13811:13812   */\n      dup2\n        /* \"#utility.yul\":13807:13819   */\n      add\n        /* \"#utility.yul\":13802:13819   */\n      swap1\n      pop\n        /* \"#utility.yul\":13778:13932   */\n      jump(tag_676)\n    tag_678:\n        /* \"#utility.yul\":13961:13962   */\n      dup1\n        /* \"#utility.yul\":13956:13959   */\n      dup9\n        /* \"#utility.yul\":13952:13963   */\n      add\n        /* \"#utility.yul\":13945:13963   */\n      swap6\n      pop\n        /* \"#utility.yul\":13509:13973   */\n      pop\n      pop\n      pop\n        /* \"#utility.yul\":13179:13973   */\n    tag_669:\n      pop\n        /* \"#utility.yul\":13131:13979   */\n      pop\n      swap3\n      swap2\n      pop\n      pop\n      jump\t// out\n        /* \"#utility.yul\":13985:14299   */\n    tag_679:\n      0x00\n        /* \"#utility.yul\":14148:14215   */\n      tag_681\n        /* \"#utility.yul\":14212:14214   */\n      0x10\n        /* \"#utility.yul\":14207:14210   */\n      dup4\n        /* \"#utility.yul\":14148:14215   */\n      tag_664\n      jump\t// in\n    tag_681:\n        /* \"#utility.yul\":14141:14215   */\n      swap2\n      pop\n        /* \"#utility.yul\":14245:14263   */\n      0x446f63746f72206e6f7420666f756e6400000000000000000000000000000000\n        /* \"#utility.yul\":14241:14242   */\n      0x00\n        /* \"#utility.yul\":14236:14239   */\n      dup4\n        /* \"#utility.yul\":14232:14243   */\n      add\n        /* \"#utility.yul\":14225:14264   */\n      mstore\n        /* \"#utility.yul\":14290:14292   */\n      0x20\n        /* \"#utility.yul\":14285:14288   */\n      dup3\n        /* \"#utility.yul\":14281:14293   */\n      add\n        /* \"#utility.yul\":14274:14293   */\n      swap1\n      pop\n        /* \"#utility.yul\":14131:14299   */\n      swap2\n      swap1\n      pop\n      jump\t// out\n        /* \"#utility.yul\":14305:14619   */\n    tag_682:\n      0x00\n        /* \"#utility.yul\":14468:14535   */\n      tag_684\n        /* \"#utility.yul\":14532:14534   */\n      0x10\n        /* \"#utility.yul\":14527:14530   */\n      dup4\n        /* \"#utility.yul\":14468:14535   */\n      tag_664\n      jump\t// in\n    tag_684:\n        /* \"#utility.yul\":14461:14535   */\n      swap2\n      pop\n        /* \"#utility.yul\":14565:14583   */\n      0x53656e736f72206e6f7420666f756e6400000000000000000000000000000000\n        /* \"#utility.yul\":14561:14562   */\n      0x00\n        /* \"#utility.yul\":14556:14559   */\n      dup4\n        /* \"#utility.yul\":14552:14563   */\n      add\n        /* \"#utility.yul\":14545:14584   */\n      mstore\n        /* \"#utility.yul\":14610:14612   */\n      0x20\n        /* \"#utility.yul\":14605:14608   */\n      dup3\n        /* \"#utility.yul\":14601:14613   */\n      add\n        /* \"#utility.yul\":14594:14613   */\n      swap1\n      pop\n        /* \"#utility.yul\":14451:14619   */\n      swap2\n      swap1\n      pop\n      jump\t// out\n        /* \"#utility.yul\":14625:14941   */\n    tag_685:\n      0x00\n        /* \"#utility.yul\":14788:14855   */\n      tag_687\n        /* \"#utility.yul\":14852:14854   */\n      0x12\n        /* \"#utility.yul\":14847:14850   */\n      dup4\n        /* \"#utility.yul\":14788:14855   */\n      tag_664\n      jump\t// in\n    tag_687:\n        /* \"#utility.yul\":14781:14855   */\n      swap2\n      pop\n        /* \"#utility.yul\":14885:14905   */\n      0x486f73706974616c206e6f7420666f756e640000000000000000000000000000\n        /* \"#utility.yul\":14881:14882   */\n      0x00\n        /* \"#utility.yul\":14876:14879   */\n      dup4\n        /* \"#utility.yul\":14872:14883   */\n      add\n        /* \"#utility.yul\":14865:14906   */\n      mstore\n        /* \"#utility.yul\":14932:14934   */\n      0x20\n        /* \"#utility.yul\":14927:14930   */\n      dup3\n        /* \"#utility.yul\":14923:14935   */\n      add\n        /* \"#utility.yul\":14916:14935   */\n      swap1\n      pop\n        /* \"#utility.yul\":14771:14941   */\n      swap2\n      swap1\n      pop\n      jump\t// out\n        /* \"#utility.yul\":15001:15953   */\n    tag_585:\n      0x00\n        /* \"#utility.yul\":15140:15144   */\n      0x80\n        /* \"#utility.yul\":15135:15138   */\n      dup4\n        /* \"#utility.yul\":15131:15145   */\n      add\n        /* \"#utility.yul\":15231:15235   */\n      0x00\n        /* \"#utility.yul\":15224:15229   */\n      dup4\n        /* \"#utility.yul\":15220:15236   */\n      add\n        /* \"#utility.yul\":15214:15237   */\n      mload\n        /* \"#utility.yul\":15250:15313   */\n      tag_689\n        /* \"#utility.yul\":15307:15311   */\n      0x00\n        /* \"#utility.yul\":15302:15305   */\n      dup7\n        /* \"#utility.yul\":15298:15312   */\n      add\n        /* \"#utility.yul\":15284:15296   */\n      dup3\n        /* \"#utility.yul\":15250:15313   */\n      tag_594\n      jump\t// in\n    tag_689:\n        /* \"#utility.yul\":15155:15323   */\n      pop\n        /* \"#utility.yul\":15411:15415   */\n      0x20\n        /* \"#utility.yul\":15404:15409   */\n      dup4\n        /* \"#utility.yul\":15400:15416   */\n      add\n        /* \"#utility.yul\":15394:15417   */\n      mload\n        /* \"#utility.yul\":15464:15467   */\n      dup5\n        /* \"#utility.yul\":15458:15462   */\n      dup3\n        /* \"#utility.yul\":15454:15468   */\n      sub\n        /* \"#utility.yul\":15447:15451   */\n      0x20\n        /* \"#utility.yul\":15442:15445   */\n      dup7\n        /* \"#utility.yul\":15438:15452   */\n      add\n        /* \"#utility.yul\":15431:15469   */\n      mstore\n        /* \"#utility.yul\":15490:15563   */\n      tag_690\n        /* \"#utility.yul\":15558:15562   */\n      dup3\n        /* \"#utility.yul\":15544:15556   */\n      dup3\n        /* \"#utility.yul\":15490:15563   */\n      tag_650\n      jump\t// in\n    tag_690:\n        /* \"#utility.yul\":15482:15563   */\n      swap2\n      pop\n        /* \"#utility.yul\":15333:15574   */\n      pop\n        /* \"#utility.yul\":15660:15664   */\n      0x40\n        /* \"#utility.yul\":15653:15658   */\n      dup4\n        /* \"#utility.yul\":15649:15665   */\n      add\n        /* \"#utility.yul\":15643:15666   */\n      mload\n        /* \"#utility.yul\":15679:15742   */\n      tag_691\n        /* \"#utility.yul\":15736:15740   */\n      0x40\n        /* \"#utility.yul\":15731:15734   */\n      dup7\n        /* \"#utility.yul\":15727:15741   */\n      add\n        /* \"#utility.yul\":15713:15725   */\n      dup3\n        /* \"#utility.yul\":15679:15742   */\n      tag_594\n      jump\t// in\n    tag_691:\n        /* \"#utility.yul\":15584:15752   */\n      pop\n        /* \"#utility.yul\":15840:15844   */\n      0x60\n        /* \"#utility.yul\":15833:15838   */\n      dup4\n        /* \"#utility.yul\":15829:15845   */\n      add\n        /* \"#utility.yul\":15823:15846   */\n      mload\n        /* \"#utility.yul\":15859:15916   */\n      tag_692\n        /* \"#utility.yul\":15910:15914   */\n      0x60\n        /* \"#utility.yul\":15905:15908   */\n      dup7\n        /* \"#utility.yul\":15901:15915   */\n      add\n        /* \"#utility.yul\":15887:15899   */\n      dup3\n        /* \"#utility.yul\":15859:15916   */\n      tag_643\n      jump\t// in\n    tag_692:\n        /* \"#utility.yul\":15762:15926   */\n      pop\n        /* \"#utility.yul\":15943:15947   */\n      dup1\n        /* \"#utility.yul\":15936:15947   */\n      swap2\n      pop\n        /* \"#utility.yul\":15109:15953   */\n      pop\n      swap3\n      swap2\n      pop\n      pop\n      jump\t// out\n        /* \"#utility.yul\":16017:17462   */\n    tag_589:\n      0x00\n        /* \"#utility.yul\":16160:16164   */\n      0xc0\n        /* \"#utility.yul\":16155:16158   */\n      dup4\n        /* \"#utility.yul\":16151:16165   */\n      add\n        /* \"#utility.yul\":16253:16257   */\n      0x00\n        /* \"#utility.yul\":16246:16251   */\n      dup4\n        /* \"#utility.yul\":16242:16258   */\n      add\n        /* \"#utility.yul\":16236:16259   */\n      mload\n        /* \"#utility.yul\":16272:16335   */\n      tag_694\n        /* \"#utility.yul\":16329:16333   */\n      0x00\n        /* \"#utility.yul\":16324:16327   */\n      dup7\n        /* \"#utility.yul\":16320:16334   */\n      add\n        /* \"#utility.yul\":16306:16318   */\n      dup3\n        /* \"#utility.yul\":16272:16335   */\n      tag_594\n      jump\t// in\n    tag_694:\n        /* \"#utility.yul\":16175:16345   */\n      pop\n        /* \"#utility.yul\":16427:16431   */\n      0x20\n        /* \"#utility.yul\":16420:16425   */\n      dup4\n        /* \"#utility.yul\":16416:16432   */\n      add\n        /* \"#utility.yul\":16410:16433   */\n      mload\n        /* \"#utility.yul\":16480:16483   */\n      dup5\n        /* \"#utility.yul\":16474:16478   */\n      dup3\n        /* \"#utility.yul\":16470:16484   */\n      sub\n        /* \"#utility.yul\":16463:16467   */\n      0x20\n        /* \"#utility.yul\":16458:16461   */\n      dup7\n        /* \"#utility.yul\":16454:16468   */\n      add\n        /* \"#utility.yul\":16447:16485   */\n      mstore\n        /* \"#utility.yul\":16506:16579   */\n      tag_695\n        /* \"#utility.yul\":16574:16578   */\n      dup3\n        /* \"#utility.yul\":16560:16572   */\n      dup3\n        /* \"#utility.yul\":16506:16579   */\n      tag_650\n      jump\t// in\n    tag_695:\n        /* \"#utility.yul\":16498:16579   */\n      swap2\n      pop\n        /* \"#utility.yul\":16355:16590   */\n      pop\n        /* \"#utility.yul\":16672:16676   */\n      0x40\n        /* \"#utility.yul\":16665:16670   */\n      dup4\n        /* \"#utility.yul\":16661:16677   */\n      add\n        /* \"#utility.yul\":16655:16678   */\n      mload\n        /* \"#utility.yul\":16725:16728   */\n      dup5\n        /* \"#utility.yul\":16719:16723   */\n      dup3\n        /* \"#utility.yul\":16715:16729   */\n      sub\n        /* \"#utility.yul\":16708:16712   */\n      0x40\n        /* \"#utility.yul\":16703:16706   */\n      dup7\n        /* \"#utility.yul\":16699:16713   */\n      add\n        /* \"#utility.yul\":16692:16730   */\n      mstore\n        /* \"#utility.yul\":16751:16824   */\n      tag_696\n        /* \"#utility.yul\":16819:16823   */\n      dup3\n        /* \"#utility.yul\":16805:16817   */\n      dup3\n        /* \"#utility.yul\":16751:16824   */\n      tag_650\n      jump\t// in\n    tag_696:\n        /* \"#utility.yul\":16743:16824   */\n      swap2\n      pop\n        /* \"#utility.yul\":16600:16835   */\n      pop\n        /* \"#utility.yul\":16918:16922   */\n      0x60\n        /* \"#utility.yul\":16911:16916   */\n      dup4\n        /* \"#utility.yul\":16907:16923   */\n      add\n        /* \"#utility.yul\":16901:16924   */\n      mload\n        /* \"#utility.yul\":16971:16974   */\n      dup5\n        /* \"#utility.yul\":16965:16969   */\n      dup3\n        /* \"#utility.yul\":16961:16975   */\n      sub\n        /* \"#utility.yul\":16954:16958   */\n      0x60\n        /* \"#utility.yul\":16949:16952   */\n      dup7\n        /* \"#utility.yul\":16945:16959   */\n      add\n        /* \"#utility.yul\":16938:16976   */\n      mstore\n        /* \"#utility.yul\":16997:17070   */\n      tag_697\n        /* \"#utility.yul\":17065:17069   */\n      dup3\n        /* \"#utility.yul\":17051:17063   */\n      dup3\n        /* \"#utility.yul\":16997:17070   */\n      tag_650\n      jump\t// in\n    tag_697:\n        /* \"#utility.yul\":16989:17070   */\n      swap2\n      pop\n        /* \"#utility.yul\":16845:17081   */\n      pop\n        /* \"#utility.yul\":17169:17173   */\n      0x80\n        /* \"#utility.yul\":17162:17167   */\n      dup4\n        /* \"#utility.yul\":17158:17174   */\n      add\n        /* \"#utility.yul\":17152:17175   */\n      mload\n        /* \"#utility.yul\":17188:17251   */\n      tag_698\n        /* \"#utility.yul\":17245:17249   */\n      0x80\n        /* \"#utility.yul\":17240:17243   */\n      dup7\n        /* \"#utility.yul\":17236:17250   */\n      add\n        /* \"#utility.yul\":17222:17234   */\n      dup3\n        /* \"#utility.yul\":17188:17251   */\n      tag_699\n      jump\t// in\n    tag_698:\n        /* \"#utility.yul\":17091:17261   */\n      pop\n        /* \"#utility.yul\":17349:17353   */\n      0xa0\n        /* \"#utility.yul\":17342:17347   */\n      dup4\n        /* \"#utility.yul\":17338:17354   */\n      add\n        /* \"#utility.yul\":17332:17355   */\n      mload\n        /* \"#utility.yul\":17368:17425   */\n      tag_700\n        /* \"#utility.yul\":17419:17423   */\n      0xa0\n        /* \"#utility.yul\":17414:17417   */\n      dup7\n        /* \"#utility.yul\":17410:17424   */\n      add\n        /* \"#utility.yul\":17396:17408   */\n      dup3\n        /* \"#utility.yul\":17368:17425   */\n      tag_643\n      jump\t// in\n    tag_700:\n        /* \"#utility.yul\":17271:17435   */\n      pop\n        /* \"#utility.yul\":17452:17456   */\n      dup1\n        /* \"#utility.yul\":17445:17456   */\n      swap2\n      pop\n        /* \"#utility.yul\":16129:17462   */\n      pop\n      swap3\n      swap2\n      pop\n      pop\n      jump\t// out\n        /* \"#utility.yul\":17522:18715   */\n    tag_593:\n      0x00\n        /* \"#utility.yul\":17661:17665   */\n      0xa0\n        /* \"#utility.yul\":17656:17659   */\n      dup4\n        /* \"#utility.yul\":17652:17666   */\n      add\n        /* \"#utility.yul\":17752:17756   */\n      0x00\n        /* \"#utility.yul\":17745:17750   */\n      dup4\n        /* \"#utility.yul\":17741:17757   */\n      add\n        /* \"#utility.yul\":17735:17758   */\n      mload\n        /* \"#utility.yul\":17771:17834   */\n      tag_702\n        /* \"#utility.yul\":17828:17832   */\n      0x00\n        /* \"#utility.yul\":17823:17826   */\n      dup7\n        /* \"#utility.yul\":17819:17833   */\n      add\n        /* \"#utility.yul\":17805:17817   */\n      dup3\n        /* \"#utility.yul\":17771:17834   */\n      tag_699\n      jump\t// in\n    tag_702:\n        /* \"#utility.yul\":17676:17844   */\n      pop\n        /* \"#utility.yul\":17925:17929   */\n      0x20\n        /* \"#utility.yul\":17918:17923   */\n      dup4\n        /* \"#utility.yul\":17914:17930   */\n      add\n        /* \"#utility.yul\":17908:17931   */\n      mload\n        /* \"#utility.yul\":17978:17981   */\n      dup5\n        /* \"#utility.yul\":17972:17976   */\n      dup3\n        /* \"#utility.yul\":17968:17982   */\n      sub\n        /* \"#utility.yul\":17961:17965   */\n      0x20\n        /* \"#utility.yul\":17956:17959   */\n      dup7\n        /* \"#utility.yul\":17952:17966   */\n      add\n        /* \"#utility.yul\":17945:17983   */\n      mstore\n        /* \"#utility.yul\":18004:18077   */\n      tag_703\n        /* \"#utility.yul\":18072:18076   */\n      dup3\n        /* \"#utility.yul\":18058:18070   */\n      dup3\n        /* \"#utility.yul\":18004:18077   */\n      tag_650\n      jump\t// in\n    tag_703:\n        /* \"#utility.yul\":17996:18077   */\n      swap2\n      pop\n        /* \"#utility.yul\":17854:18088   */\n      pop\n        /* \"#utility.yul\":18177:18181   */\n      0x40\n        /* \"#utility.yul\":18170:18175   */\n      dup4\n        /* \"#utility.yul\":18166:18182   */\n      add\n        /* \"#utility.yul\":18160:18183   */\n      mload\n        /* \"#utility.yul\":18230:18233   */\n      dup5\n        /* \"#utility.yul\":18224:18228   */\n      dup3\n        /* \"#utility.yul\":18220:18234   */\n      sub\n        /* \"#utility.yul\":18213:18217   */\n      0x40\n        /* \"#utility.yul\":18208:18211   */\n      dup7\n        /* \"#utility.yul\":18204:18218   */\n      add\n        /* \"#utility.yul\":18197:18235   */\n      mstore\n        /* \"#utility.yul\":18256:18329   */\n      tag_704\n        /* \"#utility.yul\":18324:18328   */\n      dup3\n        /* \"#utility.yul\":18310:18322   */\n      dup3\n        /* \"#utility.yul\":18256:18329   */\n      tag_650\n      jump\t// in\n    tag_704:\n        /* \"#utility.yul\":18248:18329   */\n      swap2\n      pop\n        /* \"#utility.yul\":18098:18340   */\n      pop\n        /* \"#utility.yul\":18426:18430   */\n      0x60\n        /* \"#utility.yul\":18419:18424   */\n      dup4\n        /* \"#utility.yul\":18415:18431   */\n      add\n        /* \"#utility.yul\":18409:18432   */\n      mload\n        /* \"#utility.yul\":18445:18508   */\n      tag_705\n        /* \"#utility.yul\":18502:18506   */\n      0x60\n        /* \"#utility.yul\":18497:18500   */\n      dup7\n        /* \"#utility.yul\":18493:18507   */\n      add\n        /* \"#utility.yul\":18479:18491   */\n      dup3\n        /* \"#utility.yul\":18445:18508   */\n      tag_594\n      jump\t// in\n    tag_705:\n        /* \"#utility.yul\":18350:18518   */\n      pop\n        /* \"#utility.yul\":18602:18606   */\n      0x80\n        /* \"#utility.yul\":18595:18600   */\n      dup4\n        /* \"#utility.yul\":18591:18607   */\n      add\n        /* \"#utility.yul\":18585:18608   */\n      mload\n        /* \"#utility.yul\":18621:18678   */\n      tag_706\n        /* \"#utility.yul\":18672:18676   */\n      0x80\n        /* \"#utility.yul\":18667:18670   */\n      dup7\n        /* \"#utility.yul\":18663:18677   */\n      add\n        /* \"#utility.yul\":18649:18661   */\n      dup3\n        /* \"#utility.yul\":18621:18678   */\n      tag_643\n      jump\t// in\n    tag_706:\n        /* \"#utility.yul\":18528:18688   */\n      pop\n        /* \"#utility.yul\":18705:18709   */\n      dup1\n        /* \"#utility.yul\":18698:18709   */\n      swap2\n      pop\n        /* \"#utility.yul\":17630:18715   */\n      pop\n      swap3\n      swap2\n      pop\n      pop\n      jump\t// out\n        /* \"#utility.yul\":18721:18829   */\n    tag_699:\n        /* \"#utility.yul\":18798:18822   */\n      tag_708\n        /* \"#utility.yul\":18816:18821   */\n      dup2\n        /* \"#utility.yul\":18798:18822   */\n      tag_709\n      jump\t// in\n    tag_708:\n        /* \"#utility.yul\":18793:18796   */\n      dup3\n        /* \"#utility.yul\":18786:18823   */\n      mstore\n        /* \"#utility.yul\":18776:18829   */\n      pop\n      pop\n      jump\t// out\n        /* \"#utility.yul\":18835:18953   */\n    tag_710:\n        /* \"#utility.yul\":18922:18946   */\n      tag_712\n        /* \"#utility.yul\":18940:18945   */\n      dup2\n        /* \"#utility.yul\":18922:18946   */\n      tag_709\n      jump\t// in\n    tag_712:\n        /* \"#utility.yul\":18917:18920   */\n      dup3\n        /* \"#utility.yul\":18910:18947   */\n      mstore\n        /* \"#utility.yul\":18900:18953   */\n      pop\n      pop\n      jump\t// out\n        /* \"#utility.yul\":18959:19591   */\n    tag_89:\n      0x00\n        /* \"#utility.yul\":19188:19191   */\n      0x80\n        /* \"#utility.yul\":19177:19186   */\n      dup3\n        /* \"#utility.yul\":19173:19192   */\n      add\n        /* \"#utility.yul\":19165:19192   */\n      swap1\n      pop\n        /* \"#utility.yul\":19202:19273   */\n      tag_714\n        /* \"#utility.yul\":19270:19271   */\n      0x00\n        /* \"#utility.yul\":19259:19268   */\n      dup4\n        /* \"#utility.yul\":19255:19272   */\n      add\n        /* \"#utility.yul\":19246:19252   */\n      dup8\n        /* \"#utility.yul\":19202:19273   */\n      tag_598\n      jump\t// in\n    tag_714:\n        /* \"#utility.yul\":19320:19329   */\n      dup2\n        /* \"#utility.yul\":19314:19318   */\n      dup2\n        /* \"#utility.yul\":19310:19330   */\n      sub\n        /* \"#utility.yul\":19305:19307   */\n      0x20\n        /* \"#utility.yul\":19294:19303   */\n      dup4\n        /* \"#utility.yul\":19290:19308   */\n      add\n        /* \"#utility.yul\":19283:19331   */\n      mstore\n        /* \"#utility.yul\":19348:19426   */\n      tag_715\n        /* \"#utility.yul\":19421:19425   */\n      dup2\n        /* \"#utility.yul\":19412:19418   */\n      dup7\n        /* \"#utility.yul\":19348:19426   */\n      tag_660\n      jump\t// in\n    tag_715:\n        /* \"#utility.yul\":19340:19426   */\n      swap1\n      pop\n        /* \"#utility.yul\":19436:19508   */\n      tag_716\n        /* \"#utility.yul\":19504:19506   */\n      0x40\n        /* \"#utility.yul\":19493:19502   */\n      dup4\n        /* \"#utility.yul\":19489:19507   */\n      add\n        /* \"#utility.yul\":19480:19486   */\n      dup6\n        /* \"#utility.yul\":19436:19508   */\n      tag_598\n      jump\t// in\n    tag_716:\n        /* \"#utility.yul\":19518:19584   */\n      tag_717\n        /* \"#utility.yul\":19580:19582   */\n      0x60\n        /* \"#utility.yul\":19569:19578   */\n      dup4\n        /* \"#utility.yul\":19565:19583   */\n      add\n        /* \"#utility.yul\":19556:19562   */\n      dup5\n        /* \"#utility.yul\":19518:19584   */\n      tag_647\n      jump\t// in\n    tag_717:\n        /* \"#utility.yul\":19155:19591   */\n      swap6\n      swap5\n      pop\n      pop\n      pop\n      pop\n      pop\n      jump\t// out\n        /* \"#utility.yul\":19597:20633   */\n    tag_113:\n      0x00\n        /* \"#utility.yul\":19922:19925   */\n      0xc0\n        /* \"#utility.yul\":19911:19920   */\n      dup3\n        /* \"#utility.yul\":19907:19926   */\n      add\n        /* \"#utility.yul\":19899:19926   */\n      swap1\n      pop\n        /* \"#utility.yul\":19936:20007   */\n      tag_719\n        /* \"#utility.yul\":20004:20005   */\n      0x00\n        /* \"#utility.yul\":19993:20002   */\n      dup4\n        /* \"#utility.yul\":19989:20006   */\n      add\n        /* \"#utility.yul\":19980:19986   */\n      dup10\n        /* \"#utility.yul\":19936:20007   */\n      tag_598\n      jump\t// in\n    tag_719:\n        /* \"#utility.yul\":20054:20063   */\n      dup2\n        /* \"#utility.yul\":20048:20052   */\n      dup2\n        /* \"#utility.yul\":20044:20064   */\n      sub\n        /* \"#utility.yul\":20039:20041   */\n      0x20\n        /* \"#utility.yul\":20028:20037   */\n      dup4\n        /* \"#utility.yul\":20024:20042   */\n      add\n        /* \"#utility.yul\":20017:20065   */\n      mstore\n        /* \"#utility.yul\":20082:20160   */\n      tag_720\n        /* \"#utility.yul\":20155:20159   */\n      dup2\n        /* \"#utility.yul\":20146:20152   */\n      dup9\n        /* \"#utility.yul\":20082:20160   */\n      tag_660\n      jump\t// in\n    tag_720:\n        /* \"#utility.yul\":20074:20160   */\n      swap1\n      pop\n        /* \"#utility.yul\":20207:20216   */\n      dup2\n        /* \"#utility.yul\":20201:20205   */\n      dup2\n        /* \"#utility.yul\":20197:20217   */\n      sub\n        /* \"#utility.yul\":20192:20194   */\n      0x40\n        /* \"#utility.yul\":20181:20190   */\n      dup4\n        /* \"#utility.yul\":20177:20195   */\n      add\n        /* \"#utility.yul\":20170:20218   */\n      mstore\n        /* \"#utility.yul\":20235:20313   */\n      tag_721\n        /* \"#utility.yul\":20308:20312   */\n      dup2\n        /* \"#utility.yul\":20299:20305   */\n      dup8\n        /* \"#utility.yul\":20235:20313   */\n      tag_660\n      jump\t// in\n    tag_721:\n        /* \"#utility.yul\":20227:20313   */\n      swap1\n      pop\n        /* \"#utility.yul\":20360:20369   */\n      dup2\n        /* \"#utility.yul\":20354:20358   */\n      dup2\n        /* \"#utility.yul\":20350:20370   */\n      sub\n        /* \"#utility.yul\":20345:20347   */\n      0x60\n        /* \"#utility.yul\":20334:20343   */\n      dup4\n        /* \"#utility.yul\":20330:20348   */\n      add\n        /* \"#utility.yul\":20323:20371   */\n      mstore\n        /* \"#utility.yul\":20388:20466   */\n      tag_722\n        /* \"#utility.yul\":20461:20465   */\n      dup2\n        /* \"#utility.yul\":20452:20458   */\n      dup7\n        /* \"#utility.yul\":20388:20466   */\n      tag_660\n      jump\t// in\n    tag_722:\n        /* \"#utility.yul\":20380:20466   */\n      swap1\n      pop\n        /* \"#utility.yul\":20476:20549   */\n      tag_723\n        /* \"#utility.yul\":20544:20547   */\n      0x80\n        /* \"#utility.yul\":20533:20542   */\n      dup4\n        /* \"#utility.yul\":20529:20548   */\n      add\n        /* \"#utility.yul\":20520:20526   */\n      dup6\n        /* \"#utility.yul\":20476:20549   */\n      tag_710\n      jump\t// in\n    tag_723:\n        /* \"#utility.yul\":20559:20626   */\n      tag_724\n        /* \"#utility.yul\":20621:20624   */\n      0xa0\n        /* \"#utility.yul\":20610:20619   */\n      dup4\n        /* \"#utility.yul\":20606:20625   */\n      add\n        /* \"#utility.yul\":20597:20603   */\n      dup5\n        /* \"#utility.yul\":20559:20626   */\n      tag_647\n      jump\t// in\n    tag_724:\n        /* \"#utility.yul\":19889:20633   */\n      swap8\n      swap7\n      pop\n      pop\n      pop\n      pop\n      pop\n      pop\n      pop\n      jump\t// out\n        /* \"#utility.yul\":20639:21265   */\n    tag_243:\n      0x00\n        /* \"#utility.yul\":20865:20868   */\n      0x80\n        /* \"#utility.yul\":20854:20863   */\n      dup3\n        /* \"#utility.yul\":20850:20869   */\n      add\n        /* \"#utility.yul\":20842:20869   */\n      swap1\n      pop\n        /* \"#utility.yul\":20879:20950   */\n      tag_726\n        /* \"#utility.yul\":20947:20948   */\n      0x00\n        /* \"#utility.yul\":20936:20945   */\n      dup4\n        /* \"#utility.yul\":20932:20949   */\n      add\n        /* \"#utility.yul\":20923:20929   */\n      dup8\n        /* \"#utility.yul\":20879:20950   */\n      tag_598\n      jump\t// in\n    tag_726:\n        /* \"#utility.yul\":20997:21006   */\n      dup2\n        /* \"#utility.yul\":20991:20995   */\n      dup2\n        /* \"#utility.yul\":20987:21007   */\n      sub\n        /* \"#utility.yul\":20982:20984   */\n      0x20\n        /* \"#utility.yul\":20971:20980   */\n      dup4\n        /* \"#utility.yul\":20967:20985   */\n      add\n        /* \"#utility.yul\":20960:21008   */\n      mstore\n        /* \"#utility.yul\":21025:21100   */\n      tag_727\n        /* \"#utility.yul\":21095:21099   */\n      dup2\n        /* \"#utility.yul\":21086:21092   */\n      dup7\n        /* \"#utility.yul\":21025:21100   */\n      tag_667\n      jump\t// in\n    tag_727:\n        /* \"#utility.yul\":21017:21100   */\n      swap1\n      pop\n        /* \"#utility.yul\":21110:21182   */\n      tag_728\n        /* \"#utility.yul\":21178:21180   */\n      0x40\n        /* \"#utility.yul\":21167:21176   */\n      dup4\n        /* \"#utility.yul\":21163:21181   */\n      add\n        /* \"#utility.yul\":21154:21160   */\n      dup6\n        /* \"#utility.yul\":21110:21182   */\n      tag_598\n      jump\t// in\n    tag_728:\n        /* \"#utility.yul\":21192:21258   */\n      tag_729\n        /* \"#utility.yul\":21254:21256   */\n      0x60\n        /* \"#utility.yul\":21243:21252   */\n      dup4\n        /* \"#utility.yul\":21239:21257   */\n      add\n        /* \"#utility.yul\":21230:21236   */\n      dup5\n        /* \"#utility.yul\":21192:21258   */\n      tag_647\n      jump\t// in\n    tag_729:\n        /* \"#utility.yul\":20832:21265   */\n      swap6\n      swap5\n      pop\n      pop\n      pop\n      pop\n      pop\n      jump\t// out\n        /* \"#utility.yul\":21271:22289   */\n    tag_185:\n      0x00\n        /* \"#utility.yul\":21587:21590   */\n      0xc0\n        /* \"#utility.yul\":21576:21585   */\n      dup3\n        /* \"#utility.yul\":21572:21591   */\n      add\n        /* \"#utility.yul\":21564:21591   */\n      swap1\n      pop\n        /* \"#utility.yul\":21601:21672   */\n      tag_731\n        /* \"#utility.yul\":21669:21670   */\n      0x00\n        /* \"#utility.yul\":21658:21667   */\n      dup4\n        /* \"#utility.yul\":21654:21671   */\n      add\n        /* \"#utility.yul\":21645:21651   */\n      dup10\n        /* \"#utility.yul\":21601:21672   */\n      tag_598\n      jump\t// in\n    tag_731:\n        /* \"#utility.yul\":21719:21728   */\n      dup2\n        /* \"#utility.yul\":21713:21717   */\n      dup2\n        /* \"#utility.yul\":21709:21729   */\n      sub\n        /* \"#utility.yul\":21704:21706   */\n      0x20\n        /* \"#utility.yul\":21693:21702   */\n      dup4\n        /* \"#utility.yul\":21689:21707   */\n      add\n        /* \"#utility.yul\":21682:21730   */\n      mstore\n        /* \"#utility.yul\":21747:21822   */\n      tag_732\n        /* \"#utility.yul\":21817:21821   */\n      dup2\n        /* \"#utility.yul\":21808:21814   */\n      dup9\n        /* \"#utility.yul\":21747:21822   */\n      tag_667\n      jump\t// in\n    tag_732:\n        /* \"#utility.yul\":21739:21822   */\n      swap1\n      pop\n        /* \"#utility.yul\":21869:21878   */\n      dup2\n        /* \"#utility.yul\":21863:21867   */\n      dup2\n        /* \"#utility.yul\":21859:21879   */\n      sub\n        /* \"#utility.yul\":21854:21856   */\n      0x40\n        /* \"#utility.yul\":21843:21852   */\n      dup4\n        /* \"#utility.yul\":21839:21857   */\n      add\n        /* \"#utility.yul\":21832:21880   */\n      mstore\n        /* \"#utility.yul\":21897:21972   */\n      tag_733\n        /* \"#utility.yul\":21967:21971   */\n      dup2\n        /* \"#utility.yul\":21958:21964   */\n      dup8\n        /* \"#utility.yul\":21897:21972   */\n      tag_667\n      jump\t// in\n    tag_733:\n        /* \"#utility.yul\":21889:21972   */\n      swap1\n      pop\n        /* \"#utility.yul\":22019:22028   */\n      dup2\n        /* \"#utility.yul\":22013:22017   */\n      dup2\n        /* \"#utility.yul\":22009:22029   */\n      sub\n        /* \"#utility.yul\":22004:22006   */\n      0x60\n        /* \"#utility.yul\":21993:22002   */\n      dup4\n        /* \"#utility.yul\":21989:22007   */\n      add\n        /* \"#utility.yul\":21982:22030   */\n      mstore\n        /* \"#utility.yul\":22047:22122   */\n      tag_734\n        /* \"#utility.yul\":22117:22121   */\n      dup2\n        /* \"#utility.yul\":22108:22114   */\n      dup7\n        /* \"#utility.yul\":22047:22122   */\n      tag_667\n      jump\t// in\n    tag_734:\n        /* \"#utility.yul\":22039:22122   */\n      swap1\n      pop\n        /* \"#utility.yul\":22132:22205   */\n      tag_735\n        /* \"#utility.yul\":22200:22203   */\n      0x80\n        /* \"#utility.yul\":22189:22198   */\n      dup4\n        /* \"#utility.yul\":22185:22204   */\n      add\n        /* \"#utility.yul\":22176:22182   */\n      dup6\n        /* \"#utility.yul\":22132:22205   */\n      tag_710\n      jump\t// in\n    tag_735:\n        /* \"#utility.yul\":22215:22282   */\n      tag_736\n        /* \"#utility.yul\":22277:22280   */\n      0xa0\n        /* \"#utility.yul\":22266:22275   */\n      dup4\n        /* \"#utility.yul\":22262:22281   */\n      add\n        /* \"#utility.yul\":22253:22259   */\n      dup5\n        /* \"#utility.yul\":22215:22282   */\n      tag_647\n      jump\t// in\n    tag_736:\n        /* \"#utility.yul\":21554:22289   */\n      swap8\n      swap7\n      pop\n      pop\n      pop\n      pop\n      pop\n      pop\n      pop\n      jump\t// out\n        /* \"#utility.yul\":22295:22756   */\n    tag_121:\n      0x00\n        /* \"#utility.yul\":22520:22522   */\n      0x20\n        /* \"#utility.yul\":22509:22518   */\n      dup3\n        /* \"#utility.yul\":22505:22523   */\n      add\n        /* \"#utility.yul\":22497:22523   */\n      swap1\n      pop\n        /* \"#utility.yul\":22569:22578   */\n      dup2\n        /* \"#utility.yul\":22563:22567   */\n      dup2\n        /* \"#utility.yul\":22559:22579   */\n      sub\n        /* \"#utility.yul\":22555:22556   */\n      0x00\n        /* \"#utility.yul\":22544:22553   */\n      dup4\n        /* \"#utility.yul\":22540:22557   */\n      add\n        /* \"#utility.yul\":22533:22580   */\n      mstore\n        /* \"#utility.yul\":22597:22749   */\n      tag_738\n        /* \"#utility.yul\":22744:22748   */\n      dup2\n        /* \"#utility.yul\":22735:22741   */\n      dup5\n        /* \"#utility.yul\":22597:22749   */\n      tag_601\n      jump\t// in\n    tag_738:\n        /* \"#utility.yul\":22589:22749   */\n      swap1\n      pop\n        /* \"#utility.yul\":22487:22756   */\n      swap3\n      swap2\n      pop\n      pop\n      jump\t// out\n        /* \"#utility.yul\":22762:23231   */\n    tag_55:\n      0x00\n        /* \"#utility.yul\":22991:22993   */\n      0x20\n        /* \"#utility.yul\":22980:22989   */\n      dup3\n        /* \"#utility.yul\":22976:22994   */\n      add\n        /* \"#utility.yul\":22968:22994   */\n      swap1\n      pop\n        /* \"#utility.yul\":23040:23049   */\n      dup2\n        /* \"#utility.yul\":23034:23038   */\n      dup2\n        /* \"#utility.yul\":23030:23050   */\n      sub\n        /* \"#utility.yul\":23026:23027   */\n      0x00\n        /* \"#utility.yul\":23015:23024   */\n      dup4\n        /* \"#utility.yul\":23011:23028   */\n      add\n        /* \"#utility.yul\":23004:23051   */\n      mstore\n        /* \"#utility.yul\":23068:23224   */\n      tag_740\n        /* \"#utility.yul\":23219:23223   */\n      dup2\n        /* \"#utility.yul\":23210:23216   */\n      dup5\n        /* \"#utility.yul\":23068:23224   */\n      tag_615\n      jump\t// in\n    tag_740:\n        /* \"#utility.yul\":23060:23224   */\n      swap1\n      pop\n        /* \"#utility.yul\":22958:23231   */\n      swap3\n      swap2\n      pop\n      pop\n      jump\t// out\n        /* \"#utility.yul\":23237:23698   */\n    tag_59:\n      0x00\n        /* \"#utility.yul\":23462:23464   */\n      0x20\n        /* \"#utility.yul\":23451:23460   */\n      dup3\n        /* \"#utility.yul\":23447:23465   */\n      add\n        /* \"#utility.yul\":23439:23465   */\n      swap1\n      pop\n        /* \"#utility.yul\":23511:23520   */\n      dup2\n        /* \"#utility.yul\":23505:23509   */\n      dup2\n        /* \"#utility.yul\":23501:23521   */\n      sub\n        /* \"#utility.yul\":23497:23498   */\n      0x00\n        /* \"#utility.yul\":23486:23495   */\n      dup4\n        /* \"#utility.yul\":23482:23499   */\n      add\n        /* \"#utility.yul\":23475:23522   */\n      mstore\n        /* \"#utility.yul\":23539:23691   */\n      tag_742\n        /* \"#utility.yul\":23686:23690   */\n      dup2\n        /* \"#utility.yul\":23677:23683   */\n      dup5\n        /* \"#utility.yul\":23539:23691   */\n      tag_629\n      jump\t// in\n    tag_742:\n        /* \"#utility.yul\":23531:23691   */\n      swap1\n      pop\n        /* \"#utility.yul\":23429:23698   */\n      swap3\n      swap2\n      pop\n      pop\n      jump\t// out\n        /* \"#utility.yul\":23704:24225   */\n    tag_71:\n      0x00\n        /* \"#utility.yul\":23905:23907   */\n      0x60\n        /* \"#utility.yul\":23894:23903   */\n      dup3\n        /* \"#utility.yul\":23890:23908   */\n      add\n        /* \"#utility.yul\":23882:23908   */\n      swap1\n      pop\n        /* \"#utility.yul\":23954:23963   */\n      dup2\n        /* \"#utility.yul\":23948:23952   */\n      dup2\n        /* \"#utility.yul\":23944:23964   */\n      sub\n        /* \"#utility.yul\":23940:23941   */\n      0x00\n        /* \"#utility.yul\":23929:23938   */\n      dup4\n        /* \"#utility.yul\":23925:23942   */\n      add\n        /* \"#utility.yul\":23918:23965   */\n      mstore\n        /* \"#utility.yul\":23982:24060   */\n      tag_744\n        /* \"#utility.yul\":24055:24059   */\n      dup2\n        /* \"#utility.yul\":24046:24052   */\n      dup7\n        /* \"#utility.yul\":23982:24060   */\n      tag_660\n      jump\t// in\n    tag_744:\n        /* \"#utility.yul\":23974:24060   */\n      swap1\n      pop\n        /* \"#utility.yul\":24070:24142   */\n      tag_745\n        /* \"#utility.yul\":24138:24140   */\n      0x20\n        /* \"#utility.yul\":24127:24136   */\n      dup4\n        /* \"#utility.yul\":24123:24141   */\n      add\n        /* \"#utility.yul\":24114:24120   */\n      dup6\n        /* \"#utility.yul\":24070:24142   */\n      tag_598\n      jump\t// in\n    tag_745:\n        /* \"#utility.yul\":24152:24218   */\n      tag_746\n        /* \"#utility.yul\":24214:24216   */\n      0x40\n        /* \"#utility.yul\":24203:24212   */\n      dup4\n        /* \"#utility.yul\":24199:24217   */\n      add\n        /* \"#utility.yul\":24190:24196   */\n      dup5\n        /* \"#utility.yul\":24152:24218   */\n      tag_647\n      jump\t// in\n    tag_746:\n        /* \"#utility.yul\":23872:24225   */\n      swap5\n      swap4\n      pop\n      pop\n      pop\n      pop\n      jump\t// out\n        /* \"#utility.yul\":24231:24954   */\n    tag_39:\n      0x00\n        /* \"#utility.yul\":24480:24483   */\n      0x80\n        /* \"#utility.yul\":24469:24478   */\n      dup3\n        /* \"#utility.yul\":24465:24484   */\n      add\n        /* \"#utility.yul\":24457:24484   */\n      swap1\n      pop\n        /* \"#utility.yul\":24530:24539   */\n      dup2\n        /* \"#utility.yul\":24524:24528   */\n      dup2\n        /* \"#utility.yul\":24520:24540   */\n      sub\n        /* \"#utility.yul\":24516:24517   */\n      0x00\n        /* \"#utility.yul\":24505:24514   */\n      dup4\n        /* \"#utility.yul\":24501:24518   */\n      add\n        /* \"#utility.yul\":24494:24541   */\n      mstore\n        /* \"#utility.yul\":24558:24636   */\n      tag_748\n        /* \"#utility.yul\":24631:24635   */\n      dup2\n        /* \"#utility.yul\":24622:24628   */\n      dup8\n        /* \"#utility.yul\":24558:24636   */\n      tag_660\n      jump\t// in\n    tag_748:\n        /* \"#utility.yul\":24550:24636   */\n      swap1\n      pop\n        /* \"#utility.yul\":24683:24692   */\n      dup2\n        /* \"#utility.yul\":24677:24681   */\n      dup2\n        /* \"#utility.yul\":24673:24693   */\n      sub\n        /* \"#utility.yul\":24668:24670   */\n      0x20\n        /* \"#utility.yul\":24657:24666   */\n      dup4\n        /* \"#utility.yul\":24653:24671   */\n      add\n        /* \"#utility.yul\":24646:24694   */\n      mstore\n        /* \"#utility.yul\":24711:24789   */\n      tag_749\n        /* \"#utility.yul\":24784:24788   */\n      dup2\n        /* \"#utility.yul\":24775:24781   */\n      dup7\n        /* \"#utility.yul\":24711:24789   */\n      tag_660\n      jump\t// in\n    tag_749:\n        /* \"#utility.yul\":24703:24789   */\n      swap1\n      pop\n        /* \"#utility.yul\":24799:24871   */\n      tag_750\n        /* \"#utility.yul\":24867:24869   */\n      0x40\n        /* \"#utility.yul\":24856:24865   */\n      dup4\n        /* \"#utility.yul\":24852:24870   */\n      add\n        /* \"#utility.yul\":24843:24849   */\n      dup6\n        /* \"#utility.yul\":24799:24871   */\n      tag_598\n      jump\t// in\n    tag_750:\n        /* \"#utility.yul\":24881:24947   */\n      tag_751\n        /* \"#utility.yul\":24943:24945   */\n      0x60\n        /* \"#utility.yul\":24932:24941   */\n      dup4\n        /* \"#utility.yul\":24928:24946   */\n      add\n        /* \"#utility.yul\":24919:24925   */\n      dup5\n        /* \"#utility.yul\":24881:24947   */\n      tag_647\n      jump\t// in\n    tag_751:\n        /* \"#utility.yul\":24447:24954   */\n      swap6\n      swap5\n      pop\n      pop\n      pop\n      pop\n      pop\n      jump\t// out\n        /* \"#utility.yul\":24960:25885   */\n    tag_98:\n      0x00\n        /* \"#utility.yul\":25257:25260   */\n      0xa0\n        /* \"#utility.yul\":25246:25255   */\n      dup3\n        /* \"#utility.yul\":25242:25261   */\n      add\n        /* \"#utility.yul\":25234:25261   */\n      swap1\n      pop\n        /* \"#utility.yul\":25307:25316   */\n      dup2\n        /* \"#utility.yul\":25301:25305   */\n      dup2\n        /* \"#utility.yul\":25297:25317   */\n      sub\n        /* \"#utility.yul\":25293:25294   */\n      0x00\n        /* \"#utility.yul\":25282:25291   */\n      dup4\n        /* \"#utility.yul\":25278:25295   */\n      add\n        /* \"#utility.yul\":25271:25318   */\n      mstore\n        /* \"#utility.yul\":25335:25413   */\n      tag_753\n        /* \"#utility.yul\":25408:25412   */\n      dup2\n        /* \"#utility.yul\":25399:25405   */\n      dup9\n        /* \"#utility.yul\":25335:25413   */\n      tag_660\n      jump\t// in\n    tag_753:\n        /* \"#utility.yul\":25327:25413   */\n      swap1\n      pop\n        /* \"#utility.yul\":25460:25469   */\n      dup2\n        /* \"#utility.yul\":25454:25458   */\n      dup2\n        /* \"#utility.yul\":25450:25470   */\n      sub\n        /* \"#utility.yul\":25445:25447   */\n      0x20\n        /* \"#utility.yul\":25434:25443   */\n      dup4\n        /* \"#utility.yul\":25430:25448   */\n      add\n        /* \"#utility.yul\":25423:25471   */\n      mstore\n        /* \"#utility.yul\":25488:25566   */\n      tag_754\n        /* \"#utility.yul\":25561:25565   */\n      dup2\n        /* \"#utility.yul\":25552:25558   */\n      dup8\n        /* \"#utility.yul\":25488:25566   */\n      tag_660\n      jump\t// in\n    tag_754:\n        /* \"#utility.yul\":25480:25566   */\n      swap1\n      pop\n        /* \"#utility.yul\":25613:25622   */\n      dup2\n        /* \"#utility.yul\":25607:25611   */\n      dup2\n        /* \"#utility.yul\":25603:25623   */\n      sub\n        /* \"#utility.yul\":25598:25600   */\n      0x40\n        /* \"#utility.yul\":25587:25596   */\n      dup4\n        /* \"#utility.yul\":25583:25601   */\n      add\n        /* \"#utility.yul\":25576:25624   */\n      mstore\n        /* \"#utility.yul\":25641:25719   */\n      tag_755\n        /* \"#utility.yul\":25714:25718   */\n      dup2\n        /* \"#utility.yul\":25705:25711   */\n      dup7\n        /* \"#utility.yul\":25641:25719   */\n      tag_660\n      jump\t// in\n    tag_755:\n        /* \"#utility.yul\":25633:25719   */\n      swap1\n      pop\n        /* \"#utility.yul\":25729:25801   */\n      tag_756\n        /* \"#utility.yul\":25797:25799   */\n      0x60\n        /* \"#utility.yul\":25786:25795   */\n      dup4\n        /* \"#utility.yul\":25782:25800   */\n      add\n        /* \"#utility.yul\":25773:25779   */\n      dup6\n        /* \"#utility.yul\":25729:25801   */\n      tag_710\n      jump\t// in\n    tag_756:\n        /* \"#utility.yul\":25811:25878   */\n      tag_757\n        /* \"#utility.yul\":25873:25876   */\n      0x80\n        /* \"#utility.yul\":25862:25871   */\n      dup4\n        /* \"#utility.yul\":25858:25877   */\n      add\n        /* \"#utility.yul\":25849:25855   */\n      dup5\n        /* \"#utility.yul\":25811:25878   */\n      tag_647\n      jump\t// in\n    tag_757:\n        /* \"#utility.yul\":25224:25885   */\n      swap7\n      swap6\n      pop\n      pop\n      pop\n      pop\n      pop\n      pop\n      jump\t// out\n        /* \"#utility.yul\":25891:26310   */\n    tag_480:\n      0x00\n        /* \"#utility.yul\":26095:26097   */\n      0x20\n        /* \"#utility.yul\":26084:26093   */\n      dup3\n        /* \"#utility.yul\":26080:26098   */\n      add\n        /* \"#utility.yul\":26072:26098   */\n      swap1\n      pop\n        /* \"#utility.yul\":26144:26153   */\n      dup2\n        /* \"#utility.yul\":26138:26142   */\n      dup2\n        /* \"#utility.yul\":26134:26154   */\n      sub\n        /* \"#utility.yul\":26130:26131   */\n      0x00\n        /* \"#utility.yul\":26119:26128   */\n      dup4\n        /* \"#utility.yul\":26115:26132   */\n      add\n        /* \"#utility.yul\":26108:26155   */\n      mstore\n        /* \"#utility.yul\":26172:26303   */\n      tag_759\n        /* \"#utility.yul\":26298:26302   */\n      dup2\n        /* \"#utility.yul\":26172:26303   */\n      tag_679\n      jump\t// in\n    tag_759:\n        /* \"#utility.yul\":26164:26303   */\n      swap1\n      pop\n        /* \"#utility.yul\":26062:26310   */\n      swap2\n      swap1\n      pop\n      jump\t// out\n        /* \"#utility.yul\":26316:26735   */\n    tag_471:\n      0x00\n        /* \"#utility.yul\":26520:26522   */\n      0x20\n        /* \"#utility.yul\":26509:26518   */\n      dup3\n        /* \"#utility.yul\":26505:26523   */\n      add\n        /* \"#utility.yul\":26497:26523   */\n      swap1\n      pop\n        /* \"#utility.yul\":26569:26578   */\n      dup2\n        /* \"#utility.yul\":26563:26567   */\n      dup2\n        /* \"#utility.yul\":26559:26579   */\n      sub\n        /* \"#utility.yul\":26555:26556   */\n      0x00\n        /* \"#utility.yul\":26544:26553   */\n      dup4\n        /* \"#utility.yul\":26540:26557   */\n      add\n        /* \"#utility.yul\":26533:26580   */\n      mstore\n        /* \"#utility.yul\":26597:26728   */\n      tag_761\n        /* \"#utility.yul\":26723:26727   */\n      dup2\n        /* \"#utility.yul\":26597:26728   */\n      tag_682\n      jump\t// in\n    tag_761:\n        /* \"#utility.yul\":26589:26728   */\n      swap1\n      pop\n        /* \"#utility.yul\":26487:26735   */\n      swap2\n      swap1\n      pop\n      jump\t// out\n        /* \"#utility.yul\":26741:27160   */\n    tag_489:\n      0x00\n        /* \"#utility.yul\":26945:26947   */\n      0x20\n        /* \"#utility.yul\":26934:26943   */\n      dup3\n        /* \"#utility.yul\":26930:26948   */\n      add\n        /* \"#utility.yul\":26922:26948   */\n      swap1\n      pop\n        /* \"#utility.yul\":26994:27003   */\n      dup2\n        /* \"#utility.yul\":26988:26992   */\n      dup2\n        /* \"#utility.yul\":26984:27004   */\n      sub\n        /* \"#utility.yul\":26980:26981   */\n      0x00\n        /* \"#utility.yul\":26969:26978   */\n      dup4\n        /* \"#utility.yul\":26965:26982   */\n      add\n        /* \"#utility.yul\":26958:27005   */\n      mstore\n        /* \"#utility.yul\":27022:27153   */\n      tag_763\n        /* \"#utility.yul\":27148:27152   */\n      dup2\n        /* \"#utility.yul\":27022:27153   */\n      tag_685\n      jump\t// in\n    tag_763:\n        /* \"#utility.yul\":27014:27153   */\n      swap1\n      pop\n        /* \"#utility.yul\":26912:27160   */\n      swap2\n      swap1\n      pop\n      jump\t// out\n        /* \"#utility.yul\":27166:27388   */\n    tag_47:\n      0x00\n        /* \"#utility.yul\":27297:27299   */\n      0x20\n        /* \"#utility.yul\":27286:27295   */\n      dup3\n        /* \"#utility.yul\":27282:27300   */\n      add\n        /* \"#utility.yul\":27274:27300   */\n      swap1\n      pop\n        /* \"#utility.yul\":27310:27381   */\n      tag_765\n        /* \"#utility.yul\":27378:27379   */\n      0x00\n        /* \"#utility.yul\":27367:27376   */\n      dup4\n        /* \"#utility.yul\":27363:27380   */\n      add\n        /* \"#utility.yul\":27354:27360   */\n      dup5\n        /* \"#utility.yul\":27310:27381   */\n      tag_710\n      jump\t// in\n    tag_765:\n        /* \"#utility.yul\":27264:27388   */\n      swap3\n      swap2\n      pop\n      pop\n      jump\t// out\n        /* \"#utility.yul\":27394:28228   */\n    tag_84:\n      0x00\n        /* \"#utility.yul\":27671:27674   */\n      0xa0\n        /* \"#utility.yul\":27660:27669   */\n      dup3\n        /* \"#utility.yul\":27656:27675   */\n      add\n        /* \"#utility.yul\":27648:27675   */\n      swap1\n      pop\n        /* \"#utility.yul\":27685:27756   */\n      tag_767\n        /* \"#utility.yul\":27753:27754   */\n      0x00\n        /* \"#utility.yul\":27742:27751   */\n      dup4\n        /* \"#utility.yul\":27738:27755   */\n      add\n        /* \"#utility.yul\":27729:27735   */\n      dup9\n        /* \"#utility.yul\":27685:27756   */\n      tag_710\n      jump\t// in\n    tag_767:\n        /* \"#utility.yul\":27803:27812   */\n      dup2\n        /* \"#utility.yul\":27797:27801   */\n      dup2\n        /* \"#utility.yul\":27793:27813   */\n      sub\n        /* \"#utility.yul\":27788:27790   */\n      0x20\n        /* \"#utility.yul\":27777:27786   */\n      dup4\n        /* \"#utility.yul\":27773:27791   */\n      add\n        /* \"#utility.yul\":27766:27814   */\n      mstore\n        /* \"#utility.yul\":27831:27909   */\n      tag_768\n        /* \"#utility.yul\":27904:27908   */\n      dup2\n        /* \"#utility.yul\":27895:27901   */\n      dup8\n        /* \"#utility.yul\":27831:27909   */\n      tag_660\n      jump\t// in\n    tag_768:\n        /* \"#utility.yul\":27823:27909   */\n      swap1\n      pop\n        /* \"#utility.yul\":27956:27965   */\n      dup2\n        /* \"#utility.yul\":27950:27954   */\n      dup2\n        /* \"#utility.yul\":27946:27966   */\n      sub\n        /* \"#utility.yul\":27941:27943   */\n      0x40\n        /* \"#utility.yul\":27930:27939   */\n      dup4\n        /* \"#utility.yul\":27926:27944   */\n      add\n        /* \"#utility.yul\":27919:27967   */\n      mstore\n        /* \"#utility.yul\":27984:28062   */\n      tag_769\n        /* \"#utility.yul\":28057:28061   */\n      dup2\n        /* \"#utility.yul\":28048:28054   */\n      dup7\n        /* \"#utility.yul\":27984:28062   */\n      tag_660\n      jump\t// in\n    tag_769:\n        /* \"#utility.yul\":27976:28062   */\n      swap1\n      pop\n        /* \"#utility.yul\":28072:28144   */\n      tag_770\n        /* \"#utility.yul\":28140:28142   */\n      0x60\n        /* \"#utility.yul\":28129:28138   */\n      dup4\n        /* \"#utility.yul\":28125:28143   */\n      add\n        /* \"#utility.yul\":28116:28122   */\n      dup6\n        /* \"#utility.yul\":28072:28144   */\n      tag_598\n      jump\t// in\n    tag_770:\n        /* \"#utility.yul\":28154:28221   */\n      tag_771\n        /* \"#utility.yul\":28216:28219   */\n      0x80\n        /* \"#utility.yul\":28205:28214   */\n      dup4\n        /* \"#utility.yul\":28201:28220   */\n      add\n        /* \"#utility.yul\":28192:28198   */\n      dup5\n        /* \"#utility.yul\":28154:28221   */\n      tag_647\n      jump\t// in\n    tag_771:\n        /* \"#utility.yul\":27638:28228   */\n      swap7\n      swap6\n      pop\n      pop\n      pop\n      pop\n      pop\n      pop\n      jump\t// out\n        /* \"#utility.yul\":28234:29056   */\n    tag_259:\n      0x00\n        /* \"#utility.yul\":28505:28508   */\n      0xa0\n        /* \"#utility.yul\":28494:28503   */\n      dup3\n        /* \"#utility.yul\":28490:28509   */\n      add\n        /* \"#utility.yul\":28482:28509   */\n      swap1\n      pop\n        /* \"#utility.yul\":28519:28590   */\n      tag_773\n        /* \"#utility.yul\":28587:28588   */\n      0x00\n        /* \"#utility.yul\":28576:28585   */\n      dup4\n        /* \"#utility.yul\":28572:28589   */\n      add\n        /* \"#utility.yul\":28563:28569   */\n      dup9\n        /* \"#utility.yul\":28519:28590   */\n      tag_710\n      jump\t// in\n    tag_773:\n        /* \"#utility.yul\":28637:28646   */\n      dup2\n        /* \"#utility.yul\":28631:28635   */\n      dup2\n        /* \"#utility.yul\":28627:28647   */\n      sub\n        /* \"#utility.yul\":28622:28624   */\n      0x20\n        /* \"#utility.yul\":28611:28620   */\n      dup4\n        /* \"#utility.yul\":28607:28625   */\n      add\n        /* \"#utility.yul\":28600:28648   */\n      mstore\n        /* \"#utility.yul\":28665:28740   */\n      tag_774\n        /* \"#utility.yul\":28735:28739   */\n      dup2\n        /* \"#utility.yul\":28726:28732   */\n      dup8\n        /* \"#utility.yul\":28665:28740   */\n      tag_667\n      jump\t// in\n    tag_774:\n        /* \"#utility.yul\":28657:28740   */\n      swap1\n      pop\n        /* \"#utility.yul\":28787:28796   */\n      dup2\n        /* \"#utility.yul\":28781:28785   */\n      dup2\n        /* \"#utility.yul\":28777:28797   */\n      sub\n        /* \"#utility.yul\":28772:28774   */\n      0x40\n        /* \"#utility.yul\":28761:28770   */\n      dup4\n        /* \"#utility.yul\":28757:28775   */\n      add\n        /* \"#utility.yul\":28750:28798   */\n      mstore\n        /* \"#utility.yul\":28815:28890   */\n      tag_775\n        /* \"#utility.yul\":28885:28889   */\n      dup2\n        /* \"#utility.yul\":28876:28882   */\n      dup7\n        /* \"#utility.yul\":28815:28890   */\n      tag_667\n      jump\t// in\n    tag_775:\n        /* \"#utility.yul\":28807:28890   */\n      swap1\n      pop\n        /* \"#utility.yul\":28900:28972   */\n      tag_776\n        /* \"#utility.yul\":28968:28970   */\n      0x60\n        /* \"#utility.yul\":28957:28966   */\n      dup4\n        /* \"#utility.yul\":28953:28971   */\n      add\n        /* \"#utility.yul\":28944:28950   */\n      dup6\n        /* \"#utility.yul\":28900:28972   */\n      tag_598\n      jump\t// in\n    tag_776:\n        /* \"#utility.yul\":28982:29049   */\n      tag_777\n        /* \"#utility.yul\":29044:29047   */\n      0x80\n        /* \"#utility.yul\":29033:29042   */\n      dup4\n        /* \"#utility.yul\":29029:29048   */\n      add\n        /* \"#utility.yul\":29020:29026   */\n      dup5\n        /* \"#utility.yul\":28982:29049   */\n      tag_647\n      jump\t// in\n    tag_777:\n        /* \"#utility.yul\":28472:29056   */\n      swap7\n      swap6\n      pop\n      pop\n      pop\n      pop\n      pop\n      pop\n      jump\t// out\n        /* \"#utility.yul\":29062:29340   */\n    tag_505:\n      0x00\n        /* \"#utility.yul\":29128:29130   */\n      0x40\n        /* \"#utility.yul\":29122:29131   */\n      mload\n        /* \"#utility.yul\":29112:29131   */\n      swap1\n      pop\n        /* \"#utility.yul\":29170:29174   */\n      dup2\n        /* \"#utility.yul\":29162:29168   */\n      dup2\n        /* \"#utility.yul\":29158:29175   */\n      add\n        /* \"#utility.yul\":29277:29283   */\n      dup2\n        /* \"#utility.yul\":29265:29275   */\n      dup2\n        /* \"#utility.yul\":29262:29284   */\n      lt\n        /* \"#utility.yul\":29241:29259   */\n      0xffffffffffffffff\n        /* \"#utility.yul\":29229:29239   */\n      dup3\n        /* \"#utility.yul\":29226:29260   */\n      gt\n        /* \"#utility.yul\":29223:29285   */\n      or\n        /* \"#utility.yul\":29220:29222   */\n      iszero\n      tag_779\n      jumpi\n        /* \"#utility.yul\":29288:29301   */\n      tag_780\n      tag_781\n      jump\t// in\n    tag_780:\n        /* \"#utility.yul\":29220:29222   */\n    tag_779:\n        /* \"#utility.yul\":29323:29333   */\n      dup1\n        /* \"#utility.yul\":29319:29321   */\n      0x40\n        /* \"#utility.yul\":29312:29334   */\n      mstore\n        /* \"#utility.yul\":29102:29340   */\n      pop\n      swap2\n      swap1\n      pop\n      jump\t// out\n        /* \"#utility.yul\":29346:29673   */\n    tag_504:\n      0x00\n        /* \"#utility.yul\":29498:29516   */\n      0xffffffffffffffff\n        /* \"#utility.yul\":29490:29496   */\n      dup3\n        /* \"#utility.yul\":29487:29517   */\n      gt\n        /* \"#utility.yul\":29484:29486   */\n      iszero\n      tag_783\n      jumpi\n        /* \"#utility.yul\":29520:29533   */\n      tag_784\n      tag_781\n      jump\t// in\n    tag_784:\n        /* \"#utility.yul\":29484:29486   */\n    tag_783:\n        /* \"#utility.yul\":29600:29604   */\n      0x1f\n        /* \"#utility.yul\":29596:29605   */\n      not\n        /* \"#utility.yul\":29589:29593   */\n      0x1f\n        /* \"#utility.yul\":29581:29587   */\n      dup4\n        /* \"#utility.yul\":29577:29594   */\n      add\n        /* \"#utility.yul\":29573:29606   */\n      and\n        /* \"#utility.yul\":29565:29606   */\n      swap1\n      pop\n        /* \"#utility.yul\":29661:29665   */\n      0x20\n        /* \"#utility.yul\":29655:29659   */\n      dup2\n        /* \"#utility.yul\":29651:29666   */\n      add\n        /* \"#utility.yul\":29643:29666   */\n      swap1\n      pop\n        /* \"#utility.yul\":29413:29673   */\n      swap2\n      swap1\n      pop\n      jump\t// out\n        /* \"#utility.yul\":29679:29833   */\n    tag_608:\n      0x00\n        /* \"#utility.yul\":29791:29794   */\n      dup2\n        /* \"#utility.yul\":29783:29794   */\n      swap1\n      pop\n        /* \"#utility.yul\":29821:29825   */\n      0x20\n        /* \"#utility.yul\":29816:29819   */\n      dup3\n        /* \"#utility.yul\":29812:29826   */\n      add\n        /* \"#utility.yul\":29804:29826   */\n      swap1\n      pop\n        /* \"#utility.yul\":29773:29833   */\n      swap2\n      swap1\n      pop\n      jump\t// out\n        /* \"#utility.yul\":29839:29995   */\n    tag_622:\n      0x00\n        /* \"#utility.yul\":29953:29956   */\n      dup2\n        /* \"#utility.yul\":29945:29956   */\n      swap1\n      pop\n        /* \"#utility.yul\":29983:29987   */\n      0x20\n        /* \"#utility.yul\":29978:29981   */\n      dup3\n        /* \"#utility.yul\":29974:29988   */\n      add\n        /* \"#utility.yul\":29966:29988   */\n      swap1\n      pop\n        /* \"#utility.yul\":29935:29995   */\n      swap2\n      swap1\n      pop\n      jump\t// out\n        /* \"#utility.yul\":30001:30155   */\n    tag_636:\n      0x00\n        /* \"#utility.yul\":30113:30116   */\n      dup2\n        /* \"#utility.yul\":30105:30116   */\n      swap1\n      pop\n        /* \"#utility.yul\":30143:30147   */\n      0x20\n        /* \"#utility.yul\":30138:30141   */\n      dup3\n        /* \"#utility.yul\":30134:30148   */\n      add\n        /* \"#utility.yul\":30126:30148   */\n      swap1\n      pop\n        /* \"#utility.yul\":30095:30155   */\n      swap2\n      swap1\n      pop\n      jump\t// out\n        /* \"#utility.yul\":30161:30302   */\n    tag_675:\n      0x00\n        /* \"#utility.yul\":30233:30236   */\n      dup2\n        /* \"#utility.yul\":30225:30236   */\n      swap1\n      pop\n        /* \"#utility.yul\":30256:30259   */\n      dup2\n        /* \"#utility.yul\":30253:30254   */\n      0x00\n        /* \"#utility.yul\":30246:30260   */\n      mstore\n        /* \"#utility.yul\":30290:30294   */\n      0x20\n        /* \"#utility.yul\":30287:30288   */\n      0x00\n        /* \"#utility.yul\":30277:30295   */\n      keccak256\n        /* \"#utility.yul\":30269:30295   */\n      swap1\n      pop\n        /* \"#utility.yul\":30215:30302   */\n      swap2\n      swap1\n      pop\n      jump\t// out\n        /* \"#utility.yul\":30308:30444   */\n    tag_604:\n      0x00\n        /* \"#utility.yul\":30431:30436   */\n      dup2\n        /* \"#utility.yul\":30425:30437   */\n      mload\n        /* \"#utility.yul\":30415:30437   */\n      swap1\n      pop\n        /* \"#utility.yul\":30404:30444   */\n      swap2\n      swap1\n      pop\n      jump\t// out\n        /* \"#utility.yul\":30450:30588   */\n    tag_618:\n      0x00\n        /* \"#utility.yul\":30575:30580   */\n      dup2\n        /* \"#utility.yul\":30569:30581   */\n      mload\n        /* \"#utility.yul\":30559:30581   */\n      swap1\n      pop\n        /* \"#utility.yul\":30548:30588   */\n      swap2\n      swap1\n      pop\n      jump\t// out\n        /* \"#utility.yul\":30594:30730   */\n    tag_632:\n      0x00\n        /* \"#utility.yul\":30717:30722   */\n      dup2\n        /* \"#utility.yul\":30711:30723   */\n      mload\n        /* \"#utility.yul\":30701:30723   */\n      swap1\n      pop\n        /* \"#utility.yul\":30690:30730   */\n      swap2\n      swap1\n      pop\n      jump\t// out\n        /* \"#utility.yul\":30736:30835   */\n    tag_653:\n      0x00\n        /* \"#utility.yul\":30822:30827   */\n      dup2\n        /* \"#utility.yul\":30816:30828   */\n      mload\n        /* \"#utility.yul\":30806:30828   */\n      swap1\n      pop\n        /* \"#utility.yul\":30795:30835   */\n      swap2\n      swap1\n      pop\n      jump\t// out\n        /* \"#utility.yul\":30841:30976   */\n    tag_614:\n      0x00\n        /* \"#utility.yul\":30965:30969   */\n      0x20\n        /* \"#utility.yul\":30960:30963   */\n      dup3\n        /* \"#utility.yul\":30956:30970   */\n      add\n        /* \"#utility.yul\":30948:30970   */\n      swap1\n      pop\n        /* \"#utility.yul\":30938:30976   */\n      swap2\n      swap1\n      pop\n      jump\t// out\n        /* \"#utility.yul\":30982:31119   */\n    tag_628:\n      0x00\n        /* \"#utility.yul\":31108:31112   */\n      0x20\n        /* \"#utility.yul\":31103:31106   */\n      dup3\n        /* \"#utility.yul\":31099:31113   */\n      add\n        /* \"#utility.yul\":31091:31113   */\n      swap1\n      pop\n        /* \"#utility.yul\":31081:31119   */\n      swap2\n      swap1\n      pop\n      jump\t// out\n        /* \"#utility.yul\":31125:31260   */\n    tag_642:\n      0x00\n        /* \"#utility.yul\":31249:31253   */\n      0x20\n        /* \"#utility.yul\":31244:31247   */\n      dup3\n        /* \"#utility.yul\":31240:31254   */\n      add\n        /* \"#utility.yul\":31232:31254   */\n      swap1\n      pop\n        /* \"#utility.yul\":31222:31260   */\n      swap2\n      swap1\n      pop\n      jump\t// out\n        /* \"#utility.yul\":31266:31472   */\n    tag_606:\n      0x00\n        /* \"#utility.yul\":31421:31427   */\n      dup3\n        /* \"#utility.yul\":31416:31419   */\n      dup3\n        /* \"#utility.yul\":31409:31428   */\n      mstore\n        /* \"#utility.yul\":31461:31465   */\n      0x20\n        /* \"#utility.yul\":31456:31459   */\n      dup3\n        /* \"#utility.yul\":31452:31466   */\n      add\n        /* \"#utility.yul\":31437:31466   */\n      swap1\n      pop\n        /* \"#utility.yul\":31399:31472   */\n      swap3\n      swap2\n      pop\n      pop\n      jump\t// out\n        /* \"#utility.yul\":31478:31686   */\n    tag_620:\n      0x00\n        /* \"#utility.yul\":31635:31641   */\n      dup3\n        /* \"#utility.yul\":31630:31633   */\n      dup3\n        /* \"#utility.yul\":31623:31642   */\n      mstore\n        /* \"#utility.yul\":31675:31679   */\n      0x20\n        /* \"#utility.yul\":31670:31673   */\n      dup3\n        /* \"#utility.yul\":31666:31680   */\n      add\n        /* \"#utility.yul\":31651:31680   */\n      swap1\n      pop\n        /* \"#utility.yul\":31613:31686   */\n      swap3\n      swap2\n      pop\n      pop\n      jump\t// out\n        /* \"#utility.yul\":31692:31898   */\n    tag_634:\n      0x00\n        /* \"#utility.yul\":31847:31853   */\n      dup3\n        /* \"#utility.yul\":31842:31845   */\n      dup3\n        /* \"#utility.yul\":31835:31854   */\n      mstore\n        /* \"#utility.yul\":31887:31891   */\n      0x20\n        /* \"#utility.yul\":31882:31885   */\n      dup3\n        /* \"#utility.yul\":31878:31892   */\n      add\n        /* \"#utility.yul\":31863:31892   */\n      swap1\n      pop\n        /* \"#utility.yul\":31825:31898   */\n      swap3\n      swap2\n      pop\n      pop\n      jump\t// out\n        /* \"#utility.yul\":31904:32063   */\n    tag_655:\n      0x00\n        /* \"#utility.yul\":32012:32018   */\n      dup3\n        /* \"#utility.yul\":32007:32010   */\n      dup3\n        /* \"#utility.yul\":32000:32019   */\n      mstore\n        /* \"#utility.yul\":32052:32056   */\n      0x20\n        /* \"#utility.yul\":32047:32050   */\n      dup3\n        /* \"#utility.yul\":32043:32057   */\n      add\n        /* \"#utility.yul\":32028:32057   */\n      swap1\n      pop\n        /* \"#utility.yul\":31990:32063   */\n      swap3\n      swap2\n      pop\n      pop\n      jump\t// out\n        /* \"#utility.yul\":32069:32238   */\n    tag_664:\n      0x00\n        /* \"#utility.yul\":32187:32193   */\n      dup3\n        /* \"#utility.yul\":32182:32185   */\n      dup3\n        /* \"#utility.yul\":32175:32194   */\n      mstore\n        /* \"#utility.yul\":32227:32231   */\n      0x20\n        /* \"#utility.yul\":32222:32225   */\n      dup3\n        /* \"#utility.yul\":32218:32232   */\n      add\n        /* \"#utility.yul\":32203:32232   */\n      swap1\n      pop\n        /* \"#utility.yul\":32165:32238   */\n      swap3\n      swap2\n      pop\n      pop\n      jump\t// out\n        /* \"#utility.yul\":32244:32340   */\n    tag_597:\n      0x00\n        /* \"#utility.yul\":32310:32334   */\n      tag_802\n        /* \"#utility.yul\":32328:32333   */\n      dup3\n        /* \"#utility.yul\":32310:32334   */\n      tag_803\n      jump\t// in\n    tag_802:\n        /* \"#utility.yul\":32299:32334   */\n      swap1\n      pop\n        /* \"#utility.yul\":32289:32340   */\n      swap2\n      swap1\n      pop\n      jump\t// out\n        /* \"#utility.yul\":32346:32436   */\n    tag_646:\n      0x00\n        /* \"#utility.yul\":32423:32428   */\n      dup2\n        /* \"#utility.yul\":32416:32429   */\n      iszero\n        /* \"#utility.yul\":32409:32430   */\n      iszero\n        /* \"#utility.yul\":32398:32430   */\n      swap1\n      pop\n        /* \"#utility.yul\":32388:32436   */\n      swap2\n      swap1\n      pop\n      jump\t// out\n        /* \"#utility.yul\":32442:32568   */\n    tag_803:\n      0x00\n        /* \"#utility.yul\":32519:32561   */\n      0xffffffffffffffffffffffffffffffffffffffff\n        /* \"#utility.yul\":32512:32517   */\n      dup3\n        /* \"#utility.yul\":32508:32562   */\n      and\n        /* \"#utility.yul\":32497:32562   */\n      swap1\n      pop\n        /* \"#utility.yul\":32487:32568   */\n      swap2\n      swap1\n      pop\n      jump\t// out\n        /* \"#utility.yul\":32574:32651   */\n    tag_709:\n      0x00\n        /* \"#utility.yul\":32640:32645   */\n      dup2\n        /* \"#utility.yul\":32629:32645   */\n      swap1\n      pop\n        /* \"#utility.yul\":32619:32651   */\n      swap2\n      swap1\n      pop\n      jump\t// out\n        /* \"#utility.yul\":32657:32811   */\n    tag_508:\n        /* \"#utility.yul\":32741:32747   */\n      dup3\n        /* \"#utility.yul\":32736:32739   */\n      dup2\n        /* \"#utility.yul\":32731:32734   */\n      dup4\n        /* \"#utility.yul\":32718:32748   */\n      calldatacopy\n        /* \"#utility.yul\":32803:32804   */\n      0x00\n        /* \"#utility.yul\":32794:32800   */\n      dup4\n        /* \"#utility.yul\":32789:32792   */\n      dup4\n        /* \"#utility.yul\":32785:32801   */\n      add\n        /* \"#utility.yul\":32778:32805   */\n      mstore\n        /* \"#utility.yul\":32708:32811   */\n      pop\n      pop\n      pop\n      jump\t// out\n        /* \"#utility.yul\":32817:33124   */\n    tag_657:\n        /* \"#utility.yul\":32885:32886   */\n      0x00\n        /* \"#utility.yul\":32895:33008   */\n    tag_809:\n        /* \"#utility.yul\":32909:32915   */\n      dup4\n        /* \"#utility.yul\":32906:32907   */\n      dup2\n        /* \"#utility.yul\":32903:32916   */\n      lt\n        /* \"#utility.yul\":32895:33008   */\n      iszero\n      tag_811\n      jumpi\n        /* \"#utility.yul\":32994:32995   */\n      dup1\n        /* \"#utility.yul\":32989:32992   */\n      dup3\n        /* \"#utility.yul\":32985:32996   */\n      add\n        /* \"#utility.yul\":32979:32997   */\n      mload\n        /* \"#utility.yul\":32975:32976   */\n      dup2\n        /* \"#utility.yul\":32970:32973   */\n      dup5\n        /* \"#utility.yul\":32966:32977   */\n      add\n        /* \"#utility.yul\":32959:32998   */\n      mstore\n        /* \"#utility.yul\":32931:32933   */\n      0x20\n        /* \"#utility.yul\":32928:32929   */\n      dup2\n        /* \"#utility.yul\":32924:32934   */\n      add\n        /* \"#utility.yul\":32919:32934   */\n      swap1\n      pop\n        /* \"#utility.yul\":32895:33008   */\n      jump(tag_809)\n    tag_811:\n        /* \"#utility.yul\":33026:33032   */\n      dup4\n        /* \"#utility.yul\":33023:33024   */\n      dup2\n        /* \"#utility.yul\":33020:33033   */\n      gt\n        /* \"#utility.yul\":33017:33019   */\n      iszero\n      tag_812\n      jumpi\n        /* \"#utility.yul\":33106:33107   */\n      0x00\n        /* \"#utility.yul\":33097:33103   */\n      dup5\n        /* \"#utility.yul\":33092:33095   */\n      dup5\n        /* \"#utility.yul\":33088:33104   */\n      add\n        /* \"#utility.yul\":33081:33108   */\n      mstore\n        /* \"#utility.yul\":33017:33019   */\n    tag_812:\n        /* \"#utility.yul\":32866:33124   */\n      pop\n      pop\n      pop\n      pop\n      jump\t// out\n        /* \"#utility.yul\":33130:33178   */\n    tag_781:\n        /* \"#utility.yul\":33163:33172   */\n      invalid\n        /* \"#utility.yul\":33184:33286   */\n    tag_659:\n      0x00\n        /* \"#utility.yul\":33276:33278   */\n      0x1f\n        /* \"#utility.yul\":33272:33279   */\n      not\n        /* \"#utility.yul\":33267:33269   */\n      0x1f\n        /* \"#utility.yul\":33260:33265   */\n      dup4\n        /* \"#utility.yul\":33256:33270   */\n      add\n        /* \"#utility.yul\":33252:33280   */\n      and\n        /* \"#utility.yul\":33242:33280   */\n      swap1\n      pop\n        /* \"#utility.yul\":33232:33286   */\n      swap2\n      swap1\n      pop\n      jump\t// out\n        /* \"#utility.yul\":33292:33414   */\n    tag_512:\n        /* \"#utility.yul\":33365:33389   */\n      tag_816\n        /* \"#utility.yul\":33383:33388   */\n      dup2\n        /* \"#utility.yul\":33365:33389   */\n      tag_597\n      jump\t// in\n    tag_816:\n        /* \"#utility.yul\":33358:33363   */\n      dup2\n        /* \"#utility.yul\":33355:33390   */\n      eq\n        /* \"#utility.yul\":33345:33347   */\n      tag_817\n      jumpi\n        /* \"#utility.yul\":33404:33405   */\n      0x00\n        /* \"#utility.yul\":33401:33402   */\n      dup1\n        /* \"#utility.yul\":33394:33406   */\n      revert\n        /* \"#utility.yul\":33345:33347   */\n    tag_817:\n        /* \"#utility.yul\":33335:33414   */\n      pop\n      jump\t// out\n        /* \"#utility.yul\":33420:33536   */\n    tag_516:\n        /* \"#utility.yul\":33490:33511   */\n      tag_819\n        /* \"#utility.yul\":33505:33510   */\n      dup2\n        /* \"#utility.yul\":33490:33511   */\n      tag_646\n      jump\t// in\n    tag_819:\n        /* \"#utility.yul\":33483:33488   */\n      dup2\n        /* \"#utility.yul\":33480:33512   */\n      eq\n        /* \"#utility.yul\":33470:33472   */\n      tag_820\n      jumpi\n        /* \"#utility.yul\":33526:33527   */\n      0x00\n        /* \"#utility.yul\":33523:33524   */\n      dup1\n        /* \"#utility.yul\":33516:33528   */\n      revert\n        /* \"#utility.yul\":33470:33472   */\n    tag_820:\n        /* \"#utility.yul\":33460:33536   */\n      pop\n      jump\t// out\n        /* \"#utility.yul\":33542:33664   */\n    tag_524:\n        /* \"#utility.yul\":33615:33639   */\n      tag_822\n        /* \"#utility.yul\":33633:33638   */\n      dup2\n        /* \"#utility.yul\":33615:33639   */\n      tag_709\n      jump\t// in\n    tag_822:\n        /* \"#utility.yul\":33608:33613   */\n      dup2\n        /* \"#utility.yul\":33605:33640   */\n      eq\n        /* \"#utility.yul\":33595:33597   */\n      tag_823\n      jumpi\n        /* \"#utility.yul\":33654:33655   */\n      0x00\n        /* \"#utility.yul\":33651:33652   */\n      dup1\n        /* \"#utility.yul\":33644:33656   */\n      revert\n        /* \"#utility.yul\":33595:33597   */\n    tag_823:\n        /* \"#utility.yul\":33585:33664   */\n      pop\n      jump\t// out\n\n    auxdata: 0xa26469706673582212202c349d04474652a3e9318c813282f9410bbc1058c8e69b28e370cee9462f249d64736f6c63430007060033\n}\n",
    "bytecode": {
      "linkReferences": {},
      "object": "6080604052738fcf3b91599c6d5bb93d8c7df9f3974c622b83a4600260006101000a81548173ffffffffffffffffffffffffffffffffffffffff021916908373ffffffffffffffffffffffffffffffffffffffff16021790555034801561006557600080fd5b50614595806100756000396000f3fe608060405234801561001057600080fd5b506004361061018e5760003560e01c80639a2e5bed116100de578063b584361311610097578063dc7aa36b11610071578063dc7aa36b146104d3578063e1ee3b5614610506578063ea87659f14610522578063f0d95090146105565761018e565b8063b584361314610450578063c266406d1461046e578063d53d0a851461049e5761018e565b80639a2e5bed146103615780639b70e77914610391578063a0568e2d146103c5578063a17d7a38146103e1578063a27876c5146103ff578063a549a4ed1461041b5761018e565b806360ea3cdc1161014b5780636f39507d116101255780636f39507d146102c25780637fe53f83146102de578063898bd140146102fa5780638db2fc411461032e5761018e565b806360ea3cdc146102585780636151efb1146102745780636cd8ebdc146102905761018e565b806302655c2e146101935780631b057e40146101c65780631ba51696146101e25780634807fc69146102005780634e9f71541461021c5780635a4e5d3e1461023a575b600080fd5b6101ad60048036038101906101a89190613912565b610574565b6040516101bd9493929190614137565b60405180910390f35b6101e060048036038101906101db919061387f565b610776565b005b6101ea6108f2565b6040516101f79190614252565b60405180910390f35b61021a600480360381019061021591906135e4565b6108ff565b005b610224610a66565b60405161023191906140b5565b60405180910390f35b610242610d86565b60405161024f91906140d7565b60405180910390f35b610272600480360381019061026d9190613674565b611004565b005b61028e60048036038101906102899190613912565b6111df565b005b6102aa60048036038101906102a591906135e4565b611327565b6040516102b9939291906140f9565b60405180910390f35b6102dc60048036038101906102d7919061393b565b61146c565b005b6102f860048036038101906102f391906137ae565b61167a565b005b610314600480360381019061030f91906135e4565b6118a1565b60405161032595949392919061426d565b60405180910390f35b61034860048036038101906103439190613912565b611a34565b6040516103589493929190613f0f565b60405180910390f35b61037b600480360381019061037691906135e4565b611b59565b60405161038891906140d7565b60405180910390f35b6103ab60048036038101906103a691906135e4565b611e4c565b6040516103bc95949392919061418a565b60405180910390f35b6103df60048036038101906103da91906135e4565b6120ee565b005b6103e9612237565b6040516103f69190614252565b60405180910390f35b610419600480360381019061041491906136ef565b612244565b005b610435600480360381019061043091906135e4565b6123c8565b60405161044796959493929190613f5b565b60405180910390f35b6104586125f9565b6040516104659190614252565b60405180910390f35b610488600480360381019061048391906135e4565b612606565b6040516104959190614093565b60405180910390f35b6104b860048036038101906104b39190613912565b6128a3565b6040516104ca96959493929190613f5b565b60405180910390f35b6104ed60048036038101906104e891906135e4565b612ae4565b6040516104fd9493929190613f0f565b60405180910390f35b610520600480360381019061051b919061360d565b612bf9565b005b61053c60048036038101906105379190613912565b612d8e565b60405161054d95949392919061426d565b60405180910390f35b61055e612f31565b60405161056b9190614093565b60405180910390f35b606080600080600061058586613159565b90506008818154811061059457fe5b9060005260206000209060040201600101600882815481106105b257fe5b9060005260206000209060040201600201600883815481106105d057fe5b906000526020600020906004020160030160009054906101000a900473ffffffffffffffffffffffffffffffffffffffff166008848154811061060f57fe5b906000526020600020906004020160030160149054906101000a900460ff16838054600181600116156101000203166002900480601f0160208091040260200160405190810160405280929190818152602001828054600181600116156101000203166002900480156106c35780601f10610698576101008083540402835291602001916106c3565b820191906000526020600020905b8154815290600101906020018083116106a657829003601f168201915b50505050509350828054600181600116156101000203166002900480601f01602080910402602001604051908101604052809291908181526020018280546001816001161561010002031660029004801561075f5780601f106107345761010080835404028352916020019161075f565b820191906000526020600020905b81548152906001019060200180831161074257829003601f168201915b505050505092509450945094509450509193509193565b61077f826131eb565b5060086040518060a0016040528060015481526020018681526020018581526020018473ffffffffffffffffffffffffffffffffffffffff16815260200183151581525090806001815401808255809150506001900390600052602060002090600402016000909190919091506000820151816000015560208201518160010190805190602001906108129291906133a7565b50604082015181600201908051906020019061082f9291906133a7565b5060608201518160030160006101000a81548173ffffffffffffffffffffffffffffffffffffffff021916908373ffffffffffffffffffffffffffffffffffffffff16021790555060808201518160030160146101000a81548160ff02191690831515021790555050507f1d6a52c11773994a4a6eaa1ace32b929e7f0900bbe29db3f1d36a3cd45f1486c600154858585856040516108d295949392919061426d565b60405180910390a160016000815480929190600101919050555050505050565b6000600480549050905090565b600061090a826132c9565b905060006004828154811061091b57fe5b906000526020600020906006020160050160006101000a81548160ff0219169083151502179055507f05818f5e23a2c2bb34c81792ea8e3397d3f8ad179cb93a5fa57b3d4681564aa06004828154811061097157fe5b906000526020600020906006020160000160009054906101000a900473ffffffffffffffffffffffffffffffffffffffff16600483815481106109b057fe5b9060005260206000209060060201600101600484815481106109ce57fe5b9060005260206000209060060201600201600485815481106109ec57fe5b906000526020600020906006020160030160048681548110610a0a57fe5b90600052602060002090600602016004015460048781548110610a2957fe5b906000526020600020906006020160050160009054906101000a900460ff16604051610a5a9695949392919061401d565b60405180910390a15050565b6060600060048054905067ffffffffffffffff81118015610a8657600080fd5b50604051908082528060200260200182016040528015610ac057816020015b610aad613435565b815260200190600190039081610aa55790505b50905060005b600480549050811015610d7e5760048181548110610ae057fe5b90600052602060002090600602016040518060c00160405290816000820160009054906101000a900473ffffffffffffffffffffffffffffffffffffffff1673ffffffffffffffffffffffffffffffffffffffff1673ffffffffffffffffffffffffffffffffffffffff168152602001600182018054600181600116156101000203166002900480601f016020809104026020016040519081016040528092919081815260200182805460018160011615610100020316600290048015610be85780601f10610bbd57610100808354040283529160200191610be8565b820191906000526020600020905b815481529060010190602001808311610bcb57829003601f168201915b50505050508152602001600282018054600181600116156101000203166002900480601f016020809104026020016040519081016040528092919081815260200182805460018160011615610100020316600290048015610c8a5780601f10610c5f57610100808354040283529160200191610c8a565b820191906000526020600020905b815481529060010190602001808311610c6d57829003601f168201915b50505050508152602001600382018054600181600116156101000203166002900480601f016020809104026020016040519081016040528092919081815260200182805460018160011615610100020316600290048015610d2c5780601f10610d0157610100808354040283529160200191610d2c565b820191906000526020600020905b815481529060010190602001808311610d0f57829003601f168201915b50505050508152602001600482015481526020016005820160009054906101000a900460ff161515151581525050828281518110610d6657fe5b60200260200101819052508080600101915050610ac6565b508091505090565b6060600060088054905067ffffffffffffffff81118015610da657600080fd5b50604051908082528060200260200182016040528015610de057816020015b610dcd613483565b815260200190600190039081610dc55790505b50905060005b600880549050811015610ffc5760088181548110610e0057fe5b90600052602060002090600402016040518060a001604052908160008201548152602001600182018054600181600116156101000203166002900480601f016020809104026020016040519081016040528092919081815260200182805460018160011615610100020316600290048015610ebc5780601f10610e9157610100808354040283529160200191610ebc565b820191906000526020600020905b815481529060010190602001808311610e9f57829003601f168201915b50505050508152602001600282018054600181600116156101000203166002900480601f016020809104026020016040519081016040528092919081815260200182805460018160011615610100020316600290048015610f5e5780601f10610f3357610100808354040283529160200191610f5e565b820191906000526020600020905b815481529060010190602001808311610f4157829003601f168201915b505050505081526020016003820160009054906101000a900473ffffffffffffffffffffffffffffffffffffffff1673ffffffffffffffffffffffffffffffffffffffff1673ffffffffffffffffffffffffffffffffffffffff1681526020016003820160149054906101000a900460ff161515151581525050828281518110610fe457fe5b60200260200101819052508080600101915050610de6565b508091505090565b600061100f856131eb565b9050836006828154811061101f57fe5b906000526020600020906003020160010190805190602001906110439291906133a7565b50826006828154811061105257fe5b906000526020600020906003020160020160006101000a81548173ffffffffffffffffffffffffffffffffffffffff021916908373ffffffffffffffffffffffffffffffffffffffff16021790555081600682815481106110af57fe5b906000526020600020906003020160020160146101000a81548160ff0219169083151502179055507f6fcbc4a02269ac36204ac7e60c4cf625c6fc2b2365cac750c9927b670e347f906006828154811061110557fe5b906000526020600020906003020160000160009054906101000a900473ffffffffffffffffffffffffffffffffffffffff166006838154811061114457fe5b90600052602060002090600302016001016006848154811061116257fe5b906000526020600020906003020160020160009054906101000a900473ffffffffffffffffffffffffffffffffffffffff16600685815481106111a157fe5b906000526020600020906003020160020160149054906101000a900460ff166040516111d09493929190613fd1565b60405180910390a15050505050565b60006111ea82613159565b90506000600882815481106111fb57fe5b906000526020600020906004020160030160146101000a81548160ff0219169083151502179055507fef9006907eb20210e880b0bb1c39946083bcec24688718507d63a259ffa8351b6008828154811061125157fe5b9060005260206000209060040201600001546008838154811061127057fe5b90600052602060002090600402016001016008848154811061128e57fe5b9060005260206000209060040201600201600885815481106112ac57fe5b906000526020600020906004020160030160009054906101000a900473ffffffffffffffffffffffffffffffffffffffff16600886815481106112eb57fe5b906000526020600020906004020160030160149054906101000a900460ff1660405161131b9594939291906142ce565b60405180910390a15050565b60606000806000611337856131eb565b90506006818154811061134657fe5b90600052602060002090600302016001016006828154811061136457fe5b906000526020600020906003020160020160009054906101000a900473ffffffffffffffffffffffffffffffffffffffff16600683815481106113a357fe5b906000526020600020906003020160020160149054906101000a900460ff16828054600181600116156101000203166002900480601f0160208091040260200160405190810160405280929190818152602001828054600181600116156101000203166002900480156114575780601f1061142c57610100808354040283529160200191611457565b820191906000526020600020905b81548152906001019060200180831161143a57829003601f168201915b50505050509250935093509350509193909250565b600061147786613159565b9050846008828154811061148757fe5b906000526020600020906004020160010190805190602001906114ab9291906133a7565b5083600882815481106114ba57fe5b906000526020600020906004020160020190805190602001906114de9291906133a7565b5082600882815481106114ed57fe5b906000526020600020906004020160030160006101000a81548173ffffffffffffffffffffffffffffffffffffffff021916908373ffffffffffffffffffffffffffffffffffffffff160217905550816008828154811061154a57fe5b906000526020600020906004020160030160146101000a81548160ff0219169083151502179055507f3ab6f9ea2e72cad17988f4527dc5626fa4e97c597fcbd9d7e2a7e820851b54ce600882815481106115a057fe5b906000526020600020906004020160000154600883815481106115bf57fe5b9060005260206000209060040201600101600884815481106115dd57fe5b9060005260206000209060040201600201600885815481106115fb57fe5b906000526020600020906004020160030160009054906101000a900473ffffffffffffffffffffffffffffffffffffffff166008868154811061163a57fe5b906000526020600020906004020160030160149054906101000a900460ff1660405161166a9594939291906142ce565b60405180910390a1505050505050565b6000611685876132c9565b9050856004828154811061169557fe5b906000526020600020906006020160010190805190602001906116b99291906133a7565b5084600482815481106116c857fe5b906000526020600020906006020160020190805190602001906116ec9291906133a7565b5083600482815481106116fb57fe5b9060005260206000209060060201600301908051906020019061171f9291906133a7565b50826004828154811061172e57fe5b906000526020600020906006020160040181905550816004828154811061175157fe5b906000526020600020906006020160050160006101000a81548160ff0219169083151502179055507f5975e6fed8802a324436eb320387035d99d011c9901bb75b34b8c23b91250c1c600482815481106117a757fe5b906000526020600020906006020160000160009054906101000a900473ffffffffffffffffffffffffffffffffffffffff16600483815481106117e657fe5b90600052602060002090600602016001016004848154811061180457fe5b90600052602060002090600602016002016004858154811061182257fe5b90600052602060002090600602016003016004868154811061184057fe5b9060005260206000209060060201600401546004878154811061185f57fe5b906000526020600020906006020160050160009054906101000a900460ff166040516118909695949392919061401d565b60405180910390a150505050505050565b6007602052806000526040600020600091509050806000015490806001018054600181600116156101000203166002900480601f0160208091040260200160405190810160405280929190818152602001828054600181600116156101000203166002900480156119535780601f1061192857610100808354040283529160200191611953565b820191906000526020600020905b81548152906001019060200180831161193657829003601f168201915b505050505090806002018054600181600116156101000203166002900480601f0160208091040260200160405190810160405280929190818152602001828054600181600116156101000203166002900480156119f15780601f106119c6576101008083540402835291602001916119f1565b820191906000526020600020905b8154815290600101906020018083116119d457829003601f168201915b5050505050908060030160009054906101000a900473ffffffffffffffffffffffffffffffffffffffff16908060030160149054906101000a900460ff16905085565b60068181548110611a4457600080fd5b90600052602060002090600302016000915090508060000160009054906101000a900473ffffffffffffffffffffffffffffffffffffffff1690806001018054600181600116156101000203166002900480601f016020809104026020016040519081016040528092919081815260200182805460018160011615610100020316600290048015611b165780601f10611aeb57610100808354040283529160200191611b16565b820191906000526020600020905b815481529060010190602001808311611af957829003601f168201915b5050505050908060020160009054906101000a900473ffffffffffffffffffffffffffffffffffffffff16908060020160149054906101000a900460ff16905084565b6060600060088054905067ffffffffffffffff81118015611b7957600080fd5b50604051908082528060200260200182016040528015611bb357816020015b611ba0613483565b815260200190600190039081611b985790505b50905060005b600880549050811015611e425760088181548110611bd357fe5b906000526020600020906004020160030160009054906101000a900473ffffffffffffffffffffffffffffffffffffffff1673ffffffffffffffffffffffffffffffffffffffff168473ffffffffffffffffffffffffffffffffffffffff161415611e355760088181548110611c4557fe5b90600052602060002090600402016040518060a001604052908160008201548152602001600182018054600181600116156101000203166002900480601f016020809104026020016040519081016040528092919081815260200182805460018160011615610100020316600290048015611d015780601f10611cd657610100808354040283529160200191611d01565b820191906000526020600020905b815481529060010190602001808311611ce457829003601f168201915b50505050508152602001600282018054600181600116156101000203166002900480601f016020809104026020016040519081016040528092919081815260200182805460018160011615610100020316600290048015611da35780601f10611d7857610100808354040283529160200191611da3565b820191906000526020600020905b815481529060010190602001808311611d8657829003601f168201915b505050505081526020016003820160009054906101000a900473ffffffffffffffffffffffffffffffffffffffff1673ffffffffffffffffffffffffffffffffffffffff1673ffffffffffffffffffffffffffffffffffffffff1681526020016003820160149054906101000a900460ff161515151581525050828281518110611e2957fe5b60200260200101819052505b8080600101915050611bb9565b5080915050919050565b60608060606000806000611e5f876132c9565b905060048181548110611e6e57fe5b906000526020600020906006020160010160048281548110611e8c57fe5b906000526020600020906006020160020160048381548110611eaa57fe5b906000526020600020906006020160030160048481548110611ec857fe5b90600052602060002090600602016004015460048581548110611ee757fe5b906000526020600020906006020160050160009054906101000a900460ff16848054600181600116156101000203166002900480601f016020809104026020016040519081016040528092919081815260200182805460018160011615610100020316600290048015611f9b5780601f10611f7057610100808354040283529160200191611f9b565b820191906000526020600020905b815481529060010190602001808311611f7e57829003601f168201915b50505050509450838054600181600116156101000203166002900480601f0160208091040260200160405190810160405280929190818152602001828054600181600116156101000203166002900480156120375780601f1061200c57610100808354040283529160200191612037565b820191906000526020600020905b81548152906001019060200180831161201a57829003601f168201915b50505050509350828054600181600116156101000203166002900480601f0160208091040260200160405190810160405280929190818152602001828054600181600116156101000203166002900480156120d35780601f106120a8576101008083540402835291602001916120d3565b820191906000526020600020905b8154815290600101906020018083116120b657829003601f168201915b50505050509250955095509550955095505091939590929450565b60006120f9826131eb565b905060006006828154811061210a57fe5b906000526020600020906003020160020160146101000a81548160ff0219169083151502179055507f780b3c74ec1e08d8c65fd8a12c6ac2da5c15f2d3b5e54335b51671f63b7d2ad06006828154811061216057fe5b906000526020600020906003020160000160009054906101000a900473ffffffffffffffffffffffffffffffffffffffff166006838154811061219f57fe5b9060005260206000209060030201600101600684815481106121bd57fe5b906000526020600020906003020160020160009054906101000a900473ffffffffffffffffffffffffffffffffffffffff16600685815481106121fc57fe5b906000526020600020906003020160020160149054906101000a900460ff1660405161222b9493929190613fd1565b60405180910390a15050565b6000600480549050905090565b60046040518060c001604052808773ffffffffffffffffffffffffffffffffffffffff16815260200186815260200185815260200184815260200183815260200160011515815250908060018154018082558091505060019003906000526020600020906006020160009091909190915060008201518160000160006101000a81548173ffffffffffffffffffffffffffffffffffffffff021916908373ffffffffffffffffffffffffffffffffffffffff16021790555060208201518160010190805190602001906123189291906133a7565b5060408201518160020190805190602001906123359291906133a7565b5060608201518160030190805190602001906123529291906133a7565b506080820151816004015560a08201518160050160006101000a81548160ff02191690831515021790555050507ff646212acc3f5092fb0211ffd5121c0f706641b715e3982dab50afb395413dd5858585858560016040516123b996959493929190613f5b565b60405180910390a15050505050565b60036020528060005260406000206000915090508060000160009054906101000a900473ffffffffffffffffffffffffffffffffffffffff1690806001018054600181600116156101000203166002900480601f01602080910402602001604051908101604052809291908181526020018280546001816001161561010002031660029004801561249a5780601f1061246f5761010080835404028352916020019161249a565b820191906000526020600020905b81548152906001019060200180831161247d57829003601f168201915b505050505090806002018054600181600116156101000203166002900480601f0160208091040260200160405190810160405280929190818152602001828054600181600116156101000203166002900480156125385780601f1061250d57610100808354040283529160200191612538565b820191906000526020600020905b81548152906001019060200180831161251b57829003601f168201915b505050505090806003018054600181600116156101000203166002900480601f0160208091040260200160405190810160405280929190818152602001828054600181600116156101000203166002900480156125d65780601f106125ab576101008083540402835291602001916125d6565b820191906000526020600020905b8154815290600101906020018083116125b957829003601f168201915b5050505050908060040154908060050160009054906101000a900460ff16905086565b6000600880549050905090565b6060600060068054905067ffffffffffffffff8111801561262657600080fd5b5060405190808252806020026020018201604052801561266057816020015b61264d6134ca565b8152602001906001900390816126455790505b50905060005b600680549050811015612899576006818154811061268057fe5b906000526020600020906003020160020160009054906101000a900473ffffffffffffffffffffffffffffffffffffffff1673ffffffffffffffffffffffffffffffffffffffff168473ffffffffffffffffffffffffffffffffffffffff16141561288c57600681815481106126f257fe5b90600052602060002090600302016040518060800160405290816000820160009054906101000a900473ffffffffffffffffffffffffffffffffffffffff1673ffffffffffffffffffffffffffffffffffffffff1673ffffffffffffffffffffffffffffffffffffffff168152602001600182018054600181600116156101000203166002900480601f0160208091040260200160405190810160405280929190818152602001828054600181600116156101000203166002900480156127fa5780601f106127cf576101008083540402835291602001916127fa565b820191906000526020600020905b8154815290600101906020018083116127dd57829003601f168201915b505050505081526020016002820160009054906101000a900473ffffffffffffffffffffffffffffffffffffffff1673ffffffffffffffffffffffffffffffffffffffff1673ffffffffffffffffffffffffffffffffffffffff1681526020016002820160149054906101000a900460ff16151515158152505082828151811061288057fe5b60200260200101819052505b8080600101915050612666565b5080915050919050565b600481815481106128b357600080fd5b90600052602060002090600602016000915090508060000160009054906101000a900473ffffffffffffffffffffffffffffffffffffffff1690806001018054600181600116156101000203166002900480601f0160208091040260200160405190810160405280929190818152602001828054600181600116156101000203166002900480156129855780601f1061295a57610100808354040283529160200191612985565b820191906000526020600020905b81548152906001019060200180831161296857829003601f168201915b505050505090806002018054600181600116156101000203166002900480601f016020809104026020016040519081016040528092919081815260200182805460018160011615610100020316600290048015612a235780601f106129f857610100808354040283529160200191612a23565b820191906000526020600020905b815481529060010190602001808311612a0657829003601f168201915b505050505090806003018054600181600116156101000203166002900480601f016020809104026020016040519081016040528092919081815260200182805460018160011615610100020316600290048015612ac15780601f10612a9657610100808354040283529160200191612ac1565b820191906000526020600020905b815481529060010190602001808311612aa457829003601f168201915b5050505050908060040154908060050160009054906101000a900460ff16905086565b60056020528060005260406000206000915090508060000160009054906101000a900473ffffffffffffffffffffffffffffffffffffffff1690806001018054600181600116156101000203166002900480601f016020809104026020016040519081016040528092919081815260200182805460018160011615610100020316600290048015612bb65780601f10612b8b57610100808354040283529160200191612bb6565b820191906000526020600020905b815481529060010190602001808311612b9957829003601f168201915b5050505050908060020160009054906101000a900473ffffffffffffffffffffffffffffffffffffffff16908060020160149054906101000a900460ff16905084565b612c02816132c9565b50600660405180608001604052808573ffffffffffffffffffffffffffffffffffffffff1681526020018481526020018373ffffffffffffffffffffffffffffffffffffffff16815260200160011515815250908060018154018082558091505060019003906000526020600020906003020160009091909190915060008201518160000160006101000a81548173ffffffffffffffffffffffffffffffffffffffff021916908373ffffffffffffffffffffffffffffffffffffffff1602179055506020820151816001019080519060200190612ce19291906133a7565b5060408201518160020160006101000a81548173ffffffffffffffffffffffffffffffffffffffff021916908373ffffffffffffffffffffffffffffffffffffffff16021790555060608201518160020160146101000a81548160ff02191690831515021790555050507f4578695497af1a3a1f556f9c89f9f107851cb8e1820e4b336143406b9ba52e3b8383836001604051612d819493929190613f0f565b60405180910390a1505050565b60088181548110612d9e57600080fd5b9060005260206000209060040201600091509050806000015490806001018054600181600116156101000203166002900480601f016020809104026020016040519081016040528092919081815260200182805460018160011615610100020316600290048015612e505780601f10612e2557610100808354040283529160200191612e50565b820191906000526020600020905b815481529060010190602001808311612e3357829003601f168201915b505050505090806002018054600181600116156101000203166002900480601f016020809104026020016040519081016040528092919081815260200182805460018160011615610100020316600290048015612eee5780601f10612ec357610100808354040283529160200191612eee565b820191906000526020600020905b815481529060010190602001808311612ed157829003601f168201915b5050505050908060030160009054906101000a900473ffffffffffffffffffffffffffffffffffffffff16908060030160149054906101000a900460ff16905085565b6060600060068054905067ffffffffffffffff81118015612f5157600080fd5b50604051908082528060200260200182016040528015612f8b57816020015b612f786134ca565b815260200190600190039081612f705790505b50905060005b6006805490508110156131515760068181548110612fab57fe5b90600052602060002090600302016040518060800160405290816000820160009054906101000a900473ffffffffffffffffffffffffffffffffffffffff1673ffffffffffffffffffffffffffffffffffffffff1673ffffffffffffffffffffffffffffffffffffffff168152602001600182018054600181600116156101000203166002900480601f0160208091040260200160405190810160405280929190818152602001828054600181600116156101000203166002900480156130b35780601f10613088576101008083540402835291602001916130b3565b820191906000526020600020905b81548152906001019060200180831161309657829003601f168201915b505050505081526020016002820160009054906101000a900473ffffffffffffffffffffffffffffffffffffffff1673ffffffffffffffffffffffffffffffffffffffff1673ffffffffffffffffffffffffffffffffffffffff1681526020016002820160149054906101000a900460ff16151515158152505082828151811061313957fe5b60200260200101819052508080600101915050612f91565b508091505090565b600080600090505b6008805490508110156131aa57826008828154811061317c57fe5b906000526020600020906004020160000154141561319d57809150506131e6565b8080600101915050613161565b506040517f08c379a00000000000000000000000000000000000000000000000000000000081526004016131dd90614212565b60405180910390fd5b919050565b600080600090505b600680549050811015613288578273ffffffffffffffffffffffffffffffffffffffff166006828154811061322457fe5b906000526020600020906003020160000160009054906101000a900473ffffffffffffffffffffffffffffffffffffffff1673ffffffffffffffffffffffffffffffffffffffff16141561327b57809150506132c4565b80806001019150506131f3565b506040517f08c379a00000000000000000000000000000000000000000000000000000000081526004016132bb906141f2565b60405180910390fd5b919050565b600080600090505b600480549050811015613366578273ffffffffffffffffffffffffffffffffffffffff166004828154811061330257fe5b906000526020600020906006020160000160009054906101000a900473ffffffffffffffffffffffffffffffffffffffff1673ffffffffffffffffffffffffffffffffffffffff16141561335957809150506133a2565b80806001019150506132d1565b506040517f08c379a000000000000000000000000000000000000000000000000000000000815260040161339990614232565b60405180910390fd5b919050565b828054600181600116156101000203166002900490600052602060002090601f0160209004810192826133dd5760008555613424565b82601f106133f657805160ff1916838001178555613424565b82800160010185558215613424579182015b82811115613423578251825591602001919060010190613408565b5b5090506134319190613520565b5090565b6040518060c00160405280600073ffffffffffffffffffffffffffffffffffffffff168152602001606081526020016060815260200160608152602001600081526020016000151581525090565b6040518060a00160405280600081526020016060815260200160608152602001600073ffffffffffffffffffffffffffffffffffffffff1681526020016000151581525090565b6040518060800160405280600073ffffffffffffffffffffffffffffffffffffffff16815260200160608152602001600073ffffffffffffffffffffffffffffffffffffffff1681526020016000151581525090565b5b80821115613539576000816000905550600101613521565b5090565b600061355061354b84614360565b61432f565b90508281526020810184848401111561356857600080fd5b6135738482856144c5565b509392505050565b60008135905061358a8161451a565b92915050565b60008135905061359f81614531565b92915050565b600082601f8301126135b657600080fd5b81356135c684826020860161353d565b91505092915050565b6000813590506135de81614548565b92915050565b6000602082840312156135f657600080fd5b60006136048482850161357b565b91505092915050565b60008060006060848603121561362257600080fd5b60006136308682870161357b565b935050602084013567ffffffffffffffff81111561364d57600080fd5b613659868287016135a5565b925050604061366a8682870161357b565b9150509250925092565b6000806000806080858703121561368a57600080fd5b60006136988782880161357b565b945050602085013567ffffffffffffffff8111156136b557600080fd5b6136c1878288016135a5565b93505060406136d28782880161357b565b92505060606136e387828801613590565b91505092959194509250565b600080600080600060a0868803121561370757600080fd5b60006137158882890161357b565b955050602086013567ffffffffffffffff81111561373257600080fd5b61373e888289016135a5565b945050604086013567ffffffffffffffff81111561375b57600080fd5b613767888289016135a5565b935050606086013567ffffffffffffffff81111561378457600080fd5b613790888289016135a5565b92505060806137a1888289016135cf565b9150509295509295909350565b60008060008060008060c087890312156137c757600080fd5b60006137d589828a0161357b565b965050602087013567ffffffffffffffff8111156137f257600080fd5b6137fe89828a016135a5565b955050604087013567ffffffffffffffff81111561381b57600080fd5b61382789828a016135a5565b945050606087013567ffffffffffffffff81111561384457600080fd5b61385089828a016135a5565b935050608061386189828a016135cf565b92505060a061387289828a01613590565b9150509295509295509295565b6000806000806080858703121561389557600080fd5b600085013567ffffffffffffffff8111156138af57600080fd5b6138bb878288016135a5565b945050602085013567ffffffffffffffff8111156138d857600080fd5b6138e4878288016135a5565b93505060406138f58782880161357b565b925050606061390687828801613590565b91505092959194509250565b60006020828403121561392457600080fd5b6000613932848285016135cf565b91505092915050565b600080600080600060a0868803121561395357600080fd5b6000613961888289016135cf565b955050602086013567ffffffffffffffff81111561397e57600080fd5b61398a888289016135a5565b945050604086013567ffffffffffffffff8111156139a757600080fd5b6139b3888289016135a5565b93505060606139c48882890161357b565b92505060806139d588828901613590565b9150509295509295909350565b60006139ee8383613d7a565b905092915050565b6000613a028383613ddd565b905092915050565b6000613a168383613e74565b905092915050565b613a278161447d565b82525050565b613a368161447d565b82525050565b6000613a47826143d5565b613a518185614428565b935083602082028501613a6385614390565b8060005b85811015613a9f5784840389528151613a8085826139e2565b9450613a8b83614401565b925060208a01995050600181019050613a67565b50829750879550505050505092915050565b6000613abc826143e0565b613ac68185614439565b935083602082028501613ad8856143a0565b8060005b85811015613b145784840389528151613af585826139f6565b9450613b008361440e565b925060208a01995050600181019050613adc565b50829750879550505050505092915050565b6000613b31826143eb565b613b3b818561444a565b935083602082028501613b4d856143b0565b8060005b85811015613b895784840389528151613b6a8582613a0a565b9450613b758361441b565b925060208a01995050600181019050613b51565b50829750879550505050505092915050565b613ba48161448f565b82525050565b613bb38161448f565b82525050565b6000613bc4826143f6565b613bce818561445b565b9350613bde8185602086016144d4565b613be781614509565b840191505092915050565b6000613bfd826143f6565b613c07818561446c565b9350613c178185602086016144d4565b613c2081614509565b840191505092915050565b600081546001811660008114613c485760018114613c6e57613cb2565b607f6002830416613c59818761446c565b955060ff198316865260208601935050613cb2565b60028204613c7c818761446c565b9550613c87856143c0565b60005b82811015613ca957815481890152600182019150602081019050613c8a565b80880195505050505b505092915050565b6000613cc760108361446c565b91507f446f63746f72206e6f7420666f756e64000000000000000000000000000000006000830152602082019050919050565b6000613d0760108361446c565b91507f53656e736f72206e6f7420666f756e64000000000000000000000000000000006000830152602082019050919050565b6000613d4760128361446c565b91507f486f73706974616c206e6f7420666f756e6400000000000000000000000000006000830152602082019050919050565b6000608083016000830151613d926000860182613a1e565b5060208301518482036020860152613daa8282613bb9565b9150506040830151613dbf6040860182613a1e565b506060830151613dd26060860182613b9b565b508091505092915050565b600060c083016000830151613df56000860182613a1e565b5060208301518482036020860152613e0d8282613bb9565b91505060408301518482036040860152613e278282613bb9565b91505060608301518482036060860152613e418282613bb9565b9150506080830151613e566080860182613ef1565b5060a0830151613e6960a0860182613b9b565b508091505092915050565b600060a083016000830151613e8c6000860182613ef1565b5060208301518482036020860152613ea48282613bb9565b91505060408301518482036040860152613ebe8282613bb9565b9150506060830151613ed36060860182613a1e565b506080830151613ee66080860182613b9b565b508091505092915050565b613efa816144bb565b82525050565b613f09816144bb565b82525050565b6000608082019050613f246000830187613a2d565b8181036020830152613f368186613bf2565b9050613f456040830185613a2d565b613f526060830184613baa565b95945050505050565b600060c082019050613f706000830189613a2d565b8181036020830152613f828188613bf2565b90508181036040830152613f968187613bf2565b90508181036060830152613faa8186613bf2565b9050613fb96080830185613f00565b613fc660a0830184613baa565b979650505050505050565b6000608082019050613fe66000830187613a2d565b8181036020830152613ff88186613c2b565b90506140076040830185613a2d565b6140146060830184613baa565b95945050505050565b600060c0820190506140326000830189613a2d565b81810360208301526140448188613c2b565b905081810360408301526140588187613c2b565b9050818103606083015261406c8186613c2b565b905061407b6080830185613f00565b61408860a0830184613baa565b979650505050505050565b600060208201905081810360008301526140ad8184613a3c565b905092915050565b600060208201905081810360008301526140cf8184613ab1565b905092915050565b600060208201905081810360008301526140f18184613b26565b905092915050565b600060608201905081810360008301526141138186613bf2565b90506141226020830185613a2d565b61412f6040830184613baa565b949350505050565b600060808201905081810360008301526141518187613bf2565b905081810360208301526141658186613bf2565b90506141746040830185613a2d565b6141816060830184613baa565b95945050505050565b600060a08201905081810360008301526141a48188613bf2565b905081810360208301526141b88187613bf2565b905081810360408301526141cc8186613bf2565b90506141db6060830185613f00565b6141e86080830184613baa565b9695505050505050565b6000602082019050818103600083015261420b81613cba565b9050919050565b6000602082019050818103600083015261422b81613cfa565b9050919050565b6000602082019050818103600083015261424b81613d3a565b9050919050565b60006020820190506142676000830184613f00565b92915050565b600060a0820190506142826000830188613f00565b81810360208301526142948187613bf2565b905081810360408301526142a88186613bf2565b90506142b76060830185613a2d565b6142c46080830184613baa565b9695505050505050565b600060a0820190506142e36000830188613f00565b81810360208301526142f58187613c2b565b905081810360408301526143098186613c2b565b90506143186060830185613a2d565b6143256080830184613baa565b9695505050505050565b6000604051905081810181811067ffffffffffffffff8211171561435657614355614507565b5b8060405250919050565b600067ffffffffffffffff82111561437b5761437a614507565b5b601f19601f8301169050602081019050919050565b6000819050602082019050919050565b6000819050602082019050919050565b6000819050602082019050919050565b60008190508160005260206000209050919050565b600081519050919050565b600081519050919050565b600081519050919050565b600081519050919050565b6000602082019050919050565b6000602082019050919050565b6000602082019050919050565b600082825260208201905092915050565b600082825260208201905092915050565b600082825260208201905092915050565b600082825260208201905092915050565b600082825260208201905092915050565b60006144888261449b565b9050919050565b60008115159050919050565b600073ffffffffffffffffffffffffffffffffffffffff82169050919050565b6000819050919050565b82818337600083830152505050565b60005b838110156144f25780820151818401526020810190506144d7565b83811115614501576000848401525b50505050565bfe5b6000601f19601f8301169050919050565b6145238161447d565b811461452e57600080fd5b50565b61453a8161448f565b811461454557600080fd5b50565b614551816144bb565b811461455c57600080fd5b5056fea26469706673582212202c349d04474652a3e9318c813282f9410bbc1058c8e69b28e370cee9462f249d64736f6c63430007060033",
      "opcodes": "PUSH1 0x80 PUSH1 0x40 MSTORE PUSH20 0x8FCF3B91599C6D5BB93D8C7DF9F3974C622B83A4 PUSH1 0x2 PUSH1 0x0 PUSH2 0x100 EXP DUP2 SLOAD DUP2 PUSH20 0xFFFFFFFFFFFFFFFFFFFFFFFFFFFFFFFFFFFFFFFF MUL NOT AND SWAP1 DUP4 PUSH20 0xFFFFFFFFFFFFFFFFFFFFFFFFFFFFFFFFFFFFFFFF AND MUL OR SWAP1 SSTORE POP CALLVALUE DUP1 ISZERO PUSH2 0x65 JUMPI PUSH1 0x0 DUP1 REVERT JUMPDEST POP PUSH2 0x4595 DUP1 PUSH2 0x75 PUSH1 0x0 CODECOPY PUSH1 0x0 RETURN INVALID PUSH1 0x80 PUSH1 0x40 MSTORE CALLVALUE DUP1 ISZERO PUSH2 0x10 JUMPI PUSH1 0x0 DUP1 REVERT JUMPDEST POP PUSH1 0x4 CALLDATASIZE LT PUSH2 0x18E JUMPI PUSH1 0x0 CALLDATALOAD PUSH1 0xE0 SHR DUP1 PUSH4 0x9A2E5BED GT PUSH2 0xDE JUMPI DUP1 PUSH4 0xB5843613 GT PUSH2 0x97 JUMPI DUP1 PUSH4 0xDC7AA36B GT PUSH2 0x71 JUMPI DUP1 PUSH4 0xDC7AA36B EQ PUSH2 0x4D3 JUMPI DUP1 PUSH4 0xE1EE3B56 EQ PUSH2 0x506 JUMPI DUP1 PUSH4 0xEA87659F EQ PUSH2 0x522 JUMPI DUP1 PUSH4 0xF0D95090 EQ PUSH2 0x556 JUMPI PUSH2 0x18E JUMP JUMPDEST DUP1 PUSH4 0xB5843613 EQ PUSH2 0x450 JUMPI DUP1 PUSH4 0xC266406D EQ PUSH2 0x46E JUMPI DUP1 PUSH4 0xD53D0A85 EQ PUSH2 0x49E JUMPI PUSH2 0x18E JUMP JUMPDEST DUP1 PUSH4 0x9A2E5BED EQ PUSH2 0x361 JUMPI DUP1 PUSH4 0x9B70E779 EQ PUSH2 0x391 JUMPI DUP1 PUSH4 0xA0568E2D EQ PUSH2 0x3C5 JUMPI DUP1 PUSH4 0xA17D7A38 EQ PUSH2 0x3E1 JUMPI DUP1 PUSH4 0xA27876C5 EQ PUSH2 0x3FF JUMPI DUP1 PUSH4 0xA549A4ED EQ PUSH2 0x41B JUMPI PUSH2 0x18E JUMP JUMPDEST DUP1 PUSH4 0x60EA3CDC GT PUSH2 0x14B JUMPI DUP1 PUSH4 0x6F39507D GT PUSH2 0x125 JUMPI DUP1 PUSH4 0x6F39507D EQ PUSH2 0x2C2 JUMPI DUP1 PUSH4 0x7FE53F83 EQ PUSH2 0x2DE JUMPI DUP1 PUSH4 0x898BD140 EQ PUSH2 0x2FA JUMPI DUP1 PUSH4 0x8DB2FC41 EQ PUSH2 0x32E JUMPI PUSH2 0x18E JUMP JUMPDEST DUP1 PUSH4 0x60EA3CDC EQ PUSH2 0x258 JUMPI DUP1 PUSH4 0x6151EFB1 EQ PUSH2 0x274 JUMPI DUP1 PUSH4 0x6CD8EBDC EQ PUSH2 0x290 JUMPI PUSH2 0x18E JUMP JUMPDEST DUP1 PUSH4 0x2655C2E EQ PUSH2 0x193 JUMPI DUP1 PUSH4 0x1B057E40 EQ PUSH2 0x1C6 JUMPI DUP1 PUSH4 0x1BA51696 EQ PUSH2 0x1E2 JUMPI DUP1 PUSH4 0x4807FC69 EQ PUSH2 0x200 JUMPI DUP1 PUSH4 0x4E9F7154 EQ PUSH2 0x21C JUMPI DUP1 PUSH4 0x5A4E5D3E EQ PUSH2 0x23A JUMPI JUMPDEST PUSH1 0x0 DUP1 REVERT JUMPDEST PUSH2 0x1AD PUSH1 0x4 DUP1 CALLDATASIZE SUB DUP2 ADD SWAP1 PUSH2 0x1A8 SWAP2 SWAP1 PUSH2 0x3912 JUMP JUMPDEST PUSH2 0x574 JUMP JUMPDEST PUSH1 0x40 MLOAD PUSH2 0x1BD SWAP5 SWAP4 SWAP3 SWAP2 SWAP1 PUSH2 0x4137 JUMP JUMPDEST PUSH1 0x40 MLOAD DUP1 SWAP2 SUB SWAP1 RETURN JUMPDEST PUSH2 0x1E0 PUSH1 0x4 DUP1 CALLDATASIZE SUB DUP2 ADD SWAP1 PUSH2 0x1DB SWAP2 SWAP1 PUSH2 0x387F JUMP JUMPDEST PUSH2 0x776 JUMP JUMPDEST STOP JUMPDEST PUSH2 0x1EA PUSH2 0x8F2 JUMP JUMPDEST PUSH1 0x40 MLOAD PUSH2 0x1F7 SWAP2 SWAP1 PUSH2 0x4252 JUMP JUMPDEST PUSH1 0x40 MLOAD DUP1 SWAP2 SUB SWAP1 RETURN JUMPDEST PUSH2 0x21A PUSH1 0x4 DUP1 CALLDATASIZE SUB DUP2 ADD SWAP1 PUSH2 0x215 SWAP2 SWAP1 PUSH2 0x35E4 JUMP JUMPDEST PUSH2 0x8FF JUMP JUMPDEST STOP JUMPDEST PUSH2 0x224 PUSH2 0xA66 JUMP JUMPDEST PUSH1 0x40 MLOAD PUSH2 0x231 SWAP2 SWAP1 PUSH2 0x40B5 JUMP JUMPDEST PUSH1 0x40 MLOAD DUP1 SWAP2 SUB SWAP1 RETURN JUMPDEST PUSH2 0x242 PUSH2 0xD86 JUMP JUMPDEST PUSH1 0x40 MLOAD PUSH2 0x24F SWAP2 SWAP1 PUSH2 0x40D7 JUMP JUMPDEST PUSH1 0x40 MLOAD DUP1 SWAP2 SUB SWAP1 RETURN JUMPDEST PUSH2 0x272 PUSH1 0x4 DUP1 CALLDATASIZE SUB DUP2 ADD SWAP1 PUSH2 0x26D SWAP2 SWAP1 PUSH2 0x3674 JUMP JUMPDEST PUSH2 0x1004 JUMP JUMPDEST STOP JUMPDEST PUSH2 0x28E PUSH1 0x4 DUP1 CALLDATASIZE SUB DUP2 ADD SWAP1 PUSH2 0x289 SWAP2 SWAP1 PUSH2 0x3912 JUMP JUMPDEST PUSH2 0x11DF JUMP JUMPDEST STOP JUMPDEST PUSH2 0x2AA PUSH1 0x4 DUP1 CALLDATASIZE SUB DUP2 ADD SWAP1 PUSH2 0x2A5 SWAP2 SWAP1 PUSH2 0x35E4 JUMP JUMPDEST PUSH2 0x1327 JUMP JUMPDEST PUSH1 0x40 MLOAD PUSH2 0x2B9 SWAP4 SWAP3 SWAP2 SWAP1 PUSH2 0x40F9 JUMP JUMPDEST PUSH1 0x40 MLOAD DUP1 SWAP2 SUB SWAP1 RETURN JUMPDEST PUSH2 0x2DC PUSH1 0x4 DUP1 CALLDATASIZE SUB DUP2 ADD SWAP1 PUSH2 0x2D7 SWAP2 SWAP1 PUSH2 0x393B JUMP JUMPDEST PUSH2 0x146C JUMP JUMPDEST STOP JUMPDEST PUSH2 0x2F8 PUSH1 0x4 DUP1 CALLDATASIZE SUB DUP2 ADD SWAP1 PUSH2 0x2F3 SWAP2 SWAP1 PUSH2 0x37AE JUMP JUMPDEST PUSH2 0x167A JUMP JUMPDEST STOP JUMPDEST PUSH2 0x314 PUSH1 0x4 DUP1 CALLDATASIZE SUB DUP2 ADD SWAP1 PUSH2 0x30F SWAP2 SWAP1 PUSH2 0x35E4 JUMP JUMPDEST PUSH2 0x18A1 JUMP JUMPDEST PUSH1 0x40 MLOAD PUSH2 0x325 SWAP6 SWAP5 SWAP4 SWAP3 SWAP2 SWAP1 PUSH2 0x426D JUMP JUMPDEST PUSH1 0x40 MLOAD DUP1 SWAP2 SUB SWAP1 RETURN JUMPDEST PUSH2 0x348 PUSH1 0x4 DUP1 CALLDATASIZE SUB DUP2 ADD SWAP1 PUSH2 0x343 SWAP2 SWAP1 PUSH2 0x3912 JUMP JUMPDEST PUSH2 0x1A34 JUMP JUMPDEST PUSH1 0x40 MLOAD PUSH2 0x358 SWAP5 SWAP4 SWAP3 SWAP2 SWAP1 PUSH2 0x3F0F JUMP JUMPDEST PUSH1 0x40 MLOAD DUP1 SWAP2 SUB SWAP1 RETURN JUMPDEST PUSH2 0x37B PUSH1 0x4 DUP1 CALLDATASIZE SUB DUP2 ADD SWAP1 PUSH2 0x376 SWAP2 SWAP1 PUSH2 0x35E4 JUMP JUMPDEST PUSH2 0x1B59 JUMP JUMPDEST PUSH1 0x40 MLOAD PUSH2 0x388 SWAP2 SWAP1 PUSH2 0x40D7 JUMP JUMPDEST PUSH1 0x40 MLOAD DUP1 SWAP2 SUB SWAP1 RETURN JUMPDEST PUSH2 0x3AB PUSH1 0x4 DUP1 CALLDATASIZE SUB DUP2 ADD SWAP1 PUSH2 0x3A6 SWAP2 SWAP1 PUSH2 0x35E4 JUMP JUMPDEST PUSH2 0x1E4C JUMP JUMPDEST PUSH1 0x40 MLOAD PUSH2 0x3BC SWAP6 SWAP5 SWAP4 SWAP3 SWAP2 SWAP1 PUSH2 0x418A JUMP JUMPDEST PUSH1 0x40 MLOAD DUP1 SWAP2 SUB SWAP1 RETURN JUMPDEST PUSH2 0x3DF PUSH1 0x4 DUP1 CALLDATASIZE SUB DUP2 ADD SWAP1 PUSH2 0x3DA SWAP2 SWAP1 PUSH2 0x35E4 JUMP JUMPDEST PUSH2 0x20EE JUMP JUMPDEST STOP JUMPDEST PUSH2 0x3E9 PUSH2 0x2237 JUMP JUMPDEST PUSH1 0x40 MLOAD PUSH2 0x3F6 SWAP2 SWAP1 PUSH2 0x4252 JUMP JUMPDEST PUSH1 0x40 MLOAD DUP1 SWAP2 SUB SWAP1 RETURN JUMPDEST PUSH2 0x419 PUSH1 0x4 DUP1 CALLDATASIZE SUB DUP2 ADD SWAP1 PUSH2 0x414 SWAP2 SWAP1 PUSH2 0x36EF JUMP JUMPDEST PUSH2 0x2244 JUMP JUMPDEST STOP JUMPDEST PUSH2 0x435 PUSH1 0x4 DUP1 CALLDATASIZE SUB DUP2 ADD SWAP1 PUSH2 0x430 SWAP2 SWAP1 PUSH2 0x35E4 JUMP JUMPDEST PUSH2 0x23C8 JUMP JUMPDEST PUSH1 0x40 MLOAD PUSH2 0x447 SWAP7 SWAP6 SWAP5 SWAP4 SWAP3 SWAP2 SWAP1 PUSH2 0x3F5B JUMP JUMPDEST PUSH1 0x40 MLOAD DUP1 SWAP2 SUB SWAP1 RETURN JUMPDEST PUSH2 0x458 PUSH2 0x25F9 JUMP JUMPDEST PUSH1 0x40 MLOAD PUSH2 0x465 SWAP2 SWAP1 PUSH2 0x4252 JUMP JUMPDEST PUSH1 0x40 MLOAD DUP1 SWAP2 SUB SWAP1 RETURN JUMPDEST PUSH2 0x488 PUSH1 0x4 DUP1 CALLDATASIZE SUB DUP2 ADD SWAP1 PUSH2 0x483 SWAP2 SWAP1 PUSH2 0x35E4 JUMP JUMPDEST PUSH2 0x2606 JUMP JUMPDEST PUSH1 0x40 MLOAD PUSH2 0x495 SWAP2 SWAP1 PUSH2 0x4093 JUMP JUMPDEST PUSH1 0x40 MLOAD DUP1 SWAP2 SUB SWAP1 RETURN JUMPDEST PUSH2 0x4B8 PUSH1 0x4 DUP1 CALLDATASIZE SUB DUP2 ADD SWAP1 PUSH2 0x4B3 SWAP2 SWAP1 PUSH2 0x3912 JUMP JUMPDEST PUSH2 0x28A3 JUMP JUMPDEST PUSH1 0x40 MLOAD PUSH2 0x4CA SWAP7 SWAP6 SWAP5 SWAP4 SWAP3 SWAP2 SWAP1 PUSH2 0x3F5B JUMP JUMPDEST PUSH1 0x40 MLOAD DUP1 SWAP2 SUB SWAP1 RETURN JUMPDEST PUSH2 0x4ED PUSH1 0x4 DUP1 CALLDATASIZE SUB DUP2 ADD SWAP1 PUSH2 0x4E8 SWAP2 SWAP1 PUSH2 0x35E4 JUMP JUMPDEST PUSH2 0x2AE4 JUMP JUMPDEST PUSH1 0x40 MLOAD PUSH2 0x4FD SWAP5 SWAP4 SWAP3 SWAP2 SWAP1 PUSH2 0x3F0F JUMP JUMPDEST PUSH1 0x40 MLOAD DUP1 SWAP2 SUB SWAP1 RETURN JUMPDEST PUSH2 0x520 PUSH1 0x4 DUP1 CALLDATASIZE SUB DUP2 ADD SWAP1 PUSH2 0x51B SWAP2 SWAP1 PUSH2 0x360D JUMP JUMPDEST PUSH2 0x2BF9 JUMP JUMPDEST STOP JUMPDEST PUSH2 0x53C PUSH1 0x4 DUP1 CALLDATASIZE SUB DUP2 ADD SWAP1 PUSH2 0x537 SWAP2 SWAP1 PUSH2 0x3912 JUMP JUMPDEST PUSH2 0x2D8E JUMP JUMPDEST PUSH1 0x40 MLOAD PUSH2 0x54D SWAP6 SWAP5 SWAP4 SWAP3 SWAP2 SWAP1 PUSH2 0x426D JUMP JUMPDEST PUSH1 0x40 MLOAD DUP1 SWAP2 SUB SWAP1 RETURN JUMPDEST PUSH2 0x55E PUSH2 0x2F31 JUMP JUMPDEST PUSH1 0x40 MLOAD PUSH2 0x56B SWAP2 SWAP1 PUSH2 0x4093 JUMP JUMPDEST PUSH1 0x40 MLOAD DUP1 SWAP2 SUB SWAP1 RETURN JUMPDEST PUSH1 0x60 DUP1 PUSH1 0x0 DUP1 PUSH1 0x0 PUSH2 0x585 DUP7 PUSH2 0x3159 JUMP JUMPDEST SWAP1 POP PUSH1 0x8 DUP2 DUP2 SLOAD DUP2 LT PUSH2 0x594 JUMPI INVALID JUMPDEST SWAP1 PUSH1 0x0 MSTORE PUSH1 0x20 PUSH1 0x0 KECCAK256 SWAP1 PUSH1 0x4 MUL ADD PUSH1 0x1 ADD PUSH1 0x8 DUP3 DUP2 SLOAD DUP2 LT PUSH2 0x5B2 JUMPI INVALID JUMPDEST SWAP1 PUSH1 0x0 MSTORE PUSH1 0x20 PUSH1 0x0 KECCAK256 SWAP1 PUSH1 0x4 MUL ADD PUSH1 0x2 ADD PUSH1 0x8 DUP4 DUP2 SLOAD DUP2 LT PUSH2 0x5D0 JUMPI INVALID JUMPDEST SWAP1 PUSH1 0x0 MSTORE PUSH1 0x20 PUSH1 0x0 KECCAK256 SWAP1 PUSH1 0x4 MUL ADD PUSH1 0x3 ADD PUSH1 0x0 SWAP1 SLOAD SWAP1 PUSH2 0x100 EXP SWAP1 DIV PUSH20 0xFFFFFFFFFFFFFFFFFFFFFFFFFFFFFFFFFFFFFFFF AND PUSH1 0x8 DUP5 DUP2 SLOAD DUP2 LT PUSH2 0x60F JUMPI INVALID JUMPDEST SWAP1 PUSH1 0x0 MSTORE PUSH1 0x20 PUSH1 0x0 KECCAK256 SWAP1 PUSH1 0x4 MUL ADD PUSH1 0x3 ADD PUSH1 0x14 SWAP1 SLOAD SWAP1 PUSH2 0x100 EXP SWAP1 DIV PUSH1 0xFF AND DUP4 DUP1 SLOAD PUSH1 0x1 DUP2 PUSH1 0x1 AND ISZERO PUSH2 0x100 MUL SUB AND PUSH1 0x2 SWAP1 DIV DUP1 PUSH1 0x1F ADD PUSH1 0x20 DUP1 SWAP2 DIV MUL PUSH1 0x20 ADD PUSH1 0x40 MLOAD SWAP1 DUP2 ADD PUSH1 0x40 MSTORE DUP1 SWAP3 SWAP2 SWAP1 DUP2 DUP2 MSTORE PUSH1 0x20 ADD DUP3 DUP1 SLOAD PUSH1 0x1 DUP2 PUSH1 0x1 AND ISZERO PUSH2 0x100 MUL SUB AND PUSH1 0x2 SWAP1 DIV DUP1 ISZERO PUSH2 0x6C3 JUMPI DUP1 PUSH1 0x1F LT PUSH2 0x698 JUMPI PUSH2 0x100 DUP1 DUP4 SLOAD DIV MUL DUP4 MSTORE SWAP2 PUSH1 0x20 ADD SWAP2 PUSH2 0x6C3 JUMP JUMPDEST DUP3 ADD SWAP2 SWAP1 PUSH1 0x0 MSTORE PUSH1 0x20 PUSH1 0x0 KECCAK256 SWAP1 JUMPDEST DUP2 SLOAD DUP2 MSTORE SWAP1 PUSH1 0x1 ADD SWAP1 PUSH1 0x20 ADD DUP1 DUP4 GT PUSH2 0x6A6 JUMPI DUP3 SWAP1 SUB PUSH1 0x1F AND DUP3 ADD SWAP2 JUMPDEST POP POP POP POP POP SWAP4 POP DUP3 DUP1 SLOAD PUSH1 0x1 DUP2 PUSH1 0x1 AND ISZERO PUSH2 0x100 MUL SUB AND PUSH1 0x2 SWAP1 DIV DUP1 PUSH1 0x1F ADD PUSH1 0x20 DUP1 SWAP2 DIV MUL PUSH1 0x20 ADD PUSH1 0x40 MLOAD SWAP1 DUP2 ADD PUSH1 0x40 MSTORE DUP1 SWAP3 SWAP2 SWAP1 DUP2 DUP2 MSTORE PUSH1 0x20 ADD DUP3 DUP1 SLOAD PUSH1 0x1 DUP2 PUSH1 0x1 AND ISZERO PUSH2 0x100 MUL SUB AND PUSH1 0x2 SWAP1 DIV DUP1 ISZERO PUSH2 0x75F JUMPI DUP1 PUSH1 0x1F LT PUSH2 0x734 JUMPI PUSH2 0x100 DUP1 DUP4 SLOAD DIV MUL DUP4 MSTORE SWAP2 PUSH1 0x20 ADD SWAP2 PUSH2 0x75F JUMP JUMPDEST DUP3 ADD SWAP2 SWAP1 PUSH1 0x0 MSTORE PUSH1 0x20 PUSH1 0x0 KECCAK256 SWAP1 JUMPDEST DUP2 SLOAD DUP2 MSTORE SWAP1 PUSH1 0x1 ADD SWAP1 PUSH1 0x20 ADD DUP1 DUP4 GT PUSH2 0x742 JUMPI DUP3 SWAP1 SUB PUSH1 0x1F AND DUP3 ADD SWAP2 JUMPDEST POP POP POP POP POP SWAP3 POP SWAP5 POP SWAP5 POP SWAP5 POP SWAP5 POP POP SWAP2 SWAP4 POP SWAP2 SWAP4 JUMP JUMPDEST PUSH2 0x77F DUP3 PUSH2 0x31EB JUMP JUMPDEST POP PUSH1 0x8 PUSH1 0x40 MLOAD DUP1 PUSH1 0xA0 ADD PUSH1 0x40 MSTORE DUP1 PUSH1 0x1 SLOAD DUP2 MSTORE PUSH1 0x20 ADD DUP7 DUP2 MSTORE PUSH1 0x20 ADD DUP6 DUP2 MSTORE PUSH1 0x20 ADD DUP5 PUSH20 0xFFFFFFFFFFFFFFFFFFFFFFFFFFFFFFFFFFFFFFFF AND DUP2 MSTORE PUSH1 0x20 ADD DUP4 ISZERO ISZERO DUP2 MSTORE POP SWAP1 DUP1 PUSH1 0x1 DUP2 SLOAD ADD DUP1 DUP3 SSTORE DUP1 SWAP2 POP POP PUSH1 0x1 SWAP1 SUB SWAP1 PUSH1 0x0 MSTORE PUSH1 0x20 PUSH1 0x0 KECCAK256 SWAP1 PUSH1 0x4 MUL ADD PUSH1 0x0 SWAP1 SWAP2 SWAP1 SWAP2 SWAP1 SWAP2 POP PUSH1 0x0 DUP3 ADD MLOAD DUP2 PUSH1 0x0 ADD SSTORE PUSH1 0x20 DUP3 ADD MLOAD DUP2 PUSH1 0x1 ADD SWAP1 DUP1 MLOAD SWAP1 PUSH1 0x20 ADD SWAP1 PUSH2 0x812 SWAP3 SWAP2 SWAP1 PUSH2 0x33A7 JUMP JUMPDEST POP PUSH1 0x40 DUP3 ADD MLOAD DUP2 PUSH1 0x2 ADD SWAP1 DUP1 MLOAD SWAP1 PUSH1 0x20 ADD SWAP1 PUSH2 0x82F SWAP3 SWAP2 SWAP1 PUSH2 0x33A7 JUMP JUMPDEST POP PUSH1 0x60 DUP3 ADD MLOAD DUP2 PUSH1 0x3 ADD PUSH1 0x0 PUSH2 0x100 EXP DUP2 SLOAD DUP2 PUSH20 0xFFFFFFFFFFFFFFFFFFFFFFFFFFFFFFFFFFFFFFFF MUL NOT AND SWAP1 DUP4 PUSH20 0xFFFFFFFFFFFFFFFFFFFFFFFFFFFFFFFFFFFFFFFF AND MUL OR SWAP1 SSTORE POP PUSH1 0x80 DUP3 ADD MLOAD DUP2 PUSH1 0x3 ADD PUSH1 0x14 PUSH2 0x100 EXP DUP2 SLOAD DUP2 PUSH1 0xFF MUL NOT AND SWAP1 DUP4 ISZERO ISZERO MUL OR SWAP1 SSTORE POP POP POP PUSH32 0x1D6A52C11773994A4A6EAA1ACE32B929E7F0900BBE29DB3F1D36A3CD45F1486C PUSH1 0x1 SLOAD DUP6 DUP6 DUP6 DUP6 PUSH1 0x40 MLOAD PUSH2 0x8D2 SWAP6 SWAP5 SWAP4 SWAP3 SWAP2 SWAP1 PUSH2 0x426D JUMP JUMPDEST PUSH1 0x40 MLOAD DUP1 SWAP2 SUB SWAP1 LOG1 PUSH1 0x1 PUSH1 0x0 DUP2 SLOAD DUP1 SWAP3 SWAP2 SWAP1 PUSH1 0x1 ADD SWAP2 SWAP1 POP SSTORE POP POP POP POP POP JUMP JUMPDEST PUSH1 0x0 PUSH1 0x4 DUP1 SLOAD SWAP1 POP SWAP1 POP SWAP1 JUMP JUMPDEST PUSH1 0x0 PUSH2 0x90A DUP3 PUSH2 0x32C9 JUMP JUMPDEST SWAP1 POP PUSH1 0x0 PUSH1 0x4 DUP3 DUP2 SLOAD DUP2 LT PUSH2 0x91B JUMPI INVALID JUMPDEST SWAP1 PUSH1 0x0 MSTORE PUSH1 0x20 PUSH1 0x0 KECCAK256 SWAP1 PUSH1 0x6 MUL ADD PUSH1 0x5 ADD PUSH1 0x0 PUSH2 0x100 EXP DUP2 SLOAD DUP2 PUSH1 0xFF MUL NOT AND SWAP1 DUP4 ISZERO ISZERO MUL OR SWAP1 SSTORE POP PUSH32 0x5818F5E23A2C2BB34C81792EA8E3397D3F8AD179CB93A5FA57B3D4681564AA0 PUSH1 0x4 DUP3 DUP2 SLOAD DUP2 LT PUSH2 0x971 JUMPI INVALID JUMPDEST SWAP1 PUSH1 0x0 MSTORE PUSH1 0x20 PUSH1 0x0 KECCAK256 SWAP1 PUSH1 0x6 MUL ADD PUSH1 0x0 ADD PUSH1 0x0 SWAP1 SLOAD SWAP1 PUSH2 0x100 EXP SWAP1 DIV PUSH20 0xFFFFFFFFFFFFFFFFFFFFFFFFFFFFFFFFFFFFFFFF AND PUSH1 0x4 DUP4 DUP2 SLOAD DUP2 LT PUSH2 0x9B0 JUMPI INVALID JUMPDEST SWAP1 PUSH1 0x0 MSTORE PUSH1 0x20 PUSH1 0x0 KECCAK256 SWAP1 PUSH1 0x6 MUL ADD PUSH1 0x1 ADD PUSH1 0x4 DUP5 DUP2 SLOAD DUP2 LT PUSH2 0x9CE JUMPI INVALID JUMPDEST SWAP1 PUSH1 0x0 MSTORE PUSH1 0x20 PUSH1 0x0 KECCAK256 SWAP1 PUSH1 0x6 MUL ADD PUSH1 0x2 ADD PUSH1 0x4 DUP6 DUP2 SLOAD DUP2 LT PUSH2 0x9EC JUMPI INVALID JUMPDEST SWAP1 PUSH1 0x0 MSTORE PUSH1 0x20 PUSH1 0x0 KECCAK256 SWAP1 PUSH1 0x6 MUL ADD PUSH1 0x3 ADD PUSH1 0x4 DUP7 DUP2 SLOAD DUP2 LT PUSH2 0xA0A JUMPI INVALID JUMPDEST SWAP1 PUSH1 0x0 MSTORE PUSH1 0x20 PUSH1 0x0 KECCAK256 SWAP1 PUSH1 0x6 MUL ADD PUSH1 0x4 ADD SLOAD PUSH1 0x4 DUP8 DUP2 SLOAD DUP2 LT PUSH2 0xA29 JUMPI INVALID JUMPDEST SWAP1 PUSH1 0x0 MSTORE PUSH1 0x20 PUSH1 0x0 KECCAK256 SWAP1 PUSH1 0x6 MUL ADD PUSH1 0x5 ADD PUSH1 0x0 SWAP1 SLOAD SWAP1 PUSH2 0x100 EXP SWAP1 DIV PUSH1 0xFF AND PUSH1 0x40 MLOAD PUSH2 0xA5A SWAP7 SWAP6 SWAP5 SWAP4 SWAP3 SWAP2 SWAP1 PUSH2 0x401D JUMP JUMPDEST PUSH1 0x40 MLOAD DUP1 SWAP2 SUB SWAP1 LOG1 POP POP JUMP JUMPDEST PUSH1 0x60 PUSH1 0x0 PUSH1 0x4 DUP1 SLOAD SWAP1 POP PUSH8 0xFFFFFFFFFFFFFFFF DUP2 GT DUP1 ISZERO PUSH2 0xA86 JUMPI PUSH1 0x0 DUP1 REVERT JUMPDEST POP PUSH1 0x40 MLOAD SWAP1 DUP1 DUP3 MSTORE DUP1 PUSH1 0x20 MUL PUSH1 0x20 ADD DUP3 ADD PUSH1 0x40 MSTORE DUP1 ISZERO PUSH2 0xAC0 JUMPI DUP2 PUSH1 0x20 ADD JUMPDEST PUSH2 0xAAD PUSH2 0x3435 JUMP JUMPDEST DUP2 MSTORE PUSH1 0x20 ADD SWAP1 PUSH1 0x1 SWAP1 SUB SWAP1 DUP2 PUSH2 0xAA5 JUMPI SWAP1 POP JUMPDEST POP SWAP1 POP PUSH1 0x0 JUMPDEST PUSH1 0x4 DUP1 SLOAD SWAP1 POP DUP2 LT ISZERO PUSH2 0xD7E JUMPI PUSH1 0x4 DUP2 DUP2 SLOAD DUP2 LT PUSH2 0xAE0 JUMPI INVALID JUMPDEST SWAP1 PUSH1 0x0 MSTORE PUSH1 0x20 PUSH1 0x0 KECCAK256 SWAP1 PUSH1 0x6 MUL ADD PUSH1 0x40 MLOAD DUP1 PUSH1 0xC0 ADD PUSH1 0x40 MSTORE SWAP1 DUP2 PUSH1 0x0 DUP3 ADD PUSH1 0x0 SWAP1 SLOAD SWAP1 PUSH2 0x100 EXP SWAP1 DIV PUSH20 0xFFFFFFFFFFFFFFFFFFFFFFFFFFFFFFFFFFFFFFFF AND PUSH20 0xFFFFFFFFFFFFFFFFFFFFFFFFFFFFFFFFFFFFFFFF AND PUSH20 0xFFFFFFFFFFFFFFFFFFFFFFFFFFFFFFFFFFFFFFFF AND DUP2 MSTORE PUSH1 0x20 ADD PUSH1 0x1 DUP3 ADD DUP1 SLOAD PUSH1 0x1 DUP2 PUSH1 0x1 AND ISZERO PUSH2 0x100 MUL SUB AND PUSH1 0x2 SWAP1 DIV DUP1 PUSH1 0x1F ADD PUSH1 0x20 DUP1 SWAP2 DIV MUL PUSH1 0x20 ADD PUSH1 0x40 MLOAD SWAP1 DUP2 ADD PUSH1 0x40 MSTORE DUP1 SWAP3 SWAP2 SWAP1 DUP2 DUP2 MSTORE PUSH1 0x20 ADD DUP3 DUP1 SLOAD PUSH1 0x1 DUP2 PUSH1 0x1 AND ISZERO PUSH2 0x100 MUL SUB AND PUSH1 0x2 SWAP1 DIV DUP1 ISZERO PUSH2 0xBE8 JUMPI DUP1 PUSH1 0x1F LT PUSH2 0xBBD JUMPI PUSH2 0x100 DUP1 DUP4 SLOAD DIV MUL DUP4 MSTORE SWAP2 PUSH1 0x20 ADD SWAP2 PUSH2 0xBE8 JUMP JUMPDEST DUP3 ADD SWAP2 SWAP1 PUSH1 0x0 MSTORE PUSH1 0x20 PUSH1 0x0 KECCAK256 SWAP1 JUMPDEST DUP2 SLOAD DUP2 MSTORE SWAP1 PUSH1 0x1 ADD SWAP1 PUSH1 0x20 ADD DUP1 DUP4 GT PUSH2 0xBCB JUMPI DUP3 SWAP1 SUB PUSH1 0x1F AND DUP3 ADD SWAP2 JUMPDEST POP POP POP POP POP DUP2 MSTORE PUSH1 0x20 ADD PUSH1 0x2 DUP3 ADD DUP1 SLOAD PUSH1 0x1 DUP2 PUSH1 0x1 AND ISZERO PUSH2 0x100 MUL SUB AND PUSH1 0x2 SWAP1 DIV DUP1 PUSH1 0x1F ADD PUSH1 0x20 DUP1 SWAP2 DIV MUL PUSH1 0x20 ADD PUSH1 0x40 MLOAD SWAP1 DUP2 ADD PUSH1 0x40 MSTORE DUP1 SWAP3 SWAP2 SWAP1 DUP2 DUP2 MSTORE PUSH1 0x20 ADD DUP3 DUP1 SLOAD PUSH1 0x1 DUP2 PUSH1 0x1 AND ISZERO PUSH2 0x100 MUL SUB AND PUSH1 0x2 SWAP1 DIV DUP1 ISZERO PUSH2 0xC8A JUMPI DUP1 PUSH1 0x1F LT PUSH2 0xC5F JUMPI PUSH2 0x100 DUP1 DUP4 SLOAD DIV MUL DUP4 MSTORE SWAP2 PUSH1 0x20 ADD SWAP2 PUSH2 0xC8A JUMP JUMPDEST DUP3 ADD SWAP2 SWAP1 PUSH1 0x0 MSTORE PUSH1 0x20 PUSH1 0x0 KECCAK256 SWAP1 JUMPDEST DUP2 SLOAD DUP2 MSTORE SWAP1 PUSH1 0x1 ADD SWAP1 PUSH1 0x20 ADD DUP1 DUP4 GT PUSH2 0xC6D JUMPI DUP3 SWAP1 SUB PUSH1 0x1F AND DUP3 ADD SWAP2 JUMPDEST POP POP POP POP POP DUP2 MSTORE PUSH1 0x20 ADD PUSH1 0x3 DUP3 ADD DUP1 SLOAD PUSH1 0x1 DUP2 PUSH1 0x1 AND ISZERO PUSH2 0x100 MUL SUB AND PUSH1 0x2 SWAP1 DIV DUP1 PUSH1 0x1F ADD PUSH1 0x20 DUP1 SWAP2 DIV MUL PUSH1 0x20 ADD PUSH1 0x40 MLOAD SWAP1 DUP2 ADD PUSH1 0x40 MSTORE DUP1 SWAP3 SWAP2 SWAP1 DUP2 DUP2 MSTORE PUSH1 0x20 ADD DUP3 DUP1 SLOAD PUSH1 0x1 DUP2 PUSH1 0x1 AND ISZERO PUSH2 0x100 MUL SUB AND PUSH1 0x2 SWAP1 DIV DUP1 ISZERO PUSH2 0xD2C JUMPI DUP1 PUSH1 0x1F LT PUSH2 0xD01 JUMPI PUSH2 0x100 DUP1 DUP4 SLOAD DIV MUL DUP4 MSTORE SWAP2 PUSH1 0x20 ADD SWAP2 PUSH2 0xD2C JUMP JUMPDEST DUP3 ADD SWAP2 SWAP1 PUSH1 0x0 MSTORE PUSH1 0x20 PUSH1 0x0 KECCAK256 SWAP1 JUMPDEST DUP2 SLOAD DUP2 MSTORE SWAP1 PUSH1 0x1 ADD SWAP1 PUSH1 0x20 ADD DUP1 DUP4 GT PUSH2 0xD0F JUMPI DUP3 SWAP1 SUB PUSH1 0x1F AND DUP3 ADD SWAP2 JUMPDEST POP POP POP POP POP DUP2 MSTORE PUSH1 0x20 ADD PUSH1 0x4 DUP3 ADD SLOAD DUP2 MSTORE PUSH1 0x20 ADD PUSH1 0x5 DUP3 ADD PUSH1 0x0 SWAP1 SLOAD SWAP1 PUSH2 0x100 EXP SWAP1 DIV PUSH1 0xFF AND ISZERO ISZERO ISZERO ISZERO DUP2 MSTORE POP POP DUP3 DUP3 DUP2 MLOAD DUP2 LT PUSH2 0xD66 JUMPI INVALID JUMPDEST PUSH1 0x20 MUL PUSH1 0x20 ADD ADD DUP2 SWAP1 MSTORE POP DUP1 DUP1 PUSH1 0x1 ADD SWAP2 POP POP PUSH2 0xAC6 JUMP JUMPDEST POP DUP1 SWAP2 POP POP SWAP1 JUMP JUMPDEST PUSH1 0x60 PUSH1 0x0 PUSH1 0x8 DUP1 SLOAD SWAP1 POP PUSH8 0xFFFFFFFFFFFFFFFF DUP2 GT DUP1 ISZERO PUSH2 0xDA6 JUMPI PUSH1 0x0 DUP1 REVERT JUMPDEST POP PUSH1 0x40 MLOAD SWAP1 DUP1 DUP3 MSTORE DUP1 PUSH1 0x20 MUL PUSH1 0x20 ADD DUP3 ADD PUSH1 0x40 MSTORE DUP1 ISZERO PUSH2 0xDE0 JUMPI DUP2 PUSH1 0x20 ADD JUMPDEST PUSH2 0xDCD PUSH2 0x3483 JUMP JUMPDEST DUP2 MSTORE PUSH1 0x20 ADD SWAP1 PUSH1 0x1 SWAP1 SUB SWAP1 DUP2 PUSH2 0xDC5 JUMPI SWAP1 POP JUMPDEST POP SWAP1 POP PUSH1 0x0 JUMPDEST PUSH1 0x8 DUP1 SLOAD SWAP1 POP DUP2 LT ISZERO PUSH2 0xFFC JUMPI PUSH1 0x8 DUP2 DUP2 SLOAD DUP2 LT PUSH2 0xE00 JUMPI INVALID JUMPDEST SWAP1 PUSH1 0x0 MSTORE PUSH1 0x20 PUSH1 0x0 KECCAK256 SWAP1 PUSH1 0x4 MUL ADD PUSH1 0x40 MLOAD DUP1 PUSH1 0xA0 ADD PUSH1 0x40 MSTORE SWAP1 DUP2 PUSH1 0x0 DUP3 ADD SLOAD DUP2 MSTORE PUSH1 0x20 ADD PUSH1 0x1 DUP3 ADD DUP1 SLOAD PUSH1 0x1 DUP2 PUSH1 0x1 AND ISZERO PUSH2 0x100 MUL SUB AND PUSH1 0x2 SWAP1 DIV DUP1 PUSH1 0x1F ADD PUSH1 0x20 DUP1 SWAP2 DIV MUL PUSH1 0x20 ADD PUSH1 0x40 MLOAD SWAP1 DUP2 ADD PUSH1 0x40 MSTORE DUP1 SWAP3 SWAP2 SWAP1 DUP2 DUP2 MSTORE PUSH1 0x20 ADD DUP3 DUP1 SLOAD PUSH1 0x1 DUP2 PUSH1 0x1 AND ISZERO PUSH2 0x100 MUL SUB AND PUSH1 0x2 SWAP1 DIV DUP1 ISZERO PUSH2 0xEBC JUMPI DUP1 PUSH1 0x1F LT PUSH2 0xE91 JUMPI PUSH2 0x100 DUP1 DUP4 SLOAD DIV MUL DUP4 MSTORE SWAP2 PUSH1 0x20 ADD SWAP2 PUSH2 0xEBC JUMP JUMPDEST DUP3 ADD SWAP2 SWAP1 PUSH1 0x0 MSTORE PUSH1 0x20 PUSH1 0x0 KECCAK256 SWAP1 JUMPDEST DUP2 SLOAD DUP2 MSTORE SWAP1 PUSH1 0x1 ADD SWAP1 PUSH1 0x20 ADD DUP1 DUP4 GT PUSH2 0xE9F JUMPI DUP3 SWAP1 SUB PUSH1 0x1F AND DUP3 ADD SWAP2 JUMPDEST POP POP POP POP POP DUP2 MSTORE PUSH1 0x20 ADD PUSH1 0x2 DUP3 ADD DUP1 SLOAD PUSH1 0x1 DUP2 PUSH1 0x1 AND ISZERO PUSH2 0x100 MUL SUB AND PUSH1 0x2 SWAP1 DIV DUP1 PUSH1 0x1F ADD PUSH1 0x20 DUP1 SWAP2 DIV MUL PUSH1 0x20 ADD PUSH1 0x40 MLOAD SWAP1 DUP2 ADD PUSH1 0x40 MSTORE DUP1 SWAP3 SWAP2 SWAP1 DUP2 DUP2 MSTORE PUSH1 0x20 ADD DUP3 DUP1 SLOAD PUSH1 0x1 DUP2 PUSH1 0x1 AND ISZERO PUSH2 0x100 MUL SUB AND PUSH1 0x2 SWAP1 DIV DUP1 ISZERO PUSH2 0xF5E JUMPI DUP1 PUSH1 0x1F LT PUSH2 0xF33 JUMPI PUSH2 0x100 DUP1 DUP4 SLOAD DIV MUL DUP4 MSTORE SWAP2 PUSH1 0x20 ADD SWAP2 PUSH2 0xF5E JUMP JUMPDEST DUP3 ADD SWAP2 SWAP1 PUSH1 0x0 MSTORE PUSH1 0x20 PUSH1 0x0 KECCAK256 SWAP1 JUMPDEST DUP2 SLOAD DUP2 MSTORE SWAP1 PUSH1 0x1 ADD SWAP1 PUSH1 0x20 ADD DUP1 DUP4 GT PUSH2 0xF41 JUMPI DUP3 SWAP1 SUB PUSH1 0x1F AND DUP3 ADD SWAP2 JUMPDEST POP POP POP POP POP DUP2 MSTORE PUSH1 0x20 ADD PUSH1 0x3 DUP3 ADD PUSH1 0x0 SWAP1 SLOAD SWAP1 PUSH2 0x100 EXP SWAP1 DIV PUSH20 0xFFFFFFFFFFFFFFFFFFFFFFFFFFFFFFFFFFFFFFFF AND PUSH20 0xFFFFFFFFFFFFFFFFFFFFFFFFFFFFFFFFFFFFFFFF AND PUSH20 0xFFFFFFFFFFFFFFFFFFFFFFFFFFFFFFFFFFFFFFFF AND DUP2 MSTORE PUSH1 0x20 ADD PUSH1 0x3 DUP3 ADD PUSH1 0x14 SWAP1 SLOAD SWAP1 PUSH2 0x100 EXP SWAP1 DIV PUSH1 0xFF AND ISZERO ISZERO ISZERO ISZERO DUP2 MSTORE POP POP DUP3 DUP3 DUP2 MLOAD DUP2 LT PUSH2 0xFE4 JUMPI INVALID JUMPDEST PUSH1 0x20 MUL PUSH1 0x20 ADD ADD DUP2 SWAP1 MSTORE POP DUP1 DUP1 PUSH1 0x1 ADD SWAP2 POP POP PUSH2 0xDE6 JUMP JUMPDEST POP DUP1 SWAP2 POP POP SWAP1 JUMP JUMPDEST PUSH1 0x0 PUSH2 0x100F DUP6 PUSH2 0x31EB JUMP JUMPDEST SWAP1 POP DUP4 PUSH1 0x6 DUP3 DUP2 SLOAD DUP2 LT PUSH2 0x101F JUMPI INVALID JUMPDEST SWAP1 PUSH1 0x0 MSTORE PUSH1 0x20 PUSH1 0x0 KECCAK256 SWAP1 PUSH1 0x3 MUL ADD PUSH1 0x1 ADD SWAP1 DUP1 MLOAD SWAP1 PUSH1 0x20 ADD SWAP1 PUSH2 0x1043 SWAP3 SWAP2 SWAP1 PUSH2 0x33A7 JUMP JUMPDEST POP DUP3 PUSH1 0x6 DUP3 DUP2 SLOAD DUP2 LT PUSH2 0x1052 JUMPI INVALID JUMPDEST SWAP1 PUSH1 0x0 MSTORE PUSH1 0x20 PUSH1 0x0 KECCAK256 SWAP1 PUSH1 0x3 MUL ADD PUSH1 0x2 ADD PUSH1 0x0 PUSH2 0x100 EXP DUP2 SLOAD DUP2 PUSH20 0xFFFFFFFFFFFFFFFFFFFFFFFFFFFFFFFFFFFFFFFF MUL NOT AND SWAP1 DUP4 PUSH20 0xFFFFFFFFFFFFFFFFFFFFFFFFFFFFFFFFFFFFFFFF AND MUL OR SWAP1 SSTORE POP DUP2 PUSH1 0x6 DUP3 DUP2 SLOAD DUP2 LT PUSH2 0x10AF JUMPI INVALID JUMPDEST SWAP1 PUSH1 0x0 MSTORE PUSH1 0x20 PUSH1 0x0 KECCAK256 SWAP1 PUSH1 0x3 MUL ADD PUSH1 0x2 ADD PUSH1 0x14 PUSH2 0x100 EXP DUP2 SLOAD DUP2 PUSH1 0xFF MUL NOT AND SWAP1 DUP4 ISZERO ISZERO MUL OR SWAP1 SSTORE POP PUSH32 0x6FCBC4A02269AC36204AC7E60C4CF625C6FC2B2365CAC750C9927B670E347F90 PUSH1 0x6 DUP3 DUP2 SLOAD DUP2 LT PUSH2 0x1105 JUMPI INVALID JUMPDEST SWAP1 PUSH1 0x0 MSTORE PUSH1 0x20 PUSH1 0x0 KECCAK256 SWAP1 PUSH1 0x3 MUL ADD PUSH1 0x0 ADD PUSH1 0x0 SWAP1 SLOAD SWAP1 PUSH2 0x100 EXP SWAP1 DIV PUSH20 0xFFFFFFFFFFFFFFFFFFFFFFFFFFFFFFFFFFFFFFFF AND PUSH1 0x6 DUP4 DUP2 SLOAD DUP2 LT PUSH2 0x1144 JUMPI INVALID JUMPDEST SWAP1 PUSH1 0x0 MSTORE PUSH1 0x20 PUSH1 0x0 KECCAK256 SWAP1 PUSH1 0x3 MUL ADD PUSH1 0x1 ADD PUSH1 0x6 DUP5 DUP2 SLOAD DUP2 LT PUSH2 0x1162 JUMPI INVALID JUMPDEST SWAP1 PUSH1 0x0 MSTORE PUSH1 0x20 PUSH1 0x0 KECCAK256 SWAP1 PUSH1 0x3 MUL ADD PUSH1 0x2 ADD PUSH1 0x0 SWAP1 SLOAD SWAP1 PUSH2 0x100 EXP SWAP1 DIV PUSH20 0xFFFFFFFFFFFFFFFFFFFFFFFFFFFFFFFFFFFFFFFF AND PUSH1 0x6 DUP6 DUP2 SLOAD DUP2 LT PUSH2 0x11A1 JUMPI INVALID JUMPDEST SWAP1 PUSH1 0x0 MSTORE PUSH1 0x20 PUSH1 0x0 KECCAK256 SWAP1 PUSH1 0x3 MUL ADD PUSH1 0x2 ADD PUSH1 0x14 SWAP1 SLOAD SWAP1 PUSH2 0x100 EXP SWAP1 DIV PUSH1 0xFF AND PUSH1 0x40 MLOAD PUSH2 0x11D0 SWAP5 SWAP4 SWAP3 SWAP2 SWAP1 PUSH2 0x3FD1 JUMP JUMPDEST PUSH1 0x40 MLOAD DUP1 SWAP2 SUB SWAP1 LOG1 POP POP POP POP POP JUMP JUMPDEST PUSH1 0x0 PUSH2 0x11EA DUP3 PUSH2 0x3159 JUMP JUMPDEST SWAP1 POP PUSH1 0x0 PUSH1 0x8 DUP3 DUP2 SLOAD DUP2 LT PUSH2 0x11FB JUMPI INVALID JUMPDEST SWAP1 PUSH1 0x0 MSTORE PUSH1 0x20 PUSH1 0x0 KECCAK256 SWAP1 PUSH1 0x4 MUL ADD PUSH1 0x3 ADD PUSH1 0x14 PUSH2 0x100 EXP DUP2 SLOAD DUP2 PUSH1 0xFF MUL NOT AND SWAP1 DUP4 ISZERO ISZERO MUL OR SWAP1 SSTORE POP PUSH32 0xEF9006907EB20210E880B0BB1C39946083BCEC24688718507D63A259FFA8351B PUSH1 0x8 DUP3 DUP2 SLOAD DUP2 LT PUSH2 0x1251 JUMPI INVALID JUMPDEST SWAP1 PUSH1 0x0 MSTORE PUSH1 0x20 PUSH1 0x0 KECCAK256 SWAP1 PUSH1 0x4 MUL ADD PUSH1 0x0 ADD SLOAD PUSH1 0x8 DUP4 DUP2 SLOAD DUP2 LT PUSH2 0x1270 JUMPI INVALID JUMPDEST SWAP1 PUSH1 0x0 MSTORE PUSH1 0x20 PUSH1 0x0 KECCAK256 SWAP1 PUSH1 0x4 MUL ADD PUSH1 0x1 ADD PUSH1 0x8 DUP5 DUP2 SLOAD DUP2 LT PUSH2 0x128E JUMPI INVALID JUMPDEST SWAP1 PUSH1 0x0 MSTORE PUSH1 0x20 PUSH1 0x0 KECCAK256 SWAP1 PUSH1 0x4 MUL ADD PUSH1 0x2 ADD PUSH1 0x8 DUP6 DUP2 SLOAD DUP2 LT PUSH2 0x12AC JUMPI INVALID JUMPDEST SWAP1 PUSH1 0x0 MSTORE PUSH1 0x20 PUSH1 0x0 KECCAK256 SWAP1 PUSH1 0x4 MUL ADD PUSH1 0x3 ADD PUSH1 0x0 SWAP1 SLOAD SWAP1 PUSH2 0x100 EXP SWAP1 DIV PUSH20 0xFFFFFFFFFFFFFFFFFFFFFFFFFFFFFFFFFFFFFFFF AND PUSH1 0x8 DUP7 DUP2 SLOAD DUP2 LT PUSH2 0x12EB JUMPI INVALID JUMPDEST SWAP1 PUSH1 0x0 MSTORE PUSH1 0x20 PUSH1 0x0 KECCAK256 SWAP1 PUSH1 0x4 MUL ADD PUSH1 0x3 ADD PUSH1 0x14 SWAP1 SLOAD SWAP1 PUSH2 0x100 EXP SWAP1 DIV PUSH1 0xFF AND PUSH1 0x40 MLOAD PUSH2 0x131B SWAP6 SWAP5 SWAP4 SWAP3 SWAP2 SWAP1 PUSH2 0x42CE JUMP JUMPDEST PUSH1 0x40 MLOAD DUP1 SWAP2 SUB SWAP1 LOG1 POP POP JUMP JUMPDEST PUSH1 0x60 PUSH1 0x0 DUP1 PUSH1 0x0 PUSH2 0x1337 DUP6 PUSH2 0x31EB JUMP JUMPDEST SWAP1 POP PUSH1 0x6 DUP2 DUP2 SLOAD DUP2 LT PUSH2 0x1346 JUMPI INVALID JUMPDEST SWAP1 PUSH1 0x0 MSTORE PUSH1 0x20 PUSH1 0x0 KECCAK256 SWAP1 PUSH1 0x3 MUL ADD PUSH1 0x1 ADD PUSH1 0x6 DUP3 DUP2 SLOAD DUP2 LT PUSH2 0x1364 JUMPI INVALID JUMPDEST SWAP1 PUSH1 0x0 MSTORE PUSH1 0x20 PUSH1 0x0 KECCAK256 SWAP1 PUSH1 0x3 MUL ADD PUSH1 0x2 ADD PUSH1 0x0 SWAP1 SLOAD SWAP1 PUSH2 0x100 EXP SWAP1 DIV PUSH20 0xFFFFFFFFFFFFFFFFFFFFFFFFFFFFFFFFFFFFFFFF AND PUSH1 0x6 DUP4 DUP2 SLOAD DUP2 LT PUSH2 0x13A3 JUMPI INVALID JUMPDEST SWAP1 PUSH1 0x0 MSTORE PUSH1 0x20 PUSH1 0x0 KECCAK256 SWAP1 PUSH1 0x3 MUL ADD PUSH1 0x2 ADD PUSH1 0x14 SWAP1 SLOAD SWAP1 PUSH2 0x100 EXP SWAP1 DIV PUSH1 0xFF AND DUP3 DUP1 SLOAD PUSH1 0x1 DUP2 PUSH1 0x1 AND ISZERO PUSH2 0x100 MUL SUB AND PUSH1 0x2 SWAP1 DIV DUP1 PUSH1 0x1F ADD PUSH1 0x20 DUP1 SWAP2 DIV MUL PUSH1 0x20 ADD PUSH1 0x40 MLOAD SWAP1 DUP2 ADD PUSH1 0x40 MSTORE DUP1 SWAP3 SWAP2 SWAP1 DUP2 DUP2 MSTORE PUSH1 0x20 ADD DUP3 DUP1 SLOAD PUSH1 0x1 DUP2 PUSH1 0x1 AND ISZERO PUSH2 0x100 MUL SUB AND PUSH1 0x2 SWAP1 DIV DUP1 ISZERO PUSH2 0x1457 JUMPI DUP1 PUSH1 0x1F LT PUSH2 0x142C JUMPI PUSH2 0x100 DUP1 DUP4 SLOAD DIV MUL DUP4 MSTORE SWAP2 PUSH1 0x20 ADD SWAP2 PUSH2 0x1457 JUMP JUMPDEST DUP3 ADD SWAP2 SWAP1 PUSH1 0x0 MSTORE PUSH1 0x20 PUSH1 0x0 KECCAK256 SWAP1 JUMPDEST DUP2 SLOAD DUP2 MSTORE SWAP1 PUSH1 0x1 ADD SWAP1 PUSH1 0x20 ADD DUP1 DUP4 GT PUSH2 0x143A JUMPI DUP3 SWAP1 SUB PUSH1 0x1F AND DUP3 ADD SWAP2 JUMPDEST POP POP POP POP POP SWAP3 POP SWAP4 POP SWAP4 POP SWAP4 POP POP SWAP2 SWAP4 SWAP1 SWAP3 POP JUMP JUMPDEST PUSH1 0x0 PUSH2 0x1477 DUP7 PUSH2 0x3159 JUMP JUMPDEST SWAP1 POP DUP5 PUSH1 0x8 DUP3 DUP2 SLOAD DUP2 LT PUSH2 0x1487 JUMPI INVALID JUMPDEST SWAP1 PUSH1 0x0 MSTORE PUSH1 0x20 PUSH1 0x0 KECCAK256 SWAP1 PUSH1 0x4 MUL ADD PUSH1 0x1 ADD SWAP1 DUP1 MLOAD SWAP1 PUSH1 0x20 ADD SWAP1 PUSH2 0x14AB SWAP3 SWAP2 SWAP1 PUSH2 0x33A7 JUMP JUMPDEST POP DUP4 PUSH1 0x8 DUP3 DUP2 SLOAD DUP2 LT PUSH2 0x14BA JUMPI INVALID JUMPDEST SWAP1 PUSH1 0x0 MSTORE PUSH1 0x20 PUSH1 0x0 KECCAK256 SWAP1 PUSH1 0x4 MUL ADD PUSH1 0x2 ADD SWAP1 DUP1 MLOAD SWAP1 PUSH1 0x20 ADD SWAP1 PUSH2 0x14DE SWAP3 SWAP2 SWAP1 PUSH2 0x33A7 JUMP JUMPDEST POP DUP3 PUSH1 0x8 DUP3 DUP2 SLOAD DUP2 LT PUSH2 0x14ED JUMPI INVALID JUMPDEST SWAP1 PUSH1 0x0 MSTORE PUSH1 0x20 PUSH1 0x0 KECCAK256 SWAP1 PUSH1 0x4 MUL ADD PUSH1 0x3 ADD PUSH1 0x0 PUSH2 0x100 EXP DUP2 SLOAD DUP2 PUSH20 0xFFFFFFFFFFFFFFFFFFFFFFFFFFFFFFFFFFFFFFFF MUL NOT AND SWAP1 DUP4 PUSH20 0xFFFFFFFFFFFFFFFFFFFFFFFFFFFFFFFFFFFFFFFF AND MUL OR SWAP1 SSTORE POP DUP2 PUSH1 0x8 DUP3 DUP2 SLOAD DUP2 LT PUSH2 0x154A JUMPI INVALID JUMPDEST SWAP1 PUSH1 0x0 MSTORE PUSH1 0x20 PUSH1 0x0 KECCAK256 SWAP1 PUSH1 0x4 MUL ADD PUSH1 0x3 ADD PUSH1 0x14 PUSH2 0x100 EXP DUP2 SLOAD DUP2 PUSH1 0xFF MUL NOT AND SWAP1 DUP4 ISZERO ISZERO MUL OR SWAP1 SSTORE POP PUSH32 0x3AB6F9EA2E72CAD17988F4527DC5626FA4E97C597FCBD9D7E2A7E820851B54CE PUSH1 0x8 DUP3 DUP2 SLOAD DUP2 LT PUSH2 0x15A0 JUMPI INVALID JUMPDEST SWAP1 PUSH1 0x0 MSTORE PUSH1 0x20 PUSH1 0x0 KECCAK256 SWAP1 PUSH1 0x4 MUL ADD PUSH1 0x0 ADD SLOAD PUSH1 0x8 DUP4 DUP2 SLOAD DUP2 LT PUSH2 0x15BF JUMPI INVALID JUMPDEST SWAP1 PUSH1 0x0 MSTORE PUSH1 0x20 PUSH1 0x0 KECCAK256 SWAP1 PUSH1 0x4 MUL ADD PUSH1 0x1 ADD PUSH1 0x8 DUP5 DUP2 SLOAD DUP2 LT PUSH2 0x15DD JUMPI INVALID JUMPDEST SWAP1 PUSH1 0x0 MSTORE PUSH1 0x20 PUSH1 0x0 KECCAK256 SWAP1 PUSH1 0x4 MUL ADD PUSH1 0x2 ADD PUSH1 0x8 DUP6 DUP2 SLOAD DUP2 LT PUSH2 0x15FB JUMPI INVALID JUMPDEST SWAP1 PUSH1 0x0 MSTORE PUSH1 0x20 PUSH1 0x0 KECCAK256 SWAP1 PUSH1 0x4 MUL ADD PUSH1 0x3 ADD PUSH1 0x0 SWAP1 SLOAD SWAP1 PUSH2 0x100 EXP SWAP1 DIV PUSH20 0xFFFFFFFFFFFFFFFFFFFFFFFFFFFFFFFFFFFFFFFF AND PUSH1 0x8 DUP7 DUP2 SLOAD DUP2 LT PUSH2 0x163A JUMPI INVALID JUMPDEST SWAP1 PUSH1 0x0 MSTORE PUSH1 0x20 PUSH1 0x0 KECCAK256 SWAP1 PUSH1 0x4 MUL ADD PUSH1 0x3 ADD PUSH1 0x14 SWAP1 SLOAD SWAP1 PUSH2 0x100 EXP SWAP1 DIV PUSH1 0xFF AND PUSH1 0x40 MLOAD PUSH2 0x166A SWAP6 SWAP5 SWAP4 SWAP3 SWAP2 SWAP1 PUSH2 0x42CE JUMP JUMPDEST PUSH1 0x40 MLOAD DUP1 SWAP2 SUB SWAP1 LOG1 POP POP POP POP POP POP JUMP JUMPDEST PUSH1 0x0 PUSH2 0x1685 DUP8 PUSH2 0x32C9 JUMP JUMPDEST SWAP1 POP DUP6 PUSH1 0x4 DUP3 DUP2 SLOAD DUP2 LT PUSH2 0x1695 JUMPI INVALID JUMPDEST SWAP1 PUSH1 0x0 MSTORE PUSH1 0x20 PUSH1 0x0 KECCAK256 SWAP1 PUSH1 0x6 MUL ADD PUSH1 0x1 ADD SWAP1 DUP1 MLOAD SWAP1 PUSH1 0x20 ADD SWAP1 PUSH2 0x16B9 SWAP3 SWAP2 SWAP1 PUSH2 0x33A7 JUMP JUMPDEST POP DUP5 PUSH1 0x4 DUP3 DUP2 SLOAD DUP2 LT PUSH2 0x16C8 JUMPI INVALID JUMPDEST SWAP1 PUSH1 0x0 MSTORE PUSH1 0x20 PUSH1 0x0 KECCAK256 SWAP1 PUSH1 0x6 MUL ADD PUSH1 0x2 ADD SWAP1 DUP1 MLOAD SWAP1 PUSH1 0x20 ADD SWAP1 PUSH2 0x16EC SWAP3 SWAP2 SWAP1 PUSH2 0x33A7 JUMP JUMPDEST POP DUP4 PUSH1 0x4 DUP3 DUP2 SLOAD DUP2 LT PUSH2 0x16FB JUMPI INVALID JUMPDEST SWAP1 PUSH1 0x0 MSTORE PUSH1 0x20 PUSH1 0x0 KECCAK256 SWAP1 PUSH1 0x6 MUL ADD PUSH1 0x3 ADD SWAP1 DUP1 MLOAD SWAP1 PUSH1 0x20 ADD SWAP1 PUSH2 0x171F SWAP3 SWAP2 SWAP1 PUSH2 0x33A7 JUMP JUMPDEST POP DUP3 PUSH1 0x4 DUP3 DUP2 SLOAD DUP2 LT PUSH2 0x172E JUMPI INVALID JUMPDEST SWAP1 PUSH1 0x0 MSTORE PUSH1 0x20 PUSH1 0x0 KECCAK256 SWAP1 PUSH1 0x6 MUL ADD PUSH1 0x4 ADD DUP2 SWAP1 SSTORE POP DUP2 PUSH1 0x4 DUP3 DUP2 SLOAD DUP2 LT PUSH2 0x1751 JUMPI INVALID JUMPDEST SWAP1 PUSH1 0x0 MSTORE PUSH1 0x20 PUSH1 0x0 KECCAK256 SWAP1 PUSH1 0x6 MUL ADD PUSH1 0x5 ADD PUSH1 0x0 PUSH2 0x100 EXP DUP2 SLOAD DUP2 PUSH1 0xFF MUL NOT AND SWAP1 DUP4 ISZERO ISZERO MUL OR SWAP1 SSTORE POP PUSH32 0x5975E6FED8802A324436EB320387035D99D011C9901BB75B34B8C23B91250C1C PUSH1 0x4 DUP3 DUP2 SLOAD DUP2 LT PUSH2 0x17A7 JUMPI INVALID JUMPDEST SWAP1 PUSH1 0x0 MSTORE PUSH1 0x20 PUSH1 0x0 KECCAK256 SWAP1 PUSH1 0x6 MUL ADD PUSH1 0x0 ADD PUSH1 0x0 SWAP1 SLOAD SWAP1 PUSH2 0x100 EXP SWAP1 DIV PUSH20 0xFFFFFFFFFFFFFFFFFFFFFFFFFFFFFFFFFFFFFFFF AND PUSH1 0x4 DUP4 DUP2 SLOAD DUP2 LT PUSH2 0x17E6 JUMPI INVALID JUMPDEST SWAP1 PUSH1 0x0 MSTORE PUSH1 0x20 PUSH1 0x0 KECCAK256 SWAP1 PUSH1 0x6 MUL ADD PUSH1 0x1 ADD PUSH1 0x4 DUP5 DUP2 SLOAD DUP2 LT PUSH2 0x1804 JUMPI INVALID JUMPDEST SWAP1 PUSH1 0x0 MSTORE PUSH1 0x20 PUSH1 0x0 KECCAK256 SWAP1 PUSH1 0x6 MUL ADD PUSH1 0x2 ADD PUSH1 0x4 DUP6 DUP2 SLOAD DUP2 LT PUSH2 0x1822 JUMPI INVALID JUMPDEST SWAP1 PUSH1 0x0 MSTORE PUSH1 0x20 PUSH1 0x0 KECCAK256 SWAP1 PUSH1 0x6 MUL ADD PUSH1 0x3 ADD PUSH1 0x4 DUP7 DUP2 SLOAD DUP2 LT PUSH2 0x1840 JUMPI INVALID JUMPDEST SWAP1 PUSH1 0x0 MSTORE PUSH1 0x20 PUSH1 0x0 KECCAK256 SWAP1 PUSH1 0x6 MUL ADD PUSH1 0x4 ADD SLOAD PUSH1 0x4 DUP8 DUP2 SLOAD DUP2 LT PUSH2 0x185F JUMPI INVALID JUMPDEST SWAP1 PUSH1 0x0 MSTORE PUSH1 0x20 PUSH1 0x0 KECCAK256 SWAP1 PUSH1 0x6 MUL ADD PUSH1 0x5 ADD PUSH1 0x0 SWAP1 SLOAD SWAP1 PUSH2 0x100 EXP SWAP1 DIV PUSH1 0xFF AND PUSH1 0x40 MLOAD PUSH2 0x1890 SWAP7 SWAP6 SWAP5 SWAP4 SWAP3 SWAP2 SWAP1 PUSH2 0x401D JUMP JUMPDEST PUSH1 0x40 MLOAD DUP1 SWAP2 SUB SWAP1 LOG1 POP POP POP POP POP POP POP JUMP JUMPDEST PUSH1 0x7 PUSH1 0x20 MSTORE DUP1 PUSH1 0x0 MSTORE PUSH1 0x40 PUSH1 0x0 KECCAK256 PUSH1 0x0 SWAP2 POP SWAP1 POP DUP1 PUSH1 0x0 ADD SLOAD SWAP1 DUP1 PUSH1 0x1 ADD DUP1 SLOAD PUSH1 0x1 DUP2 PUSH1 0x1 AND ISZERO PUSH2 0x100 MUL SUB AND PUSH1 0x2 SWAP1 DIV DUP1 PUSH1 0x1F ADD PUSH1 0x20 DUP1 SWAP2 DIV MUL PUSH1 0x20 ADD PUSH1 0x40 MLOAD SWAP1 DUP2 ADD PUSH1 0x40 MSTORE DUP1 SWAP3 SWAP2 SWAP1 DUP2 DUP2 MSTORE PUSH1 0x20 ADD DUP3 DUP1 SLOAD PUSH1 0x1 DUP2 PUSH1 0x1 AND ISZERO PUSH2 0x100 MUL SUB AND PUSH1 0x2 SWAP1 DIV DUP1 ISZERO PUSH2 0x1953 JUMPI DUP1 PUSH1 0x1F LT PUSH2 0x1928 JUMPI PUSH2 0x100 DUP1 DUP4 SLOAD DIV MUL DUP4 MSTORE SWAP2 PUSH1 0x20 ADD SWAP2 PUSH2 0x1953 JUMP JUMPDEST DUP3 ADD SWAP2 SWAP1 PUSH1 0x0 MSTORE PUSH1 0x20 PUSH1 0x0 KECCAK256 SWAP1 JUMPDEST DUP2 SLOAD DUP2 MSTORE SWAP1 PUSH1 0x1 ADD SWAP1 PUSH1 0x20 ADD DUP1 DUP4 GT PUSH2 0x1936 JUMPI DUP3 SWAP1 SUB PUSH1 0x1F AND DUP3 ADD SWAP2 JUMPDEST POP POP POP POP POP SWAP1 DUP1 PUSH1 0x2 ADD DUP1 SLOAD PUSH1 0x1 DUP2 PUSH1 0x1 AND ISZERO PUSH2 0x100 MUL SUB AND PUSH1 0x2 SWAP1 DIV DUP1 PUSH1 0x1F ADD PUSH1 0x20 DUP1 SWAP2 DIV MUL PUSH1 0x20 ADD PUSH1 0x40 MLOAD SWAP1 DUP2 ADD PUSH1 0x40 MSTORE DUP1 SWAP3 SWAP2 SWAP1 DUP2 DUP2 MSTORE PUSH1 0x20 ADD DUP3 DUP1 SLOAD PUSH1 0x1 DUP2 PUSH1 0x1 AND ISZERO PUSH2 0x100 MUL SUB AND PUSH1 0x2 SWAP1 DIV DUP1 ISZERO PUSH2 0x19F1 JUMPI DUP1 PUSH1 0x1F LT PUSH2 0x19C6 JUMPI PUSH2 0x100 DUP1 DUP4 SLOAD DIV MUL DUP4 MSTORE SWAP2 PUSH1 0x20 ADD SWAP2 PUSH2 0x19F1 JUMP JUMPDEST DUP3 ADD SWAP2 SWAP1 PUSH1 0x0 MSTORE PUSH1 0x20 PUSH1 0x0 KECCAK256 SWAP1 JUMPDEST DUP2 SLOAD DUP2 MSTORE SWAP1 PUSH1 0x1 ADD SWAP1 PUSH1 0x20 ADD DUP1 DUP4 GT PUSH2 0x19D4 JUMPI DUP3 SWAP1 SUB PUSH1 0x1F AND DUP3 ADD SWAP2 JUMPDEST POP POP POP POP POP SWAP1 DUP1 PUSH1 0x3 ADD PUSH1 0x0 SWAP1 SLOAD SWAP1 PUSH2 0x100 EXP SWAP1 DIV PUSH20 0xFFFFFFFFFFFFFFFFFFFFFFFFFFFFFFFFFFFFFFFF AND SWAP1 DUP1 PUSH1 0x3 ADD PUSH1 0x14 SWAP1 SLOAD SWAP1 PUSH2 0x100 EXP SWAP1 DIV PUSH1 0xFF AND SWAP1 POP DUP6 JUMP JUMPDEST PUSH1 0x6 DUP2 DUP2 SLOAD DUP2 LT PUSH2 0x1A44 JUMPI PUSH1 0x0 DUP1 REVERT JUMPDEST SWAP1 PUSH1 0x0 MSTORE PUSH1 0x20 PUSH1 0x0 KECCAK256 SWAP1 PUSH1 0x3 MUL ADD PUSH1 0x0 SWAP2 POP SWAP1 POP DUP1 PUSH1 0x0 ADD PUSH1 0x0 SWAP1 SLOAD SWAP1 PUSH2 0x100 EXP SWAP1 DIV PUSH20 0xFFFFFFFFFFFFFFFFFFFFFFFFFFFFFFFFFFFFFFFF AND SWAP1 DUP1 PUSH1 0x1 ADD DUP1 SLOAD PUSH1 0x1 DUP2 PUSH1 0x1 AND ISZERO PUSH2 0x100 MUL SUB AND PUSH1 0x2 SWAP1 DIV DUP1 PUSH1 0x1F ADD PUSH1 0x20 DUP1 SWAP2 DIV MUL PUSH1 0x20 ADD PUSH1 0x40 MLOAD SWAP1 DUP2 ADD PUSH1 0x40 MSTORE DUP1 SWAP3 SWAP2 SWAP1 DUP2 DUP2 MSTORE PUSH1 0x20 ADD DUP3 DUP1 SLOAD PUSH1 0x1 DUP2 PUSH1 0x1 AND ISZERO PUSH2 0x100 MUL SUB AND PUSH1 0x2 SWAP1 DIV DUP1 ISZERO PUSH2 0x1B16 JUMPI DUP1 PUSH1 0x1F LT PUSH2 0x1AEB JUMPI PUSH2 0x100 DUP1 DUP4 SLOAD DIV MUL DUP4 MSTORE SWAP2 PUSH1 0x20 ADD SWAP2 PUSH2 0x1B16 JUMP JUMPDEST DUP3 ADD SWAP2 SWAP1 PUSH1 0x0 MSTORE PUSH1 0x20 PUSH1 0x0 KECCAK256 SWAP1 JUMPDEST DUP2 SLOAD DUP2 MSTORE SWAP1 PUSH1 0x1 ADD SWAP1 PUSH1 0x20 ADD DUP1 DUP4 GT PUSH2 0x1AF9 JUMPI DUP3 SWAP1 SUB PUSH1 0x1F AND DUP3 ADD SWAP2 JUMPDEST POP POP POP POP POP SWAP1 DUP1 PUSH1 0x2 ADD PUSH1 0x0 SWAP1 SLOAD SWAP1 PUSH2 0x100 EXP SWAP1 DIV PUSH20 0xFFFFFFFFFFFFFFFFFFFFFFFFFFFFFFFFFFFFFFFF AND SWAP1 DUP1 PUSH1 0x2 ADD PUSH1 0x14 SWAP1 SLOAD SWAP1 PUSH2 0x100 EXP SWAP1 DIV PUSH1 0xFF AND SWAP1 POP DUP5 JUMP JUMPDEST PUSH1 0x60 PUSH1 0x0 PUSH1 0x8 DUP1 SLOAD SWAP1 POP PUSH8 0xFFFFFFFFFFFFFFFF DUP2 GT DUP1 ISZERO PUSH2 0x1B79 JUMPI PUSH1 0x0 DUP1 REVERT JUMPDEST POP PUSH1 0x40 MLOAD SWAP1 DUP1 DUP3 MSTORE DUP1 PUSH1 0x20 MUL PUSH1 0x20 ADD DUP3 ADD PUSH1 0x40 MSTORE DUP1 ISZERO PUSH2 0x1BB3 JUMPI DUP2 PUSH1 0x20 ADD JUMPDEST PUSH2 0x1BA0 PUSH2 0x3483 JUMP JUMPDEST DUP2 MSTORE PUSH1 0x20 ADD SWAP1 PUSH1 0x1 SWAP1 SUB SWAP1 DUP2 PUSH2 0x1B98 JUMPI SWAP1 POP JUMPDEST POP SWAP1 POP PUSH1 0x0 JUMPDEST PUSH1 0x8 DUP1 SLOAD SWAP1 POP DUP2 LT ISZERO PUSH2 0x1E42 JUMPI PUSH1 0x8 DUP2 DUP2 SLOAD DUP2 LT PUSH2 0x1BD3 JUMPI INVALID JUMPDEST SWAP1 PUSH1 0x0 MSTORE PUSH1 0x20 PUSH1 0x0 KECCAK256 SWAP1 PUSH1 0x4 MUL ADD PUSH1 0x3 ADD PUSH1 0x0 SWAP1 SLOAD SWAP1 PUSH2 0x100 EXP SWAP1 DIV PUSH20 0xFFFFFFFFFFFFFFFFFFFFFFFFFFFFFFFFFFFFFFFF AND PUSH20 0xFFFFFFFFFFFFFFFFFFFFFFFFFFFFFFFFFFFFFFFF AND DUP5 PUSH20 0xFFFFFFFFFFFFFFFFFFFFFFFFFFFFFFFFFFFFFFFF AND EQ ISZERO PUSH2 0x1E35 JUMPI PUSH1 0x8 DUP2 DUP2 SLOAD DUP2 LT PUSH2 0x1C45 JUMPI INVALID JUMPDEST SWAP1 PUSH1 0x0 MSTORE PUSH1 0x20 PUSH1 0x0 KECCAK256 SWAP1 PUSH1 0x4 MUL ADD PUSH1 0x40 MLOAD DUP1 PUSH1 0xA0 ADD PUSH1 0x40 MSTORE SWAP1 DUP2 PUSH1 0x0 DUP3 ADD SLOAD DUP2 MSTORE PUSH1 0x20 ADD PUSH1 0x1 DUP3 ADD DUP1 SLOAD PUSH1 0x1 DUP2 PUSH1 0x1 AND ISZERO PUSH2 0x100 MUL SUB AND PUSH1 0x2 SWAP1 DIV DUP1 PUSH1 0x1F ADD PUSH1 0x20 DUP1 SWAP2 DIV MUL PUSH1 0x20 ADD PUSH1 0x40 MLOAD SWAP1 DUP2 ADD PUSH1 0x40 MSTORE DUP1 SWAP3 SWAP2 SWAP1 DUP2 DUP2 MSTORE PUSH1 0x20 ADD DUP3 DUP1 SLOAD PUSH1 0x1 DUP2 PUSH1 0x1 AND ISZERO PUSH2 0x100 MUL SUB AND PUSH1 0x2 SWAP1 DIV DUP1 ISZERO PUSH2 0x1D01 JUMPI DUP1 PUSH1 0x1F LT PUSH2 0x1CD6 JUMPI PUSH2 0x100 DUP1 DUP4 SLOAD DIV MUL DUP4 MSTORE SWAP2 PUSH1 0x20 ADD SWAP2 PUSH2 0x1D01 JUMP JUMPDEST DUP3 ADD SWAP2 SWAP1 PUSH1 0x0 MSTORE PUSH1 0x20 PUSH1 0x0 KECCAK256 SWAP1 JUMPDEST DUP2 SLOAD DUP2 MSTORE SWAP1 PUSH1 0x1 ADD SWAP1 PUSH1 0x20 ADD DUP1 DUP4 GT PUSH2 0x1CE4 JUMPI DUP3 SWAP1 SUB PUSH1 0x1F AND DUP3 ADD SWAP2 JUMPDEST POP POP POP POP POP DUP2 MSTORE PUSH1 0x20 ADD PUSH1 0x2 DUP3 ADD DUP1 SLOAD PUSH1 0x1 DUP2 PUSH1 0x1 AND ISZERO PUSH2 0x100 MUL SUB AND PUSH1 0x2 SWAP1 DIV DUP1 PUSH1 0x1F ADD PUSH1 0x20 DUP1 SWAP2 DIV MUL PUSH1 0x20 ADD PUSH1 0x40 MLOAD SWAP1 DUP2 ADD PUSH1 0x40 MSTORE DUP1 SWAP3 SWAP2 SWAP1 DUP2 DUP2 MSTORE PUSH1 0x20 ADD DUP3 DUP1 SLOAD PUSH1 0x1 DUP2 PUSH1 0x1 AND ISZERO PUSH2 0x100 MUL SUB AND PUSH1 0x2 SWAP1 DIV DUP1 ISZERO PUSH2 0x1DA3 JUMPI DUP1 PUSH1 0x1F LT PUSH2 0x1D78 JUMPI PUSH2 0x100 DUP1 DUP4 SLOAD DIV MUL DUP4 MSTORE SWAP2 PUSH1 0x20 ADD SWAP2 PUSH2 0x1DA3 JUMP JUMPDEST DUP3 ADD SWAP2 SWAP1 PUSH1 0x0 MSTORE PUSH1 0x20 PUSH1 0x0 KECCAK256 SWAP1 JUMPDEST DUP2 SLOAD DUP2 MSTORE SWAP1 PUSH1 0x1 ADD SWAP1 PUSH1 0x20 ADD DUP1 DUP4 GT PUSH2 0x1D86 JUMPI DUP3 SWAP1 SUB PUSH1 0x1F AND DUP3 ADD SWAP2 JUMPDEST POP POP POP POP POP DUP2 MSTORE PUSH1 0x20 ADD PUSH1 0x3 DUP3 ADD PUSH1 0x0 SWAP1 SLOAD SWAP1 PUSH2 0x100 EXP SWAP1 DIV PUSH20 0xFFFFFFFFFFFFFFFFFFFFFFFFFFFFFFFFFFFFFFFF AND PUSH20 0xFFFFFFFFFFFFFFFFFFFFFFFFFFFFFFFFFFFFFFFF AND PUSH20 0xFFFFFFFFFFFFFFFFFFFFFFFFFFFFFFFFFFFFFFFF AND DUP2 MSTORE PUSH1 0x20 ADD PUSH1 0x3 DUP3 ADD PUSH1 0x14 SWAP1 SLOAD SWAP1 PUSH2 0x100 EXP SWAP1 DIV PUSH1 0xFF AND ISZERO ISZERO ISZERO ISZERO DUP2 MSTORE POP POP DUP3 DUP3 DUP2 MLOAD DUP2 LT PUSH2 0x1E29 JUMPI INVALID JUMPDEST PUSH1 0x20 MUL PUSH1 0x20 ADD ADD DUP2 SWAP1 MSTORE POP JUMPDEST DUP1 DUP1 PUSH1 0x1 ADD SWAP2 POP POP PUSH2 0x1BB9 JUMP JUMPDEST POP DUP1 SWAP2 POP POP SWAP2 SWAP1 POP JUMP JUMPDEST PUSH1 0x60 DUP1 PUSH1 0x60 PUSH1 0x0 DUP1 PUSH1 0x0 PUSH2 0x1E5F DUP8 PUSH2 0x32C9 JUMP JUMPDEST SWAP1 POP PUSH1 0x4 DUP2 DUP2 SLOAD DUP2 LT PUSH2 0x1E6E JUMPI INVALID JUMPDEST SWAP1 PUSH1 0x0 MSTORE PUSH1 0x20 PUSH1 0x0 KECCAK256 SWAP1 PUSH1 0x6 MUL ADD PUSH1 0x1 ADD PUSH1 0x4 DUP3 DUP2 SLOAD DUP2 LT PUSH2 0x1E8C JUMPI INVALID JUMPDEST SWAP1 PUSH1 0x0 MSTORE PUSH1 0x20 PUSH1 0x0 KECCAK256 SWAP1 PUSH1 0x6 MUL ADD PUSH1 0x2 ADD PUSH1 0x4 DUP4 DUP2 SLOAD DUP2 LT PUSH2 0x1EAA JUMPI INVALID JUMPDEST SWAP1 PUSH1 0x0 MSTORE PUSH1 0x20 PUSH1 0x0 KECCAK256 SWAP1 PUSH1 0x6 MUL ADD PUSH1 0x3 ADD PUSH1 0x4 DUP5 DUP2 SLOAD DUP2 LT PUSH2 0x1EC8 JUMPI INVALID JUMPDEST SWAP1 PUSH1 0x0 MSTORE PUSH1 0x20 PUSH1 0x0 KECCAK256 SWAP1 PUSH1 0x6 MUL ADD PUSH1 0x4 ADD SLOAD PUSH1 0x4 DUP6 DUP2 SLOAD DUP2 LT PUSH2 0x1EE7 JUMPI INVALID JUMPDEST SWAP1 PUSH1 0x0 MSTORE PUSH1 0x20 PUSH1 0x0 KECCAK256 SWAP1 PUSH1 0x6 MUL ADD PUSH1 0x5 ADD PUSH1 0x0 SWAP1 SLOAD SWAP1 PUSH2 0x100 EXP SWAP1 DIV PUSH1 0xFF AND DUP5 DUP1 SLOAD PUSH1 0x1 DUP2 PUSH1 0x1 AND ISZERO PUSH2 0x100 MUL SUB AND PUSH1 0x2 SWAP1 DIV DUP1 PUSH1 0x1F ADD PUSH1 0x20 DUP1 SWAP2 DIV MUL PUSH1 0x20 ADD PUSH1 0x40 MLOAD SWAP1 DUP2 ADD PUSH1 0x40 MSTORE DUP1 SWAP3 SWAP2 SWAP1 DUP2 DUP2 MSTORE PUSH1 0x20 ADD DUP3 DUP1 SLOAD PUSH1 0x1 DUP2 PUSH1 0x1 AND ISZERO PUSH2 0x100 MUL SUB AND PUSH1 0x2 SWAP1 DIV DUP1 ISZERO PUSH2 0x1F9B JUMPI DUP1 PUSH1 0x1F LT PUSH2 0x1F70 JUMPI PUSH2 0x100 DUP1 DUP4 SLOAD DIV MUL DUP4 MSTORE SWAP2 PUSH1 0x20 ADD SWAP2 PUSH2 0x1F9B JUMP JUMPDEST DUP3 ADD SWAP2 SWAP1 PUSH1 0x0 MSTORE PUSH1 0x20 PUSH1 0x0 KECCAK256 SWAP1 JUMPDEST DUP2 SLOAD DUP2 MSTORE SWAP1 PUSH1 0x1 ADD SWAP1 PUSH1 0x20 ADD DUP1 DUP4 GT PUSH2 0x1F7E JUMPI DUP3 SWAP1 SUB PUSH1 0x1F AND DUP3 ADD SWAP2 JUMPDEST POP POP POP POP POP SWAP5 POP DUP4 DUP1 SLOAD PUSH1 0x1 DUP2 PUSH1 0x1 AND ISZERO PUSH2 0x100 MUL SUB AND PUSH1 0x2 SWAP1 DIV DUP1 PUSH1 0x1F ADD PUSH1 0x20 DUP1 SWAP2 DIV MUL PUSH1 0x20 ADD PUSH1 0x40 MLOAD SWAP1 DUP2 ADD PUSH1 0x40 MSTORE DUP1 SWAP3 SWAP2 SWAP1 DUP2 DUP2 MSTORE PUSH1 0x20 ADD DUP3 DUP1 SLOAD PUSH1 0x1 DUP2 PUSH1 0x1 AND ISZERO PUSH2 0x100 MUL SUB AND PUSH1 0x2 SWAP1 DIV DUP1 ISZERO PUSH2 0x2037 JUMPI DUP1 PUSH1 0x1F LT PUSH2 0x200C JUMPI PUSH2 0x100 DUP1 DUP4 SLOAD DIV MUL DUP4 MSTORE SWAP2 PUSH1 0x20 ADD SWAP2 PUSH2 0x2037 JUMP JUMPDEST DUP3 ADD SWAP2 SWAP1 PUSH1 0x0 MSTORE PUSH1 0x20 PUSH1 0x0 KECCAK256 SWAP1 JUMPDEST DUP2 SLOAD DUP2 MSTORE SWAP1 PUSH1 0x1 ADD SWAP1 PUSH1 0x20 ADD DUP1 DUP4 GT PUSH2 0x201A JUMPI DUP3 SWAP1 SUB PUSH1 0x1F AND DUP3 ADD SWAP2 JUMPDEST POP POP POP POP POP SWAP4 POP DUP3 DUP1 SLOAD PUSH1 0x1 DUP2 PUSH1 0x1 AND ISZERO PUSH2 0x100 MUL SUB AND PUSH1 0x2 SWAP1 DIV DUP1 PUSH1 0x1F ADD PUSH1 0x20 DUP1 SWAP2 DIV MUL PUSH1 0x20 ADD PUSH1 0x40 MLOAD SWAP1 DUP2 ADD PUSH1 0x40 MSTORE DUP1 SWAP3 SWAP2 SWAP1 DUP2 DUP2 MSTORE PUSH1 0x20 ADD DUP3 DUP1 SLOAD PUSH1 0x1 DUP2 PUSH1 0x1 AND ISZERO PUSH2 0x100 MUL SUB AND PUSH1 0x2 SWAP1 DIV DUP1 ISZERO PUSH2 0x20D3 JUMPI DUP1 PUSH1 0x1F LT PUSH2 0x20A8 JUMPI PUSH2 0x100 DUP1 DUP4 SLOAD DIV MUL DUP4 MSTORE SWAP2 PUSH1 0x20 ADD SWAP2 PUSH2 0x20D3 JUMP JUMPDEST DUP3 ADD SWAP2 SWAP1 PUSH1 0x0 MSTORE PUSH1 0x20 PUSH1 0x0 KECCAK256 SWAP1 JUMPDEST DUP2 SLOAD DUP2 MSTORE SWAP1 PUSH1 0x1 ADD SWAP1 PUSH1 0x20 ADD DUP1 DUP4 GT PUSH2 0x20B6 JUMPI DUP3 SWAP1 SUB PUSH1 0x1F AND DUP3 ADD SWAP2 JUMPDEST POP POP POP POP POP SWAP3 POP SWAP6 POP SWAP6 POP SWAP6 POP SWAP6 POP SWAP6 POP POP SWAP2 SWAP4 SWAP6 SWAP1 SWAP3 SWAP5 POP JUMP JUMPDEST PUSH1 0x0 PUSH2 0x20F9 DUP3 PUSH2 0x31EB JUMP JUMPDEST SWAP1 POP PUSH1 0x0 PUSH1 0x6 DUP3 DUP2 SLOAD DUP2 LT PUSH2 0x210A JUMPI INVALID JUMPDEST SWAP1 PUSH1 0x0 MSTORE PUSH1 0x20 PUSH1 0x0 KECCAK256 SWAP1 PUSH1 0x3 MUL ADD PUSH1 0x2 ADD PUSH1 0x14 PUSH2 0x100 EXP DUP2 SLOAD DUP2 PUSH1 0xFF MUL NOT AND SWAP1 DUP4 ISZERO ISZERO MUL OR SWAP1 SSTORE POP PUSH32 0x780B3C74EC1E08D8C65FD8A12C6AC2DA5C15F2D3B5E54335B51671F63B7D2AD0 PUSH1 0x6 DUP3 DUP2 SLOAD DUP2 LT PUSH2 0x2160 JUMPI INVALID JUMPDEST SWAP1 PUSH1 0x0 MSTORE PUSH1 0x20 PUSH1 0x0 KECCAK256 SWAP1 PUSH1 0x3 MUL ADD PUSH1 0x0 ADD PUSH1 0x0 SWAP1 SLOAD SWAP1 PUSH2 0x100 EXP SWAP1 DIV PUSH20 0xFFFFFFFFFFFFFFFFFFFFFFFFFFFFFFFFFFFFFFFF AND PUSH1 0x6 DUP4 DUP2 SLOAD DUP2 LT PUSH2 0x219F JUMPI INVALID JUMPDEST SWAP1 PUSH1 0x0 MSTORE PUSH1 0x20 PUSH1 0x0 KECCAK256 SWAP1 PUSH1 0x3 MUL ADD PUSH1 0x1 ADD PUSH1 0x6 DUP5 DUP2 SLOAD DUP2 LT PUSH2 0x21BD JUMPI INVALID JUMPDEST SWAP1 PUSH1 0x0 MSTORE PUSH1 0x20 PUSH1 0x0 KECCAK256 SWAP1 PUSH1 0x3 MUL ADD PUSH1 0x2 ADD PUSH1 0x0 SWAP1 SLOAD SWAP1 PUSH2 0x100 EXP SWAP1 DIV PUSH20 0xFFFFFFFFFFFFFFFFFFFFFFFFFFFFFFFFFFFFFFFF AND PUSH1 0x6 DUP6 DUP2 SLOAD DUP2 LT PUSH2 0x21FC JUMPI INVALID JUMPDEST SWAP1 PUSH1 0x0 MSTORE PUSH1 0x20 PUSH1 0x0 KECCAK256 SWAP1 PUSH1 0x3 MUL ADD PUSH1 0x2 ADD PUSH1 0x14 SWAP1 SLOAD SWAP1 PUSH2 0x100 EXP SWAP1 DIV PUSH1 0xFF AND PUSH1 0x40 MLOAD PUSH2 0x222B SWAP5 SWAP4 SWAP3 SWAP2 SWAP1 PUSH2 0x3FD1 JUMP JUMPDEST PUSH1 0x40 MLOAD DUP1 SWAP2 SUB SWAP1 LOG1 POP POP JUMP JUMPDEST PUSH1 0x0 PUSH1 0x4 DUP1 SLOAD SWAP1 POP SWAP1 POP SWAP1 JUMP JUMPDEST PUSH1 0x4 PUSH1 0x40 MLOAD DUP1 PUSH1 0xC0 ADD PUSH1 0x40 MSTORE DUP1 DUP8 PUSH20 0xFFFFFFFFFFFFFFFFFFFFFFFFFFFFFFFFFFFFFFFF AND DUP2 MSTORE PUSH1 0x20 ADD DUP7 DUP2 MSTORE PUSH1 0x20 ADD DUP6 DUP2 MSTORE PUSH1 0x20 ADD DUP5 DUP2 MSTORE PUSH1 0x20 ADD DUP4 DUP2 MSTORE PUSH1 0x20 ADD PUSH1 0x1 ISZERO ISZERO DUP2 MSTORE POP SWAP1 DUP1 PUSH1 0x1 DUP2 SLOAD ADD DUP1 DUP3 SSTORE DUP1 SWAP2 POP POP PUSH1 0x1 SWAP1 SUB SWAP1 PUSH1 0x0 MSTORE PUSH1 0x20 PUSH1 0x0 KECCAK256 SWAP1 PUSH1 0x6 MUL ADD PUSH1 0x0 SWAP1 SWAP2 SWAP1 SWAP2 SWAP1 SWAP2 POP PUSH1 0x0 DUP3 ADD MLOAD DUP2 PUSH1 0x0 ADD PUSH1 0x0 PUSH2 0x100 EXP DUP2 SLOAD DUP2 PUSH20 0xFFFFFFFFFFFFFFFFFFFFFFFFFFFFFFFFFFFFFFFF MUL NOT AND SWAP1 DUP4 PUSH20 0xFFFFFFFFFFFFFFFFFFFFFFFFFFFFFFFFFFFFFFFF AND MUL OR SWAP1 SSTORE POP PUSH1 0x20 DUP3 ADD MLOAD DUP2 PUSH1 0x1 ADD SWAP1 DUP1 MLOAD SWAP1 PUSH1 0x20 ADD SWAP1 PUSH2 0x2318 SWAP3 SWAP2 SWAP1 PUSH2 0x33A7 JUMP JUMPDEST POP PUSH1 0x40 DUP3 ADD MLOAD DUP2 PUSH1 0x2 ADD SWAP1 DUP1 MLOAD SWAP1 PUSH1 0x20 ADD SWAP1 PUSH2 0x2335 SWAP3 SWAP2 SWAP1 PUSH2 0x33A7 JUMP JUMPDEST POP PUSH1 0x60 DUP3 ADD MLOAD DUP2 PUSH1 0x3 ADD SWAP1 DUP1 MLOAD SWAP1 PUSH1 0x20 ADD SWAP1 PUSH2 0x2352 SWAP3 SWAP2 SWAP1 PUSH2 0x33A7 JUMP JUMPDEST POP PUSH1 0x80 DUP3 ADD MLOAD DUP2 PUSH1 0x4 ADD SSTORE PUSH1 0xA0 DUP3 ADD MLOAD DUP2 PUSH1 0x5 ADD PUSH1 0x0 PUSH2 0x100 EXP DUP2 SLOAD DUP2 PUSH1 0xFF MUL NOT AND SWAP1 DUP4 ISZERO ISZERO MUL OR SWAP1 SSTORE POP POP POP PUSH32 0xF646212ACC3F5092FB0211FFD5121C0F706641B715E3982DAB50AFB395413DD5 DUP6 DUP6 DUP6 DUP6 DUP6 PUSH1 0x1 PUSH1 0x40 MLOAD PUSH2 0x23B9 SWAP7 SWAP6 SWAP5 SWAP4 SWAP3 SWAP2 SWAP1 PUSH2 0x3F5B JUMP JUMPDEST PUSH1 0x40 MLOAD DUP1 SWAP2 SUB SWAP1 LOG1 POP POP POP POP POP JUMP JUMPDEST PUSH1 0x3 PUSH1 0x20 MSTORE DUP1 PUSH1 0x0 MSTORE PUSH1 0x40 PUSH1 0x0 KECCAK256 PUSH1 0x0 SWAP2 POP SWAP1 POP DUP1 PUSH1 0x0 ADD PUSH1 0x0 SWAP1 SLOAD SWAP1 PUSH2 0x100 EXP SWAP1 DIV PUSH20 0xFFFFFFFFFFFFFFFFFFFFFFFFFFFFFFFFFFFFFFFF AND SWAP1 DUP1 PUSH1 0x1 ADD DUP1 SLOAD PUSH1 0x1 DUP2 PUSH1 0x1 AND ISZERO PUSH2 0x100 MUL SUB AND PUSH1 0x2 SWAP1 DIV DUP1 PUSH1 0x1F ADD PUSH1 0x20 DUP1 SWAP2 DIV MUL PUSH1 0x20 ADD PUSH1 0x40 MLOAD SWAP1 DUP2 ADD PUSH1 0x40 MSTORE DUP1 SWAP3 SWAP2 SWAP1 DUP2 DUP2 MSTORE PUSH1 0x20 ADD DUP3 DUP1 SLOAD PUSH1 0x1 DUP2 PUSH1 0x1 AND ISZERO PUSH2 0x100 MUL SUB AND PUSH1 0x2 SWAP1 DIV DUP1 ISZERO PUSH2 0x249A JUMPI DUP1 PUSH1 0x1F LT PUSH2 0x246F JUMPI PUSH2 0x100 DUP1 DUP4 SLOAD DIV MUL DUP4 MSTORE SWAP2 PUSH1 0x20 ADD SWAP2 PUSH2 0x249A JUMP JUMPDEST DUP3 ADD SWAP2 SWAP1 PUSH1 0x0 MSTORE PUSH1 0x20 PUSH1 0x0 KECCAK256 SWAP1 JUMPDEST DUP2 SLOAD DUP2 MSTORE SWAP1 PUSH1 0x1 ADD SWAP1 PUSH1 0x20 ADD DUP1 DUP4 GT PUSH2 0x247D JUMPI DUP3 SWAP1 SUB PUSH1 0x1F AND DUP3 ADD SWAP2 JUMPDEST POP POP POP POP POP SWAP1 DUP1 PUSH1 0x2 ADD DUP1 SLOAD PUSH1 0x1 DUP2 PUSH1 0x1 AND ISZERO PUSH2 0x100 MUL SUB AND PUSH1 0x2 SWAP1 DIV DUP1 PUSH1 0x1F ADD PUSH1 0x20 DUP1 SWAP2 DIV MUL PUSH1 0x20 ADD PUSH1 0x40 MLOAD SWAP1 DUP2 ADD PUSH1 0x40 MSTORE DUP1 SWAP3 SWAP2 SWAP1 DUP2 DUP2 MSTORE PUSH1 0x20 ADD DUP3 DUP1 SLOAD PUSH1 0x1 DUP2 PUSH1 0x1 AND ISZERO PUSH2 0x100 MUL SUB AND PUSH1 0x2 SWAP1 DIV DUP1 ISZERO PUSH2 0x2538 JUMPI DUP1 PUSH1 0x1F LT PUSH2 0x250D JUMPI PUSH2 0x100 DUP1 DUP4 SLOAD DIV MUL DUP4 MSTORE SWAP2 PUSH1 0x20 ADD SWAP2 PUSH2 0x2538 JUMP JUMPDEST DUP3 ADD SWAP2 SWAP1 PUSH1 0x0 MSTORE PUSH1 0x20 PUSH1 0x0 KECCAK256 SWAP1 JUMPDEST DUP2 SLOAD DUP2 MSTORE SWAP1 PUSH1 0x1 ADD SWAP1 PUSH1 0x20 ADD DUP1 DUP4 GT PUSH2 0x251B JUMPI DUP3 SWAP1 SUB PUSH1 0x1F AND DUP3 ADD SWAP2 JUMPDEST POP POP POP POP POP SWAP1 DUP1 PUSH1 0x3 ADD DUP1 SLOAD PUSH1 0x1 DUP2 PUSH1 0x1 AND ISZERO PUSH2 0x100 MUL SUB AND PUSH1 0x2 SWAP1 DIV DUP1 PUSH1 0x1F ADD PUSH1 0x20 DUP1 SWAP2 DIV MUL PUSH1 0x20 ADD PUSH1 0x40 MLOAD SWAP1 DUP2 ADD PUSH1 0x40 MSTORE DUP1 SWAP3 SWAP2 SWAP1 DUP2 DUP2 MSTORE PUSH1 0x20 ADD DUP3 DUP1 SLOAD PUSH1 0x1 DUP2 PUSH1 0x1 AND ISZERO PUSH2 0x100 MUL SUB AND PUSH1 0x2 SWAP1 DIV DUP1 ISZERO PUSH2 0x25D6 JUMPI DUP1 PUSH1 0x1F LT PUSH2 0x25AB JUMPI PUSH2 0x100 DUP1 DUP4 SLOAD DIV MUL DUP4 MSTORE SWAP2 PUSH1 0x20 ADD SWAP2 PUSH2 0x25D6 JUMP JUMPDEST DUP3 ADD SWAP2 SWAP1 PUSH1 0x0 MSTORE PUSH1 0x20 PUSH1 0x0 KECCAK256 SWAP1 JUMPDEST DUP2 SLOAD DUP2 MSTORE SWAP1 PUSH1 0x1 ADD SWAP1 PUSH1 0x20 ADD DUP1 DUP4 GT PUSH2 0x25B9 JUMPI DUP3 SWAP1 SUB PUSH1 0x1F AND DUP3 ADD SWAP2 JUMPDEST POP POP POP POP POP SWAP1 DUP1 PUSH1 0x4 ADD SLOAD SWAP1 DUP1 PUSH1 0x5 ADD PUSH1 0x0 SWAP1 SLOAD SWAP1 PUSH2 0x100 EXP SWAP1 DIV PUSH1 0xFF AND SWAP1 POP DUP7 JUMP JUMPDEST PUSH1 0x0 PUSH1 0x8 DUP1 SLOAD SWAP1 POP SWAP1 POP SWAP1 JUMP JUMPDEST PUSH1 0x60 PUSH1 0x0 PUSH1 0x6 DUP1 SLOAD SWAP1 POP PUSH8 0xFFFFFFFFFFFFFFFF DUP2 GT DUP1 ISZERO PUSH2 0x2626 JUMPI PUSH1 0x0 DUP1 REVERT JUMPDEST POP PUSH1 0x40 MLOAD SWAP1 DUP1 DUP3 MSTORE DUP1 PUSH1 0x20 MUL PUSH1 0x20 ADD DUP3 ADD PUSH1 0x40 MSTORE DUP1 ISZERO PUSH2 0x2660 JUMPI DUP2 PUSH1 0x20 ADD JUMPDEST PUSH2 0x264D PUSH2 0x34CA JUMP JUMPDEST DUP2 MSTORE PUSH1 0x20 ADD SWAP1 PUSH1 0x1 SWAP1 SUB SWAP1 DUP2 PUSH2 0x2645 JUMPI SWAP1 POP JUMPDEST POP SWAP1 POP PUSH1 0x0 JUMPDEST PUSH1 0x6 DUP1 SLOAD SWAP1 POP DUP2 LT ISZERO PUSH2 0x2899 JUMPI PUSH1 0x6 DUP2 DUP2 SLOAD DUP2 LT PUSH2 0x2680 JUMPI INVALID JUMPDEST SWAP1 PUSH1 0x0 MSTORE PUSH1 0x20 PUSH1 0x0 KECCAK256 SWAP1 PUSH1 0x3 MUL ADD PUSH1 0x2 ADD PUSH1 0x0 SWAP1 SLOAD SWAP1 PUSH2 0x100 EXP SWAP1 DIV PUSH20 0xFFFFFFFFFFFFFFFFFFFFFFFFFFFFFFFFFFFFFFFF AND PUSH20 0xFFFFFFFFFFFFFFFFFFFFFFFFFFFFFFFFFFFFFFFF AND DUP5 PUSH20 0xFFFFFFFFFFFFFFFFFFFFFFFFFFFFFFFFFFFFFFFF AND EQ ISZERO PUSH2 0x288C JUMPI PUSH1 0x6 DUP2 DUP2 SLOAD DUP2 LT PUSH2 0x26F2 JUMPI INVALID JUMPDEST SWAP1 PUSH1 0x0 MSTORE PUSH1 0x20 PUSH1 0x0 KECCAK256 SWAP1 PUSH1 0x3 MUL ADD PUSH1 0x40 MLOAD DUP1 PUSH1 0x80 ADD PUSH1 0x40 MSTORE SWAP1 DUP2 PUSH1 0x0 DUP3 ADD PUSH1 0x0 SWAP1 SLOAD SWAP1 PUSH2 0x100 EXP SWAP1 DIV PUSH20 0xFFFFFFFFFFFFFFFFFFFFFFFFFFFFFFFFFFFFFFFF AND PUSH20 0xFFFFFFFFFFFFFFFFFFFFFFFFFFFFFFFFFFFFFFFF AND PUSH20 0xFFFFFFFFFFFFFFFFFFFFFFFFFFFFFFFFFFFFFFFF AND DUP2 MSTORE PUSH1 0x20 ADD PUSH1 0x1 DUP3 ADD DUP1 SLOAD PUSH1 0x1 DUP2 PUSH1 0x1 AND ISZERO PUSH2 0x100 MUL SUB AND PUSH1 0x2 SWAP1 DIV DUP1 PUSH1 0x1F ADD PUSH1 0x20 DUP1 SWAP2 DIV MUL PUSH1 0x20 ADD PUSH1 0x40 MLOAD SWAP1 DUP2 ADD PUSH1 0x40 MSTORE DUP1 SWAP3 SWAP2 SWAP1 DUP2 DUP2 MSTORE PUSH1 0x20 ADD DUP3 DUP1 SLOAD PUSH1 0x1 DUP2 PUSH1 0x1 AND ISZERO PUSH2 0x100 MUL SUB AND PUSH1 0x2 SWAP1 DIV DUP1 ISZERO PUSH2 0x27FA JUMPI DUP1 PUSH1 0x1F LT PUSH2 0x27CF JUMPI PUSH2 0x100 DUP1 DUP4 SLOAD DIV MUL DUP4 MSTORE SWAP2 PUSH1 0x20 ADD SWAP2 PUSH2 0x27FA JUMP JUMPDEST DUP3 ADD SWAP2 SWAP1 PUSH1 0x0 MSTORE PUSH1 0x20 PUSH1 0x0 KECCAK256 SWAP1 JUMPDEST DUP2 SLOAD DUP2 MSTORE SWAP1 PUSH1 0x1 ADD SWAP1 PUSH1 0x20 ADD DUP1 DUP4 GT PUSH2 0x27DD JUMPI DUP3 SWAP1 SUB PUSH1 0x1F AND DUP3 ADD SWAP2 JUMPDEST POP POP POP POP POP DUP2 MSTORE PUSH1 0x20 ADD PUSH1 0x2 DUP3 ADD PUSH1 0x0 SWAP1 SLOAD SWAP1 PUSH2 0x100 EXP SWAP1 DIV PUSH20 0xFFFFFFFFFFFFFFFFFFFFFFFFFFFFFFFFFFFFFFFF AND PUSH20 0xFFFFFFFFFFFFFFFFFFFFFFFFFFFFFFFFFFFFFFFF AND PUSH20 0xFFFFFFFFFFFFFFFFFFFFFFFFFFFFFFFFFFFFFFFF AND DUP2 MSTORE PUSH1 0x20 ADD PUSH1 0x2 DUP3 ADD PUSH1 0x14 SWAP1 SLOAD SWAP1 PUSH2 0x100 EXP SWAP1 DIV PUSH1 0xFF AND ISZERO ISZERO ISZERO ISZERO DUP2 MSTORE POP POP DUP3 DUP3 DUP2 MLOAD DUP2 LT PUSH2 0x2880 JUMPI INVALID JUMPDEST PUSH1 0x20 MUL PUSH1 0x20 ADD ADD DUP2 SWAP1 MSTORE POP JUMPDEST DUP1 DUP1 PUSH1 0x1 ADD SWAP2 POP POP PUSH2 0x2666 JUMP JUMPDEST POP DUP1 SWAP2 POP POP SWAP2 SWAP1 POP JUMP JUMPDEST PUSH1 0x4 DUP2 DUP2 SLOAD DUP2 LT PUSH2 0x28B3 JUMPI PUSH1 0x0 DUP1 REVERT JUMPDEST SWAP1 PUSH1 0x0 MSTORE PUSH1 0x20 PUSH1 0x0 KECCAK256 SWAP1 PUSH1 0x6 MUL ADD PUSH1 0x0 SWAP2 POP SWAP1 POP DUP1 PUSH1 0x0 ADD PUSH1 0x0 SWAP1 SLOAD SWAP1 PUSH2 0x100 EXP SWAP1 DIV PUSH20 0xFFFFFFFFFFFFFFFFFFFFFFFFFFFFFFFFFFFFFFFF AND SWAP1 DUP1 PUSH1 0x1 ADD DUP1 SLOAD PUSH1 0x1 DUP2 PUSH1 0x1 AND ISZERO PUSH2 0x100 MUL SUB AND PUSH1 0x2 SWAP1 DIV DUP1 PUSH1 0x1F ADD PUSH1 0x20 DUP1 SWAP2 DIV MUL PUSH1 0x20 ADD PUSH1 0x40 MLOAD SWAP1 DUP2 ADD PUSH1 0x40 MSTORE DUP1 SWAP3 SWAP2 SWAP1 DUP2 DUP2 MSTORE PUSH1 0x20 ADD DUP3 DUP1 SLOAD PUSH1 0x1 DUP2 PUSH1 0x1 AND ISZERO PUSH2 0x100 MUL SUB AND PUSH1 0x2 SWAP1 DIV DUP1 ISZERO PUSH2 0x2985 JUMPI DUP1 PUSH1 0x1F LT PUSH2 0x295A JUMPI PUSH2 0x100 DUP1 DUP4 SLOAD DIV MUL DUP4 MSTORE SWAP2 PUSH1 0x20 ADD SWAP2 PUSH2 0x2985 JUMP JUMPDEST DUP3 ADD SWAP2 SWAP1 PUSH1 0x0 MSTORE PUSH1 0x20 PUSH1 0x0 KECCAK256 SWAP1 JUMPDEST DUP2 SLOAD DUP2 MSTORE SWAP1 PUSH1 0x1 ADD SWAP1 PUSH1 0x20 ADD DUP1 DUP4 GT PUSH2 0x2968 JUMPI DUP3 SWAP1 SUB PUSH1 0x1F AND DUP3 ADD SWAP2 JUMPDEST POP POP POP POP POP SWAP1 DUP1 PUSH1 0x2 ADD DUP1 SLOAD PUSH1 0x1 DUP2 PUSH1 0x1 AND ISZERO PUSH2 0x100 MUL SUB AND PUSH1 0x2 SWAP1 DIV DUP1 PUSH1 0x1F ADD PUSH1 0x20 DUP1 SWAP2 DIV MUL PUSH1 0x20 ADD PUSH1 0x40 MLOAD SWAP1 DUP2 ADD PUSH1 0x40 MSTORE DUP1 SWAP3 SWAP2 SWAP1 DUP2 DUP2 MSTORE PUSH1 0x20 ADD DUP3 DUP1 SLOAD PUSH1 0x1 DUP2 PUSH1 0x1 AND ISZERO PUSH2 0x100 MUL SUB AND PUSH1 0x2 SWAP1 DIV DUP1 ISZERO PUSH2 0x2A23 JUMPI DUP1 PUSH1 0x1F LT PUSH2 0x29F8 JUMPI PUSH2 0x100 DUP1 DUP4 SLOAD DIV MUL DUP4 MSTORE SWAP2 PUSH1 0x20 ADD SWAP2 PUSH2 0x2A23 JUMP JUMPDEST DUP3 ADD SWAP2 SWAP1 PUSH1 0x0 MSTORE PUSH1 0x20 PUSH1 0x0 KECCAK256 SWAP1 JUMPDEST DUP2 SLOAD DUP2 MSTORE SWAP1 PUSH1 0x1 ADD SWAP1 PUSH1 0x20 ADD DUP1 DUP4 GT PUSH2 0x2A06 JUMPI DUP3 SWAP1 SUB PUSH1 0x1F AND DUP3 ADD SWAP2 JUMPDEST POP POP POP POP POP SWAP1 DUP1 PUSH1 0x3 ADD DUP1 SLOAD PUSH1 0x1 DUP2 PUSH1 0x1 AND ISZERO PUSH2 0x100 MUL SUB AND PUSH1 0x2 SWAP1 DIV DUP1 PUSH1 0x1F ADD PUSH1 0x20 DUP1 SWAP2 DIV MUL PUSH1 0x20 ADD PUSH1 0x40 MLOAD SWAP1 DUP2 ADD PUSH1 0x40 MSTORE DUP1 SWAP3 SWAP2 SWAP1 DUP2 DUP2 MSTORE PUSH1 0x20 ADD DUP3 DUP1 SLOAD PUSH1 0x1 DUP2 PUSH1 0x1 AND ISZERO PUSH2 0x100 MUL SUB AND PUSH1 0x2 SWAP1 DIV DUP1 ISZERO PUSH2 0x2AC1 JUMPI DUP1 PUSH1 0x1F LT PUSH2 0x2A96 JUMPI PUSH2 0x100 DUP1 DUP4 SLOAD DIV MUL DUP4 MSTORE SWAP2 PUSH1 0x20 ADD SWAP2 PUSH2 0x2AC1 JUMP JUMPDEST DUP3 ADD SWAP2 SWAP1 PUSH1 0x0 MSTORE PUSH1 0x20 PUSH1 0x0 KECCAK256 SWAP1 JUMPDEST DUP2 SLOAD DUP2 MSTORE SWAP1 PUSH1 0x1 ADD SWAP1 PUSH1 0x20 ADD DUP1 DUP4 GT PUSH2 0x2AA4 JUMPI DUP3 SWAP1 SUB PUSH1 0x1F AND DUP3 ADD SWAP2 JUMPDEST POP POP POP POP POP SWAP1 DUP1 PUSH1 0x4 ADD SLOAD SWAP1 DUP1 PUSH1 0x5 ADD PUSH1 0x0 SWAP1 SLOAD SWAP1 PUSH2 0x100 EXP SWAP1 DIV PUSH1 0xFF AND SWAP1 POP DUP7 JUMP JUMPDEST PUSH1 0x5 PUSH1 0x20 MSTORE DUP1 PUSH1 0x0 MSTORE PUSH1 0x40 PUSH1 0x0 KECCAK256 PUSH1 0x0 SWAP2 POP SWAP1 POP DUP1 PUSH1 0x0 ADD PUSH1 0x0 SWAP1 SLOAD SWAP1 PUSH2 0x100 EXP SWAP1 DIV PUSH20 0xFFFFFFFFFFFFFFFFFFFFFFFFFFFFFFFFFFFFFFFF AND SWAP1 DUP1 PUSH1 0x1 ADD DUP1 SLOAD PUSH1 0x1 DUP2 PUSH1 0x1 AND ISZERO PUSH2 0x100 MUL SUB AND PUSH1 0x2 SWAP1 DIV DUP1 PUSH1 0x1F ADD PUSH1 0x20 DUP1 SWAP2 DIV MUL PUSH1 0x20 ADD PUSH1 0x40 MLOAD SWAP1 DUP2 ADD PUSH1 0x40 MSTORE DUP1 SWAP3 SWAP2 SWAP1 DUP2 DUP2 MSTORE PUSH1 0x20 ADD DUP3 DUP1 SLOAD PUSH1 0x1 DUP2 PUSH1 0x1 AND ISZERO PUSH2 0x100 MUL SUB AND PUSH1 0x2 SWAP1 DIV DUP1 ISZERO PUSH2 0x2BB6 JUMPI DUP1 PUSH1 0x1F LT PUSH2 0x2B8B JUMPI PUSH2 0x100 DUP1 DUP4 SLOAD DIV MUL DUP4 MSTORE SWAP2 PUSH1 0x20 ADD SWAP2 PUSH2 0x2BB6 JUMP JUMPDEST DUP3 ADD SWAP2 SWAP1 PUSH1 0x0 MSTORE PUSH1 0x20 PUSH1 0x0 KECCAK256 SWAP1 JUMPDEST DUP2 SLOAD DUP2 MSTORE SWAP1 PUSH1 0x1 ADD SWAP1 PUSH1 0x20 ADD DUP1 DUP4 GT PUSH2 0x2B99 JUMPI DUP3 SWAP1 SUB PUSH1 0x1F AND DUP3 ADD SWAP2 JUMPDEST POP POP POP POP POP SWAP1 DUP1 PUSH1 0x2 ADD PUSH1 0x0 SWAP1 SLOAD SWAP1 PUSH2 0x100 EXP SWAP1 DIV PUSH20 0xFFFFFFFFFFFFFFFFFFFFFFFFFFFFFFFFFFFFFFFF AND SWAP1 DUP1 PUSH1 0x2 ADD PUSH1 0x14 SWAP1 SLOAD SWAP1 PUSH2 0x100 EXP SWAP1 DIV PUSH1 0xFF AND SWAP1 POP DUP5 JUMP JUMPDEST PUSH2 0x2C02 DUP2 PUSH2 0x32C9 JUMP JUMPDEST POP PUSH1 0x6 PUSH1 0x40 MLOAD DUP1 PUSH1 0x80 ADD PUSH1 0x40 MSTORE DUP1 DUP6 PUSH20 0xFFFFFFFFFFFFFFFFFFFFFFFFFFFFFFFFFFFFFFFF AND DUP2 MSTORE PUSH1 0x20 ADD DUP5 DUP2 MSTORE PUSH1 0x20 ADD DUP4 PUSH20 0xFFFFFFFFFFFFFFFFFFFFFFFFFFFFFFFFFFFFFFFF AND DUP2 MSTORE PUSH1 0x20 ADD PUSH1 0x1 ISZERO ISZERO DUP2 MSTORE POP SWAP1 DUP1 PUSH1 0x1 DUP2 SLOAD ADD DUP1 DUP3 SSTORE DUP1 SWAP2 POP POP PUSH1 0x1 SWAP1 SUB SWAP1 PUSH1 0x0 MSTORE PUSH1 0x20 PUSH1 0x0 KECCAK256 SWAP1 PUSH1 0x3 MUL ADD PUSH1 0x0 SWAP1 SWAP2 SWAP1 SWAP2 SWAP1 SWAP2 POP PUSH1 0x0 DUP3 ADD MLOAD DUP2 PUSH1 0x0 ADD PUSH1 0x0 PUSH2 0x100 EXP DUP2 SLOAD DUP2 PUSH20 0xFFFFFFFFFFFFFFFFFFFFFFFFFFFFFFFFFFFFFFFF MUL NOT AND SWAP1 DUP4 PUSH20 0xFFFFFFFFFFFFFFFFFFFFFFFFFFFFFFFFFFFFFFFF AND MUL OR SWAP1 SSTORE POP PUSH1 0x20 DUP3 ADD MLOAD DUP2 PUSH1 0x1 ADD SWAP1 DUP1 MLOAD SWAP1 PUSH1 0x20 ADD SWAP1 PUSH2 0x2CE1 SWAP3 SWAP2 SWAP1 PUSH2 0x33A7 JUMP JUMPDEST POP PUSH1 0x40 DUP3 ADD MLOAD DUP2 PUSH1 0x2 ADD PUSH1 0x0 PUSH2 0x100 EXP DUP2 SLOAD DUP2 PUSH20 0xFFFFFFFFFFFFFFFFFFFFFFFFFFFFFFFFFFFFFFFF MUL NOT AND SWAP1 DUP4 PUSH20 0xFFFFFFFFFFFFFFFFFFFFFFFFFFFFFFFFFFFFFFFF AND MUL OR SWAP1 SSTORE POP PUSH1 0x60 DUP3 ADD MLOAD DUP2 PUSH1 0x2 ADD PUSH1 0x14 PUSH2 0x100 EXP DUP2 SLOAD DUP2 PUSH1 0xFF MUL NOT AND SWAP1 DUP4 ISZERO ISZERO MUL OR SWAP1 SSTORE POP POP POP PUSH32 0x4578695497AF1A3A1F556F9C89F9F107851CB8E1820E4B336143406B9BA52E3B DUP4 DUP4 DUP4 PUSH1 0x1 PUSH1 0x40 MLOAD PUSH2 0x2D81 SWAP5 SWAP4 SWAP3 SWAP2 SWAP1 PUSH2 0x3F0F JUMP JUMPDEST PUSH1 0x40 MLOAD DUP1 SWAP2 SUB SWAP1 LOG1 POP POP POP JUMP JUMPDEST PUSH1 0x8 DUP2 DUP2 SLOAD DUP2 LT PUSH2 0x2D9E JUMPI PUSH1 0x0 DUP1 REVERT JUMPDEST SWAP1 PUSH1 0x0 MSTORE PUSH1 0x20 PUSH1 0x0 KECCAK256 SWAP1 PUSH1 0x4 MUL ADD PUSH1 0x0 SWAP2 POP SWAP1 POP DUP1 PUSH1 0x0 ADD SLOAD SWAP1 DUP1 PUSH1 0x1 ADD DUP1 SLOAD PUSH1 0x1 DUP2 PUSH1 0x1 AND ISZERO PUSH2 0x100 MUL SUB AND PUSH1 0x2 SWAP1 DIV DUP1 PUSH1 0x1F ADD PUSH1 0x20 DUP1 SWAP2 DIV MUL PUSH1 0x20 ADD PUSH1 0x40 MLOAD SWAP1 DUP2 ADD PUSH1 0x40 MSTORE DUP1 SWAP3 SWAP2 SWAP1 DUP2 DUP2 MSTORE PUSH1 0x20 ADD DUP3 DUP1 SLOAD PUSH1 0x1 DUP2 PUSH1 0x1 AND ISZERO PUSH2 0x100 MUL SUB AND PUSH1 0x2 SWAP1 DIV DUP1 ISZERO PUSH2 0x2E50 JUMPI DUP1 PUSH1 0x1F LT PUSH2 0x2E25 JUMPI PUSH2 0x100 DUP1 DUP4 SLOAD DIV MUL DUP4 MSTORE SWAP2 PUSH1 0x20 ADD SWAP2 PUSH2 0x2E50 JUMP JUMPDEST DUP3 ADD SWAP2 SWAP1 PUSH1 0x0 MSTORE PUSH1 0x20 PUSH1 0x0 KECCAK256 SWAP1 JUMPDEST DUP2 SLOAD DUP2 MSTORE SWAP1 PUSH1 0x1 ADD SWAP1 PUSH1 0x20 ADD DUP1 DUP4 GT PUSH2 0x2E33 JUMPI DUP3 SWAP1 SUB PUSH1 0x1F AND DUP3 ADD SWAP2 JUMPDEST POP POP POP POP POP SWAP1 DUP1 PUSH1 0x2 ADD DUP1 SLOAD PUSH1 0x1 DUP2 PUSH1 0x1 AND ISZERO PUSH2 0x100 MUL SUB AND PUSH1 0x2 SWAP1 DIV DUP1 PUSH1 0x1F ADD PUSH1 0x20 DUP1 SWAP2 DIV MUL PUSH1 0x20 ADD PUSH1 0x40 MLOAD SWAP1 DUP2 ADD PUSH1 0x40 MSTORE DUP1 SWAP3 SWAP2 SWAP1 DUP2 DUP2 MSTORE PUSH1 0x20 ADD DUP3 DUP1 SLOAD PUSH1 0x1 DUP2 PUSH1 0x1 AND ISZERO PUSH2 0x100 MUL SUB AND PUSH1 0x2 SWAP1 DIV DUP1 ISZERO PUSH2 0x2EEE JUMPI DUP1 PUSH1 0x1F LT PUSH2 0x2EC3 JUMPI PUSH2 0x100 DUP1 DUP4 SLOAD DIV MUL DUP4 MSTORE SWAP2 PUSH1 0x20 ADD SWAP2 PUSH2 0x2EEE JUMP JUMPDEST DUP3 ADD SWAP2 SWAP1 PUSH1 0x0 MSTORE PUSH1 0x20 PUSH1 0x0 KECCAK256 SWAP1 JUMPDEST DUP2 SLOAD DUP2 MSTORE SWAP1 PUSH1 0x1 ADD SWAP1 PUSH1 0x20 ADD DUP1 DUP4 GT PUSH2 0x2ED1 JUMPI DUP3 SWAP1 SUB PUSH1 0x1F AND DUP3 ADD SWAP2 JUMPDEST POP POP POP POP POP SWAP1 DUP1 PUSH1 0x3 ADD PUSH1 0x0 SWAP1 SLOAD SWAP1 PUSH2 0x100 EXP SWAP1 DIV PUSH20 0xFFFFFFFFFFFFFFFFFFFFFFFFFFFFFFFFFFFFFFFF AND SWAP1 DUP1 PUSH1 0x3 ADD PUSH1 0x14 SWAP1 SLOAD SWAP1 PUSH2 0x100 EXP SWAP1 DIV PUSH1 0xFF AND SWAP1 POP DUP6 JUMP JUMPDEST PUSH1 0x60 PUSH1 0x0 PUSH1 0x6 DUP1 SLOAD SWAP1 POP PUSH8 0xFFFFFFFFFFFFFFFF DUP2 GT DUP1 ISZERO PUSH2 0x2F51 JUMPI PUSH1 0x0 DUP1 REVERT JUMPDEST POP PUSH1 0x40 MLOAD SWAP1 DUP1 DUP3 MSTORE DUP1 PUSH1 0x20 MUL PUSH1 0x20 ADD DUP3 ADD PUSH1 0x40 MSTORE DUP1 ISZERO PUSH2 0x2F8B JUMPI DUP2 PUSH1 0x20 ADD JUMPDEST PUSH2 0x2F78 PUSH2 0x34CA JUMP JUMPDEST DUP2 MSTORE PUSH1 0x20 ADD SWAP1 PUSH1 0x1 SWAP1 SUB SWAP1 DUP2 PUSH2 0x2F70 JUMPI SWAP1 POP JUMPDEST POP SWAP1 POP PUSH1 0x0 JUMPDEST PUSH1 0x6 DUP1 SLOAD SWAP1 POP DUP2 LT ISZERO PUSH2 0x3151 JUMPI PUSH1 0x6 DUP2 DUP2 SLOAD DUP2 LT PUSH2 0x2FAB JUMPI INVALID JUMPDEST SWAP1 PUSH1 0x0 MSTORE PUSH1 0x20 PUSH1 0x0 KECCAK256 SWAP1 PUSH1 0x3 MUL ADD PUSH1 0x40 MLOAD DUP1 PUSH1 0x80 ADD PUSH1 0x40 MSTORE SWAP1 DUP2 PUSH1 0x0 DUP3 ADD PUSH1 0x0 SWAP1 SLOAD SWAP1 PUSH2 0x100 EXP SWAP1 DIV PUSH20 0xFFFFFFFFFFFFFFFFFFFFFFFFFFFFFFFFFFFFFFFF AND PUSH20 0xFFFFFFFFFFFFFFFFFFFFFFFFFFFFFFFFFFFFFFFF AND PUSH20 0xFFFFFFFFFFFFFFFFFFFFFFFFFFFFFFFFFFFFFFFF AND DUP2 MSTORE PUSH1 0x20 ADD PUSH1 0x1 DUP3 ADD DUP1 SLOAD PUSH1 0x1 DUP2 PUSH1 0x1 AND ISZERO PUSH2 0x100 MUL SUB AND PUSH1 0x2 SWAP1 DIV DUP1 PUSH1 0x1F ADD PUSH1 0x20 DUP1 SWAP2 DIV MUL PUSH1 0x20 ADD PUSH1 0x40 MLOAD SWAP1 DUP2 ADD PUSH1 0x40 MSTORE DUP1 SWAP3 SWAP2 SWAP1 DUP2 DUP2 MSTORE PUSH1 0x20 ADD DUP3 DUP1 SLOAD PUSH1 0x1 DUP2 PUSH1 0x1 AND ISZERO PUSH2 0x100 MUL SUB AND PUSH1 0x2 SWAP1 DIV DUP1 ISZERO PUSH2 0x30B3 JUMPI DUP1 PUSH1 0x1F LT PUSH2 0x3088 JUMPI PUSH2 0x100 DUP1 DUP4 SLOAD DIV MUL DUP4 MSTORE SWAP2 PUSH1 0x20 ADD SWAP2 PUSH2 0x30B3 JUMP JUMPDEST DUP3 ADD SWAP2 SWAP1 PUSH1 0x0 MSTORE PUSH1 0x20 PUSH1 0x0 KECCAK256 SWAP1 JUMPDEST DUP2 SLOAD DUP2 MSTORE SWAP1 PUSH1 0x1 ADD SWAP1 PUSH1 0x20 ADD DUP1 DUP4 GT PUSH2 0x3096 JUMPI DUP3 SWAP1 SUB PUSH1 0x1F AND DUP3 ADD SWAP2 JUMPDEST POP POP POP POP POP DUP2 MSTORE PUSH1 0x20 ADD PUSH1 0x2 DUP3 ADD PUSH1 0x0 SWAP1 SLOAD SWAP1 PUSH2 0x100 EXP SWAP1 DIV PUSH20 0xFFFFFFFFFFFFFFFFFFFFFFFFFFFFFFFFFFFFFFFF AND PUSH20 0xFFFFFFFFFFFFFFFFFFFFFFFFFFFFFFFFFFFFFFFF AND PUSH20 0xFFFFFFFFFFFFFFFFFFFFFFFFFFFFFFFFFFFFFFFF AND DUP2 MSTORE PUSH1 0x20 ADD PUSH1 0x2 DUP3 ADD PUSH1 0x14 SWAP1 SLOAD SWAP1 PUSH2 0x100 EXP SWAP1 DIV PUSH1 0xFF AND ISZERO ISZERO ISZERO ISZERO DUP2 MSTORE POP POP DUP3 DUP3 DUP2 MLOAD DUP2 LT PUSH2 0x3139 JUMPI INVALID JUMPDEST PUSH1 0x20 MUL PUSH1 0x20 ADD ADD DUP2 SWAP1 MSTORE POP DUP1 DUP1 PUSH1 0x1 ADD SWAP2 POP POP PUSH2 0x2F91 JUMP JUMPDEST POP DUP1 SWAP2 POP POP SWAP1 JUMP JUMPDEST PUSH1 0x0 DUP1 PUSH1 0x0 SWAP1 POP JUMPDEST PUSH1 0x8 DUP1 SLOAD SWAP1 POP DUP2 LT ISZERO PUSH2 0x31AA JUMPI DUP3 PUSH1 0x8 DUP3 DUP2 SLOAD DUP2 LT PUSH2 0x317C JUMPI INVALID JUMPDEST SWAP1 PUSH1 0x0 MSTORE PUSH1 0x20 PUSH1 0x0 KECCAK256 SWAP1 PUSH1 0x4 MUL ADD PUSH1 0x0 ADD SLOAD EQ ISZERO PUSH2 0x319D JUMPI DUP1 SWAP2 POP POP PUSH2 0x31E6 JUMP JUMPDEST DUP1 DUP1 PUSH1 0x1 ADD SWAP2 POP POP PUSH2 0x3161 JUMP JUMPDEST POP PUSH1 0x40 MLOAD PUSH32 0x8C379A000000000000000000000000000000000000000000000000000000000 DUP2 MSTORE PUSH1 0x4 ADD PUSH2 0x31DD SWAP1 PUSH2 0x4212 JUMP JUMPDEST PUSH1 0x40 MLOAD DUP1 SWAP2 SUB SWAP1 REVERT JUMPDEST SWAP2 SWAP1 POP JUMP JUMPDEST PUSH1 0x0 DUP1 PUSH1 0x0 SWAP1 POP JUMPDEST PUSH1 0x6 DUP1 SLOAD SWAP1 POP DUP2 LT ISZERO PUSH2 0x3288 JUMPI DUP3 PUSH20 0xFFFFFFFFFFFFFFFFFFFFFFFFFFFFFFFFFFFFFFFF AND PUSH1 0x6 DUP3 DUP2 SLOAD DUP2 LT PUSH2 0x3224 JUMPI INVALID JUMPDEST SWAP1 PUSH1 0x0 MSTORE PUSH1 0x20 PUSH1 0x0 KECCAK256 SWAP1 PUSH1 0x3 MUL ADD PUSH1 0x0 ADD PUSH1 0x0 SWAP1 SLOAD SWAP1 PUSH2 0x100 EXP SWAP1 DIV PUSH20 0xFFFFFFFFFFFFFFFFFFFFFFFFFFFFFFFFFFFFFFFF AND PUSH20 0xFFFFFFFFFFFFFFFFFFFFFFFFFFFFFFFFFFFFFFFF AND EQ ISZERO PUSH2 0x327B JUMPI DUP1 SWAP2 POP POP PUSH2 0x32C4 JUMP JUMPDEST DUP1 DUP1 PUSH1 0x1 ADD SWAP2 POP POP PUSH2 0x31F3 JUMP JUMPDEST POP PUSH1 0x40 MLOAD PUSH32 0x8C379A000000000000000000000000000000000000000000000000000000000 DUP2 MSTORE PUSH1 0x4 ADD PUSH2 0x32BB SWAP1 PUSH2 0x41F2 JUMP JUMPDEST PUSH1 0x40 MLOAD DUP1 SWAP2 SUB SWAP1 REVERT JUMPDEST SWAP2 SWAP1 POP JUMP JUMPDEST PUSH1 0x0 DUP1 PUSH1 0x0 SWAP1 POP JUMPDEST PUSH1 0x4 DUP1 SLOAD SWAP1 POP DUP2 LT ISZERO PUSH2 0x3366 JUMPI DUP3 PUSH20 0xFFFFFFFFFFFFFFFFFFFFFFFFFFFFFFFFFFFFFFFF AND PUSH1 0x4 DUP3 DUP2 SLOAD DUP2 LT PUSH2 0x3302 JUMPI INVALID JUMPDEST SWAP1 PUSH1 0x0 MSTORE PUSH1 0x20 PUSH1 0x0 KECCAK256 SWAP1 PUSH1 0x6 MUL ADD PUSH1 0x0 ADD PUSH1 0x0 SWAP1 SLOAD SWAP1 PUSH2 0x100 EXP SWAP1 DIV PUSH20 0xFFFFFFFFFFFFFFFFFFFFFFFFFFFFFFFFFFFFFFFF AND PUSH20 0xFFFFFFFFFFFFFFFFFFFFFFFFFFFFFFFFFFFFFFFF AND EQ ISZERO PUSH2 0x3359 JUMPI DUP1 SWAP2 POP POP PUSH2 0x33A2 JUMP JUMPDEST DUP1 DUP1 PUSH1 0x1 ADD SWAP2 POP POP PUSH2 0x32D1 JUMP JUMPDEST POP PUSH1 0x40 MLOAD PUSH32 0x8C379A000000000000000000000000000000000000000000000000000000000 DUP2 MSTORE PUSH1 0x4 ADD PUSH2 0x3399 SWAP1 PUSH2 0x4232 JUMP JUMPDEST PUSH1 0x40 MLOAD DUP1 SWAP2 SUB SWAP1 REVERT JUMPDEST SWAP2 SWAP1 POP JUMP JUMPDEST DUP3 DUP1 SLOAD PUSH1 0x1 DUP2 PUSH1 0x1 AND ISZERO PUSH2 0x100 MUL SUB AND PUSH1 0x2 SWAP1 DIV SWAP1 PUSH1 0x0 MSTORE PUSH1 0x20 PUSH1 0x0 KECCAK256 SWAP1 PUSH1 0x1F ADD PUSH1 0x20 SWAP1 DIV DUP2 ADD SWAP3 DUP3 PUSH2 0x33DD JUMPI PUSH1 0x0 DUP6 SSTORE PUSH2 0x3424 JUMP JUMPDEST DUP3 PUSH1 0x1F LT PUSH2 0x33F6 JUMPI DUP1 MLOAD PUSH1 0xFF NOT AND DUP4 DUP1 ADD OR DUP6 SSTORE PUSH2 0x3424 JUMP JUMPDEST DUP3 DUP1 ADD PUSH1 0x1 ADD DUP6 SSTORE DUP3 ISZERO PUSH2 0x3424 JUMPI SWAP2 DUP3 ADD JUMPDEST DUP3 DUP2 GT ISZERO PUSH2 0x3423 JUMPI DUP3 MLOAD DUP3 SSTORE SWAP2 PUSH1 0x20 ADD SWAP2 SWAP1 PUSH1 0x1 ADD SWAP1 PUSH2 0x3408 JUMP JUMPDEST JUMPDEST POP SWAP1 POP PUSH2 0x3431 SWAP2 SWAP1 PUSH2 0x3520 JUMP JUMPDEST POP SWAP1 JUMP JUMPDEST PUSH1 0x40 MLOAD DUP1 PUSH1 0xC0 ADD PUSH1 0x40 MSTORE DUP1 PUSH1 0x0 PUSH20 0xFFFFFFFFFFFFFFFFFFFFFFFFFFFFFFFFFFFFFFFF AND DUP2 MSTORE PUSH1 0x20 ADD PUSH1 0x60 DUP2 MSTORE PUSH1 0x20 ADD PUSH1 0x60 DUP2 MSTORE PUSH1 0x20 ADD PUSH1 0x60 DUP2 MSTORE PUSH1 0x20 ADD PUSH1 0x0 DUP2 MSTORE PUSH1 0x20 ADD PUSH1 0x0 ISZERO ISZERO DUP2 MSTORE POP SWAP1 JUMP JUMPDEST PUSH1 0x40 MLOAD DUP1 PUSH1 0xA0 ADD PUSH1 0x40 MSTORE DUP1 PUSH1 0x0 DUP2 MSTORE PUSH1 0x20 ADD PUSH1 0x60 DUP2 MSTORE PUSH1 0x20 ADD PUSH1 0x60 DUP2 MSTORE PUSH1 0x20 ADD PUSH1 0x0 PUSH20 0xFFFFFFFFFFFFFFFFFFFFFFFFFFFFFFFFFFFFFFFF AND DUP2 MSTORE PUSH1 0x20 ADD PUSH1 0x0 ISZERO ISZERO DUP2 MSTORE POP SWAP1 JUMP JUMPDEST PUSH1 0x40 MLOAD DUP1 PUSH1 0x80 ADD PUSH1 0x40 MSTORE DUP1 PUSH1 0x0 PUSH20 0xFFFFFFFFFFFFFFFFFFFFFFFFFFFFFFFFFFFFFFFF AND DUP2 MSTORE PUSH1 0x20 ADD PUSH1 0x60 DUP2 MSTORE PUSH1 0x20 ADD PUSH1 0x0 PUSH20 0xFFFFFFFFFFFFFFFFFFFFFFFFFFFFFFFFFFFFFFFF AND DUP2 MSTORE PUSH1 0x20 ADD PUSH1 0x0 ISZERO ISZERO DUP2 MSTORE POP SWAP1 JUMP JUMPDEST JUMPDEST DUP1 DUP3 GT ISZERO PUSH2 0x3539 JUMPI PUSH1 0x0 DUP2 PUSH1 0x0 SWAP1 SSTORE POP PUSH1 0x1 ADD PUSH2 0x3521 JUMP JUMPDEST POP SWAP1 JUMP JUMPDEST PUSH1 0x0 PUSH2 0x3550 PUSH2 0x354B DUP5 PUSH2 0x4360 JUMP JUMPDEST PUSH2 0x432F JUMP JUMPDEST SWAP1 POP DUP3 DUP2 MSTORE PUSH1 0x20 DUP2 ADD DUP5 DUP5 DUP5 ADD GT ISZERO PUSH2 0x3568 JUMPI PUSH1 0x0 DUP1 REVERT JUMPDEST PUSH2 0x3573 DUP5 DUP3 DUP6 PUSH2 0x44C5 JUMP JUMPDEST POP SWAP4 SWAP3 POP POP POP JUMP JUMPDEST PUSH1 0x0 DUP2 CALLDATALOAD SWAP1 POP PUSH2 0x358A DUP2 PUSH2 0x451A JUMP JUMPDEST SWAP3 SWAP2 POP POP JUMP JUMPDEST PUSH1 0x0 DUP2 CALLDATALOAD SWAP1 POP PUSH2 0x359F DUP2 PUSH2 0x4531 JUMP JUMPDEST SWAP3 SWAP2 POP POP JUMP JUMPDEST PUSH1 0x0 DUP3 PUSH1 0x1F DUP4 ADD SLT PUSH2 0x35B6 JUMPI PUSH1 0x0 DUP1 REVERT JUMPDEST DUP2 CALLDATALOAD PUSH2 0x35C6 DUP5 DUP3 PUSH1 0x20 DUP7 ADD PUSH2 0x353D JUMP JUMPDEST SWAP2 POP POP SWAP3 SWAP2 POP POP JUMP JUMPDEST PUSH1 0x0 DUP2 CALLDATALOAD SWAP1 POP PUSH2 0x35DE DUP2 PUSH2 0x4548 JUMP JUMPDEST SWAP3 SWAP2 POP POP JUMP JUMPDEST PUSH1 0x0 PUSH1 0x20 DUP3 DUP5 SUB SLT ISZERO PUSH2 0x35F6 JUMPI PUSH1 0x0 DUP1 REVERT JUMPDEST PUSH1 0x0 PUSH2 0x3604 DUP5 DUP3 DUP6 ADD PUSH2 0x357B JUMP JUMPDEST SWAP2 POP POP SWAP3 SWAP2 POP POP JUMP JUMPDEST PUSH1 0x0 DUP1 PUSH1 0x0 PUSH1 0x60 DUP5 DUP7 SUB SLT ISZERO PUSH2 0x3622 JUMPI PUSH1 0x0 DUP1 REVERT JUMPDEST PUSH1 0x0 PUSH2 0x3630 DUP7 DUP3 DUP8 ADD PUSH2 0x357B JUMP JUMPDEST SWAP4 POP POP PUSH1 0x20 DUP5 ADD CALLDATALOAD PUSH8 0xFFFFFFFFFFFFFFFF DUP2 GT ISZERO PUSH2 0x364D JUMPI PUSH1 0x0 DUP1 REVERT JUMPDEST PUSH2 0x3659 DUP7 DUP3 DUP8 ADD PUSH2 0x35A5 JUMP JUMPDEST SWAP3 POP POP PUSH1 0x40 PUSH2 0x366A DUP7 DUP3 DUP8 ADD PUSH2 0x357B JUMP JUMPDEST SWAP2 POP POP SWAP3 POP SWAP3 POP SWAP3 JUMP JUMPDEST PUSH1 0x0 DUP1 PUSH1 0x0 DUP1 PUSH1 0x80 DUP6 DUP8 SUB SLT ISZERO PUSH2 0x368A JUMPI PUSH1 0x0 DUP1 REVERT JUMPDEST PUSH1 0x0 PUSH2 0x3698 DUP8 DUP3 DUP9 ADD PUSH2 0x357B JUMP JUMPDEST SWAP5 POP POP PUSH1 0x20 DUP6 ADD CALLDATALOAD PUSH8 0xFFFFFFFFFFFFFFFF DUP2 GT ISZERO PUSH2 0x36B5 JUMPI PUSH1 0x0 DUP1 REVERT JUMPDEST PUSH2 0x36C1 DUP8 DUP3 DUP9 ADD PUSH2 0x35A5 JUMP JUMPDEST SWAP4 POP POP PUSH1 0x40 PUSH2 0x36D2 DUP8 DUP3 DUP9 ADD PUSH2 0x357B JUMP JUMPDEST SWAP3 POP POP PUSH1 0x60 PUSH2 0x36E3 DUP8 DUP3 DUP9 ADD PUSH2 0x3590 JUMP JUMPDEST SWAP2 POP POP SWAP3 SWAP6 SWAP2 SWAP5 POP SWAP3 POP JUMP JUMPDEST PUSH1 0x0 DUP1 PUSH1 0x0 DUP1 PUSH1 0x0 PUSH1 0xA0 DUP7 DUP9 SUB SLT ISZERO PUSH2 0x3707 JUMPI PUSH1 0x0 DUP1 REVERT JUMPDEST PUSH1 0x0 PUSH2 0x3715 DUP9 DUP3 DUP10 ADD PUSH2 0x357B JUMP JUMPDEST SWAP6 POP POP PUSH1 0x20 DUP7 ADD CALLDATALOAD PUSH8 0xFFFFFFFFFFFFFFFF DUP2 GT ISZERO PUSH2 0x3732 JUMPI PUSH1 0x0 DUP1 REVERT JUMPDEST PUSH2 0x373E DUP9 DUP3 DUP10 ADD PUSH2 0x35A5 JUMP JUMPDEST SWAP5 POP POP PUSH1 0x40 DUP7 ADD CALLDATALOAD PUSH8 0xFFFFFFFFFFFFFFFF DUP2 GT ISZERO PUSH2 0x375B JUMPI PUSH1 0x0 DUP1 REVERT JUMPDEST PUSH2 0x3767 DUP9 DUP3 DUP10 ADD PUSH2 0x35A5 JUMP JUMPDEST SWAP4 POP POP PUSH1 0x60 DUP7 ADD CALLDATALOAD PUSH8 0xFFFFFFFFFFFFFFFF DUP2 GT ISZERO PUSH2 0x3784 JUMPI PUSH1 0x0 DUP1 REVERT JUMPDEST PUSH2 0x3790 DUP9 DUP3 DUP10 ADD PUSH2 0x35A5 JUMP JUMPDEST SWAP3 POP POP PUSH1 0x80 PUSH2 0x37A1 DUP9 DUP3 DUP10 ADD PUSH2 0x35CF JUMP JUMPDEST SWAP2 POP POP SWAP3 SWAP6 POP SWAP3 SWAP6 SWAP1 SWAP4 POP JUMP JUMPDEST PUSH1 0x0 DUP1 PUSH1 0x0 DUP1 PUSH1 0x0 DUP1 PUSH1 0xC0 DUP8 DUP10 SUB SLT ISZERO PUSH2 0x37C7 JUMPI PUSH1 0x0 DUP1 REVERT JUMPDEST PUSH1 0x0 PUSH2 0x37D5 DUP10 DUP3 DUP11 ADD PUSH2 0x357B JUMP JUMPDEST SWAP7 POP POP PUSH1 0x20 DUP8 ADD CALLDATALOAD PUSH8 0xFFFFFFFFFFFFFFFF DUP2 GT ISZERO PUSH2 0x37F2 JUMPI PUSH1 0x0 DUP1 REVERT JUMPDEST PUSH2 0x37FE DUP10 DUP3 DUP11 ADD PUSH2 0x35A5 JUMP JUMPDEST SWAP6 POP POP PUSH1 0x40 DUP8 ADD CALLDATALOAD PUSH8 0xFFFFFFFFFFFFFFFF DUP2 GT ISZERO PUSH2 0x381B JUMPI PUSH1 0x0 DUP1 REVERT JUMPDEST PUSH2 0x3827 DUP10 DUP3 DUP11 ADD PUSH2 0x35A5 JUMP JUMPDEST SWAP5 POP POP PUSH1 0x60 DUP8 ADD CALLDATALOAD PUSH8 0xFFFFFFFFFFFFFFFF DUP2 GT ISZERO PUSH2 0x3844 JUMPI PUSH1 0x0 DUP1 REVERT JUMPDEST PUSH2 0x3850 DUP10 DUP3 DUP11 ADD PUSH2 0x35A5 JUMP JUMPDEST SWAP4 POP POP PUSH1 0x80 PUSH2 0x3861 DUP10 DUP3 DUP11 ADD PUSH2 0x35CF JUMP JUMPDEST SWAP3 POP POP PUSH1 0xA0 PUSH2 0x3872 DUP10 DUP3 DUP11 ADD PUSH2 0x3590 JUMP JUMPDEST SWAP2 POP POP SWAP3 SWAP6 POP SWAP3 SWAP6 POP SWAP3 SWAP6 JUMP JUMPDEST PUSH1 0x0 DUP1 PUSH1 0x0 DUP1 PUSH1 0x80 DUP6 DUP8 SUB SLT ISZERO PUSH2 0x3895 JUMPI PUSH1 0x0 DUP1 REVERT JUMPDEST PUSH1 0x0 DUP6 ADD CALLDATALOAD PUSH8 0xFFFFFFFFFFFFFFFF DUP2 GT ISZERO PUSH2 0x38AF JUMPI PUSH1 0x0 DUP1 REVERT JUMPDEST PUSH2 0x38BB DUP8 DUP3 DUP9 ADD PUSH2 0x35A5 JUMP JUMPDEST SWAP5 POP POP PUSH1 0x20 DUP6 ADD CALLDATALOAD PUSH8 0xFFFFFFFFFFFFFFFF DUP2 GT ISZERO PUSH2 0x38D8 JUMPI PUSH1 0x0 DUP1 REVERT JUMPDEST PUSH2 0x38E4 DUP8 DUP3 DUP9 ADD PUSH2 0x35A5 JUMP JUMPDEST SWAP4 POP POP PUSH1 0x40 PUSH2 0x38F5 DUP8 DUP3 DUP9 ADD PUSH2 0x357B JUMP JUMPDEST SWAP3 POP POP PUSH1 0x60 PUSH2 0x3906 DUP8 DUP3 DUP9 ADD PUSH2 0x3590 JUMP JUMPDEST SWAP2 POP POP SWAP3 SWAP6 SWAP2 SWAP5 POP SWAP3 POP JUMP JUMPDEST PUSH1 0x0 PUSH1 0x20 DUP3 DUP5 SUB SLT ISZERO PUSH2 0x3924 JUMPI PUSH1 0x0 DUP1 REVERT JUMPDEST PUSH1 0x0 PUSH2 0x3932 DUP5 DUP3 DUP6 ADD PUSH2 0x35CF JUMP JUMPDEST SWAP2 POP POP SWAP3 SWAP2 POP POP JUMP JUMPDEST PUSH1 0x0 DUP1 PUSH1 0x0 DUP1 PUSH1 0x0 PUSH1 0xA0 DUP7 DUP9 SUB SLT ISZERO PUSH2 0x3953 JUMPI PUSH1 0x0 DUP1 REVERT JUMPDEST PUSH1 0x0 PUSH2 0x3961 DUP9 DUP3 DUP10 ADD PUSH2 0x35CF JUMP JUMPDEST SWAP6 POP POP PUSH1 0x20 DUP7 ADD CALLDATALOAD PUSH8 0xFFFFFFFFFFFFFFFF DUP2 GT ISZERO PUSH2 0x397E JUMPI PUSH1 0x0 DUP1 REVERT JUMPDEST PUSH2 0x398A DUP9 DUP3 DUP10 ADD PUSH2 0x35A5 JUMP JUMPDEST SWAP5 POP POP PUSH1 0x40 DUP7 ADD CALLDATALOAD PUSH8 0xFFFFFFFFFFFFFFFF DUP2 GT ISZERO PUSH2 0x39A7 JUMPI PUSH1 0x0 DUP1 REVERT JUMPDEST PUSH2 0x39B3 DUP9 DUP3 DUP10 ADD PUSH2 0x35A5 JUMP JUMPDEST SWAP4 POP POP PUSH1 0x60 PUSH2 0x39C4 DUP9 DUP3 DUP10 ADD PUSH2 0x357B JUMP JUMPDEST SWAP3 POP POP PUSH1 0x80 PUSH2 0x39D5 DUP9 DUP3 DUP10 ADD PUSH2 0x3590 JUMP JUMPDEST SWAP2 POP POP SWAP3 SWAP6 POP SWAP3 SWAP6 SWAP1 SWAP4 POP JUMP JUMPDEST PUSH1 0x0 PUSH2 0x39EE DUP4 DUP4 PUSH2 0x3D7A JUMP JUMPDEST SWAP1 POP SWAP3 SWAP2 POP POP JUMP JUMPDEST PUSH1 0x0 PUSH2 0x3A02 DUP4 DUP4 PUSH2 0x3DDD JUMP JUMPDEST SWAP1 POP SWAP3 SWAP2 POP POP JUMP JUMPDEST PUSH1 0x0 PUSH2 0x3A16 DUP4 DUP4 PUSH2 0x3E74 JUMP JUMPDEST SWAP1 POP SWAP3 SWAP2 POP POP JUMP JUMPDEST PUSH2 0x3A27 DUP2 PUSH2 0x447D JUMP JUMPDEST DUP3 MSTORE POP POP JUMP JUMPDEST PUSH2 0x3A36 DUP2 PUSH2 0x447D JUMP JUMPDEST DUP3 MSTORE POP POP JUMP JUMPDEST PUSH1 0x0 PUSH2 0x3A47 DUP3 PUSH2 0x43D5 JUMP JUMPDEST PUSH2 0x3A51 DUP2 DUP6 PUSH2 0x4428 JUMP JUMPDEST SWAP4 POP DUP4 PUSH1 0x20 DUP3 MUL DUP6 ADD PUSH2 0x3A63 DUP6 PUSH2 0x4390 JUMP JUMPDEST DUP1 PUSH1 0x0 JUMPDEST DUP6 DUP2 LT ISZERO PUSH2 0x3A9F JUMPI DUP5 DUP5 SUB DUP10 MSTORE DUP2 MLOAD PUSH2 0x3A80 DUP6 DUP3 PUSH2 0x39E2 JUMP JUMPDEST SWAP5 POP PUSH2 0x3A8B DUP4 PUSH2 0x4401 JUMP JUMPDEST SWAP3 POP PUSH1 0x20 DUP11 ADD SWAP10 POP POP PUSH1 0x1 DUP2 ADD SWAP1 POP PUSH2 0x3A67 JUMP JUMPDEST POP DUP3 SWAP8 POP DUP8 SWAP6 POP POP POP POP POP POP SWAP3 SWAP2 POP POP JUMP JUMPDEST PUSH1 0x0 PUSH2 0x3ABC DUP3 PUSH2 0x43E0 JUMP JUMPDEST PUSH2 0x3AC6 DUP2 DUP6 PUSH2 0x4439 JUMP JUMPDEST SWAP4 POP DUP4 PUSH1 0x20 DUP3 MUL DUP6 ADD PUSH2 0x3AD8 DUP6 PUSH2 0x43A0 JUMP JUMPDEST DUP1 PUSH1 0x0 JUMPDEST DUP6 DUP2 LT ISZERO PUSH2 0x3B14 JUMPI DUP5 DUP5 SUB DUP10 MSTORE DUP2 MLOAD PUSH2 0x3AF5 DUP6 DUP3 PUSH2 0x39F6 JUMP JUMPDEST SWAP5 POP PUSH2 0x3B00 DUP4 PUSH2 0x440E JUMP JUMPDEST SWAP3 POP PUSH1 0x20 DUP11 ADD SWAP10 POP POP PUSH1 0x1 DUP2 ADD SWAP1 POP PUSH2 0x3ADC JUMP JUMPDEST POP DUP3 SWAP8 POP DUP8 SWAP6 POP POP POP POP POP POP SWAP3 SWAP2 POP POP JUMP JUMPDEST PUSH1 0x0 PUSH2 0x3B31 DUP3 PUSH2 0x43EB JUMP JUMPDEST PUSH2 0x3B3B DUP2 DUP6 PUSH2 0x444A JUMP JUMPDEST SWAP4 POP DUP4 PUSH1 0x20 DUP3 MUL DUP6 ADD PUSH2 0x3B4D DUP6 PUSH2 0x43B0 JUMP JUMPDEST DUP1 PUSH1 0x0 JUMPDEST DUP6 DUP2 LT ISZERO PUSH2 0x3B89 JUMPI DUP5 DUP5 SUB DUP10 MSTORE DUP2 MLOAD PUSH2 0x3B6A DUP6 DUP3 PUSH2 0x3A0A JUMP JUMPDEST SWAP5 POP PUSH2 0x3B75 DUP4 PUSH2 0x441B JUMP JUMPDEST SWAP3 POP PUSH1 0x20 DUP11 ADD SWAP10 POP POP PUSH1 0x1 DUP2 ADD SWAP1 POP PUSH2 0x3B51 JUMP JUMPDEST POP DUP3 SWAP8 POP DUP8 SWAP6 POP POP POP POP POP POP SWAP3 SWAP2 POP POP JUMP JUMPDEST PUSH2 0x3BA4 DUP2 PUSH2 0x448F JUMP JUMPDEST DUP3 MSTORE POP POP JUMP JUMPDEST PUSH2 0x3BB3 DUP2 PUSH2 0x448F JUMP JUMPDEST DUP3 MSTORE POP POP JUMP JUMPDEST PUSH1 0x0 PUSH2 0x3BC4 DUP3 PUSH2 0x43F6 JUMP JUMPDEST PUSH2 0x3BCE DUP2 DUP6 PUSH2 0x445B JUMP JUMPDEST SWAP4 POP PUSH2 0x3BDE DUP2 DUP6 PUSH1 0x20 DUP7 ADD PUSH2 0x44D4 JUMP JUMPDEST PUSH2 0x3BE7 DUP2 PUSH2 0x4509 JUMP JUMPDEST DUP5 ADD SWAP2 POP POP SWAP3 SWAP2 POP POP JUMP JUMPDEST PUSH1 0x0 PUSH2 0x3BFD DUP3 PUSH2 0x43F6 JUMP JUMPDEST PUSH2 0x3C07 DUP2 DUP6 PUSH2 0x446C JUMP JUMPDEST SWAP4 POP PUSH2 0x3C17 DUP2 DUP6 PUSH1 0x20 DUP7 ADD PUSH2 0x44D4 JUMP JUMPDEST PUSH2 0x3C20 DUP2 PUSH2 0x4509 JUMP JUMPDEST DUP5 ADD SWAP2 POP POP SWAP3 SWAP2 POP POP JUMP JUMPDEST PUSH1 0x0 DUP2 SLOAD PUSH1 0x1 DUP2 AND PUSH1 0x0 DUP2 EQ PUSH2 0x3C48 JUMPI PUSH1 0x1 DUP2 EQ PUSH2 0x3C6E JUMPI PUSH2 0x3CB2 JUMP JUMPDEST PUSH1 0x7F PUSH1 0x2 DUP4 DIV AND PUSH2 0x3C59 DUP2 DUP8 PUSH2 0x446C JUMP JUMPDEST SWAP6 POP PUSH1 0xFF NOT DUP4 AND DUP7 MSTORE PUSH1 0x20 DUP7 ADD SWAP4 POP POP PUSH2 0x3CB2 JUMP JUMPDEST PUSH1 0x2 DUP3 DIV PUSH2 0x3C7C DUP2 DUP8 PUSH2 0x446C JUMP JUMPDEST SWAP6 POP PUSH2 0x3C87 DUP6 PUSH2 0x43C0 JUMP JUMPDEST PUSH1 0x0 JUMPDEST DUP3 DUP2 LT ISZERO PUSH2 0x3CA9 JUMPI DUP2 SLOAD DUP2 DUP10 ADD MSTORE PUSH1 0x1 DUP3 ADD SWAP2 POP PUSH1 0x20 DUP2 ADD SWAP1 POP PUSH2 0x3C8A JUMP JUMPDEST DUP1 DUP9 ADD SWAP6 POP POP POP POP JUMPDEST POP POP SWAP3 SWAP2 POP POP JUMP JUMPDEST PUSH1 0x0 PUSH2 0x3CC7 PUSH1 0x10 DUP4 PUSH2 0x446C JUMP JUMPDEST SWAP2 POP PUSH32 0x446F63746F72206E6F7420666F756E6400000000000000000000000000000000 PUSH1 0x0 DUP4 ADD MSTORE PUSH1 0x20 DUP3 ADD SWAP1 POP SWAP2 SWAP1 POP JUMP JUMPDEST PUSH1 0x0 PUSH2 0x3D07 PUSH1 0x10 DUP4 PUSH2 0x446C JUMP JUMPDEST SWAP2 POP PUSH32 0x53656E736F72206E6F7420666F756E6400000000000000000000000000000000 PUSH1 0x0 DUP4 ADD MSTORE PUSH1 0x20 DUP3 ADD SWAP1 POP SWAP2 SWAP1 POP JUMP JUMPDEST PUSH1 0x0 PUSH2 0x3D47 PUSH1 0x12 DUP4 PUSH2 0x446C JUMP JUMPDEST SWAP2 POP PUSH32 0x486F73706974616C206E6F7420666F756E640000000000000000000000000000 PUSH1 0x0 DUP4 ADD MSTORE PUSH1 0x20 DUP3 ADD SWAP1 POP SWAP2 SWAP1 POP JUMP JUMPDEST PUSH1 0x0 PUSH1 0x80 DUP4 ADD PUSH1 0x0 DUP4 ADD MLOAD PUSH2 0x3D92 PUSH1 0x0 DUP7 ADD DUP3 PUSH2 0x3A1E JUMP JUMPDEST POP PUSH1 0x20 DUP4 ADD MLOAD DUP5 DUP3 SUB PUSH1 0x20 DUP7 ADD MSTORE PUSH2 0x3DAA DUP3 DUP3 PUSH2 0x3BB9 JUMP JUMPDEST SWAP2 POP POP PUSH1 0x40 DUP4 ADD MLOAD PUSH2 0x3DBF PUSH1 0x40 DUP7 ADD DUP3 PUSH2 0x3A1E JUMP JUMPDEST POP PUSH1 0x60 DUP4 ADD MLOAD PUSH2 0x3DD2 PUSH1 0x60 DUP7 ADD DUP3 PUSH2 0x3B9B JUMP JUMPDEST POP DUP1 SWAP2 POP POP SWAP3 SWAP2 POP POP JUMP JUMPDEST PUSH1 0x0 PUSH1 0xC0 DUP4 ADD PUSH1 0x0 DUP4 ADD MLOAD PUSH2 0x3DF5 PUSH1 0x0 DUP7 ADD DUP3 PUSH2 0x3A1E JUMP JUMPDEST POP PUSH1 0x20 DUP4 ADD MLOAD DUP5 DUP3 SUB PUSH1 0x20 DUP7 ADD MSTORE PUSH2 0x3E0D DUP3 DUP3 PUSH2 0x3BB9 JUMP JUMPDEST SWAP2 POP POP PUSH1 0x40 DUP4 ADD MLOAD DUP5 DUP3 SUB PUSH1 0x40 DUP7 ADD MSTORE PUSH2 0x3E27 DUP3 DUP3 PUSH2 0x3BB9 JUMP JUMPDEST SWAP2 POP POP PUSH1 0x60 DUP4 ADD MLOAD DUP5 DUP3 SUB PUSH1 0x60 DUP7 ADD MSTORE PUSH2 0x3E41 DUP3 DUP3 PUSH2 0x3BB9 JUMP JUMPDEST SWAP2 POP POP PUSH1 0x80 DUP4 ADD MLOAD PUSH2 0x3E56 PUSH1 0x80 DUP7 ADD DUP3 PUSH2 0x3EF1 JUMP JUMPDEST POP PUSH1 0xA0 DUP4 ADD MLOAD PUSH2 0x3E69 PUSH1 0xA0 DUP7 ADD DUP3 PUSH2 0x3B9B JUMP JUMPDEST POP DUP1 SWAP2 POP POP SWAP3 SWAP2 POP POP JUMP JUMPDEST PUSH1 0x0 PUSH1 0xA0 DUP4 ADD PUSH1 0x0 DUP4 ADD MLOAD PUSH2 0x3E8C PUSH1 0x0 DUP7 ADD DUP3 PUSH2 0x3EF1 JUMP JUMPDEST POP PUSH1 0x20 DUP4 ADD MLOAD DUP5 DUP3 SUB PUSH1 0x20 DUP7 ADD MSTORE PUSH2 0x3EA4 DUP3 DUP3 PUSH2 0x3BB9 JUMP JUMPDEST SWAP2 POP POP PUSH1 0x40 DUP4 ADD MLOAD DUP5 DUP3 SUB PUSH1 0x40 DUP7 ADD MSTORE PUSH2 0x3EBE DUP3 DUP3 PUSH2 0x3BB9 JUMP JUMPDEST SWAP2 POP POP PUSH1 0x60 DUP4 ADD MLOAD PUSH2 0x3ED3 PUSH1 0x60 DUP7 ADD DUP3 PUSH2 0x3A1E JUMP JUMPDEST POP PUSH1 0x80 DUP4 ADD MLOAD PUSH2 0x3EE6 PUSH1 0x80 DUP7 ADD DUP3 PUSH2 0x3B9B JUMP JUMPDEST POP DUP1 SWAP2 POP POP SWAP3 SWAP2 POP POP JUMP JUMPDEST PUSH2 0x3EFA DUP2 PUSH2 0x44BB JUMP JUMPDEST DUP3 MSTORE POP POP JUMP JUMPDEST PUSH2 0x3F09 DUP2 PUSH2 0x44BB JUMP JUMPDEST DUP3 MSTORE POP POP JUMP JUMPDEST PUSH1 0x0 PUSH1 0x80 DUP3 ADD SWAP1 POP PUSH2 0x3F24 PUSH1 0x0 DUP4 ADD DUP8 PUSH2 0x3A2D JUMP JUMPDEST DUP2 DUP2 SUB PUSH1 0x20 DUP4 ADD MSTORE PUSH2 0x3F36 DUP2 DUP7 PUSH2 0x3BF2 JUMP JUMPDEST SWAP1 POP PUSH2 0x3F45 PUSH1 0x40 DUP4 ADD DUP6 PUSH2 0x3A2D JUMP JUMPDEST PUSH2 0x3F52 PUSH1 0x60 DUP4 ADD DUP5 PUSH2 0x3BAA JUMP JUMPDEST SWAP6 SWAP5 POP POP POP POP POP JUMP JUMPDEST PUSH1 0x0 PUSH1 0xC0 DUP3 ADD SWAP1 POP PUSH2 0x3F70 PUSH1 0x0 DUP4 ADD DUP10 PUSH2 0x3A2D JUMP JUMPDEST DUP2 DUP2 SUB PUSH1 0x20 DUP4 ADD MSTORE PUSH2 0x3F82 DUP2 DUP9 PUSH2 0x3BF2 JUMP JUMPDEST SWAP1 POP DUP2 DUP2 SUB PUSH1 0x40 DUP4 ADD MSTORE PUSH2 0x3F96 DUP2 DUP8 PUSH2 0x3BF2 JUMP JUMPDEST SWAP1 POP DUP2 DUP2 SUB PUSH1 0x60 DUP4 ADD MSTORE PUSH2 0x3FAA DUP2 DUP7 PUSH2 0x3BF2 JUMP JUMPDEST SWAP1 POP PUSH2 0x3FB9 PUSH1 0x80 DUP4 ADD DUP6 PUSH2 0x3F00 JUMP JUMPDEST PUSH2 0x3FC6 PUSH1 0xA0 DUP4 ADD DUP5 PUSH2 0x3BAA JUMP JUMPDEST SWAP8 SWAP7 POP POP POP POP POP POP POP JUMP JUMPDEST PUSH1 0x0 PUSH1 0x80 DUP3 ADD SWAP1 POP PUSH2 0x3FE6 PUSH1 0x0 DUP4 ADD DUP8 PUSH2 0x3A2D JUMP JUMPDEST DUP2 DUP2 SUB PUSH1 0x20 DUP4 ADD MSTORE PUSH2 0x3FF8 DUP2 DUP7 PUSH2 0x3C2B JUMP JUMPDEST SWAP1 POP PUSH2 0x4007 PUSH1 0x40 DUP4 ADD DUP6 PUSH2 0x3A2D JUMP JUMPDEST PUSH2 0x4014 PUSH1 0x60 DUP4 ADD DUP5 PUSH2 0x3BAA JUMP JUMPDEST SWAP6 SWAP5 POP POP POP POP POP JUMP JUMPDEST PUSH1 0x0 PUSH1 0xC0 DUP3 ADD SWAP1 POP PUSH2 0x4032 PUSH1 0x0 DUP4 ADD DUP10 PUSH2 0x3A2D JUMP JUMPDEST DUP2 DUP2 SUB PUSH1 0x20 DUP4 ADD MSTORE PUSH2 0x4044 DUP2 DUP9 PUSH2 0x3C2B JUMP JUMPDEST SWAP1 POP DUP2 DUP2 SUB PUSH1 0x40 DUP4 ADD MSTORE PUSH2 0x4058 DUP2 DUP8 PUSH2 0x3C2B JUMP JUMPDEST SWAP1 POP DUP2 DUP2 SUB PUSH1 0x60 DUP4 ADD MSTORE PUSH2 0x406C DUP2 DUP7 PUSH2 0x3C2B JUMP JUMPDEST SWAP1 POP PUSH2 0x407B PUSH1 0x80 DUP4 ADD DUP6 PUSH2 0x3F00 JUMP JUMPDEST PUSH2 0x4088 PUSH1 0xA0 DUP4 ADD DUP5 PUSH2 0x3BAA JUMP JUMPDEST SWAP8 SWAP7 POP POP POP POP POP POP POP JUMP JUMPDEST PUSH1 0x0 PUSH1 0x20 DUP3 ADD SWAP1 POP DUP2 DUP2 SUB PUSH1 0x0 DUP4 ADD MSTORE PUSH2 0x40AD DUP2 DUP5 PUSH2 0x3A3C JUMP JUMPDEST SWAP1 POP SWAP3 SWAP2 POP POP JUMP JUMPDEST PUSH1 0x0 PUSH1 0x20 DUP3 ADD SWAP1 POP DUP2 DUP2 SUB PUSH1 0x0 DUP4 ADD MSTORE PUSH2 0x40CF DUP2 DUP5 PUSH2 0x3AB1 JUMP JUMPDEST SWAP1 POP SWAP3 SWAP2 POP POP JUMP JUMPDEST PUSH1 0x0 PUSH1 0x20 DUP3 ADD SWAP1 POP DUP2 DUP2 SUB PUSH1 0x0 DUP4 ADD MSTORE PUSH2 0x40F1 DUP2 DUP5 PUSH2 0x3B26 JUMP JUMPDEST SWAP1 POP SWAP3 SWAP2 POP POP JUMP JUMPDEST PUSH1 0x0 PUSH1 0x60 DUP3 ADD SWAP1 POP DUP2 DUP2 SUB PUSH1 0x0 DUP4 ADD MSTORE PUSH2 0x4113 DUP2 DUP7 PUSH2 0x3BF2 JUMP JUMPDEST SWAP1 POP PUSH2 0x4122 PUSH1 0x20 DUP4 ADD DUP6 PUSH2 0x3A2D JUMP JUMPDEST PUSH2 0x412F PUSH1 0x40 DUP4 ADD DUP5 PUSH2 0x3BAA JUMP JUMPDEST SWAP5 SWAP4 POP POP POP POP JUMP JUMPDEST PUSH1 0x0 PUSH1 0x80 DUP3 ADD SWAP1 POP DUP2 DUP2 SUB PUSH1 0x0 DUP4 ADD MSTORE PUSH2 0x4151 DUP2 DUP8 PUSH2 0x3BF2 JUMP JUMPDEST SWAP1 POP DUP2 DUP2 SUB PUSH1 0x20 DUP4 ADD MSTORE PUSH2 0x4165 DUP2 DUP7 PUSH2 0x3BF2 JUMP JUMPDEST SWAP1 POP PUSH2 0x4174 PUSH1 0x40 DUP4 ADD DUP6 PUSH2 0x3A2D JUMP JUMPDEST PUSH2 0x4181 PUSH1 0x60 DUP4 ADD DUP5 PUSH2 0x3BAA JUMP JUMPDEST SWAP6 SWAP5 POP POP POP POP POP JUMP JUMPDEST PUSH1 0x0 PUSH1 0xA0 DUP3 ADD SWAP1 POP DUP2 DUP2 SUB PUSH1 0x0 DUP4 ADD MSTORE PUSH2 0x41A4 DUP2 DUP9 PUSH2 0x3BF2 JUMP JUMPDEST SWAP1 POP DUP2 DUP2 SUB PUSH1 0x20 DUP4 ADD MSTORE PUSH2 0x41B8 DUP2 DUP8 PUSH2 0x3BF2 JUMP JUMPDEST SWAP1 POP DUP2 DUP2 SUB PUSH1 0x40 DUP4 ADD MSTORE PUSH2 0x41CC DUP2 DUP7 PUSH2 0x3BF2 JUMP JUMPDEST SWAP1 POP PUSH2 0x41DB PUSH1 0x60 DUP4 ADD DUP6 PUSH2 0x3F00 JUMP JUMPDEST PUSH2 0x41E8 PUSH1 0x80 DUP4 ADD DUP5 PUSH2 0x3BAA JUMP JUMPDEST SWAP7 SWAP6 POP POP POP POP POP POP JUMP JUMPDEST PUSH1 0x0 PUSH1 0x20 DUP3 ADD SWAP1 POP DUP2 DUP2 SUB PUSH1 0x0 DUP4 ADD MSTORE PUSH2 0x420B DUP2 PUSH2 0x3CBA JUMP JUMPDEST SWAP1 POP SWAP2 SWAP1 POP JUMP JUMPDEST PUSH1 0x0 PUSH1 0x20 DUP3 ADD SWAP1 POP DUP2 DUP2 SUB PUSH1 0x0 DUP4 ADD MSTORE PUSH2 0x422B DUP2 PUSH2 0x3CFA JUMP JUMPDEST SWAP1 POP SWAP2 SWAP1 POP JUMP JUMPDEST PUSH1 0x0 PUSH1 0x20 DUP3 ADD SWAP1 POP DUP2 DUP2 SUB PUSH1 0x0 DUP4 ADD MSTORE PUSH2 0x424B DUP2 PUSH2 0x3D3A JUMP JUMPDEST SWAP1 POP SWAP2 SWAP1 POP JUMP JUMPDEST PUSH1 0x0 PUSH1 0x20 DUP3 ADD SWAP1 POP PUSH2 0x4267 PUSH1 0x0 DUP4 ADD DUP5 PUSH2 0x3F00 JUMP JUMPDEST SWAP3 SWAP2 POP POP JUMP JUMPDEST PUSH1 0x0 PUSH1 0xA0 DUP3 ADD SWAP1 POP PUSH2 0x4282 PUSH1 0x0 DUP4 ADD DUP9 PUSH2 0x3F00 JUMP JUMPDEST DUP2 DUP2 SUB PUSH1 0x20 DUP4 ADD MSTORE PUSH2 0x4294 DUP2 DUP8 PUSH2 0x3BF2 JUMP JUMPDEST SWAP1 POP DUP2 DUP2 SUB PUSH1 0x40 DUP4 ADD MSTORE PUSH2 0x42A8 DUP2 DUP7 PUSH2 0x3BF2 JUMP JUMPDEST SWAP1 POP PUSH2 0x42B7 PUSH1 0x60 DUP4 ADD DUP6 PUSH2 0x3A2D JUMP JUMPDEST PUSH2 0x42C4 PUSH1 0x80 DUP4 ADD DUP5 PUSH2 0x3BAA JUMP JUMPDEST SWAP7 SWAP6 POP POP POP POP POP POP JUMP JUMPDEST PUSH1 0x0 PUSH1 0xA0 DUP3 ADD SWAP1 POP PUSH2 0x42E3 PUSH1 0x0 DUP4 ADD DUP9 PUSH2 0x3F00 JUMP JUMPDEST DUP2 DUP2 SUB PUSH1 0x20 DUP4 ADD MSTORE PUSH2 0x42F5 DUP2 DUP8 PUSH2 0x3C2B JUMP JUMPDEST SWAP1 POP DUP2 DUP2 SUB PUSH1 0x40 DUP4 ADD MSTORE PUSH2 0x4309 DUP2 DUP7 PUSH2 0x3C2B JUMP JUMPDEST SWAP1 POP PUSH2 0x4318 PUSH1 0x60 DUP4 ADD DUP6 PUSH2 0x3A2D JUMP JUMPDEST PUSH2 0x4325 PUSH1 0x80 DUP4 ADD DUP5 PUSH2 0x3BAA JUMP JUMPDEST SWAP7 SWAP6 POP POP POP POP POP POP JUMP JUMPDEST PUSH1 0x0 PUSH1 0x40 MLOAD SWAP1 POP DUP2 DUP2 ADD DUP2 DUP2 LT PUSH8 0xFFFFFFFFFFFFFFFF DUP3 GT OR ISZERO PUSH2 0x4356 JUMPI PUSH2 0x4355 PUSH2 0x4507 JUMP JUMPDEST JUMPDEST DUP1 PUSH1 0x40 MSTORE POP SWAP2 SWAP1 POP JUMP JUMPDEST PUSH1 0x0 PUSH8 0xFFFFFFFFFFFFFFFF DUP3 GT ISZERO PUSH2 0x437B JUMPI PUSH2 0x437A PUSH2 0x4507 JUMP JUMPDEST JUMPDEST PUSH1 0x1F NOT PUSH1 0x1F DUP4 ADD AND SWAP1 POP PUSH1 0x20 DUP2 ADD SWAP1 POP SWAP2 SWAP1 POP JUMP JUMPDEST PUSH1 0x0 DUP2 SWAP1 POP PUSH1 0x20 DUP3 ADD SWAP1 POP SWAP2 SWAP1 POP JUMP JUMPDEST PUSH1 0x0 DUP2 SWAP1 POP PUSH1 0x20 DUP3 ADD SWAP1 POP SWAP2 SWAP1 POP JUMP JUMPDEST PUSH1 0x0 DUP2 SWAP1 POP PUSH1 0x20 DUP3 ADD SWAP1 POP SWAP2 SWAP1 POP JUMP JUMPDEST PUSH1 0x0 DUP2 SWAP1 POP DUP2 PUSH1 0x0 MSTORE PUSH1 0x20 PUSH1 0x0 KECCAK256 SWAP1 POP SWAP2 SWAP1 POP JUMP JUMPDEST PUSH1 0x0 DUP2 MLOAD SWAP1 POP SWAP2 SWAP1 POP JUMP JUMPDEST PUSH1 0x0 DUP2 MLOAD SWAP1 POP SWAP2 SWAP1 POP JUMP JUMPDEST PUSH1 0x0 DUP2 MLOAD SWAP1 POP SWAP2 SWAP1 POP JUMP JUMPDEST PUSH1 0x0 DUP2 MLOAD SWAP1 POP SWAP2 SWAP1 POP JUMP JUMPDEST PUSH1 0x0 PUSH1 0x20 DUP3 ADD SWAP1 POP SWAP2 SWAP1 POP JUMP JUMPDEST PUSH1 0x0 PUSH1 0x20 DUP3 ADD SWAP1 POP SWAP2 SWAP1 POP JUMP JUMPDEST PUSH1 0x0 PUSH1 0x20 DUP3 ADD SWAP1 POP SWAP2 SWAP1 POP JUMP JUMPDEST PUSH1 0x0 DUP3 DUP3 MSTORE PUSH1 0x20 DUP3 ADD SWAP1 POP SWAP3 SWAP2 POP POP JUMP JUMPDEST PUSH1 0x0 DUP3 DUP3 MSTORE PUSH1 0x20 DUP3 ADD SWAP1 POP SWAP3 SWAP2 POP POP JUMP JUMPDEST PUSH1 0x0 DUP3 DUP3 MSTORE PUSH1 0x20 DUP3 ADD SWAP1 POP SWAP3 SWAP2 POP POP JUMP JUMPDEST PUSH1 0x0 DUP3 DUP3 MSTORE PUSH1 0x20 DUP3 ADD SWAP1 POP SWAP3 SWAP2 POP POP JUMP JUMPDEST PUSH1 0x0 DUP3 DUP3 MSTORE PUSH1 0x20 DUP3 ADD SWAP1 POP SWAP3 SWAP2 POP POP JUMP JUMPDEST PUSH1 0x0 PUSH2 0x4488 DUP3 PUSH2 0x449B JUMP JUMPDEST SWAP1 POP SWAP2 SWAP1 POP JUMP JUMPDEST PUSH1 0x0 DUP2 ISZERO ISZERO SWAP1 POP SWAP2 SWAP1 POP JUMP JUMPDEST PUSH1 0x0 PUSH20 0xFFFFFFFFFFFFFFFFFFFFFFFFFFFFFFFFFFFFFFFF DUP3 AND SWAP1 POP SWAP2 SWAP1 POP JUMP JUMPDEST PUSH1 0x0 DUP2 SWAP1 POP SWAP2 SWAP1 POP JUMP JUMPDEST DUP3 DUP2 DUP4 CALLDATACOPY PUSH1 0x0 DUP4 DUP4 ADD MSTORE POP POP POP JUMP JUMPDEST PUSH1 0x0 JUMPDEST DUP4 DUP2 LT ISZERO PUSH2 0x44F2 JUMPI DUP1 DUP3 ADD MLOAD DUP2 DUP5 ADD MSTORE PUSH1 0x20 DUP2 ADD SWAP1 POP PUSH2 0x44D7 JUMP JUMPDEST DUP4 DUP2 GT ISZERO PUSH2 0x4501 JUMPI PUSH1 0x0 DUP5 DUP5 ADD MSTORE JUMPDEST POP POP POP POP JUMP JUMPDEST INVALID JUMPDEST PUSH1 0x0 PUSH1 0x1F NOT PUSH1 0x1F DUP4 ADD AND SWAP1 POP SWAP2 SWAP1 POP JUMP JUMPDEST PUSH2 0x4523 DUP2 PUSH2 0x447D JUMP JUMPDEST DUP2 EQ PUSH2 0x452E JUMPI PUSH1 0x0 DUP1 REVERT JUMPDEST POP JUMP JUMPDEST PUSH2 0x453A DUP2 PUSH2 0x448F JUMP JUMPDEST DUP2 EQ PUSH2 0x4545 JUMPI PUSH1 0x0 DUP1 REVERT JUMPDEST POP JUMP JUMPDEST PUSH2 0x4551 DUP2 PUSH2 0x44BB JUMP JUMPDEST DUP2 EQ PUSH2 0x455C JUMPI PUSH1 0x0 DUP1 REVERT JUMPDEST POP JUMP INVALID LOG2 PUSH5 0x6970667358 0x22 SLT KECCAK256 0x2C CALLVALUE SWAP14 DIV SELFBALANCE CHAINID MSTORE LOG3 0xE9 BALANCE DUP13 DUP2 ORIGIN DUP3 0xF9 COINBASE SIGNEXTEND 0xBC LT PC 0xC8 0xE6 SWAP12 0x28 0xE3 PUSH17 0xCEE9462F249D64736F6C63430007060033 "
    },
    "gasEstimates": {
      "creation": {
        "codeDepositCost": "3562600",
        "executionCost": "24865",
        "totalCost": "3587465"
      },
      "external": {
        "AddDoctor(address,string,address)": "infinite",
        "AddHospital(address,string,string,string,uint256)": "infinite",
        "AddSensor(string,string,address,bool)": "infinite",
        "Doctors(address)": "infinite",
        "Hospitals(address)": "infinite",
        "Length_Doctors()": "1213",
        "Length_Hospitals()": "1234",
        "Length_sensors()": "1190",
        "ReadDoctor(address)": "infinite",
        "ReadHospital(address)": "infinite",
        "ReadSensor(uint256)": "infinite",
        "RemoveDoctor(address)": "infinite",
        "RemoveHospital(address)": "infinite",
        "RemoveSensor(uint256)": "infinite",
        "Sensors(address)": "infinite",
        "UpdateDoctor(address,string,address,bool)": "infinite",
        "UpdateHospital(address,string,string,string,uint256,bool)": "infinite",
        "UpdateSensor(uint256,string,string,address,bool)": "infinite",
        "doctorsHospital(uint256)": "infinite",
        "getAllDoctors()": "infinite",
        "getAllDoctorsInHospital(address)": "infinite",
        "getAllHospitals()": "infinite",
        "getAllSensorOfDoctor(address)": "infinite",
        "getAllSensors()": "infinite",
        "hospitalCenters(uint256)": "infinite",
        "sensorsDoctor(uint256)": "infinite"
      },
      "internal": {
        "FindDoctor(address)": "infinite",
        "FindHospital(address)": "infinite",
        "FindSensor(uint256)": "infinite"
      }
    },
    "methodIdentifiers": {
      "AddDoctor(address,string,address)": "e1ee3b56",
      "AddHospital(address,string,string,string,uint256)": "a27876c5",
      "AddSensor(string,string,address,bool)": "1b057e40",
      "Doctors(address)": "dc7aa36b",
      "Hospitals(address)": "a549a4ed",
      "Length_Doctors()": "1ba51696",
      "Length_Hospitals()": "a17d7a38",
      "Length_sensors()": "b5843613",
      "ReadDoctor(address)": "6cd8ebdc",
      "ReadHospital(address)": "9b70e779",
      "ReadSensor(uint256)": "02655c2e",
      "RemoveDoctor(address)": "a0568e2d",
      "RemoveHospital(address)": "4807fc69",
      "RemoveSensor(uint256)": "6151efb1",
      "Sensors(address)": "898bd140",
      "UpdateDoctor(address,string,address,bool)": "60ea3cdc",
      "UpdateHospital(address,string,string,string,uint256,bool)": "7fe53f83",
      "UpdateSensor(uint256,string,string,address,bool)": "6f39507d",
      "doctorsHospital(uint256)": "8db2fc41",
      "getAllDoctors()": "f0d95090",
      "getAllDoctorsInHospital(address)": "c266406d",
      "getAllHospitals()": "4e9f7154",
      "getAllSensorOfDoctor(address)": "9a2e5bed",
      "getAllSensors()": "5a4e5d3e",
      "hospitalCenters(uint256)": "d53d0a85",
      "sensorsDoctor(uint256)": "ea87659f"
    }
  },
  "storageLayout": {
    "storage": [
      {
        "astId": 4,
        "contract": "EHealth.sol:EHealth",
        "label": "nextIdDoctor",
        "offset": 0,
        "slot": "0",
        "type": "t_uint256"
      },
      {
        "astId": 6,
        "contract": "EHealth.sol:EHealth",
        "label": "nextIdSensor",
        "offset": 0,
        "slot": "1",
        "type": "t_uint256"
      },
      {
        "astId": 9,
        "contract": "EHealth.sol:EHealth",
        "label": "owner",
        "offset": 0,
        "slot": "2",
        "type": "t_address"
      },
      {
        "astId": 13,
        "contract": "EHealth.sol:EHealth",
        "label": "Hospitals",
        "offset": 0,
        "slot": "3",
        "type": "t_mapping(t_address,t_struct(Hospital)26_storage)"
      },
      {
        "astId": 29,
        "contract": "EHealth.sol:EHealth",
        "label": "hospitalCenters",
        "offset": 0,
        "slot": "4",
        "type": "t_array(t_struct(Hospital)26_storage)dyn_storage"
      },
      {
        "astId": 33,
        "contract": "EHealth.sol:EHealth",
        "label": "Doctors",
        "offset": 0,
        "slot": "5",
        "type": "t_mapping(t_address,t_struct(Doctor)42_storage)"
      },
      {
        "astId": 45,
        "contract": "EHealth.sol:EHealth",
        "label": "doctorsHospital",
        "offset": 0,
        "slot": "6",
        "type": "t_array(t_struct(Doctor)42_storage)dyn_storage"
      },
      {
        "astId": 49,
        "contract": "EHealth.sol:EHealth",
        "label": "Sensors",
        "offset": 0,
        "slot": "7",
        "type": "t_mapping(t_address,t_struct(Sensor)60_storage)"
      },
      {
        "astId": 63,
        "contract": "EHealth.sol:EHealth",
        "label": "sensorsDoctor",
        "offset": 0,
        "slot": "8",
        "type": "t_array(t_struct(Sensor)60_storage)dyn_storage"
      }
    ],
    "types": {
      "t_address": {
        "encoding": "inplace",
        "label": "address",
        "numberOfBytes": "20"
      },
      "t_array(t_struct(Doctor)42_storage)dyn_storage": {
        "base": "t_struct(Doctor)42_storage",
        "encoding": "dynamic_array",
        "label": "struct EHealth.Doctor[]",
        "numberOfBytes": "32"
      },
      "t_array(t_struct(Hospital)26_storage)dyn_storage": {
        "base": "t_struct(Hospital)26_storage",
        "encoding": "dynamic_array",
        "label": "struct EHealth.Hospital[]",
        "numberOfBytes": "32"
      },
      "t_array(t_struct(Sensor)60_storage)dyn_storage": {
        "base": "t_struct(Sensor)60_storage",
        "encoding": "dynamic_array",
        "label": "struct EHealth.Sensor[]",
        "numberOfBytes": "32"
      },
      "t_bool": {
        "encoding": "inplace",
        "label": "bool",
        "numberOfBytes": "1"
      },
      "t_mapping(t_address,t_struct(Doctor)42_storage)": {
        "encoding": "mapping",
        "key": "t_address",
        "label": "mapping(address => struct EHealth.Doctor)",
        "numberOfBytes": "32",
        "value": "t_struct(Doctor)42_storage"
      },
      "t_mapping(t_address,t_struct(Hospital)26_storage)": {
        "encoding": "mapping",
        "key": "t_address",
        "label": "mapping(address => struct EHealth.Hospital)",
        "numberOfBytes": "32",
        "value": "t_struct(Hospital)26_storage"
      },
      "t_mapping(t_address,t_struct(Sensor)60_storage)": {
        "encoding": "mapping",
        "key": "t_address",
        "label": "mapping(address => struct EHealth.Sensor)",
        "numberOfBytes": "32",
        "value": "t_struct(Sensor)60_storage"
      },
      "t_string_storage": {
        "encoding": "bytes",
        "label": "string",
        "numberOfBytes": "32"
      },
      "t_struct(Doctor)42_storage": {
        "encoding": "inplace",
        "label": "struct EHealth.Doctor",
        "members": [
          {
            "astId": 35,
            "contract": "EHealth.sol:EHealth",
            "label": "idDoctor",
            "offset": 0,
            "slot": "0",
            "type": "t_address"
          },
          {
            "astId": 37,
            "contract": "EHealth.sol:EHealth",
            "label": "nameDoctor",
            "offset": 0,
            "slot": "1",
            "type": "t_string_storage"
          },
          {
            "astId": 39,
            "contract": "EHealth.sol:EHealth",
            "label": "hospital",
            "offset": 0,
            "slot": "2",
            "type": "t_address"
          },
          {
            "astId": 41,
            "contract": "EHealth.sol:EHealth",
            "label": "permission",
            "offset": 20,
            "slot": "2",
            "type": "t_bool"
          }
        ],
        "numberOfBytes": "96"
      },
      "t_struct(Hospital)26_storage": {
        "encoding": "inplace",
        "label": "struct EHealth.Hospital",
        "members": [
          {
            "astId": 15,
            "contract": "EHealth.sol:EHealth",
            "label": "idHospital",
            "offset": 0,
            "slot": "0",
            "type": "t_address"
          },
          {
            "astId": 17,
            "contract": "EHealth.sol:EHealth",
            "label": "name",
            "offset": 0,
            "slot": "1",
            "type": "t_string_storage"
          },
          {
            "astId": 19,
            "contract": "EHealth.sol:EHealth",
            "label": "city",
            "offset": 0,
            "slot": "2",
            "type": "t_string_storage"
          },
          {
            "astId": 21,
            "contract": "EHealth.sol:EHealth",
            "label": "state",
            "offset": 0,
            "slot": "3",
            "type": "t_string_storage"
          },
          {
            "astId": 23,
            "contract": "EHealth.sol:EHealth",
            "label": "postalCode",
            "offset": 0,
            "slot": "4",
            "type": "t_uint256"
          },
          {
            "astId": 25,
            "contract": "EHealth.sol:EHealth",
            "label": "permission",
            "offset": 0,
            "slot": "5",
            "type": "t_bool"
          }
        ],
        "numberOfBytes": "192"
      },
      "t_struct(Sensor)60_storage": {
        "encoding": "inplace",
        "label": "struct EHealth.Sensor",
        "members": [
          {
            "astId": 51,
            "contract": "EHealth.sol:EHealth",
            "label": "idSensor",
            "offset": 0,
            "slot": "0",
            "type": "t_uint256"
          },
          {
            "astId": 53,
            "contract": "EHealth.sol:EHealth",
            "label": "MAC",
            "offset": 0,
            "slot": "1",
            "type": "t_string_storage"
          },
          {
            "astId": 55,
            "contract": "EHealth.sol:EHealth",
            "label": "patientName",
            "offset": 0,
            "slot": "2",
            "type": "t_string_storage"
          },
          {
            "astId": 57,
            "contract": "EHealth.sol:EHealth",
            "label": "idDoctor",
            "offset": 0,
            "slot": "3",
            "type": "t_address"
          },
          {
            "astId": 59,
            "contract": "EHealth.sol:EHealth",
            "label": "active",
            "offset": 20,
            "slot": "3",
            "type": "t_bool"
          }
        ],
        "numberOfBytes": "128"
      },
      "t_uint256": {
        "encoding": "inplace",
        "label": "uint256",
        "numberOfBytes": "32"
      }
    }
  },
  "userdoc": {
    "kind": "user",
    "methods": {},
    "version": 1
  },
  "address": "0xbbbA4eb21ABcD1F47eaE6587F7d6a51b24366b4F"
}