{
  "abi": [
    {
      "anonymous": false,
      "inputs": [
        {
          "indexed": false,
          "internalType": "address",
          "name": "",
          "type": "address"
        },
        {
          "indexed": false,
          "internalType": "string",
          "name": "",
          "type": "string"
        },
        {
          "indexed": false,
          "internalType": "address",
          "name": "",
          "type": "address"
        },
        {
          "indexed": false,
          "internalType": "bool",
          "name": "",
          "type": "bool"
        }
      ],
      "name": "DeleteDoctor",
      "type": "event",
      "signature": "0x780b3c74ec1e08d8c65fd8a12c6ac2da5c15f2d3b5e54335b51671f63b7d2ad0"
    },
    {
      "anonymous": false,
      "inputs": [
        {
          "indexed": false,
          "internalType": "address",
          "name": "",
          "type": "address"
        },
        {
          "indexed": false,
          "internalType": "string",
          "name": "",
          "type": "string"
        },
        {
          "indexed": false,
          "internalType": "string",
          "name": "",
          "type": "string"
        },
        {
          "indexed": false,
          "internalType": "string",
          "name": "",
          "type": "string"
        },
        {
          "indexed": false,
          "internalType": "uint256",
          "name": "",
          "type": "uint256"
        },
        {
          "indexed": false,
          "internalType": "bool",
          "name": "",
          "type": "bool"
        }
      ],
      "name": "DeleteHospital",
      "type": "event",
      "signature": "0x05818f5e23a2c2bb34c81792ea8e3397d3f8ad179cb93a5fa57b3d4681564aa0"
    },
    {
      "anonymous": false,
      "inputs": [
        {
          "indexed": false,
          "internalType": "uint256",
          "name": "",
          "type": "uint256"
        },
        {
          "indexed": false,
          "internalType": "string",
          "name": "",
          "type": "string"
        },
        {
          "indexed": false,
          "internalType": "string",
          "name": "",
          "type": "string"
        },
        {
          "indexed": false,
          "internalType": "address",
          "name": "",
          "type": "address"
        },
        {
          "indexed": false,
          "internalType": "bool",
          "name": "",
          "type": "bool"
        }
      ],
      "name": "DeleteSensor",
      "type": "event",
      "signature": "0xef9006907eb20210e880b0bb1c39946083bcec24688718507d63a259ffa8351b"
    },
    {
      "anonymous": false,
      "inputs": [
        {
          "indexed": false,
          "internalType": "address",
          "name": "",
          "type": "address"
        },
        {
          "indexed": false,
          "internalType": "string",
          "name": "",
          "type": "string"
        },
        {
          "indexed": false,
          "internalType": "address",
          "name": "",
          "type": "address"
        },
        {
          "indexed": false,
          "internalType": "bool",
          "name": "",
          "type": "bool"
        }
      ],
      "name": "NewDoctor",
      "type": "event",
      "signature": "0x4578695497af1a3a1f556f9c89f9f107851cb8e1820e4b336143406b9ba52e3b"
    },
    {
      "anonymous": false,
      "inputs": [
        {
          "indexed": false,
          "internalType": "address",
          "name": "",
          "type": "address"
        },
        {
          "indexed": false,
          "internalType": "string",
          "name": "",
          "type": "string"
        },
        {
          "indexed": false,
          "internalType": "string",
          "name": "",
          "type": "string"
        },
        {
          "indexed": false,
          "internalType": "string",
          "name": "",
          "type": "string"
        },
        {
          "indexed": false,
          "internalType": "uint256",
          "name": "",
          "type": "uint256"
        },
        {
          "indexed": false,
          "internalType": "bool",
          "name": "",
          "type": "bool"
        }
      ],
      "name": "NewHospital",
      "type": "event",
      "signature": "0xf646212acc3f5092fb0211ffd5121c0f706641b715e3982dab50afb395413dd5"
    },
    {
      "anonymous": false,
      "inputs": [
        {
          "indexed": false,
          "internalType": "uint256",
          "name": "",
          "type": "uint256"
        },
        {
          "indexed": false,
          "internalType": "string",
          "name": "",
          "type": "string"
        },
        {
          "indexed": false,
          "internalType": "string",
          "name": "",
          "type": "string"
        },
        {
          "indexed": false,
          "internalType": "address",
          "name": "",
          "type": "address"
        },
        {
          "indexed": false,
          "internalType": "bool",
          "name": "",
          "type": "bool"
        }
      ],
      "name": "NewSensor",
      "type": "event",
      "signature": "0x1d6a52c11773994a4a6eaa1ace32b929e7f0900bbe29db3f1d36a3cd45f1486c"
    },
    {
      "anonymous": false,
      "inputs": [
        {
          "indexed": false,
          "internalType": "address",
          "name": "",
          "type": "address"
        },
        {
          "indexed": false,
          "internalType": "string",
          "name": "",
          "type": "string"
        },
        {
          "indexed": false,
          "internalType": "address",
          "name": "",
          "type": "address"
        }
      ],
      "name": "RefreshDoctor",
      "type": "event",
      "signature": "0x239b189726729811e87d7845d82777804144af4e76981af04d802a85f7442b66"
    },
    {
      "anonymous": false,
      "inputs": [
        {
          "indexed": false,
          "internalType": "address",
          "name": "",
          "type": "address"
        },
        {
          "indexed": false,
          "internalType": "string",
          "name": "",
          "type": "string"
        },
        {
          "indexed": false,
          "internalType": "string",
          "name": "",
          "type": "string"
        },
        {
          "indexed": false,
          "internalType": "string",
          "name": "",
          "type": "string"
        },
        {
          "indexed": false,
          "internalType": "uint256",
          "name": "",
          "type": "uint256"
        },
        {
          "indexed": false,
          "internalType": "bool",
          "name": "",
          "type": "bool"
        }
      ],
      "name": "RefreshHospital",
      "type": "event",
      "signature": "0x5975e6fed8802a324436eb320387035d99d011c9901bb75b34b8c23b91250c1c"
    },
    {
      "anonymous": false,
      "inputs": [
        {
          "indexed": false,
          "internalType": "uint256",
          "name": "",
          "type": "uint256"
        },
        {
          "indexed": false,
          "internalType": "string",
          "name": "",
          "type": "string"
        },
        {
          "indexed": false,
          "internalType": "string",
          "name": "",
          "type": "string"
        },
        {
          "indexed": false,
          "internalType": "address",
          "name": "",
          "type": "address"
        }
      ],
      "name": "RefreshSensor",
      "type": "event",
      "signature": "0xba2bd0d5052fb9458eaac383932e8112a57bfc6a1836ad7118b1673447d3e6ae"
    },
    {
      "inputs": [
        {
          "internalType": "address",
          "name": "idDoctor",
          "type": "address"
        },
        {
          "internalType": "string",
          "name": "_nameDoctor",
          "type": "string"
        },
        {
          "internalType": "address",
          "name": "_hospital",
          "type": "address"
        }
      ],
      "name": "AddDoctor",
      "outputs": [],
      "stateMutability": "nonpayable",
      "type": "function",
      "signature": "0xe1ee3b56"
    },
    {
      "inputs": [
        {
          "internalType": "address",
          "name": "_idHospital",
          "type": "address"
        },
        {
          "internalType": "string",
          "name": "_name",
          "type": "string"
        },
        {
          "internalType": "string",
          "name": "_city",
          "type": "string"
        },
        {
          "internalType": "string",
          "name": "_state",
          "type": "string"
        },
        {
          "internalType": "uint256",
          "name": "_postalCode",
          "type": "uint256"
        }
      ],
      "name": "AddHospital",
      "outputs": [],
      "stateMutability": "nonpayable",
      "type": "function",
      "signature": "0xa27876c5"
    },
    {
      "inputs": [
        {
          "internalType": "string",
          "name": "_mac",
          "type": "string"
        },
        {
          "internalType": "string",
          "name": "_patientName",
          "type": "string"
        },
        {
          "internalType": "address",
          "name": "_idDoctor",
          "type": "address"
        },
        {
          "internalType": "bool",
          "name": "_active",
          "type": "bool"
        }
      ],
      "name": "AddSensor",
      "outputs": [],
      "stateMutability": "nonpayable",
      "type": "function",
      "signature": "0x1b057e40"
    },
    {
      "inputs": [
        {
          "internalType": "address",
          "name": "",
          "type": "address"
        }
      ],
      "name": "Doctors",
      "outputs": [
        {
          "internalType": "address",
          "name": "idDoctor",
          "type": "address"
        },
        {
          "internalType": "string",
          "name": "nameDoctor",
          "type": "string"
        },
        {
          "internalType": "address",
          "name": "hospital",
          "type": "address"
        },
        {
          "internalType": "bool",
          "name": "permission",
          "type": "bool"
        }
      ],
      "stateMutability": "view",
      "type": "function",
      "constant": true,
      "signature": "0xdc7aa36b"
    },
    {
      "inputs": [
        {
          "internalType": "address",
          "name": "",
          "type": "address"
        }
      ],
      "name": "Hospitals",
      "outputs": [
        {
          "internalType": "address",
          "name": "idHospital",
          "type": "address"
        },
        {
          "internalType": "string",
          "name": "name",
          "type": "string"
        },
        {
          "internalType": "string",
          "name": "city",
          "type": "string"
        },
        {
          "internalType": "string",
          "name": "state",
          "type": "string"
        },
        {
          "internalType": "uint256",
          "name": "postalCode",
          "type": "uint256"
        },
        {
          "internalType": "bool",
          "name": "permission",
          "type": "bool"
        }
      ],
      "stateMutability": "view",
      "type": "function",
      "constant": true,
      "signature": "0xa549a4ed"
    },
    {
      "inputs": [],
      "name": "Length_Doctors",
      "outputs": [
        {
          "internalType": "uint256",
          "name": "",
          "type": "uint256"
        }
      ],
      "stateMutability": "view",
      "type": "function",
      "constant": true,
      "signature": "0x1ba51696"
    },
    {
      "inputs": [],
      "name": "Length_Hospitals",
      "outputs": [
        {
          "internalType": "uint256",
          "name": "",
          "type": "uint256"
        }
      ],
      "stateMutability": "view",
      "type": "function",
      "constant": true,
      "signature": "0xa17d7a38"
    },
    {
      "inputs": [],
      "name": "Length_sensors",
      "outputs": [
        {
          "internalType": "uint256",
          "name": "",
          "type": "uint256"
        }
      ],
      "stateMutability": "view",
      "type": "function",
      "constant": true,
      "signature": "0xb5843613"
    },
    {
      "inputs": [
        {
          "internalType": "address",
          "name": "_id",
          "type": "address"
        }
      ],
      "name": "ReadDoctor",
      "outputs": [
        {
          "internalType": "string",
          "name": "",
          "type": "string"
        },
        {
          "internalType": "address",
          "name": "",
          "type": "address"
        },
        {
          "internalType": "bool",
          "name": "",
          "type": "bool"
        }
      ],
      "stateMutability": "view",
      "type": "function",
      "constant": true,
      "signature": "0x6cd8ebdc"
    },
    {
      "inputs": [
        {
          "internalType": "address",
          "name": "_address",
          "type": "address"
        }
      ],
      "name": "ReadHospital",
      "outputs": [
        {
          "internalType": "string",
          "name": "",
          "type": "string"
        },
        {
          "internalType": "string",
          "name": "",
          "type": "string"
        },
        {
          "internalType": "string",
          "name": "",
          "type": "string"
        },
        {
          "internalType": "uint256",
          "name": "",
          "type": "uint256"
        },
        {
          "internalType": "bool",
          "name": "",
          "type": "bool"
        }
      ],
      "stateMutability": "view",
      "type": "function",
      "constant": true,
      "signature": "0x9b70e779"
    },
    {
      "inputs": [
        {
          "internalType": "uint256",
          "name": "_id",
          "type": "uint256"
        }
      ],
      "name": "ReadSensor",
      "outputs": [
        {
          "internalType": "string",
          "name": "",
          "type": "string"
        },
        {
          "internalType": "string",
          "name": "",
          "type": "string"
        },
        {
          "internalType": "address",
          "name": "",
          "type": "address"
        },
        {
          "internalType": "bool",
          "name": "",
          "type": "bool"
        }
      ],
      "stateMutability": "view",
      "type": "function",
      "constant": true,
      "signature": "0x02655c2e"
    },
    {
      "inputs": [
        {
          "internalType": "address",
          "name": "_id",
          "type": "address"
        }
      ],
      "name": "RemoveDoctor",
      "outputs": [],
      "stateMutability": "nonpayable",
      "type": "function",
      "signature": "0xa0568e2d"
    },
    {
      "inputs": [
        {
          "internalType": "address",
          "name": "_address",
          "type": "address"
        }
      ],
      "name": "RemoveHospital",
      "outputs": [],
      "stateMutability": "nonpayable",
      "type": "function",
      "signature": "0x4807fc69"
    },
    {
      "inputs": [
        {
          "internalType": "uint256",
          "name": "_id",
          "type": "uint256"
        }
      ],
      "name": "RemoveSensor",
      "outputs": [],
      "stateMutability": "nonpayable",
      "type": "function",
      "signature": "0x6151efb1"
    },
    {
      "inputs": [
        {
          "internalType": "address",
          "name": "",
          "type": "address"
        }
      ],
      "name": "Sensors",
      "outputs": [
        {
          "internalType": "uint256",
          "name": "idSensor",
          "type": "uint256"
        },
        {
          "internalType": "string",
          "name": "MAC",
          "type": "string"
        },
        {
          "internalType": "string",
          "name": "patientName",
          "type": "string"
        },
        {
          "internalType": "address",
          "name": "idDoctor",
          "type": "address"
        },
        {
          "internalType": "bool",
          "name": "active",
          "type": "bool"
        }
      ],
      "stateMutability": "view",
      "type": "function",
      "constant": true,
      "signature": "0x898bd140"
    },
    {
      "inputs": [
        {
          "internalType": "address",
          "name": "_id",
          "type": "address"
        },
        {
          "internalType": "string",
          "name": "_nameDoctor",
          "type": "string"
        },
        {
          "internalType": "address",
          "name": "_hospital",
          "type": "address"
        }
      ],
      "name": "UpdateDoctor",
      "outputs": [],
      "stateMutability": "nonpayable",
      "type": "function",
      "signature": "0x1bdc5098"
    },
    {
      "inputs": [
        {
          "internalType": "address",
          "name": "_address",
          "type": "address"
        },
        {
          "internalType": "string",
          "name": "_name",
          "type": "string"
        },
        {
          "internalType": "string",
          "name": "_city",
          "type": "string"
        },
        {
          "internalType": "string",
          "name": "_state",
          "type": "string"
        },
        {
          "internalType": "uint256",
          "name": "_postalCode",
          "type": "uint256"
        },
        {
          "internalType": "bool",
          "name": "_permission",
          "type": "bool"
        }
      ],
      "name": "UpdateHospital",
      "outputs": [],
      "stateMutability": "nonpayable",
      "type": "function",
      "signature": "0x7fe53f83"
    },
    {
      "inputs": [
        {
          "internalType": "uint256",
          "name": "_id",
          "type": "uint256"
        },
        {
          "internalType": "string",
          "name": "_mac",
          "type": "string"
        },
        {
          "internalType": "string",
          "name": "_patientName",
          "type": "string"
        },
        {
          "internalType": "address",
          "name": "_idDoctor",
          "type": "address"
        }
      ],
      "name": "UpdateSensor",
      "outputs": [],
      "stateMutability": "nonpayable",
      "type": "function",
      "signature": "0x459d470e"
    },
    {
      "inputs": [
        {
          "internalType": "uint256",
          "name": "",
          "type": "uint256"
        }
      ],
      "name": "doctorsHospital",
      "outputs": [
        {
          "internalType": "address",
          "name": "idDoctor",
          "type": "address"
        },
        {
          "internalType": "string",
          "name": "nameDoctor",
          "type": "string"
        },
        {
          "internalType": "address",
          "name": "hospital",
          "type": "address"
        },
        {
          "internalType": "bool",
          "name": "permission",
          "type": "bool"
        }
      ],
      "stateMutability": "view",
      "type": "function",
      "constant": true,
      "signature": "0x8db2fc41"
    },
    {
      "inputs": [],
      "name": "getAllDoctors",
      "outputs": [
        {
          "components": [
            {
              "internalType": "address",
              "name": "idDoctor",
              "type": "address"
            },
            {
              "internalType": "string",
              "name": "nameDoctor",
              "type": "string"
            },
            {
              "internalType": "address",
              "name": "hospital",
              "type": "address"
            },
            {
              "internalType": "bool",
              "name": "permission",
              "type": "bool"
            }
          ],
          "internalType": "struct EHealth.Doctor[]",
          "name": "",
          "type": "tuple[]"
        }
      ],
      "stateMutability": "view",
      "type": "function",
      "constant": true,
      "signature": "0xf0d95090"
    },
    {
      "inputs": [
        {
          "internalType": "address",
          "name": "_address",
          "type": "address"
        }
      ],
      "name": "getAllDoctorsInHospital",
      "outputs": [
        {
          "components": [
            {
              "internalType": "address",
              "name": "idDoctor",
              "type": "address"
            },
            {
              "internalType": "string",
              "name": "nameDoctor",
              "type": "string"
            },
            {
              "internalType": "address",
              "name": "hospital",
              "type": "address"
            },
            {
              "internalType": "bool",
              "name": "permission",
              "type": "bool"
            }
          ],
          "internalType": "struct EHealth.Doctor[]",
          "name": "",
          "type": "tuple[]"
        }
      ],
      "stateMutability": "view",
      "type": "function",
      "constant": true,
      "signature": "0xc266406d"
    },
    {
      "inputs": [],
      "name": "getAllHospitals",
      "outputs": [
        {
          "components": [
            {
              "internalType": "address",
              "name": "idHospital",
              "type": "address"
            },
            {
              "internalType": "string",
              "name": "name",
              "type": "string"
            },
            {
              "internalType": "string",
              "name": "city",
              "type": "string"
            },
            {
              "internalType": "string",
              "name": "state",
              "type": "string"
            },
            {
              "internalType": "uint256",
              "name": "postalCode",
              "type": "uint256"
            },
            {
              "internalType": "bool",
              "name": "permission",
              "type": "bool"
            }
          ],
          "internalType": "struct EHealth.Hospital[]",
          "name": "",
          "type": "tuple[]"
        }
      ],
      "stateMutability": "view",
      "type": "function",
      "constant": true,
      "signature": "0x4e9f7154"
    },
    {
      "inputs": [
        {
          "internalType": "address",
          "name": "_idDoctor",
          "type": "address"
        }
      ],
      "name": "getAllSensorOfDoctor",
      "outputs": [
        {
          "components": [
            {
              "internalType": "uint256",
              "name": "idSensor",
              "type": "uint256"
            },
            {
              "internalType": "string",
              "name": "MAC",
              "type": "string"
            },
            {
              "internalType": "string",
              "name": "patientName",
              "type": "string"
            },
            {
              "internalType": "address",
              "name": "idDoctor",
              "type": "address"
            },
            {
              "internalType": "bool",
              "name": "active",
              "type": "bool"
            }
          ],
          "internalType": "struct EHealth.Sensor[]",
          "name": "",
          "type": "tuple[]"
        }
      ],
      "stateMutability": "view",
      "type": "function",
      "constant": true,
      "signature": "0x9a2e5bed"
    },
    {
      "inputs": [],
      "name": "getAllSensors",
      "outputs": [
        {
          "components": [
            {
              "internalType": "uint256",
              "name": "idSensor",
              "type": "uint256"
            },
            {
              "internalType": "string",
              "name": "MAC",
              "type": "string"
            },
            {
              "internalType": "string",
              "name": "patientName",
              "type": "string"
            },
            {
              "internalType": "address",
              "name": "idDoctor",
              "type": "address"
            },
            {
              "internalType": "bool",
              "name": "active",
              "type": "bool"
            }
          ],
          "internalType": "struct EHealth.Sensor[]",
          "name": "",
          "type": "tuple[]"
        }
      ],
      "stateMutability": "view",
      "type": "function",
      "constant": true,
      "signature": "0x5a4e5d3e"
    },
    {
      "inputs": [
        {
          "internalType": "uint256",
          "name": "",
          "type": "uint256"
        }
      ],
      "name": "hospitalCenters",
      "outputs": [
        {
          "internalType": "address",
          "name": "idHospital",
          "type": "address"
        },
        {
          "internalType": "string",
          "name": "name",
          "type": "string"
        },
        {
          "internalType": "string",
          "name": "city",
          "type": "string"
        },
        {
          "internalType": "string",
          "name": "state",
          "type": "string"
        },
        {
          "internalType": "uint256",
          "name": "postalCode",
          "type": "uint256"
        },
        {
          "internalType": "bool",
          "name": "permission",
          "type": "bool"
        }
      ],
      "stateMutability": "view",
      "type": "function",
      "constant": true,
      "signature": "0xd53d0a85"
    },
    {
      "inputs": [
        {
          "internalType": "uint256",
          "name": "",
          "type": "uint256"
        }
      ],
      "name": "sensorsDoctor",
      "outputs": [
        {
          "internalType": "uint256",
          "name": "idSensor",
          "type": "uint256"
        },
        {
          "internalType": "string",
          "name": "MAC",
          "type": "string"
        },
        {
          "internalType": "string",
          "name": "patientName",
          "type": "string"
        },
        {
          "internalType": "address",
          "name": "idDoctor",
          "type": "address"
        },
        {
          "internalType": "bool",
          "name": "active",
          "type": "bool"
        }
      ],
      "stateMutability": "view",
      "type": "function",
      "constant": true,
      "signature": "0xea87659f"
    }
  ],
  "devdoc": {
    "kind": "dev",
    "methods": {},
    "version": 1
  },
  "evm": {
    "assembly": "    /* \"EHealth.sol\":119:9988  contract EHealth {\r... */\n  mstore(0x40, 0x80)\n    /* \"EHealth.sol\":232:274  0x8FcF3B91599C6d5bb93D8c7df9f3974C622b83a4 */\n  0x8fcf3b91599c6d5bb93d8c7df9f3974c622b83a4\n    /* \"EHealth.sol\":216:274  address owner = 0x8FcF3B91599C6d5bb93D8c7df9f3974C622b83a4 */\n  0x02\n  exp(0x0100, 0x00)\n  dup2\n  sload\n  dup2\n  0xffffffffffffffffffffffffffffffffffffffff\n  mul\n  not\n  and\n  swap1\n  dup4\n  0xffffffffffffffffffffffffffffffffffffffff\n  and\n  mul\n  or\n  swap1\n  sstore\n  pop\n    /* \"EHealth.sol\":119:9988  contract EHealth {\r... */\n  callvalue\n  dup1\n  iszero\n  tag_1\n  jumpi\n  0x00\n  dup1\n  revert\ntag_1:\n  pop\n  dataSize(sub_0)\n  dup1\n  dataOffset(sub_0)\n  0x00\n  codecopy\n  0x00\n  return\nstop\n\nsub_0: assembly {\n        /* \"EHealth.sol\":119:9988  contract EHealth {\r... */\n      mstore(0x40, 0x80)\n      callvalue\n      dup1\n      iszero\n      tag_1\n      jumpi\n      0x00\n      dup1\n      revert\n    tag_1:\n      pop\n      jumpi(tag_2, lt(calldatasize, 0x04))\n      shr(0xe0, calldataload(0x00))\n      dup1\n      0x9a2e5bed\n      gt\n      tag_29\n      jumpi\n      dup1\n      0xb5843613\n      gt\n      tag_30\n      jumpi\n      dup1\n      0xdc7aa36b\n      gt\n      tag_31\n      jumpi\n      dup1\n      0xdc7aa36b\n      eq\n      tag_25\n      jumpi\n      dup1\n      0xe1ee3b56\n      eq\n      tag_26\n      jumpi\n      dup1\n      0xea87659f\n      eq\n      tag_27\n      jumpi\n      dup1\n      0xf0d95090\n      eq\n      tag_28\n      jumpi\n      jump(tag_2)\n    tag_31:\n      dup1\n      0xb5843613\n      eq\n      tag_22\n      jumpi\n      dup1\n      0xc266406d\n      eq\n      tag_23\n      jumpi\n      dup1\n      0xd53d0a85\n      eq\n      tag_24\n      jumpi\n      jump(tag_2)\n    tag_30:\n      dup1\n      0x9a2e5bed\n      eq\n      tag_16\n      jumpi\n      dup1\n      0x9b70e779\n      eq\n      tag_17\n      jumpi\n      dup1\n      0xa0568e2d\n      eq\n      tag_18\n      jumpi\n      dup1\n      0xa17d7a38\n      eq\n      tag_19\n      jumpi\n      dup1\n      0xa27876c5\n      eq\n      tag_20\n      jumpi\n      dup1\n      0xa549a4ed\n      eq\n      tag_21\n      jumpi\n      jump(tag_2)\n    tag_29:\n      dup1\n      0x4e9f7154\n      gt\n      tag_32\n      jumpi\n      dup1\n      0x6cd8ebdc\n      gt\n      tag_33\n      jumpi\n      dup1\n      0x6cd8ebdc\n      eq\n      tag_12\n      jumpi\n      dup1\n      0x7fe53f83\n      eq\n      tag_13\n      jumpi\n      dup1\n      0x898bd140\n      eq\n      tag_14\n      jumpi\n      dup1\n      0x8db2fc41\n      eq\n      tag_15\n      jumpi\n      jump(tag_2)\n    tag_33:\n      dup1\n      0x4e9f7154\n      eq\n      tag_9\n      jumpi\n      dup1\n      0x5a4e5d3e\n      eq\n      tag_10\n      jumpi\n      dup1\n      0x6151efb1\n      eq\n      tag_11\n      jumpi\n      jump(tag_2)\n    tag_32:\n      dup1\n      0x02655c2e\n      eq\n      tag_3\n      jumpi\n      dup1\n      0x1b057e40\n      eq\n      tag_4\n      jumpi\n      dup1\n      0x1ba51696\n      eq\n      tag_5\n      jumpi\n      dup1\n      0x1bdc5098\n      eq\n      tag_6\n      jumpi\n      dup1\n      0x459d470e\n      eq\n      tag_7\n      jumpi\n      dup1\n      0x4807fc69\n      eq\n      tag_8\n      jumpi\n    tag_2:\n      0x00\n      dup1\n      revert\n        /* \"EHealth.sol\":8866:9140  function ReadSensor(uint _id)public view returns(string memory,string memory, address, bool){\r... */\n    tag_3:\n      tag_34\n      0x04\n      dup1\n      calldatasize\n      sub\n      dup2\n      add\n      swap1\n      tag_35\n      swap2\n      swap1\n      tag_36\n      jump\t// in\n    tag_35:\n      tag_37\n      jump\t// in\n    tag_34:\n      mload(0x40)\n      tag_38\n      swap5\n      swap4\n      swap3\n      swap2\n      swap1\n      tag_39\n      jump\t// in\n    tag_38:\n      mload(0x40)\n      dup1\n      swap2\n      sub\n      swap1\n      return\n        /* \"EHealth.sol\":7294:7634  function AddSensor(string memory _mac, string memory _patientName, address _idDoctor, bool _active) public {\r... */\n    tag_4:\n      tag_40\n      0x04\n      dup1\n      calldatasize\n      sub\n      dup2\n      add\n      swap1\n      tag_41\n      swap2\n      swap1\n      tag_42\n      jump\t// in\n    tag_41:\n      tag_43\n      jump\t// in\n    tag_40:\n      stop\n        /* \"EHealth.sol\":6338:6441  function Length_Doctors() public view returns (uint256){\r... */\n    tag_5:\n      tag_44\n      tag_45\n      jump\t// in\n    tag_44:\n      mload(0x40)\n      tag_46\n      swap2\n      swap1\n      tag_47\n      jump\t// in\n    tag_46:\n      mload(0x40)\n      dup1\n      swap2\n      sub\n      swap1\n      return\n        /* \"EHealth.sol\":5622:6024  function UpdateDoctor(address _id, string memory _nameDoctor, address _hospital ) public {\r... */\n    tag_6:\n      tag_48\n      0x04\n      dup1\n      calldatasize\n      sub\n      dup2\n      add\n      swap1\n      tag_49\n      swap2\n      swap1\n      tag_50\n      jump\t// in\n    tag_49:\n      tag_51\n      jump\t// in\n    tag_48:\n      stop\n        /* \"EHealth.sol\":8356:8833  function UpdateSensor(uint _id, string memory _mac, string memory _patientName,address _idDoctor ) public {\r... */\n    tag_7:\n      tag_52\n      0x04\n      dup1\n      calldatasize\n      sub\n      dup2\n      add\n      swap1\n      tag_53\n      swap2\n      swap1\n      tag_54\n      jump\t// in\n    tag_53:\n      tag_55\n      jump\t// in\n    tag_52:\n      stop\n        /* \"EHealth.sol\":2464:2890  function RemoveHospital(address _address) public {\r... */\n    tag_8:\n      tag_56\n      0x04\n      dup1\n      calldatasize\n      sub\n      dup2\n      add\n      swap1\n      tag_57\n      swap2\n      swap1\n      tag_58\n      jump\t// in\n    tag_57:\n      tag_59\n      jump\t// in\n    tag_56:\n      stop\n        /* \"EHealth.sol\":3695:3974  function getAllHospitals() public view returns (Hospital[] memory){\r... */\n    tag_9:\n      tag_60\n      tag_61\n      jump\t// in\n    tag_60:\n      mload(0x40)\n      tag_62\n      swap2\n      swap1\n      tag_63\n      jump\t// in\n    tag_62:\n      mload(0x40)\n      dup1\n      swap2\n      sub\n      swap1\n      return\n        /* \"EHealth.sol\":9305:9570  function getAllSensors() public view returns (Sensor[] memory){\r... */\n    tag_10:\n      tag_64\n      tag_65\n      jump\t// in\n    tag_64:\n      mload(0x40)\n      tag_66\n      swap2\n      swap1\n      tag_67\n      jump\t// in\n    tag_66:\n      mload(0x40)\n      dup1\n      swap2\n      sub\n      swap1\n      return\n        /* \"EHealth.sol\":7976:8321  function RemoveSensor(uint _id) public {\r... */\n    tag_11:\n      tag_68\n      0x04\n      dup1\n      calldatasize\n      sub\n      dup2\n      add\n      swap1\n      tag_69\n      swap2\n      swap1\n      tag_36\n      jump\t// in\n    tag_69:\n      tag_70\n      jump\t// in\n    tag_68:\n      stop\n        /* \"EHealth.sol\":6057:6304  function ReadDoctor(address _id)public view returns(string memory, address, bool){\r... */\n    tag_12:\n      tag_71\n      0x04\n      dup1\n      calldatasize\n      sub\n      dup2\n      add\n      swap1\n      tag_72\n      swap2\n      swap1\n      tag_58\n      jump\t// in\n    tag_72:\n      tag_73\n      jump\t// in\n    tag_71:\n      mload(0x40)\n      tag_74\n      swap4\n      swap3\n      swap2\n      swap1\n      tag_75\n      jump\t// in\n    tag_74:\n      mload(0x40)\n      dup1\n      swap2\n      sub\n      swap1\n      return\n        /* \"EHealth.sol\":2929:3662  function UpdateHospital(address _address, string memory _name, string memory _city, string memory _state, uint _postalCode, bool _permission ) public {\r... */\n    tag_13:\n      tag_76\n      0x04\n      dup1\n      calldatasize\n      sub\n      dup2\n      add\n      swap1\n      tag_77\n      swap2\n      swap1\n      tag_78\n      jump\t// in\n    tag_77:\n      tag_79\n      jump\t// in\n    tag_76:\n      stop\n        /* \"EHealth.sol\":864:904  mapping(address=> Sensor) public Sensors */\n    tag_14:\n      tag_80\n      0x04\n      dup1\n      calldatasize\n      sub\n      dup2\n      add\n      swap1\n      tag_81\n      swap2\n      swap1\n      tag_58\n      jump\t// in\n    tag_81:\n      tag_82\n      jump\t// in\n    tag_80:\n      mload(0x40)\n      tag_83\n      swap6\n      swap5\n      swap4\n      swap3\n      swap2\n      swap1\n      tag_84\n      jump\t// in\n    tag_83:\n      mload(0x40)\n      dup1\n      swap2\n      sub\n      swap1\n      return\n        /* \"EHealth.sol\":808:839  Doctor[] public doctorsHospital */\n    tag_15:\n      tag_85\n      0x04\n      dup1\n      calldatasize\n      sub\n      dup2\n      add\n      swap1\n      tag_86\n      swap2\n      swap1\n      tag_36\n      jump\t// in\n    tag_86:\n      tag_87\n      jump\t// in\n    tag_85:\n      mload(0x40)\n      tag_88\n      swap5\n      swap4\n      swap3\n      swap2\n      swap1\n      tag_89\n      jump\t// in\n    tag_88:\n      mload(0x40)\n      dup1\n      swap2\n      sub\n      swap1\n      return\n        /* \"EHealth.sol\":9619:9985  function getAllSensorOfDoctor (address _idDoctor) public view returns (Sensor[] memory){\r... */\n    tag_16:\n      tag_90\n      0x04\n      dup1\n      calldatasize\n      sub\n      dup2\n      add\n      swap1\n      tag_91\n      swap2\n      swap1\n      tag_58\n      jump\t// in\n    tag_91:\n      tag_92\n      jump\t// in\n    tag_90:\n      mload(0x40)\n      tag_93\n      swap2\n      swap1\n      tag_67\n      jump\t// in\n    tag_93:\n      mload(0x40)\n      dup1\n      swap2\n      sub\n      swap1\n      return\n        /* \"EHealth.sol\":4154:4505  function ReadHospital(address _address)public view returns(string memory, string memory, string memory, uint, bool){\r... */\n    tag_17:\n      tag_94\n      0x04\n      dup1\n      calldatasize\n      sub\n      dup2\n      add\n      swap1\n      tag_95\n      swap2\n      swap1\n      tag_58\n      jump\t// in\n    tag_95:\n      tag_96\n      jump\t// in\n    tag_94:\n      mload(0x40)\n      tag_97\n      swap6\n      swap5\n      swap4\n      swap3\n      swap2\n      swap1\n      tag_98\n      jump\t// in\n    tag_97:\n      mload(0x40)\n      dup1\n      swap2\n      sub\n      swap1\n      return\n        /* \"EHealth.sol\":5257:5587  function RemoveDoctor(address _id) public {\r... */\n    tag_18:\n      tag_99\n      0x04\n      dup1\n      calldatasize\n      sub\n      dup2\n      add\n      swap1\n      tag_100\n      swap2\n      swap1\n      tag_58\n      jump\t// in\n    tag_100:\n      tag_101\n      jump\t// in\n    tag_99:\n      stop\n        /* \"EHealth.sol\":4012:4117  function Length_Hospitals() public view returns (uint256){\r... */\n    tag_19:\n      tag_102\n      tag_103\n      jump\t// in\n    tag_102:\n      mload(0x40)\n      tag_104\n      swap2\n      swap1\n      tag_47\n      jump\t// in\n    tag_104:\n      mload(0x40)\n      dup1\n      swap2\n      sub\n      swap1\n      return\n        /* \"EHealth.sol\":1804:2120  function AddHospital(address _idHospital, string memory _name, string memory _city, string memory _state, uint _postalCode ) public {\r... */\n    tag_20:\n      tag_105\n      0x04\n      dup1\n      calldatasize\n      sub\n      dup2\n      add\n      swap1\n      tag_106\n      swap2\n      swap1\n      tag_107\n      jump\t// in\n    tag_106:\n      tag_108\n      jump\t// in\n    tag_105:\n      stop\n        /* \"EHealth.sol\":301:345  mapping(address=> Hospital) public Hospitals */\n    tag_21:\n      tag_109\n      0x04\n      dup1\n      calldatasize\n      sub\n      dup2\n      add\n      swap1\n      tag_110\n      swap2\n      swap1\n      tag_58\n      jump\t// in\n    tag_110:\n      tag_111\n      jump\t// in\n    tag_109:\n      mload(0x40)\n      tag_112\n      swap7\n      swap6\n      swap5\n      swap4\n      swap3\n      swap2\n      swap1\n      tag_113\n      jump\t// in\n    tag_112:\n      mload(0x40)\n      dup1\n      swap2\n      sub\n      swap1\n      return\n        /* \"EHealth.sol\":9174:9275  function Length_sensors() public view returns (uint256){\r... */\n    tag_22:\n      tag_114\n      tag_115\n      jump\t// in\n    tag_114:\n      mload(0x40)\n      tag_116\n      swap2\n      swap1\n      tag_47\n      jump\t// in\n    tag_116:\n      mload(0x40)\n      dup1\n      swap2\n      sub\n      swap1\n      return\n        /* \"EHealth.sol\":6784:7158  function getAllDoctorsInHospital(address _address) public view returns (Doctor[] memory){\r... */\n    tag_23:\n      tag_117\n      0x04\n      dup1\n      calldatasize\n      sub\n      dup2\n      add\n      swap1\n      tag_118\n      swap2\n      swap1\n      tag_58\n      jump\t// in\n    tag_118:\n      tag_119\n      jump\t// in\n    tag_117:\n      mload(0x40)\n      tag_120\n      swap2\n      swap1\n      tag_121\n      jump\t// in\n    tag_120:\n      mload(0x40)\n      dup1\n      swap2\n      sub\n      swap1\n      return\n        /* \"EHealth.sol\":536:569  Hospital[] public hospitalCenters */\n    tag_24:\n      tag_122\n      0x04\n      dup1\n      calldatasize\n      sub\n      dup2\n      add\n      swap1\n      tag_123\n      swap2\n      swap1\n      tag_36\n      jump\t// in\n    tag_123:\n      tag_124\n      jump\t// in\n    tag_122:\n      mload(0x40)\n      tag_125\n      swap7\n      swap6\n      swap5\n      swap4\n      swap3\n      swap2\n      swap1\n      tag_113\n      jump\t// in\n    tag_125:\n      mload(0x40)\n      dup1\n      swap2\n      sub\n      swap1\n      return\n        /* \"EHealth.sol\":598:638  mapping(address=> Doctor) public Doctors */\n    tag_25:\n      tag_126\n      0x04\n      dup1\n      calldatasize\n      sub\n      dup2\n      add\n      swap1\n      tag_127\n      swap2\n      swap1\n      tag_58\n      jump\t// in\n    tag_127:\n      tag_128\n      jump\t// in\n    tag_126:\n      mload(0x40)\n      tag_129\n      swap5\n      swap4\n      swap3\n      swap2\n      swap1\n      tag_89\n      jump\t// in\n    tag_129:\n      mload(0x40)\n      dup1\n      swap2\n      sub\n      swap1\n      return\n        /* \"EHealth.sol\":4639:4912  function AddDoctor(address idDoctor, string memory _nameDoctor, address _hospital) public {\r... */\n    tag_26:\n      tag_130\n      0x04\n      dup1\n      calldatasize\n      sub\n      dup2\n      add\n      swap1\n      tag_131\n      swap2\n      swap1\n      tag_50\n      jump\t// in\n    tag_131:\n      tag_132\n      jump\t// in\n    tag_130:\n      stop\n        /* \"EHealth.sol\":1092:1121  Sensor[] public sensorsDoctor */\n    tag_27:\n      tag_133\n      0x04\n      dup1\n      calldatasize\n      sub\n      dup2\n      add\n      swap1\n      tag_134\n      swap2\n      swap1\n      tag_36\n      jump\t// in\n    tag_134:\n      tag_135\n      jump\t// in\n    tag_133:\n      mload(0x40)\n      tag_136\n      swap6\n      swap5\n      swap4\n      swap3\n      swap2\n      swap1\n      tag_84\n      jump\t// in\n    tag_136:\n      mload(0x40)\n      dup1\n      swap2\n      sub\n      swap1\n      return\n        /* \"EHealth.sol\":6471:6742  function getAllDoctors() public view returns (Doctor[] memory){\r... */\n    tag_28:\n      tag_137\n      tag_138\n      jump\t// in\n    tag_137:\n      mload(0x40)\n      tag_139\n      swap2\n      swap1\n      tag_121\n      jump\t// in\n    tag_139:\n      mload(0x40)\n      dup1\n      swap2\n      sub\n      swap1\n      return\n        /* \"EHealth.sol\":8866:9140  function ReadSensor(uint _id)public view returns(string memory,string memory, address, bool){\r... */\n    tag_37:\n        /* \"EHealth.sol\":8915:8928  string memory */\n      0x60\n        /* \"EHealth.sol\":8929:8942  string memory */\n      dup1\n        /* \"EHealth.sol\":8944:8951  address */\n      0x00\n        /* \"EHealth.sol\":8953:8957  bool */\n      dup1\n        /* \"EHealth.sol\":8969:8979  uint index */\n      0x00\n        /* \"EHealth.sol\":8982:8997  FindSensor(_id) */\n      tag_141\n        /* \"EHealth.sol\":8993:8996  _id */\n      dup7\n        /* \"EHealth.sol\":8982:8992  FindSensor */\n      tag_142\n        /* \"EHealth.sol\":8982:8997  FindSensor(_id) */\n      jump\t// in\n    tag_141:\n        /* \"EHealth.sol\":8969:8997  uint index = FindSensor(_id) */\n      swap1\n      pop\n        /* \"EHealth.sol\":9016:9029  sensorsDoctor */\n      0x08\n        /* \"EHealth.sol\":9030:9035  index */\n      dup2\n        /* \"EHealth.sol\":9016:9036  sensorsDoctor[index] */\n      dup2\n      sload\n      dup2\n      lt\n      tag_143\n      jumpi\n      invalid\n    tag_143:\n      swap1\n      0x00\n      mstore\n      keccak256(0x00, 0x20)\n      swap1\n      0x04\n      mul\n      add\n        /* \"EHealth.sol\":9016:9040  sensorsDoctor[index].MAC */\n      0x01\n      add\n        /* \"EHealth.sol\":9041:9054  sensorsDoctor */\n      0x08\n        /* \"EHealth.sol\":9055:9060  index */\n      dup3\n        /* \"EHealth.sol\":9041:9061  sensorsDoctor[index] */\n      dup2\n      sload\n      dup2\n      lt\n      tag_145\n      jumpi\n      invalid\n    tag_145:\n      swap1\n      0x00\n      mstore\n      keccak256(0x00, 0x20)\n      swap1\n      0x04\n      mul\n      add\n        /* \"EHealth.sol\":9041:9073  sensorsDoctor[index].patientName */\n      0x02\n      add\n        /* \"EHealth.sol\":9074:9087  sensorsDoctor */\n      0x08\n        /* \"EHealth.sol\":9088:9093  index */\n      dup4\n        /* \"EHealth.sol\":9074:9094  sensorsDoctor[index] */\n      dup2\n      sload\n      dup2\n      lt\n      tag_147\n      jumpi\n      invalid\n    tag_147:\n      swap1\n      0x00\n      mstore\n      keccak256(0x00, 0x20)\n      swap1\n      0x04\n      mul\n      add\n        /* \"EHealth.sol\":9074:9103  sensorsDoctor[index].idDoctor */\n      0x03\n      add\n      0x00\n      swap1\n      sload\n      swap1\n      0x0100\n      exp\n      swap1\n      div\n      0xffffffffffffffffffffffffffffffffffffffff\n      and\n        /* \"EHealth.sol\":9104:9117  sensorsDoctor */\n      0x08\n        /* \"EHealth.sol\":9118:9123  index */\n      dup5\n        /* \"EHealth.sol\":9104:9124  sensorsDoctor[index] */\n      dup2\n      sload\n      dup2\n      lt\n      tag_149\n      jumpi\n      invalid\n    tag_149:\n      swap1\n      0x00\n      mstore\n      keccak256(0x00, 0x20)\n      swap1\n      0x04\n      mul\n      add\n        /* \"EHealth.sol\":9104:9131  sensorsDoctor[index].active */\n      0x03\n      add\n      0x14\n      swap1\n      sload\n      swap1\n      0x0100\n      exp\n      swap1\n      div\n      0xff\n      and\n        /* \"EHealth.sol\":9008:9132  return (sensorsDoctor[index].MAC,sensorsDoctor[index].patientName,sensorsDoctor[index].idDoctor,sensorsDoctor[index].active) */\n      dup4\n      dup1\n      sload\n      0x01\n      dup2\n      0x01\n      and\n      iszero\n      0x0100\n      mul\n      sub\n      and\n      0x02\n      swap1\n      div\n      dup1\n      0x1f\n      add\n      0x20\n      dup1\n      swap2\n      div\n      mul\n      0x20\n      add\n      mload(0x40)\n      swap1\n      dup2\n      add\n      0x40\n      mstore\n      dup1\n      swap3\n      swap2\n      swap1\n      dup2\n      dup2\n      mstore\n      0x20\n      add\n      dup3\n      dup1\n      sload\n      0x01\n      dup2\n      0x01\n      and\n      iszero\n      0x0100\n      mul\n      sub\n      and\n      0x02\n      swap1\n      div\n      dup1\n      iszero\n      tag_151\n      jumpi\n      dup1\n      0x1f\n      lt\n      tag_152\n      jumpi\n      0x0100\n      dup1\n      dup4\n      sload\n      div\n      mul\n      dup4\n      mstore\n      swap2\n      0x20\n      add\n      swap2\n      jump(tag_151)\n    tag_152:\n      dup3\n      add\n      swap2\n      swap1\n      0x00\n      mstore\n      keccak256(0x00, 0x20)\n      swap1\n    tag_153:\n      dup2\n      sload\n      dup2\n      mstore\n      swap1\n      0x01\n      add\n      swap1\n      0x20\n      add\n      dup1\n      dup4\n      gt\n      tag_153\n      jumpi\n      dup3\n      swap1\n      sub\n      0x1f\n      and\n      dup3\n      add\n      swap2\n    tag_151:\n      pop\n      pop\n      pop\n      pop\n      pop\n      swap4\n      pop\n      dup3\n      dup1\n      sload\n      0x01\n      dup2\n      0x01\n      and\n      iszero\n      0x0100\n      mul\n      sub\n      and\n      0x02\n      swap1\n      div\n      dup1\n      0x1f\n      add\n      0x20\n      dup1\n      swap2\n      div\n      mul\n      0x20\n      add\n      mload(0x40)\n      swap1\n      dup2\n      add\n      0x40\n      mstore\n      dup1\n      swap3\n      swap2\n      swap1\n      dup2\n      dup2\n      mstore\n      0x20\n      add\n      dup3\n      dup1\n      sload\n      0x01\n      dup2\n      0x01\n      and\n      iszero\n      0x0100\n      mul\n      sub\n      and\n      0x02\n      swap1\n      div\n      dup1\n      iszero\n      tag_154\n      jumpi\n      dup1\n      0x1f\n      lt\n      tag_155\n      jumpi\n      0x0100\n      dup1\n      dup4\n      sload\n      div\n      mul\n      dup4\n      mstore\n      swap2\n      0x20\n      add\n      swap2\n      jump(tag_154)\n    tag_155:\n      dup3\n      add\n      swap2\n      swap1\n      0x00\n      mstore\n      keccak256(0x00, 0x20)\n      swap1\n    tag_156:\n      dup2\n      sload\n      dup2\n      mstore\n      swap1\n      0x01\n      add\n      swap1\n      0x20\n      add\n      dup1\n      dup4\n      gt\n      tag_156\n      jumpi\n      dup3\n      swap1\n      sub\n      0x1f\n      and\n      dup3\n      add\n      swap2\n    tag_154:\n      pop\n      pop\n      pop\n      pop\n      pop\n      swap3\n      pop\n      swap5\n      pop\n      swap5\n      pop\n      swap5\n      pop\n      swap5\n      pop\n      pop\n        /* \"EHealth.sol\":8866:9140  function ReadSensor(uint _id)public view returns(string memory,string memory, address, bool){\r... */\n      swap2\n      swap4\n      pop\n      swap2\n      swap4\n      jump\t// out\n        /* \"EHealth.sol\":7294:7634  function AddSensor(string memory _mac, string memory _patientName, address _idDoctor, bool _active) public {\r... */\n    tag_43:\n        /* \"EHealth.sol\":7412:7433  FindDoctor(_idDoctor) */\n      tag_158\n        /* \"EHealth.sol\":7423:7432  _idDoctor */\n      dup3\n        /* \"EHealth.sol\":7412:7422  FindDoctor */\n      tag_159\n        /* \"EHealth.sol\":7412:7433  FindDoctor(_idDoctor) */\n      jump\t// in\n    tag_158:\n      pop\n        /* \"EHealth.sol\":7444:7457  sensorsDoctor */\n      0x08\n        /* \"EHealth.sol\":7463:7522  Sensor(nextIdSensor,_mac, _patientName, _idDoctor, _active) */\n      mload(0x40)\n      dup1\n      0xa0\n      add\n      0x40\n      mstore\n      dup1\n        /* \"EHealth.sol\":7470:7482  nextIdSensor */\n      sload(0x01)\n        /* \"EHealth.sol\":7463:7522  Sensor(nextIdSensor,_mac, _patientName, _idDoctor, _active) */\n      dup2\n      mstore\n      0x20\n      add\n        /* \"EHealth.sol\":7483:7487  _mac */\n      dup7\n        /* \"EHealth.sol\":7463:7522  Sensor(nextIdSensor,_mac, _patientName, _idDoctor, _active) */\n      dup2\n      mstore\n      0x20\n      add\n        /* \"EHealth.sol\":7489:7501  _patientName */\n      dup6\n        /* \"EHealth.sol\":7463:7522  Sensor(nextIdSensor,_mac, _patientName, _idDoctor, _active) */\n      dup2\n      mstore\n      0x20\n      add\n        /* \"EHealth.sol\":7503:7512  _idDoctor */\n      dup5\n        /* \"EHealth.sol\":7463:7522  Sensor(nextIdSensor,_mac, _patientName, _idDoctor, _active) */\n      0xffffffffffffffffffffffffffffffffffffffff\n      and\n      dup2\n      mstore\n      0x20\n      add\n        /* \"EHealth.sol\":7514:7521  _active */\n      dup4\n        /* \"EHealth.sol\":7463:7522  Sensor(nextIdSensor,_mac, _patientName, _idDoctor, _active) */\n      iszero\n      iszero\n      dup2\n      mstore\n      pop\n        /* \"EHealth.sol\":7444:7523  sensorsDoctor.push(Sensor(nextIdSensor,_mac, _patientName, _idDoctor, _active)) */\n      swap1\n      dup1\n      0x01\n      dup2\n      sload\n      add\n      dup1\n      dup3\n      sstore\n      dup1\n      swap2\n      pop\n      pop\n      0x01\n      swap1\n      sub\n      swap1\n      0x00\n      mstore\n      keccak256(0x00, 0x20)\n      swap1\n      0x04\n      mul\n      add\n      0x00\n      swap1\n      swap2\n      swap1\n      swap2\n      swap1\n      swap2\n      pop\n      0x00\n      dup3\n      add\n      mload\n      dup2\n      0x00\n      add\n      sstore\n      0x20\n      dup3\n      add\n      mload\n      dup2\n      0x01\n      add\n      swap1\n      dup1\n      mload\n      swap1\n      0x20\n      add\n      swap1\n      tag_161\n      swap3\n      swap2\n      swap1\n      tag_162\n      jump\t// in\n    tag_161:\n      pop\n      0x40\n      dup3\n      add\n      mload\n      dup2\n      0x02\n      add\n      swap1\n      dup1\n      mload\n      swap1\n      0x20\n      add\n      swap1\n      tag_163\n      swap3\n      swap2\n      swap1\n      tag_162\n      jump\t// in\n    tag_163:\n      pop\n      0x60\n      dup3\n      add\n      mload\n      dup2\n      0x03\n      add\n      exp(0x0100, 0x00)\n      dup2\n      sload\n      dup2\n      0xffffffffffffffffffffffffffffffffffffffff\n      mul\n      not\n      and\n      swap1\n      dup4\n      0xffffffffffffffffffffffffffffffffffffffff\n      and\n      mul\n      or\n      swap1\n      sstore\n      pop\n      0x80\n      dup3\n      add\n      mload\n      dup2\n      0x03\n      add\n      exp(0x0100, 0x14)\n      dup2\n      sload\n      dup2\n      0xff\n      mul\n      not\n      and\n      swap1\n      dup4\n      iszero\n      iszero\n      mul\n      or\n      swap1\n      sstore\n      pop\n      pop\n      pop\n        /* \"EHealth.sol\":7539:7601  NewSensor(nextIdSensor,_mac, _patientName, _idDoctor, _active) */\n      0x1d6a52c11773994a4a6eaa1ace32b929e7f0900bbe29db3f1d36a3cd45f1486c\n        /* \"EHealth.sol\":7549:7561  nextIdSensor */\n      sload(0x01)\n        /* \"EHealth.sol\":7562:7566  _mac */\n      dup6\n        /* \"EHealth.sol\":7568:7580  _patientName */\n      dup6\n        /* \"EHealth.sol\":7582:7591  _idDoctor */\n      dup6\n        /* \"EHealth.sol\":7593:7600  _active */\n      dup6\n        /* \"EHealth.sol\":7539:7601  NewSensor(nextIdSensor,_mac, _patientName, _idDoctor, _active) */\n      mload(0x40)\n      tag_164\n      swap6\n      swap5\n      swap4\n      swap3\n      swap2\n      swap1\n      tag_84\n      jump\t// in\n    tag_164:\n      mload(0x40)\n      dup1\n      swap2\n      sub\n      swap1\n      log1\n        /* \"EHealth.sol\":7612:7624  nextIdSensor */\n      0x01\n      0x00\n        /* \"EHealth.sol\":7612:7626  nextIdSensor++ */\n      dup2\n      sload\n      dup1\n      swap3\n      swap2\n      swap1\n      0x01\n      add\n      swap2\n      swap1\n      pop\n      sstore\n      pop\n        /* \"EHealth.sol\":7294:7634  function AddSensor(string memory _mac, string memory _patientName, address _idDoctor, bool _active) public {\r... */\n      pop\n      pop\n      pop\n      pop\n      jump\t// out\n        /* \"EHealth.sol\":6338:6441  function Length_Doctors() public view returns (uint256){\r... */\n    tag_45:\n        /* \"EHealth.sol\":6385:6392  uint256 */\n      0x00\n        /* \"EHealth.sol\":6411:6426  hospitalCenters */\n      0x04\n        /* \"EHealth.sol\":6411:6433  hospitalCenters.length */\n      dup1\n      sload\n      swap1\n      pop\n        /* \"EHealth.sol\":6404:6433  return hospitalCenters.length */\n      swap1\n      pop\n        /* \"EHealth.sol\":6338:6441  function Length_Doctors() public view returns (uint256){\r... */\n      swap1\n      jump\t// out\n        /* \"EHealth.sol\":5622:6024  function UpdateDoctor(address _id, string memory _nameDoctor, address _hospital ) public {\r... */\n    tag_51:\n        /* \"EHealth.sol\":5722:5732  uint index */\n      0x00\n        /* \"EHealth.sol\":5735:5750  FindDoctor(_id) */\n      tag_167\n        /* \"EHealth.sol\":5746:5749  _id */\n      dup5\n        /* \"EHealth.sol\":5735:5745  FindDoctor */\n      tag_159\n        /* \"EHealth.sol\":5735:5750  FindDoctor(_id) */\n      jump\t// in\n    tag_167:\n        /* \"EHealth.sol\":5722:5750  uint index = FindDoctor(_id) */\n      swap1\n      pop\n        /* \"EHealth.sol\":5795:5806  _nameDoctor */\n      dup3\n        /* \"EHealth.sol\":5761:5776  doctorsHospital */\n      0x06\n        /* \"EHealth.sol\":5777:5782  index */\n      dup3\n        /* \"EHealth.sol\":5761:5783  doctorsHospital[index] */\n      dup2\n      sload\n      dup2\n      lt\n      tag_168\n      jumpi\n      invalid\n    tag_168:\n      swap1\n      0x00\n      mstore\n      keccak256(0x00, 0x20)\n      swap1\n      0x03\n      mul\n      add\n        /* \"EHealth.sol\":5761:5794  doctorsHospital[index].nameDoctor */\n      0x01\n      add\n        /* \"EHealth.sol\":5761:5806  doctorsHospital[index].nameDoctor=_nameDoctor */\n      swap1\n      dup1\n      mload\n      swap1\n      0x20\n      add\n      swap1\n      tag_170\n      swap3\n      swap2\n      swap1\n      tag_162\n      jump\t// in\n    tag_170:\n      pop\n        /* \"EHealth.sol\":5849:5858  _hospital */\n      dup2\n        /* \"EHealth.sol\":5817:5832  doctorsHospital */\n      0x06\n        /* \"EHealth.sol\":5833:5838  index */\n      dup3\n        /* \"EHealth.sol\":5817:5839  doctorsHospital[index] */\n      dup2\n      sload\n      dup2\n      lt\n      tag_171\n      jumpi\n      invalid\n    tag_171:\n      swap1\n      0x00\n      mstore\n      keccak256(0x00, 0x20)\n      swap1\n      0x03\n      mul\n      add\n        /* \"EHealth.sol\":5817:5848  doctorsHospital[index].hospital */\n      0x02\n      add\n      0x00\n        /* \"EHealth.sol\":5817:5858  doctorsHospital[index].hospital=_hospital */\n      0x0100\n      exp\n      dup2\n      sload\n      dup2\n      0xffffffffffffffffffffffffffffffffffffffff\n      mul\n      not\n      and\n      swap1\n      dup4\n      0xffffffffffffffffffffffffffffffffffffffff\n      and\n      mul\n      or\n      swap1\n      sstore\n      pop\n        /* \"EHealth.sol\":5874:6016  RefreshDoctor(doctorsHospital[index].idDoctor,\r... */\n      0x239b189726729811e87d7845d82777804144af4e76981af04d802a85f7442b66\n        /* \"EHealth.sol\":5888:5903  doctorsHospital */\n      0x06\n        /* \"EHealth.sol\":5904:5909  index */\n      dup3\n        /* \"EHealth.sol\":5888:5910  doctorsHospital[index] */\n      dup2\n      sload\n      dup2\n      lt\n      tag_173\n      jumpi\n      invalid\n    tag_173:\n      swap1\n      0x00\n      mstore\n      keccak256(0x00, 0x20)\n      swap1\n      0x03\n      mul\n      add\n        /* \"EHealth.sol\":5888:5919  doctorsHospital[index].idDoctor */\n      0x00\n      add\n      0x00\n      swap1\n      sload\n      swap1\n      0x0100\n      exp\n      swap1\n      div\n      0xffffffffffffffffffffffffffffffffffffffff\n      and\n        /* \"EHealth.sol\":5930:5945  doctorsHospital */\n      0x06\n        /* \"EHealth.sol\":5946:5951  index */\n      dup4\n        /* \"EHealth.sol\":5930:5952  doctorsHospital[index] */\n      dup2\n      sload\n      dup2\n      lt\n      tag_175\n      jumpi\n      invalid\n    tag_175:\n      swap1\n      0x00\n      mstore\n      keccak256(0x00, 0x20)\n      swap1\n      0x03\n      mul\n      add\n        /* \"EHealth.sol\":5930:5963  doctorsHospital[index].nameDoctor */\n      0x01\n      add\n        /* \"EHealth.sol\":5974:5989  doctorsHospital */\n      0x06\n        /* \"EHealth.sol\":5990:5995  index */\n      dup5\n        /* \"EHealth.sol\":5974:5996  doctorsHospital[index] */\n      dup2\n      sload\n      dup2\n      lt\n      tag_177\n      jumpi\n      invalid\n    tag_177:\n      swap1\n      0x00\n      mstore\n      keccak256(0x00, 0x20)\n      swap1\n      0x03\n      mul\n      add\n        /* \"EHealth.sol\":5974:6005  doctorsHospital[index].hospital */\n      0x02\n      add\n      0x00\n      swap1\n      sload\n      swap1\n      0x0100\n      exp\n      swap1\n      div\n      0xffffffffffffffffffffffffffffffffffffffff\n      and\n        /* \"EHealth.sol\":5874:6016  RefreshDoctor(doctorsHospital[index].idDoctor,\r... */\n      mload(0x40)\n      tag_179\n      swap4\n      swap3\n      swap2\n      swap1\n      tag_180\n      jump\t// in\n    tag_179:\n      mload(0x40)\n      dup1\n      swap2\n      sub\n      swap1\n      log1\n        /* \"EHealth.sol\":5622:6024  function UpdateDoctor(address _id, string memory _nameDoctor, address _hospital ) public {\r... */\n      pop\n      pop\n      pop\n      pop\n      jump\t// out\n        /* \"EHealth.sol\":8356:8833  function UpdateSensor(uint _id, string memory _mac, string memory _patientName,address _idDoctor ) public {\r... */\n    tag_55:\n        /* \"EHealth.sol\":8473:8483  uint index */\n      0x00\n        /* \"EHealth.sol\":8486:8501  FindSensor(_id) */\n      tag_182\n        /* \"EHealth.sol\":8497:8500  _id */\n      dup6\n        /* \"EHealth.sol\":8486:8496  FindSensor */\n      tag_142\n        /* \"EHealth.sol\":8486:8501  FindSensor(_id) */\n      jump\t// in\n    tag_182:\n        /* \"EHealth.sol\":8473:8501  uint index = FindSensor(_id) */\n      swap1\n      pop\n        /* \"EHealth.sol\":8537:8541  _mac */\n      dup4\n        /* \"EHealth.sol\":8512:8525  sensorsDoctor */\n      0x08\n        /* \"EHealth.sol\":8526:8531  index */\n      dup3\n        /* \"EHealth.sol\":8512:8532  sensorsDoctor[index] */\n      dup2\n      sload\n      dup2\n      lt\n      tag_183\n      jumpi\n      invalid\n    tag_183:\n      swap1\n      0x00\n      mstore\n      keccak256(0x00, 0x20)\n      swap1\n      0x04\n      mul\n      add\n        /* \"EHealth.sol\":8512:8536  sensorsDoctor[index].MAC */\n      0x01\n      add\n        /* \"EHealth.sol\":8512:8541  sensorsDoctor[index].MAC=_mac */\n      swap1\n      dup1\n      mload\n      swap1\n      0x20\n      add\n      swap1\n      tag_185\n      swap3\n      swap2\n      swap1\n      tag_162\n      jump\t// in\n    tag_185:\n      pop\n        /* \"EHealth.sol\":8585:8597  _patientName */\n      dup3\n        /* \"EHealth.sol\":8552:8565  sensorsDoctor */\n      0x08\n        /* \"EHealth.sol\":8566:8571  index */\n      dup3\n        /* \"EHealth.sol\":8552:8572  sensorsDoctor[index] */\n      dup2\n      sload\n      dup2\n      lt\n      tag_186\n      jumpi\n      invalid\n    tag_186:\n      swap1\n      0x00\n      mstore\n      keccak256(0x00, 0x20)\n      swap1\n      0x04\n      mul\n      add\n        /* \"EHealth.sol\":8552:8584  sensorsDoctor[index].patientName */\n      0x02\n      add\n        /* \"EHealth.sol\":8552:8597  sensorsDoctor[index].patientName=_patientName */\n      swap1\n      dup1\n      mload\n      swap1\n      0x20\n      add\n      swap1\n      tag_188\n      swap3\n      swap2\n      swap1\n      tag_162\n      jump\t// in\n    tag_188:\n      pop\n        /* \"EHealth.sol\":8638:8647  _idDoctor */\n      dup2\n        /* \"EHealth.sol\":8608:8621  sensorsDoctor */\n      0x08\n        /* \"EHealth.sol\":8622:8627  index */\n      dup3\n        /* \"EHealth.sol\":8608:8628  sensorsDoctor[index] */\n      dup2\n      sload\n      dup2\n      lt\n      tag_189\n      jumpi\n      invalid\n    tag_189:\n      swap1\n      0x00\n      mstore\n      keccak256(0x00, 0x20)\n      swap1\n      0x04\n      mul\n      add\n        /* \"EHealth.sol\":8608:8637  sensorsDoctor[index].idDoctor */\n      0x03\n      add\n      0x00\n        /* \"EHealth.sol\":8608:8647  sensorsDoctor[index].idDoctor=_idDoctor */\n      0x0100\n      exp\n      dup2\n      sload\n      dup2\n      0xffffffffffffffffffffffffffffffffffffffff\n      mul\n      not\n      and\n      swap1\n      dup4\n      0xffffffffffffffffffffffffffffffffffffffff\n      and\n      mul\n      or\n      swap1\n      sstore\n      pop\n        /* \"EHealth.sol\":8663:8825  RefreshSensor(sensorsDoctor[index].idSensor,\r... */\n      0xba2bd0d5052fb9458eaac383932e8112a57bfc6a1836ad7118b1673447d3e6ae\n        /* \"EHealth.sol\":8677:8690  sensorsDoctor */\n      0x08\n        /* \"EHealth.sol\":8691:8696  index */\n      dup3\n        /* \"EHealth.sol\":8677:8697  sensorsDoctor[index] */\n      dup2\n      sload\n      dup2\n      lt\n      tag_191\n      jumpi\n      invalid\n    tag_191:\n      swap1\n      0x00\n      mstore\n      keccak256(0x00, 0x20)\n      swap1\n      0x04\n      mul\n      add\n        /* \"EHealth.sol\":8677:8706  sensorsDoctor[index].idSensor */\n      0x00\n      add\n      sload\n        /* \"EHealth.sol\":8717:8730  sensorsDoctor */\n      0x08\n        /* \"EHealth.sol\":8731:8736  index */\n      dup4\n        /* \"EHealth.sol\":8717:8737  sensorsDoctor[index] */\n      dup2\n      sload\n      dup2\n      lt\n      tag_193\n      jumpi\n      invalid\n    tag_193:\n      swap1\n      0x00\n      mstore\n      keccak256(0x00, 0x20)\n      swap1\n      0x04\n      mul\n      add\n        /* \"EHealth.sol\":8717:8741  sensorsDoctor[index].MAC */\n      0x01\n      add\n        /* \"EHealth.sol\":8752:8765  sensorsDoctor */\n      0x08\n        /* \"EHealth.sol\":8766:8771  index */\n      dup5\n        /* \"EHealth.sol\":8752:8772  sensorsDoctor[index] */\n      dup2\n      sload\n      dup2\n      lt\n      tag_195\n      jumpi\n      invalid\n    tag_195:\n      swap1\n      0x00\n      mstore\n      keccak256(0x00, 0x20)\n      swap1\n      0x04\n      mul\n      add\n        /* \"EHealth.sol\":8752:8784  sensorsDoctor[index].patientName */\n      0x02\n      add\n        /* \"EHealth.sol\":8795:8808  sensorsDoctor */\n      0x08\n        /* \"EHealth.sol\":8809:8814  index */\n      dup6\n        /* \"EHealth.sol\":8795:8815  sensorsDoctor[index] */\n      dup2\n      sload\n      dup2\n      lt\n      tag_197\n      jumpi\n      invalid\n    tag_197:\n      swap1\n      0x00\n      mstore\n      keccak256(0x00, 0x20)\n      swap1\n      0x04\n      mul\n      add\n        /* \"EHealth.sol\":8795:8824  sensorsDoctor[index].idDoctor */\n      0x03\n      add\n      0x00\n      swap1\n      sload\n      swap1\n      0x0100\n      exp\n      swap1\n      div\n      0xffffffffffffffffffffffffffffffffffffffff\n      and\n        /* \"EHealth.sol\":8663:8825  RefreshSensor(sensorsDoctor[index].idSensor,\r... */\n      mload(0x40)\n      tag_199\n      swap5\n      swap4\n      swap3\n      swap2\n      swap1\n      tag_200\n      jump\t// in\n    tag_199:\n      mload(0x40)\n      dup1\n      swap2\n      sub\n      swap1\n      log1\n        /* \"EHealth.sol\":8356:8833  function UpdateSensor(uint _id, string memory _mac, string memory _patientName,address _idDoctor ) public {\r... */\n      pop\n      pop\n      pop\n      pop\n      pop\n      jump\t// out\n        /* \"EHealth.sol\":2464:2890  function RemoveHospital(address _address) public {\r... */\n    tag_59:\n        /* \"EHealth.sol\":2524:2534  uint index */\n      0x00\n        /* \"EHealth.sol\":2537:2559  FindHospital(_address) */\n      tag_202\n        /* \"EHealth.sol\":2550:2558  _address */\n      dup3\n        /* \"EHealth.sol\":2537:2549  FindHospital */\n      tag_203\n        /* \"EHealth.sol\":2537:2559  FindHospital(_address) */\n      jump\t// in\n    tag_202:\n        /* \"EHealth.sol\":2524:2559  uint index = FindHospital(_address) */\n      swap1\n      pop\n        /* \"EHealth.sol\":2604:2609  false */\n      0x00\n        /* \"EHealth.sol\":2570:2585  hospitalCenters */\n      0x04\n        /* \"EHealth.sol\":2586:2591  index */\n      dup3\n        /* \"EHealth.sol\":2570:2592  hospitalCenters[index] */\n      dup2\n      sload\n      dup2\n      lt\n      tag_204\n      jumpi\n      invalid\n    tag_204:\n      swap1\n      0x00\n      mstore\n      keccak256(0x00, 0x20)\n      swap1\n      0x06\n      mul\n      add\n        /* \"EHealth.sol\":2570:2603  hospitalCenters[index].permission */\n      0x05\n      add\n      0x00\n        /* \"EHealth.sol\":2570:2609  hospitalCenters[index].permission=false */\n      0x0100\n      exp\n      dup2\n      sload\n      dup2\n      0xff\n      mul\n      not\n      and\n      swap1\n      dup4\n      iszero\n      iszero\n      mul\n      or\n      swap1\n      sstore\n      pop\n        /* \"EHealth.sol\":2625:2882  DeleteHospital(hospitalCenters[index].idHospital, \r... */\n      0x05818f5e23a2c2bb34c81792ea8e3397d3f8ad179cb93a5fa57b3d4681564aa0\n        /* \"EHealth.sol\":2640:2655  hospitalCenters */\n      0x04\n        /* \"EHealth.sol\":2656:2661  index */\n      dup3\n        /* \"EHealth.sol\":2640:2662  hospitalCenters[index] */\n      dup2\n      sload\n      dup2\n      lt\n      tag_206\n      jumpi\n      invalid\n    tag_206:\n      swap1\n      0x00\n      mstore\n      keccak256(0x00, 0x20)\n      swap1\n      0x06\n      mul\n      add\n        /* \"EHealth.sol\":2640:2673  hospitalCenters[index].idHospital */\n      0x00\n      add\n      0x00\n      swap1\n      sload\n      swap1\n      0x0100\n      exp\n      swap1\n      div\n      0xffffffffffffffffffffffffffffffffffffffff\n      and\n        /* \"EHealth.sol\":2685:2700  hospitalCenters */\n      0x04\n        /* \"EHealth.sol\":2701:2706  index */\n      dup4\n        /* \"EHealth.sol\":2685:2707  hospitalCenters[index] */\n      dup2\n      sload\n      dup2\n      lt\n      tag_208\n      jumpi\n      invalid\n    tag_208:\n      swap1\n      0x00\n      mstore\n      keccak256(0x00, 0x20)\n      swap1\n      0x06\n      mul\n      add\n        /* \"EHealth.sol\":2685:2712  hospitalCenters[index].name */\n      0x01\n      add\n        /* \"EHealth.sol\":2724:2739  hospitalCenters */\n      0x04\n        /* \"EHealth.sol\":2740:2745  index */\n      dup5\n        /* \"EHealth.sol\":2724:2746  hospitalCenters[index] */\n      dup2\n      sload\n      dup2\n      lt\n      tag_210\n      jumpi\n      invalid\n    tag_210:\n      swap1\n      0x00\n      mstore\n      keccak256(0x00, 0x20)\n      swap1\n      0x06\n      mul\n      add\n        /* \"EHealth.sol\":2724:2751  hospitalCenters[index].city */\n      0x02\n      add\n        /* \"EHealth.sol\":2763:2778  hospitalCenters */\n      0x04\n        /* \"EHealth.sol\":2779:2784  index */\n      dup6\n        /* \"EHealth.sol\":2763:2785  hospitalCenters[index] */\n      dup2\n      sload\n      dup2\n      lt\n      tag_212\n      jumpi\n      invalid\n    tag_212:\n      swap1\n      0x00\n      mstore\n      keccak256(0x00, 0x20)\n      swap1\n      0x06\n      mul\n      add\n        /* \"EHealth.sol\":2763:2791  hospitalCenters[index].state */\n      0x03\n      add\n        /* \"EHealth.sol\":2803:2818  hospitalCenters */\n      0x04\n        /* \"EHealth.sol\":2819:2824  index */\n      dup7\n        /* \"EHealth.sol\":2803:2825  hospitalCenters[index] */\n      dup2\n      sload\n      dup2\n      lt\n      tag_214\n      jumpi\n      invalid\n    tag_214:\n      swap1\n      0x00\n      mstore\n      keccak256(0x00, 0x20)\n      swap1\n      0x06\n      mul\n      add\n        /* \"EHealth.sol\":2803:2836  hospitalCenters[index].postalCode */\n      0x04\n      add\n      sload\n        /* \"EHealth.sol\":2848:2863  hospitalCenters */\n      0x04\n        /* \"EHealth.sol\":2864:2869  index */\n      dup8\n        /* \"EHealth.sol\":2848:2870  hospitalCenters[index] */\n      dup2\n      sload\n      dup2\n      lt\n      tag_216\n      jumpi\n      invalid\n    tag_216:\n      swap1\n      0x00\n      mstore\n      keccak256(0x00, 0x20)\n      swap1\n      0x06\n      mul\n      add\n        /* \"EHealth.sol\":2848:2881  hospitalCenters[index].permission */\n      0x05\n      add\n      0x00\n      swap1\n      sload\n      swap1\n      0x0100\n      exp\n      swap1\n      div\n      0xff\n      and\n        /* \"EHealth.sol\":2625:2882  DeleteHospital(hospitalCenters[index].idHospital, \r... */\n      mload(0x40)\n      tag_218\n      swap7\n      swap6\n      swap5\n      swap4\n      swap3\n      swap2\n      swap1\n      tag_219\n      jump\t// in\n    tag_218:\n      mload(0x40)\n      dup1\n      swap2\n      sub\n      swap1\n      log1\n        /* \"EHealth.sol\":2464:2890  function RemoveHospital(address _address) public {\r... */\n      pop\n      pop\n      jump\t// out\n        /* \"EHealth.sol\":3695:3974  function getAllHospitals() public view returns (Hospital[] memory){\r... */\n    tag_61:\n        /* \"EHealth.sol\":3743:3760  Hospital[] memory */\n      0x60\n        /* \"EHealth.sol\":3772:3793  Hospital[] memory ret */\n      0x00\n        /* \"EHealth.sol\":3811:3826  hospitalCenters */\n      0x04\n        /* \"EHealth.sol\":3811:3833  hospitalCenters.length */\n      dup1\n      sload\n      swap1\n      pop\n        /* \"EHealth.sol\":3796:3834  new Hospital[](hospitalCenters.length) */\n      0xffffffffffffffff\n      dup2\n      gt\n      dup1\n      iszero\n      tag_221\n      jumpi\n      0x00\n      dup1\n      revert\n    tag_221:\n      pop\n      mload(0x40)\n      swap1\n      dup1\n      dup3\n      mstore\n      dup1\n      0x20\n      mul\n      0x20\n      add\n      dup3\n      add\n      0x40\n      mstore\n      dup1\n      iszero\n      tag_222\n      jumpi\n      dup2\n      0x20\n      add\n    tag_223:\n      tag_224\n      tag_225\n      jump\t// in\n    tag_224:\n      dup2\n      mstore\n      0x20\n      add\n      swap1\n      0x01\n      swap1\n      sub\n      swap1\n      dup2\n      tag_223\n      jumpi\n      swap1\n      pop\n    tag_222:\n      pop\n        /* \"EHealth.sol\":3772:3834  Hospital[] memory ret = new Hospital[](hospitalCenters.length) */\n      swap1\n      pop\n        /* \"EHealth.sol\":3850:3856  uint i */\n      0x00\n        /* \"EHealth.sol\":3845:3946  for (uint i = 0; i< hospitalCenters.length; i++) {\r... */\n    tag_226:\n        /* \"EHealth.sol\":3865:3880  hospitalCenters */\n      0x04\n        /* \"EHealth.sol\":3865:3887  hospitalCenters.length */\n      dup1\n      sload\n      swap1\n      pop\n        /* \"EHealth.sol\":3862:3863  i */\n      dup2\n        /* \"EHealth.sol\":3862:3887  i< hospitalCenters.length */\n      lt\n        /* \"EHealth.sol\":3845:3946  for (uint i = 0; i< hospitalCenters.length; i++) {\r... */\n      iszero\n      tag_227\n      jumpi\n        /* \"EHealth.sol\":3916:3931  hospitalCenters */\n      0x04\n        /* \"EHealth.sol\":3932:3933  i */\n      dup2\n        /* \"EHealth.sol\":3916:3934  hospitalCenters[i] */\n      dup2\n      sload\n      dup2\n      lt\n      tag_229\n      jumpi\n      invalid\n    tag_229:\n      swap1\n      0x00\n      mstore\n      keccak256(0x00, 0x20)\n      swap1\n      0x06\n      mul\n      add\n        /* \"EHealth.sol\":3909:3934  ret[i]=hospitalCenters[i] */\n      mload(0x40)\n      dup1\n      0xc0\n      add\n      0x40\n      mstore\n      swap1\n      dup2\n      0x00\n      dup3\n      add\n      0x00\n      swap1\n      sload\n      swap1\n      0x0100\n      exp\n      swap1\n      div\n      0xffffffffffffffffffffffffffffffffffffffff\n      and\n      0xffffffffffffffffffffffffffffffffffffffff\n      and\n      0xffffffffffffffffffffffffffffffffffffffff\n      and\n      dup2\n      mstore\n      0x20\n      add\n      0x01\n      dup3\n      add\n      dup1\n      sload\n      0x01\n      dup2\n      0x01\n      and\n      iszero\n      0x0100\n      mul\n      sub\n      and\n      0x02\n      swap1\n      div\n      dup1\n      0x1f\n      add\n      0x20\n      dup1\n      swap2\n      div\n      mul\n      0x20\n      add\n      mload(0x40)\n      swap1\n      dup2\n      add\n      0x40\n      mstore\n      dup1\n      swap3\n      swap2\n      swap1\n      dup2\n      dup2\n      mstore\n      0x20\n      add\n      dup3\n      dup1\n      sload\n      0x01\n      dup2\n      0x01\n      and\n      iszero\n      0x0100\n      mul\n      sub\n      and\n      0x02\n      swap1\n      div\n      dup1\n      iszero\n      tag_231\n      jumpi\n      dup1\n      0x1f\n      lt\n      tag_232\n      jumpi\n      0x0100\n      dup1\n      dup4\n      sload\n      div\n      mul\n      dup4\n      mstore\n      swap2\n      0x20\n      add\n      swap2\n      jump(tag_231)\n    tag_232:\n      dup3\n      add\n      swap2\n      swap1\n      0x00\n      mstore\n      keccak256(0x00, 0x20)\n      swap1\n    tag_233:\n      dup2\n      sload\n      dup2\n      mstore\n      swap1\n      0x01\n      add\n      swap1\n      0x20\n      add\n      dup1\n      dup4\n      gt\n      tag_233\n      jumpi\n      dup3\n      swap1\n      sub\n      0x1f\n      and\n      dup3\n      add\n      swap2\n    tag_231:\n      pop\n      pop\n      pop\n      pop\n      pop\n      dup2\n      mstore\n      0x20\n      add\n      0x02\n      dup3\n      add\n      dup1\n      sload\n      0x01\n      dup2\n      0x01\n      and\n      iszero\n      0x0100\n      mul\n      sub\n      and\n      0x02\n      swap1\n      div\n      dup1\n      0x1f\n      add\n      0x20\n      dup1\n      swap2\n      div\n      mul\n      0x20\n      add\n      mload(0x40)\n      swap1\n      dup2\n      add\n      0x40\n      mstore\n      dup1\n      swap3\n      swap2\n      swap1\n      dup2\n      dup2\n      mstore\n      0x20\n      add\n      dup3\n      dup1\n      sload\n      0x01\n      dup2\n      0x01\n      and\n      iszero\n      0x0100\n      mul\n      sub\n      and\n      0x02\n      swap1\n      div\n      dup1\n      iszero\n      tag_234\n      jumpi\n      dup1\n      0x1f\n      lt\n      tag_235\n      jumpi\n      0x0100\n      dup1\n      dup4\n      sload\n      div\n      mul\n      dup4\n      mstore\n      swap2\n      0x20\n      add\n      swap2\n      jump(tag_234)\n    tag_235:\n      dup3\n      add\n      swap2\n      swap1\n      0x00\n      mstore\n      keccak256(0x00, 0x20)\n      swap1\n    tag_236:\n      dup2\n      sload\n      dup2\n      mstore\n      swap1\n      0x01\n      add\n      swap1\n      0x20\n      add\n      dup1\n      dup4\n      gt\n      tag_236\n      jumpi\n      dup3\n      swap1\n      sub\n      0x1f\n      and\n      dup3\n      add\n      swap2\n    tag_234:\n      pop\n      pop\n      pop\n      pop\n      pop\n      dup2\n      mstore\n      0x20\n      add\n      0x03\n      dup3\n      add\n      dup1\n      sload\n      0x01\n      dup2\n      0x01\n      and\n      iszero\n      0x0100\n      mul\n      sub\n      and\n      0x02\n      swap1\n      div\n      dup1\n      0x1f\n      add\n      0x20\n      dup1\n      swap2\n      div\n      mul\n      0x20\n      add\n      mload(0x40)\n      swap1\n      dup2\n      add\n      0x40\n      mstore\n      dup1\n      swap3\n      swap2\n      swap1\n      dup2\n      dup2\n      mstore\n      0x20\n      add\n      dup3\n      dup1\n      sload\n      0x01\n      dup2\n      0x01\n      and\n      iszero\n      0x0100\n      mul\n      sub\n      and\n      0x02\n      swap1\n      div\n      dup1\n      iszero\n      tag_237\n      jumpi\n      dup1\n      0x1f\n      lt\n      tag_238\n      jumpi\n      0x0100\n      dup1\n      dup4\n      sload\n      div\n      mul\n      dup4\n      mstore\n      swap2\n      0x20\n      add\n      swap2\n      jump(tag_237)\n    tag_238:\n      dup3\n      add\n      swap2\n      swap1\n      0x00\n      mstore\n      keccak256(0x00, 0x20)\n      swap1\n    tag_239:\n      dup2\n      sload\n      dup2\n      mstore\n      swap1\n      0x01\n      add\n      swap1\n      0x20\n      add\n      dup1\n      dup4\n      gt\n      tag_239\n      jumpi\n      dup3\n      swap1\n      sub\n      0x1f\n      and\n      dup3\n      add\n      swap2\n    tag_237:\n      pop\n      pop\n      pop\n      pop\n      pop\n      dup2\n      mstore\n      0x20\n      add\n      0x04\n      dup3\n      add\n      sload\n      dup2\n      mstore\n      0x20\n      add\n      0x05\n      dup3\n      add\n      0x00\n      swap1\n      sload\n      swap1\n      0x0100\n      exp\n      swap1\n      div\n      0xff\n      and\n      iszero\n      iszero\n      iszero\n      iszero\n      dup2\n      mstore\n      pop\n      pop\n        /* \"EHealth.sol\":3909:3912  ret */\n      dup3\n        /* \"EHealth.sol\":3913:3914  i */\n      dup3\n        /* \"EHealth.sol\":3909:3915  ret[i] */\n      dup2\n      mload\n      dup2\n      lt\n      tag_240\n      jumpi\n      invalid\n    tag_240:\n      0x20\n      mul\n      0x20\n      add\n      add\n        /* \"EHealth.sol\":3909:3934  ret[i]=hospitalCenters[i] */\n      dup2\n      swap1\n      mstore\n      pop\n        /* \"EHealth.sol\":3889:3892  i++ */\n      dup1\n      dup1\n      0x01\n      add\n      swap2\n      pop\n      pop\n        /* \"EHealth.sol\":3845:3946  for (uint i = 0; i< hospitalCenters.length; i++) {\r... */\n      jump(tag_226)\n    tag_227:\n      pop\n        /* \"EHealth.sol\":3963:3966  ret */\n      dup1\n        /* \"EHealth.sol\":3956:3966  return ret */\n      swap2\n      pop\n      pop\n        /* \"EHealth.sol\":3695:3974  function getAllHospitals() public view returns (Hospital[] memory){\r... */\n      swap1\n      jump\t// out\n        /* \"EHealth.sol\":9305:9570  function getAllSensors() public view returns (Sensor[] memory){\r... */\n    tag_65:\n        /* \"EHealth.sol\":9351:9366  Sensor[] memory */\n      0x60\n        /* \"EHealth.sol\":9378:9397  Sensor[] memory ret */\n      0x00\n        /* \"EHealth.sol\":9413:9426  sensorsDoctor */\n      0x08\n        /* \"EHealth.sol\":9413:9433  sensorsDoctor.length */\n      dup1\n      sload\n      swap1\n      pop\n        /* \"EHealth.sol\":9400:9434  new Sensor[](sensorsDoctor.length) */\n      0xffffffffffffffff\n      dup2\n      gt\n      dup1\n      iszero\n      tag_242\n      jumpi\n      0x00\n      dup1\n      revert\n    tag_242:\n      pop\n      mload(0x40)\n      swap1\n      dup1\n      dup3\n      mstore\n      dup1\n      0x20\n      mul\n      0x20\n      add\n      dup3\n      add\n      0x40\n      mstore\n      dup1\n      iszero\n      tag_243\n      jumpi\n      dup2\n      0x20\n      add\n    tag_244:\n      tag_245\n      tag_246\n      jump\t// in\n    tag_245:\n      dup2\n      mstore\n      0x20\n      add\n      swap1\n      0x01\n      swap1\n      sub\n      swap1\n      dup2\n      tag_244\n      jumpi\n      swap1\n      pop\n    tag_243:\n      pop\n        /* \"EHealth.sol\":9378:9434  Sensor[] memory ret = new Sensor[](sensorsDoctor.length) */\n      swap1\n      pop\n        /* \"EHealth.sol\":9450:9456  uint i */\n      0x00\n        /* \"EHealth.sol\":9445:9542  for (uint i = 0; i< sensorsDoctor.length; i++) {\r... */\n    tag_247:\n        /* \"EHealth.sol\":9465:9478  sensorsDoctor */\n      0x08\n        /* \"EHealth.sol\":9465:9485  sensorsDoctor.length */\n      dup1\n      sload\n      swap1\n      pop\n        /* \"EHealth.sol\":9462:9463  i */\n      dup2\n        /* \"EHealth.sol\":9462:9485  i< sensorsDoctor.length */\n      lt\n        /* \"EHealth.sol\":9445:9542  for (uint i = 0; i< sensorsDoctor.length; i++) {\r... */\n      iszero\n      tag_248\n      jumpi\n        /* \"EHealth.sol\":9514:9527  sensorsDoctor */\n      0x08\n        /* \"EHealth.sol\":9528:9529  i */\n      dup2\n        /* \"EHealth.sol\":9514:9530  sensorsDoctor[i] */\n      dup2\n      sload\n      dup2\n      lt\n      tag_250\n      jumpi\n      invalid\n    tag_250:\n      swap1\n      0x00\n      mstore\n      keccak256(0x00, 0x20)\n      swap1\n      0x04\n      mul\n      add\n        /* \"EHealth.sol\":9507:9530  ret[i]=sensorsDoctor[i] */\n      mload(0x40)\n      dup1\n      0xa0\n      add\n      0x40\n      mstore\n      swap1\n      dup2\n      0x00\n      dup3\n      add\n      sload\n      dup2\n      mstore\n      0x20\n      add\n      0x01\n      dup3\n      add\n      dup1\n      sload\n      0x01\n      dup2\n      0x01\n      and\n      iszero\n      0x0100\n      mul\n      sub\n      and\n      0x02\n      swap1\n      div\n      dup1\n      0x1f\n      add\n      0x20\n      dup1\n      swap2\n      div\n      mul\n      0x20\n      add\n      mload(0x40)\n      swap1\n      dup2\n      add\n      0x40\n      mstore\n      dup1\n      swap3\n      swap2\n      swap1\n      dup2\n      dup2\n      mstore\n      0x20\n      add\n      dup3\n      dup1\n      sload\n      0x01\n      dup2\n      0x01\n      and\n      iszero\n      0x0100\n      mul\n      sub\n      and\n      0x02\n      swap1\n      div\n      dup1\n      iszero\n      tag_252\n      jumpi\n      dup1\n      0x1f\n      lt\n      tag_253\n      jumpi\n      0x0100\n      dup1\n      dup4\n      sload\n      div\n      mul\n      dup4\n      mstore\n      swap2\n      0x20\n      add\n      swap2\n      jump(tag_252)\n    tag_253:\n      dup3\n      add\n      swap2\n      swap1\n      0x00\n      mstore\n      keccak256(0x00, 0x20)\n      swap1\n    tag_254:\n      dup2\n      sload\n      dup2\n      mstore\n      swap1\n      0x01\n      add\n      swap1\n      0x20\n      add\n      dup1\n      dup4\n      gt\n      tag_254\n      jumpi\n      dup3\n      swap1\n      sub\n      0x1f\n      and\n      dup3\n      add\n      swap2\n    tag_252:\n      pop\n      pop\n      pop\n      pop\n      pop\n      dup2\n      mstore\n      0x20\n      add\n      0x02\n      dup3\n      add\n      dup1\n      sload\n      0x01\n      dup2\n      0x01\n      and\n      iszero\n      0x0100\n      mul\n      sub\n      and\n      0x02\n      swap1\n      div\n      dup1\n      0x1f\n      add\n      0x20\n      dup1\n      swap2\n      div\n      mul\n      0x20\n      add\n      mload(0x40)\n      swap1\n      dup2\n      add\n      0x40\n      mstore\n      dup1\n      swap3\n      swap2\n      swap1\n      dup2\n      dup2\n      mstore\n      0x20\n      add\n      dup3\n      dup1\n      sload\n      0x01\n      dup2\n      0x01\n      and\n      iszero\n      0x0100\n      mul\n      sub\n      and\n      0x02\n      swap1\n      div\n      dup1\n      iszero\n      tag_255\n      jumpi\n      dup1\n      0x1f\n      lt\n      tag_256\n      jumpi\n      0x0100\n      dup1\n      dup4\n      sload\n      div\n      mul\n      dup4\n      mstore\n      swap2\n      0x20\n      add\n      swap2\n      jump(tag_255)\n    tag_256:\n      dup3\n      add\n      swap2\n      swap1\n      0x00\n      mstore\n      keccak256(0x00, 0x20)\n      swap1\n    tag_257:\n      dup2\n      sload\n      dup2\n      mstore\n      swap1\n      0x01\n      add\n      swap1\n      0x20\n      add\n      dup1\n      dup4\n      gt\n      tag_257\n      jumpi\n      dup3\n      swap1\n      sub\n      0x1f\n      and\n      dup3\n      add\n      swap2\n    tag_255:\n      pop\n      pop\n      pop\n      pop\n      pop\n      dup2\n      mstore\n      0x20\n      add\n      0x03\n      dup3\n      add\n      0x00\n      swap1\n      sload\n      swap1\n      0x0100\n      exp\n      swap1\n      div\n      0xffffffffffffffffffffffffffffffffffffffff\n      and\n      0xffffffffffffffffffffffffffffffffffffffff\n      and\n      0xffffffffffffffffffffffffffffffffffffffff\n      and\n      dup2\n      mstore\n      0x20\n      add\n      0x03\n      dup3\n      add\n      0x14\n      swap1\n      sload\n      swap1\n      0x0100\n      exp\n      swap1\n      div\n      0xff\n      and\n      iszero\n      iszero\n      iszero\n      iszero\n      dup2\n      mstore\n      pop\n      pop\n        /* \"EHealth.sol\":9507:9510  ret */\n      dup3\n        /* \"EHealth.sol\":9511:9512  i */\n      dup3\n        /* \"EHealth.sol\":9507:9513  ret[i] */\n      dup2\n      mload\n      dup2\n      lt\n      tag_258\n      jumpi\n      invalid\n    tag_258:\n      0x20\n      mul\n      0x20\n      add\n      add\n        /* \"EHealth.sol\":9507:9530  ret[i]=sensorsDoctor[i] */\n      dup2\n      swap1\n      mstore\n      pop\n        /* \"EHealth.sol\":9487:9490  i++ */\n      dup1\n      dup1\n      0x01\n      add\n      swap2\n      pop\n      pop\n        /* \"EHealth.sol\":9445:9542  for (uint i = 0; i< sensorsDoctor.length; i++) {\r... */\n      jump(tag_247)\n    tag_248:\n      pop\n        /* \"EHealth.sol\":9559:9562  ret */\n      dup1\n        /* \"EHealth.sol\":9552:9562  return ret */\n      swap2\n      pop\n      pop\n        /* \"EHealth.sol\":9305:9570  function getAllSensors() public view returns (Sensor[] memory){\r... */\n      swap1\n      jump\t// out\n        /* \"EHealth.sol\":7976:8321  function RemoveSensor(uint _id) public {\r... */\n    tag_70:\n        /* \"EHealth.sol\":8026:8036  uint index */\n      0x00\n        /* \"EHealth.sol\":8039:8054  FindSensor(_id) */\n      tag_260\n        /* \"EHealth.sol\":8050:8053  _id */\n      dup3\n        /* \"EHealth.sol\":8039:8049  FindSensor */\n      tag_142\n        /* \"EHealth.sol\":8039:8054  FindSensor(_id) */\n      jump\t// in\n    tag_260:\n        /* \"EHealth.sol\":8026:8054  uint index = FindSensor(_id) */\n      swap1\n      pop\n        /* \"EHealth.sol\":8093:8098  false */\n      0x00\n        /* \"EHealth.sol\":8065:8078  sensorsDoctor */\n      0x08\n        /* \"EHealth.sol\":8079:8084  index */\n      dup3\n        /* \"EHealth.sol\":8065:8085  sensorsDoctor[index] */\n      dup2\n      sload\n      dup2\n      lt\n      tag_261\n      jumpi\n      invalid\n    tag_261:\n      swap1\n      0x00\n      mstore\n      keccak256(0x00, 0x20)\n      swap1\n      0x04\n      mul\n      add\n        /* \"EHealth.sol\":8065:8092  sensorsDoctor[index].active */\n      0x03\n      add\n      0x14\n        /* \"EHealth.sol\":8065:8098  sensorsDoctor[index].active=false */\n      0x0100\n      exp\n      dup2\n      sload\n      dup2\n      0xff\n      mul\n      not\n      and\n      swap1\n      dup4\n      iszero\n      iszero\n      mul\n      or\n      swap1\n      sstore\n      pop\n        /* \"EHealth.sol\":8114:8313  DeleteSensor(sensorsDoctor[index].idSensor,\r... */\n      0xef9006907eb20210e880b0bb1c39946083bcec24688718507d63a259ffa8351b\n        /* \"EHealth.sol\":8127:8140  sensorsDoctor */\n      0x08\n        /* \"EHealth.sol\":8141:8146  index */\n      dup3\n        /* \"EHealth.sol\":8127:8147  sensorsDoctor[index] */\n      dup2\n      sload\n      dup2\n      lt\n      tag_263\n      jumpi\n      invalid\n    tag_263:\n      swap1\n      0x00\n      mstore\n      keccak256(0x00, 0x20)\n      swap1\n      0x04\n      mul\n      add\n        /* \"EHealth.sol\":8127:8156  sensorsDoctor[index].idSensor */\n      0x00\n      add\n      sload\n        /* \"EHealth.sol\":8167:8180  sensorsDoctor */\n      0x08\n        /* \"EHealth.sol\":8181:8186  index */\n      dup4\n        /* \"EHealth.sol\":8167:8187  sensorsDoctor[index] */\n      dup2\n      sload\n      dup2\n      lt\n      tag_265\n      jumpi\n      invalid\n    tag_265:\n      swap1\n      0x00\n      mstore\n      keccak256(0x00, 0x20)\n      swap1\n      0x04\n      mul\n      add\n        /* \"EHealth.sol\":8167:8191  sensorsDoctor[index].MAC */\n      0x01\n      add\n        /* \"EHealth.sol\":8202:8215  sensorsDoctor */\n      0x08\n        /* \"EHealth.sol\":8216:8221  index */\n      dup5\n        /* \"EHealth.sol\":8202:8222  sensorsDoctor[index] */\n      dup2\n      sload\n      dup2\n      lt\n      tag_267\n      jumpi\n      invalid\n    tag_267:\n      swap1\n      0x00\n      mstore\n      keccak256(0x00, 0x20)\n      swap1\n      0x04\n      mul\n      add\n        /* \"EHealth.sol\":8202:8234  sensorsDoctor[index].patientName */\n      0x02\n      add\n        /* \"EHealth.sol\":8245:8258  sensorsDoctor */\n      0x08\n        /* \"EHealth.sol\":8259:8264  index */\n      dup6\n        /* \"EHealth.sol\":8245:8265  sensorsDoctor[index] */\n      dup2\n      sload\n      dup2\n      lt\n      tag_269\n      jumpi\n      invalid\n    tag_269:\n      swap1\n      0x00\n      mstore\n      keccak256(0x00, 0x20)\n      swap1\n      0x04\n      mul\n      add\n        /* \"EHealth.sol\":8245:8274  sensorsDoctor[index].idDoctor */\n      0x03\n      add\n      0x00\n      swap1\n      sload\n      swap1\n      0x0100\n      exp\n      swap1\n      div\n      0xffffffffffffffffffffffffffffffffffffffff\n      and\n        /* \"EHealth.sol\":8285:8298  sensorsDoctor */\n      0x08\n        /* \"EHealth.sol\":8299:8304  index */\n      dup7\n        /* \"EHealth.sol\":8285:8305  sensorsDoctor[index] */\n      dup2\n      sload\n      dup2\n      lt\n      tag_271\n      jumpi\n      invalid\n    tag_271:\n      swap1\n      0x00\n      mstore\n      keccak256(0x00, 0x20)\n      swap1\n      0x04\n      mul\n      add\n        /* \"EHealth.sol\":8285:8312  sensorsDoctor[index].active */\n      0x03\n      add\n      0x14\n      swap1\n      sload\n      swap1\n      0x0100\n      exp\n      swap1\n      div\n      0xff\n      and\n        /* \"EHealth.sol\":8114:8313  DeleteSensor(sensorsDoctor[index].idSensor,\r... */\n      mload(0x40)\n      tag_273\n      swap6\n      swap5\n      swap4\n      swap3\n      swap2\n      swap1\n      tag_274\n      jump\t// in\n    tag_273:\n      mload(0x40)\n      dup1\n      swap2\n      sub\n      swap1\n      log1\n        /* \"EHealth.sol\":7976:8321  function RemoveSensor(uint _id) public {\r... */\n      pop\n      pop\n      jump\t// out\n        /* \"EHealth.sol\":6057:6304  function ReadDoctor(address _id)public view returns(string memory, address, bool){\r... */\n    tag_73:\n        /* \"EHealth.sol\":6109:6122  string memory */\n      0x60\n        /* \"EHealth.sol\":6124:6131  address */\n      0x00\n        /* \"EHealth.sol\":6133:6137  bool */\n      dup1\n        /* \"EHealth.sol\":6149:6159  uint index */\n      0x00\n        /* \"EHealth.sol\":6162:6177  FindDoctor(_id) */\n      tag_276\n        /* \"EHealth.sol\":6173:6176  _id */\n      dup6\n        /* \"EHealth.sol\":6162:6172  FindDoctor */\n      tag_159\n        /* \"EHealth.sol\":6162:6177  FindDoctor(_id) */\n      jump\t// in\n    tag_276:\n        /* \"EHealth.sol\":6149:6177  uint index = FindDoctor(_id) */\n      swap1\n      pop\n        /* \"EHealth.sol\":6196:6211  doctorsHospital */\n      0x06\n        /* \"EHealth.sol\":6212:6217  index */\n      dup2\n        /* \"EHealth.sol\":6196:6218  doctorsHospital[index] */\n      dup2\n      sload\n      dup2\n      lt\n      tag_277\n      jumpi\n      invalid\n    tag_277:\n      swap1\n      0x00\n      mstore\n      keccak256(0x00, 0x20)\n      swap1\n      0x03\n      mul\n      add\n        /* \"EHealth.sol\":6196:6229  doctorsHospital[index].nameDoctor */\n      0x01\n      add\n        /* \"EHealth.sol\":6230:6245  doctorsHospital */\n      0x06\n        /* \"EHealth.sol\":6246:6251  index */\n      dup3\n        /* \"EHealth.sol\":6230:6252  doctorsHospital[index] */\n      dup2\n      sload\n      dup2\n      lt\n      tag_279\n      jumpi\n      invalid\n    tag_279:\n      swap1\n      0x00\n      mstore\n      keccak256(0x00, 0x20)\n      swap1\n      0x03\n      mul\n      add\n        /* \"EHealth.sol\":6230:6261  doctorsHospital[index].hospital */\n      0x02\n      add\n      0x00\n      swap1\n      sload\n      swap1\n      0x0100\n      exp\n      swap1\n      div\n      0xffffffffffffffffffffffffffffffffffffffff\n      and\n        /* \"EHealth.sol\":6262:6277  doctorsHospital */\n      0x06\n        /* \"EHealth.sol\":6278:6283  index */\n      dup4\n        /* \"EHealth.sol\":6262:6284  doctorsHospital[index] */\n      dup2\n      sload\n      dup2\n      lt\n      tag_281\n      jumpi\n      invalid\n    tag_281:\n      swap1\n      0x00\n      mstore\n      keccak256(0x00, 0x20)\n      swap1\n      0x03\n      mul\n      add\n        /* \"EHealth.sol\":6262:6295  doctorsHospital[index].permission */\n      0x02\n      add\n      0x14\n      swap1\n      sload\n      swap1\n      0x0100\n      exp\n      swap1\n      div\n      0xff\n      and\n        /* \"EHealth.sol\":6188:6296  return (doctorsHospital[index].nameDoctor,doctorsHospital[index].hospital,doctorsHospital[index].permission) */\n      dup3\n      dup1\n      sload\n      0x01\n      dup2\n      0x01\n      and\n      iszero\n      0x0100\n      mul\n      sub\n      and\n      0x02\n      swap1\n      div\n      dup1\n      0x1f\n      add\n      0x20\n      dup1\n      swap2\n      div\n      mul\n      0x20\n      add\n      mload(0x40)\n      swap1\n      dup2\n      add\n      0x40\n      mstore\n      dup1\n      swap3\n      swap2\n      swap1\n      dup2\n      dup2\n      mstore\n      0x20\n      add\n      dup3\n      dup1\n      sload\n      0x01\n      dup2\n      0x01\n      and\n      iszero\n      0x0100\n      mul\n      sub\n      and\n      0x02\n      swap1\n      div\n      dup1\n      iszero\n      tag_283\n      jumpi\n      dup1\n      0x1f\n      lt\n      tag_284\n      jumpi\n      0x0100\n      dup1\n      dup4\n      sload\n      div\n      mul\n      dup4\n      mstore\n      swap2\n      0x20\n      add\n      swap2\n      jump(tag_283)\n    tag_284:\n      dup3\n      add\n      swap2\n      swap1\n      0x00\n      mstore\n      keccak256(0x00, 0x20)\n      swap1\n    tag_285:\n      dup2\n      sload\n      dup2\n      mstore\n      swap1\n      0x01\n      add\n      swap1\n      0x20\n      add\n      dup1\n      dup4\n      gt\n      tag_285\n      jumpi\n      dup3\n      swap1\n      sub\n      0x1f\n      and\n      dup3\n      add\n      swap2\n    tag_283:\n      pop\n      pop\n      pop\n      pop\n      pop\n      swap3\n      pop\n      swap4\n      pop\n      swap4\n      pop\n      swap4\n      pop\n      pop\n        /* \"EHealth.sol\":6057:6304  function ReadDoctor(address _id)public view returns(string memory, address, bool){\r... */\n      swap2\n      swap4\n      swap1\n      swap3\n      pop\n      jump\t// out\n        /* \"EHealth.sol\":2929:3662  function UpdateHospital(address _address, string memory _name, string memory _city, string memory _state, uint _postalCode, bool _permission ) public {\r... */\n    tag_79:\n        /* \"EHealth.sol\":3090:3100  uint index */\n      0x00\n        /* \"EHealth.sol\":3103:3125  FindHospital(_address) */\n      tag_287\n        /* \"EHealth.sol\":3116:3124  _address */\n      dup8\n        /* \"EHealth.sol\":3103:3115  FindHospital */\n      tag_203\n        /* \"EHealth.sol\":3103:3125  FindHospital(_address) */\n      jump\t// in\n    tag_287:\n        /* \"EHealth.sol\":3090:3125  uint index = FindHospital(_address) */\n      swap1\n      pop\n        /* \"EHealth.sol\":3164:3169  _name */\n      dup6\n        /* \"EHealth.sol\":3136:3151  hospitalCenters */\n      0x04\n        /* \"EHealth.sol\":3152:3157  index */\n      dup3\n        /* \"EHealth.sol\":3136:3158  hospitalCenters[index] */\n      dup2\n      sload\n      dup2\n      lt\n      tag_288\n      jumpi\n      invalid\n    tag_288:\n      swap1\n      0x00\n      mstore\n      keccak256(0x00, 0x20)\n      swap1\n      0x06\n      mul\n      add\n        /* \"EHealth.sol\":3136:3163  hospitalCenters[index].name */\n      0x01\n      add\n        /* \"EHealth.sol\":3136:3169  hospitalCenters[index].name=_name */\n      swap1\n      dup1\n      mload\n      swap1\n      0x20\n      add\n      swap1\n      tag_290\n      swap3\n      swap2\n      swap1\n      tag_162\n      jump\t// in\n    tag_290:\n      pop\n        /* \"EHealth.sol\":3208:3213  _city */\n      dup5\n        /* \"EHealth.sol\":3180:3195  hospitalCenters */\n      0x04\n        /* \"EHealth.sol\":3196:3201  index */\n      dup3\n        /* \"EHealth.sol\":3180:3202  hospitalCenters[index] */\n      dup2\n      sload\n      dup2\n      lt\n      tag_291\n      jumpi\n      invalid\n    tag_291:\n      swap1\n      0x00\n      mstore\n      keccak256(0x00, 0x20)\n      swap1\n      0x06\n      mul\n      add\n        /* \"EHealth.sol\":3180:3207  hospitalCenters[index].city */\n      0x02\n      add\n        /* \"EHealth.sol\":3180:3213  hospitalCenters[index].city=_city */\n      swap1\n      dup1\n      mload\n      swap1\n      0x20\n      add\n      swap1\n      tag_293\n      swap3\n      swap2\n      swap1\n      tag_162\n      jump\t// in\n    tag_293:\n      pop\n        /* \"EHealth.sol\":3253:3259  _state */\n      dup4\n        /* \"EHealth.sol\":3224:3239  hospitalCenters */\n      0x04\n        /* \"EHealth.sol\":3240:3245  index */\n      dup3\n        /* \"EHealth.sol\":3224:3246  hospitalCenters[index] */\n      dup2\n      sload\n      dup2\n      lt\n      tag_294\n      jumpi\n      invalid\n    tag_294:\n      swap1\n      0x00\n      mstore\n      keccak256(0x00, 0x20)\n      swap1\n      0x06\n      mul\n      add\n        /* \"EHealth.sol\":3224:3252  hospitalCenters[index].state */\n      0x03\n      add\n        /* \"EHealth.sol\":3224:3259  hospitalCenters[index].state=_state */\n      swap1\n      dup1\n      mload\n      swap1\n      0x20\n      add\n      swap1\n      tag_296\n      swap3\n      swap2\n      swap1\n      tag_162\n      jump\t// in\n    tag_296:\n      pop\n        /* \"EHealth.sol\":3304:3315  _postalCode */\n      dup3\n        /* \"EHealth.sol\":3270:3285  hospitalCenters */\n      0x04\n        /* \"EHealth.sol\":3286:3291  index */\n      dup3\n        /* \"EHealth.sol\":3270:3292  hospitalCenters[index] */\n      dup2\n      sload\n      dup2\n      lt\n      tag_297\n      jumpi\n      invalid\n    tag_297:\n      swap1\n      0x00\n      mstore\n      keccak256(0x00, 0x20)\n      swap1\n      0x06\n      mul\n      add\n        /* \"EHealth.sol\":3270:3303  hospitalCenters[index].postalCode */\n      0x04\n      add\n        /* \"EHealth.sol\":3270:3315  hospitalCenters[index].postalCode=_postalCode */\n      dup2\n      swap1\n      sstore\n      pop\n        /* \"EHealth.sol\":3360:3371  _permission */\n      dup2\n        /* \"EHealth.sol\":3326:3341  hospitalCenters */\n      0x04\n        /* \"EHealth.sol\":3342:3347  index */\n      dup3\n        /* \"EHealth.sol\":3326:3348  hospitalCenters[index] */\n      dup2\n      sload\n      dup2\n      lt\n      tag_299\n      jumpi\n      invalid\n    tag_299:\n      swap1\n      0x00\n      mstore\n      keccak256(0x00, 0x20)\n      swap1\n      0x06\n      mul\n      add\n        /* \"EHealth.sol\":3326:3359  hospitalCenters[index].permission */\n      0x05\n      add\n      0x00\n        /* \"EHealth.sol\":3326:3371  hospitalCenters[index].permission=_permission */\n      0x0100\n      exp\n      dup2\n      sload\n      dup2\n      0xff\n      mul\n      not\n      and\n      swap1\n      dup4\n      iszero\n      iszero\n      mul\n      or\n      swap1\n      sstore\n      pop\n        /* \"EHealth.sol\":3387:3654  RefreshHospital(hospitalCenters[index].idHospital, \r... */\n      0x5975e6fed8802a324436eb320387035d99d011c9901bb75b34b8c23b91250c1c\n        /* \"EHealth.sol\":3403:3418  hospitalCenters */\n      0x04\n        /* \"EHealth.sol\":3419:3424  index */\n      dup3\n        /* \"EHealth.sol\":3403:3425  hospitalCenters[index] */\n      dup2\n      sload\n      dup2\n      lt\n      tag_301\n      jumpi\n      invalid\n    tag_301:\n      swap1\n      0x00\n      mstore\n      keccak256(0x00, 0x20)\n      swap1\n      0x06\n      mul\n      add\n        /* \"EHealth.sol\":3403:3436  hospitalCenters[index].idHospital */\n      0x00\n      add\n      0x00\n      swap1\n      sload\n      swap1\n      0x0100\n      exp\n      swap1\n      div\n      0xffffffffffffffffffffffffffffffffffffffff\n      and\n        /* \"EHealth.sol\":3448:3463  hospitalCenters */\n      0x04\n        /* \"EHealth.sol\":3464:3469  index */\n      dup4\n        /* \"EHealth.sol\":3448:3470  hospitalCenters[index] */\n      dup2\n      sload\n      dup2\n      lt\n      tag_303\n      jumpi\n      invalid\n    tag_303:\n      swap1\n      0x00\n      mstore\n      keccak256(0x00, 0x20)\n      swap1\n      0x06\n      mul\n      add\n        /* \"EHealth.sol\":3448:3475  hospitalCenters[index].name */\n      0x01\n      add\n        /* \"EHealth.sol\":3487:3502  hospitalCenters */\n      0x04\n        /* \"EHealth.sol\":3503:3508  index */\n      dup5\n        /* \"EHealth.sol\":3487:3509  hospitalCenters[index] */\n      dup2\n      sload\n      dup2\n      lt\n      tag_305\n      jumpi\n      invalid\n    tag_305:\n      swap1\n      0x00\n      mstore\n      keccak256(0x00, 0x20)\n      swap1\n      0x06\n      mul\n      add\n        /* \"EHealth.sol\":3487:3514  hospitalCenters[index].city */\n      0x02\n      add\n        /* \"EHealth.sol\":3526:3541  hospitalCenters */\n      0x04\n        /* \"EHealth.sol\":3542:3547  index */\n      dup6\n        /* \"EHealth.sol\":3526:3548  hospitalCenters[index] */\n      dup2\n      sload\n      dup2\n      lt\n      tag_307\n      jumpi\n      invalid\n    tag_307:\n      swap1\n      0x00\n      mstore\n      keccak256(0x00, 0x20)\n      swap1\n      0x06\n      mul\n      add\n        /* \"EHealth.sol\":3526:3554  hospitalCenters[index].state */\n      0x03\n      add\n        /* \"EHealth.sol\":3566:3581  hospitalCenters */\n      0x04\n        /* \"EHealth.sol\":3582:3587  index */\n      dup7\n        /* \"EHealth.sol\":3566:3588  hospitalCenters[index] */\n      dup2\n      sload\n      dup2\n      lt\n      tag_309\n      jumpi\n      invalid\n    tag_309:\n      swap1\n      0x00\n      mstore\n      keccak256(0x00, 0x20)\n      swap1\n      0x06\n      mul\n      add\n        /* \"EHealth.sol\":3566:3599  hospitalCenters[index].postalCode */\n      0x04\n      add\n      sload\n        /* \"EHealth.sol\":3610:3625  hospitalCenters */\n      0x04\n        /* \"EHealth.sol\":3626:3631  index */\n      dup8\n        /* \"EHealth.sol\":3610:3632  hospitalCenters[index] */\n      dup2\n      sload\n      dup2\n      lt\n      tag_311\n      jumpi\n      invalid\n    tag_311:\n      swap1\n      0x00\n      mstore\n      keccak256(0x00, 0x20)\n      swap1\n      0x06\n      mul\n      add\n        /* \"EHealth.sol\":3610:3643  hospitalCenters[index].permission */\n      0x05\n      add\n      0x00\n      swap1\n      sload\n      swap1\n      0x0100\n      exp\n      swap1\n      div\n      0xff\n      and\n        /* \"EHealth.sol\":3387:3654  RefreshHospital(hospitalCenters[index].idHospital, \r... */\n      mload(0x40)\n      tag_313\n      swap7\n      swap6\n      swap5\n      swap4\n      swap3\n      swap2\n      swap1\n      tag_219\n      jump\t// in\n    tag_313:\n      mload(0x40)\n      dup1\n      swap2\n      sub\n      swap1\n      log1\n        /* \"EHealth.sol\":2929:3662  function UpdateHospital(address _address, string memory _name, string memory _city, string memory _state, uint _postalCode, bool _permission ) public {\r... */\n      pop\n      pop\n      pop\n      pop\n      pop\n      pop\n      pop\n      jump\t// out\n        /* \"EHealth.sol\":864:904  mapping(address=> Sensor) public Sensors */\n    tag_82:\n      mstore(0x20, 0x07)\n      dup1\n      0x00\n      mstore\n      keccak256(0x00, 0x40)\n      0x00\n      swap2\n      pop\n      swap1\n      pop\n      dup1\n      0x00\n      add\n      sload\n      swap1\n      dup1\n      0x01\n      add\n      dup1\n      sload\n      0x01\n      dup2\n      0x01\n      and\n      iszero\n      0x0100\n      mul\n      sub\n      and\n      0x02\n      swap1\n      div\n      dup1\n      0x1f\n      add\n      0x20\n      dup1\n      swap2\n      div\n      mul\n      0x20\n      add\n      mload(0x40)\n      swap1\n      dup2\n      add\n      0x40\n      mstore\n      dup1\n      swap3\n      swap2\n      swap1\n      dup2\n      dup2\n      mstore\n      0x20\n      add\n      dup3\n      dup1\n      sload\n      0x01\n      dup2\n      0x01\n      and\n      iszero\n      0x0100\n      mul\n      sub\n      and\n      0x02\n      swap1\n      div\n      dup1\n      iszero\n      tag_314\n      jumpi\n      dup1\n      0x1f\n      lt\n      tag_315\n      jumpi\n      0x0100\n      dup1\n      dup4\n      sload\n      div\n      mul\n      dup4\n      mstore\n      swap2\n      0x20\n      add\n      swap2\n      jump(tag_314)\n    tag_315:\n      dup3\n      add\n      swap2\n      swap1\n      0x00\n      mstore\n      keccak256(0x00, 0x20)\n      swap1\n    tag_316:\n      dup2\n      sload\n      dup2\n      mstore\n      swap1\n      0x01\n      add\n      swap1\n      0x20\n      add\n      dup1\n      dup4\n      gt\n      tag_316\n      jumpi\n      dup3\n      swap1\n      sub\n      0x1f\n      and\n      dup3\n      add\n      swap2\n    tag_314:\n      pop\n      pop\n      pop\n      pop\n      pop\n      swap1\n      dup1\n      0x02\n      add\n      dup1\n      sload\n      0x01\n      dup2\n      0x01\n      and\n      iszero\n      0x0100\n      mul\n      sub\n      and\n      0x02\n      swap1\n      div\n      dup1\n      0x1f\n      add\n      0x20\n      dup1\n      swap2\n      div\n      mul\n      0x20\n      add\n      mload(0x40)\n      swap1\n      dup2\n      add\n      0x40\n      mstore\n      dup1\n      swap3\n      swap2\n      swap1\n      dup2\n      dup2\n      mstore\n      0x20\n      add\n      dup3\n      dup1\n      sload\n      0x01\n      dup2\n      0x01\n      and\n      iszero\n      0x0100\n      mul\n      sub\n      and\n      0x02\n      swap1\n      div\n      dup1\n      iszero\n      tag_317\n      jumpi\n      dup1\n      0x1f\n      lt\n      tag_318\n      jumpi\n      0x0100\n      dup1\n      dup4\n      sload\n      div\n      mul\n      dup4\n      mstore\n      swap2\n      0x20\n      add\n      swap2\n      jump(tag_317)\n    tag_318:\n      dup3\n      add\n      swap2\n      swap1\n      0x00\n      mstore\n      keccak256(0x00, 0x20)\n      swap1\n    tag_319:\n      dup2\n      sload\n      dup2\n      mstore\n      swap1\n      0x01\n      add\n      swap1\n      0x20\n      add\n      dup1\n      dup4\n      gt\n      tag_319\n      jumpi\n      dup3\n      swap1\n      sub\n      0x1f\n      and\n      dup3\n      add\n      swap2\n    tag_317:\n      pop\n      pop\n      pop\n      pop\n      pop\n      swap1\n      dup1\n      0x03\n      add\n      0x00\n      swap1\n      sload\n      swap1\n      0x0100\n      exp\n      swap1\n      div\n      0xffffffffffffffffffffffffffffffffffffffff\n      and\n      swap1\n      dup1\n      0x03\n      add\n      0x14\n      swap1\n      sload\n      swap1\n      0x0100\n      exp\n      swap1\n      div\n      0xff\n      and\n      swap1\n      pop\n      dup6\n      jump\t// out\n        /* \"EHealth.sol\":808:839  Doctor[] public doctorsHospital */\n    tag_87:\n      0x06\n      dup2\n      dup2\n      sload\n      dup2\n      lt\n      tag_320\n      jumpi\n      0x00\n      dup1\n      revert\n    tag_320:\n      swap1\n      0x00\n      mstore\n      keccak256(0x00, 0x20)\n      swap1\n      0x03\n      mul\n      add\n      0x00\n      swap2\n      pop\n      swap1\n      pop\n      dup1\n      0x00\n      add\n      0x00\n      swap1\n      sload\n      swap1\n      0x0100\n      exp\n      swap1\n      div\n      0xffffffffffffffffffffffffffffffffffffffff\n      and\n      swap1\n      dup1\n      0x01\n      add\n      dup1\n      sload\n      0x01\n      dup2\n      0x01\n      and\n      iszero\n      0x0100\n      mul\n      sub\n      and\n      0x02\n      swap1\n      div\n      dup1\n      0x1f\n      add\n      0x20\n      dup1\n      swap2\n      div\n      mul\n      0x20\n      add\n      mload(0x40)\n      swap1\n      dup2\n      add\n      0x40\n      mstore\n      dup1\n      swap3\n      swap2\n      swap1\n      dup2\n      dup2\n      mstore\n      0x20\n      add\n      dup3\n      dup1\n      sload\n      0x01\n      dup2\n      0x01\n      and\n      iszero\n      0x0100\n      mul\n      sub\n      and\n      0x02\n      swap1\n      div\n      dup1\n      iszero\n      tag_322\n      jumpi\n      dup1\n      0x1f\n      lt\n      tag_323\n      jumpi\n      0x0100\n      dup1\n      dup4\n      sload\n      div\n      mul\n      dup4\n      mstore\n      swap2\n      0x20\n      add\n      swap2\n      jump(tag_322)\n    tag_323:\n      dup3\n      add\n      swap2\n      swap1\n      0x00\n      mstore\n      keccak256(0x00, 0x20)\n      swap1\n    tag_324:\n      dup2\n      sload\n      dup2\n      mstore\n      swap1\n      0x01\n      add\n      swap1\n      0x20\n      add\n      dup1\n      dup4\n      gt\n      tag_324\n      jumpi\n      dup3\n      swap1\n      sub\n      0x1f\n      and\n      dup3\n      add\n      swap2\n    tag_322:\n      pop\n      pop\n      pop\n      pop\n      pop\n      swap1\n      dup1\n      0x02\n      add\n      0x00\n      swap1\n      sload\n      swap1\n      0x0100\n      exp\n      swap1\n      div\n      0xffffffffffffffffffffffffffffffffffffffff\n      and\n      swap1\n      dup1\n      0x02\n      add\n      0x14\n      swap1\n      sload\n      swap1\n      0x0100\n      exp\n      swap1\n      div\n      0xff\n      and\n      swap1\n      pop\n      dup5\n      jump\t// out\n        /* \"EHealth.sol\":9619:9985  function getAllSensorOfDoctor (address _idDoctor) public view returns (Sensor[] memory){\r... */\n    tag_92:\n        /* \"EHealth.sol\":9690:9705  Sensor[] memory */\n      0x60\n        /* \"EHealth.sol\":9717:9736  Sensor[] memory ret */\n      0x00\n        /* \"EHealth.sol\":9752:9765  sensorsDoctor */\n      0x08\n        /* \"EHealth.sol\":9752:9772  sensorsDoctor.length */\n      dup1\n      sload\n      swap1\n      pop\n        /* \"EHealth.sol\":9739:9773  new Sensor[](sensorsDoctor.length) */\n      0xffffffffffffffff\n      dup2\n      gt\n      dup1\n      iszero\n      tag_326\n      jumpi\n      0x00\n      dup1\n      revert\n    tag_326:\n      pop\n      mload(0x40)\n      swap1\n      dup1\n      dup3\n      mstore\n      dup1\n      0x20\n      mul\n      0x20\n      add\n      dup3\n      add\n      0x40\n      mstore\n      dup1\n      iszero\n      tag_327\n      jumpi\n      dup2\n      0x20\n      add\n    tag_328:\n      tag_329\n      tag_246\n      jump\t// in\n    tag_329:\n      dup2\n      mstore\n      0x20\n      add\n      swap1\n      0x01\n      swap1\n      sub\n      swap1\n      dup2\n      tag_328\n      jumpi\n      swap1\n      pop\n    tag_327:\n      pop\n        /* \"EHealth.sol\":9717:9773  Sensor[] memory ret = new Sensor[](sensorsDoctor.length) */\n      swap1\n      pop\n        /* \"EHealth.sol\":9789:9795  uint i */\n      0x00\n        /* \"EHealth.sol\":9784:9957  for (uint i = 0; i< sensorsDoctor.length; i++) {\r... */\n    tag_330:\n        /* \"EHealth.sol\":9804:9817  sensorsDoctor */\n      0x08\n        /* \"EHealth.sol\":9804:9824  sensorsDoctor.length */\n      dup1\n      sload\n      swap1\n      pop\n        /* \"EHealth.sol\":9801:9802  i */\n      dup2\n        /* \"EHealth.sol\":9801:9824  i< sensorsDoctor.length */\n      lt\n        /* \"EHealth.sol\":9784:9957  for (uint i = 0; i< sensorsDoctor.length; i++) {\r... */\n      iszero\n      tag_331\n      jumpi\n        /* \"EHealth.sol\":9862:9875  sensorsDoctor */\n      0x08\n        /* \"EHealth.sol\":9876:9877  i */\n      dup2\n        /* \"EHealth.sol\":9862:9878  sensorsDoctor[i] */\n      dup2\n      sload\n      dup2\n      lt\n      tag_333\n      jumpi\n      invalid\n    tag_333:\n      swap1\n      0x00\n      mstore\n      keccak256(0x00, 0x20)\n      swap1\n      0x04\n      mul\n      add\n        /* \"EHealth.sol\":9862:9887  sensorsDoctor[i].idDoctor */\n      0x03\n      add\n      0x00\n      swap1\n      sload\n      swap1\n      0x0100\n      exp\n      swap1\n      div\n      0xffffffffffffffffffffffffffffffffffffffff\n      and\n        /* \"EHealth.sol\":9849:9887  _idDoctor == sensorsDoctor[i].idDoctor */\n      0xffffffffffffffffffffffffffffffffffffffff\n      and\n        /* \"EHealth.sol\":9849:9858  _idDoctor */\n      dup5\n        /* \"EHealth.sol\":9849:9887  _idDoctor == sensorsDoctor[i].idDoctor */\n      0xffffffffffffffffffffffffffffffffffffffff\n      and\n      eq\n        /* \"EHealth.sol\":9846:9946  if(_idDoctor == sensorsDoctor[i].idDoctor){\r... */\n      iszero\n      tag_335\n      jumpi\n        /* \"EHealth.sol\":9914:9927  sensorsDoctor */\n      0x08\n        /* \"EHealth.sol\":9928:9929  i */\n      dup2\n        /* \"EHealth.sol\":9914:9930  sensorsDoctor[i] */\n      dup2\n      sload\n      dup2\n      lt\n      tag_336\n      jumpi\n      invalid\n    tag_336:\n      swap1\n      0x00\n      mstore\n      keccak256(0x00, 0x20)\n      swap1\n      0x04\n      mul\n      add\n        /* \"EHealth.sol\":9907:9930  ret[i]=sensorsDoctor[i] */\n      mload(0x40)\n      dup1\n      0xa0\n      add\n      0x40\n      mstore\n      swap1\n      dup2\n      0x00\n      dup3\n      add\n      sload\n      dup2\n      mstore\n      0x20\n      add\n      0x01\n      dup3\n      add\n      dup1\n      sload\n      0x01\n      dup2\n      0x01\n      and\n      iszero\n      0x0100\n      mul\n      sub\n      and\n      0x02\n      swap1\n      div\n      dup1\n      0x1f\n      add\n      0x20\n      dup1\n      swap2\n      div\n      mul\n      0x20\n      add\n      mload(0x40)\n      swap1\n      dup2\n      add\n      0x40\n      mstore\n      dup1\n      swap3\n      swap2\n      swap1\n      dup2\n      dup2\n      mstore\n      0x20\n      add\n      dup3\n      dup1\n      sload\n      0x01\n      dup2\n      0x01\n      and\n      iszero\n      0x0100\n      mul\n      sub\n      and\n      0x02\n      swap1\n      div\n      dup1\n      iszero\n      tag_338\n      jumpi\n      dup1\n      0x1f\n      lt\n      tag_339\n      jumpi\n      0x0100\n      dup1\n      dup4\n      sload\n      div\n      mul\n      dup4\n      mstore\n      swap2\n      0x20\n      add\n      swap2\n      jump(tag_338)\n    tag_339:\n      dup3\n      add\n      swap2\n      swap1\n      0x00\n      mstore\n      keccak256(0x00, 0x20)\n      swap1\n    tag_340:\n      dup2\n      sload\n      dup2\n      mstore\n      swap1\n      0x01\n      add\n      swap1\n      0x20\n      add\n      dup1\n      dup4\n      gt\n      tag_340\n      jumpi\n      dup3\n      swap1\n      sub\n      0x1f\n      and\n      dup3\n      add\n      swap2\n    tag_338:\n      pop\n      pop\n      pop\n      pop\n      pop\n      dup2\n      mstore\n      0x20\n      add\n      0x02\n      dup3\n      add\n      dup1\n      sload\n      0x01\n      dup2\n      0x01\n      and\n      iszero\n      0x0100\n      mul\n      sub\n      and\n      0x02\n      swap1\n      div\n      dup1\n      0x1f\n      add\n      0x20\n      dup1\n      swap2\n      div\n      mul\n      0x20\n      add\n      mload(0x40)\n      swap1\n      dup2\n      add\n      0x40\n      mstore\n      dup1\n      swap3\n      swap2\n      swap1\n      dup2\n      dup2\n      mstore\n      0x20\n      add\n      dup3\n      dup1\n      sload\n      0x01\n      dup2\n      0x01\n      and\n      iszero\n      0x0100\n      mul\n      sub\n      and\n      0x02\n      swap1\n      div\n      dup1\n      iszero\n      tag_341\n      jumpi\n      dup1\n      0x1f\n      lt\n      tag_342\n      jumpi\n      0x0100\n      dup1\n      dup4\n      sload\n      div\n      mul\n      dup4\n      mstore\n      swap2\n      0x20\n      add\n      swap2\n      jump(tag_341)\n    tag_342:\n      dup3\n      add\n      swap2\n      swap1\n      0x00\n      mstore\n      keccak256(0x00, 0x20)\n      swap1\n    tag_343:\n      dup2\n      sload\n      dup2\n      mstore\n      swap1\n      0x01\n      add\n      swap1\n      0x20\n      add\n      dup1\n      dup4\n      gt\n      tag_343\n      jumpi\n      dup3\n      swap1\n      sub\n      0x1f\n      and\n      dup3\n      add\n      swap2\n    tag_341:\n      pop\n      pop\n      pop\n      pop\n      pop\n      dup2\n      mstore\n      0x20\n      add\n      0x03\n      dup3\n      add\n      0x00\n      swap1\n      sload\n      swap1\n      0x0100\n      exp\n      swap1\n      div\n      0xffffffffffffffffffffffffffffffffffffffff\n      and\n      0xffffffffffffffffffffffffffffffffffffffff\n      and\n      0xffffffffffffffffffffffffffffffffffffffff\n      and\n      dup2\n      mstore\n      0x20\n      add\n      0x03\n      dup3\n      add\n      0x14\n      swap1\n      sload\n      swap1\n      0x0100\n      exp\n      swap1\n      div\n      0xff\n      and\n      iszero\n      iszero\n      iszero\n      iszero\n      dup2\n      mstore\n      pop\n      pop\n        /* \"EHealth.sol\":9907:9910  ret */\n      dup3\n        /* \"EHealth.sol\":9911:9912  i */\n      dup3\n        /* \"EHealth.sol\":9907:9913  ret[i] */\n      dup2\n      mload\n      dup2\n      lt\n      tag_344\n      jumpi\n      invalid\n    tag_344:\n      0x20\n      mul\n      0x20\n      add\n      add\n        /* \"EHealth.sol\":9907:9930  ret[i]=sensorsDoctor[i] */\n      dup2\n      swap1\n      mstore\n      pop\n        /* \"EHealth.sol\":9846:9946  if(_idDoctor == sensorsDoctor[i].idDoctor){\r... */\n    tag_335:\n        /* \"EHealth.sol\":9826:9829  i++ */\n      dup1\n      dup1\n      0x01\n      add\n      swap2\n      pop\n      pop\n        /* \"EHealth.sol\":9784:9957  for (uint i = 0; i< sensorsDoctor.length; i++) {\r... */\n      jump(tag_330)\n    tag_331:\n      pop\n        /* \"EHealth.sol\":9974:9977  ret */\n      dup1\n        /* \"EHealth.sol\":9967:9977  return ret */\n      swap2\n      pop\n      pop\n        /* \"EHealth.sol\":9619:9985  function getAllSensorOfDoctor (address _idDoctor) public view returns (Sensor[] memory){\r... */\n      swap2\n      swap1\n      pop\n      jump\t// out\n        /* \"EHealth.sol\":4154:4505  function ReadHospital(address _address)public view returns(string memory, string memory, string memory, uint, bool){\r... */\n    tag_96:\n        /* \"EHealth.sol\":4213:4226  string memory */\n      0x60\n        /* \"EHealth.sol\":4228:4241  string memory */\n      dup1\n        /* \"EHealth.sol\":4243:4256  string memory */\n      0x60\n        /* \"EHealth.sol\":4258:4262  uint */\n      0x00\n        /* \"EHealth.sol\":4264:4268  bool */\n      dup1\n        /* \"EHealth.sol\":4280:4290  uint index */\n      0x00\n        /* \"EHealth.sol\":4293:4315  FindHospital(_address) */\n      tag_346\n        /* \"EHealth.sol\":4306:4314  _address */\n      dup8\n        /* \"EHealth.sol\":4293:4305  FindHospital */\n      tag_203\n        /* \"EHealth.sol\":4293:4315  FindHospital(_address) */\n      jump\t// in\n    tag_346:\n        /* \"EHealth.sol\":4280:4315  uint index = FindHospital(_address) */\n      swap1\n      pop\n        /* \"EHealth.sol\":4334:4349  hospitalCenters */\n      0x04\n        /* \"EHealth.sol\":4350:4355  index */\n      dup2\n        /* \"EHealth.sol\":4334:4356  hospitalCenters[index] */\n      dup2\n      sload\n      dup2\n      lt\n      tag_347\n      jumpi\n      invalid\n    tag_347:\n      swap1\n      0x00\n      mstore\n      keccak256(0x00, 0x20)\n      swap1\n      0x06\n      mul\n      add\n        /* \"EHealth.sol\":4334:4361  hospitalCenters[index].name */\n      0x01\n      add\n        /* \"EHealth.sol\":4362:4377  hospitalCenters */\n      0x04\n        /* \"EHealth.sol\":4378:4383  index */\n      dup3\n        /* \"EHealth.sol\":4362:4384  hospitalCenters[index] */\n      dup2\n      sload\n      dup2\n      lt\n      tag_349\n      jumpi\n      invalid\n    tag_349:\n      swap1\n      0x00\n      mstore\n      keccak256(0x00, 0x20)\n      swap1\n      0x06\n      mul\n      add\n        /* \"EHealth.sol\":4362:4389  hospitalCenters[index].city */\n      0x02\n      add\n        /* \"EHealth.sol\":4390:4405  hospitalCenters */\n      0x04\n        /* \"EHealth.sol\":4406:4411  index */\n      dup4\n        /* \"EHealth.sol\":4390:4412  hospitalCenters[index] */\n      dup2\n      sload\n      dup2\n      lt\n      tag_351\n      jumpi\n      invalid\n    tag_351:\n      swap1\n      0x00\n      mstore\n      keccak256(0x00, 0x20)\n      swap1\n      0x06\n      mul\n      add\n        /* \"EHealth.sol\":4390:4418  hospitalCenters[index].state */\n      0x03\n      add\n        /* \"EHealth.sol\":4429:4444  hospitalCenters */\n      0x04\n        /* \"EHealth.sol\":4445:4450  index */\n      dup5\n        /* \"EHealth.sol\":4429:4451  hospitalCenters[index] */\n      dup2\n      sload\n      dup2\n      lt\n      tag_353\n      jumpi\n      invalid\n    tag_353:\n      swap1\n      0x00\n      mstore\n      keccak256(0x00, 0x20)\n      swap1\n      0x06\n      mul\n      add\n        /* \"EHealth.sol\":4429:4462  hospitalCenters[index].postalCode */\n      0x04\n      add\n      sload\n        /* \"EHealth.sol\":4463:4478  hospitalCenters */\n      0x04\n        /* \"EHealth.sol\":4479:4484  index */\n      dup6\n        /* \"EHealth.sol\":4463:4485  hospitalCenters[index] */\n      dup2\n      sload\n      dup2\n      lt\n      tag_355\n      jumpi\n      invalid\n    tag_355:\n      swap1\n      0x00\n      mstore\n      keccak256(0x00, 0x20)\n      swap1\n      0x06\n      mul\n      add\n        /* \"EHealth.sol\":4463:4496  hospitalCenters[index].permission */\n      0x05\n      add\n      0x00\n      swap1\n      sload\n      swap1\n      0x0100\n      exp\n      swap1\n      div\n      0xff\n      and\n        /* \"EHealth.sol\":4326:4497  return (hospitalCenters[index].name,hospitalCenters[index].city,hospitalCenters[index].state,\r... */\n      dup5\n      dup1\n      sload\n      0x01\n      dup2\n      0x01\n      and\n      iszero\n      0x0100\n      mul\n      sub\n      and\n      0x02\n      swap1\n      div\n      dup1\n      0x1f\n      add\n      0x20\n      dup1\n      swap2\n      div\n      mul\n      0x20\n      add\n      mload(0x40)\n      swap1\n      dup2\n      add\n      0x40\n      mstore\n      dup1\n      swap3\n      swap2\n      swap1\n      dup2\n      dup2\n      mstore\n      0x20\n      add\n      dup3\n      dup1\n      sload\n      0x01\n      dup2\n      0x01\n      and\n      iszero\n      0x0100\n      mul\n      sub\n      and\n      0x02\n      swap1\n      div\n      dup1\n      iszero\n      tag_357\n      jumpi\n      dup1\n      0x1f\n      lt\n      tag_358\n      jumpi\n      0x0100\n      dup1\n      dup4\n      sload\n      div\n      mul\n      dup4\n      mstore\n      swap2\n      0x20\n      add\n      swap2\n      jump(tag_357)\n    tag_358:\n      dup3\n      add\n      swap2\n      swap1\n      0x00\n      mstore\n      keccak256(0x00, 0x20)\n      swap1\n    tag_359:\n      dup2\n      sload\n      dup2\n      mstore\n      swap1\n      0x01\n      add\n      swap1\n      0x20\n      add\n      dup1\n      dup4\n      gt\n      tag_359\n      jumpi\n      dup3\n      swap1\n      sub\n      0x1f\n      and\n      dup3\n      add\n      swap2\n    tag_357:\n      pop\n      pop\n      pop\n      pop\n      pop\n      swap5\n      pop\n      dup4\n      dup1\n      sload\n      0x01\n      dup2\n      0x01\n      and\n      iszero\n      0x0100\n      mul\n      sub\n      and\n      0x02\n      swap1\n      div\n      dup1\n      0x1f\n      add\n      0x20\n      dup1\n      swap2\n      div\n      mul\n      0x20\n      add\n      mload(0x40)\n      swap1\n      dup2\n      add\n      0x40\n      mstore\n      dup1\n      swap3\n      swap2\n      swap1\n      dup2\n      dup2\n      mstore\n      0x20\n      add\n      dup3\n      dup1\n      sload\n      0x01\n      dup2\n      0x01\n      and\n      iszero\n      0x0100\n      mul\n      sub\n      and\n      0x02\n      swap1\n      div\n      dup1\n      iszero\n      tag_360\n      jumpi\n      dup1\n      0x1f\n      lt\n      tag_361\n      jumpi\n      0x0100\n      dup1\n      dup4\n      sload\n      div\n      mul\n      dup4\n      mstore\n      swap2\n      0x20\n      add\n      swap2\n      jump(tag_360)\n    tag_361:\n      dup3\n      add\n      swap2\n      swap1\n      0x00\n      mstore\n      keccak256(0x00, 0x20)\n      swap1\n    tag_362:\n      dup2\n      sload\n      dup2\n      mstore\n      swap1\n      0x01\n      add\n      swap1\n      0x20\n      add\n      dup1\n      dup4\n      gt\n      tag_362\n      jumpi\n      dup3\n      swap1\n      sub\n      0x1f\n      and\n      dup3\n      add\n      swap2\n    tag_360:\n      pop\n      pop\n      pop\n      pop\n      pop\n      swap4\n      pop\n      dup3\n      dup1\n      sload\n      0x01\n      dup2\n      0x01\n      and\n      iszero\n      0x0100\n      mul\n      sub\n      and\n      0x02\n      swap1\n      div\n      dup1\n      0x1f\n      add\n      0x20\n      dup1\n      swap2\n      div\n      mul\n      0x20\n      add\n      mload(0x40)\n      swap1\n      dup2\n      add\n      0x40\n      mstore\n      dup1\n      swap3\n      swap2\n      swap1\n      dup2\n      dup2\n      mstore\n      0x20\n      add\n      dup3\n      dup1\n      sload\n      0x01\n      dup2\n      0x01\n      and\n      iszero\n      0x0100\n      mul\n      sub\n      and\n      0x02\n      swap1\n      div\n      dup1\n      iszero\n      tag_363\n      jumpi\n      dup1\n      0x1f\n      lt\n      tag_364\n      jumpi\n      0x0100\n      dup1\n      dup4\n      sload\n      div\n      mul\n      dup4\n      mstore\n      swap2\n      0x20\n      add\n      swap2\n      jump(tag_363)\n    tag_364:\n      dup3\n      add\n      swap2\n      swap1\n      0x00\n      mstore\n      keccak256(0x00, 0x20)\n      swap1\n    tag_365:\n      dup2\n      sload\n      dup2\n      mstore\n      swap1\n      0x01\n      add\n      swap1\n      0x20\n      add\n      dup1\n      dup4\n      gt\n      tag_365\n      jumpi\n      dup3\n      swap1\n      sub\n      0x1f\n      and\n      dup3\n      add\n      swap2\n    tag_363:\n      pop\n      pop\n      pop\n      pop\n      pop\n      swap3\n      pop\n      swap6\n      pop\n      swap6\n      pop\n      swap6\n      pop\n      swap6\n      pop\n      swap6\n      pop\n      pop\n        /* \"EHealth.sol\":4154:4505  function ReadHospital(address _address)public view returns(string memory, string memory, string memory, uint, bool){\r... */\n      swap2\n      swap4\n      swap6\n      swap1\n      swap3\n      swap5\n      pop\n      jump\t// out\n        /* \"EHealth.sol\":5257:5587  function RemoveDoctor(address _id) public {\r... */\n    tag_101:\n        /* \"EHealth.sol\":5310:5320  uint index */\n      0x00\n        /* \"EHealth.sol\":5323:5338  FindDoctor(_id) */\n      tag_367\n        /* \"EHealth.sol\":5334:5337  _id */\n      dup3\n        /* \"EHealth.sol\":5323:5333  FindDoctor */\n      tag_159\n        /* \"EHealth.sol\":5323:5338  FindDoctor(_id) */\n      jump\t// in\n    tag_367:\n        /* \"EHealth.sol\":5310:5338  uint index = FindDoctor(_id) */\n      swap1\n      pop\n        /* \"EHealth.sol\":5383:5388  false */\n      0x00\n        /* \"EHealth.sol\":5349:5364  doctorsHospital */\n      0x06\n        /* \"EHealth.sol\":5365:5370  index */\n      dup3\n        /* \"EHealth.sol\":5349:5371  doctorsHospital[index] */\n      dup2\n      sload\n      dup2\n      lt\n      tag_368\n      jumpi\n      invalid\n    tag_368:\n      swap1\n      0x00\n      mstore\n      keccak256(0x00, 0x20)\n      swap1\n      0x03\n      mul\n      add\n        /* \"EHealth.sol\":5349:5382  doctorsHospital[index].permission */\n      0x02\n      add\n      0x14\n        /* \"EHealth.sol\":5349:5388  doctorsHospital[index].permission=false */\n      0x0100\n      exp\n      dup2\n      sload\n      dup2\n      0xff\n      mul\n      not\n      and\n      swap1\n      dup4\n      iszero\n      iszero\n      mul\n      or\n      swap1\n      sstore\n      pop\n        /* \"EHealth.sol\":5404:5579  DeleteDoctor(doctorsHospital[index].idDoctor,\r... */\n      0x780b3c74ec1e08d8c65fd8a12c6ac2da5c15f2d3b5e54335b51671f63b7d2ad0\n        /* \"EHealth.sol\":5417:5432  doctorsHospital */\n      0x06\n        /* \"EHealth.sol\":5433:5438  index */\n      dup3\n        /* \"EHealth.sol\":5417:5439  doctorsHospital[index] */\n      dup2\n      sload\n      dup2\n      lt\n      tag_370\n      jumpi\n      invalid\n    tag_370:\n      swap1\n      0x00\n      mstore\n      keccak256(0x00, 0x20)\n      swap1\n      0x03\n      mul\n      add\n        /* \"EHealth.sol\":5417:5448  doctorsHospital[index].idDoctor */\n      0x00\n      add\n      0x00\n      swap1\n      sload\n      swap1\n      0x0100\n      exp\n      swap1\n      div\n      0xffffffffffffffffffffffffffffffffffffffff\n      and\n        /* \"EHealth.sol\":5459:5474  doctorsHospital */\n      0x06\n        /* \"EHealth.sol\":5475:5480  index */\n      dup4\n        /* \"EHealth.sol\":5459:5481  doctorsHospital[index] */\n      dup2\n      sload\n      dup2\n      lt\n      tag_372\n      jumpi\n      invalid\n    tag_372:\n      swap1\n      0x00\n      mstore\n      keccak256(0x00, 0x20)\n      swap1\n      0x03\n      mul\n      add\n        /* \"EHealth.sol\":5459:5492  doctorsHospital[index].nameDoctor */\n      0x01\n      add\n        /* \"EHealth.sol\":5503:5518  doctorsHospital */\n      0x06\n        /* \"EHealth.sol\":5519:5524  index */\n      dup5\n        /* \"EHealth.sol\":5503:5525  doctorsHospital[index] */\n      dup2\n      sload\n      dup2\n      lt\n      tag_374\n      jumpi\n      invalid\n    tag_374:\n      swap1\n      0x00\n      mstore\n      keccak256(0x00, 0x20)\n      swap1\n      0x03\n      mul\n      add\n        /* \"EHealth.sol\":5503:5534  doctorsHospital[index].hospital */\n      0x02\n      add\n      0x00\n      swap1\n      sload\n      swap1\n      0x0100\n      exp\n      swap1\n      div\n      0xffffffffffffffffffffffffffffffffffffffff\n      and\n        /* \"EHealth.sol\":5545:5560  doctorsHospital */\n      0x06\n        /* \"EHealth.sol\":5561:5566  index */\n      dup6\n        /* \"EHealth.sol\":5545:5567  doctorsHospital[index] */\n      dup2\n      sload\n      dup2\n      lt\n      tag_376\n      jumpi\n      invalid\n    tag_376:\n      swap1\n      0x00\n      mstore\n      keccak256(0x00, 0x20)\n      swap1\n      0x03\n      mul\n      add\n        /* \"EHealth.sol\":5545:5578  doctorsHospital[index].permission */\n      0x02\n      add\n      0x14\n      swap1\n      sload\n      swap1\n      0x0100\n      exp\n      swap1\n      div\n      0xff\n      and\n        /* \"EHealth.sol\":5404:5579  DeleteDoctor(doctorsHospital[index].idDoctor,\r... */\n      mload(0x40)\n      tag_378\n      swap5\n      swap4\n      swap3\n      swap2\n      swap1\n      tag_379\n      jump\t// in\n    tag_378:\n      mload(0x40)\n      dup1\n      swap2\n      sub\n      swap1\n      log1\n        /* \"EHealth.sol\":5257:5587  function RemoveDoctor(address _id) public {\r... */\n      pop\n      pop\n      jump\t// out\n        /* \"EHealth.sol\":4012:4117  function Length_Hospitals() public view returns (uint256){\r... */\n    tag_103:\n        /* \"EHealth.sol\":4061:4068  uint256 */\n      0x00\n        /* \"EHealth.sol\":4087:4102  hospitalCenters */\n      0x04\n        /* \"EHealth.sol\":4087:4109  hospitalCenters.length */\n      dup1\n      sload\n      swap1\n      pop\n        /* \"EHealth.sol\":4080:4109  return hospitalCenters.length */\n      swap1\n      pop\n        /* \"EHealth.sol\":4012:4117  function Length_Hospitals() public view returns (uint256){\r... */\n      swap1\n      jump\t// out\n        /* \"EHealth.sol\":1804:2120  function AddHospital(address _idHospital, string memory _name, string memory _city, string memory _state, uint _postalCode ) public {\r... */\n    tag_108:\n        /* \"EHealth.sol\":1947:1962  hospitalCenters */\n      0x04\n        /* \"EHealth.sol\":1968:2030  Hospital(_idHospital, _name, _city, _state, _postalCode, true) */\n      mload(0x40)\n      dup1\n      0xc0\n      add\n      0x40\n      mstore\n      dup1\n        /* \"EHealth.sol\":1977:1988  _idHospital */\n      dup8\n        /* \"EHealth.sol\":1968:2030  Hospital(_idHospital, _name, _city, _state, _postalCode, true) */\n      0xffffffffffffffffffffffffffffffffffffffff\n      and\n      dup2\n      mstore\n      0x20\n      add\n        /* \"EHealth.sol\":1990:1995  _name */\n      dup7\n        /* \"EHealth.sol\":1968:2030  Hospital(_idHospital, _name, _city, _state, _postalCode, true) */\n      dup2\n      mstore\n      0x20\n      add\n        /* \"EHealth.sol\":1997:2002  _city */\n      dup6\n        /* \"EHealth.sol\":1968:2030  Hospital(_idHospital, _name, _city, _state, _postalCode, true) */\n      dup2\n      mstore\n      0x20\n      add\n        /* \"EHealth.sol\":2004:2010  _state */\n      dup5\n        /* \"EHealth.sol\":1968:2030  Hospital(_idHospital, _name, _city, _state, _postalCode, true) */\n      dup2\n      mstore\n      0x20\n      add\n        /* \"EHealth.sol\":2012:2023  _postalCode */\n      dup4\n        /* \"EHealth.sol\":1968:2030  Hospital(_idHospital, _name, _city, _state, _postalCode, true) */\n      dup2\n      mstore\n      0x20\n      add\n        /* \"EHealth.sol\":2025:2029  true */\n      0x01\n        /* \"EHealth.sol\":1968:2030  Hospital(_idHospital, _name, _city, _state, _postalCode, true) */\n      iszero\n      iszero\n      dup2\n      mstore\n      pop\n        /* \"EHealth.sol\":1947:2031  hospitalCenters.push(Hospital(_idHospital, _name, _city, _state, _postalCode, true)) */\n      swap1\n      dup1\n      0x01\n      dup2\n      sload\n      add\n      dup1\n      dup3\n      sstore\n      dup1\n      swap2\n      pop\n      pop\n      0x01\n      swap1\n      sub\n      swap1\n      0x00\n      mstore\n      keccak256(0x00, 0x20)\n      swap1\n      0x06\n      mul\n      add\n      0x00\n      swap1\n      swap2\n      swap1\n      swap2\n      swap1\n      swap2\n      pop\n      0x00\n      dup3\n      add\n      mload\n      dup2\n      0x00\n      add\n      exp(0x0100, 0x00)\n      dup2\n      sload\n      dup2\n      0xffffffffffffffffffffffffffffffffffffffff\n      mul\n      not\n      and\n      swap1\n      dup4\n      0xffffffffffffffffffffffffffffffffffffffff\n      and\n      mul\n      or\n      swap1\n      sstore\n      pop\n      0x20\n      dup3\n      add\n      mload\n      dup2\n      0x01\n      add\n      swap1\n      dup1\n      mload\n      swap1\n      0x20\n      add\n      swap1\n      tag_383\n      swap3\n      swap2\n      swap1\n      tag_162\n      jump\t// in\n    tag_383:\n      pop\n      0x40\n      dup3\n      add\n      mload\n      dup2\n      0x02\n      add\n      swap1\n      dup1\n      mload\n      swap1\n      0x20\n      add\n      swap1\n      tag_384\n      swap3\n      swap2\n      swap1\n      tag_162\n      jump\t// in\n    tag_384:\n      pop\n      0x60\n      dup3\n      add\n      mload\n      dup2\n      0x03\n      add\n      swap1\n      dup1\n      mload\n      swap1\n      0x20\n      add\n      swap1\n      tag_385\n      swap3\n      swap2\n      swap1\n      tag_162\n      jump\t// in\n    tag_385:\n      pop\n      0x80\n      dup3\n      add\n      mload\n      dup2\n      0x04\n      add\n      sstore\n      0xa0\n      dup3\n      add\n      mload\n      dup2\n      0x05\n      add\n      exp(0x0100, 0x00)\n      dup2\n      sload\n      dup2\n      0xff\n      mul\n      not\n      and\n      swap1\n      dup4\n      iszero\n      iszero\n      mul\n      or\n      swap1\n      sstore\n      pop\n      pop\n      pop\n        /* \"EHealth.sol\":2047:2112  NewHospital(_idHospital, _name, _city, _state, _postalCode, true) */\n      0xf646212acc3f5092fb0211ffd5121c0f706641b715e3982dab50afb395413dd5\n        /* \"EHealth.sol\":2059:2070  _idHospital */\n      dup6\n        /* \"EHealth.sol\":2072:2077  _name */\n      dup6\n        /* \"EHealth.sol\":2079:2084  _city */\n      dup6\n        /* \"EHealth.sol\":2086:2092  _state */\n      dup6\n        /* \"EHealth.sol\":2094:2105  _postalCode */\n      dup6\n        /* \"EHealth.sol\":2107:2111  true */\n      0x01\n        /* \"EHealth.sol\":2047:2112  NewHospital(_idHospital, _name, _city, _state, _postalCode, true) */\n      mload(0x40)\n      tag_386\n      swap7\n      swap6\n      swap5\n      swap4\n      swap3\n      swap2\n      swap1\n      tag_113\n      jump\t// in\n    tag_386:\n      mload(0x40)\n      dup1\n      swap2\n      sub\n      swap1\n      log1\n        /* \"EHealth.sol\":1804:2120  function AddHospital(address _idHospital, string memory _name, string memory _city, string memory _state, uint _postalCode ) public {\r... */\n      pop\n      pop\n      pop\n      pop\n      pop\n      jump\t// out\n        /* \"EHealth.sol\":301:345  mapping(address=> Hospital) public Hospitals */\n    tag_111:\n      mstore(0x20, 0x03)\n      dup1\n      0x00\n      mstore\n      keccak256(0x00, 0x40)\n      0x00\n      swap2\n      pop\n      swap1\n      pop\n      dup1\n      0x00\n      add\n      0x00\n      swap1\n      sload\n      swap1\n      0x0100\n      exp\n      swap1\n      div\n      0xffffffffffffffffffffffffffffffffffffffff\n      and\n      swap1\n      dup1\n      0x01\n      add\n      dup1\n      sload\n      0x01\n      dup2\n      0x01\n      and\n      iszero\n      0x0100\n      mul\n      sub\n      and\n      0x02\n      swap1\n      div\n      dup1\n      0x1f\n      add\n      0x20\n      dup1\n      swap2\n      div\n      mul\n      0x20\n      add\n      mload(0x40)\n      swap1\n      dup2\n      add\n      0x40\n      mstore\n      dup1\n      swap3\n      swap2\n      swap1\n      dup2\n      dup2\n      mstore\n      0x20\n      add\n      dup3\n      dup1\n      sload\n      0x01\n      dup2\n      0x01\n      and\n      iszero\n      0x0100\n      mul\n      sub\n      and\n      0x02\n      swap1\n      div\n      dup1\n      iszero\n      tag_387\n      jumpi\n      dup1\n      0x1f\n      lt\n      tag_388\n      jumpi\n      0x0100\n      dup1\n      dup4\n      sload\n      div\n      mul\n      dup4\n      mstore\n      swap2\n      0x20\n      add\n      swap2\n      jump(tag_387)\n    tag_388:\n      dup3\n      add\n      swap2\n      swap1\n      0x00\n      mstore\n      keccak256(0x00, 0x20)\n      swap1\n    tag_389:\n      dup2\n      sload\n      dup2\n      mstore\n      swap1\n      0x01\n      add\n      swap1\n      0x20\n      add\n      dup1\n      dup4\n      gt\n      tag_389\n      jumpi\n      dup3\n      swap1\n      sub\n      0x1f\n      and\n      dup3\n      add\n      swap2\n    tag_387:\n      pop\n      pop\n      pop\n      pop\n      pop\n      swap1\n      dup1\n      0x02\n      add\n      dup1\n      sload\n      0x01\n      dup2\n      0x01\n      and\n      iszero\n      0x0100\n      mul\n      sub\n      and\n      0x02\n      swap1\n      div\n      dup1\n      0x1f\n      add\n      0x20\n      dup1\n      swap2\n      div\n      mul\n      0x20\n      add\n      mload(0x40)\n      swap1\n      dup2\n      add\n      0x40\n      mstore\n      dup1\n      swap3\n      swap2\n      swap1\n      dup2\n      dup2\n      mstore\n      0x20\n      add\n      dup3\n      dup1\n      sload\n      0x01\n      dup2\n      0x01\n      and\n      iszero\n      0x0100\n      mul\n      sub\n      and\n      0x02\n      swap1\n      div\n      dup1\n      iszero\n      tag_390\n      jumpi\n      dup1\n      0x1f\n      lt\n      tag_391\n      jumpi\n      0x0100\n      dup1\n      dup4\n      sload\n      div\n      mul\n      dup4\n      mstore\n      swap2\n      0x20\n      add\n      swap2\n      jump(tag_390)\n    tag_391:\n      dup3\n      add\n      swap2\n      swap1\n      0x00\n      mstore\n      keccak256(0x00, 0x20)\n      swap1\n    tag_392:\n      dup2\n      sload\n      dup2\n      mstore\n      swap1\n      0x01\n      add\n      swap1\n      0x20\n      add\n      dup1\n      dup4\n      gt\n      tag_392\n      jumpi\n      dup3\n      swap1\n      sub\n      0x1f\n      and\n      dup3\n      add\n      swap2\n    tag_390:\n      pop\n      pop\n      pop\n      pop\n      pop\n      swap1\n      dup1\n      0x03\n      add\n      dup1\n      sload\n      0x01\n      dup2\n      0x01\n      and\n      iszero\n      0x0100\n      mul\n      sub\n      and\n      0x02\n      swap1\n      div\n      dup1\n      0x1f\n      add\n      0x20\n      dup1\n      swap2\n      div\n      mul\n      0x20\n      add\n      mload(0x40)\n      swap1\n      dup2\n      add\n      0x40\n      mstore\n      dup1\n      swap3\n      swap2\n      swap1\n      dup2\n      dup2\n      mstore\n      0x20\n      add\n      dup3\n      dup1\n      sload\n      0x01\n      dup2\n      0x01\n      and\n      iszero\n      0x0100\n      mul\n      sub\n      and\n      0x02\n      swap1\n      div\n      dup1\n      iszero\n      tag_393\n      jumpi\n      dup1\n      0x1f\n      lt\n      tag_394\n      jumpi\n      0x0100\n      dup1\n      dup4\n      sload\n      div\n      mul\n      dup4\n      mstore\n      swap2\n      0x20\n      add\n      swap2\n      jump(tag_393)\n    tag_394:\n      dup3\n      add\n      swap2\n      swap1\n      0x00\n      mstore\n      keccak256(0x00, 0x20)\n      swap1\n    tag_395:\n      dup2\n      sload\n      dup2\n      mstore\n      swap1\n      0x01\n      add\n      swap1\n      0x20\n      add\n      dup1\n      dup4\n      gt\n      tag_395\n      jumpi\n      dup3\n      swap1\n      sub\n      0x1f\n      and\n      dup3\n      add\n      swap2\n    tag_393:\n      pop\n      pop\n      pop\n      pop\n      pop\n      swap1\n      dup1\n      0x04\n      add\n      sload\n      swap1\n      dup1\n      0x05\n      add\n      0x00\n      swap1\n      sload\n      swap1\n      0x0100\n      exp\n      swap1\n      div\n      0xff\n      and\n      swap1\n      pop\n      dup7\n      jump\t// out\n        /* \"EHealth.sol\":9174:9275  function Length_sensors() public view returns (uint256){\r... */\n    tag_115:\n        /* \"EHealth.sol\":9221:9228  uint256 */\n      0x00\n        /* \"EHealth.sol\":9247:9260  sensorsDoctor */\n      0x08\n        /* \"EHealth.sol\":9247:9267  sensorsDoctor.length */\n      dup1\n      sload\n      swap1\n      pop\n        /* \"EHealth.sol\":9240:9267  return sensorsDoctor.length */\n      swap1\n      pop\n        /* \"EHealth.sol\":9174:9275  function Length_sensors() public view returns (uint256){\r... */\n      swap1\n      jump\t// out\n        /* \"EHealth.sol\":6784:7158  function getAllDoctorsInHospital(address _address) public view returns (Doctor[] memory){\r... */\n    tag_119:\n        /* \"EHealth.sol\":6856:6871  Doctor[] memory */\n      0x60\n        /* \"EHealth.sol\":6883:6902  Doctor[] memory ret */\n      0x00\n        /* \"EHealth.sol\":6918:6933  doctorsHospital */\n      0x06\n        /* \"EHealth.sol\":6918:6940  doctorsHospital.length */\n      dup1\n      sload\n      swap1\n      pop\n        /* \"EHealth.sol\":6905:6941  new Doctor[](doctorsHospital.length) */\n      0xffffffffffffffff\n      dup2\n      gt\n      dup1\n      iszero\n      tag_398\n      jumpi\n      0x00\n      dup1\n      revert\n    tag_398:\n      pop\n      mload(0x40)\n      swap1\n      dup1\n      dup3\n      mstore\n      dup1\n      0x20\n      mul\n      0x20\n      add\n      dup3\n      add\n      0x40\n      mstore\n      dup1\n      iszero\n      tag_399\n      jumpi\n      dup2\n      0x20\n      add\n    tag_400:\n      tag_401\n      tag_402\n      jump\t// in\n    tag_401:\n      dup2\n      mstore\n      0x20\n      add\n      swap1\n      0x01\n      swap1\n      sub\n      swap1\n      dup2\n      tag_400\n      jumpi\n      swap1\n      pop\n    tag_399:\n      pop\n        /* \"EHealth.sol\":6883:6941  Doctor[] memory ret = new Doctor[](doctorsHospital.length) */\n      swap1\n      pop\n        /* \"EHealth.sol\":6957:6963  uint i */\n      0x00\n        /* \"EHealth.sol\":6952:7130  for (uint i = 0; i< doctorsHospital.length; i++) {\r... */\n    tag_403:\n        /* \"EHealth.sol\":6972:6987  doctorsHospital */\n      0x06\n        /* \"EHealth.sol\":6972:6994  doctorsHospital.length */\n      dup1\n      sload\n      swap1\n      pop\n        /* \"EHealth.sol\":6969:6970  i */\n      dup2\n        /* \"EHealth.sol\":6969:6994  i< doctorsHospital.length */\n      lt\n        /* \"EHealth.sol\":6952:7130  for (uint i = 0; i< doctorsHospital.length; i++) {\r... */\n      iszero\n      tag_404\n      jumpi\n        /* \"EHealth.sol\":7031:7046  doctorsHospital */\n      0x06\n        /* \"EHealth.sol\":7047:7048  i */\n      dup2\n        /* \"EHealth.sol\":7031:7049  doctorsHospital[i] */\n      dup2\n      sload\n      dup2\n      lt\n      tag_406\n      jumpi\n      invalid\n    tag_406:\n      swap1\n      0x00\n      mstore\n      keccak256(0x00, 0x20)\n      swap1\n      0x03\n      mul\n      add\n        /* \"EHealth.sol\":7031:7058  doctorsHospital[i].hospital */\n      0x02\n      add\n      0x00\n      swap1\n      sload\n      swap1\n      0x0100\n      exp\n      swap1\n      div\n      0xffffffffffffffffffffffffffffffffffffffff\n      and\n        /* \"EHealth.sol\":7019:7058  _address == doctorsHospital[i].hospital */\n      0xffffffffffffffffffffffffffffffffffffffff\n      and\n        /* \"EHealth.sol\":7019:7027  _address */\n      dup5\n        /* \"EHealth.sol\":7019:7058  _address == doctorsHospital[i].hospital */\n      0xffffffffffffffffffffffffffffffffffffffff\n      and\n      eq\n        /* \"EHealth.sol\":7016:7119  if(_address == doctorsHospital[i].hospital){\r... */\n      iszero\n      tag_408\n      jumpi\n        /* \"EHealth.sol\":7085:7100  doctorsHospital */\n      0x06\n        /* \"EHealth.sol\":7101:7102  i */\n      dup2\n        /* \"EHealth.sol\":7085:7103  doctorsHospital[i] */\n      dup2\n      sload\n      dup2\n      lt\n      tag_409\n      jumpi\n      invalid\n    tag_409:\n      swap1\n      0x00\n      mstore\n      keccak256(0x00, 0x20)\n      swap1\n      0x03\n      mul\n      add\n        /* \"EHealth.sol\":7078:7103  ret[i]=doctorsHospital[i] */\n      mload(0x40)\n      dup1\n      0x80\n      add\n      0x40\n      mstore\n      swap1\n      dup2\n      0x00\n      dup3\n      add\n      0x00\n      swap1\n      sload\n      swap1\n      0x0100\n      exp\n      swap1\n      div\n      0xffffffffffffffffffffffffffffffffffffffff\n      and\n      0xffffffffffffffffffffffffffffffffffffffff\n      and\n      0xffffffffffffffffffffffffffffffffffffffff\n      and\n      dup2\n      mstore\n      0x20\n      add\n      0x01\n      dup3\n      add\n      dup1\n      sload\n      0x01\n      dup2\n      0x01\n      and\n      iszero\n      0x0100\n      mul\n      sub\n      and\n      0x02\n      swap1\n      div\n      dup1\n      0x1f\n      add\n      0x20\n      dup1\n      swap2\n      div\n      mul\n      0x20\n      add\n      mload(0x40)\n      swap1\n      dup2\n      add\n      0x40\n      mstore\n      dup1\n      swap3\n      swap2\n      swap1\n      dup2\n      dup2\n      mstore\n      0x20\n      add\n      dup3\n      dup1\n      sload\n      0x01\n      dup2\n      0x01\n      and\n      iszero\n      0x0100\n      mul\n      sub\n      and\n      0x02\n      swap1\n      div\n      dup1\n      iszero\n      tag_411\n      jumpi\n      dup1\n      0x1f\n      lt\n      tag_412\n      jumpi\n      0x0100\n      dup1\n      dup4\n      sload\n      div\n      mul\n      dup4\n      mstore\n      swap2\n      0x20\n      add\n      swap2\n      jump(tag_411)\n    tag_412:\n      dup3\n      add\n      swap2\n      swap1\n      0x00\n      mstore\n      keccak256(0x00, 0x20)\n      swap1\n    tag_413:\n      dup2\n      sload\n      dup2\n      mstore\n      swap1\n      0x01\n      add\n      swap1\n      0x20\n      add\n      dup1\n      dup4\n      gt\n      tag_413\n      jumpi\n      dup3\n      swap1\n      sub\n      0x1f\n      and\n      dup3\n      add\n      swap2\n    tag_411:\n      pop\n      pop\n      pop\n      pop\n      pop\n      dup2\n      mstore\n      0x20\n      add\n      0x02\n      dup3\n      add\n      0x00\n      swap1\n      sload\n      swap1\n      0x0100\n      exp\n      swap1\n      div\n      0xffffffffffffffffffffffffffffffffffffffff\n      and\n      0xffffffffffffffffffffffffffffffffffffffff\n      and\n      0xffffffffffffffffffffffffffffffffffffffff\n      and\n      dup2\n      mstore\n      0x20\n      add\n      0x02\n      dup3\n      add\n      0x14\n      swap1\n      sload\n      swap1\n      0x0100\n      exp\n      swap1\n      div\n      0xff\n      and\n      iszero\n      iszero\n      iszero\n      iszero\n      dup2\n      mstore\n      pop\n      pop\n        /* \"EHealth.sol\":7078:7081  ret */\n      dup3\n        /* \"EHealth.sol\":7082:7083  i */\n      dup3\n        /* \"EHealth.sol\":7078:7084  ret[i] */\n      dup2\n      mload\n      dup2\n      lt\n      tag_414\n      jumpi\n      invalid\n    tag_414:\n      0x20\n      mul\n      0x20\n      add\n      add\n        /* \"EHealth.sol\":7078:7103  ret[i]=doctorsHospital[i] */\n      dup2\n      swap1\n      mstore\n      pop\n        /* \"EHealth.sol\":7016:7119  if(_address == doctorsHospital[i].hospital){\r... */\n    tag_408:\n        /* \"EHealth.sol\":6996:6999  i++ */\n      dup1\n      dup1\n      0x01\n      add\n      swap2\n      pop\n      pop\n        /* \"EHealth.sol\":6952:7130  for (uint i = 0; i< doctorsHospital.length; i++) {\r... */\n      jump(tag_403)\n    tag_404:\n      pop\n        /* \"EHealth.sol\":7147:7150  ret */\n      dup1\n        /* \"EHealth.sol\":7140:7150  return ret */\n      swap2\n      pop\n      pop\n        /* \"EHealth.sol\":6784:7158  function getAllDoctorsInHospital(address _address) public view returns (Doctor[] memory){\r... */\n      swap2\n      swap1\n      pop\n      jump\t// out\n        /* \"EHealth.sol\":536:569  Hospital[] public hospitalCenters */\n    tag_124:\n      0x04\n      dup2\n      dup2\n      sload\n      dup2\n      lt\n      tag_415\n      jumpi\n      0x00\n      dup1\n      revert\n    tag_415:\n      swap1\n      0x00\n      mstore\n      keccak256(0x00, 0x20)\n      swap1\n      0x06\n      mul\n      add\n      0x00\n      swap2\n      pop\n      swap1\n      pop\n      dup1\n      0x00\n      add\n      0x00\n      swap1\n      sload\n      swap1\n      0x0100\n      exp\n      swap1\n      div\n      0xffffffffffffffffffffffffffffffffffffffff\n      and\n      swap1\n      dup1\n      0x01\n      add\n      dup1\n      sload\n      0x01\n      dup2\n      0x01\n      and\n      iszero\n      0x0100\n      mul\n      sub\n      and\n      0x02\n      swap1\n      div\n      dup1\n      0x1f\n      add\n      0x20\n      dup1\n      swap2\n      div\n      mul\n      0x20\n      add\n      mload(0x40)\n      swap1\n      dup2\n      add\n      0x40\n      mstore\n      dup1\n      swap3\n      swap2\n      swap1\n      dup2\n      dup2\n      mstore\n      0x20\n      add\n      dup3\n      dup1\n      sload\n      0x01\n      dup2\n      0x01\n      and\n      iszero\n      0x0100\n      mul\n      sub\n      and\n      0x02\n      swap1\n      div\n      dup1\n      iszero\n      tag_417\n      jumpi\n      dup1\n      0x1f\n      lt\n      tag_418\n      jumpi\n      0x0100\n      dup1\n      dup4\n      sload\n      div\n      mul\n      dup4\n      mstore\n      swap2\n      0x20\n      add\n      swap2\n      jump(tag_417)\n    tag_418:\n      dup3\n      add\n      swap2\n      swap1\n      0x00\n      mstore\n      keccak256(0x00, 0x20)\n      swap1\n    tag_419:\n      dup2\n      sload\n      dup2\n      mstore\n      swap1\n      0x01\n      add\n      swap1\n      0x20\n      add\n      dup1\n      dup4\n      gt\n      tag_419\n      jumpi\n      dup3\n      swap1\n      sub\n      0x1f\n      and\n      dup3\n      add\n      swap2\n    tag_417:\n      pop\n      pop\n      pop\n      pop\n      pop\n      swap1\n      dup1\n      0x02\n      add\n      dup1\n      sload\n      0x01\n      dup2\n      0x01\n      and\n      iszero\n      0x0100\n      mul\n      sub\n      and\n      0x02\n      swap1\n      div\n      dup1\n      0x1f\n      add\n      0x20\n      dup1\n      swap2\n      div\n      mul\n      0x20\n      add\n      mload(0x40)\n      swap1\n      dup2\n      add\n      0x40\n      mstore\n      dup1\n      swap3\n      swap2\n      swap1\n      dup2\n      dup2\n      mstore\n      0x20\n      add\n      dup3\n      dup1\n      sload\n      0x01\n      dup2\n      0x01\n      and\n      iszero\n      0x0100\n      mul\n      sub\n      and\n      0x02\n      swap1\n      div\n      dup1\n      iszero\n      tag_420\n      jumpi\n      dup1\n      0x1f\n      lt\n      tag_421\n      jumpi\n      0x0100\n      dup1\n      dup4\n      sload\n      div\n      mul\n      dup4\n      mstore\n      swap2\n      0x20\n      add\n      swap2\n      jump(tag_420)\n    tag_421:\n      dup3\n      add\n      swap2\n      swap1\n      0x00\n      mstore\n      keccak256(0x00, 0x20)\n      swap1\n    tag_422:\n      dup2\n      sload\n      dup2\n      mstore\n      swap1\n      0x01\n      add\n      swap1\n      0x20\n      add\n      dup1\n      dup4\n      gt\n      tag_422\n      jumpi\n      dup3\n      swap1\n      sub\n      0x1f\n      and\n      dup3\n      add\n      swap2\n    tag_420:\n      pop\n      pop\n      pop\n      pop\n      pop\n      swap1\n      dup1\n      0x03\n      add\n      dup1\n      sload\n      0x01\n      dup2\n      0x01\n      and\n      iszero\n      0x0100\n      mul\n      sub\n      and\n      0x02\n      swap1\n      div\n      dup1\n      0x1f\n      add\n      0x20\n      dup1\n      swap2\n      div\n      mul\n      0x20\n      add\n      mload(0x40)\n      swap1\n      dup2\n      add\n      0x40\n      mstore\n      dup1\n      swap3\n      swap2\n      swap1\n      dup2\n      dup2\n      mstore\n      0x20\n      add\n      dup3\n      dup1\n      sload\n      0x01\n      dup2\n      0x01\n      and\n      iszero\n      0x0100\n      mul\n      sub\n      and\n      0x02\n      swap1\n      div\n      dup1\n      iszero\n      tag_423\n      jumpi\n      dup1\n      0x1f\n      lt\n      tag_424\n      jumpi\n      0x0100\n      dup1\n      dup4\n      sload\n      div\n      mul\n      dup4\n      mstore\n      swap2\n      0x20\n      add\n      swap2\n      jump(tag_423)\n    tag_424:\n      dup3\n      add\n      swap2\n      swap1\n      0x00\n      mstore\n      keccak256(0x00, 0x20)\n      swap1\n    tag_425:\n      dup2\n      sload\n      dup2\n      mstore\n      swap1\n      0x01\n      add\n      swap1\n      0x20\n      add\n      dup1\n      dup4\n      gt\n      tag_425\n      jumpi\n      dup3\n      swap1\n      sub\n      0x1f\n      and\n      dup3\n      add\n      swap2\n    tag_423:\n      pop\n      pop\n      pop\n      pop\n      pop\n      swap1\n      dup1\n      0x04\n      add\n      sload\n      swap1\n      dup1\n      0x05\n      add\n      0x00\n      swap1\n      sload\n      swap1\n      0x0100\n      exp\n      swap1\n      div\n      0xff\n      and\n      swap1\n      pop\n      dup7\n      jump\t// out\n        /* \"EHealth.sol\":598:638  mapping(address=> Doctor) public Doctors */\n    tag_128:\n      mstore(0x20, 0x05)\n      dup1\n      0x00\n      mstore\n      keccak256(0x00, 0x40)\n      0x00\n      swap2\n      pop\n      swap1\n      pop\n      dup1\n      0x00\n      add\n      0x00\n      swap1\n      sload\n      swap1\n      0x0100\n      exp\n      swap1\n      div\n      0xffffffffffffffffffffffffffffffffffffffff\n      and\n      swap1\n      dup1\n      0x01\n      add\n      dup1\n      sload\n      0x01\n      dup2\n      0x01\n      and\n      iszero\n      0x0100\n      mul\n      sub\n      and\n      0x02\n      swap1\n      div\n      dup1\n      0x1f\n      add\n      0x20\n      dup1\n      swap2\n      div\n      mul\n      0x20\n      add\n      mload(0x40)\n      swap1\n      dup2\n      add\n      0x40\n      mstore\n      dup1\n      swap3\n      swap2\n      swap1\n      dup2\n      dup2\n      mstore\n      0x20\n      add\n      dup3\n      dup1\n      sload\n      0x01\n      dup2\n      0x01\n      and\n      iszero\n      0x0100\n      mul\n      sub\n      and\n      0x02\n      swap1\n      div\n      dup1\n      iszero\n      tag_426\n      jumpi\n      dup1\n      0x1f\n      lt\n      tag_427\n      jumpi\n      0x0100\n      dup1\n      dup4\n      sload\n      div\n      mul\n      dup4\n      mstore\n      swap2\n      0x20\n      add\n      swap2\n      jump(tag_426)\n    tag_427:\n      dup3\n      add\n      swap2\n      swap1\n      0x00\n      mstore\n      keccak256(0x00, 0x20)\n      swap1\n    tag_428:\n      dup2\n      sload\n      dup2\n      mstore\n      swap1\n      0x01\n      add\n      swap1\n      0x20\n      add\n      dup1\n      dup4\n      gt\n      tag_428\n      jumpi\n      dup3\n      swap1\n      sub\n      0x1f\n      and\n      dup3\n      add\n      swap2\n    tag_426:\n      pop\n      pop\n      pop\n      pop\n      pop\n      swap1\n      dup1\n      0x02\n      add\n      0x00\n      swap1\n      sload\n      swap1\n      0x0100\n      exp\n      swap1\n      div\n      0xffffffffffffffffffffffffffffffffffffffff\n      and\n      swap1\n      dup1\n      0x02\n      add\n      0x14\n      swap1\n      sload\n      swap1\n      0x0100\n      exp\n      swap1\n      div\n      0xff\n      and\n      swap1\n      pop\n      dup5\n      jump\t// out\n        /* \"EHealth.sol\":4639:4912  function AddDoctor(address idDoctor, string memory _nameDoctor, address _hospital) public {\r... */\n    tag_132:\n        /* \"EHealth.sol\":4740:4763  FindHospital(_hospital) */\n      tag_430\n        /* \"EHealth.sol\":4753:4762  _hospital */\n      dup2\n        /* \"EHealth.sol\":4740:4752  FindHospital */\n      tag_203\n        /* \"EHealth.sol\":4740:4763  FindHospital(_hospital) */\n      jump\t// in\n    tag_430:\n      pop\n        /* \"EHealth.sol\":4774:4789  doctorsHospital */\n      0x06\n        /* \"EHealth.sol\":4795:4841  Doctor(idDoctor, _nameDoctor, _hospital, true) */\n      mload(0x40)\n      dup1\n      0x80\n      add\n      0x40\n      mstore\n      dup1\n        /* \"EHealth.sol\":4802:4810  idDoctor */\n      dup6\n        /* \"EHealth.sol\":4795:4841  Doctor(idDoctor, _nameDoctor, _hospital, true) */\n      0xffffffffffffffffffffffffffffffffffffffff\n      and\n      dup2\n      mstore\n      0x20\n      add\n        /* \"EHealth.sol\":4812:4823  _nameDoctor */\n      dup5\n        /* \"EHealth.sol\":4795:4841  Doctor(idDoctor, _nameDoctor, _hospital, true) */\n      dup2\n      mstore\n      0x20\n      add\n        /* \"EHealth.sol\":4825:4834  _hospital */\n      dup4\n        /* \"EHealth.sol\":4795:4841  Doctor(idDoctor, _nameDoctor, _hospital, true) */\n      0xffffffffffffffffffffffffffffffffffffffff\n      and\n      dup2\n      mstore\n      0x20\n      add\n        /* \"EHealth.sol\":4836:4840  true */\n      0x01\n        /* \"EHealth.sol\":4795:4841  Doctor(idDoctor, _nameDoctor, _hospital, true) */\n      iszero\n      iszero\n      dup2\n      mstore\n      pop\n        /* \"EHealth.sol\":4774:4842  doctorsHospital.push(Doctor(idDoctor, _nameDoctor, _hospital, true)) */\n      swap1\n      dup1\n      0x01\n      dup2\n      sload\n      add\n      dup1\n      dup3\n      sstore\n      dup1\n      swap2\n      pop\n      pop\n      0x01\n      swap1\n      sub\n      swap1\n      0x00\n      mstore\n      keccak256(0x00, 0x20)\n      swap1\n      0x03\n      mul\n      add\n      0x00\n      swap1\n      swap2\n      swap1\n      swap2\n      swap1\n      swap2\n      pop\n      0x00\n      dup3\n      add\n      mload\n      dup2\n      0x00\n      add\n      exp(0x0100, 0x00)\n      dup2\n      sload\n      dup2\n      0xffffffffffffffffffffffffffffffffffffffff\n      mul\n      not\n      and\n      swap1\n      dup4\n      0xffffffffffffffffffffffffffffffffffffffff\n      and\n      mul\n      or\n      swap1\n      sstore\n      pop\n      0x20\n      dup3\n      add\n      mload\n      dup2\n      0x01\n      add\n      swap1\n      dup1\n      mload\n      swap1\n      0x20\n      add\n      swap1\n      tag_432\n      swap3\n      swap2\n      swap1\n      tag_162\n      jump\t// in\n    tag_432:\n      pop\n      0x40\n      dup3\n      add\n      mload\n      dup2\n      0x02\n      add\n      exp(0x0100, 0x00)\n      dup2\n      sload\n      dup2\n      0xffffffffffffffffffffffffffffffffffffffff\n      mul\n      not\n      and\n      swap1\n      dup4\n      0xffffffffffffffffffffffffffffffffffffffff\n      and\n      mul\n      or\n      swap1\n      sstore\n      pop\n      0x60\n      dup3\n      add\n      mload\n      dup2\n      0x02\n      add\n      exp(0x0100, 0x14)\n      dup2\n      sload\n      dup2\n      0xff\n      mul\n      not\n      and\n      swap1\n      dup4\n      iszero\n      iszero\n      mul\n      or\n      swap1\n      sstore\n      pop\n      pop\n      pop\n        /* \"EHealth.sol\":4858:4904  NewDoctor(idDoctor,_nameDoctor,_hospital,true) */\n      0x4578695497af1a3a1f556f9c89f9f107851cb8e1820e4b336143406b9ba52e3b\n        /* \"EHealth.sol\":4868:4876  idDoctor */\n      dup4\n        /* \"EHealth.sol\":4877:4888  _nameDoctor */\n      dup4\n        /* \"EHealth.sol\":4889:4898  _hospital */\n      dup4\n        /* \"EHealth.sol\":4899:4903  true */\n      0x01\n        /* \"EHealth.sol\":4858:4904  NewDoctor(idDoctor,_nameDoctor,_hospital,true) */\n      mload(0x40)\n      tag_433\n      swap5\n      swap4\n      swap3\n      swap2\n      swap1\n      tag_89\n      jump\t// in\n    tag_433:\n      mload(0x40)\n      dup1\n      swap2\n      sub\n      swap1\n      log1\n        /* \"EHealth.sol\":4639:4912  function AddDoctor(address idDoctor, string memory _nameDoctor, address _hospital) public {\r... */\n      pop\n      pop\n      pop\n      jump\t// out\n        /* \"EHealth.sol\":1092:1121  Sensor[] public sensorsDoctor */\n    tag_135:\n      0x08\n      dup2\n      dup2\n      sload\n      dup2\n      lt\n      tag_434\n      jumpi\n      0x00\n      dup1\n      revert\n    tag_434:\n      swap1\n      0x00\n      mstore\n      keccak256(0x00, 0x20)\n      swap1\n      0x04\n      mul\n      add\n      0x00\n      swap2\n      pop\n      swap1\n      pop\n      dup1\n      0x00\n      add\n      sload\n      swap1\n      dup1\n      0x01\n      add\n      dup1\n      sload\n      0x01\n      dup2\n      0x01\n      and\n      iszero\n      0x0100\n      mul\n      sub\n      and\n      0x02\n      swap1\n      div\n      dup1\n      0x1f\n      add\n      0x20\n      dup1\n      swap2\n      div\n      mul\n      0x20\n      add\n      mload(0x40)\n      swap1\n      dup2\n      add\n      0x40\n      mstore\n      dup1\n      swap3\n      swap2\n      swap1\n      dup2\n      dup2\n      mstore\n      0x20\n      add\n      dup3\n      dup1\n      sload\n      0x01\n      dup2\n      0x01\n      and\n      iszero\n      0x0100\n      mul\n      sub\n      and\n      0x02\n      swap1\n      div\n      dup1\n      iszero\n      tag_436\n      jumpi\n      dup1\n      0x1f\n      lt\n      tag_437\n      jumpi\n      0x0100\n      dup1\n      dup4\n      sload\n      div\n      mul\n      dup4\n      mstore\n      swap2\n      0x20\n      add\n      swap2\n      jump(tag_436)\n    tag_437:\n      dup3\n      add\n      swap2\n      swap1\n      0x00\n      mstore\n      keccak256(0x00, 0x20)\n      swap1\n    tag_438:\n      dup2\n      sload\n      dup2\n      mstore\n      swap1\n      0x01\n      add\n      swap1\n      0x20\n      add\n      dup1\n      dup4\n      gt\n      tag_438\n      jumpi\n      dup3\n      swap1\n      sub\n      0x1f\n      and\n      dup3\n      add\n      swap2\n    tag_436:\n      pop\n      pop\n      pop\n      pop\n      pop\n      swap1\n      dup1\n      0x02\n      add\n      dup1\n      sload\n      0x01\n      dup2\n      0x01\n      and\n      iszero\n      0x0100\n      mul\n      sub\n      and\n      0x02\n      swap1\n      div\n      dup1\n      0x1f\n      add\n      0x20\n      dup1\n      swap2\n      div\n      mul\n      0x20\n      add\n      mload(0x40)\n      swap1\n      dup2\n      add\n      0x40\n      mstore\n      dup1\n      swap3\n      swap2\n      swap1\n      dup2\n      dup2\n      mstore\n      0x20\n      add\n      dup3\n      dup1\n      sload\n      0x01\n      dup2\n      0x01\n      and\n      iszero\n      0x0100\n      mul\n      sub\n      and\n      0x02\n      swap1\n      div\n      dup1\n      iszero\n      tag_439\n      jumpi\n      dup1\n      0x1f\n      lt\n      tag_440\n      jumpi\n      0x0100\n      dup1\n      dup4\n      sload\n      div\n      mul\n      dup4\n      mstore\n      swap2\n      0x20\n      add\n      swap2\n      jump(tag_439)\n    tag_440:\n      dup3\n      add\n      swap2\n      swap1\n      0x00\n      mstore\n      keccak256(0x00, 0x20)\n      swap1\n    tag_441:\n      dup2\n      sload\n      dup2\n      mstore\n      swap1\n      0x01\n      add\n      swap1\n      0x20\n      add\n      dup1\n      dup4\n      gt\n      tag_441\n      jumpi\n      dup3\n      swap1\n      sub\n      0x1f\n      and\n      dup3\n      add\n      swap2\n    tag_439:\n      pop\n      pop\n      pop\n      pop\n      pop\n      swap1\n      dup1\n      0x03\n      add\n      0x00\n      swap1\n      sload\n      swap1\n      0x0100\n      exp\n      swap1\n      div\n      0xffffffffffffffffffffffffffffffffffffffff\n      and\n      swap1\n      dup1\n      0x03\n      add\n      0x14\n      swap1\n      sload\n      swap1\n      0x0100\n      exp\n      swap1\n      div\n      0xff\n      and\n      swap1\n      pop\n      dup6\n      jump\t// out\n        /* \"EHealth.sol\":6471:6742  function getAllDoctors() public view returns (Doctor[] memory){\r... */\n    tag_138:\n        /* \"EHealth.sol\":6517:6532  Doctor[] memory */\n      0x60\n        /* \"EHealth.sol\":6544:6563  Doctor[] memory ret */\n      0x00\n        /* \"EHealth.sol\":6579:6594  doctorsHospital */\n      0x06\n        /* \"EHealth.sol\":6579:6601  doctorsHospital.length */\n      dup1\n      sload\n      swap1\n      pop\n        /* \"EHealth.sol\":6566:6602  new Doctor[](doctorsHospital.length) */\n      0xffffffffffffffff\n      dup2\n      gt\n      dup1\n      iszero\n      tag_443\n      jumpi\n      0x00\n      dup1\n      revert\n    tag_443:\n      pop\n      mload(0x40)\n      swap1\n      dup1\n      dup3\n      mstore\n      dup1\n      0x20\n      mul\n      0x20\n      add\n      dup3\n      add\n      0x40\n      mstore\n      dup1\n      iszero\n      tag_444\n      jumpi\n      dup2\n      0x20\n      add\n    tag_445:\n      tag_446\n      tag_402\n      jump\t// in\n    tag_446:\n      dup2\n      mstore\n      0x20\n      add\n      swap1\n      0x01\n      swap1\n      sub\n      swap1\n      dup2\n      tag_445\n      jumpi\n      swap1\n      pop\n    tag_444:\n      pop\n        /* \"EHealth.sol\":6544:6602  Doctor[] memory ret = new Doctor[](doctorsHospital.length) */\n      swap1\n      pop\n        /* \"EHealth.sol\":6618:6624  uint i */\n      0x00\n        /* \"EHealth.sol\":6613:6714  for (uint i = 0; i< doctorsHospital.length; i++) {\r... */\n    tag_447:\n        /* \"EHealth.sol\":6633:6648  doctorsHospital */\n      0x06\n        /* \"EHealth.sol\":6633:6655  doctorsHospital.length */\n      dup1\n      sload\n      swap1\n      pop\n        /* \"EHealth.sol\":6630:6631  i */\n      dup2\n        /* \"EHealth.sol\":6630:6655  i< doctorsHospital.length */\n      lt\n        /* \"EHealth.sol\":6613:6714  for (uint i = 0; i< doctorsHospital.length; i++) {\r... */\n      iszero\n      tag_448\n      jumpi\n        /* \"EHealth.sol\":6684:6699  doctorsHospital */\n      0x06\n        /* \"EHealth.sol\":6700:6701  i */\n      dup2\n        /* \"EHealth.sol\":6684:6702  doctorsHospital[i] */\n      dup2\n      sload\n      dup2\n      lt\n      tag_450\n      jumpi\n      invalid\n    tag_450:\n      swap1\n      0x00\n      mstore\n      keccak256(0x00, 0x20)\n      swap1\n      0x03\n      mul\n      add\n        /* \"EHealth.sol\":6677:6702  ret[i]=doctorsHospital[i] */\n      mload(0x40)\n      dup1\n      0x80\n      add\n      0x40\n      mstore\n      swap1\n      dup2\n      0x00\n      dup3\n      add\n      0x00\n      swap1\n      sload\n      swap1\n      0x0100\n      exp\n      swap1\n      div\n      0xffffffffffffffffffffffffffffffffffffffff\n      and\n      0xffffffffffffffffffffffffffffffffffffffff\n      and\n      0xffffffffffffffffffffffffffffffffffffffff\n      and\n      dup2\n      mstore\n      0x20\n      add\n      0x01\n      dup3\n      add\n      dup1\n      sload\n      0x01\n      dup2\n      0x01\n      and\n      iszero\n      0x0100\n      mul\n      sub\n      and\n      0x02\n      swap1\n      div\n      dup1\n      0x1f\n      add\n      0x20\n      dup1\n      swap2\n      div\n      mul\n      0x20\n      add\n      mload(0x40)\n      swap1\n      dup2\n      add\n      0x40\n      mstore\n      dup1\n      swap3\n      swap2\n      swap1\n      dup2\n      dup2\n      mstore\n      0x20\n      add\n      dup3\n      dup1\n      sload\n      0x01\n      dup2\n      0x01\n      and\n      iszero\n      0x0100\n      mul\n      sub\n      and\n      0x02\n      swap1\n      div\n      dup1\n      iszero\n      tag_452\n      jumpi\n      dup1\n      0x1f\n      lt\n      tag_453\n      jumpi\n      0x0100\n      dup1\n      dup4\n      sload\n      div\n      mul\n      dup4\n      mstore\n      swap2\n      0x20\n      add\n      swap2\n      jump(tag_452)\n    tag_453:\n      dup3\n      add\n      swap2\n      swap1\n      0x00\n      mstore\n      keccak256(0x00, 0x20)\n      swap1\n    tag_454:\n      dup2\n      sload\n      dup2\n      mstore\n      swap1\n      0x01\n      add\n      swap1\n      0x20\n      add\n      dup1\n      dup4\n      gt\n      tag_454\n      jumpi\n      dup3\n      swap1\n      sub\n      0x1f\n      and\n      dup3\n      add\n      swap2\n    tag_452:\n      pop\n      pop\n      pop\n      pop\n      pop\n      dup2\n      mstore\n      0x20\n      add\n      0x02\n      dup3\n      add\n      0x00\n      swap1\n      sload\n      swap1\n      0x0100\n      exp\n      swap1\n      div\n      0xffffffffffffffffffffffffffffffffffffffff\n      and\n      0xffffffffffffffffffffffffffffffffffffffff\n      and\n      0xffffffffffffffffffffffffffffffffffffffff\n      and\n      dup2\n      mstore\n      0x20\n      add\n      0x02\n      dup3\n      add\n      0x14\n      swap1\n      sload\n      swap1\n      0x0100\n      exp\n      swap1\n      div\n      0xff\n      and\n      iszero\n      iszero\n      iszero\n      iszero\n      dup2\n      mstore\n      pop\n      pop\n        /* \"EHealth.sol\":6677:6680  ret */\n      dup3\n        /* \"EHealth.sol\":6681:6682  i */\n      dup3\n        /* \"EHealth.sol\":6677:6683  ret[i] */\n      dup2\n      mload\n      dup2\n      lt\n      tag_455\n      jumpi\n      invalid\n    tag_455:\n      0x20\n      mul\n      0x20\n      add\n      add\n        /* \"EHealth.sol\":6677:6702  ret[i]=doctorsHospital[i] */\n      dup2\n      swap1\n      mstore\n      pop\n        /* \"EHealth.sol\":6657:6660  i++ */\n      dup1\n      dup1\n      0x01\n      add\n      swap2\n      pop\n      pop\n        /* \"EHealth.sol\":6613:6714  for (uint i = 0; i< doctorsHospital.length; i++) {\r... */\n      jump(tag_447)\n    tag_448:\n      pop\n        /* \"EHealth.sol\":6731:6734  ret */\n      dup1\n        /* \"EHealth.sol\":6724:6734  return ret */\n      swap2\n      pop\n      pop\n        /* \"EHealth.sol\":6471:6742  function getAllDoctors() public view returns (Doctor[] memory){\r... */\n      swap1\n      jump\t// out\n        /* \"EHealth.sol\":7664:7939  function FindSensor(uint _idSensor) internal view returns(uint){\r... */\n    tag_142:\n        /* \"EHealth.sol\":7722:7726  uint */\n      0x00\n        /* \"EHealth.sol\":7742:7748  uint i */\n      dup1\n        /* \"EHealth.sol\":7751:7752  0 */\n      0x00\n        /* \"EHealth.sol\":7742:7752  uint i = 0 */\n      swap1\n      pop\n        /* \"EHealth.sol\":7738:7895  for(uint i = 0 ; i < sensorsDoctor.length ; i++){\r... */\n    tag_457:\n        /* \"EHealth.sol\":7759:7772  sensorsDoctor */\n      0x08\n        /* \"EHealth.sol\":7759:7779  sensorsDoctor.length */\n      dup1\n      sload\n      swap1\n      pop\n        /* \"EHealth.sol\":7755:7756  i */\n      dup2\n        /* \"EHealth.sol\":7755:7779  i < sensorsDoctor.length */\n      lt\n        /* \"EHealth.sol\":7738:7895  for(uint i = 0 ; i < sensorsDoctor.length ; i++){\r... */\n      iszero\n      tag_458\n      jumpi\n        /* \"EHealth.sol\":7831:7840  _idSensor */\n      dup3\n        /* \"EHealth.sol\":7804:7817  sensorsDoctor */\n      0x08\n        /* \"EHealth.sol\":7818:7819  i */\n      dup3\n        /* \"EHealth.sol\":7804:7820  sensorsDoctor[i] */\n      dup2\n      sload\n      dup2\n      lt\n      tag_460\n      jumpi\n      invalid\n    tag_460:\n      swap1\n      0x00\n      mstore\n      keccak256(0x00, 0x20)\n      swap1\n      0x04\n      mul\n      add\n        /* \"EHealth.sol\":7804:7829  sensorsDoctor[i].idSensor */\n      0x00\n      add\n      sload\n        /* \"EHealth.sol\":7804:7840  sensorsDoctor[i].idSensor==_idSensor */\n      eq\n        /* \"EHealth.sol\":7801:7884  if(sensorsDoctor[i].idSensor==_idSensor){\r... */\n      iszero\n      tag_462\n      jumpi\n        /* \"EHealth.sol\":7867:7868  i */\n      dup1\n        /* \"EHealth.sol\":7860:7868  return i */\n      swap2\n      pop\n      pop\n      jump(tag_456)\n        /* \"EHealth.sol\":7801:7884  if(sensorsDoctor[i].idSensor==_idSensor){\r... */\n    tag_462:\n        /* \"EHealth.sol\":7782:7785  i++ */\n      dup1\n      dup1\n      0x01\n      add\n      swap2\n      pop\n      pop\n        /* \"EHealth.sol\":7738:7895  for(uint i = 0 ; i < sensorsDoctor.length ; i++){\r... */\n      jump(tag_457)\n    tag_458:\n      pop\n        /* \"EHealth.sol\":7905:7931  revert('Sensor not found') */\n      mload(0x40)\n      0x08c379a000000000000000000000000000000000000000000000000000000000\n      dup2\n      mstore\n      0x04\n      add\n      tag_463\n      swap1\n      tag_464\n      jump\t// in\n    tag_463:\n      mload(0x40)\n      dup1\n      swap2\n      sub\n      swap1\n      revert\n        /* \"EHealth.sol\":7664:7939  function FindSensor(uint _idSensor) internal view returns(uint){\r... */\n    tag_456:\n      swap2\n      swap1\n      pop\n      jump\t// out\n        /* \"EHealth.sol\":4939:5209  function FindDoctor(address _id) internal view returns(uint){\r... */\n    tag_159:\n        /* \"EHealth.sol\":4994:4998  uint */\n      0x00\n        /* \"EHealth.sol\":5014:5020  uint i */\n      dup1\n        /* \"EHealth.sol\":5023:5024  0 */\n      0x00\n        /* \"EHealth.sol\":5014:5024  uint i = 0 */\n      swap1\n      pop\n        /* \"EHealth.sol\":5010:5165  for(uint i = 0 ; i < doctorsHospital.length ; i++){\r... */\n    tag_466:\n        /* \"EHealth.sol\":5031:5046  doctorsHospital */\n      0x06\n        /* \"EHealth.sol\":5031:5053  doctorsHospital.length */\n      dup1\n      sload\n      swap1\n      pop\n        /* \"EHealth.sol\":5027:5028  i */\n      dup2\n        /* \"EHealth.sol\":5027:5053  i < doctorsHospital.length */\n      lt\n        /* \"EHealth.sol\":5010:5165  for(uint i = 0 ; i < doctorsHospital.length ; i++){\r... */\n      iszero\n      tag_467\n      jumpi\n        /* \"EHealth.sol\":5107:5110  _id */\n      dup3\n        /* \"EHealth.sol\":5078:5110  doctorsHospital[i].idDoctor==_id */\n      0xffffffffffffffffffffffffffffffffffffffff\n      and\n        /* \"EHealth.sol\":5078:5093  doctorsHospital */\n      0x06\n        /* \"EHealth.sol\":5094:5095  i */\n      dup3\n        /* \"EHealth.sol\":5078:5096  doctorsHospital[i] */\n      dup2\n      sload\n      dup2\n      lt\n      tag_469\n      jumpi\n      invalid\n    tag_469:\n      swap1\n      0x00\n      mstore\n      keccak256(0x00, 0x20)\n      swap1\n      0x03\n      mul\n      add\n        /* \"EHealth.sol\":5078:5105  doctorsHospital[i].idDoctor */\n      0x00\n      add\n      0x00\n      swap1\n      sload\n      swap1\n      0x0100\n      exp\n      swap1\n      div\n      0xffffffffffffffffffffffffffffffffffffffff\n      and\n        /* \"EHealth.sol\":5078:5110  doctorsHospital[i].idDoctor==_id */\n      0xffffffffffffffffffffffffffffffffffffffff\n      and\n      eq\n        /* \"EHealth.sol\":5075:5154  if(doctorsHospital[i].idDoctor==_id){\r... */\n      iszero\n      tag_471\n      jumpi\n        /* \"EHealth.sol\":5137:5138  i */\n      dup1\n        /* \"EHealth.sol\":5130:5138  return i */\n      swap2\n      pop\n      pop\n      jump(tag_465)\n        /* \"EHealth.sol\":5075:5154  if(doctorsHospital[i].idDoctor==_id){\r... */\n    tag_471:\n        /* \"EHealth.sol\":5056:5059  i++ */\n      dup1\n      dup1\n      0x01\n      add\n      swap2\n      pop\n      pop\n        /* \"EHealth.sol\":5010:5165  for(uint i = 0 ; i < doctorsHospital.length ; i++){\r... */\n      jump(tag_466)\n    tag_467:\n      pop\n        /* \"EHealth.sol\":5175:5201  revert('Doctor not found') */\n      mload(0x40)\n      0x08c379a000000000000000000000000000000000000000000000000000000000\n      dup2\n      mstore\n      0x04\n      add\n      tag_472\n      swap1\n      tag_473\n      jump\t// in\n    tag_472:\n      mload(0x40)\n      dup1\n      swap2\n      sub\n      swap1\n      revert\n        /* \"EHealth.sol\":4939:5209  function FindDoctor(address _id) internal view returns(uint){\r... */\n    tag_465:\n      swap2\n      swap1\n      pop\n      jump\t// out\n        /* \"EHealth.sol\":2128:2414  function FindHospital(address _address) internal view returns(uint){\r... */\n    tag_203:\n        /* \"EHealth.sol\":2190:2194  uint */\n      0x00\n        /* \"EHealth.sol\":2210:2216  uint i */\n      dup1\n        /* \"EHealth.sol\":2219:2220  0 */\n      0x00\n        /* \"EHealth.sol\":2210:2220  uint i = 0 */\n      swap1\n      pop\n        /* \"EHealth.sol\":2206:2368  for(uint i = 0 ; i < hospitalCenters.length ; i++){\r... */\n    tag_475:\n        /* \"EHealth.sol\":2227:2242  hospitalCenters */\n      0x04\n        /* \"EHealth.sol\":2227:2249  hospitalCenters.length */\n      dup1\n      sload\n      swap1\n      pop\n        /* \"EHealth.sol\":2223:2224  i */\n      dup2\n        /* \"EHealth.sol\":2223:2249  i < hospitalCenters.length */\n      lt\n        /* \"EHealth.sol\":2206:2368  for(uint i = 0 ; i < hospitalCenters.length ; i++){\r... */\n      iszero\n      tag_476\n      jumpi\n        /* \"EHealth.sol\":2305:2313  _address */\n      dup3\n        /* \"EHealth.sol\":2274:2313  hospitalCenters[i].idHospital==_address */\n      0xffffffffffffffffffffffffffffffffffffffff\n      and\n        /* \"EHealth.sol\":2274:2289  hospitalCenters */\n      0x04\n        /* \"EHealth.sol\":2290:2291  i */\n      dup3\n        /* \"EHealth.sol\":2274:2292  hospitalCenters[i] */\n      dup2\n      sload\n      dup2\n      lt\n      tag_478\n      jumpi\n      invalid\n    tag_478:\n      swap1\n      0x00\n      mstore\n      keccak256(0x00, 0x20)\n      swap1\n      0x06\n      mul\n      add\n        /* \"EHealth.sol\":2274:2303  hospitalCenters[i].idHospital */\n      0x00\n      add\n      0x00\n      swap1\n      sload\n      swap1\n      0x0100\n      exp\n      swap1\n      div\n      0xffffffffffffffffffffffffffffffffffffffff\n      and\n        /* \"EHealth.sol\":2274:2313  hospitalCenters[i].idHospital==_address */\n      0xffffffffffffffffffffffffffffffffffffffff\n      and\n      eq\n        /* \"EHealth.sol\":2271:2357  if(hospitalCenters[i].idHospital==_address){\r... */\n      iszero\n      tag_480\n      jumpi\n        /* \"EHealth.sol\":2340:2341  i */\n      dup1\n        /* \"EHealth.sol\":2333:2341  return i */\n      swap2\n      pop\n      pop\n      jump(tag_474)\n        /* \"EHealth.sol\":2271:2357  if(hospitalCenters[i].idHospital==_address){\r... */\n    tag_480:\n        /* \"EHealth.sol\":2252:2255  i++ */\n      dup1\n      dup1\n      0x01\n      add\n      swap2\n      pop\n      pop\n        /* \"EHealth.sol\":2206:2368  for(uint i = 0 ; i < hospitalCenters.length ; i++){\r... */\n      jump(tag_475)\n    tag_476:\n      pop\n        /* \"EHealth.sol\":2378:2406  revert('Hospital not found') */\n      mload(0x40)\n      0x08c379a000000000000000000000000000000000000000000000000000000000\n      dup2\n      mstore\n      0x04\n      add\n      tag_481\n      swap1\n      tag_482\n      jump\t// in\n    tag_481:\n      mload(0x40)\n      dup1\n      swap2\n      sub\n      swap1\n      revert\n        /* \"EHealth.sol\":2128:2414  function FindHospital(address _address) internal view returns(uint){\r... */\n    tag_474:\n      swap2\n      swap1\n      pop\n      jump\t// out\n    tag_162:\n      dup3\n      dup1\n      sload\n      0x01\n      dup2\n      0x01\n      and\n      iszero\n      0x0100\n      mul\n      sub\n      and\n      0x02\n      swap1\n      div\n      swap1\n      0x00\n      mstore\n      keccak256(0x00, 0x20)\n      swap1\n      0x1f\n      add\n      0x20\n      swap1\n      div\n      dup2\n      add\n      swap3\n      dup3\n      tag_484\n      jumpi\n      0x00\n      dup6\n      sstore\n      jump(tag_483)\n    tag_484:\n      dup3\n      0x1f\n      lt\n      tag_485\n      jumpi\n      dup1\n      mload\n      not(0xff)\n      and\n      dup4\n      dup1\n      add\n      or\n      dup6\n      sstore\n      jump(tag_483)\n    tag_485:\n      dup3\n      dup1\n      add\n      0x01\n      add\n      dup6\n      sstore\n      dup3\n      iszero\n      tag_483\n      jumpi\n      swap2\n      dup3\n      add\n    tag_486:\n      dup3\n      dup2\n      gt\n      iszero\n      tag_487\n      jumpi\n      dup3\n      mload\n      dup3\n      sstore\n      swap2\n      0x20\n      add\n      swap2\n      swap1\n      0x01\n      add\n      swap1\n      jump(tag_486)\n    tag_487:\n    tag_483:\n      pop\n      swap1\n      pop\n      tag_488\n      swap2\n      swap1\n      tag_489\n      jump\t// in\n    tag_488:\n      pop\n      swap1\n      jump\t// out\n    tag_225:\n      mload(0x40)\n      dup1\n      0xc0\n      add\n      0x40\n      mstore\n      dup1\n      and(0xffffffffffffffffffffffffffffffffffffffff, 0x00)\n      dup2\n      mstore\n      0x20\n      add\n      0x60\n      dup2\n      mstore\n      0x20\n      add\n      0x60\n      dup2\n      mstore\n      0x20\n      add\n      0x60\n      dup2\n      mstore\n      0x20\n      add\n      0x00\n      dup2\n      mstore\n      0x20\n      add\n      iszero(iszero(0x00))\n      dup2\n      mstore\n      pop\n      swap1\n      jump\t// out\n    tag_246:\n      mload(0x40)\n      dup1\n      0xa0\n      add\n      0x40\n      mstore\n      dup1\n      0x00\n      dup2\n      mstore\n      0x20\n      add\n      0x60\n      dup2\n      mstore\n      0x20\n      add\n      0x60\n      dup2\n      mstore\n      0x20\n      add\n      and(0xffffffffffffffffffffffffffffffffffffffff, 0x00)\n      dup2\n      mstore\n      0x20\n      add\n      iszero(iszero(0x00))\n      dup2\n      mstore\n      pop\n      swap1\n      jump\t// out\n    tag_402:\n      mload(0x40)\n      dup1\n      0x80\n      add\n      0x40\n      mstore\n      dup1\n      and(0xffffffffffffffffffffffffffffffffffffffff, 0x00)\n      dup2\n      mstore\n      0x20\n      add\n      0x60\n      dup2\n      mstore\n      0x20\n      add\n      and(0xffffffffffffffffffffffffffffffffffffffff, 0x00)\n      dup2\n      mstore\n      0x20\n      add\n      iszero(iszero(0x00))\n      dup2\n      mstore\n      pop\n      swap1\n      jump\t// out\n    tag_489:\n    tag_490:\n      dup1\n      dup3\n      gt\n      iszero\n      tag_491\n      jumpi\n      0x00\n      dup2\n      0x00\n      swap1\n      sstore\n      pop\n      0x01\n      add\n      jump(tag_490)\n    tag_491:\n      pop\n      swap1\n      jump\t// out\n        /* \"#utility.yul\":7:351   */\n    tag_493:\n      0x00\n        /* \"#utility.yul\":110:175   */\n      tag_495\n        /* \"#utility.yul\":125:174   */\n      tag_496\n        /* \"#utility.yul\":167:173   */\n      dup5\n        /* \"#utility.yul\":125:174   */\n      tag_497\n      jump\t// in\n    tag_496:\n        /* \"#utility.yul\":110:175   */\n      tag_498\n      jump\t// in\n    tag_495:\n        /* \"#utility.yul\":101:175   */\n      swap1\n      pop\n        /* \"#utility.yul\":198:204   */\n      dup3\n        /* \"#utility.yul\":191:196   */\n      dup2\n        /* \"#utility.yul\":184:205   */\n      mstore\n        /* \"#utility.yul\":236:240   */\n      0x20\n        /* \"#utility.yul\":229:234   */\n      dup2\n        /* \"#utility.yul\":225:241   */\n      add\n        /* \"#utility.yul\":274:277   */\n      dup5\n        /* \"#utility.yul\":265:271   */\n      dup5\n        /* \"#utility.yul\":260:263   */\n      dup5\n        /* \"#utility.yul\":256:272   */\n      add\n        /* \"#utility.yul\":253:278   */\n      gt\n        /* \"#utility.yul\":250:252   */\n      iszero\n      tag_499\n      jumpi\n        /* \"#utility.yul\":291:292   */\n      0x00\n        /* \"#utility.yul\":288:289   */\n      dup1\n        /* \"#utility.yul\":281:293   */\n      revert\n        /* \"#utility.yul\":250:252   */\n    tag_499:\n        /* \"#utility.yul\":304:345   */\n      tag_500\n        /* \"#utility.yul\":338:344   */\n      dup5\n        /* \"#utility.yul\":333:336   */\n      dup3\n        /* \"#utility.yul\":328:331   */\n      dup6\n        /* \"#utility.yul\":304:345   */\n      tag_501\n      jump\t// in\n    tag_500:\n        /* \"#utility.yul\":91:351   */\n      pop\n      swap4\n      swap3\n      pop\n      pop\n      pop\n      jump\t// out\n        /* \"#utility.yul\":357:496   */\n    tag_502:\n      0x00\n        /* \"#utility.yul\":441:447   */\n      dup2\n        /* \"#utility.yul\":428:448   */\n      calldataload\n        /* \"#utility.yul\":419:448   */\n      swap1\n      pop\n        /* \"#utility.yul\":457:490   */\n      tag_504\n        /* \"#utility.yul\":484:489   */\n      dup2\n        /* \"#utility.yul\":457:490   */\n      tag_505\n      jump\t// in\n    tag_504:\n        /* \"#utility.yul\":409:496   */\n      swap3\n      swap2\n      pop\n      pop\n      jump\t// out\n        /* \"#utility.yul\":502:635   */\n    tag_506:\n      0x00\n        /* \"#utility.yul\":583:589   */\n      dup2\n        /* \"#utility.yul\":570:590   */\n      calldataload\n        /* \"#utility.yul\":561:590   */\n      swap1\n      pop\n        /* \"#utility.yul\":599:629   */\n      tag_508\n        /* \"#utility.yul\":623:628   */\n      dup2\n        /* \"#utility.yul\":599:629   */\n      tag_509\n      jump\t// in\n    tag_508:\n        /* \"#utility.yul\":551:635   */\n      swap3\n      swap2\n      pop\n      pop\n      jump\t// out\n        /* \"#utility.yul\":655:928   */\n    tag_510:\n      0x00\n        /* \"#utility.yul\":760:763   */\n      dup3\n        /* \"#utility.yul\":753:757   */\n      0x1f\n        /* \"#utility.yul\":745:751   */\n      dup4\n        /* \"#utility.yul\":741:758   */\n      add\n        /* \"#utility.yul\":737:764   */\n      slt\n        /* \"#utility.yul\":727:729   */\n      tag_512\n      jumpi\n        /* \"#utility.yul\":778:779   */\n      0x00\n        /* \"#utility.yul\":775:776   */\n      dup1\n        /* \"#utility.yul\":768:780   */\n      revert\n        /* \"#utility.yul\":727:729   */\n    tag_512:\n        /* \"#utility.yul\":818:824   */\n      dup2\n        /* \"#utility.yul\":805:825   */\n      calldataload\n        /* \"#utility.yul\":843:922   */\n      tag_513\n        /* \"#utility.yul\":918:921   */\n      dup5\n        /* \"#utility.yul\":910:916   */\n      dup3\n        /* \"#utility.yul\":903:907   */\n      0x20\n        /* \"#utility.yul\":895:901   */\n      dup7\n        /* \"#utility.yul\":891:908   */\n      add\n        /* \"#utility.yul\":843:922   */\n      tag_493\n      jump\t// in\n    tag_513:\n        /* \"#utility.yul\":834:922   */\n      swap2\n      pop\n        /* \"#utility.yul\":717:928   */\n      pop\n      swap3\n      swap2\n      pop\n      pop\n      jump\t// out\n        /* \"#utility.yul\":934:1073   */\n    tag_514:\n      0x00\n        /* \"#utility.yul\":1018:1024   */\n      dup2\n        /* \"#utility.yul\":1005:1025   */\n      calldataload\n        /* \"#utility.yul\":996:1025   */\n      swap1\n      pop\n        /* \"#utility.yul\":1034:1067   */\n      tag_516\n        /* \"#utility.yul\":1061:1066   */\n      dup2\n        /* \"#utility.yul\":1034:1067   */\n      tag_517\n      jump\t// in\n    tag_516:\n        /* \"#utility.yul\":986:1073   */\n      swap3\n      swap2\n      pop\n      pop\n      jump\t// out\n        /* \"#utility.yul\":1079:1341   */\n    tag_58:\n      0x00\n        /* \"#utility.yul\":1187:1189   */\n      0x20\n        /* \"#utility.yul\":1175:1184   */\n      dup3\n        /* \"#utility.yul\":1166:1173   */\n      dup5\n        /* \"#utility.yul\":1162:1185   */\n      sub\n        /* \"#utility.yul\":1158:1190   */\n      slt\n        /* \"#utility.yul\":1155:1157   */\n      iszero\n      tag_519\n      jumpi\n        /* \"#utility.yul\":1203:1204   */\n      0x00\n        /* \"#utility.yul\":1200:1201   */\n      dup1\n        /* \"#utility.yul\":1193:1205   */\n      revert\n        /* \"#utility.yul\":1155:1157   */\n    tag_519:\n        /* \"#utility.yul\":1246:1247   */\n      0x00\n        /* \"#utility.yul\":1271:1324   */\n      tag_520\n        /* \"#utility.yul\":1316:1323   */\n      dup5\n        /* \"#utility.yul\":1307:1313   */\n      dup3\n        /* \"#utility.yul\":1296:1305   */\n      dup6\n        /* \"#utility.yul\":1292:1314   */\n      add\n        /* \"#utility.yul\":1271:1324   */\n      tag_502\n      jump\t// in\n    tag_520:\n        /* \"#utility.yul\":1261:1324   */\n      swap2\n      pop\n        /* \"#utility.yul\":1217:1334   */\n      pop\n        /* \"#utility.yul\":1145:1341   */\n      swap3\n      swap2\n      pop\n      pop\n      jump\t// out\n        /* \"#utility.yul\":1347:2012   */\n    tag_50:\n      0x00\n      dup1\n      0x00\n        /* \"#utility.yul\":1499:1501   */\n      0x60\n        /* \"#utility.yul\":1487:1496   */\n      dup5\n        /* \"#utility.yul\":1478:1485   */\n      dup7\n        /* \"#utility.yul\":1474:1497   */\n      sub\n        /* \"#utility.yul\":1470:1502   */\n      slt\n        /* \"#utility.yul\":1467:1469   */\n      iszero\n      tag_522\n      jumpi\n        /* \"#utility.yul\":1515:1516   */\n      0x00\n        /* \"#utility.yul\":1512:1513   */\n      dup1\n        /* \"#utility.yul\":1505:1517   */\n      revert\n        /* \"#utility.yul\":1467:1469   */\n    tag_522:\n        /* \"#utility.yul\":1558:1559   */\n      0x00\n        /* \"#utility.yul\":1583:1636   */\n      tag_523\n        /* \"#utility.yul\":1628:1635   */\n      dup7\n        /* \"#utility.yul\":1619:1625   */\n      dup3\n        /* \"#utility.yul\":1608:1617   */\n      dup8\n        /* \"#utility.yul\":1604:1626   */\n      add\n        /* \"#utility.yul\":1583:1636   */\n      tag_502\n      jump\t// in\n    tag_523:\n        /* \"#utility.yul\":1573:1636   */\n      swap4\n      pop\n        /* \"#utility.yul\":1529:1646   */\n      pop\n        /* \"#utility.yul\":1713:1715   */\n      0x20\n        /* \"#utility.yul\":1702:1711   */\n      dup5\n        /* \"#utility.yul\":1698:1716   */\n      add\n        /* \"#utility.yul\":1685:1717   */\n      calldataload\n        /* \"#utility.yul\":1744:1762   */\n      0xffffffffffffffff\n        /* \"#utility.yul\":1736:1742   */\n      dup2\n        /* \"#utility.yul\":1733:1763   */\n      gt\n        /* \"#utility.yul\":1730:1732   */\n      iszero\n      tag_524\n      jumpi\n        /* \"#utility.yul\":1776:1777   */\n      0x00\n        /* \"#utility.yul\":1773:1774   */\n      dup1\n        /* \"#utility.yul\":1766:1778   */\n      revert\n        /* \"#utility.yul\":1730:1732   */\n    tag_524:\n        /* \"#utility.yul\":1804:1867   */\n      tag_525\n        /* \"#utility.yul\":1859:1866   */\n      dup7\n        /* \"#utility.yul\":1850:1856   */\n      dup3\n        /* \"#utility.yul\":1839:1848   */\n      dup8\n        /* \"#utility.yul\":1835:1857   */\n      add\n        /* \"#utility.yul\":1804:1867   */\n      tag_510\n      jump\t// in\n    tag_525:\n        /* \"#utility.yul\":1794:1867   */\n      swap3\n      pop\n        /* \"#utility.yul\":1656:1877   */\n      pop\n        /* \"#utility.yul\":1916:1918   */\n      0x40\n        /* \"#utility.yul\":1942:1995   */\n      tag_526\n        /* \"#utility.yul\":1987:1994   */\n      dup7\n        /* \"#utility.yul\":1978:1984   */\n      dup3\n        /* \"#utility.yul\":1967:1976   */\n      dup8\n        /* \"#utility.yul\":1963:1985   */\n      add\n        /* \"#utility.yul\":1942:1995   */\n      tag_502\n      jump\t// in\n    tag_526:\n        /* \"#utility.yul\":1932:1995   */\n      swap2\n      pop\n        /* \"#utility.yul\":1887:2005   */\n      pop\n        /* \"#utility.yul\":1457:2012   */\n      swap3\n      pop\n      swap3\n      pop\n      swap3\n      jump\t// out\n        /* \"#utility.yul\":2018:3201   */\n    tag_107:\n      0x00\n      dup1\n      0x00\n      dup1\n      0x00\n        /* \"#utility.yul\":2224:2227   */\n      0xa0\n        /* \"#utility.yul\":2212:2221   */\n      dup7\n        /* \"#utility.yul\":2203:2210   */\n      dup9\n        /* \"#utility.yul\":2199:2222   */\n      sub\n        /* \"#utility.yul\":2195:2228   */\n      slt\n        /* \"#utility.yul\":2192:2194   */\n      iszero\n      tag_528\n      jumpi\n        /* \"#utility.yul\":2241:2242   */\n      0x00\n        /* \"#utility.yul\":2238:2239   */\n      dup1\n        /* \"#utility.yul\":2231:2243   */\n      revert\n        /* \"#utility.yul\":2192:2194   */\n    tag_528:\n        /* \"#utility.yul\":2284:2285   */\n      0x00\n        /* \"#utility.yul\":2309:2362   */\n      tag_529\n        /* \"#utility.yul\":2354:2361   */\n      dup9\n        /* \"#utility.yul\":2345:2351   */\n      dup3\n        /* \"#utility.yul\":2334:2343   */\n      dup10\n        /* \"#utility.yul\":2330:2352   */\n      add\n        /* \"#utility.yul\":2309:2362   */\n      tag_502\n      jump\t// in\n    tag_529:\n        /* \"#utility.yul\":2299:2362   */\n      swap6\n      pop\n        /* \"#utility.yul\":2255:2372   */\n      pop\n        /* \"#utility.yul\":2439:2441   */\n      0x20\n        /* \"#utility.yul\":2428:2437   */\n      dup7\n        /* \"#utility.yul\":2424:2442   */\n      add\n        /* \"#utility.yul\":2411:2443   */\n      calldataload\n        /* \"#utility.yul\":2470:2488   */\n      0xffffffffffffffff\n        /* \"#utility.yul\":2462:2468   */\n      dup2\n        /* \"#utility.yul\":2459:2489   */\n      gt\n        /* \"#utility.yul\":2456:2458   */\n      iszero\n      tag_530\n      jumpi\n        /* \"#utility.yul\":2502:2503   */\n      0x00\n        /* \"#utility.yul\":2499:2500   */\n      dup1\n        /* \"#utility.yul\":2492:2504   */\n      revert\n        /* \"#utility.yul\":2456:2458   */\n    tag_530:\n        /* \"#utility.yul\":2530:2593   */\n      tag_531\n        /* \"#utility.yul\":2585:2592   */\n      dup9\n        /* \"#utility.yul\":2576:2582   */\n      dup3\n        /* \"#utility.yul\":2565:2574   */\n      dup10\n        /* \"#utility.yul\":2561:2583   */\n      add\n        /* \"#utility.yul\":2530:2593   */\n      tag_510\n      jump\t// in\n    tag_531:\n        /* \"#utility.yul\":2520:2593   */\n      swap5\n      pop\n        /* \"#utility.yul\":2382:2603   */\n      pop\n        /* \"#utility.yul\":2670:2672   */\n      0x40\n        /* \"#utility.yul\":2659:2668   */\n      dup7\n        /* \"#utility.yul\":2655:2673   */\n      add\n        /* \"#utility.yul\":2642:2674   */\n      calldataload\n        /* \"#utility.yul\":2701:2719   */\n      0xffffffffffffffff\n        /* \"#utility.yul\":2693:2699   */\n      dup2\n        /* \"#utility.yul\":2690:2720   */\n      gt\n        /* \"#utility.yul\":2687:2689   */\n      iszero\n      tag_532\n      jumpi\n        /* \"#utility.yul\":2733:2734   */\n      0x00\n        /* \"#utility.yul\":2730:2731   */\n      dup1\n        /* \"#utility.yul\":2723:2735   */\n      revert\n        /* \"#utility.yul\":2687:2689   */\n    tag_532:\n        /* \"#utility.yul\":2761:2824   */\n      tag_533\n        /* \"#utility.yul\":2816:2823   */\n      dup9\n        /* \"#utility.yul\":2807:2813   */\n      dup3\n        /* \"#utility.yul\":2796:2805   */\n      dup10\n        /* \"#utility.yul\":2792:2814   */\n      add\n        /* \"#utility.yul\":2761:2824   */\n      tag_510\n      jump\t// in\n    tag_533:\n        /* \"#utility.yul\":2751:2824   */\n      swap4\n      pop\n        /* \"#utility.yul\":2613:2834   */\n      pop\n        /* \"#utility.yul\":2901:2903   */\n      0x60\n        /* \"#utility.yul\":2890:2899   */\n      dup7\n        /* \"#utility.yul\":2886:2904   */\n      add\n        /* \"#utility.yul\":2873:2905   */\n      calldataload\n        /* \"#utility.yul\":2932:2950   */\n      0xffffffffffffffff\n        /* \"#utility.yul\":2924:2930   */\n      dup2\n        /* \"#utility.yul\":2921:2951   */\n      gt\n        /* \"#utility.yul\":2918:2920   */\n      iszero\n      tag_534\n      jumpi\n        /* \"#utility.yul\":2964:2965   */\n      0x00\n        /* \"#utility.yul\":2961:2962   */\n      dup1\n        /* \"#utility.yul\":2954:2966   */\n      revert\n        /* \"#utility.yul\":2918:2920   */\n    tag_534:\n        /* \"#utility.yul\":2992:3055   */\n      tag_535\n        /* \"#utility.yul\":3047:3054   */\n      dup9\n        /* \"#utility.yul\":3038:3044   */\n      dup3\n        /* \"#utility.yul\":3027:3036   */\n      dup10\n        /* \"#utility.yul\":3023:3045   */\n      add\n        /* \"#utility.yul\":2992:3055   */\n      tag_510\n      jump\t// in\n    tag_535:\n        /* \"#utility.yul\":2982:3055   */\n      swap3\n      pop\n        /* \"#utility.yul\":2844:3065   */\n      pop\n        /* \"#utility.yul\":3104:3107   */\n      0x80\n        /* \"#utility.yul\":3131:3184   */\n      tag_536\n        /* \"#utility.yul\":3176:3183   */\n      dup9\n        /* \"#utility.yul\":3167:3173   */\n      dup3\n        /* \"#utility.yul\":3156:3165   */\n      dup10\n        /* \"#utility.yul\":3152:3174   */\n      add\n        /* \"#utility.yul\":3131:3184   */\n      tag_514\n      jump\t// in\n    tag_536:\n        /* \"#utility.yul\":3121:3184   */\n      swap2\n      pop\n        /* \"#utility.yul\":3075:3194   */\n      pop\n        /* \"#utility.yul\":2182:3201   */\n      swap3\n      swap6\n      pop\n      swap3\n      swap6\n      swap1\n      swap4\n      pop\n      jump\t// out\n        /* \"#utility.yul\":3207:4530   */\n    tag_78:\n      0x00\n      dup1\n      0x00\n      dup1\n      0x00\n      dup1\n        /* \"#utility.yul\":3427:3430   */\n      0xc0\n        /* \"#utility.yul\":3415:3424   */\n      dup8\n        /* \"#utility.yul\":3406:3413   */\n      dup10\n        /* \"#utility.yul\":3402:3425   */\n      sub\n        /* \"#utility.yul\":3398:3431   */\n      slt\n        /* \"#utility.yul\":3395:3397   */\n      iszero\n      tag_538\n      jumpi\n        /* \"#utility.yul\":3444:3445   */\n      0x00\n        /* \"#utility.yul\":3441:3442   */\n      dup1\n        /* \"#utility.yul\":3434:3446   */\n      revert\n        /* \"#utility.yul\":3395:3397   */\n    tag_538:\n        /* \"#utility.yul\":3487:3488   */\n      0x00\n        /* \"#utility.yul\":3512:3565   */\n      tag_539\n        /* \"#utility.yul\":3557:3564   */\n      dup10\n        /* \"#utility.yul\":3548:3554   */\n      dup3\n        /* \"#utility.yul\":3537:3546   */\n      dup11\n        /* \"#utility.yul\":3533:3555   */\n      add\n        /* \"#utility.yul\":3512:3565   */\n      tag_502\n      jump\t// in\n    tag_539:\n        /* \"#utility.yul\":3502:3565   */\n      swap7\n      pop\n        /* \"#utility.yul\":3458:3575   */\n      pop\n        /* \"#utility.yul\":3642:3644   */\n      0x20\n        /* \"#utility.yul\":3631:3640   */\n      dup8\n        /* \"#utility.yul\":3627:3645   */\n      add\n        /* \"#utility.yul\":3614:3646   */\n      calldataload\n        /* \"#utility.yul\":3673:3691   */\n      0xffffffffffffffff\n        /* \"#utility.yul\":3665:3671   */\n      dup2\n        /* \"#utility.yul\":3662:3692   */\n      gt\n        /* \"#utility.yul\":3659:3661   */\n      iszero\n      tag_540\n      jumpi\n        /* \"#utility.yul\":3705:3706   */\n      0x00\n        /* \"#utility.yul\":3702:3703   */\n      dup1\n        /* \"#utility.yul\":3695:3707   */\n      revert\n        /* \"#utility.yul\":3659:3661   */\n    tag_540:\n        /* \"#utility.yul\":3733:3796   */\n      tag_541\n        /* \"#utility.yul\":3788:3795   */\n      dup10\n        /* \"#utility.yul\":3779:3785   */\n      dup3\n        /* \"#utility.yul\":3768:3777   */\n      dup11\n        /* \"#utility.yul\":3764:3786   */\n      add\n        /* \"#utility.yul\":3733:3796   */\n      tag_510\n      jump\t// in\n    tag_541:\n        /* \"#utility.yul\":3723:3796   */\n      swap6\n      pop\n        /* \"#utility.yul\":3585:3806   */\n      pop\n        /* \"#utility.yul\":3873:3875   */\n      0x40\n        /* \"#utility.yul\":3862:3871   */\n      dup8\n        /* \"#utility.yul\":3858:3876   */\n      add\n        /* \"#utility.yul\":3845:3877   */\n      calldataload\n        /* \"#utility.yul\":3904:3922   */\n      0xffffffffffffffff\n        /* \"#utility.yul\":3896:3902   */\n      dup2\n        /* \"#utility.yul\":3893:3923   */\n      gt\n        /* \"#utility.yul\":3890:3892   */\n      iszero\n      tag_542\n      jumpi\n        /* \"#utility.yul\":3936:3937   */\n      0x00\n        /* \"#utility.yul\":3933:3934   */\n      dup1\n        /* \"#utility.yul\":3926:3938   */\n      revert\n        /* \"#utility.yul\":3890:3892   */\n    tag_542:\n        /* \"#utility.yul\":3964:4027   */\n      tag_543\n        /* \"#utility.yul\":4019:4026   */\n      dup10\n        /* \"#utility.yul\":4010:4016   */\n      dup3\n        /* \"#utility.yul\":3999:4008   */\n      dup11\n        /* \"#utility.yul\":3995:4017   */\n      add\n        /* \"#utility.yul\":3964:4027   */\n      tag_510\n      jump\t// in\n    tag_543:\n        /* \"#utility.yul\":3954:4027   */\n      swap5\n      pop\n        /* \"#utility.yul\":3816:4037   */\n      pop\n        /* \"#utility.yul\":4104:4106   */\n      0x60\n        /* \"#utility.yul\":4093:4102   */\n      dup8\n        /* \"#utility.yul\":4089:4107   */\n      add\n        /* \"#utility.yul\":4076:4108   */\n      calldataload\n        /* \"#utility.yul\":4135:4153   */\n      0xffffffffffffffff\n        /* \"#utility.yul\":4127:4133   */\n      dup2\n        /* \"#utility.yul\":4124:4154   */\n      gt\n        /* \"#utility.yul\":4121:4123   */\n      iszero\n      tag_544\n      jumpi\n        /* \"#utility.yul\":4167:4168   */\n      0x00\n        /* \"#utility.yul\":4164:4165   */\n      dup1\n        /* \"#utility.yul\":4157:4169   */\n      revert\n        /* \"#utility.yul\":4121:4123   */\n    tag_544:\n        /* \"#utility.yul\":4195:4258   */\n      tag_545\n        /* \"#utility.yul\":4250:4257   */\n      dup10\n        /* \"#utility.yul\":4241:4247   */\n      dup3\n        /* \"#utility.yul\":4230:4239   */\n      dup11\n        /* \"#utility.yul\":4226:4248   */\n      add\n        /* \"#utility.yul\":4195:4258   */\n      tag_510\n      jump\t// in\n    tag_545:\n        /* \"#utility.yul\":4185:4258   */\n      swap4\n      pop\n        /* \"#utility.yul\":4047:4268   */\n      pop\n        /* \"#utility.yul\":4307:4310   */\n      0x80\n        /* \"#utility.yul\":4334:4387   */\n      tag_546\n        /* \"#utility.yul\":4379:4386   */\n      dup10\n        /* \"#utility.yul\":4370:4376   */\n      dup3\n        /* \"#utility.yul\":4359:4368   */\n      dup11\n        /* \"#utility.yul\":4355:4377   */\n      add\n        /* \"#utility.yul\":4334:4387   */\n      tag_514\n      jump\t// in\n    tag_546:\n        /* \"#utility.yul\":4324:4387   */\n      swap3\n      pop\n        /* \"#utility.yul\":4278:4397   */\n      pop\n        /* \"#utility.yul\":4436:4439   */\n      0xa0\n        /* \"#utility.yul\":4463:4513   */\n      tag_547\n        /* \"#utility.yul\":4505:4512   */\n      dup10\n        /* \"#utility.yul\":4496:4502   */\n      dup3\n        /* \"#utility.yul\":4485:4494   */\n      dup11\n        /* \"#utility.yul\":4481:4503   */\n      add\n        /* \"#utility.yul\":4463:4513   */\n      tag_506\n      jump\t// in\n    tag_547:\n        /* \"#utility.yul\":4453:4513   */\n      swap2\n      pop\n        /* \"#utility.yul\":4407:4523   */\n      pop\n        /* \"#utility.yul\":3385:4530   */\n      swap3\n      swap6\n      pop\n      swap3\n      swap6\n      pop\n      swap3\n      swap6\n      jump\t// out\n        /* \"#utility.yul\":4536:5454   */\n    tag_42:\n      0x00\n      dup1\n      0x00\n      dup1\n        /* \"#utility.yul\":4712:4715   */\n      0x80\n        /* \"#utility.yul\":4700:4709   */\n      dup6\n        /* \"#utility.yul\":4691:4698   */\n      dup8\n        /* \"#utility.yul\":4687:4710   */\n      sub\n        /* \"#utility.yul\":4683:4716   */\n      slt\n        /* \"#utility.yul\":4680:4682   */\n      iszero\n      tag_549\n      jumpi\n        /* \"#utility.yul\":4729:4730   */\n      0x00\n        /* \"#utility.yul\":4726:4727   */\n      dup1\n        /* \"#utility.yul\":4719:4731   */\n      revert\n        /* \"#utility.yul\":4680:4682   */\n    tag_549:\n        /* \"#utility.yul\":4800:4801   */\n      0x00\n        /* \"#utility.yul\":4789:4798   */\n      dup6\n        /* \"#utility.yul\":4785:4802   */\n      add\n        /* \"#utility.yul\":4772:4803   */\n      calldataload\n        /* \"#utility.yul\":4830:4848   */\n      0xffffffffffffffff\n        /* \"#utility.yul\":4822:4828   */\n      dup2\n        /* \"#utility.yul\":4819:4849   */\n      gt\n        /* \"#utility.yul\":4816:4818   */\n      iszero\n      tag_550\n      jumpi\n        /* \"#utility.yul\":4862:4863   */\n      0x00\n        /* \"#utility.yul\":4859:4860   */\n      dup1\n        /* \"#utility.yul\":4852:4864   */\n      revert\n        /* \"#utility.yul\":4816:4818   */\n    tag_550:\n        /* \"#utility.yul\":4890:4953   */\n      tag_551\n        /* \"#utility.yul\":4945:4952   */\n      dup8\n        /* \"#utility.yul\":4936:4942   */\n      dup3\n        /* \"#utility.yul\":4925:4934   */\n      dup9\n        /* \"#utility.yul\":4921:4943   */\n      add\n        /* \"#utility.yul\":4890:4953   */\n      tag_510\n      jump\t// in\n    tag_551:\n        /* \"#utility.yul\":4880:4953   */\n      swap5\n      pop\n        /* \"#utility.yul\":4743:4963   */\n      pop\n        /* \"#utility.yul\":5030:5032   */\n      0x20\n        /* \"#utility.yul\":5019:5028   */\n      dup6\n        /* \"#utility.yul\":5015:5033   */\n      add\n        /* \"#utility.yul\":5002:5034   */\n      calldataload\n        /* \"#utility.yul\":5061:5079   */\n      0xffffffffffffffff\n        /* \"#utility.yul\":5053:5059   */\n      dup2\n        /* \"#utility.yul\":5050:5080   */\n      gt\n        /* \"#utility.yul\":5047:5049   */\n      iszero\n      tag_552\n      jumpi\n        /* \"#utility.yul\":5093:5094   */\n      0x00\n        /* \"#utility.yul\":5090:5091   */\n      dup1\n        /* \"#utility.yul\":5083:5095   */\n      revert\n        /* \"#utility.yul\":5047:5049   */\n    tag_552:\n        /* \"#utility.yul\":5121:5184   */\n      tag_553\n        /* \"#utility.yul\":5176:5183   */\n      dup8\n        /* \"#utility.yul\":5167:5173   */\n      dup3\n        /* \"#utility.yul\":5156:5165   */\n      dup9\n        /* \"#utility.yul\":5152:5174   */\n      add\n        /* \"#utility.yul\":5121:5184   */\n      tag_510\n      jump\t// in\n    tag_553:\n        /* \"#utility.yul\":5111:5184   */\n      swap4\n      pop\n        /* \"#utility.yul\":4973:5194   */\n      pop\n        /* \"#utility.yul\":5233:5235   */\n      0x40\n        /* \"#utility.yul\":5259:5312   */\n      tag_554\n        /* \"#utility.yul\":5304:5311   */\n      dup8\n        /* \"#utility.yul\":5295:5301   */\n      dup3\n        /* \"#utility.yul\":5284:5293   */\n      dup9\n        /* \"#utility.yul\":5280:5302   */\n      add\n        /* \"#utility.yul\":5259:5312   */\n      tag_502\n      jump\t// in\n    tag_554:\n        /* \"#utility.yul\":5249:5312   */\n      swap3\n      pop\n        /* \"#utility.yul\":5204:5322   */\n      pop\n        /* \"#utility.yul\":5361:5363   */\n      0x60\n        /* \"#utility.yul\":5387:5437   */\n      tag_555\n        /* \"#utility.yul\":5429:5436   */\n      dup8\n        /* \"#utility.yul\":5420:5426   */\n      dup3\n        /* \"#utility.yul\":5409:5418   */\n      dup9\n        /* \"#utility.yul\":5405:5427   */\n      add\n        /* \"#utility.yul\":5387:5437   */\n      tag_506\n      jump\t// in\n    tag_555:\n        /* \"#utility.yul\":5377:5437   */\n      swap2\n      pop\n        /* \"#utility.yul\":5332:5447   */\n      pop\n        /* \"#utility.yul\":4670:5454   */\n      swap3\n      swap6\n      swap2\n      swap5\n      pop\n      swap3\n      pop\n      jump\t// out\n        /* \"#utility.yul\":5460:5722   */\n    tag_36:\n      0x00\n        /* \"#utility.yul\":5568:5570   */\n      0x20\n        /* \"#utility.yul\":5556:5565   */\n      dup3\n        /* \"#utility.yul\":5547:5554   */\n      dup5\n        /* \"#utility.yul\":5543:5566   */\n      sub\n        /* \"#utility.yul\":5539:5571   */\n      slt\n        /* \"#utility.yul\":5536:5538   */\n      iszero\n      tag_557\n      jumpi\n        /* \"#utility.yul\":5584:5585   */\n      0x00\n        /* \"#utility.yul\":5581:5582   */\n      dup1\n        /* \"#utility.yul\":5574:5586   */\n      revert\n        /* \"#utility.yul\":5536:5538   */\n    tag_557:\n        /* \"#utility.yul\":5627:5628   */\n      0x00\n        /* \"#utility.yul\":5652:5705   */\n      tag_558\n        /* \"#utility.yul\":5697:5704   */\n      dup5\n        /* \"#utility.yul\":5688:5694   */\n      dup3\n        /* \"#utility.yul\":5677:5686   */\n      dup6\n        /* \"#utility.yul\":5673:5695   */\n      add\n        /* \"#utility.yul\":5652:5705   */\n      tag_514\n      jump\t// in\n    tag_558:\n        /* \"#utility.yul\":5642:5705   */\n      swap2\n      pop\n        /* \"#utility.yul\":5598:5715   */\n      pop\n        /* \"#utility.yul\":5526:5722   */\n      swap3\n      swap2\n      pop\n      pop\n      jump\t// out\n        /* \"#utility.yul\":5728:6652   */\n    tag_54:\n      0x00\n      dup1\n      0x00\n      dup1\n        /* \"#utility.yul\":5907:5910   */\n      0x80\n        /* \"#utility.yul\":5895:5904   */\n      dup6\n        /* \"#utility.yul\":5886:5893   */\n      dup8\n        /* \"#utility.yul\":5882:5905   */\n      sub\n        /* \"#utility.yul\":5878:5911   */\n      slt\n        /* \"#utility.yul\":5875:5877   */\n      iszero\n      tag_560\n      jumpi\n        /* \"#utility.yul\":5924:5925   */\n      0x00\n        /* \"#utility.yul\":5921:5922   */\n      dup1\n        /* \"#utility.yul\":5914:5926   */\n      revert\n        /* \"#utility.yul\":5875:5877   */\n    tag_560:\n        /* \"#utility.yul\":5967:5968   */\n      0x00\n        /* \"#utility.yul\":5992:6045   */\n      tag_561\n        /* \"#utility.yul\":6037:6044   */\n      dup8\n        /* \"#utility.yul\":6028:6034   */\n      dup3\n        /* \"#utility.yul\":6017:6026   */\n      dup9\n        /* \"#utility.yul\":6013:6035   */\n      add\n        /* \"#utility.yul\":5992:6045   */\n      tag_514\n      jump\t// in\n    tag_561:\n        /* \"#utility.yul\":5982:6045   */\n      swap5\n      pop\n        /* \"#utility.yul\":5938:6055   */\n      pop\n        /* \"#utility.yul\":6122:6124   */\n      0x20\n        /* \"#utility.yul\":6111:6120   */\n      dup6\n        /* \"#utility.yul\":6107:6125   */\n      add\n        /* \"#utility.yul\":6094:6126   */\n      calldataload\n        /* \"#utility.yul\":6153:6171   */\n      0xffffffffffffffff\n        /* \"#utility.yul\":6145:6151   */\n      dup2\n        /* \"#utility.yul\":6142:6172   */\n      gt\n        /* \"#utility.yul\":6139:6141   */\n      iszero\n      tag_562\n      jumpi\n        /* \"#utility.yul\":6185:6186   */\n      0x00\n        /* \"#utility.yul\":6182:6183   */\n      dup1\n        /* \"#utility.yul\":6175:6187   */\n      revert\n        /* \"#utility.yul\":6139:6141   */\n    tag_562:\n        /* \"#utility.yul\":6213:6276   */\n      tag_563\n        /* \"#utility.yul\":6268:6275   */\n      dup8\n        /* \"#utility.yul\":6259:6265   */\n      dup3\n        /* \"#utility.yul\":6248:6257   */\n      dup9\n        /* \"#utility.yul\":6244:6266   */\n      add\n        /* \"#utility.yul\":6213:6276   */\n      tag_510\n      jump\t// in\n    tag_563:\n        /* \"#utility.yul\":6203:6276   */\n      swap4\n      pop\n        /* \"#utility.yul\":6065:6286   */\n      pop\n        /* \"#utility.yul\":6353:6355   */\n      0x40\n        /* \"#utility.yul\":6342:6351   */\n      dup6\n        /* \"#utility.yul\":6338:6356   */\n      add\n        /* \"#utility.yul\":6325:6357   */\n      calldataload\n        /* \"#utility.yul\":6384:6402   */\n      0xffffffffffffffff\n        /* \"#utility.yul\":6376:6382   */\n      dup2\n        /* \"#utility.yul\":6373:6403   */\n      gt\n        /* \"#utility.yul\":6370:6372   */\n      iszero\n      tag_564\n      jumpi\n        /* \"#utility.yul\":6416:6417   */\n      0x00\n        /* \"#utility.yul\":6413:6414   */\n      dup1\n        /* \"#utility.yul\":6406:6418   */\n      revert\n        /* \"#utility.yul\":6370:6372   */\n    tag_564:\n        /* \"#utility.yul\":6444:6507   */\n      tag_565\n        /* \"#utility.yul\":6499:6506   */\n      dup8\n        /* \"#utility.yul\":6490:6496   */\n      dup3\n        /* \"#utility.yul\":6479:6488   */\n      dup9\n        /* \"#utility.yul\":6475:6497   */\n      add\n        /* \"#utility.yul\":6444:6507   */\n      tag_510\n      jump\t// in\n    tag_565:\n        /* \"#utility.yul\":6434:6507   */\n      swap3\n      pop\n        /* \"#utility.yul\":6296:6517   */\n      pop\n        /* \"#utility.yul\":6556:6558   */\n      0x60\n        /* \"#utility.yul\":6582:6635   */\n      tag_566\n        /* \"#utility.yul\":6627:6634   */\n      dup8\n        /* \"#utility.yul\":6618:6624   */\n      dup3\n        /* \"#utility.yul\":6607:6616   */\n      dup9\n        /* \"#utility.yul\":6603:6625   */\n      add\n        /* \"#utility.yul\":6582:6635   */\n      tag_502\n      jump\t// in\n    tag_566:\n        /* \"#utility.yul\":6572:6635   */\n      swap2\n      pop\n        /* \"#utility.yul\":6527:6645   */\n      pop\n        /* \"#utility.yul\":5865:6652   */\n      swap3\n      swap6\n      swap2\n      swap5\n      pop\n      swap3\n      pop\n      jump\t// out\n        /* \"#utility.yul\":6658:6902   */\n    tag_567:\n      0x00\n        /* \"#utility.yul\":6806:6896   */\n      tag_569\n        /* \"#utility.yul\":6892:6895   */\n      dup4\n        /* \"#utility.yul\":6884:6890   */\n      dup4\n        /* \"#utility.yul\":6806:6896   */\n      tag_570\n      jump\t// in\n    tag_569:\n        /* \"#utility.yul\":6792:6896   */\n      swap1\n      pop\n        /* \"#utility.yul\":6782:6902   */\n      swap3\n      swap2\n      pop\n      pop\n      jump\t// out\n        /* \"#utility.yul\":6908:7160   */\n    tag_571:\n      0x00\n        /* \"#utility.yul\":7060:7154   */\n      tag_573\n        /* \"#utility.yul\":7150:7153   */\n      dup4\n        /* \"#utility.yul\":7142:7148   */\n      dup4\n        /* \"#utility.yul\":7060:7154   */\n      tag_574\n      jump\t// in\n    tag_573:\n        /* \"#utility.yul\":7046:7154   */\n      swap1\n      pop\n        /* \"#utility.yul\":7036:7160   */\n      swap3\n      swap2\n      pop\n      pop\n      jump\t// out\n        /* \"#utility.yul\":7166:7410   */\n    tag_575:\n      0x00\n        /* \"#utility.yul\":7314:7404   */\n      tag_577\n        /* \"#utility.yul\":7400:7403   */\n      dup4\n        /* \"#utility.yul\":7392:7398   */\n      dup4\n        /* \"#utility.yul\":7314:7404   */\n      tag_578\n      jump\t// in\n    tag_577:\n        /* \"#utility.yul\":7300:7404   */\n      swap1\n      pop\n        /* \"#utility.yul\":7290:7410   */\n      swap3\n      swap2\n      pop\n      pop\n      jump\t// out\n        /* \"#utility.yul\":7416:7524   */\n    tag_579:\n        /* \"#utility.yul\":7493:7517   */\n      tag_581\n        /* \"#utility.yul\":7511:7516   */\n      dup2\n        /* \"#utility.yul\":7493:7517   */\n      tag_582\n      jump\t// in\n    tag_581:\n        /* \"#utility.yul\":7488:7491   */\n      dup3\n        /* \"#utility.yul\":7481:7518   */\n      mstore\n        /* \"#utility.yul\":7471:7524   */\n      pop\n      pop\n      jump\t// out\n        /* \"#utility.yul\":7530:7648   */\n    tag_583:\n        /* \"#utility.yul\":7617:7641   */\n      tag_585\n        /* \"#utility.yul\":7635:7640   */\n      dup2\n        /* \"#utility.yul\":7617:7641   */\n      tag_582\n      jump\t// in\n    tag_585:\n        /* \"#utility.yul\":7612:7615   */\n      dup3\n        /* \"#utility.yul\":7605:7642   */\n      mstore\n        /* \"#utility.yul\":7595:7648   */\n      pop\n      pop\n      jump\t// out\n        /* \"#utility.yul\":7712:8799   */\n    tag_586:\n      0x00\n        /* \"#utility.yul\":7904:7980   */\n      tag_588\n        /* \"#utility.yul\":7974:7979   */\n      dup3\n        /* \"#utility.yul\":7904:7980   */\n      tag_589\n      jump\t// in\n    tag_588:\n        /* \"#utility.yul\":7996:8104   */\n      tag_590\n        /* \"#utility.yul\":8097:8103   */\n      dup2\n        /* \"#utility.yul\":8092:8095   */\n      dup6\n        /* \"#utility.yul\":7996:8104   */\n      tag_591\n      jump\t// in\n    tag_590:\n        /* \"#utility.yul\":7989:8104   */\n      swap4\n      pop\n        /* \"#utility.yul\":8130:8133   */\n      dup4\n        /* \"#utility.yul\":8175:8179   */\n      0x20\n        /* \"#utility.yul\":8167:8173   */\n      dup3\n        /* \"#utility.yul\":8163:8180   */\n      mul\n        /* \"#utility.yul\":8158:8161   */\n      dup6\n        /* \"#utility.yul\":8154:8181   */\n      add\n        /* \"#utility.yul\":8205:8283   */\n      tag_592\n        /* \"#utility.yul\":8277:8282   */\n      dup6\n        /* \"#utility.yul\":8205:8283   */\n      tag_593\n      jump\t// in\n    tag_592:\n        /* \"#utility.yul\":8306:8313   */\n      dup1\n        /* \"#utility.yul\":8337:8338   */\n      0x00\n        /* \"#utility.yul\":8322:8754   */\n    tag_594:\n        /* \"#utility.yul\":8347:8353   */\n      dup6\n        /* \"#utility.yul\":8344:8345   */\n      dup2\n        /* \"#utility.yul\":8341:8354   */\n      lt\n        /* \"#utility.yul\":8322:8754   */\n      iszero\n      tag_596\n      jumpi\n        /* \"#utility.yul\":8418:8427   */\n      dup5\n        /* \"#utility.yul\":8412:8416   */\n      dup5\n        /* \"#utility.yul\":8408:8428   */\n      sub\n        /* \"#utility.yul\":8403:8406   */\n      dup10\n        /* \"#utility.yul\":8396:8429   */\n      mstore\n        /* \"#utility.yul\":8469:8475   */\n      dup2\n        /* \"#utility.yul\":8463:8476   */\n      mload\n        /* \"#utility.yul\":8497:8605   */\n      tag_597\n        /* \"#utility.yul\":8600:8604   */\n      dup6\n        /* \"#utility.yul\":8585:8598   */\n      dup3\n        /* \"#utility.yul\":8497:8605   */\n      tag_567\n      jump\t// in\n    tag_597:\n        /* \"#utility.yul\":8489:8605   */\n      swap5\n      pop\n        /* \"#utility.yul\":8628:8710   */\n      tag_598\n        /* \"#utility.yul\":8703:8709   */\n      dup4\n        /* \"#utility.yul\":8628:8710   */\n      tag_599\n      jump\t// in\n    tag_598:\n        /* \"#utility.yul\":8618:8710   */\n      swap3\n      pop\n        /* \"#utility.yul\":8739:8743   */\n      0x20\n        /* \"#utility.yul\":8734:8737   */\n      dup11\n        /* \"#utility.yul\":8730:8744   */\n      add\n        /* \"#utility.yul\":8723:8744   */\n      swap10\n      pop\n        /* \"#utility.yul\":8382:8754   */\n      pop\n        /* \"#utility.yul\":8369:8370   */\n      0x01\n        /* \"#utility.yul\":8366:8367   */\n      dup2\n        /* \"#utility.yul\":8362:8371   */\n      add\n        /* \"#utility.yul\":8357:8371   */\n      swap1\n      pop\n        /* \"#utility.yul\":8322:8754   */\n      jump(tag_594)\n    tag_596:\n        /* \"#utility.yul\":8326:8340   */\n      pop\n        /* \"#utility.yul\":8770:8774   */\n      dup3\n        /* \"#utility.yul\":8763:8774   */\n      swap8\n      pop\n        /* \"#utility.yul\":8790:8793   */\n      dup8\n        /* \"#utility.yul\":8783:8793   */\n      swap6\n      pop\n        /* \"#utility.yul\":7880:8799   */\n      pop\n      pop\n      pop\n      pop\n      pop\n      swap3\n      swap2\n      pop\n      pop\n      jump\t// out\n        /* \"#utility.yul\":8867:9970   */\n    tag_600:\n      0x00\n        /* \"#utility.yul\":9063:9141   */\n      tag_602\n        /* \"#utility.yul\":9135:9140   */\n      dup3\n        /* \"#utility.yul\":9063:9141   */\n      tag_603\n      jump\t// in\n    tag_602:\n        /* \"#utility.yul\":9157:9267   */\n      tag_604\n        /* \"#utility.yul\":9260:9266   */\n      dup2\n        /* \"#utility.yul\":9255:9258   */\n      dup6\n        /* \"#utility.yul\":9157:9267   */\n      tag_605\n      jump\t// in\n    tag_604:\n        /* \"#utility.yul\":9150:9267   */\n      swap4\n      pop\n        /* \"#utility.yul\":9293:9296   */\n      dup4\n        /* \"#utility.yul\":9338:9342   */\n      0x20\n        /* \"#utility.yul\":9330:9336   */\n      dup3\n        /* \"#utility.yul\":9326:9343   */\n      mul\n        /* \"#utility.yul\":9321:9324   */\n      dup6\n        /* \"#utility.yul\":9317:9344   */\n      add\n        /* \"#utility.yul\":9368:9448   */\n      tag_606\n        /* \"#utility.yul\":9442:9447   */\n      dup6\n        /* \"#utility.yul\":9368:9448   */\n      tag_607\n      jump\t// in\n    tag_606:\n        /* \"#utility.yul\":9471:9478   */\n      dup1\n        /* \"#utility.yul\":9502:9503   */\n      0x00\n        /* \"#utility.yul\":9487:9925   */\n    tag_608:\n        /* \"#utility.yul\":9512:9518   */\n      dup6\n        /* \"#utility.yul\":9509:9510   */\n      dup2\n        /* \"#utility.yul\":9506:9519   */\n      lt\n        /* \"#utility.yul\":9487:9925   */\n      iszero\n      tag_610\n      jumpi\n        /* \"#utility.yul\":9583:9592   */\n      dup5\n        /* \"#utility.yul\":9577:9581   */\n      dup5\n        /* \"#utility.yul\":9573:9593   */\n      sub\n        /* \"#utility.yul\":9568:9571   */\n      dup10\n        /* \"#utility.yul\":9561:9594   */\n      mstore\n        /* \"#utility.yul\":9634:9640   */\n      dup2\n        /* \"#utility.yul\":9628:9641   */\n      mload\n        /* \"#utility.yul\":9662:9774   */\n      tag_611\n        /* \"#utility.yul\":9769:9773   */\n      dup6\n        /* \"#utility.yul\":9754:9767   */\n      dup3\n        /* \"#utility.yul\":9662:9774   */\n      tag_571\n      jump\t// in\n    tag_611:\n        /* \"#utility.yul\":9654:9774   */\n      swap5\n      pop\n        /* \"#utility.yul\":9797:9881   */\n      tag_612\n        /* \"#utility.yul\":9874:9880   */\n      dup4\n        /* \"#utility.yul\":9797:9881   */\n      tag_613\n      jump\t// in\n    tag_612:\n        /* \"#utility.yul\":9787:9881   */\n      swap3\n      pop\n        /* \"#utility.yul\":9910:9914   */\n      0x20\n        /* \"#utility.yul\":9905:9908   */\n      dup11\n        /* \"#utility.yul\":9901:9915   */\n      add\n        /* \"#utility.yul\":9894:9915   */\n      swap10\n      pop\n        /* \"#utility.yul\":9547:9925   */\n      pop\n        /* \"#utility.yul\":9534:9535   */\n      0x01\n        /* \"#utility.yul\":9531:9532   */\n      dup2\n        /* \"#utility.yul\":9527:9536   */\n      add\n        /* \"#utility.yul\":9522:9536   */\n      swap1\n      pop\n        /* \"#utility.yul\":9487:9925   */\n      jump(tag_608)\n    tag_610:\n        /* \"#utility.yul\":9491:9505   */\n      pop\n        /* \"#utility.yul\":9941:9945   */\n      dup3\n        /* \"#utility.yul\":9934:9945   */\n      swap8\n      pop\n        /* \"#utility.yul\":9961:9964   */\n      dup8\n        /* \"#utility.yul\":9954:9964   */\n      swap6\n      pop\n        /* \"#utility.yul\":9039:9970   */\n      pop\n      pop\n      pop\n      pop\n      pop\n      swap3\n      swap2\n      pop\n      pop\n      jump\t// out\n        /* \"#utility.yul\":10034:11121   */\n    tag_614:\n      0x00\n        /* \"#utility.yul\":10226:10302   */\n      tag_616\n        /* \"#utility.yul\":10296:10301   */\n      dup3\n        /* \"#utility.yul\":10226:10302   */\n      tag_617\n      jump\t// in\n    tag_616:\n        /* \"#utility.yul\":10318:10426   */\n      tag_618\n        /* \"#utility.yul\":10419:10425   */\n      dup2\n        /* \"#utility.yul\":10414:10417   */\n      dup6\n        /* \"#utility.yul\":10318:10426   */\n      tag_619\n      jump\t// in\n    tag_618:\n        /* \"#utility.yul\":10311:10426   */\n      swap4\n      pop\n        /* \"#utility.yul\":10452:10455   */\n      dup4\n        /* \"#utility.yul\":10497:10501   */\n      0x20\n        /* \"#utility.yul\":10489:10495   */\n      dup3\n        /* \"#utility.yul\":10485:10502   */\n      mul\n        /* \"#utility.yul\":10480:10483   */\n      dup6\n        /* \"#utility.yul\":10476:10503   */\n      add\n        /* \"#utility.yul\":10527:10605   */\n      tag_620\n        /* \"#utility.yul\":10599:10604   */\n      dup6\n        /* \"#utility.yul\":10527:10605   */\n      tag_621\n      jump\t// in\n    tag_620:\n        /* \"#utility.yul\":10628:10635   */\n      dup1\n        /* \"#utility.yul\":10659:10660   */\n      0x00\n        /* \"#utility.yul\":10644:11076   */\n    tag_622:\n        /* \"#utility.yul\":10669:10675   */\n      dup6\n        /* \"#utility.yul\":10666:10667   */\n      dup2\n        /* \"#utility.yul\":10663:10676   */\n      lt\n        /* \"#utility.yul\":10644:11076   */\n      iszero\n      tag_624\n      jumpi\n        /* \"#utility.yul\":10740:10749   */\n      dup5\n        /* \"#utility.yul\":10734:10738   */\n      dup5\n        /* \"#utility.yul\":10730:10750   */\n      sub\n        /* \"#utility.yul\":10725:10728   */\n      dup10\n        /* \"#utility.yul\":10718:10751   */\n      mstore\n        /* \"#utility.yul\":10791:10797   */\n      dup2\n        /* \"#utility.yul\":10785:10798   */\n      mload\n        /* \"#utility.yul\":10819:10927   */\n      tag_625\n        /* \"#utility.yul\":10922:10926   */\n      dup6\n        /* \"#utility.yul\":10907:10920   */\n      dup3\n        /* \"#utility.yul\":10819:10927   */\n      tag_575\n      jump\t// in\n    tag_625:\n        /* \"#utility.yul\":10811:10927   */\n      swap5\n      pop\n        /* \"#utility.yul\":10950:11032   */\n      tag_626\n        /* \"#utility.yul\":11025:11031   */\n      dup4\n        /* \"#utility.yul\":10950:11032   */\n      tag_627\n      jump\t// in\n    tag_626:\n        /* \"#utility.yul\":10940:11032   */\n      swap3\n      pop\n        /* \"#utility.yul\":11061:11065   */\n      0x20\n        /* \"#utility.yul\":11056:11059   */\n      dup11\n        /* \"#utility.yul\":11052:11066   */\n      add\n        /* \"#utility.yul\":11045:11066   */\n      swap10\n      pop\n        /* \"#utility.yul\":10704:11076   */\n      pop\n        /* \"#utility.yul\":10691:10692   */\n      0x01\n        /* \"#utility.yul\":10688:10689   */\n      dup2\n        /* \"#utility.yul\":10684:10693   */\n      add\n        /* \"#utility.yul\":10679:10693   */\n      swap1\n      pop\n        /* \"#utility.yul\":10644:11076   */\n      jump(tag_622)\n    tag_624:\n        /* \"#utility.yul\":10648:10662   */\n      pop\n        /* \"#utility.yul\":11092:11096   */\n      dup3\n        /* \"#utility.yul\":11085:11096   */\n      swap8\n      pop\n        /* \"#utility.yul\":11112:11115   */\n      dup8\n        /* \"#utility.yul\":11105:11115   */\n      swap6\n      pop\n        /* \"#utility.yul\":10202:11121   */\n      pop\n      pop\n      pop\n      pop\n      pop\n      swap3\n      swap2\n      pop\n      pop\n      jump\t// out\n        /* \"#utility.yul\":11127:11226   */\n    tag_628:\n        /* \"#utility.yul\":11198:11219   */\n      tag_630\n        /* \"#utility.yul\":11213:11218   */\n      dup2\n        /* \"#utility.yul\":11198:11219   */\n      tag_631\n      jump\t// in\n    tag_630:\n        /* \"#utility.yul\":11193:11196   */\n      dup3\n        /* \"#utility.yul\":11186:11220   */\n      mstore\n        /* \"#utility.yul\":11176:11226   */\n      pop\n      pop\n      jump\t// out\n        /* \"#utility.yul\":11232:11341   */\n    tag_632:\n        /* \"#utility.yul\":11313:11334   */\n      tag_634\n        /* \"#utility.yul\":11328:11333   */\n      dup2\n        /* \"#utility.yul\":11313:11334   */\n      tag_631\n      jump\t// in\n    tag_634:\n        /* \"#utility.yul\":11308:11311   */\n      dup3\n        /* \"#utility.yul\":11301:11335   */\n      mstore\n        /* \"#utility.yul\":11291:11341   */\n      pop\n      pop\n      jump\t// out\n        /* \"#utility.yul\":11347:11691   */\n    tag_635:\n      0x00\n        /* \"#utility.yul\":11453:11492   */\n      tag_637\n        /* \"#utility.yul\":11486:11491   */\n      dup3\n        /* \"#utility.yul\":11453:11492   */\n      tag_638\n      jump\t// in\n    tag_637:\n        /* \"#utility.yul\":11508:11569   */\n      tag_639\n        /* \"#utility.yul\":11562:11568   */\n      dup2\n        /* \"#utility.yul\":11557:11560   */\n      dup6\n        /* \"#utility.yul\":11508:11569   */\n      tag_640\n      jump\t// in\n    tag_639:\n        /* \"#utility.yul\":11501:11569   */\n      swap4\n      pop\n        /* \"#utility.yul\":11578:11630   */\n      tag_641\n        /* \"#utility.yul\":11623:11629   */\n      dup2\n        /* \"#utility.yul\":11618:11621   */\n      dup6\n        /* \"#utility.yul\":11611:11615   */\n      0x20\n        /* \"#utility.yul\":11604:11609   */\n      dup7\n        /* \"#utility.yul\":11600:11616   */\n      add\n        /* \"#utility.yul\":11578:11630   */\n      tag_642\n      jump\t// in\n    tag_641:\n        /* \"#utility.yul\":11655:11684   */\n      tag_643\n        /* \"#utility.yul\":11677:11683   */\n      dup2\n        /* \"#utility.yul\":11655:11684   */\n      tag_644\n      jump\t// in\n    tag_643:\n        /* \"#utility.yul\":11650:11653   */\n      dup5\n        /* \"#utility.yul\":11646:11685   */\n      add\n        /* \"#utility.yul\":11639:11685   */\n      swap2\n      pop\n        /* \"#utility.yul\":11429:11691   */\n      pop\n      swap3\n      swap2\n      pop\n      pop\n      jump\t// out\n        /* \"#utility.yul\":11697:12061   */\n    tag_645:\n      0x00\n        /* \"#utility.yul\":11813:11852   */\n      tag_647\n        /* \"#utility.yul\":11846:11851   */\n      dup3\n        /* \"#utility.yul\":11813:11852   */\n      tag_638\n      jump\t// in\n    tag_647:\n        /* \"#utility.yul\":11868:11939   */\n      tag_648\n        /* \"#utility.yul\":11932:11938   */\n      dup2\n        /* \"#utility.yul\":11927:11930   */\n      dup6\n        /* \"#utility.yul\":11868:11939   */\n      tag_649\n      jump\t// in\n    tag_648:\n        /* \"#utility.yul\":11861:11939   */\n      swap4\n      pop\n        /* \"#utility.yul\":11948:12000   */\n      tag_650\n        /* \"#utility.yul\":11993:11999   */\n      dup2\n        /* \"#utility.yul\":11988:11991   */\n      dup6\n        /* \"#utility.yul\":11981:11985   */\n      0x20\n        /* \"#utility.yul\":11974:11979   */\n      dup7\n        /* \"#utility.yul\":11970:11986   */\n      add\n        /* \"#utility.yul\":11948:12000   */\n      tag_642\n      jump\t// in\n    tag_650:\n        /* \"#utility.yul\":12025:12054   */\n      tag_651\n        /* \"#utility.yul\":12047:12053   */\n      dup2\n        /* \"#utility.yul\":12025:12054   */\n      tag_644\n      jump\t// in\n    tag_651:\n        /* \"#utility.yul\":12020:12023   */\n      dup5\n        /* \"#utility.yul\":12016:12055   */\n      add\n        /* \"#utility.yul\":12009:12055   */\n      swap2\n      pop\n        /* \"#utility.yul\":11789:12061   */\n      pop\n      swap3\n      swap2\n      pop\n      pop\n      jump\t// out\n        /* \"#utility.yul\":12091:13028   */\n    tag_652:\n      0x00\n        /* \"#utility.yul\":12213:12218   */\n      dup2\n        /* \"#utility.yul\":12207:12219   */\n      sload\n        /* \"#utility.yul\":12250:12251   */\n      0x01\n        /* \"#utility.yul\":12239:12248   */\n      dup2\n        /* \"#utility.yul\":12235:12252   */\n      and\n        /* \"#utility.yul\":12266:12267   */\n      0x00\n        /* \"#utility.yul\":12261:12542   */\n      dup2\n      eq\n      tag_655\n      jumpi\n        /* \"#utility.yul\":12556:12557   */\n      0x01\n        /* \"#utility.yul\":12551:13022   */\n      dup2\n      eq\n      tag_656\n      jumpi\n        /* \"#utility.yul\":12228:13022   */\n      jump(tag_654)\n        /* \"#utility.yul\":12261:12542   */\n    tag_655:\n        /* \"#utility.yul\":12351:12355   */\n      0x7f\n        /* \"#utility.yul\":12347:12348   */\n      0x02\n        /* \"#utility.yul\":12336:12345   */\n      dup4\n        /* \"#utility.yul\":12332:12349   */\n      div\n        /* \"#utility.yul\":12328:12356   */\n      and\n        /* \"#utility.yul\":12376:12447   */\n      tag_657\n        /* \"#utility.yul\":12440:12446   */\n      dup2\n        /* \"#utility.yul\":12435:12438   */\n      dup8\n        /* \"#utility.yul\":12376:12447   */\n      tag_649\n      jump\t// in\n    tag_657:\n        /* \"#utility.yul\":12369:12447   */\n      swap6\n      pop\n        /* \"#utility.yul\":12491:12495   */\n      0xff\n        /* \"#utility.yul\":12487:12496   */\n      not\n        /* \"#utility.yul\":12476:12485   */\n      dup4\n        /* \"#utility.yul\":12472:12497   */\n      and\n        /* \"#utility.yul\":12467:12470   */\n      dup7\n        /* \"#utility.yul\":12460:12498   */\n      mstore\n        /* \"#utility.yul\":12527:12531   */\n      0x20\n        /* \"#utility.yul\":12522:12525   */\n      dup7\n        /* \"#utility.yul\":12518:12532   */\n      add\n        /* \"#utility.yul\":12511:12532   */\n      swap4\n      pop\n        /* \"#utility.yul\":12268:12542   */\n      pop\n        /* \"#utility.yul\":12261:12542   */\n      jump(tag_654)\n        /* \"#utility.yul\":12551:13022   */\n    tag_656:\n        /* \"#utility.yul\":12632:12633   */\n      0x02\n        /* \"#utility.yul\":12621:12630   */\n      dup3\n        /* \"#utility.yul\":12617:12634   */\n      div\n        /* \"#utility.yul\":12654:12725   */\n      tag_658\n        /* \"#utility.yul\":12718:12724   */\n      dup2\n        /* \"#utility.yul\":12713:12716   */\n      dup8\n        /* \"#utility.yul\":12654:12725   */\n      tag_649\n      jump\t// in\n    tag_658:\n        /* \"#utility.yul\":12647:12725   */\n      swap6\n      pop\n        /* \"#utility.yul\":12753:12791   */\n      tag_659\n        /* \"#utility.yul\":12785:12790   */\n      dup6\n        /* \"#utility.yul\":12753:12791   */\n      tag_660\n      jump\t// in\n    tag_659:\n        /* \"#utility.yul\":12813:12814   */\n      0x00\n        /* \"#utility.yul\":12827:12981   */\n    tag_661:\n        /* \"#utility.yul\":12841:12847   */\n      dup3\n        /* \"#utility.yul\":12838:12839   */\n      dup2\n        /* \"#utility.yul\":12835:12848   */\n      lt\n        /* \"#utility.yul\":12827:12981   */\n      iszero\n      tag_663\n      jumpi\n        /* \"#utility.yul\":12915:12922   */\n      dup2\n        /* \"#utility.yul\":12909:12923   */\n      sload\n        /* \"#utility.yul\":12905:12906   */\n      dup2\n        /* \"#utility.yul\":12900:12903   */\n      dup10\n        /* \"#utility.yul\":12896:12907   */\n      add\n        /* \"#utility.yul\":12889:12924   */\n      mstore\n        /* \"#utility.yul\":12965:12966   */\n      0x01\n        /* \"#utility.yul\":12956:12963   */\n      dup3\n        /* \"#utility.yul\":12952:12967   */\n      add\n        /* \"#utility.yul\":12941:12967   */\n      swap2\n      pop\n        /* \"#utility.yul\":12863:12867   */\n      0x20\n        /* \"#utility.yul\":12860:12861   */\n      dup2\n        /* \"#utility.yul\":12856:12868   */\n      add\n        /* \"#utility.yul\":12851:12868   */\n      swap1\n      pop\n        /* \"#utility.yul\":12827:12981   */\n      jump(tag_661)\n    tag_663:\n        /* \"#utility.yul\":13010:13011   */\n      dup1\n        /* \"#utility.yul\":13005:13008   */\n      dup9\n        /* \"#utility.yul\":13001:13012   */\n      add\n        /* \"#utility.yul\":12994:13012   */\n      swap6\n      pop\n        /* \"#utility.yul\":12558:13022   */\n      pop\n      pop\n      pop\n        /* \"#utility.yul\":12228:13022   */\n    tag_654:\n      pop\n        /* \"#utility.yul\":12180:13028   */\n      pop\n      swap3\n      swap2\n      pop\n      pop\n      jump\t// out\n        /* \"#utility.yul\":13034:13348   */\n    tag_664:\n      0x00\n        /* \"#utility.yul\":13197:13264   */\n      tag_666\n        /* \"#utility.yul\":13261:13263   */\n      0x10\n        /* \"#utility.yul\":13256:13259   */\n      dup4\n        /* \"#utility.yul\":13197:13264   */\n      tag_649\n      jump\t// in\n    tag_666:\n        /* \"#utility.yul\":13190:13264   */\n      swap2\n      pop\n        /* \"#utility.yul\":13294:13312   */\n      0x446f63746f72206e6f7420666f756e6400000000000000000000000000000000\n        /* \"#utility.yul\":13290:13291   */\n      0x00\n        /* \"#utility.yul\":13285:13288   */\n      dup4\n        /* \"#utility.yul\":13281:13292   */\n      add\n        /* \"#utility.yul\":13274:13313   */\n      mstore\n        /* \"#utility.yul\":13339:13341   */\n      0x20\n        /* \"#utility.yul\":13334:13337   */\n      dup3\n        /* \"#utility.yul\":13330:13342   */\n      add\n        /* \"#utility.yul\":13323:13342   */\n      swap1\n      pop\n        /* \"#utility.yul\":13180:13348   */\n      swap2\n      swap1\n      pop\n      jump\t// out\n        /* \"#utility.yul\":13354:13668   */\n    tag_667:\n      0x00\n        /* \"#utility.yul\":13517:13584   */\n      tag_669\n        /* \"#utility.yul\":13581:13583   */\n      0x10\n        /* \"#utility.yul\":13576:13579   */\n      dup4\n        /* \"#utility.yul\":13517:13584   */\n      tag_649\n      jump\t// in\n    tag_669:\n        /* \"#utility.yul\":13510:13584   */\n      swap2\n      pop\n        /* \"#utility.yul\":13614:13632   */\n      0x53656e736f72206e6f7420666f756e6400000000000000000000000000000000\n        /* \"#utility.yul\":13610:13611   */\n      0x00\n        /* \"#utility.yul\":13605:13608   */\n      dup4\n        /* \"#utility.yul\":13601:13612   */\n      add\n        /* \"#utility.yul\":13594:13633   */\n      mstore\n        /* \"#utility.yul\":13659:13661   */\n      0x20\n        /* \"#utility.yul\":13654:13657   */\n      dup3\n        /* \"#utility.yul\":13650:13662   */\n      add\n        /* \"#utility.yul\":13643:13662   */\n      swap1\n      pop\n        /* \"#utility.yul\":13500:13668   */\n      swap2\n      swap1\n      pop\n      jump\t// out\n        /* \"#utility.yul\":13674:13990   */\n    tag_670:\n      0x00\n        /* \"#utility.yul\":13837:13904   */\n      tag_672\n        /* \"#utility.yul\":13901:13903   */\n      0x12\n        /* \"#utility.yul\":13896:13899   */\n      dup4\n        /* \"#utility.yul\":13837:13904   */\n      tag_649\n      jump\t// in\n    tag_672:\n        /* \"#utility.yul\":13830:13904   */\n      swap2\n      pop\n        /* \"#utility.yul\":13934:13954   */\n      0x486f73706974616c206e6f7420666f756e640000000000000000000000000000\n        /* \"#utility.yul\":13930:13931   */\n      0x00\n        /* \"#utility.yul\":13925:13928   */\n      dup4\n        /* \"#utility.yul\":13921:13932   */\n      add\n        /* \"#utility.yul\":13914:13955   */\n      mstore\n        /* \"#utility.yul\":13981:13983   */\n      0x20\n        /* \"#utility.yul\":13976:13979   */\n      dup3\n        /* \"#utility.yul\":13972:13984   */\n      add\n        /* \"#utility.yul\":13965:13984   */\n      swap1\n      pop\n        /* \"#utility.yul\":13820:13990   */\n      swap2\n      swap1\n      pop\n      jump\t// out\n        /* \"#utility.yul\":14050:15002   */\n    tag_570:\n      0x00\n        /* \"#utility.yul\":14189:14193   */\n      0x80\n        /* \"#utility.yul\":14184:14187   */\n      dup4\n        /* \"#utility.yul\":14180:14194   */\n      add\n        /* \"#utility.yul\":14280:14284   */\n      0x00\n        /* \"#utility.yul\":14273:14278   */\n      dup4\n        /* \"#utility.yul\":14269:14285   */\n      add\n        /* \"#utility.yul\":14263:14286   */\n      mload\n        /* \"#utility.yul\":14299:14362   */\n      tag_674\n        /* \"#utility.yul\":14356:14360   */\n      0x00\n        /* \"#utility.yul\":14351:14354   */\n      dup7\n        /* \"#utility.yul\":14347:14361   */\n      add\n        /* \"#utility.yul\":14333:14345   */\n      dup3\n        /* \"#utility.yul\":14299:14362   */\n      tag_579\n      jump\t// in\n    tag_674:\n        /* \"#utility.yul\":14204:14372   */\n      pop\n        /* \"#utility.yul\":14460:14464   */\n      0x20\n        /* \"#utility.yul\":14453:14458   */\n      dup4\n        /* \"#utility.yul\":14449:14465   */\n      add\n        /* \"#utility.yul\":14443:14466   */\n      mload\n        /* \"#utility.yul\":14513:14516   */\n      dup5\n        /* \"#utility.yul\":14507:14511   */\n      dup3\n        /* \"#utility.yul\":14503:14517   */\n      sub\n        /* \"#utility.yul\":14496:14500   */\n      0x20\n        /* \"#utility.yul\":14491:14494   */\n      dup7\n        /* \"#utility.yul\":14487:14501   */\n      add\n        /* \"#utility.yul\":14480:14518   */\n      mstore\n        /* \"#utility.yul\":14539:14612   */\n      tag_675\n        /* \"#utility.yul\":14607:14611   */\n      dup3\n        /* \"#utility.yul\":14593:14605   */\n      dup3\n        /* \"#utility.yul\":14539:14612   */\n      tag_635\n      jump\t// in\n    tag_675:\n        /* \"#utility.yul\":14531:14612   */\n      swap2\n      pop\n        /* \"#utility.yul\":14382:14623   */\n      pop\n        /* \"#utility.yul\":14709:14713   */\n      0x40\n        /* \"#utility.yul\":14702:14707   */\n      dup4\n        /* \"#utility.yul\":14698:14714   */\n      add\n        /* \"#utility.yul\":14692:14715   */\n      mload\n        /* \"#utility.yul\":14728:14791   */\n      tag_676\n        /* \"#utility.yul\":14785:14789   */\n      0x40\n        /* \"#utility.yul\":14780:14783   */\n      dup7\n        /* \"#utility.yul\":14776:14790   */\n      add\n        /* \"#utility.yul\":14762:14774   */\n      dup3\n        /* \"#utility.yul\":14728:14791   */\n      tag_579\n      jump\t// in\n    tag_676:\n        /* \"#utility.yul\":14633:14801   */\n      pop\n        /* \"#utility.yul\":14889:14893   */\n      0x60\n        /* \"#utility.yul\":14882:14887   */\n      dup4\n        /* \"#utility.yul\":14878:14894   */\n      add\n        /* \"#utility.yul\":14872:14895   */\n      mload\n        /* \"#utility.yul\":14908:14965   */\n      tag_677\n        /* \"#utility.yul\":14959:14963   */\n      0x60\n        /* \"#utility.yul\":14954:14957   */\n      dup7\n        /* \"#utility.yul\":14950:14964   */\n      add\n        /* \"#utility.yul\":14936:14948   */\n      dup3\n        /* \"#utility.yul\":14908:14965   */\n      tag_628\n      jump\t// in\n    tag_677:\n        /* \"#utility.yul\":14811:14975   */\n      pop\n        /* \"#utility.yul\":14992:14996   */\n      dup1\n        /* \"#utility.yul\":14985:14996   */\n      swap2\n      pop\n        /* \"#utility.yul\":14158:15002   */\n      pop\n      swap3\n      swap2\n      pop\n      pop\n      jump\t// out\n        /* \"#utility.yul\":15066:16511   */\n    tag_574:\n      0x00\n        /* \"#utility.yul\":15209:15213   */\n      0xc0\n        /* \"#utility.yul\":15204:15207   */\n      dup4\n        /* \"#utility.yul\":15200:15214   */\n      add\n        /* \"#utility.yul\":15302:15306   */\n      0x00\n        /* \"#utility.yul\":15295:15300   */\n      dup4\n        /* \"#utility.yul\":15291:15307   */\n      add\n        /* \"#utility.yul\":15285:15308   */\n      mload\n        /* \"#utility.yul\":15321:15384   */\n      tag_679\n        /* \"#utility.yul\":15378:15382   */\n      0x00\n        /* \"#utility.yul\":15373:15376   */\n      dup7\n        /* \"#utility.yul\":15369:15383   */\n      add\n        /* \"#utility.yul\":15355:15367   */\n      dup3\n        /* \"#utility.yul\":15321:15384   */\n      tag_579\n      jump\t// in\n    tag_679:\n        /* \"#utility.yul\":15224:15394   */\n      pop\n        /* \"#utility.yul\":15476:15480   */\n      0x20\n        /* \"#utility.yul\":15469:15474   */\n      dup4\n        /* \"#utility.yul\":15465:15481   */\n      add\n        /* \"#utility.yul\":15459:15482   */\n      mload\n        /* \"#utility.yul\":15529:15532   */\n      dup5\n        /* \"#utility.yul\":15523:15527   */\n      dup3\n        /* \"#utility.yul\":15519:15533   */\n      sub\n        /* \"#utility.yul\":15512:15516   */\n      0x20\n        /* \"#utility.yul\":15507:15510   */\n      dup7\n        /* \"#utility.yul\":15503:15517   */\n      add\n        /* \"#utility.yul\":15496:15534   */\n      mstore\n        /* \"#utility.yul\":15555:15628   */\n      tag_680\n        /* \"#utility.yul\":15623:15627   */\n      dup3\n        /* \"#utility.yul\":15609:15621   */\n      dup3\n        /* \"#utility.yul\":15555:15628   */\n      tag_635\n      jump\t// in\n    tag_680:\n        /* \"#utility.yul\":15547:15628   */\n      swap2\n      pop\n        /* \"#utility.yul\":15404:15639   */\n      pop\n        /* \"#utility.yul\":15721:15725   */\n      0x40\n        /* \"#utility.yul\":15714:15719   */\n      dup4\n        /* \"#utility.yul\":15710:15726   */\n      add\n        /* \"#utility.yul\":15704:15727   */\n      mload\n        /* \"#utility.yul\":15774:15777   */\n      dup5\n        /* \"#utility.yul\":15768:15772   */\n      dup3\n        /* \"#utility.yul\":15764:15778   */\n      sub\n        /* \"#utility.yul\":15757:15761   */\n      0x40\n        /* \"#utility.yul\":15752:15755   */\n      dup7\n        /* \"#utility.yul\":15748:15762   */\n      add\n        /* \"#utility.yul\":15741:15779   */\n      mstore\n        /* \"#utility.yul\":15800:15873   */\n      tag_681\n        /* \"#utility.yul\":15868:15872   */\n      dup3\n        /* \"#utility.yul\":15854:15866   */\n      dup3\n        /* \"#utility.yul\":15800:15873   */\n      tag_635\n      jump\t// in\n    tag_681:\n        /* \"#utility.yul\":15792:15873   */\n      swap2\n      pop\n        /* \"#utility.yul\":15649:15884   */\n      pop\n        /* \"#utility.yul\":15967:15971   */\n      0x60\n        /* \"#utility.yul\":15960:15965   */\n      dup4\n        /* \"#utility.yul\":15956:15972   */\n      add\n        /* \"#utility.yul\":15950:15973   */\n      mload\n        /* \"#utility.yul\":16020:16023   */\n      dup5\n        /* \"#utility.yul\":16014:16018   */\n      dup3\n        /* \"#utility.yul\":16010:16024   */\n      sub\n        /* \"#utility.yul\":16003:16007   */\n      0x60\n        /* \"#utility.yul\":15998:16001   */\n      dup7\n        /* \"#utility.yul\":15994:16008   */\n      add\n        /* \"#utility.yul\":15987:16025   */\n      mstore\n        /* \"#utility.yul\":16046:16119   */\n      tag_682\n        /* \"#utility.yul\":16114:16118   */\n      dup3\n        /* \"#utility.yul\":16100:16112   */\n      dup3\n        /* \"#utility.yul\":16046:16119   */\n      tag_635\n      jump\t// in\n    tag_682:\n        /* \"#utility.yul\":16038:16119   */\n      swap2\n      pop\n        /* \"#utility.yul\":15894:16130   */\n      pop\n        /* \"#utility.yul\":16218:16222   */\n      0x80\n        /* \"#utility.yul\":16211:16216   */\n      dup4\n        /* \"#utility.yul\":16207:16223   */\n      add\n        /* \"#utility.yul\":16201:16224   */\n      mload\n        /* \"#utility.yul\":16237:16300   */\n      tag_683\n        /* \"#utility.yul\":16294:16298   */\n      0x80\n        /* \"#utility.yul\":16289:16292   */\n      dup7\n        /* \"#utility.yul\":16285:16299   */\n      add\n        /* \"#utility.yul\":16271:16283   */\n      dup3\n        /* \"#utility.yul\":16237:16300   */\n      tag_684\n      jump\t// in\n    tag_683:\n        /* \"#utility.yul\":16140:16310   */\n      pop\n        /* \"#utility.yul\":16398:16402   */\n      0xa0\n        /* \"#utility.yul\":16391:16396   */\n      dup4\n        /* \"#utility.yul\":16387:16403   */\n      add\n        /* \"#utility.yul\":16381:16404   */\n      mload\n        /* \"#utility.yul\":16417:16474   */\n      tag_685\n        /* \"#utility.yul\":16468:16472   */\n      0xa0\n        /* \"#utility.yul\":16463:16466   */\n      dup7\n        /* \"#utility.yul\":16459:16473   */\n      add\n        /* \"#utility.yul\":16445:16457   */\n      dup3\n        /* \"#utility.yul\":16417:16474   */\n      tag_628\n      jump\t// in\n    tag_685:\n        /* \"#utility.yul\":16320:16484   */\n      pop\n        /* \"#utility.yul\":16501:16505   */\n      dup1\n        /* \"#utility.yul\":16494:16505   */\n      swap2\n      pop\n        /* \"#utility.yul\":15178:16511   */\n      pop\n      swap3\n      swap2\n      pop\n      pop\n      jump\t// out\n        /* \"#utility.yul\":16571:17764   */\n    tag_578:\n      0x00\n        /* \"#utility.yul\":16710:16714   */\n      0xa0\n        /* \"#utility.yul\":16705:16708   */\n      dup4\n        /* \"#utility.yul\":16701:16715   */\n      add\n        /* \"#utility.yul\":16801:16805   */\n      0x00\n        /* \"#utility.yul\":16794:16799   */\n      dup4\n        /* \"#utility.yul\":16790:16806   */\n      add\n        /* \"#utility.yul\":16784:16807   */\n      mload\n        /* \"#utility.yul\":16820:16883   */\n      tag_687\n        /* \"#utility.yul\":16877:16881   */\n      0x00\n        /* \"#utility.yul\":16872:16875   */\n      dup7\n        /* \"#utility.yul\":16868:16882   */\n      add\n        /* \"#utility.yul\":16854:16866   */\n      dup3\n        /* \"#utility.yul\":16820:16883   */\n      tag_684\n      jump\t// in\n    tag_687:\n        /* \"#utility.yul\":16725:16893   */\n      pop\n        /* \"#utility.yul\":16974:16978   */\n      0x20\n        /* \"#utility.yul\":16967:16972   */\n      dup4\n        /* \"#utility.yul\":16963:16979   */\n      add\n        /* \"#utility.yul\":16957:16980   */\n      mload\n        /* \"#utility.yul\":17027:17030   */\n      dup5\n        /* \"#utility.yul\":17021:17025   */\n      dup3\n        /* \"#utility.yul\":17017:17031   */\n      sub\n        /* \"#utility.yul\":17010:17014   */\n      0x20\n        /* \"#utility.yul\":17005:17008   */\n      dup7\n        /* \"#utility.yul\":17001:17015   */\n      add\n        /* \"#utility.yul\":16994:17032   */\n      mstore\n        /* \"#utility.yul\":17053:17126   */\n      tag_688\n        /* \"#utility.yul\":17121:17125   */\n      dup3\n        /* \"#utility.yul\":17107:17119   */\n      dup3\n        /* \"#utility.yul\":17053:17126   */\n      tag_635\n      jump\t// in\n    tag_688:\n        /* \"#utility.yul\":17045:17126   */\n      swap2\n      pop\n        /* \"#utility.yul\":16903:17137   */\n      pop\n        /* \"#utility.yul\":17226:17230   */\n      0x40\n        /* \"#utility.yul\":17219:17224   */\n      dup4\n        /* \"#utility.yul\":17215:17231   */\n      add\n        /* \"#utility.yul\":17209:17232   */\n      mload\n        /* \"#utility.yul\":17279:17282   */\n      dup5\n        /* \"#utility.yul\":17273:17277   */\n      dup3\n        /* \"#utility.yul\":17269:17283   */\n      sub\n        /* \"#utility.yul\":17262:17266   */\n      0x40\n        /* \"#utility.yul\":17257:17260   */\n      dup7\n        /* \"#utility.yul\":17253:17267   */\n      add\n        /* \"#utility.yul\":17246:17284   */\n      mstore\n        /* \"#utility.yul\":17305:17378   */\n      tag_689\n        /* \"#utility.yul\":17373:17377   */\n      dup3\n        /* \"#utility.yul\":17359:17371   */\n      dup3\n        /* \"#utility.yul\":17305:17378   */\n      tag_635\n      jump\t// in\n    tag_689:\n        /* \"#utility.yul\":17297:17378   */\n      swap2\n      pop\n        /* \"#utility.yul\":17147:17389   */\n      pop\n        /* \"#utility.yul\":17475:17479   */\n      0x60\n        /* \"#utility.yul\":17468:17473   */\n      dup4\n        /* \"#utility.yul\":17464:17480   */\n      add\n        /* \"#utility.yul\":17458:17481   */\n      mload\n        /* \"#utility.yul\":17494:17557   */\n      tag_690\n        /* \"#utility.yul\":17551:17555   */\n      0x60\n        /* \"#utility.yul\":17546:17549   */\n      dup7\n        /* \"#utility.yul\":17542:17556   */\n      add\n        /* \"#utility.yul\":17528:17540   */\n      dup3\n        /* \"#utility.yul\":17494:17557   */\n      tag_579\n      jump\t// in\n    tag_690:\n        /* \"#utility.yul\":17399:17567   */\n      pop\n        /* \"#utility.yul\":17651:17655   */\n      0x80\n        /* \"#utility.yul\":17644:17649   */\n      dup4\n        /* \"#utility.yul\":17640:17656   */\n      add\n        /* \"#utility.yul\":17634:17657   */\n      mload\n        /* \"#utility.yul\":17670:17727   */\n      tag_691\n        /* \"#utility.yul\":17721:17725   */\n      0x80\n        /* \"#utility.yul\":17716:17719   */\n      dup7\n        /* \"#utility.yul\":17712:17726   */\n      add\n        /* \"#utility.yul\":17698:17710   */\n      dup3\n        /* \"#utility.yul\":17670:17727   */\n      tag_628\n      jump\t// in\n    tag_691:\n        /* \"#utility.yul\":17577:17737   */\n      pop\n        /* \"#utility.yul\":17754:17758   */\n      dup1\n        /* \"#utility.yul\":17747:17758   */\n      swap2\n      pop\n        /* \"#utility.yul\":16679:17764   */\n      pop\n      swap3\n      swap2\n      pop\n      pop\n      jump\t// out\n        /* \"#utility.yul\":17770:17878   */\n    tag_684:\n        /* \"#utility.yul\":17847:17871   */\n      tag_693\n        /* \"#utility.yul\":17865:17870   */\n      dup2\n        /* \"#utility.yul\":17847:17871   */\n      tag_694\n      jump\t// in\n    tag_693:\n        /* \"#utility.yul\":17842:17845   */\n      dup3\n        /* \"#utility.yul\":17835:17872   */\n      mstore\n        /* \"#utility.yul\":17825:17878   */\n      pop\n      pop\n      jump\t// out\n        /* \"#utility.yul\":17884:18002   */\n    tag_695:\n        /* \"#utility.yul\":17971:17995   */\n      tag_697\n        /* \"#utility.yul\":17989:17994   */\n      dup2\n        /* \"#utility.yul\":17971:17995   */\n      tag_694\n      jump\t// in\n    tag_697:\n        /* \"#utility.yul\":17966:17969   */\n      dup3\n        /* \"#utility.yul\":17959:17996   */\n      mstore\n        /* \"#utility.yul\":17949:18002   */\n      pop\n      pop\n      jump\t// out\n        /* \"#utility.yul\":18008:18640   */\n    tag_89:\n      0x00\n        /* \"#utility.yul\":18237:18240   */\n      0x80\n        /* \"#utility.yul\":18226:18235   */\n      dup3\n        /* \"#utility.yul\":18222:18241   */\n      add\n        /* \"#utility.yul\":18214:18241   */\n      swap1\n      pop\n        /* \"#utility.yul\":18251:18322   */\n      tag_699\n        /* \"#utility.yul\":18319:18320   */\n      0x00\n        /* \"#utility.yul\":18308:18317   */\n      dup4\n        /* \"#utility.yul\":18304:18321   */\n      add\n        /* \"#utility.yul\":18295:18301   */\n      dup8\n        /* \"#utility.yul\":18251:18322   */\n      tag_583\n      jump\t// in\n    tag_699:\n        /* \"#utility.yul\":18369:18378   */\n      dup2\n        /* \"#utility.yul\":18363:18367   */\n      dup2\n        /* \"#utility.yul\":18359:18379   */\n      sub\n        /* \"#utility.yul\":18354:18356   */\n      0x20\n        /* \"#utility.yul\":18343:18352   */\n      dup4\n        /* \"#utility.yul\":18339:18357   */\n      add\n        /* \"#utility.yul\":18332:18380   */\n      mstore\n        /* \"#utility.yul\":18397:18475   */\n      tag_700\n        /* \"#utility.yul\":18470:18474   */\n      dup2\n        /* \"#utility.yul\":18461:18467   */\n      dup7\n        /* \"#utility.yul\":18397:18475   */\n      tag_645\n      jump\t// in\n    tag_700:\n        /* \"#utility.yul\":18389:18475   */\n      swap1\n      pop\n        /* \"#utility.yul\":18485:18557   */\n      tag_701\n        /* \"#utility.yul\":18553:18555   */\n      0x40\n        /* \"#utility.yul\":18542:18551   */\n      dup4\n        /* \"#utility.yul\":18538:18556   */\n      add\n        /* \"#utility.yul\":18529:18535   */\n      dup6\n        /* \"#utility.yul\":18485:18557   */\n      tag_583\n      jump\t// in\n    tag_701:\n        /* \"#utility.yul\":18567:18633   */\n      tag_702\n        /* \"#utility.yul\":18629:18631   */\n      0x60\n        /* \"#utility.yul\":18618:18627   */\n      dup4\n        /* \"#utility.yul\":18614:18632   */\n      add\n        /* \"#utility.yul\":18605:18611   */\n      dup5\n        /* \"#utility.yul\":18567:18633   */\n      tag_632\n      jump\t// in\n    tag_702:\n        /* \"#utility.yul\":18204:18640   */\n      swap6\n      swap5\n      pop\n      pop\n      pop\n      pop\n      pop\n      jump\t// out\n        /* \"#utility.yul\":18646:19682   */\n    tag_113:\n      0x00\n        /* \"#utility.yul\":18971:18974   */\n      0xc0\n        /* \"#utility.yul\":18960:18969   */\n      dup3\n        /* \"#utility.yul\":18956:18975   */\n      add\n        /* \"#utility.yul\":18948:18975   */\n      swap1\n      pop\n        /* \"#utility.yul\":18985:19056   */\n      tag_704\n        /* \"#utility.yul\":19053:19054   */\n      0x00\n        /* \"#utility.yul\":19042:19051   */\n      dup4\n        /* \"#utility.yul\":19038:19055   */\n      add\n        /* \"#utility.yul\":19029:19035   */\n      dup10\n        /* \"#utility.yul\":18985:19056   */\n      tag_583\n      jump\t// in\n    tag_704:\n        /* \"#utility.yul\":19103:19112   */\n      dup2\n        /* \"#utility.yul\":19097:19101   */\n      dup2\n        /* \"#utility.yul\":19093:19113   */\n      sub\n        /* \"#utility.yul\":19088:19090   */\n      0x20\n        /* \"#utility.yul\":19077:19086   */\n      dup4\n        /* \"#utility.yul\":19073:19091   */\n      add\n        /* \"#utility.yul\":19066:19114   */\n      mstore\n        /* \"#utility.yul\":19131:19209   */\n      tag_705\n        /* \"#utility.yul\":19204:19208   */\n      dup2\n        /* \"#utility.yul\":19195:19201   */\n      dup9\n        /* \"#utility.yul\":19131:19209   */\n      tag_645\n      jump\t// in\n    tag_705:\n        /* \"#utility.yul\":19123:19209   */\n      swap1\n      pop\n        /* \"#utility.yul\":19256:19265   */\n      dup2\n        /* \"#utility.yul\":19250:19254   */\n      dup2\n        /* \"#utility.yul\":19246:19266   */\n      sub\n        /* \"#utility.yul\":19241:19243   */\n      0x40\n        /* \"#utility.yul\":19230:19239   */\n      dup4\n        /* \"#utility.yul\":19226:19244   */\n      add\n        /* \"#utility.yul\":19219:19267   */\n      mstore\n        /* \"#utility.yul\":19284:19362   */\n      tag_706\n        /* \"#utility.yul\":19357:19361   */\n      dup2\n        /* \"#utility.yul\":19348:19354   */\n      dup8\n        /* \"#utility.yul\":19284:19362   */\n      tag_645\n      jump\t// in\n    tag_706:\n        /* \"#utility.yul\":19276:19362   */\n      swap1\n      pop\n        /* \"#utility.yul\":19409:19418   */\n      dup2\n        /* \"#utility.yul\":19403:19407   */\n      dup2\n        /* \"#utility.yul\":19399:19419   */\n      sub\n        /* \"#utility.yul\":19394:19396   */\n      0x60\n        /* \"#utility.yul\":19383:19392   */\n      dup4\n        /* \"#utility.yul\":19379:19397   */\n      add\n        /* \"#utility.yul\":19372:19420   */\n      mstore\n        /* \"#utility.yul\":19437:19515   */\n      tag_707\n        /* \"#utility.yul\":19510:19514   */\n      dup2\n        /* \"#utility.yul\":19501:19507   */\n      dup7\n        /* \"#utility.yul\":19437:19515   */\n      tag_645\n      jump\t// in\n    tag_707:\n        /* \"#utility.yul\":19429:19515   */\n      swap1\n      pop\n        /* \"#utility.yul\":19525:19598   */\n      tag_708\n        /* \"#utility.yul\":19593:19596   */\n      0x80\n        /* \"#utility.yul\":19582:19591   */\n      dup4\n        /* \"#utility.yul\":19578:19597   */\n      add\n        /* \"#utility.yul\":19569:19575   */\n      dup6\n        /* \"#utility.yul\":19525:19598   */\n      tag_695\n      jump\t// in\n    tag_708:\n        /* \"#utility.yul\":19608:19675   */\n      tag_709\n        /* \"#utility.yul\":19670:19673   */\n      0xa0\n        /* \"#utility.yul\":19659:19668   */\n      dup4\n        /* \"#utility.yul\":19655:19674   */\n      add\n        /* \"#utility.yul\":19646:19652   */\n      dup5\n        /* \"#utility.yul\":19608:19675   */\n      tag_632\n      jump\t// in\n    tag_709:\n        /* \"#utility.yul\":18938:19682   */\n      swap8\n      swap7\n      pop\n      pop\n      pop\n      pop\n      pop\n      pop\n      pop\n      jump\t// out\n        /* \"#utility.yul\":19688:20215   */\n    tag_180:\n      0x00\n        /* \"#utility.yul\":19892:19894   */\n      0x60\n        /* \"#utility.yul\":19881:19890   */\n      dup3\n        /* \"#utility.yul\":19877:19895   */\n      add\n        /* \"#utility.yul\":19869:19895   */\n      swap1\n      pop\n        /* \"#utility.yul\":19905:19976   */\n      tag_711\n        /* \"#utility.yul\":19973:19974   */\n      0x00\n        /* \"#utility.yul\":19962:19971   */\n      dup4\n        /* \"#utility.yul\":19958:19975   */\n      add\n        /* \"#utility.yul\":19949:19955   */\n      dup7\n        /* \"#utility.yul\":19905:19976   */\n      tag_583\n      jump\t// in\n    tag_711:\n        /* \"#utility.yul\":20023:20032   */\n      dup2\n        /* \"#utility.yul\":20017:20021   */\n      dup2\n        /* \"#utility.yul\":20013:20033   */\n      sub\n        /* \"#utility.yul\":20008:20010   */\n      0x20\n        /* \"#utility.yul\":19997:20006   */\n      dup4\n        /* \"#utility.yul\":19993:20011   */\n      add\n        /* \"#utility.yul\":19986:20034   */\n      mstore\n        /* \"#utility.yul\":20051:20126   */\n      tag_712\n        /* \"#utility.yul\":20121:20125   */\n      dup2\n        /* \"#utility.yul\":20112:20118   */\n      dup6\n        /* \"#utility.yul\":20051:20126   */\n      tag_652\n      jump\t// in\n    tag_712:\n        /* \"#utility.yul\":20043:20126   */\n      swap1\n      pop\n        /* \"#utility.yul\":20136:20208   */\n      tag_713\n        /* \"#utility.yul\":20204:20206   */\n      0x40\n        /* \"#utility.yul\":20193:20202   */\n      dup4\n        /* \"#utility.yul\":20189:20207   */\n      add\n        /* \"#utility.yul\":20180:20186   */\n      dup5\n        /* \"#utility.yul\":20136:20208   */\n      tag_583\n      jump\t// in\n    tag_713:\n        /* \"#utility.yul\":19859:20215   */\n      swap5\n      swap4\n      pop\n      pop\n      pop\n      pop\n      jump\t// out\n        /* \"#utility.yul\":20221:20847   */\n    tag_379:\n      0x00\n        /* \"#utility.yul\":20447:20450   */\n      0x80\n        /* \"#utility.yul\":20436:20445   */\n      dup3\n        /* \"#utility.yul\":20432:20451   */\n      add\n        /* \"#utility.yul\":20424:20451   */\n      swap1\n      pop\n        /* \"#utility.yul\":20461:20532   */\n      tag_715\n        /* \"#utility.yul\":20529:20530   */\n      0x00\n        /* \"#utility.yul\":20518:20527   */\n      dup4\n        /* \"#utility.yul\":20514:20531   */\n      add\n        /* \"#utility.yul\":20505:20511   */\n      dup8\n        /* \"#utility.yul\":20461:20532   */\n      tag_583\n      jump\t// in\n    tag_715:\n        /* \"#utility.yul\":20579:20588   */\n      dup2\n        /* \"#utility.yul\":20573:20577   */\n      dup2\n        /* \"#utility.yul\":20569:20589   */\n      sub\n        /* \"#utility.yul\":20564:20566   */\n      0x20\n        /* \"#utility.yul\":20553:20562   */\n      dup4\n        /* \"#utility.yul\":20549:20567   */\n      add\n        /* \"#utility.yul\":20542:20590   */\n      mstore\n        /* \"#utility.yul\":20607:20682   */\n      tag_716\n        /* \"#utility.yul\":20677:20681   */\n      dup2\n        /* \"#utility.yul\":20668:20674   */\n      dup7\n        /* \"#utility.yul\":20607:20682   */\n      tag_652\n      jump\t// in\n    tag_716:\n        /* \"#utility.yul\":20599:20682   */\n      swap1\n      pop\n        /* \"#utility.yul\":20692:20764   */\n      tag_717\n        /* \"#utility.yul\":20760:20762   */\n      0x40\n        /* \"#utility.yul\":20749:20758   */\n      dup4\n        /* \"#utility.yul\":20745:20763   */\n      add\n        /* \"#utility.yul\":20736:20742   */\n      dup6\n        /* \"#utility.yul\":20692:20764   */\n      tag_583\n      jump\t// in\n    tag_717:\n        /* \"#utility.yul\":20774:20840   */\n      tag_718\n        /* \"#utility.yul\":20836:20838   */\n      0x60\n        /* \"#utility.yul\":20825:20834   */\n      dup4\n        /* \"#utility.yul\":20821:20839   */\n      add\n        /* \"#utility.yul\":20812:20818   */\n      dup5\n        /* \"#utility.yul\":20774:20840   */\n      tag_632\n      jump\t// in\n    tag_718:\n        /* \"#utility.yul\":20414:20847   */\n      swap6\n      swap5\n      pop\n      pop\n      pop\n      pop\n      pop\n      jump\t// out\n        /* \"#utility.yul\":20853:21871   */\n    tag_219:\n      0x00\n        /* \"#utility.yul\":21169:21172   */\n      0xc0\n        /* \"#utility.yul\":21158:21167   */\n      dup3\n        /* \"#utility.yul\":21154:21173   */\n      add\n        /* \"#utility.yul\":21146:21173   */\n      swap1\n      pop\n        /* \"#utility.yul\":21183:21254   */\n      tag_720\n        /* \"#utility.yul\":21251:21252   */\n      0x00\n        /* \"#utility.yul\":21240:21249   */\n      dup4\n        /* \"#utility.yul\":21236:21253   */\n      add\n        /* \"#utility.yul\":21227:21233   */\n      dup10\n        /* \"#utility.yul\":21183:21254   */\n      tag_583\n      jump\t// in\n    tag_720:\n        /* \"#utility.yul\":21301:21310   */\n      dup2\n        /* \"#utility.yul\":21295:21299   */\n      dup2\n        /* \"#utility.yul\":21291:21311   */\n      sub\n        /* \"#utility.yul\":21286:21288   */\n      0x20\n        /* \"#utility.yul\":21275:21284   */\n      dup4\n        /* \"#utility.yul\":21271:21289   */\n      add\n        /* \"#utility.yul\":21264:21312   */\n      mstore\n        /* \"#utility.yul\":21329:21404   */\n      tag_721\n        /* \"#utility.yul\":21399:21403   */\n      dup2\n        /* \"#utility.yul\":21390:21396   */\n      dup9\n        /* \"#utility.yul\":21329:21404   */\n      tag_652\n      jump\t// in\n    tag_721:\n        /* \"#utility.yul\":21321:21404   */\n      swap1\n      pop\n        /* \"#utility.yul\":21451:21460   */\n      dup2\n        /* \"#utility.yul\":21445:21449   */\n      dup2\n        /* \"#utility.yul\":21441:21461   */\n      sub\n        /* \"#utility.yul\":21436:21438   */\n      0x40\n        /* \"#utility.yul\":21425:21434   */\n      dup4\n        /* \"#utility.yul\":21421:21439   */\n      add\n        /* \"#utility.yul\":21414:21462   */\n      mstore\n        /* \"#utility.yul\":21479:21554   */\n      tag_722\n        /* \"#utility.yul\":21549:21553   */\n      dup2\n        /* \"#utility.yul\":21540:21546   */\n      dup8\n        /* \"#utility.yul\":21479:21554   */\n      tag_652\n      jump\t// in\n    tag_722:\n        /* \"#utility.yul\":21471:21554   */\n      swap1\n      pop\n        /* \"#utility.yul\":21601:21610   */\n      dup2\n        /* \"#utility.yul\":21595:21599   */\n      dup2\n        /* \"#utility.yul\":21591:21611   */\n      sub\n        /* \"#utility.yul\":21586:21588   */\n      0x60\n        /* \"#utility.yul\":21575:21584   */\n      dup4\n        /* \"#utility.yul\":21571:21589   */\n      add\n        /* \"#utility.yul\":21564:21612   */\n      mstore\n        /* \"#utility.yul\":21629:21704   */\n      tag_723\n        /* \"#utility.yul\":21699:21703   */\n      dup2\n        /* \"#utility.yul\":21690:21696   */\n      dup7\n        /* \"#utility.yul\":21629:21704   */\n      tag_652\n      jump\t// in\n    tag_723:\n        /* \"#utility.yul\":21621:21704   */\n      swap1\n      pop\n        /* \"#utility.yul\":21714:21787   */\n      tag_724\n        /* \"#utility.yul\":21782:21785   */\n      0x80\n        /* \"#utility.yul\":21771:21780   */\n      dup4\n        /* \"#utility.yul\":21767:21786   */\n      add\n        /* \"#utility.yul\":21758:21764   */\n      dup6\n        /* \"#utility.yul\":21714:21787   */\n      tag_695\n      jump\t// in\n    tag_724:\n        /* \"#utility.yul\":21797:21864   */\n      tag_725\n        /* \"#utility.yul\":21859:21862   */\n      0xa0\n        /* \"#utility.yul\":21848:21857   */\n      dup4\n        /* \"#utility.yul\":21844:21863   */\n      add\n        /* \"#utility.yul\":21835:21841   */\n      dup5\n        /* \"#utility.yul\":21797:21864   */\n      tag_632\n      jump\t// in\n    tag_725:\n        /* \"#utility.yul\":21136:21871   */\n      swap8\n      swap7\n      pop\n      pop\n      pop\n      pop\n      pop\n      pop\n      pop\n      jump\t// out\n        /* \"#utility.yul\":21877:22338   */\n    tag_121:\n      0x00\n        /* \"#utility.yul\":22102:22104   */\n      0x20\n        /* \"#utility.yul\":22091:22100   */\n      dup3\n        /* \"#utility.yul\":22087:22105   */\n      add\n        /* \"#utility.yul\":22079:22105   */\n      swap1\n      pop\n        /* \"#utility.yul\":22151:22160   */\n      dup2\n        /* \"#utility.yul\":22145:22149   */\n      dup2\n        /* \"#utility.yul\":22141:22161   */\n      sub\n        /* \"#utility.yul\":22137:22138   */\n      0x00\n        /* \"#utility.yul\":22126:22135   */\n      dup4\n        /* \"#utility.yul\":22122:22139   */\n      add\n        /* \"#utility.yul\":22115:22162   */\n      mstore\n        /* \"#utility.yul\":22179:22331   */\n      tag_727\n        /* \"#utility.yul\":22326:22330   */\n      dup2\n        /* \"#utility.yul\":22317:22323   */\n      dup5\n        /* \"#utility.yul\":22179:22331   */\n      tag_586\n      jump\t// in\n    tag_727:\n        /* \"#utility.yul\":22171:22331   */\n      swap1\n      pop\n        /* \"#utility.yul\":22069:22338   */\n      swap3\n      swap2\n      pop\n      pop\n      jump\t// out\n        /* \"#utility.yul\":22344:22813   */\n    tag_63:\n      0x00\n        /* \"#utility.yul\":22573:22575   */\n      0x20\n        /* \"#utility.yul\":22562:22571   */\n      dup3\n        /* \"#utility.yul\":22558:22576   */\n      add\n        /* \"#utility.yul\":22550:22576   */\n      swap1\n      pop\n        /* \"#utility.yul\":22622:22631   */\n      dup2\n        /* \"#utility.yul\":22616:22620   */\n      dup2\n        /* \"#utility.yul\":22612:22632   */\n      sub\n        /* \"#utility.yul\":22608:22609   */\n      0x00\n        /* \"#utility.yul\":22597:22606   */\n      dup4\n        /* \"#utility.yul\":22593:22610   */\n      add\n        /* \"#utility.yul\":22586:22633   */\n      mstore\n        /* \"#utility.yul\":22650:22806   */\n      tag_729\n        /* \"#utility.yul\":22801:22805   */\n      dup2\n        /* \"#utility.yul\":22792:22798   */\n      dup5\n        /* \"#utility.yul\":22650:22806   */\n      tag_600\n      jump\t// in\n    tag_729:\n        /* \"#utility.yul\":22642:22806   */\n      swap1\n      pop\n        /* \"#utility.yul\":22540:22813   */\n      swap3\n      swap2\n      pop\n      pop\n      jump\t// out\n        /* \"#utility.yul\":22819:23280   */\n    tag_67:\n      0x00\n        /* \"#utility.yul\":23044:23046   */\n      0x20\n        /* \"#utility.yul\":23033:23042   */\n      dup3\n        /* \"#utility.yul\":23029:23047   */\n      add\n        /* \"#utility.yul\":23021:23047   */\n      swap1\n      pop\n        /* \"#utility.yul\":23093:23102   */\n      dup2\n        /* \"#utility.yul\":23087:23091   */\n      dup2\n        /* \"#utility.yul\":23083:23103   */\n      sub\n        /* \"#utility.yul\":23079:23080   */\n      0x00\n        /* \"#utility.yul\":23068:23077   */\n      dup4\n        /* \"#utility.yul\":23064:23081   */\n      add\n        /* \"#utility.yul\":23057:23104   */\n      mstore\n        /* \"#utility.yul\":23121:23273   */\n      tag_731\n        /* \"#utility.yul\":23268:23272   */\n      dup2\n        /* \"#utility.yul\":23259:23265   */\n      dup5\n        /* \"#utility.yul\":23121:23273   */\n      tag_614\n      jump\t// in\n    tag_731:\n        /* \"#utility.yul\":23113:23273   */\n      swap1\n      pop\n        /* \"#utility.yul\":23011:23280   */\n      swap3\n      swap2\n      pop\n      pop\n      jump\t// out\n        /* \"#utility.yul\":23286:23807   */\n    tag_75:\n      0x00\n        /* \"#utility.yul\":23487:23489   */\n      0x60\n        /* \"#utility.yul\":23476:23485   */\n      dup3\n        /* \"#utility.yul\":23472:23490   */\n      add\n        /* \"#utility.yul\":23464:23490   */\n      swap1\n      pop\n        /* \"#utility.yul\":23536:23545   */\n      dup2\n        /* \"#utility.yul\":23530:23534   */\n      dup2\n        /* \"#utility.yul\":23526:23546   */\n      sub\n        /* \"#utility.yul\":23522:23523   */\n      0x00\n        /* \"#utility.yul\":23511:23520   */\n      dup4\n        /* \"#utility.yul\":23507:23524   */\n      add\n        /* \"#utility.yul\":23500:23547   */\n      mstore\n        /* \"#utility.yul\":23564:23642   */\n      tag_733\n        /* \"#utility.yul\":23637:23641   */\n      dup2\n        /* \"#utility.yul\":23628:23634   */\n      dup7\n        /* \"#utility.yul\":23564:23642   */\n      tag_645\n      jump\t// in\n    tag_733:\n        /* \"#utility.yul\":23556:23642   */\n      swap1\n      pop\n        /* \"#utility.yul\":23652:23724   */\n      tag_734\n        /* \"#utility.yul\":23720:23722   */\n      0x20\n        /* \"#utility.yul\":23709:23718   */\n      dup4\n        /* \"#utility.yul\":23705:23723   */\n      add\n        /* \"#utility.yul\":23696:23702   */\n      dup6\n        /* \"#utility.yul\":23652:23724   */\n      tag_583\n      jump\t// in\n    tag_734:\n        /* \"#utility.yul\":23734:23800   */\n      tag_735\n        /* \"#utility.yul\":23796:23798   */\n      0x40\n        /* \"#utility.yul\":23785:23794   */\n      dup4\n        /* \"#utility.yul\":23781:23799   */\n      add\n        /* \"#utility.yul\":23772:23778   */\n      dup5\n        /* \"#utility.yul\":23734:23800   */\n      tag_632\n      jump\t// in\n    tag_735:\n        /* \"#utility.yul\":23454:23807   */\n      swap5\n      swap4\n      pop\n      pop\n      pop\n      pop\n      jump\t// out\n        /* \"#utility.yul\":23813:24536   */\n    tag_39:\n      0x00\n        /* \"#utility.yul\":24062:24065   */\n      0x80\n        /* \"#utility.yul\":24051:24060   */\n      dup3\n        /* \"#utility.yul\":24047:24066   */\n      add\n        /* \"#utility.yul\":24039:24066   */\n      swap1\n      pop\n        /* \"#utility.yul\":24112:24121   */\n      dup2\n        /* \"#utility.yul\":24106:24110   */\n      dup2\n        /* \"#utility.yul\":24102:24122   */\n      sub\n        /* \"#utility.yul\":24098:24099   */\n      0x00\n        /* \"#utility.yul\":24087:24096   */\n      dup4\n        /* \"#utility.yul\":24083:24100   */\n      add\n        /* \"#utility.yul\":24076:24123   */\n      mstore\n        /* \"#utility.yul\":24140:24218   */\n      tag_737\n        /* \"#utility.yul\":24213:24217   */\n      dup2\n        /* \"#utility.yul\":24204:24210   */\n      dup8\n        /* \"#utility.yul\":24140:24218   */\n      tag_645\n      jump\t// in\n    tag_737:\n        /* \"#utility.yul\":24132:24218   */\n      swap1\n      pop\n        /* \"#utility.yul\":24265:24274   */\n      dup2\n        /* \"#utility.yul\":24259:24263   */\n      dup2\n        /* \"#utility.yul\":24255:24275   */\n      sub\n        /* \"#utility.yul\":24250:24252   */\n      0x20\n        /* \"#utility.yul\":24239:24248   */\n      dup4\n        /* \"#utility.yul\":24235:24253   */\n      add\n        /* \"#utility.yul\":24228:24276   */\n      mstore\n        /* \"#utility.yul\":24293:24371   */\n      tag_738\n        /* \"#utility.yul\":24366:24370   */\n      dup2\n        /* \"#utility.yul\":24357:24363   */\n      dup7\n        /* \"#utility.yul\":24293:24371   */\n      tag_645\n      jump\t// in\n    tag_738:\n        /* \"#utility.yul\":24285:24371   */\n      swap1\n      pop\n        /* \"#utility.yul\":24381:24453   */\n      tag_739\n        /* \"#utility.yul\":24449:24451   */\n      0x40\n        /* \"#utility.yul\":24438:24447   */\n      dup4\n        /* \"#utility.yul\":24434:24452   */\n      add\n        /* \"#utility.yul\":24425:24431   */\n      dup6\n        /* \"#utility.yul\":24381:24453   */\n      tag_583\n      jump\t// in\n    tag_739:\n        /* \"#utility.yul\":24463:24529   */\n      tag_740\n        /* \"#utility.yul\":24525:24527   */\n      0x60\n        /* \"#utility.yul\":24514:24523   */\n      dup4\n        /* \"#utility.yul\":24510:24528   */\n      add\n        /* \"#utility.yul\":24501:24507   */\n      dup5\n        /* \"#utility.yul\":24463:24529   */\n      tag_632\n      jump\t// in\n    tag_740:\n        /* \"#utility.yul\":24029:24536   */\n      swap6\n      swap5\n      pop\n      pop\n      pop\n      pop\n      pop\n      jump\t// out\n        /* \"#utility.yul\":24542:25467   */\n    tag_98:\n      0x00\n        /* \"#utility.yul\":24839:24842   */\n      0xa0\n        /* \"#utility.yul\":24828:24837   */\n      dup3\n        /* \"#utility.yul\":24824:24843   */\n      add\n        /* \"#utility.yul\":24816:24843   */\n      swap1\n      pop\n        /* \"#utility.yul\":24889:24898   */\n      dup2\n        /* \"#utility.yul\":24883:24887   */\n      dup2\n        /* \"#utility.yul\":24879:24899   */\n      sub\n        /* \"#utility.yul\":24875:24876   */\n      0x00\n        /* \"#utility.yul\":24864:24873   */\n      dup4\n        /* \"#utility.yul\":24860:24877   */\n      add\n        /* \"#utility.yul\":24853:24900   */\n      mstore\n        /* \"#utility.yul\":24917:24995   */\n      tag_742\n        /* \"#utility.yul\":24990:24994   */\n      dup2\n        /* \"#utility.yul\":24981:24987   */\n      dup9\n        /* \"#utility.yul\":24917:24995   */\n      tag_645\n      jump\t// in\n    tag_742:\n        /* \"#utility.yul\":24909:24995   */\n      swap1\n      pop\n        /* \"#utility.yul\":25042:25051   */\n      dup2\n        /* \"#utility.yul\":25036:25040   */\n      dup2\n        /* \"#utility.yul\":25032:25052   */\n      sub\n        /* \"#utility.yul\":25027:25029   */\n      0x20\n        /* \"#utility.yul\":25016:25025   */\n      dup4\n        /* \"#utility.yul\":25012:25030   */\n      add\n        /* \"#utility.yul\":25005:25053   */\n      mstore\n        /* \"#utility.yul\":25070:25148   */\n      tag_743\n        /* \"#utility.yul\":25143:25147   */\n      dup2\n        /* \"#utility.yul\":25134:25140   */\n      dup8\n        /* \"#utility.yul\":25070:25148   */\n      tag_645\n      jump\t// in\n    tag_743:\n        /* \"#utility.yul\":25062:25148   */\n      swap1\n      pop\n        /* \"#utility.yul\":25195:25204   */\n      dup2\n        /* \"#utility.yul\":25189:25193   */\n      dup2\n        /* \"#utility.yul\":25185:25205   */\n      sub\n        /* \"#utility.yul\":25180:25182   */\n      0x40\n        /* \"#utility.yul\":25169:25178   */\n      dup4\n        /* \"#utility.yul\":25165:25183   */\n      add\n        /* \"#utility.yul\":25158:25206   */\n      mstore\n        /* \"#utility.yul\":25223:25301   */\n      tag_744\n        /* \"#utility.yul\":25296:25300   */\n      dup2\n        /* \"#utility.yul\":25287:25293   */\n      dup7\n        /* \"#utility.yul\":25223:25301   */\n      tag_645\n      jump\t// in\n    tag_744:\n        /* \"#utility.yul\":25215:25301   */\n      swap1\n      pop\n        /* \"#utility.yul\":25311:25383   */\n      tag_745\n        /* \"#utility.yul\":25379:25381   */\n      0x60\n        /* \"#utility.yul\":25368:25377   */\n      dup4\n        /* \"#utility.yul\":25364:25382   */\n      add\n        /* \"#utility.yul\":25355:25361   */\n      dup6\n        /* \"#utility.yul\":25311:25383   */\n      tag_695\n      jump\t// in\n    tag_745:\n        /* \"#utility.yul\":25393:25460   */\n      tag_746\n        /* \"#utility.yul\":25455:25458   */\n      0x80\n        /* \"#utility.yul\":25444:25453   */\n      dup4\n        /* \"#utility.yul\":25440:25459   */\n      add\n        /* \"#utility.yul\":25431:25437   */\n      dup5\n        /* \"#utility.yul\":25393:25460   */\n      tag_632\n      jump\t// in\n    tag_746:\n        /* \"#utility.yul\":24806:25467   */\n      swap7\n      swap6\n      pop\n      pop\n      pop\n      pop\n      pop\n      pop\n      jump\t// out\n        /* \"#utility.yul\":25473:25892   */\n    tag_473:\n      0x00\n        /* \"#utility.yul\":25677:25679   */\n      0x20\n        /* \"#utility.yul\":25666:25675   */\n      dup3\n        /* \"#utility.yul\":25662:25680   */\n      add\n        /* \"#utility.yul\":25654:25680   */\n      swap1\n      pop\n        /* \"#utility.yul\":25726:25735   */\n      dup2\n        /* \"#utility.yul\":25720:25724   */\n      dup2\n        /* \"#utility.yul\":25716:25736   */\n      sub\n        /* \"#utility.yul\":25712:25713   */\n      0x00\n        /* \"#utility.yul\":25701:25710   */\n      dup4\n        /* \"#utility.yul\":25697:25714   */\n      add\n        /* \"#utility.yul\":25690:25737   */\n      mstore\n        /* \"#utility.yul\":25754:25885   */\n      tag_748\n        /* \"#utility.yul\":25880:25884   */\n      dup2\n        /* \"#utility.yul\":25754:25885   */\n      tag_664\n      jump\t// in\n    tag_748:\n        /* \"#utility.yul\":25746:25885   */\n      swap1\n      pop\n        /* \"#utility.yul\":25644:25892   */\n      swap2\n      swap1\n      pop\n      jump\t// out\n        /* \"#utility.yul\":25898:26317   */\n    tag_464:\n      0x00\n        /* \"#utility.yul\":26102:26104   */\n      0x20\n        /* \"#utility.yul\":26091:26100   */\n      dup3\n        /* \"#utility.yul\":26087:26105   */\n      add\n        /* \"#utility.yul\":26079:26105   */\n      swap1\n      pop\n        /* \"#utility.yul\":26151:26160   */\n      dup2\n        /* \"#utility.yul\":26145:26149   */\n      dup2\n        /* \"#utility.yul\":26141:26161   */\n      sub\n        /* \"#utility.yul\":26137:26138   */\n      0x00\n        /* \"#utility.yul\":26126:26135   */\n      dup4\n        /* \"#utility.yul\":26122:26139   */\n      add\n        /* \"#utility.yul\":26115:26162   */\n      mstore\n        /* \"#utility.yul\":26179:26310   */\n      tag_750\n        /* \"#utility.yul\":26305:26309   */\n      dup2\n        /* \"#utility.yul\":26179:26310   */\n      tag_667\n      jump\t// in\n    tag_750:\n        /* \"#utility.yul\":26171:26310   */\n      swap1\n      pop\n        /* \"#utility.yul\":26069:26317   */\n      swap2\n      swap1\n      pop\n      jump\t// out\n        /* \"#utility.yul\":26323:26742   */\n    tag_482:\n      0x00\n        /* \"#utility.yul\":26527:26529   */\n      0x20\n        /* \"#utility.yul\":26516:26525   */\n      dup3\n        /* \"#utility.yul\":26512:26530   */\n      add\n        /* \"#utility.yul\":26504:26530   */\n      swap1\n      pop\n        /* \"#utility.yul\":26576:26585   */\n      dup2\n        /* \"#utility.yul\":26570:26574   */\n      dup2\n        /* \"#utility.yul\":26566:26586   */\n      sub\n        /* \"#utility.yul\":26562:26563   */\n      0x00\n        /* \"#utility.yul\":26551:26560   */\n      dup4\n        /* \"#utility.yul\":26547:26564   */\n      add\n        /* \"#utility.yul\":26540:26587   */\n      mstore\n        /* \"#utility.yul\":26604:26735   */\n      tag_752\n        /* \"#utility.yul\":26730:26734   */\n      dup2\n        /* \"#utility.yul\":26604:26735   */\n      tag_670\n      jump\t// in\n    tag_752:\n        /* \"#utility.yul\":26596:26735   */\n      swap1\n      pop\n        /* \"#utility.yul\":26494:26742   */\n      swap2\n      swap1\n      pop\n      jump\t// out\n        /* \"#utility.yul\":26748:26970   */\n    tag_47:\n      0x00\n        /* \"#utility.yul\":26879:26881   */\n      0x20\n        /* \"#utility.yul\":26868:26877   */\n      dup3\n        /* \"#utility.yul\":26864:26882   */\n      add\n        /* \"#utility.yul\":26856:26882   */\n      swap1\n      pop\n        /* \"#utility.yul\":26892:26963   */\n      tag_754\n        /* \"#utility.yul\":26960:26961   */\n      0x00\n        /* \"#utility.yul\":26949:26958   */\n      dup4\n        /* \"#utility.yul\":26945:26962   */\n      add\n        /* \"#utility.yul\":26936:26942   */\n      dup5\n        /* \"#utility.yul\":26892:26963   */\n      tag_695\n      jump\t// in\n    tag_754:\n        /* \"#utility.yul\":26846:26970   */\n      swap3\n      swap2\n      pop\n      pop\n      jump\t// out\n        /* \"#utility.yul\":26976:27810   */\n    tag_84:\n      0x00\n        /* \"#utility.yul\":27253:27256   */\n      0xa0\n        /* \"#utility.yul\":27242:27251   */\n      dup3\n        /* \"#utility.yul\":27238:27257   */\n      add\n        /* \"#utility.yul\":27230:27257   */\n      swap1\n      pop\n        /* \"#utility.yul\":27267:27338   */\n      tag_756\n        /* \"#utility.yul\":27335:27336   */\n      0x00\n        /* \"#utility.yul\":27324:27333   */\n      dup4\n        /* \"#utility.yul\":27320:27337   */\n      add\n        /* \"#utility.yul\":27311:27317   */\n      dup9\n        /* \"#utility.yul\":27267:27338   */\n      tag_695\n      jump\t// in\n    tag_756:\n        /* \"#utility.yul\":27385:27394   */\n      dup2\n        /* \"#utility.yul\":27379:27383   */\n      dup2\n        /* \"#utility.yul\":27375:27395   */\n      sub\n        /* \"#utility.yul\":27370:27372   */\n      0x20\n        /* \"#utility.yul\":27359:27368   */\n      dup4\n        /* \"#utility.yul\":27355:27373   */\n      add\n        /* \"#utility.yul\":27348:27396   */\n      mstore\n        /* \"#utility.yul\":27413:27491   */\n      tag_757\n        /* \"#utility.yul\":27486:27490   */\n      dup2\n        /* \"#utility.yul\":27477:27483   */\n      dup8\n        /* \"#utility.yul\":27413:27491   */\n      tag_645\n      jump\t// in\n    tag_757:\n        /* \"#utility.yul\":27405:27491   */\n      swap1\n      pop\n        /* \"#utility.yul\":27538:27547   */\n      dup2\n        /* \"#utility.yul\":27532:27536   */\n      dup2\n        /* \"#utility.yul\":27528:27548   */\n      sub\n        /* \"#utility.yul\":27523:27525   */\n      0x40\n        /* \"#utility.yul\":27512:27521   */\n      dup4\n        /* \"#utility.yul\":27508:27526   */\n      add\n        /* \"#utility.yul\":27501:27549   */\n      mstore\n        /* \"#utility.yul\":27566:27644   */\n      tag_758\n        /* \"#utility.yul\":27639:27643   */\n      dup2\n        /* \"#utility.yul\":27630:27636   */\n      dup7\n        /* \"#utility.yul\":27566:27644   */\n      tag_645\n      jump\t// in\n    tag_758:\n        /* \"#utility.yul\":27558:27644   */\n      swap1\n      pop\n        /* \"#utility.yul\":27654:27726   */\n      tag_759\n        /* \"#utility.yul\":27722:27724   */\n      0x60\n        /* \"#utility.yul\":27711:27720   */\n      dup4\n        /* \"#utility.yul\":27707:27725   */\n      add\n        /* \"#utility.yul\":27698:27704   */\n      dup6\n        /* \"#utility.yul\":27654:27726   */\n      tag_583\n      jump\t// in\n    tag_759:\n        /* \"#utility.yul\":27736:27803   */\n      tag_760\n        /* \"#utility.yul\":27798:27801   */\n      0x80\n        /* \"#utility.yul\":27787:27796   */\n      dup4\n        /* \"#utility.yul\":27783:27802   */\n      add\n        /* \"#utility.yul\":27774:27780   */\n      dup5\n        /* \"#utility.yul\":27736:27803   */\n      tag_632\n      jump\t// in\n    tag_760:\n        /* \"#utility.yul\":27220:27810   */\n      swap7\n      swap6\n      pop\n      pop\n      pop\n      pop\n      pop\n      pop\n      jump\t// out\n        /* \"#utility.yul\":27816:28539   */\n    tag_200:\n      0x00\n        /* \"#utility.yul\":28065:28068   */\n      0x80\n        /* \"#utility.yul\":28054:28063   */\n      dup3\n        /* \"#utility.yul\":28050:28069   */\n      add\n        /* \"#utility.yul\":28042:28069   */\n      swap1\n      pop\n        /* \"#utility.yul\":28079:28150   */\n      tag_762\n        /* \"#utility.yul\":28147:28148   */\n      0x00\n        /* \"#utility.yul\":28136:28145   */\n      dup4\n        /* \"#utility.yul\":28132:28149   */\n      add\n        /* \"#utility.yul\":28123:28129   */\n      dup8\n        /* \"#utility.yul\":28079:28150   */\n      tag_695\n      jump\t// in\n    tag_762:\n        /* \"#utility.yul\":28197:28206   */\n      dup2\n        /* \"#utility.yul\":28191:28195   */\n      dup2\n        /* \"#utility.yul\":28187:28207   */\n      sub\n        /* \"#utility.yul\":28182:28184   */\n      0x20\n        /* \"#utility.yul\":28171:28180   */\n      dup4\n        /* \"#utility.yul\":28167:28185   */\n      add\n        /* \"#utility.yul\":28160:28208   */\n      mstore\n        /* \"#utility.yul\":28225:28300   */\n      tag_763\n        /* \"#utility.yul\":28295:28299   */\n      dup2\n        /* \"#utility.yul\":28286:28292   */\n      dup7\n        /* \"#utility.yul\":28225:28300   */\n      tag_652\n      jump\t// in\n    tag_763:\n        /* \"#utility.yul\":28217:28300   */\n      swap1\n      pop\n        /* \"#utility.yul\":28347:28356   */\n      dup2\n        /* \"#utility.yul\":28341:28345   */\n      dup2\n        /* \"#utility.yul\":28337:28357   */\n      sub\n        /* \"#utility.yul\":28332:28334   */\n      0x40\n        /* \"#utility.yul\":28321:28330   */\n      dup4\n        /* \"#utility.yul\":28317:28335   */\n      add\n        /* \"#utility.yul\":28310:28358   */\n      mstore\n        /* \"#utility.yul\":28375:28450   */\n      tag_764\n        /* \"#utility.yul\":28445:28449   */\n      dup2\n        /* \"#utility.yul\":28436:28442   */\n      dup6\n        /* \"#utility.yul\":28375:28450   */\n      tag_652\n      jump\t// in\n    tag_764:\n        /* \"#utility.yul\":28367:28450   */\n      swap1\n      pop\n        /* \"#utility.yul\":28460:28532   */\n      tag_765\n        /* \"#utility.yul\":28528:28530   */\n      0x60\n        /* \"#utility.yul\":28517:28526   */\n      dup4\n        /* \"#utility.yul\":28513:28531   */\n      add\n        /* \"#utility.yul\":28504:28510   */\n      dup5\n        /* \"#utility.yul\":28460:28532   */\n      tag_583\n      jump\t// in\n    tag_765:\n        /* \"#utility.yul\":28032:28539   */\n      swap6\n      swap5\n      pop\n      pop\n      pop\n      pop\n      pop\n      jump\t// out\n        /* \"#utility.yul\":28545:29367   */\n    tag_274:\n      0x00\n        /* \"#utility.yul\":28816:28819   */\n      0xa0\n        /* \"#utility.yul\":28805:28814   */\n      dup3\n        /* \"#utility.yul\":28801:28820   */\n      add\n        /* \"#utility.yul\":28793:28820   */\n      swap1\n      pop\n        /* \"#utility.yul\":28830:28901   */\n      tag_767\n        /* \"#utility.yul\":28898:28899   */\n      0x00\n        /* \"#utility.yul\":28887:28896   */\n      dup4\n        /* \"#utility.yul\":28883:28900   */\n      add\n        /* \"#utility.yul\":28874:28880   */\n      dup9\n        /* \"#utility.yul\":28830:28901   */\n      tag_695\n      jump\t// in\n    tag_767:\n        /* \"#utility.yul\":28948:28957   */\n      dup2\n        /* \"#utility.yul\":28942:28946   */\n      dup2\n        /* \"#utility.yul\":28938:28958   */\n      sub\n        /* \"#utility.yul\":28933:28935   */\n      0x20\n        /* \"#utility.yul\":28922:28931   */\n      dup4\n        /* \"#utility.yul\":28918:28936   */\n      add\n        /* \"#utility.yul\":28911:28959   */\n      mstore\n        /* \"#utility.yul\":28976:29051   */\n      tag_768\n        /* \"#utility.yul\":29046:29050   */\n      dup2\n        /* \"#utility.yul\":29037:29043   */\n      dup8\n        /* \"#utility.yul\":28976:29051   */\n      tag_652\n      jump\t// in\n    tag_768:\n        /* \"#utility.yul\":28968:29051   */\n      swap1\n      pop\n        /* \"#utility.yul\":29098:29107   */\n      dup2\n        /* \"#utility.yul\":29092:29096   */\n      dup2\n        /* \"#utility.yul\":29088:29108   */\n      sub\n        /* \"#utility.yul\":29083:29085   */\n      0x40\n        /* \"#utility.yul\":29072:29081   */\n      dup4\n        /* \"#utility.yul\":29068:29086   */\n      add\n        /* \"#utility.yul\":29061:29109   */\n      mstore\n        /* \"#utility.yul\":29126:29201   */\n      tag_769\n        /* \"#utility.yul\":29196:29200   */\n      dup2\n        /* \"#utility.yul\":29187:29193   */\n      dup7\n        /* \"#utility.yul\":29126:29201   */\n      tag_652\n      jump\t// in\n    tag_769:\n        /* \"#utility.yul\":29118:29201   */\n      swap1\n      pop\n        /* \"#utility.yul\":29211:29283   */\n      tag_770\n        /* \"#utility.yul\":29279:29281   */\n      0x60\n        /* \"#utility.yul\":29268:29277   */\n      dup4\n        /* \"#utility.yul\":29264:29282   */\n      add\n        /* \"#utility.yul\":29255:29261   */\n      dup6\n        /* \"#utility.yul\":29211:29283   */\n      tag_583\n      jump\t// in\n    tag_770:\n        /* \"#utility.yul\":29293:29360   */\n      tag_771\n        /* \"#utility.yul\":29355:29358   */\n      0x80\n        /* \"#utility.yul\":29344:29353   */\n      dup4\n        /* \"#utility.yul\":29340:29359   */\n      add\n        /* \"#utility.yul\":29331:29337   */\n      dup5\n        /* \"#utility.yul\":29293:29360   */\n      tag_632\n      jump\t// in\n    tag_771:\n        /* \"#utility.yul\":28783:29367   */\n      swap7\n      swap6\n      pop\n      pop\n      pop\n      pop\n      pop\n      pop\n      jump\t// out\n        /* \"#utility.yul\":29373:29651   */\n    tag_498:\n      0x00\n        /* \"#utility.yul\":29439:29441   */\n      0x40\n        /* \"#utility.yul\":29433:29442   */\n      mload\n        /* \"#utility.yul\":29423:29442   */\n      swap1\n      pop\n        /* \"#utility.yul\":29481:29485   */\n      dup2\n        /* \"#utility.yul\":29473:29479   */\n      dup2\n        /* \"#utility.yul\":29469:29486   */\n      add\n        /* \"#utility.yul\":29588:29594   */\n      dup2\n        /* \"#utility.yul\":29576:29586   */\n      dup2\n        /* \"#utility.yul\":29573:29595   */\n      lt\n        /* \"#utility.yul\":29552:29570   */\n      0xffffffffffffffff\n        /* \"#utility.yul\":29540:29550   */\n      dup3\n        /* \"#utility.yul\":29537:29571   */\n      gt\n        /* \"#utility.yul\":29534:29596   */\n      or\n        /* \"#utility.yul\":29531:29533   */\n      iszero\n      tag_773\n      jumpi\n        /* \"#utility.yul\":29599:29612   */\n      tag_774\n      tag_775\n      jump\t// in\n    tag_774:\n        /* \"#utility.yul\":29531:29533   */\n    tag_773:\n        /* \"#utility.yul\":29634:29644   */\n      dup1\n        /* \"#utility.yul\":29630:29632   */\n      0x40\n        /* \"#utility.yul\":29623:29645   */\n      mstore\n        /* \"#utility.yul\":29413:29651   */\n      pop\n      swap2\n      swap1\n      pop\n      jump\t// out\n        /* \"#utility.yul\":29657:29984   */\n    tag_497:\n      0x00\n        /* \"#utility.yul\":29809:29827   */\n      0xffffffffffffffff\n        /* \"#utility.yul\":29801:29807   */\n      dup3\n        /* \"#utility.yul\":29798:29828   */\n      gt\n        /* \"#utility.yul\":29795:29797   */\n      iszero\n      tag_777\n      jumpi\n        /* \"#utility.yul\":29831:29844   */\n      tag_778\n      tag_775\n      jump\t// in\n    tag_778:\n        /* \"#utility.yul\":29795:29797   */\n    tag_777:\n        /* \"#utility.yul\":29911:29915   */\n      0x1f\n        /* \"#utility.yul\":29907:29916   */\n      not\n        /* \"#utility.yul\":29900:29904   */\n      0x1f\n        /* \"#utility.yul\":29892:29898   */\n      dup4\n        /* \"#utility.yul\":29888:29905   */\n      add\n        /* \"#utility.yul\":29884:29917   */\n      and\n        /* \"#utility.yul\":29876:29917   */\n      swap1\n      pop\n        /* \"#utility.yul\":29972:29976   */\n      0x20\n        /* \"#utility.yul\":29966:29970   */\n      dup2\n        /* \"#utility.yul\":29962:29977   */\n      add\n        /* \"#utility.yul\":29954:29977   */\n      swap1\n      pop\n        /* \"#utility.yul\":29724:29984   */\n      swap2\n      swap1\n      pop\n      jump\t// out\n        /* \"#utility.yul\":29990:30144   */\n    tag_593:\n      0x00\n        /* \"#utility.yul\":30102:30105   */\n      dup2\n        /* \"#utility.yul\":30094:30105   */\n      swap1\n      pop\n        /* \"#utility.yul\":30132:30136   */\n      0x20\n        /* \"#utility.yul\":30127:30130   */\n      dup3\n        /* \"#utility.yul\":30123:30137   */\n      add\n        /* \"#utility.yul\":30115:30137   */\n      swap1\n      pop\n        /* \"#utility.yul\":30084:30144   */\n      swap2\n      swap1\n      pop\n      jump\t// out\n        /* \"#utility.yul\":30150:30306   */\n    tag_607:\n      0x00\n        /* \"#utility.yul\":30264:30267   */\n      dup2\n        /* \"#utility.yul\":30256:30267   */\n      swap1\n      pop\n        /* \"#utility.yul\":30294:30298   */\n      0x20\n        /* \"#utility.yul\":30289:30292   */\n      dup3\n        /* \"#utility.yul\":30285:30299   */\n      add\n        /* \"#utility.yul\":30277:30299   */\n      swap1\n      pop\n        /* \"#utility.yul\":30246:30306   */\n      swap2\n      swap1\n      pop\n      jump\t// out\n        /* \"#utility.yul\":30312:30466   */\n    tag_621:\n      0x00\n        /* \"#utility.yul\":30424:30427   */\n      dup2\n        /* \"#utility.yul\":30416:30427   */\n      swap1\n      pop\n        /* \"#utility.yul\":30454:30458   */\n      0x20\n        /* \"#utility.yul\":30449:30452   */\n      dup3\n        /* \"#utility.yul\":30445:30459   */\n      add\n        /* \"#utility.yul\":30437:30459   */\n      swap1\n      pop\n        /* \"#utility.yul\":30406:30466   */\n      swap2\n      swap1\n      pop\n      jump\t// out\n        /* \"#utility.yul\":30472:30613   */\n    tag_660:\n      0x00\n        /* \"#utility.yul\":30544:30547   */\n      dup2\n        /* \"#utility.yul\":30536:30547   */\n      swap1\n      pop\n        /* \"#utility.yul\":30567:30570   */\n      dup2\n        /* \"#utility.yul\":30564:30565   */\n      0x00\n        /* \"#utility.yul\":30557:30571   */\n      mstore\n        /* \"#utility.yul\":30601:30605   */\n      0x20\n        /* \"#utility.yul\":30598:30599   */\n      0x00\n        /* \"#utility.yul\":30588:30606   */\n      keccak256\n        /* \"#utility.yul\":30580:30606   */\n      swap1\n      pop\n        /* \"#utility.yul\":30526:30613   */\n      swap2\n      swap1\n      pop\n      jump\t// out\n        /* \"#utility.yul\":30619:30755   */\n    tag_589:\n      0x00\n        /* \"#utility.yul\":30742:30747   */\n      dup2\n        /* \"#utility.yul\":30736:30748   */\n      mload\n        /* \"#utility.yul\":30726:30748   */\n      swap1\n      pop\n        /* \"#utility.yul\":30715:30755   */\n      swap2\n      swap1\n      pop\n      jump\t// out\n        /* \"#utility.yul\":30761:30899   */\n    tag_603:\n      0x00\n        /* \"#utility.yul\":30886:30891   */\n      dup2\n        /* \"#utility.yul\":30880:30892   */\n      mload\n        /* \"#utility.yul\":30870:30892   */\n      swap1\n      pop\n        /* \"#utility.yul\":30859:30899   */\n      swap2\n      swap1\n      pop\n      jump\t// out\n        /* \"#utility.yul\":30905:31041   */\n    tag_617:\n      0x00\n        /* \"#utility.yul\":31028:31033   */\n      dup2\n        /* \"#utility.yul\":31022:31034   */\n      mload\n        /* \"#utility.yul\":31012:31034   */\n      swap1\n      pop\n        /* \"#utility.yul\":31001:31041   */\n      swap2\n      swap1\n      pop\n      jump\t// out\n        /* \"#utility.yul\":31047:31146   */\n    tag_638:\n      0x00\n        /* \"#utility.yul\":31133:31138   */\n      dup2\n        /* \"#utility.yul\":31127:31139   */\n      mload\n        /* \"#utility.yul\":31117:31139   */\n      swap1\n      pop\n        /* \"#utility.yul\":31106:31146   */\n      swap2\n      swap1\n      pop\n      jump\t// out\n        /* \"#utility.yul\":31152:31287   */\n    tag_599:\n      0x00\n        /* \"#utility.yul\":31276:31280   */\n      0x20\n        /* \"#utility.yul\":31271:31274   */\n      dup3\n        /* \"#utility.yul\":31267:31281   */\n      add\n        /* \"#utility.yul\":31259:31281   */\n      swap1\n      pop\n        /* \"#utility.yul\":31249:31287   */\n      swap2\n      swap1\n      pop\n      jump\t// out\n        /* \"#utility.yul\":31293:31430   */\n    tag_613:\n      0x00\n        /* \"#utility.yul\":31419:31423   */\n      0x20\n        /* \"#utility.yul\":31414:31417   */\n      dup3\n        /* \"#utility.yul\":31410:31424   */\n      add\n        /* \"#utility.yul\":31402:31424   */\n      swap1\n      pop\n        /* \"#utility.yul\":31392:31430   */\n      swap2\n      swap1\n      pop\n      jump\t// out\n        /* \"#utility.yul\":31436:31571   */\n    tag_627:\n      0x00\n        /* \"#utility.yul\":31560:31564   */\n      0x20\n        /* \"#utility.yul\":31555:31558   */\n      dup3\n        /* \"#utility.yul\":31551:31565   */\n      add\n        /* \"#utility.yul\":31543:31565   */\n      swap1\n      pop\n        /* \"#utility.yul\":31533:31571   */\n      swap2\n      swap1\n      pop\n      jump\t// out\n        /* \"#utility.yul\":31577:31783   */\n    tag_591:\n      0x00\n        /* \"#utility.yul\":31732:31738   */\n      dup3\n        /* \"#utility.yul\":31727:31730   */\n      dup3\n        /* \"#utility.yul\":31720:31739   */\n      mstore\n        /* \"#utility.yul\":31772:31776   */\n      0x20\n        /* \"#utility.yul\":31767:31770   */\n      dup3\n        /* \"#utility.yul\":31763:31777   */\n      add\n        /* \"#utility.yul\":31748:31777   */\n      swap1\n      pop\n        /* \"#utility.yul\":31710:31783   */\n      swap3\n      swap2\n      pop\n      pop\n      jump\t// out\n        /* \"#utility.yul\":31789:31997   */\n    tag_605:\n      0x00\n        /* \"#utility.yul\":31946:31952   */\n      dup3\n        /* \"#utility.yul\":31941:31944   */\n      dup3\n        /* \"#utility.yul\":31934:31953   */\n      mstore\n        /* \"#utility.yul\":31986:31990   */\n      0x20\n        /* \"#utility.yul\":31981:31984   */\n      dup3\n        /* \"#utility.yul\":31977:31991   */\n      add\n        /* \"#utility.yul\":31962:31991   */\n      swap1\n      pop\n        /* \"#utility.yul\":31924:31997   */\n      swap3\n      swap2\n      pop\n      pop\n      jump\t// out\n        /* \"#utility.yul\":32003:32209   */\n    tag_619:\n      0x00\n        /* \"#utility.yul\":32158:32164   */\n      dup3\n        /* \"#utility.yul\":32153:32156   */\n      dup3\n        /* \"#utility.yul\":32146:32165   */\n      mstore\n        /* \"#utility.yul\":32198:32202   */\n      0x20\n        /* \"#utility.yul\":32193:32196   */\n      dup3\n        /* \"#utility.yul\":32189:32203   */\n      add\n        /* \"#utility.yul\":32174:32203   */\n      swap1\n      pop\n        /* \"#utility.yul\":32136:32209   */\n      swap3\n      swap2\n      pop\n      pop\n      jump\t// out\n        /* \"#utility.yul\":32215:32374   */\n    tag_640:\n      0x00\n        /* \"#utility.yul\":32323:32329   */\n      dup3\n        /* \"#utility.yul\":32318:32321   */\n      dup3\n        /* \"#utility.yul\":32311:32330   */\n      mstore\n        /* \"#utility.yul\":32363:32367   */\n      0x20\n        /* \"#utility.yul\":32358:32361   */\n      dup3\n        /* \"#utility.yul\":32354:32368   */\n      add\n        /* \"#utility.yul\":32339:32368   */\n      swap1\n      pop\n        /* \"#utility.yul\":32301:32374   */\n      swap3\n      swap2\n      pop\n      pop\n      jump\t// out\n        /* \"#utility.yul\":32380:32549   */\n    tag_649:\n      0x00\n        /* \"#utility.yul\":32498:32504   */\n      dup3\n        /* \"#utility.yul\":32493:32496   */\n      dup3\n        /* \"#utility.yul\":32486:32505   */\n      mstore\n        /* \"#utility.yul\":32538:32542   */\n      0x20\n        /* \"#utility.yul\":32533:32536   */\n      dup3\n        /* \"#utility.yul\":32529:32543   */\n      add\n        /* \"#utility.yul\":32514:32543   */\n      swap1\n      pop\n        /* \"#utility.yul\":32476:32549   */\n      swap3\n      swap2\n      pop\n      pop\n      jump\t// out\n        /* \"#utility.yul\":32555:32651   */\n    tag_582:\n      0x00\n        /* \"#utility.yul\":32621:32645   */\n      tag_796\n        /* \"#utility.yul\":32639:32644   */\n      dup3\n        /* \"#utility.yul\":32621:32645   */\n      tag_797\n      jump\t// in\n    tag_796:\n        /* \"#utility.yul\":32610:32645   */\n      swap1\n      pop\n        /* \"#utility.yul\":32600:32651   */\n      swap2\n      swap1\n      pop\n      jump\t// out\n        /* \"#utility.yul\":32657:32747   */\n    tag_631:\n      0x00\n        /* \"#utility.yul\":32734:32739   */\n      dup2\n        /* \"#utility.yul\":32727:32740   */\n      iszero\n        /* \"#utility.yul\":32720:32741   */\n      iszero\n        /* \"#utility.yul\":32709:32741   */\n      swap1\n      pop\n        /* \"#utility.yul\":32699:32747   */\n      swap2\n      swap1\n      pop\n      jump\t// out\n        /* \"#utility.yul\":32753:32879   */\n    tag_797:\n      0x00\n        /* \"#utility.yul\":32830:32872   */\n      0xffffffffffffffffffffffffffffffffffffffff\n        /* \"#utility.yul\":32823:32828   */\n      dup3\n        /* \"#utility.yul\":32819:32873   */\n      and\n        /* \"#utility.yul\":32808:32873   */\n      swap1\n      pop\n        /* \"#utility.yul\":32798:32879   */\n      swap2\n      swap1\n      pop\n      jump\t// out\n        /* \"#utility.yul\":32885:32962   */\n    tag_694:\n      0x00\n        /* \"#utility.yul\":32951:32956   */\n      dup2\n        /* \"#utility.yul\":32940:32956   */\n      swap1\n      pop\n        /* \"#utility.yul\":32930:32962   */\n      swap2\n      swap1\n      pop\n      jump\t// out\n        /* \"#utility.yul\":32968:33122   */\n    tag_501:\n        /* \"#utility.yul\":33052:33058   */\n      dup3\n        /* \"#utility.yul\":33047:33050   */\n      dup2\n        /* \"#utility.yul\":33042:33045   */\n      dup4\n        /* \"#utility.yul\":33029:33059   */\n      calldatacopy\n        /* \"#utility.yul\":33114:33115   */\n      0x00\n        /* \"#utility.yul\":33105:33111   */\n      dup4\n        /* \"#utility.yul\":33100:33103   */\n      dup4\n        /* \"#utility.yul\":33096:33112   */\n      add\n        /* \"#utility.yul\":33089:33116   */\n      mstore\n        /* \"#utility.yul\":33019:33122   */\n      pop\n      pop\n      pop\n      jump\t// out\n        /* \"#utility.yul\":33128:33435   */\n    tag_642:\n        /* \"#utility.yul\":33196:33197   */\n      0x00\n        /* \"#utility.yul\":33206:33319   */\n    tag_803:\n        /* \"#utility.yul\":33220:33226   */\n      dup4\n        /* \"#utility.yul\":33217:33218   */\n      dup2\n        /* \"#utility.yul\":33214:33227   */\n      lt\n        /* \"#utility.yul\":33206:33319   */\n      iszero\n      tag_805\n      jumpi\n        /* \"#utility.yul\":33305:33306   */\n      dup1\n        /* \"#utility.yul\":33300:33303   */\n      dup3\n        /* \"#utility.yul\":33296:33307   */\n      add\n        /* \"#utility.yul\":33290:33308   */\n      mload\n        /* \"#utility.yul\":33286:33287   */\n      dup2\n        /* \"#utility.yul\":33281:33284   */\n      dup5\n        /* \"#utility.yul\":33277:33288   */\n      add\n        /* \"#utility.yul\":33270:33309   */\n      mstore\n        /* \"#utility.yul\":33242:33244   */\n      0x20\n        /* \"#utility.yul\":33239:33240   */\n      dup2\n        /* \"#utility.yul\":33235:33245   */\n      add\n        /* \"#utility.yul\":33230:33245   */\n      swap1\n      pop\n        /* \"#utility.yul\":33206:33319   */\n      jump(tag_803)\n    tag_805:\n        /* \"#utility.yul\":33337:33343   */\n      dup4\n        /* \"#utility.yul\":33334:33335   */\n      dup2\n        /* \"#utility.yul\":33331:33344   */\n      gt\n        /* \"#utility.yul\":33328:33330   */\n      iszero\n      tag_806\n      jumpi\n        /* \"#utility.yul\":33417:33418   */\n      0x00\n        /* \"#utility.yul\":33408:33414   */\n      dup5\n        /* \"#utility.yul\":33403:33406   */\n      dup5\n        /* \"#utility.yul\":33399:33415   */\n      add\n        /* \"#utility.yul\":33392:33419   */\n      mstore\n        /* \"#utility.yul\":33328:33330   */\n    tag_806:\n        /* \"#utility.yul\":33177:33435   */\n      pop\n      pop\n      pop\n      pop\n      jump\t// out\n        /* \"#utility.yul\":33441:33489   */\n    tag_775:\n        /* \"#utility.yul\":33474:33483   */\n      invalid\n        /* \"#utility.yul\":33495:33597   */\n    tag_644:\n      0x00\n        /* \"#utility.yul\":33587:33589   */\n      0x1f\n        /* \"#utility.yul\":33583:33590   */\n      not\n        /* \"#utility.yul\":33578:33580   */\n      0x1f\n        /* \"#utility.yul\":33571:33576   */\n      dup4\n        /* \"#utility.yul\":33567:33581   */\n      add\n        /* \"#utility.yul\":33563:33591   */\n      and\n        /* \"#utility.yul\":33553:33591   */\n      swap1\n      pop\n        /* \"#utility.yul\":33543:33597   */\n      swap2\n      swap1\n      pop\n      jump\t// out\n        /* \"#utility.yul\":33603:33725   */\n    tag_505:\n        /* \"#utility.yul\":33676:33700   */\n      tag_810\n        /* \"#utility.yul\":33694:33699   */\n      dup2\n        /* \"#utility.yul\":33676:33700   */\n      tag_582\n      jump\t// in\n    tag_810:\n        /* \"#utility.yul\":33669:33674   */\n      dup2\n        /* \"#utility.yul\":33666:33701   */\n      eq\n        /* \"#utility.yul\":33656:33658   */\n      tag_811\n      jumpi\n        /* \"#utility.yul\":33715:33716   */\n      0x00\n        /* \"#utility.yul\":33712:33713   */\n      dup1\n        /* \"#utility.yul\":33705:33717   */\n      revert\n        /* \"#utility.yul\":33656:33658   */\n    tag_811:\n        /* \"#utility.yul\":33646:33725   */\n      pop\n      jump\t// out\n        /* \"#utility.yul\":33731:33847   */\n    tag_509:\n        /* \"#utility.yul\":33801:33822   */\n      tag_813\n        /* \"#utility.yul\":33816:33821   */\n      dup2\n        /* \"#utility.yul\":33801:33822   */\n      tag_631\n      jump\t// in\n    tag_813:\n        /* \"#utility.yul\":33794:33799   */\n      dup2\n        /* \"#utility.yul\":33791:33823   */\n      eq\n        /* \"#utility.yul\":33781:33783   */\n      tag_814\n      jumpi\n        /* \"#utility.yul\":33837:33838   */\n      0x00\n        /* \"#utility.yul\":33834:33835   */\n      dup1\n        /* \"#utility.yul\":33827:33839   */\n      revert\n        /* \"#utility.yul\":33781:33783   */\n    tag_814:\n        /* \"#utility.yul\":33771:33847   */\n      pop\n      jump\t// out\n        /* \"#utility.yul\":33853:33975   */\n    tag_517:\n        /* \"#utility.yul\":33926:33950   */\n      tag_816\n        /* \"#utility.yul\":33944:33949   */\n      dup2\n        /* \"#utility.yul\":33926:33950   */\n      tag_694\n      jump\t// in\n    tag_816:\n        /* \"#utility.yul\":33919:33924   */\n      dup2\n        /* \"#utility.yul\":33916:33951   */\n      eq\n        /* \"#utility.yul\":33906:33908   */\n      tag_817\n      jumpi\n        /* \"#utility.yul\":33965:33966   */\n      0x00\n        /* \"#utility.yul\":33962:33963   */\n      dup1\n        /* \"#utility.yul\":33955:33967   */\n      revert\n        /* \"#utility.yul\":33906:33908   */\n    tag_817:\n        /* \"#utility.yul\":33896:33975   */\n      pop\n      jump\t// out\n\n    auxdata: 0xa26469706673582212205cd8f8278358f57d8221f058c3fce7a954813cbaf758046bdcd568dac667d4f964736f6c63430007060033\n}\n",
    "bytecode": {
      "linkReferences": {},
      "object": "6080604052738fcf3b91599c6d5bb93d8c7df9f3974c622b83a4600260006101000a81548173ffffffffffffffffffffffffffffffffffffffff021916908373ffffffffffffffffffffffffffffffffffffffff16021790555034801561006557600080fd5b506144cf806100756000396000f3fe608060405234801561001057600080fd5b506004361061018e5760003560e01c80639a2e5bed116100de578063b584361311610097578063dc7aa36b11610071578063dc7aa36b146104d3578063e1ee3b5614610506578063ea87659f14610522578063f0d95090146105565761018e565b8063b584361314610450578063c266406d1461046e578063d53d0a851461049e5761018e565b80639a2e5bed146103615780639b70e77914610391578063a0568e2d146103c5578063a17d7a38146103e1578063a27876c5146103ff578063a549a4ed1461041b5761018e565b80634e9f71541161014b5780636cd8ebdc116101255780636cd8ebdc146102ac5780637fe53f83146102de578063898bd140146102fa5780638db2fc411461032e5761018e565b80634e9f7154146102545780635a4e5d3e146102725780636151efb1146102905761018e565b806302655c2e146101935780631b057e40146101c65780631ba51696146101e25780631bdc509814610200578063459d470e1461021c5780634807fc6914610238575b600080fd5b6101ad60048036038101906101a891906137cf565b610574565b6040516101bd949392919061401e565b60405180910390f35b6101e060048036038101906101db919061373c565b610776565b005b6101ea6108f2565b6040516101f79190614139565b60405180910390f35b61021a60048036038101906102159190613545565b6108ff565b005b610236600480360381019061023191906137f8565b610a76565b005b610252600480360381019061024d919061351c565b610c20565b005b61025c610d87565b6040516102699190613f9c565b60405180910390f35b61027a6110a7565b6040516102879190613fbe565b60405180910390f35b6102aa60048036038101906102a591906137cf565b611325565b005b6102c660048036038101906102c1919061351c565b61146d565b6040516102d593929190613fe0565b60405180910390f35b6102f860048036038101906102f3919061366b565b6115b2565b005b610314600480360381019061030f919061351c565b6117d9565b604051610325959493929190614154565b60405180910390f35b610348600480360381019061034391906137cf565b61196c565b6040516103589493929190613db8565b60405180910390f35b61037b6004803603810190610376919061351c565b611a91565b6040516103889190613fbe565b60405180910390f35b6103ab60048036038101906103a6919061351c565b611d84565b6040516103bc959493929190614071565b60405180910390f35b6103df60048036038101906103da919061351c565b612026565b005b6103e961216f565b6040516103f69190614139565b60405180910390f35b610419600480360381019061041491906135ac565b61217c565b005b6104356004803603810190610430919061351c565b612300565b60405161044796959493929190613e04565b60405180910390f35b610458612531565b6040516104659190614139565b60405180910390f35b6104886004803603810190610483919061351c565b61253e565b6040516104959190613f7a565b60405180910390f35b6104b860048036038101906104b391906137cf565b6127db565b6040516104ca96959493929190613e04565b60405180910390f35b6104ed60048036038101906104e8919061351c565b612a1c565b6040516104fd9493929190613db8565b60405180910390f35b610520600480360381019061051b9190613545565b612b31565b005b61053c600480360381019061053791906137cf565b612cc6565b60405161054d959493929190614154565b60405180910390f35b61055e612e69565b60405161056b9190613f7a565b60405180910390f35b606080600080600061058586613091565b90506008818154811061059457fe5b9060005260206000209060040201600101600882815481106105b257fe5b9060005260206000209060040201600201600883815481106105d057fe5b906000526020600020906004020160030160009054906101000a900473ffffffffffffffffffffffffffffffffffffffff166008848154811061060f57fe5b906000526020600020906004020160030160149054906101000a900460ff16838054600181600116156101000203166002900480601f0160208091040260200160405190810160405280929190818152602001828054600181600116156101000203166002900480156106c35780601f10610698576101008083540402835291602001916106c3565b820191906000526020600020905b8154815290600101906020018083116106a657829003601f168201915b50505050509350828054600181600116156101000203166002900480601f01602080910402602001604051908101604052809291908181526020018280546001816001161561010002031660029004801561075f5780601f106107345761010080835404028352916020019161075f565b820191906000526020600020905b81548152906001019060200180831161074257829003601f168201915b505050505092509450945094509450509193509193565b61077f82613123565b5060086040518060a0016040528060015481526020018681526020018581526020018473ffffffffffffffffffffffffffffffffffffffff16815260200183151581525090806001815401808255809150506001900390600052602060002090600402016000909190919091506000820151816000015560208201518160010190805190602001906108129291906132df565b50604082015181600201908051906020019061082f9291906132df565b5060608201518160030160006101000a81548173ffffffffffffffffffffffffffffffffffffffff021916908373ffffffffffffffffffffffffffffffffffffffff16021790555060808201518160030160146101000a81548160ff02191690831515021790555050507f1d6a52c11773994a4a6eaa1ace32b929e7f0900bbe29db3f1d36a3cd45f1486c600154858585856040516108d2959493929190614154565b60405180910390a160016000815480929190600101919050555050505050565b6000600480549050905090565b600061090a84613123565b9050826006828154811061091a57fe5b9060005260206000209060030201600101908051906020019061093e9291906132df565b50816006828154811061094d57fe5b906000526020600020906003020160020160006101000a81548173ffffffffffffffffffffffffffffffffffffffff021916908373ffffffffffffffffffffffffffffffffffffffff1602179055507f239b189726729811e87d7845d82777804144af4e76981af04d802a85f7442b66600682815481106109ca57fe5b906000526020600020906003020160000160009054906101000a900473ffffffffffffffffffffffffffffffffffffffff1660068381548110610a0957fe5b906000526020600020906003020160010160068481548110610a2757fe5b906000526020600020906003020160020160009054906101000a900473ffffffffffffffffffffffffffffffffffffffff16604051610a6893929190613e7a565b60405180910390a150505050565b6000610a8185613091565b90508360088281548110610a9157fe5b90600052602060002090600402016001019080519060200190610ab59291906132df565b508260088281548110610ac457fe5b90600052602060002090600402016002019080519060200190610ae89291906132df565b508160088281548110610af757fe5b906000526020600020906004020160030160006101000a81548173ffffffffffffffffffffffffffffffffffffffff021916908373ffffffffffffffffffffffffffffffffffffffff1602179055507fba2bd0d5052fb9458eaac383932e8112a57bfc6a1836ad7118b1673447d3e6ae60088281548110610b7457fe5b90600052602060002090600402016000015460088381548110610b9357fe5b906000526020600020906004020160010160088481548110610bb157fe5b906000526020600020906004020160020160088581548110610bcf57fe5b906000526020600020906004020160030160009054906101000a900473ffffffffffffffffffffffffffffffffffffffff16604051610c1194939291906141b5565b60405180910390a15050505050565b6000610c2b82613201565b9050600060048281548110610c3c57fe5b906000526020600020906006020160050160006101000a81548160ff0219169083151502179055507f05818f5e23a2c2bb34c81792ea8e3397d3f8ad179cb93a5fa57b3d4681564aa060048281548110610c9257fe5b906000526020600020906006020160000160009054906101000a900473ffffffffffffffffffffffffffffffffffffffff1660048381548110610cd157fe5b906000526020600020906006020160010160048481548110610cef57fe5b906000526020600020906006020160020160048581548110610d0d57fe5b906000526020600020906006020160030160048681548110610d2b57fe5b90600052602060002090600602016004015460048781548110610d4a57fe5b906000526020600020906006020160050160009054906101000a900460ff16604051610d7b96959493929190613f04565b60405180910390a15050565b6060600060048054905067ffffffffffffffff81118015610da757600080fd5b50604051908082528060200260200182016040528015610de157816020015b610dce61336d565b815260200190600190039081610dc65790505b50905060005b60048054905081101561109f5760048181548110610e0157fe5b90600052602060002090600602016040518060c00160405290816000820160009054906101000a900473ffffffffffffffffffffffffffffffffffffffff1673ffffffffffffffffffffffffffffffffffffffff1673ffffffffffffffffffffffffffffffffffffffff168152602001600182018054600181600116156101000203166002900480601f016020809104026020016040519081016040528092919081815260200182805460018160011615610100020316600290048015610f095780601f10610ede57610100808354040283529160200191610f09565b820191906000526020600020905b815481529060010190602001808311610eec57829003601f168201915b50505050508152602001600282018054600181600116156101000203166002900480601f016020809104026020016040519081016040528092919081815260200182805460018160011615610100020316600290048015610fab5780601f10610f8057610100808354040283529160200191610fab565b820191906000526020600020905b815481529060010190602001808311610f8e57829003601f168201915b50505050508152602001600382018054600181600116156101000203166002900480601f01602080910402602001604051908101604052809291908181526020018280546001816001161561010002031660029004801561104d5780601f106110225761010080835404028352916020019161104d565b820191906000526020600020905b81548152906001019060200180831161103057829003601f168201915b50505050508152602001600482015481526020016005820160009054906101000a900460ff16151515158152505082828151811061108757fe5b60200260200101819052508080600101915050610de7565b508091505090565b6060600060088054905067ffffffffffffffff811180156110c757600080fd5b5060405190808252806020026020018201604052801561110157816020015b6110ee6133bb565b8152602001906001900390816110e65790505b50905060005b60088054905081101561131d576008818154811061112157fe5b90600052602060002090600402016040518060a001604052908160008201548152602001600182018054600181600116156101000203166002900480601f0160208091040260200160405190810160405280929190818152602001828054600181600116156101000203166002900480156111dd5780601f106111b2576101008083540402835291602001916111dd565b820191906000526020600020905b8154815290600101906020018083116111c057829003601f168201915b50505050508152602001600282018054600181600116156101000203166002900480601f01602080910402602001604051908101604052809291908181526020018280546001816001161561010002031660029004801561127f5780601f106112545761010080835404028352916020019161127f565b820191906000526020600020905b81548152906001019060200180831161126257829003601f168201915b505050505081526020016003820160009054906101000a900473ffffffffffffffffffffffffffffffffffffffff1673ffffffffffffffffffffffffffffffffffffffff1673ffffffffffffffffffffffffffffffffffffffff1681526020016003820160149054906101000a900460ff16151515158152505082828151811061130557fe5b60200260200101819052508080600101915050611107565b508091505090565b600061133082613091565b905060006008828154811061134157fe5b906000526020600020906004020160030160146101000a81548160ff0219169083151502179055507fef9006907eb20210e880b0bb1c39946083bcec24688718507d63a259ffa8351b6008828154811061139757fe5b906000526020600020906004020160000154600883815481106113b657fe5b9060005260206000209060040201600101600884815481106113d457fe5b9060005260206000209060040201600201600885815481106113f257fe5b906000526020600020906004020160030160009054906101000a900473ffffffffffffffffffffffffffffffffffffffff166008868154811061143157fe5b906000526020600020906004020160030160149054906101000a900460ff16604051611461959493929190614208565b60405180910390a15050565b6060600080600061147d85613123565b90506006818154811061148c57fe5b9060005260206000209060030201600101600682815481106114aa57fe5b906000526020600020906003020160020160009054906101000a900473ffffffffffffffffffffffffffffffffffffffff16600683815481106114e957fe5b906000526020600020906003020160020160149054906101000a900460ff16828054600181600116156101000203166002900480601f01602080910402602001604051908101604052809291908181526020018280546001816001161561010002031660029004801561159d5780601f106115725761010080835404028352916020019161159d565b820191906000526020600020905b81548152906001019060200180831161158057829003601f168201915b50505050509250935093509350509193909250565b60006115bd87613201565b905085600482815481106115cd57fe5b906000526020600020906006020160010190805190602001906115f19291906132df565b50846004828154811061160057fe5b906000526020600020906006020160020190805190602001906116249291906132df565b50836004828154811061163357fe5b906000526020600020906006020160030190805190602001906116579291906132df565b50826004828154811061166657fe5b906000526020600020906006020160040181905550816004828154811061168957fe5b906000526020600020906006020160050160006101000a81548160ff0219169083151502179055507f5975e6fed8802a324436eb320387035d99d011c9901bb75b34b8c23b91250c1c600482815481106116df57fe5b906000526020600020906006020160000160009054906101000a900473ffffffffffffffffffffffffffffffffffffffff166004838154811061171e57fe5b90600052602060002090600602016001016004848154811061173c57fe5b90600052602060002090600602016002016004858154811061175a57fe5b90600052602060002090600602016003016004868154811061177857fe5b9060005260206000209060060201600401546004878154811061179757fe5b906000526020600020906006020160050160009054906101000a900460ff166040516117c896959493929190613f04565b60405180910390a150505050505050565b6007602052806000526040600020600091509050806000015490806001018054600181600116156101000203166002900480601f01602080910402602001604051908101604052809291908181526020018280546001816001161561010002031660029004801561188b5780601f106118605761010080835404028352916020019161188b565b820191906000526020600020905b81548152906001019060200180831161186e57829003601f168201915b505050505090806002018054600181600116156101000203166002900480601f0160208091040260200160405190810160405280929190818152602001828054600181600116156101000203166002900480156119295780601f106118fe57610100808354040283529160200191611929565b820191906000526020600020905b81548152906001019060200180831161190c57829003601f168201915b5050505050908060030160009054906101000a900473ffffffffffffffffffffffffffffffffffffffff16908060030160149054906101000a900460ff16905085565b6006818154811061197c57600080fd5b90600052602060002090600302016000915090508060000160009054906101000a900473ffffffffffffffffffffffffffffffffffffffff1690806001018054600181600116156101000203166002900480601f016020809104026020016040519081016040528092919081815260200182805460018160011615610100020316600290048015611a4e5780601f10611a2357610100808354040283529160200191611a4e565b820191906000526020600020905b815481529060010190602001808311611a3157829003601f168201915b5050505050908060020160009054906101000a900473ffffffffffffffffffffffffffffffffffffffff16908060020160149054906101000a900460ff16905084565b6060600060088054905067ffffffffffffffff81118015611ab157600080fd5b50604051908082528060200260200182016040528015611aeb57816020015b611ad86133bb565b815260200190600190039081611ad05790505b50905060005b600880549050811015611d7a5760088181548110611b0b57fe5b906000526020600020906004020160030160009054906101000a900473ffffffffffffffffffffffffffffffffffffffff1673ffffffffffffffffffffffffffffffffffffffff168473ffffffffffffffffffffffffffffffffffffffff161415611d6d5760088181548110611b7d57fe5b90600052602060002090600402016040518060a001604052908160008201548152602001600182018054600181600116156101000203166002900480601f016020809104026020016040519081016040528092919081815260200182805460018160011615610100020316600290048015611c395780601f10611c0e57610100808354040283529160200191611c39565b820191906000526020600020905b815481529060010190602001808311611c1c57829003601f168201915b50505050508152602001600282018054600181600116156101000203166002900480601f016020809104026020016040519081016040528092919081815260200182805460018160011615610100020316600290048015611cdb5780601f10611cb057610100808354040283529160200191611cdb565b820191906000526020600020905b815481529060010190602001808311611cbe57829003601f168201915b505050505081526020016003820160009054906101000a900473ffffffffffffffffffffffffffffffffffffffff1673ffffffffffffffffffffffffffffffffffffffff1673ffffffffffffffffffffffffffffffffffffffff1681526020016003820160149054906101000a900460ff161515151581525050828281518110611d6157fe5b60200260200101819052505b8080600101915050611af1565b5080915050919050565b60608060606000806000611d9787613201565b905060048181548110611da657fe5b906000526020600020906006020160010160048281548110611dc457fe5b906000526020600020906006020160020160048381548110611de257fe5b906000526020600020906006020160030160048481548110611e0057fe5b90600052602060002090600602016004015460048581548110611e1f57fe5b906000526020600020906006020160050160009054906101000a900460ff16848054600181600116156101000203166002900480601f016020809104026020016040519081016040528092919081815260200182805460018160011615610100020316600290048015611ed35780601f10611ea857610100808354040283529160200191611ed3565b820191906000526020600020905b815481529060010190602001808311611eb657829003601f168201915b50505050509450838054600181600116156101000203166002900480601f016020809104026020016040519081016040528092919081815260200182805460018160011615610100020316600290048015611f6f5780601f10611f4457610100808354040283529160200191611f6f565b820191906000526020600020905b815481529060010190602001808311611f5257829003601f168201915b50505050509350828054600181600116156101000203166002900480601f01602080910402602001604051908101604052809291908181526020018280546001816001161561010002031660029004801561200b5780601f10611fe05761010080835404028352916020019161200b565b820191906000526020600020905b815481529060010190602001808311611fee57829003601f168201915b50505050509250955095509550955095505091939590929450565b600061203182613123565b905060006006828154811061204257fe5b906000526020600020906003020160020160146101000a81548160ff0219169083151502179055507f780b3c74ec1e08d8c65fd8a12c6ac2da5c15f2d3b5e54335b51671f63b7d2ad06006828154811061209857fe5b906000526020600020906003020160000160009054906101000a900473ffffffffffffffffffffffffffffffffffffffff16600683815481106120d757fe5b9060005260206000209060030201600101600684815481106120f557fe5b906000526020600020906003020160020160009054906101000a900473ffffffffffffffffffffffffffffffffffffffff166006858154811061213457fe5b906000526020600020906003020160020160149054906101000a900460ff166040516121639493929190613eb8565b60405180910390a15050565b6000600480549050905090565b60046040518060c001604052808773ffffffffffffffffffffffffffffffffffffffff16815260200186815260200185815260200184815260200183815260200160011515815250908060018154018082558091505060019003906000526020600020906006020160009091909190915060008201518160000160006101000a81548173ffffffffffffffffffffffffffffffffffffffff021916908373ffffffffffffffffffffffffffffffffffffffff16021790555060208201518160010190805190602001906122509291906132df565b50604082015181600201908051906020019061226d9291906132df565b50606082015181600301908051906020019061228a9291906132df565b506080820151816004015560a08201518160050160006101000a81548160ff02191690831515021790555050507ff646212acc3f5092fb0211ffd5121c0f706641b715e3982dab50afb395413dd5858585858560016040516122f196959493929190613e04565b60405180910390a15050505050565b60036020528060005260406000206000915090508060000160009054906101000a900473ffffffffffffffffffffffffffffffffffffffff1690806001018054600181600116156101000203166002900480601f0160208091040260200160405190810160405280929190818152602001828054600181600116156101000203166002900480156123d25780601f106123a7576101008083540402835291602001916123d2565b820191906000526020600020905b8154815290600101906020018083116123b557829003601f168201915b505050505090806002018054600181600116156101000203166002900480601f0160208091040260200160405190810160405280929190818152602001828054600181600116156101000203166002900480156124705780601f1061244557610100808354040283529160200191612470565b820191906000526020600020905b81548152906001019060200180831161245357829003601f168201915b505050505090806003018054600181600116156101000203166002900480601f01602080910402602001604051908101604052809291908181526020018280546001816001161561010002031660029004801561250e5780601f106124e35761010080835404028352916020019161250e565b820191906000526020600020905b8154815290600101906020018083116124f157829003601f168201915b5050505050908060040154908060050160009054906101000a900460ff16905086565b6000600880549050905090565b6060600060068054905067ffffffffffffffff8111801561255e57600080fd5b5060405190808252806020026020018201604052801561259857816020015b612585613402565b81526020019060019003908161257d5790505b50905060005b6006805490508110156127d157600681815481106125b857fe5b906000526020600020906003020160020160009054906101000a900473ffffffffffffffffffffffffffffffffffffffff1673ffffffffffffffffffffffffffffffffffffffff168473ffffffffffffffffffffffffffffffffffffffff1614156127c4576006818154811061262a57fe5b90600052602060002090600302016040518060800160405290816000820160009054906101000a900473ffffffffffffffffffffffffffffffffffffffff1673ffffffffffffffffffffffffffffffffffffffff1673ffffffffffffffffffffffffffffffffffffffff168152602001600182018054600181600116156101000203166002900480601f0160208091040260200160405190810160405280929190818152602001828054600181600116156101000203166002900480156127325780601f1061270757610100808354040283529160200191612732565b820191906000526020600020905b81548152906001019060200180831161271557829003601f168201915b505050505081526020016002820160009054906101000a900473ffffffffffffffffffffffffffffffffffffffff1673ffffffffffffffffffffffffffffffffffffffff1673ffffffffffffffffffffffffffffffffffffffff1681526020016002820160149054906101000a900460ff1615151515815250508282815181106127b857fe5b60200260200101819052505b808060010191505061259e565b5080915050919050565b600481815481106127eb57600080fd5b90600052602060002090600602016000915090508060000160009054906101000a900473ffffffffffffffffffffffffffffffffffffffff1690806001018054600181600116156101000203166002900480601f0160208091040260200160405190810160405280929190818152602001828054600181600116156101000203166002900480156128bd5780601f10612892576101008083540402835291602001916128bd565b820191906000526020600020905b8154815290600101906020018083116128a057829003601f168201915b505050505090806002018054600181600116156101000203166002900480601f01602080910402602001604051908101604052809291908181526020018280546001816001161561010002031660029004801561295b5780601f106129305761010080835404028352916020019161295b565b820191906000526020600020905b81548152906001019060200180831161293e57829003601f168201915b505050505090806003018054600181600116156101000203166002900480601f0160208091040260200160405190810160405280929190818152602001828054600181600116156101000203166002900480156129f95780601f106129ce576101008083540402835291602001916129f9565b820191906000526020600020905b8154815290600101906020018083116129dc57829003601f168201915b5050505050908060040154908060050160009054906101000a900460ff16905086565b60056020528060005260406000206000915090508060000160009054906101000a900473ffffffffffffffffffffffffffffffffffffffff1690806001018054600181600116156101000203166002900480601f016020809104026020016040519081016040528092919081815260200182805460018160011615610100020316600290048015612aee5780601f10612ac357610100808354040283529160200191612aee565b820191906000526020600020905b815481529060010190602001808311612ad157829003601f168201915b5050505050908060020160009054906101000a900473ffffffffffffffffffffffffffffffffffffffff16908060020160149054906101000a900460ff16905084565b612b3a81613201565b50600660405180608001604052808573ffffffffffffffffffffffffffffffffffffffff1681526020018481526020018373ffffffffffffffffffffffffffffffffffffffff16815260200160011515815250908060018154018082558091505060019003906000526020600020906003020160009091909190915060008201518160000160006101000a81548173ffffffffffffffffffffffffffffffffffffffff021916908373ffffffffffffffffffffffffffffffffffffffff1602179055506020820151816001019080519060200190612c199291906132df565b5060408201518160020160006101000a81548173ffffffffffffffffffffffffffffffffffffffff021916908373ffffffffffffffffffffffffffffffffffffffff16021790555060608201518160020160146101000a81548160ff02191690831515021790555050507f4578695497af1a3a1f556f9c89f9f107851cb8e1820e4b336143406b9ba52e3b8383836001604051612cb99493929190613db8565b60405180910390a1505050565b60088181548110612cd657600080fd5b9060005260206000209060040201600091509050806000015490806001018054600181600116156101000203166002900480601f016020809104026020016040519081016040528092919081815260200182805460018160011615610100020316600290048015612d885780601f10612d5d57610100808354040283529160200191612d88565b820191906000526020600020905b815481529060010190602001808311612d6b57829003601f168201915b505050505090806002018054600181600116156101000203166002900480601f016020809104026020016040519081016040528092919081815260200182805460018160011615610100020316600290048015612e265780601f10612dfb57610100808354040283529160200191612e26565b820191906000526020600020905b815481529060010190602001808311612e0957829003601f168201915b5050505050908060030160009054906101000a900473ffffffffffffffffffffffffffffffffffffffff16908060030160149054906101000a900460ff16905085565b6060600060068054905067ffffffffffffffff81118015612e8957600080fd5b50604051908082528060200260200182016040528015612ec357816020015b612eb0613402565b815260200190600190039081612ea85790505b50905060005b6006805490508110156130895760068181548110612ee357fe5b90600052602060002090600302016040518060800160405290816000820160009054906101000a900473ffffffffffffffffffffffffffffffffffffffff1673ffffffffffffffffffffffffffffffffffffffff1673ffffffffffffffffffffffffffffffffffffffff168152602001600182018054600181600116156101000203166002900480601f016020809104026020016040519081016040528092919081815260200182805460018160011615610100020316600290048015612feb5780601f10612fc057610100808354040283529160200191612feb565b820191906000526020600020905b815481529060010190602001808311612fce57829003601f168201915b505050505081526020016002820160009054906101000a900473ffffffffffffffffffffffffffffffffffffffff1673ffffffffffffffffffffffffffffffffffffffff1673ffffffffffffffffffffffffffffffffffffffff1681526020016002820160149054906101000a900460ff16151515158152505082828151811061307157fe5b60200260200101819052508080600101915050612ec9565b508091505090565b600080600090505b6008805490508110156130e25782600882815481106130b457fe5b90600052602060002090600402016000015414156130d5578091505061311e565b8080600101915050613099565b506040517f08c379a0000000000000000000000000000000000000000000000000000000008152600401613115906140f9565b60405180910390fd5b919050565b600080600090505b6006805490508110156131c0578273ffffffffffffffffffffffffffffffffffffffff166006828154811061315c57fe5b906000526020600020906003020160000160009054906101000a900473ffffffffffffffffffffffffffffffffffffffff1673ffffffffffffffffffffffffffffffffffffffff1614156131b357809150506131fc565b808060010191505061312b565b506040517f08c379a00000000000000000000000000000000000000000000000000000000081526004016131f3906140d9565b60405180910390fd5b919050565b600080600090505b60048054905081101561329e578273ffffffffffffffffffffffffffffffffffffffff166004828154811061323a57fe5b906000526020600020906006020160000160009054906101000a900473ffffffffffffffffffffffffffffffffffffffff1673ffffffffffffffffffffffffffffffffffffffff16141561329157809150506132da565b8080600101915050613209565b506040517f08c379a00000000000000000000000000000000000000000000000000000000081526004016132d190614119565b60405180910390fd5b919050565b828054600181600116156101000203166002900490600052602060002090601f016020900481019282613315576000855561335c565b82601f1061332e57805160ff191683800117855561335c565b8280016001018555821561335c579182015b8281111561335b578251825591602001919060010190613340565b5b5090506133699190613458565b5090565b6040518060c00160405280600073ffffffffffffffffffffffffffffffffffffffff168152602001606081526020016060815260200160608152602001600081526020016000151581525090565b6040518060a00160405280600081526020016060815260200160608152602001600073ffffffffffffffffffffffffffffffffffffffff1681526020016000151581525090565b6040518060800160405280600073ffffffffffffffffffffffffffffffffffffffff16815260200160608152602001600073ffffffffffffffffffffffffffffffffffffffff1681526020016000151581525090565b5b80821115613471576000816000905550600101613459565b5090565b60006134886134838461429a565b614269565b9050828152602081018484840111156134a057600080fd5b6134ab8482856143ff565b509392505050565b6000813590506134c281614454565b92915050565b6000813590506134d78161446b565b92915050565b600082601f8301126134ee57600080fd5b81356134fe848260208601613475565b91505092915050565b60008135905061351681614482565b92915050565b60006020828403121561352e57600080fd5b600061353c848285016134b3565b91505092915050565b60008060006060848603121561355a57600080fd5b6000613568868287016134b3565b935050602084013567ffffffffffffffff81111561358557600080fd5b613591868287016134dd565b92505060406135a2868287016134b3565b9150509250925092565b600080600080600060a086880312156135c457600080fd5b60006135d2888289016134b3565b955050602086013567ffffffffffffffff8111156135ef57600080fd5b6135fb888289016134dd565b945050604086013567ffffffffffffffff81111561361857600080fd5b613624888289016134dd565b935050606086013567ffffffffffffffff81111561364157600080fd5b61364d888289016134dd565b925050608061365e88828901613507565b9150509295509295909350565b60008060008060008060c0878903121561368457600080fd5b600061369289828a016134b3565b965050602087013567ffffffffffffffff8111156136af57600080fd5b6136bb89828a016134dd565b955050604087013567ffffffffffffffff8111156136d857600080fd5b6136e489828a016134dd565b945050606087013567ffffffffffffffff81111561370157600080fd5b61370d89828a016134dd565b935050608061371e89828a01613507565b92505060a061372f89828a016134c8565b9150509295509295509295565b6000806000806080858703121561375257600080fd5b600085013567ffffffffffffffff81111561376c57600080fd5b613778878288016134dd565b945050602085013567ffffffffffffffff81111561379557600080fd5b6137a1878288016134dd565b93505060406137b2878288016134b3565b92505060606137c3878288016134c8565b91505092959194509250565b6000602082840312156137e157600080fd5b60006137ef84828501613507565b91505092915050565b6000806000806080858703121561380e57600080fd5b600061381c87828801613507565b945050602085013567ffffffffffffffff81111561383957600080fd5b613845878288016134dd565b935050604085013567ffffffffffffffff81111561386257600080fd5b61386e878288016134dd565b925050606061387f878288016134b3565b91505092959194509250565b60006138978383613c23565b905092915050565b60006138ab8383613c86565b905092915050565b60006138bf8383613d1d565b905092915050565b6138d0816143b7565b82525050565b6138df816143b7565b82525050565b60006138f08261430f565b6138fa8185614362565b93508360208202850161390c856142ca565b8060005b858110156139485784840389528151613929858261388b565b94506139348361433b565b925060208a01995050600181019050613910565b50829750879550505050505092915050565b60006139658261431a565b61396f8185614373565b935083602082028501613981856142da565b8060005b858110156139bd578484038952815161399e858261389f565b94506139a983614348565b925060208a01995050600181019050613985565b50829750879550505050505092915050565b60006139da82614325565b6139e48185614384565b9350836020820285016139f6856142ea565b8060005b85811015613a325784840389528151613a1385826138b3565b9450613a1e83614355565b925060208a019950506001810190506139fa565b50829750879550505050505092915050565b613a4d816143c9565b82525050565b613a5c816143c9565b82525050565b6000613a6d82614330565b613a778185614395565b9350613a8781856020860161440e565b613a9081614443565b840191505092915050565b6000613aa682614330565b613ab081856143a6565b9350613ac081856020860161440e565b613ac981614443565b840191505092915050565b600081546001811660008114613af15760018114613b1757613b5b565b607f6002830416613b0281876143a6565b955060ff198316865260208601935050613b5b565b60028204613b2581876143a6565b9550613b30856142fa565b60005b82811015613b5257815481890152600182019150602081019050613b33565b80880195505050505b505092915050565b6000613b706010836143a6565b91507f446f63746f72206e6f7420666f756e64000000000000000000000000000000006000830152602082019050919050565b6000613bb06010836143a6565b91507f53656e736f72206e6f7420666f756e64000000000000000000000000000000006000830152602082019050919050565b6000613bf06012836143a6565b91507f486f73706974616c206e6f7420666f756e6400000000000000000000000000006000830152602082019050919050565b6000608083016000830151613c3b60008601826138c7565b5060208301518482036020860152613c538282613a62565b9150506040830151613c6860408601826138c7565b506060830151613c7b6060860182613a44565b508091505092915050565b600060c083016000830151613c9e60008601826138c7565b5060208301518482036020860152613cb68282613a62565b91505060408301518482036040860152613cd08282613a62565b91505060608301518482036060860152613cea8282613a62565b9150506080830151613cff6080860182613d9a565b5060a0830151613d1260a0860182613a44565b508091505092915050565b600060a083016000830151613d356000860182613d9a565b5060208301518482036020860152613d4d8282613a62565b91505060408301518482036040860152613d678282613a62565b9150506060830151613d7c60608601826138c7565b506080830151613d8f6080860182613a44565b508091505092915050565b613da3816143f5565b82525050565b613db2816143f5565b82525050565b6000608082019050613dcd60008301876138d6565b8181036020830152613ddf8186613a9b565b9050613dee60408301856138d6565b613dfb6060830184613a53565b95945050505050565b600060c082019050613e1960008301896138d6565b8181036020830152613e2b8188613a9b565b90508181036040830152613e3f8187613a9b565b90508181036060830152613e538186613a9b565b9050613e626080830185613da9565b613e6f60a0830184613a53565b979650505050505050565b6000606082019050613e8f60008301866138d6565b8181036020830152613ea18185613ad4565b9050613eb060408301846138d6565b949350505050565b6000608082019050613ecd60008301876138d6565b8181036020830152613edf8186613ad4565b9050613eee60408301856138d6565b613efb6060830184613a53565b95945050505050565b600060c082019050613f1960008301896138d6565b8181036020830152613f2b8188613ad4565b90508181036040830152613f3f8187613ad4565b90508181036060830152613f538186613ad4565b9050613f626080830185613da9565b613f6f60a0830184613a53565b979650505050505050565b60006020820190508181036000830152613f9481846138e5565b905092915050565b60006020820190508181036000830152613fb6818461395a565b905092915050565b60006020820190508181036000830152613fd881846139cf565b905092915050565b60006060820190508181036000830152613ffa8186613a9b565b905061400960208301856138d6565b6140166040830184613a53565b949350505050565b600060808201905081810360008301526140388187613a9b565b9050818103602083015261404c8186613a9b565b905061405b60408301856138d6565b6140686060830184613a53565b95945050505050565b600060a082019050818103600083015261408b8188613a9b565b9050818103602083015261409f8187613a9b565b905081810360408301526140b38186613a9b565b90506140c26060830185613da9565b6140cf6080830184613a53565b9695505050505050565b600060208201905081810360008301526140f281613b63565b9050919050565b6000602082019050818103600083015261411281613ba3565b9050919050565b6000602082019050818103600083015261413281613be3565b9050919050565b600060208201905061414e6000830184613da9565b92915050565b600060a0820190506141696000830188613da9565b818103602083015261417b8187613a9b565b9050818103604083015261418f8186613a9b565b905061419e60608301856138d6565b6141ab6080830184613a53565b9695505050505050565b60006080820190506141ca6000830187613da9565b81810360208301526141dc8186613ad4565b905081810360408301526141f08185613ad4565b90506141ff60608301846138d6565b95945050505050565b600060a08201905061421d6000830188613da9565b818103602083015261422f8187613ad4565b905081810360408301526142438186613ad4565b905061425260608301856138d6565b61425f6080830184613a53565b9695505050505050565b6000604051905081810181811067ffffffffffffffff821117156142905761428f614441565b5b8060405250919050565b600067ffffffffffffffff8211156142b5576142b4614441565b5b601f19601f8301169050602081019050919050565b6000819050602082019050919050565b6000819050602082019050919050565b6000819050602082019050919050565b60008190508160005260206000209050919050565b600081519050919050565b600081519050919050565b600081519050919050565b600081519050919050565b6000602082019050919050565b6000602082019050919050565b6000602082019050919050565b600082825260208201905092915050565b600082825260208201905092915050565b600082825260208201905092915050565b600082825260208201905092915050565b600082825260208201905092915050565b60006143c2826143d5565b9050919050565b60008115159050919050565b600073ffffffffffffffffffffffffffffffffffffffff82169050919050565b6000819050919050565b82818337600083830152505050565b60005b8381101561442c578082015181840152602081019050614411565b8381111561443b576000848401525b50505050565bfe5b6000601f19601f8301169050919050565b61445d816143b7565b811461446857600080fd5b50565b614474816143c9565b811461447f57600080fd5b50565b61448b816143f5565b811461449657600080fd5b5056fea26469706673582212205cd8f8278358f57d8221f058c3fce7a954813cbaf758046bdcd568dac667d4f964736f6c63430007060033",
      "opcodes": "PUSH1 0x80 PUSH1 0x40 MSTORE PUSH20 0x8FCF3B91599C6D5BB93D8C7DF9F3974C622B83A4 PUSH1 0x2 PUSH1 0x0 PUSH2 0x100 EXP DUP2 SLOAD DUP2 PUSH20 0xFFFFFFFFFFFFFFFFFFFFFFFFFFFFFFFFFFFFFFFF MUL NOT AND SWAP1 DUP4 PUSH20 0xFFFFFFFFFFFFFFFFFFFFFFFFFFFFFFFFFFFFFFFF AND MUL OR SWAP1 SSTORE POP CALLVALUE DUP1 ISZERO PUSH2 0x65 JUMPI PUSH1 0x0 DUP1 REVERT JUMPDEST POP PUSH2 0x44CF DUP1 PUSH2 0x75 PUSH1 0x0 CODECOPY PUSH1 0x0 RETURN INVALID PUSH1 0x80 PUSH1 0x40 MSTORE CALLVALUE DUP1 ISZERO PUSH2 0x10 JUMPI PUSH1 0x0 DUP1 REVERT JUMPDEST POP PUSH1 0x4 CALLDATASIZE LT PUSH2 0x18E JUMPI PUSH1 0x0 CALLDATALOAD PUSH1 0xE0 SHR DUP1 PUSH4 0x9A2E5BED GT PUSH2 0xDE JUMPI DUP1 PUSH4 0xB5843613 GT PUSH2 0x97 JUMPI DUP1 PUSH4 0xDC7AA36B GT PUSH2 0x71 JUMPI DUP1 PUSH4 0xDC7AA36B EQ PUSH2 0x4D3 JUMPI DUP1 PUSH4 0xE1EE3B56 EQ PUSH2 0x506 JUMPI DUP1 PUSH4 0xEA87659F EQ PUSH2 0x522 JUMPI DUP1 PUSH4 0xF0D95090 EQ PUSH2 0x556 JUMPI PUSH2 0x18E JUMP JUMPDEST DUP1 PUSH4 0xB5843613 EQ PUSH2 0x450 JUMPI DUP1 PUSH4 0xC266406D EQ PUSH2 0x46E JUMPI DUP1 PUSH4 0xD53D0A85 EQ PUSH2 0x49E JUMPI PUSH2 0x18E JUMP JUMPDEST DUP1 PUSH4 0x9A2E5BED EQ PUSH2 0x361 JUMPI DUP1 PUSH4 0x9B70E779 EQ PUSH2 0x391 JUMPI DUP1 PUSH4 0xA0568E2D EQ PUSH2 0x3C5 JUMPI DUP1 PUSH4 0xA17D7A38 EQ PUSH2 0x3E1 JUMPI DUP1 PUSH4 0xA27876C5 EQ PUSH2 0x3FF JUMPI DUP1 PUSH4 0xA549A4ED EQ PUSH2 0x41B JUMPI PUSH2 0x18E JUMP JUMPDEST DUP1 PUSH4 0x4E9F7154 GT PUSH2 0x14B JUMPI DUP1 PUSH4 0x6CD8EBDC GT PUSH2 0x125 JUMPI DUP1 PUSH4 0x6CD8EBDC EQ PUSH2 0x2AC JUMPI DUP1 PUSH4 0x7FE53F83 EQ PUSH2 0x2DE JUMPI DUP1 PUSH4 0x898BD140 EQ PUSH2 0x2FA JUMPI DUP1 PUSH4 0x8DB2FC41 EQ PUSH2 0x32E JUMPI PUSH2 0x18E JUMP JUMPDEST DUP1 PUSH4 0x4E9F7154 EQ PUSH2 0x254 JUMPI DUP1 PUSH4 0x5A4E5D3E EQ PUSH2 0x272 JUMPI DUP1 PUSH4 0x6151EFB1 EQ PUSH2 0x290 JUMPI PUSH2 0x18E JUMP JUMPDEST DUP1 PUSH4 0x2655C2E EQ PUSH2 0x193 JUMPI DUP1 PUSH4 0x1B057E40 EQ PUSH2 0x1C6 JUMPI DUP1 PUSH4 0x1BA51696 EQ PUSH2 0x1E2 JUMPI DUP1 PUSH4 0x1BDC5098 EQ PUSH2 0x200 JUMPI DUP1 PUSH4 0x459D470E EQ PUSH2 0x21C JUMPI DUP1 PUSH4 0x4807FC69 EQ PUSH2 0x238 JUMPI JUMPDEST PUSH1 0x0 DUP1 REVERT JUMPDEST PUSH2 0x1AD PUSH1 0x4 DUP1 CALLDATASIZE SUB DUP2 ADD SWAP1 PUSH2 0x1A8 SWAP2 SWAP1 PUSH2 0x37CF JUMP JUMPDEST PUSH2 0x574 JUMP JUMPDEST PUSH1 0x40 MLOAD PUSH2 0x1BD SWAP5 SWAP4 SWAP3 SWAP2 SWAP1 PUSH2 0x401E JUMP JUMPDEST PUSH1 0x40 MLOAD DUP1 SWAP2 SUB SWAP1 RETURN JUMPDEST PUSH2 0x1E0 PUSH1 0x4 DUP1 CALLDATASIZE SUB DUP2 ADD SWAP1 PUSH2 0x1DB SWAP2 SWAP1 PUSH2 0x373C JUMP JUMPDEST PUSH2 0x776 JUMP JUMPDEST STOP JUMPDEST PUSH2 0x1EA PUSH2 0x8F2 JUMP JUMPDEST PUSH1 0x40 MLOAD PUSH2 0x1F7 SWAP2 SWAP1 PUSH2 0x4139 JUMP JUMPDEST PUSH1 0x40 MLOAD DUP1 SWAP2 SUB SWAP1 RETURN JUMPDEST PUSH2 0x21A PUSH1 0x4 DUP1 CALLDATASIZE SUB DUP2 ADD SWAP1 PUSH2 0x215 SWAP2 SWAP1 PUSH2 0x3545 JUMP JUMPDEST PUSH2 0x8FF JUMP JUMPDEST STOP JUMPDEST PUSH2 0x236 PUSH1 0x4 DUP1 CALLDATASIZE SUB DUP2 ADD SWAP1 PUSH2 0x231 SWAP2 SWAP1 PUSH2 0x37F8 JUMP JUMPDEST PUSH2 0xA76 JUMP JUMPDEST STOP JUMPDEST PUSH2 0x252 PUSH1 0x4 DUP1 CALLDATASIZE SUB DUP2 ADD SWAP1 PUSH2 0x24D SWAP2 SWAP1 PUSH2 0x351C JUMP JUMPDEST PUSH2 0xC20 JUMP JUMPDEST STOP JUMPDEST PUSH2 0x25C PUSH2 0xD87 JUMP JUMPDEST PUSH1 0x40 MLOAD PUSH2 0x269 SWAP2 SWAP1 PUSH2 0x3F9C JUMP JUMPDEST PUSH1 0x40 MLOAD DUP1 SWAP2 SUB SWAP1 RETURN JUMPDEST PUSH2 0x27A PUSH2 0x10A7 JUMP JUMPDEST PUSH1 0x40 MLOAD PUSH2 0x287 SWAP2 SWAP1 PUSH2 0x3FBE JUMP JUMPDEST PUSH1 0x40 MLOAD DUP1 SWAP2 SUB SWAP1 RETURN JUMPDEST PUSH2 0x2AA PUSH1 0x4 DUP1 CALLDATASIZE SUB DUP2 ADD SWAP1 PUSH2 0x2A5 SWAP2 SWAP1 PUSH2 0x37CF JUMP JUMPDEST PUSH2 0x1325 JUMP JUMPDEST STOP JUMPDEST PUSH2 0x2C6 PUSH1 0x4 DUP1 CALLDATASIZE SUB DUP2 ADD SWAP1 PUSH2 0x2C1 SWAP2 SWAP1 PUSH2 0x351C JUMP JUMPDEST PUSH2 0x146D JUMP JUMPDEST PUSH1 0x40 MLOAD PUSH2 0x2D5 SWAP4 SWAP3 SWAP2 SWAP1 PUSH2 0x3FE0 JUMP JUMPDEST PUSH1 0x40 MLOAD DUP1 SWAP2 SUB SWAP1 RETURN JUMPDEST PUSH2 0x2F8 PUSH1 0x4 DUP1 CALLDATASIZE SUB DUP2 ADD SWAP1 PUSH2 0x2F3 SWAP2 SWAP1 PUSH2 0x366B JUMP JUMPDEST PUSH2 0x15B2 JUMP JUMPDEST STOP JUMPDEST PUSH2 0x314 PUSH1 0x4 DUP1 CALLDATASIZE SUB DUP2 ADD SWAP1 PUSH2 0x30F SWAP2 SWAP1 PUSH2 0x351C JUMP JUMPDEST PUSH2 0x17D9 JUMP JUMPDEST PUSH1 0x40 MLOAD PUSH2 0x325 SWAP6 SWAP5 SWAP4 SWAP3 SWAP2 SWAP1 PUSH2 0x4154 JUMP JUMPDEST PUSH1 0x40 MLOAD DUP1 SWAP2 SUB SWAP1 RETURN JUMPDEST PUSH2 0x348 PUSH1 0x4 DUP1 CALLDATASIZE SUB DUP2 ADD SWAP1 PUSH2 0x343 SWAP2 SWAP1 PUSH2 0x37CF JUMP JUMPDEST PUSH2 0x196C JUMP JUMPDEST PUSH1 0x40 MLOAD PUSH2 0x358 SWAP5 SWAP4 SWAP3 SWAP2 SWAP1 PUSH2 0x3DB8 JUMP JUMPDEST PUSH1 0x40 MLOAD DUP1 SWAP2 SUB SWAP1 RETURN JUMPDEST PUSH2 0x37B PUSH1 0x4 DUP1 CALLDATASIZE SUB DUP2 ADD SWAP1 PUSH2 0x376 SWAP2 SWAP1 PUSH2 0x351C JUMP JUMPDEST PUSH2 0x1A91 JUMP JUMPDEST PUSH1 0x40 MLOAD PUSH2 0x388 SWAP2 SWAP1 PUSH2 0x3FBE JUMP JUMPDEST PUSH1 0x40 MLOAD DUP1 SWAP2 SUB SWAP1 RETURN JUMPDEST PUSH2 0x3AB PUSH1 0x4 DUP1 CALLDATASIZE SUB DUP2 ADD SWAP1 PUSH2 0x3A6 SWAP2 SWAP1 PUSH2 0x351C JUMP JUMPDEST PUSH2 0x1D84 JUMP JUMPDEST PUSH1 0x40 MLOAD PUSH2 0x3BC SWAP6 SWAP5 SWAP4 SWAP3 SWAP2 SWAP1 PUSH2 0x4071 JUMP JUMPDEST PUSH1 0x40 MLOAD DUP1 SWAP2 SUB SWAP1 RETURN JUMPDEST PUSH2 0x3DF PUSH1 0x4 DUP1 CALLDATASIZE SUB DUP2 ADD SWAP1 PUSH2 0x3DA SWAP2 SWAP1 PUSH2 0x351C JUMP JUMPDEST PUSH2 0x2026 JUMP JUMPDEST STOP JUMPDEST PUSH2 0x3E9 PUSH2 0x216F JUMP JUMPDEST PUSH1 0x40 MLOAD PUSH2 0x3F6 SWAP2 SWAP1 PUSH2 0x4139 JUMP JUMPDEST PUSH1 0x40 MLOAD DUP1 SWAP2 SUB SWAP1 RETURN JUMPDEST PUSH2 0x419 PUSH1 0x4 DUP1 CALLDATASIZE SUB DUP2 ADD SWAP1 PUSH2 0x414 SWAP2 SWAP1 PUSH2 0x35AC JUMP JUMPDEST PUSH2 0x217C JUMP JUMPDEST STOP JUMPDEST PUSH2 0x435 PUSH1 0x4 DUP1 CALLDATASIZE SUB DUP2 ADD SWAP1 PUSH2 0x430 SWAP2 SWAP1 PUSH2 0x351C JUMP JUMPDEST PUSH2 0x2300 JUMP JUMPDEST PUSH1 0x40 MLOAD PUSH2 0x447 SWAP7 SWAP6 SWAP5 SWAP4 SWAP3 SWAP2 SWAP1 PUSH2 0x3E04 JUMP JUMPDEST PUSH1 0x40 MLOAD DUP1 SWAP2 SUB SWAP1 RETURN JUMPDEST PUSH2 0x458 PUSH2 0x2531 JUMP JUMPDEST PUSH1 0x40 MLOAD PUSH2 0x465 SWAP2 SWAP1 PUSH2 0x4139 JUMP JUMPDEST PUSH1 0x40 MLOAD DUP1 SWAP2 SUB SWAP1 RETURN JUMPDEST PUSH2 0x488 PUSH1 0x4 DUP1 CALLDATASIZE SUB DUP2 ADD SWAP1 PUSH2 0x483 SWAP2 SWAP1 PUSH2 0x351C JUMP JUMPDEST PUSH2 0x253E JUMP JUMPDEST PUSH1 0x40 MLOAD PUSH2 0x495 SWAP2 SWAP1 PUSH2 0x3F7A JUMP JUMPDEST PUSH1 0x40 MLOAD DUP1 SWAP2 SUB SWAP1 RETURN JUMPDEST PUSH2 0x4B8 PUSH1 0x4 DUP1 CALLDATASIZE SUB DUP2 ADD SWAP1 PUSH2 0x4B3 SWAP2 SWAP1 PUSH2 0x37CF JUMP JUMPDEST PUSH2 0x27DB JUMP JUMPDEST PUSH1 0x40 MLOAD PUSH2 0x4CA SWAP7 SWAP6 SWAP5 SWAP4 SWAP3 SWAP2 SWAP1 PUSH2 0x3E04 JUMP JUMPDEST PUSH1 0x40 MLOAD DUP1 SWAP2 SUB SWAP1 RETURN JUMPDEST PUSH2 0x4ED PUSH1 0x4 DUP1 CALLDATASIZE SUB DUP2 ADD SWAP1 PUSH2 0x4E8 SWAP2 SWAP1 PUSH2 0x351C JUMP JUMPDEST PUSH2 0x2A1C JUMP JUMPDEST PUSH1 0x40 MLOAD PUSH2 0x4FD SWAP5 SWAP4 SWAP3 SWAP2 SWAP1 PUSH2 0x3DB8 JUMP JUMPDEST PUSH1 0x40 MLOAD DUP1 SWAP2 SUB SWAP1 RETURN JUMPDEST PUSH2 0x520 PUSH1 0x4 DUP1 CALLDATASIZE SUB DUP2 ADD SWAP1 PUSH2 0x51B SWAP2 SWAP1 PUSH2 0x3545 JUMP JUMPDEST PUSH2 0x2B31 JUMP JUMPDEST STOP JUMPDEST PUSH2 0x53C PUSH1 0x4 DUP1 CALLDATASIZE SUB DUP2 ADD SWAP1 PUSH2 0x537 SWAP2 SWAP1 PUSH2 0x37CF JUMP JUMPDEST PUSH2 0x2CC6 JUMP JUMPDEST PUSH1 0x40 MLOAD PUSH2 0x54D SWAP6 SWAP5 SWAP4 SWAP3 SWAP2 SWAP1 PUSH2 0x4154 JUMP JUMPDEST PUSH1 0x40 MLOAD DUP1 SWAP2 SUB SWAP1 RETURN JUMPDEST PUSH2 0x55E PUSH2 0x2E69 JUMP JUMPDEST PUSH1 0x40 MLOAD PUSH2 0x56B SWAP2 SWAP1 PUSH2 0x3F7A JUMP JUMPDEST PUSH1 0x40 MLOAD DUP1 SWAP2 SUB SWAP1 RETURN JUMPDEST PUSH1 0x60 DUP1 PUSH1 0x0 DUP1 PUSH1 0x0 PUSH2 0x585 DUP7 PUSH2 0x3091 JUMP JUMPDEST SWAP1 POP PUSH1 0x8 DUP2 DUP2 SLOAD DUP2 LT PUSH2 0x594 JUMPI INVALID JUMPDEST SWAP1 PUSH1 0x0 MSTORE PUSH1 0x20 PUSH1 0x0 KECCAK256 SWAP1 PUSH1 0x4 MUL ADD PUSH1 0x1 ADD PUSH1 0x8 DUP3 DUP2 SLOAD DUP2 LT PUSH2 0x5B2 JUMPI INVALID JUMPDEST SWAP1 PUSH1 0x0 MSTORE PUSH1 0x20 PUSH1 0x0 KECCAK256 SWAP1 PUSH1 0x4 MUL ADD PUSH1 0x2 ADD PUSH1 0x8 DUP4 DUP2 SLOAD DUP2 LT PUSH2 0x5D0 JUMPI INVALID JUMPDEST SWAP1 PUSH1 0x0 MSTORE PUSH1 0x20 PUSH1 0x0 KECCAK256 SWAP1 PUSH1 0x4 MUL ADD PUSH1 0x3 ADD PUSH1 0x0 SWAP1 SLOAD SWAP1 PUSH2 0x100 EXP SWAP1 DIV PUSH20 0xFFFFFFFFFFFFFFFFFFFFFFFFFFFFFFFFFFFFFFFF AND PUSH1 0x8 DUP5 DUP2 SLOAD DUP2 LT PUSH2 0x60F JUMPI INVALID JUMPDEST SWAP1 PUSH1 0x0 MSTORE PUSH1 0x20 PUSH1 0x0 KECCAK256 SWAP1 PUSH1 0x4 MUL ADD PUSH1 0x3 ADD PUSH1 0x14 SWAP1 SLOAD SWAP1 PUSH2 0x100 EXP SWAP1 DIV PUSH1 0xFF AND DUP4 DUP1 SLOAD PUSH1 0x1 DUP2 PUSH1 0x1 AND ISZERO PUSH2 0x100 MUL SUB AND PUSH1 0x2 SWAP1 DIV DUP1 PUSH1 0x1F ADD PUSH1 0x20 DUP1 SWAP2 DIV MUL PUSH1 0x20 ADD PUSH1 0x40 MLOAD SWAP1 DUP2 ADD PUSH1 0x40 MSTORE DUP1 SWAP3 SWAP2 SWAP1 DUP2 DUP2 MSTORE PUSH1 0x20 ADD DUP3 DUP1 SLOAD PUSH1 0x1 DUP2 PUSH1 0x1 AND ISZERO PUSH2 0x100 MUL SUB AND PUSH1 0x2 SWAP1 DIV DUP1 ISZERO PUSH2 0x6C3 JUMPI DUP1 PUSH1 0x1F LT PUSH2 0x698 JUMPI PUSH2 0x100 DUP1 DUP4 SLOAD DIV MUL DUP4 MSTORE SWAP2 PUSH1 0x20 ADD SWAP2 PUSH2 0x6C3 JUMP JUMPDEST DUP3 ADD SWAP2 SWAP1 PUSH1 0x0 MSTORE PUSH1 0x20 PUSH1 0x0 KECCAK256 SWAP1 JUMPDEST DUP2 SLOAD DUP2 MSTORE SWAP1 PUSH1 0x1 ADD SWAP1 PUSH1 0x20 ADD DUP1 DUP4 GT PUSH2 0x6A6 JUMPI DUP3 SWAP1 SUB PUSH1 0x1F AND DUP3 ADD SWAP2 JUMPDEST POP POP POP POP POP SWAP4 POP DUP3 DUP1 SLOAD PUSH1 0x1 DUP2 PUSH1 0x1 AND ISZERO PUSH2 0x100 MUL SUB AND PUSH1 0x2 SWAP1 DIV DUP1 PUSH1 0x1F ADD PUSH1 0x20 DUP1 SWAP2 DIV MUL PUSH1 0x20 ADD PUSH1 0x40 MLOAD SWAP1 DUP2 ADD PUSH1 0x40 MSTORE DUP1 SWAP3 SWAP2 SWAP1 DUP2 DUP2 MSTORE PUSH1 0x20 ADD DUP3 DUP1 SLOAD PUSH1 0x1 DUP2 PUSH1 0x1 AND ISZERO PUSH2 0x100 MUL SUB AND PUSH1 0x2 SWAP1 DIV DUP1 ISZERO PUSH2 0x75F JUMPI DUP1 PUSH1 0x1F LT PUSH2 0x734 JUMPI PUSH2 0x100 DUP1 DUP4 SLOAD DIV MUL DUP4 MSTORE SWAP2 PUSH1 0x20 ADD SWAP2 PUSH2 0x75F JUMP JUMPDEST DUP3 ADD SWAP2 SWAP1 PUSH1 0x0 MSTORE PUSH1 0x20 PUSH1 0x0 KECCAK256 SWAP1 JUMPDEST DUP2 SLOAD DUP2 MSTORE SWAP1 PUSH1 0x1 ADD SWAP1 PUSH1 0x20 ADD DUP1 DUP4 GT PUSH2 0x742 JUMPI DUP3 SWAP1 SUB PUSH1 0x1F AND DUP3 ADD SWAP2 JUMPDEST POP POP POP POP POP SWAP3 POP SWAP5 POP SWAP5 POP SWAP5 POP SWAP5 POP POP SWAP2 SWAP4 POP SWAP2 SWAP4 JUMP JUMPDEST PUSH2 0x77F DUP3 PUSH2 0x3123 JUMP JUMPDEST POP PUSH1 0x8 PUSH1 0x40 MLOAD DUP1 PUSH1 0xA0 ADD PUSH1 0x40 MSTORE DUP1 PUSH1 0x1 SLOAD DUP2 MSTORE PUSH1 0x20 ADD DUP7 DUP2 MSTORE PUSH1 0x20 ADD DUP6 DUP2 MSTORE PUSH1 0x20 ADD DUP5 PUSH20 0xFFFFFFFFFFFFFFFFFFFFFFFFFFFFFFFFFFFFFFFF AND DUP2 MSTORE PUSH1 0x20 ADD DUP4 ISZERO ISZERO DUP2 MSTORE POP SWAP1 DUP1 PUSH1 0x1 DUP2 SLOAD ADD DUP1 DUP3 SSTORE DUP1 SWAP2 POP POP PUSH1 0x1 SWAP1 SUB SWAP1 PUSH1 0x0 MSTORE PUSH1 0x20 PUSH1 0x0 KECCAK256 SWAP1 PUSH1 0x4 MUL ADD PUSH1 0x0 SWAP1 SWAP2 SWAP1 SWAP2 SWAP1 SWAP2 POP PUSH1 0x0 DUP3 ADD MLOAD DUP2 PUSH1 0x0 ADD SSTORE PUSH1 0x20 DUP3 ADD MLOAD DUP2 PUSH1 0x1 ADD SWAP1 DUP1 MLOAD SWAP1 PUSH1 0x20 ADD SWAP1 PUSH2 0x812 SWAP3 SWAP2 SWAP1 PUSH2 0x32DF JUMP JUMPDEST POP PUSH1 0x40 DUP3 ADD MLOAD DUP2 PUSH1 0x2 ADD SWAP1 DUP1 MLOAD SWAP1 PUSH1 0x20 ADD SWAP1 PUSH2 0x82F SWAP3 SWAP2 SWAP1 PUSH2 0x32DF JUMP JUMPDEST POP PUSH1 0x60 DUP3 ADD MLOAD DUP2 PUSH1 0x3 ADD PUSH1 0x0 PUSH2 0x100 EXP DUP2 SLOAD DUP2 PUSH20 0xFFFFFFFFFFFFFFFFFFFFFFFFFFFFFFFFFFFFFFFF MUL NOT AND SWAP1 DUP4 PUSH20 0xFFFFFFFFFFFFFFFFFFFFFFFFFFFFFFFFFFFFFFFF AND MUL OR SWAP1 SSTORE POP PUSH1 0x80 DUP3 ADD MLOAD DUP2 PUSH1 0x3 ADD PUSH1 0x14 PUSH2 0x100 EXP DUP2 SLOAD DUP2 PUSH1 0xFF MUL NOT AND SWAP1 DUP4 ISZERO ISZERO MUL OR SWAP1 SSTORE POP POP POP PUSH32 0x1D6A52C11773994A4A6EAA1ACE32B929E7F0900BBE29DB3F1D36A3CD45F1486C PUSH1 0x1 SLOAD DUP6 DUP6 DUP6 DUP6 PUSH1 0x40 MLOAD PUSH2 0x8D2 SWAP6 SWAP5 SWAP4 SWAP3 SWAP2 SWAP1 PUSH2 0x4154 JUMP JUMPDEST PUSH1 0x40 MLOAD DUP1 SWAP2 SUB SWAP1 LOG1 PUSH1 0x1 PUSH1 0x0 DUP2 SLOAD DUP1 SWAP3 SWAP2 SWAP1 PUSH1 0x1 ADD SWAP2 SWAP1 POP SSTORE POP POP POP POP POP JUMP JUMPDEST PUSH1 0x0 PUSH1 0x4 DUP1 SLOAD SWAP1 POP SWAP1 POP SWAP1 JUMP JUMPDEST PUSH1 0x0 PUSH2 0x90A DUP5 PUSH2 0x3123 JUMP JUMPDEST SWAP1 POP DUP3 PUSH1 0x6 DUP3 DUP2 SLOAD DUP2 LT PUSH2 0x91A JUMPI INVALID JUMPDEST SWAP1 PUSH1 0x0 MSTORE PUSH1 0x20 PUSH1 0x0 KECCAK256 SWAP1 PUSH1 0x3 MUL ADD PUSH1 0x1 ADD SWAP1 DUP1 MLOAD SWAP1 PUSH1 0x20 ADD SWAP1 PUSH2 0x93E SWAP3 SWAP2 SWAP1 PUSH2 0x32DF JUMP JUMPDEST POP DUP2 PUSH1 0x6 DUP3 DUP2 SLOAD DUP2 LT PUSH2 0x94D JUMPI INVALID JUMPDEST SWAP1 PUSH1 0x0 MSTORE PUSH1 0x20 PUSH1 0x0 KECCAK256 SWAP1 PUSH1 0x3 MUL ADD PUSH1 0x2 ADD PUSH1 0x0 PUSH2 0x100 EXP DUP2 SLOAD DUP2 PUSH20 0xFFFFFFFFFFFFFFFFFFFFFFFFFFFFFFFFFFFFFFFF MUL NOT AND SWAP1 DUP4 PUSH20 0xFFFFFFFFFFFFFFFFFFFFFFFFFFFFFFFFFFFFFFFF AND MUL OR SWAP1 SSTORE POP PUSH32 0x239B189726729811E87D7845D82777804144AF4E76981AF04D802A85F7442B66 PUSH1 0x6 DUP3 DUP2 SLOAD DUP2 LT PUSH2 0x9CA JUMPI INVALID JUMPDEST SWAP1 PUSH1 0x0 MSTORE PUSH1 0x20 PUSH1 0x0 KECCAK256 SWAP1 PUSH1 0x3 MUL ADD PUSH1 0x0 ADD PUSH1 0x0 SWAP1 SLOAD SWAP1 PUSH2 0x100 EXP SWAP1 DIV PUSH20 0xFFFFFFFFFFFFFFFFFFFFFFFFFFFFFFFFFFFFFFFF AND PUSH1 0x6 DUP4 DUP2 SLOAD DUP2 LT PUSH2 0xA09 JUMPI INVALID JUMPDEST SWAP1 PUSH1 0x0 MSTORE PUSH1 0x20 PUSH1 0x0 KECCAK256 SWAP1 PUSH1 0x3 MUL ADD PUSH1 0x1 ADD PUSH1 0x6 DUP5 DUP2 SLOAD DUP2 LT PUSH2 0xA27 JUMPI INVALID JUMPDEST SWAP1 PUSH1 0x0 MSTORE PUSH1 0x20 PUSH1 0x0 KECCAK256 SWAP1 PUSH1 0x3 MUL ADD PUSH1 0x2 ADD PUSH1 0x0 SWAP1 SLOAD SWAP1 PUSH2 0x100 EXP SWAP1 DIV PUSH20 0xFFFFFFFFFFFFFFFFFFFFFFFFFFFFFFFFFFFFFFFF AND PUSH1 0x40 MLOAD PUSH2 0xA68 SWAP4 SWAP3 SWAP2 SWAP1 PUSH2 0x3E7A JUMP JUMPDEST PUSH1 0x40 MLOAD DUP1 SWAP2 SUB SWAP1 LOG1 POP POP POP POP JUMP JUMPDEST PUSH1 0x0 PUSH2 0xA81 DUP6 PUSH2 0x3091 JUMP JUMPDEST SWAP1 POP DUP4 PUSH1 0x8 DUP3 DUP2 SLOAD DUP2 LT PUSH2 0xA91 JUMPI INVALID JUMPDEST SWAP1 PUSH1 0x0 MSTORE PUSH1 0x20 PUSH1 0x0 KECCAK256 SWAP1 PUSH1 0x4 MUL ADD PUSH1 0x1 ADD SWAP1 DUP1 MLOAD SWAP1 PUSH1 0x20 ADD SWAP1 PUSH2 0xAB5 SWAP3 SWAP2 SWAP1 PUSH2 0x32DF JUMP JUMPDEST POP DUP3 PUSH1 0x8 DUP3 DUP2 SLOAD DUP2 LT PUSH2 0xAC4 JUMPI INVALID JUMPDEST SWAP1 PUSH1 0x0 MSTORE PUSH1 0x20 PUSH1 0x0 KECCAK256 SWAP1 PUSH1 0x4 MUL ADD PUSH1 0x2 ADD SWAP1 DUP1 MLOAD SWAP1 PUSH1 0x20 ADD SWAP1 PUSH2 0xAE8 SWAP3 SWAP2 SWAP1 PUSH2 0x32DF JUMP JUMPDEST POP DUP2 PUSH1 0x8 DUP3 DUP2 SLOAD DUP2 LT PUSH2 0xAF7 JUMPI INVALID JUMPDEST SWAP1 PUSH1 0x0 MSTORE PUSH1 0x20 PUSH1 0x0 KECCAK256 SWAP1 PUSH1 0x4 MUL ADD PUSH1 0x3 ADD PUSH1 0x0 PUSH2 0x100 EXP DUP2 SLOAD DUP2 PUSH20 0xFFFFFFFFFFFFFFFFFFFFFFFFFFFFFFFFFFFFFFFF MUL NOT AND SWAP1 DUP4 PUSH20 0xFFFFFFFFFFFFFFFFFFFFFFFFFFFFFFFFFFFFFFFF AND MUL OR SWAP1 SSTORE POP PUSH32 0xBA2BD0D5052FB9458EAAC383932E8112A57BFC6A1836AD7118B1673447D3E6AE PUSH1 0x8 DUP3 DUP2 SLOAD DUP2 LT PUSH2 0xB74 JUMPI INVALID JUMPDEST SWAP1 PUSH1 0x0 MSTORE PUSH1 0x20 PUSH1 0x0 KECCAK256 SWAP1 PUSH1 0x4 MUL ADD PUSH1 0x0 ADD SLOAD PUSH1 0x8 DUP4 DUP2 SLOAD DUP2 LT PUSH2 0xB93 JUMPI INVALID JUMPDEST SWAP1 PUSH1 0x0 MSTORE PUSH1 0x20 PUSH1 0x0 KECCAK256 SWAP1 PUSH1 0x4 MUL ADD PUSH1 0x1 ADD PUSH1 0x8 DUP5 DUP2 SLOAD DUP2 LT PUSH2 0xBB1 JUMPI INVALID JUMPDEST SWAP1 PUSH1 0x0 MSTORE PUSH1 0x20 PUSH1 0x0 KECCAK256 SWAP1 PUSH1 0x4 MUL ADD PUSH1 0x2 ADD PUSH1 0x8 DUP6 DUP2 SLOAD DUP2 LT PUSH2 0xBCF JUMPI INVALID JUMPDEST SWAP1 PUSH1 0x0 MSTORE PUSH1 0x20 PUSH1 0x0 KECCAK256 SWAP1 PUSH1 0x4 MUL ADD PUSH1 0x3 ADD PUSH1 0x0 SWAP1 SLOAD SWAP1 PUSH2 0x100 EXP SWAP1 DIV PUSH20 0xFFFFFFFFFFFFFFFFFFFFFFFFFFFFFFFFFFFFFFFF AND PUSH1 0x40 MLOAD PUSH2 0xC11 SWAP5 SWAP4 SWAP3 SWAP2 SWAP1 PUSH2 0x41B5 JUMP JUMPDEST PUSH1 0x40 MLOAD DUP1 SWAP2 SUB SWAP1 LOG1 POP POP POP POP POP JUMP JUMPDEST PUSH1 0x0 PUSH2 0xC2B DUP3 PUSH2 0x3201 JUMP JUMPDEST SWAP1 POP PUSH1 0x0 PUSH1 0x4 DUP3 DUP2 SLOAD DUP2 LT PUSH2 0xC3C JUMPI INVALID JUMPDEST SWAP1 PUSH1 0x0 MSTORE PUSH1 0x20 PUSH1 0x0 KECCAK256 SWAP1 PUSH1 0x6 MUL ADD PUSH1 0x5 ADD PUSH1 0x0 PUSH2 0x100 EXP DUP2 SLOAD DUP2 PUSH1 0xFF MUL NOT AND SWAP1 DUP4 ISZERO ISZERO MUL OR SWAP1 SSTORE POP PUSH32 0x5818F5E23A2C2BB34C81792EA8E3397D3F8AD179CB93A5FA57B3D4681564AA0 PUSH1 0x4 DUP3 DUP2 SLOAD DUP2 LT PUSH2 0xC92 JUMPI INVALID JUMPDEST SWAP1 PUSH1 0x0 MSTORE PUSH1 0x20 PUSH1 0x0 KECCAK256 SWAP1 PUSH1 0x6 MUL ADD PUSH1 0x0 ADD PUSH1 0x0 SWAP1 SLOAD SWAP1 PUSH2 0x100 EXP SWAP1 DIV PUSH20 0xFFFFFFFFFFFFFFFFFFFFFFFFFFFFFFFFFFFFFFFF AND PUSH1 0x4 DUP4 DUP2 SLOAD DUP2 LT PUSH2 0xCD1 JUMPI INVALID JUMPDEST SWAP1 PUSH1 0x0 MSTORE PUSH1 0x20 PUSH1 0x0 KECCAK256 SWAP1 PUSH1 0x6 MUL ADD PUSH1 0x1 ADD PUSH1 0x4 DUP5 DUP2 SLOAD DUP2 LT PUSH2 0xCEF JUMPI INVALID JUMPDEST SWAP1 PUSH1 0x0 MSTORE PUSH1 0x20 PUSH1 0x0 KECCAK256 SWAP1 PUSH1 0x6 MUL ADD PUSH1 0x2 ADD PUSH1 0x4 DUP6 DUP2 SLOAD DUP2 LT PUSH2 0xD0D JUMPI INVALID JUMPDEST SWAP1 PUSH1 0x0 MSTORE PUSH1 0x20 PUSH1 0x0 KECCAK256 SWAP1 PUSH1 0x6 MUL ADD PUSH1 0x3 ADD PUSH1 0x4 DUP7 DUP2 SLOAD DUP2 LT PUSH2 0xD2B JUMPI INVALID JUMPDEST SWAP1 PUSH1 0x0 MSTORE PUSH1 0x20 PUSH1 0x0 KECCAK256 SWAP1 PUSH1 0x6 MUL ADD PUSH1 0x4 ADD SLOAD PUSH1 0x4 DUP8 DUP2 SLOAD DUP2 LT PUSH2 0xD4A JUMPI INVALID JUMPDEST SWAP1 PUSH1 0x0 MSTORE PUSH1 0x20 PUSH1 0x0 KECCAK256 SWAP1 PUSH1 0x6 MUL ADD PUSH1 0x5 ADD PUSH1 0x0 SWAP1 SLOAD SWAP1 PUSH2 0x100 EXP SWAP1 DIV PUSH1 0xFF AND PUSH1 0x40 MLOAD PUSH2 0xD7B SWAP7 SWAP6 SWAP5 SWAP4 SWAP3 SWAP2 SWAP1 PUSH2 0x3F04 JUMP JUMPDEST PUSH1 0x40 MLOAD DUP1 SWAP2 SUB SWAP1 LOG1 POP POP JUMP JUMPDEST PUSH1 0x60 PUSH1 0x0 PUSH1 0x4 DUP1 SLOAD SWAP1 POP PUSH8 0xFFFFFFFFFFFFFFFF DUP2 GT DUP1 ISZERO PUSH2 0xDA7 JUMPI PUSH1 0x0 DUP1 REVERT JUMPDEST POP PUSH1 0x40 MLOAD SWAP1 DUP1 DUP3 MSTORE DUP1 PUSH1 0x20 MUL PUSH1 0x20 ADD DUP3 ADD PUSH1 0x40 MSTORE DUP1 ISZERO PUSH2 0xDE1 JUMPI DUP2 PUSH1 0x20 ADD JUMPDEST PUSH2 0xDCE PUSH2 0x336D JUMP JUMPDEST DUP2 MSTORE PUSH1 0x20 ADD SWAP1 PUSH1 0x1 SWAP1 SUB SWAP1 DUP2 PUSH2 0xDC6 JUMPI SWAP1 POP JUMPDEST POP SWAP1 POP PUSH1 0x0 JUMPDEST PUSH1 0x4 DUP1 SLOAD SWAP1 POP DUP2 LT ISZERO PUSH2 0x109F JUMPI PUSH1 0x4 DUP2 DUP2 SLOAD DUP2 LT PUSH2 0xE01 JUMPI INVALID JUMPDEST SWAP1 PUSH1 0x0 MSTORE PUSH1 0x20 PUSH1 0x0 KECCAK256 SWAP1 PUSH1 0x6 MUL ADD PUSH1 0x40 MLOAD DUP1 PUSH1 0xC0 ADD PUSH1 0x40 MSTORE SWAP1 DUP2 PUSH1 0x0 DUP3 ADD PUSH1 0x0 SWAP1 SLOAD SWAP1 PUSH2 0x100 EXP SWAP1 DIV PUSH20 0xFFFFFFFFFFFFFFFFFFFFFFFFFFFFFFFFFFFFFFFF AND PUSH20 0xFFFFFFFFFFFFFFFFFFFFFFFFFFFFFFFFFFFFFFFF AND PUSH20 0xFFFFFFFFFFFFFFFFFFFFFFFFFFFFFFFFFFFFFFFF AND DUP2 MSTORE PUSH1 0x20 ADD PUSH1 0x1 DUP3 ADD DUP1 SLOAD PUSH1 0x1 DUP2 PUSH1 0x1 AND ISZERO PUSH2 0x100 MUL SUB AND PUSH1 0x2 SWAP1 DIV DUP1 PUSH1 0x1F ADD PUSH1 0x20 DUP1 SWAP2 DIV MUL PUSH1 0x20 ADD PUSH1 0x40 MLOAD SWAP1 DUP2 ADD PUSH1 0x40 MSTORE DUP1 SWAP3 SWAP2 SWAP1 DUP2 DUP2 MSTORE PUSH1 0x20 ADD DUP3 DUP1 SLOAD PUSH1 0x1 DUP2 PUSH1 0x1 AND ISZERO PUSH2 0x100 MUL SUB AND PUSH1 0x2 SWAP1 DIV DUP1 ISZERO PUSH2 0xF09 JUMPI DUP1 PUSH1 0x1F LT PUSH2 0xEDE JUMPI PUSH2 0x100 DUP1 DUP4 SLOAD DIV MUL DUP4 MSTORE SWAP2 PUSH1 0x20 ADD SWAP2 PUSH2 0xF09 JUMP JUMPDEST DUP3 ADD SWAP2 SWAP1 PUSH1 0x0 MSTORE PUSH1 0x20 PUSH1 0x0 KECCAK256 SWAP1 JUMPDEST DUP2 SLOAD DUP2 MSTORE SWAP1 PUSH1 0x1 ADD SWAP1 PUSH1 0x20 ADD DUP1 DUP4 GT PUSH2 0xEEC JUMPI DUP3 SWAP1 SUB PUSH1 0x1F AND DUP3 ADD SWAP2 JUMPDEST POP POP POP POP POP DUP2 MSTORE PUSH1 0x20 ADD PUSH1 0x2 DUP3 ADD DUP1 SLOAD PUSH1 0x1 DUP2 PUSH1 0x1 AND ISZERO PUSH2 0x100 MUL SUB AND PUSH1 0x2 SWAP1 DIV DUP1 PUSH1 0x1F ADD PUSH1 0x20 DUP1 SWAP2 DIV MUL PUSH1 0x20 ADD PUSH1 0x40 MLOAD SWAP1 DUP2 ADD PUSH1 0x40 MSTORE DUP1 SWAP3 SWAP2 SWAP1 DUP2 DUP2 MSTORE PUSH1 0x20 ADD DUP3 DUP1 SLOAD PUSH1 0x1 DUP2 PUSH1 0x1 AND ISZERO PUSH2 0x100 MUL SUB AND PUSH1 0x2 SWAP1 DIV DUP1 ISZERO PUSH2 0xFAB JUMPI DUP1 PUSH1 0x1F LT PUSH2 0xF80 JUMPI PUSH2 0x100 DUP1 DUP4 SLOAD DIV MUL DUP4 MSTORE SWAP2 PUSH1 0x20 ADD SWAP2 PUSH2 0xFAB JUMP JUMPDEST DUP3 ADD SWAP2 SWAP1 PUSH1 0x0 MSTORE PUSH1 0x20 PUSH1 0x0 KECCAK256 SWAP1 JUMPDEST DUP2 SLOAD DUP2 MSTORE SWAP1 PUSH1 0x1 ADD SWAP1 PUSH1 0x20 ADD DUP1 DUP4 GT PUSH2 0xF8E JUMPI DUP3 SWAP1 SUB PUSH1 0x1F AND DUP3 ADD SWAP2 JUMPDEST POP POP POP POP POP DUP2 MSTORE PUSH1 0x20 ADD PUSH1 0x3 DUP3 ADD DUP1 SLOAD PUSH1 0x1 DUP2 PUSH1 0x1 AND ISZERO PUSH2 0x100 MUL SUB AND PUSH1 0x2 SWAP1 DIV DUP1 PUSH1 0x1F ADD PUSH1 0x20 DUP1 SWAP2 DIV MUL PUSH1 0x20 ADD PUSH1 0x40 MLOAD SWAP1 DUP2 ADD PUSH1 0x40 MSTORE DUP1 SWAP3 SWAP2 SWAP1 DUP2 DUP2 MSTORE PUSH1 0x20 ADD DUP3 DUP1 SLOAD PUSH1 0x1 DUP2 PUSH1 0x1 AND ISZERO PUSH2 0x100 MUL SUB AND PUSH1 0x2 SWAP1 DIV DUP1 ISZERO PUSH2 0x104D JUMPI DUP1 PUSH1 0x1F LT PUSH2 0x1022 JUMPI PUSH2 0x100 DUP1 DUP4 SLOAD DIV MUL DUP4 MSTORE SWAP2 PUSH1 0x20 ADD SWAP2 PUSH2 0x104D JUMP JUMPDEST DUP3 ADD SWAP2 SWAP1 PUSH1 0x0 MSTORE PUSH1 0x20 PUSH1 0x0 KECCAK256 SWAP1 JUMPDEST DUP2 SLOAD DUP2 MSTORE SWAP1 PUSH1 0x1 ADD SWAP1 PUSH1 0x20 ADD DUP1 DUP4 GT PUSH2 0x1030 JUMPI DUP3 SWAP1 SUB PUSH1 0x1F AND DUP3 ADD SWAP2 JUMPDEST POP POP POP POP POP DUP2 MSTORE PUSH1 0x20 ADD PUSH1 0x4 DUP3 ADD SLOAD DUP2 MSTORE PUSH1 0x20 ADD PUSH1 0x5 DUP3 ADD PUSH1 0x0 SWAP1 SLOAD SWAP1 PUSH2 0x100 EXP SWAP1 DIV PUSH1 0xFF AND ISZERO ISZERO ISZERO ISZERO DUP2 MSTORE POP POP DUP3 DUP3 DUP2 MLOAD DUP2 LT PUSH2 0x1087 JUMPI INVALID JUMPDEST PUSH1 0x20 MUL PUSH1 0x20 ADD ADD DUP2 SWAP1 MSTORE POP DUP1 DUP1 PUSH1 0x1 ADD SWAP2 POP POP PUSH2 0xDE7 JUMP JUMPDEST POP DUP1 SWAP2 POP POP SWAP1 JUMP JUMPDEST PUSH1 0x60 PUSH1 0x0 PUSH1 0x8 DUP1 SLOAD SWAP1 POP PUSH8 0xFFFFFFFFFFFFFFFF DUP2 GT DUP1 ISZERO PUSH2 0x10C7 JUMPI PUSH1 0x0 DUP1 REVERT JUMPDEST POP PUSH1 0x40 MLOAD SWAP1 DUP1 DUP3 MSTORE DUP1 PUSH1 0x20 MUL PUSH1 0x20 ADD DUP3 ADD PUSH1 0x40 MSTORE DUP1 ISZERO PUSH2 0x1101 JUMPI DUP2 PUSH1 0x20 ADD JUMPDEST PUSH2 0x10EE PUSH2 0x33BB JUMP JUMPDEST DUP2 MSTORE PUSH1 0x20 ADD SWAP1 PUSH1 0x1 SWAP1 SUB SWAP1 DUP2 PUSH2 0x10E6 JUMPI SWAP1 POP JUMPDEST POP SWAP1 POP PUSH1 0x0 JUMPDEST PUSH1 0x8 DUP1 SLOAD SWAP1 POP DUP2 LT ISZERO PUSH2 0x131D JUMPI PUSH1 0x8 DUP2 DUP2 SLOAD DUP2 LT PUSH2 0x1121 JUMPI INVALID JUMPDEST SWAP1 PUSH1 0x0 MSTORE PUSH1 0x20 PUSH1 0x0 KECCAK256 SWAP1 PUSH1 0x4 MUL ADD PUSH1 0x40 MLOAD DUP1 PUSH1 0xA0 ADD PUSH1 0x40 MSTORE SWAP1 DUP2 PUSH1 0x0 DUP3 ADD SLOAD DUP2 MSTORE PUSH1 0x20 ADD PUSH1 0x1 DUP3 ADD DUP1 SLOAD PUSH1 0x1 DUP2 PUSH1 0x1 AND ISZERO PUSH2 0x100 MUL SUB AND PUSH1 0x2 SWAP1 DIV DUP1 PUSH1 0x1F ADD PUSH1 0x20 DUP1 SWAP2 DIV MUL PUSH1 0x20 ADD PUSH1 0x40 MLOAD SWAP1 DUP2 ADD PUSH1 0x40 MSTORE DUP1 SWAP3 SWAP2 SWAP1 DUP2 DUP2 MSTORE PUSH1 0x20 ADD DUP3 DUP1 SLOAD PUSH1 0x1 DUP2 PUSH1 0x1 AND ISZERO PUSH2 0x100 MUL SUB AND PUSH1 0x2 SWAP1 DIV DUP1 ISZERO PUSH2 0x11DD JUMPI DUP1 PUSH1 0x1F LT PUSH2 0x11B2 JUMPI PUSH2 0x100 DUP1 DUP4 SLOAD DIV MUL DUP4 MSTORE SWAP2 PUSH1 0x20 ADD SWAP2 PUSH2 0x11DD JUMP JUMPDEST DUP3 ADD SWAP2 SWAP1 PUSH1 0x0 MSTORE PUSH1 0x20 PUSH1 0x0 KECCAK256 SWAP1 JUMPDEST DUP2 SLOAD DUP2 MSTORE SWAP1 PUSH1 0x1 ADD SWAP1 PUSH1 0x20 ADD DUP1 DUP4 GT PUSH2 0x11C0 JUMPI DUP3 SWAP1 SUB PUSH1 0x1F AND DUP3 ADD SWAP2 JUMPDEST POP POP POP POP POP DUP2 MSTORE PUSH1 0x20 ADD PUSH1 0x2 DUP3 ADD DUP1 SLOAD PUSH1 0x1 DUP2 PUSH1 0x1 AND ISZERO PUSH2 0x100 MUL SUB AND PUSH1 0x2 SWAP1 DIV DUP1 PUSH1 0x1F ADD PUSH1 0x20 DUP1 SWAP2 DIV MUL PUSH1 0x20 ADD PUSH1 0x40 MLOAD SWAP1 DUP2 ADD PUSH1 0x40 MSTORE DUP1 SWAP3 SWAP2 SWAP1 DUP2 DUP2 MSTORE PUSH1 0x20 ADD DUP3 DUP1 SLOAD PUSH1 0x1 DUP2 PUSH1 0x1 AND ISZERO PUSH2 0x100 MUL SUB AND PUSH1 0x2 SWAP1 DIV DUP1 ISZERO PUSH2 0x127F JUMPI DUP1 PUSH1 0x1F LT PUSH2 0x1254 JUMPI PUSH2 0x100 DUP1 DUP4 SLOAD DIV MUL DUP4 MSTORE SWAP2 PUSH1 0x20 ADD SWAP2 PUSH2 0x127F JUMP JUMPDEST DUP3 ADD SWAP2 SWAP1 PUSH1 0x0 MSTORE PUSH1 0x20 PUSH1 0x0 KECCAK256 SWAP1 JUMPDEST DUP2 SLOAD DUP2 MSTORE SWAP1 PUSH1 0x1 ADD SWAP1 PUSH1 0x20 ADD DUP1 DUP4 GT PUSH2 0x1262 JUMPI DUP3 SWAP1 SUB PUSH1 0x1F AND DUP3 ADD SWAP2 JUMPDEST POP POP POP POP POP DUP2 MSTORE PUSH1 0x20 ADD PUSH1 0x3 DUP3 ADD PUSH1 0x0 SWAP1 SLOAD SWAP1 PUSH2 0x100 EXP SWAP1 DIV PUSH20 0xFFFFFFFFFFFFFFFFFFFFFFFFFFFFFFFFFFFFFFFF AND PUSH20 0xFFFFFFFFFFFFFFFFFFFFFFFFFFFFFFFFFFFFFFFF AND PUSH20 0xFFFFFFFFFFFFFFFFFFFFFFFFFFFFFFFFFFFFFFFF AND DUP2 MSTORE PUSH1 0x20 ADD PUSH1 0x3 DUP3 ADD PUSH1 0x14 SWAP1 SLOAD SWAP1 PUSH2 0x100 EXP SWAP1 DIV PUSH1 0xFF AND ISZERO ISZERO ISZERO ISZERO DUP2 MSTORE POP POP DUP3 DUP3 DUP2 MLOAD DUP2 LT PUSH2 0x1305 JUMPI INVALID JUMPDEST PUSH1 0x20 MUL PUSH1 0x20 ADD ADD DUP2 SWAP1 MSTORE POP DUP1 DUP1 PUSH1 0x1 ADD SWAP2 POP POP PUSH2 0x1107 JUMP JUMPDEST POP DUP1 SWAP2 POP POP SWAP1 JUMP JUMPDEST PUSH1 0x0 PUSH2 0x1330 DUP3 PUSH2 0x3091 JUMP JUMPDEST SWAP1 POP PUSH1 0x0 PUSH1 0x8 DUP3 DUP2 SLOAD DUP2 LT PUSH2 0x1341 JUMPI INVALID JUMPDEST SWAP1 PUSH1 0x0 MSTORE PUSH1 0x20 PUSH1 0x0 KECCAK256 SWAP1 PUSH1 0x4 MUL ADD PUSH1 0x3 ADD PUSH1 0x14 PUSH2 0x100 EXP DUP2 SLOAD DUP2 PUSH1 0xFF MUL NOT AND SWAP1 DUP4 ISZERO ISZERO MUL OR SWAP1 SSTORE POP PUSH32 0xEF9006907EB20210E880B0BB1C39946083BCEC24688718507D63A259FFA8351B PUSH1 0x8 DUP3 DUP2 SLOAD DUP2 LT PUSH2 0x1397 JUMPI INVALID JUMPDEST SWAP1 PUSH1 0x0 MSTORE PUSH1 0x20 PUSH1 0x0 KECCAK256 SWAP1 PUSH1 0x4 MUL ADD PUSH1 0x0 ADD SLOAD PUSH1 0x8 DUP4 DUP2 SLOAD DUP2 LT PUSH2 0x13B6 JUMPI INVALID JUMPDEST SWAP1 PUSH1 0x0 MSTORE PUSH1 0x20 PUSH1 0x0 KECCAK256 SWAP1 PUSH1 0x4 MUL ADD PUSH1 0x1 ADD PUSH1 0x8 DUP5 DUP2 SLOAD DUP2 LT PUSH2 0x13D4 JUMPI INVALID JUMPDEST SWAP1 PUSH1 0x0 MSTORE PUSH1 0x20 PUSH1 0x0 KECCAK256 SWAP1 PUSH1 0x4 MUL ADD PUSH1 0x2 ADD PUSH1 0x8 DUP6 DUP2 SLOAD DUP2 LT PUSH2 0x13F2 JUMPI INVALID JUMPDEST SWAP1 PUSH1 0x0 MSTORE PUSH1 0x20 PUSH1 0x0 KECCAK256 SWAP1 PUSH1 0x4 MUL ADD PUSH1 0x3 ADD PUSH1 0x0 SWAP1 SLOAD SWAP1 PUSH2 0x100 EXP SWAP1 DIV PUSH20 0xFFFFFFFFFFFFFFFFFFFFFFFFFFFFFFFFFFFFFFFF AND PUSH1 0x8 DUP7 DUP2 SLOAD DUP2 LT PUSH2 0x1431 JUMPI INVALID JUMPDEST SWAP1 PUSH1 0x0 MSTORE PUSH1 0x20 PUSH1 0x0 KECCAK256 SWAP1 PUSH1 0x4 MUL ADD PUSH1 0x3 ADD PUSH1 0x14 SWAP1 SLOAD SWAP1 PUSH2 0x100 EXP SWAP1 DIV PUSH1 0xFF AND PUSH1 0x40 MLOAD PUSH2 0x1461 SWAP6 SWAP5 SWAP4 SWAP3 SWAP2 SWAP1 PUSH2 0x4208 JUMP JUMPDEST PUSH1 0x40 MLOAD DUP1 SWAP2 SUB SWAP1 LOG1 POP POP JUMP JUMPDEST PUSH1 0x60 PUSH1 0x0 DUP1 PUSH1 0x0 PUSH2 0x147D DUP6 PUSH2 0x3123 JUMP JUMPDEST SWAP1 POP PUSH1 0x6 DUP2 DUP2 SLOAD DUP2 LT PUSH2 0x148C JUMPI INVALID JUMPDEST SWAP1 PUSH1 0x0 MSTORE PUSH1 0x20 PUSH1 0x0 KECCAK256 SWAP1 PUSH1 0x3 MUL ADD PUSH1 0x1 ADD PUSH1 0x6 DUP3 DUP2 SLOAD DUP2 LT PUSH2 0x14AA JUMPI INVALID JUMPDEST SWAP1 PUSH1 0x0 MSTORE PUSH1 0x20 PUSH1 0x0 KECCAK256 SWAP1 PUSH1 0x3 MUL ADD PUSH1 0x2 ADD PUSH1 0x0 SWAP1 SLOAD SWAP1 PUSH2 0x100 EXP SWAP1 DIV PUSH20 0xFFFFFFFFFFFFFFFFFFFFFFFFFFFFFFFFFFFFFFFF AND PUSH1 0x6 DUP4 DUP2 SLOAD DUP2 LT PUSH2 0x14E9 JUMPI INVALID JUMPDEST SWAP1 PUSH1 0x0 MSTORE PUSH1 0x20 PUSH1 0x0 KECCAK256 SWAP1 PUSH1 0x3 MUL ADD PUSH1 0x2 ADD PUSH1 0x14 SWAP1 SLOAD SWAP1 PUSH2 0x100 EXP SWAP1 DIV PUSH1 0xFF AND DUP3 DUP1 SLOAD PUSH1 0x1 DUP2 PUSH1 0x1 AND ISZERO PUSH2 0x100 MUL SUB AND PUSH1 0x2 SWAP1 DIV DUP1 PUSH1 0x1F ADD PUSH1 0x20 DUP1 SWAP2 DIV MUL PUSH1 0x20 ADD PUSH1 0x40 MLOAD SWAP1 DUP2 ADD PUSH1 0x40 MSTORE DUP1 SWAP3 SWAP2 SWAP1 DUP2 DUP2 MSTORE PUSH1 0x20 ADD DUP3 DUP1 SLOAD PUSH1 0x1 DUP2 PUSH1 0x1 AND ISZERO PUSH2 0x100 MUL SUB AND PUSH1 0x2 SWAP1 DIV DUP1 ISZERO PUSH2 0x159D JUMPI DUP1 PUSH1 0x1F LT PUSH2 0x1572 JUMPI PUSH2 0x100 DUP1 DUP4 SLOAD DIV MUL DUP4 MSTORE SWAP2 PUSH1 0x20 ADD SWAP2 PUSH2 0x159D JUMP JUMPDEST DUP3 ADD SWAP2 SWAP1 PUSH1 0x0 MSTORE PUSH1 0x20 PUSH1 0x0 KECCAK256 SWAP1 JUMPDEST DUP2 SLOAD DUP2 MSTORE SWAP1 PUSH1 0x1 ADD SWAP1 PUSH1 0x20 ADD DUP1 DUP4 GT PUSH2 0x1580 JUMPI DUP3 SWAP1 SUB PUSH1 0x1F AND DUP3 ADD SWAP2 JUMPDEST POP POP POP POP POP SWAP3 POP SWAP4 POP SWAP4 POP SWAP4 POP POP SWAP2 SWAP4 SWAP1 SWAP3 POP JUMP JUMPDEST PUSH1 0x0 PUSH2 0x15BD DUP8 PUSH2 0x3201 JUMP JUMPDEST SWAP1 POP DUP6 PUSH1 0x4 DUP3 DUP2 SLOAD DUP2 LT PUSH2 0x15CD JUMPI INVALID JUMPDEST SWAP1 PUSH1 0x0 MSTORE PUSH1 0x20 PUSH1 0x0 KECCAK256 SWAP1 PUSH1 0x6 MUL ADD PUSH1 0x1 ADD SWAP1 DUP1 MLOAD SWAP1 PUSH1 0x20 ADD SWAP1 PUSH2 0x15F1 SWAP3 SWAP2 SWAP1 PUSH2 0x32DF JUMP JUMPDEST POP DUP5 PUSH1 0x4 DUP3 DUP2 SLOAD DUP2 LT PUSH2 0x1600 JUMPI INVALID JUMPDEST SWAP1 PUSH1 0x0 MSTORE PUSH1 0x20 PUSH1 0x0 KECCAK256 SWAP1 PUSH1 0x6 MUL ADD PUSH1 0x2 ADD SWAP1 DUP1 MLOAD SWAP1 PUSH1 0x20 ADD SWAP1 PUSH2 0x1624 SWAP3 SWAP2 SWAP1 PUSH2 0x32DF JUMP JUMPDEST POP DUP4 PUSH1 0x4 DUP3 DUP2 SLOAD DUP2 LT PUSH2 0x1633 JUMPI INVALID JUMPDEST SWAP1 PUSH1 0x0 MSTORE PUSH1 0x20 PUSH1 0x0 KECCAK256 SWAP1 PUSH1 0x6 MUL ADD PUSH1 0x3 ADD SWAP1 DUP1 MLOAD SWAP1 PUSH1 0x20 ADD SWAP1 PUSH2 0x1657 SWAP3 SWAP2 SWAP1 PUSH2 0x32DF JUMP JUMPDEST POP DUP3 PUSH1 0x4 DUP3 DUP2 SLOAD DUP2 LT PUSH2 0x1666 JUMPI INVALID JUMPDEST SWAP1 PUSH1 0x0 MSTORE PUSH1 0x20 PUSH1 0x0 KECCAK256 SWAP1 PUSH1 0x6 MUL ADD PUSH1 0x4 ADD DUP2 SWAP1 SSTORE POP DUP2 PUSH1 0x4 DUP3 DUP2 SLOAD DUP2 LT PUSH2 0x1689 JUMPI INVALID JUMPDEST SWAP1 PUSH1 0x0 MSTORE PUSH1 0x20 PUSH1 0x0 KECCAK256 SWAP1 PUSH1 0x6 MUL ADD PUSH1 0x5 ADD PUSH1 0x0 PUSH2 0x100 EXP DUP2 SLOAD DUP2 PUSH1 0xFF MUL NOT AND SWAP1 DUP4 ISZERO ISZERO MUL OR SWAP1 SSTORE POP PUSH32 0x5975E6FED8802A324436EB320387035D99D011C9901BB75B34B8C23B91250C1C PUSH1 0x4 DUP3 DUP2 SLOAD DUP2 LT PUSH2 0x16DF JUMPI INVALID JUMPDEST SWAP1 PUSH1 0x0 MSTORE PUSH1 0x20 PUSH1 0x0 KECCAK256 SWAP1 PUSH1 0x6 MUL ADD PUSH1 0x0 ADD PUSH1 0x0 SWAP1 SLOAD SWAP1 PUSH2 0x100 EXP SWAP1 DIV PUSH20 0xFFFFFFFFFFFFFFFFFFFFFFFFFFFFFFFFFFFFFFFF AND PUSH1 0x4 DUP4 DUP2 SLOAD DUP2 LT PUSH2 0x171E JUMPI INVALID JUMPDEST SWAP1 PUSH1 0x0 MSTORE PUSH1 0x20 PUSH1 0x0 KECCAK256 SWAP1 PUSH1 0x6 MUL ADD PUSH1 0x1 ADD PUSH1 0x4 DUP5 DUP2 SLOAD DUP2 LT PUSH2 0x173C JUMPI INVALID JUMPDEST SWAP1 PUSH1 0x0 MSTORE PUSH1 0x20 PUSH1 0x0 KECCAK256 SWAP1 PUSH1 0x6 MUL ADD PUSH1 0x2 ADD PUSH1 0x4 DUP6 DUP2 SLOAD DUP2 LT PUSH2 0x175A JUMPI INVALID JUMPDEST SWAP1 PUSH1 0x0 MSTORE PUSH1 0x20 PUSH1 0x0 KECCAK256 SWAP1 PUSH1 0x6 MUL ADD PUSH1 0x3 ADD PUSH1 0x4 DUP7 DUP2 SLOAD DUP2 LT PUSH2 0x1778 JUMPI INVALID JUMPDEST SWAP1 PUSH1 0x0 MSTORE PUSH1 0x20 PUSH1 0x0 KECCAK256 SWAP1 PUSH1 0x6 MUL ADD PUSH1 0x4 ADD SLOAD PUSH1 0x4 DUP8 DUP2 SLOAD DUP2 LT PUSH2 0x1797 JUMPI INVALID JUMPDEST SWAP1 PUSH1 0x0 MSTORE PUSH1 0x20 PUSH1 0x0 KECCAK256 SWAP1 PUSH1 0x6 MUL ADD PUSH1 0x5 ADD PUSH1 0x0 SWAP1 SLOAD SWAP1 PUSH2 0x100 EXP SWAP1 DIV PUSH1 0xFF AND PUSH1 0x40 MLOAD PUSH2 0x17C8 SWAP7 SWAP6 SWAP5 SWAP4 SWAP3 SWAP2 SWAP1 PUSH2 0x3F04 JUMP JUMPDEST PUSH1 0x40 MLOAD DUP1 SWAP2 SUB SWAP1 LOG1 POP POP POP POP POP POP POP JUMP JUMPDEST PUSH1 0x7 PUSH1 0x20 MSTORE DUP1 PUSH1 0x0 MSTORE PUSH1 0x40 PUSH1 0x0 KECCAK256 PUSH1 0x0 SWAP2 POP SWAP1 POP DUP1 PUSH1 0x0 ADD SLOAD SWAP1 DUP1 PUSH1 0x1 ADD DUP1 SLOAD PUSH1 0x1 DUP2 PUSH1 0x1 AND ISZERO PUSH2 0x100 MUL SUB AND PUSH1 0x2 SWAP1 DIV DUP1 PUSH1 0x1F ADD PUSH1 0x20 DUP1 SWAP2 DIV MUL PUSH1 0x20 ADD PUSH1 0x40 MLOAD SWAP1 DUP2 ADD PUSH1 0x40 MSTORE DUP1 SWAP3 SWAP2 SWAP1 DUP2 DUP2 MSTORE PUSH1 0x20 ADD DUP3 DUP1 SLOAD PUSH1 0x1 DUP2 PUSH1 0x1 AND ISZERO PUSH2 0x100 MUL SUB AND PUSH1 0x2 SWAP1 DIV DUP1 ISZERO PUSH2 0x188B JUMPI DUP1 PUSH1 0x1F LT PUSH2 0x1860 JUMPI PUSH2 0x100 DUP1 DUP4 SLOAD DIV MUL DUP4 MSTORE SWAP2 PUSH1 0x20 ADD SWAP2 PUSH2 0x188B JUMP JUMPDEST DUP3 ADD SWAP2 SWAP1 PUSH1 0x0 MSTORE PUSH1 0x20 PUSH1 0x0 KECCAK256 SWAP1 JUMPDEST DUP2 SLOAD DUP2 MSTORE SWAP1 PUSH1 0x1 ADD SWAP1 PUSH1 0x20 ADD DUP1 DUP4 GT PUSH2 0x186E JUMPI DUP3 SWAP1 SUB PUSH1 0x1F AND DUP3 ADD SWAP2 JUMPDEST POP POP POP POP POP SWAP1 DUP1 PUSH1 0x2 ADD DUP1 SLOAD PUSH1 0x1 DUP2 PUSH1 0x1 AND ISZERO PUSH2 0x100 MUL SUB AND PUSH1 0x2 SWAP1 DIV DUP1 PUSH1 0x1F ADD PUSH1 0x20 DUP1 SWAP2 DIV MUL PUSH1 0x20 ADD PUSH1 0x40 MLOAD SWAP1 DUP2 ADD PUSH1 0x40 MSTORE DUP1 SWAP3 SWAP2 SWAP1 DUP2 DUP2 MSTORE PUSH1 0x20 ADD DUP3 DUP1 SLOAD PUSH1 0x1 DUP2 PUSH1 0x1 AND ISZERO PUSH2 0x100 MUL SUB AND PUSH1 0x2 SWAP1 DIV DUP1 ISZERO PUSH2 0x1929 JUMPI DUP1 PUSH1 0x1F LT PUSH2 0x18FE JUMPI PUSH2 0x100 DUP1 DUP4 SLOAD DIV MUL DUP4 MSTORE SWAP2 PUSH1 0x20 ADD SWAP2 PUSH2 0x1929 JUMP JUMPDEST DUP3 ADD SWAP2 SWAP1 PUSH1 0x0 MSTORE PUSH1 0x20 PUSH1 0x0 KECCAK256 SWAP1 JUMPDEST DUP2 SLOAD DUP2 MSTORE SWAP1 PUSH1 0x1 ADD SWAP1 PUSH1 0x20 ADD DUP1 DUP4 GT PUSH2 0x190C JUMPI DUP3 SWAP1 SUB PUSH1 0x1F AND DUP3 ADD SWAP2 JUMPDEST POP POP POP POP POP SWAP1 DUP1 PUSH1 0x3 ADD PUSH1 0x0 SWAP1 SLOAD SWAP1 PUSH2 0x100 EXP SWAP1 DIV PUSH20 0xFFFFFFFFFFFFFFFFFFFFFFFFFFFFFFFFFFFFFFFF AND SWAP1 DUP1 PUSH1 0x3 ADD PUSH1 0x14 SWAP1 SLOAD SWAP1 PUSH2 0x100 EXP SWAP1 DIV PUSH1 0xFF AND SWAP1 POP DUP6 JUMP JUMPDEST PUSH1 0x6 DUP2 DUP2 SLOAD DUP2 LT PUSH2 0x197C JUMPI PUSH1 0x0 DUP1 REVERT JUMPDEST SWAP1 PUSH1 0x0 MSTORE PUSH1 0x20 PUSH1 0x0 KECCAK256 SWAP1 PUSH1 0x3 MUL ADD PUSH1 0x0 SWAP2 POP SWAP1 POP DUP1 PUSH1 0x0 ADD PUSH1 0x0 SWAP1 SLOAD SWAP1 PUSH2 0x100 EXP SWAP1 DIV PUSH20 0xFFFFFFFFFFFFFFFFFFFFFFFFFFFFFFFFFFFFFFFF AND SWAP1 DUP1 PUSH1 0x1 ADD DUP1 SLOAD PUSH1 0x1 DUP2 PUSH1 0x1 AND ISZERO PUSH2 0x100 MUL SUB AND PUSH1 0x2 SWAP1 DIV DUP1 PUSH1 0x1F ADD PUSH1 0x20 DUP1 SWAP2 DIV MUL PUSH1 0x20 ADD PUSH1 0x40 MLOAD SWAP1 DUP2 ADD PUSH1 0x40 MSTORE DUP1 SWAP3 SWAP2 SWAP1 DUP2 DUP2 MSTORE PUSH1 0x20 ADD DUP3 DUP1 SLOAD PUSH1 0x1 DUP2 PUSH1 0x1 AND ISZERO PUSH2 0x100 MUL SUB AND PUSH1 0x2 SWAP1 DIV DUP1 ISZERO PUSH2 0x1A4E JUMPI DUP1 PUSH1 0x1F LT PUSH2 0x1A23 JUMPI PUSH2 0x100 DUP1 DUP4 SLOAD DIV MUL DUP4 MSTORE SWAP2 PUSH1 0x20 ADD SWAP2 PUSH2 0x1A4E JUMP JUMPDEST DUP3 ADD SWAP2 SWAP1 PUSH1 0x0 MSTORE PUSH1 0x20 PUSH1 0x0 KECCAK256 SWAP1 JUMPDEST DUP2 SLOAD DUP2 MSTORE SWAP1 PUSH1 0x1 ADD SWAP1 PUSH1 0x20 ADD DUP1 DUP4 GT PUSH2 0x1A31 JUMPI DUP3 SWAP1 SUB PUSH1 0x1F AND DUP3 ADD SWAP2 JUMPDEST POP POP POP POP POP SWAP1 DUP1 PUSH1 0x2 ADD PUSH1 0x0 SWAP1 SLOAD SWAP1 PUSH2 0x100 EXP SWAP1 DIV PUSH20 0xFFFFFFFFFFFFFFFFFFFFFFFFFFFFFFFFFFFFFFFF AND SWAP1 DUP1 PUSH1 0x2 ADD PUSH1 0x14 SWAP1 SLOAD SWAP1 PUSH2 0x100 EXP SWAP1 DIV PUSH1 0xFF AND SWAP1 POP DUP5 JUMP JUMPDEST PUSH1 0x60 PUSH1 0x0 PUSH1 0x8 DUP1 SLOAD SWAP1 POP PUSH8 0xFFFFFFFFFFFFFFFF DUP2 GT DUP1 ISZERO PUSH2 0x1AB1 JUMPI PUSH1 0x0 DUP1 REVERT JUMPDEST POP PUSH1 0x40 MLOAD SWAP1 DUP1 DUP3 MSTORE DUP1 PUSH1 0x20 MUL PUSH1 0x20 ADD DUP3 ADD PUSH1 0x40 MSTORE DUP1 ISZERO PUSH2 0x1AEB JUMPI DUP2 PUSH1 0x20 ADD JUMPDEST PUSH2 0x1AD8 PUSH2 0x33BB JUMP JUMPDEST DUP2 MSTORE PUSH1 0x20 ADD SWAP1 PUSH1 0x1 SWAP1 SUB SWAP1 DUP2 PUSH2 0x1AD0 JUMPI SWAP1 POP JUMPDEST POP SWAP1 POP PUSH1 0x0 JUMPDEST PUSH1 0x8 DUP1 SLOAD SWAP1 POP DUP2 LT ISZERO PUSH2 0x1D7A JUMPI PUSH1 0x8 DUP2 DUP2 SLOAD DUP2 LT PUSH2 0x1B0B JUMPI INVALID JUMPDEST SWAP1 PUSH1 0x0 MSTORE PUSH1 0x20 PUSH1 0x0 KECCAK256 SWAP1 PUSH1 0x4 MUL ADD PUSH1 0x3 ADD PUSH1 0x0 SWAP1 SLOAD SWAP1 PUSH2 0x100 EXP SWAP1 DIV PUSH20 0xFFFFFFFFFFFFFFFFFFFFFFFFFFFFFFFFFFFFFFFF AND PUSH20 0xFFFFFFFFFFFFFFFFFFFFFFFFFFFFFFFFFFFFFFFF AND DUP5 PUSH20 0xFFFFFFFFFFFFFFFFFFFFFFFFFFFFFFFFFFFFFFFF AND EQ ISZERO PUSH2 0x1D6D JUMPI PUSH1 0x8 DUP2 DUP2 SLOAD DUP2 LT PUSH2 0x1B7D JUMPI INVALID JUMPDEST SWAP1 PUSH1 0x0 MSTORE PUSH1 0x20 PUSH1 0x0 KECCAK256 SWAP1 PUSH1 0x4 MUL ADD PUSH1 0x40 MLOAD DUP1 PUSH1 0xA0 ADD PUSH1 0x40 MSTORE SWAP1 DUP2 PUSH1 0x0 DUP3 ADD SLOAD DUP2 MSTORE PUSH1 0x20 ADD PUSH1 0x1 DUP3 ADD DUP1 SLOAD PUSH1 0x1 DUP2 PUSH1 0x1 AND ISZERO PUSH2 0x100 MUL SUB AND PUSH1 0x2 SWAP1 DIV DUP1 PUSH1 0x1F ADD PUSH1 0x20 DUP1 SWAP2 DIV MUL PUSH1 0x20 ADD PUSH1 0x40 MLOAD SWAP1 DUP2 ADD PUSH1 0x40 MSTORE DUP1 SWAP3 SWAP2 SWAP1 DUP2 DUP2 MSTORE PUSH1 0x20 ADD DUP3 DUP1 SLOAD PUSH1 0x1 DUP2 PUSH1 0x1 AND ISZERO PUSH2 0x100 MUL SUB AND PUSH1 0x2 SWAP1 DIV DUP1 ISZERO PUSH2 0x1C39 JUMPI DUP1 PUSH1 0x1F LT PUSH2 0x1C0E JUMPI PUSH2 0x100 DUP1 DUP4 SLOAD DIV MUL DUP4 MSTORE SWAP2 PUSH1 0x20 ADD SWAP2 PUSH2 0x1C39 JUMP JUMPDEST DUP3 ADD SWAP2 SWAP1 PUSH1 0x0 MSTORE PUSH1 0x20 PUSH1 0x0 KECCAK256 SWAP1 JUMPDEST DUP2 SLOAD DUP2 MSTORE SWAP1 PUSH1 0x1 ADD SWAP1 PUSH1 0x20 ADD DUP1 DUP4 GT PUSH2 0x1C1C JUMPI DUP3 SWAP1 SUB PUSH1 0x1F AND DUP3 ADD SWAP2 JUMPDEST POP POP POP POP POP DUP2 MSTORE PUSH1 0x20 ADD PUSH1 0x2 DUP3 ADD DUP1 SLOAD PUSH1 0x1 DUP2 PUSH1 0x1 AND ISZERO PUSH2 0x100 MUL SUB AND PUSH1 0x2 SWAP1 DIV DUP1 PUSH1 0x1F ADD PUSH1 0x20 DUP1 SWAP2 DIV MUL PUSH1 0x20 ADD PUSH1 0x40 MLOAD SWAP1 DUP2 ADD PUSH1 0x40 MSTORE DUP1 SWAP3 SWAP2 SWAP1 DUP2 DUP2 MSTORE PUSH1 0x20 ADD DUP3 DUP1 SLOAD PUSH1 0x1 DUP2 PUSH1 0x1 AND ISZERO PUSH2 0x100 MUL SUB AND PUSH1 0x2 SWAP1 DIV DUP1 ISZERO PUSH2 0x1CDB JUMPI DUP1 PUSH1 0x1F LT PUSH2 0x1CB0 JUMPI PUSH2 0x100 DUP1 DUP4 SLOAD DIV MUL DUP4 MSTORE SWAP2 PUSH1 0x20 ADD SWAP2 PUSH2 0x1CDB JUMP JUMPDEST DUP3 ADD SWAP2 SWAP1 PUSH1 0x0 MSTORE PUSH1 0x20 PUSH1 0x0 KECCAK256 SWAP1 JUMPDEST DUP2 SLOAD DUP2 MSTORE SWAP1 PUSH1 0x1 ADD SWAP1 PUSH1 0x20 ADD DUP1 DUP4 GT PUSH2 0x1CBE JUMPI DUP3 SWAP1 SUB PUSH1 0x1F AND DUP3 ADD SWAP2 JUMPDEST POP POP POP POP POP DUP2 MSTORE PUSH1 0x20 ADD PUSH1 0x3 DUP3 ADD PUSH1 0x0 SWAP1 SLOAD SWAP1 PUSH2 0x100 EXP SWAP1 DIV PUSH20 0xFFFFFFFFFFFFFFFFFFFFFFFFFFFFFFFFFFFFFFFF AND PUSH20 0xFFFFFFFFFFFFFFFFFFFFFFFFFFFFFFFFFFFFFFFF AND PUSH20 0xFFFFFFFFFFFFFFFFFFFFFFFFFFFFFFFFFFFFFFFF AND DUP2 MSTORE PUSH1 0x20 ADD PUSH1 0x3 DUP3 ADD PUSH1 0x14 SWAP1 SLOAD SWAP1 PUSH2 0x100 EXP SWAP1 DIV PUSH1 0xFF AND ISZERO ISZERO ISZERO ISZERO DUP2 MSTORE POP POP DUP3 DUP3 DUP2 MLOAD DUP2 LT PUSH2 0x1D61 JUMPI INVALID JUMPDEST PUSH1 0x20 MUL PUSH1 0x20 ADD ADD DUP2 SWAP1 MSTORE POP JUMPDEST DUP1 DUP1 PUSH1 0x1 ADD SWAP2 POP POP PUSH2 0x1AF1 JUMP JUMPDEST POP DUP1 SWAP2 POP POP SWAP2 SWAP1 POP JUMP JUMPDEST PUSH1 0x60 DUP1 PUSH1 0x60 PUSH1 0x0 DUP1 PUSH1 0x0 PUSH2 0x1D97 DUP8 PUSH2 0x3201 JUMP JUMPDEST SWAP1 POP PUSH1 0x4 DUP2 DUP2 SLOAD DUP2 LT PUSH2 0x1DA6 JUMPI INVALID JUMPDEST SWAP1 PUSH1 0x0 MSTORE PUSH1 0x20 PUSH1 0x0 KECCAK256 SWAP1 PUSH1 0x6 MUL ADD PUSH1 0x1 ADD PUSH1 0x4 DUP3 DUP2 SLOAD DUP2 LT PUSH2 0x1DC4 JUMPI INVALID JUMPDEST SWAP1 PUSH1 0x0 MSTORE PUSH1 0x20 PUSH1 0x0 KECCAK256 SWAP1 PUSH1 0x6 MUL ADD PUSH1 0x2 ADD PUSH1 0x4 DUP4 DUP2 SLOAD DUP2 LT PUSH2 0x1DE2 JUMPI INVALID JUMPDEST SWAP1 PUSH1 0x0 MSTORE PUSH1 0x20 PUSH1 0x0 KECCAK256 SWAP1 PUSH1 0x6 MUL ADD PUSH1 0x3 ADD PUSH1 0x4 DUP5 DUP2 SLOAD DUP2 LT PUSH2 0x1E00 JUMPI INVALID JUMPDEST SWAP1 PUSH1 0x0 MSTORE PUSH1 0x20 PUSH1 0x0 KECCAK256 SWAP1 PUSH1 0x6 MUL ADD PUSH1 0x4 ADD SLOAD PUSH1 0x4 DUP6 DUP2 SLOAD DUP2 LT PUSH2 0x1E1F JUMPI INVALID JUMPDEST SWAP1 PUSH1 0x0 MSTORE PUSH1 0x20 PUSH1 0x0 KECCAK256 SWAP1 PUSH1 0x6 MUL ADD PUSH1 0x5 ADD PUSH1 0x0 SWAP1 SLOAD SWAP1 PUSH2 0x100 EXP SWAP1 DIV PUSH1 0xFF AND DUP5 DUP1 SLOAD PUSH1 0x1 DUP2 PUSH1 0x1 AND ISZERO PUSH2 0x100 MUL SUB AND PUSH1 0x2 SWAP1 DIV DUP1 PUSH1 0x1F ADD PUSH1 0x20 DUP1 SWAP2 DIV MUL PUSH1 0x20 ADD PUSH1 0x40 MLOAD SWAP1 DUP2 ADD PUSH1 0x40 MSTORE DUP1 SWAP3 SWAP2 SWAP1 DUP2 DUP2 MSTORE PUSH1 0x20 ADD DUP3 DUP1 SLOAD PUSH1 0x1 DUP2 PUSH1 0x1 AND ISZERO PUSH2 0x100 MUL SUB AND PUSH1 0x2 SWAP1 DIV DUP1 ISZERO PUSH2 0x1ED3 JUMPI DUP1 PUSH1 0x1F LT PUSH2 0x1EA8 JUMPI PUSH2 0x100 DUP1 DUP4 SLOAD DIV MUL DUP4 MSTORE SWAP2 PUSH1 0x20 ADD SWAP2 PUSH2 0x1ED3 JUMP JUMPDEST DUP3 ADD SWAP2 SWAP1 PUSH1 0x0 MSTORE PUSH1 0x20 PUSH1 0x0 KECCAK256 SWAP1 JUMPDEST DUP2 SLOAD DUP2 MSTORE SWAP1 PUSH1 0x1 ADD SWAP1 PUSH1 0x20 ADD DUP1 DUP4 GT PUSH2 0x1EB6 JUMPI DUP3 SWAP1 SUB PUSH1 0x1F AND DUP3 ADD SWAP2 JUMPDEST POP POP POP POP POP SWAP5 POP DUP4 DUP1 SLOAD PUSH1 0x1 DUP2 PUSH1 0x1 AND ISZERO PUSH2 0x100 MUL SUB AND PUSH1 0x2 SWAP1 DIV DUP1 PUSH1 0x1F ADD PUSH1 0x20 DUP1 SWAP2 DIV MUL PUSH1 0x20 ADD PUSH1 0x40 MLOAD SWAP1 DUP2 ADD PUSH1 0x40 MSTORE DUP1 SWAP3 SWAP2 SWAP1 DUP2 DUP2 MSTORE PUSH1 0x20 ADD DUP3 DUP1 SLOAD PUSH1 0x1 DUP2 PUSH1 0x1 AND ISZERO PUSH2 0x100 MUL SUB AND PUSH1 0x2 SWAP1 DIV DUP1 ISZERO PUSH2 0x1F6F JUMPI DUP1 PUSH1 0x1F LT PUSH2 0x1F44 JUMPI PUSH2 0x100 DUP1 DUP4 SLOAD DIV MUL DUP4 MSTORE SWAP2 PUSH1 0x20 ADD SWAP2 PUSH2 0x1F6F JUMP JUMPDEST DUP3 ADD SWAP2 SWAP1 PUSH1 0x0 MSTORE PUSH1 0x20 PUSH1 0x0 KECCAK256 SWAP1 JUMPDEST DUP2 SLOAD DUP2 MSTORE SWAP1 PUSH1 0x1 ADD SWAP1 PUSH1 0x20 ADD DUP1 DUP4 GT PUSH2 0x1F52 JUMPI DUP3 SWAP1 SUB PUSH1 0x1F AND DUP3 ADD SWAP2 JUMPDEST POP POP POP POP POP SWAP4 POP DUP3 DUP1 SLOAD PUSH1 0x1 DUP2 PUSH1 0x1 AND ISZERO PUSH2 0x100 MUL SUB AND PUSH1 0x2 SWAP1 DIV DUP1 PUSH1 0x1F ADD PUSH1 0x20 DUP1 SWAP2 DIV MUL PUSH1 0x20 ADD PUSH1 0x40 MLOAD SWAP1 DUP2 ADD PUSH1 0x40 MSTORE DUP1 SWAP3 SWAP2 SWAP1 DUP2 DUP2 MSTORE PUSH1 0x20 ADD DUP3 DUP1 SLOAD PUSH1 0x1 DUP2 PUSH1 0x1 AND ISZERO PUSH2 0x100 MUL SUB AND PUSH1 0x2 SWAP1 DIV DUP1 ISZERO PUSH2 0x200B JUMPI DUP1 PUSH1 0x1F LT PUSH2 0x1FE0 JUMPI PUSH2 0x100 DUP1 DUP4 SLOAD DIV MUL DUP4 MSTORE SWAP2 PUSH1 0x20 ADD SWAP2 PUSH2 0x200B JUMP JUMPDEST DUP3 ADD SWAP2 SWAP1 PUSH1 0x0 MSTORE PUSH1 0x20 PUSH1 0x0 KECCAK256 SWAP1 JUMPDEST DUP2 SLOAD DUP2 MSTORE SWAP1 PUSH1 0x1 ADD SWAP1 PUSH1 0x20 ADD DUP1 DUP4 GT PUSH2 0x1FEE JUMPI DUP3 SWAP1 SUB PUSH1 0x1F AND DUP3 ADD SWAP2 JUMPDEST POP POP POP POP POP SWAP3 POP SWAP6 POP SWAP6 POP SWAP6 POP SWAP6 POP SWAP6 POP POP SWAP2 SWAP4 SWAP6 SWAP1 SWAP3 SWAP5 POP JUMP JUMPDEST PUSH1 0x0 PUSH2 0x2031 DUP3 PUSH2 0x3123 JUMP JUMPDEST SWAP1 POP PUSH1 0x0 PUSH1 0x6 DUP3 DUP2 SLOAD DUP2 LT PUSH2 0x2042 JUMPI INVALID JUMPDEST SWAP1 PUSH1 0x0 MSTORE PUSH1 0x20 PUSH1 0x0 KECCAK256 SWAP1 PUSH1 0x3 MUL ADD PUSH1 0x2 ADD PUSH1 0x14 PUSH2 0x100 EXP DUP2 SLOAD DUP2 PUSH1 0xFF MUL NOT AND SWAP1 DUP4 ISZERO ISZERO MUL OR SWAP1 SSTORE POP PUSH32 0x780B3C74EC1E08D8C65FD8A12C6AC2DA5C15F2D3B5E54335B51671F63B7D2AD0 PUSH1 0x6 DUP3 DUP2 SLOAD DUP2 LT PUSH2 0x2098 JUMPI INVALID JUMPDEST SWAP1 PUSH1 0x0 MSTORE PUSH1 0x20 PUSH1 0x0 KECCAK256 SWAP1 PUSH1 0x3 MUL ADD PUSH1 0x0 ADD PUSH1 0x0 SWAP1 SLOAD SWAP1 PUSH2 0x100 EXP SWAP1 DIV PUSH20 0xFFFFFFFFFFFFFFFFFFFFFFFFFFFFFFFFFFFFFFFF AND PUSH1 0x6 DUP4 DUP2 SLOAD DUP2 LT PUSH2 0x20D7 JUMPI INVALID JUMPDEST SWAP1 PUSH1 0x0 MSTORE PUSH1 0x20 PUSH1 0x0 KECCAK256 SWAP1 PUSH1 0x3 MUL ADD PUSH1 0x1 ADD PUSH1 0x6 DUP5 DUP2 SLOAD DUP2 LT PUSH2 0x20F5 JUMPI INVALID JUMPDEST SWAP1 PUSH1 0x0 MSTORE PUSH1 0x20 PUSH1 0x0 KECCAK256 SWAP1 PUSH1 0x3 MUL ADD PUSH1 0x2 ADD PUSH1 0x0 SWAP1 SLOAD SWAP1 PUSH2 0x100 EXP SWAP1 DIV PUSH20 0xFFFFFFFFFFFFFFFFFFFFFFFFFFFFFFFFFFFFFFFF AND PUSH1 0x6 DUP6 DUP2 SLOAD DUP2 LT PUSH2 0x2134 JUMPI INVALID JUMPDEST SWAP1 PUSH1 0x0 MSTORE PUSH1 0x20 PUSH1 0x0 KECCAK256 SWAP1 PUSH1 0x3 MUL ADD PUSH1 0x2 ADD PUSH1 0x14 SWAP1 SLOAD SWAP1 PUSH2 0x100 EXP SWAP1 DIV PUSH1 0xFF AND PUSH1 0x40 MLOAD PUSH2 0x2163 SWAP5 SWAP4 SWAP3 SWAP2 SWAP1 PUSH2 0x3EB8 JUMP JUMPDEST PUSH1 0x40 MLOAD DUP1 SWAP2 SUB SWAP1 LOG1 POP POP JUMP JUMPDEST PUSH1 0x0 PUSH1 0x4 DUP1 SLOAD SWAP1 POP SWAP1 POP SWAP1 JUMP JUMPDEST PUSH1 0x4 PUSH1 0x40 MLOAD DUP1 PUSH1 0xC0 ADD PUSH1 0x40 MSTORE DUP1 DUP8 PUSH20 0xFFFFFFFFFFFFFFFFFFFFFFFFFFFFFFFFFFFFFFFF AND DUP2 MSTORE PUSH1 0x20 ADD DUP7 DUP2 MSTORE PUSH1 0x20 ADD DUP6 DUP2 MSTORE PUSH1 0x20 ADD DUP5 DUP2 MSTORE PUSH1 0x20 ADD DUP4 DUP2 MSTORE PUSH1 0x20 ADD PUSH1 0x1 ISZERO ISZERO DUP2 MSTORE POP SWAP1 DUP1 PUSH1 0x1 DUP2 SLOAD ADD DUP1 DUP3 SSTORE DUP1 SWAP2 POP POP PUSH1 0x1 SWAP1 SUB SWAP1 PUSH1 0x0 MSTORE PUSH1 0x20 PUSH1 0x0 KECCAK256 SWAP1 PUSH1 0x6 MUL ADD PUSH1 0x0 SWAP1 SWAP2 SWAP1 SWAP2 SWAP1 SWAP2 POP PUSH1 0x0 DUP3 ADD MLOAD DUP2 PUSH1 0x0 ADD PUSH1 0x0 PUSH2 0x100 EXP DUP2 SLOAD DUP2 PUSH20 0xFFFFFFFFFFFFFFFFFFFFFFFFFFFFFFFFFFFFFFFF MUL NOT AND SWAP1 DUP4 PUSH20 0xFFFFFFFFFFFFFFFFFFFFFFFFFFFFFFFFFFFFFFFF AND MUL OR SWAP1 SSTORE POP PUSH1 0x20 DUP3 ADD MLOAD DUP2 PUSH1 0x1 ADD SWAP1 DUP1 MLOAD SWAP1 PUSH1 0x20 ADD SWAP1 PUSH2 0x2250 SWAP3 SWAP2 SWAP1 PUSH2 0x32DF JUMP JUMPDEST POP PUSH1 0x40 DUP3 ADD MLOAD DUP2 PUSH1 0x2 ADD SWAP1 DUP1 MLOAD SWAP1 PUSH1 0x20 ADD SWAP1 PUSH2 0x226D SWAP3 SWAP2 SWAP1 PUSH2 0x32DF JUMP JUMPDEST POP PUSH1 0x60 DUP3 ADD MLOAD DUP2 PUSH1 0x3 ADD SWAP1 DUP1 MLOAD SWAP1 PUSH1 0x20 ADD SWAP1 PUSH2 0x228A SWAP3 SWAP2 SWAP1 PUSH2 0x32DF JUMP JUMPDEST POP PUSH1 0x80 DUP3 ADD MLOAD DUP2 PUSH1 0x4 ADD SSTORE PUSH1 0xA0 DUP3 ADD MLOAD DUP2 PUSH1 0x5 ADD PUSH1 0x0 PUSH2 0x100 EXP DUP2 SLOAD DUP2 PUSH1 0xFF MUL NOT AND SWAP1 DUP4 ISZERO ISZERO MUL OR SWAP1 SSTORE POP POP POP PUSH32 0xF646212ACC3F5092FB0211FFD5121C0F706641B715E3982DAB50AFB395413DD5 DUP6 DUP6 DUP6 DUP6 DUP6 PUSH1 0x1 PUSH1 0x40 MLOAD PUSH2 0x22F1 SWAP7 SWAP6 SWAP5 SWAP4 SWAP3 SWAP2 SWAP1 PUSH2 0x3E04 JUMP JUMPDEST PUSH1 0x40 MLOAD DUP1 SWAP2 SUB SWAP1 LOG1 POP POP POP POP POP JUMP JUMPDEST PUSH1 0x3 PUSH1 0x20 MSTORE DUP1 PUSH1 0x0 MSTORE PUSH1 0x40 PUSH1 0x0 KECCAK256 PUSH1 0x0 SWAP2 POP SWAP1 POP DUP1 PUSH1 0x0 ADD PUSH1 0x0 SWAP1 SLOAD SWAP1 PUSH2 0x100 EXP SWAP1 DIV PUSH20 0xFFFFFFFFFFFFFFFFFFFFFFFFFFFFFFFFFFFFFFFF AND SWAP1 DUP1 PUSH1 0x1 ADD DUP1 SLOAD PUSH1 0x1 DUP2 PUSH1 0x1 AND ISZERO PUSH2 0x100 MUL SUB AND PUSH1 0x2 SWAP1 DIV DUP1 PUSH1 0x1F ADD PUSH1 0x20 DUP1 SWAP2 DIV MUL PUSH1 0x20 ADD PUSH1 0x40 MLOAD SWAP1 DUP2 ADD PUSH1 0x40 MSTORE DUP1 SWAP3 SWAP2 SWAP1 DUP2 DUP2 MSTORE PUSH1 0x20 ADD DUP3 DUP1 SLOAD PUSH1 0x1 DUP2 PUSH1 0x1 AND ISZERO PUSH2 0x100 MUL SUB AND PUSH1 0x2 SWAP1 DIV DUP1 ISZERO PUSH2 0x23D2 JUMPI DUP1 PUSH1 0x1F LT PUSH2 0x23A7 JUMPI PUSH2 0x100 DUP1 DUP4 SLOAD DIV MUL DUP4 MSTORE SWAP2 PUSH1 0x20 ADD SWAP2 PUSH2 0x23D2 JUMP JUMPDEST DUP3 ADD SWAP2 SWAP1 PUSH1 0x0 MSTORE PUSH1 0x20 PUSH1 0x0 KECCAK256 SWAP1 JUMPDEST DUP2 SLOAD DUP2 MSTORE SWAP1 PUSH1 0x1 ADD SWAP1 PUSH1 0x20 ADD DUP1 DUP4 GT PUSH2 0x23B5 JUMPI DUP3 SWAP1 SUB PUSH1 0x1F AND DUP3 ADD SWAP2 JUMPDEST POP POP POP POP POP SWAP1 DUP1 PUSH1 0x2 ADD DUP1 SLOAD PUSH1 0x1 DUP2 PUSH1 0x1 AND ISZERO PUSH2 0x100 MUL SUB AND PUSH1 0x2 SWAP1 DIV DUP1 PUSH1 0x1F ADD PUSH1 0x20 DUP1 SWAP2 DIV MUL PUSH1 0x20 ADD PUSH1 0x40 MLOAD SWAP1 DUP2 ADD PUSH1 0x40 MSTORE DUP1 SWAP3 SWAP2 SWAP1 DUP2 DUP2 MSTORE PUSH1 0x20 ADD DUP3 DUP1 SLOAD PUSH1 0x1 DUP2 PUSH1 0x1 AND ISZERO PUSH2 0x100 MUL SUB AND PUSH1 0x2 SWAP1 DIV DUP1 ISZERO PUSH2 0x2470 JUMPI DUP1 PUSH1 0x1F LT PUSH2 0x2445 JUMPI PUSH2 0x100 DUP1 DUP4 SLOAD DIV MUL DUP4 MSTORE SWAP2 PUSH1 0x20 ADD SWAP2 PUSH2 0x2470 JUMP JUMPDEST DUP3 ADD SWAP2 SWAP1 PUSH1 0x0 MSTORE PUSH1 0x20 PUSH1 0x0 KECCAK256 SWAP1 JUMPDEST DUP2 SLOAD DUP2 MSTORE SWAP1 PUSH1 0x1 ADD SWAP1 PUSH1 0x20 ADD DUP1 DUP4 GT PUSH2 0x2453 JUMPI DUP3 SWAP1 SUB PUSH1 0x1F AND DUP3 ADD SWAP2 JUMPDEST POP POP POP POP POP SWAP1 DUP1 PUSH1 0x3 ADD DUP1 SLOAD PUSH1 0x1 DUP2 PUSH1 0x1 AND ISZERO PUSH2 0x100 MUL SUB AND PUSH1 0x2 SWAP1 DIV DUP1 PUSH1 0x1F ADD PUSH1 0x20 DUP1 SWAP2 DIV MUL PUSH1 0x20 ADD PUSH1 0x40 MLOAD SWAP1 DUP2 ADD PUSH1 0x40 MSTORE DUP1 SWAP3 SWAP2 SWAP1 DUP2 DUP2 MSTORE PUSH1 0x20 ADD DUP3 DUP1 SLOAD PUSH1 0x1 DUP2 PUSH1 0x1 AND ISZERO PUSH2 0x100 MUL SUB AND PUSH1 0x2 SWAP1 DIV DUP1 ISZERO PUSH2 0x250E JUMPI DUP1 PUSH1 0x1F LT PUSH2 0x24E3 JUMPI PUSH2 0x100 DUP1 DUP4 SLOAD DIV MUL DUP4 MSTORE SWAP2 PUSH1 0x20 ADD SWAP2 PUSH2 0x250E JUMP JUMPDEST DUP3 ADD SWAP2 SWAP1 PUSH1 0x0 MSTORE PUSH1 0x20 PUSH1 0x0 KECCAK256 SWAP1 JUMPDEST DUP2 SLOAD DUP2 MSTORE SWAP1 PUSH1 0x1 ADD SWAP1 PUSH1 0x20 ADD DUP1 DUP4 GT PUSH2 0x24F1 JUMPI DUP3 SWAP1 SUB PUSH1 0x1F AND DUP3 ADD SWAP2 JUMPDEST POP POP POP POP POP SWAP1 DUP1 PUSH1 0x4 ADD SLOAD SWAP1 DUP1 PUSH1 0x5 ADD PUSH1 0x0 SWAP1 SLOAD SWAP1 PUSH2 0x100 EXP SWAP1 DIV PUSH1 0xFF AND SWAP1 POP DUP7 JUMP JUMPDEST PUSH1 0x0 PUSH1 0x8 DUP1 SLOAD SWAP1 POP SWAP1 POP SWAP1 JUMP JUMPDEST PUSH1 0x60 PUSH1 0x0 PUSH1 0x6 DUP1 SLOAD SWAP1 POP PUSH8 0xFFFFFFFFFFFFFFFF DUP2 GT DUP1 ISZERO PUSH2 0x255E JUMPI PUSH1 0x0 DUP1 REVERT JUMPDEST POP PUSH1 0x40 MLOAD SWAP1 DUP1 DUP3 MSTORE DUP1 PUSH1 0x20 MUL PUSH1 0x20 ADD DUP3 ADD PUSH1 0x40 MSTORE DUP1 ISZERO PUSH2 0x2598 JUMPI DUP2 PUSH1 0x20 ADD JUMPDEST PUSH2 0x2585 PUSH2 0x3402 JUMP JUMPDEST DUP2 MSTORE PUSH1 0x20 ADD SWAP1 PUSH1 0x1 SWAP1 SUB SWAP1 DUP2 PUSH2 0x257D JUMPI SWAP1 POP JUMPDEST POP SWAP1 POP PUSH1 0x0 JUMPDEST PUSH1 0x6 DUP1 SLOAD SWAP1 POP DUP2 LT ISZERO PUSH2 0x27D1 JUMPI PUSH1 0x6 DUP2 DUP2 SLOAD DUP2 LT PUSH2 0x25B8 JUMPI INVALID JUMPDEST SWAP1 PUSH1 0x0 MSTORE PUSH1 0x20 PUSH1 0x0 KECCAK256 SWAP1 PUSH1 0x3 MUL ADD PUSH1 0x2 ADD PUSH1 0x0 SWAP1 SLOAD SWAP1 PUSH2 0x100 EXP SWAP1 DIV PUSH20 0xFFFFFFFFFFFFFFFFFFFFFFFFFFFFFFFFFFFFFFFF AND PUSH20 0xFFFFFFFFFFFFFFFFFFFFFFFFFFFFFFFFFFFFFFFF AND DUP5 PUSH20 0xFFFFFFFFFFFFFFFFFFFFFFFFFFFFFFFFFFFFFFFF AND EQ ISZERO PUSH2 0x27C4 JUMPI PUSH1 0x6 DUP2 DUP2 SLOAD DUP2 LT PUSH2 0x262A JUMPI INVALID JUMPDEST SWAP1 PUSH1 0x0 MSTORE PUSH1 0x20 PUSH1 0x0 KECCAK256 SWAP1 PUSH1 0x3 MUL ADD PUSH1 0x40 MLOAD DUP1 PUSH1 0x80 ADD PUSH1 0x40 MSTORE SWAP1 DUP2 PUSH1 0x0 DUP3 ADD PUSH1 0x0 SWAP1 SLOAD SWAP1 PUSH2 0x100 EXP SWAP1 DIV PUSH20 0xFFFFFFFFFFFFFFFFFFFFFFFFFFFFFFFFFFFFFFFF AND PUSH20 0xFFFFFFFFFFFFFFFFFFFFFFFFFFFFFFFFFFFFFFFF AND PUSH20 0xFFFFFFFFFFFFFFFFFFFFFFFFFFFFFFFFFFFFFFFF AND DUP2 MSTORE PUSH1 0x20 ADD PUSH1 0x1 DUP3 ADD DUP1 SLOAD PUSH1 0x1 DUP2 PUSH1 0x1 AND ISZERO PUSH2 0x100 MUL SUB AND PUSH1 0x2 SWAP1 DIV DUP1 PUSH1 0x1F ADD PUSH1 0x20 DUP1 SWAP2 DIV MUL PUSH1 0x20 ADD PUSH1 0x40 MLOAD SWAP1 DUP2 ADD PUSH1 0x40 MSTORE DUP1 SWAP3 SWAP2 SWAP1 DUP2 DUP2 MSTORE PUSH1 0x20 ADD DUP3 DUP1 SLOAD PUSH1 0x1 DUP2 PUSH1 0x1 AND ISZERO PUSH2 0x100 MUL SUB AND PUSH1 0x2 SWAP1 DIV DUP1 ISZERO PUSH2 0x2732 JUMPI DUP1 PUSH1 0x1F LT PUSH2 0x2707 JUMPI PUSH2 0x100 DUP1 DUP4 SLOAD DIV MUL DUP4 MSTORE SWAP2 PUSH1 0x20 ADD SWAP2 PUSH2 0x2732 JUMP JUMPDEST DUP3 ADD SWAP2 SWAP1 PUSH1 0x0 MSTORE PUSH1 0x20 PUSH1 0x0 KECCAK256 SWAP1 JUMPDEST DUP2 SLOAD DUP2 MSTORE SWAP1 PUSH1 0x1 ADD SWAP1 PUSH1 0x20 ADD DUP1 DUP4 GT PUSH2 0x2715 JUMPI DUP3 SWAP1 SUB PUSH1 0x1F AND DUP3 ADD SWAP2 JUMPDEST POP POP POP POP POP DUP2 MSTORE PUSH1 0x20 ADD PUSH1 0x2 DUP3 ADD PUSH1 0x0 SWAP1 SLOAD SWAP1 PUSH2 0x100 EXP SWAP1 DIV PUSH20 0xFFFFFFFFFFFFFFFFFFFFFFFFFFFFFFFFFFFFFFFF AND PUSH20 0xFFFFFFFFFFFFFFFFFFFFFFFFFFFFFFFFFFFFFFFF AND PUSH20 0xFFFFFFFFFFFFFFFFFFFFFFFFFFFFFFFFFFFFFFFF AND DUP2 MSTORE PUSH1 0x20 ADD PUSH1 0x2 DUP3 ADD PUSH1 0x14 SWAP1 SLOAD SWAP1 PUSH2 0x100 EXP SWAP1 DIV PUSH1 0xFF AND ISZERO ISZERO ISZERO ISZERO DUP2 MSTORE POP POP DUP3 DUP3 DUP2 MLOAD DUP2 LT PUSH2 0x27B8 JUMPI INVALID JUMPDEST PUSH1 0x20 MUL PUSH1 0x20 ADD ADD DUP2 SWAP1 MSTORE POP JUMPDEST DUP1 DUP1 PUSH1 0x1 ADD SWAP2 POP POP PUSH2 0x259E JUMP JUMPDEST POP DUP1 SWAP2 POP POP SWAP2 SWAP1 POP JUMP JUMPDEST PUSH1 0x4 DUP2 DUP2 SLOAD DUP2 LT PUSH2 0x27EB JUMPI PUSH1 0x0 DUP1 REVERT JUMPDEST SWAP1 PUSH1 0x0 MSTORE PUSH1 0x20 PUSH1 0x0 KECCAK256 SWAP1 PUSH1 0x6 MUL ADD PUSH1 0x0 SWAP2 POP SWAP1 POP DUP1 PUSH1 0x0 ADD PUSH1 0x0 SWAP1 SLOAD SWAP1 PUSH2 0x100 EXP SWAP1 DIV PUSH20 0xFFFFFFFFFFFFFFFFFFFFFFFFFFFFFFFFFFFFFFFF AND SWAP1 DUP1 PUSH1 0x1 ADD DUP1 SLOAD PUSH1 0x1 DUP2 PUSH1 0x1 AND ISZERO PUSH2 0x100 MUL SUB AND PUSH1 0x2 SWAP1 DIV DUP1 PUSH1 0x1F ADD PUSH1 0x20 DUP1 SWAP2 DIV MUL PUSH1 0x20 ADD PUSH1 0x40 MLOAD SWAP1 DUP2 ADD PUSH1 0x40 MSTORE DUP1 SWAP3 SWAP2 SWAP1 DUP2 DUP2 MSTORE PUSH1 0x20 ADD DUP3 DUP1 SLOAD PUSH1 0x1 DUP2 PUSH1 0x1 AND ISZERO PUSH2 0x100 MUL SUB AND PUSH1 0x2 SWAP1 DIV DUP1 ISZERO PUSH2 0x28BD JUMPI DUP1 PUSH1 0x1F LT PUSH2 0x2892 JUMPI PUSH2 0x100 DUP1 DUP4 SLOAD DIV MUL DUP4 MSTORE SWAP2 PUSH1 0x20 ADD SWAP2 PUSH2 0x28BD JUMP JUMPDEST DUP3 ADD SWAP2 SWAP1 PUSH1 0x0 MSTORE PUSH1 0x20 PUSH1 0x0 KECCAK256 SWAP1 JUMPDEST DUP2 SLOAD DUP2 MSTORE SWAP1 PUSH1 0x1 ADD SWAP1 PUSH1 0x20 ADD DUP1 DUP4 GT PUSH2 0x28A0 JUMPI DUP3 SWAP1 SUB PUSH1 0x1F AND DUP3 ADD SWAP2 JUMPDEST POP POP POP POP POP SWAP1 DUP1 PUSH1 0x2 ADD DUP1 SLOAD PUSH1 0x1 DUP2 PUSH1 0x1 AND ISZERO PUSH2 0x100 MUL SUB AND PUSH1 0x2 SWAP1 DIV DUP1 PUSH1 0x1F ADD PUSH1 0x20 DUP1 SWAP2 DIV MUL PUSH1 0x20 ADD PUSH1 0x40 MLOAD SWAP1 DUP2 ADD PUSH1 0x40 MSTORE DUP1 SWAP3 SWAP2 SWAP1 DUP2 DUP2 MSTORE PUSH1 0x20 ADD DUP3 DUP1 SLOAD PUSH1 0x1 DUP2 PUSH1 0x1 AND ISZERO PUSH2 0x100 MUL SUB AND PUSH1 0x2 SWAP1 DIV DUP1 ISZERO PUSH2 0x295B JUMPI DUP1 PUSH1 0x1F LT PUSH2 0x2930 JUMPI PUSH2 0x100 DUP1 DUP4 SLOAD DIV MUL DUP4 MSTORE SWAP2 PUSH1 0x20 ADD SWAP2 PUSH2 0x295B JUMP JUMPDEST DUP3 ADD SWAP2 SWAP1 PUSH1 0x0 MSTORE PUSH1 0x20 PUSH1 0x0 KECCAK256 SWAP1 JUMPDEST DUP2 SLOAD DUP2 MSTORE SWAP1 PUSH1 0x1 ADD SWAP1 PUSH1 0x20 ADD DUP1 DUP4 GT PUSH2 0x293E JUMPI DUP3 SWAP1 SUB PUSH1 0x1F AND DUP3 ADD SWAP2 JUMPDEST POP POP POP POP POP SWAP1 DUP1 PUSH1 0x3 ADD DUP1 SLOAD PUSH1 0x1 DUP2 PUSH1 0x1 AND ISZERO PUSH2 0x100 MUL SUB AND PUSH1 0x2 SWAP1 DIV DUP1 PUSH1 0x1F ADD PUSH1 0x20 DUP1 SWAP2 DIV MUL PUSH1 0x20 ADD PUSH1 0x40 MLOAD SWAP1 DUP2 ADD PUSH1 0x40 MSTORE DUP1 SWAP3 SWAP2 SWAP1 DUP2 DUP2 MSTORE PUSH1 0x20 ADD DUP3 DUP1 SLOAD PUSH1 0x1 DUP2 PUSH1 0x1 AND ISZERO PUSH2 0x100 MUL SUB AND PUSH1 0x2 SWAP1 DIV DUP1 ISZERO PUSH2 0x29F9 JUMPI DUP1 PUSH1 0x1F LT PUSH2 0x29CE JUMPI PUSH2 0x100 DUP1 DUP4 SLOAD DIV MUL DUP4 MSTORE SWAP2 PUSH1 0x20 ADD SWAP2 PUSH2 0x29F9 JUMP JUMPDEST DUP3 ADD SWAP2 SWAP1 PUSH1 0x0 MSTORE PUSH1 0x20 PUSH1 0x0 KECCAK256 SWAP1 JUMPDEST DUP2 SLOAD DUP2 MSTORE SWAP1 PUSH1 0x1 ADD SWAP1 PUSH1 0x20 ADD DUP1 DUP4 GT PUSH2 0x29DC JUMPI DUP3 SWAP1 SUB PUSH1 0x1F AND DUP3 ADD SWAP2 JUMPDEST POP POP POP POP POP SWAP1 DUP1 PUSH1 0x4 ADD SLOAD SWAP1 DUP1 PUSH1 0x5 ADD PUSH1 0x0 SWAP1 SLOAD SWAP1 PUSH2 0x100 EXP SWAP1 DIV PUSH1 0xFF AND SWAP1 POP DUP7 JUMP JUMPDEST PUSH1 0x5 PUSH1 0x20 MSTORE DUP1 PUSH1 0x0 MSTORE PUSH1 0x40 PUSH1 0x0 KECCAK256 PUSH1 0x0 SWAP2 POP SWAP1 POP DUP1 PUSH1 0x0 ADD PUSH1 0x0 SWAP1 SLOAD SWAP1 PUSH2 0x100 EXP SWAP1 DIV PUSH20 0xFFFFFFFFFFFFFFFFFFFFFFFFFFFFFFFFFFFFFFFF AND SWAP1 DUP1 PUSH1 0x1 ADD DUP1 SLOAD PUSH1 0x1 DUP2 PUSH1 0x1 AND ISZERO PUSH2 0x100 MUL SUB AND PUSH1 0x2 SWAP1 DIV DUP1 PUSH1 0x1F ADD PUSH1 0x20 DUP1 SWAP2 DIV MUL PUSH1 0x20 ADD PUSH1 0x40 MLOAD SWAP1 DUP2 ADD PUSH1 0x40 MSTORE DUP1 SWAP3 SWAP2 SWAP1 DUP2 DUP2 MSTORE PUSH1 0x20 ADD DUP3 DUP1 SLOAD PUSH1 0x1 DUP2 PUSH1 0x1 AND ISZERO PUSH2 0x100 MUL SUB AND PUSH1 0x2 SWAP1 DIV DUP1 ISZERO PUSH2 0x2AEE JUMPI DUP1 PUSH1 0x1F LT PUSH2 0x2AC3 JUMPI PUSH2 0x100 DUP1 DUP4 SLOAD DIV MUL DUP4 MSTORE SWAP2 PUSH1 0x20 ADD SWAP2 PUSH2 0x2AEE JUMP JUMPDEST DUP3 ADD SWAP2 SWAP1 PUSH1 0x0 MSTORE PUSH1 0x20 PUSH1 0x0 KECCAK256 SWAP1 JUMPDEST DUP2 SLOAD DUP2 MSTORE SWAP1 PUSH1 0x1 ADD SWAP1 PUSH1 0x20 ADD DUP1 DUP4 GT PUSH2 0x2AD1 JUMPI DUP3 SWAP1 SUB PUSH1 0x1F AND DUP3 ADD SWAP2 JUMPDEST POP POP POP POP POP SWAP1 DUP1 PUSH1 0x2 ADD PUSH1 0x0 SWAP1 SLOAD SWAP1 PUSH2 0x100 EXP SWAP1 DIV PUSH20 0xFFFFFFFFFFFFFFFFFFFFFFFFFFFFFFFFFFFFFFFF AND SWAP1 DUP1 PUSH1 0x2 ADD PUSH1 0x14 SWAP1 SLOAD SWAP1 PUSH2 0x100 EXP SWAP1 DIV PUSH1 0xFF AND SWAP1 POP DUP5 JUMP JUMPDEST PUSH2 0x2B3A DUP2 PUSH2 0x3201 JUMP JUMPDEST POP PUSH1 0x6 PUSH1 0x40 MLOAD DUP1 PUSH1 0x80 ADD PUSH1 0x40 MSTORE DUP1 DUP6 PUSH20 0xFFFFFFFFFFFFFFFFFFFFFFFFFFFFFFFFFFFFFFFF AND DUP2 MSTORE PUSH1 0x20 ADD DUP5 DUP2 MSTORE PUSH1 0x20 ADD DUP4 PUSH20 0xFFFFFFFFFFFFFFFFFFFFFFFFFFFFFFFFFFFFFFFF AND DUP2 MSTORE PUSH1 0x20 ADD PUSH1 0x1 ISZERO ISZERO DUP2 MSTORE POP SWAP1 DUP1 PUSH1 0x1 DUP2 SLOAD ADD DUP1 DUP3 SSTORE DUP1 SWAP2 POP POP PUSH1 0x1 SWAP1 SUB SWAP1 PUSH1 0x0 MSTORE PUSH1 0x20 PUSH1 0x0 KECCAK256 SWAP1 PUSH1 0x3 MUL ADD PUSH1 0x0 SWAP1 SWAP2 SWAP1 SWAP2 SWAP1 SWAP2 POP PUSH1 0x0 DUP3 ADD MLOAD DUP2 PUSH1 0x0 ADD PUSH1 0x0 PUSH2 0x100 EXP DUP2 SLOAD DUP2 PUSH20 0xFFFFFFFFFFFFFFFFFFFFFFFFFFFFFFFFFFFFFFFF MUL NOT AND SWAP1 DUP4 PUSH20 0xFFFFFFFFFFFFFFFFFFFFFFFFFFFFFFFFFFFFFFFF AND MUL OR SWAP1 SSTORE POP PUSH1 0x20 DUP3 ADD MLOAD DUP2 PUSH1 0x1 ADD SWAP1 DUP1 MLOAD SWAP1 PUSH1 0x20 ADD SWAP1 PUSH2 0x2C19 SWAP3 SWAP2 SWAP1 PUSH2 0x32DF JUMP JUMPDEST POP PUSH1 0x40 DUP3 ADD MLOAD DUP2 PUSH1 0x2 ADD PUSH1 0x0 PUSH2 0x100 EXP DUP2 SLOAD DUP2 PUSH20 0xFFFFFFFFFFFFFFFFFFFFFFFFFFFFFFFFFFFFFFFF MUL NOT AND SWAP1 DUP4 PUSH20 0xFFFFFFFFFFFFFFFFFFFFFFFFFFFFFFFFFFFFFFFF AND MUL OR SWAP1 SSTORE POP PUSH1 0x60 DUP3 ADD MLOAD DUP2 PUSH1 0x2 ADD PUSH1 0x14 PUSH2 0x100 EXP DUP2 SLOAD DUP2 PUSH1 0xFF MUL NOT AND SWAP1 DUP4 ISZERO ISZERO MUL OR SWAP1 SSTORE POP POP POP PUSH32 0x4578695497AF1A3A1F556F9C89F9F107851CB8E1820E4B336143406B9BA52E3B DUP4 DUP4 DUP4 PUSH1 0x1 PUSH1 0x40 MLOAD PUSH2 0x2CB9 SWAP5 SWAP4 SWAP3 SWAP2 SWAP1 PUSH2 0x3DB8 JUMP JUMPDEST PUSH1 0x40 MLOAD DUP1 SWAP2 SUB SWAP1 LOG1 POP POP POP JUMP JUMPDEST PUSH1 0x8 DUP2 DUP2 SLOAD DUP2 LT PUSH2 0x2CD6 JUMPI PUSH1 0x0 DUP1 REVERT JUMPDEST SWAP1 PUSH1 0x0 MSTORE PUSH1 0x20 PUSH1 0x0 KECCAK256 SWAP1 PUSH1 0x4 MUL ADD PUSH1 0x0 SWAP2 POP SWAP1 POP DUP1 PUSH1 0x0 ADD SLOAD SWAP1 DUP1 PUSH1 0x1 ADD DUP1 SLOAD PUSH1 0x1 DUP2 PUSH1 0x1 AND ISZERO PUSH2 0x100 MUL SUB AND PUSH1 0x2 SWAP1 DIV DUP1 PUSH1 0x1F ADD PUSH1 0x20 DUP1 SWAP2 DIV MUL PUSH1 0x20 ADD PUSH1 0x40 MLOAD SWAP1 DUP2 ADD PUSH1 0x40 MSTORE DUP1 SWAP3 SWAP2 SWAP1 DUP2 DUP2 MSTORE PUSH1 0x20 ADD DUP3 DUP1 SLOAD PUSH1 0x1 DUP2 PUSH1 0x1 AND ISZERO PUSH2 0x100 MUL SUB AND PUSH1 0x2 SWAP1 DIV DUP1 ISZERO PUSH2 0x2D88 JUMPI DUP1 PUSH1 0x1F LT PUSH2 0x2D5D JUMPI PUSH2 0x100 DUP1 DUP4 SLOAD DIV MUL DUP4 MSTORE SWAP2 PUSH1 0x20 ADD SWAP2 PUSH2 0x2D88 JUMP JUMPDEST DUP3 ADD SWAP2 SWAP1 PUSH1 0x0 MSTORE PUSH1 0x20 PUSH1 0x0 KECCAK256 SWAP1 JUMPDEST DUP2 SLOAD DUP2 MSTORE SWAP1 PUSH1 0x1 ADD SWAP1 PUSH1 0x20 ADD DUP1 DUP4 GT PUSH2 0x2D6B JUMPI DUP3 SWAP1 SUB PUSH1 0x1F AND DUP3 ADD SWAP2 JUMPDEST POP POP POP POP POP SWAP1 DUP1 PUSH1 0x2 ADD DUP1 SLOAD PUSH1 0x1 DUP2 PUSH1 0x1 AND ISZERO PUSH2 0x100 MUL SUB AND PUSH1 0x2 SWAP1 DIV DUP1 PUSH1 0x1F ADD PUSH1 0x20 DUP1 SWAP2 DIV MUL PUSH1 0x20 ADD PUSH1 0x40 MLOAD SWAP1 DUP2 ADD PUSH1 0x40 MSTORE DUP1 SWAP3 SWAP2 SWAP1 DUP2 DUP2 MSTORE PUSH1 0x20 ADD DUP3 DUP1 SLOAD PUSH1 0x1 DUP2 PUSH1 0x1 AND ISZERO PUSH2 0x100 MUL SUB AND PUSH1 0x2 SWAP1 DIV DUP1 ISZERO PUSH2 0x2E26 JUMPI DUP1 PUSH1 0x1F LT PUSH2 0x2DFB JUMPI PUSH2 0x100 DUP1 DUP4 SLOAD DIV MUL DUP4 MSTORE SWAP2 PUSH1 0x20 ADD SWAP2 PUSH2 0x2E26 JUMP JUMPDEST DUP3 ADD SWAP2 SWAP1 PUSH1 0x0 MSTORE PUSH1 0x20 PUSH1 0x0 KECCAK256 SWAP1 JUMPDEST DUP2 SLOAD DUP2 MSTORE SWAP1 PUSH1 0x1 ADD SWAP1 PUSH1 0x20 ADD DUP1 DUP4 GT PUSH2 0x2E09 JUMPI DUP3 SWAP1 SUB PUSH1 0x1F AND DUP3 ADD SWAP2 JUMPDEST POP POP POP POP POP SWAP1 DUP1 PUSH1 0x3 ADD PUSH1 0x0 SWAP1 SLOAD SWAP1 PUSH2 0x100 EXP SWAP1 DIV PUSH20 0xFFFFFFFFFFFFFFFFFFFFFFFFFFFFFFFFFFFFFFFF AND SWAP1 DUP1 PUSH1 0x3 ADD PUSH1 0x14 SWAP1 SLOAD SWAP1 PUSH2 0x100 EXP SWAP1 DIV PUSH1 0xFF AND SWAP1 POP DUP6 JUMP JUMPDEST PUSH1 0x60 PUSH1 0x0 PUSH1 0x6 DUP1 SLOAD SWAP1 POP PUSH8 0xFFFFFFFFFFFFFFFF DUP2 GT DUP1 ISZERO PUSH2 0x2E89 JUMPI PUSH1 0x0 DUP1 REVERT JUMPDEST POP PUSH1 0x40 MLOAD SWAP1 DUP1 DUP3 MSTORE DUP1 PUSH1 0x20 MUL PUSH1 0x20 ADD DUP3 ADD PUSH1 0x40 MSTORE DUP1 ISZERO PUSH2 0x2EC3 JUMPI DUP2 PUSH1 0x20 ADD JUMPDEST PUSH2 0x2EB0 PUSH2 0x3402 JUMP JUMPDEST DUP2 MSTORE PUSH1 0x20 ADD SWAP1 PUSH1 0x1 SWAP1 SUB SWAP1 DUP2 PUSH2 0x2EA8 JUMPI SWAP1 POP JUMPDEST POP SWAP1 POP PUSH1 0x0 JUMPDEST PUSH1 0x6 DUP1 SLOAD SWAP1 POP DUP2 LT ISZERO PUSH2 0x3089 JUMPI PUSH1 0x6 DUP2 DUP2 SLOAD DUP2 LT PUSH2 0x2EE3 JUMPI INVALID JUMPDEST SWAP1 PUSH1 0x0 MSTORE PUSH1 0x20 PUSH1 0x0 KECCAK256 SWAP1 PUSH1 0x3 MUL ADD PUSH1 0x40 MLOAD DUP1 PUSH1 0x80 ADD PUSH1 0x40 MSTORE SWAP1 DUP2 PUSH1 0x0 DUP3 ADD PUSH1 0x0 SWAP1 SLOAD SWAP1 PUSH2 0x100 EXP SWAP1 DIV PUSH20 0xFFFFFFFFFFFFFFFFFFFFFFFFFFFFFFFFFFFFFFFF AND PUSH20 0xFFFFFFFFFFFFFFFFFFFFFFFFFFFFFFFFFFFFFFFF AND PUSH20 0xFFFFFFFFFFFFFFFFFFFFFFFFFFFFFFFFFFFFFFFF AND DUP2 MSTORE PUSH1 0x20 ADD PUSH1 0x1 DUP3 ADD DUP1 SLOAD PUSH1 0x1 DUP2 PUSH1 0x1 AND ISZERO PUSH2 0x100 MUL SUB AND PUSH1 0x2 SWAP1 DIV DUP1 PUSH1 0x1F ADD PUSH1 0x20 DUP1 SWAP2 DIV MUL PUSH1 0x20 ADD PUSH1 0x40 MLOAD SWAP1 DUP2 ADD PUSH1 0x40 MSTORE DUP1 SWAP3 SWAP2 SWAP1 DUP2 DUP2 MSTORE PUSH1 0x20 ADD DUP3 DUP1 SLOAD PUSH1 0x1 DUP2 PUSH1 0x1 AND ISZERO PUSH2 0x100 MUL SUB AND PUSH1 0x2 SWAP1 DIV DUP1 ISZERO PUSH2 0x2FEB JUMPI DUP1 PUSH1 0x1F LT PUSH2 0x2FC0 JUMPI PUSH2 0x100 DUP1 DUP4 SLOAD DIV MUL DUP4 MSTORE SWAP2 PUSH1 0x20 ADD SWAP2 PUSH2 0x2FEB JUMP JUMPDEST DUP3 ADD SWAP2 SWAP1 PUSH1 0x0 MSTORE PUSH1 0x20 PUSH1 0x0 KECCAK256 SWAP1 JUMPDEST DUP2 SLOAD DUP2 MSTORE SWAP1 PUSH1 0x1 ADD SWAP1 PUSH1 0x20 ADD DUP1 DUP4 GT PUSH2 0x2FCE JUMPI DUP3 SWAP1 SUB PUSH1 0x1F AND DUP3 ADD SWAP2 JUMPDEST POP POP POP POP POP DUP2 MSTORE PUSH1 0x20 ADD PUSH1 0x2 DUP3 ADD PUSH1 0x0 SWAP1 SLOAD SWAP1 PUSH2 0x100 EXP SWAP1 DIV PUSH20 0xFFFFFFFFFFFFFFFFFFFFFFFFFFFFFFFFFFFFFFFF AND PUSH20 0xFFFFFFFFFFFFFFFFFFFFFFFFFFFFFFFFFFFFFFFF AND PUSH20 0xFFFFFFFFFFFFFFFFFFFFFFFFFFFFFFFFFFFFFFFF AND DUP2 MSTORE PUSH1 0x20 ADD PUSH1 0x2 DUP3 ADD PUSH1 0x14 SWAP1 SLOAD SWAP1 PUSH2 0x100 EXP SWAP1 DIV PUSH1 0xFF AND ISZERO ISZERO ISZERO ISZERO DUP2 MSTORE POP POP DUP3 DUP3 DUP2 MLOAD DUP2 LT PUSH2 0x3071 JUMPI INVALID JUMPDEST PUSH1 0x20 MUL PUSH1 0x20 ADD ADD DUP2 SWAP1 MSTORE POP DUP1 DUP1 PUSH1 0x1 ADD SWAP2 POP POP PUSH2 0x2EC9 JUMP JUMPDEST POP DUP1 SWAP2 POP POP SWAP1 JUMP JUMPDEST PUSH1 0x0 DUP1 PUSH1 0x0 SWAP1 POP JUMPDEST PUSH1 0x8 DUP1 SLOAD SWAP1 POP DUP2 LT ISZERO PUSH2 0x30E2 JUMPI DUP3 PUSH1 0x8 DUP3 DUP2 SLOAD DUP2 LT PUSH2 0x30B4 JUMPI INVALID JUMPDEST SWAP1 PUSH1 0x0 MSTORE PUSH1 0x20 PUSH1 0x0 KECCAK256 SWAP1 PUSH1 0x4 MUL ADD PUSH1 0x0 ADD SLOAD EQ ISZERO PUSH2 0x30D5 JUMPI DUP1 SWAP2 POP POP PUSH2 0x311E JUMP JUMPDEST DUP1 DUP1 PUSH1 0x1 ADD SWAP2 POP POP PUSH2 0x3099 JUMP JUMPDEST POP PUSH1 0x40 MLOAD PUSH32 0x8C379A000000000000000000000000000000000000000000000000000000000 DUP2 MSTORE PUSH1 0x4 ADD PUSH2 0x3115 SWAP1 PUSH2 0x40F9 JUMP JUMPDEST PUSH1 0x40 MLOAD DUP1 SWAP2 SUB SWAP1 REVERT JUMPDEST SWAP2 SWAP1 POP JUMP JUMPDEST PUSH1 0x0 DUP1 PUSH1 0x0 SWAP1 POP JUMPDEST PUSH1 0x6 DUP1 SLOAD SWAP1 POP DUP2 LT ISZERO PUSH2 0x31C0 JUMPI DUP3 PUSH20 0xFFFFFFFFFFFFFFFFFFFFFFFFFFFFFFFFFFFFFFFF AND PUSH1 0x6 DUP3 DUP2 SLOAD DUP2 LT PUSH2 0x315C JUMPI INVALID JUMPDEST SWAP1 PUSH1 0x0 MSTORE PUSH1 0x20 PUSH1 0x0 KECCAK256 SWAP1 PUSH1 0x3 MUL ADD PUSH1 0x0 ADD PUSH1 0x0 SWAP1 SLOAD SWAP1 PUSH2 0x100 EXP SWAP1 DIV PUSH20 0xFFFFFFFFFFFFFFFFFFFFFFFFFFFFFFFFFFFFFFFF AND PUSH20 0xFFFFFFFFFFFFFFFFFFFFFFFFFFFFFFFFFFFFFFFF AND EQ ISZERO PUSH2 0x31B3 JUMPI DUP1 SWAP2 POP POP PUSH2 0x31FC JUMP JUMPDEST DUP1 DUP1 PUSH1 0x1 ADD SWAP2 POP POP PUSH2 0x312B JUMP JUMPDEST POP PUSH1 0x40 MLOAD PUSH32 0x8C379A000000000000000000000000000000000000000000000000000000000 DUP2 MSTORE PUSH1 0x4 ADD PUSH2 0x31F3 SWAP1 PUSH2 0x40D9 JUMP JUMPDEST PUSH1 0x40 MLOAD DUP1 SWAP2 SUB SWAP1 REVERT JUMPDEST SWAP2 SWAP1 POP JUMP JUMPDEST PUSH1 0x0 DUP1 PUSH1 0x0 SWAP1 POP JUMPDEST PUSH1 0x4 DUP1 SLOAD SWAP1 POP DUP2 LT ISZERO PUSH2 0x329E JUMPI DUP3 PUSH20 0xFFFFFFFFFFFFFFFFFFFFFFFFFFFFFFFFFFFFFFFF AND PUSH1 0x4 DUP3 DUP2 SLOAD DUP2 LT PUSH2 0x323A JUMPI INVALID JUMPDEST SWAP1 PUSH1 0x0 MSTORE PUSH1 0x20 PUSH1 0x0 KECCAK256 SWAP1 PUSH1 0x6 MUL ADD PUSH1 0x0 ADD PUSH1 0x0 SWAP1 SLOAD SWAP1 PUSH2 0x100 EXP SWAP1 DIV PUSH20 0xFFFFFFFFFFFFFFFFFFFFFFFFFFFFFFFFFFFFFFFF AND PUSH20 0xFFFFFFFFFFFFFFFFFFFFFFFFFFFFFFFFFFFFFFFF AND EQ ISZERO PUSH2 0x3291 JUMPI DUP1 SWAP2 POP POP PUSH2 0x32DA JUMP JUMPDEST DUP1 DUP1 PUSH1 0x1 ADD SWAP2 POP POP PUSH2 0x3209 JUMP JUMPDEST POP PUSH1 0x40 MLOAD PUSH32 0x8C379A000000000000000000000000000000000000000000000000000000000 DUP2 MSTORE PUSH1 0x4 ADD PUSH2 0x32D1 SWAP1 PUSH2 0x4119 JUMP JUMPDEST PUSH1 0x40 MLOAD DUP1 SWAP2 SUB SWAP1 REVERT JUMPDEST SWAP2 SWAP1 POP JUMP JUMPDEST DUP3 DUP1 SLOAD PUSH1 0x1 DUP2 PUSH1 0x1 AND ISZERO PUSH2 0x100 MUL SUB AND PUSH1 0x2 SWAP1 DIV SWAP1 PUSH1 0x0 MSTORE PUSH1 0x20 PUSH1 0x0 KECCAK256 SWAP1 PUSH1 0x1F ADD PUSH1 0x20 SWAP1 DIV DUP2 ADD SWAP3 DUP3 PUSH2 0x3315 JUMPI PUSH1 0x0 DUP6 SSTORE PUSH2 0x335C JUMP JUMPDEST DUP3 PUSH1 0x1F LT PUSH2 0x332E JUMPI DUP1 MLOAD PUSH1 0xFF NOT AND DUP4 DUP1 ADD OR DUP6 SSTORE PUSH2 0x335C JUMP JUMPDEST DUP3 DUP1 ADD PUSH1 0x1 ADD DUP6 SSTORE DUP3 ISZERO PUSH2 0x335C JUMPI SWAP2 DUP3 ADD JUMPDEST DUP3 DUP2 GT ISZERO PUSH2 0x335B JUMPI DUP3 MLOAD DUP3 SSTORE SWAP2 PUSH1 0x20 ADD SWAP2 SWAP1 PUSH1 0x1 ADD SWAP1 PUSH2 0x3340 JUMP JUMPDEST JUMPDEST POP SWAP1 POP PUSH2 0x3369 SWAP2 SWAP1 PUSH2 0x3458 JUMP JUMPDEST POP SWAP1 JUMP JUMPDEST PUSH1 0x40 MLOAD DUP1 PUSH1 0xC0 ADD PUSH1 0x40 MSTORE DUP1 PUSH1 0x0 PUSH20 0xFFFFFFFFFFFFFFFFFFFFFFFFFFFFFFFFFFFFFFFF AND DUP2 MSTORE PUSH1 0x20 ADD PUSH1 0x60 DUP2 MSTORE PUSH1 0x20 ADD PUSH1 0x60 DUP2 MSTORE PUSH1 0x20 ADD PUSH1 0x60 DUP2 MSTORE PUSH1 0x20 ADD PUSH1 0x0 DUP2 MSTORE PUSH1 0x20 ADD PUSH1 0x0 ISZERO ISZERO DUP2 MSTORE POP SWAP1 JUMP JUMPDEST PUSH1 0x40 MLOAD DUP1 PUSH1 0xA0 ADD PUSH1 0x40 MSTORE DUP1 PUSH1 0x0 DUP2 MSTORE PUSH1 0x20 ADD PUSH1 0x60 DUP2 MSTORE PUSH1 0x20 ADD PUSH1 0x60 DUP2 MSTORE PUSH1 0x20 ADD PUSH1 0x0 PUSH20 0xFFFFFFFFFFFFFFFFFFFFFFFFFFFFFFFFFFFFFFFF AND DUP2 MSTORE PUSH1 0x20 ADD PUSH1 0x0 ISZERO ISZERO DUP2 MSTORE POP SWAP1 JUMP JUMPDEST PUSH1 0x40 MLOAD DUP1 PUSH1 0x80 ADD PUSH1 0x40 MSTORE DUP1 PUSH1 0x0 PUSH20 0xFFFFFFFFFFFFFFFFFFFFFFFFFFFFFFFFFFFFFFFF AND DUP2 MSTORE PUSH1 0x20 ADD PUSH1 0x60 DUP2 MSTORE PUSH1 0x20 ADD PUSH1 0x0 PUSH20 0xFFFFFFFFFFFFFFFFFFFFFFFFFFFFFFFFFFFFFFFF AND DUP2 MSTORE PUSH1 0x20 ADD PUSH1 0x0 ISZERO ISZERO DUP2 MSTORE POP SWAP1 JUMP JUMPDEST JUMPDEST DUP1 DUP3 GT ISZERO PUSH2 0x3471 JUMPI PUSH1 0x0 DUP2 PUSH1 0x0 SWAP1 SSTORE POP PUSH1 0x1 ADD PUSH2 0x3459 JUMP JUMPDEST POP SWAP1 JUMP JUMPDEST PUSH1 0x0 PUSH2 0x3488 PUSH2 0x3483 DUP5 PUSH2 0x429A JUMP JUMPDEST PUSH2 0x4269 JUMP JUMPDEST SWAP1 POP DUP3 DUP2 MSTORE PUSH1 0x20 DUP2 ADD DUP5 DUP5 DUP5 ADD GT ISZERO PUSH2 0x34A0 JUMPI PUSH1 0x0 DUP1 REVERT JUMPDEST PUSH2 0x34AB DUP5 DUP3 DUP6 PUSH2 0x43FF JUMP JUMPDEST POP SWAP4 SWAP3 POP POP POP JUMP JUMPDEST PUSH1 0x0 DUP2 CALLDATALOAD SWAP1 POP PUSH2 0x34C2 DUP2 PUSH2 0x4454 JUMP JUMPDEST SWAP3 SWAP2 POP POP JUMP JUMPDEST PUSH1 0x0 DUP2 CALLDATALOAD SWAP1 POP PUSH2 0x34D7 DUP2 PUSH2 0x446B JUMP JUMPDEST SWAP3 SWAP2 POP POP JUMP JUMPDEST PUSH1 0x0 DUP3 PUSH1 0x1F DUP4 ADD SLT PUSH2 0x34EE JUMPI PUSH1 0x0 DUP1 REVERT JUMPDEST DUP2 CALLDATALOAD PUSH2 0x34FE DUP5 DUP3 PUSH1 0x20 DUP7 ADD PUSH2 0x3475 JUMP JUMPDEST SWAP2 POP POP SWAP3 SWAP2 POP POP JUMP JUMPDEST PUSH1 0x0 DUP2 CALLDATALOAD SWAP1 POP PUSH2 0x3516 DUP2 PUSH2 0x4482 JUMP JUMPDEST SWAP3 SWAP2 POP POP JUMP JUMPDEST PUSH1 0x0 PUSH1 0x20 DUP3 DUP5 SUB SLT ISZERO PUSH2 0x352E JUMPI PUSH1 0x0 DUP1 REVERT JUMPDEST PUSH1 0x0 PUSH2 0x353C DUP5 DUP3 DUP6 ADD PUSH2 0x34B3 JUMP JUMPDEST SWAP2 POP POP SWAP3 SWAP2 POP POP JUMP JUMPDEST PUSH1 0x0 DUP1 PUSH1 0x0 PUSH1 0x60 DUP5 DUP7 SUB SLT ISZERO PUSH2 0x355A JUMPI PUSH1 0x0 DUP1 REVERT JUMPDEST PUSH1 0x0 PUSH2 0x3568 DUP7 DUP3 DUP8 ADD PUSH2 0x34B3 JUMP JUMPDEST SWAP4 POP POP PUSH1 0x20 DUP5 ADD CALLDATALOAD PUSH8 0xFFFFFFFFFFFFFFFF DUP2 GT ISZERO PUSH2 0x3585 JUMPI PUSH1 0x0 DUP1 REVERT JUMPDEST PUSH2 0x3591 DUP7 DUP3 DUP8 ADD PUSH2 0x34DD JUMP JUMPDEST SWAP3 POP POP PUSH1 0x40 PUSH2 0x35A2 DUP7 DUP3 DUP8 ADD PUSH2 0x34B3 JUMP JUMPDEST SWAP2 POP POP SWAP3 POP SWAP3 POP SWAP3 JUMP JUMPDEST PUSH1 0x0 DUP1 PUSH1 0x0 DUP1 PUSH1 0x0 PUSH1 0xA0 DUP7 DUP9 SUB SLT ISZERO PUSH2 0x35C4 JUMPI PUSH1 0x0 DUP1 REVERT JUMPDEST PUSH1 0x0 PUSH2 0x35D2 DUP9 DUP3 DUP10 ADD PUSH2 0x34B3 JUMP JUMPDEST SWAP6 POP POP PUSH1 0x20 DUP7 ADD CALLDATALOAD PUSH8 0xFFFFFFFFFFFFFFFF DUP2 GT ISZERO PUSH2 0x35EF JUMPI PUSH1 0x0 DUP1 REVERT JUMPDEST PUSH2 0x35FB DUP9 DUP3 DUP10 ADD PUSH2 0x34DD JUMP JUMPDEST SWAP5 POP POP PUSH1 0x40 DUP7 ADD CALLDATALOAD PUSH8 0xFFFFFFFFFFFFFFFF DUP2 GT ISZERO PUSH2 0x3618 JUMPI PUSH1 0x0 DUP1 REVERT JUMPDEST PUSH2 0x3624 DUP9 DUP3 DUP10 ADD PUSH2 0x34DD JUMP JUMPDEST SWAP4 POP POP PUSH1 0x60 DUP7 ADD CALLDATALOAD PUSH8 0xFFFFFFFFFFFFFFFF DUP2 GT ISZERO PUSH2 0x3641 JUMPI PUSH1 0x0 DUP1 REVERT JUMPDEST PUSH2 0x364D DUP9 DUP3 DUP10 ADD PUSH2 0x34DD JUMP JUMPDEST SWAP3 POP POP PUSH1 0x80 PUSH2 0x365E DUP9 DUP3 DUP10 ADD PUSH2 0x3507 JUMP JUMPDEST SWAP2 POP POP SWAP3 SWAP6 POP SWAP3 SWAP6 SWAP1 SWAP4 POP JUMP JUMPDEST PUSH1 0x0 DUP1 PUSH1 0x0 DUP1 PUSH1 0x0 DUP1 PUSH1 0xC0 DUP8 DUP10 SUB SLT ISZERO PUSH2 0x3684 JUMPI PUSH1 0x0 DUP1 REVERT JUMPDEST PUSH1 0x0 PUSH2 0x3692 DUP10 DUP3 DUP11 ADD PUSH2 0x34B3 JUMP JUMPDEST SWAP7 POP POP PUSH1 0x20 DUP8 ADD CALLDATALOAD PUSH8 0xFFFFFFFFFFFFFFFF DUP2 GT ISZERO PUSH2 0x36AF JUMPI PUSH1 0x0 DUP1 REVERT JUMPDEST PUSH2 0x36BB DUP10 DUP3 DUP11 ADD PUSH2 0x34DD JUMP JUMPDEST SWAP6 POP POP PUSH1 0x40 DUP8 ADD CALLDATALOAD PUSH8 0xFFFFFFFFFFFFFFFF DUP2 GT ISZERO PUSH2 0x36D8 JUMPI PUSH1 0x0 DUP1 REVERT JUMPDEST PUSH2 0x36E4 DUP10 DUP3 DUP11 ADD PUSH2 0x34DD JUMP JUMPDEST SWAP5 POP POP PUSH1 0x60 DUP8 ADD CALLDATALOAD PUSH8 0xFFFFFFFFFFFFFFFF DUP2 GT ISZERO PUSH2 0x3701 JUMPI PUSH1 0x0 DUP1 REVERT JUMPDEST PUSH2 0x370D DUP10 DUP3 DUP11 ADD PUSH2 0x34DD JUMP JUMPDEST SWAP4 POP POP PUSH1 0x80 PUSH2 0x371E DUP10 DUP3 DUP11 ADD PUSH2 0x3507 JUMP JUMPDEST SWAP3 POP POP PUSH1 0xA0 PUSH2 0x372F DUP10 DUP3 DUP11 ADD PUSH2 0x34C8 JUMP JUMPDEST SWAP2 POP POP SWAP3 SWAP6 POP SWAP3 SWAP6 POP SWAP3 SWAP6 JUMP JUMPDEST PUSH1 0x0 DUP1 PUSH1 0x0 DUP1 PUSH1 0x80 DUP6 DUP8 SUB SLT ISZERO PUSH2 0x3752 JUMPI PUSH1 0x0 DUP1 REVERT JUMPDEST PUSH1 0x0 DUP6 ADD CALLDATALOAD PUSH8 0xFFFFFFFFFFFFFFFF DUP2 GT ISZERO PUSH2 0x376C JUMPI PUSH1 0x0 DUP1 REVERT JUMPDEST PUSH2 0x3778 DUP8 DUP3 DUP9 ADD PUSH2 0x34DD JUMP JUMPDEST SWAP5 POP POP PUSH1 0x20 DUP6 ADD CALLDATALOAD PUSH8 0xFFFFFFFFFFFFFFFF DUP2 GT ISZERO PUSH2 0x3795 JUMPI PUSH1 0x0 DUP1 REVERT JUMPDEST PUSH2 0x37A1 DUP8 DUP3 DUP9 ADD PUSH2 0x34DD JUMP JUMPDEST SWAP4 POP POP PUSH1 0x40 PUSH2 0x37B2 DUP8 DUP3 DUP9 ADD PUSH2 0x34B3 JUMP JUMPDEST SWAP3 POP POP PUSH1 0x60 PUSH2 0x37C3 DUP8 DUP3 DUP9 ADD PUSH2 0x34C8 JUMP JUMPDEST SWAP2 POP POP SWAP3 SWAP6 SWAP2 SWAP5 POP SWAP3 POP JUMP JUMPDEST PUSH1 0x0 PUSH1 0x20 DUP3 DUP5 SUB SLT ISZERO PUSH2 0x37E1 JUMPI PUSH1 0x0 DUP1 REVERT JUMPDEST PUSH1 0x0 PUSH2 0x37EF DUP5 DUP3 DUP6 ADD PUSH2 0x3507 JUMP JUMPDEST SWAP2 POP POP SWAP3 SWAP2 POP POP JUMP JUMPDEST PUSH1 0x0 DUP1 PUSH1 0x0 DUP1 PUSH1 0x80 DUP6 DUP8 SUB SLT ISZERO PUSH2 0x380E JUMPI PUSH1 0x0 DUP1 REVERT JUMPDEST PUSH1 0x0 PUSH2 0x381C DUP8 DUP3 DUP9 ADD PUSH2 0x3507 JUMP JUMPDEST SWAP5 POP POP PUSH1 0x20 DUP6 ADD CALLDATALOAD PUSH8 0xFFFFFFFFFFFFFFFF DUP2 GT ISZERO PUSH2 0x3839 JUMPI PUSH1 0x0 DUP1 REVERT JUMPDEST PUSH2 0x3845 DUP8 DUP3 DUP9 ADD PUSH2 0x34DD JUMP JUMPDEST SWAP4 POP POP PUSH1 0x40 DUP6 ADD CALLDATALOAD PUSH8 0xFFFFFFFFFFFFFFFF DUP2 GT ISZERO PUSH2 0x3862 JUMPI PUSH1 0x0 DUP1 REVERT JUMPDEST PUSH2 0x386E DUP8 DUP3 DUP9 ADD PUSH2 0x34DD JUMP JUMPDEST SWAP3 POP POP PUSH1 0x60 PUSH2 0x387F DUP8 DUP3 DUP9 ADD PUSH2 0x34B3 JUMP JUMPDEST SWAP2 POP POP SWAP3 SWAP6 SWAP2 SWAP5 POP SWAP3 POP JUMP JUMPDEST PUSH1 0x0 PUSH2 0x3897 DUP4 DUP4 PUSH2 0x3C23 JUMP JUMPDEST SWAP1 POP SWAP3 SWAP2 POP POP JUMP JUMPDEST PUSH1 0x0 PUSH2 0x38AB DUP4 DUP4 PUSH2 0x3C86 JUMP JUMPDEST SWAP1 POP SWAP3 SWAP2 POP POP JUMP JUMPDEST PUSH1 0x0 PUSH2 0x38BF DUP4 DUP4 PUSH2 0x3D1D JUMP JUMPDEST SWAP1 POP SWAP3 SWAP2 POP POP JUMP JUMPDEST PUSH2 0x38D0 DUP2 PUSH2 0x43B7 JUMP JUMPDEST DUP3 MSTORE POP POP JUMP JUMPDEST PUSH2 0x38DF DUP2 PUSH2 0x43B7 JUMP JUMPDEST DUP3 MSTORE POP POP JUMP JUMPDEST PUSH1 0x0 PUSH2 0x38F0 DUP3 PUSH2 0x430F JUMP JUMPDEST PUSH2 0x38FA DUP2 DUP6 PUSH2 0x4362 JUMP JUMPDEST SWAP4 POP DUP4 PUSH1 0x20 DUP3 MUL DUP6 ADD PUSH2 0x390C DUP6 PUSH2 0x42CA JUMP JUMPDEST DUP1 PUSH1 0x0 JUMPDEST DUP6 DUP2 LT ISZERO PUSH2 0x3948 JUMPI DUP5 DUP5 SUB DUP10 MSTORE DUP2 MLOAD PUSH2 0x3929 DUP6 DUP3 PUSH2 0x388B JUMP JUMPDEST SWAP5 POP PUSH2 0x3934 DUP4 PUSH2 0x433B JUMP JUMPDEST SWAP3 POP PUSH1 0x20 DUP11 ADD SWAP10 POP POP PUSH1 0x1 DUP2 ADD SWAP1 POP PUSH2 0x3910 JUMP JUMPDEST POP DUP3 SWAP8 POP DUP8 SWAP6 POP POP POP POP POP POP SWAP3 SWAP2 POP POP JUMP JUMPDEST PUSH1 0x0 PUSH2 0x3965 DUP3 PUSH2 0x431A JUMP JUMPDEST PUSH2 0x396F DUP2 DUP6 PUSH2 0x4373 JUMP JUMPDEST SWAP4 POP DUP4 PUSH1 0x20 DUP3 MUL DUP6 ADD PUSH2 0x3981 DUP6 PUSH2 0x42DA JUMP JUMPDEST DUP1 PUSH1 0x0 JUMPDEST DUP6 DUP2 LT ISZERO PUSH2 0x39BD JUMPI DUP5 DUP5 SUB DUP10 MSTORE DUP2 MLOAD PUSH2 0x399E DUP6 DUP3 PUSH2 0x389F JUMP JUMPDEST SWAP5 POP PUSH2 0x39A9 DUP4 PUSH2 0x4348 JUMP JUMPDEST SWAP3 POP PUSH1 0x20 DUP11 ADD SWAP10 POP POP PUSH1 0x1 DUP2 ADD SWAP1 POP PUSH2 0x3985 JUMP JUMPDEST POP DUP3 SWAP8 POP DUP8 SWAP6 POP POP POP POP POP POP SWAP3 SWAP2 POP POP JUMP JUMPDEST PUSH1 0x0 PUSH2 0x39DA DUP3 PUSH2 0x4325 JUMP JUMPDEST PUSH2 0x39E4 DUP2 DUP6 PUSH2 0x4384 JUMP JUMPDEST SWAP4 POP DUP4 PUSH1 0x20 DUP3 MUL DUP6 ADD PUSH2 0x39F6 DUP6 PUSH2 0x42EA JUMP JUMPDEST DUP1 PUSH1 0x0 JUMPDEST DUP6 DUP2 LT ISZERO PUSH2 0x3A32 JUMPI DUP5 DUP5 SUB DUP10 MSTORE DUP2 MLOAD PUSH2 0x3A13 DUP6 DUP3 PUSH2 0x38B3 JUMP JUMPDEST SWAP5 POP PUSH2 0x3A1E DUP4 PUSH2 0x4355 JUMP JUMPDEST SWAP3 POP PUSH1 0x20 DUP11 ADD SWAP10 POP POP PUSH1 0x1 DUP2 ADD SWAP1 POP PUSH2 0x39FA JUMP JUMPDEST POP DUP3 SWAP8 POP DUP8 SWAP6 POP POP POP POP POP POP SWAP3 SWAP2 POP POP JUMP JUMPDEST PUSH2 0x3A4D DUP2 PUSH2 0x43C9 JUMP JUMPDEST DUP3 MSTORE POP POP JUMP JUMPDEST PUSH2 0x3A5C DUP2 PUSH2 0x43C9 JUMP JUMPDEST DUP3 MSTORE POP POP JUMP JUMPDEST PUSH1 0x0 PUSH2 0x3A6D DUP3 PUSH2 0x4330 JUMP JUMPDEST PUSH2 0x3A77 DUP2 DUP6 PUSH2 0x4395 JUMP JUMPDEST SWAP4 POP PUSH2 0x3A87 DUP2 DUP6 PUSH1 0x20 DUP7 ADD PUSH2 0x440E JUMP JUMPDEST PUSH2 0x3A90 DUP2 PUSH2 0x4443 JUMP JUMPDEST DUP5 ADD SWAP2 POP POP SWAP3 SWAP2 POP POP JUMP JUMPDEST PUSH1 0x0 PUSH2 0x3AA6 DUP3 PUSH2 0x4330 JUMP JUMPDEST PUSH2 0x3AB0 DUP2 DUP6 PUSH2 0x43A6 JUMP JUMPDEST SWAP4 POP PUSH2 0x3AC0 DUP2 DUP6 PUSH1 0x20 DUP7 ADD PUSH2 0x440E JUMP JUMPDEST PUSH2 0x3AC9 DUP2 PUSH2 0x4443 JUMP JUMPDEST DUP5 ADD SWAP2 POP POP SWAP3 SWAP2 POP POP JUMP JUMPDEST PUSH1 0x0 DUP2 SLOAD PUSH1 0x1 DUP2 AND PUSH1 0x0 DUP2 EQ PUSH2 0x3AF1 JUMPI PUSH1 0x1 DUP2 EQ PUSH2 0x3B17 JUMPI PUSH2 0x3B5B JUMP JUMPDEST PUSH1 0x7F PUSH1 0x2 DUP4 DIV AND PUSH2 0x3B02 DUP2 DUP8 PUSH2 0x43A6 JUMP JUMPDEST SWAP6 POP PUSH1 0xFF NOT DUP4 AND DUP7 MSTORE PUSH1 0x20 DUP7 ADD SWAP4 POP POP PUSH2 0x3B5B JUMP JUMPDEST PUSH1 0x2 DUP3 DIV PUSH2 0x3B25 DUP2 DUP8 PUSH2 0x43A6 JUMP JUMPDEST SWAP6 POP PUSH2 0x3B30 DUP6 PUSH2 0x42FA JUMP JUMPDEST PUSH1 0x0 JUMPDEST DUP3 DUP2 LT ISZERO PUSH2 0x3B52 JUMPI DUP2 SLOAD DUP2 DUP10 ADD MSTORE PUSH1 0x1 DUP3 ADD SWAP2 POP PUSH1 0x20 DUP2 ADD SWAP1 POP PUSH2 0x3B33 JUMP JUMPDEST DUP1 DUP9 ADD SWAP6 POP POP POP POP JUMPDEST POP POP SWAP3 SWAP2 POP POP JUMP JUMPDEST PUSH1 0x0 PUSH2 0x3B70 PUSH1 0x10 DUP4 PUSH2 0x43A6 JUMP JUMPDEST SWAP2 POP PUSH32 0x446F63746F72206E6F7420666F756E6400000000000000000000000000000000 PUSH1 0x0 DUP4 ADD MSTORE PUSH1 0x20 DUP3 ADD SWAP1 POP SWAP2 SWAP1 POP JUMP JUMPDEST PUSH1 0x0 PUSH2 0x3BB0 PUSH1 0x10 DUP4 PUSH2 0x43A6 JUMP JUMPDEST SWAP2 POP PUSH32 0x53656E736F72206E6F7420666F756E6400000000000000000000000000000000 PUSH1 0x0 DUP4 ADD MSTORE PUSH1 0x20 DUP3 ADD SWAP1 POP SWAP2 SWAP1 POP JUMP JUMPDEST PUSH1 0x0 PUSH2 0x3BF0 PUSH1 0x12 DUP4 PUSH2 0x43A6 JUMP JUMPDEST SWAP2 POP PUSH32 0x486F73706974616C206E6F7420666F756E640000000000000000000000000000 PUSH1 0x0 DUP4 ADD MSTORE PUSH1 0x20 DUP3 ADD SWAP1 POP SWAP2 SWAP1 POP JUMP JUMPDEST PUSH1 0x0 PUSH1 0x80 DUP4 ADD PUSH1 0x0 DUP4 ADD MLOAD PUSH2 0x3C3B PUSH1 0x0 DUP7 ADD DUP3 PUSH2 0x38C7 JUMP JUMPDEST POP PUSH1 0x20 DUP4 ADD MLOAD DUP5 DUP3 SUB PUSH1 0x20 DUP7 ADD MSTORE PUSH2 0x3C53 DUP3 DUP3 PUSH2 0x3A62 JUMP JUMPDEST SWAP2 POP POP PUSH1 0x40 DUP4 ADD MLOAD PUSH2 0x3C68 PUSH1 0x40 DUP7 ADD DUP3 PUSH2 0x38C7 JUMP JUMPDEST POP PUSH1 0x60 DUP4 ADD MLOAD PUSH2 0x3C7B PUSH1 0x60 DUP7 ADD DUP3 PUSH2 0x3A44 JUMP JUMPDEST POP DUP1 SWAP2 POP POP SWAP3 SWAP2 POP POP JUMP JUMPDEST PUSH1 0x0 PUSH1 0xC0 DUP4 ADD PUSH1 0x0 DUP4 ADD MLOAD PUSH2 0x3C9E PUSH1 0x0 DUP7 ADD DUP3 PUSH2 0x38C7 JUMP JUMPDEST POP PUSH1 0x20 DUP4 ADD MLOAD DUP5 DUP3 SUB PUSH1 0x20 DUP7 ADD MSTORE PUSH2 0x3CB6 DUP3 DUP3 PUSH2 0x3A62 JUMP JUMPDEST SWAP2 POP POP PUSH1 0x40 DUP4 ADD MLOAD DUP5 DUP3 SUB PUSH1 0x40 DUP7 ADD MSTORE PUSH2 0x3CD0 DUP3 DUP3 PUSH2 0x3A62 JUMP JUMPDEST SWAP2 POP POP PUSH1 0x60 DUP4 ADD MLOAD DUP5 DUP3 SUB PUSH1 0x60 DUP7 ADD MSTORE PUSH2 0x3CEA DUP3 DUP3 PUSH2 0x3A62 JUMP JUMPDEST SWAP2 POP POP PUSH1 0x80 DUP4 ADD MLOAD PUSH2 0x3CFF PUSH1 0x80 DUP7 ADD DUP3 PUSH2 0x3D9A JUMP JUMPDEST POP PUSH1 0xA0 DUP4 ADD MLOAD PUSH2 0x3D12 PUSH1 0xA0 DUP7 ADD DUP3 PUSH2 0x3A44 JUMP JUMPDEST POP DUP1 SWAP2 POP POP SWAP3 SWAP2 POP POP JUMP JUMPDEST PUSH1 0x0 PUSH1 0xA0 DUP4 ADD PUSH1 0x0 DUP4 ADD MLOAD PUSH2 0x3D35 PUSH1 0x0 DUP7 ADD DUP3 PUSH2 0x3D9A JUMP JUMPDEST POP PUSH1 0x20 DUP4 ADD MLOAD DUP5 DUP3 SUB PUSH1 0x20 DUP7 ADD MSTORE PUSH2 0x3D4D DUP3 DUP3 PUSH2 0x3A62 JUMP JUMPDEST SWAP2 POP POP PUSH1 0x40 DUP4 ADD MLOAD DUP5 DUP3 SUB PUSH1 0x40 DUP7 ADD MSTORE PUSH2 0x3D67 DUP3 DUP3 PUSH2 0x3A62 JUMP JUMPDEST SWAP2 POP POP PUSH1 0x60 DUP4 ADD MLOAD PUSH2 0x3D7C PUSH1 0x60 DUP7 ADD DUP3 PUSH2 0x38C7 JUMP JUMPDEST POP PUSH1 0x80 DUP4 ADD MLOAD PUSH2 0x3D8F PUSH1 0x80 DUP7 ADD DUP3 PUSH2 0x3A44 JUMP JUMPDEST POP DUP1 SWAP2 POP POP SWAP3 SWAP2 POP POP JUMP JUMPDEST PUSH2 0x3DA3 DUP2 PUSH2 0x43F5 JUMP JUMPDEST DUP3 MSTORE POP POP JUMP JUMPDEST PUSH2 0x3DB2 DUP2 PUSH2 0x43F5 JUMP JUMPDEST DUP3 MSTORE POP POP JUMP JUMPDEST PUSH1 0x0 PUSH1 0x80 DUP3 ADD SWAP1 POP PUSH2 0x3DCD PUSH1 0x0 DUP4 ADD DUP8 PUSH2 0x38D6 JUMP JUMPDEST DUP2 DUP2 SUB PUSH1 0x20 DUP4 ADD MSTORE PUSH2 0x3DDF DUP2 DUP7 PUSH2 0x3A9B JUMP JUMPDEST SWAP1 POP PUSH2 0x3DEE PUSH1 0x40 DUP4 ADD DUP6 PUSH2 0x38D6 JUMP JUMPDEST PUSH2 0x3DFB PUSH1 0x60 DUP4 ADD DUP5 PUSH2 0x3A53 JUMP JUMPDEST SWAP6 SWAP5 POP POP POP POP POP JUMP JUMPDEST PUSH1 0x0 PUSH1 0xC0 DUP3 ADD SWAP1 POP PUSH2 0x3E19 PUSH1 0x0 DUP4 ADD DUP10 PUSH2 0x38D6 JUMP JUMPDEST DUP2 DUP2 SUB PUSH1 0x20 DUP4 ADD MSTORE PUSH2 0x3E2B DUP2 DUP9 PUSH2 0x3A9B JUMP JUMPDEST SWAP1 POP DUP2 DUP2 SUB PUSH1 0x40 DUP4 ADD MSTORE PUSH2 0x3E3F DUP2 DUP8 PUSH2 0x3A9B JUMP JUMPDEST SWAP1 POP DUP2 DUP2 SUB PUSH1 0x60 DUP4 ADD MSTORE PUSH2 0x3E53 DUP2 DUP7 PUSH2 0x3A9B JUMP JUMPDEST SWAP1 POP PUSH2 0x3E62 PUSH1 0x80 DUP4 ADD DUP6 PUSH2 0x3DA9 JUMP JUMPDEST PUSH2 0x3E6F PUSH1 0xA0 DUP4 ADD DUP5 PUSH2 0x3A53 JUMP JUMPDEST SWAP8 SWAP7 POP POP POP POP POP POP POP JUMP JUMPDEST PUSH1 0x0 PUSH1 0x60 DUP3 ADD SWAP1 POP PUSH2 0x3E8F PUSH1 0x0 DUP4 ADD DUP7 PUSH2 0x38D6 JUMP JUMPDEST DUP2 DUP2 SUB PUSH1 0x20 DUP4 ADD MSTORE PUSH2 0x3EA1 DUP2 DUP6 PUSH2 0x3AD4 JUMP JUMPDEST SWAP1 POP PUSH2 0x3EB0 PUSH1 0x40 DUP4 ADD DUP5 PUSH2 0x38D6 JUMP JUMPDEST SWAP5 SWAP4 POP POP POP POP JUMP JUMPDEST PUSH1 0x0 PUSH1 0x80 DUP3 ADD SWAP1 POP PUSH2 0x3ECD PUSH1 0x0 DUP4 ADD DUP8 PUSH2 0x38D6 JUMP JUMPDEST DUP2 DUP2 SUB PUSH1 0x20 DUP4 ADD MSTORE PUSH2 0x3EDF DUP2 DUP7 PUSH2 0x3AD4 JUMP JUMPDEST SWAP1 POP PUSH2 0x3EEE PUSH1 0x40 DUP4 ADD DUP6 PUSH2 0x38D6 JUMP JUMPDEST PUSH2 0x3EFB PUSH1 0x60 DUP4 ADD DUP5 PUSH2 0x3A53 JUMP JUMPDEST SWAP6 SWAP5 POP POP POP POP POP JUMP JUMPDEST PUSH1 0x0 PUSH1 0xC0 DUP3 ADD SWAP1 POP PUSH2 0x3F19 PUSH1 0x0 DUP4 ADD DUP10 PUSH2 0x38D6 JUMP JUMPDEST DUP2 DUP2 SUB PUSH1 0x20 DUP4 ADD MSTORE PUSH2 0x3F2B DUP2 DUP9 PUSH2 0x3AD4 JUMP JUMPDEST SWAP1 POP DUP2 DUP2 SUB PUSH1 0x40 DUP4 ADD MSTORE PUSH2 0x3F3F DUP2 DUP8 PUSH2 0x3AD4 JUMP JUMPDEST SWAP1 POP DUP2 DUP2 SUB PUSH1 0x60 DUP4 ADD MSTORE PUSH2 0x3F53 DUP2 DUP7 PUSH2 0x3AD4 JUMP JUMPDEST SWAP1 POP PUSH2 0x3F62 PUSH1 0x80 DUP4 ADD DUP6 PUSH2 0x3DA9 JUMP JUMPDEST PUSH2 0x3F6F PUSH1 0xA0 DUP4 ADD DUP5 PUSH2 0x3A53 JUMP JUMPDEST SWAP8 SWAP7 POP POP POP POP POP POP POP JUMP JUMPDEST PUSH1 0x0 PUSH1 0x20 DUP3 ADD SWAP1 POP DUP2 DUP2 SUB PUSH1 0x0 DUP4 ADD MSTORE PUSH2 0x3F94 DUP2 DUP5 PUSH2 0x38E5 JUMP JUMPDEST SWAP1 POP SWAP3 SWAP2 POP POP JUMP JUMPDEST PUSH1 0x0 PUSH1 0x20 DUP3 ADD SWAP1 POP DUP2 DUP2 SUB PUSH1 0x0 DUP4 ADD MSTORE PUSH2 0x3FB6 DUP2 DUP5 PUSH2 0x395A JUMP JUMPDEST SWAP1 POP SWAP3 SWAP2 POP POP JUMP JUMPDEST PUSH1 0x0 PUSH1 0x20 DUP3 ADD SWAP1 POP DUP2 DUP2 SUB PUSH1 0x0 DUP4 ADD MSTORE PUSH2 0x3FD8 DUP2 DUP5 PUSH2 0x39CF JUMP JUMPDEST SWAP1 POP SWAP3 SWAP2 POP POP JUMP JUMPDEST PUSH1 0x0 PUSH1 0x60 DUP3 ADD SWAP1 POP DUP2 DUP2 SUB PUSH1 0x0 DUP4 ADD MSTORE PUSH2 0x3FFA DUP2 DUP7 PUSH2 0x3A9B JUMP JUMPDEST SWAP1 POP PUSH2 0x4009 PUSH1 0x20 DUP4 ADD DUP6 PUSH2 0x38D6 JUMP JUMPDEST PUSH2 0x4016 PUSH1 0x40 DUP4 ADD DUP5 PUSH2 0x3A53 JUMP JUMPDEST SWAP5 SWAP4 POP POP POP POP JUMP JUMPDEST PUSH1 0x0 PUSH1 0x80 DUP3 ADD SWAP1 POP DUP2 DUP2 SUB PUSH1 0x0 DUP4 ADD MSTORE PUSH2 0x4038 DUP2 DUP8 PUSH2 0x3A9B JUMP JUMPDEST SWAP1 POP DUP2 DUP2 SUB PUSH1 0x20 DUP4 ADD MSTORE PUSH2 0x404C DUP2 DUP7 PUSH2 0x3A9B JUMP JUMPDEST SWAP1 POP PUSH2 0x405B PUSH1 0x40 DUP4 ADD DUP6 PUSH2 0x38D6 JUMP JUMPDEST PUSH2 0x4068 PUSH1 0x60 DUP4 ADD DUP5 PUSH2 0x3A53 JUMP JUMPDEST SWAP6 SWAP5 POP POP POP POP POP JUMP JUMPDEST PUSH1 0x0 PUSH1 0xA0 DUP3 ADD SWAP1 POP DUP2 DUP2 SUB PUSH1 0x0 DUP4 ADD MSTORE PUSH2 0x408B DUP2 DUP9 PUSH2 0x3A9B JUMP JUMPDEST SWAP1 POP DUP2 DUP2 SUB PUSH1 0x20 DUP4 ADD MSTORE PUSH2 0x409F DUP2 DUP8 PUSH2 0x3A9B JUMP JUMPDEST SWAP1 POP DUP2 DUP2 SUB PUSH1 0x40 DUP4 ADD MSTORE PUSH2 0x40B3 DUP2 DUP7 PUSH2 0x3A9B JUMP JUMPDEST SWAP1 POP PUSH2 0x40C2 PUSH1 0x60 DUP4 ADD DUP6 PUSH2 0x3DA9 JUMP JUMPDEST PUSH2 0x40CF PUSH1 0x80 DUP4 ADD DUP5 PUSH2 0x3A53 JUMP JUMPDEST SWAP7 SWAP6 POP POP POP POP POP POP JUMP JUMPDEST PUSH1 0x0 PUSH1 0x20 DUP3 ADD SWAP1 POP DUP2 DUP2 SUB PUSH1 0x0 DUP4 ADD MSTORE PUSH2 0x40F2 DUP2 PUSH2 0x3B63 JUMP JUMPDEST SWAP1 POP SWAP2 SWAP1 POP JUMP JUMPDEST PUSH1 0x0 PUSH1 0x20 DUP3 ADD SWAP1 POP DUP2 DUP2 SUB PUSH1 0x0 DUP4 ADD MSTORE PUSH2 0x4112 DUP2 PUSH2 0x3BA3 JUMP JUMPDEST SWAP1 POP SWAP2 SWAP1 POP JUMP JUMPDEST PUSH1 0x0 PUSH1 0x20 DUP3 ADD SWAP1 POP DUP2 DUP2 SUB PUSH1 0x0 DUP4 ADD MSTORE PUSH2 0x4132 DUP2 PUSH2 0x3BE3 JUMP JUMPDEST SWAP1 POP SWAP2 SWAP1 POP JUMP JUMPDEST PUSH1 0x0 PUSH1 0x20 DUP3 ADD SWAP1 POP PUSH2 0x414E PUSH1 0x0 DUP4 ADD DUP5 PUSH2 0x3DA9 JUMP JUMPDEST SWAP3 SWAP2 POP POP JUMP JUMPDEST PUSH1 0x0 PUSH1 0xA0 DUP3 ADD SWAP1 POP PUSH2 0x4169 PUSH1 0x0 DUP4 ADD DUP9 PUSH2 0x3DA9 JUMP JUMPDEST DUP2 DUP2 SUB PUSH1 0x20 DUP4 ADD MSTORE PUSH2 0x417B DUP2 DUP8 PUSH2 0x3A9B JUMP JUMPDEST SWAP1 POP DUP2 DUP2 SUB PUSH1 0x40 DUP4 ADD MSTORE PUSH2 0x418F DUP2 DUP7 PUSH2 0x3A9B JUMP JUMPDEST SWAP1 POP PUSH2 0x419E PUSH1 0x60 DUP4 ADD DUP6 PUSH2 0x38D6 JUMP JUMPDEST PUSH2 0x41AB PUSH1 0x80 DUP4 ADD DUP5 PUSH2 0x3A53 JUMP JUMPDEST SWAP7 SWAP6 POP POP POP POP POP POP JUMP JUMPDEST PUSH1 0x0 PUSH1 0x80 DUP3 ADD SWAP1 POP PUSH2 0x41CA PUSH1 0x0 DUP4 ADD DUP8 PUSH2 0x3DA9 JUMP JUMPDEST DUP2 DUP2 SUB PUSH1 0x20 DUP4 ADD MSTORE PUSH2 0x41DC DUP2 DUP7 PUSH2 0x3AD4 JUMP JUMPDEST SWAP1 POP DUP2 DUP2 SUB PUSH1 0x40 DUP4 ADD MSTORE PUSH2 0x41F0 DUP2 DUP6 PUSH2 0x3AD4 JUMP JUMPDEST SWAP1 POP PUSH2 0x41FF PUSH1 0x60 DUP4 ADD DUP5 PUSH2 0x38D6 JUMP JUMPDEST SWAP6 SWAP5 POP POP POP POP POP JUMP JUMPDEST PUSH1 0x0 PUSH1 0xA0 DUP3 ADD SWAP1 POP PUSH2 0x421D PUSH1 0x0 DUP4 ADD DUP9 PUSH2 0x3DA9 JUMP JUMPDEST DUP2 DUP2 SUB PUSH1 0x20 DUP4 ADD MSTORE PUSH2 0x422F DUP2 DUP8 PUSH2 0x3AD4 JUMP JUMPDEST SWAP1 POP DUP2 DUP2 SUB PUSH1 0x40 DUP4 ADD MSTORE PUSH2 0x4243 DUP2 DUP7 PUSH2 0x3AD4 JUMP JUMPDEST SWAP1 POP PUSH2 0x4252 PUSH1 0x60 DUP4 ADD DUP6 PUSH2 0x38D6 JUMP JUMPDEST PUSH2 0x425F PUSH1 0x80 DUP4 ADD DUP5 PUSH2 0x3A53 JUMP JUMPDEST SWAP7 SWAP6 POP POP POP POP POP POP JUMP JUMPDEST PUSH1 0x0 PUSH1 0x40 MLOAD SWAP1 POP DUP2 DUP2 ADD DUP2 DUP2 LT PUSH8 0xFFFFFFFFFFFFFFFF DUP3 GT OR ISZERO PUSH2 0x4290 JUMPI PUSH2 0x428F PUSH2 0x4441 JUMP JUMPDEST JUMPDEST DUP1 PUSH1 0x40 MSTORE POP SWAP2 SWAP1 POP JUMP JUMPDEST PUSH1 0x0 PUSH8 0xFFFFFFFFFFFFFFFF DUP3 GT ISZERO PUSH2 0x42B5 JUMPI PUSH2 0x42B4 PUSH2 0x4441 JUMP JUMPDEST JUMPDEST PUSH1 0x1F NOT PUSH1 0x1F DUP4 ADD AND SWAP1 POP PUSH1 0x20 DUP2 ADD SWAP1 POP SWAP2 SWAP1 POP JUMP JUMPDEST PUSH1 0x0 DUP2 SWAP1 POP PUSH1 0x20 DUP3 ADD SWAP1 POP SWAP2 SWAP1 POP JUMP JUMPDEST PUSH1 0x0 DUP2 SWAP1 POP PUSH1 0x20 DUP3 ADD SWAP1 POP SWAP2 SWAP1 POP JUMP JUMPDEST PUSH1 0x0 DUP2 SWAP1 POP PUSH1 0x20 DUP3 ADD SWAP1 POP SWAP2 SWAP1 POP JUMP JUMPDEST PUSH1 0x0 DUP2 SWAP1 POP DUP2 PUSH1 0x0 MSTORE PUSH1 0x20 PUSH1 0x0 KECCAK256 SWAP1 POP SWAP2 SWAP1 POP JUMP JUMPDEST PUSH1 0x0 DUP2 MLOAD SWAP1 POP SWAP2 SWAP1 POP JUMP JUMPDEST PUSH1 0x0 DUP2 MLOAD SWAP1 POP SWAP2 SWAP1 POP JUMP JUMPDEST PUSH1 0x0 DUP2 MLOAD SWAP1 POP SWAP2 SWAP1 POP JUMP JUMPDEST PUSH1 0x0 DUP2 MLOAD SWAP1 POP SWAP2 SWAP1 POP JUMP JUMPDEST PUSH1 0x0 PUSH1 0x20 DUP3 ADD SWAP1 POP SWAP2 SWAP1 POP JUMP JUMPDEST PUSH1 0x0 PUSH1 0x20 DUP3 ADD SWAP1 POP SWAP2 SWAP1 POP JUMP JUMPDEST PUSH1 0x0 PUSH1 0x20 DUP3 ADD SWAP1 POP SWAP2 SWAP1 POP JUMP JUMPDEST PUSH1 0x0 DUP3 DUP3 MSTORE PUSH1 0x20 DUP3 ADD SWAP1 POP SWAP3 SWAP2 POP POP JUMP JUMPDEST PUSH1 0x0 DUP3 DUP3 MSTORE PUSH1 0x20 DUP3 ADD SWAP1 POP SWAP3 SWAP2 POP POP JUMP JUMPDEST PUSH1 0x0 DUP3 DUP3 MSTORE PUSH1 0x20 DUP3 ADD SWAP1 POP SWAP3 SWAP2 POP POP JUMP JUMPDEST PUSH1 0x0 DUP3 DUP3 MSTORE PUSH1 0x20 DUP3 ADD SWAP1 POP SWAP3 SWAP2 POP POP JUMP JUMPDEST PUSH1 0x0 DUP3 DUP3 MSTORE PUSH1 0x20 DUP3 ADD SWAP1 POP SWAP3 SWAP2 POP POP JUMP JUMPDEST PUSH1 0x0 PUSH2 0x43C2 DUP3 PUSH2 0x43D5 JUMP JUMPDEST SWAP1 POP SWAP2 SWAP1 POP JUMP JUMPDEST PUSH1 0x0 DUP2 ISZERO ISZERO SWAP1 POP SWAP2 SWAP1 POP JUMP JUMPDEST PUSH1 0x0 PUSH20 0xFFFFFFFFFFFFFFFFFFFFFFFFFFFFFFFFFFFFFFFF DUP3 AND SWAP1 POP SWAP2 SWAP1 POP JUMP JUMPDEST PUSH1 0x0 DUP2 SWAP1 POP SWAP2 SWAP1 POP JUMP JUMPDEST DUP3 DUP2 DUP4 CALLDATACOPY PUSH1 0x0 DUP4 DUP4 ADD MSTORE POP POP POP JUMP JUMPDEST PUSH1 0x0 JUMPDEST DUP4 DUP2 LT ISZERO PUSH2 0x442C JUMPI DUP1 DUP3 ADD MLOAD DUP2 DUP5 ADD MSTORE PUSH1 0x20 DUP2 ADD SWAP1 POP PUSH2 0x4411 JUMP JUMPDEST DUP4 DUP2 GT ISZERO PUSH2 0x443B JUMPI PUSH1 0x0 DUP5 DUP5 ADD MSTORE JUMPDEST POP POP POP POP JUMP JUMPDEST INVALID JUMPDEST PUSH1 0x0 PUSH1 0x1F NOT PUSH1 0x1F DUP4 ADD AND SWAP1 POP SWAP2 SWAP1 POP JUMP JUMPDEST PUSH2 0x445D DUP2 PUSH2 0x43B7 JUMP JUMPDEST DUP2 EQ PUSH2 0x4468 JUMPI PUSH1 0x0 DUP1 REVERT JUMPDEST POP JUMP JUMPDEST PUSH2 0x4474 DUP2 PUSH2 0x43C9 JUMP JUMPDEST DUP2 EQ PUSH2 0x447F JUMPI PUSH1 0x0 DUP1 REVERT JUMPDEST POP JUMP JUMPDEST PUSH2 0x448B DUP2 PUSH2 0x43F5 JUMP JUMPDEST DUP2 EQ PUSH2 0x4496 JUMPI PUSH1 0x0 DUP1 REVERT JUMPDEST POP JUMP INVALID LOG2 PUSH5 0x6970667358 0x22 SLT KECCAK256 0x5C 0xD8 0xF8 0x27 DUP4 PC CREATE2 PUSH30 0x8221F058C3FCE7A954813CBAF758046BDCD568DAC667D4F964736F6C6343 STOP SMOD MOD STOP CALLER "
    },
    "gasEstimates": {
      "creation": {
        "codeDepositCost": "3523000",
        "executionCost": "24816",
        "totalCost": "3547816"
      },
      "external": {
        "AddDoctor(address,string,address)": "infinite",
        "AddHospital(address,string,string,string,uint256)": "infinite",
        "AddSensor(string,string,address,bool)": "infinite",
        "Doctors(address)": "infinite",
        "Hospitals(address)": "infinite",
        "Length_Doctors()": "1213",
        "Length_Hospitals()": "1234",
        "Length_sensors()": "1190",
        "ReadDoctor(address)": "infinite",
        "ReadHospital(address)": "infinite",
        "ReadSensor(uint256)": "infinite",
        "RemoveDoctor(address)": "infinite",
        "RemoveHospital(address)": "infinite",
        "RemoveSensor(uint256)": "infinite",
        "Sensors(address)": "infinite",
        "UpdateDoctor(address,string,address)": "infinite",
        "UpdateHospital(address,string,string,string,uint256,bool)": "infinite",
        "UpdateSensor(uint256,string,string,address)": "infinite",
        "doctorsHospital(uint256)": "infinite",
        "getAllDoctors()": "infinite",
        "getAllDoctorsInHospital(address)": "infinite",
        "getAllHospitals()": "infinite",
        "getAllSensorOfDoctor(address)": "infinite",
        "getAllSensors()": "infinite",
        "hospitalCenters(uint256)": "infinite",
        "sensorsDoctor(uint256)": "infinite"
      },
      "internal": {
        "FindDoctor(address)": "infinite",
        "FindHospital(address)": "infinite",
        "FindSensor(uint256)": "infinite"
      }
    },
    "methodIdentifiers": {
      "AddDoctor(address,string,address)": "e1ee3b56",
      "AddHospital(address,string,string,string,uint256)": "a27876c5",
      "AddSensor(string,string,address,bool)": "1b057e40",
      "Doctors(address)": "dc7aa36b",
      "Hospitals(address)": "a549a4ed",
      "Length_Doctors()": "1ba51696",
      "Length_Hospitals()": "a17d7a38",
      "Length_sensors()": "b5843613",
      "ReadDoctor(address)": "6cd8ebdc",
      "ReadHospital(address)": "9b70e779",
      "ReadSensor(uint256)": "02655c2e",
      "RemoveDoctor(address)": "a0568e2d",
      "RemoveHospital(address)": "4807fc69",
      "RemoveSensor(uint256)": "6151efb1",
      "Sensors(address)": "898bd140",
      "UpdateDoctor(address,string,address)": "1bdc5098",
      "UpdateHospital(address,string,string,string,uint256,bool)": "7fe53f83",
      "UpdateSensor(uint256,string,string,address)": "459d470e",
      "doctorsHospital(uint256)": "8db2fc41",
      "getAllDoctors()": "f0d95090",
      "getAllDoctorsInHospital(address)": "c266406d",
      "getAllHospitals()": "4e9f7154",
      "getAllSensorOfDoctor(address)": "9a2e5bed",
      "getAllSensors()": "5a4e5d3e",
      "hospitalCenters(uint256)": "d53d0a85",
      "sensorsDoctor(uint256)": "ea87659f"
    }
  },
  "storageLayout": {
    "storage": [
      {
        "astId": 4,
        "contract": "EHealth.sol:EHealth",
        "label": "nextIdDoctor",
        "offset": 0,
        "slot": "0",
        "type": "t_uint256"
      },
      {
        "astId": 6,
        "contract": "EHealth.sol:EHealth",
        "label": "nextIdSensor",
        "offset": 0,
        "slot": "1",
        "type": "t_uint256"
      },
      {
        "astId": 9,
        "contract": "EHealth.sol:EHealth",
        "label": "owner",
        "offset": 0,
        "slot": "2",
        "type": "t_address"
      },
      {
        "astId": 13,
        "contract": "EHealth.sol:EHealth",
        "label": "Hospitals",
        "offset": 0,
        "slot": "3",
        "type": "t_mapping(t_address,t_struct(Hospital)26_storage)"
      },
      {
        "astId": 29,
        "contract": "EHealth.sol:EHealth",
        "label": "hospitalCenters",
        "offset": 0,
        "slot": "4",
        "type": "t_array(t_struct(Hospital)26_storage)dyn_storage"
      },
      {
        "astId": 33,
        "contract": "EHealth.sol:EHealth",
        "label": "Doctors",
        "offset": 0,
        "slot": "5",
        "type": "t_mapping(t_address,t_struct(Doctor)42_storage)"
      },
      {
        "astId": 45,
        "contract": "EHealth.sol:EHealth",
        "label": "doctorsHospital",
        "offset": 0,
        "slot": "6",
        "type": "t_array(t_struct(Doctor)42_storage)dyn_storage"
      },
      {
        "astId": 49,
        "contract": "EHealth.sol:EHealth",
        "label": "Sensors",
        "offset": 0,
        "slot": "7",
        "type": "t_mapping(t_address,t_struct(Sensor)60_storage)"
      },
      {
        "astId": 63,
        "contract": "EHealth.sol:EHealth",
        "label": "sensorsDoctor",
        "offset": 0,
        "slot": "8",
        "type": "t_array(t_struct(Sensor)60_storage)dyn_storage"
      }
    ],
    "types": {
      "t_address": {
        "encoding": "inplace",
        "label": "address",
        "numberOfBytes": "20"
      },
      "t_array(t_struct(Doctor)42_storage)dyn_storage": {
        "base": "t_struct(Doctor)42_storage",
        "encoding": "dynamic_array",
        "label": "struct EHealth.Doctor[]",
        "numberOfBytes": "32"
      },
      "t_array(t_struct(Hospital)26_storage)dyn_storage": {
        "base": "t_struct(Hospital)26_storage",
        "encoding": "dynamic_array",
        "label": "struct EHealth.Hospital[]",
        "numberOfBytes": "32"
      },
      "t_array(t_struct(Sensor)60_storage)dyn_storage": {
        "base": "t_struct(Sensor)60_storage",
        "encoding": "dynamic_array",
        "label": "struct EHealth.Sensor[]",
        "numberOfBytes": "32"
      },
      "t_bool": {
        "encoding": "inplace",
        "label": "bool",
        "numberOfBytes": "1"
      },
      "t_mapping(t_address,t_struct(Doctor)42_storage)": {
        "encoding": "mapping",
        "key": "t_address",
        "label": "mapping(address => struct EHealth.Doctor)",
        "numberOfBytes": "32",
        "value": "t_struct(Doctor)42_storage"
      },
      "t_mapping(t_address,t_struct(Hospital)26_storage)": {
        "encoding": "mapping",
        "key": "t_address",
        "label": "mapping(address => struct EHealth.Hospital)",
        "numberOfBytes": "32",
        "value": "t_struct(Hospital)26_storage"
      },
      "t_mapping(t_address,t_struct(Sensor)60_storage)": {
        "encoding": "mapping",
        "key": "t_address",
        "label": "mapping(address => struct EHealth.Sensor)",
        "numberOfBytes": "32",
        "value": "t_struct(Sensor)60_storage"
      },
      "t_string_storage": {
        "encoding": "bytes",
        "label": "string",
        "numberOfBytes": "32"
      },
      "t_struct(Doctor)42_storage": {
        "encoding": "inplace",
        "label": "struct EHealth.Doctor",
        "members": [
          {
            "astId": 35,
            "contract": "EHealth.sol:EHealth",
            "label": "idDoctor",
            "offset": 0,
            "slot": "0",
            "type": "t_address"
          },
          {
            "astId": 37,
            "contract": "EHealth.sol:EHealth",
            "label": "nameDoctor",
            "offset": 0,
            "slot": "1",
            "type": "t_string_storage"
          },
          {
            "astId": 39,
            "contract": "EHealth.sol:EHealth",
            "label": "hospital",
            "offset": 0,
            "slot": "2",
            "type": "t_address"
          },
          {
            "astId": 41,
            "contract": "EHealth.sol:EHealth",
            "label": "permission",
            "offset": 20,
            "slot": "2",
            "type": "t_bool"
          }
        ],
        "numberOfBytes": "96"
      },
      "t_struct(Hospital)26_storage": {
        "encoding": "inplace",
        "label": "struct EHealth.Hospital",
        "members": [
          {
            "astId": 15,
            "contract": "EHealth.sol:EHealth",
            "label": "idHospital",
            "offset": 0,
            "slot": "0",
            "type": "t_address"
          },
          {
            "astId": 17,
            "contract": "EHealth.sol:EHealth",
            "label": "name",
            "offset": 0,
            "slot": "1",
            "type": "t_string_storage"
          },
          {
            "astId": 19,
            "contract": "EHealth.sol:EHealth",
            "label": "city",
            "offset": 0,
            "slot": "2",
            "type": "t_string_storage"
          },
          {
            "astId": 21,
            "contract": "EHealth.sol:EHealth",
            "label": "state",
            "offset": 0,
            "slot": "3",
            "type": "t_string_storage"
          },
          {
            "astId": 23,
            "contract": "EHealth.sol:EHealth",
            "label": "postalCode",
            "offset": 0,
            "slot": "4",
            "type": "t_uint256"
          },
          {
            "astId": 25,
            "contract": "EHealth.sol:EHealth",
            "label": "permission",
            "offset": 0,
            "slot": "5",
            "type": "t_bool"
          }
        ],
        "numberOfBytes": "192"
      },
      "t_struct(Sensor)60_storage": {
        "encoding": "inplace",
        "label": "struct EHealth.Sensor",
        "members": [
          {
            "astId": 51,
            "contract": "EHealth.sol:EHealth",
            "label": "idSensor",
            "offset": 0,
            "slot": "0",
            "type": "t_uint256"
          },
          {
            "astId": 53,
            "contract": "EHealth.sol:EHealth",
            "label": "MAC",
            "offset": 0,
            "slot": "1",
            "type": "t_string_storage"
          },
          {
            "astId": 55,
            "contract": "EHealth.sol:EHealth",
            "label": "patientName",
            "offset": 0,
            "slot": "2",
            "type": "t_string_storage"
          },
          {
            "astId": 57,
            "contract": "EHealth.sol:EHealth",
            "label": "idDoctor",
            "offset": 0,
            "slot": "3",
            "type": "t_address"
          },
          {
            "astId": 59,
            "contract": "EHealth.sol:EHealth",
            "label": "active",
            "offset": 20,
            "slot": "3",
            "type": "t_bool"
          }
        ],
        "numberOfBytes": "128"
      },
      "t_uint256": {
        "encoding": "inplace",
        "label": "uint256",
        "numberOfBytes": "32"
      }
    }
  },
  "userdoc": {
    "kind": "user",
    "methods": {},
    "version": 1
  },
  "address": "0xDe1a10AEB542cBB6aEb92803f93D3fb48E836eb0"
}