{
  "abi": [
    {
      "anonymous": false,
      "inputs": [
        {
          "indexed": false,
          "internalType": "bool",
          "name": "",
          "type": "bool"
        }
      ],
      "name": "DeleteDoctor",
      "type": "event",
      "signature": "0x1909dc80d38cec2305bb06a97fde80daf0763d013f86fbcee9e1954812fb6170"
    },
    {
      "anonymous": false,
      "inputs": [
        {
          "indexed": false,
          "internalType": "bool",
          "name": "",
          "type": "bool"
        }
      ],
      "name": "DeleteHospital",
      "type": "event",
      "signature": "0x504c2311f6f6b45d598b8afb05a690fa48a8bb4dbe0659e5e2e0a30e0b570931"
    },
    {
      "anonymous": false,
      "inputs": [
        {
          "indexed": false,
          "internalType": "bool",
          "name": "",
          "type": "bool"
        }
      ],
      "name": "DeleteSensor",
      "type": "event",
      "signature": "0xbacb2438fad2c96302d0732482e49098457b065c15d428040d57c1a60c4da5db"
    },
    {
      "anonymous": false,
      "inputs": [
        {
          "indexed": false,
          "internalType": "address",
          "name": "",
          "type": "address"
        },
        {
          "indexed": false,
          "internalType": "string",
          "name": "",
          "type": "string"
        },
        {
          "indexed": false,
          "internalType": "address",
          "name": "",
          "type": "address"
        },
        {
          "indexed": false,
          "internalType": "bool",
          "name": "",
          "type": "bool"
        }
      ],
      "name": "NewDoctor",
      "type": "event",
      "signature": "0x4578695497af1a3a1f556f9c89f9f107851cb8e1820e4b336143406b9ba52e3b"
    },
    {
      "anonymous": false,
      "inputs": [
        {
          "indexed": false,
          "internalType": "address",
          "name": "",
          "type": "address"
        },
        {
          "indexed": false,
          "internalType": "string",
          "name": "",
          "type": "string"
        },
        {
          "indexed": false,
          "internalType": "string",
          "name": "",
          "type": "string"
        },
        {
          "indexed": false,
          "internalType": "string",
          "name": "",
          "type": "string"
        },
        {
          "indexed": false,
          "internalType": "bool",
          "name": "",
          "type": "bool"
        }
      ],
      "name": "NewHospital",
      "type": "event",
      "signature": "0x9917861c3a3ecbbfc9c1c79292231a8510f14a6b5b92883b799ede7f4e3db13e"
    },
    {
      "anonymous": false,
      "inputs": [
        {
          "indexed": false,
          "internalType": "uint256",
          "name": "",
          "type": "uint256"
        },
        {
          "indexed": false,
          "internalType": "string",
          "name": "",
          "type": "string"
        },
        {
          "indexed": false,
          "internalType": "string",
          "name": "",
          "type": "string"
        },
        {
          "indexed": false,
          "internalType": "address",
          "name": "",
          "type": "address"
        },
        {
          "indexed": false,
          "internalType": "bool",
          "name": "",
          "type": "bool"
        },
        {
          "indexed": false,
          "internalType": "uint256[]",
          "name": "",
          "type": "uint256[]"
        }
      ],
      "name": "NewSensor",
      "type": "event",
      "signature": "0x23f4ceea50d8ef88465d5bb07ab2960540f3c2414851cf0a137f2ee3a4ab6fa8"
    },
    {
      "anonymous": false,
      "inputs": [
        {
          "indexed": false,
          "internalType": "address",
          "name": "",
          "type": "address"
        },
        {
          "indexed": false,
          "internalType": "string",
          "name": "",
          "type": "string"
        },
        {
          "indexed": false,
          "internalType": "address",
          "name": "",
          "type": "address"
        },
        {
          "indexed": false,
          "internalType": "bool",
          "name": "",
          "type": "bool"
        }
      ],
      "name": "RefreshDoctor",
      "type": "event",
      "signature": "0x6fcbc4a02269ac36204ac7e60c4cf625c6fc2b2365cac750c9927b670e347f90"
    },
    {
      "anonymous": false,
      "inputs": [
        {
          "indexed": false,
          "internalType": "address",
          "name": "",
          "type": "address"
        },
        {
          "indexed": false,
          "internalType": "string",
          "name": "",
          "type": "string"
        },
        {
          "indexed": false,
          "internalType": "string",
          "name": "",
          "type": "string"
        },
        {
          "indexed": false,
          "internalType": "string",
          "name": "",
          "type": "string"
        },
        {
          "indexed": false,
          "internalType": "bool",
          "name": "",
          "type": "bool"
        }
      ],
      "name": "RefreshHospital",
      "type": "event",
      "signature": "0x3d82d4e7ec0cefe7b5122162926d868862a9400d5385fb1f35e42902d793471f"
    },
    {
      "anonymous": false,
      "inputs": [
        {
          "indexed": false,
          "internalType": "uint256",
          "name": "",
          "type": "uint256"
        },
        {
          "indexed": false,
          "internalType": "string",
          "name": "",
          "type": "string"
        },
        {
          "indexed": false,
          "internalType": "string",
          "name": "",
          "type": "string"
        },
        {
          "indexed": false,
          "internalType": "address",
          "name": "",
          "type": "address"
        },
        {
          "indexed": false,
          "internalType": "bool",
          "name": "",
          "type": "bool"
        }
      ],
      "name": "RefreshSensor",
      "type": "event",
      "signature": "0x3ab6f9ea2e72cad17988f4527dc5626fa4e97c597fcbd9d7e2a7e820851b54ce"
    },
    {
      "anonymous": false,
      "inputs": [],
      "name": "getAllHospital",
      "type": "event",
      "signature": "0x5f5954a0a7bea78290fdaccfbe49296f4d76a076a445d34743a2a33cf6adaa72"
    },
    {
      "anonymous": false,
      "inputs": [
        {
          "indexed": false,
          "internalType": "string",
          "name": "",
          "type": "string"
        },
        {
          "indexed": false,
          "internalType": "address",
          "name": "",
          "type": "address"
        },
        {
          "indexed": false,
          "internalType": "bool",
          "name": "",
          "type": "bool"
        }
      ],
      "name": "readOneDoctor",
      "type": "event",
      "signature": "0x7c4c58d93f955c7f9b4a2be5cf509d7c94a46836f8f74d6635d0b82c351a2201"
    },
    {
      "anonymous": false,
      "inputs": [
        {
          "indexed": false,
          "internalType": "string",
          "name": "",
          "type": "string"
        },
        {
          "indexed": false,
          "internalType": "string",
          "name": "",
          "type": "string"
        },
        {
          "indexed": false,
          "internalType": "string",
          "name": "",
          "type": "string"
        },
        {
          "indexed": false,
          "internalType": "bool",
          "name": "",
          "type": "bool"
        }
      ],
      "name": "readOneHospital",
      "type": "event",
      "signature": "0x6be65c9f3c67bc969041a561bbacc201592d913f0882f1ae815d0e1024ee1441"
    },
    {
      "anonymous": false,
      "inputs": [
        {
          "indexed": false,
          "internalType": "string",
          "name": "",
          "type": "string"
        },
        {
          "indexed": false,
          "internalType": "string",
          "name": "",
          "type": "string"
        },
        {
          "indexed": false,
          "internalType": "address",
          "name": "",
          "type": "address"
        },
        {
          "indexed": false,
          "internalType": "bool",
          "name": "",
          "type": "bool"
        }
      ],
      "name": "readOneSensor",
      "type": "event",
      "signature": "0x96b8ce31e723499cfa5718932f181f9cef6b0a506a65e5ea428108e4c57a0177"
    },
    {
      "anonymous": false,
      "inputs": [
        {
          "indexed": false,
          "internalType": "uint256[]",
          "name": "",
          "type": "uint256[]"
        }
      ],
      "name": "sendingData",
      "type": "event",
      "signature": "0x8321c73cb88b0de970036215ac93f066782f919a37f631ba659637273caffc3a"
    },
    {
      "anonymous": false,
      "inputs": [
        {
          "indexed": false,
          "internalType": "uint256[]",
          "name": "",
          "type": "uint256[]"
        }
      ],
      "name": "viewData",
      "type": "event",
      "signature": "0x3d8eab5a764cca9ac258723e30a67dde729be4e476271c7ede160ca7bf01d475"
    },
    {
      "inputs": [
        {
          "internalType": "address",
          "name": "idDoctor",
          "type": "address"
        },
        {
          "internalType": "string",
          "name": "_nameDoctor",
          "type": "string"
        },
        {
          "internalType": "address",
          "name": "_hospital",
          "type": "address"
        }
      ],
      "name": "AddDoctor",
      "outputs": [],
      "stateMutability": "nonpayable",
      "type": "function",
      "signature": "0xe1ee3b56"
    },
    {
      "inputs": [
        {
          "internalType": "address",
          "name": "_idHospital",
          "type": "address"
        },
        {
          "internalType": "string",
          "name": "_name",
          "type": "string"
        },
        {
          "internalType": "string",
          "name": "_state",
          "type": "string"
        },
        {
          "internalType": "string",
          "name": "_postalCode",
          "type": "string"
        }
      ],
      "name": "AddHospital",
      "outputs": [],
      "stateMutability": "nonpayable",
      "type": "function",
      "signature": "0xa5d4a684"
    },
    {
      "inputs": [
        {
          "internalType": "string",
          "name": "_mac",
          "type": "string"
        },
        {
          "internalType": "string",
          "name": "_patientName",
          "type": "string"
        },
        {
          "internalType": "address",
          "name": "_idDoctor",
          "type": "address"
        },
        {
          "internalType": "bool",
          "name": "_active",
          "type": "bool"
        }
      ],
      "name": "AddSensor",
      "outputs": [],
      "stateMutability": "nonpayable",
      "type": "function",
      "signature": "0x1b057e40"
    },
    {
      "inputs": [
        {
          "internalType": "address",
          "name": "",
          "type": "address"
        }
      ],
      "name": "Doctors",
      "outputs": [
        {
          "internalType": "address",
          "name": "idDoctor",
          "type": "address"
        },
        {
          "internalType": "string",
          "name": "nameDoctor",
          "type": "string"
        },
        {
          "internalType": "address",
          "name": "hospital",
          "type": "address"
        },
        {
          "internalType": "bool",
          "name": "permission",
          "type": "bool"
        }
      ],
      "stateMutability": "view",
      "type": "function",
      "constant": true,
      "signature": "0xdc7aa36b"
    },
    {
      "inputs": [
        {
          "internalType": "address",
          "name": "",
          "type": "address"
        }
      ],
      "name": "Hospitals",
      "outputs": [
        {
          "internalType": "address",
          "name": "idHospital",
          "type": "address"
        },
        {
          "internalType": "string",
          "name": "name",
          "type": "string"
        },
        {
          "internalType": "string",
          "name": "state",
          "type": "string"
        },
        {
          "internalType": "string",
          "name": "postalCode",
          "type": "string"
        },
        {
          "internalType": "bool",
          "name": "permission",
          "type": "bool"
        }
      ],
      "stateMutability": "view",
      "type": "function",
      "constant": true,
      "signature": "0xa549a4ed"
    },
    {
      "inputs": [
        {
          "internalType": "address",
          "name": "_id",
          "type": "address"
        }
      ],
      "name": "ReadDoctor",
      "outputs": [
        {
          "internalType": "string",
          "name": "",
          "type": "string"
        },
        {
          "internalType": "address",
          "name": "",
          "type": "address"
        },
        {
          "internalType": "bool",
          "name": "",
          "type": "bool"
        }
      ],
      "stateMutability": "view",
      "type": "function",
      "constant": true,
      "signature": "0x6cd8ebdc"
    },
    {
      "inputs": [
        {
          "internalType": "address",
          "name": "_address",
          "type": "address"
        }
      ],
      "name": "ReadHospital",
      "outputs": [
        {
          "internalType": "string",
          "name": "",
          "type": "string"
        },
        {
          "internalType": "string",
          "name": "",
          "type": "string"
        },
        {
          "internalType": "string",
          "name": "",
          "type": "string"
        },
        {
          "internalType": "bool",
          "name": "",
          "type": "bool"
        }
      ],
      "stateMutability": "view",
      "type": "function",
      "constant": true,
      "signature": "0x9b70e779"
    },
    {
      "inputs": [
        {
          "internalType": "uint256",
          "name": "_id",
          "type": "uint256"
        }
      ],
      "name": "ReadSensor",
      "outputs": [
        {
          "internalType": "string",
          "name": "",
          "type": "string"
        },
        {
          "internalType": "string",
          "name": "",
          "type": "string"
        },
        {
          "internalType": "address",
          "name": "",
          "type": "address"
        },
        {
          "internalType": "bool",
          "name": "",
          "type": "bool"
        }
      ],
      "stateMutability": "view",
      "type": "function",
      "constant": true,
      "signature": "0x02655c2e"
    },
    {
      "inputs": [
        {
          "internalType": "address",
          "name": "_id",
          "type": "address"
        }
      ],
      "name": "RemoveDoctor",
      "outputs": [],
      "stateMutability": "nonpayable",
      "type": "function",
      "signature": "0xa0568e2d"
    },
    {
      "inputs": [
        {
          "internalType": "address",
          "name": "_address",
          "type": "address"
        }
      ],
      "name": "RemoveHospital",
      "outputs": [],
      "stateMutability": "nonpayable",
      "type": "function",
      "signature": "0x4807fc69"
    },
    {
      "inputs": [
        {
          "internalType": "uint256",
          "name": "_id",
          "type": "uint256"
        },
        {
          "internalType": "address",
          "name": "_idDoctor",
          "type": "address"
        }
      ],
      "name": "RemoveSensor",
      "outputs": [],
      "stateMutability": "nonpayable",
      "type": "function",
      "signature": "0xe0764bb5"
    },
    {
      "inputs": [
        {
          "internalType": "address",
          "name": "",
          "type": "address"
        }
      ],
      "name": "Sensors",
      "outputs": [
        {
          "internalType": "uint256",
          "name": "idSensor",
          "type": "uint256"
        },
        {
          "internalType": "string",
          "name": "MAC",
          "type": "string"
        },
        {
          "internalType": "string",
          "name": "patientName",
          "type": "string"
        },
        {
          "internalType": "address",
          "name": "idDoctor",
          "type": "address"
        },
        {
          "internalType": "bool",
          "name": "active",
          "type": "bool"
        }
      ],
      "stateMutability": "view",
      "type": "function",
      "constant": true,
      "signature": "0x898bd140"
    },
    {
      "inputs": [
        {
          "internalType": "address",
          "name": "_id",
          "type": "address"
        },
        {
          "internalType": "string",
          "name": "_nameDoctor",
          "type": "string"
        },
        {
          "internalType": "address",
          "name": "_hospital",
          "type": "address"
        },
        {
          "internalType": "bool",
          "name": "_permission",
          "type": "bool"
        }
      ],
      "name": "UpdateDoctor",
      "outputs": [],
      "stateMutability": "nonpayable",
      "type": "function",
      "signature": "0x60ea3cdc"
    },
    {
      "inputs": [
        {
          "internalType": "address",
          "name": "_address",
          "type": "address"
        },
        {
          "internalType": "string",
          "name": "_name",
          "type": "string"
        },
        {
          "internalType": "string",
          "name": "_state",
          "type": "string"
        },
        {
          "internalType": "string",
          "name": "_postalCode",
          "type": "string"
        },
        {
          "internalType": "bool",
          "name": "_permission",
          "type": "bool"
        }
      ],
      "name": "UpdateHospital",
      "outputs": [],
      "stateMutability": "nonpayable",
      "type": "function",
      "signature": "0xa57308d4"
    },
    {
      "inputs": [
        {
          "internalType": "uint256",
          "name": "_id",
          "type": "uint256"
        },
        {
          "internalType": "string",
          "name": "_mac",
          "type": "string"
        },
        {
          "internalType": "string",
          "name": "_patientName",
          "type": "string"
        },
        {
          "internalType": "address",
          "name": "_idDoctor",
          "type": "address"
        },
        {
          "internalType": "bool",
          "name": "_active",
          "type": "bool"
        }
      ],
      "name": "UpdateSensor",
      "outputs": [],
      "stateMutability": "nonpayable",
      "type": "function",
      "signature": "0x6f39507d"
    },
    {
      "inputs": [
        {
          "internalType": "uint256",
          "name": "",
          "type": "uint256"
        }
      ],
      "name": "doctorsHospital",
      "outputs": [
        {
          "internalType": "address",
          "name": "idDoctor",
          "type": "address"
        },
        {
          "internalType": "string",
          "name": "nameDoctor",
          "type": "string"
        },
        {
          "internalType": "address",
          "name": "hospital",
          "type": "address"
        },
        {
          "internalType": "bool",
          "name": "permission",
          "type": "bool"
        }
      ],
      "stateMutability": "view",
      "type": "function",
      "constant": true,
      "signature": "0x8db2fc41"
    },
    {
      "inputs": [],
      "name": "getAllDoctors",
      "outputs": [
        {
          "components": [
            {
              "internalType": "address",
              "name": "idDoctor",
              "type": "address"
            },
            {
              "internalType": "string",
              "name": "nameDoctor",
              "type": "string"
            },
            {
              "internalType": "address",
              "name": "hospital",
              "type": "address"
            },
            {
              "internalType": "bool",
              "name": "permission",
              "type": "bool"
            }
          ],
          "internalType": "struct EHealth.Doctor[]",
          "name": "",
          "type": "tuple[]"
        }
      ],
      "stateMutability": "view",
      "type": "function",
      "constant": true,
      "signature": "0xf0d95090"
    },
    {
      "inputs": [
        {
          "internalType": "address",
          "name": "_address",
          "type": "address"
        }
      ],
      "name": "getAllDoctorsInHospital",
      "outputs": [
        {
          "components": [
            {
              "internalType": "address",
              "name": "idDoctor",
              "type": "address"
            },
            {
              "internalType": "string",
              "name": "nameDoctor",
              "type": "string"
            },
            {
              "internalType": "address",
              "name": "hospital",
              "type": "address"
            },
            {
              "internalType": "bool",
              "name": "permission",
              "type": "bool"
            }
          ],
          "internalType": "struct EHealth.Doctor[]",
          "name": "",
          "type": "tuple[]"
        }
      ],
      "stateMutability": "view",
      "type": "function",
      "constant": true,
      "signature": "0xc266406d"
    },
    {
      "inputs": [],
      "name": "getAllHospitals",
      "outputs": [
        {
          "components": [
            {
              "internalType": "address",
              "name": "idHospital",
              "type": "address"
            },
            {
              "internalType": "string",
              "name": "name",
              "type": "string"
            },
            {
              "internalType": "string",
              "name": "state",
              "type": "string"
            },
            {
              "internalType": "string",
              "name": "postalCode",
              "type": "string"
            },
            {
              "internalType": "bool",
              "name": "permission",
              "type": "bool"
            }
          ],
          "internalType": "struct EHealth.Hospital[]",
          "name": "",
          "type": "tuple[]"
        }
      ],
      "stateMutability": "view",
      "type": "function",
      "constant": true,
      "signature": "0x4e9f7154"
    },
    {
      "inputs": [
        {
          "internalType": "address",
          "name": "_idDoctor",
          "type": "address"
        }
      ],
      "name": "getAllSensorOfDoctor",
      "outputs": [
        {
          "components": [
            {
              "internalType": "uint256",
              "name": "idSensor",
              "type": "uint256"
            },
            {
              "internalType": "string",
              "name": "MAC",
              "type": "string"
            },
            {
              "internalType": "string",
              "name": "patientName",
              "type": "string"
            },
            {
              "internalType": "address",
              "name": "idDoctor",
              "type": "address"
            },
            {
              "internalType": "bool",
              "name": "active",
              "type": "bool"
            },
            {
              "internalType": "uint256[]",
              "name": "data",
              "type": "uint256[]"
            }
          ],
          "internalType": "struct EHealth.Sensor[]",
          "name": "",
          "type": "tuple[]"
        }
      ],
      "stateMutability": "view",
      "type": "function",
      "constant": true,
      "signature": "0x9a2e5bed"
    },
    {
      "inputs": [],
      "name": "getAllSensors",
      "outputs": [
        {
          "components": [
            {
              "internalType": "uint256",
              "name": "idSensor",
              "type": "uint256"
            },
            {
              "internalType": "string",
              "name": "MAC",
              "type": "string"
            },
            {
              "internalType": "string",
              "name": "patientName",
              "type": "string"
            },
            {
              "internalType": "address",
              "name": "idDoctor",
              "type": "address"
            },
            {
              "internalType": "bool",
              "name": "active",
              "type": "bool"
            },
            {
              "internalType": "uint256[]",
              "name": "data",
              "type": "uint256[]"
            }
          ],
          "internalType": "struct EHealth.Sensor[]",
          "name": "",
          "type": "tuple[]"
        }
      ],
      "stateMutability": "view",
      "type": "function",
      "constant": true,
      "signature": "0x5a4e5d3e"
    },
    {
      "inputs": [
        {
          "internalType": "uint256",
          "name": "",
          "type": "uint256"
        }
      ],
      "name": "hospitalCenters",
      "outputs": [
        {
          "internalType": "address",
          "name": "idHospital",
          "type": "address"
        },
        {
          "internalType": "string",
          "name": "name",
          "type": "string"
        },
        {
          "internalType": "string",
          "name": "state",
          "type": "string"
        },
        {
          "internalType": "string",
          "name": "postalCode",
          "type": "string"
        },
        {
          "internalType": "bool",
          "name": "permission",
          "type": "bool"
        }
      ],
      "stateMutability": "view",
      "type": "function",
      "constant": true,
      "signature": "0xd53d0a85"
    },
    {
      "inputs": [],
      "name": "oracleAddress",
      "outputs": [
        {
          "internalType": "address",
          "name": "",
          "type": "address"
        }
      ],
      "stateMutability": "view",
      "type": "function",
      "constant": true,
      "signature": "0xa89ae4ba"
    },
    {
      "inputs": [
        {
          "internalType": "uint256",
          "name": "_idSensor",
          "type": "uint256"
        },
        {
          "internalType": "uint256[]",
          "name": "_data",
          "type": "uint256[]"
        }
      ],
      "name": "sendData",
      "outputs": [],
      "stateMutability": "nonpayable",
      "type": "function",
      "signature": "0x4444cc92"
    },
    {
      "inputs": [
        {
          "internalType": "uint256",
          "name": "",
          "type": "uint256"
        }
      ],
      "name": "sensorsDoctor",
      "outputs": [
        {
          "internalType": "uint256",
          "name": "idSensor",
          "type": "uint256"
        },
        {
          "internalType": "string",
          "name": "MAC",
          "type": "string"
        },
        {
          "internalType": "string",
          "name": "patientName",
          "type": "string"
        },
        {
          "internalType": "address",
          "name": "idDoctor",
          "type": "address"
        },
        {
          "internalType": "bool",
          "name": "active",
          "type": "bool"
        }
      ],
      "stateMutability": "view",
      "type": "function",
      "constant": true,
      "signature": "0xea87659f"
    },
    {
      "inputs": [
        {
          "internalType": "uint256",
          "name": "_idSensor",
          "type": "uint256"
        },
        {
          "internalType": "address",
          "name": "_idDoctor",
          "type": "address"
        }
      ],
      "name": "viewSensorData",
      "outputs": [
        {
          "internalType": "uint256[]",
          "name": "",
          "type": "uint256[]"
        }
      ],
      "stateMutability": "view",
      "type": "function",
      "constant": true,
      "signature": "0xc0c2e0fa"
    }
  ],
  "devdoc": {
    "kind": "dev",
    "methods": {},
    "version": 1
  },
  "evm": {
    "assembly": "    /* \"EHealth.sol\":111:10430  contract EHealth {... */\n  mstore(0x40, 0x80)\n    /* \"EHealth.sol\":220:262  0x8FcF3B91599C6d5bb93D8c7df9f3974C622b83a4 */\n  0x8fcf3b91599c6d5bb93d8c7df9f3974c622b83a4\n    /* \"EHealth.sol\":204:262  address owner = 0x8FcF3B91599C6d5bb93D8c7df9f3974C622b83a4 */\n  0x02\n  exp(0x0100, 0x00)\n  dup2\n  sload\n  dup2\n  0xffffffffffffffffffffffffffffffffffffffff\n  mul\n  not\n  and\n  swap1\n  dup4\n  0xffffffffffffffffffffffffffffffffffffffff\n  and\n  mul\n  or\n  swap1\n  sstore\n  pop\n    /* \"EHealth.sol\":324:366  0x4B0AF919E9D85ea5CeEbe21ee4F8E3b2A2951b15 */\n  0x4b0af919e9d85ea5ceebe21ee4f8e3b2a2951b15\n    /* \"EHealth.sol\":293:366  address public oracleAddress = 0x4B0AF919E9D85ea5CeEbe21ee4F8E3b2A2951b15 */\n  0x03\n  exp(0x0100, 0x00)\n  dup2\n  sload\n  dup2\n  0xffffffffffffffffffffffffffffffffffffffff\n  mul\n  not\n  and\n  swap1\n  dup4\n  0xffffffffffffffffffffffffffffffffffffffff\n  and\n  mul\n  or\n  swap1\n  sstore\n  pop\n    /* \"EHealth.sol\":111:10430  contract EHealth {... */\n  callvalue\n  dup1\n  iszero\n  tag_1\n  jumpi\n  0x00\n  dup1\n  revert\ntag_1:\n  pop\n  dataSize(sub_0)\n  dup1\n  dataOffset(sub_0)\n  0x00\n  codecopy\n  0x00\n  return\nstop\n\nsub_0: assembly {\n        /* \"EHealth.sol\":111:10430  contract EHealth {... */\n      mstore(0x40, 0x80)\n      callvalue\n      dup1\n      iszero\n      tag_1\n      jumpi\n      0x00\n      dup1\n      revert\n    tag_1:\n      pop\n      jumpi(tag_2, lt(calldatasize, 0x04))\n      shr(0xe0, calldataload(0x00))\n      dup1\n      0xa0568e2d\n      gt\n      tag_29\n      jumpi\n      dup1\n      0xc266406d\n      gt\n      tag_30\n      jumpi\n      dup1\n      0xe0764bb5\n      gt\n      tag_31\n      jumpi\n      dup1\n      0xe0764bb5\n      eq\n      tag_25\n      jumpi\n      dup1\n      0xe1ee3b56\n      eq\n      tag_26\n      jumpi\n      dup1\n      0xea87659f\n      eq\n      tag_27\n      jumpi\n      dup1\n      0xf0d95090\n      eq\n      tag_28\n      jumpi\n      jump(tag_2)\n    tag_31:\n      dup1\n      0xc266406d\n      eq\n      tag_22\n      jumpi\n      dup1\n      0xd53d0a85\n      eq\n      tag_23\n      jumpi\n      dup1\n      0xdc7aa36b\n      eq\n      tag_24\n      jumpi\n      jump(tag_2)\n    tag_30:\n      dup1\n      0xa0568e2d\n      eq\n      tag_16\n      jumpi\n      dup1\n      0xa549a4ed\n      eq\n      tag_17\n      jumpi\n      dup1\n      0xa57308d4\n      eq\n      tag_18\n      jumpi\n      dup1\n      0xa5d4a684\n      eq\n      tag_19\n      jumpi\n      dup1\n      0xa89ae4ba\n      eq\n      tag_20\n      jumpi\n      dup1\n      0xc0c2e0fa\n      eq\n      tag_21\n      jumpi\n      jump(tag_2)\n    tag_29:\n      dup1\n      0x60ea3cdc\n      gt\n      tag_32\n      jumpi\n      dup1\n      0x898bd140\n      gt\n      tag_33\n      jumpi\n      dup1\n      0x898bd140\n      eq\n      tag_12\n      jumpi\n      dup1\n      0x8db2fc41\n      eq\n      tag_13\n      jumpi\n      dup1\n      0x9a2e5bed\n      eq\n      tag_14\n      jumpi\n      dup1\n      0x9b70e779\n      eq\n      tag_15\n      jumpi\n      jump(tag_2)\n    tag_33:\n      dup1\n      0x60ea3cdc\n      eq\n      tag_9\n      jumpi\n      dup1\n      0x6cd8ebdc\n      eq\n      tag_10\n      jumpi\n      dup1\n      0x6f39507d\n      eq\n      tag_11\n      jumpi\n      jump(tag_2)\n    tag_32:\n      dup1\n      0x02655c2e\n      eq\n      tag_3\n      jumpi\n      dup1\n      0x1b057e40\n      eq\n      tag_4\n      jumpi\n      dup1\n      0x4444cc92\n      eq\n      tag_5\n      jumpi\n      dup1\n      0x4807fc69\n      eq\n      tag_6\n      jumpi\n      dup1\n      0x4e9f7154\n      eq\n      tag_7\n      jumpi\n      dup1\n      0x5a4e5d3e\n      eq\n      tag_8\n      jumpi\n    tag_2:\n      0x00\n      dup1\n      revert\n        /* \"EHealth.sol\":8633:8942  function ReadSensor(uint _id)... */\n    tag_3:\n      tag_34\n      0x04\n      dup1\n      calldatasize\n      sub\n      dup2\n      add\n      swap1\n      tag_35\n      swap2\n      swap1\n      tag_36\n      jump\t// in\n    tag_35:\n      tag_37\n      jump\t// in\n    tag_34:\n      mload(0x40)\n      tag_38\n      swap5\n      swap4\n      swap3\n      swap2\n      swap1\n      tag_39\n      jump\t// in\n    tag_38:\n      mload(0x40)\n      dup1\n      swap2\n      sub\n      swap1\n      return\n        /* \"EHealth.sol\":6954:7380  function AddSensor(string memory _mac, string memory _patientName, address _idDoctor, bool _active) ... */\n    tag_4:\n      tag_40\n      0x04\n      dup1\n      calldatasize\n      sub\n      dup2\n      add\n      swap1\n      tag_41\n      swap2\n      swap1\n      tag_42\n      jump\t// in\n    tag_41:\n      tag_43\n      jump\t// in\n    tag_40:\n      stop\n        /* \"EHealth.sol\":9591:9781  function sendData(uint _idSensor, uint[] memory _data) ... */\n    tag_5:\n      tag_44\n      0x04\n      dup1\n      calldatasize\n      sub\n      dup2\n      add\n      swap1\n      tag_45\n      swap2\n      swap1\n      tag_46\n      jump\t// in\n    tag_45:\n      tag_47\n      jump\t// in\n    tag_44:\n      stop\n        /* \"EHealth.sol\":2652:2903  function RemoveHospital(address _address) ... */\n    tag_6:\n      tag_48\n      0x04\n      dup1\n      calldatasize\n      sub\n      dup2\n      add\n      swap1\n      tag_49\n      swap2\n      swap1\n      tag_50\n      jump\t// in\n    tag_49:\n      tag_51\n      jump\t// in\n    tag_48:\n      stop\n        /* \"EHealth.sol\":3630:3806  function getAllHospitals() ... */\n    tag_7:\n      tag_52\n      tag_53\n      jump\t// in\n    tag_52:\n      mload(0x40)\n      tag_54\n      swap2\n      swap1\n      tag_55\n      jump\t// in\n    tag_54:\n      mload(0x40)\n      dup1\n      swap2\n      sub\n      swap1\n      return\n        /* \"EHealth.sol\":8968:9105  function getAllSensors() ... */\n    tag_8:\n      tag_56\n      tag_57\n      jump\t// in\n    tag_56:\n      mload(0x40)\n      tag_58\n      swap2\n      swap1\n      tag_59\n      jump\t// in\n    tag_58:\n      mload(0x40)\n      dup1\n      swap2\n      sub\n      swap1\n      return\n        /* \"EHealth.sol\":5226:5772  function UpdateDoctor(address _id, string memory _nameDoctor, address _hospital ,bool _permission) ... */\n    tag_9:\n      tag_60\n      0x04\n      dup1\n      calldatasize\n      sub\n      dup2\n      add\n      swap1\n      tag_61\n      swap2\n      swap1\n      tag_62\n      jump\t// in\n    tag_61:\n      tag_63\n      jump\t// in\n    tag_60:\n      stop\n        /* \"EHealth.sol\":5802:6215  function ReadDoctor(address _id)... */\n    tag_10:\n      tag_64\n      0x04\n      dup1\n      calldatasize\n      sub\n      dup2\n      add\n      swap1\n      tag_65\n      swap2\n      swap1\n      tag_50\n      jump\t// in\n    tag_65:\n      tag_66\n      jump\t// in\n    tag_64:\n      mload(0x40)\n      tag_67\n      swap4\n      swap3\n      swap2\n      swap1\n      tag_68\n      jump\t// in\n    tag_67:\n      mload(0x40)\n      dup1\n      swap2\n      sub\n      swap1\n      return\n        /* \"EHealth.sol\":7991:8603  function UpdateSensor(uint _id, string memory _mac, string memory _patientName,address _idDoctor, bool _active ) ... */\n    tag_11:\n      tag_69\n      0x04\n      dup1\n      calldatasize\n      sub\n      dup2\n      add\n      swap1\n      tag_70\n      swap2\n      swap1\n      tag_71\n      jump\t// in\n    tag_70:\n      tag_72\n      jump\t// in\n    tag_69:\n      stop\n        /* \"EHealth.sol\":896:936  mapping(address=> Sensor) public Sensors */\n    tag_12:\n      tag_73\n      0x04\n      dup1\n      calldatasize\n      sub\n      dup2\n      add\n      swap1\n      tag_74\n      swap2\n      swap1\n      tag_50\n      jump\t// in\n    tag_74:\n      tag_75\n      jump\t// in\n    tag_73:\n      mload(0x40)\n      tag_76\n      swap6\n      swap5\n      swap4\n      swap3\n      swap2\n      swap1\n      tag_77\n      jump\t// in\n    tag_76:\n      mload(0x40)\n      dup1\n      swap2\n      sub\n      swap1\n      return\n        /* \"EHealth.sol\":844:875  Doctor[] public doctorsHospital */\n    tag_13:\n      tag_78\n      0x04\n      dup1\n      calldatasize\n      sub\n      dup2\n      add\n      swap1\n      tag_79\n      swap2\n      swap1\n      tag_36\n      jump\t// in\n    tag_79:\n      tag_80\n      jump\t// in\n    tag_78:\n      mload(0x40)\n      tag_81\n      swap5\n      swap4\n      swap3\n      swap2\n      swap1\n      tag_82\n      jump\t// in\n    tag_81:\n      mload(0x40)\n      dup1\n      swap2\n      sub\n      swap1\n      return\n        /* \"EHealth.sol\":9151:9558  function getAllSensorOfDoctor (address _idDoctor) ... */\n    tag_14:\n      tag_83\n      0x04\n      dup1\n      calldatasize\n      sub\n      dup2\n      add\n      swap1\n      tag_84\n      swap2\n      swap1\n      tag_50\n      jump\t// in\n    tag_84:\n      tag_85\n      jump\t// in\n    tag_83:\n      mload(0x40)\n      tag_86\n      swap2\n      swap1\n      tag_59\n      jump\t// in\n    tag_86:\n      mload(0x40)\n      dup1\n      swap2\n      sub\n      swap1\n      return\n        /* \"EHealth.sol\":3839:4191  function ReadHospital(address _address) ... */\n    tag_15:\n      tag_87\n      0x04\n      dup1\n      calldatasize\n      sub\n      dup2\n      add\n      swap1\n      tag_88\n      swap2\n      swap1\n      tag_50\n      jump\t// in\n    tag_88:\n      tag_89\n      jump\t// in\n    tag_87:\n      mload(0x40)\n      tag_90\n      swap5\n      swap4\n      swap3\n      swap2\n      swap1\n      tag_91\n      jump\t// in\n    tag_90:\n      mload(0x40)\n      dup1\n      swap2\n      sub\n      swap1\n      return\n        /* \"EHealth.sol\":4959:5194  function RemoveDoctor(address _id) ... */\n    tag_16:\n      tag_92\n      0x04\n      dup1\n      calldatasize\n      sub\n      dup2\n      add\n      swap1\n      tag_93\n      swap2\n      swap1\n      tag_50\n      jump\t// in\n    tag_93:\n      tag_94\n      jump\t// in\n    tag_92:\n      stop\n        /* \"EHealth.sol\":389:433  mapping(address=> Hospital) public Hospitals */\n    tag_17:\n      tag_95\n      0x04\n      dup1\n      calldatasize\n      sub\n      dup2\n      add\n      swap1\n      tag_96\n      swap2\n      swap1\n      tag_50\n      jump\t// in\n    tag_96:\n      tag_97\n      jump\t// in\n    tag_95:\n      mload(0x40)\n      tag_98\n      swap6\n      swap5\n      swap4\n      swap3\n      swap2\n      swap1\n      tag_99\n      jump\t// in\n    tag_98:\n      mload(0x40)\n      dup1\n      swap2\n      sub\n      swap1\n      return\n        /* \"EHealth.sol\":2938:3601  function UpdateHospital(address _address, string memory _name, string memory _state, string memory _postalCode, bool _permission ) ... */\n    tag_18:\n      tag_100\n      0x04\n      dup1\n      calldatasize\n      sub\n      dup2\n      add\n      swap1\n      tag_101\n      swap2\n      swap1\n      tag_102\n      jump\t// in\n    tag_101:\n      tag_103\n      jump\t// in\n    tag_100:\n      stop\n        /* \"EHealth.sol\":1997:2321  function AddHospital(address _idHospital, string memory _name, string memory _state, string memory _postalCode ) ... */\n    tag_19:\n      tag_104\n      0x04\n      dup1\n      calldatasize\n      sub\n      dup2\n      add\n      swap1\n      tag_105\n      swap2\n      swap1\n      tag_106\n      jump\t// in\n    tag_105:\n      tag_107\n      jump\t// in\n    tag_104:\n      stop\n        /* \"EHealth.sol\":293:366  address public oracleAddress = 0x4B0AF919E9D85ea5CeEbe21ee4F8E3b2A2951b15 */\n    tag_20:\n      tag_108\n      tag_109\n      jump\t// in\n    tag_108:\n      mload(0x40)\n      tag_110\n      swap2\n      swap1\n      tag_111\n      jump\t// in\n    tag_110:\n      mload(0x40)\n      dup1\n      swap2\n      sub\n      swap1\n      return\n        /* \"EHealth.sol\":9815:10050  function viewSensorData(uint _idSensor, address _idDoctor) ... */\n    tag_21:\n      tag_112\n      0x04\n      dup1\n      calldatasize\n      sub\n      dup2\n      add\n      swap1\n      tag_113\n      swap2\n      swap1\n      tag_114\n      jump\t// in\n    tag_113:\n      tag_115\n      jump\t// in\n    tag_112:\n      mload(0x40)\n      tag_116\n      swap2\n      swap1\n      tag_117\n      jump\t// in\n    tag_116:\n      mload(0x40)\n      dup1\n      swap2\n      sub\n      swap1\n      return\n        /* \"EHealth.sol\":6419:6823  function getAllDoctorsInHospital(address _address) ... */\n    tag_22:\n      tag_118\n      0x04\n      dup1\n      calldatasize\n      sub\n      dup2\n      add\n      swap1\n      tag_119\n      swap2\n      swap1\n      tag_50\n      jump\t// in\n    tag_119:\n      tag_120\n      jump\t// in\n    tag_118:\n      mload(0x40)\n      tag_121\n      swap2\n      swap1\n      tag_122\n      jump\t// in\n    tag_121:\n      mload(0x40)\n      dup1\n      swap2\n      sub\n      swap1\n      return\n        /* \"EHealth.sol\":589:622  Hospital[] public hospitalCenters */\n    tag_23:\n      tag_123\n      0x04\n      dup1\n      calldatasize\n      sub\n      dup2\n      add\n      swap1\n      tag_124\n      swap2\n      swap1\n      tag_36\n      jump\t// in\n    tag_124:\n      tag_125\n      jump\t// in\n    tag_123:\n      mload(0x40)\n      tag_126\n      swap6\n      swap5\n      swap4\n      swap3\n      swap2\n      swap1\n      tag_99\n      jump\t// in\n    tag_126:\n      mload(0x40)\n      dup1\n      swap2\n      sub\n      swap1\n      return\n        /* \"EHealth.sol\":643:683  mapping(address=> Doctor) public Doctors */\n    tag_24:\n      tag_127\n      0x04\n      dup1\n      calldatasize\n      sub\n      dup2\n      add\n      swap1\n      tag_128\n      swap2\n      swap1\n      tag_50\n      jump\t// in\n    tag_128:\n      tag_129\n      jump\t// in\n    tag_127:\n      mload(0x40)\n      tag_130\n      swap5\n      swap4\n      swap3\n      swap2\n      swap1\n      tag_82\n      jump\t// in\n    tag_130:\n      mload(0x40)\n      dup1\n      swap2\n      sub\n      swap1\n      return\n        /* \"EHealth.sol\":7709:7959  function RemoveSensor(uint _id, address _idDoctor) ... */\n    tag_25:\n      tag_131\n      0x04\n      dup1\n      calldatasize\n      sub\n      dup2\n      add\n      swap1\n      tag_132\n      swap2\n      swap1\n      tag_114\n      jump\t// in\n    tag_132:\n      tag_133\n      jump\t// in\n    tag_131:\n      stop\n        /* \"EHealth.sol\":4320:4626  function AddDoctor(address idDoctor, string memory _nameDoctor, address _hospital) ... */\n    tag_26:\n      tag_134\n      0x04\n      dup1\n      calldatasize\n      sub\n      dup2\n      add\n      swap1\n      tag_135\n      swap2\n      swap1\n      tag_136\n      jump\t// in\n    tag_135:\n      tag_137\n      jump\t// in\n    tag_134:\n      stop\n        /* \"EHealth.sol\":1130:1159  Sensor[] public sensorsDoctor */\n    tag_27:\n      tag_138\n      0x04\n      dup1\n      calldatasize\n      sub\n      dup2\n      add\n      swap1\n      tag_139\n      swap2\n      swap1\n      tag_36\n      jump\t// in\n    tag_139:\n      tag_140\n      jump\t// in\n    tag_138:\n      mload(0x40)\n      tag_141\n      swap6\n      swap5\n      swap4\n      swap3\n      swap2\n      swap1\n      tag_77\n      jump\t// in\n    tag_141:\n      mload(0x40)\n      dup1\n      swap2\n      sub\n      swap1\n      return\n        /* \"EHealth.sol\":6241:6380  function getAllDoctors() ... */\n    tag_28:\n      tag_142\n      tag_143\n      jump\t// in\n    tag_142:\n      mload(0x40)\n      tag_144\n      swap2\n      swap1\n      tag_122\n      jump\t// in\n    tag_144:\n      mload(0x40)\n      dup1\n      swap2\n      sub\n      swap1\n      return\n        /* \"EHealth.sol\":8633:8942  function ReadSensor(uint _id)... */\n    tag_37:\n        /* \"EHealth.sol\":8720:8733  string memory */\n      0x60\n        /* \"EHealth.sol\":8734:8747  string memory */\n      dup1\n        /* \"EHealth.sol\":8749:8756  address */\n      0x00\n        /* \"EHealth.sol\":8758:8762  bool */\n      dup1\n        /* \"EHealth.sol\":8686:8699  oracleAddress */\n      0x03\n      0x00\n      swap1\n      sload\n      swap1\n      0x0100\n      exp\n      swap1\n      div\n      0xffffffffffffffffffffffffffffffffffffffff\n      and\n        /* \"EHealth.sol\":8700:8705  owner */\n      0x02\n      0x00\n      swap1\n      sload\n      swap1\n      0x0100\n      exp\n      swap1\n      div\n      0xffffffffffffffffffffffffffffffffffffffff\n      and\n        /* \"EHealth.sol\":10146:10153  _oracle */\n      dup2\n        /* \"EHealth.sol\":10129:10153  oracleAddress == _oracle */\n      0xffffffffffffffffffffffffffffffffffffffff\n      and\n        /* \"EHealth.sol\":10129:10142  oracleAddress */\n      0x03\n      0x00\n      swap1\n      sload\n      swap1\n      0x0100\n      exp\n      swap1\n      div\n      0xffffffffffffffffffffffffffffffffffffffff\n      and\n        /* \"EHealth.sol\":10129:10153  oracleAddress == _oracle */\n      0xffffffffffffffffffffffffffffffffffffffff\n      and\n      eq\n        /* \"EHealth.sol\":10128:10175  (oracleAddress == _oracle) || (owner == _owner) */\n      dup1\n      tag_146\n      jumpi\n      pop\n        /* \"EHealth.sol\":10168:10174  _owner */\n      dup1\n        /* \"EHealth.sol\":10159:10174  owner == _owner */\n      0xffffffffffffffffffffffffffffffffffffffff\n      and\n        /* \"EHealth.sol\":10159:10164  owner */\n      0x02\n      0x00\n      swap1\n      sload\n      swap1\n      0x0100\n      exp\n      swap1\n      div\n      0xffffffffffffffffffffffffffffffffffffffff\n      and\n        /* \"EHealth.sol\":10159:10174  owner == _owner */\n      0xffffffffffffffffffffffffffffffffffffffff\n      and\n      eq\n        /* \"EHealth.sol\":10128:10175  (oracleAddress == _oracle) || (owner == _owner) */\n    tag_146:\n        /* \"EHealth.sol\":10120:10202  require((oracleAddress == _oracle) || (owner == _owner), ... */\n      tag_147\n      jumpi\n      mload(0x40)\n      0x08c379a000000000000000000000000000000000000000000000000000000000\n      dup2\n      mstore\n      0x04\n      add\n      tag_148\n      swap1\n      tag_149\n      jump\t// in\n    tag_148:\n      mload(0x40)\n      dup1\n      swap2\n      sub\n      swap1\n      revert\n    tag_147:\n        /* \"EHealth.sol\":8773:8783  uint index */\n      0x00\n        /* \"EHealth.sol\":8786:8801  FindSensor(_id) */\n      tag_151\n        /* \"EHealth.sol\":8797:8800  _id */\n      dup9\n        /* \"EHealth.sol\":8786:8796  FindSensor */\n      tag_152\n        /* \"EHealth.sol\":8786:8801  FindSensor(_id) */\n      jump\t// in\n    tag_151:\n        /* \"EHealth.sol\":8773:8801  uint index = FindSensor(_id) */\n      swap1\n      pop\n        /* \"EHealth.sol\":8819:8832  sensorsDoctor */\n      0x09\n        /* \"EHealth.sol\":8833:8838  index */\n      dup2\n        /* \"EHealth.sol\":8819:8839  sensorsDoctor[index] */\n      dup2\n      sload\n      dup2\n      lt\n      tag_153\n      jumpi\n      invalid\n    tag_153:\n      swap1\n      0x00\n      mstore\n      keccak256(0x00, 0x20)\n      swap1\n      0x05\n      mul\n      add\n        /* \"EHealth.sol\":8819:8843  sensorsDoctor[index].MAC */\n      0x01\n      add\n        /* \"EHealth.sol\":8844:8857  sensorsDoctor */\n      0x09\n        /* \"EHealth.sol\":8858:8863  index */\n      dup3\n        /* \"EHealth.sol\":8844:8864  sensorsDoctor[index] */\n      dup2\n      sload\n      dup2\n      lt\n      tag_155\n      jumpi\n      invalid\n    tag_155:\n      swap1\n      0x00\n      mstore\n      keccak256(0x00, 0x20)\n      swap1\n      0x05\n      mul\n      add\n        /* \"EHealth.sol\":8844:8876  sensorsDoctor[index].patientName */\n      0x02\n      add\n        /* \"EHealth.sol\":8877:8890  sensorsDoctor */\n      0x09\n        /* \"EHealth.sol\":8891:8896  index */\n      dup4\n        /* \"EHealth.sol\":8877:8897  sensorsDoctor[index] */\n      dup2\n      sload\n      dup2\n      lt\n      tag_157\n      jumpi\n      invalid\n    tag_157:\n      swap1\n      0x00\n      mstore\n      keccak256(0x00, 0x20)\n      swap1\n      0x05\n      mul\n      add\n        /* \"EHealth.sol\":8877:8906  sensorsDoctor[index].idDoctor */\n      0x03\n      add\n      0x00\n      swap1\n      sload\n      swap1\n      0x0100\n      exp\n      swap1\n      div\n      0xffffffffffffffffffffffffffffffffffffffff\n      and\n        /* \"EHealth.sol\":8907:8920  sensorsDoctor */\n      0x09\n        /* \"EHealth.sol\":8921:8926  index */\n      dup5\n        /* \"EHealth.sol\":8907:8927  sensorsDoctor[index] */\n      dup2\n      sload\n      dup2\n      lt\n      tag_159\n      jumpi\n      invalid\n    tag_159:\n      swap1\n      0x00\n      mstore\n      keccak256(0x00, 0x20)\n      swap1\n      0x05\n      mul\n      add\n        /* \"EHealth.sol\":8907:8934  sensorsDoctor[index].active */\n      0x03\n      add\n      0x14\n      swap1\n      sload\n      swap1\n      0x0100\n      exp\n      swap1\n      div\n      0xff\n      and\n        /* \"EHealth.sol\":8811:8935  return (sensorsDoctor[index].MAC,sensorsDoctor[index].patientName,sensorsDoctor[index].idDoctor,sensorsDoctor[index].active) */\n      dup4\n      dup1\n      sload\n      0x01\n      dup2\n      0x01\n      and\n      iszero\n      0x0100\n      mul\n      sub\n      and\n      0x02\n      swap1\n      div\n      dup1\n      0x1f\n      add\n      0x20\n      dup1\n      swap2\n      div\n      mul\n      0x20\n      add\n      mload(0x40)\n      swap1\n      dup2\n      add\n      0x40\n      mstore\n      dup1\n      swap3\n      swap2\n      swap1\n      dup2\n      dup2\n      mstore\n      0x20\n      add\n      dup3\n      dup1\n      sload\n      0x01\n      dup2\n      0x01\n      and\n      iszero\n      0x0100\n      mul\n      sub\n      and\n      0x02\n      swap1\n      div\n      dup1\n      iszero\n      tag_161\n      jumpi\n      dup1\n      0x1f\n      lt\n      tag_162\n      jumpi\n      0x0100\n      dup1\n      dup4\n      sload\n      div\n      mul\n      dup4\n      mstore\n      swap2\n      0x20\n      add\n      swap2\n      jump(tag_161)\n    tag_162:\n      dup3\n      add\n      swap2\n      swap1\n      0x00\n      mstore\n      keccak256(0x00, 0x20)\n      swap1\n    tag_163:\n      dup2\n      sload\n      dup2\n      mstore\n      swap1\n      0x01\n      add\n      swap1\n      0x20\n      add\n      dup1\n      dup4\n      gt\n      tag_163\n      jumpi\n      dup3\n      swap1\n      sub\n      0x1f\n      and\n      dup3\n      add\n      swap2\n    tag_161:\n      pop\n      pop\n      pop\n      pop\n      pop\n      swap4\n      pop\n      dup3\n      dup1\n      sload\n      0x01\n      dup2\n      0x01\n      and\n      iszero\n      0x0100\n      mul\n      sub\n      and\n      0x02\n      swap1\n      div\n      dup1\n      0x1f\n      add\n      0x20\n      dup1\n      swap2\n      div\n      mul\n      0x20\n      add\n      mload(0x40)\n      swap1\n      dup2\n      add\n      0x40\n      mstore\n      dup1\n      swap3\n      swap2\n      swap1\n      dup2\n      dup2\n      mstore\n      0x20\n      add\n      dup3\n      dup1\n      sload\n      0x01\n      dup2\n      0x01\n      and\n      iszero\n      0x0100\n      mul\n      sub\n      and\n      0x02\n      swap1\n      div\n      dup1\n      iszero\n      tag_164\n      jumpi\n      dup1\n      0x1f\n      lt\n      tag_165\n      jumpi\n      0x0100\n      dup1\n      dup4\n      sload\n      div\n      mul\n      dup4\n      mstore\n      swap2\n      0x20\n      add\n      swap2\n      jump(tag_164)\n    tag_165:\n      dup3\n      add\n      swap2\n      swap1\n      0x00\n      mstore\n      keccak256(0x00, 0x20)\n      swap1\n    tag_166:\n      dup2\n      sload\n      dup2\n      mstore\n      swap1\n      0x01\n      add\n      swap1\n      0x20\n      add\n      dup1\n      dup4\n      gt\n      tag_166\n      jumpi\n      dup3\n      swap1\n      sub\n      0x1f\n      and\n      dup3\n      add\n      swap2\n    tag_164:\n      pop\n      pop\n      pop\n      pop\n      pop\n      swap3\n      pop\n      swap7\n      pop\n      swap7\n      pop\n      swap7\n      pop\n      swap7\n      pop\n      pop\n        /* \"EHealth.sol\":8633:8942  function ReadSensor(uint _id)... */\n      pop\n      pop\n      swap2\n      swap4\n      pop\n      swap2\n      swap4\n      jump\t// out\n        /* \"EHealth.sol\":6954:7380  function AddSensor(string memory _mac, string memory _patientName, address _idDoctor, bool _active) ... */\n    tag_43:\n        /* \"EHealth.sol\":7078:7087  _idDoctor */\n      dup2\n        /* \"EHealth.sol\":7089:7102  oracleAddress */\n      0x03\n      0x00\n      swap1\n      sload\n      swap1\n      0x0100\n      exp\n      swap1\n      div\n      0xffffffffffffffffffffffffffffffffffffffff\n      and\n        /* \"EHealth.sol\":7103:7108  owner */\n      0x02\n      0x00\n      swap1\n      sload\n      swap1\n      0x0100\n      exp\n      swap1\n      div\n      0xffffffffffffffffffffffffffffffffffffffff\n      and\n        /* \"EHealth.sol\":10339:10340  0 */\n      0x00\n        /* \"EHealth.sol\":10315:10336  FindDoctor(_idDoctor) */\n      tag_168\n        /* \"EHealth.sol\":10326:10335  _idDoctor */\n      dup5\n        /* \"EHealth.sol\":10315:10325  FindDoctor */\n      tag_169\n        /* \"EHealth.sol\":10315:10336  FindDoctor(_idDoctor) */\n      jump\t// in\n    tag_168:\n        /* \"EHealth.sol\":10315:10340  FindDoctor(_idDoctor) < 0 */\n      lt\n        /* \"EHealth.sol\":10314:10371  (FindDoctor(_idDoctor) < 0) || (oracleAddress == _oracle) */\n      dup1\n      tag_170\n      jumpi\n      pop\n        /* \"EHealth.sol\":10363:10370  _oracle */\n      dup2\n        /* \"EHealth.sol\":10346:10370  oracleAddress == _oracle */\n      0xffffffffffffffffffffffffffffffffffffffff\n      and\n        /* \"EHealth.sol\":10346:10359  oracleAddress */\n      0x03\n      0x00\n      swap1\n      sload\n      swap1\n      0x0100\n      exp\n      swap1\n      div\n      0xffffffffffffffffffffffffffffffffffffffff\n      and\n        /* \"EHealth.sol\":10346:10370  oracleAddress == _oracle */\n      0xffffffffffffffffffffffffffffffffffffffff\n      and\n      eq\n        /* \"EHealth.sol\":10314:10371  (FindDoctor(_idDoctor) < 0) || (oracleAddress == _oracle) */\n    tag_170:\n        /* \"EHealth.sol\":10314:10392  (FindDoctor(_idDoctor) < 0) || (oracleAddress == _oracle) || (owner == _owner) */\n      dup1\n      tag_171\n      jumpi\n      pop\n        /* \"EHealth.sol\":10385:10391  _owner */\n      dup1\n        /* \"EHealth.sol\":10376:10391  owner == _owner */\n      0xffffffffffffffffffffffffffffffffffffffff\n      and\n        /* \"EHealth.sol\":10376:10381  owner */\n      0x02\n      0x00\n      swap1\n      sload\n      swap1\n      0x0100\n      exp\n      swap1\n      div\n      0xffffffffffffffffffffffffffffffffffffffff\n      and\n        /* \"EHealth.sol\":10376:10391  owner == _owner */\n      0xffffffffffffffffffffffffffffffffffffffff\n      and\n      eq\n        /* \"EHealth.sol\":10314:10392  (FindDoctor(_idDoctor) < 0) || (oracleAddress == _oracle) || (owner == _owner) */\n    tag_171:\n        /* \"EHealth.sol\":10306:10409  require((FindDoctor(_idDoctor) < 0) || (oracleAddress == _oracle) || (owner == _owner),\"No privileges\") */\n      tag_172\n      jumpi\n      mload(0x40)\n      0x08c379a000000000000000000000000000000000000000000000000000000000\n      dup2\n      mstore\n      0x04\n      add\n      tag_173\n      swap1\n      tag_149\n      jump\t// in\n    tag_173:\n      mload(0x40)\n      dup1\n      swap2\n      sub\n      swap1\n      revert\n    tag_172:\n        /* \"EHealth.sol\":7119:7140  FindDoctor(_idDoctor) */\n      tag_175\n        /* \"EHealth.sol\":7130:7139  _idDoctor */\n      dup6\n        /* \"EHealth.sol\":7119:7129  FindDoctor */\n      tag_169\n        /* \"EHealth.sol\":7119:7140  FindDoctor(_idDoctor) */\n      jump\t// in\n    tag_175:\n      pop\n        /* \"EHealth.sol\":7150:7169  uint[] memory _data */\n      0x60\n        /* \"EHealth.sol\":7179:7192  sensorsDoctor */\n      0x09\n        /* \"EHealth.sol\":7198:7264  Sensor(nextIdSensor,_mac, _patientName, _idDoctor, _active, _data) */\n      mload(0x40)\n      dup1\n      0xc0\n      add\n      0x40\n      mstore\n      dup1\n        /* \"EHealth.sol\":7205:7217  nextIdSensor */\n      sload(0x01)\n        /* \"EHealth.sol\":7198:7264  Sensor(nextIdSensor,_mac, _patientName, _idDoctor, _active, _data) */\n      dup2\n      mstore\n      0x20\n      add\n        /* \"EHealth.sol\":7218:7222  _mac */\n      dup11\n        /* \"EHealth.sol\":7198:7264  Sensor(nextIdSensor,_mac, _patientName, _idDoctor, _active, _data) */\n      dup2\n      mstore\n      0x20\n      add\n        /* \"EHealth.sol\":7224:7236  _patientName */\n      dup10\n        /* \"EHealth.sol\":7198:7264  Sensor(nextIdSensor,_mac, _patientName, _idDoctor, _active, _data) */\n      dup2\n      mstore\n      0x20\n      add\n        /* \"EHealth.sol\":7238:7247  _idDoctor */\n      dup9\n        /* \"EHealth.sol\":7198:7264  Sensor(nextIdSensor,_mac, _patientName, _idDoctor, _active, _data) */\n      0xffffffffffffffffffffffffffffffffffffffff\n      and\n      dup2\n      mstore\n      0x20\n      add\n        /* \"EHealth.sol\":7249:7256  _active */\n      dup8\n        /* \"EHealth.sol\":7198:7264  Sensor(nextIdSensor,_mac, _patientName, _idDoctor, _active, _data) */\n      iszero\n      iszero\n      dup2\n      mstore\n      0x20\n      add\n        /* \"EHealth.sol\":7258:7263  _data */\n      dup4\n        /* \"EHealth.sol\":7198:7264  Sensor(nextIdSensor,_mac, _patientName, _idDoctor, _active, _data) */\n      dup2\n      mstore\n      pop\n        /* \"EHealth.sol\":7179:7265  sensorsDoctor.push(Sensor(nextIdSensor,_mac, _patientName, _idDoctor, _active, _data)) */\n      swap1\n      dup1\n      0x01\n      dup2\n      sload\n      add\n      dup1\n      dup3\n      sstore\n      dup1\n      swap2\n      pop\n      pop\n      0x01\n      swap1\n      sub\n      swap1\n      0x00\n      mstore\n      keccak256(0x00, 0x20)\n      swap1\n      0x05\n      mul\n      add\n      0x00\n      swap1\n      swap2\n      swap1\n      swap2\n      swap1\n      swap2\n      pop\n      0x00\n      dup3\n      add\n      mload\n      dup2\n      0x00\n      add\n      sstore\n      0x20\n      dup3\n      add\n      mload\n      dup2\n      0x01\n      add\n      swap1\n      dup1\n      mload\n      swap1\n      0x20\n      add\n      swap1\n      tag_177\n      swap3\n      swap2\n      swap1\n      tag_178\n      jump\t// in\n    tag_177:\n      pop\n      0x40\n      dup3\n      add\n      mload\n      dup2\n      0x02\n      add\n      swap1\n      dup1\n      mload\n      swap1\n      0x20\n      add\n      swap1\n      tag_179\n      swap3\n      swap2\n      swap1\n      tag_178\n      jump\t// in\n    tag_179:\n      pop\n      0x60\n      dup3\n      add\n      mload\n      dup2\n      0x03\n      add\n      exp(0x0100, 0x00)\n      dup2\n      sload\n      dup2\n      0xffffffffffffffffffffffffffffffffffffffff\n      mul\n      not\n      and\n      swap1\n      dup4\n      0xffffffffffffffffffffffffffffffffffffffff\n      and\n      mul\n      or\n      swap1\n      sstore\n      pop\n      0x80\n      dup3\n      add\n      mload\n      dup2\n      0x03\n      add\n      exp(0x0100, 0x14)\n      dup2\n      sload\n      dup2\n      0xff\n      mul\n      not\n      and\n      swap1\n      dup4\n      iszero\n      iszero\n      mul\n      or\n      swap1\n      sstore\n      pop\n      0xa0\n      dup3\n      add\n      mload\n      dup2\n      0x04\n      add\n      swap1\n      dup1\n      mload\n      swap1\n      0x20\n      add\n      swap1\n      tag_180\n      swap3\n      swap2\n      swap1\n      tag_181\n      jump\t// in\n    tag_180:\n      pop\n      pop\n      pop\n        /* \"EHealth.sol\":7280:7349  NewSensor(nextIdSensor,_mac, _patientName, _idDoctor, _active, _data) */\n      0x23f4ceea50d8ef88465d5bb07ab2960540f3c2414851cf0a137f2ee3a4ab6fa8\n        /* \"EHealth.sol\":7290:7302  nextIdSensor */\n      sload(0x01)\n        /* \"EHealth.sol\":7303:7307  _mac */\n      dup10\n        /* \"EHealth.sol\":7309:7321  _patientName */\n      dup10\n        /* \"EHealth.sol\":7323:7332  _idDoctor */\n      dup10\n        /* \"EHealth.sol\":7334:7341  _active */\n      dup10\n        /* \"EHealth.sol\":7343:7348  _data */\n      dup7\n        /* \"EHealth.sol\":7280:7349  NewSensor(nextIdSensor,_mac, _patientName, _idDoctor, _active, _data) */\n      mload(0x40)\n      tag_182\n      swap7\n      swap6\n      swap5\n      swap4\n      swap3\n      swap2\n      swap1\n      tag_183\n      jump\t// in\n    tag_182:\n      mload(0x40)\n      dup1\n      swap2\n      sub\n      swap1\n      log1\n        /* \"EHealth.sol\":7359:7371  nextIdSensor */\n      0x01\n      0x00\n        /* \"EHealth.sol\":7359:7373  nextIdSensor++ */\n      dup2\n      sload\n      dup1\n      swap3\n      swap2\n      swap1\n      0x01\n      add\n      swap2\n      swap1\n      pop\n      sstore\n      pop\n        /* \"EHealth.sol\":10419:10420  _ */\n      pop\n        /* \"EHealth.sol\":6954:7380  function AddSensor(string memory _mac, string memory _patientName, address _idDoctor, bool _active) ... */\n      pop\n      pop\n      pop\n      pop\n      pop\n      pop\n      pop\n      jump\t// out\n        /* \"EHealth.sol\":9591:9781  function sendData(uint _idSensor, uint[] memory _data) ... */\n    tag_47:\n        /* \"EHealth.sol\":9669:9682  oracleAddress */\n      0x03\n      0x00\n      swap1\n      sload\n      swap1\n      0x0100\n      exp\n      swap1\n      div\n      0xffffffffffffffffffffffffffffffffffffffff\n      and\n        /* \"EHealth.sol\":9683:9688  owner */\n      0x02\n      0x00\n      swap1\n      sload\n      swap1\n      0x0100\n      exp\n      swap1\n      div\n      0xffffffffffffffffffffffffffffffffffffffff\n      and\n        /* \"EHealth.sol\":10146:10153  _oracle */\n      dup2\n        /* \"EHealth.sol\":10129:10153  oracleAddress == _oracle */\n      0xffffffffffffffffffffffffffffffffffffffff\n      and\n        /* \"EHealth.sol\":10129:10142  oracleAddress */\n      0x03\n      0x00\n      swap1\n      sload\n      swap1\n      0x0100\n      exp\n      swap1\n      div\n      0xffffffffffffffffffffffffffffffffffffffff\n      and\n        /* \"EHealth.sol\":10129:10153  oracleAddress == _oracle */\n      0xffffffffffffffffffffffffffffffffffffffff\n      and\n      eq\n        /* \"EHealth.sol\":10128:10175  (oracleAddress == _oracle) || (owner == _owner) */\n      dup1\n      tag_185\n      jumpi\n      pop\n        /* \"EHealth.sol\":10168:10174  _owner */\n      dup1\n        /* \"EHealth.sol\":10159:10174  owner == _owner */\n      0xffffffffffffffffffffffffffffffffffffffff\n      and\n        /* \"EHealth.sol\":10159:10164  owner */\n      0x02\n      0x00\n      swap1\n      sload\n      swap1\n      0x0100\n      exp\n      swap1\n      div\n      0xffffffffffffffffffffffffffffffffffffffff\n      and\n        /* \"EHealth.sol\":10159:10174  owner == _owner */\n      0xffffffffffffffffffffffffffffffffffffffff\n      and\n      eq\n        /* \"EHealth.sol\":10128:10175  (oracleAddress == _oracle) || (owner == _owner) */\n    tag_185:\n        /* \"EHealth.sol\":10120:10202  require((oracleAddress == _oracle) || (owner == _owner), ... */\n      tag_186\n      jumpi\n      mload(0x40)\n      0x08c379a000000000000000000000000000000000000000000000000000000000\n      dup2\n      mstore\n      0x04\n      add\n      tag_187\n      swap1\n      tag_149\n      jump\t// in\n    tag_187:\n      mload(0x40)\n      dup1\n      swap2\n      sub\n      swap1\n      revert\n    tag_186:\n        /* \"EHealth.sol\":9699:9709  uint index */\n      0x00\n        /* \"EHealth.sol\":9712:9733  FindSensor(_idSensor) */\n      tag_189\n        /* \"EHealth.sol\":9723:9732  _idSensor */\n      dup6\n        /* \"EHealth.sol\":9712:9722  FindSensor */\n      tag_152\n        /* \"EHealth.sol\":9712:9733  FindSensor(_idSensor) */\n      jump\t// in\n    tag_189:\n        /* \"EHealth.sol\":9699:9733  uint index = FindSensor(_idSensor) */\n      swap1\n      pop\n        /* \"EHealth.sol\":9769:9774  _data */\n      dup4\n        /* \"EHealth.sol\":9743:9756  sensorsDoctor */\n      0x09\n        /* \"EHealth.sol\":9757:9762  index */\n      dup3\n        /* \"EHealth.sol\":9743:9763  sensorsDoctor[index] */\n      dup2\n      sload\n      dup2\n      lt\n      tag_190\n      jumpi\n      invalid\n    tag_190:\n      swap1\n      0x00\n      mstore\n      keccak256(0x00, 0x20)\n      swap1\n      0x05\n      mul\n      add\n        /* \"EHealth.sol\":9743:9768  sensorsDoctor[index].data */\n      0x04\n      add\n        /* \"EHealth.sol\":9743:9774  sensorsDoctor[index].data=_data */\n      swap1\n      dup1\n      mload\n      swap1\n      0x20\n      add\n      swap1\n      tag_192\n      swap3\n      swap2\n      swap1\n      tag_181\n      jump\t// in\n    tag_192:\n      pop\n        /* \"EHealth.sol\":10212:10213  _ */\n      pop\n        /* \"EHealth.sol\":9591:9781  function sendData(uint _idSensor, uint[] memory _data) ... */\n      pop\n      pop\n      pop\n      pop\n      jump\t// out\n        /* \"EHealth.sol\":2652:2903  function RemoveHospital(address _address) ... */\n    tag_51:\n        /* \"EHealth.sol\":2718:2731  oracleAddress */\n      0x03\n      0x00\n      swap1\n      sload\n      swap1\n      0x0100\n      exp\n      swap1\n      div\n      0xffffffffffffffffffffffffffffffffffffffff\n      and\n        /* \"EHealth.sol\":2732:2737  owner */\n      0x02\n      0x00\n      swap1\n      sload\n      swap1\n      0x0100\n      exp\n      swap1\n      div\n      0xffffffffffffffffffffffffffffffffffffffff\n      and\n        /* \"EHealth.sol\":10146:10153  _oracle */\n      dup2\n        /* \"EHealth.sol\":10129:10153  oracleAddress == _oracle */\n      0xffffffffffffffffffffffffffffffffffffffff\n      and\n        /* \"EHealth.sol\":10129:10142  oracleAddress */\n      0x03\n      0x00\n      swap1\n      sload\n      swap1\n      0x0100\n      exp\n      swap1\n      div\n      0xffffffffffffffffffffffffffffffffffffffff\n      and\n        /* \"EHealth.sol\":10129:10153  oracleAddress == _oracle */\n      0xffffffffffffffffffffffffffffffffffffffff\n      and\n      eq\n        /* \"EHealth.sol\":10128:10175  (oracleAddress == _oracle) || (owner == _owner) */\n      dup1\n      tag_194\n      jumpi\n      pop\n        /* \"EHealth.sol\":10168:10174  _owner */\n      dup1\n        /* \"EHealth.sol\":10159:10174  owner == _owner */\n      0xffffffffffffffffffffffffffffffffffffffff\n      and\n        /* \"EHealth.sol\":10159:10164  owner */\n      0x02\n      0x00\n      swap1\n      sload\n      swap1\n      0x0100\n      exp\n      swap1\n      div\n      0xffffffffffffffffffffffffffffffffffffffff\n      and\n        /* \"EHealth.sol\":10159:10174  owner == _owner */\n      0xffffffffffffffffffffffffffffffffffffffff\n      and\n      eq\n        /* \"EHealth.sol\":10128:10175  (oracleAddress == _oracle) || (owner == _owner) */\n    tag_194:\n        /* \"EHealth.sol\":10120:10202  require((oracleAddress == _oracle) || (owner == _owner), ... */\n      tag_195\n      jumpi\n      mload(0x40)\n      0x08c379a000000000000000000000000000000000000000000000000000000000\n      dup2\n      mstore\n      0x04\n      add\n      tag_196\n      swap1\n      tag_149\n      jump\t// in\n    tag_196:\n      mload(0x40)\n      dup1\n      swap2\n      sub\n      swap1\n      revert\n    tag_195:\n        /* \"EHealth.sol\":2748:2758  uint index */\n      0x00\n        /* \"EHealth.sol\":2761:2783  FindHospital(_address) */\n      tag_198\n        /* \"EHealth.sol\":2774:2782  _address */\n      dup5\n        /* \"EHealth.sol\":2761:2773  FindHospital */\n      tag_199\n        /* \"EHealth.sol\":2761:2783  FindHospital(_address) */\n      jump\t// in\n    tag_198:\n        /* \"EHealth.sol\":2748:2783  uint index = FindHospital(_address) */\n      swap1\n      pop\n        /* \"EHealth.sol\":2827:2832  false */\n      0x00\n        /* \"EHealth.sol\":2793:2808  hospitalCenters */\n      0x05\n        /* \"EHealth.sol\":2809:2814  index */\n      dup3\n        /* \"EHealth.sol\":2793:2815  hospitalCenters[index] */\n      dup2\n      sload\n      dup2\n      lt\n      tag_200\n      jumpi\n      invalid\n    tag_200:\n      swap1\n      0x00\n      mstore\n      keccak256(0x00, 0x20)\n      swap1\n      0x05\n      mul\n      add\n        /* \"EHealth.sol\":2793:2826  hospitalCenters[index].permission */\n      0x04\n      add\n      0x00\n        /* \"EHealth.sol\":2793:2832  hospitalCenters[index].permission=false */\n      0x0100\n      exp\n      dup2\n      sload\n      dup2\n      0xff\n      mul\n      not\n      and\n      swap1\n      dup4\n      iszero\n      iszero\n      mul\n      or\n      swap1\n      sstore\n      pop\n        /* \"EHealth.sol\":2847:2896  DeleteHospital(hospitalCenters[index].permission) */\n      0x504c2311f6f6b45d598b8afb05a690fa48a8bb4dbe0659e5e2e0a30e0b570931\n        /* \"EHealth.sol\":2862:2877  hospitalCenters */\n      0x05\n        /* \"EHealth.sol\":2878:2883  index */\n      dup3\n        /* \"EHealth.sol\":2862:2884  hospitalCenters[index] */\n      dup2\n      sload\n      dup2\n      lt\n      tag_202\n      jumpi\n      invalid\n    tag_202:\n      swap1\n      0x00\n      mstore\n      keccak256(0x00, 0x20)\n      swap1\n      0x05\n      mul\n      add\n        /* \"EHealth.sol\":2862:2895  hospitalCenters[index].permission */\n      0x04\n      add\n      0x00\n      swap1\n      sload\n      swap1\n      0x0100\n      exp\n      swap1\n      div\n      0xff\n      and\n        /* \"EHealth.sol\":2847:2896  DeleteHospital(hospitalCenters[index].permission) */\n      mload(0x40)\n      tag_204\n      swap2\n      swap1\n      tag_205\n      jump\t// in\n    tag_204:\n      mload(0x40)\n      dup1\n      swap2\n      sub\n      swap1\n      log1\n        /* \"EHealth.sol\":10212:10213  _ */\n      pop\n        /* \"EHealth.sol\":2652:2903  function RemoveHospital(address _address) ... */\n      pop\n      pop\n      pop\n      jump\t// out\n        /* \"EHealth.sol\":3630:3806  function getAllHospitals() ... */\n    tag_53:\n        /* \"EHealth.sol\":3716:3733  Hospital[] memory */\n      0x60\n        /* \"EHealth.sol\":3681:3694  oracleAddress */\n      0x03\n      0x00\n      swap1\n      sload\n      swap1\n      0x0100\n      exp\n      swap1\n      div\n      0xffffffffffffffffffffffffffffffffffffffff\n      and\n        /* \"EHealth.sol\":3695:3700  owner */\n      0x02\n      0x00\n      swap1\n      sload\n      swap1\n      0x0100\n      exp\n      swap1\n      div\n      0xffffffffffffffffffffffffffffffffffffffff\n      and\n        /* \"EHealth.sol\":10146:10153  _oracle */\n      dup2\n        /* \"EHealth.sol\":10129:10153  oracleAddress == _oracle */\n      0xffffffffffffffffffffffffffffffffffffffff\n      and\n        /* \"EHealth.sol\":10129:10142  oracleAddress */\n      0x03\n      0x00\n      swap1\n      sload\n      swap1\n      0x0100\n      exp\n      swap1\n      div\n      0xffffffffffffffffffffffffffffffffffffffff\n      and\n        /* \"EHealth.sol\":10129:10153  oracleAddress == _oracle */\n      0xffffffffffffffffffffffffffffffffffffffff\n      and\n      eq\n        /* \"EHealth.sol\":10128:10175  (oracleAddress == _oracle) || (owner == _owner) */\n      dup1\n      tag_207\n      jumpi\n      pop\n        /* \"EHealth.sol\":10168:10174  _owner */\n      dup1\n        /* \"EHealth.sol\":10159:10174  owner == _owner */\n      0xffffffffffffffffffffffffffffffffffffffff\n      and\n        /* \"EHealth.sol\":10159:10164  owner */\n      0x02\n      0x00\n      swap1\n      sload\n      swap1\n      0x0100\n      exp\n      swap1\n      div\n      0xffffffffffffffffffffffffffffffffffffffff\n      and\n        /* \"EHealth.sol\":10159:10174  owner == _owner */\n      0xffffffffffffffffffffffffffffffffffffffff\n      and\n      eq\n        /* \"EHealth.sol\":10128:10175  (oracleAddress == _oracle) || (owner == _owner) */\n    tag_207:\n        /* \"EHealth.sol\":10120:10202  require((oracleAddress == _oracle) || (owner == _owner), ... */\n      tag_208\n      jumpi\n      mload(0x40)\n      0x08c379a000000000000000000000000000000000000000000000000000000000\n      dup2\n      mstore\n      0x04\n      add\n      tag_209\n      swap1\n      tag_149\n      jump\t// in\n    tag_209:\n      mload(0x40)\n      dup1\n      swap2\n      sub\n      swap1\n      revert\n    tag_208:\n        /* \"EHealth.sol\":3784:3799  hospitalCenters */\n      0x05\n        /* \"EHealth.sol\":3777:3799  return hospitalCenters */\n      dup1\n      sload\n      dup1\n      0x20\n      mul\n      0x20\n      add\n      mload(0x40)\n      swap1\n      dup2\n      add\n      0x40\n      mstore\n      dup1\n      swap3\n      swap2\n      swap1\n      dup2\n      dup2\n      mstore\n      0x20\n      add\n      0x00\n      swap1\n    tag_211:\n      dup3\n      dup3\n      lt\n      iszero\n      tag_212\n      jumpi\n      dup4\n      dup3\n      swap1\n      0x00\n      mstore\n      keccak256(0x00, 0x20)\n      swap1\n      0x05\n      mul\n      add\n      mload(0x40)\n      dup1\n      0xa0\n      add\n      0x40\n      mstore\n      swap1\n      dup2\n      0x00\n      dup3\n      add\n      0x00\n      swap1\n      sload\n      swap1\n      0x0100\n      exp\n      swap1\n      div\n      0xffffffffffffffffffffffffffffffffffffffff\n      and\n      0xffffffffffffffffffffffffffffffffffffffff\n      and\n      0xffffffffffffffffffffffffffffffffffffffff\n      and\n      dup2\n      mstore\n      0x20\n      add\n      0x01\n      dup3\n      add\n      dup1\n      sload\n      0x01\n      dup2\n      0x01\n      and\n      iszero\n      0x0100\n      mul\n      sub\n      and\n      0x02\n      swap1\n      div\n      dup1\n      0x1f\n      add\n      0x20\n      dup1\n      swap2\n      div\n      mul\n      0x20\n      add\n      mload(0x40)\n      swap1\n      dup2\n      add\n      0x40\n      mstore\n      dup1\n      swap3\n      swap2\n      swap1\n      dup2\n      dup2\n      mstore\n      0x20\n      add\n      dup3\n      dup1\n      sload\n      0x01\n      dup2\n      0x01\n      and\n      iszero\n      0x0100\n      mul\n      sub\n      and\n      0x02\n      swap1\n      div\n      dup1\n      iszero\n      tag_214\n      jumpi\n      dup1\n      0x1f\n      lt\n      tag_215\n      jumpi\n      0x0100\n      dup1\n      dup4\n      sload\n      div\n      mul\n      dup4\n      mstore\n      swap2\n      0x20\n      add\n      swap2\n      jump(tag_214)\n    tag_215:\n      dup3\n      add\n      swap2\n      swap1\n      0x00\n      mstore\n      keccak256(0x00, 0x20)\n      swap1\n    tag_216:\n      dup2\n      sload\n      dup2\n      mstore\n      swap1\n      0x01\n      add\n      swap1\n      0x20\n      add\n      dup1\n      dup4\n      gt\n      tag_216\n      jumpi\n      dup3\n      swap1\n      sub\n      0x1f\n      and\n      dup3\n      add\n      swap2\n    tag_214:\n      pop\n      pop\n      pop\n      pop\n      pop\n      dup2\n      mstore\n      0x20\n      add\n      0x02\n      dup3\n      add\n      dup1\n      sload\n      0x01\n      dup2\n      0x01\n      and\n      iszero\n      0x0100\n      mul\n      sub\n      and\n      0x02\n      swap1\n      div\n      dup1\n      0x1f\n      add\n      0x20\n      dup1\n      swap2\n      div\n      mul\n      0x20\n      add\n      mload(0x40)\n      swap1\n      dup2\n      add\n      0x40\n      mstore\n      dup1\n      swap3\n      swap2\n      swap1\n      dup2\n      dup2\n      mstore\n      0x20\n      add\n      dup3\n      dup1\n      sload\n      0x01\n      dup2\n      0x01\n      and\n      iszero\n      0x0100\n      mul\n      sub\n      and\n      0x02\n      swap1\n      div\n      dup1\n      iszero\n      tag_217\n      jumpi\n      dup1\n      0x1f\n      lt\n      tag_218\n      jumpi\n      0x0100\n      dup1\n      dup4\n      sload\n      div\n      mul\n      dup4\n      mstore\n      swap2\n      0x20\n      add\n      swap2\n      jump(tag_217)\n    tag_218:\n      dup3\n      add\n      swap2\n      swap1\n      0x00\n      mstore\n      keccak256(0x00, 0x20)\n      swap1\n    tag_219:\n      dup2\n      sload\n      dup2\n      mstore\n      swap1\n      0x01\n      add\n      swap1\n      0x20\n      add\n      dup1\n      dup4\n      gt\n      tag_219\n      jumpi\n      dup3\n      swap1\n      sub\n      0x1f\n      and\n      dup3\n      add\n      swap2\n    tag_217:\n      pop\n      pop\n      pop\n      pop\n      pop\n      dup2\n      mstore\n      0x20\n      add\n      0x03\n      dup3\n      add\n      dup1\n      sload\n      0x01\n      dup2\n      0x01\n      and\n      iszero\n      0x0100\n      mul\n      sub\n      and\n      0x02\n      swap1\n      div\n      dup1\n      0x1f\n      add\n      0x20\n      dup1\n      swap2\n      div\n      mul\n      0x20\n      add\n      mload(0x40)\n      swap1\n      dup2\n      add\n      0x40\n      mstore\n      dup1\n      swap3\n      swap2\n      swap1\n      dup2\n      dup2\n      mstore\n      0x20\n      add\n      dup3\n      dup1\n      sload\n      0x01\n      dup2\n      0x01\n      and\n      iszero\n      0x0100\n      mul\n      sub\n      and\n      0x02\n      swap1\n      div\n      dup1\n      iszero\n      tag_220\n      jumpi\n      dup1\n      0x1f\n      lt\n      tag_221\n      jumpi\n      0x0100\n      dup1\n      dup4\n      sload\n      div\n      mul\n      dup4\n      mstore\n      swap2\n      0x20\n      add\n      swap2\n      jump(tag_220)\n    tag_221:\n      dup3\n      add\n      swap2\n      swap1\n      0x00\n      mstore\n      keccak256(0x00, 0x20)\n      swap1\n    tag_222:\n      dup2\n      sload\n      dup2\n      mstore\n      swap1\n      0x01\n      add\n      swap1\n      0x20\n      add\n      dup1\n      dup4\n      gt\n      tag_222\n      jumpi\n      dup3\n      swap1\n      sub\n      0x1f\n      and\n      dup3\n      add\n      swap2\n    tag_220:\n      pop\n      pop\n      pop\n      pop\n      pop\n      dup2\n      mstore\n      0x20\n      add\n      0x04\n      dup3\n      add\n      0x00\n      swap1\n      sload\n      swap1\n      0x0100\n      exp\n      swap1\n      div\n      0xff\n      and\n      iszero\n      iszero\n      iszero\n      iszero\n      dup2\n      mstore\n      pop\n      pop\n      dup2\n      mstore\n      0x20\n      add\n      swap1\n      0x01\n      add\n      swap1\n      jump(tag_211)\n    tag_212:\n      pop\n      pop\n      pop\n      pop\n      swap3\n      pop\n        /* \"EHealth.sol\":3630:3806  function getAllHospitals() ... */\n      pop\n      pop\n      swap1\n      jump\t// out\n        /* \"EHealth.sol\":8968:9105  function getAllSensors() ... */\n    tag_57:\n        /* \"EHealth.sol\":9052:9067  Sensor[] memory */\n      0x60\n        /* \"EHealth.sol\":9017:9030  oracleAddress */\n      0x03\n      0x00\n      swap1\n      sload\n      swap1\n      0x0100\n      exp\n      swap1\n      div\n      0xffffffffffffffffffffffffffffffffffffffff\n      and\n        /* \"EHealth.sol\":9031:9036  owner */\n      0x02\n      0x00\n      swap1\n      sload\n      swap1\n      0x0100\n      exp\n      swap1\n      div\n      0xffffffffffffffffffffffffffffffffffffffff\n      and\n        /* \"EHealth.sol\":10146:10153  _oracle */\n      dup2\n        /* \"EHealth.sol\":10129:10153  oracleAddress == _oracle */\n      0xffffffffffffffffffffffffffffffffffffffff\n      and\n        /* \"EHealth.sol\":10129:10142  oracleAddress */\n      0x03\n      0x00\n      swap1\n      sload\n      swap1\n      0x0100\n      exp\n      swap1\n      div\n      0xffffffffffffffffffffffffffffffffffffffff\n      and\n        /* \"EHealth.sol\":10129:10153  oracleAddress == _oracle */\n      0xffffffffffffffffffffffffffffffffffffffff\n      and\n      eq\n        /* \"EHealth.sol\":10128:10175  (oracleAddress == _oracle) || (owner == _owner) */\n      dup1\n      tag_224\n      jumpi\n      pop\n        /* \"EHealth.sol\":10168:10174  _owner */\n      dup1\n        /* \"EHealth.sol\":10159:10174  owner == _owner */\n      0xffffffffffffffffffffffffffffffffffffffff\n      and\n        /* \"EHealth.sol\":10159:10164  owner */\n      0x02\n      0x00\n      swap1\n      sload\n      swap1\n      0x0100\n      exp\n      swap1\n      div\n      0xffffffffffffffffffffffffffffffffffffffff\n      and\n        /* \"EHealth.sol\":10159:10174  owner == _owner */\n      0xffffffffffffffffffffffffffffffffffffffff\n      and\n      eq\n        /* \"EHealth.sol\":10128:10175  (oracleAddress == _oracle) || (owner == _owner) */\n    tag_224:\n        /* \"EHealth.sol\":10120:10202  require((oracleAddress == _oracle) || (owner == _owner), ... */\n      tag_225\n      jumpi\n      mload(0x40)\n      0x08c379a000000000000000000000000000000000000000000000000000000000\n      dup2\n      mstore\n      0x04\n      add\n      tag_226\n      swap1\n      tag_149\n      jump\t// in\n    tag_226:\n      mload(0x40)\n      dup1\n      swap2\n      sub\n      swap1\n      revert\n    tag_225:\n        /* \"EHealth.sol\":9085:9098  sensorsDoctor */\n      0x09\n        /* \"EHealth.sol\":9078:9098  return sensorsDoctor */\n      dup1\n      sload\n      dup1\n      0x20\n      mul\n      0x20\n      add\n      mload(0x40)\n      swap1\n      dup2\n      add\n      0x40\n      mstore\n      dup1\n      swap3\n      swap2\n      swap1\n      dup2\n      dup2\n      mstore\n      0x20\n      add\n      0x00\n      swap1\n    tag_228:\n      dup3\n      dup3\n      lt\n      iszero\n      tag_229\n      jumpi\n      dup4\n      dup3\n      swap1\n      0x00\n      mstore\n      keccak256(0x00, 0x20)\n      swap1\n      0x05\n      mul\n      add\n      mload(0x40)\n      dup1\n      0xc0\n      add\n      0x40\n      mstore\n      swap1\n      dup2\n      0x00\n      dup3\n      add\n      sload\n      dup2\n      mstore\n      0x20\n      add\n      0x01\n      dup3\n      add\n      dup1\n      sload\n      0x01\n      dup2\n      0x01\n      and\n      iszero\n      0x0100\n      mul\n      sub\n      and\n      0x02\n      swap1\n      div\n      dup1\n      0x1f\n      add\n      0x20\n      dup1\n      swap2\n      div\n      mul\n      0x20\n      add\n      mload(0x40)\n      swap1\n      dup2\n      add\n      0x40\n      mstore\n      dup1\n      swap3\n      swap2\n      swap1\n      dup2\n      dup2\n      mstore\n      0x20\n      add\n      dup3\n      dup1\n      sload\n      0x01\n      dup2\n      0x01\n      and\n      iszero\n      0x0100\n      mul\n      sub\n      and\n      0x02\n      swap1\n      div\n      dup1\n      iszero\n      tag_231\n      jumpi\n      dup1\n      0x1f\n      lt\n      tag_232\n      jumpi\n      0x0100\n      dup1\n      dup4\n      sload\n      div\n      mul\n      dup4\n      mstore\n      swap2\n      0x20\n      add\n      swap2\n      jump(tag_231)\n    tag_232:\n      dup3\n      add\n      swap2\n      swap1\n      0x00\n      mstore\n      keccak256(0x00, 0x20)\n      swap1\n    tag_233:\n      dup2\n      sload\n      dup2\n      mstore\n      swap1\n      0x01\n      add\n      swap1\n      0x20\n      add\n      dup1\n      dup4\n      gt\n      tag_233\n      jumpi\n      dup3\n      swap1\n      sub\n      0x1f\n      and\n      dup3\n      add\n      swap2\n    tag_231:\n      pop\n      pop\n      pop\n      pop\n      pop\n      dup2\n      mstore\n      0x20\n      add\n      0x02\n      dup3\n      add\n      dup1\n      sload\n      0x01\n      dup2\n      0x01\n      and\n      iszero\n      0x0100\n      mul\n      sub\n      and\n      0x02\n      swap1\n      div\n      dup1\n      0x1f\n      add\n      0x20\n      dup1\n      swap2\n      div\n      mul\n      0x20\n      add\n      mload(0x40)\n      swap1\n      dup2\n      add\n      0x40\n      mstore\n      dup1\n      swap3\n      swap2\n      swap1\n      dup2\n      dup2\n      mstore\n      0x20\n      add\n      dup3\n      dup1\n      sload\n      0x01\n      dup2\n      0x01\n      and\n      iszero\n      0x0100\n      mul\n      sub\n      and\n      0x02\n      swap1\n      div\n      dup1\n      iszero\n      tag_234\n      jumpi\n      dup1\n      0x1f\n      lt\n      tag_235\n      jumpi\n      0x0100\n      dup1\n      dup4\n      sload\n      div\n      mul\n      dup4\n      mstore\n      swap2\n      0x20\n      add\n      swap2\n      jump(tag_234)\n    tag_235:\n      dup3\n      add\n      swap2\n      swap1\n      0x00\n      mstore\n      keccak256(0x00, 0x20)\n      swap1\n    tag_236:\n      dup2\n      sload\n      dup2\n      mstore\n      swap1\n      0x01\n      add\n      swap1\n      0x20\n      add\n      dup1\n      dup4\n      gt\n      tag_236\n      jumpi\n      dup3\n      swap1\n      sub\n      0x1f\n      and\n      dup3\n      add\n      swap2\n    tag_234:\n      pop\n      pop\n      pop\n      pop\n      pop\n      dup2\n      mstore\n      0x20\n      add\n      0x03\n      dup3\n      add\n      0x00\n      swap1\n      sload\n      swap1\n      0x0100\n      exp\n      swap1\n      div\n      0xffffffffffffffffffffffffffffffffffffffff\n      and\n      0xffffffffffffffffffffffffffffffffffffffff\n      and\n      0xffffffffffffffffffffffffffffffffffffffff\n      and\n      dup2\n      mstore\n      0x20\n      add\n      0x03\n      dup3\n      add\n      0x14\n      swap1\n      sload\n      swap1\n      0x0100\n      exp\n      swap1\n      div\n      0xff\n      and\n      iszero\n      iszero\n      iszero\n      iszero\n      dup2\n      mstore\n      0x20\n      add\n      0x04\n      dup3\n      add\n      dup1\n      sload\n      dup1\n      0x20\n      mul\n      0x20\n      add\n      mload(0x40)\n      swap1\n      dup2\n      add\n      0x40\n      mstore\n      dup1\n      swap3\n      swap2\n      swap1\n      dup2\n      dup2\n      mstore\n      0x20\n      add\n      dup3\n      dup1\n      sload\n      dup1\n      iszero\n      tag_237\n      jumpi\n      0x20\n      mul\n      dup3\n      add\n      swap2\n      swap1\n      0x00\n      mstore\n      keccak256(0x00, 0x20)\n      swap1\n    tag_238:\n      dup2\n      sload\n      dup2\n      mstore\n      0x20\n      add\n      swap1\n      0x01\n      add\n      swap1\n      dup1\n      dup4\n      gt\n      tag_238\n      jumpi\n    tag_237:\n      pop\n      pop\n      pop\n      pop\n      pop\n      dup2\n      mstore\n      pop\n      pop\n      dup2\n      mstore\n      0x20\n      add\n      swap1\n      0x01\n      add\n      swap1\n      jump(tag_228)\n    tag_229:\n      pop\n      pop\n      pop\n      pop\n      swap3\n      pop\n        /* \"EHealth.sol\":8968:9105  function getAllSensors() ... */\n      pop\n      pop\n      swap1\n      jump\t// out\n        /* \"EHealth.sol\":5226:5772  function UpdateDoctor(address _id, string memory _nameDoctor, address _hospital ,bool _permission) ... */\n    tag_63:\n        /* \"EHealth.sol\":5349:5362  oracleAddress */\n      0x03\n      0x00\n      swap1\n      sload\n      swap1\n      0x0100\n      exp\n      swap1\n      div\n      0xffffffffffffffffffffffffffffffffffffffff\n      and\n        /* \"EHealth.sol\":5363:5368  owner */\n      0x02\n      0x00\n      swap1\n      sload\n      swap1\n      0x0100\n      exp\n      swap1\n      div\n      0xffffffffffffffffffffffffffffffffffffffff\n      and\n        /* \"EHealth.sol\":10146:10153  _oracle */\n      dup2\n        /* \"EHealth.sol\":10129:10153  oracleAddress == _oracle */\n      0xffffffffffffffffffffffffffffffffffffffff\n      and\n        /* \"EHealth.sol\":10129:10142  oracleAddress */\n      0x03\n      0x00\n      swap1\n      sload\n      swap1\n      0x0100\n      exp\n      swap1\n      div\n      0xffffffffffffffffffffffffffffffffffffffff\n      and\n        /* \"EHealth.sol\":10129:10153  oracleAddress == _oracle */\n      0xffffffffffffffffffffffffffffffffffffffff\n      and\n      eq\n        /* \"EHealth.sol\":10128:10175  (oracleAddress == _oracle) || (owner == _owner) */\n      dup1\n      tag_240\n      jumpi\n      pop\n        /* \"EHealth.sol\":10168:10174  _owner */\n      dup1\n        /* \"EHealth.sol\":10159:10174  owner == _owner */\n      0xffffffffffffffffffffffffffffffffffffffff\n      and\n        /* \"EHealth.sol\":10159:10164  owner */\n      0x02\n      0x00\n      swap1\n      sload\n      swap1\n      0x0100\n      exp\n      swap1\n      div\n      0xffffffffffffffffffffffffffffffffffffffff\n      and\n        /* \"EHealth.sol\":10159:10174  owner == _owner */\n      0xffffffffffffffffffffffffffffffffffffffff\n      and\n      eq\n        /* \"EHealth.sol\":10128:10175  (oracleAddress == _oracle) || (owner == _owner) */\n    tag_240:\n        /* \"EHealth.sol\":10120:10202  require((oracleAddress == _oracle) || (owner == _owner), ... */\n      tag_241\n      jumpi\n      mload(0x40)\n      0x08c379a000000000000000000000000000000000000000000000000000000000\n      dup2\n      mstore\n      0x04\n      add\n      tag_242\n      swap1\n      tag_149\n      jump\t// in\n    tag_242:\n      mload(0x40)\n      dup1\n      swap2\n      sub\n      swap1\n      revert\n    tag_241:\n        /* \"EHealth.sol\":5379:5389  uint index */\n      0x00\n        /* \"EHealth.sol\":5392:5407  FindDoctor(_id) */\n      tag_244\n        /* \"EHealth.sol\":5403:5406  _id */\n      dup8\n        /* \"EHealth.sol\":5392:5402  FindDoctor */\n      tag_169\n        /* \"EHealth.sol\":5392:5407  FindDoctor(_id) */\n      jump\t// in\n    tag_244:\n        /* \"EHealth.sol\":5379:5407  uint index = FindDoctor(_id) */\n      swap1\n      pop\n        /* \"EHealth.sol\":5451:5462  _nameDoctor */\n      dup6\n        /* \"EHealth.sol\":5417:5432  doctorsHospital */\n      0x07\n        /* \"EHealth.sol\":5433:5438  index */\n      dup3\n        /* \"EHealth.sol\":5417:5439  doctorsHospital[index] */\n      dup2\n      sload\n      dup2\n      lt\n      tag_245\n      jumpi\n      invalid\n    tag_245:\n      swap1\n      0x00\n      mstore\n      keccak256(0x00, 0x20)\n      swap1\n      0x03\n      mul\n      add\n        /* \"EHealth.sol\":5417:5450  doctorsHospital[index].nameDoctor */\n      0x01\n      add\n        /* \"EHealth.sol\":5417:5462  doctorsHospital[index].nameDoctor=_nameDoctor */\n      swap1\n      dup1\n      mload\n      swap1\n      0x20\n      add\n      swap1\n      tag_247\n      swap3\n      swap2\n      swap1\n      tag_178\n      jump\t// in\n    tag_247:\n      pop\n        /* \"EHealth.sol\":5504:5513  _hospital */\n      dup5\n        /* \"EHealth.sol\":5472:5487  doctorsHospital */\n      0x07\n        /* \"EHealth.sol\":5488:5493  index */\n      dup3\n        /* \"EHealth.sol\":5472:5494  doctorsHospital[index] */\n      dup2\n      sload\n      dup2\n      lt\n      tag_248\n      jumpi\n      invalid\n    tag_248:\n      swap1\n      0x00\n      mstore\n      keccak256(0x00, 0x20)\n      swap1\n      0x03\n      mul\n      add\n        /* \"EHealth.sol\":5472:5503  doctorsHospital[index].hospital */\n      0x02\n      add\n      0x00\n        /* \"EHealth.sol\":5472:5513  doctorsHospital[index].hospital=_hospital */\n      0x0100\n      exp\n      dup2\n      sload\n      dup2\n      0xffffffffffffffffffffffffffffffffffffffff\n      mul\n      not\n      and\n      swap1\n      dup4\n      0xffffffffffffffffffffffffffffffffffffffff\n      and\n      mul\n      or\n      swap1\n      sstore\n      pop\n        /* \"EHealth.sol\":5557:5568  _permission */\n      dup4\n        /* \"EHealth.sol\":5523:5538  doctorsHospital */\n      0x07\n        /* \"EHealth.sol\":5539:5544  index */\n      dup3\n        /* \"EHealth.sol\":5523:5545  doctorsHospital[index] */\n      dup2\n      sload\n      dup2\n      lt\n      tag_250\n      jumpi\n      invalid\n    tag_250:\n      swap1\n      0x00\n      mstore\n      keccak256(0x00, 0x20)\n      swap1\n      0x03\n      mul\n      add\n        /* \"EHealth.sol\":5523:5556  doctorsHospital[index].permission */\n      0x02\n      add\n      0x14\n        /* \"EHealth.sol\":5523:5568  doctorsHospital[index].permission=_permission */\n      0x0100\n      exp\n      dup2\n      sload\n      dup2\n      0xff\n      mul\n      not\n      and\n      swap1\n      dup4\n      iszero\n      iszero\n      mul\n      or\n      swap1\n      sstore\n      pop\n        /* \"EHealth.sol\":5583:5765  RefreshDoctor(doctorsHospital[index].idDoctor,... */\n      0x6fcbc4a02269ac36204ac7e60c4cf625c6fc2b2365cac750c9927b670e347f90\n        /* \"EHealth.sol\":5597:5612  doctorsHospital */\n      0x07\n        /* \"EHealth.sol\":5613:5618  index */\n      dup3\n        /* \"EHealth.sol\":5597:5619  doctorsHospital[index] */\n      dup2\n      sload\n      dup2\n      lt\n      tag_252\n      jumpi\n      invalid\n    tag_252:\n      swap1\n      0x00\n      mstore\n      keccak256(0x00, 0x20)\n      swap1\n      0x03\n      mul\n      add\n        /* \"EHealth.sol\":5597:5628  doctorsHospital[index].idDoctor */\n      0x00\n      add\n      0x00\n      swap1\n      sload\n      swap1\n      0x0100\n      exp\n      swap1\n      div\n      0xffffffffffffffffffffffffffffffffffffffff\n      and\n        /* \"EHealth.sol\":5638:5653  doctorsHospital */\n      0x07\n        /* \"EHealth.sol\":5654:5659  index */\n      dup4\n        /* \"EHealth.sol\":5638:5660  doctorsHospital[index] */\n      dup2\n      sload\n      dup2\n      lt\n      tag_254\n      jumpi\n      invalid\n    tag_254:\n      swap1\n      0x00\n      mstore\n      keccak256(0x00, 0x20)\n      swap1\n      0x03\n      mul\n      add\n        /* \"EHealth.sol\":5638:5671  doctorsHospital[index].nameDoctor */\n      0x01\n      add\n        /* \"EHealth.sol\":5681:5696  doctorsHospital */\n      0x07\n        /* \"EHealth.sol\":5697:5702  index */\n      dup5\n        /* \"EHealth.sol\":5681:5703  doctorsHospital[index] */\n      dup2\n      sload\n      dup2\n      lt\n      tag_256\n      jumpi\n      invalid\n    tag_256:\n      swap1\n      0x00\n      mstore\n      keccak256(0x00, 0x20)\n      swap1\n      0x03\n      mul\n      add\n        /* \"EHealth.sol\":5681:5712  doctorsHospital[index].hospital */\n      0x02\n      add\n      0x00\n      swap1\n      sload\n      swap1\n      0x0100\n      exp\n      swap1\n      div\n      0xffffffffffffffffffffffffffffffffffffffff\n      and\n        /* \"EHealth.sol\":5722:5737  doctorsHospital */\n      0x07\n        /* \"EHealth.sol\":5738:5743  index */\n      dup6\n        /* \"EHealth.sol\":5722:5744  doctorsHospital[index] */\n      dup2\n      sload\n      dup2\n      lt\n      tag_258\n      jumpi\n      invalid\n    tag_258:\n      swap1\n      0x00\n      mstore\n      keccak256(0x00, 0x20)\n      swap1\n      0x03\n      mul\n      add\n        /* \"EHealth.sol\":5722:5755  doctorsHospital[index].permission */\n      0x02\n      add\n      0x14\n      swap1\n      sload\n      swap1\n      0x0100\n      exp\n      swap1\n      div\n      0xff\n      and\n        /* \"EHealth.sol\":5583:5765  RefreshDoctor(doctorsHospital[index].idDoctor,... */\n      mload(0x40)\n      tag_260\n      swap5\n      swap4\n      swap3\n      swap2\n      swap1\n      tag_261\n      jump\t// in\n    tag_260:\n      mload(0x40)\n      dup1\n      swap2\n      sub\n      swap1\n      log1\n        /* \"EHealth.sol\":10212:10213  _ */\n      pop\n        /* \"EHealth.sol\":5226:5772  function UpdateDoctor(address _id, string memory _nameDoctor, address _hospital ,bool _permission) ... */\n      pop\n      pop\n      pop\n      pop\n      pop\n      pop\n      jump\t// out\n        /* \"EHealth.sol\":5802:6215  function ReadDoctor(address _id)... */\n    tag_66:\n        /* \"EHealth.sol\":5892:5905  string memory */\n      0x60\n        /* \"EHealth.sol\":5907:5914  address */\n      0x00\n        /* \"EHealth.sol\":5916:5920  bool */\n      dup1\n        /* \"EHealth.sol\":5858:5871  oracleAddress */\n      0x03\n      0x00\n      swap1\n      sload\n      swap1\n      0x0100\n      exp\n      swap1\n      div\n      0xffffffffffffffffffffffffffffffffffffffff\n      and\n        /* \"EHealth.sol\":5872:5877  owner */\n      0x02\n      0x00\n      swap1\n      sload\n      swap1\n      0x0100\n      exp\n      swap1\n      div\n      0xffffffffffffffffffffffffffffffffffffffff\n      and\n        /* \"EHealth.sol\":10146:10153  _oracle */\n      dup2\n        /* \"EHealth.sol\":10129:10153  oracleAddress == _oracle */\n      0xffffffffffffffffffffffffffffffffffffffff\n      and\n        /* \"EHealth.sol\":10129:10142  oracleAddress */\n      0x03\n      0x00\n      swap1\n      sload\n      swap1\n      0x0100\n      exp\n      swap1\n      div\n      0xffffffffffffffffffffffffffffffffffffffff\n      and\n        /* \"EHealth.sol\":10129:10153  oracleAddress == _oracle */\n      0xffffffffffffffffffffffffffffffffffffffff\n      and\n      eq\n        /* \"EHealth.sol\":10128:10175  (oracleAddress == _oracle) || (owner == _owner) */\n      dup1\n      tag_263\n      jumpi\n      pop\n        /* \"EHealth.sol\":10168:10174  _owner */\n      dup1\n        /* \"EHealth.sol\":10159:10174  owner == _owner */\n      0xffffffffffffffffffffffffffffffffffffffff\n      and\n        /* \"EHealth.sol\":10159:10164  owner */\n      0x02\n      0x00\n      swap1\n      sload\n      swap1\n      0x0100\n      exp\n      swap1\n      div\n      0xffffffffffffffffffffffffffffffffffffffff\n      and\n        /* \"EHealth.sol\":10159:10174  owner == _owner */\n      0xffffffffffffffffffffffffffffffffffffffff\n      and\n      eq\n        /* \"EHealth.sol\":10128:10175  (oracleAddress == _oracle) || (owner == _owner) */\n    tag_263:\n        /* \"EHealth.sol\":10120:10202  require((oracleAddress == _oracle) || (owner == _owner), ... */\n      tag_264\n      jumpi\n      mload(0x40)\n      0x08c379a000000000000000000000000000000000000000000000000000000000\n      dup2\n      mstore\n      0x04\n      add\n      tag_265\n      swap1\n      tag_149\n      jump\t// in\n    tag_265:\n      mload(0x40)\n      dup1\n      swap2\n      sub\n      swap1\n      revert\n    tag_264:\n        /* \"EHealth.sol\":5931:5941  uint index */\n      0x00\n        /* \"EHealth.sol\":5944:5959  FindDoctor(_id) */\n      tag_267\n        /* \"EHealth.sol\":5955:5958  _id */\n      dup8\n        /* \"EHealth.sol\":5944:5954  FindDoctor */\n      tag_169\n        /* \"EHealth.sol\":5944:5959  FindDoctor(_id) */\n      jump\t// in\n    tag_267:\n        /* \"EHealth.sol\":5931:5959  uint index = FindDoctor(_id) */\n      swap1\n      pop\n        /* \"EHealth.sol\":5977:5992  doctorsHospital */\n      0x07\n        /* \"EHealth.sol\":5993:5998  index */\n      dup2\n        /* \"EHealth.sol\":5977:5999  doctorsHospital[index] */\n      dup2\n      sload\n      dup2\n      lt\n      tag_268\n      jumpi\n      invalid\n    tag_268:\n      swap1\n      0x00\n      mstore\n      keccak256(0x00, 0x20)\n      swap1\n      0x03\n      mul\n      add\n        /* \"EHealth.sol\":5977:6010  doctorsHospital[index].nameDoctor */\n      0x01\n      add\n        /* \"EHealth.sol\":6011:6026  doctorsHospital */\n      0x07\n        /* \"EHealth.sol\":6027:6032  index */\n      dup3\n        /* \"EHealth.sol\":6011:6033  doctorsHospital[index] */\n      dup2\n      sload\n      dup2\n      lt\n      tag_270\n      jumpi\n      invalid\n    tag_270:\n      swap1\n      0x00\n      mstore\n      keccak256(0x00, 0x20)\n      swap1\n      0x03\n      mul\n      add\n        /* \"EHealth.sol\":6011:6042  doctorsHospital[index].hospital */\n      0x02\n      add\n      0x00\n      swap1\n      sload\n      swap1\n      0x0100\n      exp\n      swap1\n      div\n      0xffffffffffffffffffffffffffffffffffffffff\n      and\n        /* \"EHealth.sol\":6043:6058  doctorsHospital */\n      0x07\n        /* \"EHealth.sol\":6059:6064  index */\n      dup4\n        /* \"EHealth.sol\":6043:6065  doctorsHospital[index] */\n      dup2\n      sload\n      dup2\n      lt\n      tag_272\n      jumpi\n      invalid\n    tag_272:\n      swap1\n      0x00\n      mstore\n      keccak256(0x00, 0x20)\n      swap1\n      0x03\n      mul\n      add\n        /* \"EHealth.sol\":6043:6076  doctorsHospital[index].permission */\n      0x02\n      add\n      0x14\n      swap1\n      sload\n      swap1\n      0x0100\n      exp\n      swap1\n      div\n      0xff\n      and\n        /* \"EHealth.sol\":5969:6077  return (doctorsHospital[index].nameDoctor,doctorsHospital[index].hospital,doctorsHospital[index].permission) */\n      dup3\n      dup1\n      sload\n      0x01\n      dup2\n      0x01\n      and\n      iszero\n      0x0100\n      mul\n      sub\n      and\n      0x02\n      swap1\n      div\n      dup1\n      0x1f\n      add\n      0x20\n      dup1\n      swap2\n      div\n      mul\n      0x20\n      add\n      mload(0x40)\n      swap1\n      dup2\n      add\n      0x40\n      mstore\n      dup1\n      swap3\n      swap2\n      swap1\n      dup2\n      dup2\n      mstore\n      0x20\n      add\n      dup3\n      dup1\n      sload\n      0x01\n      dup2\n      0x01\n      and\n      iszero\n      0x0100\n      mul\n      sub\n      and\n      0x02\n      swap1\n      div\n      dup1\n      iszero\n      tag_274\n      jumpi\n      dup1\n      0x1f\n      lt\n      tag_275\n      jumpi\n      0x0100\n      dup1\n      dup4\n      sload\n      div\n      mul\n      dup4\n      mstore\n      swap2\n      0x20\n      add\n      swap2\n      jump(tag_274)\n    tag_275:\n      dup3\n      add\n      swap2\n      swap1\n      0x00\n      mstore\n      keccak256(0x00, 0x20)\n      swap1\n    tag_276:\n      dup2\n      sload\n      dup2\n      mstore\n      swap1\n      0x01\n      add\n      swap1\n      0x20\n      add\n      dup1\n      dup4\n      gt\n      tag_276\n      jumpi\n      dup3\n      swap1\n      sub\n      0x1f\n      and\n      dup3\n      add\n      swap2\n    tag_274:\n      pop\n      pop\n      pop\n      pop\n      pop\n      swap3\n      pop\n      swap6\n      pop\n      swap6\n      pop\n      swap6\n      pop\n      pop\n        /* \"EHealth.sol\":5802:6215  function ReadDoctor(address _id)... */\n      pop\n      pop\n      swap2\n      swap4\n      swap1\n      swap3\n      pop\n      jump\t// out\n        /* \"EHealth.sol\":7991:8603  function UpdateSensor(uint _id, string memory _mac, string memory _patientName,address _idDoctor, bool _active ) ... */\n    tag_72:\n        /* \"EHealth.sol\":8128:8137  _idDoctor */\n      dup2\n        /* \"EHealth.sol\":8139:8152  oracleAddress */\n      0x03\n      0x00\n      swap1\n      sload\n      swap1\n      0x0100\n      exp\n      swap1\n      div\n      0xffffffffffffffffffffffffffffffffffffffff\n      and\n        /* \"EHealth.sol\":8153:8158  owner */\n      0x02\n      0x00\n      swap1\n      sload\n      swap1\n      0x0100\n      exp\n      swap1\n      div\n      0xffffffffffffffffffffffffffffffffffffffff\n      and\n        /* \"EHealth.sol\":10339:10340  0 */\n      0x00\n        /* \"EHealth.sol\":10315:10336  FindDoctor(_idDoctor) */\n      tag_278\n        /* \"EHealth.sol\":10326:10335  _idDoctor */\n      dup5\n        /* \"EHealth.sol\":10315:10325  FindDoctor */\n      tag_169\n        /* \"EHealth.sol\":10315:10336  FindDoctor(_idDoctor) */\n      jump\t// in\n    tag_278:\n        /* \"EHealth.sol\":10315:10340  FindDoctor(_idDoctor) < 0 */\n      lt\n        /* \"EHealth.sol\":10314:10371  (FindDoctor(_idDoctor) < 0) || (oracleAddress == _oracle) */\n      dup1\n      tag_279\n      jumpi\n      pop\n        /* \"EHealth.sol\":10363:10370  _oracle */\n      dup2\n        /* \"EHealth.sol\":10346:10370  oracleAddress == _oracle */\n      0xffffffffffffffffffffffffffffffffffffffff\n      and\n        /* \"EHealth.sol\":10346:10359  oracleAddress */\n      0x03\n      0x00\n      swap1\n      sload\n      swap1\n      0x0100\n      exp\n      swap1\n      div\n      0xffffffffffffffffffffffffffffffffffffffff\n      and\n        /* \"EHealth.sol\":10346:10370  oracleAddress == _oracle */\n      0xffffffffffffffffffffffffffffffffffffffff\n      and\n      eq\n        /* \"EHealth.sol\":10314:10371  (FindDoctor(_idDoctor) < 0) || (oracleAddress == _oracle) */\n    tag_279:\n        /* \"EHealth.sol\":10314:10392  (FindDoctor(_idDoctor) < 0) || (oracleAddress == _oracle) || (owner == _owner) */\n      dup1\n      tag_280\n      jumpi\n      pop\n        /* \"EHealth.sol\":10385:10391  _owner */\n      dup1\n        /* \"EHealth.sol\":10376:10391  owner == _owner */\n      0xffffffffffffffffffffffffffffffffffffffff\n      and\n        /* \"EHealth.sol\":10376:10381  owner */\n      0x02\n      0x00\n      swap1\n      sload\n      swap1\n      0x0100\n      exp\n      swap1\n      div\n      0xffffffffffffffffffffffffffffffffffffffff\n      and\n        /* \"EHealth.sol\":10376:10391  owner == _owner */\n      0xffffffffffffffffffffffffffffffffffffffff\n      and\n      eq\n        /* \"EHealth.sol\":10314:10392  (FindDoctor(_idDoctor) < 0) || (oracleAddress == _oracle) || (owner == _owner) */\n    tag_280:\n        /* \"EHealth.sol\":10306:10409  require((FindDoctor(_idDoctor) < 0) || (oracleAddress == _oracle) || (owner == _owner),\"No privileges\") */\n      tag_281\n      jumpi\n      mload(0x40)\n      0x08c379a000000000000000000000000000000000000000000000000000000000\n      dup2\n      mstore\n      0x04\n      add\n      tag_282\n      swap1\n      tag_149\n      jump\t// in\n    tag_282:\n      mload(0x40)\n      dup1\n      swap2\n      sub\n      swap1\n      revert\n    tag_281:\n        /* \"EHealth.sol\":8169:8179  uint index */\n      0x00\n        /* \"EHealth.sol\":8182:8197  FindSensor(_id) */\n      tag_284\n        /* \"EHealth.sol\":8193:8196  _id */\n      dup10\n        /* \"EHealth.sol\":8182:8192  FindSensor */\n      tag_152\n        /* \"EHealth.sol\":8182:8197  FindSensor(_id) */\n      jump\t// in\n    tag_284:\n        /* \"EHealth.sol\":8169:8197  uint index = FindSensor(_id) */\n      swap1\n      pop\n        /* \"EHealth.sol\":8232:8236  _mac */\n      dup8\n        /* \"EHealth.sol\":8207:8220  sensorsDoctor */\n      0x09\n        /* \"EHealth.sol\":8221:8226  index */\n      dup3\n        /* \"EHealth.sol\":8207:8227  sensorsDoctor[index] */\n      dup2\n      sload\n      dup2\n      lt\n      tag_285\n      jumpi\n      invalid\n    tag_285:\n      swap1\n      0x00\n      mstore\n      keccak256(0x00, 0x20)\n      swap1\n      0x05\n      mul\n      add\n        /* \"EHealth.sol\":8207:8231  sensorsDoctor[index].MAC */\n      0x01\n      add\n        /* \"EHealth.sol\":8207:8236  sensorsDoctor[index].MAC=_mac */\n      swap1\n      dup1\n      mload\n      swap1\n      0x20\n      add\n      swap1\n      tag_287\n      swap3\n      swap2\n      swap1\n      tag_178\n      jump\t// in\n    tag_287:\n      pop\n        /* \"EHealth.sol\":8279:8291  _patientName */\n      dup7\n        /* \"EHealth.sol\":8246:8259  sensorsDoctor */\n      0x09\n        /* \"EHealth.sol\":8260:8265  index */\n      dup3\n        /* \"EHealth.sol\":8246:8266  sensorsDoctor[index] */\n      dup2\n      sload\n      dup2\n      lt\n      tag_288\n      jumpi\n      invalid\n    tag_288:\n      swap1\n      0x00\n      mstore\n      keccak256(0x00, 0x20)\n      swap1\n      0x05\n      mul\n      add\n        /* \"EHealth.sol\":8246:8278  sensorsDoctor[index].patientName */\n      0x02\n      add\n        /* \"EHealth.sol\":8246:8291  sensorsDoctor[index].patientName=_patientName */\n      swap1\n      dup1\n      mload\n      swap1\n      0x20\n      add\n      swap1\n      tag_290\n      swap3\n      swap2\n      swap1\n      tag_178\n      jump\t// in\n    tag_290:\n      pop\n        /* \"EHealth.sol\":8331:8340  _idDoctor */\n      dup6\n        /* \"EHealth.sol\":8301:8314  sensorsDoctor */\n      0x09\n        /* \"EHealth.sol\":8315:8320  index */\n      dup3\n        /* \"EHealth.sol\":8301:8321  sensorsDoctor[index] */\n      dup2\n      sload\n      dup2\n      lt\n      tag_291\n      jumpi\n      invalid\n    tag_291:\n      swap1\n      0x00\n      mstore\n      keccak256(0x00, 0x20)\n      swap1\n      0x05\n      mul\n      add\n        /* \"EHealth.sol\":8301:8330  sensorsDoctor[index].idDoctor */\n      0x03\n      add\n      0x00\n        /* \"EHealth.sol\":8301:8340  sensorsDoctor[index].idDoctor=_idDoctor */\n      0x0100\n      exp\n      dup2\n      sload\n      dup2\n      0xffffffffffffffffffffffffffffffffffffffff\n      mul\n      not\n      and\n      swap1\n      dup4\n      0xffffffffffffffffffffffffffffffffffffffff\n      and\n      mul\n      or\n      swap1\n      sstore\n      pop\n        /* \"EHealth.sol\":8378:8385  _active */\n      dup5\n        /* \"EHealth.sol\":8350:8363  sensorsDoctor */\n      0x09\n        /* \"EHealth.sol\":8364:8369  index */\n      dup3\n        /* \"EHealth.sol\":8350:8370  sensorsDoctor[index] */\n      dup2\n      sload\n      dup2\n      lt\n      tag_293\n      jumpi\n      invalid\n    tag_293:\n      swap1\n      0x00\n      mstore\n      keccak256(0x00, 0x20)\n      swap1\n      0x05\n      mul\n      add\n        /* \"EHealth.sol\":8350:8377  sensorsDoctor[index].active */\n      0x03\n      add\n      0x14\n        /* \"EHealth.sol\":8350:8385  sensorsDoctor[index].active=_active */\n      0x0100\n      exp\n      dup2\n      sload\n      dup2\n      0xff\n      mul\n      not\n      and\n      swap1\n      dup4\n      iszero\n      iszero\n      mul\n      or\n      swap1\n      sstore\n      pop\n        /* \"EHealth.sol\":8400:8596  RefreshSensor(sensorsDoctor[index].idSensor,... */\n      0x3ab6f9ea2e72cad17988f4527dc5626fa4e97c597fcbd9d7e2a7e820851b54ce\n        /* \"EHealth.sol\":8414:8427  sensorsDoctor */\n      0x09\n        /* \"EHealth.sol\":8428:8433  index */\n      dup3\n        /* \"EHealth.sol\":8414:8434  sensorsDoctor[index] */\n      dup2\n      sload\n      dup2\n      lt\n      tag_295\n      jumpi\n      invalid\n    tag_295:\n      swap1\n      0x00\n      mstore\n      keccak256(0x00, 0x20)\n      swap1\n      0x05\n      mul\n      add\n        /* \"EHealth.sol\":8414:8443  sensorsDoctor[index].idSensor */\n      0x00\n      add\n      sload\n        /* \"EHealth.sol\":8453:8466  sensorsDoctor */\n      0x09\n        /* \"EHealth.sol\":8467:8472  index */\n      dup4\n        /* \"EHealth.sol\":8453:8473  sensorsDoctor[index] */\n      dup2\n      sload\n      dup2\n      lt\n      tag_297\n      jumpi\n      invalid\n    tag_297:\n      swap1\n      0x00\n      mstore\n      keccak256(0x00, 0x20)\n      swap1\n      0x05\n      mul\n      add\n        /* \"EHealth.sol\":8453:8477  sensorsDoctor[index].MAC */\n      0x01\n      add\n        /* \"EHealth.sol\":8487:8500  sensorsDoctor */\n      0x09\n        /* \"EHealth.sol\":8501:8506  index */\n      dup5\n        /* \"EHealth.sol\":8487:8507  sensorsDoctor[index] */\n      dup2\n      sload\n      dup2\n      lt\n      tag_299\n      jumpi\n      invalid\n    tag_299:\n      swap1\n      0x00\n      mstore\n      keccak256(0x00, 0x20)\n      swap1\n      0x05\n      mul\n      add\n        /* \"EHealth.sol\":8487:8519  sensorsDoctor[index].patientName */\n      0x02\n      add\n        /* \"EHealth.sol\":8529:8542  sensorsDoctor */\n      0x09\n        /* \"EHealth.sol\":8543:8548  index */\n      dup6\n        /* \"EHealth.sol\":8529:8549  sensorsDoctor[index] */\n      dup2\n      sload\n      dup2\n      lt\n      tag_301\n      jumpi\n      invalid\n    tag_301:\n      swap1\n      0x00\n      mstore\n      keccak256(0x00, 0x20)\n      swap1\n      0x05\n      mul\n      add\n        /* \"EHealth.sol\":8529:8558  sensorsDoctor[index].idDoctor */\n      0x03\n      add\n      0x00\n      swap1\n      sload\n      swap1\n      0x0100\n      exp\n      swap1\n      div\n      0xffffffffffffffffffffffffffffffffffffffff\n      and\n        /* \"EHealth.sol\":8568:8581  sensorsDoctor */\n      0x09\n        /* \"EHealth.sol\":8582:8587  index */\n      dup7\n        /* \"EHealth.sol\":8568:8588  sensorsDoctor[index] */\n      dup2\n      sload\n      dup2\n      lt\n      tag_303\n      jumpi\n      invalid\n    tag_303:\n      swap1\n      0x00\n      mstore\n      keccak256(0x00, 0x20)\n      swap1\n      0x05\n      mul\n      add\n        /* \"EHealth.sol\":8568:8595  sensorsDoctor[index].active */\n      0x03\n      add\n      0x14\n      swap1\n      sload\n      swap1\n      0x0100\n      exp\n      swap1\n      div\n      0xff\n      and\n        /* \"EHealth.sol\":8400:8596  RefreshSensor(sensorsDoctor[index].idSensor,... */\n      mload(0x40)\n      tag_305\n      swap6\n      swap5\n      swap4\n      swap3\n      swap2\n      swap1\n      tag_306\n      jump\t// in\n    tag_305:\n      mload(0x40)\n      dup1\n      swap2\n      sub\n      swap1\n      log1\n        /* \"EHealth.sol\":10419:10420  _ */\n      pop\n        /* \"EHealth.sol\":7991:8603  function UpdateSensor(uint _id, string memory _mac, string memory _patientName,address _idDoctor, bool _active ) ... */\n      pop\n      pop\n      pop\n      pop\n      pop\n      pop\n      pop\n      pop\n      jump\t// out\n        /* \"EHealth.sol\":896:936  mapping(address=> Sensor) public Sensors */\n    tag_75:\n      mstore(0x20, 0x08)\n      dup1\n      0x00\n      mstore\n      keccak256(0x00, 0x40)\n      0x00\n      swap2\n      pop\n      swap1\n      pop\n      dup1\n      0x00\n      add\n      sload\n      swap1\n      dup1\n      0x01\n      add\n      dup1\n      sload\n      0x01\n      dup2\n      0x01\n      and\n      iszero\n      0x0100\n      mul\n      sub\n      and\n      0x02\n      swap1\n      div\n      dup1\n      0x1f\n      add\n      0x20\n      dup1\n      swap2\n      div\n      mul\n      0x20\n      add\n      mload(0x40)\n      swap1\n      dup2\n      add\n      0x40\n      mstore\n      dup1\n      swap3\n      swap2\n      swap1\n      dup2\n      dup2\n      mstore\n      0x20\n      add\n      dup3\n      dup1\n      sload\n      0x01\n      dup2\n      0x01\n      and\n      iszero\n      0x0100\n      mul\n      sub\n      and\n      0x02\n      swap1\n      div\n      dup1\n      iszero\n      tag_307\n      jumpi\n      dup1\n      0x1f\n      lt\n      tag_308\n      jumpi\n      0x0100\n      dup1\n      dup4\n      sload\n      div\n      mul\n      dup4\n      mstore\n      swap2\n      0x20\n      add\n      swap2\n      jump(tag_307)\n    tag_308:\n      dup3\n      add\n      swap2\n      swap1\n      0x00\n      mstore\n      keccak256(0x00, 0x20)\n      swap1\n    tag_309:\n      dup2\n      sload\n      dup2\n      mstore\n      swap1\n      0x01\n      add\n      swap1\n      0x20\n      add\n      dup1\n      dup4\n      gt\n      tag_309\n      jumpi\n      dup3\n      swap1\n      sub\n      0x1f\n      and\n      dup3\n      add\n      swap2\n    tag_307:\n      pop\n      pop\n      pop\n      pop\n      pop\n      swap1\n      dup1\n      0x02\n      add\n      dup1\n      sload\n      0x01\n      dup2\n      0x01\n      and\n      iszero\n      0x0100\n      mul\n      sub\n      and\n      0x02\n      swap1\n      div\n      dup1\n      0x1f\n      add\n      0x20\n      dup1\n      swap2\n      div\n      mul\n      0x20\n      add\n      mload(0x40)\n      swap1\n      dup2\n      add\n      0x40\n      mstore\n      dup1\n      swap3\n      swap2\n      swap1\n      dup2\n      dup2\n      mstore\n      0x20\n      add\n      dup3\n      dup1\n      sload\n      0x01\n      dup2\n      0x01\n      and\n      iszero\n      0x0100\n      mul\n      sub\n      and\n      0x02\n      swap1\n      div\n      dup1\n      iszero\n      tag_310\n      jumpi\n      dup1\n      0x1f\n      lt\n      tag_311\n      jumpi\n      0x0100\n      dup1\n      dup4\n      sload\n      div\n      mul\n      dup4\n      mstore\n      swap2\n      0x20\n      add\n      swap2\n      jump(tag_310)\n    tag_311:\n      dup3\n      add\n      swap2\n      swap1\n      0x00\n      mstore\n      keccak256(0x00, 0x20)\n      swap1\n    tag_312:\n      dup2\n      sload\n      dup2\n      mstore\n      swap1\n      0x01\n      add\n      swap1\n      0x20\n      add\n      dup1\n      dup4\n      gt\n      tag_312\n      jumpi\n      dup3\n      swap1\n      sub\n      0x1f\n      and\n      dup3\n      add\n      swap2\n    tag_310:\n      pop\n      pop\n      pop\n      pop\n      pop\n      swap1\n      dup1\n      0x03\n      add\n      0x00\n      swap1\n      sload\n      swap1\n      0x0100\n      exp\n      swap1\n      div\n      0xffffffffffffffffffffffffffffffffffffffff\n      and\n      swap1\n      dup1\n      0x03\n      add\n      0x14\n      swap1\n      sload\n      swap1\n      0x0100\n      exp\n      swap1\n      div\n      0xff\n      and\n      swap1\n      pop\n      dup6\n      jump\t// out\n        /* \"EHealth.sol\":844:875  Doctor[] public doctorsHospital */\n    tag_80:\n      0x07\n      dup2\n      dup2\n      sload\n      dup2\n      lt\n      tag_313\n      jumpi\n      0x00\n      dup1\n      revert\n    tag_313:\n      swap1\n      0x00\n      mstore\n      keccak256(0x00, 0x20)\n      swap1\n      0x03\n      mul\n      add\n      0x00\n      swap2\n      pop\n      swap1\n      pop\n      dup1\n      0x00\n      add\n      0x00\n      swap1\n      sload\n      swap1\n      0x0100\n      exp\n      swap1\n      div\n      0xffffffffffffffffffffffffffffffffffffffff\n      and\n      swap1\n      dup1\n      0x01\n      add\n      dup1\n      sload\n      0x01\n      dup2\n      0x01\n      and\n      iszero\n      0x0100\n      mul\n      sub\n      and\n      0x02\n      swap1\n      div\n      dup1\n      0x1f\n      add\n      0x20\n      dup1\n      swap2\n      div\n      mul\n      0x20\n      add\n      mload(0x40)\n      swap1\n      dup2\n      add\n      0x40\n      mstore\n      dup1\n      swap3\n      swap2\n      swap1\n      dup2\n      dup2\n      mstore\n      0x20\n      add\n      dup3\n      dup1\n      sload\n      0x01\n      dup2\n      0x01\n      and\n      iszero\n      0x0100\n      mul\n      sub\n      and\n      0x02\n      swap1\n      div\n      dup1\n      iszero\n      tag_315\n      jumpi\n      dup1\n      0x1f\n      lt\n      tag_316\n      jumpi\n      0x0100\n      dup1\n      dup4\n      sload\n      div\n      mul\n      dup4\n      mstore\n      swap2\n      0x20\n      add\n      swap2\n      jump(tag_315)\n    tag_316:\n      dup3\n      add\n      swap2\n      swap1\n      0x00\n      mstore\n      keccak256(0x00, 0x20)\n      swap1\n    tag_317:\n      dup2\n      sload\n      dup2\n      mstore\n      swap1\n      0x01\n      add\n      swap1\n      0x20\n      add\n      dup1\n      dup4\n      gt\n      tag_317\n      jumpi\n      dup3\n      swap1\n      sub\n      0x1f\n      and\n      dup3\n      add\n      swap2\n    tag_315:\n      pop\n      pop\n      pop\n      pop\n      pop\n      swap1\n      dup1\n      0x02\n      add\n      0x00\n      swap1\n      sload\n      swap1\n      0x0100\n      exp\n      swap1\n      div\n      0xffffffffffffffffffffffffffffffffffffffff\n      and\n      swap1\n      dup1\n      0x02\n      add\n      0x14\n      swap1\n      sload\n      swap1\n      0x0100\n      exp\n      swap1\n      div\n      0xff\n      and\n      swap1\n      pop\n      dup5\n      jump\t// out\n        /* \"EHealth.sol\":9151:9558  function getAllSensorOfDoctor (address _idDoctor) ... */\n    tag_85:\n        /* \"EHealth.sol\":9271:9286  Sensor[] memory */\n      0x60\n        /* \"EHealth.sol\":9225:9234  _idDoctor */\n      dup2\n        /* \"EHealth.sol\":9236:9249  oracleAddress */\n      0x03\n      0x00\n      swap1\n      sload\n      swap1\n      0x0100\n      exp\n      swap1\n      div\n      0xffffffffffffffffffffffffffffffffffffffff\n      and\n        /* \"EHealth.sol\":9250:9255  owner */\n      0x02\n      0x00\n      swap1\n      sload\n      swap1\n      0x0100\n      exp\n      swap1\n      div\n      0xffffffffffffffffffffffffffffffffffffffff\n      and\n        /* \"EHealth.sol\":10339:10340  0 */\n      0x00\n        /* \"EHealth.sol\":10315:10336  FindDoctor(_idDoctor) */\n      tag_319\n        /* \"EHealth.sol\":10326:10335  _idDoctor */\n      dup5\n        /* \"EHealth.sol\":10315:10325  FindDoctor */\n      tag_169\n        /* \"EHealth.sol\":10315:10336  FindDoctor(_idDoctor) */\n      jump\t// in\n    tag_319:\n        /* \"EHealth.sol\":10315:10340  FindDoctor(_idDoctor) < 0 */\n      lt\n        /* \"EHealth.sol\":10314:10371  (FindDoctor(_idDoctor) < 0) || (oracleAddress == _oracle) */\n      dup1\n      tag_320\n      jumpi\n      pop\n        /* \"EHealth.sol\":10363:10370  _oracle */\n      dup2\n        /* \"EHealth.sol\":10346:10370  oracleAddress == _oracle */\n      0xffffffffffffffffffffffffffffffffffffffff\n      and\n        /* \"EHealth.sol\":10346:10359  oracleAddress */\n      0x03\n      0x00\n      swap1\n      sload\n      swap1\n      0x0100\n      exp\n      swap1\n      div\n      0xffffffffffffffffffffffffffffffffffffffff\n      and\n        /* \"EHealth.sol\":10346:10370  oracleAddress == _oracle */\n      0xffffffffffffffffffffffffffffffffffffffff\n      and\n      eq\n        /* \"EHealth.sol\":10314:10371  (FindDoctor(_idDoctor) < 0) || (oracleAddress == _oracle) */\n    tag_320:\n        /* \"EHealth.sol\":10314:10392  (FindDoctor(_idDoctor) < 0) || (oracleAddress == _oracle) || (owner == _owner) */\n      dup1\n      tag_321\n      jumpi\n      pop\n        /* \"EHealth.sol\":10385:10391  _owner */\n      dup1\n        /* \"EHealth.sol\":10376:10391  owner == _owner */\n      0xffffffffffffffffffffffffffffffffffffffff\n      and\n        /* \"EHealth.sol\":10376:10381  owner */\n      0x02\n      0x00\n      swap1\n      sload\n      swap1\n      0x0100\n      exp\n      swap1\n      div\n      0xffffffffffffffffffffffffffffffffffffffff\n      and\n        /* \"EHealth.sol\":10376:10391  owner == _owner */\n      0xffffffffffffffffffffffffffffffffffffffff\n      and\n      eq\n        /* \"EHealth.sol\":10314:10392  (FindDoctor(_idDoctor) < 0) || (oracleAddress == _oracle) || (owner == _owner) */\n    tag_321:\n        /* \"EHealth.sol\":10306:10409  require((FindDoctor(_idDoctor) < 0) || (oracleAddress == _oracle) || (owner == _owner),\"No privileges\") */\n      tag_322\n      jumpi\n      mload(0x40)\n      0x08c379a000000000000000000000000000000000000000000000000000000000\n      dup2\n      mstore\n      0x04\n      add\n      tag_323\n      swap1\n      tag_149\n      jump\t// in\n    tag_323:\n      mload(0x40)\n      dup1\n      swap2\n      sub\n      swap1\n      revert\n    tag_322:\n        /* \"EHealth.sol\":9297:9316  Sensor[] memory ret */\n      0x00\n        /* \"EHealth.sol\":9332:9345  sensorsDoctor */\n      0x09\n        /* \"EHealth.sol\":9332:9352  sensorsDoctor.length */\n      dup1\n      sload\n      swap1\n      pop\n        /* \"EHealth.sol\":9319:9353  new Sensor[](sensorsDoctor.length) */\n      0xffffffffffffffff\n      dup2\n      gt\n      dup1\n      iszero\n      tag_325\n      jumpi\n      0x00\n      dup1\n      revert\n    tag_325:\n      pop\n      mload(0x40)\n      swap1\n      dup1\n      dup3\n      mstore\n      dup1\n      0x20\n      mul\n      0x20\n      add\n      dup3\n      add\n      0x40\n      mstore\n      dup1\n      iszero\n      tag_326\n      jumpi\n      dup2\n      0x20\n      add\n    tag_327:\n      tag_328\n      tag_329\n      jump\t// in\n    tag_328:\n      dup2\n      mstore\n      0x20\n      add\n      swap1\n      0x01\n      swap1\n      sub\n      swap1\n      dup2\n      tag_327\n      jumpi\n      swap1\n      pop\n    tag_326:\n      pop\n        /* \"EHealth.sol\":9297:9353  Sensor[] memory ret = new Sensor[](sensorsDoctor.length) */\n      swap1\n      pop\n        /* \"EHealth.sol\":9368:9374  uint i */\n      0x00\n        /* \"EHealth.sol\":9363:9532  for (uint i = 0; i< sensorsDoctor.length; i++) {... */\n    tag_330:\n        /* \"EHealth.sol\":9383:9396  sensorsDoctor */\n      0x09\n        /* \"EHealth.sol\":9383:9403  sensorsDoctor.length */\n      dup1\n      sload\n      swap1\n      pop\n        /* \"EHealth.sol\":9380:9381  i */\n      dup2\n        /* \"EHealth.sol\":9380:9403  i< sensorsDoctor.length */\n      lt\n        /* \"EHealth.sol\":9363:9532  for (uint i = 0; i< sensorsDoctor.length; i++) {... */\n      iszero\n      tag_331\n      jumpi\n        /* \"EHealth.sol\":9440:9453  sensorsDoctor */\n      0x09\n        /* \"EHealth.sol\":9454:9455  i */\n      dup2\n        /* \"EHealth.sol\":9440:9456  sensorsDoctor[i] */\n      dup2\n      sload\n      dup2\n      lt\n      tag_333\n      jumpi\n      invalid\n    tag_333:\n      swap1\n      0x00\n      mstore\n      keccak256(0x00, 0x20)\n      swap1\n      0x05\n      mul\n      add\n        /* \"EHealth.sol\":9440:9465  sensorsDoctor[i].idDoctor */\n      0x03\n      add\n      0x00\n      swap1\n      sload\n      swap1\n      0x0100\n      exp\n      swap1\n      div\n      0xffffffffffffffffffffffffffffffffffffffff\n      and\n        /* \"EHealth.sol\":9427:9465  _idDoctor == sensorsDoctor[i].idDoctor */\n      0xffffffffffffffffffffffffffffffffffffffff\n      and\n        /* \"EHealth.sol\":9427:9436  _idDoctor */\n      dup8\n        /* \"EHealth.sol\":9427:9465  _idDoctor == sensorsDoctor[i].idDoctor */\n      0xffffffffffffffffffffffffffffffffffffffff\n      and\n      eq\n        /* \"EHealth.sol\":9424:9522  if(_idDoctor == sensorsDoctor[i].idDoctor){... */\n      iszero\n      tag_335\n      jumpi\n        /* \"EHealth.sol\":9491:9504  sensorsDoctor */\n      0x09\n        /* \"EHealth.sol\":9505:9506  i */\n      dup2\n        /* \"EHealth.sol\":9491:9507  sensorsDoctor[i] */\n      dup2\n      sload\n      dup2\n      lt\n      tag_336\n      jumpi\n      invalid\n    tag_336:\n      swap1\n      0x00\n      mstore\n      keccak256(0x00, 0x20)\n      swap1\n      0x05\n      mul\n      add\n        /* \"EHealth.sol\":9484:9507  ret[i]=sensorsDoctor[i] */\n      mload(0x40)\n      dup1\n      0xc0\n      add\n      0x40\n      mstore\n      swap1\n      dup2\n      0x00\n      dup3\n      add\n      sload\n      dup2\n      mstore\n      0x20\n      add\n      0x01\n      dup3\n      add\n      dup1\n      sload\n      0x01\n      dup2\n      0x01\n      and\n      iszero\n      0x0100\n      mul\n      sub\n      and\n      0x02\n      swap1\n      div\n      dup1\n      0x1f\n      add\n      0x20\n      dup1\n      swap2\n      div\n      mul\n      0x20\n      add\n      mload(0x40)\n      swap1\n      dup2\n      add\n      0x40\n      mstore\n      dup1\n      swap3\n      swap2\n      swap1\n      dup2\n      dup2\n      mstore\n      0x20\n      add\n      dup3\n      dup1\n      sload\n      0x01\n      dup2\n      0x01\n      and\n      iszero\n      0x0100\n      mul\n      sub\n      and\n      0x02\n      swap1\n      div\n      dup1\n      iszero\n      tag_338\n      jumpi\n      dup1\n      0x1f\n      lt\n      tag_339\n      jumpi\n      0x0100\n      dup1\n      dup4\n      sload\n      div\n      mul\n      dup4\n      mstore\n      swap2\n      0x20\n      add\n      swap2\n      jump(tag_338)\n    tag_339:\n      dup3\n      add\n      swap2\n      swap1\n      0x00\n      mstore\n      keccak256(0x00, 0x20)\n      swap1\n    tag_340:\n      dup2\n      sload\n      dup2\n      mstore\n      swap1\n      0x01\n      add\n      swap1\n      0x20\n      add\n      dup1\n      dup4\n      gt\n      tag_340\n      jumpi\n      dup3\n      swap1\n      sub\n      0x1f\n      and\n      dup3\n      add\n      swap2\n    tag_338:\n      pop\n      pop\n      pop\n      pop\n      pop\n      dup2\n      mstore\n      0x20\n      add\n      0x02\n      dup3\n      add\n      dup1\n      sload\n      0x01\n      dup2\n      0x01\n      and\n      iszero\n      0x0100\n      mul\n      sub\n      and\n      0x02\n      swap1\n      div\n      dup1\n      0x1f\n      add\n      0x20\n      dup1\n      swap2\n      div\n      mul\n      0x20\n      add\n      mload(0x40)\n      swap1\n      dup2\n      add\n      0x40\n      mstore\n      dup1\n      swap3\n      swap2\n      swap1\n      dup2\n      dup2\n      mstore\n      0x20\n      add\n      dup3\n      dup1\n      sload\n      0x01\n      dup2\n      0x01\n      and\n      iszero\n      0x0100\n      mul\n      sub\n      and\n      0x02\n      swap1\n      div\n      dup1\n      iszero\n      tag_341\n      jumpi\n      dup1\n      0x1f\n      lt\n      tag_342\n      jumpi\n      0x0100\n      dup1\n      dup4\n      sload\n      div\n      mul\n      dup4\n      mstore\n      swap2\n      0x20\n      add\n      swap2\n      jump(tag_341)\n    tag_342:\n      dup3\n      add\n      swap2\n      swap1\n      0x00\n      mstore\n      keccak256(0x00, 0x20)\n      swap1\n    tag_343:\n      dup2\n      sload\n      dup2\n      mstore\n      swap1\n      0x01\n      add\n      swap1\n      0x20\n      add\n      dup1\n      dup4\n      gt\n      tag_343\n      jumpi\n      dup3\n      swap1\n      sub\n      0x1f\n      and\n      dup3\n      add\n      swap2\n    tag_341:\n      pop\n      pop\n      pop\n      pop\n      pop\n      dup2\n      mstore\n      0x20\n      add\n      0x03\n      dup3\n      add\n      0x00\n      swap1\n      sload\n      swap1\n      0x0100\n      exp\n      swap1\n      div\n      0xffffffffffffffffffffffffffffffffffffffff\n      and\n      0xffffffffffffffffffffffffffffffffffffffff\n      and\n      0xffffffffffffffffffffffffffffffffffffffff\n      and\n      dup2\n      mstore\n      0x20\n      add\n      0x03\n      dup3\n      add\n      0x14\n      swap1\n      sload\n      swap1\n      0x0100\n      exp\n      swap1\n      div\n      0xff\n      and\n      iszero\n      iszero\n      iszero\n      iszero\n      dup2\n      mstore\n      0x20\n      add\n      0x04\n      dup3\n      add\n      dup1\n      sload\n      dup1\n      0x20\n      mul\n      0x20\n      add\n      mload(0x40)\n      swap1\n      dup2\n      add\n      0x40\n      mstore\n      dup1\n      swap3\n      swap2\n      swap1\n      dup2\n      dup2\n      mstore\n      0x20\n      add\n      dup3\n      dup1\n      sload\n      dup1\n      iszero\n      tag_344\n      jumpi\n      0x20\n      mul\n      dup3\n      add\n      swap2\n      swap1\n      0x00\n      mstore\n      keccak256(0x00, 0x20)\n      swap1\n    tag_345:\n      dup2\n      sload\n      dup2\n      mstore\n      0x20\n      add\n      swap1\n      0x01\n      add\n      swap1\n      dup1\n      dup4\n      gt\n      tag_345\n      jumpi\n    tag_344:\n      pop\n      pop\n      pop\n      pop\n      pop\n      dup2\n      mstore\n      pop\n      pop\n        /* \"EHealth.sol\":9484:9487  ret */\n      dup3\n        /* \"EHealth.sol\":9488:9489  i */\n      dup3\n        /* \"EHealth.sol\":9484:9490  ret[i] */\n      dup2\n      mload\n      dup2\n      lt\n      tag_346\n      jumpi\n      invalid\n    tag_346:\n      0x20\n      mul\n      0x20\n      add\n      add\n        /* \"EHealth.sol\":9484:9507  ret[i]=sensorsDoctor[i] */\n      dup2\n      swap1\n      mstore\n      pop\n        /* \"EHealth.sol\":9424:9522  if(_idDoctor == sensorsDoctor[i].idDoctor){... */\n    tag_335:\n        /* \"EHealth.sol\":9405:9408  i++ */\n      dup1\n      dup1\n      0x01\n      add\n      swap2\n      pop\n      pop\n        /* \"EHealth.sol\":9363:9532  for (uint i = 0; i< sensorsDoctor.length; i++) {... */\n      jump(tag_330)\n    tag_331:\n      pop\n        /* \"EHealth.sol\":9548:9551  ret */\n      dup1\n        /* \"EHealth.sol\":9541:9551  return ret */\n      swap5\n      pop\n      pop\n        /* \"EHealth.sol\":9151:9558  function getAllSensorOfDoctor (address _idDoctor) ... */\n      pop\n      pop\n      pop\n      swap2\n      swap1\n      pop\n      jump\t// out\n        /* \"EHealth.sol\":3839:4191  function ReadHospital(address _address) ... */\n    tag_89:\n        /* \"EHealth.sol\":3937:3950  string memory */\n      0x60\n        /* \"EHealth.sol\":3952:3965  string memory */\n      dup1\n        /* \"EHealth.sol\":3967:3980  string memory */\n      0x60\n        /* \"EHealth.sol\":3982:3986  bool */\n      0x00\n        /* \"EHealth.sol\":3903:3916  oracleAddress */\n      0x03\n      0x00\n      swap1\n      sload\n      swap1\n      0x0100\n      exp\n      swap1\n      div\n      0xffffffffffffffffffffffffffffffffffffffff\n      and\n        /* \"EHealth.sol\":3917:3922  owner */\n      0x02\n      0x00\n      swap1\n      sload\n      swap1\n      0x0100\n      exp\n      swap1\n      div\n      0xffffffffffffffffffffffffffffffffffffffff\n      and\n        /* \"EHealth.sol\":10146:10153  _oracle */\n      dup2\n        /* \"EHealth.sol\":10129:10153  oracleAddress == _oracle */\n      0xffffffffffffffffffffffffffffffffffffffff\n      and\n        /* \"EHealth.sol\":10129:10142  oracleAddress */\n      0x03\n      0x00\n      swap1\n      sload\n      swap1\n      0x0100\n      exp\n      swap1\n      div\n      0xffffffffffffffffffffffffffffffffffffffff\n      and\n        /* \"EHealth.sol\":10129:10153  oracleAddress == _oracle */\n      0xffffffffffffffffffffffffffffffffffffffff\n      and\n      eq\n        /* \"EHealth.sol\":10128:10175  (oracleAddress == _oracle) || (owner == _owner) */\n      dup1\n      tag_348\n      jumpi\n      pop\n        /* \"EHealth.sol\":10168:10174  _owner */\n      dup1\n        /* \"EHealth.sol\":10159:10174  owner == _owner */\n      0xffffffffffffffffffffffffffffffffffffffff\n      and\n        /* \"EHealth.sol\":10159:10164  owner */\n      0x02\n      0x00\n      swap1\n      sload\n      swap1\n      0x0100\n      exp\n      swap1\n      div\n      0xffffffffffffffffffffffffffffffffffffffff\n      and\n        /* \"EHealth.sol\":10159:10174  owner == _owner */\n      0xffffffffffffffffffffffffffffffffffffffff\n      and\n      eq\n        /* \"EHealth.sol\":10128:10175  (oracleAddress == _oracle) || (owner == _owner) */\n    tag_348:\n        /* \"EHealth.sol\":10120:10202  require((oracleAddress == _oracle) || (owner == _owner), ... */\n      tag_349\n      jumpi\n      mload(0x40)\n      0x08c379a000000000000000000000000000000000000000000000000000000000\n      dup2\n      mstore\n      0x04\n      add\n      tag_350\n      swap1\n      tag_149\n      jump\t// in\n    tag_350:\n      mload(0x40)\n      dup1\n      swap2\n      sub\n      swap1\n      revert\n    tag_349:\n        /* \"EHealth.sol\":3997:4007  uint index */\n      0x00\n        /* \"EHealth.sol\":4010:4032  FindHospital(_address) */\n      tag_352\n        /* \"EHealth.sol\":4023:4031  _address */\n      dup9\n        /* \"EHealth.sol\":4010:4022  FindHospital */\n      tag_199\n        /* \"EHealth.sol\":4010:4032  FindHospital(_address) */\n      jump\t// in\n    tag_352:\n        /* \"EHealth.sol\":3997:4032  uint index = FindHospital(_address) */\n      swap1\n      pop\n        /* \"EHealth.sol\":4050:4065  hospitalCenters */\n      0x05\n        /* \"EHealth.sol\":4066:4071  index */\n      dup2\n        /* \"EHealth.sol\":4050:4072  hospitalCenters[index] */\n      dup2\n      sload\n      dup2\n      lt\n      tag_353\n      jumpi\n      invalid\n    tag_353:\n      swap1\n      0x00\n      mstore\n      keccak256(0x00, 0x20)\n      swap1\n      0x05\n      mul\n      add\n        /* \"EHealth.sol\":4050:4077  hospitalCenters[index].name */\n      0x01\n      add\n        /* \"EHealth.sol\":4078:4093  hospitalCenters */\n      0x05\n        /* \"EHealth.sol\":4094:4099  index */\n      dup3\n        /* \"EHealth.sol\":4078:4100  hospitalCenters[index] */\n      dup2\n      sload\n      dup2\n      lt\n      tag_355\n      jumpi\n      invalid\n    tag_355:\n      swap1\n      0x00\n      mstore\n      keccak256(0x00, 0x20)\n      swap1\n      0x05\n      mul\n      add\n        /* \"EHealth.sol\":4078:4106  hospitalCenters[index].state */\n      0x02\n      add\n        /* \"EHealth.sol\":4116:4131  hospitalCenters */\n      0x05\n        /* \"EHealth.sol\":4132:4137  index */\n      dup4\n        /* \"EHealth.sol\":4116:4138  hospitalCenters[index] */\n      dup2\n      sload\n      dup2\n      lt\n      tag_357\n      jumpi\n      invalid\n    tag_357:\n      swap1\n      0x00\n      mstore\n      keccak256(0x00, 0x20)\n      swap1\n      0x05\n      mul\n      add\n        /* \"EHealth.sol\":4116:4149  hospitalCenters[index].postalCode */\n      0x03\n      add\n        /* \"EHealth.sol\":4150:4165  hospitalCenters */\n      0x05\n        /* \"EHealth.sol\":4166:4171  index */\n      dup5\n        /* \"EHealth.sol\":4150:4172  hospitalCenters[index] */\n      dup2\n      sload\n      dup2\n      lt\n      tag_359\n      jumpi\n      invalid\n    tag_359:\n      swap1\n      0x00\n      mstore\n      keccak256(0x00, 0x20)\n      swap1\n      0x05\n      mul\n      add\n        /* \"EHealth.sol\":4150:4183  hospitalCenters[index].permission */\n      0x04\n      add\n      0x00\n      swap1\n      sload\n      swap1\n      0x0100\n      exp\n      swap1\n      div\n      0xff\n      and\n        /* \"EHealth.sol\":4042:4184  return (hospitalCenters[index].name,hospitalCenters[index].state,... */\n      dup4\n      dup1\n      sload\n      0x01\n      dup2\n      0x01\n      and\n      iszero\n      0x0100\n      mul\n      sub\n      and\n      0x02\n      swap1\n      div\n      dup1\n      0x1f\n      add\n      0x20\n      dup1\n      swap2\n      div\n      mul\n      0x20\n      add\n      mload(0x40)\n      swap1\n      dup2\n      add\n      0x40\n      mstore\n      dup1\n      swap3\n      swap2\n      swap1\n      dup2\n      dup2\n      mstore\n      0x20\n      add\n      dup3\n      dup1\n      sload\n      0x01\n      dup2\n      0x01\n      and\n      iszero\n      0x0100\n      mul\n      sub\n      and\n      0x02\n      swap1\n      div\n      dup1\n      iszero\n      tag_361\n      jumpi\n      dup1\n      0x1f\n      lt\n      tag_362\n      jumpi\n      0x0100\n      dup1\n      dup4\n      sload\n      div\n      mul\n      dup4\n      mstore\n      swap2\n      0x20\n      add\n      swap2\n      jump(tag_361)\n    tag_362:\n      dup3\n      add\n      swap2\n      swap1\n      0x00\n      mstore\n      keccak256(0x00, 0x20)\n      swap1\n    tag_363:\n      dup2\n      sload\n      dup2\n      mstore\n      swap1\n      0x01\n      add\n      swap1\n      0x20\n      add\n      dup1\n      dup4\n      gt\n      tag_363\n      jumpi\n      dup3\n      swap1\n      sub\n      0x1f\n      and\n      dup3\n      add\n      swap2\n    tag_361:\n      pop\n      pop\n      pop\n      pop\n      pop\n      swap4\n      pop\n      dup3\n      dup1\n      sload\n      0x01\n      dup2\n      0x01\n      and\n      iszero\n      0x0100\n      mul\n      sub\n      and\n      0x02\n      swap1\n      div\n      dup1\n      0x1f\n      add\n      0x20\n      dup1\n      swap2\n      div\n      mul\n      0x20\n      add\n      mload(0x40)\n      swap1\n      dup2\n      add\n      0x40\n      mstore\n      dup1\n      swap3\n      swap2\n      swap1\n      dup2\n      dup2\n      mstore\n      0x20\n      add\n      dup3\n      dup1\n      sload\n      0x01\n      dup2\n      0x01\n      and\n      iszero\n      0x0100\n      mul\n      sub\n      and\n      0x02\n      swap1\n      div\n      dup1\n      iszero\n      tag_364\n      jumpi\n      dup1\n      0x1f\n      lt\n      tag_365\n      jumpi\n      0x0100\n      dup1\n      dup4\n      sload\n      div\n      mul\n      dup4\n      mstore\n      swap2\n      0x20\n      add\n      swap2\n      jump(tag_364)\n    tag_365:\n      dup3\n      add\n      swap2\n      swap1\n      0x00\n      mstore\n      keccak256(0x00, 0x20)\n      swap1\n    tag_366:\n      dup2\n      sload\n      dup2\n      mstore\n      swap1\n      0x01\n      add\n      swap1\n      0x20\n      add\n      dup1\n      dup4\n      gt\n      tag_366\n      jumpi\n      dup3\n      swap1\n      sub\n      0x1f\n      and\n      dup3\n      add\n      swap2\n    tag_364:\n      pop\n      pop\n      pop\n      pop\n      pop\n      swap3\n      pop\n      dup2\n      dup1\n      sload\n      0x01\n      dup2\n      0x01\n      and\n      iszero\n      0x0100\n      mul\n      sub\n      and\n      0x02\n      swap1\n      div\n      dup1\n      0x1f\n      add\n      0x20\n      dup1\n      swap2\n      div\n      mul\n      0x20\n      add\n      mload(0x40)\n      swap1\n      dup2\n      add\n      0x40\n      mstore\n      dup1\n      swap3\n      swap2\n      swap1\n      dup2\n      dup2\n      mstore\n      0x20\n      add\n      dup3\n      dup1\n      sload\n      0x01\n      dup2\n      0x01\n      and\n      iszero\n      0x0100\n      mul\n      sub\n      and\n      0x02\n      swap1\n      div\n      dup1\n      iszero\n      tag_367\n      jumpi\n      dup1\n      0x1f\n      lt\n      tag_368\n      jumpi\n      0x0100\n      dup1\n      dup4\n      sload\n      div\n      mul\n      dup4\n      mstore\n      swap2\n      0x20\n      add\n      swap2\n      jump(tag_367)\n    tag_368:\n      dup3\n      add\n      swap2\n      swap1\n      0x00\n      mstore\n      keccak256(0x00, 0x20)\n      swap1\n    tag_369:\n      dup2\n      sload\n      dup2\n      mstore\n      swap1\n      0x01\n      add\n      swap1\n      0x20\n      add\n      dup1\n      dup4\n      gt\n      tag_369\n      jumpi\n      dup3\n      swap1\n      sub\n      0x1f\n      and\n      dup3\n      add\n      swap2\n    tag_367:\n      pop\n      pop\n      pop\n      pop\n      pop\n      swap2\n      pop\n      swap7\n      pop\n      swap7\n      pop\n      swap7\n      pop\n      swap7\n      pop\n      pop\n        /* \"EHealth.sol\":3839:4191  function ReadHospital(address _address) ... */\n      pop\n      pop\n      swap2\n      swap4\n      pop\n      swap2\n      swap4\n      jump\t// out\n        /* \"EHealth.sol\":4959:5194  function RemoveDoctor(address _id) ... */\n    tag_94:\n        /* \"EHealth.sol\":5018:5031  oracleAddress */\n      0x03\n      0x00\n      swap1\n      sload\n      swap1\n      0x0100\n      exp\n      swap1\n      div\n      0xffffffffffffffffffffffffffffffffffffffff\n      and\n        /* \"EHealth.sol\":5032:5037  owner */\n      0x02\n      0x00\n      swap1\n      sload\n      swap1\n      0x0100\n      exp\n      swap1\n      div\n      0xffffffffffffffffffffffffffffffffffffffff\n      and\n        /* \"EHealth.sol\":10146:10153  _oracle */\n      dup2\n        /* \"EHealth.sol\":10129:10153  oracleAddress == _oracle */\n      0xffffffffffffffffffffffffffffffffffffffff\n      and\n        /* \"EHealth.sol\":10129:10142  oracleAddress */\n      0x03\n      0x00\n      swap1\n      sload\n      swap1\n      0x0100\n      exp\n      swap1\n      div\n      0xffffffffffffffffffffffffffffffffffffffff\n      and\n        /* \"EHealth.sol\":10129:10153  oracleAddress == _oracle */\n      0xffffffffffffffffffffffffffffffffffffffff\n      and\n      eq\n        /* \"EHealth.sol\":10128:10175  (oracleAddress == _oracle) || (owner == _owner) */\n      dup1\n      tag_371\n      jumpi\n      pop\n        /* \"EHealth.sol\":10168:10174  _owner */\n      dup1\n        /* \"EHealth.sol\":10159:10174  owner == _owner */\n      0xffffffffffffffffffffffffffffffffffffffff\n      and\n        /* \"EHealth.sol\":10159:10164  owner */\n      0x02\n      0x00\n      swap1\n      sload\n      swap1\n      0x0100\n      exp\n      swap1\n      div\n      0xffffffffffffffffffffffffffffffffffffffff\n      and\n        /* \"EHealth.sol\":10159:10174  owner == _owner */\n      0xffffffffffffffffffffffffffffffffffffffff\n      and\n      eq\n        /* \"EHealth.sol\":10128:10175  (oracleAddress == _oracle) || (owner == _owner) */\n    tag_371:\n        /* \"EHealth.sol\":10120:10202  require((oracleAddress == _oracle) || (owner == _owner), ... */\n      tag_372\n      jumpi\n      mload(0x40)\n      0x08c379a000000000000000000000000000000000000000000000000000000000\n      dup2\n      mstore\n      0x04\n      add\n      tag_373\n      swap1\n      tag_149\n      jump\t// in\n    tag_373:\n      mload(0x40)\n      dup1\n      swap2\n      sub\n      swap1\n      revert\n    tag_372:\n        /* \"EHealth.sol\":5048:5058  uint index */\n      0x00\n        /* \"EHealth.sol\":5061:5076  FindDoctor(_id) */\n      tag_375\n        /* \"EHealth.sol\":5072:5075  _id */\n      dup5\n        /* \"EHealth.sol\":5061:5071  FindDoctor */\n      tag_169\n        /* \"EHealth.sol\":5061:5076  FindDoctor(_id) */\n      jump\t// in\n    tag_375:\n        /* \"EHealth.sol\":5048:5076  uint index = FindDoctor(_id) */\n      swap1\n      pop\n        /* \"EHealth.sol\":5120:5125  false */\n      0x00\n        /* \"EHealth.sol\":5086:5101  doctorsHospital */\n      0x07\n        /* \"EHealth.sol\":5102:5107  index */\n      dup3\n        /* \"EHealth.sol\":5086:5108  doctorsHospital[index] */\n      dup2\n      sload\n      dup2\n      lt\n      tag_376\n      jumpi\n      invalid\n    tag_376:\n      swap1\n      0x00\n      mstore\n      keccak256(0x00, 0x20)\n      swap1\n      0x03\n      mul\n      add\n        /* \"EHealth.sol\":5086:5119  doctorsHospital[index].permission */\n      0x02\n      add\n      0x14\n        /* \"EHealth.sol\":5086:5125  doctorsHospital[index].permission=false */\n      0x0100\n      exp\n      dup2\n      sload\n      dup2\n      0xff\n      mul\n      not\n      and\n      swap1\n      dup4\n      iszero\n      iszero\n      mul\n      or\n      swap1\n      sstore\n      pop\n        /* \"EHealth.sol\":5140:5187  DeleteDoctor(doctorsHospital[index].permission) */\n      0x1909dc80d38cec2305bb06a97fde80daf0763d013f86fbcee9e1954812fb6170\n        /* \"EHealth.sol\":5153:5168  doctorsHospital */\n      0x07\n        /* \"EHealth.sol\":5169:5174  index */\n      dup3\n        /* \"EHealth.sol\":5153:5175  doctorsHospital[index] */\n      dup2\n      sload\n      dup2\n      lt\n      tag_378\n      jumpi\n      invalid\n    tag_378:\n      swap1\n      0x00\n      mstore\n      keccak256(0x00, 0x20)\n      swap1\n      0x03\n      mul\n      add\n        /* \"EHealth.sol\":5153:5186  doctorsHospital[index].permission */\n      0x02\n      add\n      0x14\n      swap1\n      sload\n      swap1\n      0x0100\n      exp\n      swap1\n      div\n      0xff\n      and\n        /* \"EHealth.sol\":5140:5187  DeleteDoctor(doctorsHospital[index].permission) */\n      mload(0x40)\n      tag_380\n      swap2\n      swap1\n      tag_205\n      jump\t// in\n    tag_380:\n      mload(0x40)\n      dup1\n      swap2\n      sub\n      swap1\n      log1\n        /* \"EHealth.sol\":10212:10213  _ */\n      pop\n        /* \"EHealth.sol\":4959:5194  function RemoveDoctor(address _id) ... */\n      pop\n      pop\n      pop\n      jump\t// out\n        /* \"EHealth.sol\":389:433  mapping(address=> Hospital) public Hospitals */\n    tag_97:\n      mstore(0x20, 0x04)\n      dup1\n      0x00\n      mstore\n      keccak256(0x00, 0x40)\n      0x00\n      swap2\n      pop\n      swap1\n      pop\n      dup1\n      0x00\n      add\n      0x00\n      swap1\n      sload\n      swap1\n      0x0100\n      exp\n      swap1\n      div\n      0xffffffffffffffffffffffffffffffffffffffff\n      and\n      swap1\n      dup1\n      0x01\n      add\n      dup1\n      sload\n      0x01\n      dup2\n      0x01\n      and\n      iszero\n      0x0100\n      mul\n      sub\n      and\n      0x02\n      swap1\n      div\n      dup1\n      0x1f\n      add\n      0x20\n      dup1\n      swap2\n      div\n      mul\n      0x20\n      add\n      mload(0x40)\n      swap1\n      dup2\n      add\n      0x40\n      mstore\n      dup1\n      swap3\n      swap2\n      swap1\n      dup2\n      dup2\n      mstore\n      0x20\n      add\n      dup3\n      dup1\n      sload\n      0x01\n      dup2\n      0x01\n      and\n      iszero\n      0x0100\n      mul\n      sub\n      and\n      0x02\n      swap1\n      div\n      dup1\n      iszero\n      tag_381\n      jumpi\n      dup1\n      0x1f\n      lt\n      tag_382\n      jumpi\n      0x0100\n      dup1\n      dup4\n      sload\n      div\n      mul\n      dup4\n      mstore\n      swap2\n      0x20\n      add\n      swap2\n      jump(tag_381)\n    tag_382:\n      dup3\n      add\n      swap2\n      swap1\n      0x00\n      mstore\n      keccak256(0x00, 0x20)\n      swap1\n    tag_383:\n      dup2\n      sload\n      dup2\n      mstore\n      swap1\n      0x01\n      add\n      swap1\n      0x20\n      add\n      dup1\n      dup4\n      gt\n      tag_383\n      jumpi\n      dup3\n      swap1\n      sub\n      0x1f\n      and\n      dup3\n      add\n      swap2\n    tag_381:\n      pop\n      pop\n      pop\n      pop\n      pop\n      swap1\n      dup1\n      0x02\n      add\n      dup1\n      sload\n      0x01\n      dup2\n      0x01\n      and\n      iszero\n      0x0100\n      mul\n      sub\n      and\n      0x02\n      swap1\n      div\n      dup1\n      0x1f\n      add\n      0x20\n      dup1\n      swap2\n      div\n      mul\n      0x20\n      add\n      mload(0x40)\n      swap1\n      dup2\n      add\n      0x40\n      mstore\n      dup1\n      swap3\n      swap2\n      swap1\n      dup2\n      dup2\n      mstore\n      0x20\n      add\n      dup3\n      dup1\n      sload\n      0x01\n      dup2\n      0x01\n      and\n      iszero\n      0x0100\n      mul\n      sub\n      and\n      0x02\n      swap1\n      div\n      dup1\n      iszero\n      tag_384\n      jumpi\n      dup1\n      0x1f\n      lt\n      tag_385\n      jumpi\n      0x0100\n      dup1\n      dup4\n      sload\n      div\n      mul\n      dup4\n      mstore\n      swap2\n      0x20\n      add\n      swap2\n      jump(tag_384)\n    tag_385:\n      dup3\n      add\n      swap2\n      swap1\n      0x00\n      mstore\n      keccak256(0x00, 0x20)\n      swap1\n    tag_386:\n      dup2\n      sload\n      dup2\n      mstore\n      swap1\n      0x01\n      add\n      swap1\n      0x20\n      add\n      dup1\n      dup4\n      gt\n      tag_386\n      jumpi\n      dup3\n      swap1\n      sub\n      0x1f\n      and\n      dup3\n      add\n      swap2\n    tag_384:\n      pop\n      pop\n      pop\n      pop\n      pop\n      swap1\n      dup1\n      0x03\n      add\n      dup1\n      sload\n      0x01\n      dup2\n      0x01\n      and\n      iszero\n      0x0100\n      mul\n      sub\n      and\n      0x02\n      swap1\n      div\n      dup1\n      0x1f\n      add\n      0x20\n      dup1\n      swap2\n      div\n      mul\n      0x20\n      add\n      mload(0x40)\n      swap1\n      dup2\n      add\n      0x40\n      mstore\n      dup1\n      swap3\n      swap2\n      swap1\n      dup2\n      dup2\n      mstore\n      0x20\n      add\n      dup3\n      dup1\n      sload\n      0x01\n      dup2\n      0x01\n      and\n      iszero\n      0x0100\n      mul\n      sub\n      and\n      0x02\n      swap1\n      div\n      dup1\n      iszero\n      tag_387\n      jumpi\n      dup1\n      0x1f\n      lt\n      tag_388\n      jumpi\n      0x0100\n      dup1\n      dup4\n      sload\n      div\n      mul\n      dup4\n      mstore\n      swap2\n      0x20\n      add\n      swap2\n      jump(tag_387)\n    tag_388:\n      dup3\n      add\n      swap2\n      swap1\n      0x00\n      mstore\n      keccak256(0x00, 0x20)\n      swap1\n    tag_389:\n      dup2\n      sload\n      dup2\n      mstore\n      swap1\n      0x01\n      add\n      swap1\n      0x20\n      add\n      dup1\n      dup4\n      gt\n      tag_389\n      jumpi\n      dup3\n      swap1\n      sub\n      0x1f\n      and\n      dup3\n      add\n      swap2\n    tag_387:\n      pop\n      pop\n      pop\n      pop\n      pop\n      swap1\n      dup1\n      0x04\n      add\n      0x00\n      swap1\n      sload\n      swap1\n      0x0100\n      exp\n      swap1\n      div\n      0xff\n      and\n      swap1\n      pop\n      dup6\n      jump\t// out\n        /* \"EHealth.sol\":2938:3601  function UpdateHospital(address _address, string memory _name, string memory _state, string memory _postalCode, bool _permission ) ... */\n    tag_103:\n        /* \"EHealth.sol\":3093:3106  oracleAddress */\n      0x03\n      0x00\n      swap1\n      sload\n      swap1\n      0x0100\n      exp\n      swap1\n      div\n      0xffffffffffffffffffffffffffffffffffffffff\n      and\n        /* \"EHealth.sol\":3107:3112  owner */\n      0x02\n      0x00\n      swap1\n      sload\n      swap1\n      0x0100\n      exp\n      swap1\n      div\n      0xffffffffffffffffffffffffffffffffffffffff\n      and\n        /* \"EHealth.sol\":10146:10153  _oracle */\n      dup2\n        /* \"EHealth.sol\":10129:10153  oracleAddress == _oracle */\n      0xffffffffffffffffffffffffffffffffffffffff\n      and\n        /* \"EHealth.sol\":10129:10142  oracleAddress */\n      0x03\n      0x00\n      swap1\n      sload\n      swap1\n      0x0100\n      exp\n      swap1\n      div\n      0xffffffffffffffffffffffffffffffffffffffff\n      and\n        /* \"EHealth.sol\":10129:10153  oracleAddress == _oracle */\n      0xffffffffffffffffffffffffffffffffffffffff\n      and\n      eq\n        /* \"EHealth.sol\":10128:10175  (oracleAddress == _oracle) || (owner == _owner) */\n      dup1\n      tag_391\n      jumpi\n      pop\n        /* \"EHealth.sol\":10168:10174  _owner */\n      dup1\n        /* \"EHealth.sol\":10159:10174  owner == _owner */\n      0xffffffffffffffffffffffffffffffffffffffff\n      and\n        /* \"EHealth.sol\":10159:10164  owner */\n      0x02\n      0x00\n      swap1\n      sload\n      swap1\n      0x0100\n      exp\n      swap1\n      div\n      0xffffffffffffffffffffffffffffffffffffffff\n      and\n        /* \"EHealth.sol\":10159:10174  owner == _owner */\n      0xffffffffffffffffffffffffffffffffffffffff\n      and\n      eq\n        /* \"EHealth.sol\":10128:10175  (oracleAddress == _oracle) || (owner == _owner) */\n    tag_391:\n        /* \"EHealth.sol\":10120:10202  require((oracleAddress == _oracle) || (owner == _owner), ... */\n      tag_392\n      jumpi\n      mload(0x40)\n      0x08c379a000000000000000000000000000000000000000000000000000000000\n      dup2\n      mstore\n      0x04\n      add\n      tag_393\n      swap1\n      tag_149\n      jump\t// in\n    tag_393:\n      mload(0x40)\n      dup1\n      swap2\n      sub\n      swap1\n      revert\n    tag_392:\n        /* \"EHealth.sol\":3123:3133  uint index */\n      0x00\n        /* \"EHealth.sol\":3136:3158  FindHospital(_address) */\n      tag_395\n        /* \"EHealth.sol\":3149:3157  _address */\n      dup9\n        /* \"EHealth.sol\":3136:3148  FindHospital */\n      tag_199\n        /* \"EHealth.sol\":3136:3158  FindHospital(_address) */\n      jump\t// in\n    tag_395:\n        /* \"EHealth.sol\":3123:3158  uint index = FindHospital(_address) */\n      swap1\n      pop\n        /* \"EHealth.sol\":3196:3201  _name */\n      dup7\n        /* \"EHealth.sol\":3168:3183  hospitalCenters */\n      0x05\n        /* \"EHealth.sol\":3184:3189  index */\n      dup3\n        /* \"EHealth.sol\":3168:3190  hospitalCenters[index] */\n      dup2\n      sload\n      dup2\n      lt\n      tag_396\n      jumpi\n      invalid\n    tag_396:\n      swap1\n      0x00\n      mstore\n      keccak256(0x00, 0x20)\n      swap1\n      0x05\n      mul\n      add\n        /* \"EHealth.sol\":3168:3195  hospitalCenters[index].name */\n      0x01\n      add\n        /* \"EHealth.sol\":3168:3201  hospitalCenters[index].name=_name */\n      swap1\n      dup1\n      mload\n      swap1\n      0x20\n      add\n      swap1\n      tag_398\n      swap3\n      swap2\n      swap1\n      tag_178\n      jump\t// in\n    tag_398:\n      pop\n        /* \"EHealth.sol\":3240:3246  _state */\n      dup6\n        /* \"EHealth.sol\":3211:3226  hospitalCenters */\n      0x05\n        /* \"EHealth.sol\":3227:3232  index */\n      dup3\n        /* \"EHealth.sol\":3211:3233  hospitalCenters[index] */\n      dup2\n      sload\n      dup2\n      lt\n      tag_399\n      jumpi\n      invalid\n    tag_399:\n      swap1\n      0x00\n      mstore\n      keccak256(0x00, 0x20)\n      swap1\n      0x05\n      mul\n      add\n        /* \"EHealth.sol\":3211:3239  hospitalCenters[index].state */\n      0x02\n      add\n        /* \"EHealth.sol\":3211:3246  hospitalCenters[index].state=_state */\n      swap1\n      dup1\n      mload\n      swap1\n      0x20\n      add\n      swap1\n      tag_401\n      swap3\n      swap2\n      swap1\n      tag_178\n      jump\t// in\n    tag_401:\n      pop\n        /* \"EHealth.sol\":3290:3301  _postalCode */\n      dup5\n        /* \"EHealth.sol\":3256:3271  hospitalCenters */\n      0x05\n        /* \"EHealth.sol\":3272:3277  index */\n      dup3\n        /* \"EHealth.sol\":3256:3278  hospitalCenters[index] */\n      dup2\n      sload\n      dup2\n      lt\n      tag_402\n      jumpi\n      invalid\n    tag_402:\n      swap1\n      0x00\n      mstore\n      keccak256(0x00, 0x20)\n      swap1\n      0x05\n      mul\n      add\n        /* \"EHealth.sol\":3256:3289  hospitalCenters[index].postalCode */\n      0x03\n      add\n        /* \"EHealth.sol\":3256:3301  hospitalCenters[index].postalCode=_postalCode */\n      swap1\n      dup1\n      mload\n      swap1\n      0x20\n      add\n      swap1\n      tag_404\n      swap3\n      swap2\n      swap1\n      tag_178\n      jump\t// in\n    tag_404:\n      pop\n        /* \"EHealth.sol\":3345:3356  _permission */\n      dup4\n        /* \"EHealth.sol\":3311:3326  hospitalCenters */\n      0x05\n        /* \"EHealth.sol\":3327:3332  index */\n      dup3\n        /* \"EHealth.sol\":3311:3333  hospitalCenters[index] */\n      dup2\n      sload\n      dup2\n      lt\n      tag_405\n      jumpi\n      invalid\n    tag_405:\n      swap1\n      0x00\n      mstore\n      keccak256(0x00, 0x20)\n      swap1\n      0x05\n      mul\n      add\n        /* \"EHealth.sol\":3311:3344  hospitalCenters[index].permission */\n      0x04\n      add\n      0x00\n        /* \"EHealth.sol\":3311:3356  hospitalCenters[index].permission=_permission */\n      0x0100\n      exp\n      dup2\n      sload\n      dup2\n      0xff\n      mul\n      not\n      and\n      swap1\n      dup4\n      iszero\n      iszero\n      mul\n      or\n      swap1\n      sstore\n      pop\n        /* \"EHealth.sol\":3371:3594  RefreshHospital(hospitalCenters[index].idHospital, ... */\n      0x3d82d4e7ec0cefe7b5122162926d868862a9400d5385fb1f35e42902d793471f\n        /* \"EHealth.sol\":3387:3402  hospitalCenters */\n      0x05\n        /* \"EHealth.sol\":3403:3408  index */\n      dup3\n        /* \"EHealth.sol\":3387:3409  hospitalCenters[index] */\n      dup2\n      sload\n      dup2\n      lt\n      tag_407\n      jumpi\n      invalid\n    tag_407:\n      swap1\n      0x00\n      mstore\n      keccak256(0x00, 0x20)\n      swap1\n      0x05\n      mul\n      add\n        /* \"EHealth.sol\":3387:3420  hospitalCenters[index].idHospital */\n      0x00\n      add\n      0x00\n      swap1\n      sload\n      swap1\n      0x0100\n      exp\n      swap1\n      div\n      0xffffffffffffffffffffffffffffffffffffffff\n      and\n        /* \"EHealth.sol\":3431:3446  hospitalCenters */\n      0x05\n        /* \"EHealth.sol\":3447:3452  index */\n      dup4\n        /* \"EHealth.sol\":3431:3453  hospitalCenters[index] */\n      dup2\n      sload\n      dup2\n      lt\n      tag_409\n      jumpi\n      invalid\n    tag_409:\n      swap1\n      0x00\n      mstore\n      keccak256(0x00, 0x20)\n      swap1\n      0x05\n      mul\n      add\n        /* \"EHealth.sol\":3431:3458  hospitalCenters[index].name */\n      0x01\n      add\n        /* \"EHealth.sol\":3469:3484  hospitalCenters */\n      0x05\n        /* \"EHealth.sol\":3485:3490  index */\n      dup5\n        /* \"EHealth.sol\":3469:3491  hospitalCenters[index] */\n      dup2\n      sload\n      dup2\n      lt\n      tag_411\n      jumpi\n      invalid\n    tag_411:\n      swap1\n      0x00\n      mstore\n      keccak256(0x00, 0x20)\n      swap1\n      0x05\n      mul\n      add\n        /* \"EHealth.sol\":3469:3497  hospitalCenters[index].state */\n      0x02\n      add\n        /* \"EHealth.sol\":3508:3523  hospitalCenters */\n      0x05\n        /* \"EHealth.sol\":3524:3529  index */\n      dup6\n        /* \"EHealth.sol\":3508:3530  hospitalCenters[index] */\n      dup2\n      sload\n      dup2\n      lt\n      tag_413\n      jumpi\n      invalid\n    tag_413:\n      swap1\n      0x00\n      mstore\n      keccak256(0x00, 0x20)\n      swap1\n      0x05\n      mul\n      add\n        /* \"EHealth.sol\":3508:3541  hospitalCenters[index].postalCode */\n      0x03\n      add\n        /* \"EHealth.sol\":3551:3566  hospitalCenters */\n      0x05\n        /* \"EHealth.sol\":3567:3572  index */\n      dup7\n        /* \"EHealth.sol\":3551:3573  hospitalCenters[index] */\n      dup2\n      sload\n      dup2\n      lt\n      tag_415\n      jumpi\n      invalid\n    tag_415:\n      swap1\n      0x00\n      mstore\n      keccak256(0x00, 0x20)\n      swap1\n      0x05\n      mul\n      add\n        /* \"EHealth.sol\":3551:3584  hospitalCenters[index].permission */\n      0x04\n      add\n      0x00\n      swap1\n      sload\n      swap1\n      0x0100\n      exp\n      swap1\n      div\n      0xff\n      and\n        /* \"EHealth.sol\":3371:3594  RefreshHospital(hospitalCenters[index].idHospital, ... */\n      mload(0x40)\n      tag_417\n      swap6\n      swap5\n      swap4\n      swap3\n      swap2\n      swap1\n      tag_418\n      jump\t// in\n    tag_417:\n      mload(0x40)\n      dup1\n      swap2\n      sub\n      swap1\n      log1\n        /* \"EHealth.sol\":10212:10213  _ */\n      pop\n        /* \"EHealth.sol\":2938:3601  function UpdateHospital(address _address, string memory _name, string memory _state, string memory _postalCode, bool _permission ) ... */\n      pop\n      pop\n      pop\n      pop\n      pop\n      pop\n      pop\n      jump\t// out\n        /* \"EHealth.sol\":1997:2321  function AddHospital(address _idHospital, string memory _name, string memory _state, string memory _postalCode ) ... */\n    tag_107:\n        /* \"EHealth.sol\":2134:2147  oracleAddress */\n      0x03\n      0x00\n      swap1\n      sload\n      swap1\n      0x0100\n      exp\n      swap1\n      div\n      0xffffffffffffffffffffffffffffffffffffffff\n      and\n        /* \"EHealth.sol\":2148:2153  owner */\n      0x02\n      0x00\n      swap1\n      sload\n      swap1\n      0x0100\n      exp\n      swap1\n      div\n      0xffffffffffffffffffffffffffffffffffffffff\n      and\n        /* \"EHealth.sol\":10146:10153  _oracle */\n      dup2\n        /* \"EHealth.sol\":10129:10153  oracleAddress == _oracle */\n      0xffffffffffffffffffffffffffffffffffffffff\n      and\n        /* \"EHealth.sol\":10129:10142  oracleAddress */\n      0x03\n      0x00\n      swap1\n      sload\n      swap1\n      0x0100\n      exp\n      swap1\n      div\n      0xffffffffffffffffffffffffffffffffffffffff\n      and\n        /* \"EHealth.sol\":10129:10153  oracleAddress == _oracle */\n      0xffffffffffffffffffffffffffffffffffffffff\n      and\n      eq\n        /* \"EHealth.sol\":10128:10175  (oracleAddress == _oracle) || (owner == _owner) */\n      dup1\n      tag_420\n      jumpi\n      pop\n        /* \"EHealth.sol\":10168:10174  _owner */\n      dup1\n        /* \"EHealth.sol\":10159:10174  owner == _owner */\n      0xffffffffffffffffffffffffffffffffffffffff\n      and\n        /* \"EHealth.sol\":10159:10164  owner */\n      0x02\n      0x00\n      swap1\n      sload\n      swap1\n      0x0100\n      exp\n      swap1\n      div\n      0xffffffffffffffffffffffffffffffffffffffff\n      and\n        /* \"EHealth.sol\":10159:10174  owner == _owner */\n      0xffffffffffffffffffffffffffffffffffffffff\n      and\n      eq\n        /* \"EHealth.sol\":10128:10175  (oracleAddress == _oracle) || (owner == _owner) */\n    tag_420:\n        /* \"EHealth.sol\":10120:10202  require((oracleAddress == _oracle) || (owner == _owner), ... */\n      tag_421\n      jumpi\n      mload(0x40)\n      0x08c379a000000000000000000000000000000000000000000000000000000000\n      dup2\n      mstore\n      0x04\n      add\n      tag_422\n      swap1\n      tag_149\n      jump\t// in\n    tag_422:\n      mload(0x40)\n      dup1\n      swap2\n      sub\n      swap1\n      revert\n    tag_421:\n        /* \"EHealth.sol\":2164:2179  hospitalCenters */\n      0x05\n        /* \"EHealth.sol\":2185:2240  Hospital(_idHospital, _name, _state, _postalCode, true) */\n      mload(0x40)\n      dup1\n      0xa0\n      add\n      0x40\n      mstore\n      dup1\n        /* \"EHealth.sol\":2194:2205  _idHospital */\n      dup9\n        /* \"EHealth.sol\":2185:2240  Hospital(_idHospital, _name, _state, _postalCode, true) */\n      0xffffffffffffffffffffffffffffffffffffffff\n      and\n      dup2\n      mstore\n      0x20\n      add\n        /* \"EHealth.sol\":2207:2212  _name */\n      dup8\n        /* \"EHealth.sol\":2185:2240  Hospital(_idHospital, _name, _state, _postalCode, true) */\n      dup2\n      mstore\n      0x20\n      add\n        /* \"EHealth.sol\":2214:2220  _state */\n      dup7\n        /* \"EHealth.sol\":2185:2240  Hospital(_idHospital, _name, _state, _postalCode, true) */\n      dup2\n      mstore\n      0x20\n      add\n        /* \"EHealth.sol\":2222:2233  _postalCode */\n      dup6\n        /* \"EHealth.sol\":2185:2240  Hospital(_idHospital, _name, _state, _postalCode, true) */\n      dup2\n      mstore\n      0x20\n      add\n        /* \"EHealth.sol\":2235:2239  true */\n      0x01\n        /* \"EHealth.sol\":2185:2240  Hospital(_idHospital, _name, _state, _postalCode, true) */\n      iszero\n      iszero\n      dup2\n      mstore\n      pop\n        /* \"EHealth.sol\":2164:2241  hospitalCenters.push(Hospital(_idHospital, _name, _state, _postalCode, true)) */\n      swap1\n      dup1\n      0x01\n      dup2\n      sload\n      add\n      dup1\n      dup3\n      sstore\n      dup1\n      swap2\n      pop\n      pop\n      0x01\n      swap1\n      sub\n      swap1\n      0x00\n      mstore\n      keccak256(0x00, 0x20)\n      swap1\n      0x05\n      mul\n      add\n      0x00\n      swap1\n      swap2\n      swap1\n      swap2\n      swap1\n      swap2\n      pop\n      0x00\n      dup3\n      add\n      mload\n      dup2\n      0x00\n      add\n      exp(0x0100, 0x00)\n      dup2\n      sload\n      dup2\n      0xffffffffffffffffffffffffffffffffffffffff\n      mul\n      not\n      and\n      swap1\n      dup4\n      0xffffffffffffffffffffffffffffffffffffffff\n      and\n      mul\n      or\n      swap1\n      sstore\n      pop\n      0x20\n      dup3\n      add\n      mload\n      dup2\n      0x01\n      add\n      swap1\n      dup1\n      mload\n      swap1\n      0x20\n      add\n      swap1\n      tag_425\n      swap3\n      swap2\n      swap1\n      tag_178\n      jump\t// in\n    tag_425:\n      pop\n      0x40\n      dup3\n      add\n      mload\n      dup2\n      0x02\n      add\n      swap1\n      dup1\n      mload\n      swap1\n      0x20\n      add\n      swap1\n      tag_426\n      swap3\n      swap2\n      swap1\n      tag_178\n      jump\t// in\n    tag_426:\n      pop\n      0x60\n      dup3\n      add\n      mload\n      dup2\n      0x03\n      add\n      swap1\n      dup1\n      mload\n      swap1\n      0x20\n      add\n      swap1\n      tag_427\n      swap3\n      swap2\n      swap1\n      tag_178\n      jump\t// in\n    tag_427:\n      pop\n      0x80\n      dup3\n      add\n      mload\n      dup2\n      0x04\n      add\n      exp(0x0100, 0x00)\n      dup2\n      sload\n      dup2\n      0xff\n      mul\n      not\n      and\n      swap1\n      dup4\n      iszero\n      iszero\n      mul\n      or\n      swap1\n      sstore\n      pop\n      pop\n      pop\n        /* \"EHealth.sol\":2256:2314  NewHospital(_idHospital, _name, _state, _postalCode, true) */\n      0x9917861c3a3ecbbfc9c1c79292231a8510f14a6b5b92883b799ede7f4e3db13e\n        /* \"EHealth.sol\":2268:2279  _idHospital */\n      dup7\n        /* \"EHealth.sol\":2281:2286  _name */\n      dup7\n        /* \"EHealth.sol\":2288:2294  _state */\n      dup7\n        /* \"EHealth.sol\":2296:2307  _postalCode */\n      dup7\n        /* \"EHealth.sol\":2309:2313  true */\n      0x01\n        /* \"EHealth.sol\":2256:2314  NewHospital(_idHospital, _name, _state, _postalCode, true) */\n      mload(0x40)\n      tag_428\n      swap6\n      swap5\n      swap4\n      swap3\n      swap2\n      swap1\n      tag_99\n      jump\t// in\n    tag_428:\n      mload(0x40)\n      dup1\n      swap2\n      sub\n      swap1\n      log1\n        /* \"EHealth.sol\":1997:2321  function AddHospital(address _idHospital, string memory _name, string memory _state, string memory _postalCode ) ... */\n      pop\n      pop\n      pop\n      pop\n      pop\n      pop\n      jump\t// out\n        /* \"EHealth.sol\":293:366  address public oracleAddress = 0x4B0AF919E9D85ea5CeEbe21ee4F8E3b2A2951b15 */\n    tag_109:\n      0x03\n      0x00\n      swap1\n      sload\n      swap1\n      0x0100\n      exp\n      swap1\n      div\n      0xffffffffffffffffffffffffffffffffffffffff\n      and\n      dup2\n      jump\t// out\n        /* \"EHealth.sol\":9815:10050  function viewSensorData(uint _idSensor, address _idDoctor) ... */\n    tag_115:\n        /* \"EHealth.sol\":9943:9956  uint[] memory */\n      0x60\n        /* \"EHealth.sol\":9898:9907  _idDoctor */\n      dup2\n        /* \"EHealth.sol\":9909:9922  oracleAddress */\n      0x03\n      0x00\n      swap1\n      sload\n      swap1\n      0x0100\n      exp\n      swap1\n      div\n      0xffffffffffffffffffffffffffffffffffffffff\n      and\n        /* \"EHealth.sol\":9923:9928  owner */\n      0x02\n      0x00\n      swap1\n      sload\n      swap1\n      0x0100\n      exp\n      swap1\n      div\n      0xffffffffffffffffffffffffffffffffffffffff\n      and\n        /* \"EHealth.sol\":10339:10340  0 */\n      0x00\n        /* \"EHealth.sol\":10315:10336  FindDoctor(_idDoctor) */\n      tag_430\n        /* \"EHealth.sol\":10326:10335  _idDoctor */\n      dup5\n        /* \"EHealth.sol\":10315:10325  FindDoctor */\n      tag_169\n        /* \"EHealth.sol\":10315:10336  FindDoctor(_idDoctor) */\n      jump\t// in\n    tag_430:\n        /* \"EHealth.sol\":10315:10340  FindDoctor(_idDoctor) < 0 */\n      lt\n        /* \"EHealth.sol\":10314:10371  (FindDoctor(_idDoctor) < 0) || (oracleAddress == _oracle) */\n      dup1\n      tag_431\n      jumpi\n      pop\n        /* \"EHealth.sol\":10363:10370  _oracle */\n      dup2\n        /* \"EHealth.sol\":10346:10370  oracleAddress == _oracle */\n      0xffffffffffffffffffffffffffffffffffffffff\n      and\n        /* \"EHealth.sol\":10346:10359  oracleAddress */\n      0x03\n      0x00\n      swap1\n      sload\n      swap1\n      0x0100\n      exp\n      swap1\n      div\n      0xffffffffffffffffffffffffffffffffffffffff\n      and\n        /* \"EHealth.sol\":10346:10370  oracleAddress == _oracle */\n      0xffffffffffffffffffffffffffffffffffffffff\n      and\n      eq\n        /* \"EHealth.sol\":10314:10371  (FindDoctor(_idDoctor) < 0) || (oracleAddress == _oracle) */\n    tag_431:\n        /* \"EHealth.sol\":10314:10392  (FindDoctor(_idDoctor) < 0) || (oracleAddress == _oracle) || (owner == _owner) */\n      dup1\n      tag_432\n      jumpi\n      pop\n        /* \"EHealth.sol\":10385:10391  _owner */\n      dup1\n        /* \"EHealth.sol\":10376:10391  owner == _owner */\n      0xffffffffffffffffffffffffffffffffffffffff\n      and\n        /* \"EHealth.sol\":10376:10381  owner */\n      0x02\n      0x00\n      swap1\n      sload\n      swap1\n      0x0100\n      exp\n      swap1\n      div\n      0xffffffffffffffffffffffffffffffffffffffff\n      and\n        /* \"EHealth.sol\":10376:10391  owner == _owner */\n      0xffffffffffffffffffffffffffffffffffffffff\n      and\n      eq\n        /* \"EHealth.sol\":10314:10392  (FindDoctor(_idDoctor) < 0) || (oracleAddress == _oracle) || (owner == _owner) */\n    tag_432:\n        /* \"EHealth.sol\":10306:10409  require((FindDoctor(_idDoctor) < 0) || (oracleAddress == _oracle) || (owner == _owner),\"No privileges\") */\n      tag_433\n      jumpi\n      mload(0x40)\n      0x08c379a000000000000000000000000000000000000000000000000000000000\n      dup2\n      mstore\n      0x04\n      add\n      tag_434\n      swap1\n      tag_149\n      jump\t// in\n    tag_434:\n      mload(0x40)\n      dup1\n      swap2\n      sub\n      swap1\n      revert\n    tag_433:\n        /* \"EHealth.sol\":9967:9977  uint index */\n      0x00\n        /* \"EHealth.sol\":9980:10001  FindSensor(_idSensor) */\n      tag_436\n        /* \"EHealth.sol\":9991:10000  _idSensor */\n      dup8\n        /* \"EHealth.sol\":9980:9990  FindSensor */\n      tag_152\n        /* \"EHealth.sol\":9980:10001  FindSensor(_idSensor) */\n      jump\t// in\n    tag_436:\n        /* \"EHealth.sol\":9967:10001  uint index = FindSensor(_idSensor) */\n      swap1\n      pop\n        /* \"EHealth.sol\":10018:10031  sensorsDoctor */\n      0x09\n        /* \"EHealth.sol\":10032:10037  index */\n      dup2\n        /* \"EHealth.sol\":10018:10038  sensorsDoctor[index] */\n      dup2\n      sload\n      dup2\n      lt\n      tag_437\n      jumpi\n      invalid\n    tag_437:\n      swap1\n      0x00\n      mstore\n      keccak256(0x00, 0x20)\n      swap1\n      0x05\n      mul\n      add\n        /* \"EHealth.sol\":10018:10043  sensorsDoctor[index].data */\n      0x04\n      add\n        /* \"EHealth.sol\":10011:10043  return sensorsDoctor[index].data */\n      dup1\n      sload\n      dup1\n      0x20\n      mul\n      0x20\n      add\n      mload(0x40)\n      swap1\n      dup2\n      add\n      0x40\n      mstore\n      dup1\n      swap3\n      swap2\n      swap1\n      dup2\n      dup2\n      mstore\n      0x20\n      add\n      dup3\n      dup1\n      sload\n      dup1\n      iszero\n      tag_439\n      jumpi\n      0x20\n      mul\n      dup3\n      add\n      swap2\n      swap1\n      0x00\n      mstore\n      keccak256(0x00, 0x20)\n      swap1\n    tag_440:\n      dup2\n      sload\n      dup2\n      mstore\n      0x20\n      add\n      swap1\n      0x01\n      add\n      swap1\n      dup1\n      dup4\n      gt\n      tag_440\n      jumpi\n    tag_439:\n      pop\n      pop\n      pop\n      pop\n      pop\n      swap5\n      pop\n      pop\n        /* \"EHealth.sol\":9815:10050  function viewSensorData(uint _idSensor, address _idDoctor) ... */\n      pop\n      pop\n      pop\n      swap3\n      swap2\n      pop\n      pop\n      jump\t// out\n        /* \"EHealth.sol\":6419:6823  function getAllDoctorsInHospital(address _address) ... */\n    tag_120:\n        /* \"EHealth.sol\":6529:6544  Doctor[] memory */\n      0x60\n        /* \"EHealth.sol\":6494:6507  oracleAddress */\n      0x03\n      0x00\n      swap1\n      sload\n      swap1\n      0x0100\n      exp\n      swap1\n      div\n      0xffffffffffffffffffffffffffffffffffffffff\n      and\n        /* \"EHealth.sol\":6508:6513  owner */\n      0x02\n      0x00\n      swap1\n      sload\n      swap1\n      0x0100\n      exp\n      swap1\n      div\n      0xffffffffffffffffffffffffffffffffffffffff\n      and\n        /* \"EHealth.sol\":10146:10153  _oracle */\n      dup2\n        /* \"EHealth.sol\":10129:10153  oracleAddress == _oracle */\n      0xffffffffffffffffffffffffffffffffffffffff\n      and\n        /* \"EHealth.sol\":10129:10142  oracleAddress */\n      0x03\n      0x00\n      swap1\n      sload\n      swap1\n      0x0100\n      exp\n      swap1\n      div\n      0xffffffffffffffffffffffffffffffffffffffff\n      and\n        /* \"EHealth.sol\":10129:10153  oracleAddress == _oracle */\n      0xffffffffffffffffffffffffffffffffffffffff\n      and\n      eq\n        /* \"EHealth.sol\":10128:10175  (oracleAddress == _oracle) || (owner == _owner) */\n      dup1\n      tag_442\n      jumpi\n      pop\n        /* \"EHealth.sol\":10168:10174  _owner */\n      dup1\n        /* \"EHealth.sol\":10159:10174  owner == _owner */\n      0xffffffffffffffffffffffffffffffffffffffff\n      and\n        /* \"EHealth.sol\":10159:10164  owner */\n      0x02\n      0x00\n      swap1\n      sload\n      swap1\n      0x0100\n      exp\n      swap1\n      div\n      0xffffffffffffffffffffffffffffffffffffffff\n      and\n        /* \"EHealth.sol\":10159:10174  owner == _owner */\n      0xffffffffffffffffffffffffffffffffffffffff\n      and\n      eq\n        /* \"EHealth.sol\":10128:10175  (oracleAddress == _oracle) || (owner == _owner) */\n    tag_442:\n        /* \"EHealth.sol\":10120:10202  require((oracleAddress == _oracle) || (owner == _owner), ... */\n      tag_443\n      jumpi\n      mload(0x40)\n      0x08c379a000000000000000000000000000000000000000000000000000000000\n      dup2\n      mstore\n      0x04\n      add\n      tag_444\n      swap1\n      tag_149\n      jump\t// in\n    tag_444:\n      mload(0x40)\n      dup1\n      swap2\n      sub\n      swap1\n      revert\n    tag_443:\n        /* \"EHealth.sol\":6555:6574  Doctor[] memory ret */\n      0x00\n        /* \"EHealth.sol\":6590:6605  doctorsHospital */\n      0x07\n        /* \"EHealth.sol\":6590:6612  doctorsHospital.length */\n      dup1\n      sload\n      swap1\n      pop\n        /* \"EHealth.sol\":6577:6613  new Doctor[](doctorsHospital.length) */\n      0xffffffffffffffff\n      dup2\n      gt\n      dup1\n      iszero\n      tag_446\n      jumpi\n      0x00\n      dup1\n      revert\n    tag_446:\n      pop\n      mload(0x40)\n      swap1\n      dup1\n      dup3\n      mstore\n      dup1\n      0x20\n      mul\n      0x20\n      add\n      dup3\n      add\n      0x40\n      mstore\n      dup1\n      iszero\n      tag_447\n      jumpi\n      dup2\n      0x20\n      add\n    tag_448:\n      tag_449\n      tag_450\n      jump\t// in\n    tag_449:\n      dup2\n      mstore\n      0x20\n      add\n      swap1\n      0x01\n      swap1\n      sub\n      swap1\n      dup2\n      tag_448\n      jumpi\n      swap1\n      pop\n    tag_447:\n      pop\n        /* \"EHealth.sol\":6555:6613  Doctor[] memory ret = new Doctor[](doctorsHospital.length) */\n      swap1\n      pop\n        /* \"EHealth.sol\":6628:6634  uint i */\n      0x00\n        /* \"EHealth.sol\":6623:6797  for (uint i = 0; i< doctorsHospital.length; i++) {... */\n    tag_451:\n        /* \"EHealth.sol\":6643:6658  doctorsHospital */\n      0x07\n        /* \"EHealth.sol\":6643:6665  doctorsHospital.length */\n      dup1\n      sload\n      swap1\n      pop\n        /* \"EHealth.sol\":6640:6641  i */\n      dup2\n        /* \"EHealth.sol\":6640:6665  i< doctorsHospital.length */\n      lt\n        /* \"EHealth.sol\":6623:6797  for (uint i = 0; i< doctorsHospital.length; i++) {... */\n      iszero\n      tag_452\n      jumpi\n        /* \"EHealth.sol\":6701:6716  doctorsHospital */\n      0x07\n        /* \"EHealth.sol\":6717:6718  i */\n      dup2\n        /* \"EHealth.sol\":6701:6719  doctorsHospital[i] */\n      dup2\n      sload\n      dup2\n      lt\n      tag_454\n      jumpi\n      invalid\n    tag_454:\n      swap1\n      0x00\n      mstore\n      keccak256(0x00, 0x20)\n      swap1\n      0x03\n      mul\n      add\n        /* \"EHealth.sol\":6701:6728  doctorsHospital[i].hospital */\n      0x02\n      add\n      0x00\n      swap1\n      sload\n      swap1\n      0x0100\n      exp\n      swap1\n      div\n      0xffffffffffffffffffffffffffffffffffffffff\n      and\n        /* \"EHealth.sol\":6689:6728  _address == doctorsHospital[i].hospital */\n      0xffffffffffffffffffffffffffffffffffffffff\n      and\n        /* \"EHealth.sol\":6689:6697  _address */\n      dup7\n        /* \"EHealth.sol\":6689:6728  _address == doctorsHospital[i].hospital */\n      0xffffffffffffffffffffffffffffffffffffffff\n      and\n      eq\n        /* \"EHealth.sol\":6686:6787  if(_address == doctorsHospital[i].hospital){... */\n      iszero\n      tag_456\n      jumpi\n        /* \"EHealth.sol\":6754:6769  doctorsHospital */\n      0x07\n        /* \"EHealth.sol\":6770:6771  i */\n      dup2\n        /* \"EHealth.sol\":6754:6772  doctorsHospital[i] */\n      dup2\n      sload\n      dup2\n      lt\n      tag_457\n      jumpi\n      invalid\n    tag_457:\n      swap1\n      0x00\n      mstore\n      keccak256(0x00, 0x20)\n      swap1\n      0x03\n      mul\n      add\n        /* \"EHealth.sol\":6747:6772  ret[i]=doctorsHospital[i] */\n      mload(0x40)\n      dup1\n      0x80\n      add\n      0x40\n      mstore\n      swap1\n      dup2\n      0x00\n      dup3\n      add\n      0x00\n      swap1\n      sload\n      swap1\n      0x0100\n      exp\n      swap1\n      div\n      0xffffffffffffffffffffffffffffffffffffffff\n      and\n      0xffffffffffffffffffffffffffffffffffffffff\n      and\n      0xffffffffffffffffffffffffffffffffffffffff\n      and\n      dup2\n      mstore\n      0x20\n      add\n      0x01\n      dup3\n      add\n      dup1\n      sload\n      0x01\n      dup2\n      0x01\n      and\n      iszero\n      0x0100\n      mul\n      sub\n      and\n      0x02\n      swap1\n      div\n      dup1\n      0x1f\n      add\n      0x20\n      dup1\n      swap2\n      div\n      mul\n      0x20\n      add\n      mload(0x40)\n      swap1\n      dup2\n      add\n      0x40\n      mstore\n      dup1\n      swap3\n      swap2\n      swap1\n      dup2\n      dup2\n      mstore\n      0x20\n      add\n      dup3\n      dup1\n      sload\n      0x01\n      dup2\n      0x01\n      and\n      iszero\n      0x0100\n      mul\n      sub\n      and\n      0x02\n      swap1\n      div\n      dup1\n      iszero\n      tag_459\n      jumpi\n      dup1\n      0x1f\n      lt\n      tag_460\n      jumpi\n      0x0100\n      dup1\n      dup4\n      sload\n      div\n      mul\n      dup4\n      mstore\n      swap2\n      0x20\n      add\n      swap2\n      jump(tag_459)\n    tag_460:\n      dup3\n      add\n      swap2\n      swap1\n      0x00\n      mstore\n      keccak256(0x00, 0x20)\n      swap1\n    tag_461:\n      dup2\n      sload\n      dup2\n      mstore\n      swap1\n      0x01\n      add\n      swap1\n      0x20\n      add\n      dup1\n      dup4\n      gt\n      tag_461\n      jumpi\n      dup3\n      swap1\n      sub\n      0x1f\n      and\n      dup3\n      add\n      swap2\n    tag_459:\n      pop\n      pop\n      pop\n      pop\n      pop\n      dup2\n      mstore\n      0x20\n      add\n      0x02\n      dup3\n      add\n      0x00\n      swap1\n      sload\n      swap1\n      0x0100\n      exp\n      swap1\n      div\n      0xffffffffffffffffffffffffffffffffffffffff\n      and\n      0xffffffffffffffffffffffffffffffffffffffff\n      and\n      0xffffffffffffffffffffffffffffffffffffffff\n      and\n      dup2\n      mstore\n      0x20\n      add\n      0x02\n      dup3\n      add\n      0x14\n      swap1\n      sload\n      swap1\n      0x0100\n      exp\n      swap1\n      div\n      0xff\n      and\n      iszero\n      iszero\n      iszero\n      iszero\n      dup2\n      mstore\n      pop\n      pop\n        /* \"EHealth.sol\":6747:6750  ret */\n      dup3\n        /* \"EHealth.sol\":6751:6752  i */\n      dup3\n        /* \"EHealth.sol\":6747:6753  ret[i] */\n      dup2\n      mload\n      dup2\n      lt\n      tag_462\n      jumpi\n      invalid\n    tag_462:\n      0x20\n      mul\n      0x20\n      add\n      add\n        /* \"EHealth.sol\":6747:6772  ret[i]=doctorsHospital[i] */\n      dup2\n      swap1\n      mstore\n      pop\n        /* \"EHealth.sol\":6686:6787  if(_address == doctorsHospital[i].hospital){... */\n    tag_456:\n        /* \"EHealth.sol\":6667:6670  i++ */\n      dup1\n      dup1\n      0x01\n      add\n      swap2\n      pop\n      pop\n        /* \"EHealth.sol\":6623:6797  for (uint i = 0; i< doctorsHospital.length; i++) {... */\n      jump(tag_451)\n    tag_452:\n      pop\n        /* \"EHealth.sol\":6813:6816  ret */\n      dup1\n        /* \"EHealth.sol\":6806:6816  return ret */\n      swap4\n      pop\n      pop\n        /* \"EHealth.sol\":6419:6823  function getAllDoctorsInHospital(address _address) ... */\n      pop\n      pop\n      swap2\n      swap1\n      pop\n      jump\t// out\n        /* \"EHealth.sol\":589:622  Hospital[] public hospitalCenters */\n    tag_125:\n      0x05\n      dup2\n      dup2\n      sload\n      dup2\n      lt\n      tag_463\n      jumpi\n      0x00\n      dup1\n      revert\n    tag_463:\n      swap1\n      0x00\n      mstore\n      keccak256(0x00, 0x20)\n      swap1\n      0x05\n      mul\n      add\n      0x00\n      swap2\n      pop\n      swap1\n      pop\n      dup1\n      0x00\n      add\n      0x00\n      swap1\n      sload\n      swap1\n      0x0100\n      exp\n      swap1\n      div\n      0xffffffffffffffffffffffffffffffffffffffff\n      and\n      swap1\n      dup1\n      0x01\n      add\n      dup1\n      sload\n      0x01\n      dup2\n      0x01\n      and\n      iszero\n      0x0100\n      mul\n      sub\n      and\n      0x02\n      swap1\n      div\n      dup1\n      0x1f\n      add\n      0x20\n      dup1\n      swap2\n      div\n      mul\n      0x20\n      add\n      mload(0x40)\n      swap1\n      dup2\n      add\n      0x40\n      mstore\n      dup1\n      swap3\n      swap2\n      swap1\n      dup2\n      dup2\n      mstore\n      0x20\n      add\n      dup3\n      dup1\n      sload\n      0x01\n      dup2\n      0x01\n      and\n      iszero\n      0x0100\n      mul\n      sub\n      and\n      0x02\n      swap1\n      div\n      dup1\n      iszero\n      tag_465\n      jumpi\n      dup1\n      0x1f\n      lt\n      tag_466\n      jumpi\n      0x0100\n      dup1\n      dup4\n      sload\n      div\n      mul\n      dup4\n      mstore\n      swap2\n      0x20\n      add\n      swap2\n      jump(tag_465)\n    tag_466:\n      dup3\n      add\n      swap2\n      swap1\n      0x00\n      mstore\n      keccak256(0x00, 0x20)\n      swap1\n    tag_467:\n      dup2\n      sload\n      dup2\n      mstore\n      swap1\n      0x01\n      add\n      swap1\n      0x20\n      add\n      dup1\n      dup4\n      gt\n      tag_467\n      jumpi\n      dup3\n      swap1\n      sub\n      0x1f\n      and\n      dup3\n      add\n      swap2\n    tag_465:\n      pop\n      pop\n      pop\n      pop\n      pop\n      swap1\n      dup1\n      0x02\n      add\n      dup1\n      sload\n      0x01\n      dup2\n      0x01\n      and\n      iszero\n      0x0100\n      mul\n      sub\n      and\n      0x02\n      swap1\n      div\n      dup1\n      0x1f\n      add\n      0x20\n      dup1\n      swap2\n      div\n      mul\n      0x20\n      add\n      mload(0x40)\n      swap1\n      dup2\n      add\n      0x40\n      mstore\n      dup1\n      swap3\n      swap2\n      swap1\n      dup2\n      dup2\n      mstore\n      0x20\n      add\n      dup3\n      dup1\n      sload\n      0x01\n      dup2\n      0x01\n      and\n      iszero\n      0x0100\n      mul\n      sub\n      and\n      0x02\n      swap1\n      div\n      dup1\n      iszero\n      tag_468\n      jumpi\n      dup1\n      0x1f\n      lt\n      tag_469\n      jumpi\n      0x0100\n      dup1\n      dup4\n      sload\n      div\n      mul\n      dup4\n      mstore\n      swap2\n      0x20\n      add\n      swap2\n      jump(tag_468)\n    tag_469:\n      dup3\n      add\n      swap2\n      swap1\n      0x00\n      mstore\n      keccak256(0x00, 0x20)\n      swap1\n    tag_470:\n      dup2\n      sload\n      dup2\n      mstore\n      swap1\n      0x01\n      add\n      swap1\n      0x20\n      add\n      dup1\n      dup4\n      gt\n      tag_470\n      jumpi\n      dup3\n      swap1\n      sub\n      0x1f\n      and\n      dup3\n      add\n      swap2\n    tag_468:\n      pop\n      pop\n      pop\n      pop\n      pop\n      swap1\n      dup1\n      0x03\n      add\n      dup1\n      sload\n      0x01\n      dup2\n      0x01\n      and\n      iszero\n      0x0100\n      mul\n      sub\n      and\n      0x02\n      swap1\n      div\n      dup1\n      0x1f\n      add\n      0x20\n      dup1\n      swap2\n      div\n      mul\n      0x20\n      add\n      mload(0x40)\n      swap1\n      dup2\n      add\n      0x40\n      mstore\n      dup1\n      swap3\n      swap2\n      swap1\n      dup2\n      dup2\n      mstore\n      0x20\n      add\n      dup3\n      dup1\n      sload\n      0x01\n      dup2\n      0x01\n      and\n      iszero\n      0x0100\n      mul\n      sub\n      and\n      0x02\n      swap1\n      div\n      dup1\n      iszero\n      tag_471\n      jumpi\n      dup1\n      0x1f\n      lt\n      tag_472\n      jumpi\n      0x0100\n      dup1\n      dup4\n      sload\n      div\n      mul\n      dup4\n      mstore\n      swap2\n      0x20\n      add\n      swap2\n      jump(tag_471)\n    tag_472:\n      dup3\n      add\n      swap2\n      swap1\n      0x00\n      mstore\n      keccak256(0x00, 0x20)\n      swap1\n    tag_473:\n      dup2\n      sload\n      dup2\n      mstore\n      swap1\n      0x01\n      add\n      swap1\n      0x20\n      add\n      dup1\n      dup4\n      gt\n      tag_473\n      jumpi\n      dup3\n      swap1\n      sub\n      0x1f\n      and\n      dup3\n      add\n      swap2\n    tag_471:\n      pop\n      pop\n      pop\n      pop\n      pop\n      swap1\n      dup1\n      0x04\n      add\n      0x00\n      swap1\n      sload\n      swap1\n      0x0100\n      exp\n      swap1\n      div\n      0xff\n      and\n      swap1\n      pop\n      dup6\n      jump\t// out\n        /* \"EHealth.sol\":643:683  mapping(address=> Doctor) public Doctors */\n    tag_129:\n      mstore(0x20, 0x06)\n      dup1\n      0x00\n      mstore\n      keccak256(0x00, 0x40)\n      0x00\n      swap2\n      pop\n      swap1\n      pop\n      dup1\n      0x00\n      add\n      0x00\n      swap1\n      sload\n      swap1\n      0x0100\n      exp\n      swap1\n      div\n      0xffffffffffffffffffffffffffffffffffffffff\n      and\n      swap1\n      dup1\n      0x01\n      add\n      dup1\n      sload\n      0x01\n      dup2\n      0x01\n      and\n      iszero\n      0x0100\n      mul\n      sub\n      and\n      0x02\n      swap1\n      div\n      dup1\n      0x1f\n      add\n      0x20\n      dup1\n      swap2\n      div\n      mul\n      0x20\n      add\n      mload(0x40)\n      swap1\n      dup2\n      add\n      0x40\n      mstore\n      dup1\n      swap3\n      swap2\n      swap1\n      dup2\n      dup2\n      mstore\n      0x20\n      add\n      dup3\n      dup1\n      sload\n      0x01\n      dup2\n      0x01\n      and\n      iszero\n      0x0100\n      mul\n      sub\n      and\n      0x02\n      swap1\n      div\n      dup1\n      iszero\n      tag_474\n      jumpi\n      dup1\n      0x1f\n      lt\n      tag_475\n      jumpi\n      0x0100\n      dup1\n      dup4\n      sload\n      div\n      mul\n      dup4\n      mstore\n      swap2\n      0x20\n      add\n      swap2\n      jump(tag_474)\n    tag_475:\n      dup3\n      add\n      swap2\n      swap1\n      0x00\n      mstore\n      keccak256(0x00, 0x20)\n      swap1\n    tag_476:\n      dup2\n      sload\n      dup2\n      mstore\n      swap1\n      0x01\n      add\n      swap1\n      0x20\n      add\n      dup1\n      dup4\n      gt\n      tag_476\n      jumpi\n      dup3\n      swap1\n      sub\n      0x1f\n      and\n      dup3\n      add\n      swap2\n    tag_474:\n      pop\n      pop\n      pop\n      pop\n      pop\n      swap1\n      dup1\n      0x02\n      add\n      0x00\n      swap1\n      sload\n      swap1\n      0x0100\n      exp\n      swap1\n      div\n      0xffffffffffffffffffffffffffffffffffffffff\n      and\n      swap1\n      dup1\n      0x02\n      add\n      0x14\n      swap1\n      sload\n      swap1\n      0x0100\n      exp\n      swap1\n      div\n      0xff\n      and\n      swap1\n      pop\n      dup5\n      jump\t// out\n        /* \"EHealth.sol\":7709:7959  function RemoveSensor(uint _id, address _idDoctor) ... */\n    tag_133:\n        /* \"EHealth.sol\":7784:7793  _idDoctor */\n      dup1\n        /* \"EHealth.sol\":7795:7808  oracleAddress */\n      0x03\n      0x00\n      swap1\n      sload\n      swap1\n      0x0100\n      exp\n      swap1\n      div\n      0xffffffffffffffffffffffffffffffffffffffff\n      and\n        /* \"EHealth.sol\":7809:7814  owner */\n      0x02\n      0x00\n      swap1\n      sload\n      swap1\n      0x0100\n      exp\n      swap1\n      div\n      0xffffffffffffffffffffffffffffffffffffffff\n      and\n        /* \"EHealth.sol\":10339:10340  0 */\n      0x00\n        /* \"EHealth.sol\":10315:10336  FindDoctor(_idDoctor) */\n      tag_478\n        /* \"EHealth.sol\":10326:10335  _idDoctor */\n      dup5\n        /* \"EHealth.sol\":10315:10325  FindDoctor */\n      tag_169\n        /* \"EHealth.sol\":10315:10336  FindDoctor(_idDoctor) */\n      jump\t// in\n    tag_478:\n        /* \"EHealth.sol\":10315:10340  FindDoctor(_idDoctor) < 0 */\n      lt\n        /* \"EHealth.sol\":10314:10371  (FindDoctor(_idDoctor) < 0) || (oracleAddress == _oracle) */\n      dup1\n      tag_479\n      jumpi\n      pop\n        /* \"EHealth.sol\":10363:10370  _oracle */\n      dup2\n        /* \"EHealth.sol\":10346:10370  oracleAddress == _oracle */\n      0xffffffffffffffffffffffffffffffffffffffff\n      and\n        /* \"EHealth.sol\":10346:10359  oracleAddress */\n      0x03\n      0x00\n      swap1\n      sload\n      swap1\n      0x0100\n      exp\n      swap1\n      div\n      0xffffffffffffffffffffffffffffffffffffffff\n      and\n        /* \"EHealth.sol\":10346:10370  oracleAddress == _oracle */\n      0xffffffffffffffffffffffffffffffffffffffff\n      and\n      eq\n        /* \"EHealth.sol\":10314:10371  (FindDoctor(_idDoctor) < 0) || (oracleAddress == _oracle) */\n    tag_479:\n        /* \"EHealth.sol\":10314:10392  (FindDoctor(_idDoctor) < 0) || (oracleAddress == _oracle) || (owner == _owner) */\n      dup1\n      tag_480\n      jumpi\n      pop\n        /* \"EHealth.sol\":10385:10391  _owner */\n      dup1\n        /* \"EHealth.sol\":10376:10391  owner == _owner */\n      0xffffffffffffffffffffffffffffffffffffffff\n      and\n        /* \"EHealth.sol\":10376:10381  owner */\n      0x02\n      0x00\n      swap1\n      sload\n      swap1\n      0x0100\n      exp\n      swap1\n      div\n      0xffffffffffffffffffffffffffffffffffffffff\n      and\n        /* \"EHealth.sol\":10376:10391  owner == _owner */\n      0xffffffffffffffffffffffffffffffffffffffff\n      and\n      eq\n        /* \"EHealth.sol\":10314:10392  (FindDoctor(_idDoctor) < 0) || (oracleAddress == _oracle) || (owner == _owner) */\n    tag_480:\n        /* \"EHealth.sol\":10306:10409  require((FindDoctor(_idDoctor) < 0) || (oracleAddress == _oracle) || (owner == _owner),\"No privileges\") */\n      tag_481\n      jumpi\n      mload(0x40)\n      0x08c379a000000000000000000000000000000000000000000000000000000000\n      dup2\n      mstore\n      0x04\n      add\n      tag_482\n      swap1\n      tag_149\n      jump\t// in\n    tag_482:\n      mload(0x40)\n      dup1\n      swap2\n      sub\n      swap1\n      revert\n    tag_481:\n        /* \"EHealth.sol\":7825:7835  uint index */\n      0x00\n        /* \"EHealth.sol\":7838:7853  FindSensor(_id) */\n      tag_484\n        /* \"EHealth.sol\":7849:7852  _id */\n      dup7\n        /* \"EHealth.sol\":7838:7848  FindSensor */\n      tag_152\n        /* \"EHealth.sol\":7838:7853  FindSensor(_id) */\n      jump\t// in\n    tag_484:\n        /* \"EHealth.sol\":7825:7853  uint index = FindSensor(_id) */\n      swap1\n      pop\n        /* \"EHealth.sol\":7891:7896  false */\n      0x00\n        /* \"EHealth.sol\":7863:7876  sensorsDoctor */\n      0x09\n        /* \"EHealth.sol\":7877:7882  index */\n      dup3\n        /* \"EHealth.sol\":7863:7883  sensorsDoctor[index] */\n      dup2\n      sload\n      dup2\n      lt\n      tag_485\n      jumpi\n      invalid\n    tag_485:\n      swap1\n      0x00\n      mstore\n      keccak256(0x00, 0x20)\n      swap1\n      0x05\n      mul\n      add\n        /* \"EHealth.sol\":7863:7890  sensorsDoctor[index].active */\n      0x03\n      add\n      0x14\n        /* \"EHealth.sol\":7863:7896  sensorsDoctor[index].active=false */\n      0x0100\n      exp\n      dup2\n      sload\n      dup2\n      0xff\n      mul\n      not\n      and\n      swap1\n      dup4\n      iszero\n      iszero\n      mul\n      or\n      swap1\n      sstore\n      pop\n        /* \"EHealth.sol\":7911:7952  DeleteSensor(sensorsDoctor[index].active) */\n      0xbacb2438fad2c96302d0732482e49098457b065c15d428040d57c1a60c4da5db\n        /* \"EHealth.sol\":7924:7937  sensorsDoctor */\n      0x09\n        /* \"EHealth.sol\":7938:7943  index */\n      dup3\n        /* \"EHealth.sol\":7924:7944  sensorsDoctor[index] */\n      dup2\n      sload\n      dup2\n      lt\n      tag_487\n      jumpi\n      invalid\n    tag_487:\n      swap1\n      0x00\n      mstore\n      keccak256(0x00, 0x20)\n      swap1\n      0x05\n      mul\n      add\n        /* \"EHealth.sol\":7924:7951  sensorsDoctor[index].active */\n      0x03\n      add\n      0x14\n      swap1\n      sload\n      swap1\n      0x0100\n      exp\n      swap1\n      div\n      0xff\n      and\n        /* \"EHealth.sol\":7911:7952  DeleteSensor(sensorsDoctor[index].active) */\n      mload(0x40)\n      tag_489\n      swap2\n      swap1\n      tag_205\n      jump\t// in\n    tag_489:\n      mload(0x40)\n      dup1\n      swap2\n      sub\n      swap1\n      log1\n        /* \"EHealth.sol\":10419:10420  _ */\n      pop\n        /* \"EHealth.sol\":7709:7959  function RemoveSensor(uint _id, address _idDoctor) ... */\n      pop\n      pop\n      pop\n      pop\n      pop\n      jump\t// out\n        /* \"EHealth.sol\":4320:4626  function AddDoctor(address idDoctor, string memory _nameDoctor, address _hospital) ... */\n    tag_137:\n        /* \"EHealth.sol\":4427:4440  oracleAddress */\n      0x03\n      0x00\n      swap1\n      sload\n      swap1\n      0x0100\n      exp\n      swap1\n      div\n      0xffffffffffffffffffffffffffffffffffffffff\n      and\n        /* \"EHealth.sol\":4441:4446  owner */\n      0x02\n      0x00\n      swap1\n      sload\n      swap1\n      0x0100\n      exp\n      swap1\n      div\n      0xffffffffffffffffffffffffffffffffffffffff\n      and\n        /* \"EHealth.sol\":10146:10153  _oracle */\n      dup2\n        /* \"EHealth.sol\":10129:10153  oracleAddress == _oracle */\n      0xffffffffffffffffffffffffffffffffffffffff\n      and\n        /* \"EHealth.sol\":10129:10142  oracleAddress */\n      0x03\n      0x00\n      swap1\n      sload\n      swap1\n      0x0100\n      exp\n      swap1\n      div\n      0xffffffffffffffffffffffffffffffffffffffff\n      and\n        /* \"EHealth.sol\":10129:10153  oracleAddress == _oracle */\n      0xffffffffffffffffffffffffffffffffffffffff\n      and\n      eq\n        /* \"EHealth.sol\":10128:10175  (oracleAddress == _oracle) || (owner == _owner) */\n      dup1\n      tag_491\n      jumpi\n      pop\n        /* \"EHealth.sol\":10168:10174  _owner */\n      dup1\n        /* \"EHealth.sol\":10159:10174  owner == _owner */\n      0xffffffffffffffffffffffffffffffffffffffff\n      and\n        /* \"EHealth.sol\":10159:10164  owner */\n      0x02\n      0x00\n      swap1\n      sload\n      swap1\n      0x0100\n      exp\n      swap1\n      div\n      0xffffffffffffffffffffffffffffffffffffffff\n      and\n        /* \"EHealth.sol\":10159:10174  owner == _owner */\n      0xffffffffffffffffffffffffffffffffffffffff\n      and\n      eq\n        /* \"EHealth.sol\":10128:10175  (oracleAddress == _oracle) || (owner == _owner) */\n    tag_491:\n        /* \"EHealth.sol\":10120:10202  require((oracleAddress == _oracle) || (owner == _owner), ... */\n      tag_492\n      jumpi\n      mload(0x40)\n      0x08c379a000000000000000000000000000000000000000000000000000000000\n      dup2\n      mstore\n      0x04\n      add\n      tag_493\n      swap1\n      tag_149\n      jump\t// in\n    tag_493:\n      mload(0x40)\n      dup1\n      swap2\n      sub\n      swap1\n      revert\n    tag_492:\n        /* \"EHealth.sol\":4457:4480  FindHospital(_hospital) */\n      tag_495\n        /* \"EHealth.sol\":4470:4479  _hospital */\n      dup4\n        /* \"EHealth.sol\":4457:4469  FindHospital */\n      tag_199\n        /* \"EHealth.sol\":4457:4480  FindHospital(_hospital) */\n      jump\t// in\n    tag_495:\n      pop\n        /* \"EHealth.sol\":4490:4505  doctorsHospital */\n      0x07\n        /* \"EHealth.sol\":4511:4557  Doctor(idDoctor, _nameDoctor, _hospital, true) */\n      mload(0x40)\n      dup1\n      0x80\n      add\n      0x40\n      mstore\n      dup1\n        /* \"EHealth.sol\":4518:4526  idDoctor */\n      dup8\n        /* \"EHealth.sol\":4511:4557  Doctor(idDoctor, _nameDoctor, _hospital, true) */\n      0xffffffffffffffffffffffffffffffffffffffff\n      and\n      dup2\n      mstore\n      0x20\n      add\n        /* \"EHealth.sol\":4528:4539  _nameDoctor */\n      dup7\n        /* \"EHealth.sol\":4511:4557  Doctor(idDoctor, _nameDoctor, _hospital, true) */\n      dup2\n      mstore\n      0x20\n      add\n        /* \"EHealth.sol\":4541:4550  _hospital */\n      dup6\n        /* \"EHealth.sol\":4511:4557  Doctor(idDoctor, _nameDoctor, _hospital, true) */\n      0xffffffffffffffffffffffffffffffffffffffff\n      and\n      dup2\n      mstore\n      0x20\n      add\n        /* \"EHealth.sol\":4552:4556  true */\n      0x01\n        /* \"EHealth.sol\":4511:4557  Doctor(idDoctor, _nameDoctor, _hospital, true) */\n      iszero\n      iszero\n      dup2\n      mstore\n      pop\n        /* \"EHealth.sol\":4490:4558  doctorsHospital.push(Doctor(idDoctor, _nameDoctor, _hospital, true)) */\n      swap1\n      dup1\n      0x01\n      dup2\n      sload\n      add\n      dup1\n      dup3\n      sstore\n      dup1\n      swap2\n      pop\n      pop\n      0x01\n      swap1\n      sub\n      swap1\n      0x00\n      mstore\n      keccak256(0x00, 0x20)\n      swap1\n      0x03\n      mul\n      add\n      0x00\n      swap1\n      swap2\n      swap1\n      swap2\n      swap1\n      swap2\n      pop\n      0x00\n      dup3\n      add\n      mload\n      dup2\n      0x00\n      add\n      exp(0x0100, 0x00)\n      dup2\n      sload\n      dup2\n      0xffffffffffffffffffffffffffffffffffffffff\n      mul\n      not\n      and\n      swap1\n      dup4\n      0xffffffffffffffffffffffffffffffffffffffff\n      and\n      mul\n      or\n      swap1\n      sstore\n      pop\n      0x20\n      dup3\n      add\n      mload\n      dup2\n      0x01\n      add\n      swap1\n      dup1\n      mload\n      swap1\n      0x20\n      add\n      swap1\n      tag_497\n      swap3\n      swap2\n      swap1\n      tag_178\n      jump\t// in\n    tag_497:\n      pop\n      0x40\n      dup3\n      add\n      mload\n      dup2\n      0x02\n      add\n      exp(0x0100, 0x00)\n      dup2\n      sload\n      dup2\n      0xffffffffffffffffffffffffffffffffffffffff\n      mul\n      not\n      and\n      swap1\n      dup4\n      0xffffffffffffffffffffffffffffffffffffffff\n      and\n      mul\n      or\n      swap1\n      sstore\n      pop\n      0x60\n      dup3\n      add\n      mload\n      dup2\n      0x02\n      add\n      exp(0x0100, 0x14)\n      dup2\n      sload\n      dup2\n      0xff\n      mul\n      not\n      and\n      swap1\n      dup4\n      iszero\n      iszero\n      mul\n      or\n      swap1\n      sstore\n      pop\n      pop\n      pop\n        /* \"EHealth.sol\":4573:4619  NewDoctor(idDoctor,_nameDoctor,_hospital,true) */\n      0x4578695497af1a3a1f556f9c89f9f107851cb8e1820e4b336143406b9ba52e3b\n        /* \"EHealth.sol\":4583:4591  idDoctor */\n      dup6\n        /* \"EHealth.sol\":4592:4603  _nameDoctor */\n      dup6\n        /* \"EHealth.sol\":4604:4613  _hospital */\n      dup6\n        /* \"EHealth.sol\":4614:4618  true */\n      0x01\n        /* \"EHealth.sol\":4573:4619  NewDoctor(idDoctor,_nameDoctor,_hospital,true) */\n      mload(0x40)\n      tag_498\n      swap5\n      swap4\n      swap3\n      swap2\n      swap1\n      tag_82\n      jump\t// in\n    tag_498:\n      mload(0x40)\n      dup1\n      swap2\n      sub\n      swap1\n      log1\n        /* \"EHealth.sol\":4320:4626  function AddDoctor(address idDoctor, string memory _nameDoctor, address _hospital) ... */\n      pop\n      pop\n      pop\n      pop\n      pop\n      jump\t// out\n        /* \"EHealth.sol\":1130:1159  Sensor[] public sensorsDoctor */\n    tag_140:\n      0x09\n      dup2\n      dup2\n      sload\n      dup2\n      lt\n      tag_499\n      jumpi\n      0x00\n      dup1\n      revert\n    tag_499:\n      swap1\n      0x00\n      mstore\n      keccak256(0x00, 0x20)\n      swap1\n      0x05\n      mul\n      add\n      0x00\n      swap2\n      pop\n      swap1\n      pop\n      dup1\n      0x00\n      add\n      sload\n      swap1\n      dup1\n      0x01\n      add\n      dup1\n      sload\n      0x01\n      dup2\n      0x01\n      and\n      iszero\n      0x0100\n      mul\n      sub\n      and\n      0x02\n      swap1\n      div\n      dup1\n      0x1f\n      add\n      0x20\n      dup1\n      swap2\n      div\n      mul\n      0x20\n      add\n      mload(0x40)\n      swap1\n      dup2\n      add\n      0x40\n      mstore\n      dup1\n      swap3\n      swap2\n      swap1\n      dup2\n      dup2\n      mstore\n      0x20\n      add\n      dup3\n      dup1\n      sload\n      0x01\n      dup2\n      0x01\n      and\n      iszero\n      0x0100\n      mul\n      sub\n      and\n      0x02\n      swap1\n      div\n      dup1\n      iszero\n      tag_501\n      jumpi\n      dup1\n      0x1f\n      lt\n      tag_502\n      jumpi\n      0x0100\n      dup1\n      dup4\n      sload\n      div\n      mul\n      dup4\n      mstore\n      swap2\n      0x20\n      add\n      swap2\n      jump(tag_501)\n    tag_502:\n      dup3\n      add\n      swap2\n      swap1\n      0x00\n      mstore\n      keccak256(0x00, 0x20)\n      swap1\n    tag_503:\n      dup2\n      sload\n      dup2\n      mstore\n      swap1\n      0x01\n      add\n      swap1\n      0x20\n      add\n      dup1\n      dup4\n      gt\n      tag_503\n      jumpi\n      dup3\n      swap1\n      sub\n      0x1f\n      and\n      dup3\n      add\n      swap2\n    tag_501:\n      pop\n      pop\n      pop\n      pop\n      pop\n      swap1\n      dup1\n      0x02\n      add\n      dup1\n      sload\n      0x01\n      dup2\n      0x01\n      and\n      iszero\n      0x0100\n      mul\n      sub\n      and\n      0x02\n      swap1\n      div\n      dup1\n      0x1f\n      add\n      0x20\n      dup1\n      swap2\n      div\n      mul\n      0x20\n      add\n      mload(0x40)\n      swap1\n      dup2\n      add\n      0x40\n      mstore\n      dup1\n      swap3\n      swap2\n      swap1\n      dup2\n      dup2\n      mstore\n      0x20\n      add\n      dup3\n      dup1\n      sload\n      0x01\n      dup2\n      0x01\n      and\n      iszero\n      0x0100\n      mul\n      sub\n      and\n      0x02\n      swap1\n      div\n      dup1\n      iszero\n      tag_504\n      jumpi\n      dup1\n      0x1f\n      lt\n      tag_505\n      jumpi\n      0x0100\n      dup1\n      dup4\n      sload\n      div\n      mul\n      dup4\n      mstore\n      swap2\n      0x20\n      add\n      swap2\n      jump(tag_504)\n    tag_505:\n      dup3\n      add\n      swap2\n      swap1\n      0x00\n      mstore\n      keccak256(0x00, 0x20)\n      swap1\n    tag_506:\n      dup2\n      sload\n      dup2\n      mstore\n      swap1\n      0x01\n      add\n      swap1\n      0x20\n      add\n      dup1\n      dup4\n      gt\n      tag_506\n      jumpi\n      dup3\n      swap1\n      sub\n      0x1f\n      and\n      dup3\n      add\n      swap2\n    tag_504:\n      pop\n      pop\n      pop\n      pop\n      pop\n      swap1\n      dup1\n      0x03\n      add\n      0x00\n      swap1\n      sload\n      swap1\n      0x0100\n      exp\n      swap1\n      div\n      0xffffffffffffffffffffffffffffffffffffffff\n      and\n      swap1\n      dup1\n      0x03\n      add\n      0x14\n      swap1\n      sload\n      swap1\n      0x0100\n      exp\n      swap1\n      div\n      0xff\n      and\n      swap1\n      pop\n      dup6\n      jump\t// out\n        /* \"EHealth.sol\":6241:6380  function getAllDoctors() ... */\n    tag_143:\n        /* \"EHealth.sol\":6325:6340  Doctor[] memory */\n      0x60\n        /* \"EHealth.sol\":6290:6303  oracleAddress */\n      0x03\n      0x00\n      swap1\n      sload\n      swap1\n      0x0100\n      exp\n      swap1\n      div\n      0xffffffffffffffffffffffffffffffffffffffff\n      and\n        /* \"EHealth.sol\":6304:6309  owner */\n      0x02\n      0x00\n      swap1\n      sload\n      swap1\n      0x0100\n      exp\n      swap1\n      div\n      0xffffffffffffffffffffffffffffffffffffffff\n      and\n        /* \"EHealth.sol\":10146:10153  _oracle */\n      dup2\n        /* \"EHealth.sol\":10129:10153  oracleAddress == _oracle */\n      0xffffffffffffffffffffffffffffffffffffffff\n      and\n        /* \"EHealth.sol\":10129:10142  oracleAddress */\n      0x03\n      0x00\n      swap1\n      sload\n      swap1\n      0x0100\n      exp\n      swap1\n      div\n      0xffffffffffffffffffffffffffffffffffffffff\n      and\n        /* \"EHealth.sol\":10129:10153  oracleAddress == _oracle */\n      0xffffffffffffffffffffffffffffffffffffffff\n      and\n      eq\n        /* \"EHealth.sol\":10128:10175  (oracleAddress == _oracle) || (owner == _owner) */\n      dup1\n      tag_508\n      jumpi\n      pop\n        /* \"EHealth.sol\":10168:10174  _owner */\n      dup1\n        /* \"EHealth.sol\":10159:10174  owner == _owner */\n      0xffffffffffffffffffffffffffffffffffffffff\n      and\n        /* \"EHealth.sol\":10159:10164  owner */\n      0x02\n      0x00\n      swap1\n      sload\n      swap1\n      0x0100\n      exp\n      swap1\n      div\n      0xffffffffffffffffffffffffffffffffffffffff\n      and\n        /* \"EHealth.sol\":10159:10174  owner == _owner */\n      0xffffffffffffffffffffffffffffffffffffffff\n      and\n      eq\n        /* \"EHealth.sol\":10128:10175  (oracleAddress == _oracle) || (owner == _owner) */\n    tag_508:\n        /* \"EHealth.sol\":10120:10202  require((oracleAddress == _oracle) || (owner == _owner), ... */\n      tag_509\n      jumpi\n      mload(0x40)\n      0x08c379a000000000000000000000000000000000000000000000000000000000\n      dup2\n      mstore\n      0x04\n      add\n      tag_510\n      swap1\n      tag_149\n      jump\t// in\n    tag_510:\n      mload(0x40)\n      dup1\n      swap2\n      sub\n      swap1\n      revert\n    tag_509:\n        /* \"EHealth.sol\":6358:6373  doctorsHospital */\n      0x07\n        /* \"EHealth.sol\":6351:6373  return doctorsHospital */\n      dup1\n      sload\n      dup1\n      0x20\n      mul\n      0x20\n      add\n      mload(0x40)\n      swap1\n      dup2\n      add\n      0x40\n      mstore\n      dup1\n      swap3\n      swap2\n      swap1\n      dup2\n      dup2\n      mstore\n      0x20\n      add\n      0x00\n      swap1\n    tag_512:\n      dup3\n      dup3\n      lt\n      iszero\n      tag_513\n      jumpi\n      dup4\n      dup3\n      swap1\n      0x00\n      mstore\n      keccak256(0x00, 0x20)\n      swap1\n      0x03\n      mul\n      add\n      mload(0x40)\n      dup1\n      0x80\n      add\n      0x40\n      mstore\n      swap1\n      dup2\n      0x00\n      dup3\n      add\n      0x00\n      swap1\n      sload\n      swap1\n      0x0100\n      exp\n      swap1\n      div\n      0xffffffffffffffffffffffffffffffffffffffff\n      and\n      0xffffffffffffffffffffffffffffffffffffffff\n      and\n      0xffffffffffffffffffffffffffffffffffffffff\n      and\n      dup2\n      mstore\n      0x20\n      add\n      0x01\n      dup3\n      add\n      dup1\n      sload\n      0x01\n      dup2\n      0x01\n      and\n      iszero\n      0x0100\n      mul\n      sub\n      and\n      0x02\n      swap1\n      div\n      dup1\n      0x1f\n      add\n      0x20\n      dup1\n      swap2\n      div\n      mul\n      0x20\n      add\n      mload(0x40)\n      swap1\n      dup2\n      add\n      0x40\n      mstore\n      dup1\n      swap3\n      swap2\n      swap1\n      dup2\n      dup2\n      mstore\n      0x20\n      add\n      dup3\n      dup1\n      sload\n      0x01\n      dup2\n      0x01\n      and\n      iszero\n      0x0100\n      mul\n      sub\n      and\n      0x02\n      swap1\n      div\n      dup1\n      iszero\n      tag_515\n      jumpi\n      dup1\n      0x1f\n      lt\n      tag_516\n      jumpi\n      0x0100\n      dup1\n      dup4\n      sload\n      div\n      mul\n      dup4\n      mstore\n      swap2\n      0x20\n      add\n      swap2\n      jump(tag_515)\n    tag_516:\n      dup3\n      add\n      swap2\n      swap1\n      0x00\n      mstore\n      keccak256(0x00, 0x20)\n      swap1\n    tag_517:\n      dup2\n      sload\n      dup2\n      mstore\n      swap1\n      0x01\n      add\n      swap1\n      0x20\n      add\n      dup1\n      dup4\n      gt\n      tag_517\n      jumpi\n      dup3\n      swap1\n      sub\n      0x1f\n      and\n      dup3\n      add\n      swap2\n    tag_515:\n      pop\n      pop\n      pop\n      pop\n      pop\n      dup2\n      mstore\n      0x20\n      add\n      0x02\n      dup3\n      add\n      0x00\n      swap1\n      sload\n      swap1\n      0x0100\n      exp\n      swap1\n      div\n      0xffffffffffffffffffffffffffffffffffffffff\n      and\n      0xffffffffffffffffffffffffffffffffffffffff\n      and\n      0xffffffffffffffffffffffffffffffffffffffff\n      and\n      dup2\n      mstore\n      0x20\n      add\n      0x02\n      dup3\n      add\n      0x14\n      swap1\n      sload\n      swap1\n      0x0100\n      exp\n      swap1\n      div\n      0xff\n      and\n      iszero\n      iszero\n      iszero\n      iszero\n      dup2\n      mstore\n      pop\n      pop\n      dup2\n      mstore\n      0x20\n      add\n      swap1\n      0x01\n      add\n      swap1\n      jump(tag_512)\n    tag_513:\n      pop\n      pop\n      pop\n      pop\n      swap3\n      pop\n        /* \"EHealth.sol\":6241:6380  function getAllDoctors() ... */\n      pop\n      pop\n      swap1\n      jump\t// out\n        /* \"EHealth.sol\":7407:7675  function FindSensor(uint _idSensor) internal view returns(uint){... */\n    tag_152:\n        /* \"EHealth.sol\":7465:7469  uint */\n      0x00\n        /* \"EHealth.sol\":7484:7490  uint i */\n      dup1\n        /* \"EHealth.sol\":7493:7494  0 */\n      0x00\n        /* \"EHealth.sol\":7484:7494  uint i = 0 */\n      swap1\n      pop\n        /* \"EHealth.sol\":7480:7633  for(uint i = 0 ; i < sensorsDoctor.length ; i++){... */\n    tag_519:\n        /* \"EHealth.sol\":7501:7514  sensorsDoctor */\n      0x09\n        /* \"EHealth.sol\":7501:7521  sensorsDoctor.length */\n      dup1\n      sload\n      swap1\n      pop\n        /* \"EHealth.sol\":7497:7498  i */\n      dup2\n        /* \"EHealth.sol\":7497:7521  i < sensorsDoctor.length */\n      lt\n        /* \"EHealth.sol\":7480:7633  for(uint i = 0 ; i < sensorsDoctor.length ; i++){... */\n      iszero\n      tag_520\n      jumpi\n        /* \"EHealth.sol\":7572:7581  _idSensor */\n      dup3\n        /* \"EHealth.sol\":7545:7558  sensorsDoctor */\n      0x09\n        /* \"EHealth.sol\":7559:7560  i */\n      dup3\n        /* \"EHealth.sol\":7545:7561  sensorsDoctor[i] */\n      dup2\n      sload\n      dup2\n      lt\n      tag_522\n      jumpi\n      invalid\n    tag_522:\n      swap1\n      0x00\n      mstore\n      keccak256(0x00, 0x20)\n      swap1\n      0x05\n      mul\n      add\n        /* \"EHealth.sol\":7545:7570  sensorsDoctor[i].idSensor */\n      0x00\n      add\n      sload\n        /* \"EHealth.sol\":7545:7581  sensorsDoctor[i].idSensor==_idSensor */\n      eq\n        /* \"EHealth.sol\":7542:7623  if(sensorsDoctor[i].idSensor==_idSensor){... */\n      iszero\n      tag_524\n      jumpi\n        /* \"EHealth.sol\":7607:7608  i */\n      dup1\n        /* \"EHealth.sol\":7600:7608  return i */\n      swap2\n      pop\n      pop\n      jump(tag_518)\n        /* \"EHealth.sol\":7542:7623  if(sensorsDoctor[i].idSensor==_idSensor){... */\n    tag_524:\n        /* \"EHealth.sol\":7524:7527  i++ */\n      dup1\n      dup1\n      0x01\n      add\n      swap2\n      pop\n      pop\n        /* \"EHealth.sol\":7480:7633  for(uint i = 0 ; i < sensorsDoctor.length ; i++){... */\n      jump(tag_519)\n    tag_520:\n      pop\n        /* \"EHealth.sol\":7642:7668  revert('Sensor not found') */\n      mload(0x40)\n      0x08c379a000000000000000000000000000000000000000000000000000000000\n      dup2\n      mstore\n      0x04\n      add\n      tag_525\n      swap1\n      tag_526\n      jump\t// in\n    tag_525:\n      mload(0x40)\n      dup1\n      swap2\n      sub\n      swap1\n      revert\n        /* \"EHealth.sol\":7407:7675  function FindSensor(uint _idSensor) internal view returns(uint){... */\n    tag_518:\n      swap2\n      swap1\n      pop\n      jump\t// out\n        /* \"EHealth.sol\":4651:4914  function FindDoctor(address _id) internal view returns(uint){... */\n    tag_169:\n        /* \"EHealth.sol\":4706:4710  uint */\n      0x00\n        /* \"EHealth.sol\":4725:4731  uint i */\n      dup1\n        /* \"EHealth.sol\":4734:4735  0 */\n      0x00\n        /* \"EHealth.sol\":4725:4735  uint i = 0 */\n      swap1\n      pop\n        /* \"EHealth.sol\":4721:4872  for(uint i = 0 ; i < doctorsHospital.length ; i++){... */\n    tag_528:\n        /* \"EHealth.sol\":4742:4757  doctorsHospital */\n      0x07\n        /* \"EHealth.sol\":4742:4764  doctorsHospital.length */\n      dup1\n      sload\n      swap1\n      pop\n        /* \"EHealth.sol\":4738:4739  i */\n      dup2\n        /* \"EHealth.sol\":4738:4764  i < doctorsHospital.length */\n      lt\n        /* \"EHealth.sol\":4721:4872  for(uint i = 0 ; i < doctorsHospital.length ; i++){... */\n      iszero\n      tag_529\n      jumpi\n        /* \"EHealth.sol\":4817:4820  _id */\n      dup3\n        /* \"EHealth.sol\":4788:4820  doctorsHospital[i].idDoctor==_id */\n      0xffffffffffffffffffffffffffffffffffffffff\n      and\n        /* \"EHealth.sol\":4788:4803  doctorsHospital */\n      0x07\n        /* \"EHealth.sol\":4804:4805  i */\n      dup3\n        /* \"EHealth.sol\":4788:4806  doctorsHospital[i] */\n      dup2\n      sload\n      dup2\n      lt\n      tag_531\n      jumpi\n      invalid\n    tag_531:\n      swap1\n      0x00\n      mstore\n      keccak256(0x00, 0x20)\n      swap1\n      0x03\n      mul\n      add\n        /* \"EHealth.sol\":4788:4815  doctorsHospital[i].idDoctor */\n      0x00\n      add\n      0x00\n      swap1\n      sload\n      swap1\n      0x0100\n      exp\n      swap1\n      div\n      0xffffffffffffffffffffffffffffffffffffffff\n      and\n        /* \"EHealth.sol\":4788:4820  doctorsHospital[i].idDoctor==_id */\n      0xffffffffffffffffffffffffffffffffffffffff\n      and\n      eq\n        /* \"EHealth.sol\":4785:4862  if(doctorsHospital[i].idDoctor==_id){... */\n      iszero\n      tag_533\n      jumpi\n        /* \"EHealth.sol\":4846:4847  i */\n      dup1\n        /* \"EHealth.sol\":4839:4847  return i */\n      swap2\n      pop\n      pop\n      jump(tag_527)\n        /* \"EHealth.sol\":4785:4862  if(doctorsHospital[i].idDoctor==_id){... */\n    tag_533:\n        /* \"EHealth.sol\":4767:4770  i++ */\n      dup1\n      dup1\n      0x01\n      add\n      swap2\n      pop\n      pop\n        /* \"EHealth.sol\":4721:4872  for(uint i = 0 ; i < doctorsHospital.length ; i++){... */\n      jump(tag_528)\n    tag_529:\n      pop\n        /* \"EHealth.sol\":4881:4907  revert('Doctor not found') */\n      mload(0x40)\n      0x08c379a000000000000000000000000000000000000000000000000000000000\n      dup2\n      mstore\n      0x04\n      add\n      tag_534\n      swap1\n      tag_535\n      jump\t// in\n    tag_534:\n      mload(0x40)\n      dup1\n      swap2\n      sub\n      swap1\n      revert\n        /* \"EHealth.sol\":4651:4914  function FindDoctor(address _id) internal view returns(uint){... */\n    tag_527:\n      swap2\n      swap1\n      pop\n      jump\t// out\n        /* \"EHealth.sol\":2326:2605  function FindHospital(address _address) internal view returns(uint){... */\n    tag_199:\n        /* \"EHealth.sol\":2388:2392  uint */\n      0x00\n        /* \"EHealth.sol\":2407:2413  uint i */\n      dup1\n        /* \"EHealth.sol\":2416:2417  0 */\n      0x00\n        /* \"EHealth.sol\":2407:2417  uint i = 0 */\n      swap1\n      pop\n        /* \"EHealth.sol\":2403:2561  for(uint i = 0 ; i < hospitalCenters.length ; i++){... */\n    tag_537:\n        /* \"EHealth.sol\":2424:2439  hospitalCenters */\n      0x05\n        /* \"EHealth.sol\":2424:2446  hospitalCenters.length */\n      dup1\n      sload\n      swap1\n      pop\n        /* \"EHealth.sol\":2420:2421  i */\n      dup2\n        /* \"EHealth.sol\":2420:2446  i < hospitalCenters.length */\n      lt\n        /* \"EHealth.sol\":2403:2561  for(uint i = 0 ; i < hospitalCenters.length ; i++){... */\n      iszero\n      tag_538\n      jumpi\n        /* \"EHealth.sol\":2501:2509  _address */\n      dup3\n        /* \"EHealth.sol\":2470:2509  hospitalCenters[i].idHospital==_address */\n      0xffffffffffffffffffffffffffffffffffffffff\n      and\n        /* \"EHealth.sol\":2470:2485  hospitalCenters */\n      0x05\n        /* \"EHealth.sol\":2486:2487  i */\n      dup3\n        /* \"EHealth.sol\":2470:2488  hospitalCenters[i] */\n      dup2\n      sload\n      dup2\n      lt\n      tag_540\n      jumpi\n      invalid\n    tag_540:\n      swap1\n      0x00\n      mstore\n      keccak256(0x00, 0x20)\n      swap1\n      0x05\n      mul\n      add\n        /* \"EHealth.sol\":2470:2499  hospitalCenters[i].idHospital */\n      0x00\n      add\n      0x00\n      swap1\n      sload\n      swap1\n      0x0100\n      exp\n      swap1\n      div\n      0xffffffffffffffffffffffffffffffffffffffff\n      and\n        /* \"EHealth.sol\":2470:2509  hospitalCenters[i].idHospital==_address */\n      0xffffffffffffffffffffffffffffffffffffffff\n      and\n      eq\n        /* \"EHealth.sol\":2467:2551  if(hospitalCenters[i].idHospital==_address){... */\n      iszero\n      tag_542\n      jumpi\n        /* \"EHealth.sol\":2535:2536  i */\n      dup1\n        /* \"EHealth.sol\":2528:2536  return i */\n      swap2\n      pop\n      pop\n      jump(tag_536)\n        /* \"EHealth.sol\":2467:2551  if(hospitalCenters[i].idHospital==_address){... */\n    tag_542:\n        /* \"EHealth.sol\":2449:2452  i++ */\n      dup1\n      dup1\n      0x01\n      add\n      swap2\n      pop\n      pop\n        /* \"EHealth.sol\":2403:2561  for(uint i = 0 ; i < hospitalCenters.length ; i++){... */\n      jump(tag_537)\n    tag_538:\n      pop\n        /* \"EHealth.sol\":2570:2598  revert('Hospital not found') */\n      mload(0x40)\n      0x08c379a000000000000000000000000000000000000000000000000000000000\n      dup2\n      mstore\n      0x04\n      add\n      tag_543\n      swap1\n      tag_544\n      jump\t// in\n    tag_543:\n      mload(0x40)\n      dup1\n      swap2\n      sub\n      swap1\n      revert\n        /* \"EHealth.sol\":2326:2605  function FindHospital(address _address) internal view returns(uint){... */\n    tag_536:\n      swap2\n      swap1\n      pop\n      jump\t// out\n    tag_178:\n      dup3\n      dup1\n      sload\n      0x01\n      dup2\n      0x01\n      and\n      iszero\n      0x0100\n      mul\n      sub\n      and\n      0x02\n      swap1\n      div\n      swap1\n      0x00\n      mstore\n      keccak256(0x00, 0x20)\n      swap1\n      0x1f\n      add\n      0x20\n      swap1\n      div\n      dup2\n      add\n      swap3\n      dup3\n      tag_546\n      jumpi\n      0x00\n      dup6\n      sstore\n      jump(tag_545)\n    tag_546:\n      dup3\n      0x1f\n      lt\n      tag_547\n      jumpi\n      dup1\n      mload\n      not(0xff)\n      and\n      dup4\n      dup1\n      add\n      or\n      dup6\n      sstore\n      jump(tag_545)\n    tag_547:\n      dup3\n      dup1\n      add\n      0x01\n      add\n      dup6\n      sstore\n      dup3\n      iszero\n      tag_545\n      jumpi\n      swap2\n      dup3\n      add\n    tag_548:\n      dup3\n      dup2\n      gt\n      iszero\n      tag_549\n      jumpi\n      dup3\n      mload\n      dup3\n      sstore\n      swap2\n      0x20\n      add\n      swap2\n      swap1\n      0x01\n      add\n      swap1\n      jump(tag_548)\n    tag_549:\n    tag_545:\n      pop\n      swap1\n      pop\n      tag_550\n      swap2\n      swap1\n      tag_551\n      jump\t// in\n    tag_550:\n      pop\n      swap1\n      jump\t// out\n    tag_181:\n      dup3\n      dup1\n      sload\n      dup3\n      dup3\n      sstore\n      swap1\n      0x00\n      mstore\n      keccak256(0x00, 0x20)\n      swap1\n      dup2\n      add\n      swap3\n      dup3\n      iszero\n      tag_552\n      jumpi\n      swap2\n      0x20\n      mul\n      dup3\n      add\n    tag_553:\n      dup3\n      dup2\n      gt\n      iszero\n      tag_554\n      jumpi\n      dup3\n      mload\n      dup3\n      sstore\n      swap2\n      0x20\n      add\n      swap2\n      swap1\n      0x01\n      add\n      swap1\n      jump(tag_553)\n    tag_554:\n    tag_552:\n      pop\n      swap1\n      pop\n      tag_555\n      swap2\n      swap1\n      tag_551\n      jump\t// in\n    tag_555:\n      pop\n      swap1\n      jump\t// out\n    tag_329:\n      mload(0x40)\n      dup1\n      0xc0\n      add\n      0x40\n      mstore\n      dup1\n      0x00\n      dup2\n      mstore\n      0x20\n      add\n      0x60\n      dup2\n      mstore\n      0x20\n      add\n      0x60\n      dup2\n      mstore\n      0x20\n      add\n      and(0xffffffffffffffffffffffffffffffffffffffff, 0x00)\n      dup2\n      mstore\n      0x20\n      add\n      iszero(iszero(0x00))\n      dup2\n      mstore\n      0x20\n      add\n      0x60\n      dup2\n      mstore\n      pop\n      swap1\n      jump\t// out\n    tag_450:\n      mload(0x40)\n      dup1\n      0x80\n      add\n      0x40\n      mstore\n      dup1\n      and(0xffffffffffffffffffffffffffffffffffffffff, 0x00)\n      dup2\n      mstore\n      0x20\n      add\n      0x60\n      dup2\n      mstore\n      0x20\n      add\n      and(0xffffffffffffffffffffffffffffffffffffffff, 0x00)\n      dup2\n      mstore\n      0x20\n      add\n      iszero(iszero(0x00))\n      dup2\n      mstore\n      pop\n      swap1\n      jump\t// out\n    tag_551:\n    tag_556:\n      dup1\n      dup3\n      gt\n      iszero\n      tag_557\n      jumpi\n      0x00\n      dup2\n      0x00\n      swap1\n      sstore\n      pop\n      0x01\n      add\n      jump(tag_556)\n    tag_557:\n      pop\n      swap1\n      jump\t// out\n        /* \"#utility.yul\":24:646   */\n    tag_559:\n      0x00\n        /* \"#utility.yul\":145:225   */\n      tag_561\n        /* \"#utility.yul\":160:224   */\n      tag_562\n        /* \"#utility.yul\":217:223   */\n      dup5\n        /* \"#utility.yul\":160:224   */\n      tag_563\n      jump\t// in\n    tag_562:\n        /* \"#utility.yul\":145:225   */\n      tag_564\n      jump\t// in\n    tag_561:\n        /* \"#utility.yul\":136:225   */\n      swap1\n      pop\n        /* \"#utility.yul\":245:250   */\n      dup1\n        /* \"#utility.yul\":273:279   */\n      dup4\n        /* \"#utility.yul\":266:271   */\n      dup3\n        /* \"#utility.yul\":259:280   */\n      mstore\n        /* \"#utility.yul\":299:303   */\n      0x20\n        /* \"#utility.yul\":292:297   */\n      dup3\n        /* \"#utility.yul\":288:304   */\n      add\n        /* \"#utility.yul\":281:304   */\n      swap1\n      pop\n        /* \"#utility.yul\":324:330   */\n      dup3\n        /* \"#utility.yul\":374:377   */\n      dup6\n        /* \"#utility.yul\":366:370   */\n      0x20\n        /* \"#utility.yul\":358:364   */\n      dup7\n        /* \"#utility.yul\":354:371   */\n      mul\n        /* \"#utility.yul\":349:352   */\n      dup3\n        /* \"#utility.yul\":345:372   */\n      add\n        /* \"#utility.yul\":342:378   */\n      gt\n        /* \"#utility.yul\":339:341   */\n      iszero\n      tag_565\n      jumpi\n        /* \"#utility.yul\":391:392   */\n      0x00\n        /* \"#utility.yul\":388:389   */\n      dup1\n        /* \"#utility.yul\":381:393   */\n      revert\n        /* \"#utility.yul\":339:341   */\n    tag_565:\n        /* \"#utility.yul\":419:420   */\n      0x00\n        /* \"#utility.yul\":404:640   */\n    tag_566:\n        /* \"#utility.yul\":429:435   */\n      dup6\n        /* \"#utility.yul\":426:427   */\n      dup2\n        /* \"#utility.yul\":423:436   */\n      lt\n        /* \"#utility.yul\":404:640   */\n      iszero\n      tag_568\n      jumpi\n        /* \"#utility.yul\":496:499   */\n      dup2\n        /* \"#utility.yul\":524:561   */\n      tag_569\n        /* \"#utility.yul\":557:560   */\n      dup9\n        /* \"#utility.yul\":545:555   */\n      dup3\n        /* \"#utility.yul\":524:561   */\n      tag_570\n      jump\t// in\n    tag_569:\n        /* \"#utility.yul\":519:522   */\n      dup5\n        /* \"#utility.yul\":512:562   */\n      mstore\n        /* \"#utility.yul\":591:595   */\n      0x20\n        /* \"#utility.yul\":586:589   */\n      dup5\n        /* \"#utility.yul\":582:596   */\n      add\n        /* \"#utility.yul\":575:596   */\n      swap4\n      pop\n        /* \"#utility.yul\":625:629   */\n      0x20\n        /* \"#utility.yul\":620:623   */\n      dup4\n        /* \"#utility.yul\":616:630   */\n      add\n        /* \"#utility.yul\":609:630   */\n      swap3\n      pop\n        /* \"#utility.yul\":464:640   */\n      pop\n        /* \"#utility.yul\":451:452   */\n      0x01\n        /* \"#utility.yul\":448:449   */\n      dup2\n        /* \"#utility.yul\":444:453   */\n      add\n        /* \"#utility.yul\":439:453   */\n      swap1\n      pop\n        /* \"#utility.yul\":404:640   */\n      jump(tag_566)\n    tag_568:\n        /* \"#utility.yul\":408:422   */\n      pop\n        /* \"#utility.yul\":126:646   */\n      pop\n      pop\n      swap4\n      swap3\n      pop\n      pop\n      pop\n      jump\t// out\n        /* \"#utility.yul\":652:996   */\n    tag_571:\n      0x00\n        /* \"#utility.yul\":755:820   */\n      tag_573\n        /* \"#utility.yul\":770:819   */\n      tag_574\n        /* \"#utility.yul\":812:818   */\n      dup5\n        /* \"#utility.yul\":770:819   */\n      tag_575\n      jump\t// in\n    tag_574:\n        /* \"#utility.yul\":755:820   */\n      tag_564\n      jump\t// in\n    tag_573:\n        /* \"#utility.yul\":746:820   */\n      swap1\n      pop\n        /* \"#utility.yul\":843:849   */\n      dup3\n        /* \"#utility.yul\":836:841   */\n      dup2\n        /* \"#utility.yul\":829:850   */\n      mstore\n        /* \"#utility.yul\":881:885   */\n      0x20\n        /* \"#utility.yul\":874:879   */\n      dup2\n        /* \"#utility.yul\":870:886   */\n      add\n        /* \"#utility.yul\":919:922   */\n      dup5\n        /* \"#utility.yul\":910:916   */\n      dup5\n        /* \"#utility.yul\":905:908   */\n      dup5\n        /* \"#utility.yul\":901:917   */\n      add\n        /* \"#utility.yul\":898:923   */\n      gt\n        /* \"#utility.yul\":895:897   */\n      iszero\n      tag_576\n      jumpi\n        /* \"#utility.yul\":936:937   */\n      0x00\n        /* \"#utility.yul\":933:934   */\n      dup1\n        /* \"#utility.yul\":926:938   */\n      revert\n        /* \"#utility.yul\":895:897   */\n    tag_576:\n        /* \"#utility.yul\":949:990   */\n      tag_577\n        /* \"#utility.yul\":983:989   */\n      dup5\n        /* \"#utility.yul\":978:981   */\n      dup3\n        /* \"#utility.yul\":973:976   */\n      dup6\n        /* \"#utility.yul\":949:990   */\n      tag_578\n      jump\t// in\n    tag_577:\n        /* \"#utility.yul\":736:996   */\n      pop\n      swap4\n      swap3\n      pop\n      pop\n      pop\n      jump\t// out\n        /* \"#utility.yul\":1002:1141   */\n    tag_579:\n      0x00\n        /* \"#utility.yul\":1086:1092   */\n      dup2\n        /* \"#utility.yul\":1073:1093   */\n      calldataload\n        /* \"#utility.yul\":1064:1093   */\n      swap1\n      pop\n        /* \"#utility.yul\":1102:1135   */\n      tag_581\n        /* \"#utility.yul\":1129:1134   */\n      dup2\n        /* \"#utility.yul\":1102:1135   */\n      tag_582\n      jump\t// in\n    tag_581:\n        /* \"#utility.yul\":1054:1141   */\n      swap3\n      swap2\n      pop\n      pop\n      jump\t// out\n        /* \"#utility.yul\":1164:1467   */\n    tag_583:\n      0x00\n        /* \"#utility.yul\":1284:1287   */\n      dup3\n        /* \"#utility.yul\":1277:1281   */\n      0x1f\n        /* \"#utility.yul\":1269:1275   */\n      dup4\n        /* \"#utility.yul\":1265:1282   */\n      add\n        /* \"#utility.yul\":1261:1288   */\n      slt\n        /* \"#utility.yul\":1251:1253   */\n      tag_585\n      jumpi\n        /* \"#utility.yul\":1302:1303   */\n      0x00\n        /* \"#utility.yul\":1299:1300   */\n      dup1\n        /* \"#utility.yul\":1292:1304   */\n      revert\n        /* \"#utility.yul\":1251:1253   */\n    tag_585:\n        /* \"#utility.yul\":1342:1348   */\n      dup2\n        /* \"#utility.yul\":1329:1349   */\n      calldataload\n        /* \"#utility.yul\":1367:1461   */\n      tag_586\n        /* \"#utility.yul\":1457:1460   */\n      dup5\n        /* \"#utility.yul\":1449:1455   */\n      dup3\n        /* \"#utility.yul\":1442:1446   */\n      0x20\n        /* \"#utility.yul\":1434:1440   */\n      dup7\n        /* \"#utility.yul\":1430:1447   */\n      add\n        /* \"#utility.yul\":1367:1461   */\n      tag_559\n      jump\t// in\n    tag_586:\n        /* \"#utility.yul\":1358:1461   */\n      swap2\n      pop\n        /* \"#utility.yul\":1241:1467   */\n      pop\n      swap3\n      swap2\n      pop\n      pop\n      jump\t// out\n        /* \"#utility.yul\":1473:1606   */\n    tag_587:\n      0x00\n        /* \"#utility.yul\":1554:1560   */\n      dup2\n        /* \"#utility.yul\":1541:1561   */\n      calldataload\n        /* \"#utility.yul\":1532:1561   */\n      swap1\n      pop\n        /* \"#utility.yul\":1570:1600   */\n      tag_589\n        /* \"#utility.yul\":1594:1599   */\n      dup2\n        /* \"#utility.yul\":1570:1600   */\n      tag_590\n      jump\t// in\n    tag_589:\n        /* \"#utility.yul\":1522:1606   */\n      swap3\n      swap2\n      pop\n      pop\n      jump\t// out\n        /* \"#utility.yul\":1626:1899   */\n    tag_591:\n      0x00\n        /* \"#utility.yul\":1731:1734   */\n      dup3\n        /* \"#utility.yul\":1724:1728   */\n      0x1f\n        /* \"#utility.yul\":1716:1722   */\n      dup4\n        /* \"#utility.yul\":1712:1729   */\n      add\n        /* \"#utility.yul\":1708:1735   */\n      slt\n        /* \"#utility.yul\":1698:1700   */\n      tag_593\n      jumpi\n        /* \"#utility.yul\":1749:1750   */\n      0x00\n        /* \"#utility.yul\":1746:1747   */\n      dup1\n        /* \"#utility.yul\":1739:1751   */\n      revert\n        /* \"#utility.yul\":1698:1700   */\n    tag_593:\n        /* \"#utility.yul\":1789:1795   */\n      dup2\n        /* \"#utility.yul\":1776:1796   */\n      calldataload\n        /* \"#utility.yul\":1814:1893   */\n      tag_594\n        /* \"#utility.yul\":1889:1892   */\n      dup5\n        /* \"#utility.yul\":1881:1887   */\n      dup3\n        /* \"#utility.yul\":1874:1878   */\n      0x20\n        /* \"#utility.yul\":1866:1872   */\n      dup7\n        /* \"#utility.yul\":1862:1879   */\n      add\n        /* \"#utility.yul\":1814:1893   */\n      tag_571\n      jump\t// in\n    tag_594:\n        /* \"#utility.yul\":1805:1893   */\n      swap2\n      pop\n        /* \"#utility.yul\":1688:1899   */\n      pop\n      swap3\n      swap2\n      pop\n      pop\n      jump\t// out\n        /* \"#utility.yul\":1905:2044   */\n    tag_570:\n      0x00\n        /* \"#utility.yul\":1989:1995   */\n      dup2\n        /* \"#utility.yul\":1976:1996   */\n      calldataload\n        /* \"#utility.yul\":1967:1996   */\n      swap1\n      pop\n        /* \"#utility.yul\":2005:2038   */\n      tag_596\n        /* \"#utility.yul\":2032:2037   */\n      dup2\n        /* \"#utility.yul\":2005:2038   */\n      tag_597\n      jump\t// in\n    tag_596:\n        /* \"#utility.yul\":1957:2044   */\n      swap3\n      swap2\n      pop\n      pop\n      jump\t// out\n        /* \"#utility.yul\":2050:2312   */\n    tag_50:\n      0x00\n        /* \"#utility.yul\":2158:2160   */\n      0x20\n        /* \"#utility.yul\":2146:2155   */\n      dup3\n        /* \"#utility.yul\":2137:2144   */\n      dup5\n        /* \"#utility.yul\":2133:2156   */\n      sub\n        /* \"#utility.yul\":2129:2161   */\n      slt\n        /* \"#utility.yul\":2126:2128   */\n      iszero\n      tag_599\n      jumpi\n        /* \"#utility.yul\":2174:2175   */\n      0x00\n        /* \"#utility.yul\":2171:2172   */\n      dup1\n        /* \"#utility.yul\":2164:2176   */\n      revert\n        /* \"#utility.yul\":2126:2128   */\n    tag_599:\n        /* \"#utility.yul\":2217:2218   */\n      0x00\n        /* \"#utility.yul\":2242:2295   */\n      tag_600\n        /* \"#utility.yul\":2287:2294   */\n      dup5\n        /* \"#utility.yul\":2278:2284   */\n      dup3\n        /* \"#utility.yul\":2267:2276   */\n      dup6\n        /* \"#utility.yul\":2263:2285   */\n      add\n        /* \"#utility.yul\":2242:2295   */\n      tag_579\n      jump\t// in\n    tag_600:\n        /* \"#utility.yul\":2232:2295   */\n      swap2\n      pop\n        /* \"#utility.yul\":2188:2305   */\n      pop\n        /* \"#utility.yul\":2116:2312   */\n      swap3\n      swap2\n      pop\n      pop\n      jump\t// out\n        /* \"#utility.yul\":2318:2983   */\n    tag_136:\n      0x00\n      dup1\n      0x00\n        /* \"#utility.yul\":2470:2472   */\n      0x60\n        /* \"#utility.yul\":2458:2467   */\n      dup5\n        /* \"#utility.yul\":2449:2456   */\n      dup7\n        /* \"#utility.yul\":2445:2468   */\n      sub\n        /* \"#utility.yul\":2441:2473   */\n      slt\n        /* \"#utility.yul\":2438:2440   */\n      iszero\n      tag_602\n      jumpi\n        /* \"#utility.yul\":2486:2487   */\n      0x00\n        /* \"#utility.yul\":2483:2484   */\n      dup1\n        /* \"#utility.yul\":2476:2488   */\n      revert\n        /* \"#utility.yul\":2438:2440   */\n    tag_602:\n        /* \"#utility.yul\":2529:2530   */\n      0x00\n        /* \"#utility.yul\":2554:2607   */\n      tag_603\n        /* \"#utility.yul\":2599:2606   */\n      dup7\n        /* \"#utility.yul\":2590:2596   */\n      dup3\n        /* \"#utility.yul\":2579:2588   */\n      dup8\n        /* \"#utility.yul\":2575:2597   */\n      add\n        /* \"#utility.yul\":2554:2607   */\n      tag_579\n      jump\t// in\n    tag_603:\n        /* \"#utility.yul\":2544:2607   */\n      swap4\n      pop\n        /* \"#utility.yul\":2500:2617   */\n      pop\n        /* \"#utility.yul\":2684:2686   */\n      0x20\n        /* \"#utility.yul\":2673:2682   */\n      dup5\n        /* \"#utility.yul\":2669:2687   */\n      add\n        /* \"#utility.yul\":2656:2688   */\n      calldataload\n        /* \"#utility.yul\":2715:2733   */\n      0xffffffffffffffff\n        /* \"#utility.yul\":2707:2713   */\n      dup2\n        /* \"#utility.yul\":2704:2734   */\n      gt\n        /* \"#utility.yul\":2701:2703   */\n      iszero\n      tag_604\n      jumpi\n        /* \"#utility.yul\":2747:2748   */\n      0x00\n        /* \"#utility.yul\":2744:2745   */\n      dup1\n        /* \"#utility.yul\":2737:2749   */\n      revert\n        /* \"#utility.yul\":2701:2703   */\n    tag_604:\n        /* \"#utility.yul\":2775:2838   */\n      tag_605\n        /* \"#utility.yul\":2830:2837   */\n      dup7\n        /* \"#utility.yul\":2821:2827   */\n      dup3\n        /* \"#utility.yul\":2810:2819   */\n      dup8\n        /* \"#utility.yul\":2806:2828   */\n      add\n        /* \"#utility.yul\":2775:2838   */\n      tag_591\n      jump\t// in\n    tag_605:\n        /* \"#utility.yul\":2765:2838   */\n      swap3\n      pop\n        /* \"#utility.yul\":2627:2848   */\n      pop\n        /* \"#utility.yul\":2887:2889   */\n      0x40\n        /* \"#utility.yul\":2913:2966   */\n      tag_606\n        /* \"#utility.yul\":2958:2965   */\n      dup7\n        /* \"#utility.yul\":2949:2955   */\n      dup3\n        /* \"#utility.yul\":2938:2947   */\n      dup8\n        /* \"#utility.yul\":2934:2956   */\n      add\n        /* \"#utility.yul\":2913:2966   */\n      tag_579\n      jump\t// in\n    tag_606:\n        /* \"#utility.yul\":2903:2966   */\n      swap2\n      pop\n        /* \"#utility.yul\":2858:2976   */\n      pop\n        /* \"#utility.yul\":2428:2983   */\n      swap3\n      pop\n      swap3\n      pop\n      swap3\n      jump\t// out\n        /* \"#utility.yul\":2989:3794   */\n    tag_62:\n      0x00\n      dup1\n      0x00\n      dup1\n        /* \"#utility.yul\":3155:3158   */\n      0x80\n        /* \"#utility.yul\":3143:3152   */\n      dup6\n        /* \"#utility.yul\":3134:3141   */\n      dup8\n        /* \"#utility.yul\":3130:3153   */\n      sub\n        /* \"#utility.yul\":3126:3159   */\n      slt\n        /* \"#utility.yul\":3123:3125   */\n      iszero\n      tag_608\n      jumpi\n        /* \"#utility.yul\":3172:3173   */\n      0x00\n        /* \"#utility.yul\":3169:3170   */\n      dup1\n        /* \"#utility.yul\":3162:3174   */\n      revert\n        /* \"#utility.yul\":3123:3125   */\n    tag_608:\n        /* \"#utility.yul\":3215:3216   */\n      0x00\n        /* \"#utility.yul\":3240:3293   */\n      tag_609\n        /* \"#utility.yul\":3285:3292   */\n      dup8\n        /* \"#utility.yul\":3276:3282   */\n      dup3\n        /* \"#utility.yul\":3265:3274   */\n      dup9\n        /* \"#utility.yul\":3261:3283   */\n      add\n        /* \"#utility.yul\":3240:3293   */\n      tag_579\n      jump\t// in\n    tag_609:\n        /* \"#utility.yul\":3230:3293   */\n      swap5\n      pop\n        /* \"#utility.yul\":3186:3303   */\n      pop\n        /* \"#utility.yul\":3370:3372   */\n      0x20\n        /* \"#utility.yul\":3359:3368   */\n      dup6\n        /* \"#utility.yul\":3355:3373   */\n      add\n        /* \"#utility.yul\":3342:3374   */\n      calldataload\n        /* \"#utility.yul\":3401:3419   */\n      0xffffffffffffffff\n        /* \"#utility.yul\":3393:3399   */\n      dup2\n        /* \"#utility.yul\":3390:3420   */\n      gt\n        /* \"#utility.yul\":3387:3389   */\n      iszero\n      tag_610\n      jumpi\n        /* \"#utility.yul\":3433:3434   */\n      0x00\n        /* \"#utility.yul\":3430:3431   */\n      dup1\n        /* \"#utility.yul\":3423:3435   */\n      revert\n        /* \"#utility.yul\":3387:3389   */\n    tag_610:\n        /* \"#utility.yul\":3461:3524   */\n      tag_611\n        /* \"#utility.yul\":3516:3523   */\n      dup8\n        /* \"#utility.yul\":3507:3513   */\n      dup3\n        /* \"#utility.yul\":3496:3505   */\n      dup9\n        /* \"#utility.yul\":3492:3514   */\n      add\n        /* \"#utility.yul\":3461:3524   */\n      tag_591\n      jump\t// in\n    tag_611:\n        /* \"#utility.yul\":3451:3524   */\n      swap4\n      pop\n        /* \"#utility.yul\":3313:3534   */\n      pop\n        /* \"#utility.yul\":3573:3575   */\n      0x40\n        /* \"#utility.yul\":3599:3652   */\n      tag_612\n        /* \"#utility.yul\":3644:3651   */\n      dup8\n        /* \"#utility.yul\":3635:3641   */\n      dup3\n        /* \"#utility.yul\":3624:3633   */\n      dup9\n        /* \"#utility.yul\":3620:3642   */\n      add\n        /* \"#utility.yul\":3599:3652   */\n      tag_579\n      jump\t// in\n    tag_612:\n        /* \"#utility.yul\":3589:3652   */\n      swap3\n      pop\n        /* \"#utility.yul\":3544:3662   */\n      pop\n        /* \"#utility.yul\":3701:3703   */\n      0x60\n        /* \"#utility.yul\":3727:3777   */\n      tag_613\n        /* \"#utility.yul\":3769:3776   */\n      dup8\n        /* \"#utility.yul\":3760:3766   */\n      dup3\n        /* \"#utility.yul\":3749:3758   */\n      dup9\n        /* \"#utility.yul\":3745:3767   */\n      add\n        /* \"#utility.yul\":3727:3777   */\n      tag_587\n      jump\t// in\n    tag_613:\n        /* \"#utility.yul\":3717:3777   */\n      swap2\n      pop\n        /* \"#utility.yul\":3672:3787   */\n      pop\n        /* \"#utility.yul\":3113:3794   */\n      swap3\n      swap6\n      swap2\n      swap5\n      pop\n      swap3\n      pop\n      jump\t// out\n        /* \"#utility.yul\":3800:4837   */\n    tag_106:\n      0x00\n      dup1\n      0x00\n      dup1\n        /* \"#utility.yul\":3989:3992   */\n      0x80\n        /* \"#utility.yul\":3977:3986   */\n      dup6\n        /* \"#utility.yul\":3968:3975   */\n      dup8\n        /* \"#utility.yul\":3964:3987   */\n      sub\n        /* \"#utility.yul\":3960:3993   */\n      slt\n        /* \"#utility.yul\":3957:3959   */\n      iszero\n      tag_615\n      jumpi\n        /* \"#utility.yul\":4006:4007   */\n      0x00\n        /* \"#utility.yul\":4003:4004   */\n      dup1\n        /* \"#utility.yul\":3996:4008   */\n      revert\n        /* \"#utility.yul\":3957:3959   */\n    tag_615:\n        /* \"#utility.yul\":4049:4050   */\n      0x00\n        /* \"#utility.yul\":4074:4127   */\n      tag_616\n        /* \"#utility.yul\":4119:4126   */\n      dup8\n        /* \"#utility.yul\":4110:4116   */\n      dup3\n        /* \"#utility.yul\":4099:4108   */\n      dup9\n        /* \"#utility.yul\":4095:4117   */\n      add\n        /* \"#utility.yul\":4074:4127   */\n      tag_579\n      jump\t// in\n    tag_616:\n        /* \"#utility.yul\":4064:4127   */\n      swap5\n      pop\n        /* \"#utility.yul\":4020:4137   */\n      pop\n        /* \"#utility.yul\":4204:4206   */\n      0x20\n        /* \"#utility.yul\":4193:4202   */\n      dup6\n        /* \"#utility.yul\":4189:4207   */\n      add\n        /* \"#utility.yul\":4176:4208   */\n      calldataload\n        /* \"#utility.yul\":4235:4253   */\n      0xffffffffffffffff\n        /* \"#utility.yul\":4227:4233   */\n      dup2\n        /* \"#utility.yul\":4224:4254   */\n      gt\n        /* \"#utility.yul\":4221:4223   */\n      iszero\n      tag_617\n      jumpi\n        /* \"#utility.yul\":4267:4268   */\n      0x00\n        /* \"#utility.yul\":4264:4265   */\n      dup1\n        /* \"#utility.yul\":4257:4269   */\n      revert\n        /* \"#utility.yul\":4221:4223   */\n    tag_617:\n        /* \"#utility.yul\":4295:4358   */\n      tag_618\n        /* \"#utility.yul\":4350:4357   */\n      dup8\n        /* \"#utility.yul\":4341:4347   */\n      dup3\n        /* \"#utility.yul\":4330:4339   */\n      dup9\n        /* \"#utility.yul\":4326:4348   */\n      add\n        /* \"#utility.yul\":4295:4358   */\n      tag_591\n      jump\t// in\n    tag_618:\n        /* \"#utility.yul\":4285:4358   */\n      swap4\n      pop\n        /* \"#utility.yul\":4147:4368   */\n      pop\n        /* \"#utility.yul\":4435:4437   */\n      0x40\n        /* \"#utility.yul\":4424:4433   */\n      dup6\n        /* \"#utility.yul\":4420:4438   */\n      add\n        /* \"#utility.yul\":4407:4439   */\n      calldataload\n        /* \"#utility.yul\":4466:4484   */\n      0xffffffffffffffff\n        /* \"#utility.yul\":4458:4464   */\n      dup2\n        /* \"#utility.yul\":4455:4485   */\n      gt\n        /* \"#utility.yul\":4452:4454   */\n      iszero\n      tag_619\n      jumpi\n        /* \"#utility.yul\":4498:4499   */\n      0x00\n        /* \"#utility.yul\":4495:4496   */\n      dup1\n        /* \"#utility.yul\":4488:4500   */\n      revert\n        /* \"#utility.yul\":4452:4454   */\n    tag_619:\n        /* \"#utility.yul\":4526:4589   */\n      tag_620\n        /* \"#utility.yul\":4581:4588   */\n      dup8\n        /* \"#utility.yul\":4572:4578   */\n      dup3\n        /* \"#utility.yul\":4561:4570   */\n      dup9\n        /* \"#utility.yul\":4557:4579   */\n      add\n        /* \"#utility.yul\":4526:4589   */\n      tag_591\n      jump\t// in\n    tag_620:\n        /* \"#utility.yul\":4516:4589   */\n      swap3\n      pop\n        /* \"#utility.yul\":4378:4599   */\n      pop\n        /* \"#utility.yul\":4666:4668   */\n      0x60\n        /* \"#utility.yul\":4655:4664   */\n      dup6\n        /* \"#utility.yul\":4651:4669   */\n      add\n        /* \"#utility.yul\":4638:4670   */\n      calldataload\n        /* \"#utility.yul\":4697:4715   */\n      0xffffffffffffffff\n        /* \"#utility.yul\":4689:4695   */\n      dup2\n        /* \"#utility.yul\":4686:4716   */\n      gt\n        /* \"#utility.yul\":4683:4685   */\n      iszero\n      tag_621\n      jumpi\n        /* \"#utility.yul\":4729:4730   */\n      0x00\n        /* \"#utility.yul\":4726:4727   */\n      dup1\n        /* \"#utility.yul\":4719:4731   */\n      revert\n        /* \"#utility.yul\":4683:4685   */\n    tag_621:\n        /* \"#utility.yul\":4757:4820   */\n      tag_622\n        /* \"#utility.yul\":4812:4819   */\n      dup8\n        /* \"#utility.yul\":4803:4809   */\n      dup3\n        /* \"#utility.yul\":4792:4801   */\n      dup9\n        /* \"#utility.yul\":4788:4810   */\n      add\n        /* \"#utility.yul\":4757:4820   */\n      tag_591\n      jump\t// in\n    tag_622:\n        /* \"#utility.yul\":4747:4820   */\n      swap2\n      pop\n        /* \"#utility.yul\":4609:4830   */\n      pop\n        /* \"#utility.yul\":3947:4837   */\n      swap3\n      swap6\n      swap2\n      swap5\n      pop\n      swap3\n      pop\n      jump\t// out\n        /* \"#utility.yul\":4843:6020   */\n    tag_102:\n      0x00\n      dup1\n      0x00\n      dup1\n      0x00\n        /* \"#utility.yul\":5046:5049   */\n      0xa0\n        /* \"#utility.yul\":5034:5043   */\n      dup7\n        /* \"#utility.yul\":5025:5032   */\n      dup9\n        /* \"#utility.yul\":5021:5044   */\n      sub\n        /* \"#utility.yul\":5017:5050   */\n      slt\n        /* \"#utility.yul\":5014:5016   */\n      iszero\n      tag_624\n      jumpi\n        /* \"#utility.yul\":5063:5064   */\n      0x00\n        /* \"#utility.yul\":5060:5061   */\n      dup1\n        /* \"#utility.yul\":5053:5065   */\n      revert\n        /* \"#utility.yul\":5014:5016   */\n    tag_624:\n        /* \"#utility.yul\":5106:5107   */\n      0x00\n        /* \"#utility.yul\":5131:5184   */\n      tag_625\n        /* \"#utility.yul\":5176:5183   */\n      dup9\n        /* \"#utility.yul\":5167:5173   */\n      dup3\n        /* \"#utility.yul\":5156:5165   */\n      dup10\n        /* \"#utility.yul\":5152:5174   */\n      add\n        /* \"#utility.yul\":5131:5184   */\n      tag_579\n      jump\t// in\n    tag_625:\n        /* \"#utility.yul\":5121:5184   */\n      swap6\n      pop\n        /* \"#utility.yul\":5077:5194   */\n      pop\n        /* \"#utility.yul\":5261:5263   */\n      0x20\n        /* \"#utility.yul\":5250:5259   */\n      dup7\n        /* \"#utility.yul\":5246:5264   */\n      add\n        /* \"#utility.yul\":5233:5265   */\n      calldataload\n        /* \"#utility.yul\":5292:5310   */\n      0xffffffffffffffff\n        /* \"#utility.yul\":5284:5290   */\n      dup2\n        /* \"#utility.yul\":5281:5311   */\n      gt\n        /* \"#utility.yul\":5278:5280   */\n      iszero\n      tag_626\n      jumpi\n        /* \"#utility.yul\":5324:5325   */\n      0x00\n        /* \"#utility.yul\":5321:5322   */\n      dup1\n        /* \"#utility.yul\":5314:5326   */\n      revert\n        /* \"#utility.yul\":5278:5280   */\n    tag_626:\n        /* \"#utility.yul\":5352:5415   */\n      tag_627\n        /* \"#utility.yul\":5407:5414   */\n      dup9\n        /* \"#utility.yul\":5398:5404   */\n      dup3\n        /* \"#utility.yul\":5387:5396   */\n      dup10\n        /* \"#utility.yul\":5383:5405   */\n      add\n        /* \"#utility.yul\":5352:5415   */\n      tag_591\n      jump\t// in\n    tag_627:\n        /* \"#utility.yul\":5342:5415   */\n      swap5\n      pop\n        /* \"#utility.yul\":5204:5425   */\n      pop\n        /* \"#utility.yul\":5492:5494   */\n      0x40\n        /* \"#utility.yul\":5481:5490   */\n      dup7\n        /* \"#utility.yul\":5477:5495   */\n      add\n        /* \"#utility.yul\":5464:5496   */\n      calldataload\n        /* \"#utility.yul\":5523:5541   */\n      0xffffffffffffffff\n        /* \"#utility.yul\":5515:5521   */\n      dup2\n        /* \"#utility.yul\":5512:5542   */\n      gt\n        /* \"#utility.yul\":5509:5511   */\n      iszero\n      tag_628\n      jumpi\n        /* \"#utility.yul\":5555:5556   */\n      0x00\n        /* \"#utility.yul\":5552:5553   */\n      dup1\n        /* \"#utility.yul\":5545:5557   */\n      revert\n        /* \"#utility.yul\":5509:5511   */\n    tag_628:\n        /* \"#utility.yul\":5583:5646   */\n      tag_629\n        /* \"#utility.yul\":5638:5645   */\n      dup9\n        /* \"#utility.yul\":5629:5635   */\n      dup3\n        /* \"#utility.yul\":5618:5627   */\n      dup10\n        /* \"#utility.yul\":5614:5636   */\n      add\n        /* \"#utility.yul\":5583:5646   */\n      tag_591\n      jump\t// in\n    tag_629:\n        /* \"#utility.yul\":5573:5646   */\n      swap4\n      pop\n        /* \"#utility.yul\":5435:5656   */\n      pop\n        /* \"#utility.yul\":5723:5725   */\n      0x60\n        /* \"#utility.yul\":5712:5721   */\n      dup7\n        /* \"#utility.yul\":5708:5726   */\n      add\n        /* \"#utility.yul\":5695:5727   */\n      calldataload\n        /* \"#utility.yul\":5754:5772   */\n      0xffffffffffffffff\n        /* \"#utility.yul\":5746:5752   */\n      dup2\n        /* \"#utility.yul\":5743:5773   */\n      gt\n        /* \"#utility.yul\":5740:5742   */\n      iszero\n      tag_630\n      jumpi\n        /* \"#utility.yul\":5786:5787   */\n      0x00\n        /* \"#utility.yul\":5783:5784   */\n      dup1\n        /* \"#utility.yul\":5776:5788   */\n      revert\n        /* \"#utility.yul\":5740:5742   */\n    tag_630:\n        /* \"#utility.yul\":5814:5877   */\n      tag_631\n        /* \"#utility.yul\":5869:5876   */\n      dup9\n        /* \"#utility.yul\":5860:5866   */\n      dup3\n        /* \"#utility.yul\":5849:5858   */\n      dup10\n        /* \"#utility.yul\":5845:5867   */\n      add\n        /* \"#utility.yul\":5814:5877   */\n      tag_591\n      jump\t// in\n    tag_631:\n        /* \"#utility.yul\":5804:5877   */\n      swap3\n      pop\n        /* \"#utility.yul\":5666:5887   */\n      pop\n        /* \"#utility.yul\":5926:5929   */\n      0x80\n        /* \"#utility.yul\":5953:6003   */\n      tag_632\n        /* \"#utility.yul\":5995:6002   */\n      dup9\n        /* \"#utility.yul\":5986:5992   */\n      dup3\n        /* \"#utility.yul\":5975:5984   */\n      dup10\n        /* \"#utility.yul\":5971:5993   */\n      add\n        /* \"#utility.yul\":5953:6003   */\n      tag_587\n      jump\t// in\n    tag_632:\n        /* \"#utility.yul\":5943:6003   */\n      swap2\n      pop\n        /* \"#utility.yul\":5897:6013   */\n      pop\n        /* \"#utility.yul\":5004:6020   */\n      swap3\n      swap6\n      pop\n      swap3\n      swap6\n      swap1\n      swap4\n      pop\n      jump\t// out\n        /* \"#utility.yul\":6026:6944   */\n    tag_42:\n      0x00\n      dup1\n      0x00\n      dup1\n        /* \"#utility.yul\":6202:6205   */\n      0x80\n        /* \"#utility.yul\":6190:6199   */\n      dup6\n        /* \"#utility.yul\":6181:6188   */\n      dup8\n        /* \"#utility.yul\":6177:6200   */\n      sub\n        /* \"#utility.yul\":6173:6206   */\n      slt\n        /* \"#utility.yul\":6170:6172   */\n      iszero\n      tag_634\n      jumpi\n        /* \"#utility.yul\":6219:6220   */\n      0x00\n        /* \"#utility.yul\":6216:6217   */\n      dup1\n        /* \"#utility.yul\":6209:6221   */\n      revert\n        /* \"#utility.yul\":6170:6172   */\n    tag_634:\n        /* \"#utility.yul\":6290:6291   */\n      0x00\n        /* \"#utility.yul\":6279:6288   */\n      dup6\n        /* \"#utility.yul\":6275:6292   */\n      add\n        /* \"#utility.yul\":6262:6293   */\n      calldataload\n        /* \"#utility.yul\":6320:6338   */\n      0xffffffffffffffff\n        /* \"#utility.yul\":6312:6318   */\n      dup2\n        /* \"#utility.yul\":6309:6339   */\n      gt\n        /* \"#utility.yul\":6306:6308   */\n      iszero\n      tag_635\n      jumpi\n        /* \"#utility.yul\":6352:6353   */\n      0x00\n        /* \"#utility.yul\":6349:6350   */\n      dup1\n        /* \"#utility.yul\":6342:6354   */\n      revert\n        /* \"#utility.yul\":6306:6308   */\n    tag_635:\n        /* \"#utility.yul\":6380:6443   */\n      tag_636\n        /* \"#utility.yul\":6435:6442   */\n      dup8\n        /* \"#utility.yul\":6426:6432   */\n      dup3\n        /* \"#utility.yul\":6415:6424   */\n      dup9\n        /* \"#utility.yul\":6411:6433   */\n      add\n        /* \"#utility.yul\":6380:6443   */\n      tag_591\n      jump\t// in\n    tag_636:\n        /* \"#utility.yul\":6370:6443   */\n      swap5\n      pop\n        /* \"#utility.yul\":6233:6453   */\n      pop\n        /* \"#utility.yul\":6520:6522   */\n      0x20\n        /* \"#utility.yul\":6509:6518   */\n      dup6\n        /* \"#utility.yul\":6505:6523   */\n      add\n        /* \"#utility.yul\":6492:6524   */\n      calldataload\n        /* \"#utility.yul\":6551:6569   */\n      0xffffffffffffffff\n        /* \"#utility.yul\":6543:6549   */\n      dup2\n        /* \"#utility.yul\":6540:6570   */\n      gt\n        /* \"#utility.yul\":6537:6539   */\n      iszero\n      tag_637\n      jumpi\n        /* \"#utility.yul\":6583:6584   */\n      0x00\n        /* \"#utility.yul\":6580:6581   */\n      dup1\n        /* \"#utility.yul\":6573:6585   */\n      revert\n        /* \"#utility.yul\":6537:6539   */\n    tag_637:\n        /* \"#utility.yul\":6611:6674   */\n      tag_638\n        /* \"#utility.yul\":6666:6673   */\n      dup8\n        /* \"#utility.yul\":6657:6663   */\n      dup3\n        /* \"#utility.yul\":6646:6655   */\n      dup9\n        /* \"#utility.yul\":6642:6664   */\n      add\n        /* \"#utility.yul\":6611:6674   */\n      tag_591\n      jump\t// in\n    tag_638:\n        /* \"#utility.yul\":6601:6674   */\n      swap4\n      pop\n        /* \"#utility.yul\":6463:6684   */\n      pop\n        /* \"#utility.yul\":6723:6725   */\n      0x40\n        /* \"#utility.yul\":6749:6802   */\n      tag_639\n        /* \"#utility.yul\":6794:6801   */\n      dup8\n        /* \"#utility.yul\":6785:6791   */\n      dup3\n        /* \"#utility.yul\":6774:6783   */\n      dup9\n        /* \"#utility.yul\":6770:6792   */\n      add\n        /* \"#utility.yul\":6749:6802   */\n      tag_579\n      jump\t// in\n    tag_639:\n        /* \"#utility.yul\":6739:6802   */\n      swap3\n      pop\n        /* \"#utility.yul\":6694:6812   */\n      pop\n        /* \"#utility.yul\":6851:6853   */\n      0x60\n        /* \"#utility.yul\":6877:6927   */\n      tag_640\n        /* \"#utility.yul\":6919:6926   */\n      dup8\n        /* \"#utility.yul\":6910:6916   */\n      dup3\n        /* \"#utility.yul\":6899:6908   */\n      dup9\n        /* \"#utility.yul\":6895:6917   */\n      add\n        /* \"#utility.yul\":6877:6927   */\n      tag_587\n      jump\t// in\n    tag_640:\n        /* \"#utility.yul\":6867:6927   */\n      swap2\n      pop\n        /* \"#utility.yul\":6822:6937   */\n      pop\n        /* \"#utility.yul\":6160:6944   */\n      swap3\n      swap6\n      swap2\n      swap5\n      pop\n      swap3\n      pop\n      jump\t// out\n        /* \"#utility.yul\":6950:7212   */\n    tag_36:\n      0x00\n        /* \"#utility.yul\":7058:7060   */\n      0x20\n        /* \"#utility.yul\":7046:7055   */\n      dup3\n        /* \"#utility.yul\":7037:7044   */\n      dup5\n        /* \"#utility.yul\":7033:7056   */\n      sub\n        /* \"#utility.yul\":7029:7061   */\n      slt\n        /* \"#utility.yul\":7026:7028   */\n      iszero\n      tag_642\n      jumpi\n        /* \"#utility.yul\":7074:7075   */\n      0x00\n        /* \"#utility.yul\":7071:7072   */\n      dup1\n        /* \"#utility.yul\":7064:7076   */\n      revert\n        /* \"#utility.yul\":7026:7028   */\n    tag_642:\n        /* \"#utility.yul\":7117:7118   */\n      0x00\n        /* \"#utility.yul\":7142:7195   */\n      tag_643\n        /* \"#utility.yul\":7187:7194   */\n      dup5\n        /* \"#utility.yul\":7178:7184   */\n      dup3\n        /* \"#utility.yul\":7167:7176   */\n      dup6\n        /* \"#utility.yul\":7163:7185   */\n      add\n        /* \"#utility.yul\":7142:7195   */\n      tag_570\n      jump\t// in\n    tag_643:\n        /* \"#utility.yul\":7132:7195   */\n      swap2\n      pop\n        /* \"#utility.yul\":7088:7205   */\n      pop\n        /* \"#utility.yul\":7016:7212   */\n      swap3\n      swap2\n      pop\n      pop\n      jump\t// out\n        /* \"#utility.yul\":7218:7625   */\n    tag_114:\n      0x00\n      dup1\n        /* \"#utility.yul\":7343:7345   */\n      0x40\n        /* \"#utility.yul\":7331:7340   */\n      dup4\n        /* \"#utility.yul\":7322:7329   */\n      dup6\n        /* \"#utility.yul\":7318:7341   */\n      sub\n        /* \"#utility.yul\":7314:7346   */\n      slt\n        /* \"#utility.yul\":7311:7313   */\n      iszero\n      tag_645\n      jumpi\n        /* \"#utility.yul\":7359:7360   */\n      0x00\n        /* \"#utility.yul\":7356:7357   */\n      dup1\n        /* \"#utility.yul\":7349:7361   */\n      revert\n        /* \"#utility.yul\":7311:7313   */\n    tag_645:\n        /* \"#utility.yul\":7402:7403   */\n      0x00\n        /* \"#utility.yul\":7427:7480   */\n      tag_646\n        /* \"#utility.yul\":7472:7479   */\n      dup6\n        /* \"#utility.yul\":7463:7469   */\n      dup3\n        /* \"#utility.yul\":7452:7461   */\n      dup7\n        /* \"#utility.yul\":7448:7470   */\n      add\n        /* \"#utility.yul\":7427:7480   */\n      tag_570\n      jump\t// in\n    tag_646:\n        /* \"#utility.yul\":7417:7480   */\n      swap3\n      pop\n        /* \"#utility.yul\":7373:7490   */\n      pop\n        /* \"#utility.yul\":7529:7531   */\n      0x20\n        /* \"#utility.yul\":7555:7608   */\n      tag_647\n        /* \"#utility.yul\":7600:7607   */\n      dup6\n        /* \"#utility.yul\":7591:7597   */\n      dup3\n        /* \"#utility.yul\":7580:7589   */\n      dup7\n        /* \"#utility.yul\":7576:7598   */\n      add\n        /* \"#utility.yul\":7555:7608   */\n      tag_579\n      jump\t// in\n    tag_647:\n        /* \"#utility.yul\":7545:7608   */\n      swap2\n      pop\n        /* \"#utility.yul\":7500:7618   */\n      pop\n        /* \"#utility.yul\":7301:7625   */\n      swap3\n      pop\n      swap3\n      swap1\n      pop\n      jump\t// out\n        /* \"#utility.yul\":7631:8181   */\n    tag_46:\n      0x00\n      dup1\n        /* \"#utility.yul\":7781:7783   */\n      0x40\n        /* \"#utility.yul\":7769:7778   */\n      dup4\n        /* \"#utility.yul\":7760:7767   */\n      dup6\n        /* \"#utility.yul\":7756:7779   */\n      sub\n        /* \"#utility.yul\":7752:7784   */\n      slt\n        /* \"#utility.yul\":7749:7751   */\n      iszero\n      tag_649\n      jumpi\n        /* \"#utility.yul\":7797:7798   */\n      0x00\n        /* \"#utility.yul\":7794:7795   */\n      dup1\n        /* \"#utility.yul\":7787:7799   */\n      revert\n        /* \"#utility.yul\":7749:7751   */\n    tag_649:\n        /* \"#utility.yul\":7840:7841   */\n      0x00\n        /* \"#utility.yul\":7865:7918   */\n      tag_650\n        /* \"#utility.yul\":7910:7917   */\n      dup6\n        /* \"#utility.yul\":7901:7907   */\n      dup3\n        /* \"#utility.yul\":7890:7899   */\n      dup7\n        /* \"#utility.yul\":7886:7908   */\n      add\n        /* \"#utility.yul\":7865:7918   */\n      tag_570\n      jump\t// in\n    tag_650:\n        /* \"#utility.yul\":7855:7918   */\n      swap3\n      pop\n        /* \"#utility.yul\":7811:7928   */\n      pop\n        /* \"#utility.yul\":7995:7997   */\n      0x20\n        /* \"#utility.yul\":7984:7993   */\n      dup4\n        /* \"#utility.yul\":7980:7998   */\n      add\n        /* \"#utility.yul\":7967:7999   */\n      calldataload\n        /* \"#utility.yul\":8026:8044   */\n      0xffffffffffffffff\n        /* \"#utility.yul\":8018:8024   */\n      dup2\n        /* \"#utility.yul\":8015:8045   */\n      gt\n        /* \"#utility.yul\":8012:8014   */\n      iszero\n      tag_651\n      jumpi\n        /* \"#utility.yul\":8058:8059   */\n      0x00\n        /* \"#utility.yul\":8055:8056   */\n      dup1\n        /* \"#utility.yul\":8048:8060   */\n      revert\n        /* \"#utility.yul\":8012:8014   */\n    tag_651:\n        /* \"#utility.yul\":8086:8164   */\n      tag_652\n        /* \"#utility.yul\":8156:8163   */\n      dup6\n        /* \"#utility.yul\":8147:8153   */\n      dup3\n        /* \"#utility.yul\":8136:8145   */\n      dup7\n        /* \"#utility.yul\":8132:8154   */\n      add\n        /* \"#utility.yul\":8086:8164   */\n      tag_583\n      jump\t// in\n    tag_652:\n        /* \"#utility.yul\":8076:8164   */\n      swap2\n      pop\n        /* \"#utility.yul\":7938:8174   */\n      pop\n        /* \"#utility.yul\":7739:8181   */\n      swap3\n      pop\n      swap3\n      swap1\n      pop\n      jump\t// out\n        /* \"#utility.yul\":8187:9251   */\n    tag_71:\n      0x00\n      dup1\n      0x00\n      dup1\n      0x00\n        /* \"#utility.yul\":8380:8383   */\n      0xa0\n        /* \"#utility.yul\":8368:8377   */\n      dup7\n        /* \"#utility.yul\":8359:8366   */\n      dup9\n        /* \"#utility.yul\":8355:8378   */\n      sub\n        /* \"#utility.yul\":8351:8384   */\n      slt\n        /* \"#utility.yul\":8348:8350   */\n      iszero\n      tag_654\n      jumpi\n        /* \"#utility.yul\":8397:8398   */\n      0x00\n        /* \"#utility.yul\":8394:8395   */\n      dup1\n        /* \"#utility.yul\":8387:8399   */\n      revert\n        /* \"#utility.yul\":8348:8350   */\n    tag_654:\n        /* \"#utility.yul\":8440:8441   */\n      0x00\n        /* \"#utility.yul\":8465:8518   */\n      tag_655\n        /* \"#utility.yul\":8510:8517   */\n      dup9\n        /* \"#utility.yul\":8501:8507   */\n      dup3\n        /* \"#utility.yul\":8490:8499   */\n      dup10\n        /* \"#utility.yul\":8486:8508   */\n      add\n        /* \"#utility.yul\":8465:8518   */\n      tag_570\n      jump\t// in\n    tag_655:\n        /* \"#utility.yul\":8455:8518   */\n      swap6\n      pop\n        /* \"#utility.yul\":8411:8528   */\n      pop\n        /* \"#utility.yul\":8595:8597   */\n      0x20\n        /* \"#utility.yul\":8584:8593   */\n      dup7\n        /* \"#utility.yul\":8580:8598   */\n      add\n        /* \"#utility.yul\":8567:8599   */\n      calldataload\n        /* \"#utility.yul\":8626:8644   */\n      0xffffffffffffffff\n        /* \"#utility.yul\":8618:8624   */\n      dup2\n        /* \"#utility.yul\":8615:8645   */\n      gt\n        /* \"#utility.yul\":8612:8614   */\n      iszero\n      tag_656\n      jumpi\n        /* \"#utility.yul\":8658:8659   */\n      0x00\n        /* \"#utility.yul\":8655:8656   */\n      dup1\n        /* \"#utility.yul\":8648:8660   */\n      revert\n        /* \"#utility.yul\":8612:8614   */\n    tag_656:\n        /* \"#utility.yul\":8686:8749   */\n      tag_657\n        /* \"#utility.yul\":8741:8748   */\n      dup9\n        /* \"#utility.yul\":8732:8738   */\n      dup3\n        /* \"#utility.yul\":8721:8730   */\n      dup10\n        /* \"#utility.yul\":8717:8739   */\n      add\n        /* \"#utility.yul\":8686:8749   */\n      tag_591\n      jump\t// in\n    tag_657:\n        /* \"#utility.yul\":8676:8749   */\n      swap5\n      pop\n        /* \"#utility.yul\":8538:8759   */\n      pop\n        /* \"#utility.yul\":8826:8828   */\n      0x40\n        /* \"#utility.yul\":8815:8824   */\n      dup7\n        /* \"#utility.yul\":8811:8829   */\n      add\n        /* \"#utility.yul\":8798:8830   */\n      calldataload\n        /* \"#utility.yul\":8857:8875   */\n      0xffffffffffffffff\n        /* \"#utility.yul\":8849:8855   */\n      dup2\n        /* \"#utility.yul\":8846:8876   */\n      gt\n        /* \"#utility.yul\":8843:8845   */\n      iszero\n      tag_658\n      jumpi\n        /* \"#utility.yul\":8889:8890   */\n      0x00\n        /* \"#utility.yul\":8886:8887   */\n      dup1\n        /* \"#utility.yul\":8879:8891   */\n      revert\n        /* \"#utility.yul\":8843:8845   */\n    tag_658:\n        /* \"#utility.yul\":8917:8980   */\n      tag_659\n        /* \"#utility.yul\":8972:8979   */\n      dup9\n        /* \"#utility.yul\":8963:8969   */\n      dup3\n        /* \"#utility.yul\":8952:8961   */\n      dup10\n        /* \"#utility.yul\":8948:8970   */\n      add\n        /* \"#utility.yul\":8917:8980   */\n      tag_591\n      jump\t// in\n    tag_659:\n        /* \"#utility.yul\":8907:8980   */\n      swap4\n      pop\n        /* \"#utility.yul\":8769:8990   */\n      pop\n        /* \"#utility.yul\":9029:9031   */\n      0x60\n        /* \"#utility.yul\":9055:9108   */\n      tag_660\n        /* \"#utility.yul\":9100:9107   */\n      dup9\n        /* \"#utility.yul\":9091:9097   */\n      dup3\n        /* \"#utility.yul\":9080:9089   */\n      dup10\n        /* \"#utility.yul\":9076:9098   */\n      add\n        /* \"#utility.yul\":9055:9108   */\n      tag_579\n      jump\t// in\n    tag_660:\n        /* \"#utility.yul\":9045:9108   */\n      swap3\n      pop\n        /* \"#utility.yul\":9000:9118   */\n      pop\n        /* \"#utility.yul\":9157:9160   */\n      0x80\n        /* \"#utility.yul\":9184:9234   */\n      tag_661\n        /* \"#utility.yul\":9226:9233   */\n      dup9\n        /* \"#utility.yul\":9217:9223   */\n      dup3\n        /* \"#utility.yul\":9206:9215   */\n      dup10\n        /* \"#utility.yul\":9202:9224   */\n      add\n        /* \"#utility.yul\":9184:9234   */\n      tag_587\n      jump\t// in\n    tag_661:\n        /* \"#utility.yul\":9174:9234   */\n      swap2\n      pop\n        /* \"#utility.yul\":9128:9244   */\n      pop\n        /* \"#utility.yul\":8338:9251   */\n      swap3\n      swap6\n      pop\n      swap3\n      swap6\n      swap1\n      swap4\n      pop\n      jump\t// out\n        /* \"#utility.yul\":9257:9501   */\n    tag_662:\n      0x00\n        /* \"#utility.yul\":9405:9495   */\n      tag_664\n        /* \"#utility.yul\":9491:9494   */\n      dup4\n        /* \"#utility.yul\":9483:9489   */\n      dup4\n        /* \"#utility.yul\":9405:9495   */\n      tag_665\n      jump\t// in\n    tag_664:\n        /* \"#utility.yul\":9391:9495   */\n      swap1\n      pop\n        /* \"#utility.yul\":9381:9501   */\n      swap3\n      swap2\n      pop\n      pop\n      jump\t// out\n        /* \"#utility.yul\":9507:9759   */\n    tag_666:\n      0x00\n        /* \"#utility.yul\":9659:9753   */\n      tag_668\n        /* \"#utility.yul\":9749:9752   */\n      dup4\n        /* \"#utility.yul\":9741:9747   */\n      dup4\n        /* \"#utility.yul\":9659:9753   */\n      tag_669\n      jump\t// in\n    tag_668:\n        /* \"#utility.yul\":9645:9753   */\n      swap1\n      pop\n        /* \"#utility.yul\":9635:9759   */\n      swap3\n      swap2\n      pop\n      pop\n      jump\t// out\n        /* \"#utility.yul\":9765:10009   */\n    tag_670:\n      0x00\n        /* \"#utility.yul\":9913:10003   */\n      tag_672\n        /* \"#utility.yul\":9999:10002   */\n      dup4\n        /* \"#utility.yul\":9991:9997   */\n      dup4\n        /* \"#utility.yul\":9913:10003   */\n      tag_673\n      jump\t// in\n    tag_672:\n        /* \"#utility.yul\":9899:10003   */\n      swap1\n      pop\n        /* \"#utility.yul\":9889:10009   */\n      swap3\n      swap2\n      pop\n      pop\n      jump\t// out\n        /* \"#utility.yul\":10015:10194   */\n    tag_674:\n      0x00\n        /* \"#utility.yul\":10105:10151   */\n      tag_676\n        /* \"#utility.yul\":10147:10150   */\n      dup4\n        /* \"#utility.yul\":10139:10145   */\n      dup4\n        /* \"#utility.yul\":10105:10151   */\n      tag_677\n      jump\t// in\n    tag_676:\n        /* \"#utility.yul\":10183:10187   */\n      0x20\n        /* \"#utility.yul\":10178:10181   */\n      dup4\n        /* \"#utility.yul\":10174:10188   */\n      add\n        /* \"#utility.yul\":10160:10188   */\n      swap1\n      pop\n        /* \"#utility.yul\":10095:10194   */\n      swap3\n      swap2\n      pop\n      pop\n      jump\t// out\n        /* \"#utility.yul\":10200:10308   */\n    tag_678:\n        /* \"#utility.yul\":10277:10301   */\n      tag_680\n        /* \"#utility.yul\":10295:10300   */\n      dup2\n        /* \"#utility.yul\":10277:10301   */\n      tag_681\n      jump\t// in\n    tag_680:\n        /* \"#utility.yul\":10272:10275   */\n      dup3\n        /* \"#utility.yul\":10265:10302   */\n      mstore\n        /* \"#utility.yul\":10255:10308   */\n      pop\n      pop\n      jump\t// out\n        /* \"#utility.yul\":10314:10432   */\n    tag_682:\n        /* \"#utility.yul\":10401:10425   */\n      tag_684\n        /* \"#utility.yul\":10419:10424   */\n      dup2\n        /* \"#utility.yul\":10401:10425   */\n      tag_681\n      jump\t// in\n    tag_684:\n        /* \"#utility.yul\":10396:10399   */\n      dup3\n        /* \"#utility.yul\":10389:10426   */\n      mstore\n        /* \"#utility.yul\":10379:10432   */\n      pop\n      pop\n      jump\t// out\n        /* \"#utility.yul\":10496:11583   */\n    tag_685:\n      0x00\n        /* \"#utility.yul\":10688:10764   */\n      tag_687\n        /* \"#utility.yul\":10758:10763   */\n      dup3\n        /* \"#utility.yul\":10688:10764   */\n      tag_688\n      jump\t// in\n    tag_687:\n        /* \"#utility.yul\":10780:10888   */\n      tag_689\n        /* \"#utility.yul\":10881:10887   */\n      dup2\n        /* \"#utility.yul\":10876:10879   */\n      dup6\n        /* \"#utility.yul\":10780:10888   */\n      tag_690\n      jump\t// in\n    tag_689:\n        /* \"#utility.yul\":10773:10888   */\n      swap4\n      pop\n        /* \"#utility.yul\":10914:10917   */\n      dup4\n        /* \"#utility.yul\":10959:10963   */\n      0x20\n        /* \"#utility.yul\":10951:10957   */\n      dup3\n        /* \"#utility.yul\":10947:10964   */\n      mul\n        /* \"#utility.yul\":10942:10945   */\n      dup6\n        /* \"#utility.yul\":10938:10965   */\n      add\n        /* \"#utility.yul\":10989:11067   */\n      tag_691\n        /* \"#utility.yul\":11061:11066   */\n      dup6\n        /* \"#utility.yul\":10989:11067   */\n      tag_692\n      jump\t// in\n    tag_691:\n        /* \"#utility.yul\":11090:11097   */\n      dup1\n        /* \"#utility.yul\":11121:11122   */\n      0x00\n        /* \"#utility.yul\":11106:11538   */\n    tag_693:\n        /* \"#utility.yul\":11131:11137   */\n      dup6\n        /* \"#utility.yul\":11128:11129   */\n      dup2\n        /* \"#utility.yul\":11125:11138   */\n      lt\n        /* \"#utility.yul\":11106:11538   */\n      iszero\n      tag_695\n      jumpi\n        /* \"#utility.yul\":11202:11211   */\n      dup5\n        /* \"#utility.yul\":11196:11200   */\n      dup5\n        /* \"#utility.yul\":11192:11212   */\n      sub\n        /* \"#utility.yul\":11187:11190   */\n      dup10\n        /* \"#utility.yul\":11180:11213   */\n      mstore\n        /* \"#utility.yul\":11253:11259   */\n      dup2\n        /* \"#utility.yul\":11247:11260   */\n      mload\n        /* \"#utility.yul\":11281:11389   */\n      tag_696\n        /* \"#utility.yul\":11384:11388   */\n      dup6\n        /* \"#utility.yul\":11369:11382   */\n      dup3\n        /* \"#utility.yul\":11281:11389   */\n      tag_662\n      jump\t// in\n    tag_696:\n        /* \"#utility.yul\":11273:11389   */\n      swap5\n      pop\n        /* \"#utility.yul\":11412:11494   */\n      tag_697\n        /* \"#utility.yul\":11487:11493   */\n      dup4\n        /* \"#utility.yul\":11412:11494   */\n      tag_698\n      jump\t// in\n    tag_697:\n        /* \"#utility.yul\":11402:11494   */\n      swap3\n      pop\n        /* \"#utility.yul\":11523:11527   */\n      0x20\n        /* \"#utility.yul\":11518:11521   */\n      dup11\n        /* \"#utility.yul\":11514:11528   */\n      add\n        /* \"#utility.yul\":11507:11528   */\n      swap10\n      pop\n        /* \"#utility.yul\":11166:11538   */\n      pop\n        /* \"#utility.yul\":11153:11154   */\n      0x01\n        /* \"#utility.yul\":11150:11151   */\n      dup2\n        /* \"#utility.yul\":11146:11155   */\n      add\n        /* \"#utility.yul\":11141:11155   */\n      swap1\n      pop\n        /* \"#utility.yul\":11106:11538   */\n      jump(tag_693)\n    tag_695:\n        /* \"#utility.yul\":11110:11124   */\n      pop\n        /* \"#utility.yul\":11554:11558   */\n      dup3\n        /* \"#utility.yul\":11547:11558   */\n      swap8\n      pop\n        /* \"#utility.yul\":11574:11577   */\n      dup8\n        /* \"#utility.yul\":11567:11577   */\n      swap6\n      pop\n        /* \"#utility.yul\":10664:11583   */\n      pop\n      pop\n      pop\n      pop\n      pop\n      swap3\n      swap2\n      pop\n      pop\n      jump\t// out\n        /* \"#utility.yul\":11651:12754   */\n    tag_699:\n      0x00\n        /* \"#utility.yul\":11847:11925   */\n      tag_701\n        /* \"#utility.yul\":11919:11924   */\n      dup3\n        /* \"#utility.yul\":11847:11925   */\n      tag_702\n      jump\t// in\n    tag_701:\n        /* \"#utility.yul\":11941:12051   */\n      tag_703\n        /* \"#utility.yul\":12044:12050   */\n      dup2\n        /* \"#utility.yul\":12039:12042   */\n      dup6\n        /* \"#utility.yul\":11941:12051   */\n      tag_704\n      jump\t// in\n    tag_703:\n        /* \"#utility.yul\":11934:12051   */\n      swap4\n      pop\n        /* \"#utility.yul\":12077:12080   */\n      dup4\n        /* \"#utility.yul\":12122:12126   */\n      0x20\n        /* \"#utility.yul\":12114:12120   */\n      dup3\n        /* \"#utility.yul\":12110:12127   */\n      mul\n        /* \"#utility.yul\":12105:12108   */\n      dup6\n        /* \"#utility.yul\":12101:12128   */\n      add\n        /* \"#utility.yul\":12152:12232   */\n      tag_705\n        /* \"#utility.yul\":12226:12231   */\n      dup6\n        /* \"#utility.yul\":12152:12232   */\n      tag_706\n      jump\t// in\n    tag_705:\n        /* \"#utility.yul\":12255:12262   */\n      dup1\n        /* \"#utility.yul\":12286:12287   */\n      0x00\n        /* \"#utility.yul\":12271:12709   */\n    tag_707:\n        /* \"#utility.yul\":12296:12302   */\n      dup6\n        /* \"#utility.yul\":12293:12294   */\n      dup2\n        /* \"#utility.yul\":12290:12303   */\n      lt\n        /* \"#utility.yul\":12271:12709   */\n      iszero\n      tag_709\n      jumpi\n        /* \"#utility.yul\":12367:12376   */\n      dup5\n        /* \"#utility.yul\":12361:12365   */\n      dup5\n        /* \"#utility.yul\":12357:12377   */\n      sub\n        /* \"#utility.yul\":12352:12355   */\n      dup10\n        /* \"#utility.yul\":12345:12378   */\n      mstore\n        /* \"#utility.yul\":12418:12424   */\n      dup2\n        /* \"#utility.yul\":12412:12425   */\n      mload\n        /* \"#utility.yul\":12446:12558   */\n      tag_710\n        /* \"#utility.yul\":12553:12557   */\n      dup6\n        /* \"#utility.yul\":12538:12551   */\n      dup3\n        /* \"#utility.yul\":12446:12558   */\n      tag_666\n      jump\t// in\n    tag_710:\n        /* \"#utility.yul\":12438:12558   */\n      swap5\n      pop\n        /* \"#utility.yul\":12581:12665   */\n      tag_711\n        /* \"#utility.yul\":12658:12664   */\n      dup4\n        /* \"#utility.yul\":12581:12665   */\n      tag_712\n      jump\t// in\n    tag_711:\n        /* \"#utility.yul\":12571:12665   */\n      swap3\n      pop\n        /* \"#utility.yul\":12694:12698   */\n      0x20\n        /* \"#utility.yul\":12689:12692   */\n      dup11\n        /* \"#utility.yul\":12685:12699   */\n      add\n        /* \"#utility.yul\":12678:12699   */\n      swap10\n      pop\n        /* \"#utility.yul\":12331:12709   */\n      pop\n        /* \"#utility.yul\":12318:12319   */\n      0x01\n        /* \"#utility.yul\":12315:12316   */\n      dup2\n        /* \"#utility.yul\":12311:12320   */\n      add\n        /* \"#utility.yul\":12306:12320   */\n      swap1\n      pop\n        /* \"#utility.yul\":12271:12709   */\n      jump(tag_707)\n    tag_709:\n        /* \"#utility.yul\":12275:12289   */\n      pop\n        /* \"#utility.yul\":12725:12729   */\n      dup3\n        /* \"#utility.yul\":12718:12729   */\n      swap8\n      pop\n        /* \"#utility.yul\":12745:12748   */\n      dup8\n        /* \"#utility.yul\":12738:12748   */\n      swap6\n      pop\n        /* \"#utility.yul\":11823:12754   */\n      pop\n      pop\n      pop\n      pop\n      pop\n      swap3\n      swap2\n      pop\n      pop\n      jump\t// out\n        /* \"#utility.yul\":12818:13905   */\n    tag_713:\n      0x00\n        /* \"#utility.yul\":13010:13086   */\n      tag_715\n        /* \"#utility.yul\":13080:13085   */\n      dup3\n        /* \"#utility.yul\":13010:13086   */\n      tag_716\n      jump\t// in\n    tag_715:\n        /* \"#utility.yul\":13102:13210   */\n      tag_717\n        /* \"#utility.yul\":13203:13209   */\n      dup2\n        /* \"#utility.yul\":13198:13201   */\n      dup6\n        /* \"#utility.yul\":13102:13210   */\n      tag_718\n      jump\t// in\n    tag_717:\n        /* \"#utility.yul\":13095:13210   */\n      swap4\n      pop\n        /* \"#utility.yul\":13236:13239   */\n      dup4\n        /* \"#utility.yul\":13281:13285   */\n      0x20\n        /* \"#utility.yul\":13273:13279   */\n      dup3\n        /* \"#utility.yul\":13269:13286   */\n      mul\n        /* \"#utility.yul\":13264:13267   */\n      dup6\n        /* \"#utility.yul\":13260:13287   */\n      add\n        /* \"#utility.yul\":13311:13389   */\n      tag_719\n        /* \"#utility.yul\":13383:13388   */\n      dup6\n        /* \"#utility.yul\":13311:13389   */\n      tag_720\n      jump\t// in\n    tag_719:\n        /* \"#utility.yul\":13412:13419   */\n      dup1\n        /* \"#utility.yul\":13443:13444   */\n      0x00\n        /* \"#utility.yul\":13428:13860   */\n    tag_721:\n        /* \"#utility.yul\":13453:13459   */\n      dup6\n        /* \"#utility.yul\":13450:13451   */\n      dup2\n        /* \"#utility.yul\":13447:13460   */\n      lt\n        /* \"#utility.yul\":13428:13860   */\n      iszero\n      tag_723\n      jumpi\n        /* \"#utility.yul\":13524:13533   */\n      dup5\n        /* \"#utility.yul\":13518:13522   */\n      dup5\n        /* \"#utility.yul\":13514:13534   */\n      sub\n        /* \"#utility.yul\":13509:13512   */\n      dup10\n        /* \"#utility.yul\":13502:13535   */\n      mstore\n        /* \"#utility.yul\":13575:13581   */\n      dup2\n        /* \"#utility.yul\":13569:13582   */\n      mload\n        /* \"#utility.yul\":13603:13711   */\n      tag_724\n        /* \"#utility.yul\":13706:13710   */\n      dup6\n        /* \"#utility.yul\":13691:13704   */\n      dup3\n        /* \"#utility.yul\":13603:13711   */\n      tag_670\n      jump\t// in\n    tag_724:\n        /* \"#utility.yul\":13595:13711   */\n      swap5\n      pop\n        /* \"#utility.yul\":13734:13816   */\n      tag_725\n        /* \"#utility.yul\":13809:13815   */\n      dup4\n        /* \"#utility.yul\":13734:13816   */\n      tag_726\n      jump\t// in\n    tag_725:\n        /* \"#utility.yul\":13724:13816   */\n      swap3\n      pop\n        /* \"#utility.yul\":13845:13849   */\n      0x20\n        /* \"#utility.yul\":13840:13843   */\n      dup11\n        /* \"#utility.yul\":13836:13850   */\n      add\n        /* \"#utility.yul\":13829:13850   */\n      swap10\n      pop\n        /* \"#utility.yul\":13488:13860   */\n      pop\n        /* \"#utility.yul\":13475:13476   */\n      0x01\n        /* \"#utility.yul\":13472:13473   */\n      dup2\n        /* \"#utility.yul\":13468:13477   */\n      add\n        /* \"#utility.yul\":13463:13477   */\n      swap1\n      pop\n        /* \"#utility.yul\":13428:13860   */\n      jump(tag_721)\n    tag_723:\n        /* \"#utility.yul\":13432:13446   */\n      pop\n        /* \"#utility.yul\":13876:13880   */\n      dup3\n        /* \"#utility.yul\":13869:13880   */\n      swap8\n      pop\n        /* \"#utility.yul\":13896:13899   */\n      dup8\n        /* \"#utility.yul\":13889:13899   */\n      swap6\n      pop\n        /* \"#utility.yul\":12986:13905   */\n      pop\n      pop\n      pop\n      pop\n      pop\n      swap3\n      swap2\n      pop\n      pop\n      jump\t// out\n        /* \"#utility.yul\":13941:14653   */\n    tag_727:\n      0x00\n        /* \"#utility.yul\":14079:14133   */\n      tag_729\n        /* \"#utility.yul\":14127:14132   */\n      dup3\n        /* \"#utility.yul\":14079:14133   */\n      tag_730\n      jump\t// in\n    tag_729:\n        /* \"#utility.yul\":14149:14225   */\n      tag_731\n        /* \"#utility.yul\":14218:14224   */\n      dup2\n        /* \"#utility.yul\":14213:14216   */\n      dup6\n        /* \"#utility.yul\":14149:14225   */\n      tag_732\n      jump\t// in\n    tag_731:\n        /* \"#utility.yul\":14142:14225   */\n      swap4\n      pop\n        /* \"#utility.yul\":14249:14305   */\n      tag_733\n        /* \"#utility.yul\":14299:14304   */\n      dup4\n        /* \"#utility.yul\":14249:14305   */\n      tag_734\n      jump\t// in\n    tag_733:\n        /* \"#utility.yul\":14328:14335   */\n      dup1\n        /* \"#utility.yul\":14359:14360   */\n      0x00\n        /* \"#utility.yul\":14344:14628   */\n    tag_735:\n        /* \"#utility.yul\":14369:14375   */\n      dup4\n        /* \"#utility.yul\":14366:14367   */\n      dup2\n        /* \"#utility.yul\":14363:14376   */\n      lt\n        /* \"#utility.yul\":14344:14628   */\n      iszero\n      tag_737\n      jumpi\n        /* \"#utility.yul\":14445:14451   */\n      dup2\n        /* \"#utility.yul\":14439:14452   */\n      mload\n        /* \"#utility.yul\":14472:14535   */\n      tag_738\n        /* \"#utility.yul\":14531:14534   */\n      dup9\n        /* \"#utility.yul\":14516:14529   */\n      dup3\n        /* \"#utility.yul\":14472:14535   */\n      tag_674\n      jump\t// in\n    tag_738:\n        /* \"#utility.yul\":14465:14535   */\n      swap8\n      pop\n        /* \"#utility.yul\":14558:14618   */\n      tag_739\n        /* \"#utility.yul\":14611:14617   */\n      dup4\n        /* \"#utility.yul\":14558:14618   */\n      tag_740\n      jump\t// in\n    tag_739:\n        /* \"#utility.yul\":14548:14618   */\n      swap3\n      pop\n        /* \"#utility.yul\":14404:14628   */\n      pop\n        /* \"#utility.yul\":14391:14392   */\n      0x01\n        /* \"#utility.yul\":14388:14389   */\n      dup2\n        /* \"#utility.yul\":14384:14393   */\n      add\n        /* \"#utility.yul\":14379:14393   */\n      swap1\n      pop\n        /* \"#utility.yul\":14344:14628   */\n      jump(tag_735)\n    tag_737:\n        /* \"#utility.yul\":14348:14362   */\n      pop\n        /* \"#utility.yul\":14644:14647   */\n      dup6\n        /* \"#utility.yul\":14637:14647   */\n      swap4\n      pop\n        /* \"#utility.yul\":14055:14653   */\n      pop\n      pop\n      pop\n      swap3\n      swap2\n      pop\n      pop\n      jump\t// out\n        /* \"#utility.yul\":14689:15421   */\n    tag_741:\n      0x00\n        /* \"#utility.yul\":14837:14891   */\n      tag_743\n        /* \"#utility.yul\":14885:14890   */\n      dup3\n        /* \"#utility.yul\":14837:14891   */\n      tag_730\n      jump\t// in\n    tag_743:\n        /* \"#utility.yul\":14907:14993   */\n      tag_744\n        /* \"#utility.yul\":14986:14992   */\n      dup2\n        /* \"#utility.yul\":14981:14984   */\n      dup6\n        /* \"#utility.yul\":14907:14993   */\n      tag_745\n      jump\t// in\n    tag_744:\n        /* \"#utility.yul\":14900:14993   */\n      swap4\n      pop\n        /* \"#utility.yul\":15017:15073   */\n      tag_746\n        /* \"#utility.yul\":15067:15072   */\n      dup4\n        /* \"#utility.yul\":15017:15073   */\n      tag_734\n      jump\t// in\n    tag_746:\n        /* \"#utility.yul\":15096:15103   */\n      dup1\n        /* \"#utility.yul\":15127:15128   */\n      0x00\n        /* \"#utility.yul\":15112:15396   */\n    tag_747:\n        /* \"#utility.yul\":15137:15143   */\n      dup4\n        /* \"#utility.yul\":15134:15135   */\n      dup2\n        /* \"#utility.yul\":15131:15144   */\n      lt\n        /* \"#utility.yul\":15112:15396   */\n      iszero\n      tag_749\n      jumpi\n        /* \"#utility.yul\":15213:15219   */\n      dup2\n        /* \"#utility.yul\":15207:15220   */\n      mload\n        /* \"#utility.yul\":15240:15303   */\n      tag_750\n        /* \"#utility.yul\":15299:15302   */\n      dup9\n        /* \"#utility.yul\":15284:15297   */\n      dup3\n        /* \"#utility.yul\":15240:15303   */\n      tag_674\n      jump\t// in\n    tag_750:\n        /* \"#utility.yul\":15233:15303   */\n      swap8\n      pop\n        /* \"#utility.yul\":15326:15386   */\n      tag_751\n        /* \"#utility.yul\":15379:15385   */\n      dup4\n        /* \"#utility.yul\":15326:15386   */\n      tag_740\n      jump\t// in\n    tag_751:\n        /* \"#utility.yul\":15316:15386   */\n      swap3\n      pop\n        /* \"#utility.yul\":15172:15396   */\n      pop\n        /* \"#utility.yul\":15159:15160   */\n      0x01\n        /* \"#utility.yul\":15156:15157   */\n      dup2\n        /* \"#utility.yul\":15152:15161   */\n      add\n        /* \"#utility.yul\":15147:15161   */\n      swap1\n      pop\n        /* \"#utility.yul\":15112:15396   */\n      jump(tag_747)\n    tag_749:\n        /* \"#utility.yul\":15116:15130   */\n      pop\n        /* \"#utility.yul\":15412:15415   */\n      dup6\n        /* \"#utility.yul\":15405:15415   */\n      swap4\n      pop\n        /* \"#utility.yul\":14813:15421   */\n      pop\n      pop\n      pop\n      swap3\n      swap2\n      pop\n      pop\n      jump\t// out\n        /* \"#utility.yul\":15427:15526   */\n    tag_752:\n        /* \"#utility.yul\":15498:15519   */\n      tag_754\n        /* \"#utility.yul\":15513:15518   */\n      dup2\n        /* \"#utility.yul\":15498:15519   */\n      tag_755\n      jump\t// in\n    tag_754:\n        /* \"#utility.yul\":15493:15496   */\n      dup3\n        /* \"#utility.yul\":15486:15520   */\n      mstore\n        /* \"#utility.yul\":15476:15526   */\n      pop\n      pop\n      jump\t// out\n        /* \"#utility.yul\":15532:15641   */\n    tag_756:\n        /* \"#utility.yul\":15613:15634   */\n      tag_758\n        /* \"#utility.yul\":15628:15633   */\n      dup2\n        /* \"#utility.yul\":15613:15634   */\n      tag_755\n      jump\t// in\n    tag_758:\n        /* \"#utility.yul\":15608:15611   */\n      dup3\n        /* \"#utility.yul\":15601:15635   */\n      mstore\n        /* \"#utility.yul\":15591:15641   */\n      pop\n      pop\n      jump\t// out\n        /* \"#utility.yul\":15647:15991   */\n    tag_759:\n      0x00\n        /* \"#utility.yul\":15753:15792   */\n      tag_761\n        /* \"#utility.yul\":15786:15791   */\n      dup3\n        /* \"#utility.yul\":15753:15792   */\n      tag_762\n      jump\t// in\n    tag_761:\n        /* \"#utility.yul\":15808:15869   */\n      tag_763\n        /* \"#utility.yul\":15862:15868   */\n      dup2\n        /* \"#utility.yul\":15857:15860   */\n      dup6\n        /* \"#utility.yul\":15808:15869   */\n      tag_764\n      jump\t// in\n    tag_763:\n        /* \"#utility.yul\":15801:15869   */\n      swap4\n      pop\n        /* \"#utility.yul\":15878:15930   */\n      tag_765\n        /* \"#utility.yul\":15923:15929   */\n      dup2\n        /* \"#utility.yul\":15918:15921   */\n      dup6\n        /* \"#utility.yul\":15911:15915   */\n      0x20\n        /* \"#utility.yul\":15904:15909   */\n      dup7\n        /* \"#utility.yul\":15900:15916   */\n      add\n        /* \"#utility.yul\":15878:15930   */\n      tag_766\n      jump\t// in\n    tag_765:\n        /* \"#utility.yul\":15955:15984   */\n      tag_767\n        /* \"#utility.yul\":15977:15983   */\n      dup2\n        /* \"#utility.yul\":15955:15984   */\n      tag_768\n      jump\t// in\n    tag_767:\n        /* \"#utility.yul\":15950:15953   */\n      dup5\n        /* \"#utility.yul\":15946:15985   */\n      add\n        /* \"#utility.yul\":15939:15985   */\n      swap2\n      pop\n        /* \"#utility.yul\":15729:15991   */\n      pop\n      swap3\n      swap2\n      pop\n      pop\n      jump\t// out\n        /* \"#utility.yul\":15997:16361   */\n    tag_769:\n      0x00\n        /* \"#utility.yul\":16113:16152   */\n      tag_771\n        /* \"#utility.yul\":16146:16151   */\n      dup3\n        /* \"#utility.yul\":16113:16152   */\n      tag_762\n      jump\t// in\n    tag_771:\n        /* \"#utility.yul\":16168:16239   */\n      tag_772\n        /* \"#utility.yul\":16232:16238   */\n      dup2\n        /* \"#utility.yul\":16227:16230   */\n      dup6\n        /* \"#utility.yul\":16168:16239   */\n      tag_773\n      jump\t// in\n    tag_772:\n        /* \"#utility.yul\":16161:16239   */\n      swap4\n      pop\n        /* \"#utility.yul\":16248:16300   */\n      tag_774\n        /* \"#utility.yul\":16293:16299   */\n      dup2\n        /* \"#utility.yul\":16288:16291   */\n      dup6\n        /* \"#utility.yul\":16281:16285   */\n      0x20\n        /* \"#utility.yul\":16274:16279   */\n      dup7\n        /* \"#utility.yul\":16270:16286   */\n      add\n        /* \"#utility.yul\":16248:16300   */\n      tag_766\n      jump\t// in\n    tag_774:\n        /* \"#utility.yul\":16325:16354   */\n      tag_775\n        /* \"#utility.yul\":16347:16353   */\n      dup2\n        /* \"#utility.yul\":16325:16354   */\n      tag_768\n      jump\t// in\n    tag_775:\n        /* \"#utility.yul\":16320:16323   */\n      dup5\n        /* \"#utility.yul\":16316:16355   */\n      add\n        /* \"#utility.yul\":16309:16355   */\n      swap2\n      pop\n        /* \"#utility.yul\":16089:16361   */\n      pop\n      swap3\n      swap2\n      pop\n      pop\n      jump\t// out\n        /* \"#utility.yul\":16391:17328   */\n    tag_776:\n      0x00\n        /* \"#utility.yul\":16513:16518   */\n      dup2\n        /* \"#utility.yul\":16507:16519   */\n      sload\n        /* \"#utility.yul\":16550:16551   */\n      0x01\n        /* \"#utility.yul\":16539:16548   */\n      dup2\n        /* \"#utility.yul\":16535:16552   */\n      and\n        /* \"#utility.yul\":16566:16567   */\n      0x00\n        /* \"#utility.yul\":16561:16842   */\n      dup2\n      eq\n      tag_779\n      jumpi\n        /* \"#utility.yul\":16856:16857   */\n      0x01\n        /* \"#utility.yul\":16851:17322   */\n      dup2\n      eq\n      tag_780\n      jumpi\n        /* \"#utility.yul\":16528:17322   */\n      jump(tag_778)\n        /* \"#utility.yul\":16561:16842   */\n    tag_779:\n        /* \"#utility.yul\":16651:16655   */\n      0x7f\n        /* \"#utility.yul\":16647:16648   */\n      0x02\n        /* \"#utility.yul\":16636:16645   */\n      dup4\n        /* \"#utility.yul\":16632:16649   */\n      div\n        /* \"#utility.yul\":16628:16656   */\n      and\n        /* \"#utility.yul\":16676:16747   */\n      tag_781\n        /* \"#utility.yul\":16740:16746   */\n      dup2\n        /* \"#utility.yul\":16735:16738   */\n      dup8\n        /* \"#utility.yul\":16676:16747   */\n      tag_773\n      jump\t// in\n    tag_781:\n        /* \"#utility.yul\":16669:16747   */\n      swap6\n      pop\n        /* \"#utility.yul\":16791:16795   */\n      0xff\n        /* \"#utility.yul\":16787:16796   */\n      not\n        /* \"#utility.yul\":16776:16785   */\n      dup4\n        /* \"#utility.yul\":16772:16797   */\n      and\n        /* \"#utility.yul\":16767:16770   */\n      dup7\n        /* \"#utility.yul\":16760:16798   */\n      mstore\n        /* \"#utility.yul\":16827:16831   */\n      0x20\n        /* \"#utility.yul\":16822:16825   */\n      dup7\n        /* \"#utility.yul\":16818:16832   */\n      add\n        /* \"#utility.yul\":16811:16832   */\n      swap4\n      pop\n        /* \"#utility.yul\":16568:16842   */\n      pop\n        /* \"#utility.yul\":16561:16842   */\n      jump(tag_778)\n        /* \"#utility.yul\":16851:17322   */\n    tag_780:\n        /* \"#utility.yul\":16932:16933   */\n      0x02\n        /* \"#utility.yul\":16921:16930   */\n      dup3\n        /* \"#utility.yul\":16917:16934   */\n      div\n        /* \"#utility.yul\":16954:17025   */\n      tag_782\n        /* \"#utility.yul\":17018:17024   */\n      dup2\n        /* \"#utility.yul\":17013:17016   */\n      dup8\n        /* \"#utility.yul\":16954:17025   */\n      tag_773\n      jump\t// in\n    tag_782:\n        /* \"#utility.yul\":16947:17025   */\n      swap6\n      pop\n        /* \"#utility.yul\":17053:17091   */\n      tag_783\n        /* \"#utility.yul\":17085:17090   */\n      dup6\n        /* \"#utility.yul\":17053:17091   */\n      tag_784\n      jump\t// in\n    tag_783:\n        /* \"#utility.yul\":17113:17114   */\n      0x00\n        /* \"#utility.yul\":17127:17281   */\n    tag_785:\n        /* \"#utility.yul\":17141:17147   */\n      dup3\n        /* \"#utility.yul\":17138:17139   */\n      dup2\n        /* \"#utility.yul\":17135:17148   */\n      lt\n        /* \"#utility.yul\":17127:17281   */\n      iszero\n      tag_787\n      jumpi\n        /* \"#utility.yul\":17215:17222   */\n      dup2\n        /* \"#utility.yul\":17209:17223   */\n      sload\n        /* \"#utility.yul\":17205:17206   */\n      dup2\n        /* \"#utility.yul\":17200:17203   */\n      dup10\n        /* \"#utility.yul\":17196:17207   */\n      add\n        /* \"#utility.yul\":17189:17224   */\n      mstore\n        /* \"#utility.yul\":17265:17266   */\n      0x01\n        /* \"#utility.yul\":17256:17263   */\n      dup3\n        /* \"#utility.yul\":17252:17267   */\n      add\n        /* \"#utility.yul\":17241:17267   */\n      swap2\n      pop\n        /* \"#utility.yul\":17163:17167   */\n      0x20\n        /* \"#utility.yul\":17160:17161   */\n      dup2\n        /* \"#utility.yul\":17156:17168   */\n      add\n        /* \"#utility.yul\":17151:17168   */\n      swap1\n      pop\n        /* \"#utility.yul\":17127:17281   */\n      jump(tag_785)\n    tag_787:\n        /* \"#utility.yul\":17310:17311   */\n      dup1\n        /* \"#utility.yul\":17305:17308   */\n      dup9\n        /* \"#utility.yul\":17301:17312   */\n      add\n        /* \"#utility.yul\":17294:17312   */\n      swap6\n      pop\n        /* \"#utility.yul\":16858:17322   */\n      pop\n      pop\n      pop\n        /* \"#utility.yul\":16528:17322   */\n    tag_778:\n      pop\n        /* \"#utility.yul\":16480:17328   */\n      pop\n      swap3\n      swap2\n      pop\n      pop\n      jump\t// out\n        /* \"#utility.yul\":17334:17648   */\n    tag_788:\n      0x00\n        /* \"#utility.yul\":17497:17564   */\n      tag_790\n        /* \"#utility.yul\":17561:17563   */\n      0x10\n        /* \"#utility.yul\":17556:17559   */\n      dup4\n        /* \"#utility.yul\":17497:17564   */\n      tag_773\n      jump\t// in\n    tag_790:\n        /* \"#utility.yul\":17490:17564   */\n      swap2\n      pop\n        /* \"#utility.yul\":17594:17612   */\n      0x446f63746f72206e6f7420666f756e6400000000000000000000000000000000\n        /* \"#utility.yul\":17590:17591   */\n      0x00\n        /* \"#utility.yul\":17585:17588   */\n      dup4\n        /* \"#utility.yul\":17581:17592   */\n      add\n        /* \"#utility.yul\":17574:17613   */\n      mstore\n        /* \"#utility.yul\":17639:17641   */\n      0x20\n        /* \"#utility.yul\":17634:17637   */\n      dup3\n        /* \"#utility.yul\":17630:17642   */\n      add\n        /* \"#utility.yul\":17623:17642   */\n      swap1\n      pop\n        /* \"#utility.yul\":17480:17648   */\n      swap2\n      swap1\n      pop\n      jump\t// out\n        /* \"#utility.yul\":17654:17968   */\n    tag_791:\n      0x00\n        /* \"#utility.yul\":17817:17884   */\n      tag_793\n        /* \"#utility.yul\":17881:17883   */\n      0x10\n        /* \"#utility.yul\":17876:17879   */\n      dup4\n        /* \"#utility.yul\":17817:17884   */\n      tag_773\n      jump\t// in\n    tag_793:\n        /* \"#utility.yul\":17810:17884   */\n      swap2\n      pop\n        /* \"#utility.yul\":17914:17932   */\n      0x53656e736f72206e6f7420666f756e6400000000000000000000000000000000\n        /* \"#utility.yul\":17910:17911   */\n      0x00\n        /* \"#utility.yul\":17905:17908   */\n      dup4\n        /* \"#utility.yul\":17901:17912   */\n      add\n        /* \"#utility.yul\":17894:17933   */\n      mstore\n        /* \"#utility.yul\":17959:17961   */\n      0x20\n        /* \"#utility.yul\":17954:17957   */\n      dup3\n        /* \"#utility.yul\":17950:17962   */\n      add\n        /* \"#utility.yul\":17943:17962   */\n      swap1\n      pop\n        /* \"#utility.yul\":17800:17968   */\n      swap2\n      swap1\n      pop\n      jump\t// out\n        /* \"#utility.yul\":17974:18290   */\n    tag_794:\n      0x00\n        /* \"#utility.yul\":18137:18204   */\n      tag_796\n        /* \"#utility.yul\":18201:18203   */\n      0x12\n        /* \"#utility.yul\":18196:18199   */\n      dup4\n        /* \"#utility.yul\":18137:18204   */\n      tag_773\n      jump\t// in\n    tag_796:\n        /* \"#utility.yul\":18130:18204   */\n      swap2\n      pop\n        /* \"#utility.yul\":18234:18254   */\n      0x486f73706974616c206e6f7420666f756e640000000000000000000000000000\n        /* \"#utility.yul\":18230:18231   */\n      0x00\n        /* \"#utility.yul\":18225:18228   */\n      dup4\n        /* \"#utility.yul\":18221:18232   */\n      add\n        /* \"#utility.yul\":18214:18255   */\n      mstore\n        /* \"#utility.yul\":18281:18283   */\n      0x20\n        /* \"#utility.yul\":18276:18279   */\n      dup3\n        /* \"#utility.yul\":18272:18284   */\n      add\n        /* \"#utility.yul\":18265:18284   */\n      swap1\n      pop\n        /* \"#utility.yul\":18120:18290   */\n      swap2\n      swap1\n      pop\n      jump\t// out\n        /* \"#utility.yul\":18296:18607   */\n    tag_797:\n      0x00\n        /* \"#utility.yul\":18459:18526   */\n      tag_799\n        /* \"#utility.yul\":18523:18525   */\n      0x0d\n        /* \"#utility.yul\":18518:18521   */\n      dup4\n        /* \"#utility.yul\":18459:18526   */\n      tag_773\n      jump\t// in\n    tag_799:\n        /* \"#utility.yul\":18452:18526   */\n      swap2\n      pop\n        /* \"#utility.yul\":18556:18571   */\n      0x4e6f2070726976696c6567657300000000000000000000000000000000000000\n        /* \"#utility.yul\":18552:18553   */\n      0x00\n        /* \"#utility.yul\":18547:18550   */\n      dup4\n        /* \"#utility.yul\":18543:18554   */\n      add\n        /* \"#utility.yul\":18536:18572   */\n      mstore\n        /* \"#utility.yul\":18598:18600   */\n      0x20\n        /* \"#utility.yul\":18593:18596   */\n      dup3\n        /* \"#utility.yul\":18589:18601   */\n      add\n        /* \"#utility.yul\":18582:18601   */\n      swap1\n      pop\n        /* \"#utility.yul\":18442:18607   */\n      swap2\n      swap1\n      pop\n      jump\t// out\n        /* \"#utility.yul\":18667:19619   */\n    tag_665:\n      0x00\n        /* \"#utility.yul\":18806:18810   */\n      0x80\n        /* \"#utility.yul\":18801:18804   */\n      dup4\n        /* \"#utility.yul\":18797:18811   */\n      add\n        /* \"#utility.yul\":18897:18901   */\n      0x00\n        /* \"#utility.yul\":18890:18895   */\n      dup4\n        /* \"#utility.yul\":18886:18902   */\n      add\n        /* \"#utility.yul\":18880:18903   */\n      mload\n        /* \"#utility.yul\":18916:18979   */\n      tag_801\n        /* \"#utility.yul\":18973:18977   */\n      0x00\n        /* \"#utility.yul\":18968:18971   */\n      dup7\n        /* \"#utility.yul\":18964:18978   */\n      add\n        /* \"#utility.yul\":18950:18962   */\n      dup3\n        /* \"#utility.yul\":18916:18979   */\n      tag_678\n      jump\t// in\n    tag_801:\n        /* \"#utility.yul\":18821:18989   */\n      pop\n        /* \"#utility.yul\":19077:19081   */\n      0x20\n        /* \"#utility.yul\":19070:19075   */\n      dup4\n        /* \"#utility.yul\":19066:19082   */\n      add\n        /* \"#utility.yul\":19060:19083   */\n      mload\n        /* \"#utility.yul\":19130:19133   */\n      dup5\n        /* \"#utility.yul\":19124:19128   */\n      dup3\n        /* \"#utility.yul\":19120:19134   */\n      sub\n        /* \"#utility.yul\":19113:19117   */\n      0x20\n        /* \"#utility.yul\":19108:19111   */\n      dup7\n        /* \"#utility.yul\":19104:19118   */\n      add\n        /* \"#utility.yul\":19097:19135   */\n      mstore\n        /* \"#utility.yul\":19156:19229   */\n      tag_802\n        /* \"#utility.yul\":19224:19228   */\n      dup3\n        /* \"#utility.yul\":19210:19222   */\n      dup3\n        /* \"#utility.yul\":19156:19229   */\n      tag_759\n      jump\t// in\n    tag_802:\n        /* \"#utility.yul\":19148:19229   */\n      swap2\n      pop\n        /* \"#utility.yul\":18999:19240   */\n      pop\n        /* \"#utility.yul\":19326:19330   */\n      0x40\n        /* \"#utility.yul\":19319:19324   */\n      dup4\n        /* \"#utility.yul\":19315:19331   */\n      add\n        /* \"#utility.yul\":19309:19332   */\n      mload\n        /* \"#utility.yul\":19345:19408   */\n      tag_803\n        /* \"#utility.yul\":19402:19406   */\n      0x40\n        /* \"#utility.yul\":19397:19400   */\n      dup7\n        /* \"#utility.yul\":19393:19407   */\n      add\n        /* \"#utility.yul\":19379:19391   */\n      dup3\n        /* \"#utility.yul\":19345:19408   */\n      tag_678\n      jump\t// in\n    tag_803:\n        /* \"#utility.yul\":19250:19418   */\n      pop\n        /* \"#utility.yul\":19506:19510   */\n      0x60\n        /* \"#utility.yul\":19499:19504   */\n      dup4\n        /* \"#utility.yul\":19495:19511   */\n      add\n        /* \"#utility.yul\":19489:19512   */\n      mload\n        /* \"#utility.yul\":19525:19582   */\n      tag_804\n        /* \"#utility.yul\":19576:19580   */\n      0x60\n        /* \"#utility.yul\":19571:19574   */\n      dup7\n        /* \"#utility.yul\":19567:19581   */\n      add\n        /* \"#utility.yul\":19553:19565   */\n      dup3\n        /* \"#utility.yul\":19525:19582   */\n      tag_752\n      jump\t// in\n    tag_804:\n        /* \"#utility.yul\":19428:19592   */\n      pop\n        /* \"#utility.yul\":19609:19613   */\n      dup1\n        /* \"#utility.yul\":19602:19613   */\n      swap2\n      pop\n        /* \"#utility.yul\":18775:19619   */\n      pop\n      swap3\n      swap2\n      pop\n      pop\n      jump\t// out\n        /* \"#utility.yul\":19683:20954   */\n    tag_669:\n      0x00\n        /* \"#utility.yul\":19826:19830   */\n      0xa0\n        /* \"#utility.yul\":19821:19824   */\n      dup4\n        /* \"#utility.yul\":19817:19831   */\n      add\n        /* \"#utility.yul\":19919:19923   */\n      0x00\n        /* \"#utility.yul\":19912:19917   */\n      dup4\n        /* \"#utility.yul\":19908:19924   */\n      add\n        /* \"#utility.yul\":19902:19925   */\n      mload\n        /* \"#utility.yul\":19938:20001   */\n      tag_806\n        /* \"#utility.yul\":19995:19999   */\n      0x00\n        /* \"#utility.yul\":19990:19993   */\n      dup7\n        /* \"#utility.yul\":19986:20000   */\n      add\n        /* \"#utility.yul\":19972:19984   */\n      dup3\n        /* \"#utility.yul\":19938:20001   */\n      tag_678\n      jump\t// in\n    tag_806:\n        /* \"#utility.yul\":19841:20011   */\n      pop\n        /* \"#utility.yul\":20093:20097   */\n      0x20\n        /* \"#utility.yul\":20086:20091   */\n      dup4\n        /* \"#utility.yul\":20082:20098   */\n      add\n        /* \"#utility.yul\":20076:20099   */\n      mload\n        /* \"#utility.yul\":20146:20149   */\n      dup5\n        /* \"#utility.yul\":20140:20144   */\n      dup3\n        /* \"#utility.yul\":20136:20150   */\n      sub\n        /* \"#utility.yul\":20129:20133   */\n      0x20\n        /* \"#utility.yul\":20124:20127   */\n      dup7\n        /* \"#utility.yul\":20120:20134   */\n      add\n        /* \"#utility.yul\":20113:20151   */\n      mstore\n        /* \"#utility.yul\":20172:20245   */\n      tag_807\n        /* \"#utility.yul\":20240:20244   */\n      dup3\n        /* \"#utility.yul\":20226:20238   */\n      dup3\n        /* \"#utility.yul\":20172:20245   */\n      tag_759\n      jump\t// in\n    tag_807:\n        /* \"#utility.yul\":20164:20245   */\n      swap2\n      pop\n        /* \"#utility.yul\":20021:20256   */\n      pop\n        /* \"#utility.yul\":20339:20343   */\n      0x40\n        /* \"#utility.yul\":20332:20337   */\n      dup4\n        /* \"#utility.yul\":20328:20344   */\n      add\n        /* \"#utility.yul\":20322:20345   */\n      mload\n        /* \"#utility.yul\":20392:20395   */\n      dup5\n        /* \"#utility.yul\":20386:20390   */\n      dup3\n        /* \"#utility.yul\":20382:20396   */\n      sub\n        /* \"#utility.yul\":20375:20379   */\n      0x40\n        /* \"#utility.yul\":20370:20373   */\n      dup7\n        /* \"#utility.yul\":20366:20380   */\n      add\n        /* \"#utility.yul\":20359:20397   */\n      mstore\n        /* \"#utility.yul\":20418:20491   */\n      tag_808\n        /* \"#utility.yul\":20486:20490   */\n      dup3\n        /* \"#utility.yul\":20472:20484   */\n      dup3\n        /* \"#utility.yul\":20418:20491   */\n      tag_759\n      jump\t// in\n    tag_808:\n        /* \"#utility.yul\":20410:20491   */\n      swap2\n      pop\n        /* \"#utility.yul\":20266:20502   */\n      pop\n        /* \"#utility.yul\":20590:20594   */\n      0x60\n        /* \"#utility.yul\":20583:20588   */\n      dup4\n        /* \"#utility.yul\":20579:20595   */\n      add\n        /* \"#utility.yul\":20573:20596   */\n      mload\n        /* \"#utility.yul\":20643:20646   */\n      dup5\n        /* \"#utility.yul\":20637:20641   */\n      dup3\n        /* \"#utility.yul\":20633:20647   */\n      sub\n        /* \"#utility.yul\":20626:20630   */\n      0x60\n        /* \"#utility.yul\":20621:20624   */\n      dup7\n        /* \"#utility.yul\":20617:20631   */\n      add\n        /* \"#utility.yul\":20610:20648   */\n      mstore\n        /* \"#utility.yul\":20669:20742   */\n      tag_809\n        /* \"#utility.yul\":20737:20741   */\n      dup3\n        /* \"#utility.yul\":20723:20735   */\n      dup3\n        /* \"#utility.yul\":20669:20742   */\n      tag_759\n      jump\t// in\n    tag_809:\n        /* \"#utility.yul\":20661:20742   */\n      swap2\n      pop\n        /* \"#utility.yul\":20512:20753   */\n      pop\n        /* \"#utility.yul\":20841:20845   */\n      0x80\n        /* \"#utility.yul\":20834:20839   */\n      dup4\n        /* \"#utility.yul\":20830:20846   */\n      add\n        /* \"#utility.yul\":20824:20847   */\n      mload\n        /* \"#utility.yul\":20860:20917   */\n      tag_810\n        /* \"#utility.yul\":20911:20915   */\n      0x80\n        /* \"#utility.yul\":20906:20909   */\n      dup7\n        /* \"#utility.yul\":20902:20916   */\n      add\n        /* \"#utility.yul\":20888:20900   */\n      dup3\n        /* \"#utility.yul\":20860:20917   */\n      tag_752\n      jump\t// in\n    tag_810:\n        /* \"#utility.yul\":20763:20927   */\n      pop\n        /* \"#utility.yul\":20944:20948   */\n      dup1\n        /* \"#utility.yul\":20937:20948   */\n      swap2\n      pop\n        /* \"#utility.yul\":19795:20954   */\n      pop\n      swap3\n      swap2\n      pop\n      pop\n      jump\t// out\n        /* \"#utility.yul\":21014:22482   */\n    tag_673:\n      0x00\n        /* \"#utility.yul\":21153:21157   */\n      0xc0\n        /* \"#utility.yul\":21148:21151   */\n      dup4\n        /* \"#utility.yul\":21144:21158   */\n      add\n        /* \"#utility.yul\":21244:21248   */\n      0x00\n        /* \"#utility.yul\":21237:21242   */\n      dup4\n        /* \"#utility.yul\":21233:21249   */\n      add\n        /* \"#utility.yul\":21227:21250   */\n      mload\n        /* \"#utility.yul\":21263:21326   */\n      tag_812\n        /* \"#utility.yul\":21320:21324   */\n      0x00\n        /* \"#utility.yul\":21315:21318   */\n      dup7\n        /* \"#utility.yul\":21311:21325   */\n      add\n        /* \"#utility.yul\":21297:21309   */\n      dup3\n        /* \"#utility.yul\":21263:21326   */\n      tag_677\n      jump\t// in\n    tag_812:\n        /* \"#utility.yul\":21168:21336   */\n      pop\n        /* \"#utility.yul\":21417:21421   */\n      0x20\n        /* \"#utility.yul\":21410:21415   */\n      dup4\n        /* \"#utility.yul\":21406:21422   */\n      add\n        /* \"#utility.yul\":21400:21423   */\n      mload\n        /* \"#utility.yul\":21470:21473   */\n      dup5\n        /* \"#utility.yul\":21464:21468   */\n      dup3\n        /* \"#utility.yul\":21460:21474   */\n      sub\n        /* \"#utility.yul\":21453:21457   */\n      0x20\n        /* \"#utility.yul\":21448:21451   */\n      dup7\n        /* \"#utility.yul\":21444:21458   */\n      add\n        /* \"#utility.yul\":21437:21475   */\n      mstore\n        /* \"#utility.yul\":21496:21569   */\n      tag_813\n        /* \"#utility.yul\":21564:21568   */\n      dup3\n        /* \"#utility.yul\":21550:21562   */\n      dup3\n        /* \"#utility.yul\":21496:21569   */\n      tag_759\n      jump\t// in\n    tag_813:\n        /* \"#utility.yul\":21488:21569   */\n      swap2\n      pop\n        /* \"#utility.yul\":21346:21580   */\n      pop\n        /* \"#utility.yul\":21669:21673   */\n      0x40\n        /* \"#utility.yul\":21662:21667   */\n      dup4\n        /* \"#utility.yul\":21658:21674   */\n      add\n        /* \"#utility.yul\":21652:21675   */\n      mload\n        /* \"#utility.yul\":21722:21725   */\n      dup5\n        /* \"#utility.yul\":21716:21720   */\n      dup3\n        /* \"#utility.yul\":21712:21726   */\n      sub\n        /* \"#utility.yul\":21705:21709   */\n      0x40\n        /* \"#utility.yul\":21700:21703   */\n      dup7\n        /* \"#utility.yul\":21696:21710   */\n      add\n        /* \"#utility.yul\":21689:21727   */\n      mstore\n        /* \"#utility.yul\":21748:21821   */\n      tag_814\n        /* \"#utility.yul\":21816:21820   */\n      dup3\n        /* \"#utility.yul\":21802:21814   */\n      dup3\n        /* \"#utility.yul\":21748:21821   */\n      tag_759\n      jump\t// in\n    tag_814:\n        /* \"#utility.yul\":21740:21821   */\n      swap2\n      pop\n        /* \"#utility.yul\":21590:21832   */\n      pop\n        /* \"#utility.yul\":21918:21922   */\n      0x60\n        /* \"#utility.yul\":21911:21916   */\n      dup4\n        /* \"#utility.yul\":21907:21923   */\n      add\n        /* \"#utility.yul\":21901:21924   */\n      mload\n        /* \"#utility.yul\":21937:22000   */\n      tag_815\n        /* \"#utility.yul\":21994:21998   */\n      0x60\n        /* \"#utility.yul\":21989:21992   */\n      dup7\n        /* \"#utility.yul\":21985:21999   */\n      add\n        /* \"#utility.yul\":21971:21983   */\n      dup3\n        /* \"#utility.yul\":21937:22000   */\n      tag_678\n      jump\t// in\n    tag_815:\n        /* \"#utility.yul\":21842:22010   */\n      pop\n        /* \"#utility.yul\":22094:22098   */\n      0x80\n        /* \"#utility.yul\":22087:22092   */\n      dup4\n        /* \"#utility.yul\":22083:22099   */\n      add\n        /* \"#utility.yul\":22077:22100   */\n      mload\n        /* \"#utility.yul\":22113:22170   */\n      tag_816\n        /* \"#utility.yul\":22164:22168   */\n      0x80\n        /* \"#utility.yul\":22159:22162   */\n      dup7\n        /* \"#utility.yul\":22155:22169   */\n      add\n        /* \"#utility.yul\":22141:22153   */\n      dup3\n        /* \"#utility.yul\":22113:22170   */\n      tag_752\n      jump\t// in\n    tag_816:\n        /* \"#utility.yul\":22020:22180   */\n      pop\n        /* \"#utility.yul\":22262:22266   */\n      0xa0\n        /* \"#utility.yul\":22255:22260   */\n      dup4\n        /* \"#utility.yul\":22251:22267   */\n      add\n        /* \"#utility.yul\":22245:22268   */\n      mload\n        /* \"#utility.yul\":22315:22318   */\n      dup5\n        /* \"#utility.yul\":22309:22313   */\n      dup3\n        /* \"#utility.yul\":22305:22319   */\n      sub\n        /* \"#utility.yul\":22298:22302   */\n      0xa0\n        /* \"#utility.yul\":22293:22296   */\n      dup7\n        /* \"#utility.yul\":22289:22303   */\n      add\n        /* \"#utility.yul\":22282:22320   */\n      mstore\n        /* \"#utility.yul\":22341:22444   */\n      tag_817\n        /* \"#utility.yul\":22439:22443   */\n      dup3\n        /* \"#utility.yul\":22425:22437   */\n      dup3\n        /* \"#utility.yul\":22341:22444   */\n      tag_727\n      jump\t// in\n    tag_817:\n        /* \"#utility.yul\":22333:22444   */\n      swap2\n      pop\n        /* \"#utility.yul\":22190:22455   */\n      pop\n        /* \"#utility.yul\":22472:22476   */\n      dup1\n        /* \"#utility.yul\":22465:22476   */\n      swap2\n      pop\n        /* \"#utility.yul\":21122:22482   */\n      pop\n      swap3\n      swap2\n      pop\n      pop\n      jump\t// out\n        /* \"#utility.yul\":22488:22596   */\n    tag_677:\n        /* \"#utility.yul\":22565:22589   */\n      tag_819\n        /* \"#utility.yul\":22583:22588   */\n      dup2\n        /* \"#utility.yul\":22565:22589   */\n      tag_820\n      jump\t// in\n    tag_819:\n        /* \"#utility.yul\":22560:22563   */\n      dup3\n        /* \"#utility.yul\":22553:22590   */\n      mstore\n        /* \"#utility.yul\":22543:22596   */\n      pop\n      pop\n      jump\t// out\n        /* \"#utility.yul\":22602:22720   */\n    tag_821:\n        /* \"#utility.yul\":22689:22713   */\n      tag_823\n        /* \"#utility.yul\":22707:22712   */\n      dup2\n        /* \"#utility.yul\":22689:22713   */\n      tag_820\n      jump\t// in\n    tag_823:\n        /* \"#utility.yul\":22684:22687   */\n      dup3\n        /* \"#utility.yul\":22677:22714   */\n      mstore\n        /* \"#utility.yul\":22667:22720   */\n      pop\n      pop\n      jump\t// out\n        /* \"#utility.yul\":22726:22948   */\n    tag_111:\n      0x00\n        /* \"#utility.yul\":22857:22859   */\n      0x20\n        /* \"#utility.yul\":22846:22855   */\n      dup3\n        /* \"#utility.yul\":22842:22860   */\n      add\n        /* \"#utility.yul\":22834:22860   */\n      swap1\n      pop\n        /* \"#utility.yul\":22870:22941   */\n      tag_825\n        /* \"#utility.yul\":22938:22939   */\n      0x00\n        /* \"#utility.yul\":22927:22936   */\n      dup4\n        /* \"#utility.yul\":22923:22940   */\n      add\n        /* \"#utility.yul\":22914:22920   */\n      dup5\n        /* \"#utility.yul\":22870:22941   */\n      tag_682\n      jump\t// in\n    tag_825:\n        /* \"#utility.yul\":22824:22948   */\n      swap3\n      swap2\n      pop\n      pop\n      jump\t// out\n        /* \"#utility.yul\":22954:23586   */\n    tag_82:\n      0x00\n        /* \"#utility.yul\":23183:23186   */\n      0x80\n        /* \"#utility.yul\":23172:23181   */\n      dup3\n        /* \"#utility.yul\":23168:23187   */\n      add\n        /* \"#utility.yul\":23160:23187   */\n      swap1\n      pop\n        /* \"#utility.yul\":23197:23268   */\n      tag_827\n        /* \"#utility.yul\":23265:23266   */\n      0x00\n        /* \"#utility.yul\":23254:23263   */\n      dup4\n        /* \"#utility.yul\":23250:23267   */\n      add\n        /* \"#utility.yul\":23241:23247   */\n      dup8\n        /* \"#utility.yul\":23197:23268   */\n      tag_682\n      jump\t// in\n    tag_827:\n        /* \"#utility.yul\":23315:23324   */\n      dup2\n        /* \"#utility.yul\":23309:23313   */\n      dup2\n        /* \"#utility.yul\":23305:23325   */\n      sub\n        /* \"#utility.yul\":23300:23302   */\n      0x20\n        /* \"#utility.yul\":23289:23298   */\n      dup4\n        /* \"#utility.yul\":23285:23303   */\n      add\n        /* \"#utility.yul\":23278:23326   */\n      mstore\n        /* \"#utility.yul\":23343:23421   */\n      tag_828\n        /* \"#utility.yul\":23416:23420   */\n      dup2\n        /* \"#utility.yul\":23407:23413   */\n      dup7\n        /* \"#utility.yul\":23343:23421   */\n      tag_769\n      jump\t// in\n    tag_828:\n        /* \"#utility.yul\":23335:23421   */\n      swap1\n      pop\n        /* \"#utility.yul\":23431:23503   */\n      tag_829\n        /* \"#utility.yul\":23499:23501   */\n      0x40\n        /* \"#utility.yul\":23488:23497   */\n      dup4\n        /* \"#utility.yul\":23484:23502   */\n      add\n        /* \"#utility.yul\":23475:23481   */\n      dup6\n        /* \"#utility.yul\":23431:23503   */\n      tag_682\n      jump\t// in\n    tag_829:\n        /* \"#utility.yul\":23513:23579   */\n      tag_830\n        /* \"#utility.yul\":23575:23577   */\n      0x60\n        /* \"#utility.yul\":23564:23573   */\n      dup4\n        /* \"#utility.yul\":23560:23578   */\n      add\n        /* \"#utility.yul\":23551:23557   */\n      dup5\n        /* \"#utility.yul\":23513:23579   */\n      tag_756\n      jump\t// in\n    tag_830:\n        /* \"#utility.yul\":23150:23586   */\n      swap6\n      swap5\n      pop\n      pop\n      pop\n      pop\n      pop\n      jump\t// out\n        /* \"#utility.yul\":23592:24517   */\n    tag_99:\n      0x00\n        /* \"#utility.yul\":23889:23892   */\n      0xa0\n        /* \"#utility.yul\":23878:23887   */\n      dup3\n        /* \"#utility.yul\":23874:23893   */\n      add\n        /* \"#utility.yul\":23866:23893   */\n      swap1\n      pop\n        /* \"#utility.yul\":23903:23974   */\n      tag_832\n        /* \"#utility.yul\":23971:23972   */\n      0x00\n        /* \"#utility.yul\":23960:23969   */\n      dup4\n        /* \"#utility.yul\":23956:23973   */\n      add\n        /* \"#utility.yul\":23947:23953   */\n      dup9\n        /* \"#utility.yul\":23903:23974   */\n      tag_682\n      jump\t// in\n    tag_832:\n        /* \"#utility.yul\":24021:24030   */\n      dup2\n        /* \"#utility.yul\":24015:24019   */\n      dup2\n        /* \"#utility.yul\":24011:24031   */\n      sub\n        /* \"#utility.yul\":24006:24008   */\n      0x20\n        /* \"#utility.yul\":23995:24004   */\n      dup4\n        /* \"#utility.yul\":23991:24009   */\n      add\n        /* \"#utility.yul\":23984:24032   */\n      mstore\n        /* \"#utility.yul\":24049:24127   */\n      tag_833\n        /* \"#utility.yul\":24122:24126   */\n      dup2\n        /* \"#utility.yul\":24113:24119   */\n      dup8\n        /* \"#utility.yul\":24049:24127   */\n      tag_769\n      jump\t// in\n    tag_833:\n        /* \"#utility.yul\":24041:24127   */\n      swap1\n      pop\n        /* \"#utility.yul\":24174:24183   */\n      dup2\n        /* \"#utility.yul\":24168:24172   */\n      dup2\n        /* \"#utility.yul\":24164:24184   */\n      sub\n        /* \"#utility.yul\":24159:24161   */\n      0x40\n        /* \"#utility.yul\":24148:24157   */\n      dup4\n        /* \"#utility.yul\":24144:24162   */\n      add\n        /* \"#utility.yul\":24137:24185   */\n      mstore\n        /* \"#utility.yul\":24202:24280   */\n      tag_834\n        /* \"#utility.yul\":24275:24279   */\n      dup2\n        /* \"#utility.yul\":24266:24272   */\n      dup7\n        /* \"#utility.yul\":24202:24280   */\n      tag_769\n      jump\t// in\n    tag_834:\n        /* \"#utility.yul\":24194:24280   */\n      swap1\n      pop\n        /* \"#utility.yul\":24327:24336   */\n      dup2\n        /* \"#utility.yul\":24321:24325   */\n      dup2\n        /* \"#utility.yul\":24317:24337   */\n      sub\n        /* \"#utility.yul\":24312:24314   */\n      0x60\n        /* \"#utility.yul\":24301:24310   */\n      dup4\n        /* \"#utility.yul\":24297:24315   */\n      add\n        /* \"#utility.yul\":24290:24338   */\n      mstore\n        /* \"#utility.yul\":24355:24433   */\n      tag_835\n        /* \"#utility.yul\":24428:24432   */\n      dup2\n        /* \"#utility.yul\":24419:24425   */\n      dup6\n        /* \"#utility.yul\":24355:24433   */\n      tag_769\n      jump\t// in\n    tag_835:\n        /* \"#utility.yul\":24347:24433   */\n      swap1\n      pop\n        /* \"#utility.yul\":24443:24510   */\n      tag_836\n        /* \"#utility.yul\":24505:24508   */\n      0x80\n        /* \"#utility.yul\":24494:24503   */\n      dup4\n        /* \"#utility.yul\":24490:24509   */\n      add\n        /* \"#utility.yul\":24481:24487   */\n      dup5\n        /* \"#utility.yul\":24443:24510   */\n      tag_756\n      jump\t// in\n    tag_836:\n        /* \"#utility.yul\":23856:24517   */\n      swap7\n      swap6\n      pop\n      pop\n      pop\n      pop\n      pop\n      pop\n      jump\t// out\n        /* \"#utility.yul\":24523:25149   */\n    tag_261:\n      0x00\n        /* \"#utility.yul\":24749:24752   */\n      0x80\n        /* \"#utility.yul\":24738:24747   */\n      dup3\n        /* \"#utility.yul\":24734:24753   */\n      add\n        /* \"#utility.yul\":24726:24753   */\n      swap1\n      pop\n        /* \"#utility.yul\":24763:24834   */\n      tag_838\n        /* \"#utility.yul\":24831:24832   */\n      0x00\n        /* \"#utility.yul\":24820:24829   */\n      dup4\n        /* \"#utility.yul\":24816:24833   */\n      add\n        /* \"#utility.yul\":24807:24813   */\n      dup8\n        /* \"#utility.yul\":24763:24834   */\n      tag_682\n      jump\t// in\n    tag_838:\n        /* \"#utility.yul\":24881:24890   */\n      dup2\n        /* \"#utility.yul\":24875:24879   */\n      dup2\n        /* \"#utility.yul\":24871:24891   */\n      sub\n        /* \"#utility.yul\":24866:24868   */\n      0x20\n        /* \"#utility.yul\":24855:24864   */\n      dup4\n        /* \"#utility.yul\":24851:24869   */\n      add\n        /* \"#utility.yul\":24844:24892   */\n      mstore\n        /* \"#utility.yul\":24909:24984   */\n      tag_839\n        /* \"#utility.yul\":24979:24983   */\n      dup2\n        /* \"#utility.yul\":24970:24976   */\n      dup7\n        /* \"#utility.yul\":24909:24984   */\n      tag_776\n      jump\t// in\n    tag_839:\n        /* \"#utility.yul\":24901:24984   */\n      swap1\n      pop\n        /* \"#utility.yul\":24994:25066   */\n      tag_840\n        /* \"#utility.yul\":25062:25064   */\n      0x40\n        /* \"#utility.yul\":25051:25060   */\n      dup4\n        /* \"#utility.yul\":25047:25065   */\n      add\n        /* \"#utility.yul\":25038:25044   */\n      dup6\n        /* \"#utility.yul\":24994:25066   */\n      tag_682\n      jump\t// in\n    tag_840:\n        /* \"#utility.yul\":25076:25142   */\n      tag_841\n        /* \"#utility.yul\":25138:25140   */\n      0x60\n        /* \"#utility.yul\":25127:25136   */\n      dup4\n        /* \"#utility.yul\":25123:25141   */\n      add\n        /* \"#utility.yul\":25114:25120   */\n      dup5\n        /* \"#utility.yul\":25076:25142   */\n      tag_756\n      jump\t// in\n    tag_841:\n        /* \"#utility.yul\":24716:25149   */\n      swap6\n      swap5\n      pop\n      pop\n      pop\n      pop\n      pop\n      jump\t// out\n        /* \"#utility.yul\":25155:26062   */\n    tag_418:\n      0x00\n        /* \"#utility.yul\":25443:25446   */\n      0xa0\n        /* \"#utility.yul\":25432:25441   */\n      dup3\n        /* \"#utility.yul\":25428:25447   */\n      add\n        /* \"#utility.yul\":25420:25447   */\n      swap1\n      pop\n        /* \"#utility.yul\":25457:25528   */\n      tag_843\n        /* \"#utility.yul\":25525:25526   */\n      0x00\n        /* \"#utility.yul\":25514:25523   */\n      dup4\n        /* \"#utility.yul\":25510:25527   */\n      add\n        /* \"#utility.yul\":25501:25507   */\n      dup9\n        /* \"#utility.yul\":25457:25528   */\n      tag_682\n      jump\t// in\n    tag_843:\n        /* \"#utility.yul\":25575:25584   */\n      dup2\n        /* \"#utility.yul\":25569:25573   */\n      dup2\n        /* \"#utility.yul\":25565:25585   */\n      sub\n        /* \"#utility.yul\":25560:25562   */\n      0x20\n        /* \"#utility.yul\":25549:25558   */\n      dup4\n        /* \"#utility.yul\":25545:25563   */\n      add\n        /* \"#utility.yul\":25538:25586   */\n      mstore\n        /* \"#utility.yul\":25603:25678   */\n      tag_844\n        /* \"#utility.yul\":25673:25677   */\n      dup2\n        /* \"#utility.yul\":25664:25670   */\n      dup8\n        /* \"#utility.yul\":25603:25678   */\n      tag_776\n      jump\t// in\n    tag_844:\n        /* \"#utility.yul\":25595:25678   */\n      swap1\n      pop\n        /* \"#utility.yul\":25725:25734   */\n      dup2\n        /* \"#utility.yul\":25719:25723   */\n      dup2\n        /* \"#utility.yul\":25715:25735   */\n      sub\n        /* \"#utility.yul\":25710:25712   */\n      0x40\n        /* \"#utility.yul\":25699:25708   */\n      dup4\n        /* \"#utility.yul\":25695:25713   */\n      add\n        /* \"#utility.yul\":25688:25736   */\n      mstore\n        /* \"#utility.yul\":25753:25828   */\n      tag_845\n        /* \"#utility.yul\":25823:25827   */\n      dup2\n        /* \"#utility.yul\":25814:25820   */\n      dup7\n        /* \"#utility.yul\":25753:25828   */\n      tag_776\n      jump\t// in\n    tag_845:\n        /* \"#utility.yul\":25745:25828   */\n      swap1\n      pop\n        /* \"#utility.yul\":25875:25884   */\n      dup2\n        /* \"#utility.yul\":25869:25873   */\n      dup2\n        /* \"#utility.yul\":25865:25885   */\n      sub\n        /* \"#utility.yul\":25860:25862   */\n      0x60\n        /* \"#utility.yul\":25849:25858   */\n      dup4\n        /* \"#utility.yul\":25845:25863   */\n      add\n        /* \"#utility.yul\":25838:25886   */\n      mstore\n        /* \"#utility.yul\":25903:25978   */\n      tag_846\n        /* \"#utility.yul\":25973:25977   */\n      dup2\n        /* \"#utility.yul\":25964:25970   */\n      dup6\n        /* \"#utility.yul\":25903:25978   */\n      tag_776\n      jump\t// in\n    tag_846:\n        /* \"#utility.yul\":25895:25978   */\n      swap1\n      pop\n        /* \"#utility.yul\":25988:26055   */\n      tag_847\n        /* \"#utility.yul\":26050:26053   */\n      0x80\n        /* \"#utility.yul\":26039:26048   */\n      dup4\n        /* \"#utility.yul\":26035:26054   */\n      add\n        /* \"#utility.yul\":26026:26032   */\n      dup5\n        /* \"#utility.yul\":25988:26055   */\n      tag_756\n      jump\t// in\n    tag_847:\n        /* \"#utility.yul\":25410:26062   */\n      swap7\n      swap6\n      pop\n      pop\n      pop\n      pop\n      pop\n      pop\n      jump\t// out\n        /* \"#utility.yul\":26068:26529   */\n    tag_122:\n      0x00\n        /* \"#utility.yul\":26293:26295   */\n      0x20\n        /* \"#utility.yul\":26282:26291   */\n      dup3\n        /* \"#utility.yul\":26278:26296   */\n      add\n        /* \"#utility.yul\":26270:26296   */\n      swap1\n      pop\n        /* \"#utility.yul\":26342:26351   */\n      dup2\n        /* \"#utility.yul\":26336:26340   */\n      dup2\n        /* \"#utility.yul\":26332:26352   */\n      sub\n        /* \"#utility.yul\":26328:26329   */\n      0x00\n        /* \"#utility.yul\":26317:26326   */\n      dup4\n        /* \"#utility.yul\":26313:26330   */\n      add\n        /* \"#utility.yul\":26306:26353   */\n      mstore\n        /* \"#utility.yul\":26370:26522   */\n      tag_849\n        /* \"#utility.yul\":26517:26521   */\n      dup2\n        /* \"#utility.yul\":26508:26514   */\n      dup5\n        /* \"#utility.yul\":26370:26522   */\n      tag_685\n      jump\t// in\n    tag_849:\n        /* \"#utility.yul\":26362:26522   */\n      swap1\n      pop\n        /* \"#utility.yul\":26260:26529   */\n      swap3\n      swap2\n      pop\n      pop\n      jump\t// out\n        /* \"#utility.yul\":26535:27004   */\n    tag_55:\n      0x00\n        /* \"#utility.yul\":26764:26766   */\n      0x20\n        /* \"#utility.yul\":26753:26762   */\n      dup3\n        /* \"#utility.yul\":26749:26767   */\n      add\n        /* \"#utility.yul\":26741:26767   */\n      swap1\n      pop\n        /* \"#utility.yul\":26813:26822   */\n      dup2\n        /* \"#utility.yul\":26807:26811   */\n      dup2\n        /* \"#utility.yul\":26803:26823   */\n      sub\n        /* \"#utility.yul\":26799:26800   */\n      0x00\n        /* \"#utility.yul\":26788:26797   */\n      dup4\n        /* \"#utility.yul\":26784:26801   */\n      add\n        /* \"#utility.yul\":26777:26824   */\n      mstore\n        /* \"#utility.yul\":26841:26997   */\n      tag_851\n        /* \"#utility.yul\":26992:26996   */\n      dup2\n        /* \"#utility.yul\":26983:26989   */\n      dup5\n        /* \"#utility.yul\":26841:26997   */\n      tag_699\n      jump\t// in\n    tag_851:\n        /* \"#utility.yul\":26833:26997   */\n      swap1\n      pop\n        /* \"#utility.yul\":26731:27004   */\n      swap3\n      swap2\n      pop\n      pop\n      jump\t// out\n        /* \"#utility.yul\":27010:27471   */\n    tag_59:\n      0x00\n        /* \"#utility.yul\":27235:27237   */\n      0x20\n        /* \"#utility.yul\":27224:27233   */\n      dup3\n        /* \"#utility.yul\":27220:27238   */\n      add\n        /* \"#utility.yul\":27212:27238   */\n      swap1\n      pop\n        /* \"#utility.yul\":27284:27293   */\n      dup2\n        /* \"#utility.yul\":27278:27282   */\n      dup2\n        /* \"#utility.yul\":27274:27294   */\n      sub\n        /* \"#utility.yul\":27270:27271   */\n      0x00\n        /* \"#utility.yul\":27259:27268   */\n      dup4\n        /* \"#utility.yul\":27255:27272   */\n      add\n        /* \"#utility.yul\":27248:27295   */\n      mstore\n        /* \"#utility.yul\":27312:27464   */\n      tag_853\n        /* \"#utility.yul\":27459:27463   */\n      dup2\n        /* \"#utility.yul\":27450:27456   */\n      dup5\n        /* \"#utility.yul\":27312:27464   */\n      tag_713\n      jump\t// in\n    tag_853:\n        /* \"#utility.yul\":27304:27464   */\n      swap1\n      pop\n        /* \"#utility.yul\":27202:27471   */\n      swap3\n      swap2\n      pop\n      pop\n      jump\t// out\n        /* \"#utility.yul\":27477:27850   */\n    tag_117:\n      0x00\n        /* \"#utility.yul\":27658:27660   */\n      0x20\n        /* \"#utility.yul\":27647:27656   */\n      dup3\n        /* \"#utility.yul\":27643:27661   */\n      add\n        /* \"#utility.yul\":27635:27661   */\n      swap1\n      pop\n        /* \"#utility.yul\":27707:27716   */\n      dup2\n        /* \"#utility.yul\":27701:27705   */\n      dup2\n        /* \"#utility.yul\":27697:27717   */\n      sub\n        /* \"#utility.yul\":27693:27694   */\n      0x00\n        /* \"#utility.yul\":27682:27691   */\n      dup4\n        /* \"#utility.yul\":27678:27695   */\n      add\n        /* \"#utility.yul\":27671:27718   */\n      mstore\n        /* \"#utility.yul\":27735:27843   */\n      tag_855\n        /* \"#utility.yul\":27838:27842   */\n      dup2\n        /* \"#utility.yul\":27829:27835   */\n      dup5\n        /* \"#utility.yul\":27735:27843   */\n      tag_741\n      jump\t// in\n    tag_855:\n        /* \"#utility.yul\":27727:27843   */\n      swap1\n      pop\n        /* \"#utility.yul\":27625:27850   */\n      swap3\n      swap2\n      pop\n      pop\n      jump\t// out\n        /* \"#utility.yul\":27856:28066   */\n    tag_205:\n      0x00\n        /* \"#utility.yul\":27981:27983   */\n      0x20\n        /* \"#utility.yul\":27970:27979   */\n      dup3\n        /* \"#utility.yul\":27966:27984   */\n      add\n        /* \"#utility.yul\":27958:27984   */\n      swap1\n      pop\n        /* \"#utility.yul\":27994:28059   */\n      tag_857\n        /* \"#utility.yul\":28056:28057   */\n      0x00\n        /* \"#utility.yul\":28045:28054   */\n      dup4\n        /* \"#utility.yul\":28041:28058   */\n      add\n        /* \"#utility.yul\":28032:28038   */\n      dup5\n        /* \"#utility.yul\":27994:28059   */\n      tag_756\n      jump\t// in\n    tag_857:\n        /* \"#utility.yul\":27948:28066   */\n      swap3\n      swap2\n      pop\n      pop\n      jump\t// out\n        /* \"#utility.yul\":28072:28593   */\n    tag_68:\n      0x00\n        /* \"#utility.yul\":28273:28275   */\n      0x60\n        /* \"#utility.yul\":28262:28271   */\n      dup3\n        /* \"#utility.yul\":28258:28276   */\n      add\n        /* \"#utility.yul\":28250:28276   */\n      swap1\n      pop\n        /* \"#utility.yul\":28322:28331   */\n      dup2\n        /* \"#utility.yul\":28316:28320   */\n      dup2\n        /* \"#utility.yul\":28312:28332   */\n      sub\n        /* \"#utility.yul\":28308:28309   */\n      0x00\n        /* \"#utility.yul\":28297:28306   */\n      dup4\n        /* \"#utility.yul\":28293:28310   */\n      add\n        /* \"#utility.yul\":28286:28333   */\n      mstore\n        /* \"#utility.yul\":28350:28428   */\n      tag_859\n        /* \"#utility.yul\":28423:28427   */\n      dup2\n        /* \"#utility.yul\":28414:28420   */\n      dup7\n        /* \"#utility.yul\":28350:28428   */\n      tag_769\n      jump\t// in\n    tag_859:\n        /* \"#utility.yul\":28342:28428   */\n      swap1\n      pop\n        /* \"#utility.yul\":28438:28510   */\n      tag_860\n        /* \"#utility.yul\":28506:28508   */\n      0x20\n        /* \"#utility.yul\":28495:28504   */\n      dup4\n        /* \"#utility.yul\":28491:28509   */\n      add\n        /* \"#utility.yul\":28482:28488   */\n      dup6\n        /* \"#utility.yul\":28438:28510   */\n      tag_682\n      jump\t// in\n    tag_860:\n        /* \"#utility.yul\":28520:28586   */\n      tag_861\n        /* \"#utility.yul\":28582:28584   */\n      0x40\n        /* \"#utility.yul\":28571:28580   */\n      dup4\n        /* \"#utility.yul\":28567:28585   */\n      add\n        /* \"#utility.yul\":28558:28564   */\n      dup5\n        /* \"#utility.yul\":28520:28586   */\n      tag_756\n      jump\t// in\n    tag_861:\n        /* \"#utility.yul\":28240:28593   */\n      swap5\n      swap4\n      pop\n      pop\n      pop\n      pop\n      jump\t// out\n        /* \"#utility.yul\":28599:29322   */\n    tag_39:\n      0x00\n        /* \"#utility.yul\":28848:28851   */\n      0x80\n        /* \"#utility.yul\":28837:28846   */\n      dup3\n        /* \"#utility.yul\":28833:28852   */\n      add\n        /* \"#utility.yul\":28825:28852   */\n      swap1\n      pop\n        /* \"#utility.yul\":28898:28907   */\n      dup2\n        /* \"#utility.yul\":28892:28896   */\n      dup2\n        /* \"#utility.yul\":28888:28908   */\n      sub\n        /* \"#utility.yul\":28884:28885   */\n      0x00\n        /* \"#utility.yul\":28873:28882   */\n      dup4\n        /* \"#utility.yul\":28869:28886   */\n      add\n        /* \"#utility.yul\":28862:28909   */\n      mstore\n        /* \"#utility.yul\":28926:29004   */\n      tag_863\n        /* \"#utility.yul\":28999:29003   */\n      dup2\n        /* \"#utility.yul\":28990:28996   */\n      dup8\n        /* \"#utility.yul\":28926:29004   */\n      tag_769\n      jump\t// in\n    tag_863:\n        /* \"#utility.yul\":28918:29004   */\n      swap1\n      pop\n        /* \"#utility.yul\":29051:29060   */\n      dup2\n        /* \"#utility.yul\":29045:29049   */\n      dup2\n        /* \"#utility.yul\":29041:29061   */\n      sub\n        /* \"#utility.yul\":29036:29038   */\n      0x20\n        /* \"#utility.yul\":29025:29034   */\n      dup4\n        /* \"#utility.yul\":29021:29039   */\n      add\n        /* \"#utility.yul\":29014:29062   */\n      mstore\n        /* \"#utility.yul\":29079:29157   */\n      tag_864\n        /* \"#utility.yul\":29152:29156   */\n      dup2\n        /* \"#utility.yul\":29143:29149   */\n      dup7\n        /* \"#utility.yul\":29079:29157   */\n      tag_769\n      jump\t// in\n    tag_864:\n        /* \"#utility.yul\":29071:29157   */\n      swap1\n      pop\n        /* \"#utility.yul\":29167:29239   */\n      tag_865\n        /* \"#utility.yul\":29235:29237   */\n      0x40\n        /* \"#utility.yul\":29224:29233   */\n      dup4\n        /* \"#utility.yul\":29220:29238   */\n      add\n        /* \"#utility.yul\":29211:29217   */\n      dup6\n        /* \"#utility.yul\":29167:29239   */\n      tag_682\n      jump\t// in\n    tag_865:\n        /* \"#utility.yul\":29249:29315   */\n      tag_866\n        /* \"#utility.yul\":29311:29313   */\n      0x60\n        /* \"#utility.yul\":29300:29309   */\n      dup4\n        /* \"#utility.yul\":29296:29314   */\n      add\n        /* \"#utility.yul\":29287:29293   */\n      dup5\n        /* \"#utility.yul\":29249:29315   */\n      tag_756\n      jump\t// in\n    tag_866:\n        /* \"#utility.yul\":28815:29322   */\n      swap6\n      swap5\n      pop\n      pop\n      pop\n      pop\n      pop\n      jump\t// out\n        /* \"#utility.yul\":29328:30142   */\n    tag_91:\n      0x00\n        /* \"#utility.yul\":29597:29600   */\n      0x80\n        /* \"#utility.yul\":29586:29595   */\n      dup3\n        /* \"#utility.yul\":29582:29601   */\n      add\n        /* \"#utility.yul\":29574:29601   */\n      swap1\n      pop\n        /* \"#utility.yul\":29647:29656   */\n      dup2\n        /* \"#utility.yul\":29641:29645   */\n      dup2\n        /* \"#utility.yul\":29637:29657   */\n      sub\n        /* \"#utility.yul\":29633:29634   */\n      0x00\n        /* \"#utility.yul\":29622:29631   */\n      dup4\n        /* \"#utility.yul\":29618:29635   */\n      add\n        /* \"#utility.yul\":29611:29658   */\n      mstore\n        /* \"#utility.yul\":29675:29753   */\n      tag_868\n        /* \"#utility.yul\":29748:29752   */\n      dup2\n        /* \"#utility.yul\":29739:29745   */\n      dup8\n        /* \"#utility.yul\":29675:29753   */\n      tag_769\n      jump\t// in\n    tag_868:\n        /* \"#utility.yul\":29667:29753   */\n      swap1\n      pop\n        /* \"#utility.yul\":29800:29809   */\n      dup2\n        /* \"#utility.yul\":29794:29798   */\n      dup2\n        /* \"#utility.yul\":29790:29810   */\n      sub\n        /* \"#utility.yul\":29785:29787   */\n      0x20\n        /* \"#utility.yul\":29774:29783   */\n      dup4\n        /* \"#utility.yul\":29770:29788   */\n      add\n        /* \"#utility.yul\":29763:29811   */\n      mstore\n        /* \"#utility.yul\":29828:29906   */\n      tag_869\n        /* \"#utility.yul\":29901:29905   */\n      dup2\n        /* \"#utility.yul\":29892:29898   */\n      dup7\n        /* \"#utility.yul\":29828:29906   */\n      tag_769\n      jump\t// in\n    tag_869:\n        /* \"#utility.yul\":29820:29906   */\n      swap1\n      pop\n        /* \"#utility.yul\":29953:29962   */\n      dup2\n        /* \"#utility.yul\":29947:29951   */\n      dup2\n        /* \"#utility.yul\":29943:29963   */\n      sub\n        /* \"#utility.yul\":29938:29940   */\n      0x40\n        /* \"#utility.yul\":29927:29936   */\n      dup4\n        /* \"#utility.yul\":29923:29941   */\n      add\n        /* \"#utility.yul\":29916:29964   */\n      mstore\n        /* \"#utility.yul\":29981:30059   */\n      tag_870\n        /* \"#utility.yul\":30054:30058   */\n      dup2\n        /* \"#utility.yul\":30045:30051   */\n      dup6\n        /* \"#utility.yul\":29981:30059   */\n      tag_769\n      jump\t// in\n    tag_870:\n        /* \"#utility.yul\":29973:30059   */\n      swap1\n      pop\n        /* \"#utility.yul\":30069:30135   */\n      tag_871\n        /* \"#utility.yul\":30131:30133   */\n      0x60\n        /* \"#utility.yul\":30120:30129   */\n      dup4\n        /* \"#utility.yul\":30116:30134   */\n      add\n        /* \"#utility.yul\":30107:30113   */\n      dup5\n        /* \"#utility.yul\":30069:30135   */\n      tag_756\n      jump\t// in\n    tag_871:\n        /* \"#utility.yul\":29564:30142   */\n      swap6\n      swap5\n      pop\n      pop\n      pop\n      pop\n      pop\n      jump\t// out\n        /* \"#utility.yul\":30148:30567   */\n    tag_535:\n      0x00\n        /* \"#utility.yul\":30352:30354   */\n      0x20\n        /* \"#utility.yul\":30341:30350   */\n      dup3\n        /* \"#utility.yul\":30337:30355   */\n      add\n        /* \"#utility.yul\":30329:30355   */\n      swap1\n      pop\n        /* \"#utility.yul\":30401:30410   */\n      dup2\n        /* \"#utility.yul\":30395:30399   */\n      dup2\n        /* \"#utility.yul\":30391:30411   */\n      sub\n        /* \"#utility.yul\":30387:30388   */\n      0x00\n        /* \"#utility.yul\":30376:30385   */\n      dup4\n        /* \"#utility.yul\":30372:30389   */\n      add\n        /* \"#utility.yul\":30365:30412   */\n      mstore\n        /* \"#utility.yul\":30429:30560   */\n      tag_873\n        /* \"#utility.yul\":30555:30559   */\n      dup2\n        /* \"#utility.yul\":30429:30560   */\n      tag_788\n      jump\t// in\n    tag_873:\n        /* \"#utility.yul\":30421:30560   */\n      swap1\n      pop\n        /* \"#utility.yul\":30319:30567   */\n      swap2\n      swap1\n      pop\n      jump\t// out\n        /* \"#utility.yul\":30573:30992   */\n    tag_526:\n      0x00\n        /* \"#utility.yul\":30777:30779   */\n      0x20\n        /* \"#utility.yul\":30766:30775   */\n      dup3\n        /* \"#utility.yul\":30762:30780   */\n      add\n        /* \"#utility.yul\":30754:30780   */\n      swap1\n      pop\n        /* \"#utility.yul\":30826:30835   */\n      dup2\n        /* \"#utility.yul\":30820:30824   */\n      dup2\n        /* \"#utility.yul\":30816:30836   */\n      sub\n        /* \"#utility.yul\":30812:30813   */\n      0x00\n        /* \"#utility.yul\":30801:30810   */\n      dup4\n        /* \"#utility.yul\":30797:30814   */\n      add\n        /* \"#utility.yul\":30790:30837   */\n      mstore\n        /* \"#utility.yul\":30854:30985   */\n      tag_875\n        /* \"#utility.yul\":30980:30984   */\n      dup2\n        /* \"#utility.yul\":30854:30985   */\n      tag_791\n      jump\t// in\n    tag_875:\n        /* \"#utility.yul\":30846:30985   */\n      swap1\n      pop\n        /* \"#utility.yul\":30744:30992   */\n      swap2\n      swap1\n      pop\n      jump\t// out\n        /* \"#utility.yul\":30998:31417   */\n    tag_544:\n      0x00\n        /* \"#utility.yul\":31202:31204   */\n      0x20\n        /* \"#utility.yul\":31191:31200   */\n      dup3\n        /* \"#utility.yul\":31187:31205   */\n      add\n        /* \"#utility.yul\":31179:31205   */\n      swap1\n      pop\n        /* \"#utility.yul\":31251:31260   */\n      dup2\n        /* \"#utility.yul\":31245:31249   */\n      dup2\n        /* \"#utility.yul\":31241:31261   */\n      sub\n        /* \"#utility.yul\":31237:31238   */\n      0x00\n        /* \"#utility.yul\":31226:31235   */\n      dup4\n        /* \"#utility.yul\":31222:31239   */\n      add\n        /* \"#utility.yul\":31215:31262   */\n      mstore\n        /* \"#utility.yul\":31279:31410   */\n      tag_877\n        /* \"#utility.yul\":31405:31409   */\n      dup2\n        /* \"#utility.yul\":31279:31410   */\n      tag_794\n      jump\t// in\n    tag_877:\n        /* \"#utility.yul\":31271:31410   */\n      swap1\n      pop\n        /* \"#utility.yul\":31169:31417   */\n      swap2\n      swap1\n      pop\n      jump\t// out\n        /* \"#utility.yul\":31423:31842   */\n    tag_149:\n      0x00\n        /* \"#utility.yul\":31627:31629   */\n      0x20\n        /* \"#utility.yul\":31616:31625   */\n      dup3\n        /* \"#utility.yul\":31612:31630   */\n      add\n        /* \"#utility.yul\":31604:31630   */\n      swap1\n      pop\n        /* \"#utility.yul\":31676:31685   */\n      dup2\n        /* \"#utility.yul\":31670:31674   */\n      dup2\n        /* \"#utility.yul\":31666:31686   */\n      sub\n        /* \"#utility.yul\":31662:31663   */\n      0x00\n        /* \"#utility.yul\":31651:31660   */\n      dup4\n        /* \"#utility.yul\":31647:31664   */\n      add\n        /* \"#utility.yul\":31640:31687   */\n      mstore\n        /* \"#utility.yul\":31704:31835   */\n      tag_879\n        /* \"#utility.yul\":31830:31834   */\n      dup2\n        /* \"#utility.yul\":31704:31835   */\n      tag_797\n      jump\t// in\n    tag_879:\n        /* \"#utility.yul\":31696:31835   */\n      swap1\n      pop\n        /* \"#utility.yul\":31594:31842   */\n      swap2\n      swap1\n      pop\n      jump\t// out\n        /* \"#utility.yul\":31848:32682   */\n    tag_77:\n      0x00\n        /* \"#utility.yul\":32125:32128   */\n      0xa0\n        /* \"#utility.yul\":32114:32123   */\n      dup3\n        /* \"#utility.yul\":32110:32129   */\n      add\n        /* \"#utility.yul\":32102:32129   */\n      swap1\n      pop\n        /* \"#utility.yul\":32139:32210   */\n      tag_881\n        /* \"#utility.yul\":32207:32208   */\n      0x00\n        /* \"#utility.yul\":32196:32205   */\n      dup4\n        /* \"#utility.yul\":32192:32209   */\n      add\n        /* \"#utility.yul\":32183:32189   */\n      dup9\n        /* \"#utility.yul\":32139:32210   */\n      tag_821\n      jump\t// in\n    tag_881:\n        /* \"#utility.yul\":32257:32266   */\n      dup2\n        /* \"#utility.yul\":32251:32255   */\n      dup2\n        /* \"#utility.yul\":32247:32267   */\n      sub\n        /* \"#utility.yul\":32242:32244   */\n      0x20\n        /* \"#utility.yul\":32231:32240   */\n      dup4\n        /* \"#utility.yul\":32227:32245   */\n      add\n        /* \"#utility.yul\":32220:32268   */\n      mstore\n        /* \"#utility.yul\":32285:32363   */\n      tag_882\n        /* \"#utility.yul\":32358:32362   */\n      dup2\n        /* \"#utility.yul\":32349:32355   */\n      dup8\n        /* \"#utility.yul\":32285:32363   */\n      tag_769\n      jump\t// in\n    tag_882:\n        /* \"#utility.yul\":32277:32363   */\n      swap1\n      pop\n        /* \"#utility.yul\":32410:32419   */\n      dup2\n        /* \"#utility.yul\":32404:32408   */\n      dup2\n        /* \"#utility.yul\":32400:32420   */\n      sub\n        /* \"#utility.yul\":32395:32397   */\n      0x40\n        /* \"#utility.yul\":32384:32393   */\n      dup4\n        /* \"#utility.yul\":32380:32398   */\n      add\n        /* \"#utility.yul\":32373:32421   */\n      mstore\n        /* \"#utility.yul\":32438:32516   */\n      tag_883\n        /* \"#utility.yul\":32511:32515   */\n      dup2\n        /* \"#utility.yul\":32502:32508   */\n      dup7\n        /* \"#utility.yul\":32438:32516   */\n      tag_769\n      jump\t// in\n    tag_883:\n        /* \"#utility.yul\":32430:32516   */\n      swap1\n      pop\n        /* \"#utility.yul\":32526:32598   */\n      tag_884\n        /* \"#utility.yul\":32594:32596   */\n      0x60\n        /* \"#utility.yul\":32583:32592   */\n      dup4\n        /* \"#utility.yul\":32579:32597   */\n      add\n        /* \"#utility.yul\":32570:32576   */\n      dup6\n        /* \"#utility.yul\":32526:32598   */\n      tag_682\n      jump\t// in\n    tag_884:\n        /* \"#utility.yul\":32608:32675   */\n      tag_885\n        /* \"#utility.yul\":32670:32673   */\n      0x80\n        /* \"#utility.yul\":32659:32668   */\n      dup4\n        /* \"#utility.yul\":32655:32674   */\n      add\n        /* \"#utility.yul\":32646:32652   */\n      dup5\n        /* \"#utility.yul\":32608:32675   */\n      tag_756\n      jump\t// in\n    tag_885:\n        /* \"#utility.yul\":32092:32682   */\n      swap7\n      swap6\n      pop\n      pop\n      pop\n      pop\n      pop\n      pop\n      jump\t// out\n        /* \"#utility.yul\":32688:33784   */\n    tag_183:\n      0x00\n        /* \"#utility.yul\":33043:33046   */\n      0xc0\n        /* \"#utility.yul\":33032:33041   */\n      dup3\n        /* \"#utility.yul\":33028:33047   */\n      add\n        /* \"#utility.yul\":33020:33047   */\n      swap1\n      pop\n        /* \"#utility.yul\":33057:33128   */\n      tag_887\n        /* \"#utility.yul\":33125:33126   */\n      0x00\n        /* \"#utility.yul\":33114:33123   */\n      dup4\n        /* \"#utility.yul\":33110:33127   */\n      add\n        /* \"#utility.yul\":33101:33107   */\n      dup10\n        /* \"#utility.yul\":33057:33128   */\n      tag_821\n      jump\t// in\n    tag_887:\n        /* \"#utility.yul\":33175:33184   */\n      dup2\n        /* \"#utility.yul\":33169:33173   */\n      dup2\n        /* \"#utility.yul\":33165:33185   */\n      sub\n        /* \"#utility.yul\":33160:33162   */\n      0x20\n        /* \"#utility.yul\":33149:33158   */\n      dup4\n        /* \"#utility.yul\":33145:33163   */\n      add\n        /* \"#utility.yul\":33138:33186   */\n      mstore\n        /* \"#utility.yul\":33203:33281   */\n      tag_888\n        /* \"#utility.yul\":33276:33280   */\n      dup2\n        /* \"#utility.yul\":33267:33273   */\n      dup9\n        /* \"#utility.yul\":33203:33281   */\n      tag_769\n      jump\t// in\n    tag_888:\n        /* \"#utility.yul\":33195:33281   */\n      swap1\n      pop\n        /* \"#utility.yul\":33328:33337   */\n      dup2\n        /* \"#utility.yul\":33322:33326   */\n      dup2\n        /* \"#utility.yul\":33318:33338   */\n      sub\n        /* \"#utility.yul\":33313:33315   */\n      0x40\n        /* \"#utility.yul\":33302:33311   */\n      dup4\n        /* \"#utility.yul\":33298:33316   */\n      add\n        /* \"#utility.yul\":33291:33339   */\n      mstore\n        /* \"#utility.yul\":33356:33434   */\n      tag_889\n        /* \"#utility.yul\":33429:33433   */\n      dup2\n        /* \"#utility.yul\":33420:33426   */\n      dup8\n        /* \"#utility.yul\":33356:33434   */\n      tag_769\n      jump\t// in\n    tag_889:\n        /* \"#utility.yul\":33348:33434   */\n      swap1\n      pop\n        /* \"#utility.yul\":33444:33516   */\n      tag_890\n        /* \"#utility.yul\":33512:33514   */\n      0x60\n        /* \"#utility.yul\":33501:33510   */\n      dup4\n        /* \"#utility.yul\":33497:33515   */\n      add\n        /* \"#utility.yul\":33488:33494   */\n      dup7\n        /* \"#utility.yul\":33444:33516   */\n      tag_682\n      jump\t// in\n    tag_890:\n        /* \"#utility.yul\":33526:33593   */\n      tag_891\n        /* \"#utility.yul\":33588:33591   */\n      0x80\n        /* \"#utility.yul\":33577:33586   */\n      dup4\n        /* \"#utility.yul\":33573:33592   */\n      add\n        /* \"#utility.yul\":33564:33570   */\n      dup6\n        /* \"#utility.yul\":33526:33593   */\n      tag_756\n      jump\t// in\n    tag_891:\n        /* \"#utility.yul\":33641:33650   */\n      dup2\n        /* \"#utility.yul\":33635:33639   */\n      dup2\n        /* \"#utility.yul\":33631:33651   */\n      sub\n        /* \"#utility.yul\":33625:33628   */\n      0xa0\n        /* \"#utility.yul\":33614:33623   */\n      dup4\n        /* \"#utility.yul\":33610:33629   */\n      add\n        /* \"#utility.yul\":33603:33652   */\n      mstore\n        /* \"#utility.yul\":33669:33777   */\n      tag_892\n        /* \"#utility.yul\":33772:33776   */\n      dup2\n        /* \"#utility.yul\":33763:33769   */\n      dup5\n        /* \"#utility.yul\":33669:33777   */\n      tag_741\n      jump\t// in\n    tag_892:\n        /* \"#utility.yul\":33661:33777   */\n      swap1\n      pop\n        /* \"#utility.yul\":33010:33784   */\n      swap8\n      swap7\n      pop\n      pop\n      pop\n      pop\n      pop\n      pop\n      pop\n      jump\t// out\n        /* \"#utility.yul\":33790:34612   */\n    tag_306:\n      0x00\n        /* \"#utility.yul\":34061:34064   */\n      0xa0\n        /* \"#utility.yul\":34050:34059   */\n      dup3\n        /* \"#utility.yul\":34046:34065   */\n      add\n        /* \"#utility.yul\":34038:34065   */\n      swap1\n      pop\n        /* \"#utility.yul\":34075:34146   */\n      tag_894\n        /* \"#utility.yul\":34143:34144   */\n      0x00\n        /* \"#utility.yul\":34132:34141   */\n      dup4\n        /* \"#utility.yul\":34128:34145   */\n      add\n        /* \"#utility.yul\":34119:34125   */\n      dup9\n        /* \"#utility.yul\":34075:34146   */\n      tag_821\n      jump\t// in\n    tag_894:\n        /* \"#utility.yul\":34193:34202   */\n      dup2\n        /* \"#utility.yul\":34187:34191   */\n      dup2\n        /* \"#utility.yul\":34183:34203   */\n      sub\n        /* \"#utility.yul\":34178:34180   */\n      0x20\n        /* \"#utility.yul\":34167:34176   */\n      dup4\n        /* \"#utility.yul\":34163:34181   */\n      add\n        /* \"#utility.yul\":34156:34204   */\n      mstore\n        /* \"#utility.yul\":34221:34296   */\n      tag_895\n        /* \"#utility.yul\":34291:34295   */\n      dup2\n        /* \"#utility.yul\":34282:34288   */\n      dup8\n        /* \"#utility.yul\":34221:34296   */\n      tag_776\n      jump\t// in\n    tag_895:\n        /* \"#utility.yul\":34213:34296   */\n      swap1\n      pop\n        /* \"#utility.yul\":34343:34352   */\n      dup2\n        /* \"#utility.yul\":34337:34341   */\n      dup2\n        /* \"#utility.yul\":34333:34353   */\n      sub\n        /* \"#utility.yul\":34328:34330   */\n      0x40\n        /* \"#utility.yul\":34317:34326   */\n      dup4\n        /* \"#utility.yul\":34313:34331   */\n      add\n        /* \"#utility.yul\":34306:34354   */\n      mstore\n        /* \"#utility.yul\":34371:34446   */\n      tag_896\n        /* \"#utility.yul\":34441:34445   */\n      dup2\n        /* \"#utility.yul\":34432:34438   */\n      dup7\n        /* \"#utility.yul\":34371:34446   */\n      tag_776\n      jump\t// in\n    tag_896:\n        /* \"#utility.yul\":34363:34446   */\n      swap1\n      pop\n        /* \"#utility.yul\":34456:34528   */\n      tag_897\n        /* \"#utility.yul\":34524:34526   */\n      0x60\n        /* \"#utility.yul\":34513:34522   */\n      dup4\n        /* \"#utility.yul\":34509:34527   */\n      add\n        /* \"#utility.yul\":34500:34506   */\n      dup6\n        /* \"#utility.yul\":34456:34528   */\n      tag_682\n      jump\t// in\n    tag_897:\n        /* \"#utility.yul\":34538:34605   */\n      tag_898\n        /* \"#utility.yul\":34600:34603   */\n      0x80\n        /* \"#utility.yul\":34589:34598   */\n      dup4\n        /* \"#utility.yul\":34585:34604   */\n      add\n        /* \"#utility.yul\":34576:34582   */\n      dup5\n        /* \"#utility.yul\":34538:34605   */\n      tag_756\n      jump\t// in\n    tag_898:\n        /* \"#utility.yul\":34028:34612   */\n      swap7\n      swap6\n      pop\n      pop\n      pop\n      pop\n      pop\n      pop\n      jump\t// out\n        /* \"#utility.yul\":34618:34896   */\n    tag_564:\n      0x00\n        /* \"#utility.yul\":34684:34686   */\n      0x40\n        /* \"#utility.yul\":34678:34687   */\n      mload\n        /* \"#utility.yul\":34668:34687   */\n      swap1\n      pop\n        /* \"#utility.yul\":34726:34730   */\n      dup2\n        /* \"#utility.yul\":34718:34724   */\n      dup2\n        /* \"#utility.yul\":34714:34731   */\n      add\n        /* \"#utility.yul\":34833:34839   */\n      dup2\n        /* \"#utility.yul\":34821:34831   */\n      dup2\n        /* \"#utility.yul\":34818:34840   */\n      lt\n        /* \"#utility.yul\":34797:34815   */\n      0xffffffffffffffff\n        /* \"#utility.yul\":34785:34795   */\n      dup3\n        /* \"#utility.yul\":34782:34816   */\n      gt\n        /* \"#utility.yul\":34779:34841   */\n      or\n        /* \"#utility.yul\":34776:34778   */\n      iszero\n      tag_900\n      jumpi\n        /* \"#utility.yul\":34844:34857   */\n      tag_901\n      tag_902\n      jump\t// in\n    tag_901:\n        /* \"#utility.yul\":34776:34778   */\n    tag_900:\n        /* \"#utility.yul\":34879:34889   */\n      dup1\n        /* \"#utility.yul\":34875:34877   */\n      0x40\n        /* \"#utility.yul\":34868:34890   */\n      mstore\n        /* \"#utility.yul\":34658:34896   */\n      pop\n      swap2\n      swap1\n      pop\n      jump\t// out\n        /* \"#utility.yul\":34902:35208   */\n    tag_563:\n      0x00\n        /* \"#utility.yul\":35069:35087   */\n      0xffffffffffffffff\n        /* \"#utility.yul\":35061:35067   */\n      dup3\n        /* \"#utility.yul\":35058:35088   */\n      gt\n        /* \"#utility.yul\":35055:35057   */\n      iszero\n      tag_904\n      jumpi\n        /* \"#utility.yul\":35091:35104   */\n      tag_905\n      tag_902\n      jump\t// in\n    tag_905:\n        /* \"#utility.yul\":35055:35057   */\n    tag_904:\n        /* \"#utility.yul\":35136:35140   */\n      0x20\n        /* \"#utility.yul\":35128:35134   */\n      dup3\n        /* \"#utility.yul\":35124:35141   */\n      mul\n        /* \"#utility.yul\":35116:35141   */\n      swap1\n      pop\n        /* \"#utility.yul\":35196:35200   */\n      0x20\n        /* \"#utility.yul\":35190:35194   */\n      dup2\n        /* \"#utility.yul\":35186:35201   */\n      add\n        /* \"#utility.yul\":35178:35201   */\n      swap1\n      pop\n        /* \"#utility.yul\":34984:35208   */\n      swap2\n      swap1\n      pop\n      jump\t// out\n        /* \"#utility.yul\":35214:35541   */\n    tag_575:\n      0x00\n        /* \"#utility.yul\":35366:35384   */\n      0xffffffffffffffff\n        /* \"#utility.yul\":35358:35364   */\n      dup3\n        /* \"#utility.yul\":35355:35385   */\n      gt\n        /* \"#utility.yul\":35352:35354   */\n      iszero\n      tag_907\n      jumpi\n        /* \"#utility.yul\":35388:35401   */\n      tag_908\n      tag_902\n      jump\t// in\n    tag_908:\n        /* \"#utility.yul\":35352:35354   */\n    tag_907:\n        /* \"#utility.yul\":35468:35472   */\n      0x1f\n        /* \"#utility.yul\":35464:35473   */\n      not\n        /* \"#utility.yul\":35457:35461   */\n      0x1f\n        /* \"#utility.yul\":35449:35455   */\n      dup4\n        /* \"#utility.yul\":35445:35462   */\n      add\n        /* \"#utility.yul\":35441:35474   */\n      and\n        /* \"#utility.yul\":35433:35474   */\n      swap1\n      pop\n        /* \"#utility.yul\":35529:35533   */\n      0x20\n        /* \"#utility.yul\":35523:35527   */\n      dup2\n        /* \"#utility.yul\":35519:35534   */\n      add\n        /* \"#utility.yul\":35511:35534   */\n      swap1\n      pop\n        /* \"#utility.yul\":35281:35541   */\n      swap2\n      swap1\n      pop\n      jump\t// out\n        /* \"#utility.yul\":35547:35701   */\n    tag_692:\n      0x00\n        /* \"#utility.yul\":35659:35662   */\n      dup2\n        /* \"#utility.yul\":35651:35662   */\n      swap1\n      pop\n        /* \"#utility.yul\":35689:35693   */\n      0x20\n        /* \"#utility.yul\":35684:35687   */\n      dup3\n        /* \"#utility.yul\":35680:35694   */\n      add\n        /* \"#utility.yul\":35672:35694   */\n      swap1\n      pop\n        /* \"#utility.yul\":35641:35701   */\n      swap2\n      swap1\n      pop\n      jump\t// out\n        /* \"#utility.yul\":35707:35863   */\n    tag_706:\n      0x00\n        /* \"#utility.yul\":35821:35824   */\n      dup2\n        /* \"#utility.yul\":35813:35824   */\n      swap1\n      pop\n        /* \"#utility.yul\":35851:35855   */\n      0x20\n        /* \"#utility.yul\":35846:35849   */\n      dup3\n        /* \"#utility.yul\":35842:35856   */\n      add\n        /* \"#utility.yul\":35834:35856   */\n      swap1\n      pop\n        /* \"#utility.yul\":35803:35863   */\n      swap2\n      swap1\n      pop\n      jump\t// out\n        /* \"#utility.yul\":35869:36023   */\n    tag_720:\n      0x00\n        /* \"#utility.yul\":35981:35984   */\n      dup2\n        /* \"#utility.yul\":35973:35984   */\n      swap1\n      pop\n        /* \"#utility.yul\":36011:36015   */\n      0x20\n        /* \"#utility.yul\":36006:36009   */\n      dup3\n        /* \"#utility.yul\":36002:36016   */\n      add\n        /* \"#utility.yul\":35994:36016   */\n      swap1\n      pop\n        /* \"#utility.yul\":35963:36023   */\n      swap2\n      swap1\n      pop\n      jump\t// out\n        /* \"#utility.yul\":36029:36161   */\n    tag_734:\n      0x00\n        /* \"#utility.yul\":36119:36122   */\n      dup2\n        /* \"#utility.yul\":36111:36122   */\n      swap1\n      pop\n        /* \"#utility.yul\":36149:36153   */\n      0x20\n        /* \"#utility.yul\":36144:36147   */\n      dup3\n        /* \"#utility.yul\":36140:36154   */\n      add\n        /* \"#utility.yul\":36132:36154   */\n      swap1\n      pop\n        /* \"#utility.yul\":36101:36161   */\n      swap2\n      swap1\n      pop\n      jump\t// out\n        /* \"#utility.yul\":36167:36308   */\n    tag_784:\n      0x00\n        /* \"#utility.yul\":36239:36242   */\n      dup2\n        /* \"#utility.yul\":36231:36242   */\n      swap1\n      pop\n        /* \"#utility.yul\":36262:36265   */\n      dup2\n        /* \"#utility.yul\":36259:36260   */\n      0x00\n        /* \"#utility.yul\":36252:36266   */\n      mstore\n        /* \"#utility.yul\":36296:36300   */\n      0x20\n        /* \"#utility.yul\":36293:36294   */\n      0x00\n        /* \"#utility.yul\":36283:36301   */\n      keccak256\n        /* \"#utility.yul\":36275:36301   */\n      swap1\n      pop\n        /* \"#utility.yul\":36221:36308   */\n      swap2\n      swap1\n      pop\n      jump\t// out\n        /* \"#utility.yul\":36314:36450   */\n    tag_688:\n      0x00\n        /* \"#utility.yul\":36437:36442   */\n      dup2\n        /* \"#utility.yul\":36431:36443   */\n      mload\n        /* \"#utility.yul\":36421:36443   */\n      swap1\n      pop\n        /* \"#utility.yul\":36410:36450   */\n      swap2\n      swap1\n      pop\n      jump\t// out\n        /* \"#utility.yul\":36456:36594   */\n    tag_702:\n      0x00\n        /* \"#utility.yul\":36581:36586   */\n      dup2\n        /* \"#utility.yul\":36575:36587   */\n      mload\n        /* \"#utility.yul\":36565:36587   */\n      swap1\n      pop\n        /* \"#utility.yul\":36554:36594   */\n      swap2\n      swap1\n      pop\n      jump\t// out\n        /* \"#utility.yul\":36600:36736   */\n    tag_716:\n      0x00\n        /* \"#utility.yul\":36723:36728   */\n      dup2\n        /* \"#utility.yul\":36717:36729   */\n      mload\n        /* \"#utility.yul\":36707:36729   */\n      swap1\n      pop\n        /* \"#utility.yul\":36696:36736   */\n      swap2\n      swap1\n      pop\n      jump\t// out\n        /* \"#utility.yul\":36742:36856   */\n    tag_730:\n      0x00\n        /* \"#utility.yul\":36843:36848   */\n      dup2\n        /* \"#utility.yul\":36837:36849   */\n      mload\n        /* \"#utility.yul\":36827:36849   */\n      swap1\n      pop\n        /* \"#utility.yul\":36816:36856   */\n      swap2\n      swap1\n      pop\n      jump\t// out\n        /* \"#utility.yul\":36862:36961   */\n    tag_762:\n      0x00\n        /* \"#utility.yul\":36948:36953   */\n      dup2\n        /* \"#utility.yul\":36942:36954   */\n      mload\n        /* \"#utility.yul\":36932:36954   */\n      swap1\n      pop\n        /* \"#utility.yul\":36921:36961   */\n      swap2\n      swap1\n      pop\n      jump\t// out\n        /* \"#utility.yul\":36967:37102   */\n    tag_698:\n      0x00\n        /* \"#utility.yul\":37091:37095   */\n      0x20\n        /* \"#utility.yul\":37086:37089   */\n      dup3\n        /* \"#utility.yul\":37082:37096   */\n      add\n        /* \"#utility.yul\":37074:37096   */\n      swap1\n      pop\n        /* \"#utility.yul\":37064:37102   */\n      swap2\n      swap1\n      pop\n      jump\t// out\n        /* \"#utility.yul\":37108:37245   */\n    tag_712:\n      0x00\n        /* \"#utility.yul\":37234:37238   */\n      0x20\n        /* \"#utility.yul\":37229:37232   */\n      dup3\n        /* \"#utility.yul\":37225:37239   */\n      add\n        /* \"#utility.yul\":37217:37239   */\n      swap1\n      pop\n        /* \"#utility.yul\":37207:37245   */\n      swap2\n      swap1\n      pop\n      jump\t// out\n        /* \"#utility.yul\":37251:37386   */\n    tag_726:\n      0x00\n        /* \"#utility.yul\":37375:37379   */\n      0x20\n        /* \"#utility.yul\":37370:37373   */\n      dup3\n        /* \"#utility.yul\":37366:37380   */\n      add\n        /* \"#utility.yul\":37358:37380   */\n      swap1\n      pop\n        /* \"#utility.yul\":37348:37386   */\n      swap2\n      swap1\n      pop\n      jump\t// out\n        /* \"#utility.yul\":37392:37505   */\n    tag_740:\n      0x00\n        /* \"#utility.yul\":37494:37498   */\n      0x20\n        /* \"#utility.yul\":37489:37492   */\n      dup3\n        /* \"#utility.yul\":37485:37499   */\n      add\n        /* \"#utility.yul\":37477:37499   */\n      swap1\n      pop\n        /* \"#utility.yul\":37467:37505   */\n      swap2\n      swap1\n      pop\n      jump\t// out\n        /* \"#utility.yul\":37511:37717   */\n    tag_690:\n      0x00\n        /* \"#utility.yul\":37666:37672   */\n      dup3\n        /* \"#utility.yul\":37661:37664   */\n      dup3\n        /* \"#utility.yul\":37654:37673   */\n      mstore\n        /* \"#utility.yul\":37706:37710   */\n      0x20\n        /* \"#utility.yul\":37701:37704   */\n      dup3\n        /* \"#utility.yul\":37697:37711   */\n      add\n        /* \"#utility.yul\":37682:37711   */\n      swap1\n      pop\n        /* \"#utility.yul\":37644:37717   */\n      swap3\n      swap2\n      pop\n      pop\n      jump\t// out\n        /* \"#utility.yul\":37723:37931   */\n    tag_704:\n      0x00\n        /* \"#utility.yul\":37880:37886   */\n      dup3\n        /* \"#utility.yul\":37875:37878   */\n      dup3\n        /* \"#utility.yul\":37868:37887   */\n      mstore\n        /* \"#utility.yul\":37920:37924   */\n      0x20\n        /* \"#utility.yul\":37915:37918   */\n      dup3\n        /* \"#utility.yul\":37911:37925   */\n      add\n        /* \"#utility.yul\":37896:37925   */\n      swap1\n      pop\n        /* \"#utility.yul\":37858:37931   */\n      swap3\n      swap2\n      pop\n      pop\n      jump\t// out\n        /* \"#utility.yul\":37937:38143   */\n    tag_718:\n      0x00\n        /* \"#utility.yul\":38092:38098   */\n      dup3\n        /* \"#utility.yul\":38087:38090   */\n      dup3\n        /* \"#utility.yul\":38080:38099   */\n      mstore\n        /* \"#utility.yul\":38132:38136   */\n      0x20\n        /* \"#utility.yul\":38127:38130   */\n      dup3\n        /* \"#utility.yul\":38123:38137   */\n      add\n        /* \"#utility.yul\":38108:38137   */\n      swap1\n      pop\n        /* \"#utility.yul\":38070:38143   */\n      swap3\n      swap2\n      pop\n      pop\n      jump\t// out\n        /* \"#utility.yul\":38149:38323   */\n    tag_732:\n      0x00\n        /* \"#utility.yul\":38272:38278   */\n      dup3\n        /* \"#utility.yul\":38267:38270   */\n      dup3\n        /* \"#utility.yul\":38260:38279   */\n      mstore\n        /* \"#utility.yul\":38312:38316   */\n      0x20\n        /* \"#utility.yul\":38307:38310   */\n      dup3\n        /* \"#utility.yul\":38303:38317   */\n      add\n        /* \"#utility.yul\":38288:38317   */\n      swap1\n      pop\n        /* \"#utility.yul\":38250:38323   */\n      swap3\n      swap2\n      pop\n      pop\n      jump\t// out\n        /* \"#utility.yul\":38329:38513   */\n    tag_745:\n      0x00\n        /* \"#utility.yul\":38462:38468   */\n      dup3\n        /* \"#utility.yul\":38457:38460   */\n      dup3\n        /* \"#utility.yul\":38450:38469   */\n      mstore\n        /* \"#utility.yul\":38502:38506   */\n      0x20\n        /* \"#utility.yul\":38497:38500   */\n      dup3\n        /* \"#utility.yul\":38493:38507   */\n      add\n        /* \"#utility.yul\":38478:38507   */\n      swap1\n      pop\n        /* \"#utility.yul\":38440:38513   */\n      swap3\n      swap2\n      pop\n      pop\n      jump\t// out\n        /* \"#utility.yul\":38519:38678   */\n    tag_764:\n      0x00\n        /* \"#utility.yul\":38627:38633   */\n      dup3\n        /* \"#utility.yul\":38622:38625   */\n      dup3\n        /* \"#utility.yul\":38615:38634   */\n      mstore\n        /* \"#utility.yul\":38667:38671   */\n      0x20\n        /* \"#utility.yul\":38662:38665   */\n      dup3\n        /* \"#utility.yul\":38658:38672   */\n      add\n        /* \"#utility.yul\":38643:38672   */\n      swap1\n      pop\n        /* \"#utility.yul\":38605:38678   */\n      swap3\n      swap2\n      pop\n      pop\n      jump\t// out\n        /* \"#utility.yul\":38684:38853   */\n    tag_773:\n      0x00\n        /* \"#utility.yul\":38802:38808   */\n      dup3\n        /* \"#utility.yul\":38797:38800   */\n      dup3\n        /* \"#utility.yul\":38790:38809   */\n      mstore\n        /* \"#utility.yul\":38842:38846   */\n      0x20\n        /* \"#utility.yul\":38837:38840   */\n      dup3\n        /* \"#utility.yul\":38833:38847   */\n      add\n        /* \"#utility.yul\":38818:38847   */\n      swap1\n      pop\n        /* \"#utility.yul\":38780:38853   */\n      swap3\n      swap2\n      pop\n      pop\n      jump\t// out\n        /* \"#utility.yul\":38859:38955   */\n    tag_681:\n      0x00\n        /* \"#utility.yul\":38925:38949   */\n      tag_931\n        /* \"#utility.yul\":38943:38948   */\n      dup3\n        /* \"#utility.yul\":38925:38949   */\n      tag_932\n      jump\t// in\n    tag_931:\n        /* \"#utility.yul\":38914:38949   */\n      swap1\n      pop\n        /* \"#utility.yul\":38904:38955   */\n      swap2\n      swap1\n      pop\n      jump\t// out\n        /* \"#utility.yul\":38961:39051   */\n    tag_755:\n      0x00\n        /* \"#utility.yul\":39038:39043   */\n      dup2\n        /* \"#utility.yul\":39031:39044   */\n      iszero\n        /* \"#utility.yul\":39024:39045   */\n      iszero\n        /* \"#utility.yul\":39013:39045   */\n      swap1\n      pop\n        /* \"#utility.yul\":39003:39051   */\n      swap2\n      swap1\n      pop\n      jump\t// out\n        /* \"#utility.yul\":39057:39183   */\n    tag_932:\n      0x00\n        /* \"#utility.yul\":39134:39176   */\n      0xffffffffffffffffffffffffffffffffffffffff\n        /* \"#utility.yul\":39127:39132   */\n      dup3\n        /* \"#utility.yul\":39123:39177   */\n      and\n        /* \"#utility.yul\":39112:39177   */\n      swap1\n      pop\n        /* \"#utility.yul\":39102:39183   */\n      swap2\n      swap1\n      pop\n      jump\t// out\n        /* \"#utility.yul\":39189:39266   */\n    tag_820:\n      0x00\n        /* \"#utility.yul\":39255:39260   */\n      dup2\n        /* \"#utility.yul\":39244:39260   */\n      swap1\n      pop\n        /* \"#utility.yul\":39234:39266   */\n      swap2\n      swap1\n      pop\n      jump\t// out\n        /* \"#utility.yul\":39272:39426   */\n    tag_578:\n        /* \"#utility.yul\":39356:39362   */\n      dup3\n        /* \"#utility.yul\":39351:39354   */\n      dup2\n        /* \"#utility.yul\":39346:39349   */\n      dup4\n        /* \"#utility.yul\":39333:39363   */\n      calldatacopy\n        /* \"#utility.yul\":39418:39419   */\n      0x00\n        /* \"#utility.yul\":39409:39415   */\n      dup4\n        /* \"#utility.yul\":39404:39407   */\n      dup4\n        /* \"#utility.yul\":39400:39416   */\n      add\n        /* \"#utility.yul\":39393:39420   */\n      mstore\n        /* \"#utility.yul\":39323:39426   */\n      pop\n      pop\n      pop\n      jump\t// out\n        /* \"#utility.yul\":39432:39739   */\n    tag_766:\n        /* \"#utility.yul\":39500:39501   */\n      0x00\n        /* \"#utility.yul\":39510:39623   */\n    tag_938:\n        /* \"#utility.yul\":39524:39530   */\n      dup4\n        /* \"#utility.yul\":39521:39522   */\n      dup2\n        /* \"#utility.yul\":39518:39531   */\n      lt\n        /* \"#utility.yul\":39510:39623   */\n      iszero\n      tag_940\n      jumpi\n        /* \"#utility.yul\":39609:39610   */\n      dup1\n        /* \"#utility.yul\":39604:39607   */\n      dup3\n        /* \"#utility.yul\":39600:39611   */\n      add\n        /* \"#utility.yul\":39594:39612   */\n      mload\n        /* \"#utility.yul\":39590:39591   */\n      dup2\n        /* \"#utility.yul\":39585:39588   */\n      dup5\n        /* \"#utility.yul\":39581:39592   */\n      add\n        /* \"#utility.yul\":39574:39613   */\n      mstore\n        /* \"#utility.yul\":39546:39548   */\n      0x20\n        /* \"#utility.yul\":39543:39544   */\n      dup2\n        /* \"#utility.yul\":39539:39549   */\n      add\n        /* \"#utility.yul\":39534:39549   */\n      swap1\n      pop\n        /* \"#utility.yul\":39510:39623   */\n      jump(tag_938)\n    tag_940:\n        /* \"#utility.yul\":39641:39647   */\n      dup4\n        /* \"#utility.yul\":39638:39639   */\n      dup2\n        /* \"#utility.yul\":39635:39648   */\n      gt\n        /* \"#utility.yul\":39632:39634   */\n      iszero\n      tag_941\n      jumpi\n        /* \"#utility.yul\":39721:39722   */\n      0x00\n        /* \"#utility.yul\":39712:39718   */\n      dup5\n        /* \"#utility.yul\":39707:39710   */\n      dup5\n        /* \"#utility.yul\":39703:39719   */\n      add\n        /* \"#utility.yul\":39696:39723   */\n      mstore\n        /* \"#utility.yul\":39632:39634   */\n    tag_941:\n        /* \"#utility.yul\":39481:39739   */\n      pop\n      pop\n      pop\n      pop\n      jump\t// out\n        /* \"#utility.yul\":39745:39793   */\n    tag_902:\n        /* \"#utility.yul\":39778:39787   */\n      invalid\n        /* \"#utility.yul\":39799:39901   */\n    tag_768:\n      0x00\n        /* \"#utility.yul\":39891:39893   */\n      0x1f\n        /* \"#utility.yul\":39887:39894   */\n      not\n        /* \"#utility.yul\":39882:39884   */\n      0x1f\n        /* \"#utility.yul\":39875:39880   */\n      dup4\n        /* \"#utility.yul\":39871:39885   */\n      add\n        /* \"#utility.yul\":39867:39895   */\n      and\n        /* \"#utility.yul\":39857:39895   */\n      swap1\n      pop\n        /* \"#utility.yul\":39847:39901   */\n      swap2\n      swap1\n      pop\n      jump\t// out\n        /* \"#utility.yul\":39907:40029   */\n    tag_582:\n        /* \"#utility.yul\":39980:40004   */\n      tag_945\n        /* \"#utility.yul\":39998:40003   */\n      dup2\n        /* \"#utility.yul\":39980:40004   */\n      tag_681\n      jump\t// in\n    tag_945:\n        /* \"#utility.yul\":39973:39978   */\n      dup2\n        /* \"#utility.yul\":39970:40005   */\n      eq\n        /* \"#utility.yul\":39960:39962   */\n      tag_946\n      jumpi\n        /* \"#utility.yul\":40019:40020   */\n      0x00\n        /* \"#utility.yul\":40016:40017   */\n      dup1\n        /* \"#utility.yul\":40009:40021   */\n      revert\n        /* \"#utility.yul\":39960:39962   */\n    tag_946:\n        /* \"#utility.yul\":39950:40029   */\n      pop\n      jump\t// out\n        /* \"#utility.yul\":40035:40151   */\n    tag_590:\n        /* \"#utility.yul\":40105:40126   */\n      tag_948\n        /* \"#utility.yul\":40120:40125   */\n      dup2\n        /* \"#utility.yul\":40105:40126   */\n      tag_755\n      jump\t// in\n    tag_948:\n        /* \"#utility.yul\":40098:40103   */\n      dup2\n        /* \"#utility.yul\":40095:40127   */\n      eq\n        /* \"#utility.yul\":40085:40087   */\n      tag_949\n      jumpi\n        /* \"#utility.yul\":40141:40142   */\n      0x00\n        /* \"#utility.yul\":40138:40139   */\n      dup1\n        /* \"#utility.yul\":40131:40143   */\n      revert\n        /* \"#utility.yul\":40085:40087   */\n    tag_949:\n        /* \"#utility.yul\":40075:40151   */\n      pop\n      jump\t// out\n        /* \"#utility.yul\":40157:40279   */\n    tag_597:\n        /* \"#utility.yul\":40230:40254   */\n      tag_951\n        /* \"#utility.yul\":40248:40253   */\n      dup2\n        /* \"#utility.yul\":40230:40254   */\n      tag_820\n      jump\t// in\n    tag_951:\n        /* \"#utility.yul\":40223:40228   */\n      dup2\n        /* \"#utility.yul\":40220:40255   */\n      eq\n        /* \"#utility.yul\":40210:40212   */\n      tag_952\n      jumpi\n        /* \"#utility.yul\":40269:40270   */\n      0x00\n        /* \"#utility.yul\":40266:40267   */\n      dup1\n        /* \"#utility.yul\":40259:40271   */\n      revert\n        /* \"#utility.yul\":40210:40212   */\n    tag_952:\n        /* \"#utility.yul\":40200:40279   */\n      pop\n      jump\t// out\n\n    auxdata: 0xa2646970667358221220f52ba6673bc72ae1d3793ad86e9818558d40333093e0eb5df1f44c85b006147764736f6c63430007060033\n}\n",
    "bytecode": {
      "linkReferences": {},
      "object": "6080604052738fcf3b91599c6d5bb93d8c7df9f3974c622b83a4600260006101000a81548173ffffffffffffffffffffffffffffffffffffffff021916908373ffffffffffffffffffffffffffffffffffffffff160217905550734b0af919e9d85ea5ceebe21ee4f8e3b2a2951b15600360006101000a81548173ffffffffffffffffffffffffffffffffffffffff021916908373ffffffffffffffffffffffffffffffffffffffff1602179055503480156100ba57600080fd5b50615dd280620000cb6000396000f3fe608060405234801561001057600080fd5b506004361061018e5760003560e01c8063a0568e2d116100de578063c266406d11610097578063e0764bb511610071578063e0764bb5146104f7578063e1ee3b5614610513578063ea87659f1461052f578063f0d95090146105635761018e565b8063c266406d14610460578063d53d0a8514610490578063dc7aa36b146104c45761018e565b8063a0568e2d1461038a578063a549a4ed146103a6578063a57308d4146103da578063a5d4a684146103f6578063a89ae4ba14610412578063c0c2e0fa146104305761018e565b806360ea3cdc1161014b578063898bd14011610125578063898bd140146102c05780638db2fc41146102f45780639a2e5bed146103275780639b70e779146103575761018e565b806360ea3cdc146102565780636cd8ebdc146102725780636f39507d146102a45761018e565b806302655c2e146101935780631b057e40146101c65780634444cc92146101e25780634807fc69146101fe5780634e9f71541461021a5780635a4e5d3e14610238575b600080fd5b6101ad60048036038101906101a89190614e85565b610581565b6040516101bd9493929190615891565b60405180910390f35b6101e060048036038101906101db9190614df2565b6108b3565b005b6101fc60048036038101906101f79190614eea565b610b9c565b005b61021860048036038101906102139190614b7d565b610d11565b005b610222610eeb565b60405161022f91906157d2565b60405180910390f35b6102406112d1565b60405161024d91906157f4565b60405180910390f35b610270600480360381019061026b9190614c0d565b611677565b005b61028c60048036038101906102879190614b7d565b611982565b60405161029b93929190615853565b60405180910390f35b6102be60048036038101906102b99190614f3e565b611bf7565b005b6102da60048036038101906102d59190614b7d565b611f4a565b6040516102eb9594939291906159be565b60405180910390f35b61030e60048036038101906103099190614e85565b6120dd565b60405161031e9493929190615648565b60405180910390f35b610341600480360381019061033c9190614b7d565b612202565b60405161034e91906157f4565b60405180910390f35b610371600480360381019061036c9190614b7d565b612692565b60405161038194939291906158e4565b60405180910390f35b6103a4600480360381019061039f9190614b7d565b612a40565b005b6103c060048036038101906103bb9190614b7d565b612c1a565b6040516103d1959493929190615694565b60405180910390f35b6103f460048036038101906103ef9190614d33565b612e45565b005b610410600480360381019061040b9190614c88565b613158565b005b61041a6133f9565b604051610427919061562d565b60405180910390f35b61044a60048036038101906104459190614eae565b61341f565b6040516104579190615816565b60405180910390f35b61047a60048036038101906104759190614b7d565b6135e9565b60405161048791906157b0565b60405180910390f35b6104aa60048036038101906104a59190614e85565b6139b6565b6040516104bb959493929190615694565b60405180910390f35b6104de60048036038101906104d99190614b7d565b613bf1565b6040516104ee9493929190615648565b60405180910390f35b610511600480360381019061050c9190614eae565b613d06565b005b61052d60048036038101906105289190614ba6565b613ef6565b005b61054960048036038101906105449190614e85565b6141bb565b60405161055a9594939291906159be565b60405180910390f35b61056b61435e565b60405161057891906157b0565b60405180910390f35b606080600080600360009054906101000a900473ffffffffffffffffffffffffffffffffffffffff16600260009054906101000a900473ffffffffffffffffffffffffffffffffffffffff168173ffffffffffffffffffffffffffffffffffffffff16600360009054906101000a900473ffffffffffffffffffffffffffffffffffffffff1673ffffffffffffffffffffffffffffffffffffffff16148061067657508073ffffffffffffffffffffffffffffffffffffffff16600260009054906101000a900473ffffffffffffffffffffffffffffffffffffffff1673ffffffffffffffffffffffffffffffffffffffff16145b6106b5576040517f08c379a00000000000000000000000000000000000000000000000000000000081526004016106ac9061599e565b60405180910390fd5b60006106c088614656565b9050600981815481106106cf57fe5b9060005260206000209060050201600101600982815481106106ed57fe5b90600052602060002090600502016002016009838154811061070b57fe5b906000526020600020906005020160030160009054906101000a900473ffffffffffffffffffffffffffffffffffffffff166009848154811061074a57fe5b906000526020600020906005020160030160149054906101000a900460ff16838054600181600116156101000203166002900480601f0160208091040260200160405190810160405280929190818152602001828054600181600116156101000203166002900480156107fe5780601f106107d3576101008083540402835291602001916107fe565b820191906000526020600020905b8154815290600101906020018083116107e157829003601f168201915b50505050509350828054600181600116156101000203166002900480601f01602080910402602001604051908101604052809291908181526020018280546001816001161561010002031660029004801561089a5780601f1061086f5761010080835404028352916020019161089a565b820191906000526020600020905b81548152906001019060200180831161087d57829003601f168201915b5050505050925096509650965096505050509193509193565b81600360009054906101000a900473ffffffffffffffffffffffffffffffffffffffff16600260009054906101000a900473ffffffffffffffffffffffffffffffffffffffff166000610905846146e8565b108061095e57508173ffffffffffffffffffffffffffffffffffffffff16600360009054906101000a900473ffffffffffffffffffffffffffffffffffffffff1673ffffffffffffffffffffffffffffffffffffffff16145b806109b657508073ffffffffffffffffffffffffffffffffffffffff16600260009054906101000a900473ffffffffffffffffffffffffffffffffffffffff1673ffffffffffffffffffffffffffffffffffffffff16145b6109f5576040517f08c379a00000000000000000000000000000000000000000000000000000000081526004016109ec9061599e565b60405180910390fd5b6109fe856146e8565b50606060096040518060c0016040528060015481526020018a81526020018981526020018873ffffffffffffffffffffffffffffffffffffffff1681526020018715158152602001838152509080600181540180825580915050600190039060005260206000209060050201600090919091909150600082015181600001556020820151816001019080519060200190610a999291906148a4565b506040820151816002019080519060200190610ab69291906148a4565b5060608201518160030160006101000a81548173ffffffffffffffffffffffffffffffffffffffff021916908373ffffffffffffffffffffffffffffffffffffffff16021790555060808201518160030160146101000a81548160ff02191690831515021790555060a0820151816004019080519060200190610b3a929190614932565b5050507f23f4ceea50d8ef88465d5bb07ab2960540f3c2414851cf0a137f2ee3a4ab6fa86001548989898986604051610b7896959493929190615a1f565b60405180910390a16001600081548092919060010191905055505050505050505050565b600360009054906101000a900473ffffffffffffffffffffffffffffffffffffffff16600260009054906101000a900473ffffffffffffffffffffffffffffffffffffffff168173ffffffffffffffffffffffffffffffffffffffff16600360009054906101000a900473ffffffffffffffffffffffffffffffffffffffff1673ffffffffffffffffffffffffffffffffffffffff161480610c8b57508073ffffffffffffffffffffffffffffffffffffffff16600260009054906101000a900473ffffffffffffffffffffffffffffffffffffffff1673ffffffffffffffffffffffffffffffffffffffff16145b610cca576040517f08c379a0000000000000000000000000000000000000000000000000000000008152600401610cc19061599e565b60405180910390fd5b6000610cd585614656565b90508360098281548110610ce557fe5b90600052602060002090600502016004019080519060200190610d09929190614932565b505050505050565b600360009054906101000a900473ffffffffffffffffffffffffffffffffffffffff16600260009054906101000a900473ffffffffffffffffffffffffffffffffffffffff168173ffffffffffffffffffffffffffffffffffffffff16600360009054906101000a900473ffffffffffffffffffffffffffffffffffffffff1673ffffffffffffffffffffffffffffffffffffffff161480610e0057508073ffffffffffffffffffffffffffffffffffffffff16600260009054906101000a900473ffffffffffffffffffffffffffffffffffffffff1673ffffffffffffffffffffffffffffffffffffffff16145b610e3f576040517f08c379a0000000000000000000000000000000000000000000000000000000008152600401610e369061599e565b60405180910390fd5b6000610e4a846147c6565b9050600060058281548110610e5b57fe5b906000526020600020906005020160040160006101000a81548160ff0219169083151502179055507f504c2311f6f6b45d598b8afb05a690fa48a8bb4dbe0659e5e2e0a30e0b57093160058281548110610eb157fe5b906000526020600020906005020160040160009054906101000a900460ff16604051610edd9190615838565b60405180910390a150505050565b6060600360009054906101000a900473ffffffffffffffffffffffffffffffffffffffff16600260009054906101000a900473ffffffffffffffffffffffffffffffffffffffff168173ffffffffffffffffffffffffffffffffffffffff16600360009054906101000a900473ffffffffffffffffffffffffffffffffffffffff1673ffffffffffffffffffffffffffffffffffffffff161480610fdc57508073ffffffffffffffffffffffffffffffffffffffff16600260009054906101000a900473ffffffffffffffffffffffffffffffffffffffff1673ffffffffffffffffffffffffffffffffffffffff16145b61101b576040517f08c379a00000000000000000000000000000000000000000000000000000000081526004016110129061599e565b60405180910390fd5b6005805480602002602001604051908101604052809291908181526020016000905b828210156112c657838290600052602060002090600502016040518060a00160405290816000820160009054906101000a900473ffffffffffffffffffffffffffffffffffffffff1673ffffffffffffffffffffffffffffffffffffffff1673ffffffffffffffffffffffffffffffffffffffff168152602001600182018054600181600116156101000203166002900480601f01602080910402602001604051908101604052809291908181526020018280546001816001161561010002031660029004801561114f5780601f106111245761010080835404028352916020019161114f565b820191906000526020600020905b81548152906001019060200180831161113257829003601f168201915b50505050508152602001600282018054600181600116156101000203166002900480601f0160208091040260200160405190810160405280929190818152602001828054600181600116156101000203166002900480156111f15780601f106111c6576101008083540402835291602001916111f1565b820191906000526020600020905b8154815290600101906020018083116111d457829003601f168201915b50505050508152602001600382018054600181600116156101000203166002900480601f0160208091040260200160405190810160405280929190818152602001828054600181600116156101000203166002900480156112935780601f1061126857610100808354040283529160200191611293565b820191906000526020600020905b81548152906001019060200180831161127657829003601f168201915b505050505081526020016004820160009054906101000a900460ff1615151515815250508152602001906001019061103d565b505050509250505090565b6060600360009054906101000a900473ffffffffffffffffffffffffffffffffffffffff16600260009054906101000a900473ffffffffffffffffffffffffffffffffffffffff168173ffffffffffffffffffffffffffffffffffffffff16600360009054906101000a900473ffffffffffffffffffffffffffffffffffffffff1673ffffffffffffffffffffffffffffffffffffffff1614806113c257508073ffffffffffffffffffffffffffffffffffffffff16600260009054906101000a900473ffffffffffffffffffffffffffffffffffffffff1673ffffffffffffffffffffffffffffffffffffffff16145b611401576040517f08c379a00000000000000000000000000000000000000000000000000000000081526004016113f89061599e565b60405180910390fd5b6009805480602002602001604051908101604052809291908181526020016000905b8282101561166c57838290600052602060002090600502016040518060c001604052908160008201548152602001600182018054600181600116156101000203166002900480601f0160208091040260200160405190810160405280929190818152602001828054600181600116156101000203166002900480156114e95780601f106114be576101008083540402835291602001916114e9565b820191906000526020600020905b8154815290600101906020018083116114cc57829003601f168201915b50505050508152602001600282018054600181600116156101000203166002900480601f01602080910402602001604051908101604052809291908181526020018280546001816001161561010002031660029004801561158b5780601f106115605761010080835404028352916020019161158b565b820191906000526020600020905b81548152906001019060200180831161156e57829003601f168201915b505050505081526020016003820160009054906101000a900473ffffffffffffffffffffffffffffffffffffffff1673ffffffffffffffffffffffffffffffffffffffff1673ffffffffffffffffffffffffffffffffffffffff1681526020016003820160149054906101000a900460ff161515151581526020016004820180548060200260200160405190810160405280929190818152602001828054801561165457602002820191906000526020600020905b815481526020019060010190808311611640575b50505050508152505081526020019060010190611423565b505050509250505090565b600360009054906101000a900473ffffffffffffffffffffffffffffffffffffffff16600260009054906101000a900473ffffffffffffffffffffffffffffffffffffffff168173ffffffffffffffffffffffffffffffffffffffff16600360009054906101000a900473ffffffffffffffffffffffffffffffffffffffff1673ffffffffffffffffffffffffffffffffffffffff16148061176657508073ffffffffffffffffffffffffffffffffffffffff16600260009054906101000a900473ffffffffffffffffffffffffffffffffffffffff1673ffffffffffffffffffffffffffffffffffffffff16145b6117a5576040517f08c379a000000000000000000000000000000000000000000000000000000000815260040161179c9061599e565b60405180910390fd5b60006117b0876146e8565b905085600782815481106117c057fe5b906000526020600020906003020160010190805190602001906117e49291906148a4565b5084600782815481106117f357fe5b906000526020600020906003020160020160006101000a81548173ffffffffffffffffffffffffffffffffffffffff021916908373ffffffffffffffffffffffffffffffffffffffff160217905550836007828154811061185057fe5b906000526020600020906003020160020160146101000a81548160ff0219169083151502179055507f6fcbc4a02269ac36204ac7e60c4cf625c6fc2b2365cac750c9927b670e347f90600782815481106118a657fe5b906000526020600020906003020160000160009054906101000a900473ffffffffffffffffffffffffffffffffffffffff16600783815481106118e557fe5b90600052602060002090600302016001016007848154811061190357fe5b906000526020600020906003020160020160009054906101000a900473ffffffffffffffffffffffffffffffffffffffff166007858154811061194257fe5b906000526020600020906003020160020160149054906101000a900460ff1660405161197194939291906156fc565b60405180910390a150505050505050565b6060600080600360009054906101000a900473ffffffffffffffffffffffffffffffffffffffff16600260009054906101000a900473ffffffffffffffffffffffffffffffffffffffff168173ffffffffffffffffffffffffffffffffffffffff16600360009054906101000a900473ffffffffffffffffffffffffffffffffffffffff1673ffffffffffffffffffffffffffffffffffffffff161480611a7657508073ffffffffffffffffffffffffffffffffffffffff16600260009054906101000a900473ffffffffffffffffffffffffffffffffffffffff1673ffffffffffffffffffffffffffffffffffffffff16145b611ab5576040517f08c379a0000000000000000000000000000000000000000000000000000000008152600401611aac9061599e565b60405180910390fd5b6000611ac0876146e8565b905060078181548110611acf57fe5b906000526020600020906003020160010160078281548110611aed57fe5b906000526020600020906003020160020160009054906101000a900473ffffffffffffffffffffffffffffffffffffffff1660078381548110611b2c57fe5b906000526020600020906003020160020160149054906101000a900460ff16828054600181600116156101000203166002900480601f016020809104026020016040519081016040528092919081815260200182805460018160011615610100020316600290048015611be05780601f10611bb557610100808354040283529160200191611be0565b820191906000526020600020905b815481529060010190602001808311611bc357829003601f168201915b505050505092509550955095505050509193909250565b81600360009054906101000a900473ffffffffffffffffffffffffffffffffffffffff16600260009054906101000a900473ffffffffffffffffffffffffffffffffffffffff166000611c49846146e8565b1080611ca257508173ffffffffffffffffffffffffffffffffffffffff16600360009054906101000a900473ffffffffffffffffffffffffffffffffffffffff1673ffffffffffffffffffffffffffffffffffffffff16145b80611cfa57508073ffffffffffffffffffffffffffffffffffffffff16600260009054906101000a900473ffffffffffffffffffffffffffffffffffffffff1673ffffffffffffffffffffffffffffffffffffffff16145b611d39576040517f08c379a0000000000000000000000000000000000000000000000000000000008152600401611d309061599e565b60405180910390fd5b6000611d4489614656565b90508760098281548110611d5457fe5b90600052602060002090600502016001019080519060200190611d789291906148a4565b508660098281548110611d8757fe5b90600052602060002090600502016002019080519060200190611dab9291906148a4565b508560098281548110611dba57fe5b906000526020600020906005020160030160006101000a81548173ffffffffffffffffffffffffffffffffffffffff021916908373ffffffffffffffffffffffffffffffffffffffff1602179055508460098281548110611e1757fe5b906000526020600020906005020160030160146101000a81548160ff0219169083151502179055507f3ab6f9ea2e72cad17988f4527dc5626fa4e97c597fcbd9d7e2a7e820851b54ce60098281548110611e6d57fe5b90600052602060002090600502016000015460098381548110611e8c57fe5b906000526020600020906005020160010160098481548110611eaa57fe5b906000526020600020906005020160020160098581548110611ec857fe5b906000526020600020906005020160030160009054906101000a900473ffffffffffffffffffffffffffffffffffffffff1660098681548110611f0757fe5b906000526020600020906005020160030160149054906101000a900460ff16604051611f37959493929190615a95565b60405180910390a1505050505050505050565b6008602052806000526040600020600091509050806000015490806001018054600181600116156101000203166002900480601f016020809104026020016040519081016040528092919081815260200182805460018160011615610100020316600290048015611ffc5780601f10611fd157610100808354040283529160200191611ffc565b820191906000526020600020905b815481529060010190602001808311611fdf57829003601f168201915b505050505090806002018054600181600116156101000203166002900480601f01602080910402602001604051908101604052809291908181526020018280546001816001161561010002031660029004801561209a5780601f1061206f5761010080835404028352916020019161209a565b820191906000526020600020905b81548152906001019060200180831161207d57829003601f168201915b5050505050908060030160009054906101000a900473ffffffffffffffffffffffffffffffffffffffff16908060030160149054906101000a900460ff16905085565b600781815481106120ed57600080fd5b90600052602060002090600302016000915090508060000160009054906101000a900473ffffffffffffffffffffffffffffffffffffffff1690806001018054600181600116156101000203166002900480601f0160208091040260200160405190810160405280929190818152602001828054600181600116156101000203166002900480156121bf5780601f10612194576101008083540402835291602001916121bf565b820191906000526020600020905b8154815290600101906020018083116121a257829003601f168201915b5050505050908060020160009054906101000a900473ffffffffffffffffffffffffffffffffffffffff16908060020160149054906101000a900460ff16905084565b606081600360009054906101000a900473ffffffffffffffffffffffffffffffffffffffff16600260009054906101000a900473ffffffffffffffffffffffffffffffffffffffff166000612256846146e8565b10806122af57508173ffffffffffffffffffffffffffffffffffffffff16600360009054906101000a900473ffffffffffffffffffffffffffffffffffffffff1673ffffffffffffffffffffffffffffffffffffffff16145b8061230757508073ffffffffffffffffffffffffffffffffffffffff16600260009054906101000a900473ffffffffffffffffffffffffffffffffffffffff1673ffffffffffffffffffffffffffffffffffffffff16145b612346576040517f08c379a000000000000000000000000000000000000000000000000000000000815260040161233d9061599e565b60405180910390fd5b600060098054905067ffffffffffffffff8111801561236457600080fd5b5060405190808252806020026020018201604052801561239e57816020015b61238b61497f565b8152602001906001900390816123835790505b50905060005b60098054905081101561268557600981815481106123be57fe5b906000526020600020906005020160030160009054906101000a900473ffffffffffffffffffffffffffffffffffffffff1673ffffffffffffffffffffffffffffffffffffffff168773ffffffffffffffffffffffffffffffffffffffff161415612678576009818154811061243057fe5b90600052602060002090600502016040518060c001604052908160008201548152602001600182018054600181600116156101000203166002900480601f0160208091040260200160405190810160405280929190818152602001828054600181600116156101000203166002900480156124ec5780601f106124c1576101008083540402835291602001916124ec565b820191906000526020600020905b8154815290600101906020018083116124cf57829003601f168201915b50505050508152602001600282018054600181600116156101000203166002900480601f01602080910402602001604051908101604052809291908181526020018280546001816001161561010002031660029004801561258e5780601f106125635761010080835404028352916020019161258e565b820191906000526020600020905b81548152906001019060200180831161257157829003601f168201915b505050505081526020016003820160009054906101000a900473ffffffffffffffffffffffffffffffffffffffff1673ffffffffffffffffffffffffffffffffffffffff1673ffffffffffffffffffffffffffffffffffffffff1681526020016003820160149054906101000a900460ff161515151581526020016004820180548060200260200160405190810160405280929190818152602001828054801561265757602002820191906000526020600020905b815481526020019060010190808311612643575b50505050508152505082828151811061266c57fe5b60200260200101819052505b80806001019150506123a4565b5080945050505050919050565b60608060606000600360009054906101000a900473ffffffffffffffffffffffffffffffffffffffff16600260009054906101000a900473ffffffffffffffffffffffffffffffffffffffff168173ffffffffffffffffffffffffffffffffffffffff16600360009054906101000a900473ffffffffffffffffffffffffffffffffffffffff1673ffffffffffffffffffffffffffffffffffffffff16148061278857508073ffffffffffffffffffffffffffffffffffffffff16600260009054906101000a900473ffffffffffffffffffffffffffffffffffffffff1673ffffffffffffffffffffffffffffffffffffffff16145b6127c7576040517f08c379a00000000000000000000000000000000000000000000000000000000081526004016127be9061599e565b60405180910390fd5b60006127d2886147c6565b9050600581815481106127e157fe5b9060005260206000209060050201600101600582815481106127ff57fe5b90600052602060002090600502016002016005838154811061281d57fe5b90600052602060002090600502016003016005848154811061283b57fe5b906000526020600020906005020160040160009054906101000a900460ff16838054600181600116156101000203166002900480601f0160208091040260200160405190810160405280929190818152602001828054600181600116156101000203166002900480156128ef5780601f106128c4576101008083540402835291602001916128ef565b820191906000526020600020905b8154815290600101906020018083116128d257829003601f168201915b50505050509350828054600181600116156101000203166002900480601f01602080910402602001604051908101604052809291908181526020018280546001816001161561010002031660029004801561298b5780601f106129605761010080835404028352916020019161298b565b820191906000526020600020905b81548152906001019060200180831161296e57829003601f168201915b50505050509250818054600181600116156101000203166002900480601f016020809104026020016040519081016040528092919081815260200182805460018160011615610100020316600290048015612a275780601f106129fc57610100808354040283529160200191612a27565b820191906000526020600020905b815481529060010190602001808311612a0a57829003601f168201915b5050505050915096509650965096505050509193509193565b600360009054906101000a900473ffffffffffffffffffffffffffffffffffffffff16600260009054906101000a900473ffffffffffffffffffffffffffffffffffffffff168173ffffffffffffffffffffffffffffffffffffffff16600360009054906101000a900473ffffffffffffffffffffffffffffffffffffffff1673ffffffffffffffffffffffffffffffffffffffff161480612b2f57508073ffffffffffffffffffffffffffffffffffffffff16600260009054906101000a900473ffffffffffffffffffffffffffffffffffffffff1673ffffffffffffffffffffffffffffffffffffffff16145b612b6e576040517f08c379a0000000000000000000000000000000000000000000000000000000008152600401612b659061599e565b60405180910390fd5b6000612b79846146e8565b9050600060078281548110612b8a57fe5b906000526020600020906003020160020160146101000a81548160ff0219169083151502179055507f1909dc80d38cec2305bb06a97fde80daf0763d013f86fbcee9e1954812fb617060078281548110612be057fe5b906000526020600020906003020160020160149054906101000a900460ff16604051612c0c9190615838565b60405180910390a150505050565b60046020528060005260406000206000915090508060000160009054906101000a900473ffffffffffffffffffffffffffffffffffffffff1690806001018054600181600116156101000203166002900480601f016020809104026020016040519081016040528092919081815260200182805460018160011615610100020316600290048015612cec5780601f10612cc157610100808354040283529160200191612cec565b820191906000526020600020905b815481529060010190602001808311612ccf57829003601f168201915b505050505090806002018054600181600116156101000203166002900480601f016020809104026020016040519081016040528092919081815260200182805460018160011615610100020316600290048015612d8a5780601f10612d5f57610100808354040283529160200191612d8a565b820191906000526020600020905b815481529060010190602001808311612d6d57829003601f168201915b505050505090806003018054600181600116156101000203166002900480601f016020809104026020016040519081016040528092919081815260200182805460018160011615610100020316600290048015612e285780601f10612dfd57610100808354040283529160200191612e28565b820191906000526020600020905b815481529060010190602001808311612e0b57829003601f168201915b5050505050908060040160009054906101000a900460ff16905085565b600360009054906101000a900473ffffffffffffffffffffffffffffffffffffffff16600260009054906101000a900473ffffffffffffffffffffffffffffffffffffffff168173ffffffffffffffffffffffffffffffffffffffff16600360009054906101000a900473ffffffffffffffffffffffffffffffffffffffff1673ffffffffffffffffffffffffffffffffffffffff161480612f3457508073ffffffffffffffffffffffffffffffffffffffff16600260009054906101000a900473ffffffffffffffffffffffffffffffffffffffff1673ffffffffffffffffffffffffffffffffffffffff16145b612f73576040517f08c379a0000000000000000000000000000000000000000000000000000000008152600401612f6a9061599e565b60405180910390fd5b6000612f7e886147c6565b90508660058281548110612f8e57fe5b90600052602060002090600502016001019080519060200190612fb29291906148a4565b508560058281548110612fc157fe5b90600052602060002090600502016002019080519060200190612fe59291906148a4565b508460058281548110612ff457fe5b906000526020600020906005020160030190805190602001906130189291906148a4565b50836005828154811061302757fe5b906000526020600020906005020160040160006101000a81548160ff0219169083151502179055507f3d82d4e7ec0cefe7b5122162926d868862a9400d5385fb1f35e42902d793471f6005828154811061307d57fe5b906000526020600020906005020160000160009054906101000a900473ffffffffffffffffffffffffffffffffffffffff16600583815481106130bc57fe5b9060005260206000209060050201600101600584815481106130da57fe5b9060005260206000209060050201600201600585815481106130f857fe5b90600052602060002090600502016003016005868154811061311657fe5b906000526020600020906005020160040160009054906101000a900460ff16604051613146959493929190615748565b60405180910390a15050505050505050565b600360009054906101000a900473ffffffffffffffffffffffffffffffffffffffff16600260009054906101000a900473ffffffffffffffffffffffffffffffffffffffff168173ffffffffffffffffffffffffffffffffffffffff16600360009054906101000a900473ffffffffffffffffffffffffffffffffffffffff1673ffffffffffffffffffffffffffffffffffffffff16148061324757508073ffffffffffffffffffffffffffffffffffffffff16600260009054906101000a900473ffffffffffffffffffffffffffffffffffffffff1673ffffffffffffffffffffffffffffffffffffffff16145b613286576040517f08c379a000000000000000000000000000000000000000000000000000000000815260040161327d9061599e565b60405180910390fd5b60056040518060a001604052808873ffffffffffffffffffffffffffffffffffffffff16815260200187815260200186815260200185815260200160011515815250908060018154018082558091505060019003906000526020600020906005020160009091909190915060008201518160000160006101000a81548173ffffffffffffffffffffffffffffffffffffffff021916908373ffffffffffffffffffffffffffffffffffffffff16021790555060208201518160010190805190602001906133549291906148a4565b5060408201518160020190805190602001906133719291906148a4565b50606082015181600301908051906020019061338e9291906148a4565b5060808201518160040160006101000a81548160ff02191690831515021790555050507f9917861c3a3ecbbfc9c1c79292231a8510f14a6b5b92883b799ede7f4e3db13e8686868660016040516133e9959493929190615694565b60405180910390a1505050505050565b600360009054906101000a900473ffffffffffffffffffffffffffffffffffffffff1681565b606081600360009054906101000a900473ffffffffffffffffffffffffffffffffffffffff16600260009054906101000a900473ffffffffffffffffffffffffffffffffffffffff166000613473846146e8565b10806134cc57508173ffffffffffffffffffffffffffffffffffffffff16600360009054906101000a900473ffffffffffffffffffffffffffffffffffffffff1673ffffffffffffffffffffffffffffffffffffffff16145b8061352457508073ffffffffffffffffffffffffffffffffffffffff16600260009054906101000a900473ffffffffffffffffffffffffffffffffffffffff1673ffffffffffffffffffffffffffffffffffffffff16145b613563576040517f08c379a000000000000000000000000000000000000000000000000000000000815260040161355a9061599e565b60405180910390fd5b600061356e87614656565b90506009818154811061357d57fe5b90600052602060002090600502016004018054806020026020016040519081016040528092919081815260200182805480156135d857602002820191906000526020600020905b8154815260200190600101908083116135c4575b505050505094505050505092915050565b6060600360009054906101000a900473ffffffffffffffffffffffffffffffffffffffff16600260009054906101000a900473ffffffffffffffffffffffffffffffffffffffff168173ffffffffffffffffffffffffffffffffffffffff16600360009054906101000a900473ffffffffffffffffffffffffffffffffffffffff1673ffffffffffffffffffffffffffffffffffffffff1614806136da57508073ffffffffffffffffffffffffffffffffffffffff16600260009054906101000a900473ffffffffffffffffffffffffffffffffffffffff1673ffffffffffffffffffffffffffffffffffffffff16145b613719576040517f08c379a00000000000000000000000000000000000000000000000000000000081526004016137109061599e565b60405180910390fd5b600060078054905067ffffffffffffffff8111801561373757600080fd5b5060405190808252806020026020018201604052801561377157816020015b61375e6149cd565b8152602001906001900390816137565790505b50905060005b6007805490508110156139aa576007818154811061379157fe5b906000526020600020906003020160020160009054906101000a900473ffffffffffffffffffffffffffffffffffffffff1673ffffffffffffffffffffffffffffffffffffffff168673ffffffffffffffffffffffffffffffffffffffff16141561399d576007818154811061380357fe5b90600052602060002090600302016040518060800160405290816000820160009054906101000a900473ffffffffffffffffffffffffffffffffffffffff1673ffffffffffffffffffffffffffffffffffffffff1673ffffffffffffffffffffffffffffffffffffffff168152602001600182018054600181600116156101000203166002900480601f01602080910402602001604051908101604052809291908181526020018280546001816001161561010002031660029004801561390b5780601f106138e05761010080835404028352916020019161390b565b820191906000526020600020905b8154815290600101906020018083116138ee57829003601f168201915b505050505081526020016002820160009054906101000a900473ffffffffffffffffffffffffffffffffffffffff1673ffffffffffffffffffffffffffffffffffffffff1673ffffffffffffffffffffffffffffffffffffffff1681526020016002820160149054906101000a900460ff16151515158152505082828151811061399157fe5b60200260200101819052505b8080600101915050613777565b50809350505050919050565b600581815481106139c657600080fd5b90600052602060002090600502016000915090508060000160009054906101000a900473ffffffffffffffffffffffffffffffffffffffff1690806001018054600181600116156101000203166002900480601f016020809104026020016040519081016040528092919081815260200182805460018160011615610100020316600290048015613a985780601f10613a6d57610100808354040283529160200191613a98565b820191906000526020600020905b815481529060010190602001808311613a7b57829003601f168201915b505050505090806002018054600181600116156101000203166002900480601f016020809104026020016040519081016040528092919081815260200182805460018160011615610100020316600290048015613b365780601f10613b0b57610100808354040283529160200191613b36565b820191906000526020600020905b815481529060010190602001808311613b1957829003601f168201915b505050505090806003018054600181600116156101000203166002900480601f016020809104026020016040519081016040528092919081815260200182805460018160011615610100020316600290048015613bd45780601f10613ba957610100808354040283529160200191613bd4565b820191906000526020600020905b815481529060010190602001808311613bb757829003601f168201915b5050505050908060040160009054906101000a900460ff16905085565b60066020528060005260406000206000915090508060000160009054906101000a900473ffffffffffffffffffffffffffffffffffffffff1690806001018054600181600116156101000203166002900480601f016020809104026020016040519081016040528092919081815260200182805460018160011615610100020316600290048015613cc35780601f10613c9857610100808354040283529160200191613cc3565b820191906000526020600020905b815481529060010190602001808311613ca657829003601f168201915b5050505050908060020160009054906101000a900473ffffffffffffffffffffffffffffffffffffffff16908060020160149054906101000a900460ff16905084565b80600360009054906101000a900473ffffffffffffffffffffffffffffffffffffffff16600260009054906101000a900473ffffffffffffffffffffffffffffffffffffffff166000613d58846146e8565b1080613db157508173ffffffffffffffffffffffffffffffffffffffff16600360009054906101000a900473ffffffffffffffffffffffffffffffffffffffff1673ffffffffffffffffffffffffffffffffffffffff16145b80613e0957508073ffffffffffffffffffffffffffffffffffffffff16600260009054906101000a900473ffffffffffffffffffffffffffffffffffffffff1673ffffffffffffffffffffffffffffffffffffffff16145b613e48576040517f08c379a0000000000000000000000000000000000000000000000000000000008152600401613e3f9061599e565b60405180910390fd5b6000613e5386614656565b9050600060098281548110613e6457fe5b906000526020600020906005020160030160146101000a81548160ff0219169083151502179055507fbacb2438fad2c96302d0732482e49098457b065c15d428040d57c1a60c4da5db60098281548110613eba57fe5b906000526020600020906005020160030160149054906101000a900460ff16604051613ee69190615838565b60405180910390a1505050505050565b600360009054906101000a900473ffffffffffffffffffffffffffffffffffffffff16600260009054906101000a900473ffffffffffffffffffffffffffffffffffffffff168173ffffffffffffffffffffffffffffffffffffffff16600360009054906101000a900473ffffffffffffffffffffffffffffffffffffffff1673ffffffffffffffffffffffffffffffffffffffff161480613fe557508073ffffffffffffffffffffffffffffffffffffffff16600260009054906101000a900473ffffffffffffffffffffffffffffffffffffffff1673ffffffffffffffffffffffffffffffffffffffff16145b614024576040517f08c379a000000000000000000000000000000000000000000000000000000000815260040161401b9061599e565b60405180910390fd5b61402d836147c6565b50600760405180608001604052808773ffffffffffffffffffffffffffffffffffffffff1681526020018681526020018573ffffffffffffffffffffffffffffffffffffffff16815260200160011515815250908060018154018082558091505060019003906000526020600020906003020160009091909190915060008201518160000160006101000a81548173ffffffffffffffffffffffffffffffffffffffff021916908373ffffffffffffffffffffffffffffffffffffffff160217905550602082015181600101908051906020019061410c9291906148a4565b5060408201518160020160006101000a81548173ffffffffffffffffffffffffffffffffffffffff021916908373ffffffffffffffffffffffffffffffffffffffff16021790555060608201518160020160146101000a81548160ff02191690831515021790555050507f4578695497af1a3a1f556f9c89f9f107851cb8e1820e4b336143406b9ba52e3b85858560016040516141ac9493929190615648565b60405180910390a15050505050565b600981815481106141cb57600080fd5b9060005260206000209060050201600091509050806000015490806001018054600181600116156101000203166002900480601f01602080910402602001604051908101604052809291908181526020018280546001816001161561010002031660029004801561427d5780601f106142525761010080835404028352916020019161427d565b820191906000526020600020905b81548152906001019060200180831161426057829003601f168201915b505050505090806002018054600181600116156101000203166002900480601f01602080910402602001604051908101604052809291908181526020018280546001816001161561010002031660029004801561431b5780601f106142f05761010080835404028352916020019161431b565b820191906000526020600020905b8154815290600101906020018083116142fe57829003601f168201915b5050505050908060030160009054906101000a900473ffffffffffffffffffffffffffffffffffffffff16908060030160149054906101000a900460ff16905085565b6060600360009054906101000a900473ffffffffffffffffffffffffffffffffffffffff16600260009054906101000a900473ffffffffffffffffffffffffffffffffffffffff168173ffffffffffffffffffffffffffffffffffffffff16600360009054906101000a900473ffffffffffffffffffffffffffffffffffffffff1673ffffffffffffffffffffffffffffffffffffffff16148061444f57508073ffffffffffffffffffffffffffffffffffffffff16600260009054906101000a900473ffffffffffffffffffffffffffffffffffffffff1673ffffffffffffffffffffffffffffffffffffffff16145b61448e576040517f08c379a00000000000000000000000000000000000000000000000000000000081526004016144859061599e565b60405180910390fd5b6007805480602002602001604051908101604052809291908181526020016000905b8282101561464b57838290600052602060002090600302016040518060800160405290816000820160009054906101000a900473ffffffffffffffffffffffffffffffffffffffff1673ffffffffffffffffffffffffffffffffffffffff1673ffffffffffffffffffffffffffffffffffffffff168152602001600182018054600181600116156101000203166002900480601f0160208091040260200160405190810160405280929190818152602001828054600181600116156101000203166002900480156145c25780601f10614597576101008083540402835291602001916145c2565b820191906000526020600020905b8154815290600101906020018083116145a557829003601f168201915b505050505081526020016002820160009054906101000a900473ffffffffffffffffffffffffffffffffffffffff1673ffffffffffffffffffffffffffffffffffffffff1673ffffffffffffffffffffffffffffffffffffffff1681526020016002820160149054906101000a900460ff161515151581525050815260200190600101906144b0565b505050509250505090565b600080600090505b6009805490508110156146a757826009828154811061467957fe5b906000526020600020906005020160000154141561469a57809150506146e3565b808060010191505061465e565b506040517f08c379a00000000000000000000000000000000000000000000000000000000081526004016146da9061595e565b60405180910390fd5b919050565b600080600090505b600780549050811015614785578273ffffffffffffffffffffffffffffffffffffffff166007828154811061472157fe5b906000526020600020906003020160000160009054906101000a900473ffffffffffffffffffffffffffffffffffffffff1673ffffffffffffffffffffffffffffffffffffffff16141561477857809150506147c1565b80806001019150506146f0565b506040517f08c379a00000000000000000000000000000000000000000000000000000000081526004016147b89061593e565b60405180910390fd5b919050565b600080600090505b600580549050811015614863578273ffffffffffffffffffffffffffffffffffffffff16600582815481106147ff57fe5b906000526020600020906005020160000160009054906101000a900473ffffffffffffffffffffffffffffffffffffffff1673ffffffffffffffffffffffffffffffffffffffff161415614856578091505061489f565b80806001019150506147ce565b506040517f08c379a00000000000000000000000000000000000000000000000000000000081526004016148969061597e565b60405180910390fd5b919050565b828054600181600116156101000203166002900490600052602060002090601f0160209004810192826148da5760008555614921565b82601f106148f357805160ff1916838001178555614921565b82800160010185558215614921579182015b82811115614920578251825591602001919060010190614905565b5b50905061492e9190614a23565b5090565b82805482825590600052602060002090810192821561496e579160200282015b8281111561496d578251825591602001919060010190614952565b5b50905061497b9190614a23565b5090565b6040518060c00160405280600081526020016060815260200160608152602001600073ffffffffffffffffffffffffffffffffffffffff168152602001600015158152602001606081525090565b6040518060800160405280600073ffffffffffffffffffffffffffffffffffffffff16815260200160608152602001600073ffffffffffffffffffffffffffffffffffffffff1681526020016000151581525090565b5b80821115614a3c576000816000905550600101614a24565b5090565b6000614a53614a4e84615b27565b615af6565b90508083825260208201905082856020860282011115614a7257600080fd5b60005b85811015614aa25781614a888882614b68565b845260208401935060208301925050600181019050614a75565b5050509392505050565b6000614abf614aba84615b53565b615af6565b905082815260208101848484011115614ad757600080fd5b614ae2848285615d02565b509392505050565b600081359050614af981615d57565b92915050565b600082601f830112614b1057600080fd5b8135614b20848260208601614a40565b91505092915050565b600081359050614b3881615d6e565b92915050565b600082601f830112614b4f57600080fd5b8135614b5f848260208601614aac565b91505092915050565b600081359050614b7781615d85565b92915050565b600060208284031215614b8f57600080fd5b6000614b9d84828501614aea565b91505092915050565b600080600060608486031215614bbb57600080fd5b6000614bc986828701614aea565b935050602084013567ffffffffffffffff811115614be657600080fd5b614bf286828701614b3e565b9250506040614c0386828701614aea565b9150509250925092565b60008060008060808587031215614c2357600080fd5b6000614c3187828801614aea565b945050602085013567ffffffffffffffff811115614c4e57600080fd5b614c5a87828801614b3e565b9350506040614c6b87828801614aea565b9250506060614c7c87828801614b29565b91505092959194509250565b60008060008060808587031215614c9e57600080fd5b6000614cac87828801614aea565b945050602085013567ffffffffffffffff811115614cc957600080fd5b614cd587828801614b3e565b935050604085013567ffffffffffffffff811115614cf257600080fd5b614cfe87828801614b3e565b925050606085013567ffffffffffffffff811115614d1b57600080fd5b614d2787828801614b3e565b91505092959194509250565b600080600080600060a08688031215614d4b57600080fd5b6000614d5988828901614aea565b955050602086013567ffffffffffffffff811115614d7657600080fd5b614d8288828901614b3e565b945050604086013567ffffffffffffffff811115614d9f57600080fd5b614dab88828901614b3e565b935050606086013567ffffffffffffffff811115614dc857600080fd5b614dd488828901614b3e565b9250506080614de588828901614b29565b9150509295509295909350565b60008060008060808587031215614e0857600080fd5b600085013567ffffffffffffffff811115614e2257600080fd5b614e2e87828801614b3e565b945050602085013567ffffffffffffffff811115614e4b57600080fd5b614e5787828801614b3e565b9350506040614e6887828801614aea565b9250506060614e7987828801614b29565b91505092959194509250565b600060208284031215614e9757600080fd5b6000614ea584828501614b68565b91505092915050565b60008060408385031215614ec157600080fd5b6000614ecf85828601614b68565b9250506020614ee085828601614aea565b9150509250929050565b60008060408385031215614efd57600080fd5b6000614f0b85828601614b68565b925050602083013567ffffffffffffffff811115614f2857600080fd5b614f3485828601614aff565b9150509250929050565b600080600080600060a08688031215614f5657600080fd5b6000614f6488828901614b68565b955050602086013567ffffffffffffffff811115614f8157600080fd5b614f8d88828901614b3e565b945050604086013567ffffffffffffffff811115614faa57600080fd5b614fb688828901614b3e565b9350506060614fc788828901614aea565b9250506080614fd888828901614b29565b9150509295509295909350565b6000614ff18383615491565b905092915050565b600061500583836154f4565b905092915050565b60006150198383615578565b905092915050565b600061502d838361560f565b60208301905092915050565b61504281615cba565b82525050565b61505181615cba565b82525050565b600061506282615bd8565b61506c8185615c43565b93508360208202850161507e85615b83565b8060005b858110156150ba578484038952815161509b8582614fe5565b94506150a683615c0f565b925060208a01995050600181019050615082565b50829750879550505050505092915050565b60006150d782615be3565b6150e18185615c54565b9350836020820285016150f385615b93565b8060005b8581101561512f57848403895281516151108582614ff9565b945061511b83615c1c565b925060208a019950506001810190506150f7565b50829750879550505050505092915050565b600061514c82615bee565b6151568185615c65565b93508360208202850161516885615ba3565b8060005b858110156151a45784840389528151615185858261500d565b945061519083615c29565b925060208a0199505060018101905061516c565b50829750879550505050505092915050565b60006151c182615bf9565b6151cb8185615c76565b93506151d683615bb3565b8060005b838110156152075781516151ee8882615021565b97506151f983615c36565b9250506001810190506151da565b5085935050505092915050565b600061521f82615bf9565b6152298185615c87565b935061523483615bb3565b8060005b8381101561526557815161524c8882615021565b975061525783615c36565b925050600181019050615238565b5085935050505092915050565b61527b81615ccc565b82525050565b61528a81615ccc565b82525050565b600061529b82615c04565b6152a58185615c98565b93506152b5818560208601615d11565b6152be81615d46565b840191505092915050565b60006152d482615c04565b6152de8185615ca9565b93506152ee818560208601615d11565b6152f781615d46565b840191505092915050565b60008154600181166000811461531f576001811461534557615389565b607f60028304166153308187615ca9565b955060ff198316865260208601935050615389565b600282046153538187615ca9565b955061535e85615bc3565b60005b8281101561538057815481890152600182019150602081019050615361565b80880195505050505b505092915050565b600061539e601083615ca9565b91507f446f63746f72206e6f7420666f756e64000000000000000000000000000000006000830152602082019050919050565b60006153de601083615ca9565b91507f53656e736f72206e6f7420666f756e64000000000000000000000000000000006000830152602082019050919050565b600061541e601283615ca9565b91507f486f73706974616c206e6f7420666f756e6400000000000000000000000000006000830152602082019050919050565b600061545e600d83615ca9565b91507f4e6f2070726976696c65676573000000000000000000000000000000000000006000830152602082019050919050565b60006080830160008301516154a96000860182615039565b50602083015184820360208601526154c18282615290565b91505060408301516154d66040860182615039565b5060608301516154e96060860182615272565b508091505092915050565b600060a08301600083015161550c6000860182615039565b50602083015184820360208601526155248282615290565b9150506040830151848203604086015261553e8282615290565b915050606083015184820360608601526155588282615290565b915050608083015161556d6080860182615272565b508091505092915050565b600060c083016000830151615590600086018261560f565b50602083015184820360208601526155a88282615290565b915050604083015184820360408601526155c28282615290565b91505060608301516155d76060860182615039565b5060808301516155ea6080860182615272565b5060a083015184820360a086015261560282826151b6565b9150508091505092915050565b61561881615cf8565b82525050565b61562781615cf8565b82525050565b60006020820190506156426000830184615048565b92915050565b600060808201905061565d6000830187615048565b818103602083015261566f81866152c9565b905061567e6040830185615048565b61568b6060830184615281565b95945050505050565b600060a0820190506156a96000830188615048565b81810360208301526156bb81876152c9565b905081810360408301526156cf81866152c9565b905081810360608301526156e381856152c9565b90506156f26080830184615281565b9695505050505050565b60006080820190506157116000830187615048565b81810360208301526157238186615302565b90506157326040830185615048565b61573f6060830184615281565b95945050505050565b600060a08201905061575d6000830188615048565b818103602083015261576f8187615302565b905081810360408301526157838186615302565b905081810360608301526157978185615302565b90506157a66080830184615281565b9695505050505050565b600060208201905081810360008301526157ca8184615057565b905092915050565b600060208201905081810360008301526157ec81846150cc565b905092915050565b6000602082019050818103600083015261580e8184615141565b905092915050565b600060208201905081810360008301526158308184615214565b905092915050565b600060208201905061584d6000830184615281565b92915050565b6000606082019050818103600083015261586d81866152c9565b905061587c6020830185615048565b6158896040830184615281565b949350505050565b600060808201905081810360008301526158ab81876152c9565b905081810360208301526158bf81866152c9565b90506158ce6040830185615048565b6158db6060830184615281565b95945050505050565b600060808201905081810360008301526158fe81876152c9565b9050818103602083015261591281866152c9565b9050818103604083015261592681856152c9565b90506159356060830184615281565b95945050505050565b6000602082019050818103600083015261595781615391565b9050919050565b60006020820190508181036000830152615977816153d1565b9050919050565b6000602082019050818103600083015261599781615411565b9050919050565b600060208201905081810360008301526159b781615451565b9050919050565b600060a0820190506159d3600083018861561e565b81810360208301526159e581876152c9565b905081810360408301526159f981866152c9565b9050615a086060830185615048565b615a156080830184615281565b9695505050505050565b600060c082019050615a34600083018961561e565b8181036020830152615a4681886152c9565b90508181036040830152615a5a81876152c9565b9050615a696060830186615048565b615a766080830185615281565b81810360a0830152615a888184615214565b9050979650505050505050565b600060a082019050615aaa600083018861561e565b8181036020830152615abc8187615302565b90508181036040830152615ad08186615302565b9050615adf6060830185615048565b615aec6080830184615281565b9695505050505050565b6000604051905081810181811067ffffffffffffffff82111715615b1d57615b1c615d44565b5b8060405250919050565b600067ffffffffffffffff821115615b4257615b41615d44565b5b602082029050602081019050919050565b600067ffffffffffffffff821115615b6e57615b6d615d44565b5b601f19601f8301169050602081019050919050565b6000819050602082019050919050565b6000819050602082019050919050565b6000819050602082019050919050565b6000819050602082019050919050565b60008190508160005260206000209050919050565b600081519050919050565b600081519050919050565b600081519050919050565b600081519050919050565b600081519050919050565b6000602082019050919050565b6000602082019050919050565b6000602082019050919050565b6000602082019050919050565b600082825260208201905092915050565b600082825260208201905092915050565b600082825260208201905092915050565b600082825260208201905092915050565b600082825260208201905092915050565b600082825260208201905092915050565b600082825260208201905092915050565b6000615cc582615cd8565b9050919050565b60008115159050919050565b600073ffffffffffffffffffffffffffffffffffffffff82169050919050565b6000819050919050565b82818337600083830152505050565b60005b83811015615d2f578082015181840152602081019050615d14565b83811115615d3e576000848401525b50505050565bfe5b6000601f19601f8301169050919050565b615d6081615cba565b8114615d6b57600080fd5b50565b615d7781615ccc565b8114615d8257600080fd5b50565b615d8e81615cf8565b8114615d9957600080fd5b5056fea2646970667358221220f52ba6673bc72ae1d3793ad86e9818558d40333093e0eb5df1f44c85b006147764736f6c63430007060033",
      "opcodes": "PUSH1 0x80 PUSH1 0x40 MSTORE PUSH20 0x8FCF3B91599C6D5BB93D8C7DF9F3974C622B83A4 PUSH1 0x2 PUSH1 0x0 PUSH2 0x100 EXP DUP2 SLOAD DUP2 PUSH20 0xFFFFFFFFFFFFFFFFFFFFFFFFFFFFFFFFFFFFFFFF MUL NOT AND SWAP1 DUP4 PUSH20 0xFFFFFFFFFFFFFFFFFFFFFFFFFFFFFFFFFFFFFFFF AND MUL OR SWAP1 SSTORE POP PUSH20 0x4B0AF919E9D85EA5CEEBE21EE4F8E3B2A2951B15 PUSH1 0x3 PUSH1 0x0 PUSH2 0x100 EXP DUP2 SLOAD DUP2 PUSH20 0xFFFFFFFFFFFFFFFFFFFFFFFFFFFFFFFFFFFFFFFF MUL NOT AND SWAP1 DUP4 PUSH20 0xFFFFFFFFFFFFFFFFFFFFFFFFFFFFFFFFFFFFFFFF AND MUL OR SWAP1 SSTORE POP CALLVALUE DUP1 ISZERO PUSH2 0xBA JUMPI PUSH1 0x0 DUP1 REVERT JUMPDEST POP PUSH2 0x5DD2 DUP1 PUSH3 0xCB PUSH1 0x0 CODECOPY PUSH1 0x0 RETURN INVALID PUSH1 0x80 PUSH1 0x40 MSTORE CALLVALUE DUP1 ISZERO PUSH2 0x10 JUMPI PUSH1 0x0 DUP1 REVERT JUMPDEST POP PUSH1 0x4 CALLDATASIZE LT PUSH2 0x18E JUMPI PUSH1 0x0 CALLDATALOAD PUSH1 0xE0 SHR DUP1 PUSH4 0xA0568E2D GT PUSH2 0xDE JUMPI DUP1 PUSH4 0xC266406D GT PUSH2 0x97 JUMPI DUP1 PUSH4 0xE0764BB5 GT PUSH2 0x71 JUMPI DUP1 PUSH4 0xE0764BB5 EQ PUSH2 0x4F7 JUMPI DUP1 PUSH4 0xE1EE3B56 EQ PUSH2 0x513 JUMPI DUP1 PUSH4 0xEA87659F EQ PUSH2 0x52F JUMPI DUP1 PUSH4 0xF0D95090 EQ PUSH2 0x563 JUMPI PUSH2 0x18E JUMP JUMPDEST DUP1 PUSH4 0xC266406D EQ PUSH2 0x460 JUMPI DUP1 PUSH4 0xD53D0A85 EQ PUSH2 0x490 JUMPI DUP1 PUSH4 0xDC7AA36B EQ PUSH2 0x4C4 JUMPI PUSH2 0x18E JUMP JUMPDEST DUP1 PUSH4 0xA0568E2D EQ PUSH2 0x38A JUMPI DUP1 PUSH4 0xA549A4ED EQ PUSH2 0x3A6 JUMPI DUP1 PUSH4 0xA57308D4 EQ PUSH2 0x3DA JUMPI DUP1 PUSH4 0xA5D4A684 EQ PUSH2 0x3F6 JUMPI DUP1 PUSH4 0xA89AE4BA EQ PUSH2 0x412 JUMPI DUP1 PUSH4 0xC0C2E0FA EQ PUSH2 0x430 JUMPI PUSH2 0x18E JUMP JUMPDEST DUP1 PUSH4 0x60EA3CDC GT PUSH2 0x14B JUMPI DUP1 PUSH4 0x898BD140 GT PUSH2 0x125 JUMPI DUP1 PUSH4 0x898BD140 EQ PUSH2 0x2C0 JUMPI DUP1 PUSH4 0x8DB2FC41 EQ PUSH2 0x2F4 JUMPI DUP1 PUSH4 0x9A2E5BED EQ PUSH2 0x327 JUMPI DUP1 PUSH4 0x9B70E779 EQ PUSH2 0x357 JUMPI PUSH2 0x18E JUMP JUMPDEST DUP1 PUSH4 0x60EA3CDC EQ PUSH2 0x256 JUMPI DUP1 PUSH4 0x6CD8EBDC EQ PUSH2 0x272 JUMPI DUP1 PUSH4 0x6F39507D EQ PUSH2 0x2A4 JUMPI PUSH2 0x18E JUMP JUMPDEST DUP1 PUSH4 0x2655C2E EQ PUSH2 0x193 JUMPI DUP1 PUSH4 0x1B057E40 EQ PUSH2 0x1C6 JUMPI DUP1 PUSH4 0x4444CC92 EQ PUSH2 0x1E2 JUMPI DUP1 PUSH4 0x4807FC69 EQ PUSH2 0x1FE JUMPI DUP1 PUSH4 0x4E9F7154 EQ PUSH2 0x21A JUMPI DUP1 PUSH4 0x5A4E5D3E EQ PUSH2 0x238 JUMPI JUMPDEST PUSH1 0x0 DUP1 REVERT JUMPDEST PUSH2 0x1AD PUSH1 0x4 DUP1 CALLDATASIZE SUB DUP2 ADD SWAP1 PUSH2 0x1A8 SWAP2 SWAP1 PUSH2 0x4E85 JUMP JUMPDEST PUSH2 0x581 JUMP JUMPDEST PUSH1 0x40 MLOAD PUSH2 0x1BD SWAP5 SWAP4 SWAP3 SWAP2 SWAP1 PUSH2 0x5891 JUMP JUMPDEST PUSH1 0x40 MLOAD DUP1 SWAP2 SUB SWAP1 RETURN JUMPDEST PUSH2 0x1E0 PUSH1 0x4 DUP1 CALLDATASIZE SUB DUP2 ADD SWAP1 PUSH2 0x1DB SWAP2 SWAP1 PUSH2 0x4DF2 JUMP JUMPDEST PUSH2 0x8B3 JUMP JUMPDEST STOP JUMPDEST PUSH2 0x1FC PUSH1 0x4 DUP1 CALLDATASIZE SUB DUP2 ADD SWAP1 PUSH2 0x1F7 SWAP2 SWAP1 PUSH2 0x4EEA JUMP JUMPDEST PUSH2 0xB9C JUMP JUMPDEST STOP JUMPDEST PUSH2 0x218 PUSH1 0x4 DUP1 CALLDATASIZE SUB DUP2 ADD SWAP1 PUSH2 0x213 SWAP2 SWAP1 PUSH2 0x4B7D JUMP JUMPDEST PUSH2 0xD11 JUMP JUMPDEST STOP JUMPDEST PUSH2 0x222 PUSH2 0xEEB JUMP JUMPDEST PUSH1 0x40 MLOAD PUSH2 0x22F SWAP2 SWAP1 PUSH2 0x57D2 JUMP JUMPDEST PUSH1 0x40 MLOAD DUP1 SWAP2 SUB SWAP1 RETURN JUMPDEST PUSH2 0x240 PUSH2 0x12D1 JUMP JUMPDEST PUSH1 0x40 MLOAD PUSH2 0x24D SWAP2 SWAP1 PUSH2 0x57F4 JUMP JUMPDEST PUSH1 0x40 MLOAD DUP1 SWAP2 SUB SWAP1 RETURN JUMPDEST PUSH2 0x270 PUSH1 0x4 DUP1 CALLDATASIZE SUB DUP2 ADD SWAP1 PUSH2 0x26B SWAP2 SWAP1 PUSH2 0x4C0D JUMP JUMPDEST PUSH2 0x1677 JUMP JUMPDEST STOP JUMPDEST PUSH2 0x28C PUSH1 0x4 DUP1 CALLDATASIZE SUB DUP2 ADD SWAP1 PUSH2 0x287 SWAP2 SWAP1 PUSH2 0x4B7D JUMP JUMPDEST PUSH2 0x1982 JUMP JUMPDEST PUSH1 0x40 MLOAD PUSH2 0x29B SWAP4 SWAP3 SWAP2 SWAP1 PUSH2 0x5853 JUMP JUMPDEST PUSH1 0x40 MLOAD DUP1 SWAP2 SUB SWAP1 RETURN JUMPDEST PUSH2 0x2BE PUSH1 0x4 DUP1 CALLDATASIZE SUB DUP2 ADD SWAP1 PUSH2 0x2B9 SWAP2 SWAP1 PUSH2 0x4F3E JUMP JUMPDEST PUSH2 0x1BF7 JUMP JUMPDEST STOP JUMPDEST PUSH2 0x2DA PUSH1 0x4 DUP1 CALLDATASIZE SUB DUP2 ADD SWAP1 PUSH2 0x2D5 SWAP2 SWAP1 PUSH2 0x4B7D JUMP JUMPDEST PUSH2 0x1F4A JUMP JUMPDEST PUSH1 0x40 MLOAD PUSH2 0x2EB SWAP6 SWAP5 SWAP4 SWAP3 SWAP2 SWAP1 PUSH2 0x59BE JUMP JUMPDEST PUSH1 0x40 MLOAD DUP1 SWAP2 SUB SWAP1 RETURN JUMPDEST PUSH2 0x30E PUSH1 0x4 DUP1 CALLDATASIZE SUB DUP2 ADD SWAP1 PUSH2 0x309 SWAP2 SWAP1 PUSH2 0x4E85 JUMP JUMPDEST PUSH2 0x20DD JUMP JUMPDEST PUSH1 0x40 MLOAD PUSH2 0x31E SWAP5 SWAP4 SWAP3 SWAP2 SWAP1 PUSH2 0x5648 JUMP JUMPDEST PUSH1 0x40 MLOAD DUP1 SWAP2 SUB SWAP1 RETURN JUMPDEST PUSH2 0x341 PUSH1 0x4 DUP1 CALLDATASIZE SUB DUP2 ADD SWAP1 PUSH2 0x33C SWAP2 SWAP1 PUSH2 0x4B7D JUMP JUMPDEST PUSH2 0x2202 JUMP JUMPDEST PUSH1 0x40 MLOAD PUSH2 0x34E SWAP2 SWAP1 PUSH2 0x57F4 JUMP JUMPDEST PUSH1 0x40 MLOAD DUP1 SWAP2 SUB SWAP1 RETURN JUMPDEST PUSH2 0x371 PUSH1 0x4 DUP1 CALLDATASIZE SUB DUP2 ADD SWAP1 PUSH2 0x36C SWAP2 SWAP1 PUSH2 0x4B7D JUMP JUMPDEST PUSH2 0x2692 JUMP JUMPDEST PUSH1 0x40 MLOAD PUSH2 0x381 SWAP5 SWAP4 SWAP3 SWAP2 SWAP1 PUSH2 0x58E4 JUMP JUMPDEST PUSH1 0x40 MLOAD DUP1 SWAP2 SUB SWAP1 RETURN JUMPDEST PUSH2 0x3A4 PUSH1 0x4 DUP1 CALLDATASIZE SUB DUP2 ADD SWAP1 PUSH2 0x39F SWAP2 SWAP1 PUSH2 0x4B7D JUMP JUMPDEST PUSH2 0x2A40 JUMP JUMPDEST STOP JUMPDEST PUSH2 0x3C0 PUSH1 0x4 DUP1 CALLDATASIZE SUB DUP2 ADD SWAP1 PUSH2 0x3BB SWAP2 SWAP1 PUSH2 0x4B7D JUMP JUMPDEST PUSH2 0x2C1A JUMP JUMPDEST PUSH1 0x40 MLOAD PUSH2 0x3D1 SWAP6 SWAP5 SWAP4 SWAP3 SWAP2 SWAP1 PUSH2 0x5694 JUMP JUMPDEST PUSH1 0x40 MLOAD DUP1 SWAP2 SUB SWAP1 RETURN JUMPDEST PUSH2 0x3F4 PUSH1 0x4 DUP1 CALLDATASIZE SUB DUP2 ADD SWAP1 PUSH2 0x3EF SWAP2 SWAP1 PUSH2 0x4D33 JUMP JUMPDEST PUSH2 0x2E45 JUMP JUMPDEST STOP JUMPDEST PUSH2 0x410 PUSH1 0x4 DUP1 CALLDATASIZE SUB DUP2 ADD SWAP1 PUSH2 0x40B SWAP2 SWAP1 PUSH2 0x4C88 JUMP JUMPDEST PUSH2 0x3158 JUMP JUMPDEST STOP JUMPDEST PUSH2 0x41A PUSH2 0x33F9 JUMP JUMPDEST PUSH1 0x40 MLOAD PUSH2 0x427 SWAP2 SWAP1 PUSH2 0x562D JUMP JUMPDEST PUSH1 0x40 MLOAD DUP1 SWAP2 SUB SWAP1 RETURN JUMPDEST PUSH2 0x44A PUSH1 0x4 DUP1 CALLDATASIZE SUB DUP2 ADD SWAP1 PUSH2 0x445 SWAP2 SWAP1 PUSH2 0x4EAE JUMP JUMPDEST PUSH2 0x341F JUMP JUMPDEST PUSH1 0x40 MLOAD PUSH2 0x457 SWAP2 SWAP1 PUSH2 0x5816 JUMP JUMPDEST PUSH1 0x40 MLOAD DUP1 SWAP2 SUB SWAP1 RETURN JUMPDEST PUSH2 0x47A PUSH1 0x4 DUP1 CALLDATASIZE SUB DUP2 ADD SWAP1 PUSH2 0x475 SWAP2 SWAP1 PUSH2 0x4B7D JUMP JUMPDEST PUSH2 0x35E9 JUMP JUMPDEST PUSH1 0x40 MLOAD PUSH2 0x487 SWAP2 SWAP1 PUSH2 0x57B0 JUMP JUMPDEST PUSH1 0x40 MLOAD DUP1 SWAP2 SUB SWAP1 RETURN JUMPDEST PUSH2 0x4AA PUSH1 0x4 DUP1 CALLDATASIZE SUB DUP2 ADD SWAP1 PUSH2 0x4A5 SWAP2 SWAP1 PUSH2 0x4E85 JUMP JUMPDEST PUSH2 0x39B6 JUMP JUMPDEST PUSH1 0x40 MLOAD PUSH2 0x4BB SWAP6 SWAP5 SWAP4 SWAP3 SWAP2 SWAP1 PUSH2 0x5694 JUMP JUMPDEST PUSH1 0x40 MLOAD DUP1 SWAP2 SUB SWAP1 RETURN JUMPDEST PUSH2 0x4DE PUSH1 0x4 DUP1 CALLDATASIZE SUB DUP2 ADD SWAP1 PUSH2 0x4D9 SWAP2 SWAP1 PUSH2 0x4B7D JUMP JUMPDEST PUSH2 0x3BF1 JUMP JUMPDEST PUSH1 0x40 MLOAD PUSH2 0x4EE SWAP5 SWAP4 SWAP3 SWAP2 SWAP1 PUSH2 0x5648 JUMP JUMPDEST PUSH1 0x40 MLOAD DUP1 SWAP2 SUB SWAP1 RETURN JUMPDEST PUSH2 0x511 PUSH1 0x4 DUP1 CALLDATASIZE SUB DUP2 ADD SWAP1 PUSH2 0x50C SWAP2 SWAP1 PUSH2 0x4EAE JUMP JUMPDEST PUSH2 0x3D06 JUMP JUMPDEST STOP JUMPDEST PUSH2 0x52D PUSH1 0x4 DUP1 CALLDATASIZE SUB DUP2 ADD SWAP1 PUSH2 0x528 SWAP2 SWAP1 PUSH2 0x4BA6 JUMP JUMPDEST PUSH2 0x3EF6 JUMP JUMPDEST STOP JUMPDEST PUSH2 0x549 PUSH1 0x4 DUP1 CALLDATASIZE SUB DUP2 ADD SWAP1 PUSH2 0x544 SWAP2 SWAP1 PUSH2 0x4E85 JUMP JUMPDEST PUSH2 0x41BB JUMP JUMPDEST PUSH1 0x40 MLOAD PUSH2 0x55A SWAP6 SWAP5 SWAP4 SWAP3 SWAP2 SWAP1 PUSH2 0x59BE JUMP JUMPDEST PUSH1 0x40 MLOAD DUP1 SWAP2 SUB SWAP1 RETURN JUMPDEST PUSH2 0x56B PUSH2 0x435E JUMP JUMPDEST PUSH1 0x40 MLOAD PUSH2 0x578 SWAP2 SWAP1 PUSH2 0x57B0 JUMP JUMPDEST PUSH1 0x40 MLOAD DUP1 SWAP2 SUB SWAP1 RETURN JUMPDEST PUSH1 0x60 DUP1 PUSH1 0x0 DUP1 PUSH1 0x3 PUSH1 0x0 SWAP1 SLOAD SWAP1 PUSH2 0x100 EXP SWAP1 DIV PUSH20 0xFFFFFFFFFFFFFFFFFFFFFFFFFFFFFFFFFFFFFFFF AND PUSH1 0x2 PUSH1 0x0 SWAP1 SLOAD SWAP1 PUSH2 0x100 EXP SWAP1 DIV PUSH20 0xFFFFFFFFFFFFFFFFFFFFFFFFFFFFFFFFFFFFFFFF AND DUP2 PUSH20 0xFFFFFFFFFFFFFFFFFFFFFFFFFFFFFFFFFFFFFFFF AND PUSH1 0x3 PUSH1 0x0 SWAP1 SLOAD SWAP1 PUSH2 0x100 EXP SWAP1 DIV PUSH20 0xFFFFFFFFFFFFFFFFFFFFFFFFFFFFFFFFFFFFFFFF AND PUSH20 0xFFFFFFFFFFFFFFFFFFFFFFFFFFFFFFFFFFFFFFFF AND EQ DUP1 PUSH2 0x676 JUMPI POP DUP1 PUSH20 0xFFFFFFFFFFFFFFFFFFFFFFFFFFFFFFFFFFFFFFFF AND PUSH1 0x2 PUSH1 0x0 SWAP1 SLOAD SWAP1 PUSH2 0x100 EXP SWAP1 DIV PUSH20 0xFFFFFFFFFFFFFFFFFFFFFFFFFFFFFFFFFFFFFFFF AND PUSH20 0xFFFFFFFFFFFFFFFFFFFFFFFFFFFFFFFFFFFFFFFF AND EQ JUMPDEST PUSH2 0x6B5 JUMPI PUSH1 0x40 MLOAD PUSH32 0x8C379A000000000000000000000000000000000000000000000000000000000 DUP2 MSTORE PUSH1 0x4 ADD PUSH2 0x6AC SWAP1 PUSH2 0x599E JUMP JUMPDEST PUSH1 0x40 MLOAD DUP1 SWAP2 SUB SWAP1 REVERT JUMPDEST PUSH1 0x0 PUSH2 0x6C0 DUP9 PUSH2 0x4656 JUMP JUMPDEST SWAP1 POP PUSH1 0x9 DUP2 DUP2 SLOAD DUP2 LT PUSH2 0x6CF JUMPI INVALID JUMPDEST SWAP1 PUSH1 0x0 MSTORE PUSH1 0x20 PUSH1 0x0 KECCAK256 SWAP1 PUSH1 0x5 MUL ADD PUSH1 0x1 ADD PUSH1 0x9 DUP3 DUP2 SLOAD DUP2 LT PUSH2 0x6ED JUMPI INVALID JUMPDEST SWAP1 PUSH1 0x0 MSTORE PUSH1 0x20 PUSH1 0x0 KECCAK256 SWAP1 PUSH1 0x5 MUL ADD PUSH1 0x2 ADD PUSH1 0x9 DUP4 DUP2 SLOAD DUP2 LT PUSH2 0x70B JUMPI INVALID JUMPDEST SWAP1 PUSH1 0x0 MSTORE PUSH1 0x20 PUSH1 0x0 KECCAK256 SWAP1 PUSH1 0x5 MUL ADD PUSH1 0x3 ADD PUSH1 0x0 SWAP1 SLOAD SWAP1 PUSH2 0x100 EXP SWAP1 DIV PUSH20 0xFFFFFFFFFFFFFFFFFFFFFFFFFFFFFFFFFFFFFFFF AND PUSH1 0x9 DUP5 DUP2 SLOAD DUP2 LT PUSH2 0x74A JUMPI INVALID JUMPDEST SWAP1 PUSH1 0x0 MSTORE PUSH1 0x20 PUSH1 0x0 KECCAK256 SWAP1 PUSH1 0x5 MUL ADD PUSH1 0x3 ADD PUSH1 0x14 SWAP1 SLOAD SWAP1 PUSH2 0x100 EXP SWAP1 DIV PUSH1 0xFF AND DUP4 DUP1 SLOAD PUSH1 0x1 DUP2 PUSH1 0x1 AND ISZERO PUSH2 0x100 MUL SUB AND PUSH1 0x2 SWAP1 DIV DUP1 PUSH1 0x1F ADD PUSH1 0x20 DUP1 SWAP2 DIV MUL PUSH1 0x20 ADD PUSH1 0x40 MLOAD SWAP1 DUP2 ADD PUSH1 0x40 MSTORE DUP1 SWAP3 SWAP2 SWAP1 DUP2 DUP2 MSTORE PUSH1 0x20 ADD DUP3 DUP1 SLOAD PUSH1 0x1 DUP2 PUSH1 0x1 AND ISZERO PUSH2 0x100 MUL SUB AND PUSH1 0x2 SWAP1 DIV DUP1 ISZERO PUSH2 0x7FE JUMPI DUP1 PUSH1 0x1F LT PUSH2 0x7D3 JUMPI PUSH2 0x100 DUP1 DUP4 SLOAD DIV MUL DUP4 MSTORE SWAP2 PUSH1 0x20 ADD SWAP2 PUSH2 0x7FE JUMP JUMPDEST DUP3 ADD SWAP2 SWAP1 PUSH1 0x0 MSTORE PUSH1 0x20 PUSH1 0x0 KECCAK256 SWAP1 JUMPDEST DUP2 SLOAD DUP2 MSTORE SWAP1 PUSH1 0x1 ADD SWAP1 PUSH1 0x20 ADD DUP1 DUP4 GT PUSH2 0x7E1 JUMPI DUP3 SWAP1 SUB PUSH1 0x1F AND DUP3 ADD SWAP2 JUMPDEST POP POP POP POP POP SWAP4 POP DUP3 DUP1 SLOAD PUSH1 0x1 DUP2 PUSH1 0x1 AND ISZERO PUSH2 0x100 MUL SUB AND PUSH1 0x2 SWAP1 DIV DUP1 PUSH1 0x1F ADD PUSH1 0x20 DUP1 SWAP2 DIV MUL PUSH1 0x20 ADD PUSH1 0x40 MLOAD SWAP1 DUP2 ADD PUSH1 0x40 MSTORE DUP1 SWAP3 SWAP2 SWAP1 DUP2 DUP2 MSTORE PUSH1 0x20 ADD DUP3 DUP1 SLOAD PUSH1 0x1 DUP2 PUSH1 0x1 AND ISZERO PUSH2 0x100 MUL SUB AND PUSH1 0x2 SWAP1 DIV DUP1 ISZERO PUSH2 0x89A JUMPI DUP1 PUSH1 0x1F LT PUSH2 0x86F JUMPI PUSH2 0x100 DUP1 DUP4 SLOAD DIV MUL DUP4 MSTORE SWAP2 PUSH1 0x20 ADD SWAP2 PUSH2 0x89A JUMP JUMPDEST DUP3 ADD SWAP2 SWAP1 PUSH1 0x0 MSTORE PUSH1 0x20 PUSH1 0x0 KECCAK256 SWAP1 JUMPDEST DUP2 SLOAD DUP2 MSTORE SWAP1 PUSH1 0x1 ADD SWAP1 PUSH1 0x20 ADD DUP1 DUP4 GT PUSH2 0x87D JUMPI DUP3 SWAP1 SUB PUSH1 0x1F AND DUP3 ADD SWAP2 JUMPDEST POP POP POP POP POP SWAP3 POP SWAP7 POP SWAP7 POP SWAP7 POP SWAP7 POP POP POP POP SWAP2 SWAP4 POP SWAP2 SWAP4 JUMP JUMPDEST DUP2 PUSH1 0x3 PUSH1 0x0 SWAP1 SLOAD SWAP1 PUSH2 0x100 EXP SWAP1 DIV PUSH20 0xFFFFFFFFFFFFFFFFFFFFFFFFFFFFFFFFFFFFFFFF AND PUSH1 0x2 PUSH1 0x0 SWAP1 SLOAD SWAP1 PUSH2 0x100 EXP SWAP1 DIV PUSH20 0xFFFFFFFFFFFFFFFFFFFFFFFFFFFFFFFFFFFFFFFF AND PUSH1 0x0 PUSH2 0x905 DUP5 PUSH2 0x46E8 JUMP JUMPDEST LT DUP1 PUSH2 0x95E JUMPI POP DUP2 PUSH20 0xFFFFFFFFFFFFFFFFFFFFFFFFFFFFFFFFFFFFFFFF AND PUSH1 0x3 PUSH1 0x0 SWAP1 SLOAD SWAP1 PUSH2 0x100 EXP SWAP1 DIV PUSH20 0xFFFFFFFFFFFFFFFFFFFFFFFFFFFFFFFFFFFFFFFF AND PUSH20 0xFFFFFFFFFFFFFFFFFFFFFFFFFFFFFFFFFFFFFFFF AND EQ JUMPDEST DUP1 PUSH2 0x9B6 JUMPI POP DUP1 PUSH20 0xFFFFFFFFFFFFFFFFFFFFFFFFFFFFFFFFFFFFFFFF AND PUSH1 0x2 PUSH1 0x0 SWAP1 SLOAD SWAP1 PUSH2 0x100 EXP SWAP1 DIV PUSH20 0xFFFFFFFFFFFFFFFFFFFFFFFFFFFFFFFFFFFFFFFF AND PUSH20 0xFFFFFFFFFFFFFFFFFFFFFFFFFFFFFFFFFFFFFFFF AND EQ JUMPDEST PUSH2 0x9F5 JUMPI PUSH1 0x40 MLOAD PUSH32 0x8C379A000000000000000000000000000000000000000000000000000000000 DUP2 MSTORE PUSH1 0x4 ADD PUSH2 0x9EC SWAP1 PUSH2 0x599E JUMP JUMPDEST PUSH1 0x40 MLOAD DUP1 SWAP2 SUB SWAP1 REVERT JUMPDEST PUSH2 0x9FE DUP6 PUSH2 0x46E8 JUMP JUMPDEST POP PUSH1 0x60 PUSH1 0x9 PUSH1 0x40 MLOAD DUP1 PUSH1 0xC0 ADD PUSH1 0x40 MSTORE DUP1 PUSH1 0x1 SLOAD DUP2 MSTORE PUSH1 0x20 ADD DUP11 DUP2 MSTORE PUSH1 0x20 ADD DUP10 DUP2 MSTORE PUSH1 0x20 ADD DUP9 PUSH20 0xFFFFFFFFFFFFFFFFFFFFFFFFFFFFFFFFFFFFFFFF AND DUP2 MSTORE PUSH1 0x20 ADD DUP8 ISZERO ISZERO DUP2 MSTORE PUSH1 0x20 ADD DUP4 DUP2 MSTORE POP SWAP1 DUP1 PUSH1 0x1 DUP2 SLOAD ADD DUP1 DUP3 SSTORE DUP1 SWAP2 POP POP PUSH1 0x1 SWAP1 SUB SWAP1 PUSH1 0x0 MSTORE PUSH1 0x20 PUSH1 0x0 KECCAK256 SWAP1 PUSH1 0x5 MUL ADD PUSH1 0x0 SWAP1 SWAP2 SWAP1 SWAP2 SWAP1 SWAP2 POP PUSH1 0x0 DUP3 ADD MLOAD DUP2 PUSH1 0x0 ADD SSTORE PUSH1 0x20 DUP3 ADD MLOAD DUP2 PUSH1 0x1 ADD SWAP1 DUP1 MLOAD SWAP1 PUSH1 0x20 ADD SWAP1 PUSH2 0xA99 SWAP3 SWAP2 SWAP1 PUSH2 0x48A4 JUMP JUMPDEST POP PUSH1 0x40 DUP3 ADD MLOAD DUP2 PUSH1 0x2 ADD SWAP1 DUP1 MLOAD SWAP1 PUSH1 0x20 ADD SWAP1 PUSH2 0xAB6 SWAP3 SWAP2 SWAP1 PUSH2 0x48A4 JUMP JUMPDEST POP PUSH1 0x60 DUP3 ADD MLOAD DUP2 PUSH1 0x3 ADD PUSH1 0x0 PUSH2 0x100 EXP DUP2 SLOAD DUP2 PUSH20 0xFFFFFFFFFFFFFFFFFFFFFFFFFFFFFFFFFFFFFFFF MUL NOT AND SWAP1 DUP4 PUSH20 0xFFFFFFFFFFFFFFFFFFFFFFFFFFFFFFFFFFFFFFFF AND MUL OR SWAP1 SSTORE POP PUSH1 0x80 DUP3 ADD MLOAD DUP2 PUSH1 0x3 ADD PUSH1 0x14 PUSH2 0x100 EXP DUP2 SLOAD DUP2 PUSH1 0xFF MUL NOT AND SWAP1 DUP4 ISZERO ISZERO MUL OR SWAP1 SSTORE POP PUSH1 0xA0 DUP3 ADD MLOAD DUP2 PUSH1 0x4 ADD SWAP1 DUP1 MLOAD SWAP1 PUSH1 0x20 ADD SWAP1 PUSH2 0xB3A SWAP3 SWAP2 SWAP1 PUSH2 0x4932 JUMP JUMPDEST POP POP POP PUSH32 0x23F4CEEA50D8EF88465D5BB07AB2960540F3C2414851CF0A137F2EE3A4AB6FA8 PUSH1 0x1 SLOAD DUP10 DUP10 DUP10 DUP10 DUP7 PUSH1 0x40 MLOAD PUSH2 0xB78 SWAP7 SWAP6 SWAP5 SWAP4 SWAP3 SWAP2 SWAP1 PUSH2 0x5A1F JUMP JUMPDEST PUSH1 0x40 MLOAD DUP1 SWAP2 SUB SWAP1 LOG1 PUSH1 0x1 PUSH1 0x0 DUP2 SLOAD DUP1 SWAP3 SWAP2 SWAP1 PUSH1 0x1 ADD SWAP2 SWAP1 POP SSTORE POP POP POP POP POP POP POP POP POP JUMP JUMPDEST PUSH1 0x3 PUSH1 0x0 SWAP1 SLOAD SWAP1 PUSH2 0x100 EXP SWAP1 DIV PUSH20 0xFFFFFFFFFFFFFFFFFFFFFFFFFFFFFFFFFFFFFFFF AND PUSH1 0x2 PUSH1 0x0 SWAP1 SLOAD SWAP1 PUSH2 0x100 EXP SWAP1 DIV PUSH20 0xFFFFFFFFFFFFFFFFFFFFFFFFFFFFFFFFFFFFFFFF AND DUP2 PUSH20 0xFFFFFFFFFFFFFFFFFFFFFFFFFFFFFFFFFFFFFFFF AND PUSH1 0x3 PUSH1 0x0 SWAP1 SLOAD SWAP1 PUSH2 0x100 EXP SWAP1 DIV PUSH20 0xFFFFFFFFFFFFFFFFFFFFFFFFFFFFFFFFFFFFFFFF AND PUSH20 0xFFFFFFFFFFFFFFFFFFFFFFFFFFFFFFFFFFFFFFFF AND EQ DUP1 PUSH2 0xC8B JUMPI POP DUP1 PUSH20 0xFFFFFFFFFFFFFFFFFFFFFFFFFFFFFFFFFFFFFFFF AND PUSH1 0x2 PUSH1 0x0 SWAP1 SLOAD SWAP1 PUSH2 0x100 EXP SWAP1 DIV PUSH20 0xFFFFFFFFFFFFFFFFFFFFFFFFFFFFFFFFFFFFFFFF AND PUSH20 0xFFFFFFFFFFFFFFFFFFFFFFFFFFFFFFFFFFFFFFFF AND EQ JUMPDEST PUSH2 0xCCA JUMPI PUSH1 0x40 MLOAD PUSH32 0x8C379A000000000000000000000000000000000000000000000000000000000 DUP2 MSTORE PUSH1 0x4 ADD PUSH2 0xCC1 SWAP1 PUSH2 0x599E JUMP JUMPDEST PUSH1 0x40 MLOAD DUP1 SWAP2 SUB SWAP1 REVERT JUMPDEST PUSH1 0x0 PUSH2 0xCD5 DUP6 PUSH2 0x4656 JUMP JUMPDEST SWAP1 POP DUP4 PUSH1 0x9 DUP3 DUP2 SLOAD DUP2 LT PUSH2 0xCE5 JUMPI INVALID JUMPDEST SWAP1 PUSH1 0x0 MSTORE PUSH1 0x20 PUSH1 0x0 KECCAK256 SWAP1 PUSH1 0x5 MUL ADD PUSH1 0x4 ADD SWAP1 DUP1 MLOAD SWAP1 PUSH1 0x20 ADD SWAP1 PUSH2 0xD09 SWAP3 SWAP2 SWAP1 PUSH2 0x4932 JUMP JUMPDEST POP POP POP POP POP POP JUMP JUMPDEST PUSH1 0x3 PUSH1 0x0 SWAP1 SLOAD SWAP1 PUSH2 0x100 EXP SWAP1 DIV PUSH20 0xFFFFFFFFFFFFFFFFFFFFFFFFFFFFFFFFFFFFFFFF AND PUSH1 0x2 PUSH1 0x0 SWAP1 SLOAD SWAP1 PUSH2 0x100 EXP SWAP1 DIV PUSH20 0xFFFFFFFFFFFFFFFFFFFFFFFFFFFFFFFFFFFFFFFF AND DUP2 PUSH20 0xFFFFFFFFFFFFFFFFFFFFFFFFFFFFFFFFFFFFFFFF AND PUSH1 0x3 PUSH1 0x0 SWAP1 SLOAD SWAP1 PUSH2 0x100 EXP SWAP1 DIV PUSH20 0xFFFFFFFFFFFFFFFFFFFFFFFFFFFFFFFFFFFFFFFF AND PUSH20 0xFFFFFFFFFFFFFFFFFFFFFFFFFFFFFFFFFFFFFFFF AND EQ DUP1 PUSH2 0xE00 JUMPI POP DUP1 PUSH20 0xFFFFFFFFFFFFFFFFFFFFFFFFFFFFFFFFFFFFFFFF AND PUSH1 0x2 PUSH1 0x0 SWAP1 SLOAD SWAP1 PUSH2 0x100 EXP SWAP1 DIV PUSH20 0xFFFFFFFFFFFFFFFFFFFFFFFFFFFFFFFFFFFFFFFF AND PUSH20 0xFFFFFFFFFFFFFFFFFFFFFFFFFFFFFFFFFFFFFFFF AND EQ JUMPDEST PUSH2 0xE3F JUMPI PUSH1 0x40 MLOAD PUSH32 0x8C379A000000000000000000000000000000000000000000000000000000000 DUP2 MSTORE PUSH1 0x4 ADD PUSH2 0xE36 SWAP1 PUSH2 0x599E JUMP JUMPDEST PUSH1 0x40 MLOAD DUP1 SWAP2 SUB SWAP1 REVERT JUMPDEST PUSH1 0x0 PUSH2 0xE4A DUP5 PUSH2 0x47C6 JUMP JUMPDEST SWAP1 POP PUSH1 0x0 PUSH1 0x5 DUP3 DUP2 SLOAD DUP2 LT PUSH2 0xE5B JUMPI INVALID JUMPDEST SWAP1 PUSH1 0x0 MSTORE PUSH1 0x20 PUSH1 0x0 KECCAK256 SWAP1 PUSH1 0x5 MUL ADD PUSH1 0x4 ADD PUSH1 0x0 PUSH2 0x100 EXP DUP2 SLOAD DUP2 PUSH1 0xFF MUL NOT AND SWAP1 DUP4 ISZERO ISZERO MUL OR SWAP1 SSTORE POP PUSH32 0x504C2311F6F6B45D598B8AFB05A690FA48A8BB4DBE0659E5E2E0A30E0B570931 PUSH1 0x5 DUP3 DUP2 SLOAD DUP2 LT PUSH2 0xEB1 JUMPI INVALID JUMPDEST SWAP1 PUSH1 0x0 MSTORE PUSH1 0x20 PUSH1 0x0 KECCAK256 SWAP1 PUSH1 0x5 MUL ADD PUSH1 0x4 ADD PUSH1 0x0 SWAP1 SLOAD SWAP1 PUSH2 0x100 EXP SWAP1 DIV PUSH1 0xFF AND PUSH1 0x40 MLOAD PUSH2 0xEDD SWAP2 SWAP1 PUSH2 0x5838 JUMP JUMPDEST PUSH1 0x40 MLOAD DUP1 SWAP2 SUB SWAP1 LOG1 POP POP POP POP JUMP JUMPDEST PUSH1 0x60 PUSH1 0x3 PUSH1 0x0 SWAP1 SLOAD SWAP1 PUSH2 0x100 EXP SWAP1 DIV PUSH20 0xFFFFFFFFFFFFFFFFFFFFFFFFFFFFFFFFFFFFFFFF AND PUSH1 0x2 PUSH1 0x0 SWAP1 SLOAD SWAP1 PUSH2 0x100 EXP SWAP1 DIV PUSH20 0xFFFFFFFFFFFFFFFFFFFFFFFFFFFFFFFFFFFFFFFF AND DUP2 PUSH20 0xFFFFFFFFFFFFFFFFFFFFFFFFFFFFFFFFFFFFFFFF AND PUSH1 0x3 PUSH1 0x0 SWAP1 SLOAD SWAP1 PUSH2 0x100 EXP SWAP1 DIV PUSH20 0xFFFFFFFFFFFFFFFFFFFFFFFFFFFFFFFFFFFFFFFF AND PUSH20 0xFFFFFFFFFFFFFFFFFFFFFFFFFFFFFFFFFFFFFFFF AND EQ DUP1 PUSH2 0xFDC JUMPI POP DUP1 PUSH20 0xFFFFFFFFFFFFFFFFFFFFFFFFFFFFFFFFFFFFFFFF AND PUSH1 0x2 PUSH1 0x0 SWAP1 SLOAD SWAP1 PUSH2 0x100 EXP SWAP1 DIV PUSH20 0xFFFFFFFFFFFFFFFFFFFFFFFFFFFFFFFFFFFFFFFF AND PUSH20 0xFFFFFFFFFFFFFFFFFFFFFFFFFFFFFFFFFFFFFFFF AND EQ JUMPDEST PUSH2 0x101B JUMPI PUSH1 0x40 MLOAD PUSH32 0x8C379A000000000000000000000000000000000000000000000000000000000 DUP2 MSTORE PUSH1 0x4 ADD PUSH2 0x1012 SWAP1 PUSH2 0x599E JUMP JUMPDEST PUSH1 0x40 MLOAD DUP1 SWAP2 SUB SWAP1 REVERT JUMPDEST PUSH1 0x5 DUP1 SLOAD DUP1 PUSH1 0x20 MUL PUSH1 0x20 ADD PUSH1 0x40 MLOAD SWAP1 DUP2 ADD PUSH1 0x40 MSTORE DUP1 SWAP3 SWAP2 SWAP1 DUP2 DUP2 MSTORE PUSH1 0x20 ADD PUSH1 0x0 SWAP1 JUMPDEST DUP3 DUP3 LT ISZERO PUSH2 0x12C6 JUMPI DUP4 DUP3 SWAP1 PUSH1 0x0 MSTORE PUSH1 0x20 PUSH1 0x0 KECCAK256 SWAP1 PUSH1 0x5 MUL ADD PUSH1 0x40 MLOAD DUP1 PUSH1 0xA0 ADD PUSH1 0x40 MSTORE SWAP1 DUP2 PUSH1 0x0 DUP3 ADD PUSH1 0x0 SWAP1 SLOAD SWAP1 PUSH2 0x100 EXP SWAP1 DIV PUSH20 0xFFFFFFFFFFFFFFFFFFFFFFFFFFFFFFFFFFFFFFFF AND PUSH20 0xFFFFFFFFFFFFFFFFFFFFFFFFFFFFFFFFFFFFFFFF AND PUSH20 0xFFFFFFFFFFFFFFFFFFFFFFFFFFFFFFFFFFFFFFFF AND DUP2 MSTORE PUSH1 0x20 ADD PUSH1 0x1 DUP3 ADD DUP1 SLOAD PUSH1 0x1 DUP2 PUSH1 0x1 AND ISZERO PUSH2 0x100 MUL SUB AND PUSH1 0x2 SWAP1 DIV DUP1 PUSH1 0x1F ADD PUSH1 0x20 DUP1 SWAP2 DIV MUL PUSH1 0x20 ADD PUSH1 0x40 MLOAD SWAP1 DUP2 ADD PUSH1 0x40 MSTORE DUP1 SWAP3 SWAP2 SWAP1 DUP2 DUP2 MSTORE PUSH1 0x20 ADD DUP3 DUP1 SLOAD PUSH1 0x1 DUP2 PUSH1 0x1 AND ISZERO PUSH2 0x100 MUL SUB AND PUSH1 0x2 SWAP1 DIV DUP1 ISZERO PUSH2 0x114F JUMPI DUP1 PUSH1 0x1F LT PUSH2 0x1124 JUMPI PUSH2 0x100 DUP1 DUP4 SLOAD DIV MUL DUP4 MSTORE SWAP2 PUSH1 0x20 ADD SWAP2 PUSH2 0x114F JUMP JUMPDEST DUP3 ADD SWAP2 SWAP1 PUSH1 0x0 MSTORE PUSH1 0x20 PUSH1 0x0 KECCAK256 SWAP1 JUMPDEST DUP2 SLOAD DUP2 MSTORE SWAP1 PUSH1 0x1 ADD SWAP1 PUSH1 0x20 ADD DUP1 DUP4 GT PUSH2 0x1132 JUMPI DUP3 SWAP1 SUB PUSH1 0x1F AND DUP3 ADD SWAP2 JUMPDEST POP POP POP POP POP DUP2 MSTORE PUSH1 0x20 ADD PUSH1 0x2 DUP3 ADD DUP1 SLOAD PUSH1 0x1 DUP2 PUSH1 0x1 AND ISZERO PUSH2 0x100 MUL SUB AND PUSH1 0x2 SWAP1 DIV DUP1 PUSH1 0x1F ADD PUSH1 0x20 DUP1 SWAP2 DIV MUL PUSH1 0x20 ADD PUSH1 0x40 MLOAD SWAP1 DUP2 ADD PUSH1 0x40 MSTORE DUP1 SWAP3 SWAP2 SWAP1 DUP2 DUP2 MSTORE PUSH1 0x20 ADD DUP3 DUP1 SLOAD PUSH1 0x1 DUP2 PUSH1 0x1 AND ISZERO PUSH2 0x100 MUL SUB AND PUSH1 0x2 SWAP1 DIV DUP1 ISZERO PUSH2 0x11F1 JUMPI DUP1 PUSH1 0x1F LT PUSH2 0x11C6 JUMPI PUSH2 0x100 DUP1 DUP4 SLOAD DIV MUL DUP4 MSTORE SWAP2 PUSH1 0x20 ADD SWAP2 PUSH2 0x11F1 JUMP JUMPDEST DUP3 ADD SWAP2 SWAP1 PUSH1 0x0 MSTORE PUSH1 0x20 PUSH1 0x0 KECCAK256 SWAP1 JUMPDEST DUP2 SLOAD DUP2 MSTORE SWAP1 PUSH1 0x1 ADD SWAP1 PUSH1 0x20 ADD DUP1 DUP4 GT PUSH2 0x11D4 JUMPI DUP3 SWAP1 SUB PUSH1 0x1F AND DUP3 ADD SWAP2 JUMPDEST POP POP POP POP POP DUP2 MSTORE PUSH1 0x20 ADD PUSH1 0x3 DUP3 ADD DUP1 SLOAD PUSH1 0x1 DUP2 PUSH1 0x1 AND ISZERO PUSH2 0x100 MUL SUB AND PUSH1 0x2 SWAP1 DIV DUP1 PUSH1 0x1F ADD PUSH1 0x20 DUP1 SWAP2 DIV MUL PUSH1 0x20 ADD PUSH1 0x40 MLOAD SWAP1 DUP2 ADD PUSH1 0x40 MSTORE DUP1 SWAP3 SWAP2 SWAP1 DUP2 DUP2 MSTORE PUSH1 0x20 ADD DUP3 DUP1 SLOAD PUSH1 0x1 DUP2 PUSH1 0x1 AND ISZERO PUSH2 0x100 MUL SUB AND PUSH1 0x2 SWAP1 DIV DUP1 ISZERO PUSH2 0x1293 JUMPI DUP1 PUSH1 0x1F LT PUSH2 0x1268 JUMPI PUSH2 0x100 DUP1 DUP4 SLOAD DIV MUL DUP4 MSTORE SWAP2 PUSH1 0x20 ADD SWAP2 PUSH2 0x1293 JUMP JUMPDEST DUP3 ADD SWAP2 SWAP1 PUSH1 0x0 MSTORE PUSH1 0x20 PUSH1 0x0 KECCAK256 SWAP1 JUMPDEST DUP2 SLOAD DUP2 MSTORE SWAP1 PUSH1 0x1 ADD SWAP1 PUSH1 0x20 ADD DUP1 DUP4 GT PUSH2 0x1276 JUMPI DUP3 SWAP1 SUB PUSH1 0x1F AND DUP3 ADD SWAP2 JUMPDEST POP POP POP POP POP DUP2 MSTORE PUSH1 0x20 ADD PUSH1 0x4 DUP3 ADD PUSH1 0x0 SWAP1 SLOAD SWAP1 PUSH2 0x100 EXP SWAP1 DIV PUSH1 0xFF AND ISZERO ISZERO ISZERO ISZERO DUP2 MSTORE POP POP DUP2 MSTORE PUSH1 0x20 ADD SWAP1 PUSH1 0x1 ADD SWAP1 PUSH2 0x103D JUMP JUMPDEST POP POP POP POP SWAP3 POP POP POP SWAP1 JUMP JUMPDEST PUSH1 0x60 PUSH1 0x3 PUSH1 0x0 SWAP1 SLOAD SWAP1 PUSH2 0x100 EXP SWAP1 DIV PUSH20 0xFFFFFFFFFFFFFFFFFFFFFFFFFFFFFFFFFFFFFFFF AND PUSH1 0x2 PUSH1 0x0 SWAP1 SLOAD SWAP1 PUSH2 0x100 EXP SWAP1 DIV PUSH20 0xFFFFFFFFFFFFFFFFFFFFFFFFFFFFFFFFFFFFFFFF AND DUP2 PUSH20 0xFFFFFFFFFFFFFFFFFFFFFFFFFFFFFFFFFFFFFFFF AND PUSH1 0x3 PUSH1 0x0 SWAP1 SLOAD SWAP1 PUSH2 0x100 EXP SWAP1 DIV PUSH20 0xFFFFFFFFFFFFFFFFFFFFFFFFFFFFFFFFFFFFFFFF AND PUSH20 0xFFFFFFFFFFFFFFFFFFFFFFFFFFFFFFFFFFFFFFFF AND EQ DUP1 PUSH2 0x13C2 JUMPI POP DUP1 PUSH20 0xFFFFFFFFFFFFFFFFFFFFFFFFFFFFFFFFFFFFFFFF AND PUSH1 0x2 PUSH1 0x0 SWAP1 SLOAD SWAP1 PUSH2 0x100 EXP SWAP1 DIV PUSH20 0xFFFFFFFFFFFFFFFFFFFFFFFFFFFFFFFFFFFFFFFF AND PUSH20 0xFFFFFFFFFFFFFFFFFFFFFFFFFFFFFFFFFFFFFFFF AND EQ JUMPDEST PUSH2 0x1401 JUMPI PUSH1 0x40 MLOAD PUSH32 0x8C379A000000000000000000000000000000000000000000000000000000000 DUP2 MSTORE PUSH1 0x4 ADD PUSH2 0x13F8 SWAP1 PUSH2 0x599E JUMP JUMPDEST PUSH1 0x40 MLOAD DUP1 SWAP2 SUB SWAP1 REVERT JUMPDEST PUSH1 0x9 DUP1 SLOAD DUP1 PUSH1 0x20 MUL PUSH1 0x20 ADD PUSH1 0x40 MLOAD SWAP1 DUP2 ADD PUSH1 0x40 MSTORE DUP1 SWAP3 SWAP2 SWAP1 DUP2 DUP2 MSTORE PUSH1 0x20 ADD PUSH1 0x0 SWAP1 JUMPDEST DUP3 DUP3 LT ISZERO PUSH2 0x166C JUMPI DUP4 DUP3 SWAP1 PUSH1 0x0 MSTORE PUSH1 0x20 PUSH1 0x0 KECCAK256 SWAP1 PUSH1 0x5 MUL ADD PUSH1 0x40 MLOAD DUP1 PUSH1 0xC0 ADD PUSH1 0x40 MSTORE SWAP1 DUP2 PUSH1 0x0 DUP3 ADD SLOAD DUP2 MSTORE PUSH1 0x20 ADD PUSH1 0x1 DUP3 ADD DUP1 SLOAD PUSH1 0x1 DUP2 PUSH1 0x1 AND ISZERO PUSH2 0x100 MUL SUB AND PUSH1 0x2 SWAP1 DIV DUP1 PUSH1 0x1F ADD PUSH1 0x20 DUP1 SWAP2 DIV MUL PUSH1 0x20 ADD PUSH1 0x40 MLOAD SWAP1 DUP2 ADD PUSH1 0x40 MSTORE DUP1 SWAP3 SWAP2 SWAP1 DUP2 DUP2 MSTORE PUSH1 0x20 ADD DUP3 DUP1 SLOAD PUSH1 0x1 DUP2 PUSH1 0x1 AND ISZERO PUSH2 0x100 MUL SUB AND PUSH1 0x2 SWAP1 DIV DUP1 ISZERO PUSH2 0x14E9 JUMPI DUP1 PUSH1 0x1F LT PUSH2 0x14BE JUMPI PUSH2 0x100 DUP1 DUP4 SLOAD DIV MUL DUP4 MSTORE SWAP2 PUSH1 0x20 ADD SWAP2 PUSH2 0x14E9 JUMP JUMPDEST DUP3 ADD SWAP2 SWAP1 PUSH1 0x0 MSTORE PUSH1 0x20 PUSH1 0x0 KECCAK256 SWAP1 JUMPDEST DUP2 SLOAD DUP2 MSTORE SWAP1 PUSH1 0x1 ADD SWAP1 PUSH1 0x20 ADD DUP1 DUP4 GT PUSH2 0x14CC JUMPI DUP3 SWAP1 SUB PUSH1 0x1F AND DUP3 ADD SWAP2 JUMPDEST POP POP POP POP POP DUP2 MSTORE PUSH1 0x20 ADD PUSH1 0x2 DUP3 ADD DUP1 SLOAD PUSH1 0x1 DUP2 PUSH1 0x1 AND ISZERO PUSH2 0x100 MUL SUB AND PUSH1 0x2 SWAP1 DIV DUP1 PUSH1 0x1F ADD PUSH1 0x20 DUP1 SWAP2 DIV MUL PUSH1 0x20 ADD PUSH1 0x40 MLOAD SWAP1 DUP2 ADD PUSH1 0x40 MSTORE DUP1 SWAP3 SWAP2 SWAP1 DUP2 DUP2 MSTORE PUSH1 0x20 ADD DUP3 DUP1 SLOAD PUSH1 0x1 DUP2 PUSH1 0x1 AND ISZERO PUSH2 0x100 MUL SUB AND PUSH1 0x2 SWAP1 DIV DUP1 ISZERO PUSH2 0x158B JUMPI DUP1 PUSH1 0x1F LT PUSH2 0x1560 JUMPI PUSH2 0x100 DUP1 DUP4 SLOAD DIV MUL DUP4 MSTORE SWAP2 PUSH1 0x20 ADD SWAP2 PUSH2 0x158B JUMP JUMPDEST DUP3 ADD SWAP2 SWAP1 PUSH1 0x0 MSTORE PUSH1 0x20 PUSH1 0x0 KECCAK256 SWAP1 JUMPDEST DUP2 SLOAD DUP2 MSTORE SWAP1 PUSH1 0x1 ADD SWAP1 PUSH1 0x20 ADD DUP1 DUP4 GT PUSH2 0x156E JUMPI DUP3 SWAP1 SUB PUSH1 0x1F AND DUP3 ADD SWAP2 JUMPDEST POP POP POP POP POP DUP2 MSTORE PUSH1 0x20 ADD PUSH1 0x3 DUP3 ADD PUSH1 0x0 SWAP1 SLOAD SWAP1 PUSH2 0x100 EXP SWAP1 DIV PUSH20 0xFFFFFFFFFFFFFFFFFFFFFFFFFFFFFFFFFFFFFFFF AND PUSH20 0xFFFFFFFFFFFFFFFFFFFFFFFFFFFFFFFFFFFFFFFF AND PUSH20 0xFFFFFFFFFFFFFFFFFFFFFFFFFFFFFFFFFFFFFFFF AND DUP2 MSTORE PUSH1 0x20 ADD PUSH1 0x3 DUP3 ADD PUSH1 0x14 SWAP1 SLOAD SWAP1 PUSH2 0x100 EXP SWAP1 DIV PUSH1 0xFF AND ISZERO ISZERO ISZERO ISZERO DUP2 MSTORE PUSH1 0x20 ADD PUSH1 0x4 DUP3 ADD DUP1 SLOAD DUP1 PUSH1 0x20 MUL PUSH1 0x20 ADD PUSH1 0x40 MLOAD SWAP1 DUP2 ADD PUSH1 0x40 MSTORE DUP1 SWAP3 SWAP2 SWAP1 DUP2 DUP2 MSTORE PUSH1 0x20 ADD DUP3 DUP1 SLOAD DUP1 ISZERO PUSH2 0x1654 JUMPI PUSH1 0x20 MUL DUP3 ADD SWAP2 SWAP1 PUSH1 0x0 MSTORE PUSH1 0x20 PUSH1 0x0 KECCAK256 SWAP1 JUMPDEST DUP2 SLOAD DUP2 MSTORE PUSH1 0x20 ADD SWAP1 PUSH1 0x1 ADD SWAP1 DUP1 DUP4 GT PUSH2 0x1640 JUMPI JUMPDEST POP POP POP POP POP DUP2 MSTORE POP POP DUP2 MSTORE PUSH1 0x20 ADD SWAP1 PUSH1 0x1 ADD SWAP1 PUSH2 0x1423 JUMP JUMPDEST POP POP POP POP SWAP3 POP POP POP SWAP1 JUMP JUMPDEST PUSH1 0x3 PUSH1 0x0 SWAP1 SLOAD SWAP1 PUSH2 0x100 EXP SWAP1 DIV PUSH20 0xFFFFFFFFFFFFFFFFFFFFFFFFFFFFFFFFFFFFFFFF AND PUSH1 0x2 PUSH1 0x0 SWAP1 SLOAD SWAP1 PUSH2 0x100 EXP SWAP1 DIV PUSH20 0xFFFFFFFFFFFFFFFFFFFFFFFFFFFFFFFFFFFFFFFF AND DUP2 PUSH20 0xFFFFFFFFFFFFFFFFFFFFFFFFFFFFFFFFFFFFFFFF AND PUSH1 0x3 PUSH1 0x0 SWAP1 SLOAD SWAP1 PUSH2 0x100 EXP SWAP1 DIV PUSH20 0xFFFFFFFFFFFFFFFFFFFFFFFFFFFFFFFFFFFFFFFF AND PUSH20 0xFFFFFFFFFFFFFFFFFFFFFFFFFFFFFFFFFFFFFFFF AND EQ DUP1 PUSH2 0x1766 JUMPI POP DUP1 PUSH20 0xFFFFFFFFFFFFFFFFFFFFFFFFFFFFFFFFFFFFFFFF AND PUSH1 0x2 PUSH1 0x0 SWAP1 SLOAD SWAP1 PUSH2 0x100 EXP SWAP1 DIV PUSH20 0xFFFFFFFFFFFFFFFFFFFFFFFFFFFFFFFFFFFFFFFF AND PUSH20 0xFFFFFFFFFFFFFFFFFFFFFFFFFFFFFFFFFFFFFFFF AND EQ JUMPDEST PUSH2 0x17A5 JUMPI PUSH1 0x40 MLOAD PUSH32 0x8C379A000000000000000000000000000000000000000000000000000000000 DUP2 MSTORE PUSH1 0x4 ADD PUSH2 0x179C SWAP1 PUSH2 0x599E JUMP JUMPDEST PUSH1 0x40 MLOAD DUP1 SWAP2 SUB SWAP1 REVERT JUMPDEST PUSH1 0x0 PUSH2 0x17B0 DUP8 PUSH2 0x46E8 JUMP JUMPDEST SWAP1 POP DUP6 PUSH1 0x7 DUP3 DUP2 SLOAD DUP2 LT PUSH2 0x17C0 JUMPI INVALID JUMPDEST SWAP1 PUSH1 0x0 MSTORE PUSH1 0x20 PUSH1 0x0 KECCAK256 SWAP1 PUSH1 0x3 MUL ADD PUSH1 0x1 ADD SWAP1 DUP1 MLOAD SWAP1 PUSH1 0x20 ADD SWAP1 PUSH2 0x17E4 SWAP3 SWAP2 SWAP1 PUSH2 0x48A4 JUMP JUMPDEST POP DUP5 PUSH1 0x7 DUP3 DUP2 SLOAD DUP2 LT PUSH2 0x17F3 JUMPI INVALID JUMPDEST SWAP1 PUSH1 0x0 MSTORE PUSH1 0x20 PUSH1 0x0 KECCAK256 SWAP1 PUSH1 0x3 MUL ADD PUSH1 0x2 ADD PUSH1 0x0 PUSH2 0x100 EXP DUP2 SLOAD DUP2 PUSH20 0xFFFFFFFFFFFFFFFFFFFFFFFFFFFFFFFFFFFFFFFF MUL NOT AND SWAP1 DUP4 PUSH20 0xFFFFFFFFFFFFFFFFFFFFFFFFFFFFFFFFFFFFFFFF AND MUL OR SWAP1 SSTORE POP DUP4 PUSH1 0x7 DUP3 DUP2 SLOAD DUP2 LT PUSH2 0x1850 JUMPI INVALID JUMPDEST SWAP1 PUSH1 0x0 MSTORE PUSH1 0x20 PUSH1 0x0 KECCAK256 SWAP1 PUSH1 0x3 MUL ADD PUSH1 0x2 ADD PUSH1 0x14 PUSH2 0x100 EXP DUP2 SLOAD DUP2 PUSH1 0xFF MUL NOT AND SWAP1 DUP4 ISZERO ISZERO MUL OR SWAP1 SSTORE POP PUSH32 0x6FCBC4A02269AC36204AC7E60C4CF625C6FC2B2365CAC750C9927B670E347F90 PUSH1 0x7 DUP3 DUP2 SLOAD DUP2 LT PUSH2 0x18A6 JUMPI INVALID JUMPDEST SWAP1 PUSH1 0x0 MSTORE PUSH1 0x20 PUSH1 0x0 KECCAK256 SWAP1 PUSH1 0x3 MUL ADD PUSH1 0x0 ADD PUSH1 0x0 SWAP1 SLOAD SWAP1 PUSH2 0x100 EXP SWAP1 DIV PUSH20 0xFFFFFFFFFFFFFFFFFFFFFFFFFFFFFFFFFFFFFFFF AND PUSH1 0x7 DUP4 DUP2 SLOAD DUP2 LT PUSH2 0x18E5 JUMPI INVALID JUMPDEST SWAP1 PUSH1 0x0 MSTORE PUSH1 0x20 PUSH1 0x0 KECCAK256 SWAP1 PUSH1 0x3 MUL ADD PUSH1 0x1 ADD PUSH1 0x7 DUP5 DUP2 SLOAD DUP2 LT PUSH2 0x1903 JUMPI INVALID JUMPDEST SWAP1 PUSH1 0x0 MSTORE PUSH1 0x20 PUSH1 0x0 KECCAK256 SWAP1 PUSH1 0x3 MUL ADD PUSH1 0x2 ADD PUSH1 0x0 SWAP1 SLOAD SWAP1 PUSH2 0x100 EXP SWAP1 DIV PUSH20 0xFFFFFFFFFFFFFFFFFFFFFFFFFFFFFFFFFFFFFFFF AND PUSH1 0x7 DUP6 DUP2 SLOAD DUP2 LT PUSH2 0x1942 JUMPI INVALID JUMPDEST SWAP1 PUSH1 0x0 MSTORE PUSH1 0x20 PUSH1 0x0 KECCAK256 SWAP1 PUSH1 0x3 MUL ADD PUSH1 0x2 ADD PUSH1 0x14 SWAP1 SLOAD SWAP1 PUSH2 0x100 EXP SWAP1 DIV PUSH1 0xFF AND PUSH1 0x40 MLOAD PUSH2 0x1971 SWAP5 SWAP4 SWAP3 SWAP2 SWAP1 PUSH2 0x56FC JUMP JUMPDEST PUSH1 0x40 MLOAD DUP1 SWAP2 SUB SWAP1 LOG1 POP POP POP POP POP POP POP JUMP JUMPDEST PUSH1 0x60 PUSH1 0x0 DUP1 PUSH1 0x3 PUSH1 0x0 SWAP1 SLOAD SWAP1 PUSH2 0x100 EXP SWAP1 DIV PUSH20 0xFFFFFFFFFFFFFFFFFFFFFFFFFFFFFFFFFFFFFFFF AND PUSH1 0x2 PUSH1 0x0 SWAP1 SLOAD SWAP1 PUSH2 0x100 EXP SWAP1 DIV PUSH20 0xFFFFFFFFFFFFFFFFFFFFFFFFFFFFFFFFFFFFFFFF AND DUP2 PUSH20 0xFFFFFFFFFFFFFFFFFFFFFFFFFFFFFFFFFFFFFFFF AND PUSH1 0x3 PUSH1 0x0 SWAP1 SLOAD SWAP1 PUSH2 0x100 EXP SWAP1 DIV PUSH20 0xFFFFFFFFFFFFFFFFFFFFFFFFFFFFFFFFFFFFFFFF AND PUSH20 0xFFFFFFFFFFFFFFFFFFFFFFFFFFFFFFFFFFFFFFFF AND EQ DUP1 PUSH2 0x1A76 JUMPI POP DUP1 PUSH20 0xFFFFFFFFFFFFFFFFFFFFFFFFFFFFFFFFFFFFFFFF AND PUSH1 0x2 PUSH1 0x0 SWAP1 SLOAD SWAP1 PUSH2 0x100 EXP SWAP1 DIV PUSH20 0xFFFFFFFFFFFFFFFFFFFFFFFFFFFFFFFFFFFFFFFF AND PUSH20 0xFFFFFFFFFFFFFFFFFFFFFFFFFFFFFFFFFFFFFFFF AND EQ JUMPDEST PUSH2 0x1AB5 JUMPI PUSH1 0x40 MLOAD PUSH32 0x8C379A000000000000000000000000000000000000000000000000000000000 DUP2 MSTORE PUSH1 0x4 ADD PUSH2 0x1AAC SWAP1 PUSH2 0x599E JUMP JUMPDEST PUSH1 0x40 MLOAD DUP1 SWAP2 SUB SWAP1 REVERT JUMPDEST PUSH1 0x0 PUSH2 0x1AC0 DUP8 PUSH2 0x46E8 JUMP JUMPDEST SWAP1 POP PUSH1 0x7 DUP2 DUP2 SLOAD DUP2 LT PUSH2 0x1ACF JUMPI INVALID JUMPDEST SWAP1 PUSH1 0x0 MSTORE PUSH1 0x20 PUSH1 0x0 KECCAK256 SWAP1 PUSH1 0x3 MUL ADD PUSH1 0x1 ADD PUSH1 0x7 DUP3 DUP2 SLOAD DUP2 LT PUSH2 0x1AED JUMPI INVALID JUMPDEST SWAP1 PUSH1 0x0 MSTORE PUSH1 0x20 PUSH1 0x0 KECCAK256 SWAP1 PUSH1 0x3 MUL ADD PUSH1 0x2 ADD PUSH1 0x0 SWAP1 SLOAD SWAP1 PUSH2 0x100 EXP SWAP1 DIV PUSH20 0xFFFFFFFFFFFFFFFFFFFFFFFFFFFFFFFFFFFFFFFF AND PUSH1 0x7 DUP4 DUP2 SLOAD DUP2 LT PUSH2 0x1B2C JUMPI INVALID JUMPDEST SWAP1 PUSH1 0x0 MSTORE PUSH1 0x20 PUSH1 0x0 KECCAK256 SWAP1 PUSH1 0x3 MUL ADD PUSH1 0x2 ADD PUSH1 0x14 SWAP1 SLOAD SWAP1 PUSH2 0x100 EXP SWAP1 DIV PUSH1 0xFF AND DUP3 DUP1 SLOAD PUSH1 0x1 DUP2 PUSH1 0x1 AND ISZERO PUSH2 0x100 MUL SUB AND PUSH1 0x2 SWAP1 DIV DUP1 PUSH1 0x1F ADD PUSH1 0x20 DUP1 SWAP2 DIV MUL PUSH1 0x20 ADD PUSH1 0x40 MLOAD SWAP1 DUP2 ADD PUSH1 0x40 MSTORE DUP1 SWAP3 SWAP2 SWAP1 DUP2 DUP2 MSTORE PUSH1 0x20 ADD DUP3 DUP1 SLOAD PUSH1 0x1 DUP2 PUSH1 0x1 AND ISZERO PUSH2 0x100 MUL SUB AND PUSH1 0x2 SWAP1 DIV DUP1 ISZERO PUSH2 0x1BE0 JUMPI DUP1 PUSH1 0x1F LT PUSH2 0x1BB5 JUMPI PUSH2 0x100 DUP1 DUP4 SLOAD DIV MUL DUP4 MSTORE SWAP2 PUSH1 0x20 ADD SWAP2 PUSH2 0x1BE0 JUMP JUMPDEST DUP3 ADD SWAP2 SWAP1 PUSH1 0x0 MSTORE PUSH1 0x20 PUSH1 0x0 KECCAK256 SWAP1 JUMPDEST DUP2 SLOAD DUP2 MSTORE SWAP1 PUSH1 0x1 ADD SWAP1 PUSH1 0x20 ADD DUP1 DUP4 GT PUSH2 0x1BC3 JUMPI DUP3 SWAP1 SUB PUSH1 0x1F AND DUP3 ADD SWAP2 JUMPDEST POP POP POP POP POP SWAP3 POP SWAP6 POP SWAP6 POP SWAP6 POP POP POP POP SWAP2 SWAP4 SWAP1 SWAP3 POP JUMP JUMPDEST DUP2 PUSH1 0x3 PUSH1 0x0 SWAP1 SLOAD SWAP1 PUSH2 0x100 EXP SWAP1 DIV PUSH20 0xFFFFFFFFFFFFFFFFFFFFFFFFFFFFFFFFFFFFFFFF AND PUSH1 0x2 PUSH1 0x0 SWAP1 SLOAD SWAP1 PUSH2 0x100 EXP SWAP1 DIV PUSH20 0xFFFFFFFFFFFFFFFFFFFFFFFFFFFFFFFFFFFFFFFF AND PUSH1 0x0 PUSH2 0x1C49 DUP5 PUSH2 0x46E8 JUMP JUMPDEST LT DUP1 PUSH2 0x1CA2 JUMPI POP DUP2 PUSH20 0xFFFFFFFFFFFFFFFFFFFFFFFFFFFFFFFFFFFFFFFF AND PUSH1 0x3 PUSH1 0x0 SWAP1 SLOAD SWAP1 PUSH2 0x100 EXP SWAP1 DIV PUSH20 0xFFFFFFFFFFFFFFFFFFFFFFFFFFFFFFFFFFFFFFFF AND PUSH20 0xFFFFFFFFFFFFFFFFFFFFFFFFFFFFFFFFFFFFFFFF AND EQ JUMPDEST DUP1 PUSH2 0x1CFA JUMPI POP DUP1 PUSH20 0xFFFFFFFFFFFFFFFFFFFFFFFFFFFFFFFFFFFFFFFF AND PUSH1 0x2 PUSH1 0x0 SWAP1 SLOAD SWAP1 PUSH2 0x100 EXP SWAP1 DIV PUSH20 0xFFFFFFFFFFFFFFFFFFFFFFFFFFFFFFFFFFFFFFFF AND PUSH20 0xFFFFFFFFFFFFFFFFFFFFFFFFFFFFFFFFFFFFFFFF AND EQ JUMPDEST PUSH2 0x1D39 JUMPI PUSH1 0x40 MLOAD PUSH32 0x8C379A000000000000000000000000000000000000000000000000000000000 DUP2 MSTORE PUSH1 0x4 ADD PUSH2 0x1D30 SWAP1 PUSH2 0x599E JUMP JUMPDEST PUSH1 0x40 MLOAD DUP1 SWAP2 SUB SWAP1 REVERT JUMPDEST PUSH1 0x0 PUSH2 0x1D44 DUP10 PUSH2 0x4656 JUMP JUMPDEST SWAP1 POP DUP8 PUSH1 0x9 DUP3 DUP2 SLOAD DUP2 LT PUSH2 0x1D54 JUMPI INVALID JUMPDEST SWAP1 PUSH1 0x0 MSTORE PUSH1 0x20 PUSH1 0x0 KECCAK256 SWAP1 PUSH1 0x5 MUL ADD PUSH1 0x1 ADD SWAP1 DUP1 MLOAD SWAP1 PUSH1 0x20 ADD SWAP1 PUSH2 0x1D78 SWAP3 SWAP2 SWAP1 PUSH2 0x48A4 JUMP JUMPDEST POP DUP7 PUSH1 0x9 DUP3 DUP2 SLOAD DUP2 LT PUSH2 0x1D87 JUMPI INVALID JUMPDEST SWAP1 PUSH1 0x0 MSTORE PUSH1 0x20 PUSH1 0x0 KECCAK256 SWAP1 PUSH1 0x5 MUL ADD PUSH1 0x2 ADD SWAP1 DUP1 MLOAD SWAP1 PUSH1 0x20 ADD SWAP1 PUSH2 0x1DAB SWAP3 SWAP2 SWAP1 PUSH2 0x48A4 JUMP JUMPDEST POP DUP6 PUSH1 0x9 DUP3 DUP2 SLOAD DUP2 LT PUSH2 0x1DBA JUMPI INVALID JUMPDEST SWAP1 PUSH1 0x0 MSTORE PUSH1 0x20 PUSH1 0x0 KECCAK256 SWAP1 PUSH1 0x5 MUL ADD PUSH1 0x3 ADD PUSH1 0x0 PUSH2 0x100 EXP DUP2 SLOAD DUP2 PUSH20 0xFFFFFFFFFFFFFFFFFFFFFFFFFFFFFFFFFFFFFFFF MUL NOT AND SWAP1 DUP4 PUSH20 0xFFFFFFFFFFFFFFFFFFFFFFFFFFFFFFFFFFFFFFFF AND MUL OR SWAP1 SSTORE POP DUP5 PUSH1 0x9 DUP3 DUP2 SLOAD DUP2 LT PUSH2 0x1E17 JUMPI INVALID JUMPDEST SWAP1 PUSH1 0x0 MSTORE PUSH1 0x20 PUSH1 0x0 KECCAK256 SWAP1 PUSH1 0x5 MUL ADD PUSH1 0x3 ADD PUSH1 0x14 PUSH2 0x100 EXP DUP2 SLOAD DUP2 PUSH1 0xFF MUL NOT AND SWAP1 DUP4 ISZERO ISZERO MUL OR SWAP1 SSTORE POP PUSH32 0x3AB6F9EA2E72CAD17988F4527DC5626FA4E97C597FCBD9D7E2A7E820851B54CE PUSH1 0x9 DUP3 DUP2 SLOAD DUP2 LT PUSH2 0x1E6D JUMPI INVALID JUMPDEST SWAP1 PUSH1 0x0 MSTORE PUSH1 0x20 PUSH1 0x0 KECCAK256 SWAP1 PUSH1 0x5 MUL ADD PUSH1 0x0 ADD SLOAD PUSH1 0x9 DUP4 DUP2 SLOAD DUP2 LT PUSH2 0x1E8C JUMPI INVALID JUMPDEST SWAP1 PUSH1 0x0 MSTORE PUSH1 0x20 PUSH1 0x0 KECCAK256 SWAP1 PUSH1 0x5 MUL ADD PUSH1 0x1 ADD PUSH1 0x9 DUP5 DUP2 SLOAD DUP2 LT PUSH2 0x1EAA JUMPI INVALID JUMPDEST SWAP1 PUSH1 0x0 MSTORE PUSH1 0x20 PUSH1 0x0 KECCAK256 SWAP1 PUSH1 0x5 MUL ADD PUSH1 0x2 ADD PUSH1 0x9 DUP6 DUP2 SLOAD DUP2 LT PUSH2 0x1EC8 JUMPI INVALID JUMPDEST SWAP1 PUSH1 0x0 MSTORE PUSH1 0x20 PUSH1 0x0 KECCAK256 SWAP1 PUSH1 0x5 MUL ADD PUSH1 0x3 ADD PUSH1 0x0 SWAP1 SLOAD SWAP1 PUSH2 0x100 EXP SWAP1 DIV PUSH20 0xFFFFFFFFFFFFFFFFFFFFFFFFFFFFFFFFFFFFFFFF AND PUSH1 0x9 DUP7 DUP2 SLOAD DUP2 LT PUSH2 0x1F07 JUMPI INVALID JUMPDEST SWAP1 PUSH1 0x0 MSTORE PUSH1 0x20 PUSH1 0x0 KECCAK256 SWAP1 PUSH1 0x5 MUL ADD PUSH1 0x3 ADD PUSH1 0x14 SWAP1 SLOAD SWAP1 PUSH2 0x100 EXP SWAP1 DIV PUSH1 0xFF AND PUSH1 0x40 MLOAD PUSH2 0x1F37 SWAP6 SWAP5 SWAP4 SWAP3 SWAP2 SWAP1 PUSH2 0x5A95 JUMP JUMPDEST PUSH1 0x40 MLOAD DUP1 SWAP2 SUB SWAP1 LOG1 POP POP POP POP POP POP POP POP POP JUMP JUMPDEST PUSH1 0x8 PUSH1 0x20 MSTORE DUP1 PUSH1 0x0 MSTORE PUSH1 0x40 PUSH1 0x0 KECCAK256 PUSH1 0x0 SWAP2 POP SWAP1 POP DUP1 PUSH1 0x0 ADD SLOAD SWAP1 DUP1 PUSH1 0x1 ADD DUP1 SLOAD PUSH1 0x1 DUP2 PUSH1 0x1 AND ISZERO PUSH2 0x100 MUL SUB AND PUSH1 0x2 SWAP1 DIV DUP1 PUSH1 0x1F ADD PUSH1 0x20 DUP1 SWAP2 DIV MUL PUSH1 0x20 ADD PUSH1 0x40 MLOAD SWAP1 DUP2 ADD PUSH1 0x40 MSTORE DUP1 SWAP3 SWAP2 SWAP1 DUP2 DUP2 MSTORE PUSH1 0x20 ADD DUP3 DUP1 SLOAD PUSH1 0x1 DUP2 PUSH1 0x1 AND ISZERO PUSH2 0x100 MUL SUB AND PUSH1 0x2 SWAP1 DIV DUP1 ISZERO PUSH2 0x1FFC JUMPI DUP1 PUSH1 0x1F LT PUSH2 0x1FD1 JUMPI PUSH2 0x100 DUP1 DUP4 SLOAD DIV MUL DUP4 MSTORE SWAP2 PUSH1 0x20 ADD SWAP2 PUSH2 0x1FFC JUMP JUMPDEST DUP3 ADD SWAP2 SWAP1 PUSH1 0x0 MSTORE PUSH1 0x20 PUSH1 0x0 KECCAK256 SWAP1 JUMPDEST DUP2 SLOAD DUP2 MSTORE SWAP1 PUSH1 0x1 ADD SWAP1 PUSH1 0x20 ADD DUP1 DUP4 GT PUSH2 0x1FDF JUMPI DUP3 SWAP1 SUB PUSH1 0x1F AND DUP3 ADD SWAP2 JUMPDEST POP POP POP POP POP SWAP1 DUP1 PUSH1 0x2 ADD DUP1 SLOAD PUSH1 0x1 DUP2 PUSH1 0x1 AND ISZERO PUSH2 0x100 MUL SUB AND PUSH1 0x2 SWAP1 DIV DUP1 PUSH1 0x1F ADD PUSH1 0x20 DUP1 SWAP2 DIV MUL PUSH1 0x20 ADD PUSH1 0x40 MLOAD SWAP1 DUP2 ADD PUSH1 0x40 MSTORE DUP1 SWAP3 SWAP2 SWAP1 DUP2 DUP2 MSTORE PUSH1 0x20 ADD DUP3 DUP1 SLOAD PUSH1 0x1 DUP2 PUSH1 0x1 AND ISZERO PUSH2 0x100 MUL SUB AND PUSH1 0x2 SWAP1 DIV DUP1 ISZERO PUSH2 0x209A JUMPI DUP1 PUSH1 0x1F LT PUSH2 0x206F JUMPI PUSH2 0x100 DUP1 DUP4 SLOAD DIV MUL DUP4 MSTORE SWAP2 PUSH1 0x20 ADD SWAP2 PUSH2 0x209A JUMP JUMPDEST DUP3 ADD SWAP2 SWAP1 PUSH1 0x0 MSTORE PUSH1 0x20 PUSH1 0x0 KECCAK256 SWAP1 JUMPDEST DUP2 SLOAD DUP2 MSTORE SWAP1 PUSH1 0x1 ADD SWAP1 PUSH1 0x20 ADD DUP1 DUP4 GT PUSH2 0x207D JUMPI DUP3 SWAP1 SUB PUSH1 0x1F AND DUP3 ADD SWAP2 JUMPDEST POP POP POP POP POP SWAP1 DUP1 PUSH1 0x3 ADD PUSH1 0x0 SWAP1 SLOAD SWAP1 PUSH2 0x100 EXP SWAP1 DIV PUSH20 0xFFFFFFFFFFFFFFFFFFFFFFFFFFFFFFFFFFFFFFFF AND SWAP1 DUP1 PUSH1 0x3 ADD PUSH1 0x14 SWAP1 SLOAD SWAP1 PUSH2 0x100 EXP SWAP1 DIV PUSH1 0xFF AND SWAP1 POP DUP6 JUMP JUMPDEST PUSH1 0x7 DUP2 DUP2 SLOAD DUP2 LT PUSH2 0x20ED JUMPI PUSH1 0x0 DUP1 REVERT JUMPDEST SWAP1 PUSH1 0x0 MSTORE PUSH1 0x20 PUSH1 0x0 KECCAK256 SWAP1 PUSH1 0x3 MUL ADD PUSH1 0x0 SWAP2 POP SWAP1 POP DUP1 PUSH1 0x0 ADD PUSH1 0x0 SWAP1 SLOAD SWAP1 PUSH2 0x100 EXP SWAP1 DIV PUSH20 0xFFFFFFFFFFFFFFFFFFFFFFFFFFFFFFFFFFFFFFFF AND SWAP1 DUP1 PUSH1 0x1 ADD DUP1 SLOAD PUSH1 0x1 DUP2 PUSH1 0x1 AND ISZERO PUSH2 0x100 MUL SUB AND PUSH1 0x2 SWAP1 DIV DUP1 PUSH1 0x1F ADD PUSH1 0x20 DUP1 SWAP2 DIV MUL PUSH1 0x20 ADD PUSH1 0x40 MLOAD SWAP1 DUP2 ADD PUSH1 0x40 MSTORE DUP1 SWAP3 SWAP2 SWAP1 DUP2 DUP2 MSTORE PUSH1 0x20 ADD DUP3 DUP1 SLOAD PUSH1 0x1 DUP2 PUSH1 0x1 AND ISZERO PUSH2 0x100 MUL SUB AND PUSH1 0x2 SWAP1 DIV DUP1 ISZERO PUSH2 0x21BF JUMPI DUP1 PUSH1 0x1F LT PUSH2 0x2194 JUMPI PUSH2 0x100 DUP1 DUP4 SLOAD DIV MUL DUP4 MSTORE SWAP2 PUSH1 0x20 ADD SWAP2 PUSH2 0x21BF JUMP JUMPDEST DUP3 ADD SWAP2 SWAP1 PUSH1 0x0 MSTORE PUSH1 0x20 PUSH1 0x0 KECCAK256 SWAP1 JUMPDEST DUP2 SLOAD DUP2 MSTORE SWAP1 PUSH1 0x1 ADD SWAP1 PUSH1 0x20 ADD DUP1 DUP4 GT PUSH2 0x21A2 JUMPI DUP3 SWAP1 SUB PUSH1 0x1F AND DUP3 ADD SWAP2 JUMPDEST POP POP POP POP POP SWAP1 DUP1 PUSH1 0x2 ADD PUSH1 0x0 SWAP1 SLOAD SWAP1 PUSH2 0x100 EXP SWAP1 DIV PUSH20 0xFFFFFFFFFFFFFFFFFFFFFFFFFFFFFFFFFFFFFFFF AND SWAP1 DUP1 PUSH1 0x2 ADD PUSH1 0x14 SWAP1 SLOAD SWAP1 PUSH2 0x100 EXP SWAP1 DIV PUSH1 0xFF AND SWAP1 POP DUP5 JUMP JUMPDEST PUSH1 0x60 DUP2 PUSH1 0x3 PUSH1 0x0 SWAP1 SLOAD SWAP1 PUSH2 0x100 EXP SWAP1 DIV PUSH20 0xFFFFFFFFFFFFFFFFFFFFFFFFFFFFFFFFFFFFFFFF AND PUSH1 0x2 PUSH1 0x0 SWAP1 SLOAD SWAP1 PUSH2 0x100 EXP SWAP1 DIV PUSH20 0xFFFFFFFFFFFFFFFFFFFFFFFFFFFFFFFFFFFFFFFF AND PUSH1 0x0 PUSH2 0x2256 DUP5 PUSH2 0x46E8 JUMP JUMPDEST LT DUP1 PUSH2 0x22AF JUMPI POP DUP2 PUSH20 0xFFFFFFFFFFFFFFFFFFFFFFFFFFFFFFFFFFFFFFFF AND PUSH1 0x3 PUSH1 0x0 SWAP1 SLOAD SWAP1 PUSH2 0x100 EXP SWAP1 DIV PUSH20 0xFFFFFFFFFFFFFFFFFFFFFFFFFFFFFFFFFFFFFFFF AND PUSH20 0xFFFFFFFFFFFFFFFFFFFFFFFFFFFFFFFFFFFFFFFF AND EQ JUMPDEST DUP1 PUSH2 0x2307 JUMPI POP DUP1 PUSH20 0xFFFFFFFFFFFFFFFFFFFFFFFFFFFFFFFFFFFFFFFF AND PUSH1 0x2 PUSH1 0x0 SWAP1 SLOAD SWAP1 PUSH2 0x100 EXP SWAP1 DIV PUSH20 0xFFFFFFFFFFFFFFFFFFFFFFFFFFFFFFFFFFFFFFFF AND PUSH20 0xFFFFFFFFFFFFFFFFFFFFFFFFFFFFFFFFFFFFFFFF AND EQ JUMPDEST PUSH2 0x2346 JUMPI PUSH1 0x40 MLOAD PUSH32 0x8C379A000000000000000000000000000000000000000000000000000000000 DUP2 MSTORE PUSH1 0x4 ADD PUSH2 0x233D SWAP1 PUSH2 0x599E JUMP JUMPDEST PUSH1 0x40 MLOAD DUP1 SWAP2 SUB SWAP1 REVERT JUMPDEST PUSH1 0x0 PUSH1 0x9 DUP1 SLOAD SWAP1 POP PUSH8 0xFFFFFFFFFFFFFFFF DUP2 GT DUP1 ISZERO PUSH2 0x2364 JUMPI PUSH1 0x0 DUP1 REVERT JUMPDEST POP PUSH1 0x40 MLOAD SWAP1 DUP1 DUP3 MSTORE DUP1 PUSH1 0x20 MUL PUSH1 0x20 ADD DUP3 ADD PUSH1 0x40 MSTORE DUP1 ISZERO PUSH2 0x239E JUMPI DUP2 PUSH1 0x20 ADD JUMPDEST PUSH2 0x238B PUSH2 0x497F JUMP JUMPDEST DUP2 MSTORE PUSH1 0x20 ADD SWAP1 PUSH1 0x1 SWAP1 SUB SWAP1 DUP2 PUSH2 0x2383 JUMPI SWAP1 POP JUMPDEST POP SWAP1 POP PUSH1 0x0 JUMPDEST PUSH1 0x9 DUP1 SLOAD SWAP1 POP DUP2 LT ISZERO PUSH2 0x2685 JUMPI PUSH1 0x9 DUP2 DUP2 SLOAD DUP2 LT PUSH2 0x23BE JUMPI INVALID JUMPDEST SWAP1 PUSH1 0x0 MSTORE PUSH1 0x20 PUSH1 0x0 KECCAK256 SWAP1 PUSH1 0x5 MUL ADD PUSH1 0x3 ADD PUSH1 0x0 SWAP1 SLOAD SWAP1 PUSH2 0x100 EXP SWAP1 DIV PUSH20 0xFFFFFFFFFFFFFFFFFFFFFFFFFFFFFFFFFFFFFFFF AND PUSH20 0xFFFFFFFFFFFFFFFFFFFFFFFFFFFFFFFFFFFFFFFF AND DUP8 PUSH20 0xFFFFFFFFFFFFFFFFFFFFFFFFFFFFFFFFFFFFFFFF AND EQ ISZERO PUSH2 0x2678 JUMPI PUSH1 0x9 DUP2 DUP2 SLOAD DUP2 LT PUSH2 0x2430 JUMPI INVALID JUMPDEST SWAP1 PUSH1 0x0 MSTORE PUSH1 0x20 PUSH1 0x0 KECCAK256 SWAP1 PUSH1 0x5 MUL ADD PUSH1 0x40 MLOAD DUP1 PUSH1 0xC0 ADD PUSH1 0x40 MSTORE SWAP1 DUP2 PUSH1 0x0 DUP3 ADD SLOAD DUP2 MSTORE PUSH1 0x20 ADD PUSH1 0x1 DUP3 ADD DUP1 SLOAD PUSH1 0x1 DUP2 PUSH1 0x1 AND ISZERO PUSH2 0x100 MUL SUB AND PUSH1 0x2 SWAP1 DIV DUP1 PUSH1 0x1F ADD PUSH1 0x20 DUP1 SWAP2 DIV MUL PUSH1 0x20 ADD PUSH1 0x40 MLOAD SWAP1 DUP2 ADD PUSH1 0x40 MSTORE DUP1 SWAP3 SWAP2 SWAP1 DUP2 DUP2 MSTORE PUSH1 0x20 ADD DUP3 DUP1 SLOAD PUSH1 0x1 DUP2 PUSH1 0x1 AND ISZERO PUSH2 0x100 MUL SUB AND PUSH1 0x2 SWAP1 DIV DUP1 ISZERO PUSH2 0x24EC JUMPI DUP1 PUSH1 0x1F LT PUSH2 0x24C1 JUMPI PUSH2 0x100 DUP1 DUP4 SLOAD DIV MUL DUP4 MSTORE SWAP2 PUSH1 0x20 ADD SWAP2 PUSH2 0x24EC JUMP JUMPDEST DUP3 ADD SWAP2 SWAP1 PUSH1 0x0 MSTORE PUSH1 0x20 PUSH1 0x0 KECCAK256 SWAP1 JUMPDEST DUP2 SLOAD DUP2 MSTORE SWAP1 PUSH1 0x1 ADD SWAP1 PUSH1 0x20 ADD DUP1 DUP4 GT PUSH2 0x24CF JUMPI DUP3 SWAP1 SUB PUSH1 0x1F AND DUP3 ADD SWAP2 JUMPDEST POP POP POP POP POP DUP2 MSTORE PUSH1 0x20 ADD PUSH1 0x2 DUP3 ADD DUP1 SLOAD PUSH1 0x1 DUP2 PUSH1 0x1 AND ISZERO PUSH2 0x100 MUL SUB AND PUSH1 0x2 SWAP1 DIV DUP1 PUSH1 0x1F ADD PUSH1 0x20 DUP1 SWAP2 DIV MUL PUSH1 0x20 ADD PUSH1 0x40 MLOAD SWAP1 DUP2 ADD PUSH1 0x40 MSTORE DUP1 SWAP3 SWAP2 SWAP1 DUP2 DUP2 MSTORE PUSH1 0x20 ADD DUP3 DUP1 SLOAD PUSH1 0x1 DUP2 PUSH1 0x1 AND ISZERO PUSH2 0x100 MUL SUB AND PUSH1 0x2 SWAP1 DIV DUP1 ISZERO PUSH2 0x258E JUMPI DUP1 PUSH1 0x1F LT PUSH2 0x2563 JUMPI PUSH2 0x100 DUP1 DUP4 SLOAD DIV MUL DUP4 MSTORE SWAP2 PUSH1 0x20 ADD SWAP2 PUSH2 0x258E JUMP JUMPDEST DUP3 ADD SWAP2 SWAP1 PUSH1 0x0 MSTORE PUSH1 0x20 PUSH1 0x0 KECCAK256 SWAP1 JUMPDEST DUP2 SLOAD DUP2 MSTORE SWAP1 PUSH1 0x1 ADD SWAP1 PUSH1 0x20 ADD DUP1 DUP4 GT PUSH2 0x2571 JUMPI DUP3 SWAP1 SUB PUSH1 0x1F AND DUP3 ADD SWAP2 JUMPDEST POP POP POP POP POP DUP2 MSTORE PUSH1 0x20 ADD PUSH1 0x3 DUP3 ADD PUSH1 0x0 SWAP1 SLOAD SWAP1 PUSH2 0x100 EXP SWAP1 DIV PUSH20 0xFFFFFFFFFFFFFFFFFFFFFFFFFFFFFFFFFFFFFFFF AND PUSH20 0xFFFFFFFFFFFFFFFFFFFFFFFFFFFFFFFFFFFFFFFF AND PUSH20 0xFFFFFFFFFFFFFFFFFFFFFFFFFFFFFFFFFFFFFFFF AND DUP2 MSTORE PUSH1 0x20 ADD PUSH1 0x3 DUP3 ADD PUSH1 0x14 SWAP1 SLOAD SWAP1 PUSH2 0x100 EXP SWAP1 DIV PUSH1 0xFF AND ISZERO ISZERO ISZERO ISZERO DUP2 MSTORE PUSH1 0x20 ADD PUSH1 0x4 DUP3 ADD DUP1 SLOAD DUP1 PUSH1 0x20 MUL PUSH1 0x20 ADD PUSH1 0x40 MLOAD SWAP1 DUP2 ADD PUSH1 0x40 MSTORE DUP1 SWAP3 SWAP2 SWAP1 DUP2 DUP2 MSTORE PUSH1 0x20 ADD DUP3 DUP1 SLOAD DUP1 ISZERO PUSH2 0x2657 JUMPI PUSH1 0x20 MUL DUP3 ADD SWAP2 SWAP1 PUSH1 0x0 MSTORE PUSH1 0x20 PUSH1 0x0 KECCAK256 SWAP1 JUMPDEST DUP2 SLOAD DUP2 MSTORE PUSH1 0x20 ADD SWAP1 PUSH1 0x1 ADD SWAP1 DUP1 DUP4 GT PUSH2 0x2643 JUMPI JUMPDEST POP POP POP POP POP DUP2 MSTORE POP POP DUP3 DUP3 DUP2 MLOAD DUP2 LT PUSH2 0x266C JUMPI INVALID JUMPDEST PUSH1 0x20 MUL PUSH1 0x20 ADD ADD DUP2 SWAP1 MSTORE POP JUMPDEST DUP1 DUP1 PUSH1 0x1 ADD SWAP2 POP POP PUSH2 0x23A4 JUMP JUMPDEST POP DUP1 SWAP5 POP POP POP POP POP SWAP2 SWAP1 POP JUMP JUMPDEST PUSH1 0x60 DUP1 PUSH1 0x60 PUSH1 0x0 PUSH1 0x3 PUSH1 0x0 SWAP1 SLOAD SWAP1 PUSH2 0x100 EXP SWAP1 DIV PUSH20 0xFFFFFFFFFFFFFFFFFFFFFFFFFFFFFFFFFFFFFFFF AND PUSH1 0x2 PUSH1 0x0 SWAP1 SLOAD SWAP1 PUSH2 0x100 EXP SWAP1 DIV PUSH20 0xFFFFFFFFFFFFFFFFFFFFFFFFFFFFFFFFFFFFFFFF AND DUP2 PUSH20 0xFFFFFFFFFFFFFFFFFFFFFFFFFFFFFFFFFFFFFFFF AND PUSH1 0x3 PUSH1 0x0 SWAP1 SLOAD SWAP1 PUSH2 0x100 EXP SWAP1 DIV PUSH20 0xFFFFFFFFFFFFFFFFFFFFFFFFFFFFFFFFFFFFFFFF AND PUSH20 0xFFFFFFFFFFFFFFFFFFFFFFFFFFFFFFFFFFFFFFFF AND EQ DUP1 PUSH2 0x2788 JUMPI POP DUP1 PUSH20 0xFFFFFFFFFFFFFFFFFFFFFFFFFFFFFFFFFFFFFFFF AND PUSH1 0x2 PUSH1 0x0 SWAP1 SLOAD SWAP1 PUSH2 0x100 EXP SWAP1 DIV PUSH20 0xFFFFFFFFFFFFFFFFFFFFFFFFFFFFFFFFFFFFFFFF AND PUSH20 0xFFFFFFFFFFFFFFFFFFFFFFFFFFFFFFFFFFFFFFFF AND EQ JUMPDEST PUSH2 0x27C7 JUMPI PUSH1 0x40 MLOAD PUSH32 0x8C379A000000000000000000000000000000000000000000000000000000000 DUP2 MSTORE PUSH1 0x4 ADD PUSH2 0x27BE SWAP1 PUSH2 0x599E JUMP JUMPDEST PUSH1 0x40 MLOAD DUP1 SWAP2 SUB SWAP1 REVERT JUMPDEST PUSH1 0x0 PUSH2 0x27D2 DUP9 PUSH2 0x47C6 JUMP JUMPDEST SWAP1 POP PUSH1 0x5 DUP2 DUP2 SLOAD DUP2 LT PUSH2 0x27E1 JUMPI INVALID JUMPDEST SWAP1 PUSH1 0x0 MSTORE PUSH1 0x20 PUSH1 0x0 KECCAK256 SWAP1 PUSH1 0x5 MUL ADD PUSH1 0x1 ADD PUSH1 0x5 DUP3 DUP2 SLOAD DUP2 LT PUSH2 0x27FF JUMPI INVALID JUMPDEST SWAP1 PUSH1 0x0 MSTORE PUSH1 0x20 PUSH1 0x0 KECCAK256 SWAP1 PUSH1 0x5 MUL ADD PUSH1 0x2 ADD PUSH1 0x5 DUP4 DUP2 SLOAD DUP2 LT PUSH2 0x281D JUMPI INVALID JUMPDEST SWAP1 PUSH1 0x0 MSTORE PUSH1 0x20 PUSH1 0x0 KECCAK256 SWAP1 PUSH1 0x5 MUL ADD PUSH1 0x3 ADD PUSH1 0x5 DUP5 DUP2 SLOAD DUP2 LT PUSH2 0x283B JUMPI INVALID JUMPDEST SWAP1 PUSH1 0x0 MSTORE PUSH1 0x20 PUSH1 0x0 KECCAK256 SWAP1 PUSH1 0x5 MUL ADD PUSH1 0x4 ADD PUSH1 0x0 SWAP1 SLOAD SWAP1 PUSH2 0x100 EXP SWAP1 DIV PUSH1 0xFF AND DUP4 DUP1 SLOAD PUSH1 0x1 DUP2 PUSH1 0x1 AND ISZERO PUSH2 0x100 MUL SUB AND PUSH1 0x2 SWAP1 DIV DUP1 PUSH1 0x1F ADD PUSH1 0x20 DUP1 SWAP2 DIV MUL PUSH1 0x20 ADD PUSH1 0x40 MLOAD SWAP1 DUP2 ADD PUSH1 0x40 MSTORE DUP1 SWAP3 SWAP2 SWAP1 DUP2 DUP2 MSTORE PUSH1 0x20 ADD DUP3 DUP1 SLOAD PUSH1 0x1 DUP2 PUSH1 0x1 AND ISZERO PUSH2 0x100 MUL SUB AND PUSH1 0x2 SWAP1 DIV DUP1 ISZERO PUSH2 0x28EF JUMPI DUP1 PUSH1 0x1F LT PUSH2 0x28C4 JUMPI PUSH2 0x100 DUP1 DUP4 SLOAD DIV MUL DUP4 MSTORE SWAP2 PUSH1 0x20 ADD SWAP2 PUSH2 0x28EF JUMP JUMPDEST DUP3 ADD SWAP2 SWAP1 PUSH1 0x0 MSTORE PUSH1 0x20 PUSH1 0x0 KECCAK256 SWAP1 JUMPDEST DUP2 SLOAD DUP2 MSTORE SWAP1 PUSH1 0x1 ADD SWAP1 PUSH1 0x20 ADD DUP1 DUP4 GT PUSH2 0x28D2 JUMPI DUP3 SWAP1 SUB PUSH1 0x1F AND DUP3 ADD SWAP2 JUMPDEST POP POP POP POP POP SWAP4 POP DUP3 DUP1 SLOAD PUSH1 0x1 DUP2 PUSH1 0x1 AND ISZERO PUSH2 0x100 MUL SUB AND PUSH1 0x2 SWAP1 DIV DUP1 PUSH1 0x1F ADD PUSH1 0x20 DUP1 SWAP2 DIV MUL PUSH1 0x20 ADD PUSH1 0x40 MLOAD SWAP1 DUP2 ADD PUSH1 0x40 MSTORE DUP1 SWAP3 SWAP2 SWAP1 DUP2 DUP2 MSTORE PUSH1 0x20 ADD DUP3 DUP1 SLOAD PUSH1 0x1 DUP2 PUSH1 0x1 AND ISZERO PUSH2 0x100 MUL SUB AND PUSH1 0x2 SWAP1 DIV DUP1 ISZERO PUSH2 0x298B JUMPI DUP1 PUSH1 0x1F LT PUSH2 0x2960 JUMPI PUSH2 0x100 DUP1 DUP4 SLOAD DIV MUL DUP4 MSTORE SWAP2 PUSH1 0x20 ADD SWAP2 PUSH2 0x298B JUMP JUMPDEST DUP3 ADD SWAP2 SWAP1 PUSH1 0x0 MSTORE PUSH1 0x20 PUSH1 0x0 KECCAK256 SWAP1 JUMPDEST DUP2 SLOAD DUP2 MSTORE SWAP1 PUSH1 0x1 ADD SWAP1 PUSH1 0x20 ADD DUP1 DUP4 GT PUSH2 0x296E JUMPI DUP3 SWAP1 SUB PUSH1 0x1F AND DUP3 ADD SWAP2 JUMPDEST POP POP POP POP POP SWAP3 POP DUP2 DUP1 SLOAD PUSH1 0x1 DUP2 PUSH1 0x1 AND ISZERO PUSH2 0x100 MUL SUB AND PUSH1 0x2 SWAP1 DIV DUP1 PUSH1 0x1F ADD PUSH1 0x20 DUP1 SWAP2 DIV MUL PUSH1 0x20 ADD PUSH1 0x40 MLOAD SWAP1 DUP2 ADD PUSH1 0x40 MSTORE DUP1 SWAP3 SWAP2 SWAP1 DUP2 DUP2 MSTORE PUSH1 0x20 ADD DUP3 DUP1 SLOAD PUSH1 0x1 DUP2 PUSH1 0x1 AND ISZERO PUSH2 0x100 MUL SUB AND PUSH1 0x2 SWAP1 DIV DUP1 ISZERO PUSH2 0x2A27 JUMPI DUP1 PUSH1 0x1F LT PUSH2 0x29FC JUMPI PUSH2 0x100 DUP1 DUP4 SLOAD DIV MUL DUP4 MSTORE SWAP2 PUSH1 0x20 ADD SWAP2 PUSH2 0x2A27 JUMP JUMPDEST DUP3 ADD SWAP2 SWAP1 PUSH1 0x0 MSTORE PUSH1 0x20 PUSH1 0x0 KECCAK256 SWAP1 JUMPDEST DUP2 SLOAD DUP2 MSTORE SWAP1 PUSH1 0x1 ADD SWAP1 PUSH1 0x20 ADD DUP1 DUP4 GT PUSH2 0x2A0A JUMPI DUP3 SWAP1 SUB PUSH1 0x1F AND DUP3 ADD SWAP2 JUMPDEST POP POP POP POP POP SWAP2 POP SWAP7 POP SWAP7 POP SWAP7 POP SWAP7 POP POP POP POP SWAP2 SWAP4 POP SWAP2 SWAP4 JUMP JUMPDEST PUSH1 0x3 PUSH1 0x0 SWAP1 SLOAD SWAP1 PUSH2 0x100 EXP SWAP1 DIV PUSH20 0xFFFFFFFFFFFFFFFFFFFFFFFFFFFFFFFFFFFFFFFF AND PUSH1 0x2 PUSH1 0x0 SWAP1 SLOAD SWAP1 PUSH2 0x100 EXP SWAP1 DIV PUSH20 0xFFFFFFFFFFFFFFFFFFFFFFFFFFFFFFFFFFFFFFFF AND DUP2 PUSH20 0xFFFFFFFFFFFFFFFFFFFFFFFFFFFFFFFFFFFFFFFF AND PUSH1 0x3 PUSH1 0x0 SWAP1 SLOAD SWAP1 PUSH2 0x100 EXP SWAP1 DIV PUSH20 0xFFFFFFFFFFFFFFFFFFFFFFFFFFFFFFFFFFFFFFFF AND PUSH20 0xFFFFFFFFFFFFFFFFFFFFFFFFFFFFFFFFFFFFFFFF AND EQ DUP1 PUSH2 0x2B2F JUMPI POP DUP1 PUSH20 0xFFFFFFFFFFFFFFFFFFFFFFFFFFFFFFFFFFFFFFFF AND PUSH1 0x2 PUSH1 0x0 SWAP1 SLOAD SWAP1 PUSH2 0x100 EXP SWAP1 DIV PUSH20 0xFFFFFFFFFFFFFFFFFFFFFFFFFFFFFFFFFFFFFFFF AND PUSH20 0xFFFFFFFFFFFFFFFFFFFFFFFFFFFFFFFFFFFFFFFF AND EQ JUMPDEST PUSH2 0x2B6E JUMPI PUSH1 0x40 MLOAD PUSH32 0x8C379A000000000000000000000000000000000000000000000000000000000 DUP2 MSTORE PUSH1 0x4 ADD PUSH2 0x2B65 SWAP1 PUSH2 0x599E JUMP JUMPDEST PUSH1 0x40 MLOAD DUP1 SWAP2 SUB SWAP1 REVERT JUMPDEST PUSH1 0x0 PUSH2 0x2B79 DUP5 PUSH2 0x46E8 JUMP JUMPDEST SWAP1 POP PUSH1 0x0 PUSH1 0x7 DUP3 DUP2 SLOAD DUP2 LT PUSH2 0x2B8A JUMPI INVALID JUMPDEST SWAP1 PUSH1 0x0 MSTORE PUSH1 0x20 PUSH1 0x0 KECCAK256 SWAP1 PUSH1 0x3 MUL ADD PUSH1 0x2 ADD PUSH1 0x14 PUSH2 0x100 EXP DUP2 SLOAD DUP2 PUSH1 0xFF MUL NOT AND SWAP1 DUP4 ISZERO ISZERO MUL OR SWAP1 SSTORE POP PUSH32 0x1909DC80D38CEC2305BB06A97FDE80DAF0763D013F86FBCEE9E1954812FB6170 PUSH1 0x7 DUP3 DUP2 SLOAD DUP2 LT PUSH2 0x2BE0 JUMPI INVALID JUMPDEST SWAP1 PUSH1 0x0 MSTORE PUSH1 0x20 PUSH1 0x0 KECCAK256 SWAP1 PUSH1 0x3 MUL ADD PUSH1 0x2 ADD PUSH1 0x14 SWAP1 SLOAD SWAP1 PUSH2 0x100 EXP SWAP1 DIV PUSH1 0xFF AND PUSH1 0x40 MLOAD PUSH2 0x2C0C SWAP2 SWAP1 PUSH2 0x5838 JUMP JUMPDEST PUSH1 0x40 MLOAD DUP1 SWAP2 SUB SWAP1 LOG1 POP POP POP POP JUMP JUMPDEST PUSH1 0x4 PUSH1 0x20 MSTORE DUP1 PUSH1 0x0 MSTORE PUSH1 0x40 PUSH1 0x0 KECCAK256 PUSH1 0x0 SWAP2 POP SWAP1 POP DUP1 PUSH1 0x0 ADD PUSH1 0x0 SWAP1 SLOAD SWAP1 PUSH2 0x100 EXP SWAP1 DIV PUSH20 0xFFFFFFFFFFFFFFFFFFFFFFFFFFFFFFFFFFFFFFFF AND SWAP1 DUP1 PUSH1 0x1 ADD DUP1 SLOAD PUSH1 0x1 DUP2 PUSH1 0x1 AND ISZERO PUSH2 0x100 MUL SUB AND PUSH1 0x2 SWAP1 DIV DUP1 PUSH1 0x1F ADD PUSH1 0x20 DUP1 SWAP2 DIV MUL PUSH1 0x20 ADD PUSH1 0x40 MLOAD SWAP1 DUP2 ADD PUSH1 0x40 MSTORE DUP1 SWAP3 SWAP2 SWAP1 DUP2 DUP2 MSTORE PUSH1 0x20 ADD DUP3 DUP1 SLOAD PUSH1 0x1 DUP2 PUSH1 0x1 AND ISZERO PUSH2 0x100 MUL SUB AND PUSH1 0x2 SWAP1 DIV DUP1 ISZERO PUSH2 0x2CEC JUMPI DUP1 PUSH1 0x1F LT PUSH2 0x2CC1 JUMPI PUSH2 0x100 DUP1 DUP4 SLOAD DIV MUL DUP4 MSTORE SWAP2 PUSH1 0x20 ADD SWAP2 PUSH2 0x2CEC JUMP JUMPDEST DUP3 ADD SWAP2 SWAP1 PUSH1 0x0 MSTORE PUSH1 0x20 PUSH1 0x0 KECCAK256 SWAP1 JUMPDEST DUP2 SLOAD DUP2 MSTORE SWAP1 PUSH1 0x1 ADD SWAP1 PUSH1 0x20 ADD DUP1 DUP4 GT PUSH2 0x2CCF JUMPI DUP3 SWAP1 SUB PUSH1 0x1F AND DUP3 ADD SWAP2 JUMPDEST POP POP POP POP POP SWAP1 DUP1 PUSH1 0x2 ADD DUP1 SLOAD PUSH1 0x1 DUP2 PUSH1 0x1 AND ISZERO PUSH2 0x100 MUL SUB AND PUSH1 0x2 SWAP1 DIV DUP1 PUSH1 0x1F ADD PUSH1 0x20 DUP1 SWAP2 DIV MUL PUSH1 0x20 ADD PUSH1 0x40 MLOAD SWAP1 DUP2 ADD PUSH1 0x40 MSTORE DUP1 SWAP3 SWAP2 SWAP1 DUP2 DUP2 MSTORE PUSH1 0x20 ADD DUP3 DUP1 SLOAD PUSH1 0x1 DUP2 PUSH1 0x1 AND ISZERO PUSH2 0x100 MUL SUB AND PUSH1 0x2 SWAP1 DIV DUP1 ISZERO PUSH2 0x2D8A JUMPI DUP1 PUSH1 0x1F LT PUSH2 0x2D5F JUMPI PUSH2 0x100 DUP1 DUP4 SLOAD DIV MUL DUP4 MSTORE SWAP2 PUSH1 0x20 ADD SWAP2 PUSH2 0x2D8A JUMP JUMPDEST DUP3 ADD SWAP2 SWAP1 PUSH1 0x0 MSTORE PUSH1 0x20 PUSH1 0x0 KECCAK256 SWAP1 JUMPDEST DUP2 SLOAD DUP2 MSTORE SWAP1 PUSH1 0x1 ADD SWAP1 PUSH1 0x20 ADD DUP1 DUP4 GT PUSH2 0x2D6D JUMPI DUP3 SWAP1 SUB PUSH1 0x1F AND DUP3 ADD SWAP2 JUMPDEST POP POP POP POP POP SWAP1 DUP1 PUSH1 0x3 ADD DUP1 SLOAD PUSH1 0x1 DUP2 PUSH1 0x1 AND ISZERO PUSH2 0x100 MUL SUB AND PUSH1 0x2 SWAP1 DIV DUP1 PUSH1 0x1F ADD PUSH1 0x20 DUP1 SWAP2 DIV MUL PUSH1 0x20 ADD PUSH1 0x40 MLOAD SWAP1 DUP2 ADD PUSH1 0x40 MSTORE DUP1 SWAP3 SWAP2 SWAP1 DUP2 DUP2 MSTORE PUSH1 0x20 ADD DUP3 DUP1 SLOAD PUSH1 0x1 DUP2 PUSH1 0x1 AND ISZERO PUSH2 0x100 MUL SUB AND PUSH1 0x2 SWAP1 DIV DUP1 ISZERO PUSH2 0x2E28 JUMPI DUP1 PUSH1 0x1F LT PUSH2 0x2DFD JUMPI PUSH2 0x100 DUP1 DUP4 SLOAD DIV MUL DUP4 MSTORE SWAP2 PUSH1 0x20 ADD SWAP2 PUSH2 0x2E28 JUMP JUMPDEST DUP3 ADD SWAP2 SWAP1 PUSH1 0x0 MSTORE PUSH1 0x20 PUSH1 0x0 KECCAK256 SWAP1 JUMPDEST DUP2 SLOAD DUP2 MSTORE SWAP1 PUSH1 0x1 ADD SWAP1 PUSH1 0x20 ADD DUP1 DUP4 GT PUSH2 0x2E0B JUMPI DUP3 SWAP1 SUB PUSH1 0x1F AND DUP3 ADD SWAP2 JUMPDEST POP POP POP POP POP SWAP1 DUP1 PUSH1 0x4 ADD PUSH1 0x0 SWAP1 SLOAD SWAP1 PUSH2 0x100 EXP SWAP1 DIV PUSH1 0xFF AND SWAP1 POP DUP6 JUMP JUMPDEST PUSH1 0x3 PUSH1 0x0 SWAP1 SLOAD SWAP1 PUSH2 0x100 EXP SWAP1 DIV PUSH20 0xFFFFFFFFFFFFFFFFFFFFFFFFFFFFFFFFFFFFFFFF AND PUSH1 0x2 PUSH1 0x0 SWAP1 SLOAD SWAP1 PUSH2 0x100 EXP SWAP1 DIV PUSH20 0xFFFFFFFFFFFFFFFFFFFFFFFFFFFFFFFFFFFFFFFF AND DUP2 PUSH20 0xFFFFFFFFFFFFFFFFFFFFFFFFFFFFFFFFFFFFFFFF AND PUSH1 0x3 PUSH1 0x0 SWAP1 SLOAD SWAP1 PUSH2 0x100 EXP SWAP1 DIV PUSH20 0xFFFFFFFFFFFFFFFFFFFFFFFFFFFFFFFFFFFFFFFF AND PUSH20 0xFFFFFFFFFFFFFFFFFFFFFFFFFFFFFFFFFFFFFFFF AND EQ DUP1 PUSH2 0x2F34 JUMPI POP DUP1 PUSH20 0xFFFFFFFFFFFFFFFFFFFFFFFFFFFFFFFFFFFFFFFF AND PUSH1 0x2 PUSH1 0x0 SWAP1 SLOAD SWAP1 PUSH2 0x100 EXP SWAP1 DIV PUSH20 0xFFFFFFFFFFFFFFFFFFFFFFFFFFFFFFFFFFFFFFFF AND PUSH20 0xFFFFFFFFFFFFFFFFFFFFFFFFFFFFFFFFFFFFFFFF AND EQ JUMPDEST PUSH2 0x2F73 JUMPI PUSH1 0x40 MLOAD PUSH32 0x8C379A000000000000000000000000000000000000000000000000000000000 DUP2 MSTORE PUSH1 0x4 ADD PUSH2 0x2F6A SWAP1 PUSH2 0x599E JUMP JUMPDEST PUSH1 0x40 MLOAD DUP1 SWAP2 SUB SWAP1 REVERT JUMPDEST PUSH1 0x0 PUSH2 0x2F7E DUP9 PUSH2 0x47C6 JUMP JUMPDEST SWAP1 POP DUP7 PUSH1 0x5 DUP3 DUP2 SLOAD DUP2 LT PUSH2 0x2F8E JUMPI INVALID JUMPDEST SWAP1 PUSH1 0x0 MSTORE PUSH1 0x20 PUSH1 0x0 KECCAK256 SWAP1 PUSH1 0x5 MUL ADD PUSH1 0x1 ADD SWAP1 DUP1 MLOAD SWAP1 PUSH1 0x20 ADD SWAP1 PUSH2 0x2FB2 SWAP3 SWAP2 SWAP1 PUSH2 0x48A4 JUMP JUMPDEST POP DUP6 PUSH1 0x5 DUP3 DUP2 SLOAD DUP2 LT PUSH2 0x2FC1 JUMPI INVALID JUMPDEST SWAP1 PUSH1 0x0 MSTORE PUSH1 0x20 PUSH1 0x0 KECCAK256 SWAP1 PUSH1 0x5 MUL ADD PUSH1 0x2 ADD SWAP1 DUP1 MLOAD SWAP1 PUSH1 0x20 ADD SWAP1 PUSH2 0x2FE5 SWAP3 SWAP2 SWAP1 PUSH2 0x48A4 JUMP JUMPDEST POP DUP5 PUSH1 0x5 DUP3 DUP2 SLOAD DUP2 LT PUSH2 0x2FF4 JUMPI INVALID JUMPDEST SWAP1 PUSH1 0x0 MSTORE PUSH1 0x20 PUSH1 0x0 KECCAK256 SWAP1 PUSH1 0x5 MUL ADD PUSH1 0x3 ADD SWAP1 DUP1 MLOAD SWAP1 PUSH1 0x20 ADD SWAP1 PUSH2 0x3018 SWAP3 SWAP2 SWAP1 PUSH2 0x48A4 JUMP JUMPDEST POP DUP4 PUSH1 0x5 DUP3 DUP2 SLOAD DUP2 LT PUSH2 0x3027 JUMPI INVALID JUMPDEST SWAP1 PUSH1 0x0 MSTORE PUSH1 0x20 PUSH1 0x0 KECCAK256 SWAP1 PUSH1 0x5 MUL ADD PUSH1 0x4 ADD PUSH1 0x0 PUSH2 0x100 EXP DUP2 SLOAD DUP2 PUSH1 0xFF MUL NOT AND SWAP1 DUP4 ISZERO ISZERO MUL OR SWAP1 SSTORE POP PUSH32 0x3D82D4E7EC0CEFE7B5122162926D868862A9400D5385FB1F35E42902D793471F PUSH1 0x5 DUP3 DUP2 SLOAD DUP2 LT PUSH2 0x307D JUMPI INVALID JUMPDEST SWAP1 PUSH1 0x0 MSTORE PUSH1 0x20 PUSH1 0x0 KECCAK256 SWAP1 PUSH1 0x5 MUL ADD PUSH1 0x0 ADD PUSH1 0x0 SWAP1 SLOAD SWAP1 PUSH2 0x100 EXP SWAP1 DIV PUSH20 0xFFFFFFFFFFFFFFFFFFFFFFFFFFFFFFFFFFFFFFFF AND PUSH1 0x5 DUP4 DUP2 SLOAD DUP2 LT PUSH2 0x30BC JUMPI INVALID JUMPDEST SWAP1 PUSH1 0x0 MSTORE PUSH1 0x20 PUSH1 0x0 KECCAK256 SWAP1 PUSH1 0x5 MUL ADD PUSH1 0x1 ADD PUSH1 0x5 DUP5 DUP2 SLOAD DUP2 LT PUSH2 0x30DA JUMPI INVALID JUMPDEST SWAP1 PUSH1 0x0 MSTORE PUSH1 0x20 PUSH1 0x0 KECCAK256 SWAP1 PUSH1 0x5 MUL ADD PUSH1 0x2 ADD PUSH1 0x5 DUP6 DUP2 SLOAD DUP2 LT PUSH2 0x30F8 JUMPI INVALID JUMPDEST SWAP1 PUSH1 0x0 MSTORE PUSH1 0x20 PUSH1 0x0 KECCAK256 SWAP1 PUSH1 0x5 MUL ADD PUSH1 0x3 ADD PUSH1 0x5 DUP7 DUP2 SLOAD DUP2 LT PUSH2 0x3116 JUMPI INVALID JUMPDEST SWAP1 PUSH1 0x0 MSTORE PUSH1 0x20 PUSH1 0x0 KECCAK256 SWAP1 PUSH1 0x5 MUL ADD PUSH1 0x4 ADD PUSH1 0x0 SWAP1 SLOAD SWAP1 PUSH2 0x100 EXP SWAP1 DIV PUSH1 0xFF AND PUSH1 0x40 MLOAD PUSH2 0x3146 SWAP6 SWAP5 SWAP4 SWAP3 SWAP2 SWAP1 PUSH2 0x5748 JUMP JUMPDEST PUSH1 0x40 MLOAD DUP1 SWAP2 SUB SWAP1 LOG1 POP POP POP POP POP POP POP POP JUMP JUMPDEST PUSH1 0x3 PUSH1 0x0 SWAP1 SLOAD SWAP1 PUSH2 0x100 EXP SWAP1 DIV PUSH20 0xFFFFFFFFFFFFFFFFFFFFFFFFFFFFFFFFFFFFFFFF AND PUSH1 0x2 PUSH1 0x0 SWAP1 SLOAD SWAP1 PUSH2 0x100 EXP SWAP1 DIV PUSH20 0xFFFFFFFFFFFFFFFFFFFFFFFFFFFFFFFFFFFFFFFF AND DUP2 PUSH20 0xFFFFFFFFFFFFFFFFFFFFFFFFFFFFFFFFFFFFFFFF AND PUSH1 0x3 PUSH1 0x0 SWAP1 SLOAD SWAP1 PUSH2 0x100 EXP SWAP1 DIV PUSH20 0xFFFFFFFFFFFFFFFFFFFFFFFFFFFFFFFFFFFFFFFF AND PUSH20 0xFFFFFFFFFFFFFFFFFFFFFFFFFFFFFFFFFFFFFFFF AND EQ DUP1 PUSH2 0x3247 JUMPI POP DUP1 PUSH20 0xFFFFFFFFFFFFFFFFFFFFFFFFFFFFFFFFFFFFFFFF AND PUSH1 0x2 PUSH1 0x0 SWAP1 SLOAD SWAP1 PUSH2 0x100 EXP SWAP1 DIV PUSH20 0xFFFFFFFFFFFFFFFFFFFFFFFFFFFFFFFFFFFFFFFF AND PUSH20 0xFFFFFFFFFFFFFFFFFFFFFFFFFFFFFFFFFFFFFFFF AND EQ JUMPDEST PUSH2 0x3286 JUMPI PUSH1 0x40 MLOAD PUSH32 0x8C379A000000000000000000000000000000000000000000000000000000000 DUP2 MSTORE PUSH1 0x4 ADD PUSH2 0x327D SWAP1 PUSH2 0x599E JUMP JUMPDEST PUSH1 0x40 MLOAD DUP1 SWAP2 SUB SWAP1 REVERT JUMPDEST PUSH1 0x5 PUSH1 0x40 MLOAD DUP1 PUSH1 0xA0 ADD PUSH1 0x40 MSTORE DUP1 DUP9 PUSH20 0xFFFFFFFFFFFFFFFFFFFFFFFFFFFFFFFFFFFFFFFF AND DUP2 MSTORE PUSH1 0x20 ADD DUP8 DUP2 MSTORE PUSH1 0x20 ADD DUP7 DUP2 MSTORE PUSH1 0x20 ADD DUP6 DUP2 MSTORE PUSH1 0x20 ADD PUSH1 0x1 ISZERO ISZERO DUP2 MSTORE POP SWAP1 DUP1 PUSH1 0x1 DUP2 SLOAD ADD DUP1 DUP3 SSTORE DUP1 SWAP2 POP POP PUSH1 0x1 SWAP1 SUB SWAP1 PUSH1 0x0 MSTORE PUSH1 0x20 PUSH1 0x0 KECCAK256 SWAP1 PUSH1 0x5 MUL ADD PUSH1 0x0 SWAP1 SWAP2 SWAP1 SWAP2 SWAP1 SWAP2 POP PUSH1 0x0 DUP3 ADD MLOAD DUP2 PUSH1 0x0 ADD PUSH1 0x0 PUSH2 0x100 EXP DUP2 SLOAD DUP2 PUSH20 0xFFFFFFFFFFFFFFFFFFFFFFFFFFFFFFFFFFFFFFFF MUL NOT AND SWAP1 DUP4 PUSH20 0xFFFFFFFFFFFFFFFFFFFFFFFFFFFFFFFFFFFFFFFF AND MUL OR SWAP1 SSTORE POP PUSH1 0x20 DUP3 ADD MLOAD DUP2 PUSH1 0x1 ADD SWAP1 DUP1 MLOAD SWAP1 PUSH1 0x20 ADD SWAP1 PUSH2 0x3354 SWAP3 SWAP2 SWAP1 PUSH2 0x48A4 JUMP JUMPDEST POP PUSH1 0x40 DUP3 ADD MLOAD DUP2 PUSH1 0x2 ADD SWAP1 DUP1 MLOAD SWAP1 PUSH1 0x20 ADD SWAP1 PUSH2 0x3371 SWAP3 SWAP2 SWAP1 PUSH2 0x48A4 JUMP JUMPDEST POP PUSH1 0x60 DUP3 ADD MLOAD DUP2 PUSH1 0x3 ADD SWAP1 DUP1 MLOAD SWAP1 PUSH1 0x20 ADD SWAP1 PUSH2 0x338E SWAP3 SWAP2 SWAP1 PUSH2 0x48A4 JUMP JUMPDEST POP PUSH1 0x80 DUP3 ADD MLOAD DUP2 PUSH1 0x4 ADD PUSH1 0x0 PUSH2 0x100 EXP DUP2 SLOAD DUP2 PUSH1 0xFF MUL NOT AND SWAP1 DUP4 ISZERO ISZERO MUL OR SWAP1 SSTORE POP POP POP PUSH32 0x9917861C3A3ECBBFC9C1C79292231A8510F14A6B5B92883B799EDE7F4E3DB13E DUP7 DUP7 DUP7 DUP7 PUSH1 0x1 PUSH1 0x40 MLOAD PUSH2 0x33E9 SWAP6 SWAP5 SWAP4 SWAP3 SWAP2 SWAP1 PUSH2 0x5694 JUMP JUMPDEST PUSH1 0x40 MLOAD DUP1 SWAP2 SUB SWAP1 LOG1 POP POP POP POP POP POP JUMP JUMPDEST PUSH1 0x3 PUSH1 0x0 SWAP1 SLOAD SWAP1 PUSH2 0x100 EXP SWAP1 DIV PUSH20 0xFFFFFFFFFFFFFFFFFFFFFFFFFFFFFFFFFFFFFFFF AND DUP2 JUMP JUMPDEST PUSH1 0x60 DUP2 PUSH1 0x3 PUSH1 0x0 SWAP1 SLOAD SWAP1 PUSH2 0x100 EXP SWAP1 DIV PUSH20 0xFFFFFFFFFFFFFFFFFFFFFFFFFFFFFFFFFFFFFFFF AND PUSH1 0x2 PUSH1 0x0 SWAP1 SLOAD SWAP1 PUSH2 0x100 EXP SWAP1 DIV PUSH20 0xFFFFFFFFFFFFFFFFFFFFFFFFFFFFFFFFFFFFFFFF AND PUSH1 0x0 PUSH2 0x3473 DUP5 PUSH2 0x46E8 JUMP JUMPDEST LT DUP1 PUSH2 0x34CC JUMPI POP DUP2 PUSH20 0xFFFFFFFFFFFFFFFFFFFFFFFFFFFFFFFFFFFFFFFF AND PUSH1 0x3 PUSH1 0x0 SWAP1 SLOAD SWAP1 PUSH2 0x100 EXP SWAP1 DIV PUSH20 0xFFFFFFFFFFFFFFFFFFFFFFFFFFFFFFFFFFFFFFFF AND PUSH20 0xFFFFFFFFFFFFFFFFFFFFFFFFFFFFFFFFFFFFFFFF AND EQ JUMPDEST DUP1 PUSH2 0x3524 JUMPI POP DUP1 PUSH20 0xFFFFFFFFFFFFFFFFFFFFFFFFFFFFFFFFFFFFFFFF AND PUSH1 0x2 PUSH1 0x0 SWAP1 SLOAD SWAP1 PUSH2 0x100 EXP SWAP1 DIV PUSH20 0xFFFFFFFFFFFFFFFFFFFFFFFFFFFFFFFFFFFFFFFF AND PUSH20 0xFFFFFFFFFFFFFFFFFFFFFFFFFFFFFFFFFFFFFFFF AND EQ JUMPDEST PUSH2 0x3563 JUMPI PUSH1 0x40 MLOAD PUSH32 0x8C379A000000000000000000000000000000000000000000000000000000000 DUP2 MSTORE PUSH1 0x4 ADD PUSH2 0x355A SWAP1 PUSH2 0x599E JUMP JUMPDEST PUSH1 0x40 MLOAD DUP1 SWAP2 SUB SWAP1 REVERT JUMPDEST PUSH1 0x0 PUSH2 0x356E DUP8 PUSH2 0x4656 JUMP JUMPDEST SWAP1 POP PUSH1 0x9 DUP2 DUP2 SLOAD DUP2 LT PUSH2 0x357D JUMPI INVALID JUMPDEST SWAP1 PUSH1 0x0 MSTORE PUSH1 0x20 PUSH1 0x0 KECCAK256 SWAP1 PUSH1 0x5 MUL ADD PUSH1 0x4 ADD DUP1 SLOAD DUP1 PUSH1 0x20 MUL PUSH1 0x20 ADD PUSH1 0x40 MLOAD SWAP1 DUP2 ADD PUSH1 0x40 MSTORE DUP1 SWAP3 SWAP2 SWAP1 DUP2 DUP2 MSTORE PUSH1 0x20 ADD DUP3 DUP1 SLOAD DUP1 ISZERO PUSH2 0x35D8 JUMPI PUSH1 0x20 MUL DUP3 ADD SWAP2 SWAP1 PUSH1 0x0 MSTORE PUSH1 0x20 PUSH1 0x0 KECCAK256 SWAP1 JUMPDEST DUP2 SLOAD DUP2 MSTORE PUSH1 0x20 ADD SWAP1 PUSH1 0x1 ADD SWAP1 DUP1 DUP4 GT PUSH2 0x35C4 JUMPI JUMPDEST POP POP POP POP POP SWAP5 POP POP POP POP POP SWAP3 SWAP2 POP POP JUMP JUMPDEST PUSH1 0x60 PUSH1 0x3 PUSH1 0x0 SWAP1 SLOAD SWAP1 PUSH2 0x100 EXP SWAP1 DIV PUSH20 0xFFFFFFFFFFFFFFFFFFFFFFFFFFFFFFFFFFFFFFFF AND PUSH1 0x2 PUSH1 0x0 SWAP1 SLOAD SWAP1 PUSH2 0x100 EXP SWAP1 DIV PUSH20 0xFFFFFFFFFFFFFFFFFFFFFFFFFFFFFFFFFFFFFFFF AND DUP2 PUSH20 0xFFFFFFFFFFFFFFFFFFFFFFFFFFFFFFFFFFFFFFFF AND PUSH1 0x3 PUSH1 0x0 SWAP1 SLOAD SWAP1 PUSH2 0x100 EXP SWAP1 DIV PUSH20 0xFFFFFFFFFFFFFFFFFFFFFFFFFFFFFFFFFFFFFFFF AND PUSH20 0xFFFFFFFFFFFFFFFFFFFFFFFFFFFFFFFFFFFFFFFF AND EQ DUP1 PUSH2 0x36DA JUMPI POP DUP1 PUSH20 0xFFFFFFFFFFFFFFFFFFFFFFFFFFFFFFFFFFFFFFFF AND PUSH1 0x2 PUSH1 0x0 SWAP1 SLOAD SWAP1 PUSH2 0x100 EXP SWAP1 DIV PUSH20 0xFFFFFFFFFFFFFFFFFFFFFFFFFFFFFFFFFFFFFFFF AND PUSH20 0xFFFFFFFFFFFFFFFFFFFFFFFFFFFFFFFFFFFFFFFF AND EQ JUMPDEST PUSH2 0x3719 JUMPI PUSH1 0x40 MLOAD PUSH32 0x8C379A000000000000000000000000000000000000000000000000000000000 DUP2 MSTORE PUSH1 0x4 ADD PUSH2 0x3710 SWAP1 PUSH2 0x599E JUMP JUMPDEST PUSH1 0x40 MLOAD DUP1 SWAP2 SUB SWAP1 REVERT JUMPDEST PUSH1 0x0 PUSH1 0x7 DUP1 SLOAD SWAP1 POP PUSH8 0xFFFFFFFFFFFFFFFF DUP2 GT DUP1 ISZERO PUSH2 0x3737 JUMPI PUSH1 0x0 DUP1 REVERT JUMPDEST POP PUSH1 0x40 MLOAD SWAP1 DUP1 DUP3 MSTORE DUP1 PUSH1 0x20 MUL PUSH1 0x20 ADD DUP3 ADD PUSH1 0x40 MSTORE DUP1 ISZERO PUSH2 0x3771 JUMPI DUP2 PUSH1 0x20 ADD JUMPDEST PUSH2 0x375E PUSH2 0x49CD JUMP JUMPDEST DUP2 MSTORE PUSH1 0x20 ADD SWAP1 PUSH1 0x1 SWAP1 SUB SWAP1 DUP2 PUSH2 0x3756 JUMPI SWAP1 POP JUMPDEST POP SWAP1 POP PUSH1 0x0 JUMPDEST PUSH1 0x7 DUP1 SLOAD SWAP1 POP DUP2 LT ISZERO PUSH2 0x39AA JUMPI PUSH1 0x7 DUP2 DUP2 SLOAD DUP2 LT PUSH2 0x3791 JUMPI INVALID JUMPDEST SWAP1 PUSH1 0x0 MSTORE PUSH1 0x20 PUSH1 0x0 KECCAK256 SWAP1 PUSH1 0x3 MUL ADD PUSH1 0x2 ADD PUSH1 0x0 SWAP1 SLOAD SWAP1 PUSH2 0x100 EXP SWAP1 DIV PUSH20 0xFFFFFFFFFFFFFFFFFFFFFFFFFFFFFFFFFFFFFFFF AND PUSH20 0xFFFFFFFFFFFFFFFFFFFFFFFFFFFFFFFFFFFFFFFF AND DUP7 PUSH20 0xFFFFFFFFFFFFFFFFFFFFFFFFFFFFFFFFFFFFFFFF AND EQ ISZERO PUSH2 0x399D JUMPI PUSH1 0x7 DUP2 DUP2 SLOAD DUP2 LT PUSH2 0x3803 JUMPI INVALID JUMPDEST SWAP1 PUSH1 0x0 MSTORE PUSH1 0x20 PUSH1 0x0 KECCAK256 SWAP1 PUSH1 0x3 MUL ADD PUSH1 0x40 MLOAD DUP1 PUSH1 0x80 ADD PUSH1 0x40 MSTORE SWAP1 DUP2 PUSH1 0x0 DUP3 ADD PUSH1 0x0 SWAP1 SLOAD SWAP1 PUSH2 0x100 EXP SWAP1 DIV PUSH20 0xFFFFFFFFFFFFFFFFFFFFFFFFFFFFFFFFFFFFFFFF AND PUSH20 0xFFFFFFFFFFFFFFFFFFFFFFFFFFFFFFFFFFFFFFFF AND PUSH20 0xFFFFFFFFFFFFFFFFFFFFFFFFFFFFFFFFFFFFFFFF AND DUP2 MSTORE PUSH1 0x20 ADD PUSH1 0x1 DUP3 ADD DUP1 SLOAD PUSH1 0x1 DUP2 PUSH1 0x1 AND ISZERO PUSH2 0x100 MUL SUB AND PUSH1 0x2 SWAP1 DIV DUP1 PUSH1 0x1F ADD PUSH1 0x20 DUP1 SWAP2 DIV MUL PUSH1 0x20 ADD PUSH1 0x40 MLOAD SWAP1 DUP2 ADD PUSH1 0x40 MSTORE DUP1 SWAP3 SWAP2 SWAP1 DUP2 DUP2 MSTORE PUSH1 0x20 ADD DUP3 DUP1 SLOAD PUSH1 0x1 DUP2 PUSH1 0x1 AND ISZERO PUSH2 0x100 MUL SUB AND PUSH1 0x2 SWAP1 DIV DUP1 ISZERO PUSH2 0x390B JUMPI DUP1 PUSH1 0x1F LT PUSH2 0x38E0 JUMPI PUSH2 0x100 DUP1 DUP4 SLOAD DIV MUL DUP4 MSTORE SWAP2 PUSH1 0x20 ADD SWAP2 PUSH2 0x390B JUMP JUMPDEST DUP3 ADD SWAP2 SWAP1 PUSH1 0x0 MSTORE PUSH1 0x20 PUSH1 0x0 KECCAK256 SWAP1 JUMPDEST DUP2 SLOAD DUP2 MSTORE SWAP1 PUSH1 0x1 ADD SWAP1 PUSH1 0x20 ADD DUP1 DUP4 GT PUSH2 0x38EE JUMPI DUP3 SWAP1 SUB PUSH1 0x1F AND DUP3 ADD SWAP2 JUMPDEST POP POP POP POP POP DUP2 MSTORE PUSH1 0x20 ADD PUSH1 0x2 DUP3 ADD PUSH1 0x0 SWAP1 SLOAD SWAP1 PUSH2 0x100 EXP SWAP1 DIV PUSH20 0xFFFFFFFFFFFFFFFFFFFFFFFFFFFFFFFFFFFFFFFF AND PUSH20 0xFFFFFFFFFFFFFFFFFFFFFFFFFFFFFFFFFFFFFFFF AND PUSH20 0xFFFFFFFFFFFFFFFFFFFFFFFFFFFFFFFFFFFFFFFF AND DUP2 MSTORE PUSH1 0x20 ADD PUSH1 0x2 DUP3 ADD PUSH1 0x14 SWAP1 SLOAD SWAP1 PUSH2 0x100 EXP SWAP1 DIV PUSH1 0xFF AND ISZERO ISZERO ISZERO ISZERO DUP2 MSTORE POP POP DUP3 DUP3 DUP2 MLOAD DUP2 LT PUSH2 0x3991 JUMPI INVALID JUMPDEST PUSH1 0x20 MUL PUSH1 0x20 ADD ADD DUP2 SWAP1 MSTORE POP JUMPDEST DUP1 DUP1 PUSH1 0x1 ADD SWAP2 POP POP PUSH2 0x3777 JUMP JUMPDEST POP DUP1 SWAP4 POP POP POP POP SWAP2 SWAP1 POP JUMP JUMPDEST PUSH1 0x5 DUP2 DUP2 SLOAD DUP2 LT PUSH2 0x39C6 JUMPI PUSH1 0x0 DUP1 REVERT JUMPDEST SWAP1 PUSH1 0x0 MSTORE PUSH1 0x20 PUSH1 0x0 KECCAK256 SWAP1 PUSH1 0x5 MUL ADD PUSH1 0x0 SWAP2 POP SWAP1 POP DUP1 PUSH1 0x0 ADD PUSH1 0x0 SWAP1 SLOAD SWAP1 PUSH2 0x100 EXP SWAP1 DIV PUSH20 0xFFFFFFFFFFFFFFFFFFFFFFFFFFFFFFFFFFFFFFFF AND SWAP1 DUP1 PUSH1 0x1 ADD DUP1 SLOAD PUSH1 0x1 DUP2 PUSH1 0x1 AND ISZERO PUSH2 0x100 MUL SUB AND PUSH1 0x2 SWAP1 DIV DUP1 PUSH1 0x1F ADD PUSH1 0x20 DUP1 SWAP2 DIV MUL PUSH1 0x20 ADD PUSH1 0x40 MLOAD SWAP1 DUP2 ADD PUSH1 0x40 MSTORE DUP1 SWAP3 SWAP2 SWAP1 DUP2 DUP2 MSTORE PUSH1 0x20 ADD DUP3 DUP1 SLOAD PUSH1 0x1 DUP2 PUSH1 0x1 AND ISZERO PUSH2 0x100 MUL SUB AND PUSH1 0x2 SWAP1 DIV DUP1 ISZERO PUSH2 0x3A98 JUMPI DUP1 PUSH1 0x1F LT PUSH2 0x3A6D JUMPI PUSH2 0x100 DUP1 DUP4 SLOAD DIV MUL DUP4 MSTORE SWAP2 PUSH1 0x20 ADD SWAP2 PUSH2 0x3A98 JUMP JUMPDEST DUP3 ADD SWAP2 SWAP1 PUSH1 0x0 MSTORE PUSH1 0x20 PUSH1 0x0 KECCAK256 SWAP1 JUMPDEST DUP2 SLOAD DUP2 MSTORE SWAP1 PUSH1 0x1 ADD SWAP1 PUSH1 0x20 ADD DUP1 DUP4 GT PUSH2 0x3A7B JUMPI DUP3 SWAP1 SUB PUSH1 0x1F AND DUP3 ADD SWAP2 JUMPDEST POP POP POP POP POP SWAP1 DUP1 PUSH1 0x2 ADD DUP1 SLOAD PUSH1 0x1 DUP2 PUSH1 0x1 AND ISZERO PUSH2 0x100 MUL SUB AND PUSH1 0x2 SWAP1 DIV DUP1 PUSH1 0x1F ADD PUSH1 0x20 DUP1 SWAP2 DIV MUL PUSH1 0x20 ADD PUSH1 0x40 MLOAD SWAP1 DUP2 ADD PUSH1 0x40 MSTORE DUP1 SWAP3 SWAP2 SWAP1 DUP2 DUP2 MSTORE PUSH1 0x20 ADD DUP3 DUP1 SLOAD PUSH1 0x1 DUP2 PUSH1 0x1 AND ISZERO PUSH2 0x100 MUL SUB AND PUSH1 0x2 SWAP1 DIV DUP1 ISZERO PUSH2 0x3B36 JUMPI DUP1 PUSH1 0x1F LT PUSH2 0x3B0B JUMPI PUSH2 0x100 DUP1 DUP4 SLOAD DIV MUL DUP4 MSTORE SWAP2 PUSH1 0x20 ADD SWAP2 PUSH2 0x3B36 JUMP JUMPDEST DUP3 ADD SWAP2 SWAP1 PUSH1 0x0 MSTORE PUSH1 0x20 PUSH1 0x0 KECCAK256 SWAP1 JUMPDEST DUP2 SLOAD DUP2 MSTORE SWAP1 PUSH1 0x1 ADD SWAP1 PUSH1 0x20 ADD DUP1 DUP4 GT PUSH2 0x3B19 JUMPI DUP3 SWAP1 SUB PUSH1 0x1F AND DUP3 ADD SWAP2 JUMPDEST POP POP POP POP POP SWAP1 DUP1 PUSH1 0x3 ADD DUP1 SLOAD PUSH1 0x1 DUP2 PUSH1 0x1 AND ISZERO PUSH2 0x100 MUL SUB AND PUSH1 0x2 SWAP1 DIV DUP1 PUSH1 0x1F ADD PUSH1 0x20 DUP1 SWAP2 DIV MUL PUSH1 0x20 ADD PUSH1 0x40 MLOAD SWAP1 DUP2 ADD PUSH1 0x40 MSTORE DUP1 SWAP3 SWAP2 SWAP1 DUP2 DUP2 MSTORE PUSH1 0x20 ADD DUP3 DUP1 SLOAD PUSH1 0x1 DUP2 PUSH1 0x1 AND ISZERO PUSH2 0x100 MUL SUB AND PUSH1 0x2 SWAP1 DIV DUP1 ISZERO PUSH2 0x3BD4 JUMPI DUP1 PUSH1 0x1F LT PUSH2 0x3BA9 JUMPI PUSH2 0x100 DUP1 DUP4 SLOAD DIV MUL DUP4 MSTORE SWAP2 PUSH1 0x20 ADD SWAP2 PUSH2 0x3BD4 JUMP JUMPDEST DUP3 ADD SWAP2 SWAP1 PUSH1 0x0 MSTORE PUSH1 0x20 PUSH1 0x0 KECCAK256 SWAP1 JUMPDEST DUP2 SLOAD DUP2 MSTORE SWAP1 PUSH1 0x1 ADD SWAP1 PUSH1 0x20 ADD DUP1 DUP4 GT PUSH2 0x3BB7 JUMPI DUP3 SWAP1 SUB PUSH1 0x1F AND DUP3 ADD SWAP2 JUMPDEST POP POP POP POP POP SWAP1 DUP1 PUSH1 0x4 ADD PUSH1 0x0 SWAP1 SLOAD SWAP1 PUSH2 0x100 EXP SWAP1 DIV PUSH1 0xFF AND SWAP1 POP DUP6 JUMP JUMPDEST PUSH1 0x6 PUSH1 0x20 MSTORE DUP1 PUSH1 0x0 MSTORE PUSH1 0x40 PUSH1 0x0 KECCAK256 PUSH1 0x0 SWAP2 POP SWAP1 POP DUP1 PUSH1 0x0 ADD PUSH1 0x0 SWAP1 SLOAD SWAP1 PUSH2 0x100 EXP SWAP1 DIV PUSH20 0xFFFFFFFFFFFFFFFFFFFFFFFFFFFFFFFFFFFFFFFF AND SWAP1 DUP1 PUSH1 0x1 ADD DUP1 SLOAD PUSH1 0x1 DUP2 PUSH1 0x1 AND ISZERO PUSH2 0x100 MUL SUB AND PUSH1 0x2 SWAP1 DIV DUP1 PUSH1 0x1F ADD PUSH1 0x20 DUP1 SWAP2 DIV MUL PUSH1 0x20 ADD PUSH1 0x40 MLOAD SWAP1 DUP2 ADD PUSH1 0x40 MSTORE DUP1 SWAP3 SWAP2 SWAP1 DUP2 DUP2 MSTORE PUSH1 0x20 ADD DUP3 DUP1 SLOAD PUSH1 0x1 DUP2 PUSH1 0x1 AND ISZERO PUSH2 0x100 MUL SUB AND PUSH1 0x2 SWAP1 DIV DUP1 ISZERO PUSH2 0x3CC3 JUMPI DUP1 PUSH1 0x1F LT PUSH2 0x3C98 JUMPI PUSH2 0x100 DUP1 DUP4 SLOAD DIV MUL DUP4 MSTORE SWAP2 PUSH1 0x20 ADD SWAP2 PUSH2 0x3CC3 JUMP JUMPDEST DUP3 ADD SWAP2 SWAP1 PUSH1 0x0 MSTORE PUSH1 0x20 PUSH1 0x0 KECCAK256 SWAP1 JUMPDEST DUP2 SLOAD DUP2 MSTORE SWAP1 PUSH1 0x1 ADD SWAP1 PUSH1 0x20 ADD DUP1 DUP4 GT PUSH2 0x3CA6 JUMPI DUP3 SWAP1 SUB PUSH1 0x1F AND DUP3 ADD SWAP2 JUMPDEST POP POP POP POP POP SWAP1 DUP1 PUSH1 0x2 ADD PUSH1 0x0 SWAP1 SLOAD SWAP1 PUSH2 0x100 EXP SWAP1 DIV PUSH20 0xFFFFFFFFFFFFFFFFFFFFFFFFFFFFFFFFFFFFFFFF AND SWAP1 DUP1 PUSH1 0x2 ADD PUSH1 0x14 SWAP1 SLOAD SWAP1 PUSH2 0x100 EXP SWAP1 DIV PUSH1 0xFF AND SWAP1 POP DUP5 JUMP JUMPDEST DUP1 PUSH1 0x3 PUSH1 0x0 SWAP1 SLOAD SWAP1 PUSH2 0x100 EXP SWAP1 DIV PUSH20 0xFFFFFFFFFFFFFFFFFFFFFFFFFFFFFFFFFFFFFFFF AND PUSH1 0x2 PUSH1 0x0 SWAP1 SLOAD SWAP1 PUSH2 0x100 EXP SWAP1 DIV PUSH20 0xFFFFFFFFFFFFFFFFFFFFFFFFFFFFFFFFFFFFFFFF AND PUSH1 0x0 PUSH2 0x3D58 DUP5 PUSH2 0x46E8 JUMP JUMPDEST LT DUP1 PUSH2 0x3DB1 JUMPI POP DUP2 PUSH20 0xFFFFFFFFFFFFFFFFFFFFFFFFFFFFFFFFFFFFFFFF AND PUSH1 0x3 PUSH1 0x0 SWAP1 SLOAD SWAP1 PUSH2 0x100 EXP SWAP1 DIV PUSH20 0xFFFFFFFFFFFFFFFFFFFFFFFFFFFFFFFFFFFFFFFF AND PUSH20 0xFFFFFFFFFFFFFFFFFFFFFFFFFFFFFFFFFFFFFFFF AND EQ JUMPDEST DUP1 PUSH2 0x3E09 JUMPI POP DUP1 PUSH20 0xFFFFFFFFFFFFFFFFFFFFFFFFFFFFFFFFFFFFFFFF AND PUSH1 0x2 PUSH1 0x0 SWAP1 SLOAD SWAP1 PUSH2 0x100 EXP SWAP1 DIV PUSH20 0xFFFFFFFFFFFFFFFFFFFFFFFFFFFFFFFFFFFFFFFF AND PUSH20 0xFFFFFFFFFFFFFFFFFFFFFFFFFFFFFFFFFFFFFFFF AND EQ JUMPDEST PUSH2 0x3E48 JUMPI PUSH1 0x40 MLOAD PUSH32 0x8C379A000000000000000000000000000000000000000000000000000000000 DUP2 MSTORE PUSH1 0x4 ADD PUSH2 0x3E3F SWAP1 PUSH2 0x599E JUMP JUMPDEST PUSH1 0x40 MLOAD DUP1 SWAP2 SUB SWAP1 REVERT JUMPDEST PUSH1 0x0 PUSH2 0x3E53 DUP7 PUSH2 0x4656 JUMP JUMPDEST SWAP1 POP PUSH1 0x0 PUSH1 0x9 DUP3 DUP2 SLOAD DUP2 LT PUSH2 0x3E64 JUMPI INVALID JUMPDEST SWAP1 PUSH1 0x0 MSTORE PUSH1 0x20 PUSH1 0x0 KECCAK256 SWAP1 PUSH1 0x5 MUL ADD PUSH1 0x3 ADD PUSH1 0x14 PUSH2 0x100 EXP DUP2 SLOAD DUP2 PUSH1 0xFF MUL NOT AND SWAP1 DUP4 ISZERO ISZERO MUL OR SWAP1 SSTORE POP PUSH32 0xBACB2438FAD2C96302D0732482E49098457B065C15D428040D57C1A60C4DA5DB PUSH1 0x9 DUP3 DUP2 SLOAD DUP2 LT PUSH2 0x3EBA JUMPI INVALID JUMPDEST SWAP1 PUSH1 0x0 MSTORE PUSH1 0x20 PUSH1 0x0 KECCAK256 SWAP1 PUSH1 0x5 MUL ADD PUSH1 0x3 ADD PUSH1 0x14 SWAP1 SLOAD SWAP1 PUSH2 0x100 EXP SWAP1 DIV PUSH1 0xFF AND PUSH1 0x40 MLOAD PUSH2 0x3EE6 SWAP2 SWAP1 PUSH2 0x5838 JUMP JUMPDEST PUSH1 0x40 MLOAD DUP1 SWAP2 SUB SWAP1 LOG1 POP POP POP POP POP POP JUMP JUMPDEST PUSH1 0x3 PUSH1 0x0 SWAP1 SLOAD SWAP1 PUSH2 0x100 EXP SWAP1 DIV PUSH20 0xFFFFFFFFFFFFFFFFFFFFFFFFFFFFFFFFFFFFFFFF AND PUSH1 0x2 PUSH1 0x0 SWAP1 SLOAD SWAP1 PUSH2 0x100 EXP SWAP1 DIV PUSH20 0xFFFFFFFFFFFFFFFFFFFFFFFFFFFFFFFFFFFFFFFF AND DUP2 PUSH20 0xFFFFFFFFFFFFFFFFFFFFFFFFFFFFFFFFFFFFFFFF AND PUSH1 0x3 PUSH1 0x0 SWAP1 SLOAD SWAP1 PUSH2 0x100 EXP SWAP1 DIV PUSH20 0xFFFFFFFFFFFFFFFFFFFFFFFFFFFFFFFFFFFFFFFF AND PUSH20 0xFFFFFFFFFFFFFFFFFFFFFFFFFFFFFFFFFFFFFFFF AND EQ DUP1 PUSH2 0x3FE5 JUMPI POP DUP1 PUSH20 0xFFFFFFFFFFFFFFFFFFFFFFFFFFFFFFFFFFFFFFFF AND PUSH1 0x2 PUSH1 0x0 SWAP1 SLOAD SWAP1 PUSH2 0x100 EXP SWAP1 DIV PUSH20 0xFFFFFFFFFFFFFFFFFFFFFFFFFFFFFFFFFFFFFFFF AND PUSH20 0xFFFFFFFFFFFFFFFFFFFFFFFFFFFFFFFFFFFFFFFF AND EQ JUMPDEST PUSH2 0x4024 JUMPI PUSH1 0x40 MLOAD PUSH32 0x8C379A000000000000000000000000000000000000000000000000000000000 DUP2 MSTORE PUSH1 0x4 ADD PUSH2 0x401B SWAP1 PUSH2 0x599E JUMP JUMPDEST PUSH1 0x40 MLOAD DUP1 SWAP2 SUB SWAP1 REVERT JUMPDEST PUSH2 0x402D DUP4 PUSH2 0x47C6 JUMP JUMPDEST POP PUSH1 0x7 PUSH1 0x40 MLOAD DUP1 PUSH1 0x80 ADD PUSH1 0x40 MSTORE DUP1 DUP8 PUSH20 0xFFFFFFFFFFFFFFFFFFFFFFFFFFFFFFFFFFFFFFFF AND DUP2 MSTORE PUSH1 0x20 ADD DUP7 DUP2 MSTORE PUSH1 0x20 ADD DUP6 PUSH20 0xFFFFFFFFFFFFFFFFFFFFFFFFFFFFFFFFFFFFFFFF AND DUP2 MSTORE PUSH1 0x20 ADD PUSH1 0x1 ISZERO ISZERO DUP2 MSTORE POP SWAP1 DUP1 PUSH1 0x1 DUP2 SLOAD ADD DUP1 DUP3 SSTORE DUP1 SWAP2 POP POP PUSH1 0x1 SWAP1 SUB SWAP1 PUSH1 0x0 MSTORE PUSH1 0x20 PUSH1 0x0 KECCAK256 SWAP1 PUSH1 0x3 MUL ADD PUSH1 0x0 SWAP1 SWAP2 SWAP1 SWAP2 SWAP1 SWAP2 POP PUSH1 0x0 DUP3 ADD MLOAD DUP2 PUSH1 0x0 ADD PUSH1 0x0 PUSH2 0x100 EXP DUP2 SLOAD DUP2 PUSH20 0xFFFFFFFFFFFFFFFFFFFFFFFFFFFFFFFFFFFFFFFF MUL NOT AND SWAP1 DUP4 PUSH20 0xFFFFFFFFFFFFFFFFFFFFFFFFFFFFFFFFFFFFFFFF AND MUL OR SWAP1 SSTORE POP PUSH1 0x20 DUP3 ADD MLOAD DUP2 PUSH1 0x1 ADD SWAP1 DUP1 MLOAD SWAP1 PUSH1 0x20 ADD SWAP1 PUSH2 0x410C SWAP3 SWAP2 SWAP1 PUSH2 0x48A4 JUMP JUMPDEST POP PUSH1 0x40 DUP3 ADD MLOAD DUP2 PUSH1 0x2 ADD PUSH1 0x0 PUSH2 0x100 EXP DUP2 SLOAD DUP2 PUSH20 0xFFFFFFFFFFFFFFFFFFFFFFFFFFFFFFFFFFFFFFFF MUL NOT AND SWAP1 DUP4 PUSH20 0xFFFFFFFFFFFFFFFFFFFFFFFFFFFFFFFFFFFFFFFF AND MUL OR SWAP1 SSTORE POP PUSH1 0x60 DUP3 ADD MLOAD DUP2 PUSH1 0x2 ADD PUSH1 0x14 PUSH2 0x100 EXP DUP2 SLOAD DUP2 PUSH1 0xFF MUL NOT AND SWAP1 DUP4 ISZERO ISZERO MUL OR SWAP1 SSTORE POP POP POP PUSH32 0x4578695497AF1A3A1F556F9C89F9F107851CB8E1820E4B336143406B9BA52E3B DUP6 DUP6 DUP6 PUSH1 0x1 PUSH1 0x40 MLOAD PUSH2 0x41AC SWAP5 SWAP4 SWAP3 SWAP2 SWAP1 PUSH2 0x5648 JUMP JUMPDEST PUSH1 0x40 MLOAD DUP1 SWAP2 SUB SWAP1 LOG1 POP POP POP POP POP JUMP JUMPDEST PUSH1 0x9 DUP2 DUP2 SLOAD DUP2 LT PUSH2 0x41CB JUMPI PUSH1 0x0 DUP1 REVERT JUMPDEST SWAP1 PUSH1 0x0 MSTORE PUSH1 0x20 PUSH1 0x0 KECCAK256 SWAP1 PUSH1 0x5 MUL ADD PUSH1 0x0 SWAP2 POP SWAP1 POP DUP1 PUSH1 0x0 ADD SLOAD SWAP1 DUP1 PUSH1 0x1 ADD DUP1 SLOAD PUSH1 0x1 DUP2 PUSH1 0x1 AND ISZERO PUSH2 0x100 MUL SUB AND PUSH1 0x2 SWAP1 DIV DUP1 PUSH1 0x1F ADD PUSH1 0x20 DUP1 SWAP2 DIV MUL PUSH1 0x20 ADD PUSH1 0x40 MLOAD SWAP1 DUP2 ADD PUSH1 0x40 MSTORE DUP1 SWAP3 SWAP2 SWAP1 DUP2 DUP2 MSTORE PUSH1 0x20 ADD DUP3 DUP1 SLOAD PUSH1 0x1 DUP2 PUSH1 0x1 AND ISZERO PUSH2 0x100 MUL SUB AND PUSH1 0x2 SWAP1 DIV DUP1 ISZERO PUSH2 0x427D JUMPI DUP1 PUSH1 0x1F LT PUSH2 0x4252 JUMPI PUSH2 0x100 DUP1 DUP4 SLOAD DIV MUL DUP4 MSTORE SWAP2 PUSH1 0x20 ADD SWAP2 PUSH2 0x427D JUMP JUMPDEST DUP3 ADD SWAP2 SWAP1 PUSH1 0x0 MSTORE PUSH1 0x20 PUSH1 0x0 KECCAK256 SWAP1 JUMPDEST DUP2 SLOAD DUP2 MSTORE SWAP1 PUSH1 0x1 ADD SWAP1 PUSH1 0x20 ADD DUP1 DUP4 GT PUSH2 0x4260 JUMPI DUP3 SWAP1 SUB PUSH1 0x1F AND DUP3 ADD SWAP2 JUMPDEST POP POP POP POP POP SWAP1 DUP1 PUSH1 0x2 ADD DUP1 SLOAD PUSH1 0x1 DUP2 PUSH1 0x1 AND ISZERO PUSH2 0x100 MUL SUB AND PUSH1 0x2 SWAP1 DIV DUP1 PUSH1 0x1F ADD PUSH1 0x20 DUP1 SWAP2 DIV MUL PUSH1 0x20 ADD PUSH1 0x40 MLOAD SWAP1 DUP2 ADD PUSH1 0x40 MSTORE DUP1 SWAP3 SWAP2 SWAP1 DUP2 DUP2 MSTORE PUSH1 0x20 ADD DUP3 DUP1 SLOAD PUSH1 0x1 DUP2 PUSH1 0x1 AND ISZERO PUSH2 0x100 MUL SUB AND PUSH1 0x2 SWAP1 DIV DUP1 ISZERO PUSH2 0x431B JUMPI DUP1 PUSH1 0x1F LT PUSH2 0x42F0 JUMPI PUSH2 0x100 DUP1 DUP4 SLOAD DIV MUL DUP4 MSTORE SWAP2 PUSH1 0x20 ADD SWAP2 PUSH2 0x431B JUMP JUMPDEST DUP3 ADD SWAP2 SWAP1 PUSH1 0x0 MSTORE PUSH1 0x20 PUSH1 0x0 KECCAK256 SWAP1 JUMPDEST DUP2 SLOAD DUP2 MSTORE SWAP1 PUSH1 0x1 ADD SWAP1 PUSH1 0x20 ADD DUP1 DUP4 GT PUSH2 0x42FE JUMPI DUP3 SWAP1 SUB PUSH1 0x1F AND DUP3 ADD SWAP2 JUMPDEST POP POP POP POP POP SWAP1 DUP1 PUSH1 0x3 ADD PUSH1 0x0 SWAP1 SLOAD SWAP1 PUSH2 0x100 EXP SWAP1 DIV PUSH20 0xFFFFFFFFFFFFFFFFFFFFFFFFFFFFFFFFFFFFFFFF AND SWAP1 DUP1 PUSH1 0x3 ADD PUSH1 0x14 SWAP1 SLOAD SWAP1 PUSH2 0x100 EXP SWAP1 DIV PUSH1 0xFF AND SWAP1 POP DUP6 JUMP JUMPDEST PUSH1 0x60 PUSH1 0x3 PUSH1 0x0 SWAP1 SLOAD SWAP1 PUSH2 0x100 EXP SWAP1 DIV PUSH20 0xFFFFFFFFFFFFFFFFFFFFFFFFFFFFFFFFFFFFFFFF AND PUSH1 0x2 PUSH1 0x0 SWAP1 SLOAD SWAP1 PUSH2 0x100 EXP SWAP1 DIV PUSH20 0xFFFFFFFFFFFFFFFFFFFFFFFFFFFFFFFFFFFFFFFF AND DUP2 PUSH20 0xFFFFFFFFFFFFFFFFFFFFFFFFFFFFFFFFFFFFFFFF AND PUSH1 0x3 PUSH1 0x0 SWAP1 SLOAD SWAP1 PUSH2 0x100 EXP SWAP1 DIV PUSH20 0xFFFFFFFFFFFFFFFFFFFFFFFFFFFFFFFFFFFFFFFF AND PUSH20 0xFFFFFFFFFFFFFFFFFFFFFFFFFFFFFFFFFFFFFFFF AND EQ DUP1 PUSH2 0x444F JUMPI POP DUP1 PUSH20 0xFFFFFFFFFFFFFFFFFFFFFFFFFFFFFFFFFFFFFFFF AND PUSH1 0x2 PUSH1 0x0 SWAP1 SLOAD SWAP1 PUSH2 0x100 EXP SWAP1 DIV PUSH20 0xFFFFFFFFFFFFFFFFFFFFFFFFFFFFFFFFFFFFFFFF AND PUSH20 0xFFFFFFFFFFFFFFFFFFFFFFFFFFFFFFFFFFFFFFFF AND EQ JUMPDEST PUSH2 0x448E JUMPI PUSH1 0x40 MLOAD PUSH32 0x8C379A000000000000000000000000000000000000000000000000000000000 DUP2 MSTORE PUSH1 0x4 ADD PUSH2 0x4485 SWAP1 PUSH2 0x599E JUMP JUMPDEST PUSH1 0x40 MLOAD DUP1 SWAP2 SUB SWAP1 REVERT JUMPDEST PUSH1 0x7 DUP1 SLOAD DUP1 PUSH1 0x20 MUL PUSH1 0x20 ADD PUSH1 0x40 MLOAD SWAP1 DUP2 ADD PUSH1 0x40 MSTORE DUP1 SWAP3 SWAP2 SWAP1 DUP2 DUP2 MSTORE PUSH1 0x20 ADD PUSH1 0x0 SWAP1 JUMPDEST DUP3 DUP3 LT ISZERO PUSH2 0x464B JUMPI DUP4 DUP3 SWAP1 PUSH1 0x0 MSTORE PUSH1 0x20 PUSH1 0x0 KECCAK256 SWAP1 PUSH1 0x3 MUL ADD PUSH1 0x40 MLOAD DUP1 PUSH1 0x80 ADD PUSH1 0x40 MSTORE SWAP1 DUP2 PUSH1 0x0 DUP3 ADD PUSH1 0x0 SWAP1 SLOAD SWAP1 PUSH2 0x100 EXP SWAP1 DIV PUSH20 0xFFFFFFFFFFFFFFFFFFFFFFFFFFFFFFFFFFFFFFFF AND PUSH20 0xFFFFFFFFFFFFFFFFFFFFFFFFFFFFFFFFFFFFFFFF AND PUSH20 0xFFFFFFFFFFFFFFFFFFFFFFFFFFFFFFFFFFFFFFFF AND DUP2 MSTORE PUSH1 0x20 ADD PUSH1 0x1 DUP3 ADD DUP1 SLOAD PUSH1 0x1 DUP2 PUSH1 0x1 AND ISZERO PUSH2 0x100 MUL SUB AND PUSH1 0x2 SWAP1 DIV DUP1 PUSH1 0x1F ADD PUSH1 0x20 DUP1 SWAP2 DIV MUL PUSH1 0x20 ADD PUSH1 0x40 MLOAD SWAP1 DUP2 ADD PUSH1 0x40 MSTORE DUP1 SWAP3 SWAP2 SWAP1 DUP2 DUP2 MSTORE PUSH1 0x20 ADD DUP3 DUP1 SLOAD PUSH1 0x1 DUP2 PUSH1 0x1 AND ISZERO PUSH2 0x100 MUL SUB AND PUSH1 0x2 SWAP1 DIV DUP1 ISZERO PUSH2 0x45C2 JUMPI DUP1 PUSH1 0x1F LT PUSH2 0x4597 JUMPI PUSH2 0x100 DUP1 DUP4 SLOAD DIV MUL DUP4 MSTORE SWAP2 PUSH1 0x20 ADD SWAP2 PUSH2 0x45C2 JUMP JUMPDEST DUP3 ADD SWAP2 SWAP1 PUSH1 0x0 MSTORE PUSH1 0x20 PUSH1 0x0 KECCAK256 SWAP1 JUMPDEST DUP2 SLOAD DUP2 MSTORE SWAP1 PUSH1 0x1 ADD SWAP1 PUSH1 0x20 ADD DUP1 DUP4 GT PUSH2 0x45A5 JUMPI DUP3 SWAP1 SUB PUSH1 0x1F AND DUP3 ADD SWAP2 JUMPDEST POP POP POP POP POP DUP2 MSTORE PUSH1 0x20 ADD PUSH1 0x2 DUP3 ADD PUSH1 0x0 SWAP1 SLOAD SWAP1 PUSH2 0x100 EXP SWAP1 DIV PUSH20 0xFFFFFFFFFFFFFFFFFFFFFFFFFFFFFFFFFFFFFFFF AND PUSH20 0xFFFFFFFFFFFFFFFFFFFFFFFFFFFFFFFFFFFFFFFF AND PUSH20 0xFFFFFFFFFFFFFFFFFFFFFFFFFFFFFFFFFFFFFFFF AND DUP2 MSTORE PUSH1 0x20 ADD PUSH1 0x2 DUP3 ADD PUSH1 0x14 SWAP1 SLOAD SWAP1 PUSH2 0x100 EXP SWAP1 DIV PUSH1 0xFF AND ISZERO ISZERO ISZERO ISZERO DUP2 MSTORE POP POP DUP2 MSTORE PUSH1 0x20 ADD SWAP1 PUSH1 0x1 ADD SWAP1 PUSH2 0x44B0 JUMP JUMPDEST POP POP POP POP SWAP3 POP POP POP SWAP1 JUMP JUMPDEST PUSH1 0x0 DUP1 PUSH1 0x0 SWAP1 POP JUMPDEST PUSH1 0x9 DUP1 SLOAD SWAP1 POP DUP2 LT ISZERO PUSH2 0x46A7 JUMPI DUP3 PUSH1 0x9 DUP3 DUP2 SLOAD DUP2 LT PUSH2 0x4679 JUMPI INVALID JUMPDEST SWAP1 PUSH1 0x0 MSTORE PUSH1 0x20 PUSH1 0x0 KECCAK256 SWAP1 PUSH1 0x5 MUL ADD PUSH1 0x0 ADD SLOAD EQ ISZERO PUSH2 0x469A JUMPI DUP1 SWAP2 POP POP PUSH2 0x46E3 JUMP JUMPDEST DUP1 DUP1 PUSH1 0x1 ADD SWAP2 POP POP PUSH2 0x465E JUMP JUMPDEST POP PUSH1 0x40 MLOAD PUSH32 0x8C379A000000000000000000000000000000000000000000000000000000000 DUP2 MSTORE PUSH1 0x4 ADD PUSH2 0x46DA SWAP1 PUSH2 0x595E JUMP JUMPDEST PUSH1 0x40 MLOAD DUP1 SWAP2 SUB SWAP1 REVERT JUMPDEST SWAP2 SWAP1 POP JUMP JUMPDEST PUSH1 0x0 DUP1 PUSH1 0x0 SWAP1 POP JUMPDEST PUSH1 0x7 DUP1 SLOAD SWAP1 POP DUP2 LT ISZERO PUSH2 0x4785 JUMPI DUP3 PUSH20 0xFFFFFFFFFFFFFFFFFFFFFFFFFFFFFFFFFFFFFFFF AND PUSH1 0x7 DUP3 DUP2 SLOAD DUP2 LT PUSH2 0x4721 JUMPI INVALID JUMPDEST SWAP1 PUSH1 0x0 MSTORE PUSH1 0x20 PUSH1 0x0 KECCAK256 SWAP1 PUSH1 0x3 MUL ADD PUSH1 0x0 ADD PUSH1 0x0 SWAP1 SLOAD SWAP1 PUSH2 0x100 EXP SWAP1 DIV PUSH20 0xFFFFFFFFFFFFFFFFFFFFFFFFFFFFFFFFFFFFFFFF AND PUSH20 0xFFFFFFFFFFFFFFFFFFFFFFFFFFFFFFFFFFFFFFFF AND EQ ISZERO PUSH2 0x4778 JUMPI DUP1 SWAP2 POP POP PUSH2 0x47C1 JUMP JUMPDEST DUP1 DUP1 PUSH1 0x1 ADD SWAP2 POP POP PUSH2 0x46F0 JUMP JUMPDEST POP PUSH1 0x40 MLOAD PUSH32 0x8C379A000000000000000000000000000000000000000000000000000000000 DUP2 MSTORE PUSH1 0x4 ADD PUSH2 0x47B8 SWAP1 PUSH2 0x593E JUMP JUMPDEST PUSH1 0x40 MLOAD DUP1 SWAP2 SUB SWAP1 REVERT JUMPDEST SWAP2 SWAP1 POP JUMP JUMPDEST PUSH1 0x0 DUP1 PUSH1 0x0 SWAP1 POP JUMPDEST PUSH1 0x5 DUP1 SLOAD SWAP1 POP DUP2 LT ISZERO PUSH2 0x4863 JUMPI DUP3 PUSH20 0xFFFFFFFFFFFFFFFFFFFFFFFFFFFFFFFFFFFFFFFF AND PUSH1 0x5 DUP3 DUP2 SLOAD DUP2 LT PUSH2 0x47FF JUMPI INVALID JUMPDEST SWAP1 PUSH1 0x0 MSTORE PUSH1 0x20 PUSH1 0x0 KECCAK256 SWAP1 PUSH1 0x5 MUL ADD PUSH1 0x0 ADD PUSH1 0x0 SWAP1 SLOAD SWAP1 PUSH2 0x100 EXP SWAP1 DIV PUSH20 0xFFFFFFFFFFFFFFFFFFFFFFFFFFFFFFFFFFFFFFFF AND PUSH20 0xFFFFFFFFFFFFFFFFFFFFFFFFFFFFFFFFFFFFFFFF AND EQ ISZERO PUSH2 0x4856 JUMPI DUP1 SWAP2 POP POP PUSH2 0x489F JUMP JUMPDEST DUP1 DUP1 PUSH1 0x1 ADD SWAP2 POP POP PUSH2 0x47CE JUMP JUMPDEST POP PUSH1 0x40 MLOAD PUSH32 0x8C379A000000000000000000000000000000000000000000000000000000000 DUP2 MSTORE PUSH1 0x4 ADD PUSH2 0x4896 SWAP1 PUSH2 0x597E JUMP JUMPDEST PUSH1 0x40 MLOAD DUP1 SWAP2 SUB SWAP1 REVERT JUMPDEST SWAP2 SWAP1 POP JUMP JUMPDEST DUP3 DUP1 SLOAD PUSH1 0x1 DUP2 PUSH1 0x1 AND ISZERO PUSH2 0x100 MUL SUB AND PUSH1 0x2 SWAP1 DIV SWAP1 PUSH1 0x0 MSTORE PUSH1 0x20 PUSH1 0x0 KECCAK256 SWAP1 PUSH1 0x1F ADD PUSH1 0x20 SWAP1 DIV DUP2 ADD SWAP3 DUP3 PUSH2 0x48DA JUMPI PUSH1 0x0 DUP6 SSTORE PUSH2 0x4921 JUMP JUMPDEST DUP3 PUSH1 0x1F LT PUSH2 0x48F3 JUMPI DUP1 MLOAD PUSH1 0xFF NOT AND DUP4 DUP1 ADD OR DUP6 SSTORE PUSH2 0x4921 JUMP JUMPDEST DUP3 DUP1 ADD PUSH1 0x1 ADD DUP6 SSTORE DUP3 ISZERO PUSH2 0x4921 JUMPI SWAP2 DUP3 ADD JUMPDEST DUP3 DUP2 GT ISZERO PUSH2 0x4920 JUMPI DUP3 MLOAD DUP3 SSTORE SWAP2 PUSH1 0x20 ADD SWAP2 SWAP1 PUSH1 0x1 ADD SWAP1 PUSH2 0x4905 JUMP JUMPDEST JUMPDEST POP SWAP1 POP PUSH2 0x492E SWAP2 SWAP1 PUSH2 0x4A23 JUMP JUMPDEST POP SWAP1 JUMP JUMPDEST DUP3 DUP1 SLOAD DUP3 DUP3 SSTORE SWAP1 PUSH1 0x0 MSTORE PUSH1 0x20 PUSH1 0x0 KECCAK256 SWAP1 DUP2 ADD SWAP3 DUP3 ISZERO PUSH2 0x496E JUMPI SWAP2 PUSH1 0x20 MUL DUP3 ADD JUMPDEST DUP3 DUP2 GT ISZERO PUSH2 0x496D JUMPI DUP3 MLOAD DUP3 SSTORE SWAP2 PUSH1 0x20 ADD SWAP2 SWAP1 PUSH1 0x1 ADD SWAP1 PUSH2 0x4952 JUMP JUMPDEST JUMPDEST POP SWAP1 POP PUSH2 0x497B SWAP2 SWAP1 PUSH2 0x4A23 JUMP JUMPDEST POP SWAP1 JUMP JUMPDEST PUSH1 0x40 MLOAD DUP1 PUSH1 0xC0 ADD PUSH1 0x40 MSTORE DUP1 PUSH1 0x0 DUP2 MSTORE PUSH1 0x20 ADD PUSH1 0x60 DUP2 MSTORE PUSH1 0x20 ADD PUSH1 0x60 DUP2 MSTORE PUSH1 0x20 ADD PUSH1 0x0 PUSH20 0xFFFFFFFFFFFFFFFFFFFFFFFFFFFFFFFFFFFFFFFF AND DUP2 MSTORE PUSH1 0x20 ADD PUSH1 0x0 ISZERO ISZERO DUP2 MSTORE PUSH1 0x20 ADD PUSH1 0x60 DUP2 MSTORE POP SWAP1 JUMP JUMPDEST PUSH1 0x40 MLOAD DUP1 PUSH1 0x80 ADD PUSH1 0x40 MSTORE DUP1 PUSH1 0x0 PUSH20 0xFFFFFFFFFFFFFFFFFFFFFFFFFFFFFFFFFFFFFFFF AND DUP2 MSTORE PUSH1 0x20 ADD PUSH1 0x60 DUP2 MSTORE PUSH1 0x20 ADD PUSH1 0x0 PUSH20 0xFFFFFFFFFFFFFFFFFFFFFFFFFFFFFFFFFFFFFFFF AND DUP2 MSTORE PUSH1 0x20 ADD PUSH1 0x0 ISZERO ISZERO DUP2 MSTORE POP SWAP1 JUMP JUMPDEST JUMPDEST DUP1 DUP3 GT ISZERO PUSH2 0x4A3C JUMPI PUSH1 0x0 DUP2 PUSH1 0x0 SWAP1 SSTORE POP PUSH1 0x1 ADD PUSH2 0x4A24 JUMP JUMPDEST POP SWAP1 JUMP JUMPDEST PUSH1 0x0 PUSH2 0x4A53 PUSH2 0x4A4E DUP5 PUSH2 0x5B27 JUMP JUMPDEST PUSH2 0x5AF6 JUMP JUMPDEST SWAP1 POP DUP1 DUP4 DUP3 MSTORE PUSH1 0x20 DUP3 ADD SWAP1 POP DUP3 DUP6 PUSH1 0x20 DUP7 MUL DUP3 ADD GT ISZERO PUSH2 0x4A72 JUMPI PUSH1 0x0 DUP1 REVERT JUMPDEST PUSH1 0x0 JUMPDEST DUP6 DUP2 LT ISZERO PUSH2 0x4AA2 JUMPI DUP2 PUSH2 0x4A88 DUP9 DUP3 PUSH2 0x4B68 JUMP JUMPDEST DUP5 MSTORE PUSH1 0x20 DUP5 ADD SWAP4 POP PUSH1 0x20 DUP4 ADD SWAP3 POP POP PUSH1 0x1 DUP2 ADD SWAP1 POP PUSH2 0x4A75 JUMP JUMPDEST POP POP POP SWAP4 SWAP3 POP POP POP JUMP JUMPDEST PUSH1 0x0 PUSH2 0x4ABF PUSH2 0x4ABA DUP5 PUSH2 0x5B53 JUMP JUMPDEST PUSH2 0x5AF6 JUMP JUMPDEST SWAP1 POP DUP3 DUP2 MSTORE PUSH1 0x20 DUP2 ADD DUP5 DUP5 DUP5 ADD GT ISZERO PUSH2 0x4AD7 JUMPI PUSH1 0x0 DUP1 REVERT JUMPDEST PUSH2 0x4AE2 DUP5 DUP3 DUP6 PUSH2 0x5D02 JUMP JUMPDEST POP SWAP4 SWAP3 POP POP POP JUMP JUMPDEST PUSH1 0x0 DUP2 CALLDATALOAD SWAP1 POP PUSH2 0x4AF9 DUP2 PUSH2 0x5D57 JUMP JUMPDEST SWAP3 SWAP2 POP POP JUMP JUMPDEST PUSH1 0x0 DUP3 PUSH1 0x1F DUP4 ADD SLT PUSH2 0x4B10 JUMPI PUSH1 0x0 DUP1 REVERT JUMPDEST DUP2 CALLDATALOAD PUSH2 0x4B20 DUP5 DUP3 PUSH1 0x20 DUP7 ADD PUSH2 0x4A40 JUMP JUMPDEST SWAP2 POP POP SWAP3 SWAP2 POP POP JUMP JUMPDEST PUSH1 0x0 DUP2 CALLDATALOAD SWAP1 POP PUSH2 0x4B38 DUP2 PUSH2 0x5D6E JUMP JUMPDEST SWAP3 SWAP2 POP POP JUMP JUMPDEST PUSH1 0x0 DUP3 PUSH1 0x1F DUP4 ADD SLT PUSH2 0x4B4F JUMPI PUSH1 0x0 DUP1 REVERT JUMPDEST DUP2 CALLDATALOAD PUSH2 0x4B5F DUP5 DUP3 PUSH1 0x20 DUP7 ADD PUSH2 0x4AAC JUMP JUMPDEST SWAP2 POP POP SWAP3 SWAP2 POP POP JUMP JUMPDEST PUSH1 0x0 DUP2 CALLDATALOAD SWAP1 POP PUSH2 0x4B77 DUP2 PUSH2 0x5D85 JUMP JUMPDEST SWAP3 SWAP2 POP POP JUMP JUMPDEST PUSH1 0x0 PUSH1 0x20 DUP3 DUP5 SUB SLT ISZERO PUSH2 0x4B8F JUMPI PUSH1 0x0 DUP1 REVERT JUMPDEST PUSH1 0x0 PUSH2 0x4B9D DUP5 DUP3 DUP6 ADD PUSH2 0x4AEA JUMP JUMPDEST SWAP2 POP POP SWAP3 SWAP2 POP POP JUMP JUMPDEST PUSH1 0x0 DUP1 PUSH1 0x0 PUSH1 0x60 DUP5 DUP7 SUB SLT ISZERO PUSH2 0x4BBB JUMPI PUSH1 0x0 DUP1 REVERT JUMPDEST PUSH1 0x0 PUSH2 0x4BC9 DUP7 DUP3 DUP8 ADD PUSH2 0x4AEA JUMP JUMPDEST SWAP4 POP POP PUSH1 0x20 DUP5 ADD CALLDATALOAD PUSH8 0xFFFFFFFFFFFFFFFF DUP2 GT ISZERO PUSH2 0x4BE6 JUMPI PUSH1 0x0 DUP1 REVERT JUMPDEST PUSH2 0x4BF2 DUP7 DUP3 DUP8 ADD PUSH2 0x4B3E JUMP JUMPDEST SWAP3 POP POP PUSH1 0x40 PUSH2 0x4C03 DUP7 DUP3 DUP8 ADD PUSH2 0x4AEA JUMP JUMPDEST SWAP2 POP POP SWAP3 POP SWAP3 POP SWAP3 JUMP JUMPDEST PUSH1 0x0 DUP1 PUSH1 0x0 DUP1 PUSH1 0x80 DUP6 DUP8 SUB SLT ISZERO PUSH2 0x4C23 JUMPI PUSH1 0x0 DUP1 REVERT JUMPDEST PUSH1 0x0 PUSH2 0x4C31 DUP8 DUP3 DUP9 ADD PUSH2 0x4AEA JUMP JUMPDEST SWAP5 POP POP PUSH1 0x20 DUP6 ADD CALLDATALOAD PUSH8 0xFFFFFFFFFFFFFFFF DUP2 GT ISZERO PUSH2 0x4C4E JUMPI PUSH1 0x0 DUP1 REVERT JUMPDEST PUSH2 0x4C5A DUP8 DUP3 DUP9 ADD PUSH2 0x4B3E JUMP JUMPDEST SWAP4 POP POP PUSH1 0x40 PUSH2 0x4C6B DUP8 DUP3 DUP9 ADD PUSH2 0x4AEA JUMP JUMPDEST SWAP3 POP POP PUSH1 0x60 PUSH2 0x4C7C DUP8 DUP3 DUP9 ADD PUSH2 0x4B29 JUMP JUMPDEST SWAP2 POP POP SWAP3 SWAP6 SWAP2 SWAP5 POP SWAP3 POP JUMP JUMPDEST PUSH1 0x0 DUP1 PUSH1 0x0 DUP1 PUSH1 0x80 DUP6 DUP8 SUB SLT ISZERO PUSH2 0x4C9E JUMPI PUSH1 0x0 DUP1 REVERT JUMPDEST PUSH1 0x0 PUSH2 0x4CAC DUP8 DUP3 DUP9 ADD PUSH2 0x4AEA JUMP JUMPDEST SWAP5 POP POP PUSH1 0x20 DUP6 ADD CALLDATALOAD PUSH8 0xFFFFFFFFFFFFFFFF DUP2 GT ISZERO PUSH2 0x4CC9 JUMPI PUSH1 0x0 DUP1 REVERT JUMPDEST PUSH2 0x4CD5 DUP8 DUP3 DUP9 ADD PUSH2 0x4B3E JUMP JUMPDEST SWAP4 POP POP PUSH1 0x40 DUP6 ADD CALLDATALOAD PUSH8 0xFFFFFFFFFFFFFFFF DUP2 GT ISZERO PUSH2 0x4CF2 JUMPI PUSH1 0x0 DUP1 REVERT JUMPDEST PUSH2 0x4CFE DUP8 DUP3 DUP9 ADD PUSH2 0x4B3E JUMP JUMPDEST SWAP3 POP POP PUSH1 0x60 DUP6 ADD CALLDATALOAD PUSH8 0xFFFFFFFFFFFFFFFF DUP2 GT ISZERO PUSH2 0x4D1B JUMPI PUSH1 0x0 DUP1 REVERT JUMPDEST PUSH2 0x4D27 DUP8 DUP3 DUP9 ADD PUSH2 0x4B3E JUMP JUMPDEST SWAP2 POP POP SWAP3 SWAP6 SWAP2 SWAP5 POP SWAP3 POP JUMP JUMPDEST PUSH1 0x0 DUP1 PUSH1 0x0 DUP1 PUSH1 0x0 PUSH1 0xA0 DUP7 DUP9 SUB SLT ISZERO PUSH2 0x4D4B JUMPI PUSH1 0x0 DUP1 REVERT JUMPDEST PUSH1 0x0 PUSH2 0x4D59 DUP9 DUP3 DUP10 ADD PUSH2 0x4AEA JUMP JUMPDEST SWAP6 POP POP PUSH1 0x20 DUP7 ADD CALLDATALOAD PUSH8 0xFFFFFFFFFFFFFFFF DUP2 GT ISZERO PUSH2 0x4D76 JUMPI PUSH1 0x0 DUP1 REVERT JUMPDEST PUSH2 0x4D82 DUP9 DUP3 DUP10 ADD PUSH2 0x4B3E JUMP JUMPDEST SWAP5 POP POP PUSH1 0x40 DUP7 ADD CALLDATALOAD PUSH8 0xFFFFFFFFFFFFFFFF DUP2 GT ISZERO PUSH2 0x4D9F JUMPI PUSH1 0x0 DUP1 REVERT JUMPDEST PUSH2 0x4DAB DUP9 DUP3 DUP10 ADD PUSH2 0x4B3E JUMP JUMPDEST SWAP4 POP POP PUSH1 0x60 DUP7 ADD CALLDATALOAD PUSH8 0xFFFFFFFFFFFFFFFF DUP2 GT ISZERO PUSH2 0x4DC8 JUMPI PUSH1 0x0 DUP1 REVERT JUMPDEST PUSH2 0x4DD4 DUP9 DUP3 DUP10 ADD PUSH2 0x4B3E JUMP JUMPDEST SWAP3 POP POP PUSH1 0x80 PUSH2 0x4DE5 DUP9 DUP3 DUP10 ADD PUSH2 0x4B29 JUMP JUMPDEST SWAP2 POP POP SWAP3 SWAP6 POP SWAP3 SWAP6 SWAP1 SWAP4 POP JUMP JUMPDEST PUSH1 0x0 DUP1 PUSH1 0x0 DUP1 PUSH1 0x80 DUP6 DUP8 SUB SLT ISZERO PUSH2 0x4E08 JUMPI PUSH1 0x0 DUP1 REVERT JUMPDEST PUSH1 0x0 DUP6 ADD CALLDATALOAD PUSH8 0xFFFFFFFFFFFFFFFF DUP2 GT ISZERO PUSH2 0x4E22 JUMPI PUSH1 0x0 DUP1 REVERT JUMPDEST PUSH2 0x4E2E DUP8 DUP3 DUP9 ADD PUSH2 0x4B3E JUMP JUMPDEST SWAP5 POP POP PUSH1 0x20 DUP6 ADD CALLDATALOAD PUSH8 0xFFFFFFFFFFFFFFFF DUP2 GT ISZERO PUSH2 0x4E4B JUMPI PUSH1 0x0 DUP1 REVERT JUMPDEST PUSH2 0x4E57 DUP8 DUP3 DUP9 ADD PUSH2 0x4B3E JUMP JUMPDEST SWAP4 POP POP PUSH1 0x40 PUSH2 0x4E68 DUP8 DUP3 DUP9 ADD PUSH2 0x4AEA JUMP JUMPDEST SWAP3 POP POP PUSH1 0x60 PUSH2 0x4E79 DUP8 DUP3 DUP9 ADD PUSH2 0x4B29 JUMP JUMPDEST SWAP2 POP POP SWAP3 SWAP6 SWAP2 SWAP5 POP SWAP3 POP JUMP JUMPDEST PUSH1 0x0 PUSH1 0x20 DUP3 DUP5 SUB SLT ISZERO PUSH2 0x4E97 JUMPI PUSH1 0x0 DUP1 REVERT JUMPDEST PUSH1 0x0 PUSH2 0x4EA5 DUP5 DUP3 DUP6 ADD PUSH2 0x4B68 JUMP JUMPDEST SWAP2 POP POP SWAP3 SWAP2 POP POP JUMP JUMPDEST PUSH1 0x0 DUP1 PUSH1 0x40 DUP4 DUP6 SUB SLT ISZERO PUSH2 0x4EC1 JUMPI PUSH1 0x0 DUP1 REVERT JUMPDEST PUSH1 0x0 PUSH2 0x4ECF DUP6 DUP3 DUP7 ADD PUSH2 0x4B68 JUMP JUMPDEST SWAP3 POP POP PUSH1 0x20 PUSH2 0x4EE0 DUP6 DUP3 DUP7 ADD PUSH2 0x4AEA JUMP JUMPDEST SWAP2 POP POP SWAP3 POP SWAP3 SWAP1 POP JUMP JUMPDEST PUSH1 0x0 DUP1 PUSH1 0x40 DUP4 DUP6 SUB SLT ISZERO PUSH2 0x4EFD JUMPI PUSH1 0x0 DUP1 REVERT JUMPDEST PUSH1 0x0 PUSH2 0x4F0B DUP6 DUP3 DUP7 ADD PUSH2 0x4B68 JUMP JUMPDEST SWAP3 POP POP PUSH1 0x20 DUP4 ADD CALLDATALOAD PUSH8 0xFFFFFFFFFFFFFFFF DUP2 GT ISZERO PUSH2 0x4F28 JUMPI PUSH1 0x0 DUP1 REVERT JUMPDEST PUSH2 0x4F34 DUP6 DUP3 DUP7 ADD PUSH2 0x4AFF JUMP JUMPDEST SWAP2 POP POP SWAP3 POP SWAP3 SWAP1 POP JUMP JUMPDEST PUSH1 0x0 DUP1 PUSH1 0x0 DUP1 PUSH1 0x0 PUSH1 0xA0 DUP7 DUP9 SUB SLT ISZERO PUSH2 0x4F56 JUMPI PUSH1 0x0 DUP1 REVERT JUMPDEST PUSH1 0x0 PUSH2 0x4F64 DUP9 DUP3 DUP10 ADD PUSH2 0x4B68 JUMP JUMPDEST SWAP6 POP POP PUSH1 0x20 DUP7 ADD CALLDATALOAD PUSH8 0xFFFFFFFFFFFFFFFF DUP2 GT ISZERO PUSH2 0x4F81 JUMPI PUSH1 0x0 DUP1 REVERT JUMPDEST PUSH2 0x4F8D DUP9 DUP3 DUP10 ADD PUSH2 0x4B3E JUMP JUMPDEST SWAP5 POP POP PUSH1 0x40 DUP7 ADD CALLDATALOAD PUSH8 0xFFFFFFFFFFFFFFFF DUP2 GT ISZERO PUSH2 0x4FAA JUMPI PUSH1 0x0 DUP1 REVERT JUMPDEST PUSH2 0x4FB6 DUP9 DUP3 DUP10 ADD PUSH2 0x4B3E JUMP JUMPDEST SWAP4 POP POP PUSH1 0x60 PUSH2 0x4FC7 DUP9 DUP3 DUP10 ADD PUSH2 0x4AEA JUMP JUMPDEST SWAP3 POP POP PUSH1 0x80 PUSH2 0x4FD8 DUP9 DUP3 DUP10 ADD PUSH2 0x4B29 JUMP JUMPDEST SWAP2 POP POP SWAP3 SWAP6 POP SWAP3 SWAP6 SWAP1 SWAP4 POP JUMP JUMPDEST PUSH1 0x0 PUSH2 0x4FF1 DUP4 DUP4 PUSH2 0x5491 JUMP JUMPDEST SWAP1 POP SWAP3 SWAP2 POP POP JUMP JUMPDEST PUSH1 0x0 PUSH2 0x5005 DUP4 DUP4 PUSH2 0x54F4 JUMP JUMPDEST SWAP1 POP SWAP3 SWAP2 POP POP JUMP JUMPDEST PUSH1 0x0 PUSH2 0x5019 DUP4 DUP4 PUSH2 0x5578 JUMP JUMPDEST SWAP1 POP SWAP3 SWAP2 POP POP JUMP JUMPDEST PUSH1 0x0 PUSH2 0x502D DUP4 DUP4 PUSH2 0x560F JUMP JUMPDEST PUSH1 0x20 DUP4 ADD SWAP1 POP SWAP3 SWAP2 POP POP JUMP JUMPDEST PUSH2 0x5042 DUP2 PUSH2 0x5CBA JUMP JUMPDEST DUP3 MSTORE POP POP JUMP JUMPDEST PUSH2 0x5051 DUP2 PUSH2 0x5CBA JUMP JUMPDEST DUP3 MSTORE POP POP JUMP JUMPDEST PUSH1 0x0 PUSH2 0x5062 DUP3 PUSH2 0x5BD8 JUMP JUMPDEST PUSH2 0x506C DUP2 DUP6 PUSH2 0x5C43 JUMP JUMPDEST SWAP4 POP DUP4 PUSH1 0x20 DUP3 MUL DUP6 ADD PUSH2 0x507E DUP6 PUSH2 0x5B83 JUMP JUMPDEST DUP1 PUSH1 0x0 JUMPDEST DUP6 DUP2 LT ISZERO PUSH2 0x50BA JUMPI DUP5 DUP5 SUB DUP10 MSTORE DUP2 MLOAD PUSH2 0x509B DUP6 DUP3 PUSH2 0x4FE5 JUMP JUMPDEST SWAP5 POP PUSH2 0x50A6 DUP4 PUSH2 0x5C0F JUMP JUMPDEST SWAP3 POP PUSH1 0x20 DUP11 ADD SWAP10 POP POP PUSH1 0x1 DUP2 ADD SWAP1 POP PUSH2 0x5082 JUMP JUMPDEST POP DUP3 SWAP8 POP DUP8 SWAP6 POP POP POP POP POP POP SWAP3 SWAP2 POP POP JUMP JUMPDEST PUSH1 0x0 PUSH2 0x50D7 DUP3 PUSH2 0x5BE3 JUMP JUMPDEST PUSH2 0x50E1 DUP2 DUP6 PUSH2 0x5C54 JUMP JUMPDEST SWAP4 POP DUP4 PUSH1 0x20 DUP3 MUL DUP6 ADD PUSH2 0x50F3 DUP6 PUSH2 0x5B93 JUMP JUMPDEST DUP1 PUSH1 0x0 JUMPDEST DUP6 DUP2 LT ISZERO PUSH2 0x512F JUMPI DUP5 DUP5 SUB DUP10 MSTORE DUP2 MLOAD PUSH2 0x5110 DUP6 DUP3 PUSH2 0x4FF9 JUMP JUMPDEST SWAP5 POP PUSH2 0x511B DUP4 PUSH2 0x5C1C JUMP JUMPDEST SWAP3 POP PUSH1 0x20 DUP11 ADD SWAP10 POP POP PUSH1 0x1 DUP2 ADD SWAP1 POP PUSH2 0x50F7 JUMP JUMPDEST POP DUP3 SWAP8 POP DUP8 SWAP6 POP POP POP POP POP POP SWAP3 SWAP2 POP POP JUMP JUMPDEST PUSH1 0x0 PUSH2 0x514C DUP3 PUSH2 0x5BEE JUMP JUMPDEST PUSH2 0x5156 DUP2 DUP6 PUSH2 0x5C65 JUMP JUMPDEST SWAP4 POP DUP4 PUSH1 0x20 DUP3 MUL DUP6 ADD PUSH2 0x5168 DUP6 PUSH2 0x5BA3 JUMP JUMPDEST DUP1 PUSH1 0x0 JUMPDEST DUP6 DUP2 LT ISZERO PUSH2 0x51A4 JUMPI DUP5 DUP5 SUB DUP10 MSTORE DUP2 MLOAD PUSH2 0x5185 DUP6 DUP3 PUSH2 0x500D JUMP JUMPDEST SWAP5 POP PUSH2 0x5190 DUP4 PUSH2 0x5C29 JUMP JUMPDEST SWAP3 POP PUSH1 0x20 DUP11 ADD SWAP10 POP POP PUSH1 0x1 DUP2 ADD SWAP1 POP PUSH2 0x516C JUMP JUMPDEST POP DUP3 SWAP8 POP DUP8 SWAP6 POP POP POP POP POP POP SWAP3 SWAP2 POP POP JUMP JUMPDEST PUSH1 0x0 PUSH2 0x51C1 DUP3 PUSH2 0x5BF9 JUMP JUMPDEST PUSH2 0x51CB DUP2 DUP6 PUSH2 0x5C76 JUMP JUMPDEST SWAP4 POP PUSH2 0x51D6 DUP4 PUSH2 0x5BB3 JUMP JUMPDEST DUP1 PUSH1 0x0 JUMPDEST DUP4 DUP2 LT ISZERO PUSH2 0x5207 JUMPI DUP2 MLOAD PUSH2 0x51EE DUP9 DUP3 PUSH2 0x5021 JUMP JUMPDEST SWAP8 POP PUSH2 0x51F9 DUP4 PUSH2 0x5C36 JUMP JUMPDEST SWAP3 POP POP PUSH1 0x1 DUP2 ADD SWAP1 POP PUSH2 0x51DA JUMP JUMPDEST POP DUP6 SWAP4 POP POP POP POP SWAP3 SWAP2 POP POP JUMP JUMPDEST PUSH1 0x0 PUSH2 0x521F DUP3 PUSH2 0x5BF9 JUMP JUMPDEST PUSH2 0x5229 DUP2 DUP6 PUSH2 0x5C87 JUMP JUMPDEST SWAP4 POP PUSH2 0x5234 DUP4 PUSH2 0x5BB3 JUMP JUMPDEST DUP1 PUSH1 0x0 JUMPDEST DUP4 DUP2 LT ISZERO PUSH2 0x5265 JUMPI DUP2 MLOAD PUSH2 0x524C DUP9 DUP3 PUSH2 0x5021 JUMP JUMPDEST SWAP8 POP PUSH2 0x5257 DUP4 PUSH2 0x5C36 JUMP JUMPDEST SWAP3 POP POP PUSH1 0x1 DUP2 ADD SWAP1 POP PUSH2 0x5238 JUMP JUMPDEST POP DUP6 SWAP4 POP POP POP POP SWAP3 SWAP2 POP POP JUMP JUMPDEST PUSH2 0x527B DUP2 PUSH2 0x5CCC JUMP JUMPDEST DUP3 MSTORE POP POP JUMP JUMPDEST PUSH2 0x528A DUP2 PUSH2 0x5CCC JUMP JUMPDEST DUP3 MSTORE POP POP JUMP JUMPDEST PUSH1 0x0 PUSH2 0x529B DUP3 PUSH2 0x5C04 JUMP JUMPDEST PUSH2 0x52A5 DUP2 DUP6 PUSH2 0x5C98 JUMP JUMPDEST SWAP4 POP PUSH2 0x52B5 DUP2 DUP6 PUSH1 0x20 DUP7 ADD PUSH2 0x5D11 JUMP JUMPDEST PUSH2 0x52BE DUP2 PUSH2 0x5D46 JUMP JUMPDEST DUP5 ADD SWAP2 POP POP SWAP3 SWAP2 POP POP JUMP JUMPDEST PUSH1 0x0 PUSH2 0x52D4 DUP3 PUSH2 0x5C04 JUMP JUMPDEST PUSH2 0x52DE DUP2 DUP6 PUSH2 0x5CA9 JUMP JUMPDEST SWAP4 POP PUSH2 0x52EE DUP2 DUP6 PUSH1 0x20 DUP7 ADD PUSH2 0x5D11 JUMP JUMPDEST PUSH2 0x52F7 DUP2 PUSH2 0x5D46 JUMP JUMPDEST DUP5 ADD SWAP2 POP POP SWAP3 SWAP2 POP POP JUMP JUMPDEST PUSH1 0x0 DUP2 SLOAD PUSH1 0x1 DUP2 AND PUSH1 0x0 DUP2 EQ PUSH2 0x531F JUMPI PUSH1 0x1 DUP2 EQ PUSH2 0x5345 JUMPI PUSH2 0x5389 JUMP JUMPDEST PUSH1 0x7F PUSH1 0x2 DUP4 DIV AND PUSH2 0x5330 DUP2 DUP8 PUSH2 0x5CA9 JUMP JUMPDEST SWAP6 POP PUSH1 0xFF NOT DUP4 AND DUP7 MSTORE PUSH1 0x20 DUP7 ADD SWAP4 POP POP PUSH2 0x5389 JUMP JUMPDEST PUSH1 0x2 DUP3 DIV PUSH2 0x5353 DUP2 DUP8 PUSH2 0x5CA9 JUMP JUMPDEST SWAP6 POP PUSH2 0x535E DUP6 PUSH2 0x5BC3 JUMP JUMPDEST PUSH1 0x0 JUMPDEST DUP3 DUP2 LT ISZERO PUSH2 0x5380 JUMPI DUP2 SLOAD DUP2 DUP10 ADD MSTORE PUSH1 0x1 DUP3 ADD SWAP2 POP PUSH1 0x20 DUP2 ADD SWAP1 POP PUSH2 0x5361 JUMP JUMPDEST DUP1 DUP9 ADD SWAP6 POP POP POP POP JUMPDEST POP POP SWAP3 SWAP2 POP POP JUMP JUMPDEST PUSH1 0x0 PUSH2 0x539E PUSH1 0x10 DUP4 PUSH2 0x5CA9 JUMP JUMPDEST SWAP2 POP PUSH32 0x446F63746F72206E6F7420666F756E6400000000000000000000000000000000 PUSH1 0x0 DUP4 ADD MSTORE PUSH1 0x20 DUP3 ADD SWAP1 POP SWAP2 SWAP1 POP JUMP JUMPDEST PUSH1 0x0 PUSH2 0x53DE PUSH1 0x10 DUP4 PUSH2 0x5CA9 JUMP JUMPDEST SWAP2 POP PUSH32 0x53656E736F72206E6F7420666F756E6400000000000000000000000000000000 PUSH1 0x0 DUP4 ADD MSTORE PUSH1 0x20 DUP3 ADD SWAP1 POP SWAP2 SWAP1 POP JUMP JUMPDEST PUSH1 0x0 PUSH2 0x541E PUSH1 0x12 DUP4 PUSH2 0x5CA9 JUMP JUMPDEST SWAP2 POP PUSH32 0x486F73706974616C206E6F7420666F756E640000000000000000000000000000 PUSH1 0x0 DUP4 ADD MSTORE PUSH1 0x20 DUP3 ADD SWAP1 POP SWAP2 SWAP1 POP JUMP JUMPDEST PUSH1 0x0 PUSH2 0x545E PUSH1 0xD DUP4 PUSH2 0x5CA9 JUMP JUMPDEST SWAP2 POP PUSH32 0x4E6F2070726976696C6567657300000000000000000000000000000000000000 PUSH1 0x0 DUP4 ADD MSTORE PUSH1 0x20 DUP3 ADD SWAP1 POP SWAP2 SWAP1 POP JUMP JUMPDEST PUSH1 0x0 PUSH1 0x80 DUP4 ADD PUSH1 0x0 DUP4 ADD MLOAD PUSH2 0x54A9 PUSH1 0x0 DUP7 ADD DUP3 PUSH2 0x5039 JUMP JUMPDEST POP PUSH1 0x20 DUP4 ADD MLOAD DUP5 DUP3 SUB PUSH1 0x20 DUP7 ADD MSTORE PUSH2 0x54C1 DUP3 DUP3 PUSH2 0x5290 JUMP JUMPDEST SWAP2 POP POP PUSH1 0x40 DUP4 ADD MLOAD PUSH2 0x54D6 PUSH1 0x40 DUP7 ADD DUP3 PUSH2 0x5039 JUMP JUMPDEST POP PUSH1 0x60 DUP4 ADD MLOAD PUSH2 0x54E9 PUSH1 0x60 DUP7 ADD DUP3 PUSH2 0x5272 JUMP JUMPDEST POP DUP1 SWAP2 POP POP SWAP3 SWAP2 POP POP JUMP JUMPDEST PUSH1 0x0 PUSH1 0xA0 DUP4 ADD PUSH1 0x0 DUP4 ADD MLOAD PUSH2 0x550C PUSH1 0x0 DUP7 ADD DUP3 PUSH2 0x5039 JUMP JUMPDEST POP PUSH1 0x20 DUP4 ADD MLOAD DUP5 DUP3 SUB PUSH1 0x20 DUP7 ADD MSTORE PUSH2 0x5524 DUP3 DUP3 PUSH2 0x5290 JUMP JUMPDEST SWAP2 POP POP PUSH1 0x40 DUP4 ADD MLOAD DUP5 DUP3 SUB PUSH1 0x40 DUP7 ADD MSTORE PUSH2 0x553E DUP3 DUP3 PUSH2 0x5290 JUMP JUMPDEST SWAP2 POP POP PUSH1 0x60 DUP4 ADD MLOAD DUP5 DUP3 SUB PUSH1 0x60 DUP7 ADD MSTORE PUSH2 0x5558 DUP3 DUP3 PUSH2 0x5290 JUMP JUMPDEST SWAP2 POP POP PUSH1 0x80 DUP4 ADD MLOAD PUSH2 0x556D PUSH1 0x80 DUP7 ADD DUP3 PUSH2 0x5272 JUMP JUMPDEST POP DUP1 SWAP2 POP POP SWAP3 SWAP2 POP POP JUMP JUMPDEST PUSH1 0x0 PUSH1 0xC0 DUP4 ADD PUSH1 0x0 DUP4 ADD MLOAD PUSH2 0x5590 PUSH1 0x0 DUP7 ADD DUP3 PUSH2 0x560F JUMP JUMPDEST POP PUSH1 0x20 DUP4 ADD MLOAD DUP5 DUP3 SUB PUSH1 0x20 DUP7 ADD MSTORE PUSH2 0x55A8 DUP3 DUP3 PUSH2 0x5290 JUMP JUMPDEST SWAP2 POP POP PUSH1 0x40 DUP4 ADD MLOAD DUP5 DUP3 SUB PUSH1 0x40 DUP7 ADD MSTORE PUSH2 0x55C2 DUP3 DUP3 PUSH2 0x5290 JUMP JUMPDEST SWAP2 POP POP PUSH1 0x60 DUP4 ADD MLOAD PUSH2 0x55D7 PUSH1 0x60 DUP7 ADD DUP3 PUSH2 0x5039 JUMP JUMPDEST POP PUSH1 0x80 DUP4 ADD MLOAD PUSH2 0x55EA PUSH1 0x80 DUP7 ADD DUP3 PUSH2 0x5272 JUMP JUMPDEST POP PUSH1 0xA0 DUP4 ADD MLOAD DUP5 DUP3 SUB PUSH1 0xA0 DUP7 ADD MSTORE PUSH2 0x5602 DUP3 DUP3 PUSH2 0x51B6 JUMP JUMPDEST SWAP2 POP POP DUP1 SWAP2 POP POP SWAP3 SWAP2 POP POP JUMP JUMPDEST PUSH2 0x5618 DUP2 PUSH2 0x5CF8 JUMP JUMPDEST DUP3 MSTORE POP POP JUMP JUMPDEST PUSH2 0x5627 DUP2 PUSH2 0x5CF8 JUMP JUMPDEST DUP3 MSTORE POP POP JUMP JUMPDEST PUSH1 0x0 PUSH1 0x20 DUP3 ADD SWAP1 POP PUSH2 0x5642 PUSH1 0x0 DUP4 ADD DUP5 PUSH2 0x5048 JUMP JUMPDEST SWAP3 SWAP2 POP POP JUMP JUMPDEST PUSH1 0x0 PUSH1 0x80 DUP3 ADD SWAP1 POP PUSH2 0x565D PUSH1 0x0 DUP4 ADD DUP8 PUSH2 0x5048 JUMP JUMPDEST DUP2 DUP2 SUB PUSH1 0x20 DUP4 ADD MSTORE PUSH2 0x566F DUP2 DUP7 PUSH2 0x52C9 JUMP JUMPDEST SWAP1 POP PUSH2 0x567E PUSH1 0x40 DUP4 ADD DUP6 PUSH2 0x5048 JUMP JUMPDEST PUSH2 0x568B PUSH1 0x60 DUP4 ADD DUP5 PUSH2 0x5281 JUMP JUMPDEST SWAP6 SWAP5 POP POP POP POP POP JUMP JUMPDEST PUSH1 0x0 PUSH1 0xA0 DUP3 ADD SWAP1 POP PUSH2 0x56A9 PUSH1 0x0 DUP4 ADD DUP9 PUSH2 0x5048 JUMP JUMPDEST DUP2 DUP2 SUB PUSH1 0x20 DUP4 ADD MSTORE PUSH2 0x56BB DUP2 DUP8 PUSH2 0x52C9 JUMP JUMPDEST SWAP1 POP DUP2 DUP2 SUB PUSH1 0x40 DUP4 ADD MSTORE PUSH2 0x56CF DUP2 DUP7 PUSH2 0x52C9 JUMP JUMPDEST SWAP1 POP DUP2 DUP2 SUB PUSH1 0x60 DUP4 ADD MSTORE PUSH2 0x56E3 DUP2 DUP6 PUSH2 0x52C9 JUMP JUMPDEST SWAP1 POP PUSH2 0x56F2 PUSH1 0x80 DUP4 ADD DUP5 PUSH2 0x5281 JUMP JUMPDEST SWAP7 SWAP6 POP POP POP POP POP POP JUMP JUMPDEST PUSH1 0x0 PUSH1 0x80 DUP3 ADD SWAP1 POP PUSH2 0x5711 PUSH1 0x0 DUP4 ADD DUP8 PUSH2 0x5048 JUMP JUMPDEST DUP2 DUP2 SUB PUSH1 0x20 DUP4 ADD MSTORE PUSH2 0x5723 DUP2 DUP7 PUSH2 0x5302 JUMP JUMPDEST SWAP1 POP PUSH2 0x5732 PUSH1 0x40 DUP4 ADD DUP6 PUSH2 0x5048 JUMP JUMPDEST PUSH2 0x573F PUSH1 0x60 DUP4 ADD DUP5 PUSH2 0x5281 JUMP JUMPDEST SWAP6 SWAP5 POP POP POP POP POP JUMP JUMPDEST PUSH1 0x0 PUSH1 0xA0 DUP3 ADD SWAP1 POP PUSH2 0x575D PUSH1 0x0 DUP4 ADD DUP9 PUSH2 0x5048 JUMP JUMPDEST DUP2 DUP2 SUB PUSH1 0x20 DUP4 ADD MSTORE PUSH2 0x576F DUP2 DUP8 PUSH2 0x5302 JUMP JUMPDEST SWAP1 POP DUP2 DUP2 SUB PUSH1 0x40 DUP4 ADD MSTORE PUSH2 0x5783 DUP2 DUP7 PUSH2 0x5302 JUMP JUMPDEST SWAP1 POP DUP2 DUP2 SUB PUSH1 0x60 DUP4 ADD MSTORE PUSH2 0x5797 DUP2 DUP6 PUSH2 0x5302 JUMP JUMPDEST SWAP1 POP PUSH2 0x57A6 PUSH1 0x80 DUP4 ADD DUP5 PUSH2 0x5281 JUMP JUMPDEST SWAP7 SWAP6 POP POP POP POP POP POP JUMP JUMPDEST PUSH1 0x0 PUSH1 0x20 DUP3 ADD SWAP1 POP DUP2 DUP2 SUB PUSH1 0x0 DUP4 ADD MSTORE PUSH2 0x57CA DUP2 DUP5 PUSH2 0x5057 JUMP JUMPDEST SWAP1 POP SWAP3 SWAP2 POP POP JUMP JUMPDEST PUSH1 0x0 PUSH1 0x20 DUP3 ADD SWAP1 POP DUP2 DUP2 SUB PUSH1 0x0 DUP4 ADD MSTORE PUSH2 0x57EC DUP2 DUP5 PUSH2 0x50CC JUMP JUMPDEST SWAP1 POP SWAP3 SWAP2 POP POP JUMP JUMPDEST PUSH1 0x0 PUSH1 0x20 DUP3 ADD SWAP1 POP DUP2 DUP2 SUB PUSH1 0x0 DUP4 ADD MSTORE PUSH2 0x580E DUP2 DUP5 PUSH2 0x5141 JUMP JUMPDEST SWAP1 POP SWAP3 SWAP2 POP POP JUMP JUMPDEST PUSH1 0x0 PUSH1 0x20 DUP3 ADD SWAP1 POP DUP2 DUP2 SUB PUSH1 0x0 DUP4 ADD MSTORE PUSH2 0x5830 DUP2 DUP5 PUSH2 0x5214 JUMP JUMPDEST SWAP1 POP SWAP3 SWAP2 POP POP JUMP JUMPDEST PUSH1 0x0 PUSH1 0x20 DUP3 ADD SWAP1 POP PUSH2 0x584D PUSH1 0x0 DUP4 ADD DUP5 PUSH2 0x5281 JUMP JUMPDEST SWAP3 SWAP2 POP POP JUMP JUMPDEST PUSH1 0x0 PUSH1 0x60 DUP3 ADD SWAP1 POP DUP2 DUP2 SUB PUSH1 0x0 DUP4 ADD MSTORE PUSH2 0x586D DUP2 DUP7 PUSH2 0x52C9 JUMP JUMPDEST SWAP1 POP PUSH2 0x587C PUSH1 0x20 DUP4 ADD DUP6 PUSH2 0x5048 JUMP JUMPDEST PUSH2 0x5889 PUSH1 0x40 DUP4 ADD DUP5 PUSH2 0x5281 JUMP JUMPDEST SWAP5 SWAP4 POP POP POP POP JUMP JUMPDEST PUSH1 0x0 PUSH1 0x80 DUP3 ADD SWAP1 POP DUP2 DUP2 SUB PUSH1 0x0 DUP4 ADD MSTORE PUSH2 0x58AB DUP2 DUP8 PUSH2 0x52C9 JUMP JUMPDEST SWAP1 POP DUP2 DUP2 SUB PUSH1 0x20 DUP4 ADD MSTORE PUSH2 0x58BF DUP2 DUP7 PUSH2 0x52C9 JUMP JUMPDEST SWAP1 POP PUSH2 0x58CE PUSH1 0x40 DUP4 ADD DUP6 PUSH2 0x5048 JUMP JUMPDEST PUSH2 0x58DB PUSH1 0x60 DUP4 ADD DUP5 PUSH2 0x5281 JUMP JUMPDEST SWAP6 SWAP5 POP POP POP POP POP JUMP JUMPDEST PUSH1 0x0 PUSH1 0x80 DUP3 ADD SWAP1 POP DUP2 DUP2 SUB PUSH1 0x0 DUP4 ADD MSTORE PUSH2 0x58FE DUP2 DUP8 PUSH2 0x52C9 JUMP JUMPDEST SWAP1 POP DUP2 DUP2 SUB PUSH1 0x20 DUP4 ADD MSTORE PUSH2 0x5912 DUP2 DUP7 PUSH2 0x52C9 JUMP JUMPDEST SWAP1 POP DUP2 DUP2 SUB PUSH1 0x40 DUP4 ADD MSTORE PUSH2 0x5926 DUP2 DUP6 PUSH2 0x52C9 JUMP JUMPDEST SWAP1 POP PUSH2 0x5935 PUSH1 0x60 DUP4 ADD DUP5 PUSH2 0x5281 JUMP JUMPDEST SWAP6 SWAP5 POP POP POP POP POP JUMP JUMPDEST PUSH1 0x0 PUSH1 0x20 DUP3 ADD SWAP1 POP DUP2 DUP2 SUB PUSH1 0x0 DUP4 ADD MSTORE PUSH2 0x5957 DUP2 PUSH2 0x5391 JUMP JUMPDEST SWAP1 POP SWAP2 SWAP1 POP JUMP JUMPDEST PUSH1 0x0 PUSH1 0x20 DUP3 ADD SWAP1 POP DUP2 DUP2 SUB PUSH1 0x0 DUP4 ADD MSTORE PUSH2 0x5977 DUP2 PUSH2 0x53D1 JUMP JUMPDEST SWAP1 POP SWAP2 SWAP1 POP JUMP JUMPDEST PUSH1 0x0 PUSH1 0x20 DUP3 ADD SWAP1 POP DUP2 DUP2 SUB PUSH1 0x0 DUP4 ADD MSTORE PUSH2 0x5997 DUP2 PUSH2 0x5411 JUMP JUMPDEST SWAP1 POP SWAP2 SWAP1 POP JUMP JUMPDEST PUSH1 0x0 PUSH1 0x20 DUP3 ADD SWAP1 POP DUP2 DUP2 SUB PUSH1 0x0 DUP4 ADD MSTORE PUSH2 0x59B7 DUP2 PUSH2 0x5451 JUMP JUMPDEST SWAP1 POP SWAP2 SWAP1 POP JUMP JUMPDEST PUSH1 0x0 PUSH1 0xA0 DUP3 ADD SWAP1 POP PUSH2 0x59D3 PUSH1 0x0 DUP4 ADD DUP9 PUSH2 0x561E JUMP JUMPDEST DUP2 DUP2 SUB PUSH1 0x20 DUP4 ADD MSTORE PUSH2 0x59E5 DUP2 DUP8 PUSH2 0x52C9 JUMP JUMPDEST SWAP1 POP DUP2 DUP2 SUB PUSH1 0x40 DUP4 ADD MSTORE PUSH2 0x59F9 DUP2 DUP7 PUSH2 0x52C9 JUMP JUMPDEST SWAP1 POP PUSH2 0x5A08 PUSH1 0x60 DUP4 ADD DUP6 PUSH2 0x5048 JUMP JUMPDEST PUSH2 0x5A15 PUSH1 0x80 DUP4 ADD DUP5 PUSH2 0x5281 JUMP JUMPDEST SWAP7 SWAP6 POP POP POP POP POP POP JUMP JUMPDEST PUSH1 0x0 PUSH1 0xC0 DUP3 ADD SWAP1 POP PUSH2 0x5A34 PUSH1 0x0 DUP4 ADD DUP10 PUSH2 0x561E JUMP JUMPDEST DUP2 DUP2 SUB PUSH1 0x20 DUP4 ADD MSTORE PUSH2 0x5A46 DUP2 DUP9 PUSH2 0x52C9 JUMP JUMPDEST SWAP1 POP DUP2 DUP2 SUB PUSH1 0x40 DUP4 ADD MSTORE PUSH2 0x5A5A DUP2 DUP8 PUSH2 0x52C9 JUMP JUMPDEST SWAP1 POP PUSH2 0x5A69 PUSH1 0x60 DUP4 ADD DUP7 PUSH2 0x5048 JUMP JUMPDEST PUSH2 0x5A76 PUSH1 0x80 DUP4 ADD DUP6 PUSH2 0x5281 JUMP JUMPDEST DUP2 DUP2 SUB PUSH1 0xA0 DUP4 ADD MSTORE PUSH2 0x5A88 DUP2 DUP5 PUSH2 0x5214 JUMP JUMPDEST SWAP1 POP SWAP8 SWAP7 POP POP POP POP POP POP POP JUMP JUMPDEST PUSH1 0x0 PUSH1 0xA0 DUP3 ADD SWAP1 POP PUSH2 0x5AAA PUSH1 0x0 DUP4 ADD DUP9 PUSH2 0x561E JUMP JUMPDEST DUP2 DUP2 SUB PUSH1 0x20 DUP4 ADD MSTORE PUSH2 0x5ABC DUP2 DUP8 PUSH2 0x5302 JUMP JUMPDEST SWAP1 POP DUP2 DUP2 SUB PUSH1 0x40 DUP4 ADD MSTORE PUSH2 0x5AD0 DUP2 DUP7 PUSH2 0x5302 JUMP JUMPDEST SWAP1 POP PUSH2 0x5ADF PUSH1 0x60 DUP4 ADD DUP6 PUSH2 0x5048 JUMP JUMPDEST PUSH2 0x5AEC PUSH1 0x80 DUP4 ADD DUP5 PUSH2 0x5281 JUMP JUMPDEST SWAP7 SWAP6 POP POP POP POP POP POP JUMP JUMPDEST PUSH1 0x0 PUSH1 0x40 MLOAD SWAP1 POP DUP2 DUP2 ADD DUP2 DUP2 LT PUSH8 0xFFFFFFFFFFFFFFFF DUP3 GT OR ISZERO PUSH2 0x5B1D JUMPI PUSH2 0x5B1C PUSH2 0x5D44 JUMP JUMPDEST JUMPDEST DUP1 PUSH1 0x40 MSTORE POP SWAP2 SWAP1 POP JUMP JUMPDEST PUSH1 0x0 PUSH8 0xFFFFFFFFFFFFFFFF DUP3 GT ISZERO PUSH2 0x5B42 JUMPI PUSH2 0x5B41 PUSH2 0x5D44 JUMP JUMPDEST JUMPDEST PUSH1 0x20 DUP3 MUL SWAP1 POP PUSH1 0x20 DUP2 ADD SWAP1 POP SWAP2 SWAP1 POP JUMP JUMPDEST PUSH1 0x0 PUSH8 0xFFFFFFFFFFFFFFFF DUP3 GT ISZERO PUSH2 0x5B6E JUMPI PUSH2 0x5B6D PUSH2 0x5D44 JUMP JUMPDEST JUMPDEST PUSH1 0x1F NOT PUSH1 0x1F DUP4 ADD AND SWAP1 POP PUSH1 0x20 DUP2 ADD SWAP1 POP SWAP2 SWAP1 POP JUMP JUMPDEST PUSH1 0x0 DUP2 SWAP1 POP PUSH1 0x20 DUP3 ADD SWAP1 POP SWAP2 SWAP1 POP JUMP JUMPDEST PUSH1 0x0 DUP2 SWAP1 POP PUSH1 0x20 DUP3 ADD SWAP1 POP SWAP2 SWAP1 POP JUMP JUMPDEST PUSH1 0x0 DUP2 SWAP1 POP PUSH1 0x20 DUP3 ADD SWAP1 POP SWAP2 SWAP1 POP JUMP JUMPDEST PUSH1 0x0 DUP2 SWAP1 POP PUSH1 0x20 DUP3 ADD SWAP1 POP SWAP2 SWAP1 POP JUMP JUMPDEST PUSH1 0x0 DUP2 SWAP1 POP DUP2 PUSH1 0x0 MSTORE PUSH1 0x20 PUSH1 0x0 KECCAK256 SWAP1 POP SWAP2 SWAP1 POP JUMP JUMPDEST PUSH1 0x0 DUP2 MLOAD SWAP1 POP SWAP2 SWAP1 POP JUMP JUMPDEST PUSH1 0x0 DUP2 MLOAD SWAP1 POP SWAP2 SWAP1 POP JUMP JUMPDEST PUSH1 0x0 DUP2 MLOAD SWAP1 POP SWAP2 SWAP1 POP JUMP JUMPDEST PUSH1 0x0 DUP2 MLOAD SWAP1 POP SWAP2 SWAP1 POP JUMP JUMPDEST PUSH1 0x0 DUP2 MLOAD SWAP1 POP SWAP2 SWAP1 POP JUMP JUMPDEST PUSH1 0x0 PUSH1 0x20 DUP3 ADD SWAP1 POP SWAP2 SWAP1 POP JUMP JUMPDEST PUSH1 0x0 PUSH1 0x20 DUP3 ADD SWAP1 POP SWAP2 SWAP1 POP JUMP JUMPDEST PUSH1 0x0 PUSH1 0x20 DUP3 ADD SWAP1 POP SWAP2 SWAP1 POP JUMP JUMPDEST PUSH1 0x0 PUSH1 0x20 DUP3 ADD SWAP1 POP SWAP2 SWAP1 POP JUMP JUMPDEST PUSH1 0x0 DUP3 DUP3 MSTORE PUSH1 0x20 DUP3 ADD SWAP1 POP SWAP3 SWAP2 POP POP JUMP JUMPDEST PUSH1 0x0 DUP3 DUP3 MSTORE PUSH1 0x20 DUP3 ADD SWAP1 POP SWAP3 SWAP2 POP POP JUMP JUMPDEST PUSH1 0x0 DUP3 DUP3 MSTORE PUSH1 0x20 DUP3 ADD SWAP1 POP SWAP3 SWAP2 POP POP JUMP JUMPDEST PUSH1 0x0 DUP3 DUP3 MSTORE PUSH1 0x20 DUP3 ADD SWAP1 POP SWAP3 SWAP2 POP POP JUMP JUMPDEST PUSH1 0x0 DUP3 DUP3 MSTORE PUSH1 0x20 DUP3 ADD SWAP1 POP SWAP3 SWAP2 POP POP JUMP JUMPDEST PUSH1 0x0 DUP3 DUP3 MSTORE PUSH1 0x20 DUP3 ADD SWAP1 POP SWAP3 SWAP2 POP POP JUMP JUMPDEST PUSH1 0x0 DUP3 DUP3 MSTORE PUSH1 0x20 DUP3 ADD SWAP1 POP SWAP3 SWAP2 POP POP JUMP JUMPDEST PUSH1 0x0 PUSH2 0x5CC5 DUP3 PUSH2 0x5CD8 JUMP JUMPDEST SWAP1 POP SWAP2 SWAP1 POP JUMP JUMPDEST PUSH1 0x0 DUP2 ISZERO ISZERO SWAP1 POP SWAP2 SWAP1 POP JUMP JUMPDEST PUSH1 0x0 PUSH20 0xFFFFFFFFFFFFFFFFFFFFFFFFFFFFFFFFFFFFFFFF DUP3 AND SWAP1 POP SWAP2 SWAP1 POP JUMP JUMPDEST PUSH1 0x0 DUP2 SWAP1 POP SWAP2 SWAP1 POP JUMP JUMPDEST DUP3 DUP2 DUP4 CALLDATACOPY PUSH1 0x0 DUP4 DUP4 ADD MSTORE POP POP POP JUMP JUMPDEST PUSH1 0x0 JUMPDEST DUP4 DUP2 LT ISZERO PUSH2 0x5D2F JUMPI DUP1 DUP3 ADD MLOAD DUP2 DUP5 ADD MSTORE PUSH1 0x20 DUP2 ADD SWAP1 POP PUSH2 0x5D14 JUMP JUMPDEST DUP4 DUP2 GT ISZERO PUSH2 0x5D3E JUMPI PUSH1 0x0 DUP5 DUP5 ADD MSTORE JUMPDEST POP POP POP POP JUMP JUMPDEST INVALID JUMPDEST PUSH1 0x0 PUSH1 0x1F NOT PUSH1 0x1F DUP4 ADD AND SWAP1 POP SWAP2 SWAP1 POP JUMP JUMPDEST PUSH2 0x5D60 DUP2 PUSH2 0x5CBA JUMP JUMPDEST DUP2 EQ PUSH2 0x5D6B JUMPI PUSH1 0x0 DUP1 REVERT JUMPDEST POP JUMP JUMPDEST PUSH2 0x5D77 DUP2 PUSH2 0x5CCC JUMP JUMPDEST DUP2 EQ PUSH2 0x5D82 JUMPI PUSH1 0x0 DUP1 REVERT JUMPDEST POP JUMP JUMPDEST PUSH2 0x5D8E DUP2 PUSH2 0x5CF8 JUMP JUMPDEST DUP2 EQ PUSH2 0x5D99 JUMPI PUSH1 0x0 DUP1 REVERT JUMPDEST POP JUMP INVALID LOG2 PUSH5 0x6970667358 0x22 SLT KECCAK256 CREATE2 0x2B 0xA6 PUSH8 0x3BC72AE1D3793AD8 PUSH15 0x9818558D40333093E0EB5DF1F44C85 0xB0 MOD EQ PUSH24 0x64736F6C6343000706003300000000000000000000000000 "
    },
    "gasEstimates": {
      "creation": {
        "codeDepositCost": "4803600",
        "executionCost": "47392",
        "totalCost": "4850992"
      },
      "external": {
        "AddDoctor(address,string,address)": "infinite",
        "AddHospital(address,string,string,string)": "infinite",
        "AddSensor(string,string,address,bool)": "infinite",
        "Doctors(address)": "infinite",
        "Hospitals(address)": "infinite",
        "ReadDoctor(address)": "infinite",
        "ReadHospital(address)": "infinite",
        "ReadSensor(uint256)": "infinite",
        "RemoveDoctor(address)": "infinite",
        "RemoveHospital(address)": "infinite",
        "RemoveSensor(uint256,address)": "infinite",
        "Sensors(address)": "infinite",
        "UpdateDoctor(address,string,address,bool)": "infinite",
        "UpdateHospital(address,string,string,string,bool)": "infinite",
        "UpdateSensor(uint256,string,string,address,bool)": "infinite",
        "doctorsHospital(uint256)": "infinite",
        "getAllDoctors()": "infinite",
        "getAllDoctorsInHospital(address)": "infinite",
        "getAllHospitals()": "infinite",
        "getAllSensorOfDoctor(address)": "infinite",
        "getAllSensors()": "infinite",
        "hospitalCenters(uint256)": "infinite",
        "oracleAddress()": "1325",
        "sendData(uint256,uint256[])": "infinite",
        "sensorsDoctor(uint256)": "infinite",
        "viewSensorData(uint256,address)": "infinite"
      },
      "internal": {
        "FindDoctor(address)": "infinite",
        "FindHospital(address)": "infinite",
        "FindSensor(uint256)": "infinite"
      }
    },
    "methodIdentifiers": {
      "AddDoctor(address,string,address)": "e1ee3b56",
      "AddHospital(address,string,string,string)": "a5d4a684",
      "AddSensor(string,string,address,bool)": "1b057e40",
      "Doctors(address)": "dc7aa36b",
      "Hospitals(address)": "a549a4ed",
      "ReadDoctor(address)": "6cd8ebdc",
      "ReadHospital(address)": "9b70e779",
      "ReadSensor(uint256)": "02655c2e",
      "RemoveDoctor(address)": "a0568e2d",
      "RemoveHospital(address)": "4807fc69",
      "RemoveSensor(uint256,address)": "e0764bb5",
      "Sensors(address)": "898bd140",
      "UpdateDoctor(address,string,address,bool)": "60ea3cdc",
      "UpdateHospital(address,string,string,string,bool)": "a57308d4",
      "UpdateSensor(uint256,string,string,address,bool)": "6f39507d",
      "doctorsHospital(uint256)": "8db2fc41",
      "getAllDoctors()": "f0d95090",
      "getAllDoctorsInHospital(address)": "c266406d",
      "getAllHospitals()": "4e9f7154",
      "getAllSensorOfDoctor(address)": "9a2e5bed",
      "getAllSensors()": "5a4e5d3e",
      "hospitalCenters(uint256)": "d53d0a85",
      "oracleAddress()": "a89ae4ba",
      "sendData(uint256,uint256[])": "4444cc92",
      "sensorsDoctor(uint256)": "ea87659f",
      "viewSensorData(uint256,address)": "c0c2e0fa"
    }
  },
  "storageLayout": {
    "storage": [
      {
        "astId": 4,
        "contract": "EHealth.sol:EHealth",
        "label": "nextIdDoctor",
        "offset": 0,
        "slot": "0",
        "type": "t_uint256"
      },
      {
        "astId": 6,
        "contract": "EHealth.sol:EHealth",
        "label": "nextIdSensor",
        "offset": 0,
        "slot": "1",
        "type": "t_uint256"
      },
      {
        "astId": 9,
        "contract": "EHealth.sol:EHealth",
        "label": "owner",
        "offset": 0,
        "slot": "2",
        "type": "t_address"
      },
      {
        "astId": 12,
        "contract": "EHealth.sol:EHealth",
        "label": "oracleAddress",
        "offset": 0,
        "slot": "3",
        "type": "t_address"
      },
      {
        "astId": 16,
        "contract": "EHealth.sol:EHealth",
        "label": "Hospitals",
        "offset": 0,
        "slot": "4",
        "type": "t_mapping(t_address,t_struct(Hospital)27_storage)"
      },
      {
        "astId": 30,
        "contract": "EHealth.sol:EHealth",
        "label": "hospitalCenters",
        "offset": 0,
        "slot": "5",
        "type": "t_array(t_struct(Hospital)27_storage)dyn_storage"
      },
      {
        "astId": 34,
        "contract": "EHealth.sol:EHealth",
        "label": "Doctors",
        "offset": 0,
        "slot": "6",
        "type": "t_mapping(t_address,t_struct(Doctor)43_storage)"
      },
      {
        "astId": 46,
        "contract": "EHealth.sol:EHealth",
        "label": "doctorsHospital",
        "offset": 0,
        "slot": "7",
        "type": "t_array(t_struct(Doctor)43_storage)dyn_storage"
      },
      {
        "astId": 50,
        "contract": "EHealth.sol:EHealth",
        "label": "Sensors",
        "offset": 0,
        "slot": "8",
        "type": "t_mapping(t_address,t_struct(Sensor)64_storage)"
      },
      {
        "astId": 67,
        "contract": "EHealth.sol:EHealth",
        "label": "sensorsDoctor",
        "offset": 0,
        "slot": "9",
        "type": "t_array(t_struct(Sensor)64_storage)dyn_storage"
      }
    ],
    "types": {
      "t_address": {
        "encoding": "inplace",
        "label": "address",
        "numberOfBytes": "20"
      },
      "t_array(t_struct(Doctor)43_storage)dyn_storage": {
        "base": "t_struct(Doctor)43_storage",
        "encoding": "dynamic_array",
        "label": "struct EHealth.Doctor[]",
        "numberOfBytes": "32"
      },
      "t_array(t_struct(Hospital)27_storage)dyn_storage": {
        "base": "t_struct(Hospital)27_storage",
        "encoding": "dynamic_array",
        "label": "struct EHealth.Hospital[]",
        "numberOfBytes": "32"
      },
      "t_array(t_struct(Sensor)64_storage)dyn_storage": {
        "base": "t_struct(Sensor)64_storage",
        "encoding": "dynamic_array",
        "label": "struct EHealth.Sensor[]",
        "numberOfBytes": "32"
      },
      "t_array(t_uint256)dyn_storage": {
        "base": "t_uint256",
        "encoding": "dynamic_array",
        "label": "uint256[]",
        "numberOfBytes": "32"
      },
      "t_bool": {
        "encoding": "inplace",
        "label": "bool",
        "numberOfBytes": "1"
      },
      "t_mapping(t_address,t_struct(Doctor)43_storage)": {
        "encoding": "mapping",
        "key": "t_address",
        "label": "mapping(address => struct EHealth.Doctor)",
        "numberOfBytes": "32",
        "value": "t_struct(Doctor)43_storage"
      },
      "t_mapping(t_address,t_struct(Hospital)27_storage)": {
        "encoding": "mapping",
        "key": "t_address",
        "label": "mapping(address => struct EHealth.Hospital)",
        "numberOfBytes": "32",
        "value": "t_struct(Hospital)27_storage"
      },
      "t_mapping(t_address,t_struct(Sensor)64_storage)": {
        "encoding": "mapping",
        "key": "t_address",
        "label": "mapping(address => struct EHealth.Sensor)",
        "numberOfBytes": "32",
        "value": "t_struct(Sensor)64_storage"
      },
      "t_string_storage": {
        "encoding": "bytes",
        "label": "string",
        "numberOfBytes": "32"
      },
      "t_struct(Doctor)43_storage": {
        "encoding": "inplace",
        "label": "struct EHealth.Doctor",
        "members": [
          {
            "astId": 36,
            "contract": "EHealth.sol:EHealth",
            "label": "idDoctor",
            "offset": 0,
            "slot": "0",
            "type": "t_address"
          },
          {
            "astId": 38,
            "contract": "EHealth.sol:EHealth",
            "label": "nameDoctor",
            "offset": 0,
            "slot": "1",
            "type": "t_string_storage"
          },
          {
            "astId": 40,
            "contract": "EHealth.sol:EHealth",
            "label": "hospital",
            "offset": 0,
            "slot": "2",
            "type": "t_address"
          },
          {
            "astId": 42,
            "contract": "EHealth.sol:EHealth",
            "label": "permission",
            "offset": 20,
            "slot": "2",
            "type": "t_bool"
          }
        ],
        "numberOfBytes": "96"
      },
      "t_struct(Hospital)27_storage": {
        "encoding": "inplace",
        "label": "struct EHealth.Hospital",
        "members": [
          {
            "astId": 18,
            "contract": "EHealth.sol:EHealth",
            "label": "idHospital",
            "offset": 0,
            "slot": "0",
            "type": "t_address"
          },
          {
            "astId": 20,
            "contract": "EHealth.sol:EHealth",
            "label": "name",
            "offset": 0,
            "slot": "1",
            "type": "t_string_storage"
          },
          {
            "astId": 22,
            "contract": "EHealth.sol:EHealth",
            "label": "state",
            "offset": 0,
            "slot": "2",
            "type": "t_string_storage"
          },
          {
            "astId": 24,
            "contract": "EHealth.sol:EHealth",
            "label": "postalCode",
            "offset": 0,
            "slot": "3",
            "type": "t_string_storage"
          },
          {
            "astId": 26,
            "contract": "EHealth.sol:EHealth",
            "label": "permission",
            "offset": 0,
            "slot": "4",
            "type": "t_bool"
          }
        ],
        "numberOfBytes": "160"
      },
      "t_struct(Sensor)64_storage": {
        "encoding": "inplace",
        "label": "struct EHealth.Sensor",
        "members": [
          {
            "astId": 52,
            "contract": "EHealth.sol:EHealth",
            "label": "idSensor",
            "offset": 0,
            "slot": "0",
            "type": "t_uint256"
          },
          {
            "astId": 54,
            "contract": "EHealth.sol:EHealth",
            "label": "MAC",
            "offset": 0,
            "slot": "1",
            "type": "t_string_storage"
          },
          {
            "astId": 56,
            "contract": "EHealth.sol:EHealth",
            "label": "patientName",
            "offset": 0,
            "slot": "2",
            "type": "t_string_storage"
          },
          {
            "astId": 58,
            "contract": "EHealth.sol:EHealth",
            "label": "idDoctor",
            "offset": 0,
            "slot": "3",
            "type": "t_address"
          },
          {
            "astId": 60,
            "contract": "EHealth.sol:EHealth",
            "label": "active",
            "offset": 20,
            "slot": "3",
            "type": "t_bool"
          },
          {
            "astId": 63,
            "contract": "EHealth.sol:EHealth",
            "label": "data",
            "offset": 0,
            "slot": "4",
            "type": "t_array(t_uint256)dyn_storage"
          }
        ],
        "numberOfBytes": "160"
      },
      "t_uint256": {
        "encoding": "inplace",
        "label": "uint256",
        "numberOfBytes": "32"
      }
    }
  },
  "userdoc": {
    "kind": "user",
    "methods": {},
    "version": 1
  },
  "address": "0x87A592C867942767aa8C4C908a1c9C691212229f"
}