{
  "abi": [
    {
      "anonymous": false,
      "inputs": [
        {
          "indexed": false,
          "internalType": "address",
          "name": "",
          "type": "address"
        },
        {
          "indexed": false,
          "internalType": "string",
          "name": "",
          "type": "string"
        },
        {
          "indexed": false,
          "internalType": "address",
          "name": "",
          "type": "address"
        },
        {
          "indexed": false,
          "internalType": "bool",
          "name": "",
          "type": "bool"
        }
      ],
      "name": "DeleteDoctor",
      "type": "event",
      "signature": "0x780b3c74ec1e08d8c65fd8a12c6ac2da5c15f2d3b5e54335b51671f63b7d2ad0"
    },
    {
      "anonymous": false,
      "inputs": [
        {
          "indexed": false,
          "internalType": "address",
          "name": "",
          "type": "address"
        },
        {
          "indexed": false,
          "internalType": "string",
          "name": "",
          "type": "string"
        },
        {
          "indexed": false,
          "internalType": "string",
          "name": "",
          "type": "string"
        },
        {
          "indexed": false,
          "internalType": "string",
          "name": "",
          "type": "string"
        },
        {
          "indexed": false,
          "internalType": "uint256",
          "name": "",
          "type": "uint256"
        },
        {
          "indexed": false,
          "internalType": "bool",
          "name": "",
          "type": "bool"
        }
      ],
      "name": "DeleteHospital",
      "type": "event",
      "signature": "0x05818f5e23a2c2bb34c81792ea8e3397d3f8ad179cb93a5fa57b3d4681564aa0"
    },
    {
      "anonymous": false,
      "inputs": [
        {
          "indexed": false,
          "internalType": "uint256",
          "name": "",
          "type": "uint256"
        },
        {
          "indexed": false,
          "internalType": "string",
          "name": "",
          "type": "string"
        },
        {
          "indexed": false,
          "internalType": "string",
          "name": "",
          "type": "string"
        },
        {
          "indexed": false,
          "internalType": "address",
          "name": "",
          "type": "address"
        },
        {
          "indexed": false,
          "internalType": "bool",
          "name": "",
          "type": "bool"
        }
      ],
      "name": "DeleteSensor",
      "type": "event",
      "signature": "0xef9006907eb20210e880b0bb1c39946083bcec24688718507d63a259ffa8351b"
    },
    {
      "anonymous": false,
      "inputs": [
        {
          "indexed": false,
          "internalType": "address",
          "name": "",
          "type": "address"
        },
        {
          "indexed": false,
          "internalType": "string",
          "name": "",
          "type": "string"
        },
        {
          "indexed": false,
          "internalType": "address",
          "name": "",
          "type": "address"
        },
        {
          "indexed": false,
          "internalType": "bool",
          "name": "",
          "type": "bool"
        }
      ],
      "name": "NewDoctor",
      "type": "event",
      "signature": "0x4578695497af1a3a1f556f9c89f9f107851cb8e1820e4b336143406b9ba52e3b"
    },
    {
      "anonymous": false,
      "inputs": [
        {
          "indexed": false,
          "internalType": "address",
          "name": "",
          "type": "address"
        },
        {
          "indexed": false,
          "internalType": "string",
          "name": "",
          "type": "string"
        },
        {
          "indexed": false,
          "internalType": "string",
          "name": "",
          "type": "string"
        },
        {
          "indexed": false,
          "internalType": "string",
          "name": "",
          "type": "string"
        },
        {
          "indexed": false,
          "internalType": "uint256",
          "name": "",
          "type": "uint256"
        },
        {
          "indexed": false,
          "internalType": "bool",
          "name": "",
          "type": "bool"
        }
      ],
      "name": "NewHospital",
      "type": "event",
      "signature": "0xf646212acc3f5092fb0211ffd5121c0f706641b715e3982dab50afb395413dd5"
    },
    {
      "anonymous": false,
      "inputs": [
        {
          "indexed": false,
          "internalType": "uint256",
          "name": "",
          "type": "uint256"
        },
        {
          "indexed": false,
          "internalType": "string",
          "name": "",
          "type": "string"
        },
        {
          "indexed": false,
          "internalType": "string",
          "name": "",
          "type": "string"
        },
        {
          "indexed": false,
          "internalType": "address",
          "name": "",
          "type": "address"
        },
        {
          "indexed": false,
          "internalType": "bool",
          "name": "",
          "type": "bool"
        }
      ],
      "name": "NewSensor",
      "type": "event",
      "signature": "0x1d6a52c11773994a4a6eaa1ace32b929e7f0900bbe29db3f1d36a3cd45f1486c"
    },
    {
      "anonymous": false,
      "inputs": [
        {
          "indexed": false,
          "internalType": "address",
          "name": "",
          "type": "address"
        },
        {
          "indexed": false,
          "internalType": "string",
          "name": "",
          "type": "string"
        },
        {
          "indexed": false,
          "internalType": "address",
          "name": "",
          "type": "address"
        },
        {
          "indexed": false,
          "internalType": "bool",
          "name": "",
          "type": "bool"
        }
      ],
      "name": "RefreshDoctor",
      "type": "event",
      "signature": "0x6fcbc4a02269ac36204ac7e60c4cf625c6fc2b2365cac750c9927b670e347f90"
    },
    {
      "anonymous": false,
      "inputs": [
        {
          "indexed": false,
          "internalType": "address",
          "name": "",
          "type": "address"
        },
        {
          "indexed": false,
          "internalType": "string",
          "name": "",
          "type": "string"
        },
        {
          "indexed": false,
          "internalType": "string",
          "name": "",
          "type": "string"
        },
        {
          "indexed": false,
          "internalType": "string",
          "name": "",
          "type": "string"
        },
        {
          "indexed": false,
          "internalType": "uint256",
          "name": "",
          "type": "uint256"
        },
        {
          "indexed": false,
          "internalType": "bool",
          "name": "",
          "type": "bool"
        }
      ],
      "name": "RefreshHospital",
      "type": "event",
      "signature": "0x5975e6fed8802a324436eb320387035d99d011c9901bb75b34b8c23b91250c1c"
    },
    {
      "anonymous": false,
      "inputs": [
        {
          "indexed": false,
          "internalType": "uint256",
          "name": "",
          "type": "uint256"
        },
        {
          "indexed": false,
          "internalType": "string",
          "name": "",
          "type": "string"
        },
        {
          "indexed": false,
          "internalType": "string",
          "name": "",
          "type": "string"
        },
        {
          "indexed": false,
          "internalType": "address",
          "name": "",
          "type": "address"
        }
      ],
      "name": "RefreshSensor",
      "type": "event",
      "signature": "0xba2bd0d5052fb9458eaac383932e8112a57bfc6a1836ad7118b1673447d3e6ae"
    },
    {
      "inputs": [
        {
          "internalType": "address",
          "name": "idDoctor",
          "type": "address"
        },
        {
          "internalType": "string",
          "name": "_nameDoctor",
          "type": "string"
        },
        {
          "internalType": "address",
          "name": "_hospital",
          "type": "address"
        }
      ],
      "name": "AddDoctor",
      "outputs": [],
      "stateMutability": "nonpayable",
      "type": "function",
      "signature": "0xe1ee3b56"
    },
    {
      "inputs": [
        {
          "internalType": "address",
          "name": "_idHospital",
          "type": "address"
        },
        {
          "internalType": "string",
          "name": "_name",
          "type": "string"
        },
        {
          "internalType": "string",
          "name": "_city",
          "type": "string"
        },
        {
          "internalType": "string",
          "name": "_state",
          "type": "string"
        },
        {
          "internalType": "uint256",
          "name": "_postalCode",
          "type": "uint256"
        }
      ],
      "name": "AddHospital",
      "outputs": [],
      "stateMutability": "nonpayable",
      "type": "function",
      "signature": "0xa27876c5"
    },
    {
      "inputs": [
        {
          "internalType": "string",
          "name": "_mac",
          "type": "string"
        },
        {
          "internalType": "string",
          "name": "_patientName",
          "type": "string"
        },
        {
          "internalType": "address",
          "name": "_idDoctor",
          "type": "address"
        },
        {
          "internalType": "bool",
          "name": "_active",
          "type": "bool"
        }
      ],
      "name": "AddSensor",
      "outputs": [],
      "stateMutability": "nonpayable",
      "type": "function",
      "signature": "0x1b057e40"
    },
    {
      "inputs": [
        {
          "internalType": "address",
          "name": "",
          "type": "address"
        }
      ],
      "name": "Doctors",
      "outputs": [
        {
          "internalType": "address",
          "name": "idDoctor",
          "type": "address"
        },
        {
          "internalType": "string",
          "name": "nameDoctor",
          "type": "string"
        },
        {
          "internalType": "address",
          "name": "hospital",
          "type": "address"
        },
        {
          "internalType": "bool",
          "name": "permission",
          "type": "bool"
        }
      ],
      "stateMutability": "view",
      "type": "function",
      "constant": true,
      "signature": "0xdc7aa36b"
    },
    {
      "inputs": [
        {
          "internalType": "address",
          "name": "",
          "type": "address"
        }
      ],
      "name": "Hospitals",
      "outputs": [
        {
          "internalType": "address",
          "name": "idHospital",
          "type": "address"
        },
        {
          "internalType": "string",
          "name": "name",
          "type": "string"
        },
        {
          "internalType": "string",
          "name": "city",
          "type": "string"
        },
        {
          "internalType": "string",
          "name": "state",
          "type": "string"
        },
        {
          "internalType": "uint256",
          "name": "postalCode",
          "type": "uint256"
        },
        {
          "internalType": "bool",
          "name": "permission",
          "type": "bool"
        }
      ],
      "stateMutability": "view",
      "type": "function",
      "constant": true,
      "signature": "0xa549a4ed"
    },
    {
      "inputs": [],
      "name": "Length_Doctors",
      "outputs": [
        {
          "internalType": "uint256",
          "name": "",
          "type": "uint256"
        }
      ],
      "stateMutability": "view",
      "type": "function",
      "constant": true,
      "signature": "0x1ba51696"
    },
    {
      "inputs": [],
      "name": "Length_Hospitals",
      "outputs": [
        {
          "internalType": "uint256",
          "name": "",
          "type": "uint256"
        }
      ],
      "stateMutability": "view",
      "type": "function",
      "constant": true,
      "signature": "0xa17d7a38"
    },
    {
      "inputs": [],
      "name": "Length_sensors",
      "outputs": [
        {
          "internalType": "uint256",
          "name": "",
          "type": "uint256"
        }
      ],
      "stateMutability": "view",
      "type": "function",
      "constant": true,
      "signature": "0xb5843613"
    },
    {
      "inputs": [
        {
          "internalType": "address",
          "name": "_id",
          "type": "address"
        }
      ],
      "name": "ReadDoctor",
      "outputs": [
        {
          "internalType": "string",
          "name": "",
          "type": "string"
        },
        {
          "internalType": "address",
          "name": "",
          "type": "address"
        },
        {
          "internalType": "bool",
          "name": "",
          "type": "bool"
        }
      ],
      "stateMutability": "view",
      "type": "function",
      "constant": true,
      "signature": "0x6cd8ebdc"
    },
    {
      "inputs": [
        {
          "internalType": "address",
          "name": "_address",
          "type": "address"
        }
      ],
      "name": "ReadHospital",
      "outputs": [
        {
          "internalType": "string",
          "name": "",
          "type": "string"
        },
        {
          "internalType": "string",
          "name": "",
          "type": "string"
        },
        {
          "internalType": "string",
          "name": "",
          "type": "string"
        },
        {
          "internalType": "uint256",
          "name": "",
          "type": "uint256"
        },
        {
          "internalType": "bool",
          "name": "",
          "type": "bool"
        }
      ],
      "stateMutability": "view",
      "type": "function",
      "constant": true,
      "signature": "0x9b70e779"
    },
    {
      "inputs": [
        {
          "internalType": "uint256",
          "name": "_id",
          "type": "uint256"
        }
      ],
      "name": "ReadSensor",
      "outputs": [
        {
          "internalType": "string",
          "name": "",
          "type": "string"
        },
        {
          "internalType": "string",
          "name": "",
          "type": "string"
        },
        {
          "internalType": "address",
          "name": "",
          "type": "address"
        },
        {
          "internalType": "bool",
          "name": "",
          "type": "bool"
        }
      ],
      "stateMutability": "view",
      "type": "function",
      "constant": true,
      "signature": "0x02655c2e"
    },
    {
      "inputs": [
        {
          "internalType": "address",
          "name": "_id",
          "type": "address"
        }
      ],
      "name": "RemoveDoctor",
      "outputs": [],
      "stateMutability": "nonpayable",
      "type": "function",
      "signature": "0xa0568e2d"
    },
    {
      "inputs": [
        {
          "internalType": "address",
          "name": "_address",
          "type": "address"
        }
      ],
      "name": "RemoveHospital",
      "outputs": [],
      "stateMutability": "nonpayable",
      "type": "function",
      "signature": "0x4807fc69"
    },
    {
      "inputs": [
        {
          "internalType": "uint256",
          "name": "_id",
          "type": "uint256"
        }
      ],
      "name": "RemoveSensor",
      "outputs": [],
      "stateMutability": "nonpayable",
      "type": "function",
      "signature": "0x6151efb1"
    },
    {
      "inputs": [
        {
          "internalType": "address",
          "name": "",
          "type": "address"
        }
      ],
      "name": "Sensors",
      "outputs": [
        {
          "internalType": "uint256",
          "name": "idSensor",
          "type": "uint256"
        },
        {
          "internalType": "string",
          "name": "MAC",
          "type": "string"
        },
        {
          "internalType": "string",
          "name": "patientName",
          "type": "string"
        },
        {
          "internalType": "address",
          "name": "idDoctor",
          "type": "address"
        },
        {
          "internalType": "bool",
          "name": "active",
          "type": "bool"
        }
      ],
      "stateMutability": "view",
      "type": "function",
      "constant": true,
      "signature": "0x898bd140"
    },
    {
      "inputs": [
        {
          "internalType": "address",
          "name": "_id",
          "type": "address"
        },
        {
          "internalType": "string",
          "name": "_nameDoctor",
          "type": "string"
        },
        {
          "internalType": "address",
          "name": "_hospital",
          "type": "address"
        },
        {
          "internalType": "bool",
          "name": "_permission",
          "type": "bool"
        }
      ],
      "name": "UpdateDoctor",
      "outputs": [],
      "stateMutability": "nonpayable",
      "type": "function",
      "signature": "0x60ea3cdc"
    },
    {
      "inputs": [
        {
          "internalType": "address",
          "name": "_address",
          "type": "address"
        },
        {
          "internalType": "string",
          "name": "_name",
          "type": "string"
        },
        {
          "internalType": "string",
          "name": "_city",
          "type": "string"
        },
        {
          "internalType": "string",
          "name": "_state",
          "type": "string"
        },
        {
          "internalType": "uint256",
          "name": "_postalCode",
          "type": "uint256"
        },
        {
          "internalType": "bool",
          "name": "_permission",
          "type": "bool"
        }
      ],
      "name": "UpdateHospital",
      "outputs": [],
      "stateMutability": "nonpayable",
      "type": "function",
      "signature": "0x7fe53f83"
    },
    {
      "inputs": [
        {
          "internalType": "uint256",
          "name": "_id",
          "type": "uint256"
        },
        {
          "internalType": "string",
          "name": "_mac",
          "type": "string"
        },
        {
          "internalType": "string",
          "name": "_patientName",
          "type": "string"
        },
        {
          "internalType": "address",
          "name": "_idDoctor",
          "type": "address"
        }
      ],
      "name": "UpdateSensor",
      "outputs": [],
      "stateMutability": "nonpayable",
      "type": "function",
      "signature": "0x459d470e"
    },
    {
      "inputs": [
        {
          "internalType": "uint256",
          "name": "",
          "type": "uint256"
        }
      ],
      "name": "doctorsHospital",
      "outputs": [
        {
          "internalType": "address",
          "name": "idDoctor",
          "type": "address"
        },
        {
          "internalType": "string",
          "name": "nameDoctor",
          "type": "string"
        },
        {
          "internalType": "address",
          "name": "hospital",
          "type": "address"
        },
        {
          "internalType": "bool",
          "name": "permission",
          "type": "bool"
        }
      ],
      "stateMutability": "view",
      "type": "function",
      "constant": true,
      "signature": "0x8db2fc41"
    },
    {
      "inputs": [],
      "name": "getAllDoctors",
      "outputs": [
        {
          "components": [
            {
              "internalType": "address",
              "name": "idDoctor",
              "type": "address"
            },
            {
              "internalType": "string",
              "name": "nameDoctor",
              "type": "string"
            },
            {
              "internalType": "address",
              "name": "hospital",
              "type": "address"
            },
            {
              "internalType": "bool",
              "name": "permission",
              "type": "bool"
            }
          ],
          "internalType": "struct EHealth.Doctor[]",
          "name": "",
          "type": "tuple[]"
        }
      ],
      "stateMutability": "view",
      "type": "function",
      "constant": true,
      "signature": "0xf0d95090"
    },
    {
      "inputs": [
        {
          "internalType": "address",
          "name": "_address",
          "type": "address"
        }
      ],
      "name": "getAllDoctorsInHospital",
      "outputs": [
        {
          "components": [
            {
              "internalType": "address",
              "name": "idDoctor",
              "type": "address"
            },
            {
              "internalType": "string",
              "name": "nameDoctor",
              "type": "string"
            },
            {
              "internalType": "address",
              "name": "hospital",
              "type": "address"
            },
            {
              "internalType": "bool",
              "name": "permission",
              "type": "bool"
            }
          ],
          "internalType": "struct EHealth.Doctor[]",
          "name": "",
          "type": "tuple[]"
        }
      ],
      "stateMutability": "view",
      "type": "function",
      "constant": true,
      "signature": "0xc266406d"
    },
    {
      "inputs": [],
      "name": "getAllHospitals",
      "outputs": [
        {
          "components": [
            {
              "internalType": "address",
              "name": "idHospital",
              "type": "address"
            },
            {
              "internalType": "string",
              "name": "name",
              "type": "string"
            },
            {
              "internalType": "string",
              "name": "city",
              "type": "string"
            },
            {
              "internalType": "string",
              "name": "state",
              "type": "string"
            },
            {
              "internalType": "uint256",
              "name": "postalCode",
              "type": "uint256"
            },
            {
              "internalType": "bool",
              "name": "permission",
              "type": "bool"
            }
          ],
          "internalType": "struct EHealth.Hospital[]",
          "name": "",
          "type": "tuple[]"
        }
      ],
      "stateMutability": "view",
      "type": "function",
      "constant": true,
      "signature": "0x4e9f7154"
    },
    {
      "inputs": [
        {
          "internalType": "address",
          "name": "_idDoctor",
          "type": "address"
        }
      ],
      "name": "getAllSensorOfDoctor",
      "outputs": [
        {
          "components": [
            {
              "internalType": "uint256",
              "name": "idSensor",
              "type": "uint256"
            },
            {
              "internalType": "string",
              "name": "MAC",
              "type": "string"
            },
            {
              "internalType": "string",
              "name": "patientName",
              "type": "string"
            },
            {
              "internalType": "address",
              "name": "idDoctor",
              "type": "address"
            },
            {
              "internalType": "bool",
              "name": "active",
              "type": "bool"
            }
          ],
          "internalType": "struct EHealth.Sensor[]",
          "name": "",
          "type": "tuple[]"
        }
      ],
      "stateMutability": "view",
      "type": "function",
      "constant": true,
      "signature": "0x9a2e5bed"
    },
    {
      "inputs": [],
      "name": "getAllSensors",
      "outputs": [
        {
          "components": [
            {
              "internalType": "uint256",
              "name": "idSensor",
              "type": "uint256"
            },
            {
              "internalType": "string",
              "name": "MAC",
              "type": "string"
            },
            {
              "internalType": "string",
              "name": "patientName",
              "type": "string"
            },
            {
              "internalType": "address",
              "name": "idDoctor",
              "type": "address"
            },
            {
              "internalType": "bool",
              "name": "active",
              "type": "bool"
            }
          ],
          "internalType": "struct EHealth.Sensor[]",
          "name": "",
          "type": "tuple[]"
        }
      ],
      "stateMutability": "view",
      "type": "function",
      "constant": true,
      "signature": "0x5a4e5d3e"
    },
    {
      "inputs": [
        {
          "internalType": "uint256",
          "name": "",
          "type": "uint256"
        }
      ],
      "name": "hospitalCenters",
      "outputs": [
        {
          "internalType": "address",
          "name": "idHospital",
          "type": "address"
        },
        {
          "internalType": "string",
          "name": "name",
          "type": "string"
        },
        {
          "internalType": "string",
          "name": "city",
          "type": "string"
        },
        {
          "internalType": "string",
          "name": "state",
          "type": "string"
        },
        {
          "internalType": "uint256",
          "name": "postalCode",
          "type": "uint256"
        },
        {
          "internalType": "bool",
          "name": "permission",
          "type": "bool"
        }
      ],
      "stateMutability": "view",
      "type": "function",
      "constant": true,
      "signature": "0xd53d0a85"
    },
    {
      "inputs": [
        {
          "internalType": "uint256",
          "name": "",
          "type": "uint256"
        }
      ],
      "name": "sensorsDoctor",
      "outputs": [
        {
          "internalType": "uint256",
          "name": "idSensor",
          "type": "uint256"
        },
        {
          "internalType": "string",
          "name": "MAC",
          "type": "string"
        },
        {
          "internalType": "string",
          "name": "patientName",
          "type": "string"
        },
        {
          "internalType": "address",
          "name": "idDoctor",
          "type": "address"
        },
        {
          "internalType": "bool",
          "name": "active",
          "type": "bool"
        }
      ],
      "stateMutability": "view",
      "type": "function",
      "constant": true,
      "signature": "0xea87659f"
    }
  ],
  "devdoc": {
    "kind": "dev",
    "methods": {},
    "version": 1
  },
  "evm": {
    "assembly": "    /* \"EHealth.sol\":119:10110  contract EHealth {\r... */\n  mstore(0x40, 0x80)\n    /* \"EHealth.sol\":232:274  0x8FcF3B91599C6d5bb93D8c7df9f3974C622b83a4 */\n  0x8fcf3b91599c6d5bb93d8c7df9f3974c622b83a4\n    /* \"EHealth.sol\":216:274  address owner = 0x8FcF3B91599C6d5bb93D8c7df9f3974C622b83a4 */\n  0x02\n  exp(0x0100, 0x00)\n  dup2\n  sload\n  dup2\n  0xffffffffffffffffffffffffffffffffffffffff\n  mul\n  not\n  and\n  swap1\n  dup4\n  0xffffffffffffffffffffffffffffffffffffffff\n  and\n  mul\n  or\n  swap1\n  sstore\n  pop\n    /* \"EHealth.sol\":119:10110  contract EHealth {\r... */\n  callvalue\n  dup1\n  iszero\n  tag_1\n  jumpi\n  0x00\n  dup1\n  revert\ntag_1:\n  pop\n  dataSize(sub_0)\n  dup1\n  dataOffset(sub_0)\n  0x00\n  codecopy\n  0x00\n  return\nstop\n\nsub_0: assembly {\n        /* \"EHealth.sol\":119:10110  contract EHealth {\r... */\n      mstore(0x40, 0x80)\n      callvalue\n      dup1\n      iszero\n      tag_1\n      jumpi\n      0x00\n      dup1\n      revert\n    tag_1:\n      pop\n      jumpi(tag_2, lt(calldatasize, 0x04))\n      shr(0xe0, calldataload(0x00))\n      dup1\n      0x9a2e5bed\n      gt\n      tag_29\n      jumpi\n      dup1\n      0xb5843613\n      gt\n      tag_30\n      jumpi\n      dup1\n      0xdc7aa36b\n      gt\n      tag_31\n      jumpi\n      dup1\n      0xdc7aa36b\n      eq\n      tag_25\n      jumpi\n      dup1\n      0xe1ee3b56\n      eq\n      tag_26\n      jumpi\n      dup1\n      0xea87659f\n      eq\n      tag_27\n      jumpi\n      dup1\n      0xf0d95090\n      eq\n      tag_28\n      jumpi\n      jump(tag_2)\n    tag_31:\n      dup1\n      0xb5843613\n      eq\n      tag_22\n      jumpi\n      dup1\n      0xc266406d\n      eq\n      tag_23\n      jumpi\n      dup1\n      0xd53d0a85\n      eq\n      tag_24\n      jumpi\n      jump(tag_2)\n    tag_30:\n      dup1\n      0x9a2e5bed\n      eq\n      tag_16\n      jumpi\n      dup1\n      0x9b70e779\n      eq\n      tag_17\n      jumpi\n      dup1\n      0xa0568e2d\n      eq\n      tag_18\n      jumpi\n      dup1\n      0xa17d7a38\n      eq\n      tag_19\n      jumpi\n      dup1\n      0xa27876c5\n      eq\n      tag_20\n      jumpi\n      dup1\n      0xa549a4ed\n      eq\n      tag_21\n      jumpi\n      jump(tag_2)\n    tag_29:\n      dup1\n      0x5a4e5d3e\n      gt\n      tag_32\n      jumpi\n      dup1\n      0x6cd8ebdc\n      gt\n      tag_33\n      jumpi\n      dup1\n      0x6cd8ebdc\n      eq\n      tag_12\n      jumpi\n      dup1\n      0x7fe53f83\n      eq\n      tag_13\n      jumpi\n      dup1\n      0x898bd140\n      eq\n      tag_14\n      jumpi\n      dup1\n      0x8db2fc41\n      eq\n      tag_15\n      jumpi\n      jump(tag_2)\n    tag_33:\n      dup1\n      0x5a4e5d3e\n      eq\n      tag_9\n      jumpi\n      dup1\n      0x60ea3cdc\n      eq\n      tag_10\n      jumpi\n      dup1\n      0x6151efb1\n      eq\n      tag_11\n      jumpi\n      jump(tag_2)\n    tag_32:\n      dup1\n      0x02655c2e\n      eq\n      tag_3\n      jumpi\n      dup1\n      0x1b057e40\n      eq\n      tag_4\n      jumpi\n      dup1\n      0x1ba51696\n      eq\n      tag_5\n      jumpi\n      dup1\n      0x459d470e\n      eq\n      tag_6\n      jumpi\n      dup1\n      0x4807fc69\n      eq\n      tag_7\n      jumpi\n      dup1\n      0x4e9f7154\n      eq\n      tag_8\n      jumpi\n    tag_2:\n      0x00\n      dup1\n      revert\n        /* \"EHealth.sol\":8988:9262  function ReadSensor(uint _id)public view returns(string memory,string memory, address, bool){\r... */\n    tag_3:\n      tag_34\n      0x04\n      dup1\n      calldatasize\n      sub\n      dup2\n      add\n      swap1\n      tag_35\n      swap2\n      swap1\n      tag_36\n      jump\t// in\n    tag_35:\n      tag_37\n      jump\t// in\n    tag_34:\n      mload(0x40)\n      tag_38\n      swap5\n      swap4\n      swap3\n      swap2\n      swap1\n      tag_39\n      jump\t// in\n    tag_38:\n      mload(0x40)\n      dup1\n      swap2\n      sub\n      swap1\n      return\n        /* \"EHealth.sol\":7416:7756  function AddSensor(string memory _mac, string memory _patientName, address _idDoctor, bool _active) public {\r... */\n    tag_4:\n      tag_40\n      0x04\n      dup1\n      calldatasize\n      sub\n      dup2\n      add\n      swap1\n      tag_41\n      swap2\n      swap1\n      tag_42\n      jump\t// in\n    tag_41:\n      tag_43\n      jump\t// in\n    tag_40:\n      stop\n        /* \"EHealth.sol\":6460:6563  function Length_Doctors() public view returns (uint256){\r... */\n    tag_5:\n      tag_44\n      tag_45\n      jump\t// in\n    tag_44:\n      mload(0x40)\n      tag_46\n      swap2\n      swap1\n      tag_47\n      jump\t// in\n    tag_46:\n      mload(0x40)\n      dup1\n      swap2\n      sub\n      swap1\n      return\n        /* \"EHealth.sol\":8478:8955  function UpdateSensor(uint _id, string memory _mac, string memory _patientName,address _idDoctor ) public {\r... */\n    tag_6:\n      tag_48\n      0x04\n      dup1\n      calldatasize\n      sub\n      dup2\n      add\n      swap1\n      tag_49\n      swap2\n      swap1\n      tag_50\n      jump\t// in\n    tag_49:\n      tag_51\n      jump\t// in\n    tag_48:\n      stop\n        /* \"EHealth.sol\":2469:2895  function RemoveHospital(address _address) public {\r... */\n    tag_7:\n      tag_52\n      0x04\n      dup1\n      calldatasize\n      sub\n      dup2\n      add\n      swap1\n      tag_53\n      swap2\n      swap1\n      tag_54\n      jump\t// in\n    tag_53:\n      tag_55\n      jump\t// in\n    tag_52:\n      stop\n        /* \"EHealth.sol\":3700:3979  function getAllHospitals() public view returns (Hospital[] memory){\r... */\n    tag_8:\n      tag_56\n      tag_57\n      jump\t// in\n    tag_56:\n      mload(0x40)\n      tag_58\n      swap2\n      swap1\n      tag_59\n      jump\t// in\n    tag_58:\n      mload(0x40)\n      dup1\n      swap2\n      sub\n      swap1\n      return\n        /* \"EHealth.sol\":9427:9692  function getAllSensors() public view returns (Sensor[] memory){\r... */\n    tag_9:\n      tag_60\n      tag_61\n      jump\t// in\n    tag_60:\n      mload(0x40)\n      tag_62\n      swap2\n      swap1\n      tag_63\n      jump\t// in\n    tag_62:\n      mload(0x40)\n      dup1\n      swap2\n      sub\n      swap1\n      return\n        /* \"EHealth.sol\":5627:6146  function UpdateDoctor(address _id, string memory _nameDoctor, address _hospital ,bool _permission) public {\r... */\n    tag_10:\n      tag_64\n      0x04\n      dup1\n      calldatasize\n      sub\n      dup2\n      add\n      swap1\n      tag_65\n      swap2\n      swap1\n      tag_66\n      jump\t// in\n    tag_65:\n      tag_67\n      jump\t// in\n    tag_64:\n      stop\n        /* \"EHealth.sol\":8098:8443  function RemoveSensor(uint _id) public {\r... */\n    tag_11:\n      tag_68\n      0x04\n      dup1\n      calldatasize\n      sub\n      dup2\n      add\n      swap1\n      tag_69\n      swap2\n      swap1\n      tag_36\n      jump\t// in\n    tag_69:\n      tag_70\n      jump\t// in\n    tag_68:\n      stop\n        /* \"EHealth.sol\":6179:6426  function ReadDoctor(address _id)public view returns(string memory, address, bool){\r... */\n    tag_12:\n      tag_71\n      0x04\n      dup1\n      calldatasize\n      sub\n      dup2\n      add\n      swap1\n      tag_72\n      swap2\n      swap1\n      tag_54\n      jump\t// in\n    tag_72:\n      tag_73\n      jump\t// in\n    tag_71:\n      mload(0x40)\n      tag_74\n      swap4\n      swap3\n      swap2\n      swap1\n      tag_75\n      jump\t// in\n    tag_74:\n      mload(0x40)\n      dup1\n      swap2\n      sub\n      swap1\n      return\n        /* \"EHealth.sol\":2934:3667  function UpdateHospital(address _address, string memory _name, string memory _city, string memory _state, uint _postalCode, bool _permission ) public {\r... */\n    tag_13:\n      tag_76\n      0x04\n      dup1\n      calldatasize\n      sub\n      dup2\n      add\n      swap1\n      tag_77\n      swap2\n      swap1\n      tag_78\n      jump\t// in\n    tag_77:\n      tag_79\n      jump\t// in\n    tag_76:\n      stop\n        /* \"EHealth.sol\":864:904  mapping(address=> Sensor) public Sensors */\n    tag_14:\n      tag_80\n      0x04\n      dup1\n      calldatasize\n      sub\n      dup2\n      add\n      swap1\n      tag_81\n      swap2\n      swap1\n      tag_54\n      jump\t// in\n    tag_81:\n      tag_82\n      jump\t// in\n    tag_80:\n      mload(0x40)\n      tag_83\n      swap6\n      swap5\n      swap4\n      swap3\n      swap2\n      swap1\n      tag_84\n      jump\t// in\n    tag_83:\n      mload(0x40)\n      dup1\n      swap2\n      sub\n      swap1\n      return\n        /* \"EHealth.sol\":808:839  Doctor[] public doctorsHospital */\n    tag_15:\n      tag_85\n      0x04\n      dup1\n      calldatasize\n      sub\n      dup2\n      add\n      swap1\n      tag_86\n      swap2\n      swap1\n      tag_36\n      jump\t// in\n    tag_86:\n      tag_87\n      jump\t// in\n    tag_85:\n      mload(0x40)\n      tag_88\n      swap5\n      swap4\n      swap3\n      swap2\n      swap1\n      tag_89\n      jump\t// in\n    tag_88:\n      mload(0x40)\n      dup1\n      swap2\n      sub\n      swap1\n      return\n        /* \"EHealth.sol\":9741:10107  function getAllSensorOfDoctor (address _idDoctor) public view returns (Sensor[] memory){\r... */\n    tag_16:\n      tag_90\n      0x04\n      dup1\n      calldatasize\n      sub\n      dup2\n      add\n      swap1\n      tag_91\n      swap2\n      swap1\n      tag_54\n      jump\t// in\n    tag_91:\n      tag_92\n      jump\t// in\n    tag_90:\n      mload(0x40)\n      tag_93\n      swap2\n      swap1\n      tag_63\n      jump\t// in\n    tag_93:\n      mload(0x40)\n      dup1\n      swap2\n      sub\n      swap1\n      return\n        /* \"EHealth.sol\":4159:4510  function ReadHospital(address _address)public view returns(string memory, string memory, string memory, uint, bool){\r... */\n    tag_17:\n      tag_94\n      0x04\n      dup1\n      calldatasize\n      sub\n      dup2\n      add\n      swap1\n      tag_95\n      swap2\n      swap1\n      tag_54\n      jump\t// in\n    tag_95:\n      tag_96\n      jump\t// in\n    tag_94:\n      mload(0x40)\n      tag_97\n      swap6\n      swap5\n      swap4\n      swap3\n      swap2\n      swap1\n      tag_98\n      jump\t// in\n    tag_97:\n      mload(0x40)\n      dup1\n      swap2\n      sub\n      swap1\n      return\n        /* \"EHealth.sol\":5262:5592  function RemoveDoctor(address _id) public {\r... */\n    tag_18:\n      tag_99\n      0x04\n      dup1\n      calldatasize\n      sub\n      dup2\n      add\n      swap1\n      tag_100\n      swap2\n      swap1\n      tag_54\n      jump\t// in\n    tag_100:\n      tag_101\n      jump\t// in\n    tag_99:\n      stop\n        /* \"EHealth.sol\":4017:4122  function Length_Hospitals() public view returns (uint256){\r... */\n    tag_19:\n      tag_102\n      tag_103\n      jump\t// in\n    tag_102:\n      mload(0x40)\n      tag_104\n      swap2\n      swap1\n      tag_47\n      jump\t// in\n    tag_104:\n      mload(0x40)\n      dup1\n      swap2\n      sub\n      swap1\n      return\n        /* \"EHealth.sol\":1809:2125  function AddHospital(address _idHospital, string memory _name, string memory _city, string memory _state, uint _postalCode ) public {\r... */\n    tag_20:\n      tag_105\n      0x04\n      dup1\n      calldatasize\n      sub\n      dup2\n      add\n      swap1\n      tag_106\n      swap2\n      swap1\n      tag_107\n      jump\t// in\n    tag_106:\n      tag_108\n      jump\t// in\n    tag_105:\n      stop\n        /* \"EHealth.sol\":301:345  mapping(address=> Hospital) public Hospitals */\n    tag_21:\n      tag_109\n      0x04\n      dup1\n      calldatasize\n      sub\n      dup2\n      add\n      swap1\n      tag_110\n      swap2\n      swap1\n      tag_54\n      jump\t// in\n    tag_110:\n      tag_111\n      jump\t// in\n    tag_109:\n      mload(0x40)\n      tag_112\n      swap7\n      swap6\n      swap5\n      swap4\n      swap3\n      swap2\n      swap1\n      tag_113\n      jump\t// in\n    tag_112:\n      mload(0x40)\n      dup1\n      swap2\n      sub\n      swap1\n      return\n        /* \"EHealth.sol\":9296:9397  function Length_sensors() public view returns (uint256){\r... */\n    tag_22:\n      tag_114\n      tag_115\n      jump\t// in\n    tag_114:\n      mload(0x40)\n      tag_116\n      swap2\n      swap1\n      tag_47\n      jump\t// in\n    tag_116:\n      mload(0x40)\n      dup1\n      swap2\n      sub\n      swap1\n      return\n        /* \"EHealth.sol\":6906:7280  function getAllDoctorsInHospital(address _address) public view returns (Doctor[] memory){\r... */\n    tag_23:\n      tag_117\n      0x04\n      dup1\n      calldatasize\n      sub\n      dup2\n      add\n      swap1\n      tag_118\n      swap2\n      swap1\n      tag_54\n      jump\t// in\n    tag_118:\n      tag_119\n      jump\t// in\n    tag_117:\n      mload(0x40)\n      tag_120\n      swap2\n      swap1\n      tag_121\n      jump\t// in\n    tag_120:\n      mload(0x40)\n      dup1\n      swap2\n      sub\n      swap1\n      return\n        /* \"EHealth.sol\":536:569  Hospital[] public hospitalCenters */\n    tag_24:\n      tag_122\n      0x04\n      dup1\n      calldatasize\n      sub\n      dup2\n      add\n      swap1\n      tag_123\n      swap2\n      swap1\n      tag_36\n      jump\t// in\n    tag_123:\n      tag_124\n      jump\t// in\n    tag_122:\n      mload(0x40)\n      tag_125\n      swap7\n      swap6\n      swap5\n      swap4\n      swap3\n      swap2\n      swap1\n      tag_113\n      jump\t// in\n    tag_125:\n      mload(0x40)\n      dup1\n      swap2\n      sub\n      swap1\n      return\n        /* \"EHealth.sol\":598:638  mapping(address=> Doctor) public Doctors */\n    tag_25:\n      tag_126\n      0x04\n      dup1\n      calldatasize\n      sub\n      dup2\n      add\n      swap1\n      tag_127\n      swap2\n      swap1\n      tag_54\n      jump\t// in\n    tag_127:\n      tag_128\n      jump\t// in\n    tag_126:\n      mload(0x40)\n      tag_129\n      swap5\n      swap4\n      swap3\n      swap2\n      swap1\n      tag_89\n      jump\t// in\n    tag_129:\n      mload(0x40)\n      dup1\n      swap2\n      sub\n      swap1\n      return\n        /* \"EHealth.sol\":4644:4917  function AddDoctor(address idDoctor, string memory _nameDoctor, address _hospital) public {\r... */\n    tag_26:\n      tag_130\n      0x04\n      dup1\n      calldatasize\n      sub\n      dup2\n      add\n      swap1\n      tag_131\n      swap2\n      swap1\n      tag_132\n      jump\t// in\n    tag_131:\n      tag_133\n      jump\t// in\n    tag_130:\n      stop\n        /* \"EHealth.sol\":1092:1121  Sensor[] public sensorsDoctor */\n    tag_27:\n      tag_134\n      0x04\n      dup1\n      calldatasize\n      sub\n      dup2\n      add\n      swap1\n      tag_135\n      swap2\n      swap1\n      tag_36\n      jump\t// in\n    tag_135:\n      tag_136\n      jump\t// in\n    tag_134:\n      mload(0x40)\n      tag_137\n      swap6\n      swap5\n      swap4\n      swap3\n      swap2\n      swap1\n      tag_84\n      jump\t// in\n    tag_137:\n      mload(0x40)\n      dup1\n      swap2\n      sub\n      swap1\n      return\n        /* \"EHealth.sol\":6593:6864  function getAllDoctors() public view returns (Doctor[] memory){\r... */\n    tag_28:\n      tag_138\n      tag_139\n      jump\t// in\n    tag_138:\n      mload(0x40)\n      tag_140\n      swap2\n      swap1\n      tag_121\n      jump\t// in\n    tag_140:\n      mload(0x40)\n      dup1\n      swap2\n      sub\n      swap1\n      return\n        /* \"EHealth.sol\":8988:9262  function ReadSensor(uint _id)public view returns(string memory,string memory, address, bool){\r... */\n    tag_37:\n        /* \"EHealth.sol\":9037:9050  string memory */\n      0x60\n        /* \"EHealth.sol\":9051:9064  string memory */\n      dup1\n        /* \"EHealth.sol\":9066:9073  address */\n      0x00\n        /* \"EHealth.sol\":9075:9079  bool */\n      dup1\n        /* \"EHealth.sol\":9091:9101  uint index */\n      0x00\n        /* \"EHealth.sol\":9104:9119  FindSensor(_id) */\n      tag_142\n        /* \"EHealth.sol\":9115:9118  _id */\n      dup7\n        /* \"EHealth.sol\":9104:9114  FindSensor */\n      tag_143\n        /* \"EHealth.sol\":9104:9119  FindSensor(_id) */\n      jump\t// in\n    tag_142:\n        /* \"EHealth.sol\":9091:9119  uint index = FindSensor(_id) */\n      swap1\n      pop\n        /* \"EHealth.sol\":9138:9151  sensorsDoctor */\n      0x08\n        /* \"EHealth.sol\":9152:9157  index */\n      dup2\n        /* \"EHealth.sol\":9138:9158  sensorsDoctor[index] */\n      dup2\n      sload\n      dup2\n      lt\n      tag_144\n      jumpi\n      invalid\n    tag_144:\n      swap1\n      0x00\n      mstore\n      keccak256(0x00, 0x20)\n      swap1\n      0x04\n      mul\n      add\n        /* \"EHealth.sol\":9138:9162  sensorsDoctor[index].MAC */\n      0x01\n      add\n        /* \"EHealth.sol\":9163:9176  sensorsDoctor */\n      0x08\n        /* \"EHealth.sol\":9177:9182  index */\n      dup3\n        /* \"EHealth.sol\":9163:9183  sensorsDoctor[index] */\n      dup2\n      sload\n      dup2\n      lt\n      tag_146\n      jumpi\n      invalid\n    tag_146:\n      swap1\n      0x00\n      mstore\n      keccak256(0x00, 0x20)\n      swap1\n      0x04\n      mul\n      add\n        /* \"EHealth.sol\":9163:9195  sensorsDoctor[index].patientName */\n      0x02\n      add\n        /* \"EHealth.sol\":9196:9209  sensorsDoctor */\n      0x08\n        /* \"EHealth.sol\":9210:9215  index */\n      dup4\n        /* \"EHealth.sol\":9196:9216  sensorsDoctor[index] */\n      dup2\n      sload\n      dup2\n      lt\n      tag_148\n      jumpi\n      invalid\n    tag_148:\n      swap1\n      0x00\n      mstore\n      keccak256(0x00, 0x20)\n      swap1\n      0x04\n      mul\n      add\n        /* \"EHealth.sol\":9196:9225  sensorsDoctor[index].idDoctor */\n      0x03\n      add\n      0x00\n      swap1\n      sload\n      swap1\n      0x0100\n      exp\n      swap1\n      div\n      0xffffffffffffffffffffffffffffffffffffffff\n      and\n        /* \"EHealth.sol\":9226:9239  sensorsDoctor */\n      0x08\n        /* \"EHealth.sol\":9240:9245  index */\n      dup5\n        /* \"EHealth.sol\":9226:9246  sensorsDoctor[index] */\n      dup2\n      sload\n      dup2\n      lt\n      tag_150\n      jumpi\n      invalid\n    tag_150:\n      swap1\n      0x00\n      mstore\n      keccak256(0x00, 0x20)\n      swap1\n      0x04\n      mul\n      add\n        /* \"EHealth.sol\":9226:9253  sensorsDoctor[index].active */\n      0x03\n      add\n      0x14\n      swap1\n      sload\n      swap1\n      0x0100\n      exp\n      swap1\n      div\n      0xff\n      and\n        /* \"EHealth.sol\":9130:9254  return (sensorsDoctor[index].MAC,sensorsDoctor[index].patientName,sensorsDoctor[index].idDoctor,sensorsDoctor[index].active) */\n      dup4\n      dup1\n      sload\n      0x01\n      dup2\n      0x01\n      and\n      iszero\n      0x0100\n      mul\n      sub\n      and\n      0x02\n      swap1\n      div\n      dup1\n      0x1f\n      add\n      0x20\n      dup1\n      swap2\n      div\n      mul\n      0x20\n      add\n      mload(0x40)\n      swap1\n      dup2\n      add\n      0x40\n      mstore\n      dup1\n      swap3\n      swap2\n      swap1\n      dup2\n      dup2\n      mstore\n      0x20\n      add\n      dup3\n      dup1\n      sload\n      0x01\n      dup2\n      0x01\n      and\n      iszero\n      0x0100\n      mul\n      sub\n      and\n      0x02\n      swap1\n      div\n      dup1\n      iszero\n      tag_152\n      jumpi\n      dup1\n      0x1f\n      lt\n      tag_153\n      jumpi\n      0x0100\n      dup1\n      dup4\n      sload\n      div\n      mul\n      dup4\n      mstore\n      swap2\n      0x20\n      add\n      swap2\n      jump(tag_152)\n    tag_153:\n      dup3\n      add\n      swap2\n      swap1\n      0x00\n      mstore\n      keccak256(0x00, 0x20)\n      swap1\n    tag_154:\n      dup2\n      sload\n      dup2\n      mstore\n      swap1\n      0x01\n      add\n      swap1\n      0x20\n      add\n      dup1\n      dup4\n      gt\n      tag_154\n      jumpi\n      dup3\n      swap1\n      sub\n      0x1f\n      and\n      dup3\n      add\n      swap2\n    tag_152:\n      pop\n      pop\n      pop\n      pop\n      pop\n      swap4\n      pop\n      dup3\n      dup1\n      sload\n      0x01\n      dup2\n      0x01\n      and\n      iszero\n      0x0100\n      mul\n      sub\n      and\n      0x02\n      swap1\n      div\n      dup1\n      0x1f\n      add\n      0x20\n      dup1\n      swap2\n      div\n      mul\n      0x20\n      add\n      mload(0x40)\n      swap1\n      dup2\n      add\n      0x40\n      mstore\n      dup1\n      swap3\n      swap2\n      swap1\n      dup2\n      dup2\n      mstore\n      0x20\n      add\n      dup3\n      dup1\n      sload\n      0x01\n      dup2\n      0x01\n      and\n      iszero\n      0x0100\n      mul\n      sub\n      and\n      0x02\n      swap1\n      div\n      dup1\n      iszero\n      tag_155\n      jumpi\n      dup1\n      0x1f\n      lt\n      tag_156\n      jumpi\n      0x0100\n      dup1\n      dup4\n      sload\n      div\n      mul\n      dup4\n      mstore\n      swap2\n      0x20\n      add\n      swap2\n      jump(tag_155)\n    tag_156:\n      dup3\n      add\n      swap2\n      swap1\n      0x00\n      mstore\n      keccak256(0x00, 0x20)\n      swap1\n    tag_157:\n      dup2\n      sload\n      dup2\n      mstore\n      swap1\n      0x01\n      add\n      swap1\n      0x20\n      add\n      dup1\n      dup4\n      gt\n      tag_157\n      jumpi\n      dup3\n      swap1\n      sub\n      0x1f\n      and\n      dup3\n      add\n      swap2\n    tag_155:\n      pop\n      pop\n      pop\n      pop\n      pop\n      swap3\n      pop\n      swap5\n      pop\n      swap5\n      pop\n      swap5\n      pop\n      swap5\n      pop\n      pop\n        /* \"EHealth.sol\":8988:9262  function ReadSensor(uint _id)public view returns(string memory,string memory, address, bool){\r... */\n      swap2\n      swap4\n      pop\n      swap2\n      swap4\n      jump\t// out\n        /* \"EHealth.sol\":7416:7756  function AddSensor(string memory _mac, string memory _patientName, address _idDoctor, bool _active) public {\r... */\n    tag_43:\n        /* \"EHealth.sol\":7534:7555  FindDoctor(_idDoctor) */\n      tag_159\n        /* \"EHealth.sol\":7545:7554  _idDoctor */\n      dup3\n        /* \"EHealth.sol\":7534:7544  FindDoctor */\n      tag_160\n        /* \"EHealth.sol\":7534:7555  FindDoctor(_idDoctor) */\n      jump\t// in\n    tag_159:\n      pop\n        /* \"EHealth.sol\":7566:7579  sensorsDoctor */\n      0x08\n        /* \"EHealth.sol\":7585:7644  Sensor(nextIdSensor,_mac, _patientName, _idDoctor, _active) */\n      mload(0x40)\n      dup1\n      0xa0\n      add\n      0x40\n      mstore\n      dup1\n        /* \"EHealth.sol\":7592:7604  nextIdSensor */\n      sload(0x01)\n        /* \"EHealth.sol\":7585:7644  Sensor(nextIdSensor,_mac, _patientName, _idDoctor, _active) */\n      dup2\n      mstore\n      0x20\n      add\n        /* \"EHealth.sol\":7605:7609  _mac */\n      dup7\n        /* \"EHealth.sol\":7585:7644  Sensor(nextIdSensor,_mac, _patientName, _idDoctor, _active) */\n      dup2\n      mstore\n      0x20\n      add\n        /* \"EHealth.sol\":7611:7623  _patientName */\n      dup6\n        /* \"EHealth.sol\":7585:7644  Sensor(nextIdSensor,_mac, _patientName, _idDoctor, _active) */\n      dup2\n      mstore\n      0x20\n      add\n        /* \"EHealth.sol\":7625:7634  _idDoctor */\n      dup5\n        /* \"EHealth.sol\":7585:7644  Sensor(nextIdSensor,_mac, _patientName, _idDoctor, _active) */\n      0xffffffffffffffffffffffffffffffffffffffff\n      and\n      dup2\n      mstore\n      0x20\n      add\n        /* \"EHealth.sol\":7636:7643  _active */\n      dup4\n        /* \"EHealth.sol\":7585:7644  Sensor(nextIdSensor,_mac, _patientName, _idDoctor, _active) */\n      iszero\n      iszero\n      dup2\n      mstore\n      pop\n        /* \"EHealth.sol\":7566:7645  sensorsDoctor.push(Sensor(nextIdSensor,_mac, _patientName, _idDoctor, _active)) */\n      swap1\n      dup1\n      0x01\n      dup2\n      sload\n      add\n      dup1\n      dup3\n      sstore\n      dup1\n      swap2\n      pop\n      pop\n      0x01\n      swap1\n      sub\n      swap1\n      0x00\n      mstore\n      keccak256(0x00, 0x20)\n      swap1\n      0x04\n      mul\n      add\n      0x00\n      swap1\n      swap2\n      swap1\n      swap2\n      swap1\n      swap2\n      pop\n      0x00\n      dup3\n      add\n      mload\n      dup2\n      0x00\n      add\n      sstore\n      0x20\n      dup3\n      add\n      mload\n      dup2\n      0x01\n      add\n      swap1\n      dup1\n      mload\n      swap1\n      0x20\n      add\n      swap1\n      tag_162\n      swap3\n      swap2\n      swap1\n      tag_163\n      jump\t// in\n    tag_162:\n      pop\n      0x40\n      dup3\n      add\n      mload\n      dup2\n      0x02\n      add\n      swap1\n      dup1\n      mload\n      swap1\n      0x20\n      add\n      swap1\n      tag_164\n      swap3\n      swap2\n      swap1\n      tag_163\n      jump\t// in\n    tag_164:\n      pop\n      0x60\n      dup3\n      add\n      mload\n      dup2\n      0x03\n      add\n      exp(0x0100, 0x00)\n      dup2\n      sload\n      dup2\n      0xffffffffffffffffffffffffffffffffffffffff\n      mul\n      not\n      and\n      swap1\n      dup4\n      0xffffffffffffffffffffffffffffffffffffffff\n      and\n      mul\n      or\n      swap1\n      sstore\n      pop\n      0x80\n      dup3\n      add\n      mload\n      dup2\n      0x03\n      add\n      exp(0x0100, 0x14)\n      dup2\n      sload\n      dup2\n      0xff\n      mul\n      not\n      and\n      swap1\n      dup4\n      iszero\n      iszero\n      mul\n      or\n      swap1\n      sstore\n      pop\n      pop\n      pop\n        /* \"EHealth.sol\":7661:7723  NewSensor(nextIdSensor,_mac, _patientName, _idDoctor, _active) */\n      0x1d6a52c11773994a4a6eaa1ace32b929e7f0900bbe29db3f1d36a3cd45f1486c\n        /* \"EHealth.sol\":7671:7683  nextIdSensor */\n      sload(0x01)\n        /* \"EHealth.sol\":7684:7688  _mac */\n      dup6\n        /* \"EHealth.sol\":7690:7702  _patientName */\n      dup6\n        /* \"EHealth.sol\":7704:7713  _idDoctor */\n      dup6\n        /* \"EHealth.sol\":7715:7722  _active */\n      dup6\n        /* \"EHealth.sol\":7661:7723  NewSensor(nextIdSensor,_mac, _patientName, _idDoctor, _active) */\n      mload(0x40)\n      tag_165\n      swap6\n      swap5\n      swap4\n      swap3\n      swap2\n      swap1\n      tag_84\n      jump\t// in\n    tag_165:\n      mload(0x40)\n      dup1\n      swap2\n      sub\n      swap1\n      log1\n        /* \"EHealth.sol\":7734:7746  nextIdSensor */\n      0x01\n      0x00\n        /* \"EHealth.sol\":7734:7748  nextIdSensor++ */\n      dup2\n      sload\n      dup1\n      swap3\n      swap2\n      swap1\n      0x01\n      add\n      swap2\n      swap1\n      pop\n      sstore\n      pop\n        /* \"EHealth.sol\":7416:7756  function AddSensor(string memory _mac, string memory _patientName, address _idDoctor, bool _active) public {\r... */\n      pop\n      pop\n      pop\n      pop\n      jump\t// out\n        /* \"EHealth.sol\":6460:6563  function Length_Doctors() public view returns (uint256){\r... */\n    tag_45:\n        /* \"EHealth.sol\":6507:6514  uint256 */\n      0x00\n        /* \"EHealth.sol\":6533:6548  hospitalCenters */\n      0x04\n        /* \"EHealth.sol\":6533:6555  hospitalCenters.length */\n      dup1\n      sload\n      swap1\n      pop\n        /* \"EHealth.sol\":6526:6555  return hospitalCenters.length */\n      swap1\n      pop\n        /* \"EHealth.sol\":6460:6563  function Length_Doctors() public view returns (uint256){\r... */\n      swap1\n      jump\t// out\n        /* \"EHealth.sol\":8478:8955  function UpdateSensor(uint _id, string memory _mac, string memory _patientName,address _idDoctor ) public {\r... */\n    tag_51:\n        /* \"EHealth.sol\":8595:8605  uint index */\n      0x00\n        /* \"EHealth.sol\":8608:8623  FindSensor(_id) */\n      tag_168\n        /* \"EHealth.sol\":8619:8622  _id */\n      dup6\n        /* \"EHealth.sol\":8608:8618  FindSensor */\n      tag_143\n        /* \"EHealth.sol\":8608:8623  FindSensor(_id) */\n      jump\t// in\n    tag_168:\n        /* \"EHealth.sol\":8595:8623  uint index = FindSensor(_id) */\n      swap1\n      pop\n        /* \"EHealth.sol\":8659:8663  _mac */\n      dup4\n        /* \"EHealth.sol\":8634:8647  sensorsDoctor */\n      0x08\n        /* \"EHealth.sol\":8648:8653  index */\n      dup3\n        /* \"EHealth.sol\":8634:8654  sensorsDoctor[index] */\n      dup2\n      sload\n      dup2\n      lt\n      tag_169\n      jumpi\n      invalid\n    tag_169:\n      swap1\n      0x00\n      mstore\n      keccak256(0x00, 0x20)\n      swap1\n      0x04\n      mul\n      add\n        /* \"EHealth.sol\":8634:8658  sensorsDoctor[index].MAC */\n      0x01\n      add\n        /* \"EHealth.sol\":8634:8663  sensorsDoctor[index].MAC=_mac */\n      swap1\n      dup1\n      mload\n      swap1\n      0x20\n      add\n      swap1\n      tag_171\n      swap3\n      swap2\n      swap1\n      tag_163\n      jump\t// in\n    tag_171:\n      pop\n        /* \"EHealth.sol\":8707:8719  _patientName */\n      dup3\n        /* \"EHealth.sol\":8674:8687  sensorsDoctor */\n      0x08\n        /* \"EHealth.sol\":8688:8693  index */\n      dup3\n        /* \"EHealth.sol\":8674:8694  sensorsDoctor[index] */\n      dup2\n      sload\n      dup2\n      lt\n      tag_172\n      jumpi\n      invalid\n    tag_172:\n      swap1\n      0x00\n      mstore\n      keccak256(0x00, 0x20)\n      swap1\n      0x04\n      mul\n      add\n        /* \"EHealth.sol\":8674:8706  sensorsDoctor[index].patientName */\n      0x02\n      add\n        /* \"EHealth.sol\":8674:8719  sensorsDoctor[index].patientName=_patientName */\n      swap1\n      dup1\n      mload\n      swap1\n      0x20\n      add\n      swap1\n      tag_174\n      swap3\n      swap2\n      swap1\n      tag_163\n      jump\t// in\n    tag_174:\n      pop\n        /* \"EHealth.sol\":8760:8769  _idDoctor */\n      dup2\n        /* \"EHealth.sol\":8730:8743  sensorsDoctor */\n      0x08\n        /* \"EHealth.sol\":8744:8749  index */\n      dup3\n        /* \"EHealth.sol\":8730:8750  sensorsDoctor[index] */\n      dup2\n      sload\n      dup2\n      lt\n      tag_175\n      jumpi\n      invalid\n    tag_175:\n      swap1\n      0x00\n      mstore\n      keccak256(0x00, 0x20)\n      swap1\n      0x04\n      mul\n      add\n        /* \"EHealth.sol\":8730:8759  sensorsDoctor[index].idDoctor */\n      0x03\n      add\n      0x00\n        /* \"EHealth.sol\":8730:8769  sensorsDoctor[index].idDoctor=_idDoctor */\n      0x0100\n      exp\n      dup2\n      sload\n      dup2\n      0xffffffffffffffffffffffffffffffffffffffff\n      mul\n      not\n      and\n      swap1\n      dup4\n      0xffffffffffffffffffffffffffffffffffffffff\n      and\n      mul\n      or\n      swap1\n      sstore\n      pop\n        /* \"EHealth.sol\":8785:8947  RefreshSensor(sensorsDoctor[index].idSensor,\r... */\n      0xba2bd0d5052fb9458eaac383932e8112a57bfc6a1836ad7118b1673447d3e6ae\n        /* \"EHealth.sol\":8799:8812  sensorsDoctor */\n      0x08\n        /* \"EHealth.sol\":8813:8818  index */\n      dup3\n        /* \"EHealth.sol\":8799:8819  sensorsDoctor[index] */\n      dup2\n      sload\n      dup2\n      lt\n      tag_177\n      jumpi\n      invalid\n    tag_177:\n      swap1\n      0x00\n      mstore\n      keccak256(0x00, 0x20)\n      swap1\n      0x04\n      mul\n      add\n        /* \"EHealth.sol\":8799:8828  sensorsDoctor[index].idSensor */\n      0x00\n      add\n      sload\n        /* \"EHealth.sol\":8839:8852  sensorsDoctor */\n      0x08\n        /* \"EHealth.sol\":8853:8858  index */\n      dup4\n        /* \"EHealth.sol\":8839:8859  sensorsDoctor[index] */\n      dup2\n      sload\n      dup2\n      lt\n      tag_179\n      jumpi\n      invalid\n    tag_179:\n      swap1\n      0x00\n      mstore\n      keccak256(0x00, 0x20)\n      swap1\n      0x04\n      mul\n      add\n        /* \"EHealth.sol\":8839:8863  sensorsDoctor[index].MAC */\n      0x01\n      add\n        /* \"EHealth.sol\":8874:8887  sensorsDoctor */\n      0x08\n        /* \"EHealth.sol\":8888:8893  index */\n      dup5\n        /* \"EHealth.sol\":8874:8894  sensorsDoctor[index] */\n      dup2\n      sload\n      dup2\n      lt\n      tag_181\n      jumpi\n      invalid\n    tag_181:\n      swap1\n      0x00\n      mstore\n      keccak256(0x00, 0x20)\n      swap1\n      0x04\n      mul\n      add\n        /* \"EHealth.sol\":8874:8906  sensorsDoctor[index].patientName */\n      0x02\n      add\n        /* \"EHealth.sol\":8917:8930  sensorsDoctor */\n      0x08\n        /* \"EHealth.sol\":8931:8936  index */\n      dup6\n        /* \"EHealth.sol\":8917:8937  sensorsDoctor[index] */\n      dup2\n      sload\n      dup2\n      lt\n      tag_183\n      jumpi\n      invalid\n    tag_183:\n      swap1\n      0x00\n      mstore\n      keccak256(0x00, 0x20)\n      swap1\n      0x04\n      mul\n      add\n        /* \"EHealth.sol\":8917:8946  sensorsDoctor[index].idDoctor */\n      0x03\n      add\n      0x00\n      swap1\n      sload\n      swap1\n      0x0100\n      exp\n      swap1\n      div\n      0xffffffffffffffffffffffffffffffffffffffff\n      and\n        /* \"EHealth.sol\":8785:8947  RefreshSensor(sensorsDoctor[index].idSensor,\r... */\n      mload(0x40)\n      tag_185\n      swap5\n      swap4\n      swap3\n      swap2\n      swap1\n      tag_186\n      jump\t// in\n    tag_185:\n      mload(0x40)\n      dup1\n      swap2\n      sub\n      swap1\n      log1\n        /* \"EHealth.sol\":8478:8955  function UpdateSensor(uint _id, string memory _mac, string memory _patientName,address _idDoctor ) public {\r... */\n      pop\n      pop\n      pop\n      pop\n      pop\n      jump\t// out\n        /* \"EHealth.sol\":2469:2895  function RemoveHospital(address _address) public {\r... */\n    tag_55:\n        /* \"EHealth.sol\":2529:2539  uint index */\n      0x00\n        /* \"EHealth.sol\":2542:2564  FindHospital(_address) */\n      tag_188\n        /* \"EHealth.sol\":2555:2563  _address */\n      dup3\n        /* \"EHealth.sol\":2542:2554  FindHospital */\n      tag_189\n        /* \"EHealth.sol\":2542:2564  FindHospital(_address) */\n      jump\t// in\n    tag_188:\n        /* \"EHealth.sol\":2529:2564  uint index = FindHospital(_address) */\n      swap1\n      pop\n        /* \"EHealth.sol\":2609:2614  false */\n      0x00\n        /* \"EHealth.sol\":2575:2590  hospitalCenters */\n      0x04\n        /* \"EHealth.sol\":2591:2596  index */\n      dup3\n        /* \"EHealth.sol\":2575:2597  hospitalCenters[index] */\n      dup2\n      sload\n      dup2\n      lt\n      tag_190\n      jumpi\n      invalid\n    tag_190:\n      swap1\n      0x00\n      mstore\n      keccak256(0x00, 0x20)\n      swap1\n      0x06\n      mul\n      add\n        /* \"EHealth.sol\":2575:2608  hospitalCenters[index].permission */\n      0x05\n      add\n      0x00\n        /* \"EHealth.sol\":2575:2614  hospitalCenters[index].permission=false */\n      0x0100\n      exp\n      dup2\n      sload\n      dup2\n      0xff\n      mul\n      not\n      and\n      swap1\n      dup4\n      iszero\n      iszero\n      mul\n      or\n      swap1\n      sstore\n      pop\n        /* \"EHealth.sol\":2630:2887  DeleteHospital(hospitalCenters[index].idHospital, \r... */\n      0x05818f5e23a2c2bb34c81792ea8e3397d3f8ad179cb93a5fa57b3d4681564aa0\n        /* \"EHealth.sol\":2645:2660  hospitalCenters */\n      0x04\n        /* \"EHealth.sol\":2661:2666  index */\n      dup3\n        /* \"EHealth.sol\":2645:2667  hospitalCenters[index] */\n      dup2\n      sload\n      dup2\n      lt\n      tag_192\n      jumpi\n      invalid\n    tag_192:\n      swap1\n      0x00\n      mstore\n      keccak256(0x00, 0x20)\n      swap1\n      0x06\n      mul\n      add\n        /* \"EHealth.sol\":2645:2678  hospitalCenters[index].idHospital */\n      0x00\n      add\n      0x00\n      swap1\n      sload\n      swap1\n      0x0100\n      exp\n      swap1\n      div\n      0xffffffffffffffffffffffffffffffffffffffff\n      and\n        /* \"EHealth.sol\":2690:2705  hospitalCenters */\n      0x04\n        /* \"EHealth.sol\":2706:2711  index */\n      dup4\n        /* \"EHealth.sol\":2690:2712  hospitalCenters[index] */\n      dup2\n      sload\n      dup2\n      lt\n      tag_194\n      jumpi\n      invalid\n    tag_194:\n      swap1\n      0x00\n      mstore\n      keccak256(0x00, 0x20)\n      swap1\n      0x06\n      mul\n      add\n        /* \"EHealth.sol\":2690:2717  hospitalCenters[index].name */\n      0x01\n      add\n        /* \"EHealth.sol\":2729:2744  hospitalCenters */\n      0x04\n        /* \"EHealth.sol\":2745:2750  index */\n      dup5\n        /* \"EHealth.sol\":2729:2751  hospitalCenters[index] */\n      dup2\n      sload\n      dup2\n      lt\n      tag_196\n      jumpi\n      invalid\n    tag_196:\n      swap1\n      0x00\n      mstore\n      keccak256(0x00, 0x20)\n      swap1\n      0x06\n      mul\n      add\n        /* \"EHealth.sol\":2729:2756  hospitalCenters[index].city */\n      0x02\n      add\n        /* \"EHealth.sol\":2768:2783  hospitalCenters */\n      0x04\n        /* \"EHealth.sol\":2784:2789  index */\n      dup6\n        /* \"EHealth.sol\":2768:2790  hospitalCenters[index] */\n      dup2\n      sload\n      dup2\n      lt\n      tag_198\n      jumpi\n      invalid\n    tag_198:\n      swap1\n      0x00\n      mstore\n      keccak256(0x00, 0x20)\n      swap1\n      0x06\n      mul\n      add\n        /* \"EHealth.sol\":2768:2796  hospitalCenters[index].state */\n      0x03\n      add\n        /* \"EHealth.sol\":2808:2823  hospitalCenters */\n      0x04\n        /* \"EHealth.sol\":2824:2829  index */\n      dup7\n        /* \"EHealth.sol\":2808:2830  hospitalCenters[index] */\n      dup2\n      sload\n      dup2\n      lt\n      tag_200\n      jumpi\n      invalid\n    tag_200:\n      swap1\n      0x00\n      mstore\n      keccak256(0x00, 0x20)\n      swap1\n      0x06\n      mul\n      add\n        /* \"EHealth.sol\":2808:2841  hospitalCenters[index].postalCode */\n      0x04\n      add\n      sload\n        /* \"EHealth.sol\":2853:2868  hospitalCenters */\n      0x04\n        /* \"EHealth.sol\":2869:2874  index */\n      dup8\n        /* \"EHealth.sol\":2853:2875  hospitalCenters[index] */\n      dup2\n      sload\n      dup2\n      lt\n      tag_202\n      jumpi\n      invalid\n    tag_202:\n      swap1\n      0x00\n      mstore\n      keccak256(0x00, 0x20)\n      swap1\n      0x06\n      mul\n      add\n        /* \"EHealth.sol\":2853:2886  hospitalCenters[index].permission */\n      0x05\n      add\n      0x00\n      swap1\n      sload\n      swap1\n      0x0100\n      exp\n      swap1\n      div\n      0xff\n      and\n        /* \"EHealth.sol\":2630:2887  DeleteHospital(hospitalCenters[index].idHospital, \r... */\n      mload(0x40)\n      tag_204\n      swap7\n      swap6\n      swap5\n      swap4\n      swap3\n      swap2\n      swap1\n      tag_205\n      jump\t// in\n    tag_204:\n      mload(0x40)\n      dup1\n      swap2\n      sub\n      swap1\n      log1\n        /* \"EHealth.sol\":2469:2895  function RemoveHospital(address _address) public {\r... */\n      pop\n      pop\n      jump\t// out\n        /* \"EHealth.sol\":3700:3979  function getAllHospitals() public view returns (Hospital[] memory){\r... */\n    tag_57:\n        /* \"EHealth.sol\":3748:3765  Hospital[] memory */\n      0x60\n        /* \"EHealth.sol\":3777:3798  Hospital[] memory ret */\n      0x00\n        /* \"EHealth.sol\":3816:3831  hospitalCenters */\n      0x04\n        /* \"EHealth.sol\":3816:3838  hospitalCenters.length */\n      dup1\n      sload\n      swap1\n      pop\n        /* \"EHealth.sol\":3801:3839  new Hospital[](hospitalCenters.length) */\n      0xffffffffffffffff\n      dup2\n      gt\n      dup1\n      iszero\n      tag_207\n      jumpi\n      0x00\n      dup1\n      revert\n    tag_207:\n      pop\n      mload(0x40)\n      swap1\n      dup1\n      dup3\n      mstore\n      dup1\n      0x20\n      mul\n      0x20\n      add\n      dup3\n      add\n      0x40\n      mstore\n      dup1\n      iszero\n      tag_208\n      jumpi\n      dup2\n      0x20\n      add\n    tag_209:\n      tag_210\n      tag_211\n      jump\t// in\n    tag_210:\n      dup2\n      mstore\n      0x20\n      add\n      swap1\n      0x01\n      swap1\n      sub\n      swap1\n      dup2\n      tag_209\n      jumpi\n      swap1\n      pop\n    tag_208:\n      pop\n        /* \"EHealth.sol\":3777:3839  Hospital[] memory ret = new Hospital[](hospitalCenters.length) */\n      swap1\n      pop\n        /* \"EHealth.sol\":3855:3861  uint i */\n      0x00\n        /* \"EHealth.sol\":3850:3951  for (uint i = 0; i< hospitalCenters.length; i++) {\r... */\n    tag_212:\n        /* \"EHealth.sol\":3870:3885  hospitalCenters */\n      0x04\n        /* \"EHealth.sol\":3870:3892  hospitalCenters.length */\n      dup1\n      sload\n      swap1\n      pop\n        /* \"EHealth.sol\":3867:3868  i */\n      dup2\n        /* \"EHealth.sol\":3867:3892  i< hospitalCenters.length */\n      lt\n        /* \"EHealth.sol\":3850:3951  for (uint i = 0; i< hospitalCenters.length; i++) {\r... */\n      iszero\n      tag_213\n      jumpi\n        /* \"EHealth.sol\":3921:3936  hospitalCenters */\n      0x04\n        /* \"EHealth.sol\":3937:3938  i */\n      dup2\n        /* \"EHealth.sol\":3921:3939  hospitalCenters[i] */\n      dup2\n      sload\n      dup2\n      lt\n      tag_215\n      jumpi\n      invalid\n    tag_215:\n      swap1\n      0x00\n      mstore\n      keccak256(0x00, 0x20)\n      swap1\n      0x06\n      mul\n      add\n        /* \"EHealth.sol\":3914:3939  ret[i]=hospitalCenters[i] */\n      mload(0x40)\n      dup1\n      0xc0\n      add\n      0x40\n      mstore\n      swap1\n      dup2\n      0x00\n      dup3\n      add\n      0x00\n      swap1\n      sload\n      swap1\n      0x0100\n      exp\n      swap1\n      div\n      0xffffffffffffffffffffffffffffffffffffffff\n      and\n      0xffffffffffffffffffffffffffffffffffffffff\n      and\n      0xffffffffffffffffffffffffffffffffffffffff\n      and\n      dup2\n      mstore\n      0x20\n      add\n      0x01\n      dup3\n      add\n      dup1\n      sload\n      0x01\n      dup2\n      0x01\n      and\n      iszero\n      0x0100\n      mul\n      sub\n      and\n      0x02\n      swap1\n      div\n      dup1\n      0x1f\n      add\n      0x20\n      dup1\n      swap2\n      div\n      mul\n      0x20\n      add\n      mload(0x40)\n      swap1\n      dup2\n      add\n      0x40\n      mstore\n      dup1\n      swap3\n      swap2\n      swap1\n      dup2\n      dup2\n      mstore\n      0x20\n      add\n      dup3\n      dup1\n      sload\n      0x01\n      dup2\n      0x01\n      and\n      iszero\n      0x0100\n      mul\n      sub\n      and\n      0x02\n      swap1\n      div\n      dup1\n      iszero\n      tag_217\n      jumpi\n      dup1\n      0x1f\n      lt\n      tag_218\n      jumpi\n      0x0100\n      dup1\n      dup4\n      sload\n      div\n      mul\n      dup4\n      mstore\n      swap2\n      0x20\n      add\n      swap2\n      jump(tag_217)\n    tag_218:\n      dup3\n      add\n      swap2\n      swap1\n      0x00\n      mstore\n      keccak256(0x00, 0x20)\n      swap1\n    tag_219:\n      dup2\n      sload\n      dup2\n      mstore\n      swap1\n      0x01\n      add\n      swap1\n      0x20\n      add\n      dup1\n      dup4\n      gt\n      tag_219\n      jumpi\n      dup3\n      swap1\n      sub\n      0x1f\n      and\n      dup3\n      add\n      swap2\n    tag_217:\n      pop\n      pop\n      pop\n      pop\n      pop\n      dup2\n      mstore\n      0x20\n      add\n      0x02\n      dup3\n      add\n      dup1\n      sload\n      0x01\n      dup2\n      0x01\n      and\n      iszero\n      0x0100\n      mul\n      sub\n      and\n      0x02\n      swap1\n      div\n      dup1\n      0x1f\n      add\n      0x20\n      dup1\n      swap2\n      div\n      mul\n      0x20\n      add\n      mload(0x40)\n      swap1\n      dup2\n      add\n      0x40\n      mstore\n      dup1\n      swap3\n      swap2\n      swap1\n      dup2\n      dup2\n      mstore\n      0x20\n      add\n      dup3\n      dup1\n      sload\n      0x01\n      dup2\n      0x01\n      and\n      iszero\n      0x0100\n      mul\n      sub\n      and\n      0x02\n      swap1\n      div\n      dup1\n      iszero\n      tag_220\n      jumpi\n      dup1\n      0x1f\n      lt\n      tag_221\n      jumpi\n      0x0100\n      dup1\n      dup4\n      sload\n      div\n      mul\n      dup4\n      mstore\n      swap2\n      0x20\n      add\n      swap2\n      jump(tag_220)\n    tag_221:\n      dup3\n      add\n      swap2\n      swap1\n      0x00\n      mstore\n      keccak256(0x00, 0x20)\n      swap1\n    tag_222:\n      dup2\n      sload\n      dup2\n      mstore\n      swap1\n      0x01\n      add\n      swap1\n      0x20\n      add\n      dup1\n      dup4\n      gt\n      tag_222\n      jumpi\n      dup3\n      swap1\n      sub\n      0x1f\n      and\n      dup3\n      add\n      swap2\n    tag_220:\n      pop\n      pop\n      pop\n      pop\n      pop\n      dup2\n      mstore\n      0x20\n      add\n      0x03\n      dup3\n      add\n      dup1\n      sload\n      0x01\n      dup2\n      0x01\n      and\n      iszero\n      0x0100\n      mul\n      sub\n      and\n      0x02\n      swap1\n      div\n      dup1\n      0x1f\n      add\n      0x20\n      dup1\n      swap2\n      div\n      mul\n      0x20\n      add\n      mload(0x40)\n      swap1\n      dup2\n      add\n      0x40\n      mstore\n      dup1\n      swap3\n      swap2\n      swap1\n      dup2\n      dup2\n      mstore\n      0x20\n      add\n      dup3\n      dup1\n      sload\n      0x01\n      dup2\n      0x01\n      and\n      iszero\n      0x0100\n      mul\n      sub\n      and\n      0x02\n      swap1\n      div\n      dup1\n      iszero\n      tag_223\n      jumpi\n      dup1\n      0x1f\n      lt\n      tag_224\n      jumpi\n      0x0100\n      dup1\n      dup4\n      sload\n      div\n      mul\n      dup4\n      mstore\n      swap2\n      0x20\n      add\n      swap2\n      jump(tag_223)\n    tag_224:\n      dup3\n      add\n      swap2\n      swap1\n      0x00\n      mstore\n      keccak256(0x00, 0x20)\n      swap1\n    tag_225:\n      dup2\n      sload\n      dup2\n      mstore\n      swap1\n      0x01\n      add\n      swap1\n      0x20\n      add\n      dup1\n      dup4\n      gt\n      tag_225\n      jumpi\n      dup3\n      swap1\n      sub\n      0x1f\n      and\n      dup3\n      add\n      swap2\n    tag_223:\n      pop\n      pop\n      pop\n      pop\n      pop\n      dup2\n      mstore\n      0x20\n      add\n      0x04\n      dup3\n      add\n      sload\n      dup2\n      mstore\n      0x20\n      add\n      0x05\n      dup3\n      add\n      0x00\n      swap1\n      sload\n      swap1\n      0x0100\n      exp\n      swap1\n      div\n      0xff\n      and\n      iszero\n      iszero\n      iszero\n      iszero\n      dup2\n      mstore\n      pop\n      pop\n        /* \"EHealth.sol\":3914:3917  ret */\n      dup3\n        /* \"EHealth.sol\":3918:3919  i */\n      dup3\n        /* \"EHealth.sol\":3914:3920  ret[i] */\n      dup2\n      mload\n      dup2\n      lt\n      tag_226\n      jumpi\n      invalid\n    tag_226:\n      0x20\n      mul\n      0x20\n      add\n      add\n        /* \"EHealth.sol\":3914:3939  ret[i]=hospitalCenters[i] */\n      dup2\n      swap1\n      mstore\n      pop\n        /* \"EHealth.sol\":3894:3897  i++ */\n      dup1\n      dup1\n      0x01\n      add\n      swap2\n      pop\n      pop\n        /* \"EHealth.sol\":3850:3951  for (uint i = 0; i< hospitalCenters.length; i++) {\r... */\n      jump(tag_212)\n    tag_213:\n      pop\n        /* \"EHealth.sol\":3968:3971  ret */\n      dup1\n        /* \"EHealth.sol\":3961:3971  return ret */\n      swap2\n      pop\n      pop\n        /* \"EHealth.sol\":3700:3979  function getAllHospitals() public view returns (Hospital[] memory){\r... */\n      swap1\n      jump\t// out\n        /* \"EHealth.sol\":9427:9692  function getAllSensors() public view returns (Sensor[] memory){\r... */\n    tag_61:\n        /* \"EHealth.sol\":9473:9488  Sensor[] memory */\n      0x60\n        /* \"EHealth.sol\":9500:9519  Sensor[] memory ret */\n      0x00\n        /* \"EHealth.sol\":9535:9548  sensorsDoctor */\n      0x08\n        /* \"EHealth.sol\":9535:9555  sensorsDoctor.length */\n      dup1\n      sload\n      swap1\n      pop\n        /* \"EHealth.sol\":9522:9556  new Sensor[](sensorsDoctor.length) */\n      0xffffffffffffffff\n      dup2\n      gt\n      dup1\n      iszero\n      tag_228\n      jumpi\n      0x00\n      dup1\n      revert\n    tag_228:\n      pop\n      mload(0x40)\n      swap1\n      dup1\n      dup3\n      mstore\n      dup1\n      0x20\n      mul\n      0x20\n      add\n      dup3\n      add\n      0x40\n      mstore\n      dup1\n      iszero\n      tag_229\n      jumpi\n      dup2\n      0x20\n      add\n    tag_230:\n      tag_231\n      tag_232\n      jump\t// in\n    tag_231:\n      dup2\n      mstore\n      0x20\n      add\n      swap1\n      0x01\n      swap1\n      sub\n      swap1\n      dup2\n      tag_230\n      jumpi\n      swap1\n      pop\n    tag_229:\n      pop\n        /* \"EHealth.sol\":9500:9556  Sensor[] memory ret = new Sensor[](sensorsDoctor.length) */\n      swap1\n      pop\n        /* \"EHealth.sol\":9572:9578  uint i */\n      0x00\n        /* \"EHealth.sol\":9567:9664  for (uint i = 0; i< sensorsDoctor.length; i++) {\r... */\n    tag_233:\n        /* \"EHealth.sol\":9587:9600  sensorsDoctor */\n      0x08\n        /* \"EHealth.sol\":9587:9607  sensorsDoctor.length */\n      dup1\n      sload\n      swap1\n      pop\n        /* \"EHealth.sol\":9584:9585  i */\n      dup2\n        /* \"EHealth.sol\":9584:9607  i< sensorsDoctor.length */\n      lt\n        /* \"EHealth.sol\":9567:9664  for (uint i = 0; i< sensorsDoctor.length; i++) {\r... */\n      iszero\n      tag_234\n      jumpi\n        /* \"EHealth.sol\":9636:9649  sensorsDoctor */\n      0x08\n        /* \"EHealth.sol\":9650:9651  i */\n      dup2\n        /* \"EHealth.sol\":9636:9652  sensorsDoctor[i] */\n      dup2\n      sload\n      dup2\n      lt\n      tag_236\n      jumpi\n      invalid\n    tag_236:\n      swap1\n      0x00\n      mstore\n      keccak256(0x00, 0x20)\n      swap1\n      0x04\n      mul\n      add\n        /* \"EHealth.sol\":9629:9652  ret[i]=sensorsDoctor[i] */\n      mload(0x40)\n      dup1\n      0xa0\n      add\n      0x40\n      mstore\n      swap1\n      dup2\n      0x00\n      dup3\n      add\n      sload\n      dup2\n      mstore\n      0x20\n      add\n      0x01\n      dup3\n      add\n      dup1\n      sload\n      0x01\n      dup2\n      0x01\n      and\n      iszero\n      0x0100\n      mul\n      sub\n      and\n      0x02\n      swap1\n      div\n      dup1\n      0x1f\n      add\n      0x20\n      dup1\n      swap2\n      div\n      mul\n      0x20\n      add\n      mload(0x40)\n      swap1\n      dup2\n      add\n      0x40\n      mstore\n      dup1\n      swap3\n      swap2\n      swap1\n      dup2\n      dup2\n      mstore\n      0x20\n      add\n      dup3\n      dup1\n      sload\n      0x01\n      dup2\n      0x01\n      and\n      iszero\n      0x0100\n      mul\n      sub\n      and\n      0x02\n      swap1\n      div\n      dup1\n      iszero\n      tag_238\n      jumpi\n      dup1\n      0x1f\n      lt\n      tag_239\n      jumpi\n      0x0100\n      dup1\n      dup4\n      sload\n      div\n      mul\n      dup4\n      mstore\n      swap2\n      0x20\n      add\n      swap2\n      jump(tag_238)\n    tag_239:\n      dup3\n      add\n      swap2\n      swap1\n      0x00\n      mstore\n      keccak256(0x00, 0x20)\n      swap1\n    tag_240:\n      dup2\n      sload\n      dup2\n      mstore\n      swap1\n      0x01\n      add\n      swap1\n      0x20\n      add\n      dup1\n      dup4\n      gt\n      tag_240\n      jumpi\n      dup3\n      swap1\n      sub\n      0x1f\n      and\n      dup3\n      add\n      swap2\n    tag_238:\n      pop\n      pop\n      pop\n      pop\n      pop\n      dup2\n      mstore\n      0x20\n      add\n      0x02\n      dup3\n      add\n      dup1\n      sload\n      0x01\n      dup2\n      0x01\n      and\n      iszero\n      0x0100\n      mul\n      sub\n      and\n      0x02\n      swap1\n      div\n      dup1\n      0x1f\n      add\n      0x20\n      dup1\n      swap2\n      div\n      mul\n      0x20\n      add\n      mload(0x40)\n      swap1\n      dup2\n      add\n      0x40\n      mstore\n      dup1\n      swap3\n      swap2\n      swap1\n      dup2\n      dup2\n      mstore\n      0x20\n      add\n      dup3\n      dup1\n      sload\n      0x01\n      dup2\n      0x01\n      and\n      iszero\n      0x0100\n      mul\n      sub\n      and\n      0x02\n      swap1\n      div\n      dup1\n      iszero\n      tag_241\n      jumpi\n      dup1\n      0x1f\n      lt\n      tag_242\n      jumpi\n      0x0100\n      dup1\n      dup4\n      sload\n      div\n      mul\n      dup4\n      mstore\n      swap2\n      0x20\n      add\n      swap2\n      jump(tag_241)\n    tag_242:\n      dup3\n      add\n      swap2\n      swap1\n      0x00\n      mstore\n      keccak256(0x00, 0x20)\n      swap1\n    tag_243:\n      dup2\n      sload\n      dup2\n      mstore\n      swap1\n      0x01\n      add\n      swap1\n      0x20\n      add\n      dup1\n      dup4\n      gt\n      tag_243\n      jumpi\n      dup3\n      swap1\n      sub\n      0x1f\n      and\n      dup3\n      add\n      swap2\n    tag_241:\n      pop\n      pop\n      pop\n      pop\n      pop\n      dup2\n      mstore\n      0x20\n      add\n      0x03\n      dup3\n      add\n      0x00\n      swap1\n      sload\n      swap1\n      0x0100\n      exp\n      swap1\n      div\n      0xffffffffffffffffffffffffffffffffffffffff\n      and\n      0xffffffffffffffffffffffffffffffffffffffff\n      and\n      0xffffffffffffffffffffffffffffffffffffffff\n      and\n      dup2\n      mstore\n      0x20\n      add\n      0x03\n      dup3\n      add\n      0x14\n      swap1\n      sload\n      swap1\n      0x0100\n      exp\n      swap1\n      div\n      0xff\n      and\n      iszero\n      iszero\n      iszero\n      iszero\n      dup2\n      mstore\n      pop\n      pop\n        /* \"EHealth.sol\":9629:9632  ret */\n      dup3\n        /* \"EHealth.sol\":9633:9634  i */\n      dup3\n        /* \"EHealth.sol\":9629:9635  ret[i] */\n      dup2\n      mload\n      dup2\n      lt\n      tag_244\n      jumpi\n      invalid\n    tag_244:\n      0x20\n      mul\n      0x20\n      add\n      add\n        /* \"EHealth.sol\":9629:9652  ret[i]=sensorsDoctor[i] */\n      dup2\n      swap1\n      mstore\n      pop\n        /* \"EHealth.sol\":9609:9612  i++ */\n      dup1\n      dup1\n      0x01\n      add\n      swap2\n      pop\n      pop\n        /* \"EHealth.sol\":9567:9664  for (uint i = 0; i< sensorsDoctor.length; i++) {\r... */\n      jump(tag_233)\n    tag_234:\n      pop\n        /* \"EHealth.sol\":9681:9684  ret */\n      dup1\n        /* \"EHealth.sol\":9674:9684  return ret */\n      swap2\n      pop\n      pop\n        /* \"EHealth.sol\":9427:9692  function getAllSensors() public view returns (Sensor[] memory){\r... */\n      swap1\n      jump\t// out\n        /* \"EHealth.sol\":5627:6146  function UpdateDoctor(address _id, string memory _nameDoctor, address _hospital ,bool _permission) public {\r... */\n    tag_67:\n        /* \"EHealth.sol\":5744:5754  uint index */\n      0x00\n        /* \"EHealth.sol\":5757:5772  FindDoctor(_id) */\n      tag_246\n        /* \"EHealth.sol\":5768:5771  _id */\n      dup6\n        /* \"EHealth.sol\":5757:5767  FindDoctor */\n      tag_160\n        /* \"EHealth.sol\":5757:5772  FindDoctor(_id) */\n      jump\t// in\n    tag_246:\n        /* \"EHealth.sol\":5744:5772  uint index = FindDoctor(_id) */\n      swap1\n      pop\n        /* \"EHealth.sol\":5817:5828  _nameDoctor */\n      dup4\n        /* \"EHealth.sol\":5783:5798  doctorsHospital */\n      0x06\n        /* \"EHealth.sol\":5799:5804  index */\n      dup3\n        /* \"EHealth.sol\":5783:5805  doctorsHospital[index] */\n      dup2\n      sload\n      dup2\n      lt\n      tag_247\n      jumpi\n      invalid\n    tag_247:\n      swap1\n      0x00\n      mstore\n      keccak256(0x00, 0x20)\n      swap1\n      0x03\n      mul\n      add\n        /* \"EHealth.sol\":5783:5816  doctorsHospital[index].nameDoctor */\n      0x01\n      add\n        /* \"EHealth.sol\":5783:5828  doctorsHospital[index].nameDoctor=_nameDoctor */\n      swap1\n      dup1\n      mload\n      swap1\n      0x20\n      add\n      swap1\n      tag_249\n      swap3\n      swap2\n      swap1\n      tag_163\n      jump\t// in\n    tag_249:\n      pop\n        /* \"EHealth.sol\":5871:5880  _hospital */\n      dup3\n        /* \"EHealth.sol\":5839:5854  doctorsHospital */\n      0x06\n        /* \"EHealth.sol\":5855:5860  index */\n      dup3\n        /* \"EHealth.sol\":5839:5861  doctorsHospital[index] */\n      dup2\n      sload\n      dup2\n      lt\n      tag_250\n      jumpi\n      invalid\n    tag_250:\n      swap1\n      0x00\n      mstore\n      keccak256(0x00, 0x20)\n      swap1\n      0x03\n      mul\n      add\n        /* \"EHealth.sol\":5839:5870  doctorsHospital[index].hospital */\n      0x02\n      add\n      0x00\n        /* \"EHealth.sol\":5839:5880  doctorsHospital[index].hospital=_hospital */\n      0x0100\n      exp\n      dup2\n      sload\n      dup2\n      0xffffffffffffffffffffffffffffffffffffffff\n      mul\n      not\n      and\n      swap1\n      dup4\n      0xffffffffffffffffffffffffffffffffffffffff\n      and\n      mul\n      or\n      swap1\n      sstore\n      pop\n        /* \"EHealth.sol\":5925:5936  _permission */\n      dup2\n        /* \"EHealth.sol\":5891:5906  doctorsHospital */\n      0x06\n        /* \"EHealth.sol\":5907:5912  index */\n      dup3\n        /* \"EHealth.sol\":5891:5913  doctorsHospital[index] */\n      dup2\n      sload\n      dup2\n      lt\n      tag_252\n      jumpi\n      invalid\n    tag_252:\n      swap1\n      0x00\n      mstore\n      keccak256(0x00, 0x20)\n      swap1\n      0x03\n      mul\n      add\n        /* \"EHealth.sol\":5891:5924  doctorsHospital[index].permission */\n      0x02\n      add\n      0x14\n        /* \"EHealth.sol\":5891:5936  doctorsHospital[index].permission=_permission */\n      0x0100\n      exp\n      dup2\n      sload\n      dup2\n      0xff\n      mul\n      not\n      and\n      swap1\n      dup4\n      iszero\n      iszero\n      mul\n      or\n      swap1\n      sstore\n      pop\n        /* \"EHealth.sol\":5952:6138  RefreshDoctor(doctorsHospital[index].idDoctor,\r... */\n      0x6fcbc4a02269ac36204ac7e60c4cf625c6fc2b2365cac750c9927b670e347f90\n        /* \"EHealth.sol\":5966:5981  doctorsHospital */\n      0x06\n        /* \"EHealth.sol\":5982:5987  index */\n      dup3\n        /* \"EHealth.sol\":5966:5988  doctorsHospital[index] */\n      dup2\n      sload\n      dup2\n      lt\n      tag_254\n      jumpi\n      invalid\n    tag_254:\n      swap1\n      0x00\n      mstore\n      keccak256(0x00, 0x20)\n      swap1\n      0x03\n      mul\n      add\n        /* \"EHealth.sol\":5966:5997  doctorsHospital[index].idDoctor */\n      0x00\n      add\n      0x00\n      swap1\n      sload\n      swap1\n      0x0100\n      exp\n      swap1\n      div\n      0xffffffffffffffffffffffffffffffffffffffff\n      and\n        /* \"EHealth.sol\":6008:6023  doctorsHospital */\n      0x06\n        /* \"EHealth.sol\":6024:6029  index */\n      dup4\n        /* \"EHealth.sol\":6008:6030  doctorsHospital[index] */\n      dup2\n      sload\n      dup2\n      lt\n      tag_256\n      jumpi\n      invalid\n    tag_256:\n      swap1\n      0x00\n      mstore\n      keccak256(0x00, 0x20)\n      swap1\n      0x03\n      mul\n      add\n        /* \"EHealth.sol\":6008:6041  doctorsHospital[index].nameDoctor */\n      0x01\n      add\n        /* \"EHealth.sol\":6052:6067  doctorsHospital */\n      0x06\n        /* \"EHealth.sol\":6068:6073  index */\n      dup5\n        /* \"EHealth.sol\":6052:6074  doctorsHospital[index] */\n      dup2\n      sload\n      dup2\n      lt\n      tag_258\n      jumpi\n      invalid\n    tag_258:\n      swap1\n      0x00\n      mstore\n      keccak256(0x00, 0x20)\n      swap1\n      0x03\n      mul\n      add\n        /* \"EHealth.sol\":6052:6083  doctorsHospital[index].hospital */\n      0x02\n      add\n      0x00\n      swap1\n      sload\n      swap1\n      0x0100\n      exp\n      swap1\n      div\n      0xffffffffffffffffffffffffffffffffffffffff\n      and\n        /* \"EHealth.sol\":6094:6109  doctorsHospital */\n      0x06\n        /* \"EHealth.sol\":6110:6115  index */\n      dup6\n        /* \"EHealth.sol\":6094:6116  doctorsHospital[index] */\n      dup2\n      sload\n      dup2\n      lt\n      tag_260\n      jumpi\n      invalid\n    tag_260:\n      swap1\n      0x00\n      mstore\n      keccak256(0x00, 0x20)\n      swap1\n      0x03\n      mul\n      add\n        /* \"EHealth.sol\":6094:6127  doctorsHospital[index].permission */\n      0x02\n      add\n      0x14\n      swap1\n      sload\n      swap1\n      0x0100\n      exp\n      swap1\n      div\n      0xff\n      and\n        /* \"EHealth.sol\":5952:6138  RefreshDoctor(doctorsHospital[index].idDoctor,\r... */\n      mload(0x40)\n      tag_262\n      swap5\n      swap4\n      swap3\n      swap2\n      swap1\n      tag_263\n      jump\t// in\n    tag_262:\n      mload(0x40)\n      dup1\n      swap2\n      sub\n      swap1\n      log1\n        /* \"EHealth.sol\":5627:6146  function UpdateDoctor(address _id, string memory _nameDoctor, address _hospital ,bool _permission) public {\r... */\n      pop\n      pop\n      pop\n      pop\n      pop\n      jump\t// out\n        /* \"EHealth.sol\":8098:8443  function RemoveSensor(uint _id) public {\r... */\n    tag_70:\n        /* \"EHealth.sol\":8148:8158  uint index */\n      0x00\n        /* \"EHealth.sol\":8161:8176  FindSensor(_id) */\n      tag_265\n        /* \"EHealth.sol\":8172:8175  _id */\n      dup3\n        /* \"EHealth.sol\":8161:8171  FindSensor */\n      tag_143\n        /* \"EHealth.sol\":8161:8176  FindSensor(_id) */\n      jump\t// in\n    tag_265:\n        /* \"EHealth.sol\":8148:8176  uint index = FindSensor(_id) */\n      swap1\n      pop\n        /* \"EHealth.sol\":8215:8220  false */\n      0x00\n        /* \"EHealth.sol\":8187:8200  sensorsDoctor */\n      0x08\n        /* \"EHealth.sol\":8201:8206  index */\n      dup3\n        /* \"EHealth.sol\":8187:8207  sensorsDoctor[index] */\n      dup2\n      sload\n      dup2\n      lt\n      tag_266\n      jumpi\n      invalid\n    tag_266:\n      swap1\n      0x00\n      mstore\n      keccak256(0x00, 0x20)\n      swap1\n      0x04\n      mul\n      add\n        /* \"EHealth.sol\":8187:8214  sensorsDoctor[index].active */\n      0x03\n      add\n      0x14\n        /* \"EHealth.sol\":8187:8220  sensorsDoctor[index].active=false */\n      0x0100\n      exp\n      dup2\n      sload\n      dup2\n      0xff\n      mul\n      not\n      and\n      swap1\n      dup4\n      iszero\n      iszero\n      mul\n      or\n      swap1\n      sstore\n      pop\n        /* \"EHealth.sol\":8236:8435  DeleteSensor(sensorsDoctor[index].idSensor,\r... */\n      0xef9006907eb20210e880b0bb1c39946083bcec24688718507d63a259ffa8351b\n        /* \"EHealth.sol\":8249:8262  sensorsDoctor */\n      0x08\n        /* \"EHealth.sol\":8263:8268  index */\n      dup3\n        /* \"EHealth.sol\":8249:8269  sensorsDoctor[index] */\n      dup2\n      sload\n      dup2\n      lt\n      tag_268\n      jumpi\n      invalid\n    tag_268:\n      swap1\n      0x00\n      mstore\n      keccak256(0x00, 0x20)\n      swap1\n      0x04\n      mul\n      add\n        /* \"EHealth.sol\":8249:8278  sensorsDoctor[index].idSensor */\n      0x00\n      add\n      sload\n        /* \"EHealth.sol\":8289:8302  sensorsDoctor */\n      0x08\n        /* \"EHealth.sol\":8303:8308  index */\n      dup4\n        /* \"EHealth.sol\":8289:8309  sensorsDoctor[index] */\n      dup2\n      sload\n      dup2\n      lt\n      tag_270\n      jumpi\n      invalid\n    tag_270:\n      swap1\n      0x00\n      mstore\n      keccak256(0x00, 0x20)\n      swap1\n      0x04\n      mul\n      add\n        /* \"EHealth.sol\":8289:8313  sensorsDoctor[index].MAC */\n      0x01\n      add\n        /* \"EHealth.sol\":8324:8337  sensorsDoctor */\n      0x08\n        /* \"EHealth.sol\":8338:8343  index */\n      dup5\n        /* \"EHealth.sol\":8324:8344  sensorsDoctor[index] */\n      dup2\n      sload\n      dup2\n      lt\n      tag_272\n      jumpi\n      invalid\n    tag_272:\n      swap1\n      0x00\n      mstore\n      keccak256(0x00, 0x20)\n      swap1\n      0x04\n      mul\n      add\n        /* \"EHealth.sol\":8324:8356  sensorsDoctor[index].patientName */\n      0x02\n      add\n        /* \"EHealth.sol\":8367:8380  sensorsDoctor */\n      0x08\n        /* \"EHealth.sol\":8381:8386  index */\n      dup6\n        /* \"EHealth.sol\":8367:8387  sensorsDoctor[index] */\n      dup2\n      sload\n      dup2\n      lt\n      tag_274\n      jumpi\n      invalid\n    tag_274:\n      swap1\n      0x00\n      mstore\n      keccak256(0x00, 0x20)\n      swap1\n      0x04\n      mul\n      add\n        /* \"EHealth.sol\":8367:8396  sensorsDoctor[index].idDoctor */\n      0x03\n      add\n      0x00\n      swap1\n      sload\n      swap1\n      0x0100\n      exp\n      swap1\n      div\n      0xffffffffffffffffffffffffffffffffffffffff\n      and\n        /* \"EHealth.sol\":8407:8420  sensorsDoctor */\n      0x08\n        /* \"EHealth.sol\":8421:8426  index */\n      dup7\n        /* \"EHealth.sol\":8407:8427  sensorsDoctor[index] */\n      dup2\n      sload\n      dup2\n      lt\n      tag_276\n      jumpi\n      invalid\n    tag_276:\n      swap1\n      0x00\n      mstore\n      keccak256(0x00, 0x20)\n      swap1\n      0x04\n      mul\n      add\n        /* \"EHealth.sol\":8407:8434  sensorsDoctor[index].active */\n      0x03\n      add\n      0x14\n      swap1\n      sload\n      swap1\n      0x0100\n      exp\n      swap1\n      div\n      0xff\n      and\n        /* \"EHealth.sol\":8236:8435  DeleteSensor(sensorsDoctor[index].idSensor,\r... */\n      mload(0x40)\n      tag_278\n      swap6\n      swap5\n      swap4\n      swap3\n      swap2\n      swap1\n      tag_279\n      jump\t// in\n    tag_278:\n      mload(0x40)\n      dup1\n      swap2\n      sub\n      swap1\n      log1\n        /* \"EHealth.sol\":8098:8443  function RemoveSensor(uint _id) public {\r... */\n      pop\n      pop\n      jump\t// out\n        /* \"EHealth.sol\":6179:6426  function ReadDoctor(address _id)public view returns(string memory, address, bool){\r... */\n    tag_73:\n        /* \"EHealth.sol\":6231:6244  string memory */\n      0x60\n        /* \"EHealth.sol\":6246:6253  address */\n      0x00\n        /* \"EHealth.sol\":6255:6259  bool */\n      dup1\n        /* \"EHealth.sol\":6271:6281  uint index */\n      0x00\n        /* \"EHealth.sol\":6284:6299  FindDoctor(_id) */\n      tag_281\n        /* \"EHealth.sol\":6295:6298  _id */\n      dup6\n        /* \"EHealth.sol\":6284:6294  FindDoctor */\n      tag_160\n        /* \"EHealth.sol\":6284:6299  FindDoctor(_id) */\n      jump\t// in\n    tag_281:\n        /* \"EHealth.sol\":6271:6299  uint index = FindDoctor(_id) */\n      swap1\n      pop\n        /* \"EHealth.sol\":6318:6333  doctorsHospital */\n      0x06\n        /* \"EHealth.sol\":6334:6339  index */\n      dup2\n        /* \"EHealth.sol\":6318:6340  doctorsHospital[index] */\n      dup2\n      sload\n      dup2\n      lt\n      tag_282\n      jumpi\n      invalid\n    tag_282:\n      swap1\n      0x00\n      mstore\n      keccak256(0x00, 0x20)\n      swap1\n      0x03\n      mul\n      add\n        /* \"EHealth.sol\":6318:6351  doctorsHospital[index].nameDoctor */\n      0x01\n      add\n        /* \"EHealth.sol\":6352:6367  doctorsHospital */\n      0x06\n        /* \"EHealth.sol\":6368:6373  index */\n      dup3\n        /* \"EHealth.sol\":6352:6374  doctorsHospital[index] */\n      dup2\n      sload\n      dup2\n      lt\n      tag_284\n      jumpi\n      invalid\n    tag_284:\n      swap1\n      0x00\n      mstore\n      keccak256(0x00, 0x20)\n      swap1\n      0x03\n      mul\n      add\n        /* \"EHealth.sol\":6352:6383  doctorsHospital[index].hospital */\n      0x02\n      add\n      0x00\n      swap1\n      sload\n      swap1\n      0x0100\n      exp\n      swap1\n      div\n      0xffffffffffffffffffffffffffffffffffffffff\n      and\n        /* \"EHealth.sol\":6384:6399  doctorsHospital */\n      0x06\n        /* \"EHealth.sol\":6400:6405  index */\n      dup4\n        /* \"EHealth.sol\":6384:6406  doctorsHospital[index] */\n      dup2\n      sload\n      dup2\n      lt\n      tag_286\n      jumpi\n      invalid\n    tag_286:\n      swap1\n      0x00\n      mstore\n      keccak256(0x00, 0x20)\n      swap1\n      0x03\n      mul\n      add\n        /* \"EHealth.sol\":6384:6417  doctorsHospital[index].permission */\n      0x02\n      add\n      0x14\n      swap1\n      sload\n      swap1\n      0x0100\n      exp\n      swap1\n      div\n      0xff\n      and\n        /* \"EHealth.sol\":6310:6418  return (doctorsHospital[index].nameDoctor,doctorsHospital[index].hospital,doctorsHospital[index].permission) */\n      dup3\n      dup1\n      sload\n      0x01\n      dup2\n      0x01\n      and\n      iszero\n      0x0100\n      mul\n      sub\n      and\n      0x02\n      swap1\n      div\n      dup1\n      0x1f\n      add\n      0x20\n      dup1\n      swap2\n      div\n      mul\n      0x20\n      add\n      mload(0x40)\n      swap1\n      dup2\n      add\n      0x40\n      mstore\n      dup1\n      swap3\n      swap2\n      swap1\n      dup2\n      dup2\n      mstore\n      0x20\n      add\n      dup3\n      dup1\n      sload\n      0x01\n      dup2\n      0x01\n      and\n      iszero\n      0x0100\n      mul\n      sub\n      and\n      0x02\n      swap1\n      div\n      dup1\n      iszero\n      tag_288\n      jumpi\n      dup1\n      0x1f\n      lt\n      tag_289\n      jumpi\n      0x0100\n      dup1\n      dup4\n      sload\n      div\n      mul\n      dup4\n      mstore\n      swap2\n      0x20\n      add\n      swap2\n      jump(tag_288)\n    tag_289:\n      dup3\n      add\n      swap2\n      swap1\n      0x00\n      mstore\n      keccak256(0x00, 0x20)\n      swap1\n    tag_290:\n      dup2\n      sload\n      dup2\n      mstore\n      swap1\n      0x01\n      add\n      swap1\n      0x20\n      add\n      dup1\n      dup4\n      gt\n      tag_290\n      jumpi\n      dup3\n      swap1\n      sub\n      0x1f\n      and\n      dup3\n      add\n      swap2\n    tag_288:\n      pop\n      pop\n      pop\n      pop\n      pop\n      swap3\n      pop\n      swap4\n      pop\n      swap4\n      pop\n      swap4\n      pop\n      pop\n        /* \"EHealth.sol\":6179:6426  function ReadDoctor(address _id)public view returns(string memory, address, bool){\r... */\n      swap2\n      swap4\n      swap1\n      swap3\n      pop\n      jump\t// out\n        /* \"EHealth.sol\":2934:3667  function UpdateHospital(address _address, string memory _name, string memory _city, string memory _state, uint _postalCode, bool _permission ) public {\r... */\n    tag_79:\n        /* \"EHealth.sol\":3095:3105  uint index */\n      0x00\n        /* \"EHealth.sol\":3108:3130  FindHospital(_address) */\n      tag_292\n        /* \"EHealth.sol\":3121:3129  _address */\n      dup8\n        /* \"EHealth.sol\":3108:3120  FindHospital */\n      tag_189\n        /* \"EHealth.sol\":3108:3130  FindHospital(_address) */\n      jump\t// in\n    tag_292:\n        /* \"EHealth.sol\":3095:3130  uint index = FindHospital(_address) */\n      swap1\n      pop\n        /* \"EHealth.sol\":3169:3174  _name */\n      dup6\n        /* \"EHealth.sol\":3141:3156  hospitalCenters */\n      0x04\n        /* \"EHealth.sol\":3157:3162  index */\n      dup3\n        /* \"EHealth.sol\":3141:3163  hospitalCenters[index] */\n      dup2\n      sload\n      dup2\n      lt\n      tag_293\n      jumpi\n      invalid\n    tag_293:\n      swap1\n      0x00\n      mstore\n      keccak256(0x00, 0x20)\n      swap1\n      0x06\n      mul\n      add\n        /* \"EHealth.sol\":3141:3168  hospitalCenters[index].name */\n      0x01\n      add\n        /* \"EHealth.sol\":3141:3174  hospitalCenters[index].name=_name */\n      swap1\n      dup1\n      mload\n      swap1\n      0x20\n      add\n      swap1\n      tag_295\n      swap3\n      swap2\n      swap1\n      tag_163\n      jump\t// in\n    tag_295:\n      pop\n        /* \"EHealth.sol\":3213:3218  _city */\n      dup5\n        /* \"EHealth.sol\":3185:3200  hospitalCenters */\n      0x04\n        /* \"EHealth.sol\":3201:3206  index */\n      dup3\n        /* \"EHealth.sol\":3185:3207  hospitalCenters[index] */\n      dup2\n      sload\n      dup2\n      lt\n      tag_296\n      jumpi\n      invalid\n    tag_296:\n      swap1\n      0x00\n      mstore\n      keccak256(0x00, 0x20)\n      swap1\n      0x06\n      mul\n      add\n        /* \"EHealth.sol\":3185:3212  hospitalCenters[index].city */\n      0x02\n      add\n        /* \"EHealth.sol\":3185:3218  hospitalCenters[index].city=_city */\n      swap1\n      dup1\n      mload\n      swap1\n      0x20\n      add\n      swap1\n      tag_298\n      swap3\n      swap2\n      swap1\n      tag_163\n      jump\t// in\n    tag_298:\n      pop\n        /* \"EHealth.sol\":3258:3264  _state */\n      dup4\n        /* \"EHealth.sol\":3229:3244  hospitalCenters */\n      0x04\n        /* \"EHealth.sol\":3245:3250  index */\n      dup3\n        /* \"EHealth.sol\":3229:3251  hospitalCenters[index] */\n      dup2\n      sload\n      dup2\n      lt\n      tag_299\n      jumpi\n      invalid\n    tag_299:\n      swap1\n      0x00\n      mstore\n      keccak256(0x00, 0x20)\n      swap1\n      0x06\n      mul\n      add\n        /* \"EHealth.sol\":3229:3257  hospitalCenters[index].state */\n      0x03\n      add\n        /* \"EHealth.sol\":3229:3264  hospitalCenters[index].state=_state */\n      swap1\n      dup1\n      mload\n      swap1\n      0x20\n      add\n      swap1\n      tag_301\n      swap3\n      swap2\n      swap1\n      tag_163\n      jump\t// in\n    tag_301:\n      pop\n        /* \"EHealth.sol\":3309:3320  _postalCode */\n      dup3\n        /* \"EHealth.sol\":3275:3290  hospitalCenters */\n      0x04\n        /* \"EHealth.sol\":3291:3296  index */\n      dup3\n        /* \"EHealth.sol\":3275:3297  hospitalCenters[index] */\n      dup2\n      sload\n      dup2\n      lt\n      tag_302\n      jumpi\n      invalid\n    tag_302:\n      swap1\n      0x00\n      mstore\n      keccak256(0x00, 0x20)\n      swap1\n      0x06\n      mul\n      add\n        /* \"EHealth.sol\":3275:3308  hospitalCenters[index].postalCode */\n      0x04\n      add\n        /* \"EHealth.sol\":3275:3320  hospitalCenters[index].postalCode=_postalCode */\n      dup2\n      swap1\n      sstore\n      pop\n        /* \"EHealth.sol\":3365:3376  _permission */\n      dup2\n        /* \"EHealth.sol\":3331:3346  hospitalCenters */\n      0x04\n        /* \"EHealth.sol\":3347:3352  index */\n      dup3\n        /* \"EHealth.sol\":3331:3353  hospitalCenters[index] */\n      dup2\n      sload\n      dup2\n      lt\n      tag_304\n      jumpi\n      invalid\n    tag_304:\n      swap1\n      0x00\n      mstore\n      keccak256(0x00, 0x20)\n      swap1\n      0x06\n      mul\n      add\n        /* \"EHealth.sol\":3331:3364  hospitalCenters[index].permission */\n      0x05\n      add\n      0x00\n        /* \"EHealth.sol\":3331:3376  hospitalCenters[index].permission=_permission */\n      0x0100\n      exp\n      dup2\n      sload\n      dup2\n      0xff\n      mul\n      not\n      and\n      swap1\n      dup4\n      iszero\n      iszero\n      mul\n      or\n      swap1\n      sstore\n      pop\n        /* \"EHealth.sol\":3392:3659  RefreshHospital(hospitalCenters[index].idHospital, \r... */\n      0x5975e6fed8802a324436eb320387035d99d011c9901bb75b34b8c23b91250c1c\n        /* \"EHealth.sol\":3408:3423  hospitalCenters */\n      0x04\n        /* \"EHealth.sol\":3424:3429  index */\n      dup3\n        /* \"EHealth.sol\":3408:3430  hospitalCenters[index] */\n      dup2\n      sload\n      dup2\n      lt\n      tag_306\n      jumpi\n      invalid\n    tag_306:\n      swap1\n      0x00\n      mstore\n      keccak256(0x00, 0x20)\n      swap1\n      0x06\n      mul\n      add\n        /* \"EHealth.sol\":3408:3441  hospitalCenters[index].idHospital */\n      0x00\n      add\n      0x00\n      swap1\n      sload\n      swap1\n      0x0100\n      exp\n      swap1\n      div\n      0xffffffffffffffffffffffffffffffffffffffff\n      and\n        /* \"EHealth.sol\":3453:3468  hospitalCenters */\n      0x04\n        /* \"EHealth.sol\":3469:3474  index */\n      dup4\n        /* \"EHealth.sol\":3453:3475  hospitalCenters[index] */\n      dup2\n      sload\n      dup2\n      lt\n      tag_308\n      jumpi\n      invalid\n    tag_308:\n      swap1\n      0x00\n      mstore\n      keccak256(0x00, 0x20)\n      swap1\n      0x06\n      mul\n      add\n        /* \"EHealth.sol\":3453:3480  hospitalCenters[index].name */\n      0x01\n      add\n        /* \"EHealth.sol\":3492:3507  hospitalCenters */\n      0x04\n        /* \"EHealth.sol\":3508:3513  index */\n      dup5\n        /* \"EHealth.sol\":3492:3514  hospitalCenters[index] */\n      dup2\n      sload\n      dup2\n      lt\n      tag_310\n      jumpi\n      invalid\n    tag_310:\n      swap1\n      0x00\n      mstore\n      keccak256(0x00, 0x20)\n      swap1\n      0x06\n      mul\n      add\n        /* \"EHealth.sol\":3492:3519  hospitalCenters[index].city */\n      0x02\n      add\n        /* \"EHealth.sol\":3531:3546  hospitalCenters */\n      0x04\n        /* \"EHealth.sol\":3547:3552  index */\n      dup6\n        /* \"EHealth.sol\":3531:3553  hospitalCenters[index] */\n      dup2\n      sload\n      dup2\n      lt\n      tag_312\n      jumpi\n      invalid\n    tag_312:\n      swap1\n      0x00\n      mstore\n      keccak256(0x00, 0x20)\n      swap1\n      0x06\n      mul\n      add\n        /* \"EHealth.sol\":3531:3559  hospitalCenters[index].state */\n      0x03\n      add\n        /* \"EHealth.sol\":3571:3586  hospitalCenters */\n      0x04\n        /* \"EHealth.sol\":3587:3592  index */\n      dup7\n        /* \"EHealth.sol\":3571:3593  hospitalCenters[index] */\n      dup2\n      sload\n      dup2\n      lt\n      tag_314\n      jumpi\n      invalid\n    tag_314:\n      swap1\n      0x00\n      mstore\n      keccak256(0x00, 0x20)\n      swap1\n      0x06\n      mul\n      add\n        /* \"EHealth.sol\":3571:3604  hospitalCenters[index].postalCode */\n      0x04\n      add\n      sload\n        /* \"EHealth.sol\":3615:3630  hospitalCenters */\n      0x04\n        /* \"EHealth.sol\":3631:3636  index */\n      dup8\n        /* \"EHealth.sol\":3615:3637  hospitalCenters[index] */\n      dup2\n      sload\n      dup2\n      lt\n      tag_316\n      jumpi\n      invalid\n    tag_316:\n      swap1\n      0x00\n      mstore\n      keccak256(0x00, 0x20)\n      swap1\n      0x06\n      mul\n      add\n        /* \"EHealth.sol\":3615:3648  hospitalCenters[index].permission */\n      0x05\n      add\n      0x00\n      swap1\n      sload\n      swap1\n      0x0100\n      exp\n      swap1\n      div\n      0xff\n      and\n        /* \"EHealth.sol\":3392:3659  RefreshHospital(hospitalCenters[index].idHospital, \r... */\n      mload(0x40)\n      tag_318\n      swap7\n      swap6\n      swap5\n      swap4\n      swap3\n      swap2\n      swap1\n      tag_205\n      jump\t// in\n    tag_318:\n      mload(0x40)\n      dup1\n      swap2\n      sub\n      swap1\n      log1\n        /* \"EHealth.sol\":2934:3667  function UpdateHospital(address _address, string memory _name, string memory _city, string memory _state, uint _postalCode, bool _permission ) public {\r... */\n      pop\n      pop\n      pop\n      pop\n      pop\n      pop\n      pop\n      jump\t// out\n        /* \"EHealth.sol\":864:904  mapping(address=> Sensor) public Sensors */\n    tag_82:\n      mstore(0x20, 0x07)\n      dup1\n      0x00\n      mstore\n      keccak256(0x00, 0x40)\n      0x00\n      swap2\n      pop\n      swap1\n      pop\n      dup1\n      0x00\n      add\n      sload\n      swap1\n      dup1\n      0x01\n      add\n      dup1\n      sload\n      0x01\n      dup2\n      0x01\n      and\n      iszero\n      0x0100\n      mul\n      sub\n      and\n      0x02\n      swap1\n      div\n      dup1\n      0x1f\n      add\n      0x20\n      dup1\n      swap2\n      div\n      mul\n      0x20\n      add\n      mload(0x40)\n      swap1\n      dup2\n      add\n      0x40\n      mstore\n      dup1\n      swap3\n      swap2\n      swap1\n      dup2\n      dup2\n      mstore\n      0x20\n      add\n      dup3\n      dup1\n      sload\n      0x01\n      dup2\n      0x01\n      and\n      iszero\n      0x0100\n      mul\n      sub\n      and\n      0x02\n      swap1\n      div\n      dup1\n      iszero\n      tag_319\n      jumpi\n      dup1\n      0x1f\n      lt\n      tag_320\n      jumpi\n      0x0100\n      dup1\n      dup4\n      sload\n      div\n      mul\n      dup4\n      mstore\n      swap2\n      0x20\n      add\n      swap2\n      jump(tag_319)\n    tag_320:\n      dup3\n      add\n      swap2\n      swap1\n      0x00\n      mstore\n      keccak256(0x00, 0x20)\n      swap1\n    tag_321:\n      dup2\n      sload\n      dup2\n      mstore\n      swap1\n      0x01\n      add\n      swap1\n      0x20\n      add\n      dup1\n      dup4\n      gt\n      tag_321\n      jumpi\n      dup3\n      swap1\n      sub\n      0x1f\n      and\n      dup3\n      add\n      swap2\n    tag_319:\n      pop\n      pop\n      pop\n      pop\n      pop\n      swap1\n      dup1\n      0x02\n      add\n      dup1\n      sload\n      0x01\n      dup2\n      0x01\n      and\n      iszero\n      0x0100\n      mul\n      sub\n      and\n      0x02\n      swap1\n      div\n      dup1\n      0x1f\n      add\n      0x20\n      dup1\n      swap2\n      div\n      mul\n      0x20\n      add\n      mload(0x40)\n      swap1\n      dup2\n      add\n      0x40\n      mstore\n      dup1\n      swap3\n      swap2\n      swap1\n      dup2\n      dup2\n      mstore\n      0x20\n      add\n      dup3\n      dup1\n      sload\n      0x01\n      dup2\n      0x01\n      and\n      iszero\n      0x0100\n      mul\n      sub\n      and\n      0x02\n      swap1\n      div\n      dup1\n      iszero\n      tag_322\n      jumpi\n      dup1\n      0x1f\n      lt\n      tag_323\n      jumpi\n      0x0100\n      dup1\n      dup4\n      sload\n      div\n      mul\n      dup4\n      mstore\n      swap2\n      0x20\n      add\n      swap2\n      jump(tag_322)\n    tag_323:\n      dup3\n      add\n      swap2\n      swap1\n      0x00\n      mstore\n      keccak256(0x00, 0x20)\n      swap1\n    tag_324:\n      dup2\n      sload\n      dup2\n      mstore\n      swap1\n      0x01\n      add\n      swap1\n      0x20\n      add\n      dup1\n      dup4\n      gt\n      tag_324\n      jumpi\n      dup3\n      swap1\n      sub\n      0x1f\n      and\n      dup3\n      add\n      swap2\n    tag_322:\n      pop\n      pop\n      pop\n      pop\n      pop\n      swap1\n      dup1\n      0x03\n      add\n      0x00\n      swap1\n      sload\n      swap1\n      0x0100\n      exp\n      swap1\n      div\n      0xffffffffffffffffffffffffffffffffffffffff\n      and\n      swap1\n      dup1\n      0x03\n      add\n      0x14\n      swap1\n      sload\n      swap1\n      0x0100\n      exp\n      swap1\n      div\n      0xff\n      and\n      swap1\n      pop\n      dup6\n      jump\t// out\n        /* \"EHealth.sol\":808:839  Doctor[] public doctorsHospital */\n    tag_87:\n      0x06\n      dup2\n      dup2\n      sload\n      dup2\n      lt\n      tag_325\n      jumpi\n      0x00\n      dup1\n      revert\n    tag_325:\n      swap1\n      0x00\n      mstore\n      keccak256(0x00, 0x20)\n      swap1\n      0x03\n      mul\n      add\n      0x00\n      swap2\n      pop\n      swap1\n      pop\n      dup1\n      0x00\n      add\n      0x00\n      swap1\n      sload\n      swap1\n      0x0100\n      exp\n      swap1\n      div\n      0xffffffffffffffffffffffffffffffffffffffff\n      and\n      swap1\n      dup1\n      0x01\n      add\n      dup1\n      sload\n      0x01\n      dup2\n      0x01\n      and\n      iszero\n      0x0100\n      mul\n      sub\n      and\n      0x02\n      swap1\n      div\n      dup1\n      0x1f\n      add\n      0x20\n      dup1\n      swap2\n      div\n      mul\n      0x20\n      add\n      mload(0x40)\n      swap1\n      dup2\n      add\n      0x40\n      mstore\n      dup1\n      swap3\n      swap2\n      swap1\n      dup2\n      dup2\n      mstore\n      0x20\n      add\n      dup3\n      dup1\n      sload\n      0x01\n      dup2\n      0x01\n      and\n      iszero\n      0x0100\n      mul\n      sub\n      and\n      0x02\n      swap1\n      div\n      dup1\n      iszero\n      tag_327\n      jumpi\n      dup1\n      0x1f\n      lt\n      tag_328\n      jumpi\n      0x0100\n      dup1\n      dup4\n      sload\n      div\n      mul\n      dup4\n      mstore\n      swap2\n      0x20\n      add\n      swap2\n      jump(tag_327)\n    tag_328:\n      dup3\n      add\n      swap2\n      swap1\n      0x00\n      mstore\n      keccak256(0x00, 0x20)\n      swap1\n    tag_329:\n      dup2\n      sload\n      dup2\n      mstore\n      swap1\n      0x01\n      add\n      swap1\n      0x20\n      add\n      dup1\n      dup4\n      gt\n      tag_329\n      jumpi\n      dup3\n      swap1\n      sub\n      0x1f\n      and\n      dup3\n      add\n      swap2\n    tag_327:\n      pop\n      pop\n      pop\n      pop\n      pop\n      swap1\n      dup1\n      0x02\n      add\n      0x00\n      swap1\n      sload\n      swap1\n      0x0100\n      exp\n      swap1\n      div\n      0xffffffffffffffffffffffffffffffffffffffff\n      and\n      swap1\n      dup1\n      0x02\n      add\n      0x14\n      swap1\n      sload\n      swap1\n      0x0100\n      exp\n      swap1\n      div\n      0xff\n      and\n      swap1\n      pop\n      dup5\n      jump\t// out\n        /* \"EHealth.sol\":9741:10107  function getAllSensorOfDoctor (address _idDoctor) public view returns (Sensor[] memory){\r... */\n    tag_92:\n        /* \"EHealth.sol\":9812:9827  Sensor[] memory */\n      0x60\n        /* \"EHealth.sol\":9839:9858  Sensor[] memory ret */\n      0x00\n        /* \"EHealth.sol\":9874:9887  sensorsDoctor */\n      0x08\n        /* \"EHealth.sol\":9874:9894  sensorsDoctor.length */\n      dup1\n      sload\n      swap1\n      pop\n        /* \"EHealth.sol\":9861:9895  new Sensor[](sensorsDoctor.length) */\n      0xffffffffffffffff\n      dup2\n      gt\n      dup1\n      iszero\n      tag_331\n      jumpi\n      0x00\n      dup1\n      revert\n    tag_331:\n      pop\n      mload(0x40)\n      swap1\n      dup1\n      dup3\n      mstore\n      dup1\n      0x20\n      mul\n      0x20\n      add\n      dup3\n      add\n      0x40\n      mstore\n      dup1\n      iszero\n      tag_332\n      jumpi\n      dup2\n      0x20\n      add\n    tag_333:\n      tag_334\n      tag_232\n      jump\t// in\n    tag_334:\n      dup2\n      mstore\n      0x20\n      add\n      swap1\n      0x01\n      swap1\n      sub\n      swap1\n      dup2\n      tag_333\n      jumpi\n      swap1\n      pop\n    tag_332:\n      pop\n        /* \"EHealth.sol\":9839:9895  Sensor[] memory ret = new Sensor[](sensorsDoctor.length) */\n      swap1\n      pop\n        /* \"EHealth.sol\":9911:9917  uint i */\n      0x00\n        /* \"EHealth.sol\":9906:10079  for (uint i = 0; i< sensorsDoctor.length; i++) {\r... */\n    tag_335:\n        /* \"EHealth.sol\":9926:9939  sensorsDoctor */\n      0x08\n        /* \"EHealth.sol\":9926:9946  sensorsDoctor.length */\n      dup1\n      sload\n      swap1\n      pop\n        /* \"EHealth.sol\":9923:9924  i */\n      dup2\n        /* \"EHealth.sol\":9923:9946  i< sensorsDoctor.length */\n      lt\n        /* \"EHealth.sol\":9906:10079  for (uint i = 0; i< sensorsDoctor.length; i++) {\r... */\n      iszero\n      tag_336\n      jumpi\n        /* \"EHealth.sol\":9984:9997  sensorsDoctor */\n      0x08\n        /* \"EHealth.sol\":9998:9999  i */\n      dup2\n        /* \"EHealth.sol\":9984:10000  sensorsDoctor[i] */\n      dup2\n      sload\n      dup2\n      lt\n      tag_338\n      jumpi\n      invalid\n    tag_338:\n      swap1\n      0x00\n      mstore\n      keccak256(0x00, 0x20)\n      swap1\n      0x04\n      mul\n      add\n        /* \"EHealth.sol\":9984:10009  sensorsDoctor[i].idDoctor */\n      0x03\n      add\n      0x00\n      swap1\n      sload\n      swap1\n      0x0100\n      exp\n      swap1\n      div\n      0xffffffffffffffffffffffffffffffffffffffff\n      and\n        /* \"EHealth.sol\":9971:10009  _idDoctor == sensorsDoctor[i].idDoctor */\n      0xffffffffffffffffffffffffffffffffffffffff\n      and\n        /* \"EHealth.sol\":9971:9980  _idDoctor */\n      dup5\n        /* \"EHealth.sol\":9971:10009  _idDoctor == sensorsDoctor[i].idDoctor */\n      0xffffffffffffffffffffffffffffffffffffffff\n      and\n      eq\n        /* \"EHealth.sol\":9968:10068  if(_idDoctor == sensorsDoctor[i].idDoctor){\r... */\n      iszero\n      tag_340\n      jumpi\n        /* \"EHealth.sol\":10036:10049  sensorsDoctor */\n      0x08\n        /* \"EHealth.sol\":10050:10051  i */\n      dup2\n        /* \"EHealth.sol\":10036:10052  sensorsDoctor[i] */\n      dup2\n      sload\n      dup2\n      lt\n      tag_341\n      jumpi\n      invalid\n    tag_341:\n      swap1\n      0x00\n      mstore\n      keccak256(0x00, 0x20)\n      swap1\n      0x04\n      mul\n      add\n        /* \"EHealth.sol\":10029:10052  ret[i]=sensorsDoctor[i] */\n      mload(0x40)\n      dup1\n      0xa0\n      add\n      0x40\n      mstore\n      swap1\n      dup2\n      0x00\n      dup3\n      add\n      sload\n      dup2\n      mstore\n      0x20\n      add\n      0x01\n      dup3\n      add\n      dup1\n      sload\n      0x01\n      dup2\n      0x01\n      and\n      iszero\n      0x0100\n      mul\n      sub\n      and\n      0x02\n      swap1\n      div\n      dup1\n      0x1f\n      add\n      0x20\n      dup1\n      swap2\n      div\n      mul\n      0x20\n      add\n      mload(0x40)\n      swap1\n      dup2\n      add\n      0x40\n      mstore\n      dup1\n      swap3\n      swap2\n      swap1\n      dup2\n      dup2\n      mstore\n      0x20\n      add\n      dup3\n      dup1\n      sload\n      0x01\n      dup2\n      0x01\n      and\n      iszero\n      0x0100\n      mul\n      sub\n      and\n      0x02\n      swap1\n      div\n      dup1\n      iszero\n      tag_343\n      jumpi\n      dup1\n      0x1f\n      lt\n      tag_344\n      jumpi\n      0x0100\n      dup1\n      dup4\n      sload\n      div\n      mul\n      dup4\n      mstore\n      swap2\n      0x20\n      add\n      swap2\n      jump(tag_343)\n    tag_344:\n      dup3\n      add\n      swap2\n      swap1\n      0x00\n      mstore\n      keccak256(0x00, 0x20)\n      swap1\n    tag_345:\n      dup2\n      sload\n      dup2\n      mstore\n      swap1\n      0x01\n      add\n      swap1\n      0x20\n      add\n      dup1\n      dup4\n      gt\n      tag_345\n      jumpi\n      dup3\n      swap1\n      sub\n      0x1f\n      and\n      dup3\n      add\n      swap2\n    tag_343:\n      pop\n      pop\n      pop\n      pop\n      pop\n      dup2\n      mstore\n      0x20\n      add\n      0x02\n      dup3\n      add\n      dup1\n      sload\n      0x01\n      dup2\n      0x01\n      and\n      iszero\n      0x0100\n      mul\n      sub\n      and\n      0x02\n      swap1\n      div\n      dup1\n      0x1f\n      add\n      0x20\n      dup1\n      swap2\n      div\n      mul\n      0x20\n      add\n      mload(0x40)\n      swap1\n      dup2\n      add\n      0x40\n      mstore\n      dup1\n      swap3\n      swap2\n      swap1\n      dup2\n      dup2\n      mstore\n      0x20\n      add\n      dup3\n      dup1\n      sload\n      0x01\n      dup2\n      0x01\n      and\n      iszero\n      0x0100\n      mul\n      sub\n      and\n      0x02\n      swap1\n      div\n      dup1\n      iszero\n      tag_346\n      jumpi\n      dup1\n      0x1f\n      lt\n      tag_347\n      jumpi\n      0x0100\n      dup1\n      dup4\n      sload\n      div\n      mul\n      dup4\n      mstore\n      swap2\n      0x20\n      add\n      swap2\n      jump(tag_346)\n    tag_347:\n      dup3\n      add\n      swap2\n      swap1\n      0x00\n      mstore\n      keccak256(0x00, 0x20)\n      swap1\n    tag_348:\n      dup2\n      sload\n      dup2\n      mstore\n      swap1\n      0x01\n      add\n      swap1\n      0x20\n      add\n      dup1\n      dup4\n      gt\n      tag_348\n      jumpi\n      dup3\n      swap1\n      sub\n      0x1f\n      and\n      dup3\n      add\n      swap2\n    tag_346:\n      pop\n      pop\n      pop\n      pop\n      pop\n      dup2\n      mstore\n      0x20\n      add\n      0x03\n      dup3\n      add\n      0x00\n      swap1\n      sload\n      swap1\n      0x0100\n      exp\n      swap1\n      div\n      0xffffffffffffffffffffffffffffffffffffffff\n      and\n      0xffffffffffffffffffffffffffffffffffffffff\n      and\n      0xffffffffffffffffffffffffffffffffffffffff\n      and\n      dup2\n      mstore\n      0x20\n      add\n      0x03\n      dup3\n      add\n      0x14\n      swap1\n      sload\n      swap1\n      0x0100\n      exp\n      swap1\n      div\n      0xff\n      and\n      iszero\n      iszero\n      iszero\n      iszero\n      dup2\n      mstore\n      pop\n      pop\n        /* \"EHealth.sol\":10029:10032  ret */\n      dup3\n        /* \"EHealth.sol\":10033:10034  i */\n      dup3\n        /* \"EHealth.sol\":10029:10035  ret[i] */\n      dup2\n      mload\n      dup2\n      lt\n      tag_349\n      jumpi\n      invalid\n    tag_349:\n      0x20\n      mul\n      0x20\n      add\n      add\n        /* \"EHealth.sol\":10029:10052  ret[i]=sensorsDoctor[i] */\n      dup2\n      swap1\n      mstore\n      pop\n        /* \"EHealth.sol\":9968:10068  if(_idDoctor == sensorsDoctor[i].idDoctor){\r... */\n    tag_340:\n        /* \"EHealth.sol\":9948:9951  i++ */\n      dup1\n      dup1\n      0x01\n      add\n      swap2\n      pop\n      pop\n        /* \"EHealth.sol\":9906:10079  for (uint i = 0; i< sensorsDoctor.length; i++) {\r... */\n      jump(tag_335)\n    tag_336:\n      pop\n        /* \"EHealth.sol\":10096:10099  ret */\n      dup1\n        /* \"EHealth.sol\":10089:10099  return ret */\n      swap2\n      pop\n      pop\n        /* \"EHealth.sol\":9741:10107  function getAllSensorOfDoctor (address _idDoctor) public view returns (Sensor[] memory){\r... */\n      swap2\n      swap1\n      pop\n      jump\t// out\n        /* \"EHealth.sol\":4159:4510  function ReadHospital(address _address)public view returns(string memory, string memory, string memory, uint, bool){\r... */\n    tag_96:\n        /* \"EHealth.sol\":4218:4231  string memory */\n      0x60\n        /* \"EHealth.sol\":4233:4246  string memory */\n      dup1\n        /* \"EHealth.sol\":4248:4261  string memory */\n      0x60\n        /* \"EHealth.sol\":4263:4267  uint */\n      0x00\n        /* \"EHealth.sol\":4269:4273  bool */\n      dup1\n        /* \"EHealth.sol\":4285:4295  uint index */\n      0x00\n        /* \"EHealth.sol\":4298:4320  FindHospital(_address) */\n      tag_351\n        /* \"EHealth.sol\":4311:4319  _address */\n      dup8\n        /* \"EHealth.sol\":4298:4310  FindHospital */\n      tag_189\n        /* \"EHealth.sol\":4298:4320  FindHospital(_address) */\n      jump\t// in\n    tag_351:\n        /* \"EHealth.sol\":4285:4320  uint index = FindHospital(_address) */\n      swap1\n      pop\n        /* \"EHealth.sol\":4339:4354  hospitalCenters */\n      0x04\n        /* \"EHealth.sol\":4355:4360  index */\n      dup2\n        /* \"EHealth.sol\":4339:4361  hospitalCenters[index] */\n      dup2\n      sload\n      dup2\n      lt\n      tag_352\n      jumpi\n      invalid\n    tag_352:\n      swap1\n      0x00\n      mstore\n      keccak256(0x00, 0x20)\n      swap1\n      0x06\n      mul\n      add\n        /* \"EHealth.sol\":4339:4366  hospitalCenters[index].name */\n      0x01\n      add\n        /* \"EHealth.sol\":4367:4382  hospitalCenters */\n      0x04\n        /* \"EHealth.sol\":4383:4388  index */\n      dup3\n        /* \"EHealth.sol\":4367:4389  hospitalCenters[index] */\n      dup2\n      sload\n      dup2\n      lt\n      tag_354\n      jumpi\n      invalid\n    tag_354:\n      swap1\n      0x00\n      mstore\n      keccak256(0x00, 0x20)\n      swap1\n      0x06\n      mul\n      add\n        /* \"EHealth.sol\":4367:4394  hospitalCenters[index].city */\n      0x02\n      add\n        /* \"EHealth.sol\":4395:4410  hospitalCenters */\n      0x04\n        /* \"EHealth.sol\":4411:4416  index */\n      dup4\n        /* \"EHealth.sol\":4395:4417  hospitalCenters[index] */\n      dup2\n      sload\n      dup2\n      lt\n      tag_356\n      jumpi\n      invalid\n    tag_356:\n      swap1\n      0x00\n      mstore\n      keccak256(0x00, 0x20)\n      swap1\n      0x06\n      mul\n      add\n        /* \"EHealth.sol\":4395:4423  hospitalCenters[index].state */\n      0x03\n      add\n        /* \"EHealth.sol\":4434:4449  hospitalCenters */\n      0x04\n        /* \"EHealth.sol\":4450:4455  index */\n      dup5\n        /* \"EHealth.sol\":4434:4456  hospitalCenters[index] */\n      dup2\n      sload\n      dup2\n      lt\n      tag_358\n      jumpi\n      invalid\n    tag_358:\n      swap1\n      0x00\n      mstore\n      keccak256(0x00, 0x20)\n      swap1\n      0x06\n      mul\n      add\n        /* \"EHealth.sol\":4434:4467  hospitalCenters[index].postalCode */\n      0x04\n      add\n      sload\n        /* \"EHealth.sol\":4468:4483  hospitalCenters */\n      0x04\n        /* \"EHealth.sol\":4484:4489  index */\n      dup6\n        /* \"EHealth.sol\":4468:4490  hospitalCenters[index] */\n      dup2\n      sload\n      dup2\n      lt\n      tag_360\n      jumpi\n      invalid\n    tag_360:\n      swap1\n      0x00\n      mstore\n      keccak256(0x00, 0x20)\n      swap1\n      0x06\n      mul\n      add\n        /* \"EHealth.sol\":4468:4501  hospitalCenters[index].permission */\n      0x05\n      add\n      0x00\n      swap1\n      sload\n      swap1\n      0x0100\n      exp\n      swap1\n      div\n      0xff\n      and\n        /* \"EHealth.sol\":4331:4502  return (hospitalCenters[index].name,hospitalCenters[index].city,hospitalCenters[index].state,\r... */\n      dup5\n      dup1\n      sload\n      0x01\n      dup2\n      0x01\n      and\n      iszero\n      0x0100\n      mul\n      sub\n      and\n      0x02\n      swap1\n      div\n      dup1\n      0x1f\n      add\n      0x20\n      dup1\n      swap2\n      div\n      mul\n      0x20\n      add\n      mload(0x40)\n      swap1\n      dup2\n      add\n      0x40\n      mstore\n      dup1\n      swap3\n      swap2\n      swap1\n      dup2\n      dup2\n      mstore\n      0x20\n      add\n      dup3\n      dup1\n      sload\n      0x01\n      dup2\n      0x01\n      and\n      iszero\n      0x0100\n      mul\n      sub\n      and\n      0x02\n      swap1\n      div\n      dup1\n      iszero\n      tag_362\n      jumpi\n      dup1\n      0x1f\n      lt\n      tag_363\n      jumpi\n      0x0100\n      dup1\n      dup4\n      sload\n      div\n      mul\n      dup4\n      mstore\n      swap2\n      0x20\n      add\n      swap2\n      jump(tag_362)\n    tag_363:\n      dup3\n      add\n      swap2\n      swap1\n      0x00\n      mstore\n      keccak256(0x00, 0x20)\n      swap1\n    tag_364:\n      dup2\n      sload\n      dup2\n      mstore\n      swap1\n      0x01\n      add\n      swap1\n      0x20\n      add\n      dup1\n      dup4\n      gt\n      tag_364\n      jumpi\n      dup3\n      swap1\n      sub\n      0x1f\n      and\n      dup3\n      add\n      swap2\n    tag_362:\n      pop\n      pop\n      pop\n      pop\n      pop\n      swap5\n      pop\n      dup4\n      dup1\n      sload\n      0x01\n      dup2\n      0x01\n      and\n      iszero\n      0x0100\n      mul\n      sub\n      and\n      0x02\n      swap1\n      div\n      dup1\n      0x1f\n      add\n      0x20\n      dup1\n      swap2\n      div\n      mul\n      0x20\n      add\n      mload(0x40)\n      swap1\n      dup2\n      add\n      0x40\n      mstore\n      dup1\n      swap3\n      swap2\n      swap1\n      dup2\n      dup2\n      mstore\n      0x20\n      add\n      dup3\n      dup1\n      sload\n      0x01\n      dup2\n      0x01\n      and\n      iszero\n      0x0100\n      mul\n      sub\n      and\n      0x02\n      swap1\n      div\n      dup1\n      iszero\n      tag_365\n      jumpi\n      dup1\n      0x1f\n      lt\n      tag_366\n      jumpi\n      0x0100\n      dup1\n      dup4\n      sload\n      div\n      mul\n      dup4\n      mstore\n      swap2\n      0x20\n      add\n      swap2\n      jump(tag_365)\n    tag_366:\n      dup3\n      add\n      swap2\n      swap1\n      0x00\n      mstore\n      keccak256(0x00, 0x20)\n      swap1\n    tag_367:\n      dup2\n      sload\n      dup2\n      mstore\n      swap1\n      0x01\n      add\n      swap1\n      0x20\n      add\n      dup1\n      dup4\n      gt\n      tag_367\n      jumpi\n      dup3\n      swap1\n      sub\n      0x1f\n      and\n      dup3\n      add\n      swap2\n    tag_365:\n      pop\n      pop\n      pop\n      pop\n      pop\n      swap4\n      pop\n      dup3\n      dup1\n      sload\n      0x01\n      dup2\n      0x01\n      and\n      iszero\n      0x0100\n      mul\n      sub\n      and\n      0x02\n      swap1\n      div\n      dup1\n      0x1f\n      add\n      0x20\n      dup1\n      swap2\n      div\n      mul\n      0x20\n      add\n      mload(0x40)\n      swap1\n      dup2\n      add\n      0x40\n      mstore\n      dup1\n      swap3\n      swap2\n      swap1\n      dup2\n      dup2\n      mstore\n      0x20\n      add\n      dup3\n      dup1\n      sload\n      0x01\n      dup2\n      0x01\n      and\n      iszero\n      0x0100\n      mul\n      sub\n      and\n      0x02\n      swap1\n      div\n      dup1\n      iszero\n      tag_368\n      jumpi\n      dup1\n      0x1f\n      lt\n      tag_369\n      jumpi\n      0x0100\n      dup1\n      dup4\n      sload\n      div\n      mul\n      dup4\n      mstore\n      swap2\n      0x20\n      add\n      swap2\n      jump(tag_368)\n    tag_369:\n      dup3\n      add\n      swap2\n      swap1\n      0x00\n      mstore\n      keccak256(0x00, 0x20)\n      swap1\n    tag_370:\n      dup2\n      sload\n      dup2\n      mstore\n      swap1\n      0x01\n      add\n      swap1\n      0x20\n      add\n      dup1\n      dup4\n      gt\n      tag_370\n      jumpi\n      dup3\n      swap1\n      sub\n      0x1f\n      and\n      dup3\n      add\n      swap2\n    tag_368:\n      pop\n      pop\n      pop\n      pop\n      pop\n      swap3\n      pop\n      swap6\n      pop\n      swap6\n      pop\n      swap6\n      pop\n      swap6\n      pop\n      swap6\n      pop\n      pop\n        /* \"EHealth.sol\":4159:4510  function ReadHospital(address _address)public view returns(string memory, string memory, string memory, uint, bool){\r... */\n      swap2\n      swap4\n      swap6\n      swap1\n      swap3\n      swap5\n      pop\n      jump\t// out\n        /* \"EHealth.sol\":5262:5592  function RemoveDoctor(address _id) public {\r... */\n    tag_101:\n        /* \"EHealth.sol\":5315:5325  uint index */\n      0x00\n        /* \"EHealth.sol\":5328:5343  FindDoctor(_id) */\n      tag_372\n        /* \"EHealth.sol\":5339:5342  _id */\n      dup3\n        /* \"EHealth.sol\":5328:5338  FindDoctor */\n      tag_160\n        /* \"EHealth.sol\":5328:5343  FindDoctor(_id) */\n      jump\t// in\n    tag_372:\n        /* \"EHealth.sol\":5315:5343  uint index = FindDoctor(_id) */\n      swap1\n      pop\n        /* \"EHealth.sol\":5388:5393  false */\n      0x00\n        /* \"EHealth.sol\":5354:5369  doctorsHospital */\n      0x06\n        /* \"EHealth.sol\":5370:5375  index */\n      dup3\n        /* \"EHealth.sol\":5354:5376  doctorsHospital[index] */\n      dup2\n      sload\n      dup2\n      lt\n      tag_373\n      jumpi\n      invalid\n    tag_373:\n      swap1\n      0x00\n      mstore\n      keccak256(0x00, 0x20)\n      swap1\n      0x03\n      mul\n      add\n        /* \"EHealth.sol\":5354:5387  doctorsHospital[index].permission */\n      0x02\n      add\n      0x14\n        /* \"EHealth.sol\":5354:5393  doctorsHospital[index].permission=false */\n      0x0100\n      exp\n      dup2\n      sload\n      dup2\n      0xff\n      mul\n      not\n      and\n      swap1\n      dup4\n      iszero\n      iszero\n      mul\n      or\n      swap1\n      sstore\n      pop\n        /* \"EHealth.sol\":5409:5584  DeleteDoctor(doctorsHospital[index].idDoctor,\r... */\n      0x780b3c74ec1e08d8c65fd8a12c6ac2da5c15f2d3b5e54335b51671f63b7d2ad0\n        /* \"EHealth.sol\":5422:5437  doctorsHospital */\n      0x06\n        /* \"EHealth.sol\":5438:5443  index */\n      dup3\n        /* \"EHealth.sol\":5422:5444  doctorsHospital[index] */\n      dup2\n      sload\n      dup2\n      lt\n      tag_375\n      jumpi\n      invalid\n    tag_375:\n      swap1\n      0x00\n      mstore\n      keccak256(0x00, 0x20)\n      swap1\n      0x03\n      mul\n      add\n        /* \"EHealth.sol\":5422:5453  doctorsHospital[index].idDoctor */\n      0x00\n      add\n      0x00\n      swap1\n      sload\n      swap1\n      0x0100\n      exp\n      swap1\n      div\n      0xffffffffffffffffffffffffffffffffffffffff\n      and\n        /* \"EHealth.sol\":5464:5479  doctorsHospital */\n      0x06\n        /* \"EHealth.sol\":5480:5485  index */\n      dup4\n        /* \"EHealth.sol\":5464:5486  doctorsHospital[index] */\n      dup2\n      sload\n      dup2\n      lt\n      tag_377\n      jumpi\n      invalid\n    tag_377:\n      swap1\n      0x00\n      mstore\n      keccak256(0x00, 0x20)\n      swap1\n      0x03\n      mul\n      add\n        /* \"EHealth.sol\":5464:5497  doctorsHospital[index].nameDoctor */\n      0x01\n      add\n        /* \"EHealth.sol\":5508:5523  doctorsHospital */\n      0x06\n        /* \"EHealth.sol\":5524:5529  index */\n      dup5\n        /* \"EHealth.sol\":5508:5530  doctorsHospital[index] */\n      dup2\n      sload\n      dup2\n      lt\n      tag_379\n      jumpi\n      invalid\n    tag_379:\n      swap1\n      0x00\n      mstore\n      keccak256(0x00, 0x20)\n      swap1\n      0x03\n      mul\n      add\n        /* \"EHealth.sol\":5508:5539  doctorsHospital[index].hospital */\n      0x02\n      add\n      0x00\n      swap1\n      sload\n      swap1\n      0x0100\n      exp\n      swap1\n      div\n      0xffffffffffffffffffffffffffffffffffffffff\n      and\n        /* \"EHealth.sol\":5550:5565  doctorsHospital */\n      0x06\n        /* \"EHealth.sol\":5566:5571  index */\n      dup6\n        /* \"EHealth.sol\":5550:5572  doctorsHospital[index] */\n      dup2\n      sload\n      dup2\n      lt\n      tag_381\n      jumpi\n      invalid\n    tag_381:\n      swap1\n      0x00\n      mstore\n      keccak256(0x00, 0x20)\n      swap1\n      0x03\n      mul\n      add\n        /* \"EHealth.sol\":5550:5583  doctorsHospital[index].permission */\n      0x02\n      add\n      0x14\n      swap1\n      sload\n      swap1\n      0x0100\n      exp\n      swap1\n      div\n      0xff\n      and\n        /* \"EHealth.sol\":5409:5584  DeleteDoctor(doctorsHospital[index].idDoctor,\r... */\n      mload(0x40)\n      tag_383\n      swap5\n      swap4\n      swap3\n      swap2\n      swap1\n      tag_263\n      jump\t// in\n    tag_383:\n      mload(0x40)\n      dup1\n      swap2\n      sub\n      swap1\n      log1\n        /* \"EHealth.sol\":5262:5592  function RemoveDoctor(address _id) public {\r... */\n      pop\n      pop\n      jump\t// out\n        /* \"EHealth.sol\":4017:4122  function Length_Hospitals() public view returns (uint256){\r... */\n    tag_103:\n        /* \"EHealth.sol\":4066:4073  uint256 */\n      0x00\n        /* \"EHealth.sol\":4092:4107  hospitalCenters */\n      0x04\n        /* \"EHealth.sol\":4092:4114  hospitalCenters.length */\n      dup1\n      sload\n      swap1\n      pop\n        /* \"EHealth.sol\":4085:4114  return hospitalCenters.length */\n      swap1\n      pop\n        /* \"EHealth.sol\":4017:4122  function Length_Hospitals() public view returns (uint256){\r... */\n      swap1\n      jump\t// out\n        /* \"EHealth.sol\":1809:2125  function AddHospital(address _idHospital, string memory _name, string memory _city, string memory _state, uint _postalCode ) public {\r... */\n    tag_108:\n        /* \"EHealth.sol\":1952:1967  hospitalCenters */\n      0x04\n        /* \"EHealth.sol\":1973:2035  Hospital(_idHospital, _name, _city, _state, _postalCode, true) */\n      mload(0x40)\n      dup1\n      0xc0\n      add\n      0x40\n      mstore\n      dup1\n        /* \"EHealth.sol\":1982:1993  _idHospital */\n      dup8\n        /* \"EHealth.sol\":1973:2035  Hospital(_idHospital, _name, _city, _state, _postalCode, true) */\n      0xffffffffffffffffffffffffffffffffffffffff\n      and\n      dup2\n      mstore\n      0x20\n      add\n        /* \"EHealth.sol\":1995:2000  _name */\n      dup7\n        /* \"EHealth.sol\":1973:2035  Hospital(_idHospital, _name, _city, _state, _postalCode, true) */\n      dup2\n      mstore\n      0x20\n      add\n        /* \"EHealth.sol\":2002:2007  _city */\n      dup6\n        /* \"EHealth.sol\":1973:2035  Hospital(_idHospital, _name, _city, _state, _postalCode, true) */\n      dup2\n      mstore\n      0x20\n      add\n        /* \"EHealth.sol\":2009:2015  _state */\n      dup5\n        /* \"EHealth.sol\":1973:2035  Hospital(_idHospital, _name, _city, _state, _postalCode, true) */\n      dup2\n      mstore\n      0x20\n      add\n        /* \"EHealth.sol\":2017:2028  _postalCode */\n      dup4\n        /* \"EHealth.sol\":1973:2035  Hospital(_idHospital, _name, _city, _state, _postalCode, true) */\n      dup2\n      mstore\n      0x20\n      add\n        /* \"EHealth.sol\":2030:2034  true */\n      0x01\n        /* \"EHealth.sol\":1973:2035  Hospital(_idHospital, _name, _city, _state, _postalCode, true) */\n      iszero\n      iszero\n      dup2\n      mstore\n      pop\n        /* \"EHealth.sol\":1952:2036  hospitalCenters.push(Hospital(_idHospital, _name, _city, _state, _postalCode, true)) */\n      swap1\n      dup1\n      0x01\n      dup2\n      sload\n      add\n      dup1\n      dup3\n      sstore\n      dup1\n      swap2\n      pop\n      pop\n      0x01\n      swap1\n      sub\n      swap1\n      0x00\n      mstore\n      keccak256(0x00, 0x20)\n      swap1\n      0x06\n      mul\n      add\n      0x00\n      swap1\n      swap2\n      swap1\n      swap2\n      swap1\n      swap2\n      pop\n      0x00\n      dup3\n      add\n      mload\n      dup2\n      0x00\n      add\n      exp(0x0100, 0x00)\n      dup2\n      sload\n      dup2\n      0xffffffffffffffffffffffffffffffffffffffff\n      mul\n      not\n      and\n      swap1\n      dup4\n      0xffffffffffffffffffffffffffffffffffffffff\n      and\n      mul\n      or\n      swap1\n      sstore\n      pop\n      0x20\n      dup3\n      add\n      mload\n      dup2\n      0x01\n      add\n      swap1\n      dup1\n      mload\n      swap1\n      0x20\n      add\n      swap1\n      tag_387\n      swap3\n      swap2\n      swap1\n      tag_163\n      jump\t// in\n    tag_387:\n      pop\n      0x40\n      dup3\n      add\n      mload\n      dup2\n      0x02\n      add\n      swap1\n      dup1\n      mload\n      swap1\n      0x20\n      add\n      swap1\n      tag_388\n      swap3\n      swap2\n      swap1\n      tag_163\n      jump\t// in\n    tag_388:\n      pop\n      0x60\n      dup3\n      add\n      mload\n      dup2\n      0x03\n      add\n      swap1\n      dup1\n      mload\n      swap1\n      0x20\n      add\n      swap1\n      tag_389\n      swap3\n      swap2\n      swap1\n      tag_163\n      jump\t// in\n    tag_389:\n      pop\n      0x80\n      dup3\n      add\n      mload\n      dup2\n      0x04\n      add\n      sstore\n      0xa0\n      dup3\n      add\n      mload\n      dup2\n      0x05\n      add\n      exp(0x0100, 0x00)\n      dup2\n      sload\n      dup2\n      0xff\n      mul\n      not\n      and\n      swap1\n      dup4\n      iszero\n      iszero\n      mul\n      or\n      swap1\n      sstore\n      pop\n      pop\n      pop\n        /* \"EHealth.sol\":2052:2117  NewHospital(_idHospital, _name, _city, _state, _postalCode, true) */\n      0xf646212acc3f5092fb0211ffd5121c0f706641b715e3982dab50afb395413dd5\n        /* \"EHealth.sol\":2064:2075  _idHospital */\n      dup6\n        /* \"EHealth.sol\":2077:2082  _name */\n      dup6\n        /* \"EHealth.sol\":2084:2089  _city */\n      dup6\n        /* \"EHealth.sol\":2091:2097  _state */\n      dup6\n        /* \"EHealth.sol\":2099:2110  _postalCode */\n      dup6\n        /* \"EHealth.sol\":2112:2116  true */\n      0x01\n        /* \"EHealth.sol\":2052:2117  NewHospital(_idHospital, _name, _city, _state, _postalCode, true) */\n      mload(0x40)\n      tag_390\n      swap7\n      swap6\n      swap5\n      swap4\n      swap3\n      swap2\n      swap1\n      tag_113\n      jump\t// in\n    tag_390:\n      mload(0x40)\n      dup1\n      swap2\n      sub\n      swap1\n      log1\n        /* \"EHealth.sol\":1809:2125  function AddHospital(address _idHospital, string memory _name, string memory _city, string memory _state, uint _postalCode ) public {\r... */\n      pop\n      pop\n      pop\n      pop\n      pop\n      jump\t// out\n        /* \"EHealth.sol\":301:345  mapping(address=> Hospital) public Hospitals */\n    tag_111:\n      mstore(0x20, 0x03)\n      dup1\n      0x00\n      mstore\n      keccak256(0x00, 0x40)\n      0x00\n      swap2\n      pop\n      swap1\n      pop\n      dup1\n      0x00\n      add\n      0x00\n      swap1\n      sload\n      swap1\n      0x0100\n      exp\n      swap1\n      div\n      0xffffffffffffffffffffffffffffffffffffffff\n      and\n      swap1\n      dup1\n      0x01\n      add\n      dup1\n      sload\n      0x01\n      dup2\n      0x01\n      and\n      iszero\n      0x0100\n      mul\n      sub\n      and\n      0x02\n      swap1\n      div\n      dup1\n      0x1f\n      add\n      0x20\n      dup1\n      swap2\n      div\n      mul\n      0x20\n      add\n      mload(0x40)\n      swap1\n      dup2\n      add\n      0x40\n      mstore\n      dup1\n      swap3\n      swap2\n      swap1\n      dup2\n      dup2\n      mstore\n      0x20\n      add\n      dup3\n      dup1\n      sload\n      0x01\n      dup2\n      0x01\n      and\n      iszero\n      0x0100\n      mul\n      sub\n      and\n      0x02\n      swap1\n      div\n      dup1\n      iszero\n      tag_391\n      jumpi\n      dup1\n      0x1f\n      lt\n      tag_392\n      jumpi\n      0x0100\n      dup1\n      dup4\n      sload\n      div\n      mul\n      dup4\n      mstore\n      swap2\n      0x20\n      add\n      swap2\n      jump(tag_391)\n    tag_392:\n      dup3\n      add\n      swap2\n      swap1\n      0x00\n      mstore\n      keccak256(0x00, 0x20)\n      swap1\n    tag_393:\n      dup2\n      sload\n      dup2\n      mstore\n      swap1\n      0x01\n      add\n      swap1\n      0x20\n      add\n      dup1\n      dup4\n      gt\n      tag_393\n      jumpi\n      dup3\n      swap1\n      sub\n      0x1f\n      and\n      dup3\n      add\n      swap2\n    tag_391:\n      pop\n      pop\n      pop\n      pop\n      pop\n      swap1\n      dup1\n      0x02\n      add\n      dup1\n      sload\n      0x01\n      dup2\n      0x01\n      and\n      iszero\n      0x0100\n      mul\n      sub\n      and\n      0x02\n      swap1\n      div\n      dup1\n      0x1f\n      add\n      0x20\n      dup1\n      swap2\n      div\n      mul\n      0x20\n      add\n      mload(0x40)\n      swap1\n      dup2\n      add\n      0x40\n      mstore\n      dup1\n      swap3\n      swap2\n      swap1\n      dup2\n      dup2\n      mstore\n      0x20\n      add\n      dup3\n      dup1\n      sload\n      0x01\n      dup2\n      0x01\n      and\n      iszero\n      0x0100\n      mul\n      sub\n      and\n      0x02\n      swap1\n      div\n      dup1\n      iszero\n      tag_394\n      jumpi\n      dup1\n      0x1f\n      lt\n      tag_395\n      jumpi\n      0x0100\n      dup1\n      dup4\n      sload\n      div\n      mul\n      dup4\n      mstore\n      swap2\n      0x20\n      add\n      swap2\n      jump(tag_394)\n    tag_395:\n      dup3\n      add\n      swap2\n      swap1\n      0x00\n      mstore\n      keccak256(0x00, 0x20)\n      swap1\n    tag_396:\n      dup2\n      sload\n      dup2\n      mstore\n      swap1\n      0x01\n      add\n      swap1\n      0x20\n      add\n      dup1\n      dup4\n      gt\n      tag_396\n      jumpi\n      dup3\n      swap1\n      sub\n      0x1f\n      and\n      dup3\n      add\n      swap2\n    tag_394:\n      pop\n      pop\n      pop\n      pop\n      pop\n      swap1\n      dup1\n      0x03\n      add\n      dup1\n      sload\n      0x01\n      dup2\n      0x01\n      and\n      iszero\n      0x0100\n      mul\n      sub\n      and\n      0x02\n      swap1\n      div\n      dup1\n      0x1f\n      add\n      0x20\n      dup1\n      swap2\n      div\n      mul\n      0x20\n      add\n      mload(0x40)\n      swap1\n      dup2\n      add\n      0x40\n      mstore\n      dup1\n      swap3\n      swap2\n      swap1\n      dup2\n      dup2\n      mstore\n      0x20\n      add\n      dup3\n      dup1\n      sload\n      0x01\n      dup2\n      0x01\n      and\n      iszero\n      0x0100\n      mul\n      sub\n      and\n      0x02\n      swap1\n      div\n      dup1\n      iszero\n      tag_397\n      jumpi\n      dup1\n      0x1f\n      lt\n      tag_398\n      jumpi\n      0x0100\n      dup1\n      dup4\n      sload\n      div\n      mul\n      dup4\n      mstore\n      swap2\n      0x20\n      add\n      swap2\n      jump(tag_397)\n    tag_398:\n      dup3\n      add\n      swap2\n      swap1\n      0x00\n      mstore\n      keccak256(0x00, 0x20)\n      swap1\n    tag_399:\n      dup2\n      sload\n      dup2\n      mstore\n      swap1\n      0x01\n      add\n      swap1\n      0x20\n      add\n      dup1\n      dup4\n      gt\n      tag_399\n      jumpi\n      dup3\n      swap1\n      sub\n      0x1f\n      and\n      dup3\n      add\n      swap2\n    tag_397:\n      pop\n      pop\n      pop\n      pop\n      pop\n      swap1\n      dup1\n      0x04\n      add\n      sload\n      swap1\n      dup1\n      0x05\n      add\n      0x00\n      swap1\n      sload\n      swap1\n      0x0100\n      exp\n      swap1\n      div\n      0xff\n      and\n      swap1\n      pop\n      dup7\n      jump\t// out\n        /* \"EHealth.sol\":9296:9397  function Length_sensors() public view returns (uint256){\r... */\n    tag_115:\n        /* \"EHealth.sol\":9343:9350  uint256 */\n      0x00\n        /* \"EHealth.sol\":9369:9382  sensorsDoctor */\n      0x08\n        /* \"EHealth.sol\":9369:9389  sensorsDoctor.length */\n      dup1\n      sload\n      swap1\n      pop\n        /* \"EHealth.sol\":9362:9389  return sensorsDoctor.length */\n      swap1\n      pop\n        /* \"EHealth.sol\":9296:9397  function Length_sensors() public view returns (uint256){\r... */\n      swap1\n      jump\t// out\n        /* \"EHealth.sol\":6906:7280  function getAllDoctorsInHospital(address _address) public view returns (Doctor[] memory){\r... */\n    tag_119:\n        /* \"EHealth.sol\":6978:6993  Doctor[] memory */\n      0x60\n        /* \"EHealth.sol\":7005:7024  Doctor[] memory ret */\n      0x00\n        /* \"EHealth.sol\":7040:7055  doctorsHospital */\n      0x06\n        /* \"EHealth.sol\":7040:7062  doctorsHospital.length */\n      dup1\n      sload\n      swap1\n      pop\n        /* \"EHealth.sol\":7027:7063  new Doctor[](doctorsHospital.length) */\n      0xffffffffffffffff\n      dup2\n      gt\n      dup1\n      iszero\n      tag_402\n      jumpi\n      0x00\n      dup1\n      revert\n    tag_402:\n      pop\n      mload(0x40)\n      swap1\n      dup1\n      dup3\n      mstore\n      dup1\n      0x20\n      mul\n      0x20\n      add\n      dup3\n      add\n      0x40\n      mstore\n      dup1\n      iszero\n      tag_403\n      jumpi\n      dup2\n      0x20\n      add\n    tag_404:\n      tag_405\n      tag_406\n      jump\t// in\n    tag_405:\n      dup2\n      mstore\n      0x20\n      add\n      swap1\n      0x01\n      swap1\n      sub\n      swap1\n      dup2\n      tag_404\n      jumpi\n      swap1\n      pop\n    tag_403:\n      pop\n        /* \"EHealth.sol\":7005:7063  Doctor[] memory ret = new Doctor[](doctorsHospital.length) */\n      swap1\n      pop\n        /* \"EHealth.sol\":7079:7085  uint i */\n      0x00\n        /* \"EHealth.sol\":7074:7252  for (uint i = 0; i< doctorsHospital.length; i++) {\r... */\n    tag_407:\n        /* \"EHealth.sol\":7094:7109  doctorsHospital */\n      0x06\n        /* \"EHealth.sol\":7094:7116  doctorsHospital.length */\n      dup1\n      sload\n      swap1\n      pop\n        /* \"EHealth.sol\":7091:7092  i */\n      dup2\n        /* \"EHealth.sol\":7091:7116  i< doctorsHospital.length */\n      lt\n        /* \"EHealth.sol\":7074:7252  for (uint i = 0; i< doctorsHospital.length; i++) {\r... */\n      iszero\n      tag_408\n      jumpi\n        /* \"EHealth.sol\":7153:7168  doctorsHospital */\n      0x06\n        /* \"EHealth.sol\":7169:7170  i */\n      dup2\n        /* \"EHealth.sol\":7153:7171  doctorsHospital[i] */\n      dup2\n      sload\n      dup2\n      lt\n      tag_410\n      jumpi\n      invalid\n    tag_410:\n      swap1\n      0x00\n      mstore\n      keccak256(0x00, 0x20)\n      swap1\n      0x03\n      mul\n      add\n        /* \"EHealth.sol\":7153:7180  doctorsHospital[i].hospital */\n      0x02\n      add\n      0x00\n      swap1\n      sload\n      swap1\n      0x0100\n      exp\n      swap1\n      div\n      0xffffffffffffffffffffffffffffffffffffffff\n      and\n        /* \"EHealth.sol\":7141:7180  _address == doctorsHospital[i].hospital */\n      0xffffffffffffffffffffffffffffffffffffffff\n      and\n        /* \"EHealth.sol\":7141:7149  _address */\n      dup5\n        /* \"EHealth.sol\":7141:7180  _address == doctorsHospital[i].hospital */\n      0xffffffffffffffffffffffffffffffffffffffff\n      and\n      eq\n        /* \"EHealth.sol\":7138:7241  if(_address == doctorsHospital[i].hospital){\r... */\n      iszero\n      tag_412\n      jumpi\n        /* \"EHealth.sol\":7207:7222  doctorsHospital */\n      0x06\n        /* \"EHealth.sol\":7223:7224  i */\n      dup2\n        /* \"EHealth.sol\":7207:7225  doctorsHospital[i] */\n      dup2\n      sload\n      dup2\n      lt\n      tag_413\n      jumpi\n      invalid\n    tag_413:\n      swap1\n      0x00\n      mstore\n      keccak256(0x00, 0x20)\n      swap1\n      0x03\n      mul\n      add\n        /* \"EHealth.sol\":7200:7225  ret[i]=doctorsHospital[i] */\n      mload(0x40)\n      dup1\n      0x80\n      add\n      0x40\n      mstore\n      swap1\n      dup2\n      0x00\n      dup3\n      add\n      0x00\n      swap1\n      sload\n      swap1\n      0x0100\n      exp\n      swap1\n      div\n      0xffffffffffffffffffffffffffffffffffffffff\n      and\n      0xffffffffffffffffffffffffffffffffffffffff\n      and\n      0xffffffffffffffffffffffffffffffffffffffff\n      and\n      dup2\n      mstore\n      0x20\n      add\n      0x01\n      dup3\n      add\n      dup1\n      sload\n      0x01\n      dup2\n      0x01\n      and\n      iszero\n      0x0100\n      mul\n      sub\n      and\n      0x02\n      swap1\n      div\n      dup1\n      0x1f\n      add\n      0x20\n      dup1\n      swap2\n      div\n      mul\n      0x20\n      add\n      mload(0x40)\n      swap1\n      dup2\n      add\n      0x40\n      mstore\n      dup1\n      swap3\n      swap2\n      swap1\n      dup2\n      dup2\n      mstore\n      0x20\n      add\n      dup3\n      dup1\n      sload\n      0x01\n      dup2\n      0x01\n      and\n      iszero\n      0x0100\n      mul\n      sub\n      and\n      0x02\n      swap1\n      div\n      dup1\n      iszero\n      tag_415\n      jumpi\n      dup1\n      0x1f\n      lt\n      tag_416\n      jumpi\n      0x0100\n      dup1\n      dup4\n      sload\n      div\n      mul\n      dup4\n      mstore\n      swap2\n      0x20\n      add\n      swap2\n      jump(tag_415)\n    tag_416:\n      dup3\n      add\n      swap2\n      swap1\n      0x00\n      mstore\n      keccak256(0x00, 0x20)\n      swap1\n    tag_417:\n      dup2\n      sload\n      dup2\n      mstore\n      swap1\n      0x01\n      add\n      swap1\n      0x20\n      add\n      dup1\n      dup4\n      gt\n      tag_417\n      jumpi\n      dup3\n      swap1\n      sub\n      0x1f\n      and\n      dup3\n      add\n      swap2\n    tag_415:\n      pop\n      pop\n      pop\n      pop\n      pop\n      dup2\n      mstore\n      0x20\n      add\n      0x02\n      dup3\n      add\n      0x00\n      swap1\n      sload\n      swap1\n      0x0100\n      exp\n      swap1\n      div\n      0xffffffffffffffffffffffffffffffffffffffff\n      and\n      0xffffffffffffffffffffffffffffffffffffffff\n      and\n      0xffffffffffffffffffffffffffffffffffffffff\n      and\n      dup2\n      mstore\n      0x20\n      add\n      0x02\n      dup3\n      add\n      0x14\n      swap1\n      sload\n      swap1\n      0x0100\n      exp\n      swap1\n      div\n      0xff\n      and\n      iszero\n      iszero\n      iszero\n      iszero\n      dup2\n      mstore\n      pop\n      pop\n        /* \"EHealth.sol\":7200:7203  ret */\n      dup3\n        /* \"EHealth.sol\":7204:7205  i */\n      dup3\n        /* \"EHealth.sol\":7200:7206  ret[i] */\n      dup2\n      mload\n      dup2\n      lt\n      tag_418\n      jumpi\n      invalid\n    tag_418:\n      0x20\n      mul\n      0x20\n      add\n      add\n        /* \"EHealth.sol\":7200:7225  ret[i]=doctorsHospital[i] */\n      dup2\n      swap1\n      mstore\n      pop\n        /* \"EHealth.sol\":7138:7241  if(_address == doctorsHospital[i].hospital){\r... */\n    tag_412:\n        /* \"EHealth.sol\":7118:7121  i++ */\n      dup1\n      dup1\n      0x01\n      add\n      swap2\n      pop\n      pop\n        /* \"EHealth.sol\":7074:7252  for (uint i = 0; i< doctorsHospital.length; i++) {\r... */\n      jump(tag_407)\n    tag_408:\n      pop\n        /* \"EHealth.sol\":7269:7272  ret */\n      dup1\n        /* \"EHealth.sol\":7262:7272  return ret */\n      swap2\n      pop\n      pop\n        /* \"EHealth.sol\":6906:7280  function getAllDoctorsInHospital(address _address) public view returns (Doctor[] memory){\r... */\n      swap2\n      swap1\n      pop\n      jump\t// out\n        /* \"EHealth.sol\":536:569  Hospital[] public hospitalCenters */\n    tag_124:\n      0x04\n      dup2\n      dup2\n      sload\n      dup2\n      lt\n      tag_419\n      jumpi\n      0x00\n      dup1\n      revert\n    tag_419:\n      swap1\n      0x00\n      mstore\n      keccak256(0x00, 0x20)\n      swap1\n      0x06\n      mul\n      add\n      0x00\n      swap2\n      pop\n      swap1\n      pop\n      dup1\n      0x00\n      add\n      0x00\n      swap1\n      sload\n      swap1\n      0x0100\n      exp\n      swap1\n      div\n      0xffffffffffffffffffffffffffffffffffffffff\n      and\n      swap1\n      dup1\n      0x01\n      add\n      dup1\n      sload\n      0x01\n      dup2\n      0x01\n      and\n      iszero\n      0x0100\n      mul\n      sub\n      and\n      0x02\n      swap1\n      div\n      dup1\n      0x1f\n      add\n      0x20\n      dup1\n      swap2\n      div\n      mul\n      0x20\n      add\n      mload(0x40)\n      swap1\n      dup2\n      add\n      0x40\n      mstore\n      dup1\n      swap3\n      swap2\n      swap1\n      dup2\n      dup2\n      mstore\n      0x20\n      add\n      dup3\n      dup1\n      sload\n      0x01\n      dup2\n      0x01\n      and\n      iszero\n      0x0100\n      mul\n      sub\n      and\n      0x02\n      swap1\n      div\n      dup1\n      iszero\n      tag_421\n      jumpi\n      dup1\n      0x1f\n      lt\n      tag_422\n      jumpi\n      0x0100\n      dup1\n      dup4\n      sload\n      div\n      mul\n      dup4\n      mstore\n      swap2\n      0x20\n      add\n      swap2\n      jump(tag_421)\n    tag_422:\n      dup3\n      add\n      swap2\n      swap1\n      0x00\n      mstore\n      keccak256(0x00, 0x20)\n      swap1\n    tag_423:\n      dup2\n      sload\n      dup2\n      mstore\n      swap1\n      0x01\n      add\n      swap1\n      0x20\n      add\n      dup1\n      dup4\n      gt\n      tag_423\n      jumpi\n      dup3\n      swap1\n      sub\n      0x1f\n      and\n      dup3\n      add\n      swap2\n    tag_421:\n      pop\n      pop\n      pop\n      pop\n      pop\n      swap1\n      dup1\n      0x02\n      add\n      dup1\n      sload\n      0x01\n      dup2\n      0x01\n      and\n      iszero\n      0x0100\n      mul\n      sub\n      and\n      0x02\n      swap1\n      div\n      dup1\n      0x1f\n      add\n      0x20\n      dup1\n      swap2\n      div\n      mul\n      0x20\n      add\n      mload(0x40)\n      swap1\n      dup2\n      add\n      0x40\n      mstore\n      dup1\n      swap3\n      swap2\n      swap1\n      dup2\n      dup2\n      mstore\n      0x20\n      add\n      dup3\n      dup1\n      sload\n      0x01\n      dup2\n      0x01\n      and\n      iszero\n      0x0100\n      mul\n      sub\n      and\n      0x02\n      swap1\n      div\n      dup1\n      iszero\n      tag_424\n      jumpi\n      dup1\n      0x1f\n      lt\n      tag_425\n      jumpi\n      0x0100\n      dup1\n      dup4\n      sload\n      div\n      mul\n      dup4\n      mstore\n      swap2\n      0x20\n      add\n      swap2\n      jump(tag_424)\n    tag_425:\n      dup3\n      add\n      swap2\n      swap1\n      0x00\n      mstore\n      keccak256(0x00, 0x20)\n      swap1\n    tag_426:\n      dup2\n      sload\n      dup2\n      mstore\n      swap1\n      0x01\n      add\n      swap1\n      0x20\n      add\n      dup1\n      dup4\n      gt\n      tag_426\n      jumpi\n      dup3\n      swap1\n      sub\n      0x1f\n      and\n      dup3\n      add\n      swap2\n    tag_424:\n      pop\n      pop\n      pop\n      pop\n      pop\n      swap1\n      dup1\n      0x03\n      add\n      dup1\n      sload\n      0x01\n      dup2\n      0x01\n      and\n      iszero\n      0x0100\n      mul\n      sub\n      and\n      0x02\n      swap1\n      div\n      dup1\n      0x1f\n      add\n      0x20\n      dup1\n      swap2\n      div\n      mul\n      0x20\n      add\n      mload(0x40)\n      swap1\n      dup2\n      add\n      0x40\n      mstore\n      dup1\n      swap3\n      swap2\n      swap1\n      dup2\n      dup2\n      mstore\n      0x20\n      add\n      dup3\n      dup1\n      sload\n      0x01\n      dup2\n      0x01\n      and\n      iszero\n      0x0100\n      mul\n      sub\n      and\n      0x02\n      swap1\n      div\n      dup1\n      iszero\n      tag_427\n      jumpi\n      dup1\n      0x1f\n      lt\n      tag_428\n      jumpi\n      0x0100\n      dup1\n      dup4\n      sload\n      div\n      mul\n      dup4\n      mstore\n      swap2\n      0x20\n      add\n      swap2\n      jump(tag_427)\n    tag_428:\n      dup3\n      add\n      swap2\n      swap1\n      0x00\n      mstore\n      keccak256(0x00, 0x20)\n      swap1\n    tag_429:\n      dup2\n      sload\n      dup2\n      mstore\n      swap1\n      0x01\n      add\n      swap1\n      0x20\n      add\n      dup1\n      dup4\n      gt\n      tag_429\n      jumpi\n      dup3\n      swap1\n      sub\n      0x1f\n      and\n      dup3\n      add\n      swap2\n    tag_427:\n      pop\n      pop\n      pop\n      pop\n      pop\n      swap1\n      dup1\n      0x04\n      add\n      sload\n      swap1\n      dup1\n      0x05\n      add\n      0x00\n      swap1\n      sload\n      swap1\n      0x0100\n      exp\n      swap1\n      div\n      0xff\n      and\n      swap1\n      pop\n      dup7\n      jump\t// out\n        /* \"EHealth.sol\":598:638  mapping(address=> Doctor) public Doctors */\n    tag_128:\n      mstore(0x20, 0x05)\n      dup1\n      0x00\n      mstore\n      keccak256(0x00, 0x40)\n      0x00\n      swap2\n      pop\n      swap1\n      pop\n      dup1\n      0x00\n      add\n      0x00\n      swap1\n      sload\n      swap1\n      0x0100\n      exp\n      swap1\n      div\n      0xffffffffffffffffffffffffffffffffffffffff\n      and\n      swap1\n      dup1\n      0x01\n      add\n      dup1\n      sload\n      0x01\n      dup2\n      0x01\n      and\n      iszero\n      0x0100\n      mul\n      sub\n      and\n      0x02\n      swap1\n      div\n      dup1\n      0x1f\n      add\n      0x20\n      dup1\n      swap2\n      div\n      mul\n      0x20\n      add\n      mload(0x40)\n      swap1\n      dup2\n      add\n      0x40\n      mstore\n      dup1\n      swap3\n      swap2\n      swap1\n      dup2\n      dup2\n      mstore\n      0x20\n      add\n      dup3\n      dup1\n      sload\n      0x01\n      dup2\n      0x01\n      and\n      iszero\n      0x0100\n      mul\n      sub\n      and\n      0x02\n      swap1\n      div\n      dup1\n      iszero\n      tag_430\n      jumpi\n      dup1\n      0x1f\n      lt\n      tag_431\n      jumpi\n      0x0100\n      dup1\n      dup4\n      sload\n      div\n      mul\n      dup4\n      mstore\n      swap2\n      0x20\n      add\n      swap2\n      jump(tag_430)\n    tag_431:\n      dup3\n      add\n      swap2\n      swap1\n      0x00\n      mstore\n      keccak256(0x00, 0x20)\n      swap1\n    tag_432:\n      dup2\n      sload\n      dup2\n      mstore\n      swap1\n      0x01\n      add\n      swap1\n      0x20\n      add\n      dup1\n      dup4\n      gt\n      tag_432\n      jumpi\n      dup3\n      swap1\n      sub\n      0x1f\n      and\n      dup3\n      add\n      swap2\n    tag_430:\n      pop\n      pop\n      pop\n      pop\n      pop\n      swap1\n      dup1\n      0x02\n      add\n      0x00\n      swap1\n      sload\n      swap1\n      0x0100\n      exp\n      swap1\n      div\n      0xffffffffffffffffffffffffffffffffffffffff\n      and\n      swap1\n      dup1\n      0x02\n      add\n      0x14\n      swap1\n      sload\n      swap1\n      0x0100\n      exp\n      swap1\n      div\n      0xff\n      and\n      swap1\n      pop\n      dup5\n      jump\t// out\n        /* \"EHealth.sol\":4644:4917  function AddDoctor(address idDoctor, string memory _nameDoctor, address _hospital) public {\r... */\n    tag_133:\n        /* \"EHealth.sol\":4745:4768  FindHospital(_hospital) */\n      tag_434\n        /* \"EHealth.sol\":4758:4767  _hospital */\n      dup2\n        /* \"EHealth.sol\":4745:4757  FindHospital */\n      tag_189\n        /* \"EHealth.sol\":4745:4768  FindHospital(_hospital) */\n      jump\t// in\n    tag_434:\n      pop\n        /* \"EHealth.sol\":4779:4794  doctorsHospital */\n      0x06\n        /* \"EHealth.sol\":4800:4846  Doctor(idDoctor, _nameDoctor, _hospital, true) */\n      mload(0x40)\n      dup1\n      0x80\n      add\n      0x40\n      mstore\n      dup1\n        /* \"EHealth.sol\":4807:4815  idDoctor */\n      dup6\n        /* \"EHealth.sol\":4800:4846  Doctor(idDoctor, _nameDoctor, _hospital, true) */\n      0xffffffffffffffffffffffffffffffffffffffff\n      and\n      dup2\n      mstore\n      0x20\n      add\n        /* \"EHealth.sol\":4817:4828  _nameDoctor */\n      dup5\n        /* \"EHealth.sol\":4800:4846  Doctor(idDoctor, _nameDoctor, _hospital, true) */\n      dup2\n      mstore\n      0x20\n      add\n        /* \"EHealth.sol\":4830:4839  _hospital */\n      dup4\n        /* \"EHealth.sol\":4800:4846  Doctor(idDoctor, _nameDoctor, _hospital, true) */\n      0xffffffffffffffffffffffffffffffffffffffff\n      and\n      dup2\n      mstore\n      0x20\n      add\n        /* \"EHealth.sol\":4841:4845  true */\n      0x01\n        /* \"EHealth.sol\":4800:4846  Doctor(idDoctor, _nameDoctor, _hospital, true) */\n      iszero\n      iszero\n      dup2\n      mstore\n      pop\n        /* \"EHealth.sol\":4779:4847  doctorsHospital.push(Doctor(idDoctor, _nameDoctor, _hospital, true)) */\n      swap1\n      dup1\n      0x01\n      dup2\n      sload\n      add\n      dup1\n      dup3\n      sstore\n      dup1\n      swap2\n      pop\n      pop\n      0x01\n      swap1\n      sub\n      swap1\n      0x00\n      mstore\n      keccak256(0x00, 0x20)\n      swap1\n      0x03\n      mul\n      add\n      0x00\n      swap1\n      swap2\n      swap1\n      swap2\n      swap1\n      swap2\n      pop\n      0x00\n      dup3\n      add\n      mload\n      dup2\n      0x00\n      add\n      exp(0x0100, 0x00)\n      dup2\n      sload\n      dup2\n      0xffffffffffffffffffffffffffffffffffffffff\n      mul\n      not\n      and\n      swap1\n      dup4\n      0xffffffffffffffffffffffffffffffffffffffff\n      and\n      mul\n      or\n      swap1\n      sstore\n      pop\n      0x20\n      dup3\n      add\n      mload\n      dup2\n      0x01\n      add\n      swap1\n      dup1\n      mload\n      swap1\n      0x20\n      add\n      swap1\n      tag_436\n      swap3\n      swap2\n      swap1\n      tag_163\n      jump\t// in\n    tag_436:\n      pop\n      0x40\n      dup3\n      add\n      mload\n      dup2\n      0x02\n      add\n      exp(0x0100, 0x00)\n      dup2\n      sload\n      dup2\n      0xffffffffffffffffffffffffffffffffffffffff\n      mul\n      not\n      and\n      swap1\n      dup4\n      0xffffffffffffffffffffffffffffffffffffffff\n      and\n      mul\n      or\n      swap1\n      sstore\n      pop\n      0x60\n      dup3\n      add\n      mload\n      dup2\n      0x02\n      add\n      exp(0x0100, 0x14)\n      dup2\n      sload\n      dup2\n      0xff\n      mul\n      not\n      and\n      swap1\n      dup4\n      iszero\n      iszero\n      mul\n      or\n      swap1\n      sstore\n      pop\n      pop\n      pop\n        /* \"EHealth.sol\":4863:4909  NewDoctor(idDoctor,_nameDoctor,_hospital,true) */\n      0x4578695497af1a3a1f556f9c89f9f107851cb8e1820e4b336143406b9ba52e3b\n        /* \"EHealth.sol\":4873:4881  idDoctor */\n      dup4\n        /* \"EHealth.sol\":4882:4893  _nameDoctor */\n      dup4\n        /* \"EHealth.sol\":4894:4903  _hospital */\n      dup4\n        /* \"EHealth.sol\":4904:4908  true */\n      0x01\n        /* \"EHealth.sol\":4863:4909  NewDoctor(idDoctor,_nameDoctor,_hospital,true) */\n      mload(0x40)\n      tag_437\n      swap5\n      swap4\n      swap3\n      swap2\n      swap1\n      tag_89\n      jump\t// in\n    tag_437:\n      mload(0x40)\n      dup1\n      swap2\n      sub\n      swap1\n      log1\n        /* \"EHealth.sol\":4644:4917  function AddDoctor(address idDoctor, string memory _nameDoctor, address _hospital) public {\r... */\n      pop\n      pop\n      pop\n      jump\t// out\n        /* \"EHealth.sol\":1092:1121  Sensor[] public sensorsDoctor */\n    tag_136:\n      0x08\n      dup2\n      dup2\n      sload\n      dup2\n      lt\n      tag_438\n      jumpi\n      0x00\n      dup1\n      revert\n    tag_438:\n      swap1\n      0x00\n      mstore\n      keccak256(0x00, 0x20)\n      swap1\n      0x04\n      mul\n      add\n      0x00\n      swap2\n      pop\n      swap1\n      pop\n      dup1\n      0x00\n      add\n      sload\n      swap1\n      dup1\n      0x01\n      add\n      dup1\n      sload\n      0x01\n      dup2\n      0x01\n      and\n      iszero\n      0x0100\n      mul\n      sub\n      and\n      0x02\n      swap1\n      div\n      dup1\n      0x1f\n      add\n      0x20\n      dup1\n      swap2\n      div\n      mul\n      0x20\n      add\n      mload(0x40)\n      swap1\n      dup2\n      add\n      0x40\n      mstore\n      dup1\n      swap3\n      swap2\n      swap1\n      dup2\n      dup2\n      mstore\n      0x20\n      add\n      dup3\n      dup1\n      sload\n      0x01\n      dup2\n      0x01\n      and\n      iszero\n      0x0100\n      mul\n      sub\n      and\n      0x02\n      swap1\n      div\n      dup1\n      iszero\n      tag_440\n      jumpi\n      dup1\n      0x1f\n      lt\n      tag_441\n      jumpi\n      0x0100\n      dup1\n      dup4\n      sload\n      div\n      mul\n      dup4\n      mstore\n      swap2\n      0x20\n      add\n      swap2\n      jump(tag_440)\n    tag_441:\n      dup3\n      add\n      swap2\n      swap1\n      0x00\n      mstore\n      keccak256(0x00, 0x20)\n      swap1\n    tag_442:\n      dup2\n      sload\n      dup2\n      mstore\n      swap1\n      0x01\n      add\n      swap1\n      0x20\n      add\n      dup1\n      dup4\n      gt\n      tag_442\n      jumpi\n      dup3\n      swap1\n      sub\n      0x1f\n      and\n      dup3\n      add\n      swap2\n    tag_440:\n      pop\n      pop\n      pop\n      pop\n      pop\n      swap1\n      dup1\n      0x02\n      add\n      dup1\n      sload\n      0x01\n      dup2\n      0x01\n      and\n      iszero\n      0x0100\n      mul\n      sub\n      and\n      0x02\n      swap1\n      div\n      dup1\n      0x1f\n      add\n      0x20\n      dup1\n      swap2\n      div\n      mul\n      0x20\n      add\n      mload(0x40)\n      swap1\n      dup2\n      add\n      0x40\n      mstore\n      dup1\n      swap3\n      swap2\n      swap1\n      dup2\n      dup2\n      mstore\n      0x20\n      add\n      dup3\n      dup1\n      sload\n      0x01\n      dup2\n      0x01\n      and\n      iszero\n      0x0100\n      mul\n      sub\n      and\n      0x02\n      swap1\n      div\n      dup1\n      iszero\n      tag_443\n      jumpi\n      dup1\n      0x1f\n      lt\n      tag_444\n      jumpi\n      0x0100\n      dup1\n      dup4\n      sload\n      div\n      mul\n      dup4\n      mstore\n      swap2\n      0x20\n      add\n      swap2\n      jump(tag_443)\n    tag_444:\n      dup3\n      add\n      swap2\n      swap1\n      0x00\n      mstore\n      keccak256(0x00, 0x20)\n      swap1\n    tag_445:\n      dup2\n      sload\n      dup2\n      mstore\n      swap1\n      0x01\n      add\n      swap1\n      0x20\n      add\n      dup1\n      dup4\n      gt\n      tag_445\n      jumpi\n      dup3\n      swap1\n      sub\n      0x1f\n      and\n      dup3\n      add\n      swap2\n    tag_443:\n      pop\n      pop\n      pop\n      pop\n      pop\n      swap1\n      dup1\n      0x03\n      add\n      0x00\n      swap1\n      sload\n      swap1\n      0x0100\n      exp\n      swap1\n      div\n      0xffffffffffffffffffffffffffffffffffffffff\n      and\n      swap1\n      dup1\n      0x03\n      add\n      0x14\n      swap1\n      sload\n      swap1\n      0x0100\n      exp\n      swap1\n      div\n      0xff\n      and\n      swap1\n      pop\n      dup6\n      jump\t// out\n        /* \"EHealth.sol\":6593:6864  function getAllDoctors() public view returns (Doctor[] memory){\r... */\n    tag_139:\n        /* \"EHealth.sol\":6639:6654  Doctor[] memory */\n      0x60\n        /* \"EHealth.sol\":6666:6685  Doctor[] memory ret */\n      0x00\n        /* \"EHealth.sol\":6701:6716  doctorsHospital */\n      0x06\n        /* \"EHealth.sol\":6701:6723  doctorsHospital.length */\n      dup1\n      sload\n      swap1\n      pop\n        /* \"EHealth.sol\":6688:6724  new Doctor[](doctorsHospital.length) */\n      0xffffffffffffffff\n      dup2\n      gt\n      dup1\n      iszero\n      tag_447\n      jumpi\n      0x00\n      dup1\n      revert\n    tag_447:\n      pop\n      mload(0x40)\n      swap1\n      dup1\n      dup3\n      mstore\n      dup1\n      0x20\n      mul\n      0x20\n      add\n      dup3\n      add\n      0x40\n      mstore\n      dup1\n      iszero\n      tag_448\n      jumpi\n      dup2\n      0x20\n      add\n    tag_449:\n      tag_450\n      tag_406\n      jump\t// in\n    tag_450:\n      dup2\n      mstore\n      0x20\n      add\n      swap1\n      0x01\n      swap1\n      sub\n      swap1\n      dup2\n      tag_449\n      jumpi\n      swap1\n      pop\n    tag_448:\n      pop\n        /* \"EHealth.sol\":6666:6724  Doctor[] memory ret = new Doctor[](doctorsHospital.length) */\n      swap1\n      pop\n        /* \"EHealth.sol\":6740:6746  uint i */\n      0x00\n        /* \"EHealth.sol\":6735:6836  for (uint i = 0; i< doctorsHospital.length; i++) {\r... */\n    tag_451:\n        /* \"EHealth.sol\":6755:6770  doctorsHospital */\n      0x06\n        /* \"EHealth.sol\":6755:6777  doctorsHospital.length */\n      dup1\n      sload\n      swap1\n      pop\n        /* \"EHealth.sol\":6752:6753  i */\n      dup2\n        /* \"EHealth.sol\":6752:6777  i< doctorsHospital.length */\n      lt\n        /* \"EHealth.sol\":6735:6836  for (uint i = 0; i< doctorsHospital.length; i++) {\r... */\n      iszero\n      tag_452\n      jumpi\n        /* \"EHealth.sol\":6806:6821  doctorsHospital */\n      0x06\n        /* \"EHealth.sol\":6822:6823  i */\n      dup2\n        /* \"EHealth.sol\":6806:6824  doctorsHospital[i] */\n      dup2\n      sload\n      dup2\n      lt\n      tag_454\n      jumpi\n      invalid\n    tag_454:\n      swap1\n      0x00\n      mstore\n      keccak256(0x00, 0x20)\n      swap1\n      0x03\n      mul\n      add\n        /* \"EHealth.sol\":6799:6824  ret[i]=doctorsHospital[i] */\n      mload(0x40)\n      dup1\n      0x80\n      add\n      0x40\n      mstore\n      swap1\n      dup2\n      0x00\n      dup3\n      add\n      0x00\n      swap1\n      sload\n      swap1\n      0x0100\n      exp\n      swap1\n      div\n      0xffffffffffffffffffffffffffffffffffffffff\n      and\n      0xffffffffffffffffffffffffffffffffffffffff\n      and\n      0xffffffffffffffffffffffffffffffffffffffff\n      and\n      dup2\n      mstore\n      0x20\n      add\n      0x01\n      dup3\n      add\n      dup1\n      sload\n      0x01\n      dup2\n      0x01\n      and\n      iszero\n      0x0100\n      mul\n      sub\n      and\n      0x02\n      swap1\n      div\n      dup1\n      0x1f\n      add\n      0x20\n      dup1\n      swap2\n      div\n      mul\n      0x20\n      add\n      mload(0x40)\n      swap1\n      dup2\n      add\n      0x40\n      mstore\n      dup1\n      swap3\n      swap2\n      swap1\n      dup2\n      dup2\n      mstore\n      0x20\n      add\n      dup3\n      dup1\n      sload\n      0x01\n      dup2\n      0x01\n      and\n      iszero\n      0x0100\n      mul\n      sub\n      and\n      0x02\n      swap1\n      div\n      dup1\n      iszero\n      tag_456\n      jumpi\n      dup1\n      0x1f\n      lt\n      tag_457\n      jumpi\n      0x0100\n      dup1\n      dup4\n      sload\n      div\n      mul\n      dup4\n      mstore\n      swap2\n      0x20\n      add\n      swap2\n      jump(tag_456)\n    tag_457:\n      dup3\n      add\n      swap2\n      swap1\n      0x00\n      mstore\n      keccak256(0x00, 0x20)\n      swap1\n    tag_458:\n      dup2\n      sload\n      dup2\n      mstore\n      swap1\n      0x01\n      add\n      swap1\n      0x20\n      add\n      dup1\n      dup4\n      gt\n      tag_458\n      jumpi\n      dup3\n      swap1\n      sub\n      0x1f\n      and\n      dup3\n      add\n      swap2\n    tag_456:\n      pop\n      pop\n      pop\n      pop\n      pop\n      dup2\n      mstore\n      0x20\n      add\n      0x02\n      dup3\n      add\n      0x00\n      swap1\n      sload\n      swap1\n      0x0100\n      exp\n      swap1\n      div\n      0xffffffffffffffffffffffffffffffffffffffff\n      and\n      0xffffffffffffffffffffffffffffffffffffffff\n      and\n      0xffffffffffffffffffffffffffffffffffffffff\n      and\n      dup2\n      mstore\n      0x20\n      add\n      0x02\n      dup3\n      add\n      0x14\n      swap1\n      sload\n      swap1\n      0x0100\n      exp\n      swap1\n      div\n      0xff\n      and\n      iszero\n      iszero\n      iszero\n      iszero\n      dup2\n      mstore\n      pop\n      pop\n        /* \"EHealth.sol\":6799:6802  ret */\n      dup3\n        /* \"EHealth.sol\":6803:6804  i */\n      dup3\n        /* \"EHealth.sol\":6799:6805  ret[i] */\n      dup2\n      mload\n      dup2\n      lt\n      tag_459\n      jumpi\n      invalid\n    tag_459:\n      0x20\n      mul\n      0x20\n      add\n      add\n        /* \"EHealth.sol\":6799:6824  ret[i]=doctorsHospital[i] */\n      dup2\n      swap1\n      mstore\n      pop\n        /* \"EHealth.sol\":6779:6782  i++ */\n      dup1\n      dup1\n      0x01\n      add\n      swap2\n      pop\n      pop\n        /* \"EHealth.sol\":6735:6836  for (uint i = 0; i< doctorsHospital.length; i++) {\r... */\n      jump(tag_451)\n    tag_452:\n      pop\n        /* \"EHealth.sol\":6853:6856  ret */\n      dup1\n        /* \"EHealth.sol\":6846:6856  return ret */\n      swap2\n      pop\n      pop\n        /* \"EHealth.sol\":6593:6864  function getAllDoctors() public view returns (Doctor[] memory){\r... */\n      swap1\n      jump\t// out\n        /* \"EHealth.sol\":7786:8061  function FindSensor(uint _idSensor) internal view returns(uint){\r... */\n    tag_143:\n        /* \"EHealth.sol\":7844:7848  uint */\n      0x00\n        /* \"EHealth.sol\":7864:7870  uint i */\n      dup1\n        /* \"EHealth.sol\":7873:7874  0 */\n      0x00\n        /* \"EHealth.sol\":7864:7874  uint i = 0 */\n      swap1\n      pop\n        /* \"EHealth.sol\":7860:8017  for(uint i = 0 ; i < sensorsDoctor.length ; i++){\r... */\n    tag_461:\n        /* \"EHealth.sol\":7881:7894  sensorsDoctor */\n      0x08\n        /* \"EHealth.sol\":7881:7901  sensorsDoctor.length */\n      dup1\n      sload\n      swap1\n      pop\n        /* \"EHealth.sol\":7877:7878  i */\n      dup2\n        /* \"EHealth.sol\":7877:7901  i < sensorsDoctor.length */\n      lt\n        /* \"EHealth.sol\":7860:8017  for(uint i = 0 ; i < sensorsDoctor.length ; i++){\r... */\n      iszero\n      tag_462\n      jumpi\n        /* \"EHealth.sol\":7953:7962  _idSensor */\n      dup3\n        /* \"EHealth.sol\":7926:7939  sensorsDoctor */\n      0x08\n        /* \"EHealth.sol\":7940:7941  i */\n      dup3\n        /* \"EHealth.sol\":7926:7942  sensorsDoctor[i] */\n      dup2\n      sload\n      dup2\n      lt\n      tag_464\n      jumpi\n      invalid\n    tag_464:\n      swap1\n      0x00\n      mstore\n      keccak256(0x00, 0x20)\n      swap1\n      0x04\n      mul\n      add\n        /* \"EHealth.sol\":7926:7951  sensorsDoctor[i].idSensor */\n      0x00\n      add\n      sload\n        /* \"EHealth.sol\":7926:7962  sensorsDoctor[i].idSensor==_idSensor */\n      eq\n        /* \"EHealth.sol\":7923:8006  if(sensorsDoctor[i].idSensor==_idSensor){\r... */\n      iszero\n      tag_466\n      jumpi\n        /* \"EHealth.sol\":7989:7990  i */\n      dup1\n        /* \"EHealth.sol\":7982:7990  return i */\n      swap2\n      pop\n      pop\n      jump(tag_460)\n        /* \"EHealth.sol\":7923:8006  if(sensorsDoctor[i].idSensor==_idSensor){\r... */\n    tag_466:\n        /* \"EHealth.sol\":7904:7907  i++ */\n      dup1\n      dup1\n      0x01\n      add\n      swap2\n      pop\n      pop\n        /* \"EHealth.sol\":7860:8017  for(uint i = 0 ; i < sensorsDoctor.length ; i++){\r... */\n      jump(tag_461)\n    tag_462:\n      pop\n        /* \"EHealth.sol\":8027:8053  revert('Sensor not found') */\n      mload(0x40)\n      0x08c379a000000000000000000000000000000000000000000000000000000000\n      dup2\n      mstore\n      0x04\n      add\n      tag_467\n      swap1\n      tag_468\n      jump\t// in\n    tag_467:\n      mload(0x40)\n      dup1\n      swap2\n      sub\n      swap1\n      revert\n        /* \"EHealth.sol\":7786:8061  function FindSensor(uint _idSensor) internal view returns(uint){\r... */\n    tag_460:\n      swap2\n      swap1\n      pop\n      jump\t// out\n        /* \"EHealth.sol\":4944:5214  function FindDoctor(address _id) internal view returns(uint){\r... */\n    tag_160:\n        /* \"EHealth.sol\":4999:5003  uint */\n      0x00\n        /* \"EHealth.sol\":5019:5025  uint i */\n      dup1\n        /* \"EHealth.sol\":5028:5029  0 */\n      0x00\n        /* \"EHealth.sol\":5019:5029  uint i = 0 */\n      swap1\n      pop\n        /* \"EHealth.sol\":5015:5170  for(uint i = 0 ; i < doctorsHospital.length ; i++){\r... */\n    tag_470:\n        /* \"EHealth.sol\":5036:5051  doctorsHospital */\n      0x06\n        /* \"EHealth.sol\":5036:5058  doctorsHospital.length */\n      dup1\n      sload\n      swap1\n      pop\n        /* \"EHealth.sol\":5032:5033  i */\n      dup2\n        /* \"EHealth.sol\":5032:5058  i < doctorsHospital.length */\n      lt\n        /* \"EHealth.sol\":5015:5170  for(uint i = 0 ; i < doctorsHospital.length ; i++){\r... */\n      iszero\n      tag_471\n      jumpi\n        /* \"EHealth.sol\":5112:5115  _id */\n      dup3\n        /* \"EHealth.sol\":5083:5115  doctorsHospital[i].idDoctor==_id */\n      0xffffffffffffffffffffffffffffffffffffffff\n      and\n        /* \"EHealth.sol\":5083:5098  doctorsHospital */\n      0x06\n        /* \"EHealth.sol\":5099:5100  i */\n      dup3\n        /* \"EHealth.sol\":5083:5101  doctorsHospital[i] */\n      dup2\n      sload\n      dup2\n      lt\n      tag_473\n      jumpi\n      invalid\n    tag_473:\n      swap1\n      0x00\n      mstore\n      keccak256(0x00, 0x20)\n      swap1\n      0x03\n      mul\n      add\n        /* \"EHealth.sol\":5083:5110  doctorsHospital[i].idDoctor */\n      0x00\n      add\n      0x00\n      swap1\n      sload\n      swap1\n      0x0100\n      exp\n      swap1\n      div\n      0xffffffffffffffffffffffffffffffffffffffff\n      and\n        /* \"EHealth.sol\":5083:5115  doctorsHospital[i].idDoctor==_id */\n      0xffffffffffffffffffffffffffffffffffffffff\n      and\n      eq\n        /* \"EHealth.sol\":5080:5159  if(doctorsHospital[i].idDoctor==_id){\r... */\n      iszero\n      tag_475\n      jumpi\n        /* \"EHealth.sol\":5142:5143  i */\n      dup1\n        /* \"EHealth.sol\":5135:5143  return i */\n      swap2\n      pop\n      pop\n      jump(tag_469)\n        /* \"EHealth.sol\":5080:5159  if(doctorsHospital[i].idDoctor==_id){\r... */\n    tag_475:\n        /* \"EHealth.sol\":5061:5064  i++ */\n      dup1\n      dup1\n      0x01\n      add\n      swap2\n      pop\n      pop\n        /* \"EHealth.sol\":5015:5170  for(uint i = 0 ; i < doctorsHospital.length ; i++){\r... */\n      jump(tag_470)\n    tag_471:\n      pop\n        /* \"EHealth.sol\":5180:5206  revert('Doctor not found') */\n      mload(0x40)\n      0x08c379a000000000000000000000000000000000000000000000000000000000\n      dup2\n      mstore\n      0x04\n      add\n      tag_476\n      swap1\n      tag_477\n      jump\t// in\n    tag_476:\n      mload(0x40)\n      dup1\n      swap2\n      sub\n      swap1\n      revert\n        /* \"EHealth.sol\":4944:5214  function FindDoctor(address _id) internal view returns(uint){\r... */\n    tag_469:\n      swap2\n      swap1\n      pop\n      jump\t// out\n        /* \"EHealth.sol\":2133:2419  function FindHospital(address _address) internal view returns(uint){\r... */\n    tag_189:\n        /* \"EHealth.sol\":2195:2199  uint */\n      0x00\n        /* \"EHealth.sol\":2215:2221  uint i */\n      dup1\n        /* \"EHealth.sol\":2224:2225  0 */\n      0x00\n        /* \"EHealth.sol\":2215:2225  uint i = 0 */\n      swap1\n      pop\n        /* \"EHealth.sol\":2211:2373  for(uint i = 0 ; i < hospitalCenters.length ; i++){\r... */\n    tag_479:\n        /* \"EHealth.sol\":2232:2247  hospitalCenters */\n      0x04\n        /* \"EHealth.sol\":2232:2254  hospitalCenters.length */\n      dup1\n      sload\n      swap1\n      pop\n        /* \"EHealth.sol\":2228:2229  i */\n      dup2\n        /* \"EHealth.sol\":2228:2254  i < hospitalCenters.length */\n      lt\n        /* \"EHealth.sol\":2211:2373  for(uint i = 0 ; i < hospitalCenters.length ; i++){\r... */\n      iszero\n      tag_480\n      jumpi\n        /* \"EHealth.sol\":2310:2318  _address */\n      dup3\n        /* \"EHealth.sol\":2279:2318  hospitalCenters[i].idHospital==_address */\n      0xffffffffffffffffffffffffffffffffffffffff\n      and\n        /* \"EHealth.sol\":2279:2294  hospitalCenters */\n      0x04\n        /* \"EHealth.sol\":2295:2296  i */\n      dup3\n        /* \"EHealth.sol\":2279:2297  hospitalCenters[i] */\n      dup2\n      sload\n      dup2\n      lt\n      tag_482\n      jumpi\n      invalid\n    tag_482:\n      swap1\n      0x00\n      mstore\n      keccak256(0x00, 0x20)\n      swap1\n      0x06\n      mul\n      add\n        /* \"EHealth.sol\":2279:2308  hospitalCenters[i].idHospital */\n      0x00\n      add\n      0x00\n      swap1\n      sload\n      swap1\n      0x0100\n      exp\n      swap1\n      div\n      0xffffffffffffffffffffffffffffffffffffffff\n      and\n        /* \"EHealth.sol\":2279:2318  hospitalCenters[i].idHospital==_address */\n      0xffffffffffffffffffffffffffffffffffffffff\n      and\n      eq\n        /* \"EHealth.sol\":2276:2362  if(hospitalCenters[i].idHospital==_address){\r... */\n      iszero\n      tag_484\n      jumpi\n        /* \"EHealth.sol\":2345:2346  i */\n      dup1\n        /* \"EHealth.sol\":2338:2346  return i */\n      swap2\n      pop\n      pop\n      jump(tag_478)\n        /* \"EHealth.sol\":2276:2362  if(hospitalCenters[i].idHospital==_address){\r... */\n    tag_484:\n        /* \"EHealth.sol\":2257:2260  i++ */\n      dup1\n      dup1\n      0x01\n      add\n      swap2\n      pop\n      pop\n        /* \"EHealth.sol\":2211:2373  for(uint i = 0 ; i < hospitalCenters.length ; i++){\r... */\n      jump(tag_479)\n    tag_480:\n      pop\n        /* \"EHealth.sol\":2383:2411  revert('Hospital not found') */\n      mload(0x40)\n      0x08c379a000000000000000000000000000000000000000000000000000000000\n      dup2\n      mstore\n      0x04\n      add\n      tag_485\n      swap1\n      tag_486\n      jump\t// in\n    tag_485:\n      mload(0x40)\n      dup1\n      swap2\n      sub\n      swap1\n      revert\n        /* \"EHealth.sol\":2133:2419  function FindHospital(address _address) internal view returns(uint){\r... */\n    tag_478:\n      swap2\n      swap1\n      pop\n      jump\t// out\n    tag_163:\n      dup3\n      dup1\n      sload\n      0x01\n      dup2\n      0x01\n      and\n      iszero\n      0x0100\n      mul\n      sub\n      and\n      0x02\n      swap1\n      div\n      swap1\n      0x00\n      mstore\n      keccak256(0x00, 0x20)\n      swap1\n      0x1f\n      add\n      0x20\n      swap1\n      div\n      dup2\n      add\n      swap3\n      dup3\n      tag_488\n      jumpi\n      0x00\n      dup6\n      sstore\n      jump(tag_487)\n    tag_488:\n      dup3\n      0x1f\n      lt\n      tag_489\n      jumpi\n      dup1\n      mload\n      not(0xff)\n      and\n      dup4\n      dup1\n      add\n      or\n      dup6\n      sstore\n      jump(tag_487)\n    tag_489:\n      dup3\n      dup1\n      add\n      0x01\n      add\n      dup6\n      sstore\n      dup3\n      iszero\n      tag_487\n      jumpi\n      swap2\n      dup3\n      add\n    tag_490:\n      dup3\n      dup2\n      gt\n      iszero\n      tag_491\n      jumpi\n      dup3\n      mload\n      dup3\n      sstore\n      swap2\n      0x20\n      add\n      swap2\n      swap1\n      0x01\n      add\n      swap1\n      jump(tag_490)\n    tag_491:\n    tag_487:\n      pop\n      swap1\n      pop\n      tag_492\n      swap2\n      swap1\n      tag_493\n      jump\t// in\n    tag_492:\n      pop\n      swap1\n      jump\t// out\n    tag_211:\n      mload(0x40)\n      dup1\n      0xc0\n      add\n      0x40\n      mstore\n      dup1\n      and(0xffffffffffffffffffffffffffffffffffffffff, 0x00)\n      dup2\n      mstore\n      0x20\n      add\n      0x60\n      dup2\n      mstore\n      0x20\n      add\n      0x60\n      dup2\n      mstore\n      0x20\n      add\n      0x60\n      dup2\n      mstore\n      0x20\n      add\n      0x00\n      dup2\n      mstore\n      0x20\n      add\n      iszero(iszero(0x00))\n      dup2\n      mstore\n      pop\n      swap1\n      jump\t// out\n    tag_232:\n      mload(0x40)\n      dup1\n      0xa0\n      add\n      0x40\n      mstore\n      dup1\n      0x00\n      dup2\n      mstore\n      0x20\n      add\n      0x60\n      dup2\n      mstore\n      0x20\n      add\n      0x60\n      dup2\n      mstore\n      0x20\n      add\n      and(0xffffffffffffffffffffffffffffffffffffffff, 0x00)\n      dup2\n      mstore\n      0x20\n      add\n      iszero(iszero(0x00))\n      dup2\n      mstore\n      pop\n      swap1\n      jump\t// out\n    tag_406:\n      mload(0x40)\n      dup1\n      0x80\n      add\n      0x40\n      mstore\n      dup1\n      and(0xffffffffffffffffffffffffffffffffffffffff, 0x00)\n      dup2\n      mstore\n      0x20\n      add\n      0x60\n      dup2\n      mstore\n      0x20\n      add\n      and(0xffffffffffffffffffffffffffffffffffffffff, 0x00)\n      dup2\n      mstore\n      0x20\n      add\n      iszero(iszero(0x00))\n      dup2\n      mstore\n      pop\n      swap1\n      jump\t// out\n    tag_493:\n    tag_494:\n      dup1\n      dup3\n      gt\n      iszero\n      tag_495\n      jumpi\n      0x00\n      dup2\n      0x00\n      swap1\n      sstore\n      pop\n      0x01\n      add\n      jump(tag_494)\n    tag_495:\n      pop\n      swap1\n      jump\t// out\n        /* \"#utility.yul\":7:351   */\n    tag_497:\n      0x00\n        /* \"#utility.yul\":110:175   */\n      tag_499\n        /* \"#utility.yul\":125:174   */\n      tag_500\n        /* \"#utility.yul\":167:173   */\n      dup5\n        /* \"#utility.yul\":125:174   */\n      tag_501\n      jump\t// in\n    tag_500:\n        /* \"#utility.yul\":110:175   */\n      tag_502\n      jump\t// in\n    tag_499:\n        /* \"#utility.yul\":101:175   */\n      swap1\n      pop\n        /* \"#utility.yul\":198:204   */\n      dup3\n        /* \"#utility.yul\":191:196   */\n      dup2\n        /* \"#utility.yul\":184:205   */\n      mstore\n        /* \"#utility.yul\":236:240   */\n      0x20\n        /* \"#utility.yul\":229:234   */\n      dup2\n        /* \"#utility.yul\":225:241   */\n      add\n        /* \"#utility.yul\":274:277   */\n      dup5\n        /* \"#utility.yul\":265:271   */\n      dup5\n        /* \"#utility.yul\":260:263   */\n      dup5\n        /* \"#utility.yul\":256:272   */\n      add\n        /* \"#utility.yul\":253:278   */\n      gt\n        /* \"#utility.yul\":250:252   */\n      iszero\n      tag_503\n      jumpi\n        /* \"#utility.yul\":291:292   */\n      0x00\n        /* \"#utility.yul\":288:289   */\n      dup1\n        /* \"#utility.yul\":281:293   */\n      revert\n        /* \"#utility.yul\":250:252   */\n    tag_503:\n        /* \"#utility.yul\":304:345   */\n      tag_504\n        /* \"#utility.yul\":338:344   */\n      dup5\n        /* \"#utility.yul\":333:336   */\n      dup3\n        /* \"#utility.yul\":328:331   */\n      dup6\n        /* \"#utility.yul\":304:345   */\n      tag_505\n      jump\t// in\n    tag_504:\n        /* \"#utility.yul\":91:351   */\n      pop\n      swap4\n      swap3\n      pop\n      pop\n      pop\n      jump\t// out\n        /* \"#utility.yul\":357:496   */\n    tag_506:\n      0x00\n        /* \"#utility.yul\":441:447   */\n      dup2\n        /* \"#utility.yul\":428:448   */\n      calldataload\n        /* \"#utility.yul\":419:448   */\n      swap1\n      pop\n        /* \"#utility.yul\":457:490   */\n      tag_508\n        /* \"#utility.yul\":484:489   */\n      dup2\n        /* \"#utility.yul\":457:490   */\n      tag_509\n      jump\t// in\n    tag_508:\n        /* \"#utility.yul\":409:496   */\n      swap3\n      swap2\n      pop\n      pop\n      jump\t// out\n        /* \"#utility.yul\":502:635   */\n    tag_510:\n      0x00\n        /* \"#utility.yul\":583:589   */\n      dup2\n        /* \"#utility.yul\":570:590   */\n      calldataload\n        /* \"#utility.yul\":561:590   */\n      swap1\n      pop\n        /* \"#utility.yul\":599:629   */\n      tag_512\n        /* \"#utility.yul\":623:628   */\n      dup2\n        /* \"#utility.yul\":599:629   */\n      tag_513\n      jump\t// in\n    tag_512:\n        /* \"#utility.yul\":551:635   */\n      swap3\n      swap2\n      pop\n      pop\n      jump\t// out\n        /* \"#utility.yul\":655:928   */\n    tag_514:\n      0x00\n        /* \"#utility.yul\":760:763   */\n      dup3\n        /* \"#utility.yul\":753:757   */\n      0x1f\n        /* \"#utility.yul\":745:751   */\n      dup4\n        /* \"#utility.yul\":741:758   */\n      add\n        /* \"#utility.yul\":737:764   */\n      slt\n        /* \"#utility.yul\":727:729   */\n      tag_516\n      jumpi\n        /* \"#utility.yul\":778:779   */\n      0x00\n        /* \"#utility.yul\":775:776   */\n      dup1\n        /* \"#utility.yul\":768:780   */\n      revert\n        /* \"#utility.yul\":727:729   */\n    tag_516:\n        /* \"#utility.yul\":818:824   */\n      dup2\n        /* \"#utility.yul\":805:825   */\n      calldataload\n        /* \"#utility.yul\":843:922   */\n      tag_517\n        /* \"#utility.yul\":918:921   */\n      dup5\n        /* \"#utility.yul\":910:916   */\n      dup3\n        /* \"#utility.yul\":903:907   */\n      0x20\n        /* \"#utility.yul\":895:901   */\n      dup7\n        /* \"#utility.yul\":891:908   */\n      add\n        /* \"#utility.yul\":843:922   */\n      tag_497\n      jump\t// in\n    tag_517:\n        /* \"#utility.yul\":834:922   */\n      swap2\n      pop\n        /* \"#utility.yul\":717:928   */\n      pop\n      swap3\n      swap2\n      pop\n      pop\n      jump\t// out\n        /* \"#utility.yul\":934:1073   */\n    tag_518:\n      0x00\n        /* \"#utility.yul\":1018:1024   */\n      dup2\n        /* \"#utility.yul\":1005:1025   */\n      calldataload\n        /* \"#utility.yul\":996:1025   */\n      swap1\n      pop\n        /* \"#utility.yul\":1034:1067   */\n      tag_520\n        /* \"#utility.yul\":1061:1066   */\n      dup2\n        /* \"#utility.yul\":1034:1067   */\n      tag_521\n      jump\t// in\n    tag_520:\n        /* \"#utility.yul\":986:1073   */\n      swap3\n      swap2\n      pop\n      pop\n      jump\t// out\n        /* \"#utility.yul\":1079:1341   */\n    tag_54:\n      0x00\n        /* \"#utility.yul\":1187:1189   */\n      0x20\n        /* \"#utility.yul\":1175:1184   */\n      dup3\n        /* \"#utility.yul\":1166:1173   */\n      dup5\n        /* \"#utility.yul\":1162:1185   */\n      sub\n        /* \"#utility.yul\":1158:1190   */\n      slt\n        /* \"#utility.yul\":1155:1157   */\n      iszero\n      tag_523\n      jumpi\n        /* \"#utility.yul\":1203:1204   */\n      0x00\n        /* \"#utility.yul\":1200:1201   */\n      dup1\n        /* \"#utility.yul\":1193:1205   */\n      revert\n        /* \"#utility.yul\":1155:1157   */\n    tag_523:\n        /* \"#utility.yul\":1246:1247   */\n      0x00\n        /* \"#utility.yul\":1271:1324   */\n      tag_524\n        /* \"#utility.yul\":1316:1323   */\n      dup5\n        /* \"#utility.yul\":1307:1313   */\n      dup3\n        /* \"#utility.yul\":1296:1305   */\n      dup6\n        /* \"#utility.yul\":1292:1314   */\n      add\n        /* \"#utility.yul\":1271:1324   */\n      tag_506\n      jump\t// in\n    tag_524:\n        /* \"#utility.yul\":1261:1324   */\n      swap2\n      pop\n        /* \"#utility.yul\":1217:1334   */\n      pop\n        /* \"#utility.yul\":1145:1341   */\n      swap3\n      swap2\n      pop\n      pop\n      jump\t// out\n        /* \"#utility.yul\":1347:2012   */\n    tag_132:\n      0x00\n      dup1\n      0x00\n        /* \"#utility.yul\":1499:1501   */\n      0x60\n        /* \"#utility.yul\":1487:1496   */\n      dup5\n        /* \"#utility.yul\":1478:1485   */\n      dup7\n        /* \"#utility.yul\":1474:1497   */\n      sub\n        /* \"#utility.yul\":1470:1502   */\n      slt\n        /* \"#utility.yul\":1467:1469   */\n      iszero\n      tag_526\n      jumpi\n        /* \"#utility.yul\":1515:1516   */\n      0x00\n        /* \"#utility.yul\":1512:1513   */\n      dup1\n        /* \"#utility.yul\":1505:1517   */\n      revert\n        /* \"#utility.yul\":1467:1469   */\n    tag_526:\n        /* \"#utility.yul\":1558:1559   */\n      0x00\n        /* \"#utility.yul\":1583:1636   */\n      tag_527\n        /* \"#utility.yul\":1628:1635   */\n      dup7\n        /* \"#utility.yul\":1619:1625   */\n      dup3\n        /* \"#utility.yul\":1608:1617   */\n      dup8\n        /* \"#utility.yul\":1604:1626   */\n      add\n        /* \"#utility.yul\":1583:1636   */\n      tag_506\n      jump\t// in\n    tag_527:\n        /* \"#utility.yul\":1573:1636   */\n      swap4\n      pop\n        /* \"#utility.yul\":1529:1646   */\n      pop\n        /* \"#utility.yul\":1713:1715   */\n      0x20\n        /* \"#utility.yul\":1702:1711   */\n      dup5\n        /* \"#utility.yul\":1698:1716   */\n      add\n        /* \"#utility.yul\":1685:1717   */\n      calldataload\n        /* \"#utility.yul\":1744:1762   */\n      0xffffffffffffffff\n        /* \"#utility.yul\":1736:1742   */\n      dup2\n        /* \"#utility.yul\":1733:1763   */\n      gt\n        /* \"#utility.yul\":1730:1732   */\n      iszero\n      tag_528\n      jumpi\n        /* \"#utility.yul\":1776:1777   */\n      0x00\n        /* \"#utility.yul\":1773:1774   */\n      dup1\n        /* \"#utility.yul\":1766:1778   */\n      revert\n        /* \"#utility.yul\":1730:1732   */\n    tag_528:\n        /* \"#utility.yul\":1804:1867   */\n      tag_529\n        /* \"#utility.yul\":1859:1866   */\n      dup7\n        /* \"#utility.yul\":1850:1856   */\n      dup3\n        /* \"#utility.yul\":1839:1848   */\n      dup8\n        /* \"#utility.yul\":1835:1857   */\n      add\n        /* \"#utility.yul\":1804:1867   */\n      tag_514\n      jump\t// in\n    tag_529:\n        /* \"#utility.yul\":1794:1867   */\n      swap3\n      pop\n        /* \"#utility.yul\":1656:1877   */\n      pop\n        /* \"#utility.yul\":1916:1918   */\n      0x40\n        /* \"#utility.yul\":1942:1995   */\n      tag_530\n        /* \"#utility.yul\":1987:1994   */\n      dup7\n        /* \"#utility.yul\":1978:1984   */\n      dup3\n        /* \"#utility.yul\":1967:1976   */\n      dup8\n        /* \"#utility.yul\":1963:1985   */\n      add\n        /* \"#utility.yul\":1942:1995   */\n      tag_506\n      jump\t// in\n    tag_530:\n        /* \"#utility.yul\":1932:1995   */\n      swap2\n      pop\n        /* \"#utility.yul\":1887:2005   */\n      pop\n        /* \"#utility.yul\":1457:2012   */\n      swap3\n      pop\n      swap3\n      pop\n      swap3\n      jump\t// out\n        /* \"#utility.yul\":2018:2823   */\n    tag_66:\n      0x00\n      dup1\n      0x00\n      dup1\n        /* \"#utility.yul\":2184:2187   */\n      0x80\n        /* \"#utility.yul\":2172:2181   */\n      dup6\n        /* \"#utility.yul\":2163:2170   */\n      dup8\n        /* \"#utility.yul\":2159:2182   */\n      sub\n        /* \"#utility.yul\":2155:2188   */\n      slt\n        /* \"#utility.yul\":2152:2154   */\n      iszero\n      tag_532\n      jumpi\n        /* \"#utility.yul\":2201:2202   */\n      0x00\n        /* \"#utility.yul\":2198:2199   */\n      dup1\n        /* \"#utility.yul\":2191:2203   */\n      revert\n        /* \"#utility.yul\":2152:2154   */\n    tag_532:\n        /* \"#utility.yul\":2244:2245   */\n      0x00\n        /* \"#utility.yul\":2269:2322   */\n      tag_533\n        /* \"#utility.yul\":2314:2321   */\n      dup8\n        /* \"#utility.yul\":2305:2311   */\n      dup3\n        /* \"#utility.yul\":2294:2303   */\n      dup9\n        /* \"#utility.yul\":2290:2312   */\n      add\n        /* \"#utility.yul\":2269:2322   */\n      tag_506\n      jump\t// in\n    tag_533:\n        /* \"#utility.yul\":2259:2322   */\n      swap5\n      pop\n        /* \"#utility.yul\":2215:2332   */\n      pop\n        /* \"#utility.yul\":2399:2401   */\n      0x20\n        /* \"#utility.yul\":2388:2397   */\n      dup6\n        /* \"#utility.yul\":2384:2402   */\n      add\n        /* \"#utility.yul\":2371:2403   */\n      calldataload\n        /* \"#utility.yul\":2430:2448   */\n      0xffffffffffffffff\n        /* \"#utility.yul\":2422:2428   */\n      dup2\n        /* \"#utility.yul\":2419:2449   */\n      gt\n        /* \"#utility.yul\":2416:2418   */\n      iszero\n      tag_534\n      jumpi\n        /* \"#utility.yul\":2462:2463   */\n      0x00\n        /* \"#utility.yul\":2459:2460   */\n      dup1\n        /* \"#utility.yul\":2452:2464   */\n      revert\n        /* \"#utility.yul\":2416:2418   */\n    tag_534:\n        /* \"#utility.yul\":2490:2553   */\n      tag_535\n        /* \"#utility.yul\":2545:2552   */\n      dup8\n        /* \"#utility.yul\":2536:2542   */\n      dup3\n        /* \"#utility.yul\":2525:2534   */\n      dup9\n        /* \"#utility.yul\":2521:2543   */\n      add\n        /* \"#utility.yul\":2490:2553   */\n      tag_514\n      jump\t// in\n    tag_535:\n        /* \"#utility.yul\":2480:2553   */\n      swap4\n      pop\n        /* \"#utility.yul\":2342:2563   */\n      pop\n        /* \"#utility.yul\":2602:2604   */\n      0x40\n        /* \"#utility.yul\":2628:2681   */\n      tag_536\n        /* \"#utility.yul\":2673:2680   */\n      dup8\n        /* \"#utility.yul\":2664:2670   */\n      dup3\n        /* \"#utility.yul\":2653:2662   */\n      dup9\n        /* \"#utility.yul\":2649:2671   */\n      add\n        /* \"#utility.yul\":2628:2681   */\n      tag_506\n      jump\t// in\n    tag_536:\n        /* \"#utility.yul\":2618:2681   */\n      swap3\n      pop\n        /* \"#utility.yul\":2573:2691   */\n      pop\n        /* \"#utility.yul\":2730:2732   */\n      0x60\n        /* \"#utility.yul\":2756:2806   */\n      tag_537\n        /* \"#utility.yul\":2798:2805   */\n      dup8\n        /* \"#utility.yul\":2789:2795   */\n      dup3\n        /* \"#utility.yul\":2778:2787   */\n      dup9\n        /* \"#utility.yul\":2774:2796   */\n      add\n        /* \"#utility.yul\":2756:2806   */\n      tag_510\n      jump\t// in\n    tag_537:\n        /* \"#utility.yul\":2746:2806   */\n      swap2\n      pop\n        /* \"#utility.yul\":2701:2816   */\n      pop\n        /* \"#utility.yul\":2142:2823   */\n      swap3\n      swap6\n      swap2\n      swap5\n      pop\n      swap3\n      pop\n      jump\t// out\n        /* \"#utility.yul\":2829:4012   */\n    tag_107:\n      0x00\n      dup1\n      0x00\n      dup1\n      0x00\n        /* \"#utility.yul\":3035:3038   */\n      0xa0\n        /* \"#utility.yul\":3023:3032   */\n      dup7\n        /* \"#utility.yul\":3014:3021   */\n      dup9\n        /* \"#utility.yul\":3010:3033   */\n      sub\n        /* \"#utility.yul\":3006:3039   */\n      slt\n        /* \"#utility.yul\":3003:3005   */\n      iszero\n      tag_539\n      jumpi\n        /* \"#utility.yul\":3052:3053   */\n      0x00\n        /* \"#utility.yul\":3049:3050   */\n      dup1\n        /* \"#utility.yul\":3042:3054   */\n      revert\n        /* \"#utility.yul\":3003:3005   */\n    tag_539:\n        /* \"#utility.yul\":3095:3096   */\n      0x00\n        /* \"#utility.yul\":3120:3173   */\n      tag_540\n        /* \"#utility.yul\":3165:3172   */\n      dup9\n        /* \"#utility.yul\":3156:3162   */\n      dup3\n        /* \"#utility.yul\":3145:3154   */\n      dup10\n        /* \"#utility.yul\":3141:3163   */\n      add\n        /* \"#utility.yul\":3120:3173   */\n      tag_506\n      jump\t// in\n    tag_540:\n        /* \"#utility.yul\":3110:3173   */\n      swap6\n      pop\n        /* \"#utility.yul\":3066:3183   */\n      pop\n        /* \"#utility.yul\":3250:3252   */\n      0x20\n        /* \"#utility.yul\":3239:3248   */\n      dup7\n        /* \"#utility.yul\":3235:3253   */\n      add\n        /* \"#utility.yul\":3222:3254   */\n      calldataload\n        /* \"#utility.yul\":3281:3299   */\n      0xffffffffffffffff\n        /* \"#utility.yul\":3273:3279   */\n      dup2\n        /* \"#utility.yul\":3270:3300   */\n      gt\n        /* \"#utility.yul\":3267:3269   */\n      iszero\n      tag_541\n      jumpi\n        /* \"#utility.yul\":3313:3314   */\n      0x00\n        /* \"#utility.yul\":3310:3311   */\n      dup1\n        /* \"#utility.yul\":3303:3315   */\n      revert\n        /* \"#utility.yul\":3267:3269   */\n    tag_541:\n        /* \"#utility.yul\":3341:3404   */\n      tag_542\n        /* \"#utility.yul\":3396:3403   */\n      dup9\n        /* \"#utility.yul\":3387:3393   */\n      dup3\n        /* \"#utility.yul\":3376:3385   */\n      dup10\n        /* \"#utility.yul\":3372:3394   */\n      add\n        /* \"#utility.yul\":3341:3404   */\n      tag_514\n      jump\t// in\n    tag_542:\n        /* \"#utility.yul\":3331:3404   */\n      swap5\n      pop\n        /* \"#utility.yul\":3193:3414   */\n      pop\n        /* \"#utility.yul\":3481:3483   */\n      0x40\n        /* \"#utility.yul\":3470:3479   */\n      dup7\n        /* \"#utility.yul\":3466:3484   */\n      add\n        /* \"#utility.yul\":3453:3485   */\n      calldataload\n        /* \"#utility.yul\":3512:3530   */\n      0xffffffffffffffff\n        /* \"#utility.yul\":3504:3510   */\n      dup2\n        /* \"#utility.yul\":3501:3531   */\n      gt\n        /* \"#utility.yul\":3498:3500   */\n      iszero\n      tag_543\n      jumpi\n        /* \"#utility.yul\":3544:3545   */\n      0x00\n        /* \"#utility.yul\":3541:3542   */\n      dup1\n        /* \"#utility.yul\":3534:3546   */\n      revert\n        /* \"#utility.yul\":3498:3500   */\n    tag_543:\n        /* \"#utility.yul\":3572:3635   */\n      tag_544\n        /* \"#utility.yul\":3627:3634   */\n      dup9\n        /* \"#utility.yul\":3618:3624   */\n      dup3\n        /* \"#utility.yul\":3607:3616   */\n      dup10\n        /* \"#utility.yul\":3603:3625   */\n      add\n        /* \"#utility.yul\":3572:3635   */\n      tag_514\n      jump\t// in\n    tag_544:\n        /* \"#utility.yul\":3562:3635   */\n      swap4\n      pop\n        /* \"#utility.yul\":3424:3645   */\n      pop\n        /* \"#utility.yul\":3712:3714   */\n      0x60\n        /* \"#utility.yul\":3701:3710   */\n      dup7\n        /* \"#utility.yul\":3697:3715   */\n      add\n        /* \"#utility.yul\":3684:3716   */\n      calldataload\n        /* \"#utility.yul\":3743:3761   */\n      0xffffffffffffffff\n        /* \"#utility.yul\":3735:3741   */\n      dup2\n        /* \"#utility.yul\":3732:3762   */\n      gt\n        /* \"#utility.yul\":3729:3731   */\n      iszero\n      tag_545\n      jumpi\n        /* \"#utility.yul\":3775:3776   */\n      0x00\n        /* \"#utility.yul\":3772:3773   */\n      dup1\n        /* \"#utility.yul\":3765:3777   */\n      revert\n        /* \"#utility.yul\":3729:3731   */\n    tag_545:\n        /* \"#utility.yul\":3803:3866   */\n      tag_546\n        /* \"#utility.yul\":3858:3865   */\n      dup9\n        /* \"#utility.yul\":3849:3855   */\n      dup3\n        /* \"#utility.yul\":3838:3847   */\n      dup10\n        /* \"#utility.yul\":3834:3856   */\n      add\n        /* \"#utility.yul\":3803:3866   */\n      tag_514\n      jump\t// in\n    tag_546:\n        /* \"#utility.yul\":3793:3866   */\n      swap3\n      pop\n        /* \"#utility.yul\":3655:3876   */\n      pop\n        /* \"#utility.yul\":3915:3918   */\n      0x80\n        /* \"#utility.yul\":3942:3995   */\n      tag_547\n        /* \"#utility.yul\":3987:3994   */\n      dup9\n        /* \"#utility.yul\":3978:3984   */\n      dup3\n        /* \"#utility.yul\":3967:3976   */\n      dup10\n        /* \"#utility.yul\":3963:3985   */\n      add\n        /* \"#utility.yul\":3942:3995   */\n      tag_518\n      jump\t// in\n    tag_547:\n        /* \"#utility.yul\":3932:3995   */\n      swap2\n      pop\n        /* \"#utility.yul\":3886:4005   */\n      pop\n        /* \"#utility.yul\":2993:4012   */\n      swap3\n      swap6\n      pop\n      swap3\n      swap6\n      swap1\n      swap4\n      pop\n      jump\t// out\n        /* \"#utility.yul\":4018:5341   */\n    tag_78:\n      0x00\n      dup1\n      0x00\n      dup1\n      0x00\n      dup1\n        /* \"#utility.yul\":4238:4241   */\n      0xc0\n        /* \"#utility.yul\":4226:4235   */\n      dup8\n        /* \"#utility.yul\":4217:4224   */\n      dup10\n        /* \"#utility.yul\":4213:4236   */\n      sub\n        /* \"#utility.yul\":4209:4242   */\n      slt\n        /* \"#utility.yul\":4206:4208   */\n      iszero\n      tag_549\n      jumpi\n        /* \"#utility.yul\":4255:4256   */\n      0x00\n        /* \"#utility.yul\":4252:4253   */\n      dup1\n        /* \"#utility.yul\":4245:4257   */\n      revert\n        /* \"#utility.yul\":4206:4208   */\n    tag_549:\n        /* \"#utility.yul\":4298:4299   */\n      0x00\n        /* \"#utility.yul\":4323:4376   */\n      tag_550\n        /* \"#utility.yul\":4368:4375   */\n      dup10\n        /* \"#utility.yul\":4359:4365   */\n      dup3\n        /* \"#utility.yul\":4348:4357   */\n      dup11\n        /* \"#utility.yul\":4344:4366   */\n      add\n        /* \"#utility.yul\":4323:4376   */\n      tag_506\n      jump\t// in\n    tag_550:\n        /* \"#utility.yul\":4313:4376   */\n      swap7\n      pop\n        /* \"#utility.yul\":4269:4386   */\n      pop\n        /* \"#utility.yul\":4453:4455   */\n      0x20\n        /* \"#utility.yul\":4442:4451   */\n      dup8\n        /* \"#utility.yul\":4438:4456   */\n      add\n        /* \"#utility.yul\":4425:4457   */\n      calldataload\n        /* \"#utility.yul\":4484:4502   */\n      0xffffffffffffffff\n        /* \"#utility.yul\":4476:4482   */\n      dup2\n        /* \"#utility.yul\":4473:4503   */\n      gt\n        /* \"#utility.yul\":4470:4472   */\n      iszero\n      tag_551\n      jumpi\n        /* \"#utility.yul\":4516:4517   */\n      0x00\n        /* \"#utility.yul\":4513:4514   */\n      dup1\n        /* \"#utility.yul\":4506:4518   */\n      revert\n        /* \"#utility.yul\":4470:4472   */\n    tag_551:\n        /* \"#utility.yul\":4544:4607   */\n      tag_552\n        /* \"#utility.yul\":4599:4606   */\n      dup10\n        /* \"#utility.yul\":4590:4596   */\n      dup3\n        /* \"#utility.yul\":4579:4588   */\n      dup11\n        /* \"#utility.yul\":4575:4597   */\n      add\n        /* \"#utility.yul\":4544:4607   */\n      tag_514\n      jump\t// in\n    tag_552:\n        /* \"#utility.yul\":4534:4607   */\n      swap6\n      pop\n        /* \"#utility.yul\":4396:4617   */\n      pop\n        /* \"#utility.yul\":4684:4686   */\n      0x40\n        /* \"#utility.yul\":4673:4682   */\n      dup8\n        /* \"#utility.yul\":4669:4687   */\n      add\n        /* \"#utility.yul\":4656:4688   */\n      calldataload\n        /* \"#utility.yul\":4715:4733   */\n      0xffffffffffffffff\n        /* \"#utility.yul\":4707:4713   */\n      dup2\n        /* \"#utility.yul\":4704:4734   */\n      gt\n        /* \"#utility.yul\":4701:4703   */\n      iszero\n      tag_553\n      jumpi\n        /* \"#utility.yul\":4747:4748   */\n      0x00\n        /* \"#utility.yul\":4744:4745   */\n      dup1\n        /* \"#utility.yul\":4737:4749   */\n      revert\n        /* \"#utility.yul\":4701:4703   */\n    tag_553:\n        /* \"#utility.yul\":4775:4838   */\n      tag_554\n        /* \"#utility.yul\":4830:4837   */\n      dup10\n        /* \"#utility.yul\":4821:4827   */\n      dup3\n        /* \"#utility.yul\":4810:4819   */\n      dup11\n        /* \"#utility.yul\":4806:4828   */\n      add\n        /* \"#utility.yul\":4775:4838   */\n      tag_514\n      jump\t// in\n    tag_554:\n        /* \"#utility.yul\":4765:4838   */\n      swap5\n      pop\n        /* \"#utility.yul\":4627:4848   */\n      pop\n        /* \"#utility.yul\":4915:4917   */\n      0x60\n        /* \"#utility.yul\":4904:4913   */\n      dup8\n        /* \"#utility.yul\":4900:4918   */\n      add\n        /* \"#utility.yul\":4887:4919   */\n      calldataload\n        /* \"#utility.yul\":4946:4964   */\n      0xffffffffffffffff\n        /* \"#utility.yul\":4938:4944   */\n      dup2\n        /* \"#utility.yul\":4935:4965   */\n      gt\n        /* \"#utility.yul\":4932:4934   */\n      iszero\n      tag_555\n      jumpi\n        /* \"#utility.yul\":4978:4979   */\n      0x00\n        /* \"#utility.yul\":4975:4976   */\n      dup1\n        /* \"#utility.yul\":4968:4980   */\n      revert\n        /* \"#utility.yul\":4932:4934   */\n    tag_555:\n        /* \"#utility.yul\":5006:5069   */\n      tag_556\n        /* \"#utility.yul\":5061:5068   */\n      dup10\n        /* \"#utility.yul\":5052:5058   */\n      dup3\n        /* \"#utility.yul\":5041:5050   */\n      dup11\n        /* \"#utility.yul\":5037:5059   */\n      add\n        /* \"#utility.yul\":5006:5069   */\n      tag_514\n      jump\t// in\n    tag_556:\n        /* \"#utility.yul\":4996:5069   */\n      swap4\n      pop\n        /* \"#utility.yul\":4858:5079   */\n      pop\n        /* \"#utility.yul\":5118:5121   */\n      0x80\n        /* \"#utility.yul\":5145:5198   */\n      tag_557\n        /* \"#utility.yul\":5190:5197   */\n      dup10\n        /* \"#utility.yul\":5181:5187   */\n      dup3\n        /* \"#utility.yul\":5170:5179   */\n      dup11\n        /* \"#utility.yul\":5166:5188   */\n      add\n        /* \"#utility.yul\":5145:5198   */\n      tag_518\n      jump\t// in\n    tag_557:\n        /* \"#utility.yul\":5135:5198   */\n      swap3\n      pop\n        /* \"#utility.yul\":5089:5208   */\n      pop\n        /* \"#utility.yul\":5247:5250   */\n      0xa0\n        /* \"#utility.yul\":5274:5324   */\n      tag_558\n        /* \"#utility.yul\":5316:5323   */\n      dup10\n        /* \"#utility.yul\":5307:5313   */\n      dup3\n        /* \"#utility.yul\":5296:5305   */\n      dup11\n        /* \"#utility.yul\":5292:5314   */\n      add\n        /* \"#utility.yul\":5274:5324   */\n      tag_510\n      jump\t// in\n    tag_558:\n        /* \"#utility.yul\":5264:5324   */\n      swap2\n      pop\n        /* \"#utility.yul\":5218:5334   */\n      pop\n        /* \"#utility.yul\":4196:5341   */\n      swap3\n      swap6\n      pop\n      swap3\n      swap6\n      pop\n      swap3\n      swap6\n      jump\t// out\n        /* \"#utility.yul\":5347:6265   */\n    tag_42:\n      0x00\n      dup1\n      0x00\n      dup1\n        /* \"#utility.yul\":5523:5526   */\n      0x80\n        /* \"#utility.yul\":5511:5520   */\n      dup6\n        /* \"#utility.yul\":5502:5509   */\n      dup8\n        /* \"#utility.yul\":5498:5521   */\n      sub\n        /* \"#utility.yul\":5494:5527   */\n      slt\n        /* \"#utility.yul\":5491:5493   */\n      iszero\n      tag_560\n      jumpi\n        /* \"#utility.yul\":5540:5541   */\n      0x00\n        /* \"#utility.yul\":5537:5538   */\n      dup1\n        /* \"#utility.yul\":5530:5542   */\n      revert\n        /* \"#utility.yul\":5491:5493   */\n    tag_560:\n        /* \"#utility.yul\":5611:5612   */\n      0x00\n        /* \"#utility.yul\":5600:5609   */\n      dup6\n        /* \"#utility.yul\":5596:5613   */\n      add\n        /* \"#utility.yul\":5583:5614   */\n      calldataload\n        /* \"#utility.yul\":5641:5659   */\n      0xffffffffffffffff\n        /* \"#utility.yul\":5633:5639   */\n      dup2\n        /* \"#utility.yul\":5630:5660   */\n      gt\n        /* \"#utility.yul\":5627:5629   */\n      iszero\n      tag_561\n      jumpi\n        /* \"#utility.yul\":5673:5674   */\n      0x00\n        /* \"#utility.yul\":5670:5671   */\n      dup1\n        /* \"#utility.yul\":5663:5675   */\n      revert\n        /* \"#utility.yul\":5627:5629   */\n    tag_561:\n        /* \"#utility.yul\":5701:5764   */\n      tag_562\n        /* \"#utility.yul\":5756:5763   */\n      dup8\n        /* \"#utility.yul\":5747:5753   */\n      dup3\n        /* \"#utility.yul\":5736:5745   */\n      dup9\n        /* \"#utility.yul\":5732:5754   */\n      add\n        /* \"#utility.yul\":5701:5764   */\n      tag_514\n      jump\t// in\n    tag_562:\n        /* \"#utility.yul\":5691:5764   */\n      swap5\n      pop\n        /* \"#utility.yul\":5554:5774   */\n      pop\n        /* \"#utility.yul\":5841:5843   */\n      0x20\n        /* \"#utility.yul\":5830:5839   */\n      dup6\n        /* \"#utility.yul\":5826:5844   */\n      add\n        /* \"#utility.yul\":5813:5845   */\n      calldataload\n        /* \"#utility.yul\":5872:5890   */\n      0xffffffffffffffff\n        /* \"#utility.yul\":5864:5870   */\n      dup2\n        /* \"#utility.yul\":5861:5891   */\n      gt\n        /* \"#utility.yul\":5858:5860   */\n      iszero\n      tag_563\n      jumpi\n        /* \"#utility.yul\":5904:5905   */\n      0x00\n        /* \"#utility.yul\":5901:5902   */\n      dup1\n        /* \"#utility.yul\":5894:5906   */\n      revert\n        /* \"#utility.yul\":5858:5860   */\n    tag_563:\n        /* \"#utility.yul\":5932:5995   */\n      tag_564\n        /* \"#utility.yul\":5987:5994   */\n      dup8\n        /* \"#utility.yul\":5978:5984   */\n      dup3\n        /* \"#utility.yul\":5967:5976   */\n      dup9\n        /* \"#utility.yul\":5963:5985   */\n      add\n        /* \"#utility.yul\":5932:5995   */\n      tag_514\n      jump\t// in\n    tag_564:\n        /* \"#utility.yul\":5922:5995   */\n      swap4\n      pop\n        /* \"#utility.yul\":5784:6005   */\n      pop\n        /* \"#utility.yul\":6044:6046   */\n      0x40\n        /* \"#utility.yul\":6070:6123   */\n      tag_565\n        /* \"#utility.yul\":6115:6122   */\n      dup8\n        /* \"#utility.yul\":6106:6112   */\n      dup3\n        /* \"#utility.yul\":6095:6104   */\n      dup9\n        /* \"#utility.yul\":6091:6113   */\n      add\n        /* \"#utility.yul\":6070:6123   */\n      tag_506\n      jump\t// in\n    tag_565:\n        /* \"#utility.yul\":6060:6123   */\n      swap3\n      pop\n        /* \"#utility.yul\":6015:6133   */\n      pop\n        /* \"#utility.yul\":6172:6174   */\n      0x60\n        /* \"#utility.yul\":6198:6248   */\n      tag_566\n        /* \"#utility.yul\":6240:6247   */\n      dup8\n        /* \"#utility.yul\":6231:6237   */\n      dup3\n        /* \"#utility.yul\":6220:6229   */\n      dup9\n        /* \"#utility.yul\":6216:6238   */\n      add\n        /* \"#utility.yul\":6198:6248   */\n      tag_510\n      jump\t// in\n    tag_566:\n        /* \"#utility.yul\":6188:6248   */\n      swap2\n      pop\n        /* \"#utility.yul\":6143:6258   */\n      pop\n        /* \"#utility.yul\":5481:6265   */\n      swap3\n      swap6\n      swap2\n      swap5\n      pop\n      swap3\n      pop\n      jump\t// out\n        /* \"#utility.yul\":6271:6533   */\n    tag_36:\n      0x00\n        /* \"#utility.yul\":6379:6381   */\n      0x20\n        /* \"#utility.yul\":6367:6376   */\n      dup3\n        /* \"#utility.yul\":6358:6365   */\n      dup5\n        /* \"#utility.yul\":6354:6377   */\n      sub\n        /* \"#utility.yul\":6350:6382   */\n      slt\n        /* \"#utility.yul\":6347:6349   */\n      iszero\n      tag_568\n      jumpi\n        /* \"#utility.yul\":6395:6396   */\n      0x00\n        /* \"#utility.yul\":6392:6393   */\n      dup1\n        /* \"#utility.yul\":6385:6397   */\n      revert\n        /* \"#utility.yul\":6347:6349   */\n    tag_568:\n        /* \"#utility.yul\":6438:6439   */\n      0x00\n        /* \"#utility.yul\":6463:6516   */\n      tag_569\n        /* \"#utility.yul\":6508:6515   */\n      dup5\n        /* \"#utility.yul\":6499:6505   */\n      dup3\n        /* \"#utility.yul\":6488:6497   */\n      dup6\n        /* \"#utility.yul\":6484:6506   */\n      add\n        /* \"#utility.yul\":6463:6516   */\n      tag_518\n      jump\t// in\n    tag_569:\n        /* \"#utility.yul\":6453:6516   */\n      swap2\n      pop\n        /* \"#utility.yul\":6409:6526   */\n      pop\n        /* \"#utility.yul\":6337:6533   */\n      swap3\n      swap2\n      pop\n      pop\n      jump\t// out\n        /* \"#utility.yul\":6539:7463   */\n    tag_50:\n      0x00\n      dup1\n      0x00\n      dup1\n        /* \"#utility.yul\":6718:6721   */\n      0x80\n        /* \"#utility.yul\":6706:6715   */\n      dup6\n        /* \"#utility.yul\":6697:6704   */\n      dup8\n        /* \"#utility.yul\":6693:6716   */\n      sub\n        /* \"#utility.yul\":6689:6722   */\n      slt\n        /* \"#utility.yul\":6686:6688   */\n      iszero\n      tag_571\n      jumpi\n        /* \"#utility.yul\":6735:6736   */\n      0x00\n        /* \"#utility.yul\":6732:6733   */\n      dup1\n        /* \"#utility.yul\":6725:6737   */\n      revert\n        /* \"#utility.yul\":6686:6688   */\n    tag_571:\n        /* \"#utility.yul\":6778:6779   */\n      0x00\n        /* \"#utility.yul\":6803:6856   */\n      tag_572\n        /* \"#utility.yul\":6848:6855   */\n      dup8\n        /* \"#utility.yul\":6839:6845   */\n      dup3\n        /* \"#utility.yul\":6828:6837   */\n      dup9\n        /* \"#utility.yul\":6824:6846   */\n      add\n        /* \"#utility.yul\":6803:6856   */\n      tag_518\n      jump\t// in\n    tag_572:\n        /* \"#utility.yul\":6793:6856   */\n      swap5\n      pop\n        /* \"#utility.yul\":6749:6866   */\n      pop\n        /* \"#utility.yul\":6933:6935   */\n      0x20\n        /* \"#utility.yul\":6922:6931   */\n      dup6\n        /* \"#utility.yul\":6918:6936   */\n      add\n        /* \"#utility.yul\":6905:6937   */\n      calldataload\n        /* \"#utility.yul\":6964:6982   */\n      0xffffffffffffffff\n        /* \"#utility.yul\":6956:6962   */\n      dup2\n        /* \"#utility.yul\":6953:6983   */\n      gt\n        /* \"#utility.yul\":6950:6952   */\n      iszero\n      tag_573\n      jumpi\n        /* \"#utility.yul\":6996:6997   */\n      0x00\n        /* \"#utility.yul\":6993:6994   */\n      dup1\n        /* \"#utility.yul\":6986:6998   */\n      revert\n        /* \"#utility.yul\":6950:6952   */\n    tag_573:\n        /* \"#utility.yul\":7024:7087   */\n      tag_574\n        /* \"#utility.yul\":7079:7086   */\n      dup8\n        /* \"#utility.yul\":7070:7076   */\n      dup3\n        /* \"#utility.yul\":7059:7068   */\n      dup9\n        /* \"#utility.yul\":7055:7077   */\n      add\n        /* \"#utility.yul\":7024:7087   */\n      tag_514\n      jump\t// in\n    tag_574:\n        /* \"#utility.yul\":7014:7087   */\n      swap4\n      pop\n        /* \"#utility.yul\":6876:7097   */\n      pop\n        /* \"#utility.yul\":7164:7166   */\n      0x40\n        /* \"#utility.yul\":7153:7162   */\n      dup6\n        /* \"#utility.yul\":7149:7167   */\n      add\n        /* \"#utility.yul\":7136:7168   */\n      calldataload\n        /* \"#utility.yul\":7195:7213   */\n      0xffffffffffffffff\n        /* \"#utility.yul\":7187:7193   */\n      dup2\n        /* \"#utility.yul\":7184:7214   */\n      gt\n        /* \"#utility.yul\":7181:7183   */\n      iszero\n      tag_575\n      jumpi\n        /* \"#utility.yul\":7227:7228   */\n      0x00\n        /* \"#utility.yul\":7224:7225   */\n      dup1\n        /* \"#utility.yul\":7217:7229   */\n      revert\n        /* \"#utility.yul\":7181:7183   */\n    tag_575:\n        /* \"#utility.yul\":7255:7318   */\n      tag_576\n        /* \"#utility.yul\":7310:7317   */\n      dup8\n        /* \"#utility.yul\":7301:7307   */\n      dup3\n        /* \"#utility.yul\":7290:7299   */\n      dup9\n        /* \"#utility.yul\":7286:7308   */\n      add\n        /* \"#utility.yul\":7255:7318   */\n      tag_514\n      jump\t// in\n    tag_576:\n        /* \"#utility.yul\":7245:7318   */\n      swap3\n      pop\n        /* \"#utility.yul\":7107:7328   */\n      pop\n        /* \"#utility.yul\":7367:7369   */\n      0x60\n        /* \"#utility.yul\":7393:7446   */\n      tag_577\n        /* \"#utility.yul\":7438:7445   */\n      dup8\n        /* \"#utility.yul\":7429:7435   */\n      dup3\n        /* \"#utility.yul\":7418:7427   */\n      dup9\n        /* \"#utility.yul\":7414:7436   */\n      add\n        /* \"#utility.yul\":7393:7446   */\n      tag_506\n      jump\t// in\n    tag_577:\n        /* \"#utility.yul\":7383:7446   */\n      swap2\n      pop\n        /* \"#utility.yul\":7338:7456   */\n      pop\n        /* \"#utility.yul\":6676:7463   */\n      swap3\n      swap6\n      swap2\n      swap5\n      pop\n      swap3\n      pop\n      jump\t// out\n        /* \"#utility.yul\":7469:7713   */\n    tag_578:\n      0x00\n        /* \"#utility.yul\":7617:7707   */\n      tag_580\n        /* \"#utility.yul\":7703:7706   */\n      dup4\n        /* \"#utility.yul\":7695:7701   */\n      dup4\n        /* \"#utility.yul\":7617:7707   */\n      tag_581\n      jump\t// in\n    tag_580:\n        /* \"#utility.yul\":7603:7707   */\n      swap1\n      pop\n        /* \"#utility.yul\":7593:7713   */\n      swap3\n      swap2\n      pop\n      pop\n      jump\t// out\n        /* \"#utility.yul\":7719:7971   */\n    tag_582:\n      0x00\n        /* \"#utility.yul\":7871:7965   */\n      tag_584\n        /* \"#utility.yul\":7961:7964   */\n      dup4\n        /* \"#utility.yul\":7953:7959   */\n      dup4\n        /* \"#utility.yul\":7871:7965   */\n      tag_585\n      jump\t// in\n    tag_584:\n        /* \"#utility.yul\":7857:7965   */\n      swap1\n      pop\n        /* \"#utility.yul\":7847:7971   */\n      swap3\n      swap2\n      pop\n      pop\n      jump\t// out\n        /* \"#utility.yul\":7977:8221   */\n    tag_586:\n      0x00\n        /* \"#utility.yul\":8125:8215   */\n      tag_588\n        /* \"#utility.yul\":8211:8214   */\n      dup4\n        /* \"#utility.yul\":8203:8209   */\n      dup4\n        /* \"#utility.yul\":8125:8215   */\n      tag_589\n      jump\t// in\n    tag_588:\n        /* \"#utility.yul\":8111:8215   */\n      swap1\n      pop\n        /* \"#utility.yul\":8101:8221   */\n      swap3\n      swap2\n      pop\n      pop\n      jump\t// out\n        /* \"#utility.yul\":8227:8335   */\n    tag_590:\n        /* \"#utility.yul\":8304:8328   */\n      tag_592\n        /* \"#utility.yul\":8322:8327   */\n      dup2\n        /* \"#utility.yul\":8304:8328   */\n      tag_593\n      jump\t// in\n    tag_592:\n        /* \"#utility.yul\":8299:8302   */\n      dup3\n        /* \"#utility.yul\":8292:8329   */\n      mstore\n        /* \"#utility.yul\":8282:8335   */\n      pop\n      pop\n      jump\t// out\n        /* \"#utility.yul\":8341:8459   */\n    tag_594:\n        /* \"#utility.yul\":8428:8452   */\n      tag_596\n        /* \"#utility.yul\":8446:8451   */\n      dup2\n        /* \"#utility.yul\":8428:8452   */\n      tag_593\n      jump\t// in\n    tag_596:\n        /* \"#utility.yul\":8423:8426   */\n      dup3\n        /* \"#utility.yul\":8416:8453   */\n      mstore\n        /* \"#utility.yul\":8406:8459   */\n      pop\n      pop\n      jump\t// out\n        /* \"#utility.yul\":8523:9610   */\n    tag_597:\n      0x00\n        /* \"#utility.yul\":8715:8791   */\n      tag_599\n        /* \"#utility.yul\":8785:8790   */\n      dup3\n        /* \"#utility.yul\":8715:8791   */\n      tag_600\n      jump\t// in\n    tag_599:\n        /* \"#utility.yul\":8807:8915   */\n      tag_601\n        /* \"#utility.yul\":8908:8914   */\n      dup2\n        /* \"#utility.yul\":8903:8906   */\n      dup6\n        /* \"#utility.yul\":8807:8915   */\n      tag_602\n      jump\t// in\n    tag_601:\n        /* \"#utility.yul\":8800:8915   */\n      swap4\n      pop\n        /* \"#utility.yul\":8941:8944   */\n      dup4\n        /* \"#utility.yul\":8986:8990   */\n      0x20\n        /* \"#utility.yul\":8978:8984   */\n      dup3\n        /* \"#utility.yul\":8974:8991   */\n      mul\n        /* \"#utility.yul\":8969:8972   */\n      dup6\n        /* \"#utility.yul\":8965:8992   */\n      add\n        /* \"#utility.yul\":9016:9094   */\n      tag_603\n        /* \"#utility.yul\":9088:9093   */\n      dup6\n        /* \"#utility.yul\":9016:9094   */\n      tag_604\n      jump\t// in\n    tag_603:\n        /* \"#utility.yul\":9117:9124   */\n      dup1\n        /* \"#utility.yul\":9148:9149   */\n      0x00\n        /* \"#utility.yul\":9133:9565   */\n    tag_605:\n        /* \"#utility.yul\":9158:9164   */\n      dup6\n        /* \"#utility.yul\":9155:9156   */\n      dup2\n        /* \"#utility.yul\":9152:9165   */\n      lt\n        /* \"#utility.yul\":9133:9565   */\n      iszero\n      tag_607\n      jumpi\n        /* \"#utility.yul\":9229:9238   */\n      dup5\n        /* \"#utility.yul\":9223:9227   */\n      dup5\n        /* \"#utility.yul\":9219:9239   */\n      sub\n        /* \"#utility.yul\":9214:9217   */\n      dup10\n        /* \"#utility.yul\":9207:9240   */\n      mstore\n        /* \"#utility.yul\":9280:9286   */\n      dup2\n        /* \"#utility.yul\":9274:9287   */\n      mload\n        /* \"#utility.yul\":9308:9416   */\n      tag_608\n        /* \"#utility.yul\":9411:9415   */\n      dup6\n        /* \"#utility.yul\":9396:9409   */\n      dup3\n        /* \"#utility.yul\":9308:9416   */\n      tag_578\n      jump\t// in\n    tag_608:\n        /* \"#utility.yul\":9300:9416   */\n      swap5\n      pop\n        /* \"#utility.yul\":9439:9521   */\n      tag_609\n        /* \"#utility.yul\":9514:9520   */\n      dup4\n        /* \"#utility.yul\":9439:9521   */\n      tag_610\n      jump\t// in\n    tag_609:\n        /* \"#utility.yul\":9429:9521   */\n      swap3\n      pop\n        /* \"#utility.yul\":9550:9554   */\n      0x20\n        /* \"#utility.yul\":9545:9548   */\n      dup11\n        /* \"#utility.yul\":9541:9555   */\n      add\n        /* \"#utility.yul\":9534:9555   */\n      swap10\n      pop\n        /* \"#utility.yul\":9193:9565   */\n      pop\n        /* \"#utility.yul\":9180:9181   */\n      0x01\n        /* \"#utility.yul\":9177:9178   */\n      dup2\n        /* \"#utility.yul\":9173:9182   */\n      add\n        /* \"#utility.yul\":9168:9182   */\n      swap1\n      pop\n        /* \"#utility.yul\":9133:9565   */\n      jump(tag_605)\n    tag_607:\n        /* \"#utility.yul\":9137:9151   */\n      pop\n        /* \"#utility.yul\":9581:9585   */\n      dup3\n        /* \"#utility.yul\":9574:9585   */\n      swap8\n      pop\n        /* \"#utility.yul\":9601:9604   */\n      dup8\n        /* \"#utility.yul\":9594:9604   */\n      swap6\n      pop\n        /* \"#utility.yul\":8691:9610   */\n      pop\n      pop\n      pop\n      pop\n      pop\n      swap3\n      swap2\n      pop\n      pop\n      jump\t// out\n        /* \"#utility.yul\":9678:10781   */\n    tag_611:\n      0x00\n        /* \"#utility.yul\":9874:9952   */\n      tag_613\n        /* \"#utility.yul\":9946:9951   */\n      dup3\n        /* \"#utility.yul\":9874:9952   */\n      tag_614\n      jump\t// in\n    tag_613:\n        /* \"#utility.yul\":9968:10078   */\n      tag_615\n        /* \"#utility.yul\":10071:10077   */\n      dup2\n        /* \"#utility.yul\":10066:10069   */\n      dup6\n        /* \"#utility.yul\":9968:10078   */\n      tag_616\n      jump\t// in\n    tag_615:\n        /* \"#utility.yul\":9961:10078   */\n      swap4\n      pop\n        /* \"#utility.yul\":10104:10107   */\n      dup4\n        /* \"#utility.yul\":10149:10153   */\n      0x20\n        /* \"#utility.yul\":10141:10147   */\n      dup3\n        /* \"#utility.yul\":10137:10154   */\n      mul\n        /* \"#utility.yul\":10132:10135   */\n      dup6\n        /* \"#utility.yul\":10128:10155   */\n      add\n        /* \"#utility.yul\":10179:10259   */\n      tag_617\n        /* \"#utility.yul\":10253:10258   */\n      dup6\n        /* \"#utility.yul\":10179:10259   */\n      tag_618\n      jump\t// in\n    tag_617:\n        /* \"#utility.yul\":10282:10289   */\n      dup1\n        /* \"#utility.yul\":10313:10314   */\n      0x00\n        /* \"#utility.yul\":10298:10736   */\n    tag_619:\n        /* \"#utility.yul\":10323:10329   */\n      dup6\n        /* \"#utility.yul\":10320:10321   */\n      dup2\n        /* \"#utility.yul\":10317:10330   */\n      lt\n        /* \"#utility.yul\":10298:10736   */\n      iszero\n      tag_621\n      jumpi\n        /* \"#utility.yul\":10394:10403   */\n      dup5\n        /* \"#utility.yul\":10388:10392   */\n      dup5\n        /* \"#utility.yul\":10384:10404   */\n      sub\n        /* \"#utility.yul\":10379:10382   */\n      dup10\n        /* \"#utility.yul\":10372:10405   */\n      mstore\n        /* \"#utility.yul\":10445:10451   */\n      dup2\n        /* \"#utility.yul\":10439:10452   */\n      mload\n        /* \"#utility.yul\":10473:10585   */\n      tag_622\n        /* \"#utility.yul\":10580:10584   */\n      dup6\n        /* \"#utility.yul\":10565:10578   */\n      dup3\n        /* \"#utility.yul\":10473:10585   */\n      tag_582\n      jump\t// in\n    tag_622:\n        /* \"#utility.yul\":10465:10585   */\n      swap5\n      pop\n        /* \"#utility.yul\":10608:10692   */\n      tag_623\n        /* \"#utility.yul\":10685:10691   */\n      dup4\n        /* \"#utility.yul\":10608:10692   */\n      tag_624\n      jump\t// in\n    tag_623:\n        /* \"#utility.yul\":10598:10692   */\n      swap3\n      pop\n        /* \"#utility.yul\":10721:10725   */\n      0x20\n        /* \"#utility.yul\":10716:10719   */\n      dup11\n        /* \"#utility.yul\":10712:10726   */\n      add\n        /* \"#utility.yul\":10705:10726   */\n      swap10\n      pop\n        /* \"#utility.yul\":10358:10736   */\n      pop\n        /* \"#utility.yul\":10345:10346   */\n      0x01\n        /* \"#utility.yul\":10342:10343   */\n      dup2\n        /* \"#utility.yul\":10338:10347   */\n      add\n        /* \"#utility.yul\":10333:10347   */\n      swap1\n      pop\n        /* \"#utility.yul\":10298:10736   */\n      jump(tag_619)\n    tag_621:\n        /* \"#utility.yul\":10302:10316   */\n      pop\n        /* \"#utility.yul\":10752:10756   */\n      dup3\n        /* \"#utility.yul\":10745:10756   */\n      swap8\n      pop\n        /* \"#utility.yul\":10772:10775   */\n      dup8\n        /* \"#utility.yul\":10765:10775   */\n      swap6\n      pop\n        /* \"#utility.yul\":9850:10781   */\n      pop\n      pop\n      pop\n      pop\n      pop\n      swap3\n      swap2\n      pop\n      pop\n      jump\t// out\n        /* \"#utility.yul\":10845:11932   */\n    tag_625:\n      0x00\n        /* \"#utility.yul\":11037:11113   */\n      tag_627\n        /* \"#utility.yul\":11107:11112   */\n      dup3\n        /* \"#utility.yul\":11037:11113   */\n      tag_628\n      jump\t// in\n    tag_627:\n        /* \"#utility.yul\":11129:11237   */\n      tag_629\n        /* \"#utility.yul\":11230:11236   */\n      dup2\n        /* \"#utility.yul\":11225:11228   */\n      dup6\n        /* \"#utility.yul\":11129:11237   */\n      tag_630\n      jump\t// in\n    tag_629:\n        /* \"#utility.yul\":11122:11237   */\n      swap4\n      pop\n        /* \"#utility.yul\":11263:11266   */\n      dup4\n        /* \"#utility.yul\":11308:11312   */\n      0x20\n        /* \"#utility.yul\":11300:11306   */\n      dup3\n        /* \"#utility.yul\":11296:11313   */\n      mul\n        /* \"#utility.yul\":11291:11294   */\n      dup6\n        /* \"#utility.yul\":11287:11314   */\n      add\n        /* \"#utility.yul\":11338:11416   */\n      tag_631\n        /* \"#utility.yul\":11410:11415   */\n      dup6\n        /* \"#utility.yul\":11338:11416   */\n      tag_632\n      jump\t// in\n    tag_631:\n        /* \"#utility.yul\":11439:11446   */\n      dup1\n        /* \"#utility.yul\":11470:11471   */\n      0x00\n        /* \"#utility.yul\":11455:11887   */\n    tag_633:\n        /* \"#utility.yul\":11480:11486   */\n      dup6\n        /* \"#utility.yul\":11477:11478   */\n      dup2\n        /* \"#utility.yul\":11474:11487   */\n      lt\n        /* \"#utility.yul\":11455:11887   */\n      iszero\n      tag_635\n      jumpi\n        /* \"#utility.yul\":11551:11560   */\n      dup5\n        /* \"#utility.yul\":11545:11549   */\n      dup5\n        /* \"#utility.yul\":11541:11561   */\n      sub\n        /* \"#utility.yul\":11536:11539   */\n      dup10\n        /* \"#utility.yul\":11529:11562   */\n      mstore\n        /* \"#utility.yul\":11602:11608   */\n      dup2\n        /* \"#utility.yul\":11596:11609   */\n      mload\n        /* \"#utility.yul\":11630:11738   */\n      tag_636\n        /* \"#utility.yul\":11733:11737   */\n      dup6\n        /* \"#utility.yul\":11718:11731   */\n      dup3\n        /* \"#utility.yul\":11630:11738   */\n      tag_586\n      jump\t// in\n    tag_636:\n        /* \"#utility.yul\":11622:11738   */\n      swap5\n      pop\n        /* \"#utility.yul\":11761:11843   */\n      tag_637\n        /* \"#utility.yul\":11836:11842   */\n      dup4\n        /* \"#utility.yul\":11761:11843   */\n      tag_638\n      jump\t// in\n    tag_637:\n        /* \"#utility.yul\":11751:11843   */\n      swap3\n      pop\n        /* \"#utility.yul\":11872:11876   */\n      0x20\n        /* \"#utility.yul\":11867:11870   */\n      dup11\n        /* \"#utility.yul\":11863:11877   */\n      add\n        /* \"#utility.yul\":11856:11877   */\n      swap10\n      pop\n        /* \"#utility.yul\":11515:11887   */\n      pop\n        /* \"#utility.yul\":11502:11503   */\n      0x01\n        /* \"#utility.yul\":11499:11500   */\n      dup2\n        /* \"#utility.yul\":11495:11504   */\n      add\n        /* \"#utility.yul\":11490:11504   */\n      swap1\n      pop\n        /* \"#utility.yul\":11455:11887   */\n      jump(tag_633)\n    tag_635:\n        /* \"#utility.yul\":11459:11473   */\n      pop\n        /* \"#utility.yul\":11903:11907   */\n      dup3\n        /* \"#utility.yul\":11896:11907   */\n      swap8\n      pop\n        /* \"#utility.yul\":11923:11926   */\n      dup8\n        /* \"#utility.yul\":11916:11926   */\n      swap6\n      pop\n        /* \"#utility.yul\":11013:11932   */\n      pop\n      pop\n      pop\n      pop\n      pop\n      swap3\n      swap2\n      pop\n      pop\n      jump\t// out\n        /* \"#utility.yul\":11938:12037   */\n    tag_639:\n        /* \"#utility.yul\":12009:12030   */\n      tag_641\n        /* \"#utility.yul\":12024:12029   */\n      dup2\n        /* \"#utility.yul\":12009:12030   */\n      tag_642\n      jump\t// in\n    tag_641:\n        /* \"#utility.yul\":12004:12007   */\n      dup3\n        /* \"#utility.yul\":11997:12031   */\n      mstore\n        /* \"#utility.yul\":11987:12037   */\n      pop\n      pop\n      jump\t// out\n        /* \"#utility.yul\":12043:12152   */\n    tag_643:\n        /* \"#utility.yul\":12124:12145   */\n      tag_645\n        /* \"#utility.yul\":12139:12144   */\n      dup2\n        /* \"#utility.yul\":12124:12145   */\n      tag_642\n      jump\t// in\n    tag_645:\n        /* \"#utility.yul\":12119:12122   */\n      dup3\n        /* \"#utility.yul\":12112:12146   */\n      mstore\n        /* \"#utility.yul\":12102:12152   */\n      pop\n      pop\n      jump\t// out\n        /* \"#utility.yul\":12158:12502   */\n    tag_646:\n      0x00\n        /* \"#utility.yul\":12264:12303   */\n      tag_648\n        /* \"#utility.yul\":12297:12302   */\n      dup3\n        /* \"#utility.yul\":12264:12303   */\n      tag_649\n      jump\t// in\n    tag_648:\n        /* \"#utility.yul\":12319:12380   */\n      tag_650\n        /* \"#utility.yul\":12373:12379   */\n      dup2\n        /* \"#utility.yul\":12368:12371   */\n      dup6\n        /* \"#utility.yul\":12319:12380   */\n      tag_651\n      jump\t// in\n    tag_650:\n        /* \"#utility.yul\":12312:12380   */\n      swap4\n      pop\n        /* \"#utility.yul\":12389:12441   */\n      tag_652\n        /* \"#utility.yul\":12434:12440   */\n      dup2\n        /* \"#utility.yul\":12429:12432   */\n      dup6\n        /* \"#utility.yul\":12422:12426   */\n      0x20\n        /* \"#utility.yul\":12415:12420   */\n      dup7\n        /* \"#utility.yul\":12411:12427   */\n      add\n        /* \"#utility.yul\":12389:12441   */\n      tag_653\n      jump\t// in\n    tag_652:\n        /* \"#utility.yul\":12466:12495   */\n      tag_654\n        /* \"#utility.yul\":12488:12494   */\n      dup2\n        /* \"#utility.yul\":12466:12495   */\n      tag_655\n      jump\t// in\n    tag_654:\n        /* \"#utility.yul\":12461:12464   */\n      dup5\n        /* \"#utility.yul\":12457:12496   */\n      add\n        /* \"#utility.yul\":12450:12496   */\n      swap2\n      pop\n        /* \"#utility.yul\":12240:12502   */\n      pop\n      swap3\n      swap2\n      pop\n      pop\n      jump\t// out\n        /* \"#utility.yul\":12508:12872   */\n    tag_656:\n      0x00\n        /* \"#utility.yul\":12624:12663   */\n      tag_658\n        /* \"#utility.yul\":12657:12662   */\n      dup3\n        /* \"#utility.yul\":12624:12663   */\n      tag_649\n      jump\t// in\n    tag_658:\n        /* \"#utility.yul\":12679:12750   */\n      tag_659\n        /* \"#utility.yul\":12743:12749   */\n      dup2\n        /* \"#utility.yul\":12738:12741   */\n      dup6\n        /* \"#utility.yul\":12679:12750   */\n      tag_660\n      jump\t// in\n    tag_659:\n        /* \"#utility.yul\":12672:12750   */\n      swap4\n      pop\n        /* \"#utility.yul\":12759:12811   */\n      tag_661\n        /* \"#utility.yul\":12804:12810   */\n      dup2\n        /* \"#utility.yul\":12799:12802   */\n      dup6\n        /* \"#utility.yul\":12792:12796   */\n      0x20\n        /* \"#utility.yul\":12785:12790   */\n      dup7\n        /* \"#utility.yul\":12781:12797   */\n      add\n        /* \"#utility.yul\":12759:12811   */\n      tag_653\n      jump\t// in\n    tag_661:\n        /* \"#utility.yul\":12836:12865   */\n      tag_662\n        /* \"#utility.yul\":12858:12864   */\n      dup2\n        /* \"#utility.yul\":12836:12865   */\n      tag_655\n      jump\t// in\n    tag_662:\n        /* \"#utility.yul\":12831:12834   */\n      dup5\n        /* \"#utility.yul\":12827:12866   */\n      add\n        /* \"#utility.yul\":12820:12866   */\n      swap2\n      pop\n        /* \"#utility.yul\":12600:12872   */\n      pop\n      swap3\n      swap2\n      pop\n      pop\n      jump\t// out\n        /* \"#utility.yul\":12902:13839   */\n    tag_663:\n      0x00\n        /* \"#utility.yul\":13024:13029   */\n      dup2\n        /* \"#utility.yul\":13018:13030   */\n      sload\n        /* \"#utility.yul\":13061:13062   */\n      0x01\n        /* \"#utility.yul\":13050:13059   */\n      dup2\n        /* \"#utility.yul\":13046:13063   */\n      and\n        /* \"#utility.yul\":13077:13078   */\n      0x00\n        /* \"#utility.yul\":13072:13353   */\n      dup2\n      eq\n      tag_666\n      jumpi\n        /* \"#utility.yul\":13367:13368   */\n      0x01\n        /* \"#utility.yul\":13362:13833   */\n      dup2\n      eq\n      tag_667\n      jumpi\n        /* \"#utility.yul\":13039:13833   */\n      jump(tag_665)\n        /* \"#utility.yul\":13072:13353   */\n    tag_666:\n        /* \"#utility.yul\":13162:13166   */\n      0x7f\n        /* \"#utility.yul\":13158:13159   */\n      0x02\n        /* \"#utility.yul\":13147:13156   */\n      dup4\n        /* \"#utility.yul\":13143:13160   */\n      div\n        /* \"#utility.yul\":13139:13167   */\n      and\n        /* \"#utility.yul\":13187:13258   */\n      tag_668\n        /* \"#utility.yul\":13251:13257   */\n      dup2\n        /* \"#utility.yul\":13246:13249   */\n      dup8\n        /* \"#utility.yul\":13187:13258   */\n      tag_660\n      jump\t// in\n    tag_668:\n        /* \"#utility.yul\":13180:13258   */\n      swap6\n      pop\n        /* \"#utility.yul\":13302:13306   */\n      0xff\n        /* \"#utility.yul\":13298:13307   */\n      not\n        /* \"#utility.yul\":13287:13296   */\n      dup4\n        /* \"#utility.yul\":13283:13308   */\n      and\n        /* \"#utility.yul\":13278:13281   */\n      dup7\n        /* \"#utility.yul\":13271:13309   */\n      mstore\n        /* \"#utility.yul\":13338:13342   */\n      0x20\n        /* \"#utility.yul\":13333:13336   */\n      dup7\n        /* \"#utility.yul\":13329:13343   */\n      add\n        /* \"#utility.yul\":13322:13343   */\n      swap4\n      pop\n        /* \"#utility.yul\":13079:13353   */\n      pop\n        /* \"#utility.yul\":13072:13353   */\n      jump(tag_665)\n        /* \"#utility.yul\":13362:13833   */\n    tag_667:\n        /* \"#utility.yul\":13443:13444   */\n      0x02\n        /* \"#utility.yul\":13432:13441   */\n      dup3\n        /* \"#utility.yul\":13428:13445   */\n      div\n        /* \"#utility.yul\":13465:13536   */\n      tag_669\n        /* \"#utility.yul\":13529:13535   */\n      dup2\n        /* \"#utility.yul\":13524:13527   */\n      dup8\n        /* \"#utility.yul\":13465:13536   */\n      tag_660\n      jump\t// in\n    tag_669:\n        /* \"#utility.yul\":13458:13536   */\n      swap6\n      pop\n        /* \"#utility.yul\":13564:13602   */\n      tag_670\n        /* \"#utility.yul\":13596:13601   */\n      dup6\n        /* \"#utility.yul\":13564:13602   */\n      tag_671\n      jump\t// in\n    tag_670:\n        /* \"#utility.yul\":13624:13625   */\n      0x00\n        /* \"#utility.yul\":13638:13792   */\n    tag_672:\n        /* \"#utility.yul\":13652:13658   */\n      dup3\n        /* \"#utility.yul\":13649:13650   */\n      dup2\n        /* \"#utility.yul\":13646:13659   */\n      lt\n        /* \"#utility.yul\":13638:13792   */\n      iszero\n      tag_674\n      jumpi\n        /* \"#utility.yul\":13726:13733   */\n      dup2\n        /* \"#utility.yul\":13720:13734   */\n      sload\n        /* \"#utility.yul\":13716:13717   */\n      dup2\n        /* \"#utility.yul\":13711:13714   */\n      dup10\n        /* \"#utility.yul\":13707:13718   */\n      add\n        /* \"#utility.yul\":13700:13735   */\n      mstore\n        /* \"#utility.yul\":13776:13777   */\n      0x01\n        /* \"#utility.yul\":13767:13774   */\n      dup3\n        /* \"#utility.yul\":13763:13778   */\n      add\n        /* \"#utility.yul\":13752:13778   */\n      swap2\n      pop\n        /* \"#utility.yul\":13674:13678   */\n      0x20\n        /* \"#utility.yul\":13671:13672   */\n      dup2\n        /* \"#utility.yul\":13667:13679   */\n      add\n        /* \"#utility.yul\":13662:13679   */\n      swap1\n      pop\n        /* \"#utility.yul\":13638:13792   */\n      jump(tag_672)\n    tag_674:\n        /* \"#utility.yul\":13821:13822   */\n      dup1\n        /* \"#utility.yul\":13816:13819   */\n      dup9\n        /* \"#utility.yul\":13812:13823   */\n      add\n        /* \"#utility.yul\":13805:13823   */\n      swap6\n      pop\n        /* \"#utility.yul\":13369:13833   */\n      pop\n      pop\n      pop\n        /* \"#utility.yul\":13039:13833   */\n    tag_665:\n      pop\n        /* \"#utility.yul\":12991:13839   */\n      pop\n      swap3\n      swap2\n      pop\n      pop\n      jump\t// out\n        /* \"#utility.yul\":13845:14159   */\n    tag_675:\n      0x00\n        /* \"#utility.yul\":14008:14075   */\n      tag_677\n        /* \"#utility.yul\":14072:14074   */\n      0x10\n        /* \"#utility.yul\":14067:14070   */\n      dup4\n        /* \"#utility.yul\":14008:14075   */\n      tag_660\n      jump\t// in\n    tag_677:\n        /* \"#utility.yul\":14001:14075   */\n      swap2\n      pop\n        /* \"#utility.yul\":14105:14123   */\n      0x446f63746f72206e6f7420666f756e6400000000000000000000000000000000\n        /* \"#utility.yul\":14101:14102   */\n      0x00\n        /* \"#utility.yul\":14096:14099   */\n      dup4\n        /* \"#utility.yul\":14092:14103   */\n      add\n        /* \"#utility.yul\":14085:14124   */\n      mstore\n        /* \"#utility.yul\":14150:14152   */\n      0x20\n        /* \"#utility.yul\":14145:14148   */\n      dup3\n        /* \"#utility.yul\":14141:14153   */\n      add\n        /* \"#utility.yul\":14134:14153   */\n      swap1\n      pop\n        /* \"#utility.yul\":13991:14159   */\n      swap2\n      swap1\n      pop\n      jump\t// out\n        /* \"#utility.yul\":14165:14479   */\n    tag_678:\n      0x00\n        /* \"#utility.yul\":14328:14395   */\n      tag_680\n        /* \"#utility.yul\":14392:14394   */\n      0x10\n        /* \"#utility.yul\":14387:14390   */\n      dup4\n        /* \"#utility.yul\":14328:14395   */\n      tag_660\n      jump\t// in\n    tag_680:\n        /* \"#utility.yul\":14321:14395   */\n      swap2\n      pop\n        /* \"#utility.yul\":14425:14443   */\n      0x53656e736f72206e6f7420666f756e6400000000000000000000000000000000\n        /* \"#utility.yul\":14421:14422   */\n      0x00\n        /* \"#utility.yul\":14416:14419   */\n      dup4\n        /* \"#utility.yul\":14412:14423   */\n      add\n        /* \"#utility.yul\":14405:14444   */\n      mstore\n        /* \"#utility.yul\":14470:14472   */\n      0x20\n        /* \"#utility.yul\":14465:14468   */\n      dup3\n        /* \"#utility.yul\":14461:14473   */\n      add\n        /* \"#utility.yul\":14454:14473   */\n      swap1\n      pop\n        /* \"#utility.yul\":14311:14479   */\n      swap2\n      swap1\n      pop\n      jump\t// out\n        /* \"#utility.yul\":14485:14801   */\n    tag_681:\n      0x00\n        /* \"#utility.yul\":14648:14715   */\n      tag_683\n        /* \"#utility.yul\":14712:14714   */\n      0x12\n        /* \"#utility.yul\":14707:14710   */\n      dup4\n        /* \"#utility.yul\":14648:14715   */\n      tag_660\n      jump\t// in\n    tag_683:\n        /* \"#utility.yul\":14641:14715   */\n      swap2\n      pop\n        /* \"#utility.yul\":14745:14765   */\n      0x486f73706974616c206e6f7420666f756e640000000000000000000000000000\n        /* \"#utility.yul\":14741:14742   */\n      0x00\n        /* \"#utility.yul\":14736:14739   */\n      dup4\n        /* \"#utility.yul\":14732:14743   */\n      add\n        /* \"#utility.yul\":14725:14766   */\n      mstore\n        /* \"#utility.yul\":14792:14794   */\n      0x20\n        /* \"#utility.yul\":14787:14790   */\n      dup3\n        /* \"#utility.yul\":14783:14795   */\n      add\n        /* \"#utility.yul\":14776:14795   */\n      swap1\n      pop\n        /* \"#utility.yul\":14631:14801   */\n      swap2\n      swap1\n      pop\n      jump\t// out\n        /* \"#utility.yul\":14861:15813   */\n    tag_581:\n      0x00\n        /* \"#utility.yul\":15000:15004   */\n      0x80\n        /* \"#utility.yul\":14995:14998   */\n      dup4\n        /* \"#utility.yul\":14991:15005   */\n      add\n        /* \"#utility.yul\":15091:15095   */\n      0x00\n        /* \"#utility.yul\":15084:15089   */\n      dup4\n        /* \"#utility.yul\":15080:15096   */\n      add\n        /* \"#utility.yul\":15074:15097   */\n      mload\n        /* \"#utility.yul\":15110:15173   */\n      tag_685\n        /* \"#utility.yul\":15167:15171   */\n      0x00\n        /* \"#utility.yul\":15162:15165   */\n      dup7\n        /* \"#utility.yul\":15158:15172   */\n      add\n        /* \"#utility.yul\":15144:15156   */\n      dup3\n        /* \"#utility.yul\":15110:15173   */\n      tag_590\n      jump\t// in\n    tag_685:\n        /* \"#utility.yul\":15015:15183   */\n      pop\n        /* \"#utility.yul\":15271:15275   */\n      0x20\n        /* \"#utility.yul\":15264:15269   */\n      dup4\n        /* \"#utility.yul\":15260:15276   */\n      add\n        /* \"#utility.yul\":15254:15277   */\n      mload\n        /* \"#utility.yul\":15324:15327   */\n      dup5\n        /* \"#utility.yul\":15318:15322   */\n      dup3\n        /* \"#utility.yul\":15314:15328   */\n      sub\n        /* \"#utility.yul\":15307:15311   */\n      0x20\n        /* \"#utility.yul\":15302:15305   */\n      dup7\n        /* \"#utility.yul\":15298:15312   */\n      add\n        /* \"#utility.yul\":15291:15329   */\n      mstore\n        /* \"#utility.yul\":15350:15423   */\n      tag_686\n        /* \"#utility.yul\":15418:15422   */\n      dup3\n        /* \"#utility.yul\":15404:15416   */\n      dup3\n        /* \"#utility.yul\":15350:15423   */\n      tag_646\n      jump\t// in\n    tag_686:\n        /* \"#utility.yul\":15342:15423   */\n      swap2\n      pop\n        /* \"#utility.yul\":15193:15434   */\n      pop\n        /* \"#utility.yul\":15520:15524   */\n      0x40\n        /* \"#utility.yul\":15513:15518   */\n      dup4\n        /* \"#utility.yul\":15509:15525   */\n      add\n        /* \"#utility.yul\":15503:15526   */\n      mload\n        /* \"#utility.yul\":15539:15602   */\n      tag_687\n        /* \"#utility.yul\":15596:15600   */\n      0x40\n        /* \"#utility.yul\":15591:15594   */\n      dup7\n        /* \"#utility.yul\":15587:15601   */\n      add\n        /* \"#utility.yul\":15573:15585   */\n      dup3\n        /* \"#utility.yul\":15539:15602   */\n      tag_590\n      jump\t// in\n    tag_687:\n        /* \"#utility.yul\":15444:15612   */\n      pop\n        /* \"#utility.yul\":15700:15704   */\n      0x60\n        /* \"#utility.yul\":15693:15698   */\n      dup4\n        /* \"#utility.yul\":15689:15705   */\n      add\n        /* \"#utility.yul\":15683:15706   */\n      mload\n        /* \"#utility.yul\":15719:15776   */\n      tag_688\n        /* \"#utility.yul\":15770:15774   */\n      0x60\n        /* \"#utility.yul\":15765:15768   */\n      dup7\n        /* \"#utility.yul\":15761:15775   */\n      add\n        /* \"#utility.yul\":15747:15759   */\n      dup3\n        /* \"#utility.yul\":15719:15776   */\n      tag_639\n      jump\t// in\n    tag_688:\n        /* \"#utility.yul\":15622:15786   */\n      pop\n        /* \"#utility.yul\":15803:15807   */\n      dup1\n        /* \"#utility.yul\":15796:15807   */\n      swap2\n      pop\n        /* \"#utility.yul\":14969:15813   */\n      pop\n      swap3\n      swap2\n      pop\n      pop\n      jump\t// out\n        /* \"#utility.yul\":15877:17322   */\n    tag_585:\n      0x00\n        /* \"#utility.yul\":16020:16024   */\n      0xc0\n        /* \"#utility.yul\":16015:16018   */\n      dup4\n        /* \"#utility.yul\":16011:16025   */\n      add\n        /* \"#utility.yul\":16113:16117   */\n      0x00\n        /* \"#utility.yul\":16106:16111   */\n      dup4\n        /* \"#utility.yul\":16102:16118   */\n      add\n        /* \"#utility.yul\":16096:16119   */\n      mload\n        /* \"#utility.yul\":16132:16195   */\n      tag_690\n        /* \"#utility.yul\":16189:16193   */\n      0x00\n        /* \"#utility.yul\":16184:16187   */\n      dup7\n        /* \"#utility.yul\":16180:16194   */\n      add\n        /* \"#utility.yul\":16166:16178   */\n      dup3\n        /* \"#utility.yul\":16132:16195   */\n      tag_590\n      jump\t// in\n    tag_690:\n        /* \"#utility.yul\":16035:16205   */\n      pop\n        /* \"#utility.yul\":16287:16291   */\n      0x20\n        /* \"#utility.yul\":16280:16285   */\n      dup4\n        /* \"#utility.yul\":16276:16292   */\n      add\n        /* \"#utility.yul\":16270:16293   */\n      mload\n        /* \"#utility.yul\":16340:16343   */\n      dup5\n        /* \"#utility.yul\":16334:16338   */\n      dup3\n        /* \"#utility.yul\":16330:16344   */\n      sub\n        /* \"#utility.yul\":16323:16327   */\n      0x20\n        /* \"#utility.yul\":16318:16321   */\n      dup7\n        /* \"#utility.yul\":16314:16328   */\n      add\n        /* \"#utility.yul\":16307:16345   */\n      mstore\n        /* \"#utility.yul\":16366:16439   */\n      tag_691\n        /* \"#utility.yul\":16434:16438   */\n      dup3\n        /* \"#utility.yul\":16420:16432   */\n      dup3\n        /* \"#utility.yul\":16366:16439   */\n      tag_646\n      jump\t// in\n    tag_691:\n        /* \"#utility.yul\":16358:16439   */\n      swap2\n      pop\n        /* \"#utility.yul\":16215:16450   */\n      pop\n        /* \"#utility.yul\":16532:16536   */\n      0x40\n        /* \"#utility.yul\":16525:16530   */\n      dup4\n        /* \"#utility.yul\":16521:16537   */\n      add\n        /* \"#utility.yul\":16515:16538   */\n      mload\n        /* \"#utility.yul\":16585:16588   */\n      dup5\n        /* \"#utility.yul\":16579:16583   */\n      dup3\n        /* \"#utility.yul\":16575:16589   */\n      sub\n        /* \"#utility.yul\":16568:16572   */\n      0x40\n        /* \"#utility.yul\":16563:16566   */\n      dup7\n        /* \"#utility.yul\":16559:16573   */\n      add\n        /* \"#utility.yul\":16552:16590   */\n      mstore\n        /* \"#utility.yul\":16611:16684   */\n      tag_692\n        /* \"#utility.yul\":16679:16683   */\n      dup3\n        /* \"#utility.yul\":16665:16677   */\n      dup3\n        /* \"#utility.yul\":16611:16684   */\n      tag_646\n      jump\t// in\n    tag_692:\n        /* \"#utility.yul\":16603:16684   */\n      swap2\n      pop\n        /* \"#utility.yul\":16460:16695   */\n      pop\n        /* \"#utility.yul\":16778:16782   */\n      0x60\n        /* \"#utility.yul\":16771:16776   */\n      dup4\n        /* \"#utility.yul\":16767:16783   */\n      add\n        /* \"#utility.yul\":16761:16784   */\n      mload\n        /* \"#utility.yul\":16831:16834   */\n      dup5\n        /* \"#utility.yul\":16825:16829   */\n      dup3\n        /* \"#utility.yul\":16821:16835   */\n      sub\n        /* \"#utility.yul\":16814:16818   */\n      0x60\n        /* \"#utility.yul\":16809:16812   */\n      dup7\n        /* \"#utility.yul\":16805:16819   */\n      add\n        /* \"#utility.yul\":16798:16836   */\n      mstore\n        /* \"#utility.yul\":16857:16930   */\n      tag_693\n        /* \"#utility.yul\":16925:16929   */\n      dup3\n        /* \"#utility.yul\":16911:16923   */\n      dup3\n        /* \"#utility.yul\":16857:16930   */\n      tag_646\n      jump\t// in\n    tag_693:\n        /* \"#utility.yul\":16849:16930   */\n      swap2\n      pop\n        /* \"#utility.yul\":16705:16941   */\n      pop\n        /* \"#utility.yul\":17029:17033   */\n      0x80\n        /* \"#utility.yul\":17022:17027   */\n      dup4\n        /* \"#utility.yul\":17018:17034   */\n      add\n        /* \"#utility.yul\":17012:17035   */\n      mload\n        /* \"#utility.yul\":17048:17111   */\n      tag_694\n        /* \"#utility.yul\":17105:17109   */\n      0x80\n        /* \"#utility.yul\":17100:17103   */\n      dup7\n        /* \"#utility.yul\":17096:17110   */\n      add\n        /* \"#utility.yul\":17082:17094   */\n      dup3\n        /* \"#utility.yul\":17048:17111   */\n      tag_695\n      jump\t// in\n    tag_694:\n        /* \"#utility.yul\":16951:17121   */\n      pop\n        /* \"#utility.yul\":17209:17213   */\n      0xa0\n        /* \"#utility.yul\":17202:17207   */\n      dup4\n        /* \"#utility.yul\":17198:17214   */\n      add\n        /* \"#utility.yul\":17192:17215   */\n      mload\n        /* \"#utility.yul\":17228:17285   */\n      tag_696\n        /* \"#utility.yul\":17279:17283   */\n      0xa0\n        /* \"#utility.yul\":17274:17277   */\n      dup7\n        /* \"#utility.yul\":17270:17284   */\n      add\n        /* \"#utility.yul\":17256:17268   */\n      dup3\n        /* \"#utility.yul\":17228:17285   */\n      tag_639\n      jump\t// in\n    tag_696:\n        /* \"#utility.yul\":17131:17295   */\n      pop\n        /* \"#utility.yul\":17312:17316   */\n      dup1\n        /* \"#utility.yul\":17305:17316   */\n      swap2\n      pop\n        /* \"#utility.yul\":15989:17322   */\n      pop\n      swap3\n      swap2\n      pop\n      pop\n      jump\t// out\n        /* \"#utility.yul\":17382:18575   */\n    tag_589:\n      0x00\n        /* \"#utility.yul\":17521:17525   */\n      0xa0\n        /* \"#utility.yul\":17516:17519   */\n      dup4\n        /* \"#utility.yul\":17512:17526   */\n      add\n        /* \"#utility.yul\":17612:17616   */\n      0x00\n        /* \"#utility.yul\":17605:17610   */\n      dup4\n        /* \"#utility.yul\":17601:17617   */\n      add\n        /* \"#utility.yul\":17595:17618   */\n      mload\n        /* \"#utility.yul\":17631:17694   */\n      tag_698\n        /* \"#utility.yul\":17688:17692   */\n      0x00\n        /* \"#utility.yul\":17683:17686   */\n      dup7\n        /* \"#utility.yul\":17679:17693   */\n      add\n        /* \"#utility.yul\":17665:17677   */\n      dup3\n        /* \"#utility.yul\":17631:17694   */\n      tag_695\n      jump\t// in\n    tag_698:\n        /* \"#utility.yul\":17536:17704   */\n      pop\n        /* \"#utility.yul\":17785:17789   */\n      0x20\n        /* \"#utility.yul\":17778:17783   */\n      dup4\n        /* \"#utility.yul\":17774:17790   */\n      add\n        /* \"#utility.yul\":17768:17791   */\n      mload\n        /* \"#utility.yul\":17838:17841   */\n      dup5\n        /* \"#utility.yul\":17832:17836   */\n      dup3\n        /* \"#utility.yul\":17828:17842   */\n      sub\n        /* \"#utility.yul\":17821:17825   */\n      0x20\n        /* \"#utility.yul\":17816:17819   */\n      dup7\n        /* \"#utility.yul\":17812:17826   */\n      add\n        /* \"#utility.yul\":17805:17843   */\n      mstore\n        /* \"#utility.yul\":17864:17937   */\n      tag_699\n        /* \"#utility.yul\":17932:17936   */\n      dup3\n        /* \"#utility.yul\":17918:17930   */\n      dup3\n        /* \"#utility.yul\":17864:17937   */\n      tag_646\n      jump\t// in\n    tag_699:\n        /* \"#utility.yul\":17856:17937   */\n      swap2\n      pop\n        /* \"#utility.yul\":17714:17948   */\n      pop\n        /* \"#utility.yul\":18037:18041   */\n      0x40\n        /* \"#utility.yul\":18030:18035   */\n      dup4\n        /* \"#utility.yul\":18026:18042   */\n      add\n        /* \"#utility.yul\":18020:18043   */\n      mload\n        /* \"#utility.yul\":18090:18093   */\n      dup5\n        /* \"#utility.yul\":18084:18088   */\n      dup3\n        /* \"#utility.yul\":18080:18094   */\n      sub\n        /* \"#utility.yul\":18073:18077   */\n      0x40\n        /* \"#utility.yul\":18068:18071   */\n      dup7\n        /* \"#utility.yul\":18064:18078   */\n      add\n        /* \"#utility.yul\":18057:18095   */\n      mstore\n        /* \"#utility.yul\":18116:18189   */\n      tag_700\n        /* \"#utility.yul\":18184:18188   */\n      dup3\n        /* \"#utility.yul\":18170:18182   */\n      dup3\n        /* \"#utility.yul\":18116:18189   */\n      tag_646\n      jump\t// in\n    tag_700:\n        /* \"#utility.yul\":18108:18189   */\n      swap2\n      pop\n        /* \"#utility.yul\":17958:18200   */\n      pop\n        /* \"#utility.yul\":18286:18290   */\n      0x60\n        /* \"#utility.yul\":18279:18284   */\n      dup4\n        /* \"#utility.yul\":18275:18291   */\n      add\n        /* \"#utility.yul\":18269:18292   */\n      mload\n        /* \"#utility.yul\":18305:18368   */\n      tag_701\n        /* \"#utility.yul\":18362:18366   */\n      0x60\n        /* \"#utility.yul\":18357:18360   */\n      dup7\n        /* \"#utility.yul\":18353:18367   */\n      add\n        /* \"#utility.yul\":18339:18351   */\n      dup3\n        /* \"#utility.yul\":18305:18368   */\n      tag_590\n      jump\t// in\n    tag_701:\n        /* \"#utility.yul\":18210:18378   */\n      pop\n        /* \"#utility.yul\":18462:18466   */\n      0x80\n        /* \"#utility.yul\":18455:18460   */\n      dup4\n        /* \"#utility.yul\":18451:18467   */\n      add\n        /* \"#utility.yul\":18445:18468   */\n      mload\n        /* \"#utility.yul\":18481:18538   */\n      tag_702\n        /* \"#utility.yul\":18532:18536   */\n      0x80\n        /* \"#utility.yul\":18527:18530   */\n      dup7\n        /* \"#utility.yul\":18523:18537   */\n      add\n        /* \"#utility.yul\":18509:18521   */\n      dup3\n        /* \"#utility.yul\":18481:18538   */\n      tag_639\n      jump\t// in\n    tag_702:\n        /* \"#utility.yul\":18388:18548   */\n      pop\n        /* \"#utility.yul\":18565:18569   */\n      dup1\n        /* \"#utility.yul\":18558:18569   */\n      swap2\n      pop\n        /* \"#utility.yul\":17490:18575   */\n      pop\n      swap3\n      swap2\n      pop\n      pop\n      jump\t// out\n        /* \"#utility.yul\":18581:18689   */\n    tag_695:\n        /* \"#utility.yul\":18658:18682   */\n      tag_704\n        /* \"#utility.yul\":18676:18681   */\n      dup2\n        /* \"#utility.yul\":18658:18682   */\n      tag_705\n      jump\t// in\n    tag_704:\n        /* \"#utility.yul\":18653:18656   */\n      dup3\n        /* \"#utility.yul\":18646:18683   */\n      mstore\n        /* \"#utility.yul\":18636:18689   */\n      pop\n      pop\n      jump\t// out\n        /* \"#utility.yul\":18695:18813   */\n    tag_706:\n        /* \"#utility.yul\":18782:18806   */\n      tag_708\n        /* \"#utility.yul\":18800:18805   */\n      dup2\n        /* \"#utility.yul\":18782:18806   */\n      tag_705\n      jump\t// in\n    tag_708:\n        /* \"#utility.yul\":18777:18780   */\n      dup3\n        /* \"#utility.yul\":18770:18807   */\n      mstore\n        /* \"#utility.yul\":18760:18813   */\n      pop\n      pop\n      jump\t// out\n        /* \"#utility.yul\":18819:19451   */\n    tag_89:\n      0x00\n        /* \"#utility.yul\":19048:19051   */\n      0x80\n        /* \"#utility.yul\":19037:19046   */\n      dup3\n        /* \"#utility.yul\":19033:19052   */\n      add\n        /* \"#utility.yul\":19025:19052   */\n      swap1\n      pop\n        /* \"#utility.yul\":19062:19133   */\n      tag_710\n        /* \"#utility.yul\":19130:19131   */\n      0x00\n        /* \"#utility.yul\":19119:19128   */\n      dup4\n        /* \"#utility.yul\":19115:19132   */\n      add\n        /* \"#utility.yul\":19106:19112   */\n      dup8\n        /* \"#utility.yul\":19062:19133   */\n      tag_594\n      jump\t// in\n    tag_710:\n        /* \"#utility.yul\":19180:19189   */\n      dup2\n        /* \"#utility.yul\":19174:19178   */\n      dup2\n        /* \"#utility.yul\":19170:19190   */\n      sub\n        /* \"#utility.yul\":19165:19167   */\n      0x20\n        /* \"#utility.yul\":19154:19163   */\n      dup4\n        /* \"#utility.yul\":19150:19168   */\n      add\n        /* \"#utility.yul\":19143:19191   */\n      mstore\n        /* \"#utility.yul\":19208:19286   */\n      tag_711\n        /* \"#utility.yul\":19281:19285   */\n      dup2\n        /* \"#utility.yul\":19272:19278   */\n      dup7\n        /* \"#utility.yul\":19208:19286   */\n      tag_656\n      jump\t// in\n    tag_711:\n        /* \"#utility.yul\":19200:19286   */\n      swap1\n      pop\n        /* \"#utility.yul\":19296:19368   */\n      tag_712\n        /* \"#utility.yul\":19364:19366   */\n      0x40\n        /* \"#utility.yul\":19353:19362   */\n      dup4\n        /* \"#utility.yul\":19349:19367   */\n      add\n        /* \"#utility.yul\":19340:19346   */\n      dup6\n        /* \"#utility.yul\":19296:19368   */\n      tag_594\n      jump\t// in\n    tag_712:\n        /* \"#utility.yul\":19378:19444   */\n      tag_713\n        /* \"#utility.yul\":19440:19442   */\n      0x60\n        /* \"#utility.yul\":19429:19438   */\n      dup4\n        /* \"#utility.yul\":19425:19443   */\n      add\n        /* \"#utility.yul\":19416:19422   */\n      dup5\n        /* \"#utility.yul\":19378:19444   */\n      tag_643\n      jump\t// in\n    tag_713:\n        /* \"#utility.yul\":19015:19451   */\n      swap6\n      swap5\n      pop\n      pop\n      pop\n      pop\n      pop\n      jump\t// out\n        /* \"#utility.yul\":19457:20493   */\n    tag_113:\n      0x00\n        /* \"#utility.yul\":19782:19785   */\n      0xc0\n        /* \"#utility.yul\":19771:19780   */\n      dup3\n        /* \"#utility.yul\":19767:19786   */\n      add\n        /* \"#utility.yul\":19759:19786   */\n      swap1\n      pop\n        /* \"#utility.yul\":19796:19867   */\n      tag_715\n        /* \"#utility.yul\":19864:19865   */\n      0x00\n        /* \"#utility.yul\":19853:19862   */\n      dup4\n        /* \"#utility.yul\":19849:19866   */\n      add\n        /* \"#utility.yul\":19840:19846   */\n      dup10\n        /* \"#utility.yul\":19796:19867   */\n      tag_594\n      jump\t// in\n    tag_715:\n        /* \"#utility.yul\":19914:19923   */\n      dup2\n        /* \"#utility.yul\":19908:19912   */\n      dup2\n        /* \"#utility.yul\":19904:19924   */\n      sub\n        /* \"#utility.yul\":19899:19901   */\n      0x20\n        /* \"#utility.yul\":19888:19897   */\n      dup4\n        /* \"#utility.yul\":19884:19902   */\n      add\n        /* \"#utility.yul\":19877:19925   */\n      mstore\n        /* \"#utility.yul\":19942:20020   */\n      tag_716\n        /* \"#utility.yul\":20015:20019   */\n      dup2\n        /* \"#utility.yul\":20006:20012   */\n      dup9\n        /* \"#utility.yul\":19942:20020   */\n      tag_656\n      jump\t// in\n    tag_716:\n        /* \"#utility.yul\":19934:20020   */\n      swap1\n      pop\n        /* \"#utility.yul\":20067:20076   */\n      dup2\n        /* \"#utility.yul\":20061:20065   */\n      dup2\n        /* \"#utility.yul\":20057:20077   */\n      sub\n        /* \"#utility.yul\":20052:20054   */\n      0x40\n        /* \"#utility.yul\":20041:20050   */\n      dup4\n        /* \"#utility.yul\":20037:20055   */\n      add\n        /* \"#utility.yul\":20030:20078   */\n      mstore\n        /* \"#utility.yul\":20095:20173   */\n      tag_717\n        /* \"#utility.yul\":20168:20172   */\n      dup2\n        /* \"#utility.yul\":20159:20165   */\n      dup8\n        /* \"#utility.yul\":20095:20173   */\n      tag_656\n      jump\t// in\n    tag_717:\n        /* \"#utility.yul\":20087:20173   */\n      swap1\n      pop\n        /* \"#utility.yul\":20220:20229   */\n      dup2\n        /* \"#utility.yul\":20214:20218   */\n      dup2\n        /* \"#utility.yul\":20210:20230   */\n      sub\n        /* \"#utility.yul\":20205:20207   */\n      0x60\n        /* \"#utility.yul\":20194:20203   */\n      dup4\n        /* \"#utility.yul\":20190:20208   */\n      add\n        /* \"#utility.yul\":20183:20231   */\n      mstore\n        /* \"#utility.yul\":20248:20326   */\n      tag_718\n        /* \"#utility.yul\":20321:20325   */\n      dup2\n        /* \"#utility.yul\":20312:20318   */\n      dup7\n        /* \"#utility.yul\":20248:20326   */\n      tag_656\n      jump\t// in\n    tag_718:\n        /* \"#utility.yul\":20240:20326   */\n      swap1\n      pop\n        /* \"#utility.yul\":20336:20409   */\n      tag_719\n        /* \"#utility.yul\":20404:20407   */\n      0x80\n        /* \"#utility.yul\":20393:20402   */\n      dup4\n        /* \"#utility.yul\":20389:20408   */\n      add\n        /* \"#utility.yul\":20380:20386   */\n      dup6\n        /* \"#utility.yul\":20336:20409   */\n      tag_706\n      jump\t// in\n    tag_719:\n        /* \"#utility.yul\":20419:20486   */\n      tag_720\n        /* \"#utility.yul\":20481:20484   */\n      0xa0\n        /* \"#utility.yul\":20470:20479   */\n      dup4\n        /* \"#utility.yul\":20466:20485   */\n      add\n        /* \"#utility.yul\":20457:20463   */\n      dup5\n        /* \"#utility.yul\":20419:20486   */\n      tag_643\n      jump\t// in\n    tag_720:\n        /* \"#utility.yul\":19749:20493   */\n      swap8\n      swap7\n      pop\n      pop\n      pop\n      pop\n      pop\n      pop\n      pop\n      jump\t// out\n        /* \"#utility.yul\":20499:21125   */\n    tag_263:\n      0x00\n        /* \"#utility.yul\":20725:20728   */\n      0x80\n        /* \"#utility.yul\":20714:20723   */\n      dup3\n        /* \"#utility.yul\":20710:20729   */\n      add\n        /* \"#utility.yul\":20702:20729   */\n      swap1\n      pop\n        /* \"#utility.yul\":20739:20810   */\n      tag_722\n        /* \"#utility.yul\":20807:20808   */\n      0x00\n        /* \"#utility.yul\":20796:20805   */\n      dup4\n        /* \"#utility.yul\":20792:20809   */\n      add\n        /* \"#utility.yul\":20783:20789   */\n      dup8\n        /* \"#utility.yul\":20739:20810   */\n      tag_594\n      jump\t// in\n    tag_722:\n        /* \"#utility.yul\":20857:20866   */\n      dup2\n        /* \"#utility.yul\":20851:20855   */\n      dup2\n        /* \"#utility.yul\":20847:20867   */\n      sub\n        /* \"#utility.yul\":20842:20844   */\n      0x20\n        /* \"#utility.yul\":20831:20840   */\n      dup4\n        /* \"#utility.yul\":20827:20845   */\n      add\n        /* \"#utility.yul\":20820:20868   */\n      mstore\n        /* \"#utility.yul\":20885:20960   */\n      tag_723\n        /* \"#utility.yul\":20955:20959   */\n      dup2\n        /* \"#utility.yul\":20946:20952   */\n      dup7\n        /* \"#utility.yul\":20885:20960   */\n      tag_663\n      jump\t// in\n    tag_723:\n        /* \"#utility.yul\":20877:20960   */\n      swap1\n      pop\n        /* \"#utility.yul\":20970:21042   */\n      tag_724\n        /* \"#utility.yul\":21038:21040   */\n      0x40\n        /* \"#utility.yul\":21027:21036   */\n      dup4\n        /* \"#utility.yul\":21023:21041   */\n      add\n        /* \"#utility.yul\":21014:21020   */\n      dup6\n        /* \"#utility.yul\":20970:21042   */\n      tag_594\n      jump\t// in\n    tag_724:\n        /* \"#utility.yul\":21052:21118   */\n      tag_725\n        /* \"#utility.yul\":21114:21116   */\n      0x60\n        /* \"#utility.yul\":21103:21112   */\n      dup4\n        /* \"#utility.yul\":21099:21117   */\n      add\n        /* \"#utility.yul\":21090:21096   */\n      dup5\n        /* \"#utility.yul\":21052:21118   */\n      tag_643\n      jump\t// in\n    tag_725:\n        /* \"#utility.yul\":20692:21125   */\n      swap6\n      swap5\n      pop\n      pop\n      pop\n      pop\n      pop\n      jump\t// out\n        /* \"#utility.yul\":21131:22149   */\n    tag_205:\n      0x00\n        /* \"#utility.yul\":21447:21450   */\n      0xc0\n        /* \"#utility.yul\":21436:21445   */\n      dup3\n        /* \"#utility.yul\":21432:21451   */\n      add\n        /* \"#utility.yul\":21424:21451   */\n      swap1\n      pop\n        /* \"#utility.yul\":21461:21532   */\n      tag_727\n        /* \"#utility.yul\":21529:21530   */\n      0x00\n        /* \"#utility.yul\":21518:21527   */\n      dup4\n        /* \"#utility.yul\":21514:21531   */\n      add\n        /* \"#utility.yul\":21505:21511   */\n      dup10\n        /* \"#utility.yul\":21461:21532   */\n      tag_594\n      jump\t// in\n    tag_727:\n        /* \"#utility.yul\":21579:21588   */\n      dup2\n        /* \"#utility.yul\":21573:21577   */\n      dup2\n        /* \"#utility.yul\":21569:21589   */\n      sub\n        /* \"#utility.yul\":21564:21566   */\n      0x20\n        /* \"#utility.yul\":21553:21562   */\n      dup4\n        /* \"#utility.yul\":21549:21567   */\n      add\n        /* \"#utility.yul\":21542:21590   */\n      mstore\n        /* \"#utility.yul\":21607:21682   */\n      tag_728\n        /* \"#utility.yul\":21677:21681   */\n      dup2\n        /* \"#utility.yul\":21668:21674   */\n      dup9\n        /* \"#utility.yul\":21607:21682   */\n      tag_663\n      jump\t// in\n    tag_728:\n        /* \"#utility.yul\":21599:21682   */\n      swap1\n      pop\n        /* \"#utility.yul\":21729:21738   */\n      dup2\n        /* \"#utility.yul\":21723:21727   */\n      dup2\n        /* \"#utility.yul\":21719:21739   */\n      sub\n        /* \"#utility.yul\":21714:21716   */\n      0x40\n        /* \"#utility.yul\":21703:21712   */\n      dup4\n        /* \"#utility.yul\":21699:21717   */\n      add\n        /* \"#utility.yul\":21692:21740   */\n      mstore\n        /* \"#utility.yul\":21757:21832   */\n      tag_729\n        /* \"#utility.yul\":21827:21831   */\n      dup2\n        /* \"#utility.yul\":21818:21824   */\n      dup8\n        /* \"#utility.yul\":21757:21832   */\n      tag_663\n      jump\t// in\n    tag_729:\n        /* \"#utility.yul\":21749:21832   */\n      swap1\n      pop\n        /* \"#utility.yul\":21879:21888   */\n      dup2\n        /* \"#utility.yul\":21873:21877   */\n      dup2\n        /* \"#utility.yul\":21869:21889   */\n      sub\n        /* \"#utility.yul\":21864:21866   */\n      0x60\n        /* \"#utility.yul\":21853:21862   */\n      dup4\n        /* \"#utility.yul\":21849:21867   */\n      add\n        /* \"#utility.yul\":21842:21890   */\n      mstore\n        /* \"#utility.yul\":21907:21982   */\n      tag_730\n        /* \"#utility.yul\":21977:21981   */\n      dup2\n        /* \"#utility.yul\":21968:21974   */\n      dup7\n        /* \"#utility.yul\":21907:21982   */\n      tag_663\n      jump\t// in\n    tag_730:\n        /* \"#utility.yul\":21899:21982   */\n      swap1\n      pop\n        /* \"#utility.yul\":21992:22065   */\n      tag_731\n        /* \"#utility.yul\":22060:22063   */\n      0x80\n        /* \"#utility.yul\":22049:22058   */\n      dup4\n        /* \"#utility.yul\":22045:22064   */\n      add\n        /* \"#utility.yul\":22036:22042   */\n      dup6\n        /* \"#utility.yul\":21992:22065   */\n      tag_706\n      jump\t// in\n    tag_731:\n        /* \"#utility.yul\":22075:22142   */\n      tag_732\n        /* \"#utility.yul\":22137:22140   */\n      0xa0\n        /* \"#utility.yul\":22126:22135   */\n      dup4\n        /* \"#utility.yul\":22122:22141   */\n      add\n        /* \"#utility.yul\":22113:22119   */\n      dup5\n        /* \"#utility.yul\":22075:22142   */\n      tag_643\n      jump\t// in\n    tag_732:\n        /* \"#utility.yul\":21414:22149   */\n      swap8\n      swap7\n      pop\n      pop\n      pop\n      pop\n      pop\n      pop\n      pop\n      jump\t// out\n        /* \"#utility.yul\":22155:22616   */\n    tag_121:\n      0x00\n        /* \"#utility.yul\":22380:22382   */\n      0x20\n        /* \"#utility.yul\":22369:22378   */\n      dup3\n        /* \"#utility.yul\":22365:22383   */\n      add\n        /* \"#utility.yul\":22357:22383   */\n      swap1\n      pop\n        /* \"#utility.yul\":22429:22438   */\n      dup2\n        /* \"#utility.yul\":22423:22427   */\n      dup2\n        /* \"#utility.yul\":22419:22439   */\n      sub\n        /* \"#utility.yul\":22415:22416   */\n      0x00\n        /* \"#utility.yul\":22404:22413   */\n      dup4\n        /* \"#utility.yul\":22400:22417   */\n      add\n        /* \"#utility.yul\":22393:22440   */\n      mstore\n        /* \"#utility.yul\":22457:22609   */\n      tag_734\n        /* \"#utility.yul\":22604:22608   */\n      dup2\n        /* \"#utility.yul\":22595:22601   */\n      dup5\n        /* \"#utility.yul\":22457:22609   */\n      tag_597\n      jump\t// in\n    tag_734:\n        /* \"#utility.yul\":22449:22609   */\n      swap1\n      pop\n        /* \"#utility.yul\":22347:22616   */\n      swap3\n      swap2\n      pop\n      pop\n      jump\t// out\n        /* \"#utility.yul\":22622:23091   */\n    tag_59:\n      0x00\n        /* \"#utility.yul\":22851:22853   */\n      0x20\n        /* \"#utility.yul\":22840:22849   */\n      dup3\n        /* \"#utility.yul\":22836:22854   */\n      add\n        /* \"#utility.yul\":22828:22854   */\n      swap1\n      pop\n        /* \"#utility.yul\":22900:22909   */\n      dup2\n        /* \"#utility.yul\":22894:22898   */\n      dup2\n        /* \"#utility.yul\":22890:22910   */\n      sub\n        /* \"#utility.yul\":22886:22887   */\n      0x00\n        /* \"#utility.yul\":22875:22884   */\n      dup4\n        /* \"#utility.yul\":22871:22888   */\n      add\n        /* \"#utility.yul\":22864:22911   */\n      mstore\n        /* \"#utility.yul\":22928:23084   */\n      tag_736\n        /* \"#utility.yul\":23079:23083   */\n      dup2\n        /* \"#utility.yul\":23070:23076   */\n      dup5\n        /* \"#utility.yul\":22928:23084   */\n      tag_611\n      jump\t// in\n    tag_736:\n        /* \"#utility.yul\":22920:23084   */\n      swap1\n      pop\n        /* \"#utility.yul\":22818:23091   */\n      swap3\n      swap2\n      pop\n      pop\n      jump\t// out\n        /* \"#utility.yul\":23097:23558   */\n    tag_63:\n      0x00\n        /* \"#utility.yul\":23322:23324   */\n      0x20\n        /* \"#utility.yul\":23311:23320   */\n      dup3\n        /* \"#utility.yul\":23307:23325   */\n      add\n        /* \"#utility.yul\":23299:23325   */\n      swap1\n      pop\n        /* \"#utility.yul\":23371:23380   */\n      dup2\n        /* \"#utility.yul\":23365:23369   */\n      dup2\n        /* \"#utility.yul\":23361:23381   */\n      sub\n        /* \"#utility.yul\":23357:23358   */\n      0x00\n        /* \"#utility.yul\":23346:23355   */\n      dup4\n        /* \"#utility.yul\":23342:23359   */\n      add\n        /* \"#utility.yul\":23335:23382   */\n      mstore\n        /* \"#utility.yul\":23399:23551   */\n      tag_738\n        /* \"#utility.yul\":23546:23550   */\n      dup2\n        /* \"#utility.yul\":23537:23543   */\n      dup5\n        /* \"#utility.yul\":23399:23551   */\n      tag_625\n      jump\t// in\n    tag_738:\n        /* \"#utility.yul\":23391:23551   */\n      swap1\n      pop\n        /* \"#utility.yul\":23289:23558   */\n      swap3\n      swap2\n      pop\n      pop\n      jump\t// out\n        /* \"#utility.yul\":23564:24085   */\n    tag_75:\n      0x00\n        /* \"#utility.yul\":23765:23767   */\n      0x60\n        /* \"#utility.yul\":23754:23763   */\n      dup3\n        /* \"#utility.yul\":23750:23768   */\n      add\n        /* \"#utility.yul\":23742:23768   */\n      swap1\n      pop\n        /* \"#utility.yul\":23814:23823   */\n      dup2\n        /* \"#utility.yul\":23808:23812   */\n      dup2\n        /* \"#utility.yul\":23804:23824   */\n      sub\n        /* \"#utility.yul\":23800:23801   */\n      0x00\n        /* \"#utility.yul\":23789:23798   */\n      dup4\n        /* \"#utility.yul\":23785:23802   */\n      add\n        /* \"#utility.yul\":23778:23825   */\n      mstore\n        /* \"#utility.yul\":23842:23920   */\n      tag_740\n        /* \"#utility.yul\":23915:23919   */\n      dup2\n        /* \"#utility.yul\":23906:23912   */\n      dup7\n        /* \"#utility.yul\":23842:23920   */\n      tag_656\n      jump\t// in\n    tag_740:\n        /* \"#utility.yul\":23834:23920   */\n      swap1\n      pop\n        /* \"#utility.yul\":23930:24002   */\n      tag_741\n        /* \"#utility.yul\":23998:24000   */\n      0x20\n        /* \"#utility.yul\":23987:23996   */\n      dup4\n        /* \"#utility.yul\":23983:24001   */\n      add\n        /* \"#utility.yul\":23974:23980   */\n      dup6\n        /* \"#utility.yul\":23930:24002   */\n      tag_594\n      jump\t// in\n    tag_741:\n        /* \"#utility.yul\":24012:24078   */\n      tag_742\n        /* \"#utility.yul\":24074:24076   */\n      0x40\n        /* \"#utility.yul\":24063:24072   */\n      dup4\n        /* \"#utility.yul\":24059:24077   */\n      add\n        /* \"#utility.yul\":24050:24056   */\n      dup5\n        /* \"#utility.yul\":24012:24078   */\n      tag_643\n      jump\t// in\n    tag_742:\n        /* \"#utility.yul\":23732:24085   */\n      swap5\n      swap4\n      pop\n      pop\n      pop\n      pop\n      jump\t// out\n        /* \"#utility.yul\":24091:24814   */\n    tag_39:\n      0x00\n        /* \"#utility.yul\":24340:24343   */\n      0x80\n        /* \"#utility.yul\":24329:24338   */\n      dup3\n        /* \"#utility.yul\":24325:24344   */\n      add\n        /* \"#utility.yul\":24317:24344   */\n      swap1\n      pop\n        /* \"#utility.yul\":24390:24399   */\n      dup2\n        /* \"#utility.yul\":24384:24388   */\n      dup2\n        /* \"#utility.yul\":24380:24400   */\n      sub\n        /* \"#utility.yul\":24376:24377   */\n      0x00\n        /* \"#utility.yul\":24365:24374   */\n      dup4\n        /* \"#utility.yul\":24361:24378   */\n      add\n        /* \"#utility.yul\":24354:24401   */\n      mstore\n        /* \"#utility.yul\":24418:24496   */\n      tag_744\n        /* \"#utility.yul\":24491:24495   */\n      dup2\n        /* \"#utility.yul\":24482:24488   */\n      dup8\n        /* \"#utility.yul\":24418:24496   */\n      tag_656\n      jump\t// in\n    tag_744:\n        /* \"#utility.yul\":24410:24496   */\n      swap1\n      pop\n        /* \"#utility.yul\":24543:24552   */\n      dup2\n        /* \"#utility.yul\":24537:24541   */\n      dup2\n        /* \"#utility.yul\":24533:24553   */\n      sub\n        /* \"#utility.yul\":24528:24530   */\n      0x20\n        /* \"#utility.yul\":24517:24526   */\n      dup4\n        /* \"#utility.yul\":24513:24531   */\n      add\n        /* \"#utility.yul\":24506:24554   */\n      mstore\n        /* \"#utility.yul\":24571:24649   */\n      tag_745\n        /* \"#utility.yul\":24644:24648   */\n      dup2\n        /* \"#utility.yul\":24635:24641   */\n      dup7\n        /* \"#utility.yul\":24571:24649   */\n      tag_656\n      jump\t// in\n    tag_745:\n        /* \"#utility.yul\":24563:24649   */\n      swap1\n      pop\n        /* \"#utility.yul\":24659:24731   */\n      tag_746\n        /* \"#utility.yul\":24727:24729   */\n      0x40\n        /* \"#utility.yul\":24716:24725   */\n      dup4\n        /* \"#utility.yul\":24712:24730   */\n      add\n        /* \"#utility.yul\":24703:24709   */\n      dup6\n        /* \"#utility.yul\":24659:24731   */\n      tag_594\n      jump\t// in\n    tag_746:\n        /* \"#utility.yul\":24741:24807   */\n      tag_747\n        /* \"#utility.yul\":24803:24805   */\n      0x60\n        /* \"#utility.yul\":24792:24801   */\n      dup4\n        /* \"#utility.yul\":24788:24806   */\n      add\n        /* \"#utility.yul\":24779:24785   */\n      dup5\n        /* \"#utility.yul\":24741:24807   */\n      tag_643\n      jump\t// in\n    tag_747:\n        /* \"#utility.yul\":24307:24814   */\n      swap6\n      swap5\n      pop\n      pop\n      pop\n      pop\n      pop\n      jump\t// out\n        /* \"#utility.yul\":24820:25745   */\n    tag_98:\n      0x00\n        /* \"#utility.yul\":25117:25120   */\n      0xa0\n        /* \"#utility.yul\":25106:25115   */\n      dup3\n        /* \"#utility.yul\":25102:25121   */\n      add\n        /* \"#utility.yul\":25094:25121   */\n      swap1\n      pop\n        /* \"#utility.yul\":25167:25176   */\n      dup2\n        /* \"#utility.yul\":25161:25165   */\n      dup2\n        /* \"#utility.yul\":25157:25177   */\n      sub\n        /* \"#utility.yul\":25153:25154   */\n      0x00\n        /* \"#utility.yul\":25142:25151   */\n      dup4\n        /* \"#utility.yul\":25138:25155   */\n      add\n        /* \"#utility.yul\":25131:25178   */\n      mstore\n        /* \"#utility.yul\":25195:25273   */\n      tag_749\n        /* \"#utility.yul\":25268:25272   */\n      dup2\n        /* \"#utility.yul\":25259:25265   */\n      dup9\n        /* \"#utility.yul\":25195:25273   */\n      tag_656\n      jump\t// in\n    tag_749:\n        /* \"#utility.yul\":25187:25273   */\n      swap1\n      pop\n        /* \"#utility.yul\":25320:25329   */\n      dup2\n        /* \"#utility.yul\":25314:25318   */\n      dup2\n        /* \"#utility.yul\":25310:25330   */\n      sub\n        /* \"#utility.yul\":25305:25307   */\n      0x20\n        /* \"#utility.yul\":25294:25303   */\n      dup4\n        /* \"#utility.yul\":25290:25308   */\n      add\n        /* \"#utility.yul\":25283:25331   */\n      mstore\n        /* \"#utility.yul\":25348:25426   */\n      tag_750\n        /* \"#utility.yul\":25421:25425   */\n      dup2\n        /* \"#utility.yul\":25412:25418   */\n      dup8\n        /* \"#utility.yul\":25348:25426   */\n      tag_656\n      jump\t// in\n    tag_750:\n        /* \"#utility.yul\":25340:25426   */\n      swap1\n      pop\n        /* \"#utility.yul\":25473:25482   */\n      dup2\n        /* \"#utility.yul\":25467:25471   */\n      dup2\n        /* \"#utility.yul\":25463:25483   */\n      sub\n        /* \"#utility.yul\":25458:25460   */\n      0x40\n        /* \"#utility.yul\":25447:25456   */\n      dup4\n        /* \"#utility.yul\":25443:25461   */\n      add\n        /* \"#utility.yul\":25436:25484   */\n      mstore\n        /* \"#utility.yul\":25501:25579   */\n      tag_751\n        /* \"#utility.yul\":25574:25578   */\n      dup2\n        /* \"#utility.yul\":25565:25571   */\n      dup7\n        /* \"#utility.yul\":25501:25579   */\n      tag_656\n      jump\t// in\n    tag_751:\n        /* \"#utility.yul\":25493:25579   */\n      swap1\n      pop\n        /* \"#utility.yul\":25589:25661   */\n      tag_752\n        /* \"#utility.yul\":25657:25659   */\n      0x60\n        /* \"#utility.yul\":25646:25655   */\n      dup4\n        /* \"#utility.yul\":25642:25660   */\n      add\n        /* \"#utility.yul\":25633:25639   */\n      dup6\n        /* \"#utility.yul\":25589:25661   */\n      tag_706\n      jump\t// in\n    tag_752:\n        /* \"#utility.yul\":25671:25738   */\n      tag_753\n        /* \"#utility.yul\":25733:25736   */\n      0x80\n        /* \"#utility.yul\":25722:25731   */\n      dup4\n        /* \"#utility.yul\":25718:25737   */\n      add\n        /* \"#utility.yul\":25709:25715   */\n      dup5\n        /* \"#utility.yul\":25671:25738   */\n      tag_643\n      jump\t// in\n    tag_753:\n        /* \"#utility.yul\":25084:25745   */\n      swap7\n      swap6\n      pop\n      pop\n      pop\n      pop\n      pop\n      pop\n      jump\t// out\n        /* \"#utility.yul\":25751:26170   */\n    tag_477:\n      0x00\n        /* \"#utility.yul\":25955:25957   */\n      0x20\n        /* \"#utility.yul\":25944:25953   */\n      dup3\n        /* \"#utility.yul\":25940:25958   */\n      add\n        /* \"#utility.yul\":25932:25958   */\n      swap1\n      pop\n        /* \"#utility.yul\":26004:26013   */\n      dup2\n        /* \"#utility.yul\":25998:26002   */\n      dup2\n        /* \"#utility.yul\":25994:26014   */\n      sub\n        /* \"#utility.yul\":25990:25991   */\n      0x00\n        /* \"#utility.yul\":25979:25988   */\n      dup4\n        /* \"#utility.yul\":25975:25992   */\n      add\n        /* \"#utility.yul\":25968:26015   */\n      mstore\n        /* \"#utility.yul\":26032:26163   */\n      tag_755\n        /* \"#utility.yul\":26158:26162   */\n      dup2\n        /* \"#utility.yul\":26032:26163   */\n      tag_675\n      jump\t// in\n    tag_755:\n        /* \"#utility.yul\":26024:26163   */\n      swap1\n      pop\n        /* \"#utility.yul\":25922:26170   */\n      swap2\n      swap1\n      pop\n      jump\t// out\n        /* \"#utility.yul\":26176:26595   */\n    tag_468:\n      0x00\n        /* \"#utility.yul\":26380:26382   */\n      0x20\n        /* \"#utility.yul\":26369:26378   */\n      dup3\n        /* \"#utility.yul\":26365:26383   */\n      add\n        /* \"#utility.yul\":26357:26383   */\n      swap1\n      pop\n        /* \"#utility.yul\":26429:26438   */\n      dup2\n        /* \"#utility.yul\":26423:26427   */\n      dup2\n        /* \"#utility.yul\":26419:26439   */\n      sub\n        /* \"#utility.yul\":26415:26416   */\n      0x00\n        /* \"#utility.yul\":26404:26413   */\n      dup4\n        /* \"#utility.yul\":26400:26417   */\n      add\n        /* \"#utility.yul\":26393:26440   */\n      mstore\n        /* \"#utility.yul\":26457:26588   */\n      tag_757\n        /* \"#utility.yul\":26583:26587   */\n      dup2\n        /* \"#utility.yul\":26457:26588   */\n      tag_678\n      jump\t// in\n    tag_757:\n        /* \"#utility.yul\":26449:26588   */\n      swap1\n      pop\n        /* \"#utility.yul\":26347:26595   */\n      swap2\n      swap1\n      pop\n      jump\t// out\n        /* \"#utility.yul\":26601:27020   */\n    tag_486:\n      0x00\n        /* \"#utility.yul\":26805:26807   */\n      0x20\n        /* \"#utility.yul\":26794:26803   */\n      dup3\n        /* \"#utility.yul\":26790:26808   */\n      add\n        /* \"#utility.yul\":26782:26808   */\n      swap1\n      pop\n        /* \"#utility.yul\":26854:26863   */\n      dup2\n        /* \"#utility.yul\":26848:26852   */\n      dup2\n        /* \"#utility.yul\":26844:26864   */\n      sub\n        /* \"#utility.yul\":26840:26841   */\n      0x00\n        /* \"#utility.yul\":26829:26838   */\n      dup4\n        /* \"#utility.yul\":26825:26842   */\n      add\n        /* \"#utility.yul\":26818:26865   */\n      mstore\n        /* \"#utility.yul\":26882:27013   */\n      tag_759\n        /* \"#utility.yul\":27008:27012   */\n      dup2\n        /* \"#utility.yul\":26882:27013   */\n      tag_681\n      jump\t// in\n    tag_759:\n        /* \"#utility.yul\":26874:27013   */\n      swap1\n      pop\n        /* \"#utility.yul\":26772:27020   */\n      swap2\n      swap1\n      pop\n      jump\t// out\n        /* \"#utility.yul\":27026:27248   */\n    tag_47:\n      0x00\n        /* \"#utility.yul\":27157:27159   */\n      0x20\n        /* \"#utility.yul\":27146:27155   */\n      dup3\n        /* \"#utility.yul\":27142:27160   */\n      add\n        /* \"#utility.yul\":27134:27160   */\n      swap1\n      pop\n        /* \"#utility.yul\":27170:27241   */\n      tag_761\n        /* \"#utility.yul\":27238:27239   */\n      0x00\n        /* \"#utility.yul\":27227:27236   */\n      dup4\n        /* \"#utility.yul\":27223:27240   */\n      add\n        /* \"#utility.yul\":27214:27220   */\n      dup5\n        /* \"#utility.yul\":27170:27241   */\n      tag_706\n      jump\t// in\n    tag_761:\n        /* \"#utility.yul\":27124:27248   */\n      swap3\n      swap2\n      pop\n      pop\n      jump\t// out\n        /* \"#utility.yul\":27254:28088   */\n    tag_84:\n      0x00\n        /* \"#utility.yul\":27531:27534   */\n      0xa0\n        /* \"#utility.yul\":27520:27529   */\n      dup3\n        /* \"#utility.yul\":27516:27535   */\n      add\n        /* \"#utility.yul\":27508:27535   */\n      swap1\n      pop\n        /* \"#utility.yul\":27545:27616   */\n      tag_763\n        /* \"#utility.yul\":27613:27614   */\n      0x00\n        /* \"#utility.yul\":27602:27611   */\n      dup4\n        /* \"#utility.yul\":27598:27615   */\n      add\n        /* \"#utility.yul\":27589:27595   */\n      dup9\n        /* \"#utility.yul\":27545:27616   */\n      tag_706\n      jump\t// in\n    tag_763:\n        /* \"#utility.yul\":27663:27672   */\n      dup2\n        /* \"#utility.yul\":27657:27661   */\n      dup2\n        /* \"#utility.yul\":27653:27673   */\n      sub\n        /* \"#utility.yul\":27648:27650   */\n      0x20\n        /* \"#utility.yul\":27637:27646   */\n      dup4\n        /* \"#utility.yul\":27633:27651   */\n      add\n        /* \"#utility.yul\":27626:27674   */\n      mstore\n        /* \"#utility.yul\":27691:27769   */\n      tag_764\n        /* \"#utility.yul\":27764:27768   */\n      dup2\n        /* \"#utility.yul\":27755:27761   */\n      dup8\n        /* \"#utility.yul\":27691:27769   */\n      tag_656\n      jump\t// in\n    tag_764:\n        /* \"#utility.yul\":27683:27769   */\n      swap1\n      pop\n        /* \"#utility.yul\":27816:27825   */\n      dup2\n        /* \"#utility.yul\":27810:27814   */\n      dup2\n        /* \"#utility.yul\":27806:27826   */\n      sub\n        /* \"#utility.yul\":27801:27803   */\n      0x40\n        /* \"#utility.yul\":27790:27799   */\n      dup4\n        /* \"#utility.yul\":27786:27804   */\n      add\n        /* \"#utility.yul\":27779:27827   */\n      mstore\n        /* \"#utility.yul\":27844:27922   */\n      tag_765\n        /* \"#utility.yul\":27917:27921   */\n      dup2\n        /* \"#utility.yul\":27908:27914   */\n      dup7\n        /* \"#utility.yul\":27844:27922   */\n      tag_656\n      jump\t// in\n    tag_765:\n        /* \"#utility.yul\":27836:27922   */\n      swap1\n      pop\n        /* \"#utility.yul\":27932:28004   */\n      tag_766\n        /* \"#utility.yul\":28000:28002   */\n      0x60\n        /* \"#utility.yul\":27989:27998   */\n      dup4\n        /* \"#utility.yul\":27985:28003   */\n      add\n        /* \"#utility.yul\":27976:27982   */\n      dup6\n        /* \"#utility.yul\":27932:28004   */\n      tag_594\n      jump\t// in\n    tag_766:\n        /* \"#utility.yul\":28014:28081   */\n      tag_767\n        /* \"#utility.yul\":28076:28079   */\n      0x80\n        /* \"#utility.yul\":28065:28074   */\n      dup4\n        /* \"#utility.yul\":28061:28080   */\n      add\n        /* \"#utility.yul\":28052:28058   */\n      dup5\n        /* \"#utility.yul\":28014:28081   */\n      tag_643\n      jump\t// in\n    tag_767:\n        /* \"#utility.yul\":27498:28088   */\n      swap7\n      swap6\n      pop\n      pop\n      pop\n      pop\n      pop\n      pop\n      jump\t// out\n        /* \"#utility.yul\":28094:28817   */\n    tag_186:\n      0x00\n        /* \"#utility.yul\":28343:28346   */\n      0x80\n        /* \"#utility.yul\":28332:28341   */\n      dup3\n        /* \"#utility.yul\":28328:28347   */\n      add\n        /* \"#utility.yul\":28320:28347   */\n      swap1\n      pop\n        /* \"#utility.yul\":28357:28428   */\n      tag_769\n        /* \"#utility.yul\":28425:28426   */\n      0x00\n        /* \"#utility.yul\":28414:28423   */\n      dup4\n        /* \"#utility.yul\":28410:28427   */\n      add\n        /* \"#utility.yul\":28401:28407   */\n      dup8\n        /* \"#utility.yul\":28357:28428   */\n      tag_706\n      jump\t// in\n    tag_769:\n        /* \"#utility.yul\":28475:28484   */\n      dup2\n        /* \"#utility.yul\":28469:28473   */\n      dup2\n        /* \"#utility.yul\":28465:28485   */\n      sub\n        /* \"#utility.yul\":28460:28462   */\n      0x20\n        /* \"#utility.yul\":28449:28458   */\n      dup4\n        /* \"#utility.yul\":28445:28463   */\n      add\n        /* \"#utility.yul\":28438:28486   */\n      mstore\n        /* \"#utility.yul\":28503:28578   */\n      tag_770\n        /* \"#utility.yul\":28573:28577   */\n      dup2\n        /* \"#utility.yul\":28564:28570   */\n      dup7\n        /* \"#utility.yul\":28503:28578   */\n      tag_663\n      jump\t// in\n    tag_770:\n        /* \"#utility.yul\":28495:28578   */\n      swap1\n      pop\n        /* \"#utility.yul\":28625:28634   */\n      dup2\n        /* \"#utility.yul\":28619:28623   */\n      dup2\n        /* \"#utility.yul\":28615:28635   */\n      sub\n        /* \"#utility.yul\":28610:28612   */\n      0x40\n        /* \"#utility.yul\":28599:28608   */\n      dup4\n        /* \"#utility.yul\":28595:28613   */\n      add\n        /* \"#utility.yul\":28588:28636   */\n      mstore\n        /* \"#utility.yul\":28653:28728   */\n      tag_771\n        /* \"#utility.yul\":28723:28727   */\n      dup2\n        /* \"#utility.yul\":28714:28720   */\n      dup6\n        /* \"#utility.yul\":28653:28728   */\n      tag_663\n      jump\t// in\n    tag_771:\n        /* \"#utility.yul\":28645:28728   */\n      swap1\n      pop\n        /* \"#utility.yul\":28738:28810   */\n      tag_772\n        /* \"#utility.yul\":28806:28808   */\n      0x60\n        /* \"#utility.yul\":28795:28804   */\n      dup4\n        /* \"#utility.yul\":28791:28809   */\n      add\n        /* \"#utility.yul\":28782:28788   */\n      dup5\n        /* \"#utility.yul\":28738:28810   */\n      tag_594\n      jump\t// in\n    tag_772:\n        /* \"#utility.yul\":28310:28817   */\n      swap6\n      swap5\n      pop\n      pop\n      pop\n      pop\n      pop\n      jump\t// out\n        /* \"#utility.yul\":28823:29645   */\n    tag_279:\n      0x00\n        /* \"#utility.yul\":29094:29097   */\n      0xa0\n        /* \"#utility.yul\":29083:29092   */\n      dup3\n        /* \"#utility.yul\":29079:29098   */\n      add\n        /* \"#utility.yul\":29071:29098   */\n      swap1\n      pop\n        /* \"#utility.yul\":29108:29179   */\n      tag_774\n        /* \"#utility.yul\":29176:29177   */\n      0x00\n        /* \"#utility.yul\":29165:29174   */\n      dup4\n        /* \"#utility.yul\":29161:29178   */\n      add\n        /* \"#utility.yul\":29152:29158   */\n      dup9\n        /* \"#utility.yul\":29108:29179   */\n      tag_706\n      jump\t// in\n    tag_774:\n        /* \"#utility.yul\":29226:29235   */\n      dup2\n        /* \"#utility.yul\":29220:29224   */\n      dup2\n        /* \"#utility.yul\":29216:29236   */\n      sub\n        /* \"#utility.yul\":29211:29213   */\n      0x20\n        /* \"#utility.yul\":29200:29209   */\n      dup4\n        /* \"#utility.yul\":29196:29214   */\n      add\n        /* \"#utility.yul\":29189:29237   */\n      mstore\n        /* \"#utility.yul\":29254:29329   */\n      tag_775\n        /* \"#utility.yul\":29324:29328   */\n      dup2\n        /* \"#utility.yul\":29315:29321   */\n      dup8\n        /* \"#utility.yul\":29254:29329   */\n      tag_663\n      jump\t// in\n    tag_775:\n        /* \"#utility.yul\":29246:29329   */\n      swap1\n      pop\n        /* \"#utility.yul\":29376:29385   */\n      dup2\n        /* \"#utility.yul\":29370:29374   */\n      dup2\n        /* \"#utility.yul\":29366:29386   */\n      sub\n        /* \"#utility.yul\":29361:29363   */\n      0x40\n        /* \"#utility.yul\":29350:29359   */\n      dup4\n        /* \"#utility.yul\":29346:29364   */\n      add\n        /* \"#utility.yul\":29339:29387   */\n      mstore\n        /* \"#utility.yul\":29404:29479   */\n      tag_776\n        /* \"#utility.yul\":29474:29478   */\n      dup2\n        /* \"#utility.yul\":29465:29471   */\n      dup7\n        /* \"#utility.yul\":29404:29479   */\n      tag_663\n      jump\t// in\n    tag_776:\n        /* \"#utility.yul\":29396:29479   */\n      swap1\n      pop\n        /* \"#utility.yul\":29489:29561   */\n      tag_777\n        /* \"#utility.yul\":29557:29559   */\n      0x60\n        /* \"#utility.yul\":29546:29555   */\n      dup4\n        /* \"#utility.yul\":29542:29560   */\n      add\n        /* \"#utility.yul\":29533:29539   */\n      dup6\n        /* \"#utility.yul\":29489:29561   */\n      tag_594\n      jump\t// in\n    tag_777:\n        /* \"#utility.yul\":29571:29638   */\n      tag_778\n        /* \"#utility.yul\":29633:29636   */\n      0x80\n        /* \"#utility.yul\":29622:29631   */\n      dup4\n        /* \"#utility.yul\":29618:29637   */\n      add\n        /* \"#utility.yul\":29609:29615   */\n      dup5\n        /* \"#utility.yul\":29571:29638   */\n      tag_643\n      jump\t// in\n    tag_778:\n        /* \"#utility.yul\":29061:29645   */\n      swap7\n      swap6\n      pop\n      pop\n      pop\n      pop\n      pop\n      pop\n      jump\t// out\n        /* \"#utility.yul\":29651:29929   */\n    tag_502:\n      0x00\n        /* \"#utility.yul\":29717:29719   */\n      0x40\n        /* \"#utility.yul\":29711:29720   */\n      mload\n        /* \"#utility.yul\":29701:29720   */\n      swap1\n      pop\n        /* \"#utility.yul\":29759:29763   */\n      dup2\n        /* \"#utility.yul\":29751:29757   */\n      dup2\n        /* \"#utility.yul\":29747:29764   */\n      add\n        /* \"#utility.yul\":29866:29872   */\n      dup2\n        /* \"#utility.yul\":29854:29864   */\n      dup2\n        /* \"#utility.yul\":29851:29873   */\n      lt\n        /* \"#utility.yul\":29830:29848   */\n      0xffffffffffffffff\n        /* \"#utility.yul\":29818:29828   */\n      dup3\n        /* \"#utility.yul\":29815:29849   */\n      gt\n        /* \"#utility.yul\":29812:29874   */\n      or\n        /* \"#utility.yul\":29809:29811   */\n      iszero\n      tag_780\n      jumpi\n        /* \"#utility.yul\":29877:29890   */\n      tag_781\n      tag_782\n      jump\t// in\n    tag_781:\n        /* \"#utility.yul\":29809:29811   */\n    tag_780:\n        /* \"#utility.yul\":29912:29922   */\n      dup1\n        /* \"#utility.yul\":29908:29910   */\n      0x40\n        /* \"#utility.yul\":29901:29923   */\n      mstore\n        /* \"#utility.yul\":29691:29929   */\n      pop\n      swap2\n      swap1\n      pop\n      jump\t// out\n        /* \"#utility.yul\":29935:30262   */\n    tag_501:\n      0x00\n        /* \"#utility.yul\":30087:30105   */\n      0xffffffffffffffff\n        /* \"#utility.yul\":30079:30085   */\n      dup3\n        /* \"#utility.yul\":30076:30106   */\n      gt\n        /* \"#utility.yul\":30073:30075   */\n      iszero\n      tag_784\n      jumpi\n        /* \"#utility.yul\":30109:30122   */\n      tag_785\n      tag_782\n      jump\t// in\n    tag_785:\n        /* \"#utility.yul\":30073:30075   */\n    tag_784:\n        /* \"#utility.yul\":30189:30193   */\n      0x1f\n        /* \"#utility.yul\":30185:30194   */\n      not\n        /* \"#utility.yul\":30178:30182   */\n      0x1f\n        /* \"#utility.yul\":30170:30176   */\n      dup4\n        /* \"#utility.yul\":30166:30183   */\n      add\n        /* \"#utility.yul\":30162:30195   */\n      and\n        /* \"#utility.yul\":30154:30195   */\n      swap1\n      pop\n        /* \"#utility.yul\":30250:30254   */\n      0x20\n        /* \"#utility.yul\":30244:30248   */\n      dup2\n        /* \"#utility.yul\":30240:30255   */\n      add\n        /* \"#utility.yul\":30232:30255   */\n      swap1\n      pop\n        /* \"#utility.yul\":30002:30262   */\n      swap2\n      swap1\n      pop\n      jump\t// out\n        /* \"#utility.yul\":30268:30422   */\n    tag_604:\n      0x00\n        /* \"#utility.yul\":30380:30383   */\n      dup2\n        /* \"#utility.yul\":30372:30383   */\n      swap1\n      pop\n        /* \"#utility.yul\":30410:30414   */\n      0x20\n        /* \"#utility.yul\":30405:30408   */\n      dup3\n        /* \"#utility.yul\":30401:30415   */\n      add\n        /* \"#utility.yul\":30393:30415   */\n      swap1\n      pop\n        /* \"#utility.yul\":30362:30422   */\n      swap2\n      swap1\n      pop\n      jump\t// out\n        /* \"#utility.yul\":30428:30584   */\n    tag_618:\n      0x00\n        /* \"#utility.yul\":30542:30545   */\n      dup2\n        /* \"#utility.yul\":30534:30545   */\n      swap1\n      pop\n        /* \"#utility.yul\":30572:30576   */\n      0x20\n        /* \"#utility.yul\":30567:30570   */\n      dup3\n        /* \"#utility.yul\":30563:30577   */\n      add\n        /* \"#utility.yul\":30555:30577   */\n      swap1\n      pop\n        /* \"#utility.yul\":30524:30584   */\n      swap2\n      swap1\n      pop\n      jump\t// out\n        /* \"#utility.yul\":30590:30744   */\n    tag_632:\n      0x00\n        /* \"#utility.yul\":30702:30705   */\n      dup2\n        /* \"#utility.yul\":30694:30705   */\n      swap1\n      pop\n        /* \"#utility.yul\":30732:30736   */\n      0x20\n        /* \"#utility.yul\":30727:30730   */\n      dup3\n        /* \"#utility.yul\":30723:30737   */\n      add\n        /* \"#utility.yul\":30715:30737   */\n      swap1\n      pop\n        /* \"#utility.yul\":30684:30744   */\n      swap2\n      swap1\n      pop\n      jump\t// out\n        /* \"#utility.yul\":30750:30891   */\n    tag_671:\n      0x00\n        /* \"#utility.yul\":30822:30825   */\n      dup2\n        /* \"#utility.yul\":30814:30825   */\n      swap1\n      pop\n        /* \"#utility.yul\":30845:30848   */\n      dup2\n        /* \"#utility.yul\":30842:30843   */\n      0x00\n        /* \"#utility.yul\":30835:30849   */\n      mstore\n        /* \"#utility.yul\":30879:30883   */\n      0x20\n        /* \"#utility.yul\":30876:30877   */\n      0x00\n        /* \"#utility.yul\":30866:30884   */\n      keccak256\n        /* \"#utility.yul\":30858:30884   */\n      swap1\n      pop\n        /* \"#utility.yul\":30804:30891   */\n      swap2\n      swap1\n      pop\n      jump\t// out\n        /* \"#utility.yul\":30897:31033   */\n    tag_600:\n      0x00\n        /* \"#utility.yul\":31020:31025   */\n      dup2\n        /* \"#utility.yul\":31014:31026   */\n      mload\n        /* \"#utility.yul\":31004:31026   */\n      swap1\n      pop\n        /* \"#utility.yul\":30993:31033   */\n      swap2\n      swap1\n      pop\n      jump\t// out\n        /* \"#utility.yul\":31039:31177   */\n    tag_614:\n      0x00\n        /* \"#utility.yul\":31164:31169   */\n      dup2\n        /* \"#utility.yul\":31158:31170   */\n      mload\n        /* \"#utility.yul\":31148:31170   */\n      swap1\n      pop\n        /* \"#utility.yul\":31137:31177   */\n      swap2\n      swap1\n      pop\n      jump\t// out\n        /* \"#utility.yul\":31183:31319   */\n    tag_628:\n      0x00\n        /* \"#utility.yul\":31306:31311   */\n      dup2\n        /* \"#utility.yul\":31300:31312   */\n      mload\n        /* \"#utility.yul\":31290:31312   */\n      swap1\n      pop\n        /* \"#utility.yul\":31279:31319   */\n      swap2\n      swap1\n      pop\n      jump\t// out\n        /* \"#utility.yul\":31325:31424   */\n    tag_649:\n      0x00\n        /* \"#utility.yul\":31411:31416   */\n      dup2\n        /* \"#utility.yul\":31405:31417   */\n      mload\n        /* \"#utility.yul\":31395:31417   */\n      swap1\n      pop\n        /* \"#utility.yul\":31384:31424   */\n      swap2\n      swap1\n      pop\n      jump\t// out\n        /* \"#utility.yul\":31430:31565   */\n    tag_610:\n      0x00\n        /* \"#utility.yul\":31554:31558   */\n      0x20\n        /* \"#utility.yul\":31549:31552   */\n      dup3\n        /* \"#utility.yul\":31545:31559   */\n      add\n        /* \"#utility.yul\":31537:31559   */\n      swap1\n      pop\n        /* \"#utility.yul\":31527:31565   */\n      swap2\n      swap1\n      pop\n      jump\t// out\n        /* \"#utility.yul\":31571:31708   */\n    tag_624:\n      0x00\n        /* \"#utility.yul\":31697:31701   */\n      0x20\n        /* \"#utility.yul\":31692:31695   */\n      dup3\n        /* \"#utility.yul\":31688:31702   */\n      add\n        /* \"#utility.yul\":31680:31702   */\n      swap1\n      pop\n        /* \"#utility.yul\":31670:31708   */\n      swap2\n      swap1\n      pop\n      jump\t// out\n        /* \"#utility.yul\":31714:31849   */\n    tag_638:\n      0x00\n        /* \"#utility.yul\":31838:31842   */\n      0x20\n        /* \"#utility.yul\":31833:31836   */\n      dup3\n        /* \"#utility.yul\":31829:31843   */\n      add\n        /* \"#utility.yul\":31821:31843   */\n      swap1\n      pop\n        /* \"#utility.yul\":31811:31849   */\n      swap2\n      swap1\n      pop\n      jump\t// out\n        /* \"#utility.yul\":31855:32061   */\n    tag_602:\n      0x00\n        /* \"#utility.yul\":32010:32016   */\n      dup3\n        /* \"#utility.yul\":32005:32008   */\n      dup3\n        /* \"#utility.yul\":31998:32017   */\n      mstore\n        /* \"#utility.yul\":32050:32054   */\n      0x20\n        /* \"#utility.yul\":32045:32048   */\n      dup3\n        /* \"#utility.yul\":32041:32055   */\n      add\n        /* \"#utility.yul\":32026:32055   */\n      swap1\n      pop\n        /* \"#utility.yul\":31988:32061   */\n      swap3\n      swap2\n      pop\n      pop\n      jump\t// out\n        /* \"#utility.yul\":32067:32275   */\n    tag_616:\n      0x00\n        /* \"#utility.yul\":32224:32230   */\n      dup3\n        /* \"#utility.yul\":32219:32222   */\n      dup3\n        /* \"#utility.yul\":32212:32231   */\n      mstore\n        /* \"#utility.yul\":32264:32268   */\n      0x20\n        /* \"#utility.yul\":32259:32262   */\n      dup3\n        /* \"#utility.yul\":32255:32269   */\n      add\n        /* \"#utility.yul\":32240:32269   */\n      swap1\n      pop\n        /* \"#utility.yul\":32202:32275   */\n      swap3\n      swap2\n      pop\n      pop\n      jump\t// out\n        /* \"#utility.yul\":32281:32487   */\n    tag_630:\n      0x00\n        /* \"#utility.yul\":32436:32442   */\n      dup3\n        /* \"#utility.yul\":32431:32434   */\n      dup3\n        /* \"#utility.yul\":32424:32443   */\n      mstore\n        /* \"#utility.yul\":32476:32480   */\n      0x20\n        /* \"#utility.yul\":32471:32474   */\n      dup3\n        /* \"#utility.yul\":32467:32481   */\n      add\n        /* \"#utility.yul\":32452:32481   */\n      swap1\n      pop\n        /* \"#utility.yul\":32414:32487   */\n      swap3\n      swap2\n      pop\n      pop\n      jump\t// out\n        /* \"#utility.yul\":32493:32652   */\n    tag_651:\n      0x00\n        /* \"#utility.yul\":32601:32607   */\n      dup3\n        /* \"#utility.yul\":32596:32599   */\n      dup3\n        /* \"#utility.yul\":32589:32608   */\n      mstore\n        /* \"#utility.yul\":32641:32645   */\n      0x20\n        /* \"#utility.yul\":32636:32639   */\n      dup3\n        /* \"#utility.yul\":32632:32646   */\n      add\n        /* \"#utility.yul\":32617:32646   */\n      swap1\n      pop\n        /* \"#utility.yul\":32579:32652   */\n      swap3\n      swap2\n      pop\n      pop\n      jump\t// out\n        /* \"#utility.yul\":32658:32827   */\n    tag_660:\n      0x00\n        /* \"#utility.yul\":32776:32782   */\n      dup3\n        /* \"#utility.yul\":32771:32774   */\n      dup3\n        /* \"#utility.yul\":32764:32783   */\n      mstore\n        /* \"#utility.yul\":32816:32820   */\n      0x20\n        /* \"#utility.yul\":32811:32814   */\n      dup3\n        /* \"#utility.yul\":32807:32821   */\n      add\n        /* \"#utility.yul\":32792:32821   */\n      swap1\n      pop\n        /* \"#utility.yul\":32754:32827   */\n      swap3\n      swap2\n      pop\n      pop\n      jump\t// out\n        /* \"#utility.yul\":32833:32929   */\n    tag_593:\n      0x00\n        /* \"#utility.yul\":32899:32923   */\n      tag_803\n        /* \"#utility.yul\":32917:32922   */\n      dup3\n        /* \"#utility.yul\":32899:32923   */\n      tag_804\n      jump\t// in\n    tag_803:\n        /* \"#utility.yul\":32888:32923   */\n      swap1\n      pop\n        /* \"#utility.yul\":32878:32929   */\n      swap2\n      swap1\n      pop\n      jump\t// out\n        /* \"#utility.yul\":32935:33025   */\n    tag_642:\n      0x00\n        /* \"#utility.yul\":33012:33017   */\n      dup2\n        /* \"#utility.yul\":33005:33018   */\n      iszero\n        /* \"#utility.yul\":32998:33019   */\n      iszero\n        /* \"#utility.yul\":32987:33019   */\n      swap1\n      pop\n        /* \"#utility.yul\":32977:33025   */\n      swap2\n      swap1\n      pop\n      jump\t// out\n        /* \"#utility.yul\":33031:33157   */\n    tag_804:\n      0x00\n        /* \"#utility.yul\":33108:33150   */\n      0xffffffffffffffffffffffffffffffffffffffff\n        /* \"#utility.yul\":33101:33106   */\n      dup3\n        /* \"#utility.yul\":33097:33151   */\n      and\n        /* \"#utility.yul\":33086:33151   */\n      swap1\n      pop\n        /* \"#utility.yul\":33076:33157   */\n      swap2\n      swap1\n      pop\n      jump\t// out\n        /* \"#utility.yul\":33163:33240   */\n    tag_705:\n      0x00\n        /* \"#utility.yul\":33229:33234   */\n      dup2\n        /* \"#utility.yul\":33218:33234   */\n      swap1\n      pop\n        /* \"#utility.yul\":33208:33240   */\n      swap2\n      swap1\n      pop\n      jump\t// out\n        /* \"#utility.yul\":33246:33400   */\n    tag_505:\n        /* \"#utility.yul\":33330:33336   */\n      dup3\n        /* \"#utility.yul\":33325:33328   */\n      dup2\n        /* \"#utility.yul\":33320:33323   */\n      dup4\n        /* \"#utility.yul\":33307:33337   */\n      calldatacopy\n        /* \"#utility.yul\":33392:33393   */\n      0x00\n        /* \"#utility.yul\":33383:33389   */\n      dup4\n        /* \"#utility.yul\":33378:33381   */\n      dup4\n        /* \"#utility.yul\":33374:33390   */\n      add\n        /* \"#utility.yul\":33367:33394   */\n      mstore\n        /* \"#utility.yul\":33297:33400   */\n      pop\n      pop\n      pop\n      jump\t// out\n        /* \"#utility.yul\":33406:33713   */\n    tag_653:\n        /* \"#utility.yul\":33474:33475   */\n      0x00\n        /* \"#utility.yul\":33484:33597   */\n    tag_810:\n        /* \"#utility.yul\":33498:33504   */\n      dup4\n        /* \"#utility.yul\":33495:33496   */\n      dup2\n        /* \"#utility.yul\":33492:33505   */\n      lt\n        /* \"#utility.yul\":33484:33597   */\n      iszero\n      tag_812\n      jumpi\n        /* \"#utility.yul\":33583:33584   */\n      dup1\n        /* \"#utility.yul\":33578:33581   */\n      dup3\n        /* \"#utility.yul\":33574:33585   */\n      add\n        /* \"#utility.yul\":33568:33586   */\n      mload\n        /* \"#utility.yul\":33564:33565   */\n      dup2\n        /* \"#utility.yul\":33559:33562   */\n      dup5\n        /* \"#utility.yul\":33555:33566   */\n      add\n        /* \"#utility.yul\":33548:33587   */\n      mstore\n        /* \"#utility.yul\":33520:33522   */\n      0x20\n        /* \"#utility.yul\":33517:33518   */\n      dup2\n        /* \"#utility.yul\":33513:33523   */\n      add\n        /* \"#utility.yul\":33508:33523   */\n      swap1\n      pop\n        /* \"#utility.yul\":33484:33597   */\n      jump(tag_810)\n    tag_812:\n        /* \"#utility.yul\":33615:33621   */\n      dup4\n        /* \"#utility.yul\":33612:33613   */\n      dup2\n        /* \"#utility.yul\":33609:33622   */\n      gt\n        /* \"#utility.yul\":33606:33608   */\n      iszero\n      tag_813\n      jumpi\n        /* \"#utility.yul\":33695:33696   */\n      0x00\n        /* \"#utility.yul\":33686:33692   */\n      dup5\n        /* \"#utility.yul\":33681:33684   */\n      dup5\n        /* \"#utility.yul\":33677:33693   */\n      add\n        /* \"#utility.yul\":33670:33697   */\n      mstore\n        /* \"#utility.yul\":33606:33608   */\n    tag_813:\n        /* \"#utility.yul\":33455:33713   */\n      pop\n      pop\n      pop\n      pop\n      jump\t// out\n        /* \"#utility.yul\":33719:33767   */\n    tag_782:\n        /* \"#utility.yul\":33752:33761   */\n      invalid\n        /* \"#utility.yul\":33773:33875   */\n    tag_655:\n      0x00\n        /* \"#utility.yul\":33865:33867   */\n      0x1f\n        /* \"#utility.yul\":33861:33868   */\n      not\n        /* \"#utility.yul\":33856:33858   */\n      0x1f\n        /* \"#utility.yul\":33849:33854   */\n      dup4\n        /* \"#utility.yul\":33845:33859   */\n      add\n        /* \"#utility.yul\":33841:33869   */\n      and\n        /* \"#utility.yul\":33831:33869   */\n      swap1\n      pop\n        /* \"#utility.yul\":33821:33875   */\n      swap2\n      swap1\n      pop\n      jump\t// out\n        /* \"#utility.yul\":33881:34003   */\n    tag_509:\n        /* \"#utility.yul\":33954:33978   */\n      tag_817\n        /* \"#utility.yul\":33972:33977   */\n      dup2\n        /* \"#utility.yul\":33954:33978   */\n      tag_593\n      jump\t// in\n    tag_817:\n        /* \"#utility.yul\":33947:33952   */\n      dup2\n        /* \"#utility.yul\":33944:33979   */\n      eq\n        /* \"#utility.yul\":33934:33936   */\n      tag_818\n      jumpi\n        /* \"#utility.yul\":33993:33994   */\n      0x00\n        /* \"#utility.yul\":33990:33991   */\n      dup1\n        /* \"#utility.yul\":33983:33995   */\n      revert\n        /* \"#utility.yul\":33934:33936   */\n    tag_818:\n        /* \"#utility.yul\":33924:34003   */\n      pop\n      jump\t// out\n        /* \"#utility.yul\":34009:34125   */\n    tag_513:\n        /* \"#utility.yul\":34079:34100   */\n      tag_820\n        /* \"#utility.yul\":34094:34099   */\n      dup2\n        /* \"#utility.yul\":34079:34100   */\n      tag_642\n      jump\t// in\n    tag_820:\n        /* \"#utility.yul\":34072:34077   */\n      dup2\n        /* \"#utility.yul\":34069:34101   */\n      eq\n        /* \"#utility.yul\":34059:34061   */\n      tag_821\n      jumpi\n        /* \"#utility.yul\":34115:34116   */\n      0x00\n        /* \"#utility.yul\":34112:34113   */\n      dup1\n        /* \"#utility.yul\":34105:34117   */\n      revert\n        /* \"#utility.yul\":34059:34061   */\n    tag_821:\n        /* \"#utility.yul\":34049:34125   */\n      pop\n      jump\t// out\n        /* \"#utility.yul\":34131:34253   */\n    tag_521:\n        /* \"#utility.yul\":34204:34228   */\n      tag_823\n        /* \"#utility.yul\":34222:34227   */\n      dup2\n        /* \"#utility.yul\":34204:34228   */\n      tag_705\n      jump\t// in\n    tag_823:\n        /* \"#utility.yul\":34197:34202   */\n      dup2\n        /* \"#utility.yul\":34194:34229   */\n      eq\n        /* \"#utility.yul\":34184:34186   */\n      tag_824\n      jumpi\n        /* \"#utility.yul\":34243:34244   */\n      0x00\n        /* \"#utility.yul\":34240:34241   */\n      dup1\n        /* \"#utility.yul\":34233:34245   */\n      revert\n        /* \"#utility.yul\":34184:34186   */\n    tag_824:\n        /* \"#utility.yul\":34174:34253   */\n      pop\n      jump\t// out\n\n    auxdata: 0xa26469706673582212207553aa8d061e9e6d6b2e1e768850d72a72e1e8273097cbb5d1cd4bb780be666f64736f6c63430007060033\n}\n",
    "bytecode": {
      "linkReferences": {},
      "object": "6080604052738fcf3b91599c6d5bb93d8c7df9f3974c622b83a4600260006101000a81548173ffffffffffffffffffffffffffffffffffffffff021916908373ffffffffffffffffffffffffffffffffffffffff16021790555034801561006557600080fd5b50614570806100756000396000f3fe608060405234801561001057600080fd5b506004361061018e5760003560e01c80639a2e5bed116100de578063b584361311610097578063dc7aa36b11610071578063dc7aa36b146104d3578063e1ee3b5614610506578063ea87659f14610522578063f0d95090146105565761018e565b8063b584361314610450578063c266406d1461046e578063d53d0a851461049e5761018e565b80639a2e5bed146103615780639b70e77914610391578063a0568e2d146103c5578063a17d7a38146103e1578063a27876c5146103ff578063a549a4ed1461041b5761018e565b80635a4e5d3e1161014b5780636cd8ebdc116101255780636cd8ebdc146102ac5780637fe53f83146102de578063898bd140146102fa5780638db2fc411461032e5761018e565b80635a4e5d3e1461025657806360ea3cdc146102745780636151efb1146102905761018e565b806302655c2e146101935780631b057e40146101c65780631ba51696146101e2578063459d470e146102005780634807fc691461021c5780634e9f715414610238575b600080fd5b6101ad60048036038101906101a891906138ae565b610574565b6040516101bd94939291906140bf565b60405180910390f35b6101e060048036038101906101db919061381b565b610776565b005b6101ea6108f2565b6040516101f791906141da565b60405180910390f35b61021a600480360381019061021591906138d7565b6108ff565b005b61023660048036038101906102319190613580565b610aa9565b005b610240610c10565b60405161024d919061403d565b60405180910390f35b61025e610f30565b60405161026b919061405f565b60405180910390f35b61028e60048036038101906102899190613610565b6111ae565b005b6102aa60048036038101906102a591906138ae565b611389565b005b6102c660048036038101906102c19190613580565b6114d1565b6040516102d593929190614081565b60405180910390f35b6102f860048036038101906102f3919061374a565b611616565b005b610314600480360381019061030f9190613580565b61183d565b6040516103259594939291906141f5565b60405180910390f35b610348600480360381019061034391906138ae565b6119d0565b6040516103589493929190613e97565b60405180910390f35b61037b60048036038101906103769190613580565b611af5565b604051610388919061405f565b60405180910390f35b6103ab60048036038101906103a69190613580565b611de8565b6040516103bc959493929190614112565b60405180910390f35b6103df60048036038101906103da9190613580565b61208a565b005b6103e96121d3565b6040516103f691906141da565b60405180910390f35b6104196004803603810190610414919061368b565b6121e0565b005b61043560048036038101906104309190613580565b612364565b60405161044796959493929190613ee3565b60405180910390f35b610458612595565b60405161046591906141da565b60405180910390f35b61048860048036038101906104839190613580565b6125a2565b604051610495919061401b565b60405180910390f35b6104b860048036038101906104b391906138ae565b61283f565b6040516104ca96959493929190613ee3565b60405180910390f35b6104ed60048036038101906104e89190613580565b612a80565b6040516104fd9493929190613e97565b60405180910390f35b610520600480360381019061051b91906135a9565b612b95565b005b61053c600480360381019061053791906138ae565b612d2a565b60405161054d9594939291906141f5565b60405180910390f35b61055e612ecd565b60405161056b919061401b565b60405180910390f35b6060806000806000610585866130f5565b90506008818154811061059457fe5b9060005260206000209060040201600101600882815481106105b257fe5b9060005260206000209060040201600201600883815481106105d057fe5b906000526020600020906004020160030160009054906101000a900473ffffffffffffffffffffffffffffffffffffffff166008848154811061060f57fe5b906000526020600020906004020160030160149054906101000a900460ff16838054600181600116156101000203166002900480601f0160208091040260200160405190810160405280929190818152602001828054600181600116156101000203166002900480156106c35780601f10610698576101008083540402835291602001916106c3565b820191906000526020600020905b8154815290600101906020018083116106a657829003601f168201915b50505050509350828054600181600116156101000203166002900480601f01602080910402602001604051908101604052809291908181526020018280546001816001161561010002031660029004801561075f5780601f106107345761010080835404028352916020019161075f565b820191906000526020600020905b81548152906001019060200180831161074257829003601f168201915b505050505092509450945094509450509193509193565b61077f82613187565b5060086040518060a0016040528060015481526020018681526020018581526020018473ffffffffffffffffffffffffffffffffffffffff1681526020018315158152509080600181540180825580915050600190039060005260206000209060040201600090919091909150600082015181600001556020820151816001019080519060200190610812929190613343565b50604082015181600201908051906020019061082f929190613343565b5060608201518160030160006101000a81548173ffffffffffffffffffffffffffffffffffffffff021916908373ffffffffffffffffffffffffffffffffffffffff16021790555060808201518160030160146101000a81548160ff02191690831515021790555050507f1d6a52c11773994a4a6eaa1ace32b929e7f0900bbe29db3f1d36a3cd45f1486c600154858585856040516108d29594939291906141f5565b60405180910390a160016000815480929190600101919050555050505050565b6000600480549050905090565b600061090a856130f5565b9050836008828154811061091a57fe5b9060005260206000209060040201600101908051906020019061093e929190613343565b50826008828154811061094d57fe5b90600052602060002090600402016002019080519060200190610971929190613343565b50816008828154811061098057fe5b906000526020600020906004020160030160006101000a81548173ffffffffffffffffffffffffffffffffffffffff021916908373ffffffffffffffffffffffffffffffffffffffff1602179055507fba2bd0d5052fb9458eaac383932e8112a57bfc6a1836ad7118b1673447d3e6ae600882815481106109fd57fe5b90600052602060002090600402016000015460088381548110610a1c57fe5b906000526020600020906004020160010160088481548110610a3a57fe5b906000526020600020906004020160020160088581548110610a5857fe5b906000526020600020906004020160030160009054906101000a900473ffffffffffffffffffffffffffffffffffffffff16604051610a9a9493929190614256565b60405180910390a15050505050565b6000610ab482613265565b9050600060048281548110610ac557fe5b906000526020600020906006020160050160006101000a81548160ff0219169083151502179055507f05818f5e23a2c2bb34c81792ea8e3397d3f8ad179cb93a5fa57b3d4681564aa060048281548110610b1b57fe5b906000526020600020906006020160000160009054906101000a900473ffffffffffffffffffffffffffffffffffffffff1660048381548110610b5a57fe5b906000526020600020906006020160010160048481548110610b7857fe5b906000526020600020906006020160020160048581548110610b9657fe5b906000526020600020906006020160030160048681548110610bb457fe5b90600052602060002090600602016004015460048781548110610bd357fe5b906000526020600020906006020160050160009054906101000a900460ff16604051610c0496959493929190613fa5565b60405180910390a15050565b6060600060048054905067ffffffffffffffff81118015610c3057600080fd5b50604051908082528060200260200182016040528015610c6a57816020015b610c576133d1565b815260200190600190039081610c4f5790505b50905060005b600480549050811015610f285760048181548110610c8a57fe5b90600052602060002090600602016040518060c00160405290816000820160009054906101000a900473ffffffffffffffffffffffffffffffffffffffff1673ffffffffffffffffffffffffffffffffffffffff1673ffffffffffffffffffffffffffffffffffffffff168152602001600182018054600181600116156101000203166002900480601f016020809104026020016040519081016040528092919081815260200182805460018160011615610100020316600290048015610d925780601f10610d6757610100808354040283529160200191610d92565b820191906000526020600020905b815481529060010190602001808311610d7557829003601f168201915b50505050508152602001600282018054600181600116156101000203166002900480601f016020809104026020016040519081016040528092919081815260200182805460018160011615610100020316600290048015610e345780601f10610e0957610100808354040283529160200191610e34565b820191906000526020600020905b815481529060010190602001808311610e1757829003601f168201915b50505050508152602001600382018054600181600116156101000203166002900480601f016020809104026020016040519081016040528092919081815260200182805460018160011615610100020316600290048015610ed65780601f10610eab57610100808354040283529160200191610ed6565b820191906000526020600020905b815481529060010190602001808311610eb957829003601f168201915b50505050508152602001600482015481526020016005820160009054906101000a900460ff161515151581525050828281518110610f1057fe5b60200260200101819052508080600101915050610c70565b508091505090565b6060600060088054905067ffffffffffffffff81118015610f5057600080fd5b50604051908082528060200260200182016040528015610f8a57816020015b610f7761341f565b815260200190600190039081610f6f5790505b50905060005b6008805490508110156111a65760088181548110610faa57fe5b90600052602060002090600402016040518060a001604052908160008201548152602001600182018054600181600116156101000203166002900480601f0160208091040260200160405190810160405280929190818152602001828054600181600116156101000203166002900480156110665780601f1061103b57610100808354040283529160200191611066565b820191906000526020600020905b81548152906001019060200180831161104957829003601f168201915b50505050508152602001600282018054600181600116156101000203166002900480601f0160208091040260200160405190810160405280929190818152602001828054600181600116156101000203166002900480156111085780601f106110dd57610100808354040283529160200191611108565b820191906000526020600020905b8154815290600101906020018083116110eb57829003601f168201915b505050505081526020016003820160009054906101000a900473ffffffffffffffffffffffffffffffffffffffff1673ffffffffffffffffffffffffffffffffffffffff1673ffffffffffffffffffffffffffffffffffffffff1681526020016003820160149054906101000a900460ff16151515158152505082828151811061118e57fe5b60200260200101819052508080600101915050610f90565b508091505090565b60006111b985613187565b905083600682815481106111c957fe5b906000526020600020906003020160010190805190602001906111ed929190613343565b5082600682815481106111fc57fe5b906000526020600020906003020160020160006101000a81548173ffffffffffffffffffffffffffffffffffffffff021916908373ffffffffffffffffffffffffffffffffffffffff160217905550816006828154811061125957fe5b906000526020600020906003020160020160146101000a81548160ff0219169083151502179055507f6fcbc4a02269ac36204ac7e60c4cf625c6fc2b2365cac750c9927b670e347f90600682815481106112af57fe5b906000526020600020906003020160000160009054906101000a900473ffffffffffffffffffffffffffffffffffffffff16600683815481106112ee57fe5b90600052602060002090600302016001016006848154811061130c57fe5b906000526020600020906003020160020160009054906101000a900473ffffffffffffffffffffffffffffffffffffffff166006858154811061134b57fe5b906000526020600020906003020160020160149054906101000a900460ff1660405161137a9493929190613f59565b60405180910390a15050505050565b6000611394826130f5565b90506000600882815481106113a557fe5b906000526020600020906004020160030160146101000a81548160ff0219169083151502179055507fef9006907eb20210e880b0bb1c39946083bcec24688718507d63a259ffa8351b600882815481106113fb57fe5b9060005260206000209060040201600001546008838154811061141a57fe5b90600052602060002090600402016001016008848154811061143857fe5b90600052602060002090600402016002016008858154811061145657fe5b906000526020600020906004020160030160009054906101000a900473ffffffffffffffffffffffffffffffffffffffff166008868154811061149557fe5b906000526020600020906004020160030160149054906101000a900460ff166040516114c59594939291906142a9565b60405180910390a15050565b606060008060006114e185613187565b9050600681815481106114f057fe5b90600052602060002090600302016001016006828154811061150e57fe5b906000526020600020906003020160020160009054906101000a900473ffffffffffffffffffffffffffffffffffffffff166006838154811061154d57fe5b906000526020600020906003020160020160149054906101000a900460ff16828054600181600116156101000203166002900480601f0160208091040260200160405190810160405280929190818152602001828054600181600116156101000203166002900480156116015780601f106115d657610100808354040283529160200191611601565b820191906000526020600020905b8154815290600101906020018083116115e457829003601f168201915b50505050509250935093509350509193909250565b600061162187613265565b9050856004828154811061163157fe5b90600052602060002090600602016001019080519060200190611655929190613343565b50846004828154811061166457fe5b90600052602060002090600602016002019080519060200190611688929190613343565b50836004828154811061169757fe5b906000526020600020906006020160030190805190602001906116bb929190613343565b5082600482815481106116ca57fe5b90600052602060002090600602016004018190555081600482815481106116ed57fe5b906000526020600020906006020160050160006101000a81548160ff0219169083151502179055507f5975e6fed8802a324436eb320387035d99d011c9901bb75b34b8c23b91250c1c6004828154811061174357fe5b906000526020600020906006020160000160009054906101000a900473ffffffffffffffffffffffffffffffffffffffff166004838154811061178257fe5b9060005260206000209060060201600101600484815481106117a057fe5b9060005260206000209060060201600201600485815481106117be57fe5b9060005260206000209060060201600301600486815481106117dc57fe5b906000526020600020906006020160040154600487815481106117fb57fe5b906000526020600020906006020160050160009054906101000a900460ff1660405161182c96959493929190613fa5565b60405180910390a150505050505050565b6007602052806000526040600020600091509050806000015490806001018054600181600116156101000203166002900480601f0160208091040260200160405190810160405280929190818152602001828054600181600116156101000203166002900480156118ef5780601f106118c4576101008083540402835291602001916118ef565b820191906000526020600020905b8154815290600101906020018083116118d257829003601f168201915b505050505090806002018054600181600116156101000203166002900480601f01602080910402602001604051908101604052809291908181526020018280546001816001161561010002031660029004801561198d5780601f106119625761010080835404028352916020019161198d565b820191906000526020600020905b81548152906001019060200180831161197057829003601f168201915b5050505050908060030160009054906101000a900473ffffffffffffffffffffffffffffffffffffffff16908060030160149054906101000a900460ff16905085565b600681815481106119e057600080fd5b90600052602060002090600302016000915090508060000160009054906101000a900473ffffffffffffffffffffffffffffffffffffffff1690806001018054600181600116156101000203166002900480601f016020809104026020016040519081016040528092919081815260200182805460018160011615610100020316600290048015611ab25780601f10611a8757610100808354040283529160200191611ab2565b820191906000526020600020905b815481529060010190602001808311611a9557829003601f168201915b5050505050908060020160009054906101000a900473ffffffffffffffffffffffffffffffffffffffff16908060020160149054906101000a900460ff16905084565b6060600060088054905067ffffffffffffffff81118015611b1557600080fd5b50604051908082528060200260200182016040528015611b4f57816020015b611b3c61341f565b815260200190600190039081611b345790505b50905060005b600880549050811015611dde5760088181548110611b6f57fe5b906000526020600020906004020160030160009054906101000a900473ffffffffffffffffffffffffffffffffffffffff1673ffffffffffffffffffffffffffffffffffffffff168473ffffffffffffffffffffffffffffffffffffffff161415611dd15760088181548110611be157fe5b90600052602060002090600402016040518060a001604052908160008201548152602001600182018054600181600116156101000203166002900480601f016020809104026020016040519081016040528092919081815260200182805460018160011615610100020316600290048015611c9d5780601f10611c7257610100808354040283529160200191611c9d565b820191906000526020600020905b815481529060010190602001808311611c8057829003601f168201915b50505050508152602001600282018054600181600116156101000203166002900480601f016020809104026020016040519081016040528092919081815260200182805460018160011615610100020316600290048015611d3f5780601f10611d1457610100808354040283529160200191611d3f565b820191906000526020600020905b815481529060010190602001808311611d2257829003601f168201915b505050505081526020016003820160009054906101000a900473ffffffffffffffffffffffffffffffffffffffff1673ffffffffffffffffffffffffffffffffffffffff1673ffffffffffffffffffffffffffffffffffffffff1681526020016003820160149054906101000a900460ff161515151581525050828281518110611dc557fe5b60200260200101819052505b8080600101915050611b55565b5080915050919050565b60608060606000806000611dfb87613265565b905060048181548110611e0a57fe5b906000526020600020906006020160010160048281548110611e2857fe5b906000526020600020906006020160020160048381548110611e4657fe5b906000526020600020906006020160030160048481548110611e6457fe5b90600052602060002090600602016004015460048581548110611e8357fe5b906000526020600020906006020160050160009054906101000a900460ff16848054600181600116156101000203166002900480601f016020809104026020016040519081016040528092919081815260200182805460018160011615610100020316600290048015611f375780601f10611f0c57610100808354040283529160200191611f37565b820191906000526020600020905b815481529060010190602001808311611f1a57829003601f168201915b50505050509450838054600181600116156101000203166002900480601f016020809104026020016040519081016040528092919081815260200182805460018160011615610100020316600290048015611fd35780601f10611fa857610100808354040283529160200191611fd3565b820191906000526020600020905b815481529060010190602001808311611fb657829003601f168201915b50505050509350828054600181600116156101000203166002900480601f01602080910402602001604051908101604052809291908181526020018280546001816001161561010002031660029004801561206f5780601f106120445761010080835404028352916020019161206f565b820191906000526020600020905b81548152906001019060200180831161205257829003601f168201915b50505050509250955095509550955095505091939590929450565b600061209582613187565b90506000600682815481106120a657fe5b906000526020600020906003020160020160146101000a81548160ff0219169083151502179055507f780b3c74ec1e08d8c65fd8a12c6ac2da5c15f2d3b5e54335b51671f63b7d2ad0600682815481106120fc57fe5b906000526020600020906003020160000160009054906101000a900473ffffffffffffffffffffffffffffffffffffffff166006838154811061213b57fe5b90600052602060002090600302016001016006848154811061215957fe5b906000526020600020906003020160020160009054906101000a900473ffffffffffffffffffffffffffffffffffffffff166006858154811061219857fe5b906000526020600020906003020160020160149054906101000a900460ff166040516121c79493929190613f59565b60405180910390a15050565b6000600480549050905090565b60046040518060c001604052808773ffffffffffffffffffffffffffffffffffffffff16815260200186815260200185815260200184815260200183815260200160011515815250908060018154018082558091505060019003906000526020600020906006020160009091909190915060008201518160000160006101000a81548173ffffffffffffffffffffffffffffffffffffffff021916908373ffffffffffffffffffffffffffffffffffffffff16021790555060208201518160010190805190602001906122b4929190613343565b5060408201518160020190805190602001906122d1929190613343565b5060608201518160030190805190602001906122ee929190613343565b506080820151816004015560a08201518160050160006101000a81548160ff02191690831515021790555050507ff646212acc3f5092fb0211ffd5121c0f706641b715e3982dab50afb395413dd58585858585600160405161235596959493929190613ee3565b60405180910390a15050505050565b60036020528060005260406000206000915090508060000160009054906101000a900473ffffffffffffffffffffffffffffffffffffffff1690806001018054600181600116156101000203166002900480601f0160208091040260200160405190810160405280929190818152602001828054600181600116156101000203166002900480156124365780601f1061240b57610100808354040283529160200191612436565b820191906000526020600020905b81548152906001019060200180831161241957829003601f168201915b505050505090806002018054600181600116156101000203166002900480601f0160208091040260200160405190810160405280929190818152602001828054600181600116156101000203166002900480156124d45780601f106124a9576101008083540402835291602001916124d4565b820191906000526020600020905b8154815290600101906020018083116124b757829003601f168201915b505050505090806003018054600181600116156101000203166002900480601f0160208091040260200160405190810160405280929190818152602001828054600181600116156101000203166002900480156125725780601f1061254757610100808354040283529160200191612572565b820191906000526020600020905b81548152906001019060200180831161255557829003601f168201915b5050505050908060040154908060050160009054906101000a900460ff16905086565b6000600880549050905090565b6060600060068054905067ffffffffffffffff811180156125c257600080fd5b506040519080825280602002602001820160405280156125fc57816020015b6125e9613466565b8152602001906001900390816125e15790505b50905060005b600680549050811015612835576006818154811061261c57fe5b906000526020600020906003020160020160009054906101000a900473ffffffffffffffffffffffffffffffffffffffff1673ffffffffffffffffffffffffffffffffffffffff168473ffffffffffffffffffffffffffffffffffffffff161415612828576006818154811061268e57fe5b90600052602060002090600302016040518060800160405290816000820160009054906101000a900473ffffffffffffffffffffffffffffffffffffffff1673ffffffffffffffffffffffffffffffffffffffff1673ffffffffffffffffffffffffffffffffffffffff168152602001600182018054600181600116156101000203166002900480601f0160208091040260200160405190810160405280929190818152602001828054600181600116156101000203166002900480156127965780601f1061276b57610100808354040283529160200191612796565b820191906000526020600020905b81548152906001019060200180831161277957829003601f168201915b505050505081526020016002820160009054906101000a900473ffffffffffffffffffffffffffffffffffffffff1673ffffffffffffffffffffffffffffffffffffffff1673ffffffffffffffffffffffffffffffffffffffff1681526020016002820160149054906101000a900460ff16151515158152505082828151811061281c57fe5b60200260200101819052505b8080600101915050612602565b5080915050919050565b6004818154811061284f57600080fd5b90600052602060002090600602016000915090508060000160009054906101000a900473ffffffffffffffffffffffffffffffffffffffff1690806001018054600181600116156101000203166002900480601f0160208091040260200160405190810160405280929190818152602001828054600181600116156101000203166002900480156129215780601f106128f657610100808354040283529160200191612921565b820191906000526020600020905b81548152906001019060200180831161290457829003601f168201915b505050505090806002018054600181600116156101000203166002900480601f0160208091040260200160405190810160405280929190818152602001828054600181600116156101000203166002900480156129bf5780601f10612994576101008083540402835291602001916129bf565b820191906000526020600020905b8154815290600101906020018083116129a257829003601f168201915b505050505090806003018054600181600116156101000203166002900480601f016020809104026020016040519081016040528092919081815260200182805460018160011615610100020316600290048015612a5d5780601f10612a3257610100808354040283529160200191612a5d565b820191906000526020600020905b815481529060010190602001808311612a4057829003601f168201915b5050505050908060040154908060050160009054906101000a900460ff16905086565b60056020528060005260406000206000915090508060000160009054906101000a900473ffffffffffffffffffffffffffffffffffffffff1690806001018054600181600116156101000203166002900480601f016020809104026020016040519081016040528092919081815260200182805460018160011615610100020316600290048015612b525780601f10612b2757610100808354040283529160200191612b52565b820191906000526020600020905b815481529060010190602001808311612b3557829003601f168201915b5050505050908060020160009054906101000a900473ffffffffffffffffffffffffffffffffffffffff16908060020160149054906101000a900460ff16905084565b612b9e81613265565b50600660405180608001604052808573ffffffffffffffffffffffffffffffffffffffff1681526020018481526020018373ffffffffffffffffffffffffffffffffffffffff16815260200160011515815250908060018154018082558091505060019003906000526020600020906003020160009091909190915060008201518160000160006101000a81548173ffffffffffffffffffffffffffffffffffffffff021916908373ffffffffffffffffffffffffffffffffffffffff1602179055506020820151816001019080519060200190612c7d929190613343565b5060408201518160020160006101000a81548173ffffffffffffffffffffffffffffffffffffffff021916908373ffffffffffffffffffffffffffffffffffffffff16021790555060608201518160020160146101000a81548160ff02191690831515021790555050507f4578695497af1a3a1f556f9c89f9f107851cb8e1820e4b336143406b9ba52e3b8383836001604051612d1d9493929190613e97565b60405180910390a1505050565b60088181548110612d3a57600080fd5b9060005260206000209060040201600091509050806000015490806001018054600181600116156101000203166002900480601f016020809104026020016040519081016040528092919081815260200182805460018160011615610100020316600290048015612dec5780601f10612dc157610100808354040283529160200191612dec565b820191906000526020600020905b815481529060010190602001808311612dcf57829003601f168201915b505050505090806002018054600181600116156101000203166002900480601f016020809104026020016040519081016040528092919081815260200182805460018160011615610100020316600290048015612e8a5780601f10612e5f57610100808354040283529160200191612e8a565b820191906000526020600020905b815481529060010190602001808311612e6d57829003601f168201915b5050505050908060030160009054906101000a900473ffffffffffffffffffffffffffffffffffffffff16908060030160149054906101000a900460ff16905085565b6060600060068054905067ffffffffffffffff81118015612eed57600080fd5b50604051908082528060200260200182016040528015612f2757816020015b612f14613466565b815260200190600190039081612f0c5790505b50905060005b6006805490508110156130ed5760068181548110612f4757fe5b90600052602060002090600302016040518060800160405290816000820160009054906101000a900473ffffffffffffffffffffffffffffffffffffffff1673ffffffffffffffffffffffffffffffffffffffff1673ffffffffffffffffffffffffffffffffffffffff168152602001600182018054600181600116156101000203166002900480601f01602080910402602001604051908101604052809291908181526020018280546001816001161561010002031660029004801561304f5780601f106130245761010080835404028352916020019161304f565b820191906000526020600020905b81548152906001019060200180831161303257829003601f168201915b505050505081526020016002820160009054906101000a900473ffffffffffffffffffffffffffffffffffffffff1673ffffffffffffffffffffffffffffffffffffffff1673ffffffffffffffffffffffffffffffffffffffff1681526020016002820160149054906101000a900460ff1615151515815250508282815181106130d557fe5b60200260200101819052508080600101915050612f2d565b508091505090565b600080600090505b60088054905081101561314657826008828154811061311857fe5b90600052602060002090600402016000015414156131395780915050613182565b80806001019150506130fd565b506040517f08c379a00000000000000000000000000000000000000000000000000000000081526004016131799061419a565b60405180910390fd5b919050565b600080600090505b600680549050811015613224578273ffffffffffffffffffffffffffffffffffffffff16600682815481106131c057fe5b906000526020600020906003020160000160009054906101000a900473ffffffffffffffffffffffffffffffffffffffff1673ffffffffffffffffffffffffffffffffffffffff1614156132175780915050613260565b808060010191505061318f565b506040517f08c379a00000000000000000000000000000000000000000000000000000000081526004016132579061417a565b60405180910390fd5b919050565b600080600090505b600480549050811015613302578273ffffffffffffffffffffffffffffffffffffffff166004828154811061329e57fe5b906000526020600020906006020160000160009054906101000a900473ffffffffffffffffffffffffffffffffffffffff1673ffffffffffffffffffffffffffffffffffffffff1614156132f5578091505061333e565b808060010191505061326d565b506040517f08c379a0000000000000000000000000000000000000000000000000000000008152600401613335906141ba565b60405180910390fd5b919050565b828054600181600116156101000203166002900490600052602060002090601f01602090048101928261337957600085556133c0565b82601f1061339257805160ff19168380011785556133c0565b828001600101855582156133c0579182015b828111156133bf5782518255916020019190600101906133a4565b5b5090506133cd91906134bc565b5090565b6040518060c00160405280600073ffffffffffffffffffffffffffffffffffffffff168152602001606081526020016060815260200160608152602001600081526020016000151581525090565b6040518060a00160405280600081526020016060815260200160608152602001600073ffffffffffffffffffffffffffffffffffffffff1681526020016000151581525090565b6040518060800160405280600073ffffffffffffffffffffffffffffffffffffffff16815260200160608152602001600073ffffffffffffffffffffffffffffffffffffffff1681526020016000151581525090565b5b808211156134d55760008160009055506001016134bd565b5090565b60006134ec6134e78461433b565b61430a565b90508281526020810184848401111561350457600080fd5b61350f8482856144a0565b509392505050565b600081359050613526816144f5565b92915050565b60008135905061353b8161450c565b92915050565b600082601f83011261355257600080fd5b81356135628482602086016134d9565b91505092915050565b60008135905061357a81614523565b92915050565b60006020828403121561359257600080fd5b60006135a084828501613517565b91505092915050565b6000806000606084860312156135be57600080fd5b60006135cc86828701613517565b935050602084013567ffffffffffffffff8111156135e957600080fd5b6135f586828701613541565b925050604061360686828701613517565b9150509250925092565b6000806000806080858703121561362657600080fd5b600061363487828801613517565b945050602085013567ffffffffffffffff81111561365157600080fd5b61365d87828801613541565b935050604061366e87828801613517565b925050606061367f8782880161352c565b91505092959194509250565b600080600080600060a086880312156136a357600080fd5b60006136b188828901613517565b955050602086013567ffffffffffffffff8111156136ce57600080fd5b6136da88828901613541565b945050604086013567ffffffffffffffff8111156136f757600080fd5b61370388828901613541565b935050606086013567ffffffffffffffff81111561372057600080fd5b61372c88828901613541565b925050608061373d8882890161356b565b9150509295509295909350565b60008060008060008060c0878903121561376357600080fd5b600061377189828a01613517565b965050602087013567ffffffffffffffff81111561378e57600080fd5b61379a89828a01613541565b955050604087013567ffffffffffffffff8111156137b757600080fd5b6137c389828a01613541565b945050606087013567ffffffffffffffff8111156137e057600080fd5b6137ec89828a01613541565b93505060806137fd89828a0161356b565b92505060a061380e89828a0161352c565b9150509295509295509295565b6000806000806080858703121561383157600080fd5b600085013567ffffffffffffffff81111561384b57600080fd5b61385787828801613541565b945050602085013567ffffffffffffffff81111561387457600080fd5b61388087828801613541565b935050604061389187828801613517565b92505060606138a28782880161352c565b91505092959194509250565b6000602082840312156138c057600080fd5b60006138ce8482850161356b565b91505092915050565b600080600080608085870312156138ed57600080fd5b60006138fb8782880161356b565b945050602085013567ffffffffffffffff81111561391857600080fd5b61392487828801613541565b935050604085013567ffffffffffffffff81111561394157600080fd5b61394d87828801613541565b925050606061395e87828801613517565b91505092959194509250565b60006139768383613d02565b905092915050565b600061398a8383613d65565b905092915050565b600061399e8383613dfc565b905092915050565b6139af81614458565b82525050565b6139be81614458565b82525050565b60006139cf826143b0565b6139d98185614403565b9350836020820285016139eb8561436b565b8060005b85811015613a275784840389528151613a08858261396a565b9450613a13836143dc565b925060208a019950506001810190506139ef565b50829750879550505050505092915050565b6000613a44826143bb565b613a4e8185614414565b935083602082028501613a608561437b565b8060005b85811015613a9c5784840389528151613a7d858261397e565b9450613a88836143e9565b925060208a01995050600181019050613a64565b50829750879550505050505092915050565b6000613ab9826143c6565b613ac38185614425565b935083602082028501613ad58561438b565b8060005b85811015613b115784840389528151613af28582613992565b9450613afd836143f6565b925060208a01995050600181019050613ad9565b50829750879550505050505092915050565b613b2c8161446a565b82525050565b613b3b8161446a565b82525050565b6000613b4c826143d1565b613b568185614436565b9350613b668185602086016144af565b613b6f816144e4565b840191505092915050565b6000613b85826143d1565b613b8f8185614447565b9350613b9f8185602086016144af565b613ba8816144e4565b840191505092915050565b600081546001811660008114613bd05760018114613bf657613c3a565b607f6002830416613be18187614447565b955060ff198316865260208601935050613c3a565b60028204613c048187614447565b9550613c0f8561439b565b60005b82811015613c3157815481890152600182019150602081019050613c12565b80880195505050505b505092915050565b6000613c4f601083614447565b91507f446f63746f72206e6f7420666f756e64000000000000000000000000000000006000830152602082019050919050565b6000613c8f601083614447565b91507f53656e736f72206e6f7420666f756e64000000000000000000000000000000006000830152602082019050919050565b6000613ccf601283614447565b91507f486f73706974616c206e6f7420666f756e6400000000000000000000000000006000830152602082019050919050565b6000608083016000830151613d1a60008601826139a6565b5060208301518482036020860152613d328282613b41565b9150506040830151613d4760408601826139a6565b506060830151613d5a6060860182613b23565b508091505092915050565b600060c083016000830151613d7d60008601826139a6565b5060208301518482036020860152613d958282613b41565b91505060408301518482036040860152613daf8282613b41565b91505060608301518482036060860152613dc98282613b41565b9150506080830151613dde6080860182613e79565b5060a0830151613df160a0860182613b23565b508091505092915050565b600060a083016000830151613e146000860182613e79565b5060208301518482036020860152613e2c8282613b41565b91505060408301518482036040860152613e468282613b41565b9150506060830151613e5b60608601826139a6565b506080830151613e6e6080860182613b23565b508091505092915050565b613e8281614496565b82525050565b613e9181614496565b82525050565b6000608082019050613eac60008301876139b5565b8181036020830152613ebe8186613b7a565b9050613ecd60408301856139b5565b613eda6060830184613b32565b95945050505050565b600060c082019050613ef860008301896139b5565b8181036020830152613f0a8188613b7a565b90508181036040830152613f1e8187613b7a565b90508181036060830152613f328186613b7a565b9050613f416080830185613e88565b613f4e60a0830184613b32565b979650505050505050565b6000608082019050613f6e60008301876139b5565b8181036020830152613f808186613bb3565b9050613f8f60408301856139b5565b613f9c6060830184613b32565b95945050505050565b600060c082019050613fba60008301896139b5565b8181036020830152613fcc8188613bb3565b90508181036040830152613fe08187613bb3565b90508181036060830152613ff48186613bb3565b90506140036080830185613e88565b61401060a0830184613b32565b979650505050505050565b6000602082019050818103600083015261403581846139c4565b905092915050565b600060208201905081810360008301526140578184613a39565b905092915050565b600060208201905081810360008301526140798184613aae565b905092915050565b6000606082019050818103600083015261409b8186613b7a565b90506140aa60208301856139b5565b6140b76040830184613b32565b949350505050565b600060808201905081810360008301526140d98187613b7a565b905081810360208301526140ed8186613b7a565b90506140fc60408301856139b5565b6141096060830184613b32565b95945050505050565b600060a082019050818103600083015261412c8188613b7a565b905081810360208301526141408187613b7a565b905081810360408301526141548186613b7a565b90506141636060830185613e88565b6141706080830184613b32565b9695505050505050565b6000602082019050818103600083015261419381613c42565b9050919050565b600060208201905081810360008301526141b381613c82565b9050919050565b600060208201905081810360008301526141d381613cc2565b9050919050565b60006020820190506141ef6000830184613e88565b92915050565b600060a08201905061420a6000830188613e88565b818103602083015261421c8187613b7a565b905081810360408301526142308186613b7a565b905061423f60608301856139b5565b61424c6080830184613b32565b9695505050505050565b600060808201905061426b6000830187613e88565b818103602083015261427d8186613bb3565b905081810360408301526142918185613bb3565b90506142a060608301846139b5565b95945050505050565b600060a0820190506142be6000830188613e88565b81810360208301526142d08187613bb3565b905081810360408301526142e48186613bb3565b90506142f360608301856139b5565b6143006080830184613b32565b9695505050505050565b6000604051905081810181811067ffffffffffffffff82111715614331576143306144e2565b5b8060405250919050565b600067ffffffffffffffff821115614356576143556144e2565b5b601f19601f8301169050602081019050919050565b6000819050602082019050919050565b6000819050602082019050919050565b6000819050602082019050919050565b60008190508160005260206000209050919050565b600081519050919050565b600081519050919050565b600081519050919050565b600081519050919050565b6000602082019050919050565b6000602082019050919050565b6000602082019050919050565b600082825260208201905092915050565b600082825260208201905092915050565b600082825260208201905092915050565b600082825260208201905092915050565b600082825260208201905092915050565b600061446382614476565b9050919050565b60008115159050919050565b600073ffffffffffffffffffffffffffffffffffffffff82169050919050565b6000819050919050565b82818337600083830152505050565b60005b838110156144cd5780820151818401526020810190506144b2565b838111156144dc576000848401525b50505050565bfe5b6000601f19601f8301169050919050565b6144fe81614458565b811461450957600080fd5b50565b6145158161446a565b811461452057600080fd5b50565b61452c81614496565b811461453757600080fd5b5056fea26469706673582212207553aa8d061e9e6d6b2e1e768850d72a72e1e8273097cbb5d1cd4bb780be666f64736f6c63430007060033",
      "opcodes": "PUSH1 0x80 PUSH1 0x40 MSTORE PUSH20 0x8FCF3B91599C6D5BB93D8C7DF9F3974C622B83A4 PUSH1 0x2 PUSH1 0x0 PUSH2 0x100 EXP DUP2 SLOAD DUP2 PUSH20 0xFFFFFFFFFFFFFFFFFFFFFFFFFFFFFFFFFFFFFFFF MUL NOT AND SWAP1 DUP4 PUSH20 0xFFFFFFFFFFFFFFFFFFFFFFFFFFFFFFFFFFFFFFFF AND MUL OR SWAP1 SSTORE POP CALLVALUE DUP1 ISZERO PUSH2 0x65 JUMPI PUSH1 0x0 DUP1 REVERT JUMPDEST POP PUSH2 0x4570 DUP1 PUSH2 0x75 PUSH1 0x0 CODECOPY PUSH1 0x0 RETURN INVALID PUSH1 0x80 PUSH1 0x40 MSTORE CALLVALUE DUP1 ISZERO PUSH2 0x10 JUMPI PUSH1 0x0 DUP1 REVERT JUMPDEST POP PUSH1 0x4 CALLDATASIZE LT PUSH2 0x18E JUMPI PUSH1 0x0 CALLDATALOAD PUSH1 0xE0 SHR DUP1 PUSH4 0x9A2E5BED GT PUSH2 0xDE JUMPI DUP1 PUSH4 0xB5843613 GT PUSH2 0x97 JUMPI DUP1 PUSH4 0xDC7AA36B GT PUSH2 0x71 JUMPI DUP1 PUSH4 0xDC7AA36B EQ PUSH2 0x4D3 JUMPI DUP1 PUSH4 0xE1EE3B56 EQ PUSH2 0x506 JUMPI DUP1 PUSH4 0xEA87659F EQ PUSH2 0x522 JUMPI DUP1 PUSH4 0xF0D95090 EQ PUSH2 0x556 JUMPI PUSH2 0x18E JUMP JUMPDEST DUP1 PUSH4 0xB5843613 EQ PUSH2 0x450 JUMPI DUP1 PUSH4 0xC266406D EQ PUSH2 0x46E JUMPI DUP1 PUSH4 0xD53D0A85 EQ PUSH2 0x49E JUMPI PUSH2 0x18E JUMP JUMPDEST DUP1 PUSH4 0x9A2E5BED EQ PUSH2 0x361 JUMPI DUP1 PUSH4 0x9B70E779 EQ PUSH2 0x391 JUMPI DUP1 PUSH4 0xA0568E2D EQ PUSH2 0x3C5 JUMPI DUP1 PUSH4 0xA17D7A38 EQ PUSH2 0x3E1 JUMPI DUP1 PUSH4 0xA27876C5 EQ PUSH2 0x3FF JUMPI DUP1 PUSH4 0xA549A4ED EQ PUSH2 0x41B JUMPI PUSH2 0x18E JUMP JUMPDEST DUP1 PUSH4 0x5A4E5D3E GT PUSH2 0x14B JUMPI DUP1 PUSH4 0x6CD8EBDC GT PUSH2 0x125 JUMPI DUP1 PUSH4 0x6CD8EBDC EQ PUSH2 0x2AC JUMPI DUP1 PUSH4 0x7FE53F83 EQ PUSH2 0x2DE JUMPI DUP1 PUSH4 0x898BD140 EQ PUSH2 0x2FA JUMPI DUP1 PUSH4 0x8DB2FC41 EQ PUSH2 0x32E JUMPI PUSH2 0x18E JUMP JUMPDEST DUP1 PUSH4 0x5A4E5D3E EQ PUSH2 0x256 JUMPI DUP1 PUSH4 0x60EA3CDC EQ PUSH2 0x274 JUMPI DUP1 PUSH4 0x6151EFB1 EQ PUSH2 0x290 JUMPI PUSH2 0x18E JUMP JUMPDEST DUP1 PUSH4 0x2655C2E EQ PUSH2 0x193 JUMPI DUP1 PUSH4 0x1B057E40 EQ PUSH2 0x1C6 JUMPI DUP1 PUSH4 0x1BA51696 EQ PUSH2 0x1E2 JUMPI DUP1 PUSH4 0x459D470E EQ PUSH2 0x200 JUMPI DUP1 PUSH4 0x4807FC69 EQ PUSH2 0x21C JUMPI DUP1 PUSH4 0x4E9F7154 EQ PUSH2 0x238 JUMPI JUMPDEST PUSH1 0x0 DUP1 REVERT JUMPDEST PUSH2 0x1AD PUSH1 0x4 DUP1 CALLDATASIZE SUB DUP2 ADD SWAP1 PUSH2 0x1A8 SWAP2 SWAP1 PUSH2 0x38AE JUMP JUMPDEST PUSH2 0x574 JUMP JUMPDEST PUSH1 0x40 MLOAD PUSH2 0x1BD SWAP5 SWAP4 SWAP3 SWAP2 SWAP1 PUSH2 0x40BF JUMP JUMPDEST PUSH1 0x40 MLOAD DUP1 SWAP2 SUB SWAP1 RETURN JUMPDEST PUSH2 0x1E0 PUSH1 0x4 DUP1 CALLDATASIZE SUB DUP2 ADD SWAP1 PUSH2 0x1DB SWAP2 SWAP1 PUSH2 0x381B JUMP JUMPDEST PUSH2 0x776 JUMP JUMPDEST STOP JUMPDEST PUSH2 0x1EA PUSH2 0x8F2 JUMP JUMPDEST PUSH1 0x40 MLOAD PUSH2 0x1F7 SWAP2 SWAP1 PUSH2 0x41DA JUMP JUMPDEST PUSH1 0x40 MLOAD DUP1 SWAP2 SUB SWAP1 RETURN JUMPDEST PUSH2 0x21A PUSH1 0x4 DUP1 CALLDATASIZE SUB DUP2 ADD SWAP1 PUSH2 0x215 SWAP2 SWAP1 PUSH2 0x38D7 JUMP JUMPDEST PUSH2 0x8FF JUMP JUMPDEST STOP JUMPDEST PUSH2 0x236 PUSH1 0x4 DUP1 CALLDATASIZE SUB DUP2 ADD SWAP1 PUSH2 0x231 SWAP2 SWAP1 PUSH2 0x3580 JUMP JUMPDEST PUSH2 0xAA9 JUMP JUMPDEST STOP JUMPDEST PUSH2 0x240 PUSH2 0xC10 JUMP JUMPDEST PUSH1 0x40 MLOAD PUSH2 0x24D SWAP2 SWAP1 PUSH2 0x403D JUMP JUMPDEST PUSH1 0x40 MLOAD DUP1 SWAP2 SUB SWAP1 RETURN JUMPDEST PUSH2 0x25E PUSH2 0xF30 JUMP JUMPDEST PUSH1 0x40 MLOAD PUSH2 0x26B SWAP2 SWAP1 PUSH2 0x405F JUMP JUMPDEST PUSH1 0x40 MLOAD DUP1 SWAP2 SUB SWAP1 RETURN JUMPDEST PUSH2 0x28E PUSH1 0x4 DUP1 CALLDATASIZE SUB DUP2 ADD SWAP1 PUSH2 0x289 SWAP2 SWAP1 PUSH2 0x3610 JUMP JUMPDEST PUSH2 0x11AE JUMP JUMPDEST STOP JUMPDEST PUSH2 0x2AA PUSH1 0x4 DUP1 CALLDATASIZE SUB DUP2 ADD SWAP1 PUSH2 0x2A5 SWAP2 SWAP1 PUSH2 0x38AE JUMP JUMPDEST PUSH2 0x1389 JUMP JUMPDEST STOP JUMPDEST PUSH2 0x2C6 PUSH1 0x4 DUP1 CALLDATASIZE SUB DUP2 ADD SWAP1 PUSH2 0x2C1 SWAP2 SWAP1 PUSH2 0x3580 JUMP JUMPDEST PUSH2 0x14D1 JUMP JUMPDEST PUSH1 0x40 MLOAD PUSH2 0x2D5 SWAP4 SWAP3 SWAP2 SWAP1 PUSH2 0x4081 JUMP JUMPDEST PUSH1 0x40 MLOAD DUP1 SWAP2 SUB SWAP1 RETURN JUMPDEST PUSH2 0x2F8 PUSH1 0x4 DUP1 CALLDATASIZE SUB DUP2 ADD SWAP1 PUSH2 0x2F3 SWAP2 SWAP1 PUSH2 0x374A JUMP JUMPDEST PUSH2 0x1616 JUMP JUMPDEST STOP JUMPDEST PUSH2 0x314 PUSH1 0x4 DUP1 CALLDATASIZE SUB DUP2 ADD SWAP1 PUSH2 0x30F SWAP2 SWAP1 PUSH2 0x3580 JUMP JUMPDEST PUSH2 0x183D JUMP JUMPDEST PUSH1 0x40 MLOAD PUSH2 0x325 SWAP6 SWAP5 SWAP4 SWAP3 SWAP2 SWAP1 PUSH2 0x41F5 JUMP JUMPDEST PUSH1 0x40 MLOAD DUP1 SWAP2 SUB SWAP1 RETURN JUMPDEST PUSH2 0x348 PUSH1 0x4 DUP1 CALLDATASIZE SUB DUP2 ADD SWAP1 PUSH2 0x343 SWAP2 SWAP1 PUSH2 0x38AE JUMP JUMPDEST PUSH2 0x19D0 JUMP JUMPDEST PUSH1 0x40 MLOAD PUSH2 0x358 SWAP5 SWAP4 SWAP3 SWAP2 SWAP1 PUSH2 0x3E97 JUMP JUMPDEST PUSH1 0x40 MLOAD DUP1 SWAP2 SUB SWAP1 RETURN JUMPDEST PUSH2 0x37B PUSH1 0x4 DUP1 CALLDATASIZE SUB DUP2 ADD SWAP1 PUSH2 0x376 SWAP2 SWAP1 PUSH2 0x3580 JUMP JUMPDEST PUSH2 0x1AF5 JUMP JUMPDEST PUSH1 0x40 MLOAD PUSH2 0x388 SWAP2 SWAP1 PUSH2 0x405F JUMP JUMPDEST PUSH1 0x40 MLOAD DUP1 SWAP2 SUB SWAP1 RETURN JUMPDEST PUSH2 0x3AB PUSH1 0x4 DUP1 CALLDATASIZE SUB DUP2 ADD SWAP1 PUSH2 0x3A6 SWAP2 SWAP1 PUSH2 0x3580 JUMP JUMPDEST PUSH2 0x1DE8 JUMP JUMPDEST PUSH1 0x40 MLOAD PUSH2 0x3BC SWAP6 SWAP5 SWAP4 SWAP3 SWAP2 SWAP1 PUSH2 0x4112 JUMP JUMPDEST PUSH1 0x40 MLOAD DUP1 SWAP2 SUB SWAP1 RETURN JUMPDEST PUSH2 0x3DF PUSH1 0x4 DUP1 CALLDATASIZE SUB DUP2 ADD SWAP1 PUSH2 0x3DA SWAP2 SWAP1 PUSH2 0x3580 JUMP JUMPDEST PUSH2 0x208A JUMP JUMPDEST STOP JUMPDEST PUSH2 0x3E9 PUSH2 0x21D3 JUMP JUMPDEST PUSH1 0x40 MLOAD PUSH2 0x3F6 SWAP2 SWAP1 PUSH2 0x41DA JUMP JUMPDEST PUSH1 0x40 MLOAD DUP1 SWAP2 SUB SWAP1 RETURN JUMPDEST PUSH2 0x419 PUSH1 0x4 DUP1 CALLDATASIZE SUB DUP2 ADD SWAP1 PUSH2 0x414 SWAP2 SWAP1 PUSH2 0x368B JUMP JUMPDEST PUSH2 0x21E0 JUMP JUMPDEST STOP JUMPDEST PUSH2 0x435 PUSH1 0x4 DUP1 CALLDATASIZE SUB DUP2 ADD SWAP1 PUSH2 0x430 SWAP2 SWAP1 PUSH2 0x3580 JUMP JUMPDEST PUSH2 0x2364 JUMP JUMPDEST PUSH1 0x40 MLOAD PUSH2 0x447 SWAP7 SWAP6 SWAP5 SWAP4 SWAP3 SWAP2 SWAP1 PUSH2 0x3EE3 JUMP JUMPDEST PUSH1 0x40 MLOAD DUP1 SWAP2 SUB SWAP1 RETURN JUMPDEST PUSH2 0x458 PUSH2 0x2595 JUMP JUMPDEST PUSH1 0x40 MLOAD PUSH2 0x465 SWAP2 SWAP1 PUSH2 0x41DA JUMP JUMPDEST PUSH1 0x40 MLOAD DUP1 SWAP2 SUB SWAP1 RETURN JUMPDEST PUSH2 0x488 PUSH1 0x4 DUP1 CALLDATASIZE SUB DUP2 ADD SWAP1 PUSH2 0x483 SWAP2 SWAP1 PUSH2 0x3580 JUMP JUMPDEST PUSH2 0x25A2 JUMP JUMPDEST PUSH1 0x40 MLOAD PUSH2 0x495 SWAP2 SWAP1 PUSH2 0x401B JUMP JUMPDEST PUSH1 0x40 MLOAD DUP1 SWAP2 SUB SWAP1 RETURN JUMPDEST PUSH2 0x4B8 PUSH1 0x4 DUP1 CALLDATASIZE SUB DUP2 ADD SWAP1 PUSH2 0x4B3 SWAP2 SWAP1 PUSH2 0x38AE JUMP JUMPDEST PUSH2 0x283F JUMP JUMPDEST PUSH1 0x40 MLOAD PUSH2 0x4CA SWAP7 SWAP6 SWAP5 SWAP4 SWAP3 SWAP2 SWAP1 PUSH2 0x3EE3 JUMP JUMPDEST PUSH1 0x40 MLOAD DUP1 SWAP2 SUB SWAP1 RETURN JUMPDEST PUSH2 0x4ED PUSH1 0x4 DUP1 CALLDATASIZE SUB DUP2 ADD SWAP1 PUSH2 0x4E8 SWAP2 SWAP1 PUSH2 0x3580 JUMP JUMPDEST PUSH2 0x2A80 JUMP JUMPDEST PUSH1 0x40 MLOAD PUSH2 0x4FD SWAP5 SWAP4 SWAP3 SWAP2 SWAP1 PUSH2 0x3E97 JUMP JUMPDEST PUSH1 0x40 MLOAD DUP1 SWAP2 SUB SWAP1 RETURN JUMPDEST PUSH2 0x520 PUSH1 0x4 DUP1 CALLDATASIZE SUB DUP2 ADD SWAP1 PUSH2 0x51B SWAP2 SWAP1 PUSH2 0x35A9 JUMP JUMPDEST PUSH2 0x2B95 JUMP JUMPDEST STOP JUMPDEST PUSH2 0x53C PUSH1 0x4 DUP1 CALLDATASIZE SUB DUP2 ADD SWAP1 PUSH2 0x537 SWAP2 SWAP1 PUSH2 0x38AE JUMP JUMPDEST PUSH2 0x2D2A JUMP JUMPDEST PUSH1 0x40 MLOAD PUSH2 0x54D SWAP6 SWAP5 SWAP4 SWAP3 SWAP2 SWAP1 PUSH2 0x41F5 JUMP JUMPDEST PUSH1 0x40 MLOAD DUP1 SWAP2 SUB SWAP1 RETURN JUMPDEST PUSH2 0x55E PUSH2 0x2ECD JUMP JUMPDEST PUSH1 0x40 MLOAD PUSH2 0x56B SWAP2 SWAP1 PUSH2 0x401B JUMP JUMPDEST PUSH1 0x40 MLOAD DUP1 SWAP2 SUB SWAP1 RETURN JUMPDEST PUSH1 0x60 DUP1 PUSH1 0x0 DUP1 PUSH1 0x0 PUSH2 0x585 DUP7 PUSH2 0x30F5 JUMP JUMPDEST SWAP1 POP PUSH1 0x8 DUP2 DUP2 SLOAD DUP2 LT PUSH2 0x594 JUMPI INVALID JUMPDEST SWAP1 PUSH1 0x0 MSTORE PUSH1 0x20 PUSH1 0x0 KECCAK256 SWAP1 PUSH1 0x4 MUL ADD PUSH1 0x1 ADD PUSH1 0x8 DUP3 DUP2 SLOAD DUP2 LT PUSH2 0x5B2 JUMPI INVALID JUMPDEST SWAP1 PUSH1 0x0 MSTORE PUSH1 0x20 PUSH1 0x0 KECCAK256 SWAP1 PUSH1 0x4 MUL ADD PUSH1 0x2 ADD PUSH1 0x8 DUP4 DUP2 SLOAD DUP2 LT PUSH2 0x5D0 JUMPI INVALID JUMPDEST SWAP1 PUSH1 0x0 MSTORE PUSH1 0x20 PUSH1 0x0 KECCAK256 SWAP1 PUSH1 0x4 MUL ADD PUSH1 0x3 ADD PUSH1 0x0 SWAP1 SLOAD SWAP1 PUSH2 0x100 EXP SWAP1 DIV PUSH20 0xFFFFFFFFFFFFFFFFFFFFFFFFFFFFFFFFFFFFFFFF AND PUSH1 0x8 DUP5 DUP2 SLOAD DUP2 LT PUSH2 0x60F JUMPI INVALID JUMPDEST SWAP1 PUSH1 0x0 MSTORE PUSH1 0x20 PUSH1 0x0 KECCAK256 SWAP1 PUSH1 0x4 MUL ADD PUSH1 0x3 ADD PUSH1 0x14 SWAP1 SLOAD SWAP1 PUSH2 0x100 EXP SWAP1 DIV PUSH1 0xFF AND DUP4 DUP1 SLOAD PUSH1 0x1 DUP2 PUSH1 0x1 AND ISZERO PUSH2 0x100 MUL SUB AND PUSH1 0x2 SWAP1 DIV DUP1 PUSH1 0x1F ADD PUSH1 0x20 DUP1 SWAP2 DIV MUL PUSH1 0x20 ADD PUSH1 0x40 MLOAD SWAP1 DUP2 ADD PUSH1 0x40 MSTORE DUP1 SWAP3 SWAP2 SWAP1 DUP2 DUP2 MSTORE PUSH1 0x20 ADD DUP3 DUP1 SLOAD PUSH1 0x1 DUP2 PUSH1 0x1 AND ISZERO PUSH2 0x100 MUL SUB AND PUSH1 0x2 SWAP1 DIV DUP1 ISZERO PUSH2 0x6C3 JUMPI DUP1 PUSH1 0x1F LT PUSH2 0x698 JUMPI PUSH2 0x100 DUP1 DUP4 SLOAD DIV MUL DUP4 MSTORE SWAP2 PUSH1 0x20 ADD SWAP2 PUSH2 0x6C3 JUMP JUMPDEST DUP3 ADD SWAP2 SWAP1 PUSH1 0x0 MSTORE PUSH1 0x20 PUSH1 0x0 KECCAK256 SWAP1 JUMPDEST DUP2 SLOAD DUP2 MSTORE SWAP1 PUSH1 0x1 ADD SWAP1 PUSH1 0x20 ADD DUP1 DUP4 GT PUSH2 0x6A6 JUMPI DUP3 SWAP1 SUB PUSH1 0x1F AND DUP3 ADD SWAP2 JUMPDEST POP POP POP POP POP SWAP4 POP DUP3 DUP1 SLOAD PUSH1 0x1 DUP2 PUSH1 0x1 AND ISZERO PUSH2 0x100 MUL SUB AND PUSH1 0x2 SWAP1 DIV DUP1 PUSH1 0x1F ADD PUSH1 0x20 DUP1 SWAP2 DIV MUL PUSH1 0x20 ADD PUSH1 0x40 MLOAD SWAP1 DUP2 ADD PUSH1 0x40 MSTORE DUP1 SWAP3 SWAP2 SWAP1 DUP2 DUP2 MSTORE PUSH1 0x20 ADD DUP3 DUP1 SLOAD PUSH1 0x1 DUP2 PUSH1 0x1 AND ISZERO PUSH2 0x100 MUL SUB AND PUSH1 0x2 SWAP1 DIV DUP1 ISZERO PUSH2 0x75F JUMPI DUP1 PUSH1 0x1F LT PUSH2 0x734 JUMPI PUSH2 0x100 DUP1 DUP4 SLOAD DIV MUL DUP4 MSTORE SWAP2 PUSH1 0x20 ADD SWAP2 PUSH2 0x75F JUMP JUMPDEST DUP3 ADD SWAP2 SWAP1 PUSH1 0x0 MSTORE PUSH1 0x20 PUSH1 0x0 KECCAK256 SWAP1 JUMPDEST DUP2 SLOAD DUP2 MSTORE SWAP1 PUSH1 0x1 ADD SWAP1 PUSH1 0x20 ADD DUP1 DUP4 GT PUSH2 0x742 JUMPI DUP3 SWAP1 SUB PUSH1 0x1F AND DUP3 ADD SWAP2 JUMPDEST POP POP POP POP POP SWAP3 POP SWAP5 POP SWAP5 POP SWAP5 POP SWAP5 POP POP SWAP2 SWAP4 POP SWAP2 SWAP4 JUMP JUMPDEST PUSH2 0x77F DUP3 PUSH2 0x3187 JUMP JUMPDEST POP PUSH1 0x8 PUSH1 0x40 MLOAD DUP1 PUSH1 0xA0 ADD PUSH1 0x40 MSTORE DUP1 PUSH1 0x1 SLOAD DUP2 MSTORE PUSH1 0x20 ADD DUP7 DUP2 MSTORE PUSH1 0x20 ADD DUP6 DUP2 MSTORE PUSH1 0x20 ADD DUP5 PUSH20 0xFFFFFFFFFFFFFFFFFFFFFFFFFFFFFFFFFFFFFFFF AND DUP2 MSTORE PUSH1 0x20 ADD DUP4 ISZERO ISZERO DUP2 MSTORE POP SWAP1 DUP1 PUSH1 0x1 DUP2 SLOAD ADD DUP1 DUP3 SSTORE DUP1 SWAP2 POP POP PUSH1 0x1 SWAP1 SUB SWAP1 PUSH1 0x0 MSTORE PUSH1 0x20 PUSH1 0x0 KECCAK256 SWAP1 PUSH1 0x4 MUL ADD PUSH1 0x0 SWAP1 SWAP2 SWAP1 SWAP2 SWAP1 SWAP2 POP PUSH1 0x0 DUP3 ADD MLOAD DUP2 PUSH1 0x0 ADD SSTORE PUSH1 0x20 DUP3 ADD MLOAD DUP2 PUSH1 0x1 ADD SWAP1 DUP1 MLOAD SWAP1 PUSH1 0x20 ADD SWAP1 PUSH2 0x812 SWAP3 SWAP2 SWAP1 PUSH2 0x3343 JUMP JUMPDEST POP PUSH1 0x40 DUP3 ADD MLOAD DUP2 PUSH1 0x2 ADD SWAP1 DUP1 MLOAD SWAP1 PUSH1 0x20 ADD SWAP1 PUSH2 0x82F SWAP3 SWAP2 SWAP1 PUSH2 0x3343 JUMP JUMPDEST POP PUSH1 0x60 DUP3 ADD MLOAD DUP2 PUSH1 0x3 ADD PUSH1 0x0 PUSH2 0x100 EXP DUP2 SLOAD DUP2 PUSH20 0xFFFFFFFFFFFFFFFFFFFFFFFFFFFFFFFFFFFFFFFF MUL NOT AND SWAP1 DUP4 PUSH20 0xFFFFFFFFFFFFFFFFFFFFFFFFFFFFFFFFFFFFFFFF AND MUL OR SWAP1 SSTORE POP PUSH1 0x80 DUP3 ADD MLOAD DUP2 PUSH1 0x3 ADD PUSH1 0x14 PUSH2 0x100 EXP DUP2 SLOAD DUP2 PUSH1 0xFF MUL NOT AND SWAP1 DUP4 ISZERO ISZERO MUL OR SWAP1 SSTORE POP POP POP PUSH32 0x1D6A52C11773994A4A6EAA1ACE32B929E7F0900BBE29DB3F1D36A3CD45F1486C PUSH1 0x1 SLOAD DUP6 DUP6 DUP6 DUP6 PUSH1 0x40 MLOAD PUSH2 0x8D2 SWAP6 SWAP5 SWAP4 SWAP3 SWAP2 SWAP1 PUSH2 0x41F5 JUMP JUMPDEST PUSH1 0x40 MLOAD DUP1 SWAP2 SUB SWAP1 LOG1 PUSH1 0x1 PUSH1 0x0 DUP2 SLOAD DUP1 SWAP3 SWAP2 SWAP1 PUSH1 0x1 ADD SWAP2 SWAP1 POP SSTORE POP POP POP POP POP JUMP JUMPDEST PUSH1 0x0 PUSH1 0x4 DUP1 SLOAD SWAP1 POP SWAP1 POP SWAP1 JUMP JUMPDEST PUSH1 0x0 PUSH2 0x90A DUP6 PUSH2 0x30F5 JUMP JUMPDEST SWAP1 POP DUP4 PUSH1 0x8 DUP3 DUP2 SLOAD DUP2 LT PUSH2 0x91A JUMPI INVALID JUMPDEST SWAP1 PUSH1 0x0 MSTORE PUSH1 0x20 PUSH1 0x0 KECCAK256 SWAP1 PUSH1 0x4 MUL ADD PUSH1 0x1 ADD SWAP1 DUP1 MLOAD SWAP1 PUSH1 0x20 ADD SWAP1 PUSH2 0x93E SWAP3 SWAP2 SWAP1 PUSH2 0x3343 JUMP JUMPDEST POP DUP3 PUSH1 0x8 DUP3 DUP2 SLOAD DUP2 LT PUSH2 0x94D JUMPI INVALID JUMPDEST SWAP1 PUSH1 0x0 MSTORE PUSH1 0x20 PUSH1 0x0 KECCAK256 SWAP1 PUSH1 0x4 MUL ADD PUSH1 0x2 ADD SWAP1 DUP1 MLOAD SWAP1 PUSH1 0x20 ADD SWAP1 PUSH2 0x971 SWAP3 SWAP2 SWAP1 PUSH2 0x3343 JUMP JUMPDEST POP DUP2 PUSH1 0x8 DUP3 DUP2 SLOAD DUP2 LT PUSH2 0x980 JUMPI INVALID JUMPDEST SWAP1 PUSH1 0x0 MSTORE PUSH1 0x20 PUSH1 0x0 KECCAK256 SWAP1 PUSH1 0x4 MUL ADD PUSH1 0x3 ADD PUSH1 0x0 PUSH2 0x100 EXP DUP2 SLOAD DUP2 PUSH20 0xFFFFFFFFFFFFFFFFFFFFFFFFFFFFFFFFFFFFFFFF MUL NOT AND SWAP1 DUP4 PUSH20 0xFFFFFFFFFFFFFFFFFFFFFFFFFFFFFFFFFFFFFFFF AND MUL OR SWAP1 SSTORE POP PUSH32 0xBA2BD0D5052FB9458EAAC383932E8112A57BFC6A1836AD7118B1673447D3E6AE PUSH1 0x8 DUP3 DUP2 SLOAD DUP2 LT PUSH2 0x9FD JUMPI INVALID JUMPDEST SWAP1 PUSH1 0x0 MSTORE PUSH1 0x20 PUSH1 0x0 KECCAK256 SWAP1 PUSH1 0x4 MUL ADD PUSH1 0x0 ADD SLOAD PUSH1 0x8 DUP4 DUP2 SLOAD DUP2 LT PUSH2 0xA1C JUMPI INVALID JUMPDEST SWAP1 PUSH1 0x0 MSTORE PUSH1 0x20 PUSH1 0x0 KECCAK256 SWAP1 PUSH1 0x4 MUL ADD PUSH1 0x1 ADD PUSH1 0x8 DUP5 DUP2 SLOAD DUP2 LT PUSH2 0xA3A JUMPI INVALID JUMPDEST SWAP1 PUSH1 0x0 MSTORE PUSH1 0x20 PUSH1 0x0 KECCAK256 SWAP1 PUSH1 0x4 MUL ADD PUSH1 0x2 ADD PUSH1 0x8 DUP6 DUP2 SLOAD DUP2 LT PUSH2 0xA58 JUMPI INVALID JUMPDEST SWAP1 PUSH1 0x0 MSTORE PUSH1 0x20 PUSH1 0x0 KECCAK256 SWAP1 PUSH1 0x4 MUL ADD PUSH1 0x3 ADD PUSH1 0x0 SWAP1 SLOAD SWAP1 PUSH2 0x100 EXP SWAP1 DIV PUSH20 0xFFFFFFFFFFFFFFFFFFFFFFFFFFFFFFFFFFFFFFFF AND PUSH1 0x40 MLOAD PUSH2 0xA9A SWAP5 SWAP4 SWAP3 SWAP2 SWAP1 PUSH2 0x4256 JUMP JUMPDEST PUSH1 0x40 MLOAD DUP1 SWAP2 SUB SWAP1 LOG1 POP POP POP POP POP JUMP JUMPDEST PUSH1 0x0 PUSH2 0xAB4 DUP3 PUSH2 0x3265 JUMP JUMPDEST SWAP1 POP PUSH1 0x0 PUSH1 0x4 DUP3 DUP2 SLOAD DUP2 LT PUSH2 0xAC5 JUMPI INVALID JUMPDEST SWAP1 PUSH1 0x0 MSTORE PUSH1 0x20 PUSH1 0x0 KECCAK256 SWAP1 PUSH1 0x6 MUL ADD PUSH1 0x5 ADD PUSH1 0x0 PUSH2 0x100 EXP DUP2 SLOAD DUP2 PUSH1 0xFF MUL NOT AND SWAP1 DUP4 ISZERO ISZERO MUL OR SWAP1 SSTORE POP PUSH32 0x5818F5E23A2C2BB34C81792EA8E3397D3F8AD179CB93A5FA57B3D4681564AA0 PUSH1 0x4 DUP3 DUP2 SLOAD DUP2 LT PUSH2 0xB1B JUMPI INVALID JUMPDEST SWAP1 PUSH1 0x0 MSTORE PUSH1 0x20 PUSH1 0x0 KECCAK256 SWAP1 PUSH1 0x6 MUL ADD PUSH1 0x0 ADD PUSH1 0x0 SWAP1 SLOAD SWAP1 PUSH2 0x100 EXP SWAP1 DIV PUSH20 0xFFFFFFFFFFFFFFFFFFFFFFFFFFFFFFFFFFFFFFFF AND PUSH1 0x4 DUP4 DUP2 SLOAD DUP2 LT PUSH2 0xB5A JUMPI INVALID JUMPDEST SWAP1 PUSH1 0x0 MSTORE PUSH1 0x20 PUSH1 0x0 KECCAK256 SWAP1 PUSH1 0x6 MUL ADD PUSH1 0x1 ADD PUSH1 0x4 DUP5 DUP2 SLOAD DUP2 LT PUSH2 0xB78 JUMPI INVALID JUMPDEST SWAP1 PUSH1 0x0 MSTORE PUSH1 0x20 PUSH1 0x0 KECCAK256 SWAP1 PUSH1 0x6 MUL ADD PUSH1 0x2 ADD PUSH1 0x4 DUP6 DUP2 SLOAD DUP2 LT PUSH2 0xB96 JUMPI INVALID JUMPDEST SWAP1 PUSH1 0x0 MSTORE PUSH1 0x20 PUSH1 0x0 KECCAK256 SWAP1 PUSH1 0x6 MUL ADD PUSH1 0x3 ADD PUSH1 0x4 DUP7 DUP2 SLOAD DUP2 LT PUSH2 0xBB4 JUMPI INVALID JUMPDEST SWAP1 PUSH1 0x0 MSTORE PUSH1 0x20 PUSH1 0x0 KECCAK256 SWAP1 PUSH1 0x6 MUL ADD PUSH1 0x4 ADD SLOAD PUSH1 0x4 DUP8 DUP2 SLOAD DUP2 LT PUSH2 0xBD3 JUMPI INVALID JUMPDEST SWAP1 PUSH1 0x0 MSTORE PUSH1 0x20 PUSH1 0x0 KECCAK256 SWAP1 PUSH1 0x6 MUL ADD PUSH1 0x5 ADD PUSH1 0x0 SWAP1 SLOAD SWAP1 PUSH2 0x100 EXP SWAP1 DIV PUSH1 0xFF AND PUSH1 0x40 MLOAD PUSH2 0xC04 SWAP7 SWAP6 SWAP5 SWAP4 SWAP3 SWAP2 SWAP1 PUSH2 0x3FA5 JUMP JUMPDEST PUSH1 0x40 MLOAD DUP1 SWAP2 SUB SWAP1 LOG1 POP POP JUMP JUMPDEST PUSH1 0x60 PUSH1 0x0 PUSH1 0x4 DUP1 SLOAD SWAP1 POP PUSH8 0xFFFFFFFFFFFFFFFF DUP2 GT DUP1 ISZERO PUSH2 0xC30 JUMPI PUSH1 0x0 DUP1 REVERT JUMPDEST POP PUSH1 0x40 MLOAD SWAP1 DUP1 DUP3 MSTORE DUP1 PUSH1 0x20 MUL PUSH1 0x20 ADD DUP3 ADD PUSH1 0x40 MSTORE DUP1 ISZERO PUSH2 0xC6A JUMPI DUP2 PUSH1 0x20 ADD JUMPDEST PUSH2 0xC57 PUSH2 0x33D1 JUMP JUMPDEST DUP2 MSTORE PUSH1 0x20 ADD SWAP1 PUSH1 0x1 SWAP1 SUB SWAP1 DUP2 PUSH2 0xC4F JUMPI SWAP1 POP JUMPDEST POP SWAP1 POP PUSH1 0x0 JUMPDEST PUSH1 0x4 DUP1 SLOAD SWAP1 POP DUP2 LT ISZERO PUSH2 0xF28 JUMPI PUSH1 0x4 DUP2 DUP2 SLOAD DUP2 LT PUSH2 0xC8A JUMPI INVALID JUMPDEST SWAP1 PUSH1 0x0 MSTORE PUSH1 0x20 PUSH1 0x0 KECCAK256 SWAP1 PUSH1 0x6 MUL ADD PUSH1 0x40 MLOAD DUP1 PUSH1 0xC0 ADD PUSH1 0x40 MSTORE SWAP1 DUP2 PUSH1 0x0 DUP3 ADD PUSH1 0x0 SWAP1 SLOAD SWAP1 PUSH2 0x100 EXP SWAP1 DIV PUSH20 0xFFFFFFFFFFFFFFFFFFFFFFFFFFFFFFFFFFFFFFFF AND PUSH20 0xFFFFFFFFFFFFFFFFFFFFFFFFFFFFFFFFFFFFFFFF AND PUSH20 0xFFFFFFFFFFFFFFFFFFFFFFFFFFFFFFFFFFFFFFFF AND DUP2 MSTORE PUSH1 0x20 ADD PUSH1 0x1 DUP3 ADD DUP1 SLOAD PUSH1 0x1 DUP2 PUSH1 0x1 AND ISZERO PUSH2 0x100 MUL SUB AND PUSH1 0x2 SWAP1 DIV DUP1 PUSH1 0x1F ADD PUSH1 0x20 DUP1 SWAP2 DIV MUL PUSH1 0x20 ADD PUSH1 0x40 MLOAD SWAP1 DUP2 ADD PUSH1 0x40 MSTORE DUP1 SWAP3 SWAP2 SWAP1 DUP2 DUP2 MSTORE PUSH1 0x20 ADD DUP3 DUP1 SLOAD PUSH1 0x1 DUP2 PUSH1 0x1 AND ISZERO PUSH2 0x100 MUL SUB AND PUSH1 0x2 SWAP1 DIV DUP1 ISZERO PUSH2 0xD92 JUMPI DUP1 PUSH1 0x1F LT PUSH2 0xD67 JUMPI PUSH2 0x100 DUP1 DUP4 SLOAD DIV MUL DUP4 MSTORE SWAP2 PUSH1 0x20 ADD SWAP2 PUSH2 0xD92 JUMP JUMPDEST DUP3 ADD SWAP2 SWAP1 PUSH1 0x0 MSTORE PUSH1 0x20 PUSH1 0x0 KECCAK256 SWAP1 JUMPDEST DUP2 SLOAD DUP2 MSTORE SWAP1 PUSH1 0x1 ADD SWAP1 PUSH1 0x20 ADD DUP1 DUP4 GT PUSH2 0xD75 JUMPI DUP3 SWAP1 SUB PUSH1 0x1F AND DUP3 ADD SWAP2 JUMPDEST POP POP POP POP POP DUP2 MSTORE PUSH1 0x20 ADD PUSH1 0x2 DUP3 ADD DUP1 SLOAD PUSH1 0x1 DUP2 PUSH1 0x1 AND ISZERO PUSH2 0x100 MUL SUB AND PUSH1 0x2 SWAP1 DIV DUP1 PUSH1 0x1F ADD PUSH1 0x20 DUP1 SWAP2 DIV MUL PUSH1 0x20 ADD PUSH1 0x40 MLOAD SWAP1 DUP2 ADD PUSH1 0x40 MSTORE DUP1 SWAP3 SWAP2 SWAP1 DUP2 DUP2 MSTORE PUSH1 0x20 ADD DUP3 DUP1 SLOAD PUSH1 0x1 DUP2 PUSH1 0x1 AND ISZERO PUSH2 0x100 MUL SUB AND PUSH1 0x2 SWAP1 DIV DUP1 ISZERO PUSH2 0xE34 JUMPI DUP1 PUSH1 0x1F LT PUSH2 0xE09 JUMPI PUSH2 0x100 DUP1 DUP4 SLOAD DIV MUL DUP4 MSTORE SWAP2 PUSH1 0x20 ADD SWAP2 PUSH2 0xE34 JUMP JUMPDEST DUP3 ADD SWAP2 SWAP1 PUSH1 0x0 MSTORE PUSH1 0x20 PUSH1 0x0 KECCAK256 SWAP1 JUMPDEST DUP2 SLOAD DUP2 MSTORE SWAP1 PUSH1 0x1 ADD SWAP1 PUSH1 0x20 ADD DUP1 DUP4 GT PUSH2 0xE17 JUMPI DUP3 SWAP1 SUB PUSH1 0x1F AND DUP3 ADD SWAP2 JUMPDEST POP POP POP POP POP DUP2 MSTORE PUSH1 0x20 ADD PUSH1 0x3 DUP3 ADD DUP1 SLOAD PUSH1 0x1 DUP2 PUSH1 0x1 AND ISZERO PUSH2 0x100 MUL SUB AND PUSH1 0x2 SWAP1 DIV DUP1 PUSH1 0x1F ADD PUSH1 0x20 DUP1 SWAP2 DIV MUL PUSH1 0x20 ADD PUSH1 0x40 MLOAD SWAP1 DUP2 ADD PUSH1 0x40 MSTORE DUP1 SWAP3 SWAP2 SWAP1 DUP2 DUP2 MSTORE PUSH1 0x20 ADD DUP3 DUP1 SLOAD PUSH1 0x1 DUP2 PUSH1 0x1 AND ISZERO PUSH2 0x100 MUL SUB AND PUSH1 0x2 SWAP1 DIV DUP1 ISZERO PUSH2 0xED6 JUMPI DUP1 PUSH1 0x1F LT PUSH2 0xEAB JUMPI PUSH2 0x100 DUP1 DUP4 SLOAD DIV MUL DUP4 MSTORE SWAP2 PUSH1 0x20 ADD SWAP2 PUSH2 0xED6 JUMP JUMPDEST DUP3 ADD SWAP2 SWAP1 PUSH1 0x0 MSTORE PUSH1 0x20 PUSH1 0x0 KECCAK256 SWAP1 JUMPDEST DUP2 SLOAD DUP2 MSTORE SWAP1 PUSH1 0x1 ADD SWAP1 PUSH1 0x20 ADD DUP1 DUP4 GT PUSH2 0xEB9 JUMPI DUP3 SWAP1 SUB PUSH1 0x1F AND DUP3 ADD SWAP2 JUMPDEST POP POP POP POP POP DUP2 MSTORE PUSH1 0x20 ADD PUSH1 0x4 DUP3 ADD SLOAD DUP2 MSTORE PUSH1 0x20 ADD PUSH1 0x5 DUP3 ADD PUSH1 0x0 SWAP1 SLOAD SWAP1 PUSH2 0x100 EXP SWAP1 DIV PUSH1 0xFF AND ISZERO ISZERO ISZERO ISZERO DUP2 MSTORE POP POP DUP3 DUP3 DUP2 MLOAD DUP2 LT PUSH2 0xF10 JUMPI INVALID JUMPDEST PUSH1 0x20 MUL PUSH1 0x20 ADD ADD DUP2 SWAP1 MSTORE POP DUP1 DUP1 PUSH1 0x1 ADD SWAP2 POP POP PUSH2 0xC70 JUMP JUMPDEST POP DUP1 SWAP2 POP POP SWAP1 JUMP JUMPDEST PUSH1 0x60 PUSH1 0x0 PUSH1 0x8 DUP1 SLOAD SWAP1 POP PUSH8 0xFFFFFFFFFFFFFFFF DUP2 GT DUP1 ISZERO PUSH2 0xF50 JUMPI PUSH1 0x0 DUP1 REVERT JUMPDEST POP PUSH1 0x40 MLOAD SWAP1 DUP1 DUP3 MSTORE DUP1 PUSH1 0x20 MUL PUSH1 0x20 ADD DUP3 ADD PUSH1 0x40 MSTORE DUP1 ISZERO PUSH2 0xF8A JUMPI DUP2 PUSH1 0x20 ADD JUMPDEST PUSH2 0xF77 PUSH2 0x341F JUMP JUMPDEST DUP2 MSTORE PUSH1 0x20 ADD SWAP1 PUSH1 0x1 SWAP1 SUB SWAP1 DUP2 PUSH2 0xF6F JUMPI SWAP1 POP JUMPDEST POP SWAP1 POP PUSH1 0x0 JUMPDEST PUSH1 0x8 DUP1 SLOAD SWAP1 POP DUP2 LT ISZERO PUSH2 0x11A6 JUMPI PUSH1 0x8 DUP2 DUP2 SLOAD DUP2 LT PUSH2 0xFAA JUMPI INVALID JUMPDEST SWAP1 PUSH1 0x0 MSTORE PUSH1 0x20 PUSH1 0x0 KECCAK256 SWAP1 PUSH1 0x4 MUL ADD PUSH1 0x40 MLOAD DUP1 PUSH1 0xA0 ADD PUSH1 0x40 MSTORE SWAP1 DUP2 PUSH1 0x0 DUP3 ADD SLOAD DUP2 MSTORE PUSH1 0x20 ADD PUSH1 0x1 DUP3 ADD DUP1 SLOAD PUSH1 0x1 DUP2 PUSH1 0x1 AND ISZERO PUSH2 0x100 MUL SUB AND PUSH1 0x2 SWAP1 DIV DUP1 PUSH1 0x1F ADD PUSH1 0x20 DUP1 SWAP2 DIV MUL PUSH1 0x20 ADD PUSH1 0x40 MLOAD SWAP1 DUP2 ADD PUSH1 0x40 MSTORE DUP1 SWAP3 SWAP2 SWAP1 DUP2 DUP2 MSTORE PUSH1 0x20 ADD DUP3 DUP1 SLOAD PUSH1 0x1 DUP2 PUSH1 0x1 AND ISZERO PUSH2 0x100 MUL SUB AND PUSH1 0x2 SWAP1 DIV DUP1 ISZERO PUSH2 0x1066 JUMPI DUP1 PUSH1 0x1F LT PUSH2 0x103B JUMPI PUSH2 0x100 DUP1 DUP4 SLOAD DIV MUL DUP4 MSTORE SWAP2 PUSH1 0x20 ADD SWAP2 PUSH2 0x1066 JUMP JUMPDEST DUP3 ADD SWAP2 SWAP1 PUSH1 0x0 MSTORE PUSH1 0x20 PUSH1 0x0 KECCAK256 SWAP1 JUMPDEST DUP2 SLOAD DUP2 MSTORE SWAP1 PUSH1 0x1 ADD SWAP1 PUSH1 0x20 ADD DUP1 DUP4 GT PUSH2 0x1049 JUMPI DUP3 SWAP1 SUB PUSH1 0x1F AND DUP3 ADD SWAP2 JUMPDEST POP POP POP POP POP DUP2 MSTORE PUSH1 0x20 ADD PUSH1 0x2 DUP3 ADD DUP1 SLOAD PUSH1 0x1 DUP2 PUSH1 0x1 AND ISZERO PUSH2 0x100 MUL SUB AND PUSH1 0x2 SWAP1 DIV DUP1 PUSH1 0x1F ADD PUSH1 0x20 DUP1 SWAP2 DIV MUL PUSH1 0x20 ADD PUSH1 0x40 MLOAD SWAP1 DUP2 ADD PUSH1 0x40 MSTORE DUP1 SWAP3 SWAP2 SWAP1 DUP2 DUP2 MSTORE PUSH1 0x20 ADD DUP3 DUP1 SLOAD PUSH1 0x1 DUP2 PUSH1 0x1 AND ISZERO PUSH2 0x100 MUL SUB AND PUSH1 0x2 SWAP1 DIV DUP1 ISZERO PUSH2 0x1108 JUMPI DUP1 PUSH1 0x1F LT PUSH2 0x10DD JUMPI PUSH2 0x100 DUP1 DUP4 SLOAD DIV MUL DUP4 MSTORE SWAP2 PUSH1 0x20 ADD SWAP2 PUSH2 0x1108 JUMP JUMPDEST DUP3 ADD SWAP2 SWAP1 PUSH1 0x0 MSTORE PUSH1 0x20 PUSH1 0x0 KECCAK256 SWAP1 JUMPDEST DUP2 SLOAD DUP2 MSTORE SWAP1 PUSH1 0x1 ADD SWAP1 PUSH1 0x20 ADD DUP1 DUP4 GT PUSH2 0x10EB JUMPI DUP3 SWAP1 SUB PUSH1 0x1F AND DUP3 ADD SWAP2 JUMPDEST POP POP POP POP POP DUP2 MSTORE PUSH1 0x20 ADD PUSH1 0x3 DUP3 ADD PUSH1 0x0 SWAP1 SLOAD SWAP1 PUSH2 0x100 EXP SWAP1 DIV PUSH20 0xFFFFFFFFFFFFFFFFFFFFFFFFFFFFFFFFFFFFFFFF AND PUSH20 0xFFFFFFFFFFFFFFFFFFFFFFFFFFFFFFFFFFFFFFFF AND PUSH20 0xFFFFFFFFFFFFFFFFFFFFFFFFFFFFFFFFFFFFFFFF AND DUP2 MSTORE PUSH1 0x20 ADD PUSH1 0x3 DUP3 ADD PUSH1 0x14 SWAP1 SLOAD SWAP1 PUSH2 0x100 EXP SWAP1 DIV PUSH1 0xFF AND ISZERO ISZERO ISZERO ISZERO DUP2 MSTORE POP POP DUP3 DUP3 DUP2 MLOAD DUP2 LT PUSH2 0x118E JUMPI INVALID JUMPDEST PUSH1 0x20 MUL PUSH1 0x20 ADD ADD DUP2 SWAP1 MSTORE POP DUP1 DUP1 PUSH1 0x1 ADD SWAP2 POP POP PUSH2 0xF90 JUMP JUMPDEST POP DUP1 SWAP2 POP POP SWAP1 JUMP JUMPDEST PUSH1 0x0 PUSH2 0x11B9 DUP6 PUSH2 0x3187 JUMP JUMPDEST SWAP1 POP DUP4 PUSH1 0x6 DUP3 DUP2 SLOAD DUP2 LT PUSH2 0x11C9 JUMPI INVALID JUMPDEST SWAP1 PUSH1 0x0 MSTORE PUSH1 0x20 PUSH1 0x0 KECCAK256 SWAP1 PUSH1 0x3 MUL ADD PUSH1 0x1 ADD SWAP1 DUP1 MLOAD SWAP1 PUSH1 0x20 ADD SWAP1 PUSH2 0x11ED SWAP3 SWAP2 SWAP1 PUSH2 0x3343 JUMP JUMPDEST POP DUP3 PUSH1 0x6 DUP3 DUP2 SLOAD DUP2 LT PUSH2 0x11FC JUMPI INVALID JUMPDEST SWAP1 PUSH1 0x0 MSTORE PUSH1 0x20 PUSH1 0x0 KECCAK256 SWAP1 PUSH1 0x3 MUL ADD PUSH1 0x2 ADD PUSH1 0x0 PUSH2 0x100 EXP DUP2 SLOAD DUP2 PUSH20 0xFFFFFFFFFFFFFFFFFFFFFFFFFFFFFFFFFFFFFFFF MUL NOT AND SWAP1 DUP4 PUSH20 0xFFFFFFFFFFFFFFFFFFFFFFFFFFFFFFFFFFFFFFFF AND MUL OR SWAP1 SSTORE POP DUP2 PUSH1 0x6 DUP3 DUP2 SLOAD DUP2 LT PUSH2 0x1259 JUMPI INVALID JUMPDEST SWAP1 PUSH1 0x0 MSTORE PUSH1 0x20 PUSH1 0x0 KECCAK256 SWAP1 PUSH1 0x3 MUL ADD PUSH1 0x2 ADD PUSH1 0x14 PUSH2 0x100 EXP DUP2 SLOAD DUP2 PUSH1 0xFF MUL NOT AND SWAP1 DUP4 ISZERO ISZERO MUL OR SWAP1 SSTORE POP PUSH32 0x6FCBC4A02269AC36204AC7E60C4CF625C6FC2B2365CAC750C9927B670E347F90 PUSH1 0x6 DUP3 DUP2 SLOAD DUP2 LT PUSH2 0x12AF JUMPI INVALID JUMPDEST SWAP1 PUSH1 0x0 MSTORE PUSH1 0x20 PUSH1 0x0 KECCAK256 SWAP1 PUSH1 0x3 MUL ADD PUSH1 0x0 ADD PUSH1 0x0 SWAP1 SLOAD SWAP1 PUSH2 0x100 EXP SWAP1 DIV PUSH20 0xFFFFFFFFFFFFFFFFFFFFFFFFFFFFFFFFFFFFFFFF AND PUSH1 0x6 DUP4 DUP2 SLOAD DUP2 LT PUSH2 0x12EE JUMPI INVALID JUMPDEST SWAP1 PUSH1 0x0 MSTORE PUSH1 0x20 PUSH1 0x0 KECCAK256 SWAP1 PUSH1 0x3 MUL ADD PUSH1 0x1 ADD PUSH1 0x6 DUP5 DUP2 SLOAD DUP2 LT PUSH2 0x130C JUMPI INVALID JUMPDEST SWAP1 PUSH1 0x0 MSTORE PUSH1 0x20 PUSH1 0x0 KECCAK256 SWAP1 PUSH1 0x3 MUL ADD PUSH1 0x2 ADD PUSH1 0x0 SWAP1 SLOAD SWAP1 PUSH2 0x100 EXP SWAP1 DIV PUSH20 0xFFFFFFFFFFFFFFFFFFFFFFFFFFFFFFFFFFFFFFFF AND PUSH1 0x6 DUP6 DUP2 SLOAD DUP2 LT PUSH2 0x134B JUMPI INVALID JUMPDEST SWAP1 PUSH1 0x0 MSTORE PUSH1 0x20 PUSH1 0x0 KECCAK256 SWAP1 PUSH1 0x3 MUL ADD PUSH1 0x2 ADD PUSH1 0x14 SWAP1 SLOAD SWAP1 PUSH2 0x100 EXP SWAP1 DIV PUSH1 0xFF AND PUSH1 0x40 MLOAD PUSH2 0x137A SWAP5 SWAP4 SWAP3 SWAP2 SWAP1 PUSH2 0x3F59 JUMP JUMPDEST PUSH1 0x40 MLOAD DUP1 SWAP2 SUB SWAP1 LOG1 POP POP POP POP POP JUMP JUMPDEST PUSH1 0x0 PUSH2 0x1394 DUP3 PUSH2 0x30F5 JUMP JUMPDEST SWAP1 POP PUSH1 0x0 PUSH1 0x8 DUP3 DUP2 SLOAD DUP2 LT PUSH2 0x13A5 JUMPI INVALID JUMPDEST SWAP1 PUSH1 0x0 MSTORE PUSH1 0x20 PUSH1 0x0 KECCAK256 SWAP1 PUSH1 0x4 MUL ADD PUSH1 0x3 ADD PUSH1 0x14 PUSH2 0x100 EXP DUP2 SLOAD DUP2 PUSH1 0xFF MUL NOT AND SWAP1 DUP4 ISZERO ISZERO MUL OR SWAP1 SSTORE POP PUSH32 0xEF9006907EB20210E880B0BB1C39946083BCEC24688718507D63A259FFA8351B PUSH1 0x8 DUP3 DUP2 SLOAD DUP2 LT PUSH2 0x13FB JUMPI INVALID JUMPDEST SWAP1 PUSH1 0x0 MSTORE PUSH1 0x20 PUSH1 0x0 KECCAK256 SWAP1 PUSH1 0x4 MUL ADD PUSH1 0x0 ADD SLOAD PUSH1 0x8 DUP4 DUP2 SLOAD DUP2 LT PUSH2 0x141A JUMPI INVALID JUMPDEST SWAP1 PUSH1 0x0 MSTORE PUSH1 0x20 PUSH1 0x0 KECCAK256 SWAP1 PUSH1 0x4 MUL ADD PUSH1 0x1 ADD PUSH1 0x8 DUP5 DUP2 SLOAD DUP2 LT PUSH2 0x1438 JUMPI INVALID JUMPDEST SWAP1 PUSH1 0x0 MSTORE PUSH1 0x20 PUSH1 0x0 KECCAK256 SWAP1 PUSH1 0x4 MUL ADD PUSH1 0x2 ADD PUSH1 0x8 DUP6 DUP2 SLOAD DUP2 LT PUSH2 0x1456 JUMPI INVALID JUMPDEST SWAP1 PUSH1 0x0 MSTORE PUSH1 0x20 PUSH1 0x0 KECCAK256 SWAP1 PUSH1 0x4 MUL ADD PUSH1 0x3 ADD PUSH1 0x0 SWAP1 SLOAD SWAP1 PUSH2 0x100 EXP SWAP1 DIV PUSH20 0xFFFFFFFFFFFFFFFFFFFFFFFFFFFFFFFFFFFFFFFF AND PUSH1 0x8 DUP7 DUP2 SLOAD DUP2 LT PUSH2 0x1495 JUMPI INVALID JUMPDEST SWAP1 PUSH1 0x0 MSTORE PUSH1 0x20 PUSH1 0x0 KECCAK256 SWAP1 PUSH1 0x4 MUL ADD PUSH1 0x3 ADD PUSH1 0x14 SWAP1 SLOAD SWAP1 PUSH2 0x100 EXP SWAP1 DIV PUSH1 0xFF AND PUSH1 0x40 MLOAD PUSH2 0x14C5 SWAP6 SWAP5 SWAP4 SWAP3 SWAP2 SWAP1 PUSH2 0x42A9 JUMP JUMPDEST PUSH1 0x40 MLOAD DUP1 SWAP2 SUB SWAP1 LOG1 POP POP JUMP JUMPDEST PUSH1 0x60 PUSH1 0x0 DUP1 PUSH1 0x0 PUSH2 0x14E1 DUP6 PUSH2 0x3187 JUMP JUMPDEST SWAP1 POP PUSH1 0x6 DUP2 DUP2 SLOAD DUP2 LT PUSH2 0x14F0 JUMPI INVALID JUMPDEST SWAP1 PUSH1 0x0 MSTORE PUSH1 0x20 PUSH1 0x0 KECCAK256 SWAP1 PUSH1 0x3 MUL ADD PUSH1 0x1 ADD PUSH1 0x6 DUP3 DUP2 SLOAD DUP2 LT PUSH2 0x150E JUMPI INVALID JUMPDEST SWAP1 PUSH1 0x0 MSTORE PUSH1 0x20 PUSH1 0x0 KECCAK256 SWAP1 PUSH1 0x3 MUL ADD PUSH1 0x2 ADD PUSH1 0x0 SWAP1 SLOAD SWAP1 PUSH2 0x100 EXP SWAP1 DIV PUSH20 0xFFFFFFFFFFFFFFFFFFFFFFFFFFFFFFFFFFFFFFFF AND PUSH1 0x6 DUP4 DUP2 SLOAD DUP2 LT PUSH2 0x154D JUMPI INVALID JUMPDEST SWAP1 PUSH1 0x0 MSTORE PUSH1 0x20 PUSH1 0x0 KECCAK256 SWAP1 PUSH1 0x3 MUL ADD PUSH1 0x2 ADD PUSH1 0x14 SWAP1 SLOAD SWAP1 PUSH2 0x100 EXP SWAP1 DIV PUSH1 0xFF AND DUP3 DUP1 SLOAD PUSH1 0x1 DUP2 PUSH1 0x1 AND ISZERO PUSH2 0x100 MUL SUB AND PUSH1 0x2 SWAP1 DIV DUP1 PUSH1 0x1F ADD PUSH1 0x20 DUP1 SWAP2 DIV MUL PUSH1 0x20 ADD PUSH1 0x40 MLOAD SWAP1 DUP2 ADD PUSH1 0x40 MSTORE DUP1 SWAP3 SWAP2 SWAP1 DUP2 DUP2 MSTORE PUSH1 0x20 ADD DUP3 DUP1 SLOAD PUSH1 0x1 DUP2 PUSH1 0x1 AND ISZERO PUSH2 0x100 MUL SUB AND PUSH1 0x2 SWAP1 DIV DUP1 ISZERO PUSH2 0x1601 JUMPI DUP1 PUSH1 0x1F LT PUSH2 0x15D6 JUMPI PUSH2 0x100 DUP1 DUP4 SLOAD DIV MUL DUP4 MSTORE SWAP2 PUSH1 0x20 ADD SWAP2 PUSH2 0x1601 JUMP JUMPDEST DUP3 ADD SWAP2 SWAP1 PUSH1 0x0 MSTORE PUSH1 0x20 PUSH1 0x0 KECCAK256 SWAP1 JUMPDEST DUP2 SLOAD DUP2 MSTORE SWAP1 PUSH1 0x1 ADD SWAP1 PUSH1 0x20 ADD DUP1 DUP4 GT PUSH2 0x15E4 JUMPI DUP3 SWAP1 SUB PUSH1 0x1F AND DUP3 ADD SWAP2 JUMPDEST POP POP POP POP POP SWAP3 POP SWAP4 POP SWAP4 POP SWAP4 POP POP SWAP2 SWAP4 SWAP1 SWAP3 POP JUMP JUMPDEST PUSH1 0x0 PUSH2 0x1621 DUP8 PUSH2 0x3265 JUMP JUMPDEST SWAP1 POP DUP6 PUSH1 0x4 DUP3 DUP2 SLOAD DUP2 LT PUSH2 0x1631 JUMPI INVALID JUMPDEST SWAP1 PUSH1 0x0 MSTORE PUSH1 0x20 PUSH1 0x0 KECCAK256 SWAP1 PUSH1 0x6 MUL ADD PUSH1 0x1 ADD SWAP1 DUP1 MLOAD SWAP1 PUSH1 0x20 ADD SWAP1 PUSH2 0x1655 SWAP3 SWAP2 SWAP1 PUSH2 0x3343 JUMP JUMPDEST POP DUP5 PUSH1 0x4 DUP3 DUP2 SLOAD DUP2 LT PUSH2 0x1664 JUMPI INVALID JUMPDEST SWAP1 PUSH1 0x0 MSTORE PUSH1 0x20 PUSH1 0x0 KECCAK256 SWAP1 PUSH1 0x6 MUL ADD PUSH1 0x2 ADD SWAP1 DUP1 MLOAD SWAP1 PUSH1 0x20 ADD SWAP1 PUSH2 0x1688 SWAP3 SWAP2 SWAP1 PUSH2 0x3343 JUMP JUMPDEST POP DUP4 PUSH1 0x4 DUP3 DUP2 SLOAD DUP2 LT PUSH2 0x1697 JUMPI INVALID JUMPDEST SWAP1 PUSH1 0x0 MSTORE PUSH1 0x20 PUSH1 0x0 KECCAK256 SWAP1 PUSH1 0x6 MUL ADD PUSH1 0x3 ADD SWAP1 DUP1 MLOAD SWAP1 PUSH1 0x20 ADD SWAP1 PUSH2 0x16BB SWAP3 SWAP2 SWAP1 PUSH2 0x3343 JUMP JUMPDEST POP DUP3 PUSH1 0x4 DUP3 DUP2 SLOAD DUP2 LT PUSH2 0x16CA JUMPI INVALID JUMPDEST SWAP1 PUSH1 0x0 MSTORE PUSH1 0x20 PUSH1 0x0 KECCAK256 SWAP1 PUSH1 0x6 MUL ADD PUSH1 0x4 ADD DUP2 SWAP1 SSTORE POP DUP2 PUSH1 0x4 DUP3 DUP2 SLOAD DUP2 LT PUSH2 0x16ED JUMPI INVALID JUMPDEST SWAP1 PUSH1 0x0 MSTORE PUSH1 0x20 PUSH1 0x0 KECCAK256 SWAP1 PUSH1 0x6 MUL ADD PUSH1 0x5 ADD PUSH1 0x0 PUSH2 0x100 EXP DUP2 SLOAD DUP2 PUSH1 0xFF MUL NOT AND SWAP1 DUP4 ISZERO ISZERO MUL OR SWAP1 SSTORE POP PUSH32 0x5975E6FED8802A324436EB320387035D99D011C9901BB75B34B8C23B91250C1C PUSH1 0x4 DUP3 DUP2 SLOAD DUP2 LT PUSH2 0x1743 JUMPI INVALID JUMPDEST SWAP1 PUSH1 0x0 MSTORE PUSH1 0x20 PUSH1 0x0 KECCAK256 SWAP1 PUSH1 0x6 MUL ADD PUSH1 0x0 ADD PUSH1 0x0 SWAP1 SLOAD SWAP1 PUSH2 0x100 EXP SWAP1 DIV PUSH20 0xFFFFFFFFFFFFFFFFFFFFFFFFFFFFFFFFFFFFFFFF AND PUSH1 0x4 DUP4 DUP2 SLOAD DUP2 LT PUSH2 0x1782 JUMPI INVALID JUMPDEST SWAP1 PUSH1 0x0 MSTORE PUSH1 0x20 PUSH1 0x0 KECCAK256 SWAP1 PUSH1 0x6 MUL ADD PUSH1 0x1 ADD PUSH1 0x4 DUP5 DUP2 SLOAD DUP2 LT PUSH2 0x17A0 JUMPI INVALID JUMPDEST SWAP1 PUSH1 0x0 MSTORE PUSH1 0x20 PUSH1 0x0 KECCAK256 SWAP1 PUSH1 0x6 MUL ADD PUSH1 0x2 ADD PUSH1 0x4 DUP6 DUP2 SLOAD DUP2 LT PUSH2 0x17BE JUMPI INVALID JUMPDEST SWAP1 PUSH1 0x0 MSTORE PUSH1 0x20 PUSH1 0x0 KECCAK256 SWAP1 PUSH1 0x6 MUL ADD PUSH1 0x3 ADD PUSH1 0x4 DUP7 DUP2 SLOAD DUP2 LT PUSH2 0x17DC JUMPI INVALID JUMPDEST SWAP1 PUSH1 0x0 MSTORE PUSH1 0x20 PUSH1 0x0 KECCAK256 SWAP1 PUSH1 0x6 MUL ADD PUSH1 0x4 ADD SLOAD PUSH1 0x4 DUP8 DUP2 SLOAD DUP2 LT PUSH2 0x17FB JUMPI INVALID JUMPDEST SWAP1 PUSH1 0x0 MSTORE PUSH1 0x20 PUSH1 0x0 KECCAK256 SWAP1 PUSH1 0x6 MUL ADD PUSH1 0x5 ADD PUSH1 0x0 SWAP1 SLOAD SWAP1 PUSH2 0x100 EXP SWAP1 DIV PUSH1 0xFF AND PUSH1 0x40 MLOAD PUSH2 0x182C SWAP7 SWAP6 SWAP5 SWAP4 SWAP3 SWAP2 SWAP1 PUSH2 0x3FA5 JUMP JUMPDEST PUSH1 0x40 MLOAD DUP1 SWAP2 SUB SWAP1 LOG1 POP POP POP POP POP POP POP JUMP JUMPDEST PUSH1 0x7 PUSH1 0x20 MSTORE DUP1 PUSH1 0x0 MSTORE PUSH1 0x40 PUSH1 0x0 KECCAK256 PUSH1 0x0 SWAP2 POP SWAP1 POP DUP1 PUSH1 0x0 ADD SLOAD SWAP1 DUP1 PUSH1 0x1 ADD DUP1 SLOAD PUSH1 0x1 DUP2 PUSH1 0x1 AND ISZERO PUSH2 0x100 MUL SUB AND PUSH1 0x2 SWAP1 DIV DUP1 PUSH1 0x1F ADD PUSH1 0x20 DUP1 SWAP2 DIV MUL PUSH1 0x20 ADD PUSH1 0x40 MLOAD SWAP1 DUP2 ADD PUSH1 0x40 MSTORE DUP1 SWAP3 SWAP2 SWAP1 DUP2 DUP2 MSTORE PUSH1 0x20 ADD DUP3 DUP1 SLOAD PUSH1 0x1 DUP2 PUSH1 0x1 AND ISZERO PUSH2 0x100 MUL SUB AND PUSH1 0x2 SWAP1 DIV DUP1 ISZERO PUSH2 0x18EF JUMPI DUP1 PUSH1 0x1F LT PUSH2 0x18C4 JUMPI PUSH2 0x100 DUP1 DUP4 SLOAD DIV MUL DUP4 MSTORE SWAP2 PUSH1 0x20 ADD SWAP2 PUSH2 0x18EF JUMP JUMPDEST DUP3 ADD SWAP2 SWAP1 PUSH1 0x0 MSTORE PUSH1 0x20 PUSH1 0x0 KECCAK256 SWAP1 JUMPDEST DUP2 SLOAD DUP2 MSTORE SWAP1 PUSH1 0x1 ADD SWAP1 PUSH1 0x20 ADD DUP1 DUP4 GT PUSH2 0x18D2 JUMPI DUP3 SWAP1 SUB PUSH1 0x1F AND DUP3 ADD SWAP2 JUMPDEST POP POP POP POP POP SWAP1 DUP1 PUSH1 0x2 ADD DUP1 SLOAD PUSH1 0x1 DUP2 PUSH1 0x1 AND ISZERO PUSH2 0x100 MUL SUB AND PUSH1 0x2 SWAP1 DIV DUP1 PUSH1 0x1F ADD PUSH1 0x20 DUP1 SWAP2 DIV MUL PUSH1 0x20 ADD PUSH1 0x40 MLOAD SWAP1 DUP2 ADD PUSH1 0x40 MSTORE DUP1 SWAP3 SWAP2 SWAP1 DUP2 DUP2 MSTORE PUSH1 0x20 ADD DUP3 DUP1 SLOAD PUSH1 0x1 DUP2 PUSH1 0x1 AND ISZERO PUSH2 0x100 MUL SUB AND PUSH1 0x2 SWAP1 DIV DUP1 ISZERO PUSH2 0x198D JUMPI DUP1 PUSH1 0x1F LT PUSH2 0x1962 JUMPI PUSH2 0x100 DUP1 DUP4 SLOAD DIV MUL DUP4 MSTORE SWAP2 PUSH1 0x20 ADD SWAP2 PUSH2 0x198D JUMP JUMPDEST DUP3 ADD SWAP2 SWAP1 PUSH1 0x0 MSTORE PUSH1 0x20 PUSH1 0x0 KECCAK256 SWAP1 JUMPDEST DUP2 SLOAD DUP2 MSTORE SWAP1 PUSH1 0x1 ADD SWAP1 PUSH1 0x20 ADD DUP1 DUP4 GT PUSH2 0x1970 JUMPI DUP3 SWAP1 SUB PUSH1 0x1F AND DUP3 ADD SWAP2 JUMPDEST POP POP POP POP POP SWAP1 DUP1 PUSH1 0x3 ADD PUSH1 0x0 SWAP1 SLOAD SWAP1 PUSH2 0x100 EXP SWAP1 DIV PUSH20 0xFFFFFFFFFFFFFFFFFFFFFFFFFFFFFFFFFFFFFFFF AND SWAP1 DUP1 PUSH1 0x3 ADD PUSH1 0x14 SWAP1 SLOAD SWAP1 PUSH2 0x100 EXP SWAP1 DIV PUSH1 0xFF AND SWAP1 POP DUP6 JUMP JUMPDEST PUSH1 0x6 DUP2 DUP2 SLOAD DUP2 LT PUSH2 0x19E0 JUMPI PUSH1 0x0 DUP1 REVERT JUMPDEST SWAP1 PUSH1 0x0 MSTORE PUSH1 0x20 PUSH1 0x0 KECCAK256 SWAP1 PUSH1 0x3 MUL ADD PUSH1 0x0 SWAP2 POP SWAP1 POP DUP1 PUSH1 0x0 ADD PUSH1 0x0 SWAP1 SLOAD SWAP1 PUSH2 0x100 EXP SWAP1 DIV PUSH20 0xFFFFFFFFFFFFFFFFFFFFFFFFFFFFFFFFFFFFFFFF AND SWAP1 DUP1 PUSH1 0x1 ADD DUP1 SLOAD PUSH1 0x1 DUP2 PUSH1 0x1 AND ISZERO PUSH2 0x100 MUL SUB AND PUSH1 0x2 SWAP1 DIV DUP1 PUSH1 0x1F ADD PUSH1 0x20 DUP1 SWAP2 DIV MUL PUSH1 0x20 ADD PUSH1 0x40 MLOAD SWAP1 DUP2 ADD PUSH1 0x40 MSTORE DUP1 SWAP3 SWAP2 SWAP1 DUP2 DUP2 MSTORE PUSH1 0x20 ADD DUP3 DUP1 SLOAD PUSH1 0x1 DUP2 PUSH1 0x1 AND ISZERO PUSH2 0x100 MUL SUB AND PUSH1 0x2 SWAP1 DIV DUP1 ISZERO PUSH2 0x1AB2 JUMPI DUP1 PUSH1 0x1F LT PUSH2 0x1A87 JUMPI PUSH2 0x100 DUP1 DUP4 SLOAD DIV MUL DUP4 MSTORE SWAP2 PUSH1 0x20 ADD SWAP2 PUSH2 0x1AB2 JUMP JUMPDEST DUP3 ADD SWAP2 SWAP1 PUSH1 0x0 MSTORE PUSH1 0x20 PUSH1 0x0 KECCAK256 SWAP1 JUMPDEST DUP2 SLOAD DUP2 MSTORE SWAP1 PUSH1 0x1 ADD SWAP1 PUSH1 0x20 ADD DUP1 DUP4 GT PUSH2 0x1A95 JUMPI DUP3 SWAP1 SUB PUSH1 0x1F AND DUP3 ADD SWAP2 JUMPDEST POP POP POP POP POP SWAP1 DUP1 PUSH1 0x2 ADD PUSH1 0x0 SWAP1 SLOAD SWAP1 PUSH2 0x100 EXP SWAP1 DIV PUSH20 0xFFFFFFFFFFFFFFFFFFFFFFFFFFFFFFFFFFFFFFFF AND SWAP1 DUP1 PUSH1 0x2 ADD PUSH1 0x14 SWAP1 SLOAD SWAP1 PUSH2 0x100 EXP SWAP1 DIV PUSH1 0xFF AND SWAP1 POP DUP5 JUMP JUMPDEST PUSH1 0x60 PUSH1 0x0 PUSH1 0x8 DUP1 SLOAD SWAP1 POP PUSH8 0xFFFFFFFFFFFFFFFF DUP2 GT DUP1 ISZERO PUSH2 0x1B15 JUMPI PUSH1 0x0 DUP1 REVERT JUMPDEST POP PUSH1 0x40 MLOAD SWAP1 DUP1 DUP3 MSTORE DUP1 PUSH1 0x20 MUL PUSH1 0x20 ADD DUP3 ADD PUSH1 0x40 MSTORE DUP1 ISZERO PUSH2 0x1B4F JUMPI DUP2 PUSH1 0x20 ADD JUMPDEST PUSH2 0x1B3C PUSH2 0x341F JUMP JUMPDEST DUP2 MSTORE PUSH1 0x20 ADD SWAP1 PUSH1 0x1 SWAP1 SUB SWAP1 DUP2 PUSH2 0x1B34 JUMPI SWAP1 POP JUMPDEST POP SWAP1 POP PUSH1 0x0 JUMPDEST PUSH1 0x8 DUP1 SLOAD SWAP1 POP DUP2 LT ISZERO PUSH2 0x1DDE JUMPI PUSH1 0x8 DUP2 DUP2 SLOAD DUP2 LT PUSH2 0x1B6F JUMPI INVALID JUMPDEST SWAP1 PUSH1 0x0 MSTORE PUSH1 0x20 PUSH1 0x0 KECCAK256 SWAP1 PUSH1 0x4 MUL ADD PUSH1 0x3 ADD PUSH1 0x0 SWAP1 SLOAD SWAP1 PUSH2 0x100 EXP SWAP1 DIV PUSH20 0xFFFFFFFFFFFFFFFFFFFFFFFFFFFFFFFFFFFFFFFF AND PUSH20 0xFFFFFFFFFFFFFFFFFFFFFFFFFFFFFFFFFFFFFFFF AND DUP5 PUSH20 0xFFFFFFFFFFFFFFFFFFFFFFFFFFFFFFFFFFFFFFFF AND EQ ISZERO PUSH2 0x1DD1 JUMPI PUSH1 0x8 DUP2 DUP2 SLOAD DUP2 LT PUSH2 0x1BE1 JUMPI INVALID JUMPDEST SWAP1 PUSH1 0x0 MSTORE PUSH1 0x20 PUSH1 0x0 KECCAK256 SWAP1 PUSH1 0x4 MUL ADD PUSH1 0x40 MLOAD DUP1 PUSH1 0xA0 ADD PUSH1 0x40 MSTORE SWAP1 DUP2 PUSH1 0x0 DUP3 ADD SLOAD DUP2 MSTORE PUSH1 0x20 ADD PUSH1 0x1 DUP3 ADD DUP1 SLOAD PUSH1 0x1 DUP2 PUSH1 0x1 AND ISZERO PUSH2 0x100 MUL SUB AND PUSH1 0x2 SWAP1 DIV DUP1 PUSH1 0x1F ADD PUSH1 0x20 DUP1 SWAP2 DIV MUL PUSH1 0x20 ADD PUSH1 0x40 MLOAD SWAP1 DUP2 ADD PUSH1 0x40 MSTORE DUP1 SWAP3 SWAP2 SWAP1 DUP2 DUP2 MSTORE PUSH1 0x20 ADD DUP3 DUP1 SLOAD PUSH1 0x1 DUP2 PUSH1 0x1 AND ISZERO PUSH2 0x100 MUL SUB AND PUSH1 0x2 SWAP1 DIV DUP1 ISZERO PUSH2 0x1C9D JUMPI DUP1 PUSH1 0x1F LT PUSH2 0x1C72 JUMPI PUSH2 0x100 DUP1 DUP4 SLOAD DIV MUL DUP4 MSTORE SWAP2 PUSH1 0x20 ADD SWAP2 PUSH2 0x1C9D JUMP JUMPDEST DUP3 ADD SWAP2 SWAP1 PUSH1 0x0 MSTORE PUSH1 0x20 PUSH1 0x0 KECCAK256 SWAP1 JUMPDEST DUP2 SLOAD DUP2 MSTORE SWAP1 PUSH1 0x1 ADD SWAP1 PUSH1 0x20 ADD DUP1 DUP4 GT PUSH2 0x1C80 JUMPI DUP3 SWAP1 SUB PUSH1 0x1F AND DUP3 ADD SWAP2 JUMPDEST POP POP POP POP POP DUP2 MSTORE PUSH1 0x20 ADD PUSH1 0x2 DUP3 ADD DUP1 SLOAD PUSH1 0x1 DUP2 PUSH1 0x1 AND ISZERO PUSH2 0x100 MUL SUB AND PUSH1 0x2 SWAP1 DIV DUP1 PUSH1 0x1F ADD PUSH1 0x20 DUP1 SWAP2 DIV MUL PUSH1 0x20 ADD PUSH1 0x40 MLOAD SWAP1 DUP2 ADD PUSH1 0x40 MSTORE DUP1 SWAP3 SWAP2 SWAP1 DUP2 DUP2 MSTORE PUSH1 0x20 ADD DUP3 DUP1 SLOAD PUSH1 0x1 DUP2 PUSH1 0x1 AND ISZERO PUSH2 0x100 MUL SUB AND PUSH1 0x2 SWAP1 DIV DUP1 ISZERO PUSH2 0x1D3F JUMPI DUP1 PUSH1 0x1F LT PUSH2 0x1D14 JUMPI PUSH2 0x100 DUP1 DUP4 SLOAD DIV MUL DUP4 MSTORE SWAP2 PUSH1 0x20 ADD SWAP2 PUSH2 0x1D3F JUMP JUMPDEST DUP3 ADD SWAP2 SWAP1 PUSH1 0x0 MSTORE PUSH1 0x20 PUSH1 0x0 KECCAK256 SWAP1 JUMPDEST DUP2 SLOAD DUP2 MSTORE SWAP1 PUSH1 0x1 ADD SWAP1 PUSH1 0x20 ADD DUP1 DUP4 GT PUSH2 0x1D22 JUMPI DUP3 SWAP1 SUB PUSH1 0x1F AND DUP3 ADD SWAP2 JUMPDEST POP POP POP POP POP DUP2 MSTORE PUSH1 0x20 ADD PUSH1 0x3 DUP3 ADD PUSH1 0x0 SWAP1 SLOAD SWAP1 PUSH2 0x100 EXP SWAP1 DIV PUSH20 0xFFFFFFFFFFFFFFFFFFFFFFFFFFFFFFFFFFFFFFFF AND PUSH20 0xFFFFFFFFFFFFFFFFFFFFFFFFFFFFFFFFFFFFFFFF AND PUSH20 0xFFFFFFFFFFFFFFFFFFFFFFFFFFFFFFFFFFFFFFFF AND DUP2 MSTORE PUSH1 0x20 ADD PUSH1 0x3 DUP3 ADD PUSH1 0x14 SWAP1 SLOAD SWAP1 PUSH2 0x100 EXP SWAP1 DIV PUSH1 0xFF AND ISZERO ISZERO ISZERO ISZERO DUP2 MSTORE POP POP DUP3 DUP3 DUP2 MLOAD DUP2 LT PUSH2 0x1DC5 JUMPI INVALID JUMPDEST PUSH1 0x20 MUL PUSH1 0x20 ADD ADD DUP2 SWAP1 MSTORE POP JUMPDEST DUP1 DUP1 PUSH1 0x1 ADD SWAP2 POP POP PUSH2 0x1B55 JUMP JUMPDEST POP DUP1 SWAP2 POP POP SWAP2 SWAP1 POP JUMP JUMPDEST PUSH1 0x60 DUP1 PUSH1 0x60 PUSH1 0x0 DUP1 PUSH1 0x0 PUSH2 0x1DFB DUP8 PUSH2 0x3265 JUMP JUMPDEST SWAP1 POP PUSH1 0x4 DUP2 DUP2 SLOAD DUP2 LT PUSH2 0x1E0A JUMPI INVALID JUMPDEST SWAP1 PUSH1 0x0 MSTORE PUSH1 0x20 PUSH1 0x0 KECCAK256 SWAP1 PUSH1 0x6 MUL ADD PUSH1 0x1 ADD PUSH1 0x4 DUP3 DUP2 SLOAD DUP2 LT PUSH2 0x1E28 JUMPI INVALID JUMPDEST SWAP1 PUSH1 0x0 MSTORE PUSH1 0x20 PUSH1 0x0 KECCAK256 SWAP1 PUSH1 0x6 MUL ADD PUSH1 0x2 ADD PUSH1 0x4 DUP4 DUP2 SLOAD DUP2 LT PUSH2 0x1E46 JUMPI INVALID JUMPDEST SWAP1 PUSH1 0x0 MSTORE PUSH1 0x20 PUSH1 0x0 KECCAK256 SWAP1 PUSH1 0x6 MUL ADD PUSH1 0x3 ADD PUSH1 0x4 DUP5 DUP2 SLOAD DUP2 LT PUSH2 0x1E64 JUMPI INVALID JUMPDEST SWAP1 PUSH1 0x0 MSTORE PUSH1 0x20 PUSH1 0x0 KECCAK256 SWAP1 PUSH1 0x6 MUL ADD PUSH1 0x4 ADD SLOAD PUSH1 0x4 DUP6 DUP2 SLOAD DUP2 LT PUSH2 0x1E83 JUMPI INVALID JUMPDEST SWAP1 PUSH1 0x0 MSTORE PUSH1 0x20 PUSH1 0x0 KECCAK256 SWAP1 PUSH1 0x6 MUL ADD PUSH1 0x5 ADD PUSH1 0x0 SWAP1 SLOAD SWAP1 PUSH2 0x100 EXP SWAP1 DIV PUSH1 0xFF AND DUP5 DUP1 SLOAD PUSH1 0x1 DUP2 PUSH1 0x1 AND ISZERO PUSH2 0x100 MUL SUB AND PUSH1 0x2 SWAP1 DIV DUP1 PUSH1 0x1F ADD PUSH1 0x20 DUP1 SWAP2 DIV MUL PUSH1 0x20 ADD PUSH1 0x40 MLOAD SWAP1 DUP2 ADD PUSH1 0x40 MSTORE DUP1 SWAP3 SWAP2 SWAP1 DUP2 DUP2 MSTORE PUSH1 0x20 ADD DUP3 DUP1 SLOAD PUSH1 0x1 DUP2 PUSH1 0x1 AND ISZERO PUSH2 0x100 MUL SUB AND PUSH1 0x2 SWAP1 DIV DUP1 ISZERO PUSH2 0x1F37 JUMPI DUP1 PUSH1 0x1F LT PUSH2 0x1F0C JUMPI PUSH2 0x100 DUP1 DUP4 SLOAD DIV MUL DUP4 MSTORE SWAP2 PUSH1 0x20 ADD SWAP2 PUSH2 0x1F37 JUMP JUMPDEST DUP3 ADD SWAP2 SWAP1 PUSH1 0x0 MSTORE PUSH1 0x20 PUSH1 0x0 KECCAK256 SWAP1 JUMPDEST DUP2 SLOAD DUP2 MSTORE SWAP1 PUSH1 0x1 ADD SWAP1 PUSH1 0x20 ADD DUP1 DUP4 GT PUSH2 0x1F1A JUMPI DUP3 SWAP1 SUB PUSH1 0x1F AND DUP3 ADD SWAP2 JUMPDEST POP POP POP POP POP SWAP5 POP DUP4 DUP1 SLOAD PUSH1 0x1 DUP2 PUSH1 0x1 AND ISZERO PUSH2 0x100 MUL SUB AND PUSH1 0x2 SWAP1 DIV DUP1 PUSH1 0x1F ADD PUSH1 0x20 DUP1 SWAP2 DIV MUL PUSH1 0x20 ADD PUSH1 0x40 MLOAD SWAP1 DUP2 ADD PUSH1 0x40 MSTORE DUP1 SWAP3 SWAP2 SWAP1 DUP2 DUP2 MSTORE PUSH1 0x20 ADD DUP3 DUP1 SLOAD PUSH1 0x1 DUP2 PUSH1 0x1 AND ISZERO PUSH2 0x100 MUL SUB AND PUSH1 0x2 SWAP1 DIV DUP1 ISZERO PUSH2 0x1FD3 JUMPI DUP1 PUSH1 0x1F LT PUSH2 0x1FA8 JUMPI PUSH2 0x100 DUP1 DUP4 SLOAD DIV MUL DUP4 MSTORE SWAP2 PUSH1 0x20 ADD SWAP2 PUSH2 0x1FD3 JUMP JUMPDEST DUP3 ADD SWAP2 SWAP1 PUSH1 0x0 MSTORE PUSH1 0x20 PUSH1 0x0 KECCAK256 SWAP1 JUMPDEST DUP2 SLOAD DUP2 MSTORE SWAP1 PUSH1 0x1 ADD SWAP1 PUSH1 0x20 ADD DUP1 DUP4 GT PUSH2 0x1FB6 JUMPI DUP3 SWAP1 SUB PUSH1 0x1F AND DUP3 ADD SWAP2 JUMPDEST POP POP POP POP POP SWAP4 POP DUP3 DUP1 SLOAD PUSH1 0x1 DUP2 PUSH1 0x1 AND ISZERO PUSH2 0x100 MUL SUB AND PUSH1 0x2 SWAP1 DIV DUP1 PUSH1 0x1F ADD PUSH1 0x20 DUP1 SWAP2 DIV MUL PUSH1 0x20 ADD PUSH1 0x40 MLOAD SWAP1 DUP2 ADD PUSH1 0x40 MSTORE DUP1 SWAP3 SWAP2 SWAP1 DUP2 DUP2 MSTORE PUSH1 0x20 ADD DUP3 DUP1 SLOAD PUSH1 0x1 DUP2 PUSH1 0x1 AND ISZERO PUSH2 0x100 MUL SUB AND PUSH1 0x2 SWAP1 DIV DUP1 ISZERO PUSH2 0x206F JUMPI DUP1 PUSH1 0x1F LT PUSH2 0x2044 JUMPI PUSH2 0x100 DUP1 DUP4 SLOAD DIV MUL DUP4 MSTORE SWAP2 PUSH1 0x20 ADD SWAP2 PUSH2 0x206F JUMP JUMPDEST DUP3 ADD SWAP2 SWAP1 PUSH1 0x0 MSTORE PUSH1 0x20 PUSH1 0x0 KECCAK256 SWAP1 JUMPDEST DUP2 SLOAD DUP2 MSTORE SWAP1 PUSH1 0x1 ADD SWAP1 PUSH1 0x20 ADD DUP1 DUP4 GT PUSH2 0x2052 JUMPI DUP3 SWAP1 SUB PUSH1 0x1F AND DUP3 ADD SWAP2 JUMPDEST POP POP POP POP POP SWAP3 POP SWAP6 POP SWAP6 POP SWAP6 POP SWAP6 POP SWAP6 POP POP SWAP2 SWAP4 SWAP6 SWAP1 SWAP3 SWAP5 POP JUMP JUMPDEST PUSH1 0x0 PUSH2 0x2095 DUP3 PUSH2 0x3187 JUMP JUMPDEST SWAP1 POP PUSH1 0x0 PUSH1 0x6 DUP3 DUP2 SLOAD DUP2 LT PUSH2 0x20A6 JUMPI INVALID JUMPDEST SWAP1 PUSH1 0x0 MSTORE PUSH1 0x20 PUSH1 0x0 KECCAK256 SWAP1 PUSH1 0x3 MUL ADD PUSH1 0x2 ADD PUSH1 0x14 PUSH2 0x100 EXP DUP2 SLOAD DUP2 PUSH1 0xFF MUL NOT AND SWAP1 DUP4 ISZERO ISZERO MUL OR SWAP1 SSTORE POP PUSH32 0x780B3C74EC1E08D8C65FD8A12C6AC2DA5C15F2D3B5E54335B51671F63B7D2AD0 PUSH1 0x6 DUP3 DUP2 SLOAD DUP2 LT PUSH2 0x20FC JUMPI INVALID JUMPDEST SWAP1 PUSH1 0x0 MSTORE PUSH1 0x20 PUSH1 0x0 KECCAK256 SWAP1 PUSH1 0x3 MUL ADD PUSH1 0x0 ADD PUSH1 0x0 SWAP1 SLOAD SWAP1 PUSH2 0x100 EXP SWAP1 DIV PUSH20 0xFFFFFFFFFFFFFFFFFFFFFFFFFFFFFFFFFFFFFFFF AND PUSH1 0x6 DUP4 DUP2 SLOAD DUP2 LT PUSH2 0x213B JUMPI INVALID JUMPDEST SWAP1 PUSH1 0x0 MSTORE PUSH1 0x20 PUSH1 0x0 KECCAK256 SWAP1 PUSH1 0x3 MUL ADD PUSH1 0x1 ADD PUSH1 0x6 DUP5 DUP2 SLOAD DUP2 LT PUSH2 0x2159 JUMPI INVALID JUMPDEST SWAP1 PUSH1 0x0 MSTORE PUSH1 0x20 PUSH1 0x0 KECCAK256 SWAP1 PUSH1 0x3 MUL ADD PUSH1 0x2 ADD PUSH1 0x0 SWAP1 SLOAD SWAP1 PUSH2 0x100 EXP SWAP1 DIV PUSH20 0xFFFFFFFFFFFFFFFFFFFFFFFFFFFFFFFFFFFFFFFF AND PUSH1 0x6 DUP6 DUP2 SLOAD DUP2 LT PUSH2 0x2198 JUMPI INVALID JUMPDEST SWAP1 PUSH1 0x0 MSTORE PUSH1 0x20 PUSH1 0x0 KECCAK256 SWAP1 PUSH1 0x3 MUL ADD PUSH1 0x2 ADD PUSH1 0x14 SWAP1 SLOAD SWAP1 PUSH2 0x100 EXP SWAP1 DIV PUSH1 0xFF AND PUSH1 0x40 MLOAD PUSH2 0x21C7 SWAP5 SWAP4 SWAP3 SWAP2 SWAP1 PUSH2 0x3F59 JUMP JUMPDEST PUSH1 0x40 MLOAD DUP1 SWAP2 SUB SWAP1 LOG1 POP POP JUMP JUMPDEST PUSH1 0x0 PUSH1 0x4 DUP1 SLOAD SWAP1 POP SWAP1 POP SWAP1 JUMP JUMPDEST PUSH1 0x4 PUSH1 0x40 MLOAD DUP1 PUSH1 0xC0 ADD PUSH1 0x40 MSTORE DUP1 DUP8 PUSH20 0xFFFFFFFFFFFFFFFFFFFFFFFFFFFFFFFFFFFFFFFF AND DUP2 MSTORE PUSH1 0x20 ADD DUP7 DUP2 MSTORE PUSH1 0x20 ADD DUP6 DUP2 MSTORE PUSH1 0x20 ADD DUP5 DUP2 MSTORE PUSH1 0x20 ADD DUP4 DUP2 MSTORE PUSH1 0x20 ADD PUSH1 0x1 ISZERO ISZERO DUP2 MSTORE POP SWAP1 DUP1 PUSH1 0x1 DUP2 SLOAD ADD DUP1 DUP3 SSTORE DUP1 SWAP2 POP POP PUSH1 0x1 SWAP1 SUB SWAP1 PUSH1 0x0 MSTORE PUSH1 0x20 PUSH1 0x0 KECCAK256 SWAP1 PUSH1 0x6 MUL ADD PUSH1 0x0 SWAP1 SWAP2 SWAP1 SWAP2 SWAP1 SWAP2 POP PUSH1 0x0 DUP3 ADD MLOAD DUP2 PUSH1 0x0 ADD PUSH1 0x0 PUSH2 0x100 EXP DUP2 SLOAD DUP2 PUSH20 0xFFFFFFFFFFFFFFFFFFFFFFFFFFFFFFFFFFFFFFFF MUL NOT AND SWAP1 DUP4 PUSH20 0xFFFFFFFFFFFFFFFFFFFFFFFFFFFFFFFFFFFFFFFF AND MUL OR SWAP1 SSTORE POP PUSH1 0x20 DUP3 ADD MLOAD DUP2 PUSH1 0x1 ADD SWAP1 DUP1 MLOAD SWAP1 PUSH1 0x20 ADD SWAP1 PUSH2 0x22B4 SWAP3 SWAP2 SWAP1 PUSH2 0x3343 JUMP JUMPDEST POP PUSH1 0x40 DUP3 ADD MLOAD DUP2 PUSH1 0x2 ADD SWAP1 DUP1 MLOAD SWAP1 PUSH1 0x20 ADD SWAP1 PUSH2 0x22D1 SWAP3 SWAP2 SWAP1 PUSH2 0x3343 JUMP JUMPDEST POP PUSH1 0x60 DUP3 ADD MLOAD DUP2 PUSH1 0x3 ADD SWAP1 DUP1 MLOAD SWAP1 PUSH1 0x20 ADD SWAP1 PUSH2 0x22EE SWAP3 SWAP2 SWAP1 PUSH2 0x3343 JUMP JUMPDEST POP PUSH1 0x80 DUP3 ADD MLOAD DUP2 PUSH1 0x4 ADD SSTORE PUSH1 0xA0 DUP3 ADD MLOAD DUP2 PUSH1 0x5 ADD PUSH1 0x0 PUSH2 0x100 EXP DUP2 SLOAD DUP2 PUSH1 0xFF MUL NOT AND SWAP1 DUP4 ISZERO ISZERO MUL OR SWAP1 SSTORE POP POP POP PUSH32 0xF646212ACC3F5092FB0211FFD5121C0F706641B715E3982DAB50AFB395413DD5 DUP6 DUP6 DUP6 DUP6 DUP6 PUSH1 0x1 PUSH1 0x40 MLOAD PUSH2 0x2355 SWAP7 SWAP6 SWAP5 SWAP4 SWAP3 SWAP2 SWAP1 PUSH2 0x3EE3 JUMP JUMPDEST PUSH1 0x40 MLOAD DUP1 SWAP2 SUB SWAP1 LOG1 POP POP POP POP POP JUMP JUMPDEST PUSH1 0x3 PUSH1 0x20 MSTORE DUP1 PUSH1 0x0 MSTORE PUSH1 0x40 PUSH1 0x0 KECCAK256 PUSH1 0x0 SWAP2 POP SWAP1 POP DUP1 PUSH1 0x0 ADD PUSH1 0x0 SWAP1 SLOAD SWAP1 PUSH2 0x100 EXP SWAP1 DIV PUSH20 0xFFFFFFFFFFFFFFFFFFFFFFFFFFFFFFFFFFFFFFFF AND SWAP1 DUP1 PUSH1 0x1 ADD DUP1 SLOAD PUSH1 0x1 DUP2 PUSH1 0x1 AND ISZERO PUSH2 0x100 MUL SUB AND PUSH1 0x2 SWAP1 DIV DUP1 PUSH1 0x1F ADD PUSH1 0x20 DUP1 SWAP2 DIV MUL PUSH1 0x20 ADD PUSH1 0x40 MLOAD SWAP1 DUP2 ADD PUSH1 0x40 MSTORE DUP1 SWAP3 SWAP2 SWAP1 DUP2 DUP2 MSTORE PUSH1 0x20 ADD DUP3 DUP1 SLOAD PUSH1 0x1 DUP2 PUSH1 0x1 AND ISZERO PUSH2 0x100 MUL SUB AND PUSH1 0x2 SWAP1 DIV DUP1 ISZERO PUSH2 0x2436 JUMPI DUP1 PUSH1 0x1F LT PUSH2 0x240B JUMPI PUSH2 0x100 DUP1 DUP4 SLOAD DIV MUL DUP4 MSTORE SWAP2 PUSH1 0x20 ADD SWAP2 PUSH2 0x2436 JUMP JUMPDEST DUP3 ADD SWAP2 SWAP1 PUSH1 0x0 MSTORE PUSH1 0x20 PUSH1 0x0 KECCAK256 SWAP1 JUMPDEST DUP2 SLOAD DUP2 MSTORE SWAP1 PUSH1 0x1 ADD SWAP1 PUSH1 0x20 ADD DUP1 DUP4 GT PUSH2 0x2419 JUMPI DUP3 SWAP1 SUB PUSH1 0x1F AND DUP3 ADD SWAP2 JUMPDEST POP POP POP POP POP SWAP1 DUP1 PUSH1 0x2 ADD DUP1 SLOAD PUSH1 0x1 DUP2 PUSH1 0x1 AND ISZERO PUSH2 0x100 MUL SUB AND PUSH1 0x2 SWAP1 DIV DUP1 PUSH1 0x1F ADD PUSH1 0x20 DUP1 SWAP2 DIV MUL PUSH1 0x20 ADD PUSH1 0x40 MLOAD SWAP1 DUP2 ADD PUSH1 0x40 MSTORE DUP1 SWAP3 SWAP2 SWAP1 DUP2 DUP2 MSTORE PUSH1 0x20 ADD DUP3 DUP1 SLOAD PUSH1 0x1 DUP2 PUSH1 0x1 AND ISZERO PUSH2 0x100 MUL SUB AND PUSH1 0x2 SWAP1 DIV DUP1 ISZERO PUSH2 0x24D4 JUMPI DUP1 PUSH1 0x1F LT PUSH2 0x24A9 JUMPI PUSH2 0x100 DUP1 DUP4 SLOAD DIV MUL DUP4 MSTORE SWAP2 PUSH1 0x20 ADD SWAP2 PUSH2 0x24D4 JUMP JUMPDEST DUP3 ADD SWAP2 SWAP1 PUSH1 0x0 MSTORE PUSH1 0x20 PUSH1 0x0 KECCAK256 SWAP1 JUMPDEST DUP2 SLOAD DUP2 MSTORE SWAP1 PUSH1 0x1 ADD SWAP1 PUSH1 0x20 ADD DUP1 DUP4 GT PUSH2 0x24B7 JUMPI DUP3 SWAP1 SUB PUSH1 0x1F AND DUP3 ADD SWAP2 JUMPDEST POP POP POP POP POP SWAP1 DUP1 PUSH1 0x3 ADD DUP1 SLOAD PUSH1 0x1 DUP2 PUSH1 0x1 AND ISZERO PUSH2 0x100 MUL SUB AND PUSH1 0x2 SWAP1 DIV DUP1 PUSH1 0x1F ADD PUSH1 0x20 DUP1 SWAP2 DIV MUL PUSH1 0x20 ADD PUSH1 0x40 MLOAD SWAP1 DUP2 ADD PUSH1 0x40 MSTORE DUP1 SWAP3 SWAP2 SWAP1 DUP2 DUP2 MSTORE PUSH1 0x20 ADD DUP3 DUP1 SLOAD PUSH1 0x1 DUP2 PUSH1 0x1 AND ISZERO PUSH2 0x100 MUL SUB AND PUSH1 0x2 SWAP1 DIV DUP1 ISZERO PUSH2 0x2572 JUMPI DUP1 PUSH1 0x1F LT PUSH2 0x2547 JUMPI PUSH2 0x100 DUP1 DUP4 SLOAD DIV MUL DUP4 MSTORE SWAP2 PUSH1 0x20 ADD SWAP2 PUSH2 0x2572 JUMP JUMPDEST DUP3 ADD SWAP2 SWAP1 PUSH1 0x0 MSTORE PUSH1 0x20 PUSH1 0x0 KECCAK256 SWAP1 JUMPDEST DUP2 SLOAD DUP2 MSTORE SWAP1 PUSH1 0x1 ADD SWAP1 PUSH1 0x20 ADD DUP1 DUP4 GT PUSH2 0x2555 JUMPI DUP3 SWAP1 SUB PUSH1 0x1F AND DUP3 ADD SWAP2 JUMPDEST POP POP POP POP POP SWAP1 DUP1 PUSH1 0x4 ADD SLOAD SWAP1 DUP1 PUSH1 0x5 ADD PUSH1 0x0 SWAP1 SLOAD SWAP1 PUSH2 0x100 EXP SWAP1 DIV PUSH1 0xFF AND SWAP1 POP DUP7 JUMP JUMPDEST PUSH1 0x0 PUSH1 0x8 DUP1 SLOAD SWAP1 POP SWAP1 POP SWAP1 JUMP JUMPDEST PUSH1 0x60 PUSH1 0x0 PUSH1 0x6 DUP1 SLOAD SWAP1 POP PUSH8 0xFFFFFFFFFFFFFFFF DUP2 GT DUP1 ISZERO PUSH2 0x25C2 JUMPI PUSH1 0x0 DUP1 REVERT JUMPDEST POP PUSH1 0x40 MLOAD SWAP1 DUP1 DUP3 MSTORE DUP1 PUSH1 0x20 MUL PUSH1 0x20 ADD DUP3 ADD PUSH1 0x40 MSTORE DUP1 ISZERO PUSH2 0x25FC JUMPI DUP2 PUSH1 0x20 ADD JUMPDEST PUSH2 0x25E9 PUSH2 0x3466 JUMP JUMPDEST DUP2 MSTORE PUSH1 0x20 ADD SWAP1 PUSH1 0x1 SWAP1 SUB SWAP1 DUP2 PUSH2 0x25E1 JUMPI SWAP1 POP JUMPDEST POP SWAP1 POP PUSH1 0x0 JUMPDEST PUSH1 0x6 DUP1 SLOAD SWAP1 POP DUP2 LT ISZERO PUSH2 0x2835 JUMPI PUSH1 0x6 DUP2 DUP2 SLOAD DUP2 LT PUSH2 0x261C JUMPI INVALID JUMPDEST SWAP1 PUSH1 0x0 MSTORE PUSH1 0x20 PUSH1 0x0 KECCAK256 SWAP1 PUSH1 0x3 MUL ADD PUSH1 0x2 ADD PUSH1 0x0 SWAP1 SLOAD SWAP1 PUSH2 0x100 EXP SWAP1 DIV PUSH20 0xFFFFFFFFFFFFFFFFFFFFFFFFFFFFFFFFFFFFFFFF AND PUSH20 0xFFFFFFFFFFFFFFFFFFFFFFFFFFFFFFFFFFFFFFFF AND DUP5 PUSH20 0xFFFFFFFFFFFFFFFFFFFFFFFFFFFFFFFFFFFFFFFF AND EQ ISZERO PUSH2 0x2828 JUMPI PUSH1 0x6 DUP2 DUP2 SLOAD DUP2 LT PUSH2 0x268E JUMPI INVALID JUMPDEST SWAP1 PUSH1 0x0 MSTORE PUSH1 0x20 PUSH1 0x0 KECCAK256 SWAP1 PUSH1 0x3 MUL ADD PUSH1 0x40 MLOAD DUP1 PUSH1 0x80 ADD PUSH1 0x40 MSTORE SWAP1 DUP2 PUSH1 0x0 DUP3 ADD PUSH1 0x0 SWAP1 SLOAD SWAP1 PUSH2 0x100 EXP SWAP1 DIV PUSH20 0xFFFFFFFFFFFFFFFFFFFFFFFFFFFFFFFFFFFFFFFF AND PUSH20 0xFFFFFFFFFFFFFFFFFFFFFFFFFFFFFFFFFFFFFFFF AND PUSH20 0xFFFFFFFFFFFFFFFFFFFFFFFFFFFFFFFFFFFFFFFF AND DUP2 MSTORE PUSH1 0x20 ADD PUSH1 0x1 DUP3 ADD DUP1 SLOAD PUSH1 0x1 DUP2 PUSH1 0x1 AND ISZERO PUSH2 0x100 MUL SUB AND PUSH1 0x2 SWAP1 DIV DUP1 PUSH1 0x1F ADD PUSH1 0x20 DUP1 SWAP2 DIV MUL PUSH1 0x20 ADD PUSH1 0x40 MLOAD SWAP1 DUP2 ADD PUSH1 0x40 MSTORE DUP1 SWAP3 SWAP2 SWAP1 DUP2 DUP2 MSTORE PUSH1 0x20 ADD DUP3 DUP1 SLOAD PUSH1 0x1 DUP2 PUSH1 0x1 AND ISZERO PUSH2 0x100 MUL SUB AND PUSH1 0x2 SWAP1 DIV DUP1 ISZERO PUSH2 0x2796 JUMPI DUP1 PUSH1 0x1F LT PUSH2 0x276B JUMPI PUSH2 0x100 DUP1 DUP4 SLOAD DIV MUL DUP4 MSTORE SWAP2 PUSH1 0x20 ADD SWAP2 PUSH2 0x2796 JUMP JUMPDEST DUP3 ADD SWAP2 SWAP1 PUSH1 0x0 MSTORE PUSH1 0x20 PUSH1 0x0 KECCAK256 SWAP1 JUMPDEST DUP2 SLOAD DUP2 MSTORE SWAP1 PUSH1 0x1 ADD SWAP1 PUSH1 0x20 ADD DUP1 DUP4 GT PUSH2 0x2779 JUMPI DUP3 SWAP1 SUB PUSH1 0x1F AND DUP3 ADD SWAP2 JUMPDEST POP POP POP POP POP DUP2 MSTORE PUSH1 0x20 ADD PUSH1 0x2 DUP3 ADD PUSH1 0x0 SWAP1 SLOAD SWAP1 PUSH2 0x100 EXP SWAP1 DIV PUSH20 0xFFFFFFFFFFFFFFFFFFFFFFFFFFFFFFFFFFFFFFFF AND PUSH20 0xFFFFFFFFFFFFFFFFFFFFFFFFFFFFFFFFFFFFFFFF AND PUSH20 0xFFFFFFFFFFFFFFFFFFFFFFFFFFFFFFFFFFFFFFFF AND DUP2 MSTORE PUSH1 0x20 ADD PUSH1 0x2 DUP3 ADD PUSH1 0x14 SWAP1 SLOAD SWAP1 PUSH2 0x100 EXP SWAP1 DIV PUSH1 0xFF AND ISZERO ISZERO ISZERO ISZERO DUP2 MSTORE POP POP DUP3 DUP3 DUP2 MLOAD DUP2 LT PUSH2 0x281C JUMPI INVALID JUMPDEST PUSH1 0x20 MUL PUSH1 0x20 ADD ADD DUP2 SWAP1 MSTORE POP JUMPDEST DUP1 DUP1 PUSH1 0x1 ADD SWAP2 POP POP PUSH2 0x2602 JUMP JUMPDEST POP DUP1 SWAP2 POP POP SWAP2 SWAP1 POP JUMP JUMPDEST PUSH1 0x4 DUP2 DUP2 SLOAD DUP2 LT PUSH2 0x284F JUMPI PUSH1 0x0 DUP1 REVERT JUMPDEST SWAP1 PUSH1 0x0 MSTORE PUSH1 0x20 PUSH1 0x0 KECCAK256 SWAP1 PUSH1 0x6 MUL ADD PUSH1 0x0 SWAP2 POP SWAP1 POP DUP1 PUSH1 0x0 ADD PUSH1 0x0 SWAP1 SLOAD SWAP1 PUSH2 0x100 EXP SWAP1 DIV PUSH20 0xFFFFFFFFFFFFFFFFFFFFFFFFFFFFFFFFFFFFFFFF AND SWAP1 DUP1 PUSH1 0x1 ADD DUP1 SLOAD PUSH1 0x1 DUP2 PUSH1 0x1 AND ISZERO PUSH2 0x100 MUL SUB AND PUSH1 0x2 SWAP1 DIV DUP1 PUSH1 0x1F ADD PUSH1 0x20 DUP1 SWAP2 DIV MUL PUSH1 0x20 ADD PUSH1 0x40 MLOAD SWAP1 DUP2 ADD PUSH1 0x40 MSTORE DUP1 SWAP3 SWAP2 SWAP1 DUP2 DUP2 MSTORE PUSH1 0x20 ADD DUP3 DUP1 SLOAD PUSH1 0x1 DUP2 PUSH1 0x1 AND ISZERO PUSH2 0x100 MUL SUB AND PUSH1 0x2 SWAP1 DIV DUP1 ISZERO PUSH2 0x2921 JUMPI DUP1 PUSH1 0x1F LT PUSH2 0x28F6 JUMPI PUSH2 0x100 DUP1 DUP4 SLOAD DIV MUL DUP4 MSTORE SWAP2 PUSH1 0x20 ADD SWAP2 PUSH2 0x2921 JUMP JUMPDEST DUP3 ADD SWAP2 SWAP1 PUSH1 0x0 MSTORE PUSH1 0x20 PUSH1 0x0 KECCAK256 SWAP1 JUMPDEST DUP2 SLOAD DUP2 MSTORE SWAP1 PUSH1 0x1 ADD SWAP1 PUSH1 0x20 ADD DUP1 DUP4 GT PUSH2 0x2904 JUMPI DUP3 SWAP1 SUB PUSH1 0x1F AND DUP3 ADD SWAP2 JUMPDEST POP POP POP POP POP SWAP1 DUP1 PUSH1 0x2 ADD DUP1 SLOAD PUSH1 0x1 DUP2 PUSH1 0x1 AND ISZERO PUSH2 0x100 MUL SUB AND PUSH1 0x2 SWAP1 DIV DUP1 PUSH1 0x1F ADD PUSH1 0x20 DUP1 SWAP2 DIV MUL PUSH1 0x20 ADD PUSH1 0x40 MLOAD SWAP1 DUP2 ADD PUSH1 0x40 MSTORE DUP1 SWAP3 SWAP2 SWAP1 DUP2 DUP2 MSTORE PUSH1 0x20 ADD DUP3 DUP1 SLOAD PUSH1 0x1 DUP2 PUSH1 0x1 AND ISZERO PUSH2 0x100 MUL SUB AND PUSH1 0x2 SWAP1 DIV DUP1 ISZERO PUSH2 0x29BF JUMPI DUP1 PUSH1 0x1F LT PUSH2 0x2994 JUMPI PUSH2 0x100 DUP1 DUP4 SLOAD DIV MUL DUP4 MSTORE SWAP2 PUSH1 0x20 ADD SWAP2 PUSH2 0x29BF JUMP JUMPDEST DUP3 ADD SWAP2 SWAP1 PUSH1 0x0 MSTORE PUSH1 0x20 PUSH1 0x0 KECCAK256 SWAP1 JUMPDEST DUP2 SLOAD DUP2 MSTORE SWAP1 PUSH1 0x1 ADD SWAP1 PUSH1 0x20 ADD DUP1 DUP4 GT PUSH2 0x29A2 JUMPI DUP3 SWAP1 SUB PUSH1 0x1F AND DUP3 ADD SWAP2 JUMPDEST POP POP POP POP POP SWAP1 DUP1 PUSH1 0x3 ADD DUP1 SLOAD PUSH1 0x1 DUP2 PUSH1 0x1 AND ISZERO PUSH2 0x100 MUL SUB AND PUSH1 0x2 SWAP1 DIV DUP1 PUSH1 0x1F ADD PUSH1 0x20 DUP1 SWAP2 DIV MUL PUSH1 0x20 ADD PUSH1 0x40 MLOAD SWAP1 DUP2 ADD PUSH1 0x40 MSTORE DUP1 SWAP3 SWAP2 SWAP1 DUP2 DUP2 MSTORE PUSH1 0x20 ADD DUP3 DUP1 SLOAD PUSH1 0x1 DUP2 PUSH1 0x1 AND ISZERO PUSH2 0x100 MUL SUB AND PUSH1 0x2 SWAP1 DIV DUP1 ISZERO PUSH2 0x2A5D JUMPI DUP1 PUSH1 0x1F LT PUSH2 0x2A32 JUMPI PUSH2 0x100 DUP1 DUP4 SLOAD DIV MUL DUP4 MSTORE SWAP2 PUSH1 0x20 ADD SWAP2 PUSH2 0x2A5D JUMP JUMPDEST DUP3 ADD SWAP2 SWAP1 PUSH1 0x0 MSTORE PUSH1 0x20 PUSH1 0x0 KECCAK256 SWAP1 JUMPDEST DUP2 SLOAD DUP2 MSTORE SWAP1 PUSH1 0x1 ADD SWAP1 PUSH1 0x20 ADD DUP1 DUP4 GT PUSH2 0x2A40 JUMPI DUP3 SWAP1 SUB PUSH1 0x1F AND DUP3 ADD SWAP2 JUMPDEST POP POP POP POP POP SWAP1 DUP1 PUSH1 0x4 ADD SLOAD SWAP1 DUP1 PUSH1 0x5 ADD PUSH1 0x0 SWAP1 SLOAD SWAP1 PUSH2 0x100 EXP SWAP1 DIV PUSH1 0xFF AND SWAP1 POP DUP7 JUMP JUMPDEST PUSH1 0x5 PUSH1 0x20 MSTORE DUP1 PUSH1 0x0 MSTORE PUSH1 0x40 PUSH1 0x0 KECCAK256 PUSH1 0x0 SWAP2 POP SWAP1 POP DUP1 PUSH1 0x0 ADD PUSH1 0x0 SWAP1 SLOAD SWAP1 PUSH2 0x100 EXP SWAP1 DIV PUSH20 0xFFFFFFFFFFFFFFFFFFFFFFFFFFFFFFFFFFFFFFFF AND SWAP1 DUP1 PUSH1 0x1 ADD DUP1 SLOAD PUSH1 0x1 DUP2 PUSH1 0x1 AND ISZERO PUSH2 0x100 MUL SUB AND PUSH1 0x2 SWAP1 DIV DUP1 PUSH1 0x1F ADD PUSH1 0x20 DUP1 SWAP2 DIV MUL PUSH1 0x20 ADD PUSH1 0x40 MLOAD SWAP1 DUP2 ADD PUSH1 0x40 MSTORE DUP1 SWAP3 SWAP2 SWAP1 DUP2 DUP2 MSTORE PUSH1 0x20 ADD DUP3 DUP1 SLOAD PUSH1 0x1 DUP2 PUSH1 0x1 AND ISZERO PUSH2 0x100 MUL SUB AND PUSH1 0x2 SWAP1 DIV DUP1 ISZERO PUSH2 0x2B52 JUMPI DUP1 PUSH1 0x1F LT PUSH2 0x2B27 JUMPI PUSH2 0x100 DUP1 DUP4 SLOAD DIV MUL DUP4 MSTORE SWAP2 PUSH1 0x20 ADD SWAP2 PUSH2 0x2B52 JUMP JUMPDEST DUP3 ADD SWAP2 SWAP1 PUSH1 0x0 MSTORE PUSH1 0x20 PUSH1 0x0 KECCAK256 SWAP1 JUMPDEST DUP2 SLOAD DUP2 MSTORE SWAP1 PUSH1 0x1 ADD SWAP1 PUSH1 0x20 ADD DUP1 DUP4 GT PUSH2 0x2B35 JUMPI DUP3 SWAP1 SUB PUSH1 0x1F AND DUP3 ADD SWAP2 JUMPDEST POP POP POP POP POP SWAP1 DUP1 PUSH1 0x2 ADD PUSH1 0x0 SWAP1 SLOAD SWAP1 PUSH2 0x100 EXP SWAP1 DIV PUSH20 0xFFFFFFFFFFFFFFFFFFFFFFFFFFFFFFFFFFFFFFFF AND SWAP1 DUP1 PUSH1 0x2 ADD PUSH1 0x14 SWAP1 SLOAD SWAP1 PUSH2 0x100 EXP SWAP1 DIV PUSH1 0xFF AND SWAP1 POP DUP5 JUMP JUMPDEST PUSH2 0x2B9E DUP2 PUSH2 0x3265 JUMP JUMPDEST POP PUSH1 0x6 PUSH1 0x40 MLOAD DUP1 PUSH1 0x80 ADD PUSH1 0x40 MSTORE DUP1 DUP6 PUSH20 0xFFFFFFFFFFFFFFFFFFFFFFFFFFFFFFFFFFFFFFFF AND DUP2 MSTORE PUSH1 0x20 ADD DUP5 DUP2 MSTORE PUSH1 0x20 ADD DUP4 PUSH20 0xFFFFFFFFFFFFFFFFFFFFFFFFFFFFFFFFFFFFFFFF AND DUP2 MSTORE PUSH1 0x20 ADD PUSH1 0x1 ISZERO ISZERO DUP2 MSTORE POP SWAP1 DUP1 PUSH1 0x1 DUP2 SLOAD ADD DUP1 DUP3 SSTORE DUP1 SWAP2 POP POP PUSH1 0x1 SWAP1 SUB SWAP1 PUSH1 0x0 MSTORE PUSH1 0x20 PUSH1 0x0 KECCAK256 SWAP1 PUSH1 0x3 MUL ADD PUSH1 0x0 SWAP1 SWAP2 SWAP1 SWAP2 SWAP1 SWAP2 POP PUSH1 0x0 DUP3 ADD MLOAD DUP2 PUSH1 0x0 ADD PUSH1 0x0 PUSH2 0x100 EXP DUP2 SLOAD DUP2 PUSH20 0xFFFFFFFFFFFFFFFFFFFFFFFFFFFFFFFFFFFFFFFF MUL NOT AND SWAP1 DUP4 PUSH20 0xFFFFFFFFFFFFFFFFFFFFFFFFFFFFFFFFFFFFFFFF AND MUL OR SWAP1 SSTORE POP PUSH1 0x20 DUP3 ADD MLOAD DUP2 PUSH1 0x1 ADD SWAP1 DUP1 MLOAD SWAP1 PUSH1 0x20 ADD SWAP1 PUSH2 0x2C7D SWAP3 SWAP2 SWAP1 PUSH2 0x3343 JUMP JUMPDEST POP PUSH1 0x40 DUP3 ADD MLOAD DUP2 PUSH1 0x2 ADD PUSH1 0x0 PUSH2 0x100 EXP DUP2 SLOAD DUP2 PUSH20 0xFFFFFFFFFFFFFFFFFFFFFFFFFFFFFFFFFFFFFFFF MUL NOT AND SWAP1 DUP4 PUSH20 0xFFFFFFFFFFFFFFFFFFFFFFFFFFFFFFFFFFFFFFFF AND MUL OR SWAP1 SSTORE POP PUSH1 0x60 DUP3 ADD MLOAD DUP2 PUSH1 0x2 ADD PUSH1 0x14 PUSH2 0x100 EXP DUP2 SLOAD DUP2 PUSH1 0xFF MUL NOT AND SWAP1 DUP4 ISZERO ISZERO MUL OR SWAP1 SSTORE POP POP POP PUSH32 0x4578695497AF1A3A1F556F9C89F9F107851CB8E1820E4B336143406B9BA52E3B DUP4 DUP4 DUP4 PUSH1 0x1 PUSH1 0x40 MLOAD PUSH2 0x2D1D SWAP5 SWAP4 SWAP3 SWAP2 SWAP1 PUSH2 0x3E97 JUMP JUMPDEST PUSH1 0x40 MLOAD DUP1 SWAP2 SUB SWAP1 LOG1 POP POP POP JUMP JUMPDEST PUSH1 0x8 DUP2 DUP2 SLOAD DUP2 LT PUSH2 0x2D3A JUMPI PUSH1 0x0 DUP1 REVERT JUMPDEST SWAP1 PUSH1 0x0 MSTORE PUSH1 0x20 PUSH1 0x0 KECCAK256 SWAP1 PUSH1 0x4 MUL ADD PUSH1 0x0 SWAP2 POP SWAP1 POP DUP1 PUSH1 0x0 ADD SLOAD SWAP1 DUP1 PUSH1 0x1 ADD DUP1 SLOAD PUSH1 0x1 DUP2 PUSH1 0x1 AND ISZERO PUSH2 0x100 MUL SUB AND PUSH1 0x2 SWAP1 DIV DUP1 PUSH1 0x1F ADD PUSH1 0x20 DUP1 SWAP2 DIV MUL PUSH1 0x20 ADD PUSH1 0x40 MLOAD SWAP1 DUP2 ADD PUSH1 0x40 MSTORE DUP1 SWAP3 SWAP2 SWAP1 DUP2 DUP2 MSTORE PUSH1 0x20 ADD DUP3 DUP1 SLOAD PUSH1 0x1 DUP2 PUSH1 0x1 AND ISZERO PUSH2 0x100 MUL SUB AND PUSH1 0x2 SWAP1 DIV DUP1 ISZERO PUSH2 0x2DEC JUMPI DUP1 PUSH1 0x1F LT PUSH2 0x2DC1 JUMPI PUSH2 0x100 DUP1 DUP4 SLOAD DIV MUL DUP4 MSTORE SWAP2 PUSH1 0x20 ADD SWAP2 PUSH2 0x2DEC JUMP JUMPDEST DUP3 ADD SWAP2 SWAP1 PUSH1 0x0 MSTORE PUSH1 0x20 PUSH1 0x0 KECCAK256 SWAP1 JUMPDEST DUP2 SLOAD DUP2 MSTORE SWAP1 PUSH1 0x1 ADD SWAP1 PUSH1 0x20 ADD DUP1 DUP4 GT PUSH2 0x2DCF JUMPI DUP3 SWAP1 SUB PUSH1 0x1F AND DUP3 ADD SWAP2 JUMPDEST POP POP POP POP POP SWAP1 DUP1 PUSH1 0x2 ADD DUP1 SLOAD PUSH1 0x1 DUP2 PUSH1 0x1 AND ISZERO PUSH2 0x100 MUL SUB AND PUSH1 0x2 SWAP1 DIV DUP1 PUSH1 0x1F ADD PUSH1 0x20 DUP1 SWAP2 DIV MUL PUSH1 0x20 ADD PUSH1 0x40 MLOAD SWAP1 DUP2 ADD PUSH1 0x40 MSTORE DUP1 SWAP3 SWAP2 SWAP1 DUP2 DUP2 MSTORE PUSH1 0x20 ADD DUP3 DUP1 SLOAD PUSH1 0x1 DUP2 PUSH1 0x1 AND ISZERO PUSH2 0x100 MUL SUB AND PUSH1 0x2 SWAP1 DIV DUP1 ISZERO PUSH2 0x2E8A JUMPI DUP1 PUSH1 0x1F LT PUSH2 0x2E5F JUMPI PUSH2 0x100 DUP1 DUP4 SLOAD DIV MUL DUP4 MSTORE SWAP2 PUSH1 0x20 ADD SWAP2 PUSH2 0x2E8A JUMP JUMPDEST DUP3 ADD SWAP2 SWAP1 PUSH1 0x0 MSTORE PUSH1 0x20 PUSH1 0x0 KECCAK256 SWAP1 JUMPDEST DUP2 SLOAD DUP2 MSTORE SWAP1 PUSH1 0x1 ADD SWAP1 PUSH1 0x20 ADD DUP1 DUP4 GT PUSH2 0x2E6D JUMPI DUP3 SWAP1 SUB PUSH1 0x1F AND DUP3 ADD SWAP2 JUMPDEST POP POP POP POP POP SWAP1 DUP1 PUSH1 0x3 ADD PUSH1 0x0 SWAP1 SLOAD SWAP1 PUSH2 0x100 EXP SWAP1 DIV PUSH20 0xFFFFFFFFFFFFFFFFFFFFFFFFFFFFFFFFFFFFFFFF AND SWAP1 DUP1 PUSH1 0x3 ADD PUSH1 0x14 SWAP1 SLOAD SWAP1 PUSH2 0x100 EXP SWAP1 DIV PUSH1 0xFF AND SWAP1 POP DUP6 JUMP JUMPDEST PUSH1 0x60 PUSH1 0x0 PUSH1 0x6 DUP1 SLOAD SWAP1 POP PUSH8 0xFFFFFFFFFFFFFFFF DUP2 GT DUP1 ISZERO PUSH2 0x2EED JUMPI PUSH1 0x0 DUP1 REVERT JUMPDEST POP PUSH1 0x40 MLOAD SWAP1 DUP1 DUP3 MSTORE DUP1 PUSH1 0x20 MUL PUSH1 0x20 ADD DUP3 ADD PUSH1 0x40 MSTORE DUP1 ISZERO PUSH2 0x2F27 JUMPI DUP2 PUSH1 0x20 ADD JUMPDEST PUSH2 0x2F14 PUSH2 0x3466 JUMP JUMPDEST DUP2 MSTORE PUSH1 0x20 ADD SWAP1 PUSH1 0x1 SWAP1 SUB SWAP1 DUP2 PUSH2 0x2F0C JUMPI SWAP1 POP JUMPDEST POP SWAP1 POP PUSH1 0x0 JUMPDEST PUSH1 0x6 DUP1 SLOAD SWAP1 POP DUP2 LT ISZERO PUSH2 0x30ED JUMPI PUSH1 0x6 DUP2 DUP2 SLOAD DUP2 LT PUSH2 0x2F47 JUMPI INVALID JUMPDEST SWAP1 PUSH1 0x0 MSTORE PUSH1 0x20 PUSH1 0x0 KECCAK256 SWAP1 PUSH1 0x3 MUL ADD PUSH1 0x40 MLOAD DUP1 PUSH1 0x80 ADD PUSH1 0x40 MSTORE SWAP1 DUP2 PUSH1 0x0 DUP3 ADD PUSH1 0x0 SWAP1 SLOAD SWAP1 PUSH2 0x100 EXP SWAP1 DIV PUSH20 0xFFFFFFFFFFFFFFFFFFFFFFFFFFFFFFFFFFFFFFFF AND PUSH20 0xFFFFFFFFFFFFFFFFFFFFFFFFFFFFFFFFFFFFFFFF AND PUSH20 0xFFFFFFFFFFFFFFFFFFFFFFFFFFFFFFFFFFFFFFFF AND DUP2 MSTORE PUSH1 0x20 ADD PUSH1 0x1 DUP3 ADD DUP1 SLOAD PUSH1 0x1 DUP2 PUSH1 0x1 AND ISZERO PUSH2 0x100 MUL SUB AND PUSH1 0x2 SWAP1 DIV DUP1 PUSH1 0x1F ADD PUSH1 0x20 DUP1 SWAP2 DIV MUL PUSH1 0x20 ADD PUSH1 0x40 MLOAD SWAP1 DUP2 ADD PUSH1 0x40 MSTORE DUP1 SWAP3 SWAP2 SWAP1 DUP2 DUP2 MSTORE PUSH1 0x20 ADD DUP3 DUP1 SLOAD PUSH1 0x1 DUP2 PUSH1 0x1 AND ISZERO PUSH2 0x100 MUL SUB AND PUSH1 0x2 SWAP1 DIV DUP1 ISZERO PUSH2 0x304F JUMPI DUP1 PUSH1 0x1F LT PUSH2 0x3024 JUMPI PUSH2 0x100 DUP1 DUP4 SLOAD DIV MUL DUP4 MSTORE SWAP2 PUSH1 0x20 ADD SWAP2 PUSH2 0x304F JUMP JUMPDEST DUP3 ADD SWAP2 SWAP1 PUSH1 0x0 MSTORE PUSH1 0x20 PUSH1 0x0 KECCAK256 SWAP1 JUMPDEST DUP2 SLOAD DUP2 MSTORE SWAP1 PUSH1 0x1 ADD SWAP1 PUSH1 0x20 ADD DUP1 DUP4 GT PUSH2 0x3032 JUMPI DUP3 SWAP1 SUB PUSH1 0x1F AND DUP3 ADD SWAP2 JUMPDEST POP POP POP POP POP DUP2 MSTORE PUSH1 0x20 ADD PUSH1 0x2 DUP3 ADD PUSH1 0x0 SWAP1 SLOAD SWAP1 PUSH2 0x100 EXP SWAP1 DIV PUSH20 0xFFFFFFFFFFFFFFFFFFFFFFFFFFFFFFFFFFFFFFFF AND PUSH20 0xFFFFFFFFFFFFFFFFFFFFFFFFFFFFFFFFFFFFFFFF AND PUSH20 0xFFFFFFFFFFFFFFFFFFFFFFFFFFFFFFFFFFFFFFFF AND DUP2 MSTORE PUSH1 0x20 ADD PUSH1 0x2 DUP3 ADD PUSH1 0x14 SWAP1 SLOAD SWAP1 PUSH2 0x100 EXP SWAP1 DIV PUSH1 0xFF AND ISZERO ISZERO ISZERO ISZERO DUP2 MSTORE POP POP DUP3 DUP3 DUP2 MLOAD DUP2 LT PUSH2 0x30D5 JUMPI INVALID JUMPDEST PUSH1 0x20 MUL PUSH1 0x20 ADD ADD DUP2 SWAP1 MSTORE POP DUP1 DUP1 PUSH1 0x1 ADD SWAP2 POP POP PUSH2 0x2F2D JUMP JUMPDEST POP DUP1 SWAP2 POP POP SWAP1 JUMP JUMPDEST PUSH1 0x0 DUP1 PUSH1 0x0 SWAP1 POP JUMPDEST PUSH1 0x8 DUP1 SLOAD SWAP1 POP DUP2 LT ISZERO PUSH2 0x3146 JUMPI DUP3 PUSH1 0x8 DUP3 DUP2 SLOAD DUP2 LT PUSH2 0x3118 JUMPI INVALID JUMPDEST SWAP1 PUSH1 0x0 MSTORE PUSH1 0x20 PUSH1 0x0 KECCAK256 SWAP1 PUSH1 0x4 MUL ADD PUSH1 0x0 ADD SLOAD EQ ISZERO PUSH2 0x3139 JUMPI DUP1 SWAP2 POP POP PUSH2 0x3182 JUMP JUMPDEST DUP1 DUP1 PUSH1 0x1 ADD SWAP2 POP POP PUSH2 0x30FD JUMP JUMPDEST POP PUSH1 0x40 MLOAD PUSH32 0x8C379A000000000000000000000000000000000000000000000000000000000 DUP2 MSTORE PUSH1 0x4 ADD PUSH2 0x3179 SWAP1 PUSH2 0x419A JUMP JUMPDEST PUSH1 0x40 MLOAD DUP1 SWAP2 SUB SWAP1 REVERT JUMPDEST SWAP2 SWAP1 POP JUMP JUMPDEST PUSH1 0x0 DUP1 PUSH1 0x0 SWAP1 POP JUMPDEST PUSH1 0x6 DUP1 SLOAD SWAP1 POP DUP2 LT ISZERO PUSH2 0x3224 JUMPI DUP3 PUSH20 0xFFFFFFFFFFFFFFFFFFFFFFFFFFFFFFFFFFFFFFFF AND PUSH1 0x6 DUP3 DUP2 SLOAD DUP2 LT PUSH2 0x31C0 JUMPI INVALID JUMPDEST SWAP1 PUSH1 0x0 MSTORE PUSH1 0x20 PUSH1 0x0 KECCAK256 SWAP1 PUSH1 0x3 MUL ADD PUSH1 0x0 ADD PUSH1 0x0 SWAP1 SLOAD SWAP1 PUSH2 0x100 EXP SWAP1 DIV PUSH20 0xFFFFFFFFFFFFFFFFFFFFFFFFFFFFFFFFFFFFFFFF AND PUSH20 0xFFFFFFFFFFFFFFFFFFFFFFFFFFFFFFFFFFFFFFFF AND EQ ISZERO PUSH2 0x3217 JUMPI DUP1 SWAP2 POP POP PUSH2 0x3260 JUMP JUMPDEST DUP1 DUP1 PUSH1 0x1 ADD SWAP2 POP POP PUSH2 0x318F JUMP JUMPDEST POP PUSH1 0x40 MLOAD PUSH32 0x8C379A000000000000000000000000000000000000000000000000000000000 DUP2 MSTORE PUSH1 0x4 ADD PUSH2 0x3257 SWAP1 PUSH2 0x417A JUMP JUMPDEST PUSH1 0x40 MLOAD DUP1 SWAP2 SUB SWAP1 REVERT JUMPDEST SWAP2 SWAP1 POP JUMP JUMPDEST PUSH1 0x0 DUP1 PUSH1 0x0 SWAP1 POP JUMPDEST PUSH1 0x4 DUP1 SLOAD SWAP1 POP DUP2 LT ISZERO PUSH2 0x3302 JUMPI DUP3 PUSH20 0xFFFFFFFFFFFFFFFFFFFFFFFFFFFFFFFFFFFFFFFF AND PUSH1 0x4 DUP3 DUP2 SLOAD DUP2 LT PUSH2 0x329E JUMPI INVALID JUMPDEST SWAP1 PUSH1 0x0 MSTORE PUSH1 0x20 PUSH1 0x0 KECCAK256 SWAP1 PUSH1 0x6 MUL ADD PUSH1 0x0 ADD PUSH1 0x0 SWAP1 SLOAD SWAP1 PUSH2 0x100 EXP SWAP1 DIV PUSH20 0xFFFFFFFFFFFFFFFFFFFFFFFFFFFFFFFFFFFFFFFF AND PUSH20 0xFFFFFFFFFFFFFFFFFFFFFFFFFFFFFFFFFFFFFFFF AND EQ ISZERO PUSH2 0x32F5 JUMPI DUP1 SWAP2 POP POP PUSH2 0x333E JUMP JUMPDEST DUP1 DUP1 PUSH1 0x1 ADD SWAP2 POP POP PUSH2 0x326D JUMP JUMPDEST POP PUSH1 0x40 MLOAD PUSH32 0x8C379A000000000000000000000000000000000000000000000000000000000 DUP2 MSTORE PUSH1 0x4 ADD PUSH2 0x3335 SWAP1 PUSH2 0x41BA JUMP JUMPDEST PUSH1 0x40 MLOAD DUP1 SWAP2 SUB SWAP1 REVERT JUMPDEST SWAP2 SWAP1 POP JUMP JUMPDEST DUP3 DUP1 SLOAD PUSH1 0x1 DUP2 PUSH1 0x1 AND ISZERO PUSH2 0x100 MUL SUB AND PUSH1 0x2 SWAP1 DIV SWAP1 PUSH1 0x0 MSTORE PUSH1 0x20 PUSH1 0x0 KECCAK256 SWAP1 PUSH1 0x1F ADD PUSH1 0x20 SWAP1 DIV DUP2 ADD SWAP3 DUP3 PUSH2 0x3379 JUMPI PUSH1 0x0 DUP6 SSTORE PUSH2 0x33C0 JUMP JUMPDEST DUP3 PUSH1 0x1F LT PUSH2 0x3392 JUMPI DUP1 MLOAD PUSH1 0xFF NOT AND DUP4 DUP1 ADD OR DUP6 SSTORE PUSH2 0x33C0 JUMP JUMPDEST DUP3 DUP1 ADD PUSH1 0x1 ADD DUP6 SSTORE DUP3 ISZERO PUSH2 0x33C0 JUMPI SWAP2 DUP3 ADD JUMPDEST DUP3 DUP2 GT ISZERO PUSH2 0x33BF JUMPI DUP3 MLOAD DUP3 SSTORE SWAP2 PUSH1 0x20 ADD SWAP2 SWAP1 PUSH1 0x1 ADD SWAP1 PUSH2 0x33A4 JUMP JUMPDEST JUMPDEST POP SWAP1 POP PUSH2 0x33CD SWAP2 SWAP1 PUSH2 0x34BC JUMP JUMPDEST POP SWAP1 JUMP JUMPDEST PUSH1 0x40 MLOAD DUP1 PUSH1 0xC0 ADD PUSH1 0x40 MSTORE DUP1 PUSH1 0x0 PUSH20 0xFFFFFFFFFFFFFFFFFFFFFFFFFFFFFFFFFFFFFFFF AND DUP2 MSTORE PUSH1 0x20 ADD PUSH1 0x60 DUP2 MSTORE PUSH1 0x20 ADD PUSH1 0x60 DUP2 MSTORE PUSH1 0x20 ADD PUSH1 0x60 DUP2 MSTORE PUSH1 0x20 ADD PUSH1 0x0 DUP2 MSTORE PUSH1 0x20 ADD PUSH1 0x0 ISZERO ISZERO DUP2 MSTORE POP SWAP1 JUMP JUMPDEST PUSH1 0x40 MLOAD DUP1 PUSH1 0xA0 ADD PUSH1 0x40 MSTORE DUP1 PUSH1 0x0 DUP2 MSTORE PUSH1 0x20 ADD PUSH1 0x60 DUP2 MSTORE PUSH1 0x20 ADD PUSH1 0x60 DUP2 MSTORE PUSH1 0x20 ADD PUSH1 0x0 PUSH20 0xFFFFFFFFFFFFFFFFFFFFFFFFFFFFFFFFFFFFFFFF AND DUP2 MSTORE PUSH1 0x20 ADD PUSH1 0x0 ISZERO ISZERO DUP2 MSTORE POP SWAP1 JUMP JUMPDEST PUSH1 0x40 MLOAD DUP1 PUSH1 0x80 ADD PUSH1 0x40 MSTORE DUP1 PUSH1 0x0 PUSH20 0xFFFFFFFFFFFFFFFFFFFFFFFFFFFFFFFFFFFFFFFF AND DUP2 MSTORE PUSH1 0x20 ADD PUSH1 0x60 DUP2 MSTORE PUSH1 0x20 ADD PUSH1 0x0 PUSH20 0xFFFFFFFFFFFFFFFFFFFFFFFFFFFFFFFFFFFFFFFF AND DUP2 MSTORE PUSH1 0x20 ADD PUSH1 0x0 ISZERO ISZERO DUP2 MSTORE POP SWAP1 JUMP JUMPDEST JUMPDEST DUP1 DUP3 GT ISZERO PUSH2 0x34D5 JUMPI PUSH1 0x0 DUP2 PUSH1 0x0 SWAP1 SSTORE POP PUSH1 0x1 ADD PUSH2 0x34BD JUMP JUMPDEST POP SWAP1 JUMP JUMPDEST PUSH1 0x0 PUSH2 0x34EC PUSH2 0x34E7 DUP5 PUSH2 0x433B JUMP JUMPDEST PUSH2 0x430A JUMP JUMPDEST SWAP1 POP DUP3 DUP2 MSTORE PUSH1 0x20 DUP2 ADD DUP5 DUP5 DUP5 ADD GT ISZERO PUSH2 0x3504 JUMPI PUSH1 0x0 DUP1 REVERT JUMPDEST PUSH2 0x350F DUP5 DUP3 DUP6 PUSH2 0x44A0 JUMP JUMPDEST POP SWAP4 SWAP3 POP POP POP JUMP JUMPDEST PUSH1 0x0 DUP2 CALLDATALOAD SWAP1 POP PUSH2 0x3526 DUP2 PUSH2 0x44F5 JUMP JUMPDEST SWAP3 SWAP2 POP POP JUMP JUMPDEST PUSH1 0x0 DUP2 CALLDATALOAD SWAP1 POP PUSH2 0x353B DUP2 PUSH2 0x450C JUMP JUMPDEST SWAP3 SWAP2 POP POP JUMP JUMPDEST PUSH1 0x0 DUP3 PUSH1 0x1F DUP4 ADD SLT PUSH2 0x3552 JUMPI PUSH1 0x0 DUP1 REVERT JUMPDEST DUP2 CALLDATALOAD PUSH2 0x3562 DUP5 DUP3 PUSH1 0x20 DUP7 ADD PUSH2 0x34D9 JUMP JUMPDEST SWAP2 POP POP SWAP3 SWAP2 POP POP JUMP JUMPDEST PUSH1 0x0 DUP2 CALLDATALOAD SWAP1 POP PUSH2 0x357A DUP2 PUSH2 0x4523 JUMP JUMPDEST SWAP3 SWAP2 POP POP JUMP JUMPDEST PUSH1 0x0 PUSH1 0x20 DUP3 DUP5 SUB SLT ISZERO PUSH2 0x3592 JUMPI PUSH1 0x0 DUP1 REVERT JUMPDEST PUSH1 0x0 PUSH2 0x35A0 DUP5 DUP3 DUP6 ADD PUSH2 0x3517 JUMP JUMPDEST SWAP2 POP POP SWAP3 SWAP2 POP POP JUMP JUMPDEST PUSH1 0x0 DUP1 PUSH1 0x0 PUSH1 0x60 DUP5 DUP7 SUB SLT ISZERO PUSH2 0x35BE JUMPI PUSH1 0x0 DUP1 REVERT JUMPDEST PUSH1 0x0 PUSH2 0x35CC DUP7 DUP3 DUP8 ADD PUSH2 0x3517 JUMP JUMPDEST SWAP4 POP POP PUSH1 0x20 DUP5 ADD CALLDATALOAD PUSH8 0xFFFFFFFFFFFFFFFF DUP2 GT ISZERO PUSH2 0x35E9 JUMPI PUSH1 0x0 DUP1 REVERT JUMPDEST PUSH2 0x35F5 DUP7 DUP3 DUP8 ADD PUSH2 0x3541 JUMP JUMPDEST SWAP3 POP POP PUSH1 0x40 PUSH2 0x3606 DUP7 DUP3 DUP8 ADD PUSH2 0x3517 JUMP JUMPDEST SWAP2 POP POP SWAP3 POP SWAP3 POP SWAP3 JUMP JUMPDEST PUSH1 0x0 DUP1 PUSH1 0x0 DUP1 PUSH1 0x80 DUP6 DUP8 SUB SLT ISZERO PUSH2 0x3626 JUMPI PUSH1 0x0 DUP1 REVERT JUMPDEST PUSH1 0x0 PUSH2 0x3634 DUP8 DUP3 DUP9 ADD PUSH2 0x3517 JUMP JUMPDEST SWAP5 POP POP PUSH1 0x20 DUP6 ADD CALLDATALOAD PUSH8 0xFFFFFFFFFFFFFFFF DUP2 GT ISZERO PUSH2 0x3651 JUMPI PUSH1 0x0 DUP1 REVERT JUMPDEST PUSH2 0x365D DUP8 DUP3 DUP9 ADD PUSH2 0x3541 JUMP JUMPDEST SWAP4 POP POP PUSH1 0x40 PUSH2 0x366E DUP8 DUP3 DUP9 ADD PUSH2 0x3517 JUMP JUMPDEST SWAP3 POP POP PUSH1 0x60 PUSH2 0x367F DUP8 DUP3 DUP9 ADD PUSH2 0x352C JUMP JUMPDEST SWAP2 POP POP SWAP3 SWAP6 SWAP2 SWAP5 POP SWAP3 POP JUMP JUMPDEST PUSH1 0x0 DUP1 PUSH1 0x0 DUP1 PUSH1 0x0 PUSH1 0xA0 DUP7 DUP9 SUB SLT ISZERO PUSH2 0x36A3 JUMPI PUSH1 0x0 DUP1 REVERT JUMPDEST PUSH1 0x0 PUSH2 0x36B1 DUP9 DUP3 DUP10 ADD PUSH2 0x3517 JUMP JUMPDEST SWAP6 POP POP PUSH1 0x20 DUP7 ADD CALLDATALOAD PUSH8 0xFFFFFFFFFFFFFFFF DUP2 GT ISZERO PUSH2 0x36CE JUMPI PUSH1 0x0 DUP1 REVERT JUMPDEST PUSH2 0x36DA DUP9 DUP3 DUP10 ADD PUSH2 0x3541 JUMP JUMPDEST SWAP5 POP POP PUSH1 0x40 DUP7 ADD CALLDATALOAD PUSH8 0xFFFFFFFFFFFFFFFF DUP2 GT ISZERO PUSH2 0x36F7 JUMPI PUSH1 0x0 DUP1 REVERT JUMPDEST PUSH2 0x3703 DUP9 DUP3 DUP10 ADD PUSH2 0x3541 JUMP JUMPDEST SWAP4 POP POP PUSH1 0x60 DUP7 ADD CALLDATALOAD PUSH8 0xFFFFFFFFFFFFFFFF DUP2 GT ISZERO PUSH2 0x3720 JUMPI PUSH1 0x0 DUP1 REVERT JUMPDEST PUSH2 0x372C DUP9 DUP3 DUP10 ADD PUSH2 0x3541 JUMP JUMPDEST SWAP3 POP POP PUSH1 0x80 PUSH2 0x373D DUP9 DUP3 DUP10 ADD PUSH2 0x356B JUMP JUMPDEST SWAP2 POP POP SWAP3 SWAP6 POP SWAP3 SWAP6 SWAP1 SWAP4 POP JUMP JUMPDEST PUSH1 0x0 DUP1 PUSH1 0x0 DUP1 PUSH1 0x0 DUP1 PUSH1 0xC0 DUP8 DUP10 SUB SLT ISZERO PUSH2 0x3763 JUMPI PUSH1 0x0 DUP1 REVERT JUMPDEST PUSH1 0x0 PUSH2 0x3771 DUP10 DUP3 DUP11 ADD PUSH2 0x3517 JUMP JUMPDEST SWAP7 POP POP PUSH1 0x20 DUP8 ADD CALLDATALOAD PUSH8 0xFFFFFFFFFFFFFFFF DUP2 GT ISZERO PUSH2 0x378E JUMPI PUSH1 0x0 DUP1 REVERT JUMPDEST PUSH2 0x379A DUP10 DUP3 DUP11 ADD PUSH2 0x3541 JUMP JUMPDEST SWAP6 POP POP PUSH1 0x40 DUP8 ADD CALLDATALOAD PUSH8 0xFFFFFFFFFFFFFFFF DUP2 GT ISZERO PUSH2 0x37B7 JUMPI PUSH1 0x0 DUP1 REVERT JUMPDEST PUSH2 0x37C3 DUP10 DUP3 DUP11 ADD PUSH2 0x3541 JUMP JUMPDEST SWAP5 POP POP PUSH1 0x60 DUP8 ADD CALLDATALOAD PUSH8 0xFFFFFFFFFFFFFFFF DUP2 GT ISZERO PUSH2 0x37E0 JUMPI PUSH1 0x0 DUP1 REVERT JUMPDEST PUSH2 0x37EC DUP10 DUP3 DUP11 ADD PUSH2 0x3541 JUMP JUMPDEST SWAP4 POP POP PUSH1 0x80 PUSH2 0x37FD DUP10 DUP3 DUP11 ADD PUSH2 0x356B JUMP JUMPDEST SWAP3 POP POP PUSH1 0xA0 PUSH2 0x380E DUP10 DUP3 DUP11 ADD PUSH2 0x352C JUMP JUMPDEST SWAP2 POP POP SWAP3 SWAP6 POP SWAP3 SWAP6 POP SWAP3 SWAP6 JUMP JUMPDEST PUSH1 0x0 DUP1 PUSH1 0x0 DUP1 PUSH1 0x80 DUP6 DUP8 SUB SLT ISZERO PUSH2 0x3831 JUMPI PUSH1 0x0 DUP1 REVERT JUMPDEST PUSH1 0x0 DUP6 ADD CALLDATALOAD PUSH8 0xFFFFFFFFFFFFFFFF DUP2 GT ISZERO PUSH2 0x384B JUMPI PUSH1 0x0 DUP1 REVERT JUMPDEST PUSH2 0x3857 DUP8 DUP3 DUP9 ADD PUSH2 0x3541 JUMP JUMPDEST SWAP5 POP POP PUSH1 0x20 DUP6 ADD CALLDATALOAD PUSH8 0xFFFFFFFFFFFFFFFF DUP2 GT ISZERO PUSH2 0x3874 JUMPI PUSH1 0x0 DUP1 REVERT JUMPDEST PUSH2 0x3880 DUP8 DUP3 DUP9 ADD PUSH2 0x3541 JUMP JUMPDEST SWAP4 POP POP PUSH1 0x40 PUSH2 0x3891 DUP8 DUP3 DUP9 ADD PUSH2 0x3517 JUMP JUMPDEST SWAP3 POP POP PUSH1 0x60 PUSH2 0x38A2 DUP8 DUP3 DUP9 ADD PUSH2 0x352C JUMP JUMPDEST SWAP2 POP POP SWAP3 SWAP6 SWAP2 SWAP5 POP SWAP3 POP JUMP JUMPDEST PUSH1 0x0 PUSH1 0x20 DUP3 DUP5 SUB SLT ISZERO PUSH2 0x38C0 JUMPI PUSH1 0x0 DUP1 REVERT JUMPDEST PUSH1 0x0 PUSH2 0x38CE DUP5 DUP3 DUP6 ADD PUSH2 0x356B JUMP JUMPDEST SWAP2 POP POP SWAP3 SWAP2 POP POP JUMP JUMPDEST PUSH1 0x0 DUP1 PUSH1 0x0 DUP1 PUSH1 0x80 DUP6 DUP8 SUB SLT ISZERO PUSH2 0x38ED JUMPI PUSH1 0x0 DUP1 REVERT JUMPDEST PUSH1 0x0 PUSH2 0x38FB DUP8 DUP3 DUP9 ADD PUSH2 0x356B JUMP JUMPDEST SWAP5 POP POP PUSH1 0x20 DUP6 ADD CALLDATALOAD PUSH8 0xFFFFFFFFFFFFFFFF DUP2 GT ISZERO PUSH2 0x3918 JUMPI PUSH1 0x0 DUP1 REVERT JUMPDEST PUSH2 0x3924 DUP8 DUP3 DUP9 ADD PUSH2 0x3541 JUMP JUMPDEST SWAP4 POP POP PUSH1 0x40 DUP6 ADD CALLDATALOAD PUSH8 0xFFFFFFFFFFFFFFFF DUP2 GT ISZERO PUSH2 0x3941 JUMPI PUSH1 0x0 DUP1 REVERT JUMPDEST PUSH2 0x394D DUP8 DUP3 DUP9 ADD PUSH2 0x3541 JUMP JUMPDEST SWAP3 POP POP PUSH1 0x60 PUSH2 0x395E DUP8 DUP3 DUP9 ADD PUSH2 0x3517 JUMP JUMPDEST SWAP2 POP POP SWAP3 SWAP6 SWAP2 SWAP5 POP SWAP3 POP JUMP JUMPDEST PUSH1 0x0 PUSH2 0x3976 DUP4 DUP4 PUSH2 0x3D02 JUMP JUMPDEST SWAP1 POP SWAP3 SWAP2 POP POP JUMP JUMPDEST PUSH1 0x0 PUSH2 0x398A DUP4 DUP4 PUSH2 0x3D65 JUMP JUMPDEST SWAP1 POP SWAP3 SWAP2 POP POP JUMP JUMPDEST PUSH1 0x0 PUSH2 0x399E DUP4 DUP4 PUSH2 0x3DFC JUMP JUMPDEST SWAP1 POP SWAP3 SWAP2 POP POP JUMP JUMPDEST PUSH2 0x39AF DUP2 PUSH2 0x4458 JUMP JUMPDEST DUP3 MSTORE POP POP JUMP JUMPDEST PUSH2 0x39BE DUP2 PUSH2 0x4458 JUMP JUMPDEST DUP3 MSTORE POP POP JUMP JUMPDEST PUSH1 0x0 PUSH2 0x39CF DUP3 PUSH2 0x43B0 JUMP JUMPDEST PUSH2 0x39D9 DUP2 DUP6 PUSH2 0x4403 JUMP JUMPDEST SWAP4 POP DUP4 PUSH1 0x20 DUP3 MUL DUP6 ADD PUSH2 0x39EB DUP6 PUSH2 0x436B JUMP JUMPDEST DUP1 PUSH1 0x0 JUMPDEST DUP6 DUP2 LT ISZERO PUSH2 0x3A27 JUMPI DUP5 DUP5 SUB DUP10 MSTORE DUP2 MLOAD PUSH2 0x3A08 DUP6 DUP3 PUSH2 0x396A JUMP JUMPDEST SWAP5 POP PUSH2 0x3A13 DUP4 PUSH2 0x43DC JUMP JUMPDEST SWAP3 POP PUSH1 0x20 DUP11 ADD SWAP10 POP POP PUSH1 0x1 DUP2 ADD SWAP1 POP PUSH2 0x39EF JUMP JUMPDEST POP DUP3 SWAP8 POP DUP8 SWAP6 POP POP POP POP POP POP SWAP3 SWAP2 POP POP JUMP JUMPDEST PUSH1 0x0 PUSH2 0x3A44 DUP3 PUSH2 0x43BB JUMP JUMPDEST PUSH2 0x3A4E DUP2 DUP6 PUSH2 0x4414 JUMP JUMPDEST SWAP4 POP DUP4 PUSH1 0x20 DUP3 MUL DUP6 ADD PUSH2 0x3A60 DUP6 PUSH2 0x437B JUMP JUMPDEST DUP1 PUSH1 0x0 JUMPDEST DUP6 DUP2 LT ISZERO PUSH2 0x3A9C JUMPI DUP5 DUP5 SUB DUP10 MSTORE DUP2 MLOAD PUSH2 0x3A7D DUP6 DUP3 PUSH2 0x397E JUMP JUMPDEST SWAP5 POP PUSH2 0x3A88 DUP4 PUSH2 0x43E9 JUMP JUMPDEST SWAP3 POP PUSH1 0x20 DUP11 ADD SWAP10 POP POP PUSH1 0x1 DUP2 ADD SWAP1 POP PUSH2 0x3A64 JUMP JUMPDEST POP DUP3 SWAP8 POP DUP8 SWAP6 POP POP POP POP POP POP SWAP3 SWAP2 POP POP JUMP JUMPDEST PUSH1 0x0 PUSH2 0x3AB9 DUP3 PUSH2 0x43C6 JUMP JUMPDEST PUSH2 0x3AC3 DUP2 DUP6 PUSH2 0x4425 JUMP JUMPDEST SWAP4 POP DUP4 PUSH1 0x20 DUP3 MUL DUP6 ADD PUSH2 0x3AD5 DUP6 PUSH2 0x438B JUMP JUMPDEST DUP1 PUSH1 0x0 JUMPDEST DUP6 DUP2 LT ISZERO PUSH2 0x3B11 JUMPI DUP5 DUP5 SUB DUP10 MSTORE DUP2 MLOAD PUSH2 0x3AF2 DUP6 DUP3 PUSH2 0x3992 JUMP JUMPDEST SWAP5 POP PUSH2 0x3AFD DUP4 PUSH2 0x43F6 JUMP JUMPDEST SWAP3 POP PUSH1 0x20 DUP11 ADD SWAP10 POP POP PUSH1 0x1 DUP2 ADD SWAP1 POP PUSH2 0x3AD9 JUMP JUMPDEST POP DUP3 SWAP8 POP DUP8 SWAP6 POP POP POP POP POP POP SWAP3 SWAP2 POP POP JUMP JUMPDEST PUSH2 0x3B2C DUP2 PUSH2 0x446A JUMP JUMPDEST DUP3 MSTORE POP POP JUMP JUMPDEST PUSH2 0x3B3B DUP2 PUSH2 0x446A JUMP JUMPDEST DUP3 MSTORE POP POP JUMP JUMPDEST PUSH1 0x0 PUSH2 0x3B4C DUP3 PUSH2 0x43D1 JUMP JUMPDEST PUSH2 0x3B56 DUP2 DUP6 PUSH2 0x4436 JUMP JUMPDEST SWAP4 POP PUSH2 0x3B66 DUP2 DUP6 PUSH1 0x20 DUP7 ADD PUSH2 0x44AF JUMP JUMPDEST PUSH2 0x3B6F DUP2 PUSH2 0x44E4 JUMP JUMPDEST DUP5 ADD SWAP2 POP POP SWAP3 SWAP2 POP POP JUMP JUMPDEST PUSH1 0x0 PUSH2 0x3B85 DUP3 PUSH2 0x43D1 JUMP JUMPDEST PUSH2 0x3B8F DUP2 DUP6 PUSH2 0x4447 JUMP JUMPDEST SWAP4 POP PUSH2 0x3B9F DUP2 DUP6 PUSH1 0x20 DUP7 ADD PUSH2 0x44AF JUMP JUMPDEST PUSH2 0x3BA8 DUP2 PUSH2 0x44E4 JUMP JUMPDEST DUP5 ADD SWAP2 POP POP SWAP3 SWAP2 POP POP JUMP JUMPDEST PUSH1 0x0 DUP2 SLOAD PUSH1 0x1 DUP2 AND PUSH1 0x0 DUP2 EQ PUSH2 0x3BD0 JUMPI PUSH1 0x1 DUP2 EQ PUSH2 0x3BF6 JUMPI PUSH2 0x3C3A JUMP JUMPDEST PUSH1 0x7F PUSH1 0x2 DUP4 DIV AND PUSH2 0x3BE1 DUP2 DUP8 PUSH2 0x4447 JUMP JUMPDEST SWAP6 POP PUSH1 0xFF NOT DUP4 AND DUP7 MSTORE PUSH1 0x20 DUP7 ADD SWAP4 POP POP PUSH2 0x3C3A JUMP JUMPDEST PUSH1 0x2 DUP3 DIV PUSH2 0x3C04 DUP2 DUP8 PUSH2 0x4447 JUMP JUMPDEST SWAP6 POP PUSH2 0x3C0F DUP6 PUSH2 0x439B JUMP JUMPDEST PUSH1 0x0 JUMPDEST DUP3 DUP2 LT ISZERO PUSH2 0x3C31 JUMPI DUP2 SLOAD DUP2 DUP10 ADD MSTORE PUSH1 0x1 DUP3 ADD SWAP2 POP PUSH1 0x20 DUP2 ADD SWAP1 POP PUSH2 0x3C12 JUMP JUMPDEST DUP1 DUP9 ADD SWAP6 POP POP POP POP JUMPDEST POP POP SWAP3 SWAP2 POP POP JUMP JUMPDEST PUSH1 0x0 PUSH2 0x3C4F PUSH1 0x10 DUP4 PUSH2 0x4447 JUMP JUMPDEST SWAP2 POP PUSH32 0x446F63746F72206E6F7420666F756E6400000000000000000000000000000000 PUSH1 0x0 DUP4 ADD MSTORE PUSH1 0x20 DUP3 ADD SWAP1 POP SWAP2 SWAP1 POP JUMP JUMPDEST PUSH1 0x0 PUSH2 0x3C8F PUSH1 0x10 DUP4 PUSH2 0x4447 JUMP JUMPDEST SWAP2 POP PUSH32 0x53656E736F72206E6F7420666F756E6400000000000000000000000000000000 PUSH1 0x0 DUP4 ADD MSTORE PUSH1 0x20 DUP3 ADD SWAP1 POP SWAP2 SWAP1 POP JUMP JUMPDEST PUSH1 0x0 PUSH2 0x3CCF PUSH1 0x12 DUP4 PUSH2 0x4447 JUMP JUMPDEST SWAP2 POP PUSH32 0x486F73706974616C206E6F7420666F756E640000000000000000000000000000 PUSH1 0x0 DUP4 ADD MSTORE PUSH1 0x20 DUP3 ADD SWAP1 POP SWAP2 SWAP1 POP JUMP JUMPDEST PUSH1 0x0 PUSH1 0x80 DUP4 ADD PUSH1 0x0 DUP4 ADD MLOAD PUSH2 0x3D1A PUSH1 0x0 DUP7 ADD DUP3 PUSH2 0x39A6 JUMP JUMPDEST POP PUSH1 0x20 DUP4 ADD MLOAD DUP5 DUP3 SUB PUSH1 0x20 DUP7 ADD MSTORE PUSH2 0x3D32 DUP3 DUP3 PUSH2 0x3B41 JUMP JUMPDEST SWAP2 POP POP PUSH1 0x40 DUP4 ADD MLOAD PUSH2 0x3D47 PUSH1 0x40 DUP7 ADD DUP3 PUSH2 0x39A6 JUMP JUMPDEST POP PUSH1 0x60 DUP4 ADD MLOAD PUSH2 0x3D5A PUSH1 0x60 DUP7 ADD DUP3 PUSH2 0x3B23 JUMP JUMPDEST POP DUP1 SWAP2 POP POP SWAP3 SWAP2 POP POP JUMP JUMPDEST PUSH1 0x0 PUSH1 0xC0 DUP4 ADD PUSH1 0x0 DUP4 ADD MLOAD PUSH2 0x3D7D PUSH1 0x0 DUP7 ADD DUP3 PUSH2 0x39A6 JUMP JUMPDEST POP PUSH1 0x20 DUP4 ADD MLOAD DUP5 DUP3 SUB PUSH1 0x20 DUP7 ADD MSTORE PUSH2 0x3D95 DUP3 DUP3 PUSH2 0x3B41 JUMP JUMPDEST SWAP2 POP POP PUSH1 0x40 DUP4 ADD MLOAD DUP5 DUP3 SUB PUSH1 0x40 DUP7 ADD MSTORE PUSH2 0x3DAF DUP3 DUP3 PUSH2 0x3B41 JUMP JUMPDEST SWAP2 POP POP PUSH1 0x60 DUP4 ADD MLOAD DUP5 DUP3 SUB PUSH1 0x60 DUP7 ADD MSTORE PUSH2 0x3DC9 DUP3 DUP3 PUSH2 0x3B41 JUMP JUMPDEST SWAP2 POP POP PUSH1 0x80 DUP4 ADD MLOAD PUSH2 0x3DDE PUSH1 0x80 DUP7 ADD DUP3 PUSH2 0x3E79 JUMP JUMPDEST POP PUSH1 0xA0 DUP4 ADD MLOAD PUSH2 0x3DF1 PUSH1 0xA0 DUP7 ADD DUP3 PUSH2 0x3B23 JUMP JUMPDEST POP DUP1 SWAP2 POP POP SWAP3 SWAP2 POP POP JUMP JUMPDEST PUSH1 0x0 PUSH1 0xA0 DUP4 ADD PUSH1 0x0 DUP4 ADD MLOAD PUSH2 0x3E14 PUSH1 0x0 DUP7 ADD DUP3 PUSH2 0x3E79 JUMP JUMPDEST POP PUSH1 0x20 DUP4 ADD MLOAD DUP5 DUP3 SUB PUSH1 0x20 DUP7 ADD MSTORE PUSH2 0x3E2C DUP3 DUP3 PUSH2 0x3B41 JUMP JUMPDEST SWAP2 POP POP PUSH1 0x40 DUP4 ADD MLOAD DUP5 DUP3 SUB PUSH1 0x40 DUP7 ADD MSTORE PUSH2 0x3E46 DUP3 DUP3 PUSH2 0x3B41 JUMP JUMPDEST SWAP2 POP POP PUSH1 0x60 DUP4 ADD MLOAD PUSH2 0x3E5B PUSH1 0x60 DUP7 ADD DUP3 PUSH2 0x39A6 JUMP JUMPDEST POP PUSH1 0x80 DUP4 ADD MLOAD PUSH2 0x3E6E PUSH1 0x80 DUP7 ADD DUP3 PUSH2 0x3B23 JUMP JUMPDEST POP DUP1 SWAP2 POP POP SWAP3 SWAP2 POP POP JUMP JUMPDEST PUSH2 0x3E82 DUP2 PUSH2 0x4496 JUMP JUMPDEST DUP3 MSTORE POP POP JUMP JUMPDEST PUSH2 0x3E91 DUP2 PUSH2 0x4496 JUMP JUMPDEST DUP3 MSTORE POP POP JUMP JUMPDEST PUSH1 0x0 PUSH1 0x80 DUP3 ADD SWAP1 POP PUSH2 0x3EAC PUSH1 0x0 DUP4 ADD DUP8 PUSH2 0x39B5 JUMP JUMPDEST DUP2 DUP2 SUB PUSH1 0x20 DUP4 ADD MSTORE PUSH2 0x3EBE DUP2 DUP7 PUSH2 0x3B7A JUMP JUMPDEST SWAP1 POP PUSH2 0x3ECD PUSH1 0x40 DUP4 ADD DUP6 PUSH2 0x39B5 JUMP JUMPDEST PUSH2 0x3EDA PUSH1 0x60 DUP4 ADD DUP5 PUSH2 0x3B32 JUMP JUMPDEST SWAP6 SWAP5 POP POP POP POP POP JUMP JUMPDEST PUSH1 0x0 PUSH1 0xC0 DUP3 ADD SWAP1 POP PUSH2 0x3EF8 PUSH1 0x0 DUP4 ADD DUP10 PUSH2 0x39B5 JUMP JUMPDEST DUP2 DUP2 SUB PUSH1 0x20 DUP4 ADD MSTORE PUSH2 0x3F0A DUP2 DUP9 PUSH2 0x3B7A JUMP JUMPDEST SWAP1 POP DUP2 DUP2 SUB PUSH1 0x40 DUP4 ADD MSTORE PUSH2 0x3F1E DUP2 DUP8 PUSH2 0x3B7A JUMP JUMPDEST SWAP1 POP DUP2 DUP2 SUB PUSH1 0x60 DUP4 ADD MSTORE PUSH2 0x3F32 DUP2 DUP7 PUSH2 0x3B7A JUMP JUMPDEST SWAP1 POP PUSH2 0x3F41 PUSH1 0x80 DUP4 ADD DUP6 PUSH2 0x3E88 JUMP JUMPDEST PUSH2 0x3F4E PUSH1 0xA0 DUP4 ADD DUP5 PUSH2 0x3B32 JUMP JUMPDEST SWAP8 SWAP7 POP POP POP POP POP POP POP JUMP JUMPDEST PUSH1 0x0 PUSH1 0x80 DUP3 ADD SWAP1 POP PUSH2 0x3F6E PUSH1 0x0 DUP4 ADD DUP8 PUSH2 0x39B5 JUMP JUMPDEST DUP2 DUP2 SUB PUSH1 0x20 DUP4 ADD MSTORE PUSH2 0x3F80 DUP2 DUP7 PUSH2 0x3BB3 JUMP JUMPDEST SWAP1 POP PUSH2 0x3F8F PUSH1 0x40 DUP4 ADD DUP6 PUSH2 0x39B5 JUMP JUMPDEST PUSH2 0x3F9C PUSH1 0x60 DUP4 ADD DUP5 PUSH2 0x3B32 JUMP JUMPDEST SWAP6 SWAP5 POP POP POP POP POP JUMP JUMPDEST PUSH1 0x0 PUSH1 0xC0 DUP3 ADD SWAP1 POP PUSH2 0x3FBA PUSH1 0x0 DUP4 ADD DUP10 PUSH2 0x39B5 JUMP JUMPDEST DUP2 DUP2 SUB PUSH1 0x20 DUP4 ADD MSTORE PUSH2 0x3FCC DUP2 DUP9 PUSH2 0x3BB3 JUMP JUMPDEST SWAP1 POP DUP2 DUP2 SUB PUSH1 0x40 DUP4 ADD MSTORE PUSH2 0x3FE0 DUP2 DUP8 PUSH2 0x3BB3 JUMP JUMPDEST SWAP1 POP DUP2 DUP2 SUB PUSH1 0x60 DUP4 ADD MSTORE PUSH2 0x3FF4 DUP2 DUP7 PUSH2 0x3BB3 JUMP JUMPDEST SWAP1 POP PUSH2 0x4003 PUSH1 0x80 DUP4 ADD DUP6 PUSH2 0x3E88 JUMP JUMPDEST PUSH2 0x4010 PUSH1 0xA0 DUP4 ADD DUP5 PUSH2 0x3B32 JUMP JUMPDEST SWAP8 SWAP7 POP POP POP POP POP POP POP JUMP JUMPDEST PUSH1 0x0 PUSH1 0x20 DUP3 ADD SWAP1 POP DUP2 DUP2 SUB PUSH1 0x0 DUP4 ADD MSTORE PUSH2 0x4035 DUP2 DUP5 PUSH2 0x39C4 JUMP JUMPDEST SWAP1 POP SWAP3 SWAP2 POP POP JUMP JUMPDEST PUSH1 0x0 PUSH1 0x20 DUP3 ADD SWAP1 POP DUP2 DUP2 SUB PUSH1 0x0 DUP4 ADD MSTORE PUSH2 0x4057 DUP2 DUP5 PUSH2 0x3A39 JUMP JUMPDEST SWAP1 POP SWAP3 SWAP2 POP POP JUMP JUMPDEST PUSH1 0x0 PUSH1 0x20 DUP3 ADD SWAP1 POP DUP2 DUP2 SUB PUSH1 0x0 DUP4 ADD MSTORE PUSH2 0x4079 DUP2 DUP5 PUSH2 0x3AAE JUMP JUMPDEST SWAP1 POP SWAP3 SWAP2 POP POP JUMP JUMPDEST PUSH1 0x0 PUSH1 0x60 DUP3 ADD SWAP1 POP DUP2 DUP2 SUB PUSH1 0x0 DUP4 ADD MSTORE PUSH2 0x409B DUP2 DUP7 PUSH2 0x3B7A JUMP JUMPDEST SWAP1 POP PUSH2 0x40AA PUSH1 0x20 DUP4 ADD DUP6 PUSH2 0x39B5 JUMP JUMPDEST PUSH2 0x40B7 PUSH1 0x40 DUP4 ADD DUP5 PUSH2 0x3B32 JUMP JUMPDEST SWAP5 SWAP4 POP POP POP POP JUMP JUMPDEST PUSH1 0x0 PUSH1 0x80 DUP3 ADD SWAP1 POP DUP2 DUP2 SUB PUSH1 0x0 DUP4 ADD MSTORE PUSH2 0x40D9 DUP2 DUP8 PUSH2 0x3B7A JUMP JUMPDEST SWAP1 POP DUP2 DUP2 SUB PUSH1 0x20 DUP4 ADD MSTORE PUSH2 0x40ED DUP2 DUP7 PUSH2 0x3B7A JUMP JUMPDEST SWAP1 POP PUSH2 0x40FC PUSH1 0x40 DUP4 ADD DUP6 PUSH2 0x39B5 JUMP JUMPDEST PUSH2 0x4109 PUSH1 0x60 DUP4 ADD DUP5 PUSH2 0x3B32 JUMP JUMPDEST SWAP6 SWAP5 POP POP POP POP POP JUMP JUMPDEST PUSH1 0x0 PUSH1 0xA0 DUP3 ADD SWAP1 POP DUP2 DUP2 SUB PUSH1 0x0 DUP4 ADD MSTORE PUSH2 0x412C DUP2 DUP9 PUSH2 0x3B7A JUMP JUMPDEST SWAP1 POP DUP2 DUP2 SUB PUSH1 0x20 DUP4 ADD MSTORE PUSH2 0x4140 DUP2 DUP8 PUSH2 0x3B7A JUMP JUMPDEST SWAP1 POP DUP2 DUP2 SUB PUSH1 0x40 DUP4 ADD MSTORE PUSH2 0x4154 DUP2 DUP7 PUSH2 0x3B7A JUMP JUMPDEST SWAP1 POP PUSH2 0x4163 PUSH1 0x60 DUP4 ADD DUP6 PUSH2 0x3E88 JUMP JUMPDEST PUSH2 0x4170 PUSH1 0x80 DUP4 ADD DUP5 PUSH2 0x3B32 JUMP JUMPDEST SWAP7 SWAP6 POP POP POP POP POP POP JUMP JUMPDEST PUSH1 0x0 PUSH1 0x20 DUP3 ADD SWAP1 POP DUP2 DUP2 SUB PUSH1 0x0 DUP4 ADD MSTORE PUSH2 0x4193 DUP2 PUSH2 0x3C42 JUMP JUMPDEST SWAP1 POP SWAP2 SWAP1 POP JUMP JUMPDEST PUSH1 0x0 PUSH1 0x20 DUP3 ADD SWAP1 POP DUP2 DUP2 SUB PUSH1 0x0 DUP4 ADD MSTORE PUSH2 0x41B3 DUP2 PUSH2 0x3C82 JUMP JUMPDEST SWAP1 POP SWAP2 SWAP1 POP JUMP JUMPDEST PUSH1 0x0 PUSH1 0x20 DUP3 ADD SWAP1 POP DUP2 DUP2 SUB PUSH1 0x0 DUP4 ADD MSTORE PUSH2 0x41D3 DUP2 PUSH2 0x3CC2 JUMP JUMPDEST SWAP1 POP SWAP2 SWAP1 POP JUMP JUMPDEST PUSH1 0x0 PUSH1 0x20 DUP3 ADD SWAP1 POP PUSH2 0x41EF PUSH1 0x0 DUP4 ADD DUP5 PUSH2 0x3E88 JUMP JUMPDEST SWAP3 SWAP2 POP POP JUMP JUMPDEST PUSH1 0x0 PUSH1 0xA0 DUP3 ADD SWAP1 POP PUSH2 0x420A PUSH1 0x0 DUP4 ADD DUP9 PUSH2 0x3E88 JUMP JUMPDEST DUP2 DUP2 SUB PUSH1 0x20 DUP4 ADD MSTORE PUSH2 0x421C DUP2 DUP8 PUSH2 0x3B7A JUMP JUMPDEST SWAP1 POP DUP2 DUP2 SUB PUSH1 0x40 DUP4 ADD MSTORE PUSH2 0x4230 DUP2 DUP7 PUSH2 0x3B7A JUMP JUMPDEST SWAP1 POP PUSH2 0x423F PUSH1 0x60 DUP4 ADD DUP6 PUSH2 0x39B5 JUMP JUMPDEST PUSH2 0x424C PUSH1 0x80 DUP4 ADD DUP5 PUSH2 0x3B32 JUMP JUMPDEST SWAP7 SWAP6 POP POP POP POP POP POP JUMP JUMPDEST PUSH1 0x0 PUSH1 0x80 DUP3 ADD SWAP1 POP PUSH2 0x426B PUSH1 0x0 DUP4 ADD DUP8 PUSH2 0x3E88 JUMP JUMPDEST DUP2 DUP2 SUB PUSH1 0x20 DUP4 ADD MSTORE PUSH2 0x427D DUP2 DUP7 PUSH2 0x3BB3 JUMP JUMPDEST SWAP1 POP DUP2 DUP2 SUB PUSH1 0x40 DUP4 ADD MSTORE PUSH2 0x4291 DUP2 DUP6 PUSH2 0x3BB3 JUMP JUMPDEST SWAP1 POP PUSH2 0x42A0 PUSH1 0x60 DUP4 ADD DUP5 PUSH2 0x39B5 JUMP JUMPDEST SWAP6 SWAP5 POP POP POP POP POP JUMP JUMPDEST PUSH1 0x0 PUSH1 0xA0 DUP3 ADD SWAP1 POP PUSH2 0x42BE PUSH1 0x0 DUP4 ADD DUP9 PUSH2 0x3E88 JUMP JUMPDEST DUP2 DUP2 SUB PUSH1 0x20 DUP4 ADD MSTORE PUSH2 0x42D0 DUP2 DUP8 PUSH2 0x3BB3 JUMP JUMPDEST SWAP1 POP DUP2 DUP2 SUB PUSH1 0x40 DUP4 ADD MSTORE PUSH2 0x42E4 DUP2 DUP7 PUSH2 0x3BB3 JUMP JUMPDEST SWAP1 POP PUSH2 0x42F3 PUSH1 0x60 DUP4 ADD DUP6 PUSH2 0x39B5 JUMP JUMPDEST PUSH2 0x4300 PUSH1 0x80 DUP4 ADD DUP5 PUSH2 0x3B32 JUMP JUMPDEST SWAP7 SWAP6 POP POP POP POP POP POP JUMP JUMPDEST PUSH1 0x0 PUSH1 0x40 MLOAD SWAP1 POP DUP2 DUP2 ADD DUP2 DUP2 LT PUSH8 0xFFFFFFFFFFFFFFFF DUP3 GT OR ISZERO PUSH2 0x4331 JUMPI PUSH2 0x4330 PUSH2 0x44E2 JUMP JUMPDEST JUMPDEST DUP1 PUSH1 0x40 MSTORE POP SWAP2 SWAP1 POP JUMP JUMPDEST PUSH1 0x0 PUSH8 0xFFFFFFFFFFFFFFFF DUP3 GT ISZERO PUSH2 0x4356 JUMPI PUSH2 0x4355 PUSH2 0x44E2 JUMP JUMPDEST JUMPDEST PUSH1 0x1F NOT PUSH1 0x1F DUP4 ADD AND SWAP1 POP PUSH1 0x20 DUP2 ADD SWAP1 POP SWAP2 SWAP1 POP JUMP JUMPDEST PUSH1 0x0 DUP2 SWAP1 POP PUSH1 0x20 DUP3 ADD SWAP1 POP SWAP2 SWAP1 POP JUMP JUMPDEST PUSH1 0x0 DUP2 SWAP1 POP PUSH1 0x20 DUP3 ADD SWAP1 POP SWAP2 SWAP1 POP JUMP JUMPDEST PUSH1 0x0 DUP2 SWAP1 POP PUSH1 0x20 DUP3 ADD SWAP1 POP SWAP2 SWAP1 POP JUMP JUMPDEST PUSH1 0x0 DUP2 SWAP1 POP DUP2 PUSH1 0x0 MSTORE PUSH1 0x20 PUSH1 0x0 KECCAK256 SWAP1 POP SWAP2 SWAP1 POP JUMP JUMPDEST PUSH1 0x0 DUP2 MLOAD SWAP1 POP SWAP2 SWAP1 POP JUMP JUMPDEST PUSH1 0x0 DUP2 MLOAD SWAP1 POP SWAP2 SWAP1 POP JUMP JUMPDEST PUSH1 0x0 DUP2 MLOAD SWAP1 POP SWAP2 SWAP1 POP JUMP JUMPDEST PUSH1 0x0 DUP2 MLOAD SWAP1 POP SWAP2 SWAP1 POP JUMP JUMPDEST PUSH1 0x0 PUSH1 0x20 DUP3 ADD SWAP1 POP SWAP2 SWAP1 POP JUMP JUMPDEST PUSH1 0x0 PUSH1 0x20 DUP3 ADD SWAP1 POP SWAP2 SWAP1 POP JUMP JUMPDEST PUSH1 0x0 PUSH1 0x20 DUP3 ADD SWAP1 POP SWAP2 SWAP1 POP JUMP JUMPDEST PUSH1 0x0 DUP3 DUP3 MSTORE PUSH1 0x20 DUP3 ADD SWAP1 POP SWAP3 SWAP2 POP POP JUMP JUMPDEST PUSH1 0x0 DUP3 DUP3 MSTORE PUSH1 0x20 DUP3 ADD SWAP1 POP SWAP3 SWAP2 POP POP JUMP JUMPDEST PUSH1 0x0 DUP3 DUP3 MSTORE PUSH1 0x20 DUP3 ADD SWAP1 POP SWAP3 SWAP2 POP POP JUMP JUMPDEST PUSH1 0x0 DUP3 DUP3 MSTORE PUSH1 0x20 DUP3 ADD SWAP1 POP SWAP3 SWAP2 POP POP JUMP JUMPDEST PUSH1 0x0 DUP3 DUP3 MSTORE PUSH1 0x20 DUP3 ADD SWAP1 POP SWAP3 SWAP2 POP POP JUMP JUMPDEST PUSH1 0x0 PUSH2 0x4463 DUP3 PUSH2 0x4476 JUMP JUMPDEST SWAP1 POP SWAP2 SWAP1 POP JUMP JUMPDEST PUSH1 0x0 DUP2 ISZERO ISZERO SWAP1 POP SWAP2 SWAP1 POP JUMP JUMPDEST PUSH1 0x0 PUSH20 0xFFFFFFFFFFFFFFFFFFFFFFFFFFFFFFFFFFFFFFFF DUP3 AND SWAP1 POP SWAP2 SWAP1 POP JUMP JUMPDEST PUSH1 0x0 DUP2 SWAP1 POP SWAP2 SWAP1 POP JUMP JUMPDEST DUP3 DUP2 DUP4 CALLDATACOPY PUSH1 0x0 DUP4 DUP4 ADD MSTORE POP POP POP JUMP JUMPDEST PUSH1 0x0 JUMPDEST DUP4 DUP2 LT ISZERO PUSH2 0x44CD JUMPI DUP1 DUP3 ADD MLOAD DUP2 DUP5 ADD MSTORE PUSH1 0x20 DUP2 ADD SWAP1 POP PUSH2 0x44B2 JUMP JUMPDEST DUP4 DUP2 GT ISZERO PUSH2 0x44DC JUMPI PUSH1 0x0 DUP5 DUP5 ADD MSTORE JUMPDEST POP POP POP POP JUMP JUMPDEST INVALID JUMPDEST PUSH1 0x0 PUSH1 0x1F NOT PUSH1 0x1F DUP4 ADD AND SWAP1 POP SWAP2 SWAP1 POP JUMP JUMPDEST PUSH2 0x44FE DUP2 PUSH2 0x4458 JUMP JUMPDEST DUP2 EQ PUSH2 0x4509 JUMPI PUSH1 0x0 DUP1 REVERT JUMPDEST POP JUMP JUMPDEST PUSH2 0x4515 DUP2 PUSH2 0x446A JUMP JUMPDEST DUP2 EQ PUSH2 0x4520 JUMPI PUSH1 0x0 DUP1 REVERT JUMPDEST POP JUMP JUMPDEST PUSH2 0x452C DUP2 PUSH2 0x4496 JUMP JUMPDEST DUP2 EQ PUSH2 0x4537 JUMPI PUSH1 0x0 DUP1 REVERT JUMPDEST POP JUMP INVALID LOG2 PUSH5 0x6970667358 0x22 SLT KECCAK256 PUSH22 0x53AA8D061E9E6D6B2E1E768850D72A72E1E8273097CB 0xB5 0xD1 0xCD 0x4B 0xB7 DUP1 0xBE PUSH7 0x6F64736F6C6343 STOP SMOD MOD STOP CALLER "
    },
    "gasEstimates": {
      "creation": {
        "codeDepositCost": "3555200",
        "executionCost": "24857",
        "totalCost": "3580057"
      },
      "external": {
        "AddDoctor(address,string,address)": "infinite",
        "AddHospital(address,string,string,string,uint256)": "infinite",
        "AddSensor(string,string,address,bool)": "infinite",
        "Doctors(address)": "infinite",
        "Hospitals(address)": "infinite",
        "Length_Doctors()": "1213",
        "Length_Hospitals()": "1234",
        "Length_sensors()": "1190",
        "ReadDoctor(address)": "infinite",
        "ReadHospital(address)": "infinite",
        "ReadSensor(uint256)": "infinite",
        "RemoveDoctor(address)": "infinite",
        "RemoveHospital(address)": "infinite",
        "RemoveSensor(uint256)": "infinite",
        "Sensors(address)": "infinite",
        "UpdateDoctor(address,string,address,bool)": "infinite",
        "UpdateHospital(address,string,string,string,uint256,bool)": "infinite",
        "UpdateSensor(uint256,string,string,address)": "infinite",
        "doctorsHospital(uint256)": "infinite",
        "getAllDoctors()": "infinite",
        "getAllDoctorsInHospital(address)": "infinite",
        "getAllHospitals()": "infinite",
        "getAllSensorOfDoctor(address)": "infinite",
        "getAllSensors()": "infinite",
        "hospitalCenters(uint256)": "infinite",
        "sensorsDoctor(uint256)": "infinite"
      },
      "internal": {
        "FindDoctor(address)": "infinite",
        "FindHospital(address)": "infinite",
        "FindSensor(uint256)": "infinite"
      }
    },
    "methodIdentifiers": {
      "AddDoctor(address,string,address)": "e1ee3b56",
      "AddHospital(address,string,string,string,uint256)": "a27876c5",
      "AddSensor(string,string,address,bool)": "1b057e40",
      "Doctors(address)": "dc7aa36b",
      "Hospitals(address)": "a549a4ed",
      "Length_Doctors()": "1ba51696",
      "Length_Hospitals()": "a17d7a38",
      "Length_sensors()": "b5843613",
      "ReadDoctor(address)": "6cd8ebdc",
      "ReadHospital(address)": "9b70e779",
      "ReadSensor(uint256)": "02655c2e",
      "RemoveDoctor(address)": "a0568e2d",
      "RemoveHospital(address)": "4807fc69",
      "RemoveSensor(uint256)": "6151efb1",
      "Sensors(address)": "898bd140",
      "UpdateDoctor(address,string,address,bool)": "60ea3cdc",
      "UpdateHospital(address,string,string,string,uint256,bool)": "7fe53f83",
      "UpdateSensor(uint256,string,string,address)": "459d470e",
      "doctorsHospital(uint256)": "8db2fc41",
      "getAllDoctors()": "f0d95090",
      "getAllDoctorsInHospital(address)": "c266406d",
      "getAllHospitals()": "4e9f7154",
      "getAllSensorOfDoctor(address)": "9a2e5bed",
      "getAllSensors()": "5a4e5d3e",
      "hospitalCenters(uint256)": "d53d0a85",
      "sensorsDoctor(uint256)": "ea87659f"
    }
  },
  "storageLayout": {
    "storage": [
      {
        "astId": 4,
        "contract": "EHealth.sol:EHealth",
        "label": "nextIdDoctor",
        "offset": 0,
        "slot": "0",
        "type": "t_uint256"
      },
      {
        "astId": 6,
        "contract": "EHealth.sol:EHealth",
        "label": "nextIdSensor",
        "offset": 0,
        "slot": "1",
        "type": "t_uint256"
      },
      {
        "astId": 9,
        "contract": "EHealth.sol:EHealth",
        "label": "owner",
        "offset": 0,
        "slot": "2",
        "type": "t_address"
      },
      {
        "astId": 13,
        "contract": "EHealth.sol:EHealth",
        "label": "Hospitals",
        "offset": 0,
        "slot": "3",
        "type": "t_mapping(t_address,t_struct(Hospital)26_storage)"
      },
      {
        "astId": 29,
        "contract": "EHealth.sol:EHealth",
        "label": "hospitalCenters",
        "offset": 0,
        "slot": "4",
        "type": "t_array(t_struct(Hospital)26_storage)dyn_storage"
      },
      {
        "astId": 33,
        "contract": "EHealth.sol:EHealth",
        "label": "Doctors",
        "offset": 0,
        "slot": "5",
        "type": "t_mapping(t_address,t_struct(Doctor)42_storage)"
      },
      {
        "astId": 45,
        "contract": "EHealth.sol:EHealth",
        "label": "doctorsHospital",
        "offset": 0,
        "slot": "6",
        "type": "t_array(t_struct(Doctor)42_storage)dyn_storage"
      },
      {
        "astId": 49,
        "contract": "EHealth.sol:EHealth",
        "label": "Sensors",
        "offset": 0,
        "slot": "7",
        "type": "t_mapping(t_address,t_struct(Sensor)60_storage)"
      },
      {
        "astId": 63,
        "contract": "EHealth.sol:EHealth",
        "label": "sensorsDoctor",
        "offset": 0,
        "slot": "8",
        "type": "t_array(t_struct(Sensor)60_storage)dyn_storage"
      }
    ],
    "types": {
      "t_address": {
        "encoding": "inplace",
        "label": "address",
        "numberOfBytes": "20"
      },
      "t_array(t_struct(Doctor)42_storage)dyn_storage": {
        "base": "t_struct(Doctor)42_storage",
        "encoding": "dynamic_array",
        "label": "struct EHealth.Doctor[]",
        "numberOfBytes": "32"
      },
      "t_array(t_struct(Hospital)26_storage)dyn_storage": {
        "base": "t_struct(Hospital)26_storage",
        "encoding": "dynamic_array",
        "label": "struct EHealth.Hospital[]",
        "numberOfBytes": "32"
      },
      "t_array(t_struct(Sensor)60_storage)dyn_storage": {
        "base": "t_struct(Sensor)60_storage",
        "encoding": "dynamic_array",
        "label": "struct EHealth.Sensor[]",
        "numberOfBytes": "32"
      },
      "t_bool": {
        "encoding": "inplace",
        "label": "bool",
        "numberOfBytes": "1"
      },
      "t_mapping(t_address,t_struct(Doctor)42_storage)": {
        "encoding": "mapping",
        "key": "t_address",
        "label": "mapping(address => struct EHealth.Doctor)",
        "numberOfBytes": "32",
        "value": "t_struct(Doctor)42_storage"
      },
      "t_mapping(t_address,t_struct(Hospital)26_storage)": {
        "encoding": "mapping",
        "key": "t_address",
        "label": "mapping(address => struct EHealth.Hospital)",
        "numberOfBytes": "32",
        "value": "t_struct(Hospital)26_storage"
      },
      "t_mapping(t_address,t_struct(Sensor)60_storage)": {
        "encoding": "mapping",
        "key": "t_address",
        "label": "mapping(address => struct EHealth.Sensor)",
        "numberOfBytes": "32",
        "value": "t_struct(Sensor)60_storage"
      },
      "t_string_storage": {
        "encoding": "bytes",
        "label": "string",
        "numberOfBytes": "32"
      },
      "t_struct(Doctor)42_storage": {
        "encoding": "inplace",
        "label": "struct EHealth.Doctor",
        "members": [
          {
            "astId": 35,
            "contract": "EHealth.sol:EHealth",
            "label": "idDoctor",
            "offset": 0,
            "slot": "0",
            "type": "t_address"
          },
          {
            "astId": 37,
            "contract": "EHealth.sol:EHealth",
            "label": "nameDoctor",
            "offset": 0,
            "slot": "1",
            "type": "t_string_storage"
          },
          {
            "astId": 39,
            "contract": "EHealth.sol:EHealth",
            "label": "hospital",
            "offset": 0,
            "slot": "2",
            "type": "t_address"
          },
          {
            "astId": 41,
            "contract": "EHealth.sol:EHealth",
            "label": "permission",
            "offset": 20,
            "slot": "2",
            "type": "t_bool"
          }
        ],
        "numberOfBytes": "96"
      },
      "t_struct(Hospital)26_storage": {
        "encoding": "inplace",
        "label": "struct EHealth.Hospital",
        "members": [
          {
            "astId": 15,
            "contract": "EHealth.sol:EHealth",
            "label": "idHospital",
            "offset": 0,
            "slot": "0",
            "type": "t_address"
          },
          {
            "astId": 17,
            "contract": "EHealth.sol:EHealth",
            "label": "name",
            "offset": 0,
            "slot": "1",
            "type": "t_string_storage"
          },
          {
            "astId": 19,
            "contract": "EHealth.sol:EHealth",
            "label": "city",
            "offset": 0,
            "slot": "2",
            "type": "t_string_storage"
          },
          {
            "astId": 21,
            "contract": "EHealth.sol:EHealth",
            "label": "state",
            "offset": 0,
            "slot": "3",
            "type": "t_string_storage"
          },
          {
            "astId": 23,
            "contract": "EHealth.sol:EHealth",
            "label": "postalCode",
            "offset": 0,
            "slot": "4",
            "type": "t_uint256"
          },
          {
            "astId": 25,
            "contract": "EHealth.sol:EHealth",
            "label": "permission",
            "offset": 0,
            "slot": "5",
            "type": "t_bool"
          }
        ],
        "numberOfBytes": "192"
      },
      "t_struct(Sensor)60_storage": {
        "encoding": "inplace",
        "label": "struct EHealth.Sensor",
        "members": [
          {
            "astId": 51,
            "contract": "EHealth.sol:EHealth",
            "label": "idSensor",
            "offset": 0,
            "slot": "0",
            "type": "t_uint256"
          },
          {
            "astId": 53,
            "contract": "EHealth.sol:EHealth",
            "label": "MAC",
            "offset": 0,
            "slot": "1",
            "type": "t_string_storage"
          },
          {
            "astId": 55,
            "contract": "EHealth.sol:EHealth",
            "label": "patientName",
            "offset": 0,
            "slot": "2",
            "type": "t_string_storage"
          },
          {
            "astId": 57,
            "contract": "EHealth.sol:EHealth",
            "label": "idDoctor",
            "offset": 0,
            "slot": "3",
            "type": "t_address"
          },
          {
            "astId": 59,
            "contract": "EHealth.sol:EHealth",
            "label": "active",
            "offset": 20,
            "slot": "3",
            "type": "t_bool"
          }
        ],
        "numberOfBytes": "128"
      },
      "t_uint256": {
        "encoding": "inplace",
        "label": "uint256",
        "numberOfBytes": "32"
      }
    }
  },
  "userdoc": {
    "kind": "user",
    "methods": {},
    "version": 1
  },
  "address": "0x38e3809253343F3F43fbD84f514a4b75A5B1C685"
}